{
  "address": "0xb08bd256d82299Ec9dBcbfF87A293760a37C05f3",
  "abi": [
    {
      "inputs": [
        {
          "internalType": "uint256",
          "name": "amountOut",
          "type": "uint256"
        },
        {
          "internalType": "uint256",
          "name": "minAmountOut",
          "type": "uint256"
        }
      ],
      "name": "AmountOutLessThanMinimum",
      "type": "error"
    },
    {
      "inputs": [
        {
          "internalType": "uint256",
          "name": "amountOut",
          "type": "uint256"
        }
      ],
      "name": "AmountOutTooLow",
      "type": "error"
    },
    {
      "inputs": [
        {
          "internalType": "uint256",
          "name": "categoryId1",
          "type": "uint256"
        },
        {
          "internalType": "uint256",
          "name": "categoryId2",
          "type": "uint256"
        }
      ],
      "name": "BatchesNotInSameCategory",
      "type": "error"
    },
    {
      "inputs": [
        {
          "internalType": "uint256",
          "name": "startDate",
          "type": "uint256"
        },
        {
          "internalType": "uint256",
          "name": "endDate",
          "type": "uint256"
        }
      ],
      "name": "IncorrectDates",
      "type": "error"
    },
    {
      "inputs": [
        {
          "internalType": "uint256",
          "name": "batchId",
          "type": "uint256"
        }
      ],
      "name": "InvalidBatchId",
      "type": "error"
    },
    {
      "inputs": [],
      "name": "InvalidInput",
      "type": "error"
    },
    {
      "inputs": [],
      "name": "InvalidTADiscount",
      "type": "error"
    },
    {
      "anonymous": false,
      "inputs": [
        {
          "indexed": true,
          "internalType": "uint256",
          "name": "decollateralizationFee",
          "type": "uint256"
        }
      ],
      "name": "DecollateralizationFeeUpdated",
      "type": "event"
    },
    {
      "anonymous": false,
      "inputs": [
        {
          "indexed": true,
          "internalType": "uint256",
          "name": "batchId",
          "type": "uint256"
        },
        {
          "indexed": true,
          "internalType": "address",
          "name": "tokensOwner",
          "type": "address"
        },
        {
          "indexed": false,
          "internalType": "uint256",
          "name": "amountIn",
          "type": "uint256"
        },
        {
          "indexed": false,
          "internalType": "uint256",
          "name": "amountOut",
          "type": "uint256"
        }
      ],
      "name": "TokensDecollateralized",
      "type": "event"
    },
    {
      "inputs": [],
      "name": "DECOLLATERALIZATION_SIMULATION_INPUT",
      "outputs": [
        {
          "internalType": "uint256",
          "name": "",
          "type": "uint256"
        }
      ],
      "stateMutability": "view",
      "type": "function"
    }
  ],
  "transactionHash": "0xf4cd9b265439501a6cf5eb83971ac7645188b15c856650e23559118f89b5407d",
  "args": [],
  "numDeployments": 1,
  "solcInputHash": "257cb75acc9591f4e17fa59e949f2f9e",
  "bytecode": "0x6128ac61003a600b82828239805160001a60731461002d57634e487b7160e01b600052600060045260246000fd5b30600052607381538281f3fe730000000000000000000000000000000000000000301460806040526004361061007c5760003560e01c8063ad728ad51161005a578063ad728ad5146100e3578063b5ca64ec1461010c578063ebf2cd6b1461012a57600080fd5b806346edd1ef146100815780637e47ee65146100a3578063a6400cc6146100c3575b600080fd5b81801561008d57600080fd5b506100a161009c366004612373565b610158565b005b8180156100af57600080fd5b506100a16100be3660046123f1565b610186565b8180156100cf57600080fd5b506100a16100de366004612495565b610367565b6100f66100f13660046124cc565b6103e3565b60405161010391906124f8565b60405180910390f35b61011c683635c9adc5dea0000081565b604051908152602001610103565b61013d6101383660046124cc565b610682565b60408051938452602084019290925290820152606001610103565b610164848484846106a1565b6000838152600885016020526040902054610180908590610932565b50505050565b84831415806101955750848114155b156101cc576040517fb4fa3fb300000000000000000000000000000000000000000000000000000000815260040160405180910390fd5b60015b858110156102a45760008860080160008989858181106101f1576101f1612566565b90506020020135815260200190815260200160002054905060008960080160008a8a60018761022091906125c4565b81811061022f5761022f612566565b90506020020135815260200190815260200160002054905080821461028f576040517fa4f1c99800000000000000000000000000000000000000000000000000000000815260048101839052602481018290526044015b60405180910390fd5b5050808061029c906125d7565b9150506101cf565b5060005b8581101561031657610304888888848181106102c6576102c6612566565b905060200201358787858181106102df576102df612566565b905060200201358686868181106102f8576102f8612566565b905060200201356106a1565b8061030e816125d7565b9150506102a8565b5060008760080160008888600081811061033257610332612566565b90506020020135815260200190815260200160002054905061035d818961093290919063ffffffff16565b5050505050505050565b600e820180547fffffffffffffffff0000ffffffffffffffffffffffffffffffffffffffffffff1676010000000000000000000000000000000000000000000061ffff8416908102919091179091556040517f3a1bac3fdaf2d00c05b0cb3e9dce0dbaa14b865551f42b7b4755ebed6d08daf190600090a25050565b600a83015460609060009067ffffffffffffffff8111156104065761040661260f565b60405190808252806020026020018201604052801561046957816020015b6104566040518060a0016040528060008152602001600081526020016000815260200160008152602001600081525090565b8152602001906001900390816104245790505b5090506000805b600a8701548110156105a357600087600a01828154811061049357610493612566565b600091825260208083209091015480835260048b0190915260409091206003015490915061ffff780100000000000000000000000000000000000000000000000090910416861415806104f9575060008181526004890160205260409020600101548714155b156105045750610591565b600080600061051d8b85683635c9adc5dea00000610bb8565b9250925092506040518060a001604052808581526020018c60040160008781526020019081526020016000206002015481526020018481526020018381526020018281525087878151811061057457610574612566565b602090810291909101015261058a86600161263e565b9550505050505b8061059b816125d7565b915050610470565b508067ffffffffffffffff8111156105bd576105bd61260f565b60405190808252806020026020018201604052801561062057816020015b61060d6040518060a0016040528060008152602001600081526020016000815260200160008152602001600081525090565b8152602001906001900390816105db5790505b50925060005b818110156106785782818151811061064057610640612566565b602002602001015184828151811061065a5761065a612566565b60200260200101819052508080610670906125d7565b915050610626565b5050509392505050565b6000806000610692868686610bb8565b92509250925093509350939050565b816000036106db576040517fb4fa3fb300000000000000000000000000000000000000000000000000000000815260040160405180910390fd5b600083815260028501602052604090205460ff16610728576040517fb918c64400000000000000000000000000000000000000000000000000000000815260048101849052602401610286565b60006107348585610e37565b600085815260048781016020908152604080842060030154600e8b015482517f313ce56700000000000000000000000000000000000000000000000000000000815292519697509495869586956108569574010000000000000000000000000000000000000000850463ffffffff16958d957b01000000000000000000000000000000000000000000000000000000900462ffffff169476010000000000000000000000000000000000000000000090940461ffff169373ffffffffffffffffffffffffffffffffffffffff8d169363313ce5679383820193909291908290030181865afa15801561082a573d6000803e3d6000fd5b505050506040513d601f19601f8201168201806040525081019061084e9190612651565b60ff16610e83565b92509250925082600003610899576040517fa255ea5000000000000000000000000000000000000000000000000000000000815260048101849052602401610286565b848310156108dd576040517f23fd80cf0000000000000000000000000000000000000000000000000000000081526004810184905260248101869052604401610286565b6108eb888589868587610eee565b6040805187815260208101859052339189917f435f9f77958f18588c383702389d2363f978e29e93568860960caae3c43cbb0d910160405180910390a35050505050505050565b600081815260068301602052604081208190815b8154811015610abd57600082828154811061096357610963612566565b600091825260208083209091015480835260098a01909152604082208054919350915b81811015610aa65760008a60040160008584815481106109a8576109a8612566565b9060005260206000200154815260200190815260200160002090506000816002015490508060001480610a0f57508154600090815260048d016020526040902060030154427401000000000000000000000000000000000000000090910463ffffffff1611155b80610a41575060038201547e01000000000000000000000000000000000000000000000000000000000000900460ff16155b15610a50575050600101610986565b6003820154610a849082907b01000000000000000000000000000000000000000000000000000000900462ffffff16612674565b610a8e908b61263e565b9950610a9a818a61263e565b98505050600101610986565b505050508080610ab5906125d7565b915050610946565b5081600003610b245760008481526003860160205260408082206002810183905560010154905167010000000000000090910462ffffff169086907fd0c98409f17c45dc9f0e272df73b5b8056534c9822bb3f6d02f91c9922a9f95e908490a45050505050565b6000610b3083856126e0565b60008681526003880160205260408082206001810180547fffffffffffffffffffffffffffffffffffffffffffff000000ffffffffffffff1667010000000000000062ffffff871602179055600201869055519192508491839188917fd0c98409f17c45dc9f0e272df73b5b8056534c9822bb3f6d02f91c9922a9f95e9190a4505050505050565b60008281526002840160205260408120548190819060ff16610c09576040517fb918c64400000000000000000000000000000000000000000000000000000000815260048101869052602401610286565b6000610c158787610e37565b60008781526004898101602090815260409283902060030154600e8c015484517f313ce5670000000000000000000000000000000000000000000000000000000081529451959650610d079574010000000000000000000000000000000000000000830463ffffffff16958c957b0100000000000000000000000000000000000000000000000000000090940462ffffff169476010000000000000000000000000000000000000000000090930461ffff169373ffffffffffffffffffffffffffffffffffffffff8a169363313ce5679383830193919290918290030181865afa15801561082a573d6000803e3d6000fd5b505060008781526004898101602090815260409283902060030154600e8c015484517f313ce5670000000000000000000000000000000000000000000000000000000081529451959950610e279574010000000000000000000000000000000000000000830463ffffffff16958b957b0100000000000000000000000000000000000000000000000000000090940462ffffff169476010000000000000000000000000000000000000000000090930461ffff169373ffffffffffffffffffffffffffffffffffffffff8a169363313ce5679383830193919290918290030181865afa158015610dfb573d6000803e3d6000fd5b505050506040513d601f19601f82011682018060405250810190610e1f9190612651565b60ff16611074565b9498909750939550929350505050565b600081815260048301602090815260408083206001015483526007850182528083205483526005850190915290205473ffffffffffffffffffffffffffffffffffffffff165b92915050565b600080600080610e9688876127106110da565b90506000610ea4828a6125c4565b90506000610eb2898c6111ad565b90506000610ec483620f4240846110da565b9050610ed188600a61283b565b610edb90826126e0565b9c939b5091995091975050505050505050565b6040517f79cc67900000000000000000000000000000000000000000000000000000000081523360048201526024810183905273ffffffffffffffffffffffffffffffffffffffff8616906379cc679090604401600060405180830381600087803b158015610f5c57600080fd5b505af1158015610f70573d6000803e3d6000fd5b505050600e870154610f9d91508690339073ffffffffffffffffffffffffffffffffffffffff1684611250565b600084815260048701602052604081206002018054859290610fc09084906125c4565b9091555050600b8601546040517ff242432a000000000000000000000000000000000000000000000000000000008152306004820152336024820152604481018690526064810185905260a06084820152600060a482015273ffffffffffffffffffffffffffffffffffffffff9091169063f242432a9060c401600060405180830381600087803b15801561105457600080fd5b505af1158015611068573d6000803e3d6000fd5b50505050505050505050565b600080600061108386896111ad565b905060006110a8611094838a612674565b61109f87600a61283b565b620f42406110da565b90506110c0816127106110bb89826125c4565b6110da565b93506110cc81856125c4565b925050509550959350505050565b600080807fffffffffffffffffffffffffffffffffffffffffffffffffffffffffffffffff8587098587029250828110838203039150508060000361113257838281611128576111286126b1565b04925050506111a6565b80841161113e57600080fd5b600084868809851960019081018716968790049682860381900495909211909303600082900391909104909201919091029190911760038402600290811880860282030280860282030280860282030280860282030280860282030280860290910302029150505b9392505050565b6000806111ba4284611332565b905080600f0b6000036111d357620f4240915050610e7d565b60006111ee6111e586620f42406125c4565b620f42406113a1565b905060006111fc82846113ed565b905061120b81620f4240611409565b935083600003611247576040517fe161697300000000000000000000000000000000000000000000000000000000815260040160405180910390fd5b50505092915050565b6040517f23b872dd0000000000000000000000000000000000000000000000000000000080825273ffffffffffffffffffffffffffffffffffffffff8581166004840152841660248301526044820183905290600080606483828a5af16112bb573d6000803e3d6000fd5b506112c58561148e565b61132b576040517f08c379a000000000000000000000000000000000000000000000000000000000815260206004820152601960248201527f475076323a206661696c6564207472616e7366657246726f6d000000000000006044820152606401610286565b5050505050565b600082158061133f575081155b15611380576040517fe2ee76780000000000000000000000000000000000000000000000000000000081526004810184905260248101839052604401610286565b82821161138f57506000610e7d565b6111a661139c84846125c4565b611559565b6000816000036113b057600080fd5b60006113bc848461159f565b90506f7fffffffffffffffffffffffffffffff6fffffffffffffffffffffffffffffffff821611156111a657600080fd5b60006111a66114046113fe85611730565b84611832565b61188a565b60008160000361141b57506000610e7d565b600083600f0b121561142c57600080fd5b600f83900b6fffffffffffffffffffffffffffffffff8316810260401c90608084901c0277ffffffffffffffffffffffffffffffffffffffffffffffff81111561147557600080fd5b60401b811981111561148657600080fd5b019392505050565b60006114cd565b7f08c379a000000000000000000000000000000000000000000000000000000000600052602060045280602452508060445260646000fd5b3d801561150c5760208114611546576115077f475076323a206d616c666f726d6564207472616e7366657220726573756c7400601f611495565b611553565b823b61153d5761153d7f475076323a206e6f74206120636f6e74726163740000000000000000000000006014611495565b60019150611553565b3d6000803e600051151591505b50919050565b60008061156962093a80846126e0565b90508060000361157c5750600092915050565b6000611589826007612674565b90506115978161016d6113a1565b949350505050565b6000816000036115ae57600080fd5b600077ffffffffffffffffffffffffffffffffffffffffffffffff84116115ea5782604085901b816115e2576115e26126b1565b049050611713565b60c084811c6401000000008110611603576020918201911c5b620100008110611615576010918201911c5b6101008110611626576008918201911c5b60108110611636576004918201911c5b60048110611646576002918201911c5b60028110611655576001820191505b60bf820360018603901c6001018260ff0387901b81611676576116766126b1565b0492506fffffffffffffffffffffffffffffffff83111561169657600080fd5b608085901c83026fffffffffffffffffffffffffffffffff8616840260c088901c604089901b828110156116cb576001820391505b608084901b929003828110156116e2576001820391505b829003608084901c82146116f8576116f8612847565b888181611707576117076126b1565b04870196505050505050505b6fffffffffffffffffffffffffffffffff8111156111a657600080fd5b60008082600f0b1361174157600080fd5b6000600f83900b680100000000000000008112611760576040918201911d5b6401000000008112611774576020918201911d5b620100008112611786576010918201911d5b6101008112611797576008918201911d5b601081126117a7576004918201911d5b600481126117b7576002918201911d5b600281126117c6576001820191505b7fffffffffffffffffffffffffffffffffffffffffffffffffffffffffffffffc0820160401b600f85900b607f8490031b6780000000000000005b60008113156118275790800260ff81901c8281029390930192607f011c9060011d611801565b509095945050505050565b6000600f83810b9083900b0260401d7fffffffffffffffffffffffffffffffff80000000000000000000000000000000811280159061188157506f7fffffffffffffffffffffffffffffff8113155b6111a657600080fd5b60006840000000000000000082600f0b126118a457600080fd5b7fffffffffffffffffffffffffffffffffffffffffffffffc0000000000000000082600f0b12156118d757506000919050565b6f8000000000000000000000000000000060006780000000000000008416600f0b13156119155770016a09e667f3bcc908b2fb1366ea957d3e0260801c5b60008367400000000000000016600f0b1315611942577001306fe0a31b7152de8d5a46305c85edec0260801c5b60008367200000000000000016600f0b131561196f577001172b83c7d517adcdf7c8c50eb14a791f0260801c5b60008367100000000000000016600f0b131561199c5770010b5586cf9890f6298b92b71842a983630260801c5b60008367080000000000000016600f0b13156119c9577001059b0d31585743ae7c548eb68ca417fd0260801c5b60008367040000000000000016600f0b13156119f657700102c9a3e778060ee6f7caca4f7a29bde80260801c5b60008367020000000000000016600f0b1315611a235770010163da9fb33356d84a66ae336dcdfa3f0260801c5b60008367010000000000000016600f0b1315611a5057700100b1afa5abcbed6129ab13ec11dc95430260801c5b600083668000000000000016600f0b1315611a7c5770010058c86da1c09ea1ff19d294cf2f679b0260801c5b600083664000000000000016600f0b1315611aa8577001002c605e2e8cec506d21bfc89a23a00f0260801c5b600083662000000000000016600f0b1315611ad457700100162f3904051fa128bca9c55c31e5df0260801c5b600083661000000000000016600f0b1315611b00577001000b175effdc76ba38e31671ca9397250260801c5b600083660800000000000016600f0b1315611b2c57700100058ba01fb9f96d6cacd4b180917c3d0260801c5b600083660400000000000016600f0b1315611b585770010002c5cc37da9491d0985c348c68e7b30260801c5b600083660200000000000016600f0b1315611b84577001000162e525ee054754457d59952920260260801c5b600083660100000000000016600f0b1315611bb05770010000b17255775c040618bf4a4ade83fc0260801c5b6000836580000000000016600f0b1315611bdb577001000058b91b5bc9ae2eed81e9b7d4cfab0260801c5b6000836540000000000016600f0b1315611c0657700100002c5c89d5ec6ca4d7c8acc017b7c90260801c5b6000836520000000000016600f0b1315611c315770010000162e43f4f831060e02d839a9d16d0260801c5b6000836510000000000016600f0b1315611c5c57700100000b1721bcfc99d9f890ea069117630260801c5b6000836508000000000016600f0b1315611c875770010000058b90cf1e6d97f9ca14dbcc16280260801c5b6000836504000000000016600f0b1315611cb2577001000002c5c863b73f016468f6bac5ca2b0260801c5b6000836502000000000016600f0b1315611cdd57700100000162e430e5a18f6119e3c02282a50260801c5b6000836501000000000016600f0b1315611d08577001000000b1721835514b86e6d96efd1bfe0260801c5b60008364800000000016600f0b1315611d3257700100000058b90c0b48c6be5df846c5b2ef0260801c5b60008364400000000016600f0b1315611d5c5770010000002c5c8601cc6b9e94213c72737a0260801c5b60008364200000000016600f0b1315611d86577001000000162e42fff037df38aa2b219f060260801c5b60008364100000000016600f0b1315611db05770010000000b17217fba9c739aa5819f44f90260801c5b60008364080000000016600f0b1315611dda577001000000058b90bfcdee5acd3c1cedc8230260801c5b60008364040000000016600f0b1315611e0457700100000002c5c85fe31f35a6a30da1be500260801c5b60008364020000000016600f0b1315611e2e5770010000000162e42ff0999ce3541b9fffcf0260801c5b60008364010000000016600f0b1315611e5857700100000000b17217f80f4ef5aadda455540260801c5b600083638000000016600f0b1315611e815770010000000058b90bfbf8479bd5a81b51ad0260801c5b600083634000000016600f0b1315611eaa577001000000002c5c85fdf84bd62ae30a74cc0260801c5b600083632000000016600f0b1315611ed357700100000000162e42fefb2fed257559bdaa0260801c5b600083631000000016600f0b1315611efc577001000000000b17217f7d5a7716bba4a9ae0260801c5b600083630800000016600f0b1315611f2557700100000000058b90bfbe9ddbac5e109cce0260801c5b600083630400000016600f0b1315611f4e5770010000000002c5c85fdf4b15de6f17eb0d0260801c5b600083630200000016600f0b1315611f77577001000000000162e42fefa494f1478fde050260801c5b600083630100000016600f0b1315611fa05770010000000000b17217f7d20cf927c8e94c0260801c5b6000836280000016600f0b1315611fc8577001000000000058b90bfbe8f71cb4e4b33d0260801c5b6000836240000016600f0b1315611ff057700100000000002c5c85fdf477b662b269450260801c5b6000836220000016600f0b13156120185770010000000000162e42fefa3ae53369388c0260801c5b6000836210000016600f0b131561204057700100000000000b17217f7d1d351a389d400260801c5b6000836208000016600f0b13156120685770010000000000058b90bfbe8e8b2d3d4ede0260801c5b6000836204000016600f0b1315612090577001000000000002c5c85fdf4741bea6e77e0260801c5b6000836202000016600f0b13156120b857700100000000000162e42fefa39fe95583c20260801c5b6000836201000016600f0b13156120e0577001000000000000b17217f7d1cfb72b45e10260801c5b60008361800016600f0b131561210757700100000000000058b90bfbe8e7cc35c3f00260801c5b60008361400016600f0b131561212e5770010000000000002c5c85fdf473e242ea380260801c5b60008361200016600f0b1315612155577001000000000000162e42fefa39f02b772c0260801c5b60008361100016600f0b131561217c5770010000000000000b17217f7d1cf7d83c1a0260801c5b60008361080016600f0b13156121a3577001000000000000058b90bfbe8e7bdcbe2e0260801c5b60008361040016600f0b13156121ca57700100000000000002c5c85fdf473dea871f0260801c5b60008361020016600f0b13156121f15770010000000000000162e42fefa39ef44d910260801c5b60008361010016600f0b131561221857700100000000000000b17217f7d1cf79e9490260801c5b600083608016600f0b131561223e5770010000000000000058b90bfbe8e7bce5440260801c5b600083604016600f0b1315612264577001000000000000002c5c85fdf473de6eca0260801c5b600083602016600f0b131561228a57700100000000000000162e42fefa39ef366f0260801c5b600083601016600f0b13156122b0577001000000000000000b17217f7d1cf79afa0260801c5b600083600816600f0b13156122d657700100000000000000058b90bfbe8e7bcd6d0260801c5b600083600416600f0b13156122fc5770010000000000000002c5c85fdf473de6b20260801c5b600083600216600f0b1315612322577001000000000000000162e42fefa39ef3580260801c5b600083600116600f0b13156123485770010000000000000000b17217f7d1cf79ab0260801c5b600f83810b60401d603f03900b1c6f7fffffffffffffffffffffffffffffff811115610e7d57600080fd5b6000806000806080858703121561238957600080fd5b5050823594602084013594506040840135936060013592509050565b60008083601f8401126123b757600080fd5b50813567ffffffffffffffff8111156123cf57600080fd5b6020830191508360208260051b85010111156123ea57600080fd5b9250929050565b60008060008060008060006080888a03121561240c57600080fd5b87359650602088013567ffffffffffffffff8082111561242b57600080fd5b6124378b838c016123a5565b909850965060408a013591508082111561245057600080fd5b61245c8b838c016123a5565b909650945060608a013591508082111561247557600080fd5b506124828a828b016123a5565b989b979a50959850939692959293505050565b600080604083850312156124a857600080fd5b82359150602083013561ffff811681146124c157600080fd5b809150509250929050565b6000806000606084860312156124e157600080fd5b505081359360208301359350604090920135919050565b602080825282518282018190526000919060409081850190868401855b828110156125595781518051855286810151878601528581015186860152606080820151908601526080908101519085015260a09093019290850190600101612515565b5091979650505050505050565b7f4e487b7100000000000000000000000000000000000000000000000000000000600052603260045260246000fd5b7f4e487b7100000000000000000000000000000000000000000000000000000000600052601160045260246000fd5b81810381811115610e7d57610e7d612595565b60007fffffffffffffffffffffffffffffffffffffffffffffffffffffffffffffffff820361260857612608612595565b5060010190565b7f4e487b7100000000000000000000000000000000000000000000000000000000600052604160045260246000fd5b80820180821115610e7d57610e7d612595565b60006020828403121561266357600080fd5b815160ff811681146111a657600080fd5b6000817fffffffffffffffffffffffffffffffffffffffffffffffffffffffffffffffff04831182151516156126ac576126ac612595565b500290565b7f4e487b7100000000000000000000000000000000000000000000000000000000600052601260045260246000fd5b600082612716577f4e487b7100000000000000000000000000000000000000000000000000000000600052601260045260246000fd5b500490565b600181815b8085111561277457817fffffffffffffffffffffffffffffffffffffffffffffffffffffffffffffffff0482111561275a5761275a612595565b8085161561276757918102915b93841c9390800290612720565b509250929050565b60008261278b57506001610e7d565b8161279857506000610e7d565b81600181146127ae57600281146127b8576127d4565b6001915050610e7d565b60ff8411156127c9576127c9612595565b50506001821b610e7d565b5060208310610133831016604e8410600b84101617156127f7575081810a610e7d565b612801838361271b565b807fffffffffffffffffffffffffffffffffffffffffffffffffffffffffffffffff0482111561283357612833612595565b029392505050565b60006111a6838361277c565b7f4e487b7100000000000000000000000000000000000000000000000000000000600052600160045260246000fdfea26469706673582212207e0572324820ac06ef192583af9757fc71b158e8c6058c494ab0791a71d68dc364736f6c63430008100033",
  "devdoc": {
    "author": "Solid World DAO",
    "kind": "dev",
    "methods": {
      "bulkDecollateralizeTokens(SolidWorldManagerStorage.Storage storage,uint256[],uint256[],uint256[])": {
        "details": "Bulk-decollateralizes ERC20 tokens into multiple ERC1155 tokens with specified amountsprior to calling, msg.sender must approve SolidWorldManager to spend `sum(amountsIn)` ERC20 tokens_batchIds must belong to the same Categorywill trigger a rebalance of the Category",
        "params": {
          "_storage": "Struct containing the current state used or modified by this function",
          "amountsIn": "ERC20 tokens to decollateralize",
          "amountsOutMin": "minimum output amounts of ERC1155 tokens for transaction to succeed",
          "batchIds": "ids of the batches"
        }
      },
      "decollateralizeTokens(SolidWorldManagerStorage.Storage storage,uint256,uint256,uint256)": {
        "details": "Decollateralizes `amountIn` of ERC20 tokens and sends `amountOut` ERC1155 tokens with id `batchId` to msg.senderprior to calling, msg.sender must approve SolidWorldManager to spend `amountIn` ERC20 tokenswill trigger a rebalance of the Category",
        "params": {
          "_storage": "Struct containing the current state used or modified by this function",
          "amountIn": "ERC20 tokens to decollateralize",
          "amountOutMin": "minimum output amount of ERC1155 tokens for transaction to succeed",
          "batchId": "id of the batch"
        }
      },
      "getBatchesDecollateralizationInfo(SolidWorldManagerStorage.Storage storage,uint256,uint256)": {
        "details": "Computes relevant info for the decollateralization process involving batches that match the specified `projectId` and `vintage`",
        "params": {
          "_storage": "Struct containing the current state used or modified by this function",
          "projectId": "id of the project the batch belongs to",
          "vintage": "vintage of the batch"
        },
        "returns": {
          "result": "array of relevant info about matching batches"
        }
      },
      "setDecollateralizationFee(SolidWorldManagerStorage.Storage storage,uint16)": {
        "params": {
          "_storage": "Struct containing the current state used or modified by this function",
          "decollateralizationFee": "fee for decollateralizing ERC20 tokens"
        }
      },
      "simulateDecollateralization(SolidWorldManagerStorage.Storage storage,uint256,uint256)": {
        "details": "Simulates decollateralization of `amountIn` ERC20 tokens for ERC1155 tokens with id `batchId`",
        "params": {
          "_storage": "Struct containing the current state used or modified by this function",
          "amountIn": "ERC20 tokens to decollateralize",
          "batchId": "id of the batch"
        },
        "returns": {
          "amountOut": "ERC1155 tokens to be received by msg.sender",
          "minAmountIn": "minimum amount of ERC20 tokens to decollateralize `amountOut` ERC1155 tokens with id `batchId`",
          "minCbtDaoCut": "ERC20 tokens to be received by feeReceiver for decollateralizing minAmountIn ERC20 tokens"
        }
      }
    },
    "version": 1
  },
  "userdoc": {
    "kind": "user",
    "methods": {
      "DECOLLATERALIZATION_SIMULATION_INPUT()": {
        "notice": "Constant used as input for decollateralization simulation for ordering batches with the same category and vintage"
      }
    },
    "notice": "Handles batch decollateralization operations.",
    "version": 1
  },
  "storageLayout": {
    "storage": [],
    "types": null
  }
}