{
  "address": "0x41E61b6AA46d5d8D39896A4E3096c9056DFD8E02",
  "abi": [
    {
      "inputs": [
        {
          "internalType": "uint256",
          "name": "amountOut",
          "type": "uint256"
        },
        {
          "internalType": "uint256",
          "name": "minAmountOut",
          "type": "uint256"
        }
      ],
      "name": "AmountOutLessThanMinimum",
      "type": "error"
    },
    {
      "inputs": [
        {
          "internalType": "uint256",
          "name": "amountOut",
          "type": "uint256"
        }
      ],
      "name": "AmountOutTooLow",
      "type": "error"
    },
    {
      "inputs": [
        {
          "internalType": "uint256",
          "name": "categoryId1",
          "type": "uint256"
        },
        {
          "internalType": "uint256",
          "name": "categoryId2",
          "type": "uint256"
        }
      ],
      "name": "BatchesNotInSameCategory",
      "type": "error"
    },
    {
      "inputs": [
        {
          "internalType": "uint256",
          "name": "startDate",
          "type": "uint256"
        },
        {
          "internalType": "uint256",
          "name": "endDate",
          "type": "uint256"
        }
      ],
      "name": "IncorrectDates",
      "type": "error"
    },
    {
      "inputs": [
        {
          "internalType": "uint256",
          "name": "batchId",
          "type": "uint256"
        }
      ],
      "name": "InvalidBatchId",
      "type": "error"
    },
    {
      "inputs": [],
      "name": "InvalidInput",
      "type": "error"
    },
    {
      "inputs": [],
      "name": "InvalidTADiscount",
      "type": "error"
    },
    {
      "anonymous": false,
      "inputs": [
        {
          "indexed": true,
          "internalType": "uint256",
          "name": "boostedDecollateralizationFee",
          "type": "uint256"
        }
      ],
      "name": "BoostedDecollateralizationFeeUpdated",
      "type": "event"
    },
    {
      "anonymous": false,
      "inputs": [
        {
          "indexed": true,
          "internalType": "uint256",
          "name": "decollateralizationFee",
          "type": "uint256"
        }
      ],
      "name": "DecollateralizationFeeUpdated",
      "type": "event"
    },
    {
      "anonymous": false,
      "inputs": [
        {
          "indexed": true,
          "internalType": "uint256",
          "name": "batchId",
          "type": "uint256"
        },
        {
          "indexed": true,
          "internalType": "address",
          "name": "tokensOwner",
          "type": "address"
        },
        {
          "indexed": false,
          "internalType": "uint256",
          "name": "amountIn",
          "type": "uint256"
        },
        {
          "indexed": false,
          "internalType": "uint256",
          "name": "amountOut",
          "type": "uint256"
        }
      ],
      "name": "TokensDecollateralized",
      "type": "event"
    },
    {
      "inputs": [],
      "name": "DECOLLATERALIZATION_SIMULATION_INPUT",
      "outputs": [
        {
          "internalType": "uint256",
          "name": "",
          "type": "uint256"
        }
      ],
      "stateMutability": "view",
      "type": "function"
    }
  ],
  "transactionHash": "0xa9d6ef4bedaee7863bce18bc6ffda3b443eb0e5ace00c60c40c0b39d60c30e42",
  "args": [],
  "numDeployments": 1,
  "solcInputHash": "ed55a1b097ef81c557c24158997c3e51",
  "bytecode": "0x6129f261003a600b82828239805160001a60731461002d57634e487b7160e01b600052600060045260246000fd5b30600052607381538281f3fe73000000000000000000000000000000000000000030146080604052600436106100925760003560e01c8063ad728ad511610065578063ad728ad514610119578063b5ca64ec14610142578063d152151e14610160578063ebf2cd6b1461018857600080fd5b806346edd1ef146100975780637121562b146100b95780637e47ee65146100d9578063a6400cc6146100f9575b600080fd5b8180156100a357600080fd5b506100b76100b23660046124b9565b6101b6565b005b8180156100c557600080fd5b506100b76100d43660046124eb565b6101e4565b8180156100e557600080fd5b506100b76100f436600461256e565b610262565b81801561010557600080fd5b506100b76101143660046124eb565b610443565b61012c610127366004612612565b6104bf565b604051610139919061263e565b60405180910390f35b610152683635c9adc5dea0000081565b604051908152602001610139565b61017361016e366004612612565b61075e565b60408051928352602083019190915201610139565b61019b610196366004612612565b61083f565b60408051938452602084019290925290820152606001610139565b6101c28484848461085e565b60008381526008850160205260409020546101de908590610a51565b50505050565b600f820180547fffffffffffff0000ffffffffffffffffffffffffffffffffffffffffffffffff16780100000000000000000000000000000000000000000000000061ffff8416908102919091179091556040517fdd582af59dce808b19f2fe0c45e5dbaaa7ac5ec6d368dad831b6b8321b72c4cf90600090a25050565b84831415806102715750848114155b156102a8576040517fb4fa3fb300000000000000000000000000000000000000000000000000000000815260040160405180910390fd5b60015b858110156103805760008860080160008989858181106102cd576102cd6126ac565b90506020020135815260200190815260200160002054905060008960080160008a8a6001876102fc919061270a565b81811061030b5761030b6126ac565b90506020020135815260200190815260200160002054905080821461036b576040517fa4f1c99800000000000000000000000000000000000000000000000000000000815260048101839052602481018290526044015b60405180910390fd5b505080806103789061271d565b9150506102ab565b5060005b858110156103f2576103e0888888848181106103a2576103a26126ac565b905060200201358787858181106103bb576103bb6126ac565b905060200201358686868181106103d4576103d46126ac565b9050602002013561085e565b806103ea8161271d565b915050610384565b5060008760080160008888600081811061040e5761040e6126ac565b9050602002013581526020019081526020016000205490506104398189610a5190919063ffffffff16565b5050505050505050565b600f820180547fffffffffffffffff0000ffffffffffffffffffffffffffffffffffffffffffff1676010000000000000000000000000000000000000000000061ffff8416908102919091179091556040517f3a1bac3fdaf2d00c05b0cb3e9dce0dbaa14b865551f42b7b4755ebed6d08daf190600090a25050565b600a83015460609060009067ffffffffffffffff8111156104e2576104e2612755565b60405190808252806020026020018201604052801561054557816020015b6105326040518060a0016040528060008152602001600081526020016000815260200160008152602001600081525090565b8152602001906001900390816105005790505b5090506000805b600a87015481101561067f57600087600a01828154811061056f5761056f6126ac565b600091825260208083209091015480835260048b0190915260409091206003015490915061ffff780100000000000000000000000000000000000000000000000090910416861415806105d5575060008181526004890160205260409020600101548714155b156105e0575061066d565b60008060006105f98b85683635c9adc5dea00000610cd7565b9250925092506040518060a001604052808581526020018c600401600087815260200190815260200160002060020154815260200184815260200183815260200182815250878781518110610650576106506126ac565b6020908102919091010152610666866001612784565b9550505050505b806106778161271d565b91505061054c565b508067ffffffffffffffff81111561069957610699612755565b6040519080825280602002602001820160405280156106fc57816020015b6106e96040518060a0016040528060008152602001600081526020016000815260200160008152602001600081525090565b8152602001906001900390816106b75790505b50925060005b818110156107545782818151811061071c5761071c6126ac565b6020026020010151848281518110610736576107366126ac565b6020026020010181905250808061074c9061271d565b915050610702565b5050509392505050565b6000828152600284016020526040812054819060ff166107ad576040517fb918c64400000000000000000000000000000000000000000000000000000000815260048101859052602401610362565b6108338585856107bd8989610dd5565b73ffffffffffffffffffffffffffffffffffffffff1663313ce5676040518163ffffffff1660e01b8152600401602060405180830381865afa158015610807573d6000803e3d6000fd5b505050506040513d601f19601f8201168201806040525081019061082b9190612797565b60ff16610e21565b90969095509350505050565b600080600061084f868686610cd7565b92509250925093509350939050565b81600003610898576040517fb4fa3fb300000000000000000000000000000000000000000000000000000000815260040160405180910390fd5b600083815260028501602052604090205460ff166108e5576040517fb918c64400000000000000000000000000000000000000000000000000000000815260048101849052602401610362565b60006108f18585610dd5565b905060008060006109758888888773ffffffffffffffffffffffffffffffffffffffff1663313ce5676040518163ffffffff1660e01b8152600401602060405180830381865afa158015610949573d6000803e3d6000fd5b505050506040513d601f19601f8201168201806040525081019061096d9190612797565b60ff16610eab565b925092509250826000036109b8576040517fa255ea5000000000000000000000000000000000000000000000000000000000815260048101849052602401610362565b848310156109fc576040517f23fd80cf0000000000000000000000000000000000000000000000000000000081526004810184905260248101869052604401610362565b610a0a888589868587610f39565b6040805187815260208101859052339189917f435f9f77958f18588c383702389d2363f978e29e93568860960caae3c43cbb0d910160405180910390a35050505050505050565b600081815260068301602052604081208190815b8154811015610bdc576000828281548110610a8257610a826126ac565b600091825260208083209091015480835260098a01909152604082208054919350915b81811015610bc55760008a6004016000858481548110610ac757610ac76126ac565b9060005260206000200154815260200190815260200160002090506000816002015490508060001480610b2e57508154600090815260048d016020526040902060030154427401000000000000000000000000000000000000000090910463ffffffff1611155b80610b60575060038201547e01000000000000000000000000000000000000000000000000000000000000900460ff16155b15610b6f575050600101610aa5565b6003820154610ba39082907b01000000000000000000000000000000000000000000000000000000900462ffffff166127ba565b610bad908b612784565b9950610bb9818a612784565b98505050600101610aa5565b505050508080610bd49061271d565b915050610a65565b5081600003610c435760008481526003860160205260408082206002810183905560010154905167010000000000000090910462ffffff169086907fd0c98409f17c45dc9f0e272df73b5b8056534c9822bb3f6d02f91c9922a9f95e908490a45050505050565b6000610c4f8385612826565b60008681526003880160205260408082206001810180547fffffffffffffffffffffffffffffffffffffffffffff000000ffffffffffffff1667010000000000000062ffffff871602179055600201869055519192508491839188917fd0c98409f17c45dc9f0e272df73b5b8056534c9822bb3f6d02f91c9922a9f95e9190a4505050505050565b60008281526002840160205260408120548190819060ff16610d28576040517fb918c64400000000000000000000000000000000000000000000000000000000815260048101869052602401610362565b6000610d348787610dd5565b73ffffffffffffffffffffffffffffffffffffffff1663313ce5676040518163ffffffff1660e01b8152600401602060405180830381865afa158015610d7e573d6000803e3d6000fd5b505050506040513d601f19601f82011682018060405250810190610da29190612797565b60ff169050610db387878784610eab565b50909450610dc5905087878684610e21565b9498909750939550929350505050565b600081815260048301602090815260408083206001015483526007850182528083205483526005850190915290205473ffffffffffffffffffffffffffffffffffffffff165b92915050565b6000806000610e3087876110bf565b600087815260048901602052604090206003015461ffff919091169150610e9d9074010000000000000000000000000000000000000000810463ffffffff169087907b01000000000000000000000000000000000000000000000000000000900462ffffff16848861114f565b925092505094509492505050565b600080600080610ebb88886110bf565b600088815260048a01602052604090206003015461ffff919091169150610f289074010000000000000000000000000000000000000000810463ffffffff169088907b01000000000000000000000000000000000000000000000000000000900462ffffff1684896111b5565b935093509350509450945094915050565b6040517f79cc67900000000000000000000000000000000000000000000000000000000081523360048201526024810183905273ffffffffffffffffffffffffffffffffffffffff8616906379cc679090604401600060405180830381600087803b158015610fa757600080fd5b505af1158015610fbb573d6000803e3d6000fd5b505050600e870154610fe891508690339073ffffffffffffffffffffffffffffffffffffffff1684611220565b60008481526004870160205260408120600201805485929061100b90849061270a565b9091555050600b8601546040517ff242432a000000000000000000000000000000000000000000000000000000008152306004820152336024820152604481018690526064810185905260a06084820152600060a482015273ffffffffffffffffffffffffffffffffffffffff9091169063f242432a9060c401600060405180830381600087803b15801561109f57600080fd5b505af11580156110b3573d6000803e3d6000fd5b50505050505050505050565b6000818152600483016020526040812060030154427401000000000000000000000000000000000000000090910463ffffffff1611801590611127575050600f8201547801000000000000000000000000000000000000000000000000900461ffff16610e1b565b505050600f0154760100000000000000000000000000000000000000000000900461ffff1690565b600080600061115e8689611302565b9050600061118361116f838a6127ba565b61117a87600a612981565b620f42406113a5565b905061119b81612710611196898261270a565b6113a5565b93506111a7818561270a565b925050509550959350505050565b6000806000806111c888876127106113a5565b905060006111d6828a61270a565b905060006111e4898c611302565b905060006111f683620f4240846113a5565b905061120388600a612981565b61120d9082612826565b9c939b5091995091975050505050505050565b6040517f23b872dd0000000000000000000000000000000000000000000000000000000080825273ffffffffffffffffffffffffffffffffffffffff8581166004840152841660248301526044820183905290600080606483828a5af161128b573d6000803e3d6000fd5b5061129585611478565b6112fb576040517f08c379a000000000000000000000000000000000000000000000000000000000815260206004820152601960248201527f475076323a206661696c6564207472616e7366657246726f6d000000000000006044820152606401610362565b5050505050565b60008061130f4284611543565b905080600f0b60000361132857620f4240915050610e1b565b600061134361133a86620f424061270a565b620f42406115b2565b9050600061135182846115fe565b905061136081620f424061161a565b93508360000361139c576040517fe161697300000000000000000000000000000000000000000000000000000000815260040160405180910390fd5b50505092915050565b600080807fffffffffffffffffffffffffffffffffffffffffffffffffffffffffffffffff858709858702925082811083820303915050806000036113fd578382816113f3576113f36127f7565b0492505050611471565b80841161140957600080fd5b600084868809851960019081018716968790049682860381900495909211909303600082900391909104909201919091029190911760038402600290811880860282030280860282030280860282030280860282030280860282030280860290910302029150505b9392505050565b60006114b7565b7f08c379a000000000000000000000000000000000000000000000000000000000600052602060045280602452508060445260646000fd5b3d80156114f65760208114611530576114f17f475076323a206d616c666f726d6564207472616e7366657220726573756c7400601f61147f565b61153d565b823b611527576115277f475076323a206e6f74206120636f6e7472616374000000000000000000000000601461147f565b6001915061153d565b3d6000803e600051151591505b50919050565b6000821580611550575081155b15611591576040517fe2ee76780000000000000000000000000000000000000000000000000000000081526004810184905260248101839052604401610362565b8282116115a057506000610e1b565b6114716115ad848461270a565b61169f565b6000816000036115c157600080fd5b60006115cd84846116e5565b90506f7fffffffffffffffffffffffffffffff6fffffffffffffffffffffffffffffffff8216111561147157600080fd5b600061147161161561160f85611876565b84611978565b6119d0565b60008160000361162c57506000610e1b565b600083600f0b121561163d57600080fd5b600f83900b6fffffffffffffffffffffffffffffffff8316810260401c90608084901c0277ffffffffffffffffffffffffffffffffffffffffffffffff81111561168657600080fd5b60401b811981111561169757600080fd5b019392505050565b6000806116af62093a8084612826565b9050806000036116c25750600092915050565b60006116cf8260076127ba565b90506116dd8161016d6115b2565b949350505050565b6000816000036116f457600080fd5b600077ffffffffffffffffffffffffffffffffffffffffffffffff84116117305782604085901b81611728576117286127f7565b049050611859565b60c084811c6401000000008110611749576020918201911c5b62010000811061175b576010918201911c5b610100811061176c576008918201911c5b6010811061177c576004918201911c5b6004811061178c576002918201911c5b6002811061179b576001820191505b60bf820360018603901c6001018260ff0387901b816117bc576117bc6127f7565b0492506fffffffffffffffffffffffffffffffff8311156117dc57600080fd5b608085901c83026fffffffffffffffffffffffffffffffff8616840260c088901c604089901b82811015611811576001820391505b608084901b92900382811015611828576001820391505b829003608084901c821461183e5761183e61298d565b88818161184d5761184d6127f7565b04870196505050505050505b6fffffffffffffffffffffffffffffffff81111561147157600080fd5b60008082600f0b1361188757600080fd5b6000600f83900b6801000000000000000081126118a6576040918201911d5b64010000000081126118ba576020918201911d5b6201000081126118cc576010918201911d5b61010081126118dd576008918201911d5b601081126118ed576004918201911d5b600481126118fd576002918201911d5b6002811261190c576001820191505b7fffffffffffffffffffffffffffffffffffffffffffffffffffffffffffffffc0820160401b600f85900b607f8490031b6780000000000000005b600081131561196d5790800260ff81901c8281029390930192607f011c9060011d611947565b509095945050505050565b6000600f83810b9083900b0260401d7fffffffffffffffffffffffffffffffff8000000000000000000000000000000081128015906119c757506f7fffffffffffffffffffffffffffffff8113155b61147157600080fd5b60006840000000000000000082600f0b126119ea57600080fd5b7fffffffffffffffffffffffffffffffffffffffffffffffc0000000000000000082600f0b1215611a1d57506000919050565b6f8000000000000000000000000000000060006780000000000000008416600f0b1315611a5b5770016a09e667f3bcc908b2fb1366ea957d3e0260801c5b60008367400000000000000016600f0b1315611a88577001306fe0a31b7152de8d5a46305c85edec0260801c5b60008367200000000000000016600f0b1315611ab5577001172b83c7d517adcdf7c8c50eb14a791f0260801c5b60008367100000000000000016600f0b1315611ae25770010b5586cf9890f6298b92b71842a983630260801c5b60008367080000000000000016600f0b1315611b0f577001059b0d31585743ae7c548eb68ca417fd0260801c5b60008367040000000000000016600f0b1315611b3c57700102c9a3e778060ee6f7caca4f7a29bde80260801c5b60008367020000000000000016600f0b1315611b695770010163da9fb33356d84a66ae336dcdfa3f0260801c5b60008367010000000000000016600f0b1315611b9657700100b1afa5abcbed6129ab13ec11dc95430260801c5b600083668000000000000016600f0b1315611bc25770010058c86da1c09ea1ff19d294cf2f679b0260801c5b600083664000000000000016600f0b1315611bee577001002c605e2e8cec506d21bfc89a23a00f0260801c5b600083662000000000000016600f0b1315611c1a57700100162f3904051fa128bca9c55c31e5df0260801c5b600083661000000000000016600f0b1315611c46577001000b175effdc76ba38e31671ca9397250260801c5b600083660800000000000016600f0b1315611c7257700100058ba01fb9f96d6cacd4b180917c3d0260801c5b600083660400000000000016600f0b1315611c9e5770010002c5cc37da9491d0985c348c68e7b30260801c5b600083660200000000000016600f0b1315611cca577001000162e525ee054754457d59952920260260801c5b600083660100000000000016600f0b1315611cf65770010000b17255775c040618bf4a4ade83fc0260801c5b6000836580000000000016600f0b1315611d21577001000058b91b5bc9ae2eed81e9b7d4cfab0260801c5b6000836540000000000016600f0b1315611d4c57700100002c5c89d5ec6ca4d7c8acc017b7c90260801c5b6000836520000000000016600f0b1315611d775770010000162e43f4f831060e02d839a9d16d0260801c5b6000836510000000000016600f0b1315611da257700100000b1721bcfc99d9f890ea069117630260801c5b6000836508000000000016600f0b1315611dcd5770010000058b90cf1e6d97f9ca14dbcc16280260801c5b6000836504000000000016600f0b1315611df8577001000002c5c863b73f016468f6bac5ca2b0260801c5b6000836502000000000016600f0b1315611e2357700100000162e430e5a18f6119e3c02282a50260801c5b6000836501000000000016600f0b1315611e4e577001000000b1721835514b86e6d96efd1bfe0260801c5b60008364800000000016600f0b1315611e7857700100000058b90c0b48c6be5df846c5b2ef0260801c5b60008364400000000016600f0b1315611ea25770010000002c5c8601cc6b9e94213c72737a0260801c5b60008364200000000016600f0b1315611ecc577001000000162e42fff037df38aa2b219f060260801c5b60008364100000000016600f0b1315611ef65770010000000b17217fba9c739aa5819f44f90260801c5b60008364080000000016600f0b1315611f20577001000000058b90bfcdee5acd3c1cedc8230260801c5b60008364040000000016600f0b1315611f4a57700100000002c5c85fe31f35a6a30da1be500260801c5b60008364020000000016600f0b1315611f745770010000000162e42ff0999ce3541b9fffcf0260801c5b60008364010000000016600f0b1315611f9e57700100000000b17217f80f4ef5aadda455540260801c5b600083638000000016600f0b1315611fc75770010000000058b90bfbf8479bd5a81b51ad0260801c5b600083634000000016600f0b1315611ff0577001000000002c5c85fdf84bd62ae30a74cc0260801c5b600083632000000016600f0b131561201957700100000000162e42fefb2fed257559bdaa0260801c5b600083631000000016600f0b1315612042577001000000000b17217f7d5a7716bba4a9ae0260801c5b600083630800000016600f0b131561206b57700100000000058b90bfbe9ddbac5e109cce0260801c5b600083630400000016600f0b13156120945770010000000002c5c85fdf4b15de6f17eb0d0260801c5b600083630200000016600f0b13156120bd577001000000000162e42fefa494f1478fde050260801c5b600083630100000016600f0b13156120e65770010000000000b17217f7d20cf927c8e94c0260801c5b6000836280000016600f0b131561210e577001000000000058b90bfbe8f71cb4e4b33d0260801c5b6000836240000016600f0b131561213657700100000000002c5c85fdf477b662b269450260801c5b6000836220000016600f0b131561215e5770010000000000162e42fefa3ae53369388c0260801c5b6000836210000016600f0b131561218657700100000000000b17217f7d1d351a389d400260801c5b6000836208000016600f0b13156121ae5770010000000000058b90bfbe8e8b2d3d4ede0260801c5b6000836204000016600f0b13156121d6577001000000000002c5c85fdf4741bea6e77e0260801c5b6000836202000016600f0b13156121fe57700100000000000162e42fefa39fe95583c20260801c5b6000836201000016600f0b1315612226577001000000000000b17217f7d1cfb72b45e10260801c5b60008361800016600f0b131561224d57700100000000000058b90bfbe8e7cc35c3f00260801c5b60008361400016600f0b13156122745770010000000000002c5c85fdf473e242ea380260801c5b60008361200016600f0b131561229b577001000000000000162e42fefa39f02b772c0260801c5b60008361100016600f0b13156122c25770010000000000000b17217f7d1cf7d83c1a0260801c5b60008361080016600f0b13156122e9577001000000000000058b90bfbe8e7bdcbe2e0260801c5b60008361040016600f0b131561231057700100000000000002c5c85fdf473dea871f0260801c5b60008361020016600f0b13156123375770010000000000000162e42fefa39ef44d910260801c5b60008361010016600f0b131561235e57700100000000000000b17217f7d1cf79e9490260801c5b600083608016600f0b13156123845770010000000000000058b90bfbe8e7bce5440260801c5b600083604016600f0b13156123aa577001000000000000002c5c85fdf473de6eca0260801c5b600083602016600f0b13156123d057700100000000000000162e42fefa39ef366f0260801c5b600083601016600f0b13156123f6577001000000000000000b17217f7d1cf79afa0260801c5b600083600816600f0b131561241c57700100000000000000058b90bfbe8e7bcd6d0260801c5b600083600416600f0b13156124425770010000000000000002c5c85fdf473de6b20260801c5b600083600216600f0b1315612468577001000000000000000162e42fefa39ef3580260801c5b600083600116600f0b131561248e5770010000000000000000b17217f7d1cf79ab0260801c5b600f83810b60401d603f03900b1c6f7fffffffffffffffffffffffffffffff811115610e1b57600080fd5b600080600080608085870312156124cf57600080fd5b5050823594602084013594506040840135936060013592509050565b600080604083850312156124fe57600080fd5b82359150602083013561ffff8116811461251757600080fd5b809150509250929050565b60008083601f84011261253457600080fd5b50813567ffffffffffffffff81111561254c57600080fd5b6020830191508360208260051b850101111561256757600080fd5b9250929050565b60008060008060008060006080888a03121561258957600080fd5b87359650602088013567ffffffffffffffff808211156125a857600080fd5b6125b48b838c01612522565b909850965060408a01359150808211156125cd57600080fd5b6125d98b838c01612522565b909650945060608a01359150808211156125f257600080fd5b506125ff8a828b01612522565b989b979a50959850939692959293505050565b60008060006060848603121561262757600080fd5b505081359360208301359350604090920135919050565b602080825282518282018190526000919060409081850190868401855b8281101561269f5781518051855286810151878601528581015186860152606080820151908601526080908101519085015260a0909301929085019060010161265b565b5091979650505050505050565b7f4e487b7100000000000000000000000000000000000000000000000000000000600052603260045260246000fd5b7f4e487b7100000000000000000000000000000000000000000000000000000000600052601160045260246000fd5b81810381811115610e1b57610e1b6126db565b60007fffffffffffffffffffffffffffffffffffffffffffffffffffffffffffffffff820361274e5761274e6126db565b5060010190565b7f4e487b7100000000000000000000000000000000000000000000000000000000600052604160045260246000fd5b80820180821115610e1b57610e1b6126db565b6000602082840312156127a957600080fd5b815160ff8116811461147157600080fd5b6000817fffffffffffffffffffffffffffffffffffffffffffffffffffffffffffffffff04831182151516156127f2576127f26126db565b500290565b7f4e487b7100000000000000000000000000000000000000000000000000000000600052601260045260246000fd5b60008261285c577f4e487b7100000000000000000000000000000000000000000000000000000000600052601260045260246000fd5b500490565b600181815b808511156128ba57817fffffffffffffffffffffffffffffffffffffffffffffffffffffffffffffffff048211156128a0576128a06126db565b808516156128ad57918102915b93841c9390800290612866565b509250929050565b6000826128d157506001610e1b565b816128de57506000610e1b565b81600181146128f457600281146128fe5761291a565b6001915050610e1b565b60ff84111561290f5761290f6126db565b50506001821b610e1b565b5060208310610133831016604e8410600b841016171561293d575081810a610e1b565b6129478383612861565b807fffffffffffffffffffffffffffffffffffffffffffffffffffffffffffffffff04821115612979576129796126db565b029392505050565b600061147183836128c2565b7f4e487b7100000000000000000000000000000000000000000000000000000000600052600160045260246000fdfea264697066735822122054e2aa87d23f4316fcf145e7091e9fc498001e5abee6d538ece65da50acb892e64736f6c63430008100033",
  "devdoc": {
    "author": "Solid World DAO",
    "kind": "dev",
    "methods": {
      "bulkDecollateralizeTokens(SolidWorldManagerStorage.Storage storage,uint256[],uint256[],uint256[])": {
        "details": "Bulk-decollateralizes ERC20 tokens into multiple ERC1155 tokens with specified amountsprior to calling, msg.sender must approve SolidWorldManager to spend `sum(amountsIn)` ERC20 tokens_batchIds must belong to the same Categorywill trigger a rebalance of the Category",
        "params": {
          "_storage": "Struct containing the current state used or modified by this function",
          "amountsIn": "ERC20 tokens to decollateralize",
          "amountsOutMin": "minimum output amounts of ERC1155 tokens for transaction to succeed",
          "batchIds": "ids of the batches"
        }
      },
      "decollateralizeTokens(SolidWorldManagerStorage.Storage storage,uint256,uint256,uint256)": {
        "details": "Decollateralizes `amountIn` of ERC20 tokens and sends `amountOut` ERC1155 tokens with id `batchId` to msg.senderprior to calling, msg.sender must approve SolidWorldManager to spend `amountIn` ERC20 tokenswill trigger a rebalance of the Category",
        "params": {
          "_storage": "Struct containing the current state used or modified by this function",
          "amountIn": "ERC20 tokens to decollateralize",
          "amountOutMin": "minimum output amount of ERC1155 tokens for transaction to succeed",
          "batchId": "id of the batch"
        }
      },
      "getBatchesDecollateralizationInfo(SolidWorldManagerStorage.Storage storage,uint256,uint256)": {
        "details": "Computes relevant info for the decollateralization process involving batches that match the specified `projectId` and `vintage`",
        "params": {
          "_storage": "Struct containing the current state used or modified by this function",
          "projectId": "id of the project the batch belongs to",
          "vintage": "vintage of the batch"
        },
        "returns": {
          "result": "array of relevant info about matching batches"
        }
      },
      "setBoostedDecollateralizationFee(SolidWorldManagerStorage.Storage storage,uint16)": {
        "params": {
          "_storage": "Struct containing the current state used or modified by this function",
          "boostedDecollateralizationFee": "fee for decollateralizing ERC20 tokens in case of a certified batch"
        }
      },
      "setDecollateralizationFee(SolidWorldManagerStorage.Storage storage,uint16)": {
        "params": {
          "_storage": "Struct containing the current state used or modified by this function",
          "decollateralizationFee": "fee for decollateralizing ERC20 tokens"
        }
      },
      "simulateDecollateralization(SolidWorldManagerStorage.Storage storage,uint256,uint256)": {
        "details": "Simulates decollateralization of `amountIn` ERC20 tokens for ERC1155 tokens with id `batchId`",
        "params": {
          "_storage": "Struct containing the current state used or modified by this function",
          "amountIn": "ERC20 tokens to decollateralize",
          "batchId": "id of the batch"
        },
        "returns": {
          "amountOut": "ERC1155 tokens to be received by msg.sender",
          "minAmountIn": "minimum amount of ERC20 tokens to decollateralize `amountOut` ERC1155 tokens with id `batchId`",
          "minCbtDaoCut": "ERC20 tokens to be received by feeReceiver for decollateralizing minAmountIn ERC20 tokens"
        }
      },
      "simulateReverseDecollateralization(SolidWorldManagerStorage.Storage storage,uint256,uint256)": {
        "details": "Computes the `minCbt` ERC20 tokens that needs to be decollateralized to obtain `forwardCreditsAmount` ERC1155 tokens",
        "params": {
          "_storage": "Struct containing the current state used or modified by this function",
          "batchId": "id of the batch",
          "forwardCreditsAmount": "ERC1155 tokens to be received"
        },
        "returns": {
          "minCbt": "minimum amount of ERC20 tokens that needs to be decollateralized",
          "minCbtDaoCut": "amount of ERC20 tokens to be received by `feeReceiver` for decollateralizing `minCbt` ERC20 tokens"
        }
      }
    },
    "version": 1
  },
  "userdoc": {
    "kind": "user",
    "methods": {
      "DECOLLATERALIZATION_SIMULATION_INPUT()": {
        "notice": "Constant used as input for decollateralization simulation for ordering batches with the same category and vintage"
      }
    },
    "notice": "Handles batch decollateralization operations.",
    "version": 1
  },
  "storageLayout": {
    "storage": [],
    "types": null
  }
}