{
  "address": "0xF9E43C3A3840d6da2b2f52BcBcC4390f8b1057E9",
  "abi": [
    {
      "inputs": [],
      "name": "NotPaused",
      "type": "error"
    },
    {
      "inputs": [],
      "name": "Paused",
      "type": "error"
    },
    {
      "anonymous": false,
      "inputs": [
        {
          "indexed": true,
          "internalType": "uint256",
          "name": "batchId",
          "type": "uint256"
        },
        {
          "indexed": true,
          "internalType": "address",
          "name": "batchSupplier",
          "type": "address"
        },
        {
          "indexed": false,
          "internalType": "uint256",
          "name": "amountIn",
          "type": "uint256"
        },
        {
          "indexed": false,
          "internalType": "uint256",
          "name": "amountOut",
          "type": "uint256"
        }
      ],
      "name": "BatchCollateralized",
      "type": "event"
    },
    {
      "anonymous": false,
      "inputs": [
        {
          "indexed": true,
          "internalType": "uint256",
          "name": "batchId",
          "type": "uint256"
        }
      ],
      "name": "BatchCreated",
      "type": "event"
    },
    {
      "anonymous": false,
      "inputs": [
        {
          "indexed": true,
          "internalType": "uint256",
          "name": "categoryId",
          "type": "uint256"
        }
      ],
      "name": "CategoryCreated",
      "type": "event"
    },
    {
      "anonymous": false,
      "inputs": [
        {
          "indexed": true,
          "internalType": "uint256",
          "name": "categoryId",
          "type": "uint256"
        },
        {
          "indexed": true,
          "internalType": "uint256",
          "name": "averageTA",
          "type": "uint256"
        },
        {
          "indexed": true,
          "internalType": "uint256",
          "name": "totalCollateralized",
          "type": "uint256"
        }
      ],
      "name": "CategoryRebalanced",
      "type": "event"
    },
    {
      "anonymous": false,
      "inputs": [
        {
          "indexed": true,
          "internalType": "uint256",
          "name": "categoryId",
          "type": "uint256"
        },
        {
          "indexed": true,
          "internalType": "uint256",
          "name": "volumeCoefficient",
          "type": "uint256"
        },
        {
          "indexed": true,
          "internalType": "uint256",
          "name": "decayPerSecond",
          "type": "uint256"
        },
        {
          "indexed": false,
          "internalType": "uint256",
          "name": "maxDepreciation",
          "type": "uint256"
        }
      ],
      "name": "CategoryUpdated",
      "type": "event"
    },
    {
      "anonymous": false,
      "inputs": [
        {
          "indexed": true,
          "internalType": "uint256",
          "name": "collateralizationFee",
          "type": "uint256"
        }
      ],
      "name": "CollateralizationFeeUpdated",
      "type": "event"
    },
    {
      "anonymous": false,
      "inputs": [
        {
          "indexed": true,
          "internalType": "uint256",
          "name": "decollateralizationFee",
          "type": "uint256"
        }
      ],
      "name": "DecollateralizationFeeUpdated",
      "type": "event"
    },
    {
      "anonymous": false,
      "inputs": [
        {
          "indexed": true,
          "internalType": "address",
          "name": "feeReceiver",
          "type": "address"
        }
      ],
      "name": "FeeReceiverUpdated",
      "type": "event"
    },
    {
      "anonymous": false,
      "inputs": [
        {
          "indexed": false,
          "internalType": "uint8",
          "name": "version",
          "type": "uint8"
        }
      ],
      "name": "Initialized",
      "type": "event"
    },
    {
      "anonymous": false,
      "inputs": [
        {
          "indexed": true,
          "internalType": "address",
          "name": "previousOwner",
          "type": "address"
        },
        {
          "indexed": true,
          "internalType": "address",
          "name": "newOwner",
          "type": "address"
        }
      ],
      "name": "OwnershipTransferred",
      "type": "event"
    },
    {
      "anonymous": false,
      "inputs": [],
      "name": "Pause",
      "type": "event"
    },
    {
      "anonymous": false,
      "inputs": [
        {
          "indexed": true,
          "internalType": "uint256",
          "name": "projectId",
          "type": "uint256"
        }
      ],
      "name": "ProjectCreated",
      "type": "event"
    },
    {
      "anonymous": false,
      "inputs": [
        {
          "indexed": true,
          "internalType": "uint256",
          "name": "rewardsFee",
          "type": "uint256"
        }
      ],
      "name": "RewardsFeeUpdated",
      "type": "event"
    },
    {
      "anonymous": false,
      "inputs": [
        {
          "indexed": true,
          "internalType": "address",
          "name": "rewardsMinter",
          "type": "address"
        }
      ],
      "name": "RewardsMinterUpdated",
      "type": "event"
    },
    {
      "anonymous": false,
      "inputs": [
        {
          "indexed": true,
          "internalType": "uint256",
          "name": "batchId",
          "type": "uint256"
        },
        {
          "indexed": true,
          "internalType": "address",
          "name": "tokensOwner",
          "type": "address"
        },
        {
          "indexed": false,
          "internalType": "uint256",
          "name": "amountIn",
          "type": "uint256"
        },
        {
          "indexed": false,
          "internalType": "uint256",
          "name": "amountOut",
          "type": "uint256"
        }
      ],
      "name": "TokensDecollateralized",
      "type": "event"
    },
    {
      "anonymous": false,
      "inputs": [],
      "name": "Unpause",
      "type": "event"
    },
    {
      "anonymous": false,
      "inputs": [
        {
          "indexed": true,
          "internalType": "address",
          "name": "rewardToken",
          "type": "address"
        },
        {
          "indexed": true,
          "internalType": "uint256",
          "name": "rewardAmount",
          "type": "uint256"
        }
      ],
      "name": "WeeklyRewardMinted",
      "type": "event"
    },
    {
      "inputs": [
        {
          "components": [
            {
              "internalType": "uint256",
              "name": "id",
              "type": "uint256"
            },
            {
              "internalType": "uint256",
              "name": "projectId",
              "type": "uint256"
            },
            {
              "internalType": "uint256",
              "name": "collateralizedCredits",
              "type": "uint256"
            },
            {
              "internalType": "address",
              "name": "supplier",
              "type": "address"
            },
            {
              "internalType": "uint32",
              "name": "certificationDate",
              "type": "uint32"
            },
            {
              "internalType": "uint16",
              "name": "vintage",
              "type": "uint16"
            },
            {
              "internalType": "uint8",
              "name": "status",
              "type": "uint8"
            },
            {
              "internalType": "uint24",
              "name": "batchTA",
              "type": "uint24"
            },
            {
              "internalType": "bool",
              "name": "isAccumulating",
              "type": "bool"
            }
          ],
          "internalType": "struct DomainDataTypes.Batch",
          "name": "batch",
          "type": "tuple"
        },
        {
          "internalType": "uint256",
          "name": "mintableAmount",
          "type": "uint256"
        }
      ],
      "name": "addBatch",
      "outputs": [],
      "stateMutability": "nonpayable",
      "type": "function"
    },
    {
      "inputs": [
        {
          "internalType": "uint256",
          "name": "categoryId",
          "type": "uint256"
        },
        {
          "internalType": "string",
          "name": "tokenName",
          "type": "string"
        },
        {
          "internalType": "string",
          "name": "tokenSymbol",
          "type": "string"
        },
        {
          "internalType": "uint24",
          "name": "initialTA",
          "type": "uint24"
        }
      ],
      "name": "addCategory",
      "outputs": [],
      "stateMutability": "nonpayable",
      "type": "function"
    },
    {
      "inputs": [
        {
          "internalType": "uint256",
          "name": "categoryId",
          "type": "uint256"
        },
        {
          "internalType": "uint256",
          "name": "projectId",
          "type": "uint256"
        }
      ],
      "name": "addProject",
      "outputs": [],
      "stateMutability": "nonpayable",
      "type": "function"
    },
    {
      "inputs": [
        {
          "internalType": "uint256[]",
          "name": "batchIds",
          "type": "uint256[]"
        },
        {
          "internalType": "uint256[]",
          "name": "amountsIn",
          "type": "uint256[]"
        },
        {
          "internalType": "uint256[]",
          "name": "amountsOutMin",
          "type": "uint256[]"
        }
      ],
      "name": "bulkDecollateralizeTokens",
      "outputs": [],
      "stateMutability": "nonpayable",
      "type": "function"
    },
    {
      "inputs": [
        {
          "internalType": "uint256",
          "name": "batchId",
          "type": "uint256"
        },
        {
          "internalType": "uint256",
          "name": "amountIn",
          "type": "uint256"
        },
        {
          "internalType": "uint256",
          "name": "amountOutMin",
          "type": "uint256"
        }
      ],
      "name": "collateralizeBatch",
      "outputs": [],
      "stateMutability": "nonpayable",
      "type": "function"
    },
    {
      "inputs": [],
      "name": "collateralizedBasketTokenDeployer",
      "outputs": [
        {
          "internalType": "contract CollateralizedBasketTokenDeployer",
          "name": "",
          "type": "address"
        }
      ],
      "stateMutability": "view",
      "type": "function"
    },
    {
      "inputs": [
        {
          "internalType": "uint256[]",
          "name": "categoryIds",
          "type": "uint256[]"
        }
      ],
      "name": "computeWeeklyCarbonRewards",
      "outputs": [
        {
          "internalType": "address[]",
          "name": "",
          "type": "address[]"
        },
        {
          "internalType": "uint256[]",
          "name": "",
          "type": "uint256[]"
        },
        {
          "internalType": "uint256[]",
          "name": "",
          "type": "uint256[]"
        }
      ],
      "stateMutability": "view",
      "type": "function"
    },
    {
      "inputs": [
        {
          "internalType": "uint256",
          "name": "batchId",
          "type": "uint256"
        },
        {
          "internalType": "uint256",
          "name": "amountIn",
          "type": "uint256"
        },
        {
          "internalType": "uint256",
          "name": "amountOutMin",
          "type": "uint256"
        }
      ],
      "name": "decollateralizeTokens",
      "outputs": [],
      "stateMutability": "nonpayable",
      "type": "function"
    },
    {
      "inputs": [],
      "name": "forwardContractBatch",
      "outputs": [
        {
          "internalType": "contract ForwardContractBatchToken",
          "name": "",
          "type": "address"
        }
      ],
      "stateMutability": "view",
      "type": "function"
    },
    {
      "inputs": [
        {
          "internalType": "uint256",
          "name": "batchId",
          "type": "uint256"
        }
      ],
      "name": "getBatch",
      "outputs": [
        {
          "components": [
            {
              "internalType": "uint256",
              "name": "id",
              "type": "uint256"
            },
            {
              "internalType": "uint256",
              "name": "projectId",
              "type": "uint256"
            },
            {
              "internalType": "uint256",
              "name": "collateralizedCredits",
              "type": "uint256"
            },
            {
              "internalType": "address",
              "name": "supplier",
              "type": "address"
            },
            {
              "internalType": "uint32",
              "name": "certificationDate",
              "type": "uint32"
            },
            {
              "internalType": "uint16",
              "name": "vintage",
              "type": "uint16"
            },
            {
              "internalType": "uint8",
              "name": "status",
              "type": "uint8"
            },
            {
              "internalType": "uint24",
              "name": "batchTA",
              "type": "uint24"
            },
            {
              "internalType": "bool",
              "name": "isAccumulating",
              "type": "bool"
            }
          ],
          "internalType": "struct DomainDataTypes.Batch",
          "name": "",
          "type": "tuple"
        }
      ],
      "stateMutability": "view",
      "type": "function"
    },
    {
      "inputs": [
        {
          "internalType": "uint256",
          "name": "batchId",
          "type": "uint256"
        }
      ],
      "name": "getBatchCategory",
      "outputs": [
        {
          "internalType": "uint256",
          "name": "",
          "type": "uint256"
        }
      ],
      "stateMutability": "view",
      "type": "function"
    },
    {
      "inputs": [
        {
          "internalType": "uint256",
          "name": "index",
          "type": "uint256"
        }
      ],
      "name": "getBatchId",
      "outputs": [
        {
          "internalType": "uint256",
          "name": "",
          "type": "uint256"
        }
      ],
      "stateMutability": "view",
      "type": "function"
    },
    {
      "inputs": [
        {
          "internalType": "uint256",
          "name": "projectId",
          "type": "uint256"
        }
      ],
      "name": "getBatchIdsByProject",
      "outputs": [
        {
          "internalType": "uint256[]",
          "name": "",
          "type": "uint256[]"
        }
      ],
      "stateMutability": "view",
      "type": "function"
    },
    {
      "inputs": [
        {
          "internalType": "uint256",
          "name": "projectId",
          "type": "uint256"
        },
        {
          "internalType": "uint256",
          "name": "vintage",
          "type": "uint256"
        }
      ],
      "name": "getBatchesDecollateralizationInfo",
      "outputs": [
        {
          "components": [
            {
              "internalType": "uint256",
              "name": "batchId",
              "type": "uint256"
            },
            {
              "internalType": "uint256",
              "name": "availableBatchTokens",
              "type": "uint256"
            },
            {
              "internalType": "uint256",
              "name": "amountOut",
              "type": "uint256"
            },
            {
              "internalType": "uint256",
              "name": "minAmountIn",
              "type": "uint256"
            },
            {
              "internalType": "uint256",
              "name": "minCbtDaoCut",
              "type": "uint256"
            }
          ],
          "internalType": "struct DomainDataTypes.TokenDecollateralizationInfo[]",
          "name": "",
          "type": "tuple[]"
        }
      ],
      "stateMutability": "view",
      "type": "function"
    },
    {
      "inputs": [
        {
          "internalType": "uint256",
          "name": "categoryId",
          "type": "uint256"
        }
      ],
      "name": "getCategory",
      "outputs": [
        {
          "components": [
            {
              "internalType": "uint256",
              "name": "volumeCoefficient",
              "type": "uint256"
            },
            {
              "internalType": "uint40",
              "name": "decayPerSecond",
              "type": "uint40"
            },
            {
              "internalType": "uint16",
              "name": "maxDepreciation",
              "type": "uint16"
            },
            {
              "internalType": "uint24",
              "name": "averageTA",
              "type": "uint24"
            },
            {
              "internalType": "uint32",
              "name": "lastCollateralizationTimestamp",
              "type": "uint32"
            },
            {
              "internalType": "uint256",
              "name": "totalCollateralized",
              "type": "uint256"
            },
            {
              "internalType": "uint256",
              "name": "lastCollateralizationMomentum",
              "type": "uint256"
            }
          ],
          "internalType": "struct DomainDataTypes.Category",
          "name": "",
          "type": "tuple"
        }
      ],
      "stateMutability": "view",
      "type": "function"
    },
    {
      "inputs": [
        {
          "internalType": "uint256",
          "name": "categoryId",
          "type": "uint256"
        }
      ],
      "name": "getCategoryProjects",
      "outputs": [
        {
          "internalType": "uint256[]",
          "name": "",
          "type": "uint256[]"
        }
      ],
      "stateMutability": "view",
      "type": "function"
    },
    {
      "inputs": [
        {
          "internalType": "uint256",
          "name": "categoryId",
          "type": "uint256"
        }
      ],
      "name": "getCategoryToken",
      "outputs": [
        {
          "internalType": "contract CollateralizedBasketToken",
          "name": "",
          "type": "address"
        }
      ],
      "stateMutability": "view",
      "type": "function"
    },
    {
      "inputs": [],
      "name": "getCollateralizationFee",
      "outputs": [
        {
          "internalType": "uint16",
          "name": "",
          "type": "uint16"
        }
      ],
      "stateMutability": "view",
      "type": "function"
    },
    {
      "inputs": [],
      "name": "getDecollateralizationFee",
      "outputs": [
        {
          "internalType": "uint16",
          "name": "",
          "type": "uint16"
        }
      ],
      "stateMutability": "view",
      "type": "function"
    },
    {
      "inputs": [],
      "name": "getFeeReceiver",
      "outputs": [
        {
          "internalType": "address",
          "name": "",
          "type": "address"
        }
      ],
      "stateMutability": "view",
      "type": "function"
    },
    {
      "inputs": [
        {
          "internalType": "uint256",
          "name": "projectId",
          "type": "uint256"
        }
      ],
      "name": "getProjectCategory",
      "outputs": [
        {
          "internalType": "uint256",
          "name": "",
          "type": "uint256"
        }
      ],
      "stateMutability": "view",
      "type": "function"
    },
    {
      "inputs": [
        {
          "internalType": "uint256",
          "name": "categoryId",
          "type": "uint256"
        }
      ],
      "name": "getProjectIdsByCategory",
      "outputs": [
        {
          "internalType": "uint256[]",
          "name": "",
          "type": "uint256[]"
        }
      ],
      "stateMutability": "view",
      "type": "function"
    },
    {
      "inputs": [],
      "name": "getRewardsFee",
      "outputs": [
        {
          "internalType": "uint16",
          "name": "",
          "type": "uint16"
        }
      ],
      "stateMutability": "view",
      "type": "function"
    },
    {
      "inputs": [],
      "name": "getWeeklyRewardsMinter",
      "outputs": [
        {
          "internalType": "address",
          "name": "",
          "type": "address"
        }
      ],
      "stateMutability": "view",
      "type": "function"
    },
    {
      "inputs": [
        {
          "internalType": "contract CollateralizedBasketTokenDeployer",
          "name": "collateralizedBasketTokenDeployer",
          "type": "address"
        },
        {
          "internalType": "contract ForwardContractBatchToken",
          "name": "forwardContractBatch",
          "type": "address"
        },
        {
          "internalType": "uint16",
          "name": "collateralizationFee",
          "type": "uint16"
        },
        {
          "internalType": "uint16",
          "name": "decollateralizationFee",
          "type": "uint16"
        },
        {
          "internalType": "uint16",
          "name": "rewardsFee",
          "type": "uint16"
        },
        {
          "internalType": "address",
          "name": "feeReceiver",
          "type": "address"
        },
        {
          "internalType": "address",
          "name": "weeklyRewardsMinter",
          "type": "address"
        },
        {
          "internalType": "address",
          "name": "owner",
          "type": "address"
        }
      ],
      "name": "initialize",
      "outputs": [],
      "stateMutability": "nonpayable",
      "type": "function"
    },
    {
      "inputs": [
        {
          "internalType": "uint256",
          "name": "batchId",
          "type": "uint256"
        }
      ],
      "name": "isBatchCreated",
      "outputs": [
        {
          "internalType": "bool",
          "name": "",
          "type": "bool"
        }
      ],
      "stateMutability": "view",
      "type": "function"
    },
    {
      "inputs": [
        {
          "internalType": "uint256",
          "name": "categoryId",
          "type": "uint256"
        }
      ],
      "name": "isCategoryCreated",
      "outputs": [
        {
          "internalType": "bool",
          "name": "",
          "type": "bool"
        }
      ],
      "stateMutability": "view",
      "type": "function"
    },
    {
      "inputs": [
        {
          "internalType": "uint256",
          "name": "projectId",
          "type": "uint256"
        }
      ],
      "name": "isProjectCreated",
      "outputs": [
        {
          "internalType": "bool",
          "name": "",
          "type": "bool"
        }
      ],
      "stateMutability": "view",
      "type": "function"
    },
    {
      "inputs": [
        {
          "internalType": "uint256[]",
          "name": "categoryIds",
          "type": "uint256[]"
        },
        {
          "internalType": "address[]",
          "name": "carbonRewards",
          "type": "address[]"
        },
        {
          "internalType": "uint256[]",
          "name": "rewardAmounts",
          "type": "uint256[]"
        },
        {
          "internalType": "uint256[]",
          "name": "rewardFees",
          "type": "uint256[]"
        },
        {
          "internalType": "address",
          "name": "rewardsVault",
          "type": "address"
        }
      ],
      "name": "mintWeeklyCarbonRewards",
      "outputs": [],
      "stateMutability": "nonpayable",
      "type": "function"
    },
    {
      "inputs": [
        {
          "internalType": "address",
          "name": "operator",
          "type": "address"
        },
        {
          "internalType": "address",
          "name": "",
          "type": "address"
        },
        {
          "internalType": "uint256[]",
          "name": "",
          "type": "uint256[]"
        },
        {
          "internalType": "uint256[]",
          "name": "",
          "type": "uint256[]"
        },
        {
          "internalType": "bytes",
          "name": "",
          "type": "bytes"
        }
      ],
      "name": "onERC1155BatchReceived",
      "outputs": [
        {
          "internalType": "bytes4",
          "name": "",
          "type": "bytes4"
        }
      ],
      "stateMutability": "nonpayable",
      "type": "function"
    },
    {
      "inputs": [
        {
          "internalType": "address",
          "name": "operator",
          "type": "address"
        },
        {
          "internalType": "address",
          "name": "",
          "type": "address"
        },
        {
          "internalType": "uint256",
          "name": "",
          "type": "uint256"
        },
        {
          "internalType": "uint256",
          "name": "",
          "type": "uint256"
        },
        {
          "internalType": "bytes",
          "name": "",
          "type": "bytes"
        }
      ],
      "name": "onERC1155Received",
      "outputs": [
        {
          "internalType": "bytes4",
          "name": "",
          "type": "bytes4"
        }
      ],
      "stateMutability": "nonpayable",
      "type": "function"
    },
    {
      "inputs": [],
      "name": "owner",
      "outputs": [
        {
          "internalType": "address",
          "name": "",
          "type": "address"
        }
      ],
      "stateMutability": "view",
      "type": "function"
    },
    {
      "inputs": [],
      "name": "pause",
      "outputs": [],
      "stateMutability": "nonpayable",
      "type": "function"
    },
    {
      "inputs": [],
      "name": "paused",
      "outputs": [
        {
          "internalType": "bool",
          "name": "",
          "type": "bool"
        }
      ],
      "stateMutability": "view",
      "type": "function"
    },
    {
      "inputs": [],
      "name": "renounceOwnership",
      "outputs": [],
      "stateMutability": "nonpayable",
      "type": "function"
    },
    {
      "inputs": [
        {
          "internalType": "uint256",
          "name": "batchId",
          "type": "uint256"
        },
        {
          "internalType": "bool",
          "name": "isAccumulating",
          "type": "bool"
        }
      ],
      "name": "setBatchAccumulating",
      "outputs": [],
      "stateMutability": "nonpayable",
      "type": "function"
    },
    {
      "inputs": [
        {
          "internalType": "uint256",
          "name": "batchId",
          "type": "uint256"
        },
        {
          "internalType": "uint32",
          "name": "certificationDate",
          "type": "uint32"
        }
      ],
      "name": "setBatchCertificationDate",
      "outputs": [],
      "stateMutability": "nonpayable",
      "type": "function"
    },
    {
      "inputs": [
        {
          "internalType": "uint256",
          "name": "batchId",
          "type": "uint256"
        },
        {
          "internalType": "bool",
          "name": "isKYCRequired",
          "type": "bool"
        }
      ],
      "name": "setBatchKYCRequired",
      "outputs": [],
      "stateMutability": "nonpayable",
      "type": "function"
    },
    {
      "inputs": [
        {
          "internalType": "uint256",
          "name": "categoryId",
          "type": "uint256"
        },
        {
          "internalType": "bool",
          "name": "isKYCRequired",
          "type": "bool"
        }
      ],
      "name": "setCategoryKYCRequired",
      "outputs": [],
      "stateMutability": "nonpayable",
      "type": "function"
    },
    {
      "inputs": [
        {
          "internalType": "uint256",
          "name": "categoryId",
          "type": "uint256"
        },
        {
          "internalType": "address",
          "name": "verificationRegistry",
          "type": "address"
        }
      ],
      "name": "setCategoryVerificationRegistry",
      "outputs": [],
      "stateMutability": "nonpayable",
      "type": "function"
    },
    {
      "inputs": [
        {
          "internalType": "uint16",
          "name": "collateralizationFee",
          "type": "uint16"
        }
      ],
      "name": "setCollateralizationFee",
      "outputs": [],
      "stateMutability": "nonpayable",
      "type": "function"
    },
    {
      "inputs": [
        {
          "internalType": "address",
          "name": "verificationRegistry",
          "type": "address"
        }
      ],
      "name": "setCollateralizedBasketTokenDeployerVerificationRegistry",
      "outputs": [],
      "stateMutability": "nonpayable",
      "type": "function"
    },
    {
      "inputs": [
        {
          "internalType": "uint16",
          "name": "decollateralizationFee",
          "type": "uint16"
        }
      ],
      "name": "setDecollateralizationFee",
      "outputs": [],
      "stateMutability": "nonpayable",
      "type": "function"
    },
    {
      "inputs": [
        {
          "internalType": "address",
          "name": "feeReceiver",
          "type": "address"
        }
      ],
      "name": "setFeeReceiver",
      "outputs": [],
      "stateMutability": "nonpayable",
      "type": "function"
    },
    {
      "inputs": [
        {
          "internalType": "address",
          "name": "verificationRegistry",
          "type": "address"
        }
      ],
      "name": "setForwardsVerificationRegistry",
      "outputs": [],
      "stateMutability": "nonpayable",
      "type": "function"
    },
    {
      "inputs": [
        {
          "internalType": "uint16",
          "name": "rewardsFee",
          "type": "uint16"
        }
      ],
      "name": "setRewardsFee",
      "outputs": [],
      "stateMutability": "nonpayable",
      "type": "function"
    },
    {
      "inputs": [
        {
          "internalType": "address",
          "name": "weeklyRewardsMinter",
          "type": "address"
        }
      ],
      "name": "setWeeklyRewardsMinter",
      "outputs": [],
      "stateMutability": "nonpayable",
      "type": "function"
    },
    {
      "inputs": [
        {
          "internalType": "uint256",
          "name": "batchId",
          "type": "uint256"
        },
        {
          "internalType": "uint256",
          "name": "amountIn",
          "type": "uint256"
        }
      ],
      "name": "simulateBatchCollateralization",
      "outputs": [
        {
          "internalType": "uint256",
          "name": "",
          "type": "uint256"
        },
        {
          "internalType": "uint256",
          "name": "",
          "type": "uint256"
        },
        {
          "internalType": "uint256",
          "name": "",
          "type": "uint256"
        }
      ],
      "stateMutability": "view",
      "type": "function"
    },
    {
      "inputs": [
        {
          "internalType": "uint256",
          "name": "batchId",
          "type": "uint256"
        },
        {
          "internalType": "uint256",
          "name": "amountIn",
          "type": "uint256"
        }
      ],
      "name": "simulateDecollateralization",
      "outputs": [
        {
          "internalType": "uint256",
          "name": "",
          "type": "uint256"
        },
        {
          "internalType": "uint256",
          "name": "",
          "type": "uint256"
        },
        {
          "internalType": "uint256",
          "name": "",
          "type": "uint256"
        }
      ],
      "stateMutability": "view",
      "type": "function"
    },
    {
      "inputs": [
        {
          "internalType": "bytes4",
          "name": "interfaceId",
          "type": "bytes4"
        }
      ],
      "name": "supportsInterface",
      "outputs": [
        {
          "internalType": "bool",
          "name": "",
          "type": "bool"
        }
      ],
      "stateMutability": "pure",
      "type": "function"
    },
    {
      "inputs": [
        {
          "internalType": "address",
          "name": "newOwner",
          "type": "address"
        }
      ],
      "name": "transferOwnership",
      "outputs": [],
      "stateMutability": "nonpayable",
      "type": "function"
    },
    {
      "inputs": [],
      "name": "unpause",
      "outputs": [],
      "stateMutability": "nonpayable",
      "type": "function"
    },
    {
      "inputs": [
        {
          "internalType": "uint256",
          "name": "categoryId",
          "type": "uint256"
        },
        {
          "internalType": "uint256",
          "name": "volumeCoefficient",
          "type": "uint256"
        },
        {
          "internalType": "uint40",
          "name": "decayPerSecond",
          "type": "uint40"
        },
        {
          "internalType": "uint16",
          "name": "maxDepreciation",
          "type": "uint16"
        }
      ],
      "name": "updateCategory",
      "outputs": [],
      "stateMutability": "nonpayable",
      "type": "function"
    }
  ],
  "transactionHash": "0x4f50518de4abc103dd22fdcb7a8b38732b35f60629669d3ce2a3009b26d2836f",
  "args": [],
  "numDeployments": 1,
  "solcInputHash": "257cb75acc9591f4e17fa59e949f2f9e",
  "bytecode": "0x608060405234801561001057600080fd5b506136bf806100206000396000f3fe608060405234801561001057600080fd5b50600436106103575760003560e01c8063940870dc116101c8578063c7cad90511610104578063f2fde38b116100a2578063f7c3fec21161007c578063f7c3fec214610aff578063f9be94f214610b12578063fb5ba8eb14610b25578063fe827f4a14610b4357600080fd5b8063f2fde38b1461099a578063f3052d26146109ad578063f4a5cb8e14610aec57600080fd5b8063e8a35392116100de578063e8a3539214610943578063ef016cdd14610961578063efdcd97414610974578063f23a6e611461098757600080fd5b8063c7cad905146108fa578063da12b2351461089f578063e6bebba51461092057600080fd5b8063b99d519011610171578063bf2de21a1161014b578063bf2de21a1461089f578063c007acf6146108b2578063c092c5c3146108c5578063c7878a57146108d857600080fd5b8063b99d519014610820578063bae5934a14610848578063bc197c811461085b57600080fd5b8063a3d334a1116101a2578063a3d334a1146107cf578063a88fd94a146107ed578063b505ab861461080d57600080fd5b8063940870dc1461077357806394c4fa8514610786578063a0595582146107bc57600080fd5b80635ba18df81161029757806378227cb0116102405780638af84a581161021a5780638af84a581461070f5780638da5cb5b14610722578063915e99131461074057806393fa05811461076057600080fd5b806378227cb0146106d45780637902298e146106e75780638456cb591461070757600080fd5b80636b22e8e1116102715780636b22e8e11461066a578063714b847c146106a9578063715018a6146106cc57600080fd5b80635ba18df8146106375780635c4e7a051461064a5780635c975abb1461065d57600080fd5b80632c5dd8a911610304578063452b7957116102de578063452b79571461043e578063558ff3831461047157806357b41a71146104845780635ac44282146104b257600080fd5b80632c5dd8a9146104105780633f4ba83a1461042357806342f165271461042b57600080fd5b80631e5a9250116103355780631e5a9250146103ac5780631fb0a624146103bf5780632204561e146103ed57600080fd5b806301ffc9a71461035c578063060da144146103845780630eae128e14610399575b600080fd5b61036f61036a366004612697565b610b56565b60405190151581526020015b60405180910390f35b6103976103923660046126ee565b610bef565b005b6103976103a73660046126ee565b610c87565b6103976103ba36600461273c565b610cef565b6103d26103cd366004612759565b610d93565b6040805193845260208401929092529082015260600161037b565b61036f6103fb36600461277b565b60009081526099602052604090205460ff1690565b61039761041e3660046127a6565b610e43565b610397610ea6565b6103976104393660046126ee565b610eb8565b60a65474010000000000000000000000000000000000000000900461ffff165b60405161ffff909116815260200161037b565b61039761047f3660046127c1565b610f20565b6104a461049236600461277b565b6000908152609f602052604090205490565b60405190815260200161037b565b61062a6104c036600461277b565b6040805161012081018252600080825260208201819052918101829052606081018290526080810182905260a0810182905260c0810182905260e08101829052610100810191909152506000908152609c60209081526040918290208251610120810184528154815260018201549281019290925260028101549282019290925260039091015473ffffffffffffffffffffffffffffffffffffffff8116606083015263ffffffff74010000000000000000000000000000000000000000820416608083015261ffff780100000000000000000000000000000000000000000000000082041660a083015260ff7a0100000000000000000000000000000000000000000000000000008204811660c084015262ffffff7b0100000000000000000000000000000000000000000000000000000083041660e08401527e0100000000000000000000000000000000000000000000000000000000000090910416151561010082015290565b60405161037b91906127f3565b6103976106453660046128e3565b61102c565b61039761065836600461273c565b611107565b60975461036f9060ff1681565b60a55473ffffffffffffffffffffffffffffffffffffffff165b60405173ffffffffffffffffffffffffffffffffffffffff909116815260200161037b565b61036f6106b736600461277b565b60009081526098602052604090205460ff1690565b61039761117c565b6104a46106e236600461277b565b61118e565b6106fa6106f5366004612759565b6111b8565b60405161037b91906129ba565b61039761127f565b61039761071d366004612a28565b61128f565b60335473ffffffffffffffffffffffffffffffffffffffff16610684565b61075361074e36600461277b565b6116c2565b60405161037b9190612b06565b6103d261076e366004612759565b611724565b610397610781366004612b19565b61178a565b61068461079436600461277b565b6000908152609d602052604090205473ffffffffffffffffffffffffffffffffffffffff1690565b6103976107ca3660046127a6565b6118d2565b60a45473ffffffffffffffffffffffffffffffffffffffff16610684565b6104a46107fb36600461277b565b600090815260a0602052604090205490565b61039761081b366004612bb3565b611935565b60a6547801000000000000000000000000000000000000000000000000900461ffff1661045e565b610397610856366004612bdf565b611a7f565b61086e610869366004612dd3565b611afb565b6040517fffffffff00000000000000000000000000000000000000000000000000000000909116815260200161037b565b6107536108ad36600461277b565b611b4e565b6103976108c0366004612bb3565b611bae565b6103976108d3366004612e81565b611cc2565b6108eb6108e6366004612ed3565b611d71565b60405161037b93929190612f15565b60a654760100000000000000000000000000000000000000000000900461ffff1661045e565b61036f61092e36600461277b565b6000908152609a602052604090205460ff1690565b60a65473ffffffffffffffffffffffffffffffffffffffff16610684565b61039761096f366004612759565b611e30565b61039761098236600461273c565b611e97565b61086e610995366004612f97565b611eab565b6103976109a836600461273c565b611efd565b610a806109bb36600461277b565b6040805160e081018252600080825260208201819052918101829052606081018290526080810182905260a0810182905260c0810191909152506000908152609b6020908152604091829020825160e08101845281548152600182015464ffffffffff81169382019390935265010000000000830461ffff1693810193909352670100000000000000820462ffffff1660608401526a010000000000000000000090910463ffffffff166080830152600281015460a08301526003015460c082015290565b60405161037b9190600060e0820190508251825264ffffffffff602084015116602083015261ffff604084015116604083015262ffffff606084015116606083015263ffffffff608084015116608083015260a083015160a083015260c083015160c083015292915050565b610397610afa366004613014565b611fb1565b610397610b0d3660046127a6565b61201d565b610397610b2036600461308c565b612080565b60a35473ffffffffffffffffffffffffffffffffffffffff16610684565b610397610b5136600461273c565b61211d565b60007f01ffc9a7000000000000000000000000000000000000000000000000000000007fffffffff0000000000000000000000000000000000000000000000000000000083161480610be957507f4e2312e0000000000000000000000000000000000000000000000000000000007fffffffff000000000000000000000000000000000000000000000000000000008316145b92915050565b610bf7612192565b6040517fc7694ed4000000000000000000000000000000000000000000000000000000008152609860048201526024810183905281151560448201527375d846905CDC547142Fa7414F2Df50610DD5936B9063c7694ed4906064015b60006040518083038186803b158015610c6b57600080fd5b505af4158015610c7f573d6000803e3d6000fd5b505050505050565b610c8f612192565b6040517ffbefa24f00000000000000000000000000000000000000000000000000000000815260986004820152602481018390528115156044820152733e3c3A3d1c66b114e034FCa66F554BeB1F0F35709063fbefa24f90606401610c53565b610cf7612192565b6040517f0905e5c00000000000000000000000000000000000000000000000000000000081526098600482015273ffffffffffffffffffffffffffffffffffffffff821660248201527375d846905CDC547142Fa7414F2Df50610DD5936B90630905e5c0906044015b60006040518083038186803b158015610d7857600080fd5b505af4158015610d8c573d6000803e3d6000fd5b5050505050565b6040517f3c8f4d3f000000000000000000000000000000000000000000000000000000008152609860048201526024810183905260448101829052600090819081907388CB21403d3365250aCc4F398051eD33a837947090633c8f4d3f906064015b606060405180830381865af4158015610e12573d6000803e3d6000fd5b505050506040513d601f19601f82011682018060405250810190610e369190613115565b9250925092509250925092565b610e4b612192565b6040517f11bd86960000000000000000000000000000000000000000000000000000000081526098600482015261ffff821660248201527388CB21403d3365250aCc4F398051eD33a8379470906311bd869690604401610d60565b610eae612192565b610eb6612213565b565b610ec0612192565b6040517f9e1b007b000000000000000000000000000000000000000000000000000000008152609860048201526024810183905281151560448201527375d846905CDC547142Fa7414F2Df50610DD5936B90639e1b007b90606401610c53565b600260655403610f91576040517f08c379a000000000000000000000000000000000000000000000000000000000815260206004820152601f60248201527f5265656e7472616e637947756172643a207265656e7472616e742063616c6c0060448201526064015b60405180910390fd5b6002606555610f9e612192565b6040517f4044acb0000000000000000000000000000000000000000000000000000000008152733e3c3A3d1c66b114e034FCa66F554BeB1F0F357090634044acb090610ff39060989086908690600401613154565b60006040518083038186803b15801561100b57600080fd5b505af415801561101f573d6000803e3d6000fd5b5050600160655550505050565b60975460ff1615611069576040517f9e87fac800000000000000000000000000000000000000000000000000000000815260040160405180910390fd5b6040517f87475f20000000000000000000000000000000000000000000000000000000008152731423a75387F49259AC09E49Ff4F6a608Ce294e2C906387475f20906110cc906098908d908d908d908d908d908d908d908d908d90600401613283565b60006040518083038186803b1580156110e457600080fd5b505af41580156110f8573d6000803e3d6000fd5b50505050505050505050505050565b61110f612192565b6040517f3273b4910000000000000000000000000000000000000000000000000000000081526098600482015273ffffffffffffffffffffffffffffffffffffffff82166024820152731423a75387F49259AC09E49Ff4F6a608Ce294e2C90633273b49190604401610d60565b611184612192565b610eb660006122a2565b60006098600a0182815481106111a6576111a6613344565b90600052602060002001549050919050565b6040517fad728ad500000000000000000000000000000000000000000000000000000000815260986004820152602481018390526044810182905260609073b08bd256d82299Ec9dBcbfF87A293760a37C05f39063ad728ad590606401600060405180830381865af4158015611232573d6000803e3d6000fd5b505050506040513d6000823e601f3d9081017fffffffffffffffffffffffffffffffffffffffffffffffffffffffffffffffe01682016040526112789190810190613373565b9392505050565b611287612192565b610eb6612319565b600054610100900460ff16158080156112af5750600054600160ff909116105b806112c95750303b1580156112c9575060005460ff166001145b611355576040517f08c379a000000000000000000000000000000000000000000000000000000000815260206004820152602e60248201527f496e697469616c697a61626c653a20636f6e747261637420697320616c72656160448201527f647920696e697469616c697a65640000000000000000000000000000000000006064820152608401610f88565b600080547fffffffffffffffffffffffffffffffffffffffffffffffffffffffffffffff0016600117905580156113b357600080547fffffffffffffffffffffffffffffffffffffffffffffffffffffffffffff00ff166101001790555b6113bb6123ac565b6113c361244b565b6113cc82611efd565b60a4805473ffffffffffffffffffffffffffffffffffffffff8b81167fffffffffffffffffffffffff00000000000000000000000000000000000000009283161790925560a38054928b16929091169190911790556040517f11bd86960000000000000000000000000000000000000000000000000000000081526098600482015261ffff881660248201527388CB21403d3365250aCc4F398051eD33a8379470906311bd86969060440160006040518083038186803b15801561148f57600080fd5b505af41580156114a3573d6000803e3d6000fd5b50506040517fa6400cc60000000000000000000000000000000000000000000000000000000081526098600482015261ffff8916602482015273b08bd256d82299Ec9dBcbfF87A293760a37C05f3925063a6400cc6915060440160006040518083038186803b15801561151557600080fd5b505af4158015611529573d6000803e3d6000fd5b50506040517f5dae67cc0000000000000000000000000000000000000000000000000000000081526098600482015261ffff88166024820152731423a75387F49259AC09E49Ff4F6a608Ce294e2C9250635dae67cc915060440160006040518083038186803b15801561159b57600080fd5b505af41580156115af573d6000803e3d6000fd5b505050506115bc846124ea565b6040517f3273b4910000000000000000000000000000000000000000000000000000000081526098600482015273ffffffffffffffffffffffffffffffffffffffff84166024820152731423a75387F49259AC09E49Ff4F6a608Ce294e2C90633273b4919060440160006040518083038186803b15801561163c57600080fd5b505af4158015611650573d6000803e3d6000fd5b5050505080156116b757600080547fffffffffffffffffffffffffffffffffffffffffffffffffffffffffffff00ff169055604051600181527f7f26b83ff96e1f2b6a682f133852f6798a09c465da95921460cefb38474024989060200160405180910390a15b505050505050505050565b600081815260a1602090815260409182902080548351818402810184019094528084526060939283018282801561171857602002820191906000526020600020905b815481526020019060010190808311611704575b50505050509050919050565b6040517febf2cd6b0000000000000000000000000000000000000000000000000000000081526098600482015260248101839052604481018290526000908190819073b08bd256d82299Ec9dBcbfF87A293760a37C05f39063ebf2cd6b90606401610df5565b6002606554036117f6576040517f08c379a000000000000000000000000000000000000000000000000000000000815260206004820152601f60248201527f5265656e7472616e637947756172643a207265656e7472616e742063616c6c006044820152606401610f88565b600260655560975460ff1615611838576040517f9e87fac800000000000000000000000000000000000000000000000000000000815260040160405180910390fd5b6040517f7e47ee6500000000000000000000000000000000000000000000000000000000815273b08bd256d82299Ec9dBcbfF87A293760a37C05f390637e47ee6590611895906098908a908a908a908a908a908a90600401613445565b60006040518083038186803b1580156118ad57600080fd5b505af41580156118c1573d6000803e3d6000fd5b505060016065555050505050505050565b6118da612192565b6040517f5dae67cc0000000000000000000000000000000000000000000000000000000081526098600482015261ffff82166024820152731423a75387F49259AC09E49Ff4F6a608Ce294e2C90635dae67cc90604401610d60565b6002606554036119a1576040517f08c379a000000000000000000000000000000000000000000000000000000000815260206004820152601f60248201527f5265656e7472616e637947756172643a207265656e7472616e742063616c6c006044820152606401610f88565b600260655560975460ff16156119e3576040517f9e87fac800000000000000000000000000000000000000000000000000000000815260040160405180910390fd5b6040517f79be5d60000000000000000000000000000000000000000000000000000000008152609860048201526024810184905260448101839052606481018290527388CB21403d3365250aCc4F398051eD33a8379470906379be5d60906084015b60006040518083038186803b158015611a5d57600080fd5b505af4158015611a71573d6000803e3d6000fd5b505060016065555050505050565b611a87612192565b6040517f4d62db72000000000000000000000000000000000000000000000000000000008152609860048201526024810183905273ffffffffffffffffffffffffffffffffffffffff821660448201527375d846905CDC547142Fa7414F2Df50610DD5936B90634d62db7290606401610c53565b600073ffffffffffffffffffffffffffffffffffffffff86163014611b2257506000611b45565b507fbc197c81000000000000000000000000000000000000000000000000000000005b95945050505050565b6000818152609e602090815260409182902080548351818402810184019094528084526060939283018282801561171857602002820191906000526020600020908154815260200190600101908083116117045750505050509050919050565b600260655403611c1a576040517f08c379a000000000000000000000000000000000000000000000000000000000815260206004820152601f60248201527f5265656e7472616e637947756172643a207265656e7472616e742063616c6c006044820152606401610f88565b600260655560975460ff1615611c5c576040517f9e87fac800000000000000000000000000000000000000000000000000000000815260040160405180910390fd5b6040517f46edd1ef0000000000000000000000000000000000000000000000000000000081526098600482015260248101849052604481018390526064810182905273b08bd256d82299Ec9dBcbfF87A293760a37C05f3906346edd1ef90608401611a45565b611cca612192565b6040517f7c924c6f00000000000000000000000000000000000000000000000000000000815260986004820152602481018590526044810184905264ffffffffff8316606482015261ffff82166084820152733e3c3A3d1c66b114e034FCa66F554BeB1F0F357090637c924c6f9060a40160006040518083038186803b158015611d5357600080fd5b505af4158015611d67573d6000803e3d6000fd5b5050505050505050565b6040517f1b768ae000000000000000000000000000000000000000000000000000000000815260609081908190731423a75387F49259AC09E49Ff4F6a608Ce294e2C90631b768ae090611dcd9060989089908990600401613495565b600060405180830381865af4158015611dea573d6000803e3d6000fd5b505050506040513d6000823e601f3d9081017fffffffffffffffffffffffffffffffffffffffffffffffffffffffffffffffe0168201604052610e36919081019061350a565b611e38612192565b6040517f2a463d11000000000000000000000000000000000000000000000000000000008152609860048201526024810183905260448101829052733e3c3A3d1c66b114e034FCa66F554BeB1F0F357090632a463d1190606401610c53565b611e9f612192565b611ea8816124ea565b50565b600073ffffffffffffffffffffffffffffffffffffffff86163014611ed257506000611b45565b507ff23a6e610000000000000000000000000000000000000000000000000000000095945050505050565b611f05612192565b73ffffffffffffffffffffffffffffffffffffffff8116611fa8576040517f08c379a000000000000000000000000000000000000000000000000000000000815260206004820152602660248201527f4f776e61626c653a206e6577206f776e657220697320746865207a65726f206160448201527f64647265737300000000000000000000000000000000000000000000000000006064820152608401610f88565b611ea8816122a2565b611fb9612192565b6040517f28c6ad9c000000000000000000000000000000000000000000000000000000008152609860048201526024810183905263ffffffff82166044820152733e3c3A3d1c66b114e034FCa66F554BeB1F0F3570906328c6ad9c90606401610c53565b612025612192565b6040517fa6400cc60000000000000000000000000000000000000000000000000000000081526098600482015261ffff8216602482015273b08bd256d82299Ec9dBcbfF87A293760a37C05f39063a6400cc690604401610d60565b612088612192565b6040517fb160ad5b000000000000000000000000000000000000000000000000000000008152733e3c3A3d1c66b114e034FCa66F554BeB1F0F35709063b160ad5b906120e5906098908a908a908a908a908a908a9060040161363c565b60006040518083038186803b1580156120fd57600080fd5b505af4158015612111573d6000803e3d6000fd5b50505050505050505050565b612125612192565b6040517f25f2a0290000000000000000000000000000000000000000000000000000000081526098600482015273ffffffffffffffffffffffffffffffffffffffff821660248201527375d846905CDC547142Fa7414F2Df50610DD5936B906325f2a02990604401610d60565b60335473ffffffffffffffffffffffffffffffffffffffff163314610eb6576040517f08c379a000000000000000000000000000000000000000000000000000000000815260206004820181905260248201527f4f776e61626c653a2063616c6c6572206973206e6f7420746865206f776e65726044820152606401610f88565b60975460ff1661224f576040517f6cd6020100000000000000000000000000000000000000000000000000000000815260040160405180910390fd5b609780547fffffffffffffffffffffffffffffffffffffffffffffffffffffffffffffff001690556040517f7805862f689e2f13df9f062ff482ad3ad112aca9e0847911ed832e158c525b3390600090a1565b6033805473ffffffffffffffffffffffffffffffffffffffff8381167fffffffffffffffffffffffff0000000000000000000000000000000000000000831681179093556040519116919082907f8be0079c531659141344cd1fd0a4f28419497f9722a3daafe3b4186f6b6457e090600090a35050565b60975460ff1615612356576040517f9e87fac800000000000000000000000000000000000000000000000000000000815260040160405180910390fd5b609780547fffffffffffffffffffffffffffffffffffffffffffffffffffffffffffffff001660011790556040517f6985a02210a168e66602d3235cb6db0e70f92b3ba4d376a33c0f3d9434bff62590600090a1565b600054610100900460ff16612443576040517f08c379a000000000000000000000000000000000000000000000000000000000815260206004820152602b60248201527f496e697469616c697a61626c653a20636f6e7472616374206973206e6f74206960448201527f6e697469616c697a696e670000000000000000000000000000000000000000006064820152608401610f88565b610eb6612559565b600054610100900460ff166124e2576040517f08c379a000000000000000000000000000000000000000000000000000000000815260206004820152602b60248201527f496e697469616c697a61626c653a20636f6e7472616374206973206e6f74206960448201527f6e697469616c697a696e670000000000000000000000000000000000000000006064820152608401610f88565b610eb66125f9565b60a680547fffffffffffffffffffffffff00000000000000000000000000000000000000001673ffffffffffffffffffffffffffffffffffffffff83169081179091556040517f27aae5db36d94179909d019ae0b1ac7c16d96d953148f63c0f6a0a9c8ead79ee90600090a250565b600054610100900460ff166125f0576040517f08c379a000000000000000000000000000000000000000000000000000000000815260206004820152602b60248201527f496e697469616c697a61626c653a20636f6e7472616374206973206e6f74206960448201527f6e697469616c697a696e670000000000000000000000000000000000000000006064820152608401610f88565b610eb6336122a2565b600054610100900460ff16612690576040517f08c379a000000000000000000000000000000000000000000000000000000000815260206004820152602b60248201527f496e697469616c697a61626c653a20636f6e7472616374206973206e6f74206960448201527f6e697469616c697a696e670000000000000000000000000000000000000000006064820152608401610f88565b6001606555565b6000602082840312156126a957600080fd5b81357fffffffff000000000000000000000000000000000000000000000000000000008116811461127857600080fd5b803580151581146126e957600080fd5b919050565b6000806040838503121561270157600080fd5b82359150612711602084016126d9565b90509250929050565b73ffffffffffffffffffffffffffffffffffffffff81168114611ea857600080fd5b60006020828403121561274e57600080fd5b81356112788161271a565b6000806040838503121561276c57600080fd5b50508035926020909101359150565b60006020828403121561278d57600080fd5b5035919050565b803561ffff811681146126e957600080fd5b6000602082840312156127b857600080fd5b61127882612794565b6000808284036101408112156127d657600080fd5b610120808212156127e657600080fd5b9395938601359450505050565b60006101208201905082518252602083015160208301526040830151604083015273ffffffffffffffffffffffffffffffffffffffff606084015116606083015263ffffffff608084015116608083015260a083015161285960a084018261ffff169052565b5060c083015161286e60c084018260ff169052565b5060e083015161288560e084018262ffffff169052565b50610100928301511515919092015290565b60008083601f8401126128a957600080fd5b50813567ffffffffffffffff8111156128c157600080fd5b6020830191508360208260051b85010111156128dc57600080fd5b9250929050565b600080600080600080600080600060a08a8c03121561290157600080fd5b893567ffffffffffffffff8082111561291957600080fd5b6129258d838e01612897565b909b50995060208c013591508082111561293e57600080fd5b61294a8d838e01612897565b909950975060408c013591508082111561296357600080fd5b61296f8d838e01612897565b909750955060608c013591508082111561298857600080fd5b506129958c828d01612897565b90945092505060808a01356129a98161271a565b809150509295985092959850929598565b602080825282518282018190526000919060409081850190868401855b82811015612a1b5781518051855286810151878601528581015186860152606080820151908601526080908101519085015260a090930192908501906001016129d7565b5091979650505050505050565b600080600080600080600080610100898b031215612a4557600080fd5b8835612a508161271a565b97506020890135612a608161271a565b9650612a6e60408a01612794565b9550612a7c60608a01612794565b9450612a8a60808a01612794565b935060a0890135612a9a8161271a565b925060c0890135612aaa8161271a565b915060e0890135612aba8161271a565b809150509295985092959890939650565b600081518084526020808501945080840160005b83811015612afb57815187529582019590820190600101612adf565b509495945050505050565b6020815260006112786020830184612acb565b60008060008060008060608789031215612b3257600080fd5b863567ffffffffffffffff80821115612b4a57600080fd5b612b568a838b01612897565b90985096506020890135915080821115612b6f57600080fd5b612b7b8a838b01612897565b90965094506040890135915080821115612b9457600080fd5b50612ba189828a01612897565b979a9699509497509295939492505050565b600080600060608486031215612bc857600080fd5b505081359360208301359350604090920135919050565b60008060408385031215612bf257600080fd5b823591506020830135612c048161271a565b809150509250929050565b7f4e487b7100000000000000000000000000000000000000000000000000000000600052604160045260246000fd5b60405160a0810167ffffffffffffffff81118282101715612c6157612c61612c0f565b60405290565b604051601f82017fffffffffffffffffffffffffffffffffffffffffffffffffffffffffffffffe016810167ffffffffffffffff81118282101715612cae57612cae612c0f565b604052919050565b600067ffffffffffffffff821115612cd057612cd0612c0f565b5060051b60200190565b600082601f830112612ceb57600080fd5b81356020612d00612cfb83612cb6565b612c67565b82815260059290921b84018101918181019086841115612d1f57600080fd5b8286015b84811015612d3a5780358352918301918301612d23565b509695505050505050565b600082601f830112612d5657600080fd5b813567ffffffffffffffff811115612d7057612d70612c0f565b612da160207fffffffffffffffffffffffffffffffffffffffffffffffffffffffffffffffe0601f84011601612c67565b818152846020838601011115612db657600080fd5b816020850160208301376000918101602001919091529392505050565b600080600080600060a08688031215612deb57600080fd5b8535612df68161271a565b94506020860135612e068161271a565b9350604086013567ffffffffffffffff80821115612e2357600080fd5b612e2f89838a01612cda565b94506060880135915080821115612e4557600080fd5b612e5189838a01612cda565b93506080880135915080821115612e6757600080fd5b50612e7488828901612d45565b9150509295509295909350565b60008060008060808587031215612e9757600080fd5b8435935060208501359250604085013564ffffffffff81168114612eba57600080fd5b9150612ec860608601612794565b905092959194509250565b60008060208385031215612ee657600080fd5b823567ffffffffffffffff811115612efd57600080fd5b612f0985828601612897565b90969095509350505050565b606080825284519082018190526000906020906080840190828801845b82811015612f6457815173ffffffffffffffffffffffffffffffffffffffff1684529284019290840190600101612f32565b50505083810382850152612f788187612acb565b9150508281036040840152612f8d8185612acb565b9695505050505050565b600080600080600060a08688031215612faf57600080fd5b8535612fba8161271a565b94506020860135612fca8161271a565b93506040860135925060608601359150608086013567ffffffffffffffff811115612ff457600080fd5b612e7488828901612d45565b803563ffffffff811681146126e957600080fd5b6000806040838503121561302757600080fd5b8235915061271160208401613000565b60008083601f84011261304957600080fd5b50813567ffffffffffffffff81111561306157600080fd5b6020830191508360208285010111156128dc57600080fd5b803562ffffff811681146126e957600080fd5b600080600080600080608087890312156130a557600080fd5b86359550602087013567ffffffffffffffff808211156130c457600080fd5b6130d08a838b01613037565b909750955060408901359150808211156130e957600080fd5b506130f689828a01613037565b9094509250613109905060608801613079565b90509295509295509295565b60008060006060848603121561312a57600080fd5b8351925060208401519150604084015190509250925092565b803560ff811681146126e957600080fd5b60006101608201905084825283356020830152602084013560408301526040840135606083015260608401356131898161271a565b73ffffffffffffffffffffffffffffffffffffffff81166080840152506131b260808501613000565b63ffffffff811660a0840152506131cb60a08501612794565b61ffff811660c0840152506131e260c08501613143565b60ff811660e0840152506131f860e08501613079565b61010061320b8185018362ffffff169052565b6132168187016126d9565b91505061322861012084018215159052565b5082610140830152949350505050565b81835260007f07ffffffffffffffffffffffffffffffffffffffffffffffffffffffffffffff83111561326a57600080fd5b8260051b80836020870137939093016020019392505050565b8a81526000602060c08184015261329e60c084018c8e613238565b83810360408501528981528a90820160005b8b8110156132eb5782356132c38161271a565b73ffffffffffffffffffffffffffffffffffffffff16825291830191908301906001016132b0565b5084810360608601526132ff818a8c613238565b925050508281036080840152613316818688613238565b91505073ffffffffffffffffffffffffffffffffffffffff831660a08301529b9a5050505050505050505050565b7f4e487b7100000000000000000000000000000000000000000000000000000000600052603260045260246000fd5b6000602080838503121561338657600080fd5b825167ffffffffffffffff81111561339d57600080fd5b8301601f810185136133ae57600080fd5b80516133bc612cfb82612cb6565b81815260a091820283018401918482019190888411156133db57600080fd5b938501935b838510156134395780858a0312156133f85760008081fd5b613400612c3e565b855181528686015187820152604080870151908201526060808701519082015260808087015190820152835293840193918501916133e0565b50979650505050505050565b87815260806020820152600061345f60808301888a613238565b8281036040840152613472818789613238565b90508281036060840152613487818587613238565b9a9950505050505050505050565b838152604060208201526000611b45604083018486613238565b600082601f8301126134c057600080fd5b815160206134d0612cfb83612cb6565b82815260059290921b840181019181810190868411156134ef57600080fd5b8286015b84811015612d3a57805183529183019183016134f3565b60008060006060848603121561351f57600080fd5b835167ffffffffffffffff8082111561353757600080fd5b818601915086601f83011261354b57600080fd5b8151602061355b612cfb83612cb6565b82815260059290921b8401810191818101908a84111561357a57600080fd5b948201945b838610156135a15785516135928161271a565b8252948201949082019061357f565b918901519197509093505050808211156135ba57600080fd5b6135c6878388016134af565b935060408601519150808211156135dc57600080fd5b506135e9868287016134af565b9150509250925092565b8183528181602085013750600060208284010152600060207fffffffffffffffffffffffffffffffffffffffffffffffffffffffffffffffe0601f840116840101905092915050565b87815286602082015260a06040820152600061365c60a0830187896135f3565b828103606084015261366f8186886135f3565b91505062ffffff831660808301529897505050505050505056fea26469706673582212203263589d3458b34464590eefc47859f847ac9e229d32eaf5dc9e90dfa5dd81c064736f6c63430008100033",
  "deployedBytecode": "0x608060405234801561001057600080fd5b50600436106103575760003560e01c8063940870dc116101c8578063c7cad90511610104578063f2fde38b116100a2578063f7c3fec21161007c578063f7c3fec214610aff578063f9be94f214610b12578063fb5ba8eb14610b25578063fe827f4a14610b4357600080fd5b8063f2fde38b1461099a578063f3052d26146109ad578063f4a5cb8e14610aec57600080fd5b8063e8a35392116100de578063e8a3539214610943578063ef016cdd14610961578063efdcd97414610974578063f23a6e611461098757600080fd5b8063c7cad905146108fa578063da12b2351461089f578063e6bebba51461092057600080fd5b8063b99d519011610171578063bf2de21a1161014b578063bf2de21a1461089f578063c007acf6146108b2578063c092c5c3146108c5578063c7878a57146108d857600080fd5b8063b99d519014610820578063bae5934a14610848578063bc197c811461085b57600080fd5b8063a3d334a1116101a2578063a3d334a1146107cf578063a88fd94a146107ed578063b505ab861461080d57600080fd5b8063940870dc1461077357806394c4fa8514610786578063a0595582146107bc57600080fd5b80635ba18df81161029757806378227cb0116102405780638af84a581161021a5780638af84a581461070f5780638da5cb5b14610722578063915e99131461074057806393fa05811461076057600080fd5b806378227cb0146106d45780637902298e146106e75780638456cb591461070757600080fd5b80636b22e8e1116102715780636b22e8e11461066a578063714b847c146106a9578063715018a6146106cc57600080fd5b80635ba18df8146106375780635c4e7a051461064a5780635c975abb1461065d57600080fd5b80632c5dd8a911610304578063452b7957116102de578063452b79571461043e578063558ff3831461047157806357b41a71146104845780635ac44282146104b257600080fd5b80632c5dd8a9146104105780633f4ba83a1461042357806342f165271461042b57600080fd5b80631e5a9250116103355780631e5a9250146103ac5780631fb0a624146103bf5780632204561e146103ed57600080fd5b806301ffc9a71461035c578063060da144146103845780630eae128e14610399575b600080fd5b61036f61036a366004612697565b610b56565b60405190151581526020015b60405180910390f35b6103976103923660046126ee565b610bef565b005b6103976103a73660046126ee565b610c87565b6103976103ba36600461273c565b610cef565b6103d26103cd366004612759565b610d93565b6040805193845260208401929092529082015260600161037b565b61036f6103fb36600461277b565b60009081526099602052604090205460ff1690565b61039761041e3660046127a6565b610e43565b610397610ea6565b6103976104393660046126ee565b610eb8565b60a65474010000000000000000000000000000000000000000900461ffff165b60405161ffff909116815260200161037b565b61039761047f3660046127c1565b610f20565b6104a461049236600461277b565b6000908152609f602052604090205490565b60405190815260200161037b565b61062a6104c036600461277b565b6040805161012081018252600080825260208201819052918101829052606081018290526080810182905260a0810182905260c0810182905260e08101829052610100810191909152506000908152609c60209081526040918290208251610120810184528154815260018201549281019290925260028101549282019290925260039091015473ffffffffffffffffffffffffffffffffffffffff8116606083015263ffffffff74010000000000000000000000000000000000000000820416608083015261ffff780100000000000000000000000000000000000000000000000082041660a083015260ff7a0100000000000000000000000000000000000000000000000000008204811660c084015262ffffff7b0100000000000000000000000000000000000000000000000000000083041660e08401527e0100000000000000000000000000000000000000000000000000000000000090910416151561010082015290565b60405161037b91906127f3565b6103976106453660046128e3565b61102c565b61039761065836600461273c565b611107565b60975461036f9060ff1681565b60a55473ffffffffffffffffffffffffffffffffffffffff165b60405173ffffffffffffffffffffffffffffffffffffffff909116815260200161037b565b61036f6106b736600461277b565b60009081526098602052604090205460ff1690565b61039761117c565b6104a46106e236600461277b565b61118e565b6106fa6106f5366004612759565b6111b8565b60405161037b91906129ba565b61039761127f565b61039761071d366004612a28565b61128f565b60335473ffffffffffffffffffffffffffffffffffffffff16610684565b61075361074e36600461277b565b6116c2565b60405161037b9190612b06565b6103d261076e366004612759565b611724565b610397610781366004612b19565b61178a565b61068461079436600461277b565b6000908152609d602052604090205473ffffffffffffffffffffffffffffffffffffffff1690565b6103976107ca3660046127a6565b6118d2565b60a45473ffffffffffffffffffffffffffffffffffffffff16610684565b6104a46107fb36600461277b565b600090815260a0602052604090205490565b61039761081b366004612bb3565b611935565b60a6547801000000000000000000000000000000000000000000000000900461ffff1661045e565b610397610856366004612bdf565b611a7f565b61086e610869366004612dd3565b611afb565b6040517fffffffff00000000000000000000000000000000000000000000000000000000909116815260200161037b565b6107536108ad36600461277b565b611b4e565b6103976108c0366004612bb3565b611bae565b6103976108d3366004612e81565b611cc2565b6108eb6108e6366004612ed3565b611d71565b60405161037b93929190612f15565b60a654760100000000000000000000000000000000000000000000900461ffff1661045e565b61036f61092e36600461277b565b6000908152609a602052604090205460ff1690565b60a65473ffffffffffffffffffffffffffffffffffffffff16610684565b61039761096f366004612759565b611e30565b61039761098236600461273c565b611e97565b61086e610995366004612f97565b611eab565b6103976109a836600461273c565b611efd565b610a806109bb36600461277b565b6040805160e081018252600080825260208201819052918101829052606081018290526080810182905260a0810182905260c0810191909152506000908152609b6020908152604091829020825160e08101845281548152600182015464ffffffffff81169382019390935265010000000000830461ffff1693810193909352670100000000000000820462ffffff1660608401526a010000000000000000000090910463ffffffff166080830152600281015460a08301526003015460c082015290565b60405161037b9190600060e0820190508251825264ffffffffff602084015116602083015261ffff604084015116604083015262ffffff606084015116606083015263ffffffff608084015116608083015260a083015160a083015260c083015160c083015292915050565b610397610afa366004613014565b611fb1565b610397610b0d3660046127a6565b61201d565b610397610b2036600461308c565b612080565b60a35473ffffffffffffffffffffffffffffffffffffffff16610684565b610397610b5136600461273c565b61211d565b60007f01ffc9a7000000000000000000000000000000000000000000000000000000007fffffffff0000000000000000000000000000000000000000000000000000000083161480610be957507f4e2312e0000000000000000000000000000000000000000000000000000000007fffffffff000000000000000000000000000000000000000000000000000000008316145b92915050565b610bf7612192565b6040517fc7694ed40000000000000000000000000000000000000000000000000000000081526098600482015260248101839052811515604482015273__$06758b071caa070fd4252ef0f8e320e34f$__9063c7694ed4906064015b60006040518083038186803b158015610c6b57600080fd5b505af4158015610c7f573d6000803e3d6000fd5b505050505050565b610c8f612192565b6040517ffbefa24f0000000000000000000000000000000000000000000000000000000081526098600482015260248101839052811515604482015273__$c07436818a8533723c4f7c0e44800fefac$__9063fbefa24f90606401610c53565b610cf7612192565b6040517f0905e5c00000000000000000000000000000000000000000000000000000000081526098600482015273ffffffffffffffffffffffffffffffffffffffff8216602482015273__$06758b071caa070fd4252ef0f8e320e34f$__90630905e5c0906044015b60006040518083038186803b158015610d7857600080fd5b505af4158015610d8c573d6000803e3d6000fd5b5050505050565b6040517f3c8f4d3f0000000000000000000000000000000000000000000000000000000081526098600482015260248101839052604481018290526000908190819073__$51ed980ed4ddad7f2d2649c5620a5a284d$__90633c8f4d3f906064015b606060405180830381865af4158015610e12573d6000803e3d6000fd5b505050506040513d601f19601f82011682018060405250810190610e369190613115565b9250925092509250925092565b610e4b612192565b6040517f11bd86960000000000000000000000000000000000000000000000000000000081526098600482015261ffff8216602482015273__$51ed980ed4ddad7f2d2649c5620a5a284d$__906311bd869690604401610d60565b610eae612192565b610eb6612213565b565b610ec0612192565b6040517f9e1b007b0000000000000000000000000000000000000000000000000000000081526098600482015260248101839052811515604482015273__$06758b071caa070fd4252ef0f8e320e34f$__90639e1b007b90606401610c53565b600260655403610f91576040517f08c379a000000000000000000000000000000000000000000000000000000000815260206004820152601f60248201527f5265656e7472616e637947756172643a207265656e7472616e742063616c6c0060448201526064015b60405180910390fd5b6002606555610f9e612192565b6040517f4044acb000000000000000000000000000000000000000000000000000000000815273__$c07436818a8533723c4f7c0e44800fefac$__90634044acb090610ff39060989086908690600401613154565b60006040518083038186803b15801561100b57600080fd5b505af415801561101f573d6000803e3d6000fd5b5050600160655550505050565b60975460ff1615611069576040517f9e87fac800000000000000000000000000000000000000000000000000000000815260040160405180910390fd5b6040517f87475f2000000000000000000000000000000000000000000000000000000000815273__$49556f7947f3338075112416096ff342eb$__906387475f20906110cc906098908d908d908d908d908d908d908d908d908d90600401613283565b60006040518083038186803b1580156110e457600080fd5b505af41580156110f8573d6000803e3d6000fd5b50505050505050505050505050565b61110f612192565b6040517f3273b4910000000000000000000000000000000000000000000000000000000081526098600482015273ffffffffffffffffffffffffffffffffffffffff8216602482015273__$49556f7947f3338075112416096ff342eb$__90633273b49190604401610d60565b611184612192565b610eb660006122a2565b60006098600a0182815481106111a6576111a6613344565b90600052602060002001549050919050565b6040517fad728ad500000000000000000000000000000000000000000000000000000000815260986004820152602481018390526044810182905260609073__$2ca33e8c99893de9c36adac6c06090d7b3$__9063ad728ad590606401600060405180830381865af4158015611232573d6000803e3d6000fd5b505050506040513d6000823e601f3d9081017fffffffffffffffffffffffffffffffffffffffffffffffffffffffffffffffe01682016040526112789190810190613373565b9392505050565b611287612192565b610eb6612319565b600054610100900460ff16158080156112af5750600054600160ff909116105b806112c95750303b1580156112c9575060005460ff166001145b611355576040517f08c379a000000000000000000000000000000000000000000000000000000000815260206004820152602e60248201527f496e697469616c697a61626c653a20636f6e747261637420697320616c72656160448201527f647920696e697469616c697a65640000000000000000000000000000000000006064820152608401610f88565b600080547fffffffffffffffffffffffffffffffffffffffffffffffffffffffffffffff0016600117905580156113b357600080547fffffffffffffffffffffffffffffffffffffffffffffffffffffffffffff00ff166101001790555b6113bb6123ac565b6113c361244b565b6113cc82611efd565b60a4805473ffffffffffffffffffffffffffffffffffffffff8b81167fffffffffffffffffffffffff00000000000000000000000000000000000000009283161790925560a38054928b16929091169190911790556040517f11bd86960000000000000000000000000000000000000000000000000000000081526098600482015261ffff8816602482015273__$51ed980ed4ddad7f2d2649c5620a5a284d$__906311bd86969060440160006040518083038186803b15801561148f57600080fd5b505af41580156114a3573d6000803e3d6000fd5b50506040517fa6400cc60000000000000000000000000000000000000000000000000000000081526098600482015261ffff8916602482015273__$2ca33e8c99893de9c36adac6c06090d7b3$__925063a6400cc6915060440160006040518083038186803b15801561151557600080fd5b505af4158015611529573d6000803e3d6000fd5b50506040517f5dae67cc0000000000000000000000000000000000000000000000000000000081526098600482015261ffff8816602482015273__$49556f7947f3338075112416096ff342eb$__9250635dae67cc915060440160006040518083038186803b15801561159b57600080fd5b505af41580156115af573d6000803e3d6000fd5b505050506115bc846124ea565b6040517f3273b4910000000000000000000000000000000000000000000000000000000081526098600482015273ffffffffffffffffffffffffffffffffffffffff8416602482015273__$49556f7947f3338075112416096ff342eb$__90633273b4919060440160006040518083038186803b15801561163c57600080fd5b505af4158015611650573d6000803e3d6000fd5b5050505080156116b757600080547fffffffffffffffffffffffffffffffffffffffffffffffffffffffffffff00ff169055604051600181527f7f26b83ff96e1f2b6a682f133852f6798a09c465da95921460cefb38474024989060200160405180910390a15b505050505050505050565b600081815260a1602090815260409182902080548351818402810184019094528084526060939283018282801561171857602002820191906000526020600020905b815481526020019060010190808311611704575b50505050509050919050565b6040517febf2cd6b0000000000000000000000000000000000000000000000000000000081526098600482015260248101839052604481018290526000908190819073__$2ca33e8c99893de9c36adac6c06090d7b3$__9063ebf2cd6b90606401610df5565b6002606554036117f6576040517f08c379a000000000000000000000000000000000000000000000000000000000815260206004820152601f60248201527f5265656e7472616e637947756172643a207265656e7472616e742063616c6c006044820152606401610f88565b600260655560975460ff1615611838576040517f9e87fac800000000000000000000000000000000000000000000000000000000815260040160405180910390fd5b6040517f7e47ee6500000000000000000000000000000000000000000000000000000000815273__$2ca33e8c99893de9c36adac6c06090d7b3$__90637e47ee6590611895906098908a908a908a908a908a908a90600401613445565b60006040518083038186803b1580156118ad57600080fd5b505af41580156118c1573d6000803e3d6000fd5b505060016065555050505050505050565b6118da612192565b6040517f5dae67cc0000000000000000000000000000000000000000000000000000000081526098600482015261ffff8216602482015273__$49556f7947f3338075112416096ff342eb$__90635dae67cc90604401610d60565b6002606554036119a1576040517f08c379a000000000000000000000000000000000000000000000000000000000815260206004820152601f60248201527f5265656e7472616e637947756172643a207265656e7472616e742063616c6c006044820152606401610f88565b600260655560975460ff16156119e3576040517f9e87fac800000000000000000000000000000000000000000000000000000000815260040160405180910390fd5b6040517f79be5d600000000000000000000000000000000000000000000000000000000081526098600482015260248101849052604481018390526064810182905273__$51ed980ed4ddad7f2d2649c5620a5a284d$__906379be5d60906084015b60006040518083038186803b158015611a5d57600080fd5b505af4158015611a71573d6000803e3d6000fd5b505060016065555050505050565b611a87612192565b6040517f4d62db72000000000000000000000000000000000000000000000000000000008152609860048201526024810183905273ffffffffffffffffffffffffffffffffffffffff8216604482015273__$06758b071caa070fd4252ef0f8e320e34f$__90634d62db7290606401610c53565b600073ffffffffffffffffffffffffffffffffffffffff86163014611b2257506000611b45565b507fbc197c81000000000000000000000000000000000000000000000000000000005b95945050505050565b6000818152609e602090815260409182902080548351818402810184019094528084526060939283018282801561171857602002820191906000526020600020908154815260200190600101908083116117045750505050509050919050565b600260655403611c1a576040517f08c379a000000000000000000000000000000000000000000000000000000000815260206004820152601f60248201527f5265656e7472616e637947756172643a207265656e7472616e742063616c6c006044820152606401610f88565b600260655560975460ff1615611c5c576040517f9e87fac800000000000000000000000000000000000000000000000000000000815260040160405180910390fd5b6040517f46edd1ef0000000000000000000000000000000000000000000000000000000081526098600482015260248101849052604481018390526064810182905273__$2ca33e8c99893de9c36adac6c06090d7b3$__906346edd1ef90608401611a45565b611cca612192565b6040517f7c924c6f00000000000000000000000000000000000000000000000000000000815260986004820152602481018590526044810184905264ffffffffff8316606482015261ffff8216608482015273__$c07436818a8533723c4f7c0e44800fefac$__90637c924c6f9060a40160006040518083038186803b158015611d5357600080fd5b505af4158015611d67573d6000803e3d6000fd5b5050505050505050565b6040517f1b768ae00000000000000000000000000000000000000000000000000000000081526060908190819073__$49556f7947f3338075112416096ff342eb$__90631b768ae090611dcd9060989089908990600401613495565b600060405180830381865af4158015611dea573d6000803e3d6000fd5b505050506040513d6000823e601f3d9081017fffffffffffffffffffffffffffffffffffffffffffffffffffffffffffffffe0168201604052610e36919081019061350a565b611e38612192565b6040517f2a463d1100000000000000000000000000000000000000000000000000000000815260986004820152602481018390526044810182905273__$c07436818a8533723c4f7c0e44800fefac$__90632a463d1190606401610c53565b611e9f612192565b611ea8816124ea565b50565b600073ffffffffffffffffffffffffffffffffffffffff86163014611ed257506000611b45565b507ff23a6e610000000000000000000000000000000000000000000000000000000095945050505050565b611f05612192565b73ffffffffffffffffffffffffffffffffffffffff8116611fa8576040517f08c379a000000000000000000000000000000000000000000000000000000000815260206004820152602660248201527f4f776e61626c653a206e6577206f776e657220697320746865207a65726f206160448201527f64647265737300000000000000000000000000000000000000000000000000006064820152608401610f88565b611ea8816122a2565b611fb9612192565b6040517f28c6ad9c000000000000000000000000000000000000000000000000000000008152609860048201526024810183905263ffffffff8216604482015273__$c07436818a8533723c4f7c0e44800fefac$__906328c6ad9c90606401610c53565b612025612192565b6040517fa6400cc60000000000000000000000000000000000000000000000000000000081526098600482015261ffff8216602482015273__$2ca33e8c99893de9c36adac6c06090d7b3$__9063a6400cc690604401610d60565b612088612192565b6040517fb160ad5b00000000000000000000000000000000000000000000000000000000815273__$c07436818a8533723c4f7c0e44800fefac$__9063b160ad5b906120e5906098908a908a908a908a908a908a9060040161363c565b60006040518083038186803b1580156120fd57600080fd5b505af4158015612111573d6000803e3d6000fd5b50505050505050505050565b612125612192565b6040517f25f2a0290000000000000000000000000000000000000000000000000000000081526098600482015273ffffffffffffffffffffffffffffffffffffffff8216602482015273__$06758b071caa070fd4252ef0f8e320e34f$__906325f2a02990604401610d60565b60335473ffffffffffffffffffffffffffffffffffffffff163314610eb6576040517f08c379a000000000000000000000000000000000000000000000000000000000815260206004820181905260248201527f4f776e61626c653a2063616c6c6572206973206e6f7420746865206f776e65726044820152606401610f88565b60975460ff1661224f576040517f6cd6020100000000000000000000000000000000000000000000000000000000815260040160405180910390fd5b609780547fffffffffffffffffffffffffffffffffffffffffffffffffffffffffffffff001690556040517f7805862f689e2f13df9f062ff482ad3ad112aca9e0847911ed832e158c525b3390600090a1565b6033805473ffffffffffffffffffffffffffffffffffffffff8381167fffffffffffffffffffffffff0000000000000000000000000000000000000000831681179093556040519116919082907f8be0079c531659141344cd1fd0a4f28419497f9722a3daafe3b4186f6b6457e090600090a35050565b60975460ff1615612356576040517f9e87fac800000000000000000000000000000000000000000000000000000000815260040160405180910390fd5b609780547fffffffffffffffffffffffffffffffffffffffffffffffffffffffffffffff001660011790556040517f6985a02210a168e66602d3235cb6db0e70f92b3ba4d376a33c0f3d9434bff62590600090a1565b600054610100900460ff16612443576040517f08c379a000000000000000000000000000000000000000000000000000000000815260206004820152602b60248201527f496e697469616c697a61626c653a20636f6e7472616374206973206e6f74206960448201527f6e697469616c697a696e670000000000000000000000000000000000000000006064820152608401610f88565b610eb6612559565b600054610100900460ff166124e2576040517f08c379a000000000000000000000000000000000000000000000000000000000815260206004820152602b60248201527f496e697469616c697a61626c653a20636f6e7472616374206973206e6f74206960448201527f6e697469616c697a696e670000000000000000000000000000000000000000006064820152608401610f88565b610eb66125f9565b60a680547fffffffffffffffffffffffff00000000000000000000000000000000000000001673ffffffffffffffffffffffffffffffffffffffff83169081179091556040517f27aae5db36d94179909d019ae0b1ac7c16d96d953148f63c0f6a0a9c8ead79ee90600090a250565b600054610100900460ff166125f0576040517f08c379a000000000000000000000000000000000000000000000000000000000815260206004820152602b60248201527f496e697469616c697a61626c653a20636f6e7472616374206973206e6f74206960448201527f6e697469616c697a696e670000000000000000000000000000000000000000006064820152608401610f88565b610eb6336122a2565b600054610100900460ff16612690576040517f08c379a000000000000000000000000000000000000000000000000000000000815260206004820152602b60248201527f496e697469616c697a61626c653a20636f6e7472616374206973206e6f74206960448201527f6e697469616c697a696e670000000000000000000000000000000000000000006064820152608401610f88565b6001606555565b6000602082840312156126a957600080fd5b81357fffffffff000000000000000000000000000000000000000000000000000000008116811461127857600080fd5b803580151581146126e957600080fd5b919050565b6000806040838503121561270157600080fd5b82359150612711602084016126d9565b90509250929050565b73ffffffffffffffffffffffffffffffffffffffff81168114611ea857600080fd5b60006020828403121561274e57600080fd5b81356112788161271a565b6000806040838503121561276c57600080fd5b50508035926020909101359150565b60006020828403121561278d57600080fd5b5035919050565b803561ffff811681146126e957600080fd5b6000602082840312156127b857600080fd5b61127882612794565b6000808284036101408112156127d657600080fd5b610120808212156127e657600080fd5b9395938601359450505050565b60006101208201905082518252602083015160208301526040830151604083015273ffffffffffffffffffffffffffffffffffffffff606084015116606083015263ffffffff608084015116608083015260a083015161285960a084018261ffff169052565b5060c083015161286e60c084018260ff169052565b5060e083015161288560e084018262ffffff169052565b50610100928301511515919092015290565b60008083601f8401126128a957600080fd5b50813567ffffffffffffffff8111156128c157600080fd5b6020830191508360208260051b85010111156128dc57600080fd5b9250929050565b600080600080600080600080600060a08a8c03121561290157600080fd5b893567ffffffffffffffff8082111561291957600080fd5b6129258d838e01612897565b909b50995060208c013591508082111561293e57600080fd5b61294a8d838e01612897565b909950975060408c013591508082111561296357600080fd5b61296f8d838e01612897565b909750955060608c013591508082111561298857600080fd5b506129958c828d01612897565b90945092505060808a01356129a98161271a565b809150509295985092959850929598565b602080825282518282018190526000919060409081850190868401855b82811015612a1b5781518051855286810151878601528581015186860152606080820151908601526080908101519085015260a090930192908501906001016129d7565b5091979650505050505050565b600080600080600080600080610100898b031215612a4557600080fd5b8835612a508161271a565b97506020890135612a608161271a565b9650612a6e60408a01612794565b9550612a7c60608a01612794565b9450612a8a60808a01612794565b935060a0890135612a9a8161271a565b925060c0890135612aaa8161271a565b915060e0890135612aba8161271a565b809150509295985092959890939650565b600081518084526020808501945080840160005b83811015612afb57815187529582019590820190600101612adf565b509495945050505050565b6020815260006112786020830184612acb565b60008060008060008060608789031215612b3257600080fd5b863567ffffffffffffffff80821115612b4a57600080fd5b612b568a838b01612897565b90985096506020890135915080821115612b6f57600080fd5b612b7b8a838b01612897565b90965094506040890135915080821115612b9457600080fd5b50612ba189828a01612897565b979a9699509497509295939492505050565b600080600060608486031215612bc857600080fd5b505081359360208301359350604090920135919050565b60008060408385031215612bf257600080fd5b823591506020830135612c048161271a565b809150509250929050565b7f4e487b7100000000000000000000000000000000000000000000000000000000600052604160045260246000fd5b60405160a0810167ffffffffffffffff81118282101715612c6157612c61612c0f565b60405290565b604051601f82017fffffffffffffffffffffffffffffffffffffffffffffffffffffffffffffffe016810167ffffffffffffffff81118282101715612cae57612cae612c0f565b604052919050565b600067ffffffffffffffff821115612cd057612cd0612c0f565b5060051b60200190565b600082601f830112612ceb57600080fd5b81356020612d00612cfb83612cb6565b612c67565b82815260059290921b84018101918181019086841115612d1f57600080fd5b8286015b84811015612d3a5780358352918301918301612d23565b509695505050505050565b600082601f830112612d5657600080fd5b813567ffffffffffffffff811115612d7057612d70612c0f565b612da160207fffffffffffffffffffffffffffffffffffffffffffffffffffffffffffffffe0601f84011601612c67565b818152846020838601011115612db657600080fd5b816020850160208301376000918101602001919091529392505050565b600080600080600060a08688031215612deb57600080fd5b8535612df68161271a565b94506020860135612e068161271a565b9350604086013567ffffffffffffffff80821115612e2357600080fd5b612e2f89838a01612cda565b94506060880135915080821115612e4557600080fd5b612e5189838a01612cda565b93506080880135915080821115612e6757600080fd5b50612e7488828901612d45565b9150509295509295909350565b60008060008060808587031215612e9757600080fd5b8435935060208501359250604085013564ffffffffff81168114612eba57600080fd5b9150612ec860608601612794565b905092959194509250565b60008060208385031215612ee657600080fd5b823567ffffffffffffffff811115612efd57600080fd5b612f0985828601612897565b90969095509350505050565b606080825284519082018190526000906020906080840190828801845b82811015612f6457815173ffffffffffffffffffffffffffffffffffffffff1684529284019290840190600101612f32565b50505083810382850152612f788187612acb565b9150508281036040840152612f8d8185612acb565b9695505050505050565b600080600080600060a08688031215612faf57600080fd5b8535612fba8161271a565b94506020860135612fca8161271a565b93506040860135925060608601359150608086013567ffffffffffffffff811115612ff457600080fd5b612e7488828901612d45565b803563ffffffff811681146126e957600080fd5b6000806040838503121561302757600080fd5b8235915061271160208401613000565b60008083601f84011261304957600080fd5b50813567ffffffffffffffff81111561306157600080fd5b6020830191508360208285010111156128dc57600080fd5b803562ffffff811681146126e957600080fd5b600080600080600080608087890312156130a557600080fd5b86359550602087013567ffffffffffffffff808211156130c457600080fd5b6130d08a838b01613037565b909750955060408901359150808211156130e957600080fd5b506130f689828a01613037565b9094509250613109905060608801613079565b90509295509295509295565b60008060006060848603121561312a57600080fd5b8351925060208401519150604084015190509250925092565b803560ff811681146126e957600080fd5b60006101608201905084825283356020830152602084013560408301526040840135606083015260608401356131898161271a565b73ffffffffffffffffffffffffffffffffffffffff81166080840152506131b260808501613000565b63ffffffff811660a0840152506131cb60a08501612794565b61ffff811660c0840152506131e260c08501613143565b60ff811660e0840152506131f860e08501613079565b61010061320b8185018362ffffff169052565b6132168187016126d9565b91505061322861012084018215159052565b5082610140830152949350505050565b81835260007f07ffffffffffffffffffffffffffffffffffffffffffffffffffffffffffffff83111561326a57600080fd5b8260051b80836020870137939093016020019392505050565b8a81526000602060c08184015261329e60c084018c8e613238565b83810360408501528981528a90820160005b8b8110156132eb5782356132c38161271a565b73ffffffffffffffffffffffffffffffffffffffff16825291830191908301906001016132b0565b5084810360608601526132ff818a8c613238565b925050508281036080840152613316818688613238565b91505073ffffffffffffffffffffffffffffffffffffffff831660a08301529b9a5050505050505050505050565b7f4e487b7100000000000000000000000000000000000000000000000000000000600052603260045260246000fd5b6000602080838503121561338657600080fd5b825167ffffffffffffffff81111561339d57600080fd5b8301601f810185136133ae57600080fd5b80516133bc612cfb82612cb6565b81815260a091820283018401918482019190888411156133db57600080fd5b938501935b838510156134395780858a0312156133f85760008081fd5b613400612c3e565b855181528686015187820152604080870151908201526060808701519082015260808087015190820152835293840193918501916133e0565b50979650505050505050565b87815260806020820152600061345f60808301888a613238565b8281036040840152613472818789613238565b90508281036060840152613487818587613238565b9a9950505050505050505050565b838152604060208201526000611b45604083018486613238565b600082601f8301126134c057600080fd5b815160206134d0612cfb83612cb6565b82815260059290921b840181019181810190868411156134ef57600080fd5b8286015b84811015612d3a57805183529183019183016134f3565b60008060006060848603121561351f57600080fd5b835167ffffffffffffffff8082111561353757600080fd5b818601915086601f83011261354b57600080fd5b8151602061355b612cfb83612cb6565b82815260059290921b8401810191818101908a84111561357a57600080fd5b948201945b838610156135a15785516135928161271a565b8252948201949082019061357f565b918901519197509093505050808211156135ba57600080fd5b6135c6878388016134af565b935060408601519150808211156135dc57600080fd5b506135e9868287016134af565b9150509250925092565b8183528181602085013750600060208284010152600060207fffffffffffffffffffffffffffffffffffffffffffffffffffffffffffffffe0601f840116840101905092915050565b87815286602082015260a06040820152600061365c60a0830187896135f3565b828103606084015261366f8186886135f3565b91505062ffffff831660808301529897505050505050505056fea26469706673582212203263589d3458b34464590eefc47859f847ac9e229d32eaf5dc9e90dfa5dd81c064736f6c63430008100033",
  "libraries": {
    "WeeklyCarbonRewards": "0x1423a75387F49259AC09E49Ff4F6a608Ce294e2C",
    "CarbonDomainRepository": "0x3e3c3A3d1c66b114e034FCa66F554BeB1F0F3570",
    "CollateralizationManager": "0x88CB21403d3365250aCc4F398051eD33a8379470",
    "DecollateralizationManager": "0xb08bd256d82299Ec9dBcbfF87A293760a37C05f3",
    "RegulatoryComplianceManager": "0x75d846905CDC547142Fa7414F2Df50610DD5936B"
  },
  "devdoc": {
    "kind": "dev",
    "methods": {
      "addBatch((uint256,uint256,uint256,address,uint32,uint16,uint8,uint24,bool),uint256)": {
        "params": {
          "batch": "Struct containing all the data for the batch",
          "mintableAmount": "The amount of ERC1155 tokens to be minted to the batch supplier"
        }
      },
      "addCategory(uint256,string,string,uint24)": {
        "params": {
          "categoryId": "The category ID",
          "initialTA": "The initial time appreciation for the category. Category's averageTA will be set to this value.",
          "tokenName": "The name of the ERC20 token that will be created for the category",
          "tokenSymbol": "The symbol of the ERC20 token that will be created for the category"
        }
      },
      "addProject(uint256,uint256)": {
        "params": {
          "categoryId": "The category ID to which the project belongs",
          "projectId": "The project ID"
        }
      },
      "bulkDecollateralizeTokens(uint256[],uint256[],uint256[])": {
        "details": "Bulk-decollateralizes ERC20 tokens into multiple ERC1155 tokens with specified amountsprior to calling, msg.sender must approve SolidWorldManager to spend `sum(amountsIn)` ERC20 tokensnonReentrant (_decollateralizeTokens), to avoid possible reentrancy after calling safeTransferFrom_batchIds must belong to the same Categorywill trigger a rebalance of the Category",
        "params": {
          "amountsIn": "ERC20 tokens to decollateralize",
          "amountsOutMin": "minimum output amounts of ERC1155 tokens for transaction to succeed",
          "batchIds": "ids of the batches"
        }
      },
      "collateralizeBatch(uint256,uint256,uint256)": {
        "details": "Collateralizes `amountIn` of ERC1155 tokens with id `batchId` for msg.senderprior to calling, msg.sender must approve SolidWorldManager to spend its ERC1155 tokens with id `batchId`nonReentrant, to avoid possible reentrancy after calling safeTransferFrom",
        "params": {
          "amountIn": "ERC1155 tokens to collateralize",
          "amountOutMin": "minimum output amount of ERC20 tokens for transaction to succeed",
          "batchId": "id of the batch"
        }
      },
      "computeWeeklyCarbonRewards(uint256[])": {
        "params": {
          "categoryIds": "The categories to which the incentivized assets belong"
        },
        "returns": {
          "_0": "List of carbon rewards getting distributed.",
          "_1": "List of carbon reward amounts getting distributed",
          "_2": "List of fee amounts charged by the DAO on carbon rewards"
        }
      },
      "decollateralizeTokens(uint256,uint256,uint256)": {
        "details": "Decollateralizes `amountIn` of ERC20 tokens and sends `amountOut` ERC1155 tokens with id `batchId` to msg.senderprior to calling, msg.sender must approve SolidWorldManager to spend `amountIn` ERC20 tokensnonReentrant (_decollateralizeTokens), to avoid possible reentrancy after calling safeTransferFromwill trigger a rebalance of the Category",
        "params": {
          "amountIn": "ERC20 tokens to decollateralize",
          "amountOutMin": "minimum output amount of ERC1155 tokens for transaction to succeed",
          "batchId": "id of the batch"
        }
      },
      "getBatchesDecollateralizationInfo(uint256,uint256)": {
        "details": "Computes relevant info for the decollateralization process involving batches that match the specified `projectId` and `vintage`",
        "params": {
          "projectId": "id of the project the batch belongs to",
          "vintage": "vintage of the batch"
        },
        "returns": {
          "_0": "array of relevant info about matching batches"
        }
      },
      "mintWeeklyCarbonRewards(uint256[],address[],uint256[],uint256[],address)": {
        "params": {
          "carbonRewards": "List of carbon rewards to mint",
          "categoryIds": "The categories to which the incentivized assets belong",
          "rewardAmounts": "List of carbon reward amounts to mint",
          "rewardFees": "List of fee amounts charged by the DAO on carbon rewards",
          "rewardsVault": "Account that secures ERC20 rewards"
        }
      },
      "onERC1155BatchReceived(address,address,uint256[],uint256[],bytes)": {
        "details": "accept transfers from this contract only"
      },
      "onERC1155Received(address,address,uint256,uint256,bytes)": {
        "details": "accept transfers from this contract only"
      },
      "owner()": {
        "details": "Returns the address of the current owner."
      },
      "pause()": {
        "details": "triggers stopped state"
      },
      "renounceOwnership()": {
        "details": "Leaves the contract without owner. It will not be possible to call `onlyOwner` functions anymore. Can only be called by the current owner. NOTE: Renouncing ownership will leave the contract without an owner, thereby removing any functionality that is only available to the owner."
      },
      "setBatchAccumulating(uint256,bool)": {
        "params": {
          "batchId": "The batch ID",
          "isAccumulating": "The new isAccumulating value for the batch"
        }
      },
      "setBatchCertificationDate(uint256,uint32)": {
        "params": {
          "batchId": "The batch ID to be updated",
          "certificationDate": "The new certification date for the batch"
        }
      },
      "setCollateralizationFee(uint16)": {
        "params": {
          "collateralizationFee": "fee for collateralizing ERC1155 tokens"
        }
      },
      "setDecollateralizationFee(uint16)": {
        "params": {
          "decollateralizationFee": "fee for decollateralizing ERC20 tokens"
        }
      },
      "setRewardsFee(uint16)": {
        "params": {
          "rewardsFee": "The new rewards fee charged on weekly rewards"
        }
      },
      "setWeeklyRewardsMinter(address)": {
        "params": {
          "weeklyRewardsMinter": "The only account allowed to mint weekly carbon rewards"
        }
      },
      "simulateBatchCollateralization(uint256,uint256)": {
        "details": "Simulates collateralization of `amountIn` ERC1155 tokens with id `batchId` for msg.sender",
        "params": {
          "amountIn": "ERC1155 tokens to collateralize",
          "batchId": "id of the batch"
        },
        "returns": {
          "_0": "ERC20 tokens to be received by msg.sender",
          "_1": "ERC20 tokens to be received by feeReceiver",
          "_2": "ERC20 tokens forfeited for collateralizing the ERC1155 tokens"
        }
      },
      "simulateDecollateralization(uint256,uint256)": {
        "details": "Simulates decollateralization of `amountIn` ERC20 tokens for ERC1155 tokens with id `batchId`",
        "params": {
          "amountIn": "ERC20 tokens to decollateralize",
          "batchId": "id of the batch"
        },
        "returns": {
          "_0": "ERC1155 tokens to be received by msg.sender",
          "_1": "minimum amount of ERC20 tokens to decollateralize `amountOut` ERC1155 tokens with id `batchId`",
          "_2": "ERC20 tokens to be received by feeReceiver for decollateralizing minAmountIn ERC20 tokens"
        }
      },
      "supportsInterface(bytes4)": {
        "details": "Returns true if this contract implements the interface defined by `interfaceId`. See the corresponding https://eips.ethereum.org/EIPS/eip-165#how-interfaces-are-identified[EIP section] to learn more about how these ids are created. This function call must use less than 30 000 gas."
      },
      "transferOwnership(address)": {
        "details": "Transfers ownership of the contract to a new account (`newOwner`). Can only be called by the current owner."
      },
      "unpause()": {
        "details": "returns to normal state"
      },
      "updateCategory(uint256,uint256,uint40,uint16)": {
        "params": {
          "categoryId": "The category ID to be updated",
          "decayPerSecond": "The new decay per second for the category",
          "maxDepreciation": "The new max depreciation for the category. Quantified per year.",
          "volumeCoefficient": "The new volume coefficient for the category"
        }
      }
    },
    "version": 1
  },
  "userdoc": {
    "kind": "user",
    "methods": {
      "setBatchCertificationDate(uint256,uint32)": {
        "notice": "The certification date can only be set sooner than the current certification date"
      }
    },
    "version": 1
  },
  "storageLayout": {
    "storage": [
      {
        "astId": 138,
        "contract": "contracts/SolidWorldManager.sol:SolidWorldManager",
        "label": "_initialized",
        "offset": 0,
        "slot": "0",
        "type": "t_uint8"
      },
      {
        "astId": 141,
        "contract": "contracts/SolidWorldManager.sol:SolidWorldManager",
        "label": "_initializing",
        "offset": 1,
        "slot": "0",
        "type": "t_bool"
      },
      {
        "astId": 666,
        "contract": "contracts/SolidWorldManager.sol:SolidWorldManager",
        "label": "__gap",
        "offset": 0,
        "slot": "1",
        "type": "t_array(t_uint256)50_storage"
      },
      {
        "astId": 10,
        "contract": "contracts/SolidWorldManager.sol:SolidWorldManager",
        "label": "_owner",
        "offset": 0,
        "slot": "51",
        "type": "t_address"
      },
      {
        "astId": 130,
        "contract": "contracts/SolidWorldManager.sol:SolidWorldManager",
        "label": "__gap",
        "offset": 0,
        "slot": "52",
        "type": "t_array(t_uint256)49_storage"
      },
      {
        "astId": 296,
        "contract": "contracts/SolidWorldManager.sol:SolidWorldManager",
        "label": "_status",
        "offset": 0,
        "slot": "101",
        "type": "t_uint256"
      },
      {
        "astId": 340,
        "contract": "contracts/SolidWorldManager.sol:SolidWorldManager",
        "label": "__gap",
        "offset": 0,
        "slot": "102",
        "type": "t_array(t_uint256)49_storage"
      },
      {
        "astId": 8399,
        "contract": "contracts/SolidWorldManager.sol:SolidWorldManager",
        "label": "paused",
        "offset": 0,
        "slot": "151",
        "type": "t_bool"
      },
      {
        "astId": 9790,
        "contract": "contracts/SolidWorldManager.sol:SolidWorldManager",
        "label": "_storage",
        "offset": 0,
        "slot": "152",
        "type": "t_struct(Storage)9787_storage"
      }
    ],
    "types": {
      "t_address": {
        "encoding": "inplace",
        "label": "address",
        "numberOfBytes": "20"
      },
      "t_array(t_uint256)49_storage": {
        "base": "t_uint256",
        "encoding": "inplace",
        "label": "uint256[49]",
        "numberOfBytes": "1568"
      },
      "t_array(t_uint256)50_storage": {
        "base": "t_uint256",
        "encoding": "inplace",
        "label": "uint256[50]",
        "numberOfBytes": "1600"
      },
      "t_array(t_uint256)dyn_storage": {
        "base": "t_uint256",
        "encoding": "dynamic_array",
        "label": "uint256[]",
        "numberOfBytes": "32"
      },
      "t_bool": {
        "encoding": "inplace",
        "label": "bool",
        "numberOfBytes": "1"
      },
      "t_contract(CollateralizedBasketToken)6601": {
        "encoding": "inplace",
        "label": "contract CollateralizedBasketToken",
        "numberOfBytes": "20"
      },
      "t_contract(CollateralizedBasketTokenDeployer)6664": {
        "encoding": "inplace",
        "label": "contract CollateralizedBasketTokenDeployer",
        "numberOfBytes": "20"
      },
      "t_contract(ForwardContractBatchToken)7026": {
        "encoding": "inplace",
        "label": "contract ForwardContractBatchToken",
        "numberOfBytes": "20"
      },
      "t_mapping(t_uint256,t_array(t_uint256)dyn_storage)": {
        "encoding": "mapping",
        "key": "t_uint256",
        "label": "mapping(uint256 => uint256[])",
        "numberOfBytes": "32",
        "value": "t_array(t_uint256)dyn_storage"
      },
      "t_mapping(t_uint256,t_bool)": {
        "encoding": "mapping",
        "key": "t_uint256",
        "label": "mapping(uint256 => bool)",
        "numberOfBytes": "32",
        "value": "t_bool"
      },
      "t_mapping(t_uint256,t_contract(CollateralizedBasketToken)6601)": {
        "encoding": "mapping",
        "key": "t_uint256",
        "label": "mapping(uint256 => contract CollateralizedBasketToken)",
        "numberOfBytes": "32",
        "value": "t_contract(CollateralizedBasketToken)6601"
      },
      "t_mapping(t_uint256,t_struct(Batch)13686_storage)": {
        "encoding": "mapping",
        "key": "t_uint256",
        "label": "mapping(uint256 => struct DomainDataTypes.Batch)",
        "numberOfBytes": "32",
        "value": "t_struct(Batch)13686_storage"
      },
      "t_mapping(t_uint256,t_struct(Category)13701_storage)": {
        "encoding": "mapping",
        "key": "t_uint256",
        "label": "mapping(uint256 => struct DomainDataTypes.Category)",
        "numberOfBytes": "32",
        "value": "t_struct(Category)13701_storage"
      },
      "t_mapping(t_uint256,t_uint256)": {
        "encoding": "mapping",
        "key": "t_uint256",
        "label": "mapping(uint256 => uint256)",
        "numberOfBytes": "32",
        "value": "t_uint256"
      },
      "t_struct(Batch)13686_storage": {
        "encoding": "inplace",
        "label": "struct DomainDataTypes.Batch",
        "members": [
          {
            "astId": 13669,
            "contract": "contracts/SolidWorldManager.sol:SolidWorldManager",
            "label": "id",
            "offset": 0,
            "slot": "0",
            "type": "t_uint256"
          },
          {
            "astId": 13671,
            "contract": "contracts/SolidWorldManager.sol:SolidWorldManager",
            "label": "projectId",
            "offset": 0,
            "slot": "1",
            "type": "t_uint256"
          },
          {
            "astId": 13673,
            "contract": "contracts/SolidWorldManager.sol:SolidWorldManager",
            "label": "collateralizedCredits",
            "offset": 0,
            "slot": "2",
            "type": "t_uint256"
          },
          {
            "astId": 13675,
            "contract": "contracts/SolidWorldManager.sol:SolidWorldManager",
            "label": "supplier",
            "offset": 0,
            "slot": "3",
            "type": "t_address"
          },
          {
            "astId": 13677,
            "contract": "contracts/SolidWorldManager.sol:SolidWorldManager",
            "label": "certificationDate",
            "offset": 20,
            "slot": "3",
            "type": "t_uint32"
          },
          {
            "astId": 13679,
            "contract": "contracts/SolidWorldManager.sol:SolidWorldManager",
            "label": "vintage",
            "offset": 24,
            "slot": "3",
            "type": "t_uint16"
          },
          {
            "astId": 13681,
            "contract": "contracts/SolidWorldManager.sol:SolidWorldManager",
            "label": "status",
            "offset": 26,
            "slot": "3",
            "type": "t_uint8"
          },
          {
            "astId": 13683,
            "contract": "contracts/SolidWorldManager.sol:SolidWorldManager",
            "label": "batchTA",
            "offset": 27,
            "slot": "3",
            "type": "t_uint24"
          },
          {
            "astId": 13685,
            "contract": "contracts/SolidWorldManager.sol:SolidWorldManager",
            "label": "isAccumulating",
            "offset": 30,
            "slot": "3",
            "type": "t_bool"
          }
        ],
        "numberOfBytes": "128"
      },
      "t_struct(Category)13701_storage": {
        "encoding": "inplace",
        "label": "struct DomainDataTypes.Category",
        "members": [
          {
            "astId": 13688,
            "contract": "contracts/SolidWorldManager.sol:SolidWorldManager",
            "label": "volumeCoefficient",
            "offset": 0,
            "slot": "0",
            "type": "t_uint256"
          },
          {
            "astId": 13690,
            "contract": "contracts/SolidWorldManager.sol:SolidWorldManager",
            "label": "decayPerSecond",
            "offset": 0,
            "slot": "1",
            "type": "t_uint40"
          },
          {
            "astId": 13692,
            "contract": "contracts/SolidWorldManager.sol:SolidWorldManager",
            "label": "maxDepreciation",
            "offset": 5,
            "slot": "1",
            "type": "t_uint16"
          },
          {
            "astId": 13694,
            "contract": "contracts/SolidWorldManager.sol:SolidWorldManager",
            "label": "averageTA",
            "offset": 7,
            "slot": "1",
            "type": "t_uint24"
          },
          {
            "astId": 13696,
            "contract": "contracts/SolidWorldManager.sol:SolidWorldManager",
            "label": "lastCollateralizationTimestamp",
            "offset": 10,
            "slot": "1",
            "type": "t_uint32"
          },
          {
            "astId": 13698,
            "contract": "contracts/SolidWorldManager.sol:SolidWorldManager",
            "label": "totalCollateralized",
            "offset": 0,
            "slot": "2",
            "type": "t_uint256"
          },
          {
            "astId": 13700,
            "contract": "contracts/SolidWorldManager.sol:SolidWorldManager",
            "label": "lastCollateralizationMomentum",
            "offset": 0,
            "slot": "3",
            "type": "t_uint256"
          }
        ],
        "numberOfBytes": "128"
      },
      "t_struct(Storage)9787_storage": {
        "encoding": "inplace",
        "label": "struct SolidWorldManagerStorage.Storage",
        "members": [
          {
            "astId": 9709,
            "contract": "contracts/SolidWorldManager.sol:SolidWorldManager",
            "label": "categoryCreated",
            "offset": 0,
            "slot": "0",
            "type": "t_mapping(t_uint256,t_bool)"
          },
          {
            "astId": 9714,
            "contract": "contracts/SolidWorldManager.sol:SolidWorldManager",
            "label": "projectCreated",
            "offset": 0,
            "slot": "1",
            "type": "t_mapping(t_uint256,t_bool)"
          },
          {
            "astId": 9719,
            "contract": "contracts/SolidWorldManager.sol:SolidWorldManager",
            "label": "batchCreated",
            "offset": 0,
            "slot": "2",
            "type": "t_mapping(t_uint256,t_bool)"
          },
          {
            "astId": 9725,
            "contract": "contracts/SolidWorldManager.sol:SolidWorldManager",
            "label": "categories",
            "offset": 0,
            "slot": "3",
            "type": "t_mapping(t_uint256,t_struct(Category)13701_storage)"
          },
          {
            "astId": 9731,
            "contract": "contracts/SolidWorldManager.sol:SolidWorldManager",
            "label": "batches",
            "offset": 0,
            "slot": "4",
            "type": "t_mapping(t_uint256,t_struct(Batch)13686_storage)"
          },
          {
            "astId": 9737,
            "contract": "contracts/SolidWorldManager.sol:SolidWorldManager",
            "label": "categoryToken",
            "offset": 0,
            "slot": "5",
            "type": "t_mapping(t_uint256,t_contract(CollateralizedBasketToken)6601)"
          },
          {
            "astId": 9743,
            "contract": "contracts/SolidWorldManager.sol:SolidWorldManager",
            "label": "categoryProjects",
            "offset": 0,
            "slot": "6",
            "type": "t_mapping(t_uint256,t_array(t_uint256)dyn_storage)"
          },
          {
            "astId": 9748,
            "contract": "contracts/SolidWorldManager.sol:SolidWorldManager",
            "label": "projectCategory",
            "offset": 0,
            "slot": "7",
            "type": "t_mapping(t_uint256,t_uint256)"
          },
          {
            "astId": 9753,
            "contract": "contracts/SolidWorldManager.sol:SolidWorldManager",
            "label": "batchCategory",
            "offset": 0,
            "slot": "8",
            "type": "t_mapping(t_uint256,t_uint256)"
          },
          {
            "astId": 9759,
            "contract": "contracts/SolidWorldManager.sol:SolidWorldManager",
            "label": "projectBatches",
            "offset": 0,
            "slot": "9",
            "type": "t_mapping(t_uint256,t_array(t_uint256)dyn_storage)"
          },
          {
            "astId": 9763,
            "contract": "contracts/SolidWorldManager.sol:SolidWorldManager",
            "label": "batchIds",
            "offset": 0,
            "slot": "10",
            "type": "t_array(t_uint256)dyn_storage"
          },
          {
            "astId": 9767,
            "contract": "contracts/SolidWorldManager.sol:SolidWorldManager",
            "label": "_forwardContractBatch",
            "offset": 0,
            "slot": "11",
            "type": "t_contract(ForwardContractBatchToken)7026"
          },
          {
            "astId": 9771,
            "contract": "contracts/SolidWorldManager.sol:SolidWorldManager",
            "label": "_collateralizedBasketTokenDeployer",
            "offset": 0,
            "slot": "12",
            "type": "t_contract(CollateralizedBasketTokenDeployer)6664"
          },
          {
            "astId": 9774,
            "contract": "contracts/SolidWorldManager.sol:SolidWorldManager",
            "label": "weeklyRewardsMinter",
            "offset": 0,
            "slot": "13",
            "type": "t_address"
          },
          {
            "astId": 9777,
            "contract": "contracts/SolidWorldManager.sol:SolidWorldManager",
            "label": "feeReceiver",
            "offset": 0,
            "slot": "14",
            "type": "t_address"
          },
          {
            "astId": 9780,
            "contract": "contracts/SolidWorldManager.sol:SolidWorldManager",
            "label": "collateralizationFee",
            "offset": 20,
            "slot": "14",
            "type": "t_uint16"
          },
          {
            "astId": 9783,
            "contract": "contracts/SolidWorldManager.sol:SolidWorldManager",
            "label": "decollateralizationFee",
            "offset": 22,
            "slot": "14",
            "type": "t_uint16"
          },
          {
            "astId": 9786,
            "contract": "contracts/SolidWorldManager.sol:SolidWorldManager",
            "label": "rewardsFee",
            "offset": 24,
            "slot": "14",
            "type": "t_uint16"
          }
        ],
        "numberOfBytes": "480"
      },
      "t_uint16": {
        "encoding": "inplace",
        "label": "uint16",
        "numberOfBytes": "2"
      },
      "t_uint24": {
        "encoding": "inplace",
        "label": "uint24",
        "numberOfBytes": "3"
      },
      "t_uint256": {
        "encoding": "inplace",
        "label": "uint256",
        "numberOfBytes": "32"
      },
      "t_uint32": {
        "encoding": "inplace",
        "label": "uint32",
        "numberOfBytes": "4"
      },
      "t_uint40": {
        "encoding": "inplace",
        "label": "uint40",
        "numberOfBytes": "5"
      },
      "t_uint8": {
        "encoding": "inplace",
        "label": "uint8",
        "numberOfBytes": "1"
      }
    }
  }
}