{
  "address": "0x175Ca43721a7f73ABbC017E55fBd5822Ab6D3242",
  "abi": [
    {
      "inputs": [],
      "name": "NotPaused",
      "type": "error"
    },
    {
      "inputs": [
        {
          "internalType": "address",
          "name": "caller",
          "type": "address"
        }
      ],
      "name": "NotTimelockController",
      "type": "error"
    },
    {
      "inputs": [],
      "name": "Paused",
      "type": "error"
    },
    {
      "anonymous": false,
      "inputs": [
        {
          "indexed": true,
          "internalType": "uint256",
          "name": "batchId",
          "type": "uint256"
        },
        {
          "indexed": true,
          "internalType": "address",
          "name": "batchSupplier",
          "type": "address"
        },
        {
          "indexed": false,
          "internalType": "uint256",
          "name": "amountIn",
          "type": "uint256"
        },
        {
          "indexed": false,
          "internalType": "uint256",
          "name": "amountOut",
          "type": "uint256"
        }
      ],
      "name": "BatchCollateralized",
      "type": "event"
    },
    {
      "anonymous": false,
      "inputs": [
        {
          "indexed": true,
          "internalType": "uint256",
          "name": "batchId",
          "type": "uint256"
        }
      ],
      "name": "BatchCreated",
      "type": "event"
    },
    {
      "anonymous": false,
      "inputs": [
        {
          "indexed": true,
          "internalType": "uint256",
          "name": "boostedDecollateralizationFee",
          "type": "uint256"
        }
      ],
      "name": "BoostedDecollateralizationFeeUpdated",
      "type": "event"
    },
    {
      "anonymous": false,
      "inputs": [
        {
          "indexed": true,
          "internalType": "uint256",
          "name": "categoryId",
          "type": "uint256"
        }
      ],
      "name": "CategoryCreated",
      "type": "event"
    },
    {
      "anonymous": false,
      "inputs": [
        {
          "indexed": true,
          "internalType": "uint256",
          "name": "categoryId",
          "type": "uint256"
        },
        {
          "indexed": true,
          "internalType": "uint256",
          "name": "averageTA",
          "type": "uint256"
        },
        {
          "indexed": true,
          "internalType": "uint256",
          "name": "totalCollateralized",
          "type": "uint256"
        }
      ],
      "name": "CategoryRebalanced",
      "type": "event"
    },
    {
      "anonymous": false,
      "inputs": [
        {
          "indexed": true,
          "internalType": "uint256",
          "name": "categoryId",
          "type": "uint256"
        },
        {
          "indexed": true,
          "internalType": "uint256",
          "name": "volumeCoefficient",
          "type": "uint256"
        },
        {
          "indexed": true,
          "internalType": "uint256",
          "name": "decayPerSecond",
          "type": "uint256"
        },
        {
          "indexed": false,
          "internalType": "uint256",
          "name": "maxDepreciation",
          "type": "uint256"
        }
      ],
      "name": "CategoryUpdated",
      "type": "event"
    },
    {
      "anonymous": false,
      "inputs": [
        {
          "indexed": true,
          "internalType": "uint256",
          "name": "collateralizationFee",
          "type": "uint256"
        }
      ],
      "name": "CollateralizationFeeUpdated",
      "type": "event"
    },
    {
      "anonymous": false,
      "inputs": [
        {
          "indexed": true,
          "internalType": "uint256",
          "name": "decollateralizationFee",
          "type": "uint256"
        }
      ],
      "name": "DecollateralizationFeeUpdated",
      "type": "event"
    },
    {
      "anonymous": false,
      "inputs": [
        {
          "indexed": true,
          "internalType": "address",
          "name": "feeReceiver",
          "type": "address"
        }
      ],
      "name": "FeeReceiverUpdated",
      "type": "event"
    },
    {
      "anonymous": false,
      "inputs": [
        {
          "indexed": false,
          "internalType": "uint8",
          "name": "version",
          "type": "uint8"
        }
      ],
      "name": "Initialized",
      "type": "event"
    },
    {
      "anonymous": false,
      "inputs": [
        {
          "indexed": true,
          "internalType": "address",
          "name": "previousOwner",
          "type": "address"
        },
        {
          "indexed": true,
          "internalType": "address",
          "name": "newOwner",
          "type": "address"
        }
      ],
      "name": "OwnershipTransferred",
      "type": "event"
    },
    {
      "anonymous": false,
      "inputs": [],
      "name": "Pause",
      "type": "event"
    },
    {
      "anonymous": false,
      "inputs": [
        {
          "indexed": true,
          "internalType": "uint256",
          "name": "projectId",
          "type": "uint256"
        }
      ],
      "name": "ProjectCreated",
      "type": "event"
    },
    {
      "anonymous": false,
      "inputs": [
        {
          "indexed": true,
          "internalType": "uint256",
          "name": "rewardsFee",
          "type": "uint256"
        }
      ],
      "name": "RewardsFeeUpdated",
      "type": "event"
    },
    {
      "anonymous": false,
      "inputs": [
        {
          "indexed": true,
          "internalType": "address",
          "name": "rewardsMinter",
          "type": "address"
        }
      ],
      "name": "RewardsMinterUpdated",
      "type": "event"
    },
    {
      "anonymous": false,
      "inputs": [
        {
          "indexed": true,
          "internalType": "uint256",
          "name": "batchId",
          "type": "uint256"
        },
        {
          "indexed": true,
          "internalType": "address",
          "name": "tokensOwner",
          "type": "address"
        },
        {
          "indexed": false,
          "internalType": "uint256",
          "name": "amountIn",
          "type": "uint256"
        },
        {
          "indexed": false,
          "internalType": "uint256",
          "name": "amountOut",
          "type": "uint256"
        }
      ],
      "name": "TokensDecollateralized",
      "type": "event"
    },
    {
      "anonymous": false,
      "inputs": [],
      "name": "Unpause",
      "type": "event"
    },
    {
      "anonymous": false,
      "inputs": [
        {
          "indexed": true,
          "internalType": "address",
          "name": "rewardToken",
          "type": "address"
        },
        {
          "indexed": true,
          "internalType": "uint256",
          "name": "rewardAmount",
          "type": "uint256"
        }
      ],
      "name": "WeeklyRewardMinted",
      "type": "event"
    },
    {
      "inputs": [
        {
          "components": [
            {
              "internalType": "uint256",
              "name": "id",
              "type": "uint256"
            },
            {
              "internalType": "uint256",
              "name": "projectId",
              "type": "uint256"
            },
            {
              "internalType": "uint256",
              "name": "collateralizedCredits",
              "type": "uint256"
            },
            {
              "internalType": "address",
              "name": "supplier",
              "type": "address"
            },
            {
              "internalType": "uint32",
              "name": "certificationDate",
              "type": "uint32"
            },
            {
              "internalType": "uint16",
              "name": "vintage",
              "type": "uint16"
            },
            {
              "internalType": "uint8",
              "name": "status",
              "type": "uint8"
            },
            {
              "internalType": "uint24",
              "name": "batchTA",
              "type": "uint24"
            },
            {
              "internalType": "bool",
              "name": "isAccumulating",
              "type": "bool"
            }
          ],
          "internalType": "struct DomainDataTypes.Batch",
          "name": "batch",
          "type": "tuple"
        },
        {
          "internalType": "uint256",
          "name": "mintableAmount",
          "type": "uint256"
        }
      ],
      "name": "addBatch",
      "outputs": [],
      "stateMutability": "nonpayable",
      "type": "function"
    },
    {
      "inputs": [
        {
          "internalType": "uint256",
          "name": "categoryId",
          "type": "uint256"
        },
        {
          "internalType": "string",
          "name": "tokenName",
          "type": "string"
        },
        {
          "internalType": "string",
          "name": "tokenSymbol",
          "type": "string"
        },
        {
          "internalType": "uint24",
          "name": "initialTA",
          "type": "uint24"
        }
      ],
      "name": "addCategory",
      "outputs": [],
      "stateMutability": "nonpayable",
      "type": "function"
    },
    {
      "inputs": [
        {
          "internalType": "uint256",
          "name": "categoryId",
          "type": "uint256"
        },
        {
          "internalType": "uint256",
          "name": "projectId",
          "type": "uint256"
        }
      ],
      "name": "addProject",
      "outputs": [],
      "stateMutability": "nonpayable",
      "type": "function"
    },
    {
      "inputs": [
        {
          "internalType": "uint256[]",
          "name": "batchIds",
          "type": "uint256[]"
        },
        {
          "internalType": "uint256[]",
          "name": "amountsIn",
          "type": "uint256[]"
        },
        {
          "internalType": "uint256[]",
          "name": "amountsOutMin",
          "type": "uint256[]"
        }
      ],
      "name": "bulkDecollateralizeTokens",
      "outputs": [],
      "stateMutability": "nonpayable",
      "type": "function"
    },
    {
      "inputs": [
        {
          "internalType": "uint256",
          "name": "batchId",
          "type": "uint256"
        },
        {
          "internalType": "uint256",
          "name": "amountIn",
          "type": "uint256"
        },
        {
          "internalType": "uint256",
          "name": "amountOutMin",
          "type": "uint256"
        }
      ],
      "name": "collateralizeBatch",
      "outputs": [],
      "stateMutability": "nonpayable",
      "type": "function"
    },
    {
      "inputs": [],
      "name": "collateralizedBasketTokenDeployer",
      "outputs": [
        {
          "internalType": "contract CollateralizedBasketTokenDeployer",
          "name": "",
          "type": "address"
        }
      ],
      "stateMutability": "view",
      "type": "function"
    },
    {
      "inputs": [
        {
          "internalType": "uint256[]",
          "name": "categoryIds",
          "type": "uint256[]"
        }
      ],
      "name": "computeWeeklyCarbonRewards",
      "outputs": [
        {
          "internalType": "address[]",
          "name": "",
          "type": "address[]"
        },
        {
          "internalType": "uint256[]",
          "name": "",
          "type": "uint256[]"
        },
        {
          "internalType": "uint256[]",
          "name": "",
          "type": "uint256[]"
        }
      ],
      "stateMutability": "view",
      "type": "function"
    },
    {
      "inputs": [
        {
          "internalType": "uint256",
          "name": "batchId",
          "type": "uint256"
        },
        {
          "internalType": "uint256",
          "name": "amountIn",
          "type": "uint256"
        },
        {
          "internalType": "uint256",
          "name": "amountOutMin",
          "type": "uint256"
        }
      ],
      "name": "decollateralizeTokens",
      "outputs": [],
      "stateMutability": "nonpayable",
      "type": "function"
    },
    {
      "inputs": [],
      "name": "forwardContractBatch",
      "outputs": [
        {
          "internalType": "contract ForwardContractBatchToken",
          "name": "",
          "type": "address"
        }
      ],
      "stateMutability": "view",
      "type": "function"
    },
    {
      "inputs": [
        {
          "internalType": "uint256",
          "name": "batchId",
          "type": "uint256"
        }
      ],
      "name": "getBatch",
      "outputs": [
        {
          "components": [
            {
              "internalType": "uint256",
              "name": "id",
              "type": "uint256"
            },
            {
              "internalType": "uint256",
              "name": "projectId",
              "type": "uint256"
            },
            {
              "internalType": "uint256",
              "name": "collateralizedCredits",
              "type": "uint256"
            },
            {
              "internalType": "address",
              "name": "supplier",
              "type": "address"
            },
            {
              "internalType": "uint32",
              "name": "certificationDate",
              "type": "uint32"
            },
            {
              "internalType": "uint16",
              "name": "vintage",
              "type": "uint16"
            },
            {
              "internalType": "uint8",
              "name": "status",
              "type": "uint8"
            },
            {
              "internalType": "uint24",
              "name": "batchTA",
              "type": "uint24"
            },
            {
              "internalType": "bool",
              "name": "isAccumulating",
              "type": "bool"
            }
          ],
          "internalType": "struct DomainDataTypes.Batch",
          "name": "",
          "type": "tuple"
        }
      ],
      "stateMutability": "view",
      "type": "function"
    },
    {
      "inputs": [
        {
          "internalType": "uint256",
          "name": "batchId",
          "type": "uint256"
        }
      ],
      "name": "getBatchCategory",
      "outputs": [
        {
          "internalType": "uint256",
          "name": "",
          "type": "uint256"
        }
      ],
      "stateMutability": "view",
      "type": "function"
    },
    {
      "inputs": [
        {
          "internalType": "uint256",
          "name": "index",
          "type": "uint256"
        }
      ],
      "name": "getBatchId",
      "outputs": [
        {
          "internalType": "uint256",
          "name": "",
          "type": "uint256"
        }
      ],
      "stateMutability": "view",
      "type": "function"
    },
    {
      "inputs": [
        {
          "internalType": "uint256",
          "name": "projectId",
          "type": "uint256"
        }
      ],
      "name": "getBatchIdsByProject",
      "outputs": [
        {
          "internalType": "uint256[]",
          "name": "",
          "type": "uint256[]"
        }
      ],
      "stateMutability": "view",
      "type": "function"
    },
    {
      "inputs": [
        {
          "internalType": "uint256",
          "name": "projectId",
          "type": "uint256"
        },
        {
          "internalType": "uint256",
          "name": "vintage",
          "type": "uint256"
        }
      ],
      "name": "getBatchesDecollateralizationInfo",
      "outputs": [
        {
          "components": [
            {
              "internalType": "uint256",
              "name": "batchId",
              "type": "uint256"
            },
            {
              "internalType": "uint256",
              "name": "availableBatchTokens",
              "type": "uint256"
            },
            {
              "internalType": "uint256",
              "name": "amountOut",
              "type": "uint256"
            },
            {
              "internalType": "uint256",
              "name": "minAmountIn",
              "type": "uint256"
            },
            {
              "internalType": "uint256",
              "name": "minCbtDaoCut",
              "type": "uint256"
            }
          ],
          "internalType": "struct DomainDataTypes.TokenDecollateralizationInfo[]",
          "name": "",
          "type": "tuple[]"
        }
      ],
      "stateMutability": "view",
      "type": "function"
    },
    {
      "inputs": [],
      "name": "getBoostedDecollateralizationFee",
      "outputs": [
        {
          "internalType": "uint16",
          "name": "",
          "type": "uint16"
        }
      ],
      "stateMutability": "view",
      "type": "function"
    },
    {
      "inputs": [
        {
          "internalType": "uint256",
          "name": "categoryId",
          "type": "uint256"
        }
      ],
      "name": "getCategory",
      "outputs": [
        {
          "components": [
            {
              "internalType": "uint256",
              "name": "volumeCoefficient",
              "type": "uint256"
            },
            {
              "internalType": "uint40",
              "name": "decayPerSecond",
              "type": "uint40"
            },
            {
              "internalType": "uint16",
              "name": "maxDepreciation",
              "type": "uint16"
            },
            {
              "internalType": "uint24",
              "name": "averageTA",
              "type": "uint24"
            },
            {
              "internalType": "uint32",
              "name": "lastCollateralizationTimestamp",
              "type": "uint32"
            },
            {
              "internalType": "uint256",
              "name": "totalCollateralized",
              "type": "uint256"
            },
            {
              "internalType": "uint256",
              "name": "lastCollateralizationMomentum",
              "type": "uint256"
            }
          ],
          "internalType": "struct DomainDataTypes.Category",
          "name": "",
          "type": "tuple"
        }
      ],
      "stateMutability": "view",
      "type": "function"
    },
    {
      "inputs": [
        {
          "internalType": "uint256",
          "name": "categoryId",
          "type": "uint256"
        }
      ],
      "name": "getCategoryProjects",
      "outputs": [
        {
          "internalType": "uint256[]",
          "name": "",
          "type": "uint256[]"
        }
      ],
      "stateMutability": "view",
      "type": "function"
    },
    {
      "inputs": [
        {
          "internalType": "uint256",
          "name": "categoryId",
          "type": "uint256"
        }
      ],
      "name": "getCategoryToken",
      "outputs": [
        {
          "internalType": "contract CollateralizedBasketToken",
          "name": "",
          "type": "address"
        }
      ],
      "stateMutability": "view",
      "type": "function"
    },
    {
      "inputs": [],
      "name": "getCollateralizationFee",
      "outputs": [
        {
          "internalType": "uint16",
          "name": "",
          "type": "uint16"
        }
      ],
      "stateMutability": "view",
      "type": "function"
    },
    {
      "inputs": [],
      "name": "getDecollateralizationFee",
      "outputs": [
        {
          "internalType": "uint16",
          "name": "",
          "type": "uint16"
        }
      ],
      "stateMutability": "view",
      "type": "function"
    },
    {
      "inputs": [],
      "name": "getFeeReceiver",
      "outputs": [
        {
          "internalType": "address",
          "name": "",
          "type": "address"
        }
      ],
      "stateMutability": "view",
      "type": "function"
    },
    {
      "inputs": [
        {
          "internalType": "uint256",
          "name": "projectId",
          "type": "uint256"
        }
      ],
      "name": "getProjectCategory",
      "outputs": [
        {
          "internalType": "uint256",
          "name": "",
          "type": "uint256"
        }
      ],
      "stateMutability": "view",
      "type": "function"
    },
    {
      "inputs": [
        {
          "internalType": "uint256",
          "name": "categoryId",
          "type": "uint256"
        }
      ],
      "name": "getProjectIdsByCategory",
      "outputs": [
        {
          "internalType": "uint256[]",
          "name": "",
          "type": "uint256[]"
        }
      ],
      "stateMutability": "view",
      "type": "function"
    },
    {
      "inputs": [],
      "name": "getRewardsFee",
      "outputs": [
        {
          "internalType": "uint16",
          "name": "",
          "type": "uint16"
        }
      ],
      "stateMutability": "view",
      "type": "function"
    },
    {
      "inputs": [],
      "name": "getTimelockController",
      "outputs": [
        {
          "internalType": "address",
          "name": "",
          "type": "address"
        }
      ],
      "stateMutability": "view",
      "type": "function"
    },
    {
      "inputs": [],
      "name": "getWeeklyRewardsMinter",
      "outputs": [
        {
          "internalType": "address",
          "name": "",
          "type": "address"
        }
      ],
      "stateMutability": "view",
      "type": "function"
    },
    {
      "inputs": [
        {
          "internalType": "contract CollateralizedBasketTokenDeployer",
          "name": "collateralizedBasketTokenDeployer",
          "type": "address"
        },
        {
          "internalType": "contract ForwardContractBatchToken",
          "name": "forwardContractBatch",
          "type": "address"
        },
        {
          "internalType": "uint16",
          "name": "collateralizationFee",
          "type": "uint16"
        },
        {
          "internalType": "uint16",
          "name": "decollateralizationFee",
          "type": "uint16"
        },
        {
          "internalType": "uint16",
          "name": "boostedDecollateralizationFee",
          "type": "uint16"
        },
        {
          "internalType": "uint16",
          "name": "rewardsFee",
          "type": "uint16"
        },
        {
          "internalType": "address",
          "name": "feeReceiver",
          "type": "address"
        },
        {
          "internalType": "address",
          "name": "weeklyRewardsMinter",
          "type": "address"
        },
        {
          "internalType": "address",
          "name": "owner",
          "type": "address"
        },
        {
          "internalType": "address",
          "name": "timelockController",
          "type": "address"
        }
      ],
      "name": "initialize",
      "outputs": [],
      "stateMutability": "nonpayable",
      "type": "function"
    },
    {
      "inputs": [
        {
          "internalType": "uint256",
          "name": "batchId",
          "type": "uint256"
        }
      ],
      "name": "isBatchCreated",
      "outputs": [
        {
          "internalType": "bool",
          "name": "",
          "type": "bool"
        }
      ],
      "stateMutability": "view",
      "type": "function"
    },
    {
      "inputs": [
        {
          "internalType": "uint256",
          "name": "categoryId",
          "type": "uint256"
        }
      ],
      "name": "isCategoryCreated",
      "outputs": [
        {
          "internalType": "bool",
          "name": "",
          "type": "bool"
        }
      ],
      "stateMutability": "view",
      "type": "function"
    },
    {
      "inputs": [
        {
          "internalType": "uint256",
          "name": "projectId",
          "type": "uint256"
        }
      ],
      "name": "isProjectCreated",
      "outputs": [
        {
          "internalType": "bool",
          "name": "",
          "type": "bool"
        }
      ],
      "stateMutability": "view",
      "type": "function"
    },
    {
      "inputs": [
        {
          "internalType": "uint256[]",
          "name": "categoryIds",
          "type": "uint256[]"
        },
        {
          "internalType": "address[]",
          "name": "carbonRewards",
          "type": "address[]"
        },
        {
          "internalType": "uint256[]",
          "name": "rewardAmounts",
          "type": "uint256[]"
        },
        {
          "internalType": "uint256[]",
          "name": "rewardFees",
          "type": "uint256[]"
        },
        {
          "internalType": "address",
          "name": "rewardsVault",
          "type": "address"
        }
      ],
      "name": "mintWeeklyCarbonRewards",
      "outputs": [],
      "stateMutability": "nonpayable",
      "type": "function"
    },
    {
      "inputs": [
        {
          "internalType": "address",
          "name": "operator",
          "type": "address"
        },
        {
          "internalType": "address",
          "name": "",
          "type": "address"
        },
        {
          "internalType": "uint256[]",
          "name": "",
          "type": "uint256[]"
        },
        {
          "internalType": "uint256[]",
          "name": "",
          "type": "uint256[]"
        },
        {
          "internalType": "bytes",
          "name": "",
          "type": "bytes"
        }
      ],
      "name": "onERC1155BatchReceived",
      "outputs": [
        {
          "internalType": "bytes4",
          "name": "",
          "type": "bytes4"
        }
      ],
      "stateMutability": "nonpayable",
      "type": "function"
    },
    {
      "inputs": [
        {
          "internalType": "address",
          "name": "operator",
          "type": "address"
        },
        {
          "internalType": "address",
          "name": "",
          "type": "address"
        },
        {
          "internalType": "uint256",
          "name": "",
          "type": "uint256"
        },
        {
          "internalType": "uint256",
          "name": "",
          "type": "uint256"
        },
        {
          "internalType": "bytes",
          "name": "",
          "type": "bytes"
        }
      ],
      "name": "onERC1155Received",
      "outputs": [
        {
          "internalType": "bytes4",
          "name": "",
          "type": "bytes4"
        }
      ],
      "stateMutability": "nonpayable",
      "type": "function"
    },
    {
      "inputs": [],
      "name": "owner",
      "outputs": [
        {
          "internalType": "address",
          "name": "",
          "type": "address"
        }
      ],
      "stateMutability": "view",
      "type": "function"
    },
    {
      "inputs": [],
      "name": "pause",
      "outputs": [],
      "stateMutability": "nonpayable",
      "type": "function"
    },
    {
      "inputs": [],
      "name": "paused",
      "outputs": [
        {
          "internalType": "bool",
          "name": "",
          "type": "bool"
        }
      ],
      "stateMutability": "view",
      "type": "function"
    },
    {
      "inputs": [],
      "name": "renounceOwnership",
      "outputs": [],
      "stateMutability": "nonpayable",
      "type": "function"
    },
    {
      "inputs": [
        {
          "internalType": "uint256",
          "name": "batchId",
          "type": "uint256"
        },
        {
          "internalType": "bool",
          "name": "isAccumulating",
          "type": "bool"
        }
      ],
      "name": "setBatchAccumulating",
      "outputs": [],
      "stateMutability": "nonpayable",
      "type": "function"
    },
    {
      "inputs": [
        {
          "internalType": "uint256",
          "name": "batchId",
          "type": "uint256"
        },
        {
          "internalType": "uint32",
          "name": "certificationDate",
          "type": "uint32"
        }
      ],
      "name": "setBatchCertificationDate",
      "outputs": [],
      "stateMutability": "nonpayable",
      "type": "function"
    },
    {
      "inputs": [
        {
          "internalType": "uint256",
          "name": "batchId",
          "type": "uint256"
        },
        {
          "internalType": "bool",
          "name": "isKYCRequired",
          "type": "bool"
        }
      ],
      "name": "setBatchKYCRequired",
      "outputs": [],
      "stateMutability": "nonpayable",
      "type": "function"
    },
    {
      "inputs": [
        {
          "internalType": "uint16",
          "name": "boostedDecollateralizationFee",
          "type": "uint16"
        }
      ],
      "name": "setBoostedDecollateralizationFee",
      "outputs": [],
      "stateMutability": "nonpayable",
      "type": "function"
    },
    {
      "inputs": [
        {
          "internalType": "uint256",
          "name": "categoryId",
          "type": "uint256"
        },
        {
          "internalType": "bool",
          "name": "isKYCRequired",
          "type": "bool"
        }
      ],
      "name": "setCategoryKYCRequired",
      "outputs": [],
      "stateMutability": "nonpayable",
      "type": "function"
    },
    {
      "inputs": [
        {
          "internalType": "uint256",
          "name": "categoryId",
          "type": "uint256"
        },
        {
          "internalType": "address",
          "name": "verificationRegistry",
          "type": "address"
        }
      ],
      "name": "setCategoryVerificationRegistry",
      "outputs": [],
      "stateMutability": "nonpayable",
      "type": "function"
    },
    {
      "inputs": [
        {
          "internalType": "uint16",
          "name": "collateralizationFee",
          "type": "uint16"
        }
      ],
      "name": "setCollateralizationFee",
      "outputs": [],
      "stateMutability": "nonpayable",
      "type": "function"
    },
    {
      "inputs": [
        {
          "internalType": "address",
          "name": "verificationRegistry",
          "type": "address"
        }
      ],
      "name": "setCollateralizedBasketTokenDeployerVerificationRegistry",
      "outputs": [],
      "stateMutability": "nonpayable",
      "type": "function"
    },
    {
      "inputs": [
        {
          "internalType": "uint16",
          "name": "decollateralizationFee",
          "type": "uint16"
        }
      ],
      "name": "setDecollateralizationFee",
      "outputs": [],
      "stateMutability": "nonpayable",
      "type": "function"
    },
    {
      "inputs": [
        {
          "internalType": "address",
          "name": "feeReceiver",
          "type": "address"
        }
      ],
      "name": "setFeeReceiver",
      "outputs": [],
      "stateMutability": "nonpayable",
      "type": "function"
    },
    {
      "inputs": [
        {
          "internalType": "address",
          "name": "verificationRegistry",
          "type": "address"
        }
      ],
      "name": "setForwardsVerificationRegistry",
      "outputs": [],
      "stateMutability": "nonpayable",
      "type": "function"
    },
    {
      "inputs": [
        {
          "internalType": "uint16",
          "name": "rewardsFee",
          "type": "uint16"
        }
      ],
      "name": "setRewardsFee",
      "outputs": [],
      "stateMutability": "nonpayable",
      "type": "function"
    },
    {
      "inputs": [
        {
          "internalType": "address",
          "name": "weeklyRewardsMinter",
          "type": "address"
        }
      ],
      "name": "setWeeklyRewardsMinter",
      "outputs": [],
      "stateMutability": "nonpayable",
      "type": "function"
    },
    {
      "inputs": [
        {
          "internalType": "uint256",
          "name": "batchId",
          "type": "uint256"
        },
        {
          "internalType": "uint256",
          "name": "amountIn",
          "type": "uint256"
        }
      ],
      "name": "simulateBatchCollateralization",
      "outputs": [
        {
          "internalType": "uint256",
          "name": "",
          "type": "uint256"
        },
        {
          "internalType": "uint256",
          "name": "",
          "type": "uint256"
        },
        {
          "internalType": "uint256",
          "name": "",
          "type": "uint256"
        }
      ],
      "stateMutability": "view",
      "type": "function"
    },
    {
      "inputs": [
        {
          "internalType": "uint256",
          "name": "batchId",
          "type": "uint256"
        },
        {
          "internalType": "uint256",
          "name": "amountIn",
          "type": "uint256"
        }
      ],
      "name": "simulateDecollateralization",
      "outputs": [
        {
          "internalType": "uint256",
          "name": "",
          "type": "uint256"
        },
        {
          "internalType": "uint256",
          "name": "",
          "type": "uint256"
        },
        {
          "internalType": "uint256",
          "name": "",
          "type": "uint256"
        }
      ],
      "stateMutability": "view",
      "type": "function"
    },
    {
      "inputs": [
        {
          "internalType": "uint256",
          "name": "batchId",
          "type": "uint256"
        },
        {
          "internalType": "uint256",
          "name": "forwardCreditsAmount",
          "type": "uint256"
        }
      ],
      "name": "simulateReverseDecollateralization",
      "outputs": [
        {
          "internalType": "uint256",
          "name": "minCbt",
          "type": "uint256"
        },
        {
          "internalType": "uint256",
          "name": "minCbtDaoCut",
          "type": "uint256"
        }
      ],
      "stateMutability": "view",
      "type": "function"
    },
    {
      "inputs": [
        {
          "internalType": "bytes4",
          "name": "interfaceId",
          "type": "bytes4"
        }
      ],
      "name": "supportsInterface",
      "outputs": [
        {
          "internalType": "bool",
          "name": "",
          "type": "bool"
        }
      ],
      "stateMutability": "pure",
      "type": "function"
    },
    {
      "inputs": [
        {
          "internalType": "address",
          "name": "newOwner",
          "type": "address"
        }
      ],
      "name": "transferOwnership",
      "outputs": [],
      "stateMutability": "nonpayable",
      "type": "function"
    },
    {
      "inputs": [],
      "name": "unpause",
      "outputs": [],
      "stateMutability": "nonpayable",
      "type": "function"
    },
    {
      "inputs": [
        {
          "internalType": "uint256",
          "name": "categoryId",
          "type": "uint256"
        },
        {
          "internalType": "uint256",
          "name": "volumeCoefficient",
          "type": "uint256"
        },
        {
          "internalType": "uint40",
          "name": "decayPerSecond",
          "type": "uint40"
        },
        {
          "internalType": "uint16",
          "name": "maxDepreciation",
          "type": "uint16"
        }
      ],
      "name": "updateCategory",
      "outputs": [],
      "stateMutability": "nonpayable",
      "type": "function"
    }
  ],
  "transactionHash": "0x6c38938b15800341353a8e0afd04028671760fb1adb7a154f0770202b02f054d",
  "args": [],
  "numDeployments": 1,
  "solcInputHash": "ed55a1b097ef81c557c24158997c3e51",
  "bytecode": "0x608060405234801561001057600080fd5b50613a69806100206000396000f3fe608060405234801561001057600080fd5b50600436106103835760003560e01c8063940870dc116101de578063c7878a571161010f578063f23a6e61116100ad578063f7c3fec21161007c578063f7c3fec214610bae578063f9be94f214610bc1578063fb5ba8eb14610bd4578063fe827f4a14610bf257600080fd5b8063f23a6e6114610a36578063f2fde38b14610a49578063f3052d2614610a5c578063f4a5cb8e14610b9b57600080fd5b8063e6bebba5116100e9578063e6bebba5146109cf578063e8a35392146109f2578063ef016cdd14610a10578063efdcd97414610a2357600080fd5b8063c7878a5714610987578063c7cad905146109a9578063da12b2351461094e57600080fd5b8063b505ab861161017c578063bc197c8111610156578063bc197c811461090a578063bf2de21a1461094e578063c007acf614610961578063c092c5c31461097457600080fd5b8063b505ab86146108ba578063b99d5190146108cd578063bae5934a146108f757600080fd5b8063a0595582116101b8578063a059558214610841578063a05f59d814610854578063a3d334a11461087c578063a88fd94a1461089a57600080fd5b8063940870dc146107e557806394c4fa85146107f8578063977bfe781461082e57600080fd5b80635ba18df8116102b857806378227cb0116102565780638866894e116102305780638866894e146107815780638da5cb5b14610794578063915e9913146107b257806393fa0581146107d257600080fd5b806378227cb0146107465780637902298e146107595780638456cb591461077957600080fd5b80636b22e8e1116102925780636b22e8e1146106be578063714b847c146106fd578063715018a6146107205780637760bbef1461072857600080fd5b80635ba18df81461068b5780635c4e7a051461069e5780635c975abb146106b157600080fd5b80633f4ba83a11610325578063558ff383116102ff578063558ff3831461049d57806357b41a71146104b057806358cfb39e146104de5780635ac442821461050657600080fd5b80633f4ba83a1461044f57806342f1652714610457578063452b79571461046a57600080fd5b80631e5a9250116103615780631e5a9250146103d85780631fb0a624146103eb5780632204561e146104195780632c5dd8a91461043c57600080fd5b806301ffc9a714610388578063060da144146103b05780630eae128e146103c5575b600080fd5b61039b6103963660046129ff565b610c05565b60405190151581526020015b60405180910390f35b6103c36103be366004612a56565b610c9e565b005b6103c36103d3366004612a56565b610d86565b6103c36103e6366004612aa4565b610dee565b6103fe6103f9366004612ac1565b610e92565b604080519384526020840192909252908201526060016103a7565b61039b610427366004612ae3565b60009081526099602052604090205460ff1690565b6103c361044a366004612b0e565b610f42565b6103c3610ff0565b6103c3610465366004612a56565b611002565b60a75474010000000000000000000000000000000000000000900461ffff165b60405161ffff90911681526020016103a7565b6103c36104ab366004612b29565b6110b5565b6104d06104be366004612ae3565b6000908152609f602052604090205490565b6040519081526020016103a7565b6104f16104ec366004612ac1565b611158565b604080519283526020830191909152016103a7565b61067e610514366004612ae3565b6040805161012081018252600080825260208201819052918101829052606081018290526080810182905260a0810182905260c0810182905260e08101829052610100810191909152506000908152609c60209081526040918290208251610120810184528154815260018201549281019290925260028101549282019290925260039091015473ffffffffffffffffffffffffffffffffffffffff8116606083015263ffffffff74010000000000000000000000000000000000000000820416608083015261ffff780100000000000000000000000000000000000000000000000082041660a083015260ff7a0100000000000000000000000000000000000000000000000000008204811660c084015262ffffff7b0100000000000000000000000000000000000000000000000000000083041660e08401527e0100000000000000000000000000000000000000000000000000000000000090910416151561010082015290565b6040516103a79190612b5b565b6103c3610699366004612c44565b611203565b6103c36106ac366004612aa4565b6112de565b60975461039b9060ff1681565b60a55473ffffffffffffffffffffffffffffffffffffffff165b60405173ffffffffffffffffffffffffffffffffffffffff90911681526020016103a7565b61039b61070b366004612ae3565b60009081526098602052604090205460ff1690565b6103c3611353565b60a75473ffffffffffffffffffffffffffffffffffffffff166106d8565b6104d0610754366004612ae3565b611365565b61076c610767366004612ac1565b61138f565b6040516103a79190612d1b565b6103c3611456565b6103c361078f366004612b0e565b611466565b60335473ffffffffffffffffffffffffffffffffffffffff166106d8565b6107c56107c0366004612ae3565b611514565b6040516103a79190612dc4565b6103fe6107e0366004612ac1565b611576565b6103c36107f3366004612dd7565b6115dc565b6106d8610806366004612ae3565b6000908152609d602052604090205473ffffffffffffffffffffffffffffffffffffffff1690565b6103c361083c366004612e71565b6116b8565b6103c361084f366004612b0e565b611bb3565b60a7547801000000000000000000000000000000000000000000000000900461ffff1661048a565b60a45473ffffffffffffffffffffffffffffffffffffffff166106d8565b6104d06108a8366004612ae3565b600090815260a0602052604090205490565b6103c36108c8366004612f39565b611c61565b60a7547a010000000000000000000000000000000000000000000000000000900461ffff1661048a565b6103c3610905366004612f65565b611d47565b61091d610918366004613159565b611dc3565b6040517fffffffff0000000000000000000000000000000000000000000000000000000090911681526020016103a7565b6107c561095c366004612ae3565b611e16565b6103c361096f366004612f39565b611e76565b6103c3610982366004613207565b611f21565b61099a610995366004613259565b61201b565b6040516103a79392919061329b565b60a754760100000000000000000000000000000000000000000000900461ffff1661048a565b61039b6109dd366004612ae3565b6000908152609a602052604090205460ff1690565b60a65473ffffffffffffffffffffffffffffffffffffffff166106d8565b6103c3610a1e366004612ac1565b6120da565b6103c3610a31366004612aa4565b612141565b61091d610a4436600461331d565b612155565b6103c3610a57366004612aa4565b6121a7565b610b2f610a6a366004612ae3565b6040805160e081018252600080825260208201819052918101829052606081018290526080810182905260a0810182905260c0810191909152506000908152609b6020908152604091829020825160e08101845281548152600182015464ffffffffff81169382019390935265010000000000830461ffff1693810193909352670100000000000000820462ffffff1660608401526a010000000000000000000090910463ffffffff166080830152600281015460a08301526003015460c082015290565b6040516103a79190600060e0820190508251825264ffffffffff602084015116602083015261ffff604084015116604083015262ffffff606084015116606083015263ffffffff608084015116608083015260a083015160a083015260c083015160c083015292915050565b6103c3610ba936600461339a565b61225b565b6103c3610bbc366004612b0e565b6122c7565b6103c3610bcf366004613412565b612375565b60a35473ffffffffffffffffffffffffffffffffffffffff166106d8565b6103c3610c00366004612aa4565b612412565b60007f01ffc9a7000000000000000000000000000000000000000000000000000000007fffffffff0000000000000000000000000000000000000000000000000000000083161480610c9857507f4e2312e0000000000000000000000000000000000000000000000000000000007fffffffff000000000000000000000000000000000000000000000000000000008316145b92915050565b60a75473ffffffffffffffffffffffffffffffffffffffff163314610cf6576040517ff8fbf6e10000000000000000000000000000000000000000000000000000000081523360048201526024015b60405180910390fd5b6040517fc7694ed400000000000000000000000000000000000000000000000000000000815260986004820152602481018390528115156044820152736803727942864f51A51d47f5f140218BfD65C7239063c7694ed4906064015b60006040518083038186803b158015610d6a57600080fd5b505af4158015610d7e573d6000803e3d6000fd5b505050505050565b610d8e612487565b6040517ffbefa24f0000000000000000000000000000000000000000000000000000000081526098600482015260248101839052811515604482015273e8A6c06B25e264aD2298F1cD743894e1C76EfB4E9063fbefa24f90606401610d52565b610df6612487565b6040517f0905e5c00000000000000000000000000000000000000000000000000000000081526098600482015273ffffffffffffffffffffffffffffffffffffffff82166024820152736803727942864f51A51d47f5f140218BfD65C72390630905e5c0906044015b60006040518083038186803b158015610e7757600080fd5b505af4158015610e8b573d6000803e3d6000fd5b5050505050565b6040517f3c8f4d3f0000000000000000000000000000000000000000000000000000000081526098600482015260248101839052604481018290526000908190819073A254Ad9faA510BB56614eA02F3F97EC1F729444490633c8f4d3f906064015b606060405180830381865af4158015610f11573d6000803e3d6000fd5b505050506040513d601f19601f82011682018060405250810190610f35919061349b565b9250925092509250925092565b60a75473ffffffffffffffffffffffffffffffffffffffff163314610f95576040517ff8fbf6e1000000000000000000000000000000000000000000000000000000008152336004820152602401610ced565b6040517f11bd86960000000000000000000000000000000000000000000000000000000081526098600482015261ffff8216602482015273A254Ad9faA510BB56614eA02F3F97EC1F7294444906311bd869690604401610e5f565b610ff8612487565b611000612508565b565b60a75473ffffffffffffffffffffffffffffffffffffffff163314611055576040517ff8fbf6e1000000000000000000000000000000000000000000000000000000008152336004820152602401610ced565b6040517f9e1b007b00000000000000000000000000000000000000000000000000000000815260986004820152602481018390528115156044820152736803727942864f51A51d47f5f140218BfD65C72390639e1b007b90606401610d52565b6110bd612597565b6110c5612487565b6040517f4044acb000000000000000000000000000000000000000000000000000000000815273e8A6c06B25e264aD2298F1cD743894e1C76EfB4E90634044acb09061111a90609890869086906004016134da565b60006040518083038186803b15801561113257600080fd5b505af4158015611146573d6000803e3d6000fd5b505050506111546001606555565b5050565b6040517fd152151e00000000000000000000000000000000000000000000000000000000815260986004820152602481018390526044810182905260009081907341E61b6AA46d5d8D39896A4E3096c9056DFD8E029063d152151e906064016040805180830381865af41580156111d3573d6000803e3d6000fd5b505050506040513d601f19601f820116820180604052508101906111f791906135be565b915091505b9250929050565b60975460ff1615611240576040517f9e87fac800000000000000000000000000000000000000000000000000000000815260040160405180910390fd5b6040517f87475f2000000000000000000000000000000000000000000000000000000000815273FB6B6d4E920B602bf7A83A47f09ae02C8A33430e906387475f20906112a3906098908d908d908d908d908d908d908d908d908d9060040161362d565b60006040518083038186803b1580156112bb57600080fd5b505af41580156112cf573d6000803e3d6000fd5b50505050505050505050505050565b6112e6612487565b6040517f3273b4910000000000000000000000000000000000000000000000000000000081526098600482015273ffffffffffffffffffffffffffffffffffffffff8216602482015273FB6B6d4E920B602bf7A83A47f09ae02C8A33430e90633273b49190604401610e5f565b61135b612487565b6110006000612611565b60006098600a01828154811061137d5761137d6136ee565b90600052602060002001549050919050565b6040517fad728ad50000000000000000000000000000000000000000000000000000000081526098600482015260248101839052604481018290526060907341E61b6AA46d5d8D39896A4E3096c9056DFD8E029063ad728ad590606401600060405180830381865af4158015611409573d6000803e3d6000fd5b505050506040513d6000823e601f3d9081017fffffffffffffffffffffffffffffffffffffffffffffffffffffffffffffffe016820160405261144f919081019061371d565b9392505050565b61145e612487565b611000612688565b60a75473ffffffffffffffffffffffffffffffffffffffff1633146114b9576040517ff8fbf6e1000000000000000000000000000000000000000000000000000000008152336004820152602401610ced565b6040517f7121562b0000000000000000000000000000000000000000000000000000000081526098600482015261ffff821660248201527341E61b6AA46d5d8D39896A4E3096c9056DFD8E0290637121562b90604401610e5f565b600081815260a1602090815260409182902080548351818402810184019094528084526060939283018282801561156a57602002820191906000526020600020905b815481526020019060010190808311611556575b50505050509050919050565b6040517febf2cd6b000000000000000000000000000000000000000000000000000000008152609860048201526024810183905260448101829052600090819081907341E61b6AA46d5d8D39896A4E3096c9056DFD8E029063ebf2cd6b90606401610ef4565b6115e4612597565b60975460ff1615611621576040517f9e87fac800000000000000000000000000000000000000000000000000000000815260040160405180910390fd5b6040517f7e47ee650000000000000000000000000000000000000000000000000000000081527341E61b6AA46d5d8D39896A4E3096c9056DFD8E0290637e47ee659061167e906098908a908a908a908a908a908a906004016137ef565b60006040518083038186803b15801561169657600080fd5b505af41580156116aa573d6000803e3d6000fd5b50505050610d7e6001606555565b600054610100900460ff16158080156116d85750600054600160ff909116105b806116f25750303b1580156116f2575060005460ff166001145b61177e576040517f08c379a000000000000000000000000000000000000000000000000000000000815260206004820152602e60248201527f496e697469616c697a61626c653a20636f6e747261637420697320616c72656160448201527f647920696e697469616c697a65640000000000000000000000000000000000006064820152608401610ced565b600080547fffffffffffffffffffffffffffffffffffffffffffffffffffffffffffffff0016600117905580156117dc57600080547fffffffffffffffffffffffffffffffffffffffffffffffffffffffffffff00ff166101001790555b6117e461271b565b6117ec6127ba565b6117f5836121a7565b60a4805473ffffffffffffffffffffffffffffffffffffffff8d81167fffffffffffffffffffffffff00000000000000000000000000000000000000009283161790925560a38054928d16929091169190911790556040517f11bd86960000000000000000000000000000000000000000000000000000000081526098600482015261ffff8a16602482015273A254Ad9faA510BB56614eA02F3F97EC1F7294444906311bd86969060440160006040518083038186803b1580156118b857600080fd5b505af41580156118cc573d6000803e3d6000fd5b50506040517fa6400cc60000000000000000000000000000000000000000000000000000000081526098600482015261ffff8b1660248201527341E61b6AA46d5d8D39896A4E3096c9056DFD8E02925063a6400cc6915060440160006040518083038186803b15801561193e57600080fd5b505af4158015611952573d6000803e3d6000fd5b50506040517f7121562b0000000000000000000000000000000000000000000000000000000081526098600482015261ffff8a1660248201527341E61b6AA46d5d8D39896A4E3096c9056DFD8E029250637121562b915060440160006040518083038186803b1580156119c457600080fd5b505af41580156119d8573d6000803e3d6000fd5b50506040517f5dae67cc0000000000000000000000000000000000000000000000000000000081526098600482015261ffff8916602482015273FB6B6d4E920B602bf7A83A47f09ae02C8A33430e9250635dae67cc915060440160006040518083038186803b158015611a4a57600080fd5b505af4158015611a5e573d6000803e3d6000fd5b50505050611a6b85612859565b60a780547fffffffffffffffffffffffff00000000000000000000000000000000000000001673ffffffffffffffffffffffffffffffffffffffff84161790556040517f3273b4910000000000000000000000000000000000000000000000000000000081526098600482015273ffffffffffffffffffffffffffffffffffffffff8516602482015273FB6B6d4E920B602bf7A83A47f09ae02C8A33430e90633273b4919060440160006040518083038186803b158015611b2b57600080fd5b505af4158015611b3f573d6000803e3d6000fd5b505050508015611ba657600080547fffffffffffffffffffffffffffffffffffffffffffffffffffffffffffff00ff169055604051600181527f7f26b83ff96e1f2b6a682f133852f6798a09c465da95921460cefb38474024989060200160405180910390a15b5050505050505050505050565b60a75473ffffffffffffffffffffffffffffffffffffffff163314611c06576040517ff8fbf6e1000000000000000000000000000000000000000000000000000000008152336004820152602401610ced565b6040517f5dae67cc0000000000000000000000000000000000000000000000000000000081526098600482015261ffff8216602482015273FB6B6d4E920B602bf7A83A47f09ae02C8A33430e90635dae67cc90604401610e5f565b611c69612597565b60975460ff1615611ca6576040517f9e87fac800000000000000000000000000000000000000000000000000000000815260040160405180910390fd5b6040517f79be5d600000000000000000000000000000000000000000000000000000000081526098600482015260248101849052604481018390526064810182905273A254Ad9faA510BB56614eA02F3F97EC1F7294444906379be5d60906084015b60006040518083038186803b158015611d2057600080fd5b505af4158015611d34573d6000803e3d6000fd5b50505050611d426001606555565b505050565b611d4f612487565b6040517f4d62db72000000000000000000000000000000000000000000000000000000008152609860048201526024810183905273ffffffffffffffffffffffffffffffffffffffff82166044820152736803727942864f51A51d47f5f140218BfD65C72390634d62db7290606401610d52565b600073ffffffffffffffffffffffffffffffffffffffff86163014611dea57506000611e0d565b507fbc197c81000000000000000000000000000000000000000000000000000000005b95945050505050565b6000818152609e602090815260409182902080548351818402810184019094528084526060939283018282801561156a57602002820191906000526020600020908154815260200190600101908083116115565750505050509050919050565b611e7e612597565b60975460ff1615611ebb576040517f9e87fac800000000000000000000000000000000000000000000000000000000815260040160405180910390fd5b6040517f46edd1ef000000000000000000000000000000000000000000000000000000008152609860048201526024810184905260448101839052606481018290527341E61b6AA46d5d8D39896A4E3096c9056DFD8E02906346edd1ef90608401611d08565b60a75473ffffffffffffffffffffffffffffffffffffffff163314611f74576040517ff8fbf6e1000000000000000000000000000000000000000000000000000000008152336004820152602401610ced565b6040517f7c924c6f00000000000000000000000000000000000000000000000000000000815260986004820152602481018590526044810184905264ffffffffff8316606482015261ffff8216608482015273e8A6c06B25e264aD2298F1cD743894e1C76EfB4E90637c924c6f9060a40160006040518083038186803b158015611ffd57600080fd5b505af4158015612011573d6000803e3d6000fd5b5050505050505050565b6040517f1b768ae00000000000000000000000000000000000000000000000000000000081526060908190819073FB6B6d4E920B602bf7A83A47f09ae02C8A33430e90631b768ae090612077906098908990899060040161383f565b600060405180830381865af4158015612094573d6000803e3d6000fd5b505050506040513d6000823e601f3d9081017fffffffffffffffffffffffffffffffffffffffffffffffffffffffffffffffe0168201604052610f3591908101906138b4565b6120e2612487565b6040517f2a463d1100000000000000000000000000000000000000000000000000000000815260986004820152602481018390526044810182905273e8A6c06B25e264aD2298F1cD743894e1C76EfB4E90632a463d1190606401610d52565b612149612487565b61215281612859565b50565b600073ffffffffffffffffffffffffffffffffffffffff8616301461217c57506000611e0d565b507ff23a6e610000000000000000000000000000000000000000000000000000000095945050505050565b6121af612487565b73ffffffffffffffffffffffffffffffffffffffff8116612252576040517f08c379a000000000000000000000000000000000000000000000000000000000815260206004820152602660248201527f4f776e61626c653a206e6577206f776e657220697320746865207a65726f206160448201527f64647265737300000000000000000000000000000000000000000000000000006064820152608401610ced565b61215281612611565b612263612487565b6040517f28c6ad9c000000000000000000000000000000000000000000000000000000008152609860048201526024810183905263ffffffff8216604482015273e8A6c06B25e264aD2298F1cD743894e1C76EfB4E906328c6ad9c90606401610d52565b60a75473ffffffffffffffffffffffffffffffffffffffff16331461231a576040517ff8fbf6e1000000000000000000000000000000000000000000000000000000008152336004820152602401610ced565b6040517fa6400cc60000000000000000000000000000000000000000000000000000000081526098600482015261ffff821660248201527341E61b6AA46d5d8D39896A4E3096c9056DFD8E029063a6400cc690604401610e5f565b61237d612487565b6040517fb160ad5b00000000000000000000000000000000000000000000000000000000815273e8A6c06B25e264aD2298F1cD743894e1C76EfB4E9063b160ad5b906123da906098908a908a908a908a908a908a906004016139e6565b60006040518083038186803b1580156123f257600080fd5b505af4158015612406573d6000803e3d6000fd5b50505050505050505050565b61241a612487565b6040517f25f2a0290000000000000000000000000000000000000000000000000000000081526098600482015273ffffffffffffffffffffffffffffffffffffffff82166024820152736803727942864f51A51d47f5f140218BfD65C723906325f2a02990604401610e5f565b60335473ffffffffffffffffffffffffffffffffffffffff163314611000576040517f08c379a000000000000000000000000000000000000000000000000000000000815260206004820181905260248201527f4f776e61626c653a2063616c6c6572206973206e6f7420746865206f776e65726044820152606401610ced565b60975460ff16612544576040517f6cd6020100000000000000000000000000000000000000000000000000000000815260040160405180910390fd5b609780547fffffffffffffffffffffffffffffffffffffffffffffffffffffffffffffff001690556040517f7805862f689e2f13df9f062ff482ad3ad112aca9e0847911ed832e158c525b3390600090a1565b600260655403612603576040517f08c379a000000000000000000000000000000000000000000000000000000000815260206004820152601f60248201527f5265656e7472616e637947756172643a207265656e7472616e742063616c6c006044820152606401610ced565b6002606555565b6001606555565b6033805473ffffffffffffffffffffffffffffffffffffffff8381167fffffffffffffffffffffffff0000000000000000000000000000000000000000831681179093556040519116919082907f8be0079c531659141344cd1fd0a4f28419497f9722a3daafe3b4186f6b6457e090600090a35050565b60975460ff16156126c5576040517f9e87fac800000000000000000000000000000000000000000000000000000000815260040160405180910390fd5b609780547fffffffffffffffffffffffffffffffffffffffffffffffffffffffffffffff001660011790556040517f6985a02210a168e66602d3235cb6db0e70f92b3ba4d376a33c0f3d9434bff62590600090a1565b600054610100900460ff166127b2576040517f08c379a000000000000000000000000000000000000000000000000000000000815260206004820152602b60248201527f496e697469616c697a61626c653a20636f6e7472616374206973206e6f74206960448201527f6e697469616c697a696e670000000000000000000000000000000000000000006064820152608401610ced565b6110006128c8565b600054610100900460ff16612851576040517f08c379a000000000000000000000000000000000000000000000000000000000815260206004820152602b60248201527f496e697469616c697a61626c653a20636f6e7472616374206973206e6f74206960448201527f6e697469616c697a696e670000000000000000000000000000000000000000006064820152608401610ced565b611000612968565b60a680547fffffffffffffffffffffffff00000000000000000000000000000000000000001673ffffffffffffffffffffffffffffffffffffffff83169081179091556040517f27aae5db36d94179909d019ae0b1ac7c16d96d953148f63c0f6a0a9c8ead79ee90600090a250565b600054610100900460ff1661295f576040517f08c379a000000000000000000000000000000000000000000000000000000000815260206004820152602b60248201527f496e697469616c697a61626c653a20636f6e7472616374206973206e6f74206960448201527f6e697469616c697a696e670000000000000000000000000000000000000000006064820152608401610ced565b61100033612611565b600054610100900460ff1661260a576040517f08c379a000000000000000000000000000000000000000000000000000000000815260206004820152602b60248201527f496e697469616c697a61626c653a20636f6e7472616374206973206e6f74206960448201527f6e697469616c697a696e670000000000000000000000000000000000000000006064820152608401610ced565b600060208284031215612a1157600080fd5b81357fffffffff000000000000000000000000000000000000000000000000000000008116811461144f57600080fd5b80358015158114612a5157600080fd5b919050565b60008060408385031215612a6957600080fd5b82359150612a7960208401612a41565b90509250929050565b73ffffffffffffffffffffffffffffffffffffffff8116811461215257600080fd5b600060208284031215612ab657600080fd5b813561144f81612a82565b60008060408385031215612ad457600080fd5b50508035926020909101359150565b600060208284031215612af557600080fd5b5035919050565b803561ffff81168114612a5157600080fd5b600060208284031215612b2057600080fd5b61144f82612afc565b600080828403610140811215612b3e57600080fd5b61012080821215612b4e57600080fd5b9395938601359450505050565b60006101208201905082518252602083015160208301526040830151604083015273ffffffffffffffffffffffffffffffffffffffff606084015116606083015263ffffffff608084015116608083015260a0830151612bc160a084018261ffff169052565b5060c0830151612bd660c084018260ff169052565b5060e0830151612bed60e084018262ffffff169052565b50610100928301511515919092015290565b60008083601f840112612c1157600080fd5b50813567ffffffffffffffff811115612c2957600080fd5b6020830191508360208260051b85010111156111fc57600080fd5b600080600080600080600080600060a08a8c031215612c6257600080fd5b893567ffffffffffffffff80821115612c7a57600080fd5b612c868d838e01612bff565b909b50995060208c0135915080821115612c9f57600080fd5b612cab8d838e01612bff565b909950975060408c0135915080821115612cc457600080fd5b612cd08d838e01612bff565b909750955060608c0135915080821115612ce957600080fd5b50612cf68c828d01612bff565b90945092505060808a0135612d0a81612a82565b809150509295985092959850929598565b602080825282518282018190526000919060409081850190868401855b82811015612d7c5781518051855286810151878601528581015186860152606080820151908601526080908101519085015260a09093019290850190600101612d38565b5091979650505050505050565b600081518084526020808501945080840160005b83811015612db957815187529582019590820190600101612d9d565b509495945050505050565b60208152600061144f6020830184612d89565b60008060008060008060608789031215612df057600080fd5b863567ffffffffffffffff80821115612e0857600080fd5b612e148a838b01612bff565b90985096506020890135915080821115612e2d57600080fd5b612e398a838b01612bff565b90965094506040890135915080821115612e5257600080fd5b50612e5f89828a01612bff565b979a9699509497509295939492505050565b6000806000806000806000806000806101408b8d031215612e9157600080fd5b8a35612e9c81612a82565b995060208b0135612eac81612a82565b9850612eba60408c01612afc565b9750612ec860608c01612afc565b9650612ed660808c01612afc565b9550612ee460a08c01612afc565b945060c08b0135612ef481612a82565b935060e08b0135612f0481612a82565b92506101008b0135612f1581612a82565b91506101208b0135612f2681612a82565b809150509295989b9194979a5092959850565b600080600060608486031215612f4e57600080fd5b505081359360208301359350604090920135919050565b60008060408385031215612f7857600080fd5b823591506020830135612f8a81612a82565b809150509250929050565b7f4e487b7100000000000000000000000000000000000000000000000000000000600052604160045260246000fd5b60405160a0810167ffffffffffffffff81118282101715612fe757612fe7612f95565b60405290565b604051601f82017fffffffffffffffffffffffffffffffffffffffffffffffffffffffffffffffe016810167ffffffffffffffff8111828210171561303457613034612f95565b604052919050565b600067ffffffffffffffff82111561305657613056612f95565b5060051b60200190565b600082601f83011261307157600080fd5b813560206130866130818361303c565b612fed565b82815260059290921b840181019181810190868411156130a557600080fd5b8286015b848110156130c057803583529183019183016130a9565b509695505050505050565b600082601f8301126130dc57600080fd5b813567ffffffffffffffff8111156130f6576130f6612f95565b61312760207fffffffffffffffffffffffffffffffffffffffffffffffffffffffffffffffe0601f84011601612fed565b81815284602083860101111561313c57600080fd5b816020850160208301376000918101602001919091529392505050565b600080600080600060a0868803121561317157600080fd5b853561317c81612a82565b9450602086013561318c81612a82565b9350604086013567ffffffffffffffff808211156131a957600080fd5b6131b589838a01613060565b945060608801359150808211156131cb57600080fd5b6131d789838a01613060565b935060808801359150808211156131ed57600080fd5b506131fa888289016130cb565b9150509295509295909350565b6000806000806080858703121561321d57600080fd5b8435935060208501359250604085013564ffffffffff8116811461324057600080fd5b915061324e60608601612afc565b905092959194509250565b6000806020838503121561326c57600080fd5b823567ffffffffffffffff81111561328357600080fd5b61328f85828601612bff565b90969095509350505050565b606080825284519082018190526000906020906080840190828801845b828110156132ea57815173ffffffffffffffffffffffffffffffffffffffff16845292840192908401906001016132b8565b505050838103828501526132fe8187612d89565b91505082810360408401526133138185612d89565b9695505050505050565b600080600080600060a0868803121561333557600080fd5b853561334081612a82565b9450602086013561335081612a82565b93506040860135925060608601359150608086013567ffffffffffffffff81111561337a57600080fd5b6131fa888289016130cb565b803563ffffffff81168114612a5157600080fd5b600080604083850312156133ad57600080fd5b82359150612a7960208401613386565b60008083601f8401126133cf57600080fd5b50813567ffffffffffffffff8111156133e757600080fd5b6020830191508360208285010111156111fc57600080fd5b803562ffffff81168114612a5157600080fd5b6000806000806000806080878903121561342b57600080fd5b86359550602087013567ffffffffffffffff8082111561344a57600080fd5b6134568a838b016133bd565b9097509550604089013591508082111561346f57600080fd5b5061347c89828a016133bd565b909450925061348f9050606088016133ff565b90509295509295509295565b6000806000606084860312156134b057600080fd5b8351925060208401519150604084015190509250925092565b803560ff81168114612a5157600080fd5b600061016082019050848252833560208301526020840135604083015260408401356060830152606084013561350f81612a82565b73ffffffffffffffffffffffffffffffffffffffff811660808401525061353860808501613386565b63ffffffff811660a08401525061355160a08501612afc565b61ffff811660c08401525061356860c085016134c9565b60ff811660e08401525061357e60e085016133ff565b6101006135918185018362ffffff169052565b61359c818701612a41565b9150506135ae61012084018215159052565b5082610140830152949350505050565b600080604083850312156135d157600080fd5b505080516020909101519092909150565b81835260007f07ffffffffffffffffffffffffffffffffffffffffffffffffffffffffffffff83111561361457600080fd5b8260051b80836020870137939093016020019392505050565b8a81526000602060c08184015261364860c084018c8e6135e2565b83810360408501528981528a90820160005b8b81101561369557823561366d81612a82565b73ffffffffffffffffffffffffffffffffffffffff168252918301919083019060010161365a565b5084810360608601526136a9818a8c6135e2565b9250505082810360808401526136c08186886135e2565b91505073ffffffffffffffffffffffffffffffffffffffff831660a08301529b9a5050505050505050505050565b7f4e487b7100000000000000000000000000000000000000000000000000000000600052603260045260246000fd5b6000602080838503121561373057600080fd5b825167ffffffffffffffff81111561374757600080fd5b8301601f8101851361375857600080fd5b80516137666130818261303c565b81815260a0918202830184019184820191908884111561378557600080fd5b938501935b838510156137e35780858a0312156137a25760008081fd5b6137aa612fc4565b8551815286860151878201526040808701519082015260608087015190820152608080870151908201528352938401939185019161378a565b50979650505050505050565b87815260806020820152600061380960808301888a6135e2565b828103604084015261381c8187896135e2565b905082810360608401526138318185876135e2565b9a9950505050505050505050565b838152604060208201526000611e0d6040830184866135e2565b600082601f83011261386a57600080fd5b8151602061387a6130818361303c565b82815260059290921b8401810191818101908684111561389957600080fd5b8286015b848110156130c0578051835291830191830161389d565b6000806000606084860312156138c957600080fd5b835167ffffffffffffffff808211156138e157600080fd5b818601915086601f8301126138f557600080fd5b815160206139056130818361303c565b82815260059290921b8401810191818101908a84111561392457600080fd5b948201945b8386101561394b57855161393c81612a82565b82529482019490820190613929565b9189015191975090935050508082111561396457600080fd5b61397087838801613859565b9350604086015191508082111561398657600080fd5b5061399386828701613859565b9150509250925092565b8183528181602085013750600060208284010152600060207fffffffffffffffffffffffffffffffffffffffffffffffffffffffffffffffe0601f840116840101905092915050565b87815286602082015260a060408201526000613a0660a08301878961399d565b8281036060840152613a1981868861399d565b91505062ffffff831660808301529897505050505050505056fea2646970667358221220fbfd3fdb65e47feb6f7d5fd8e2bf5987e2d9451db563ebe93aadaf1add0ab51a64736f6c63430008100033",
  "deployedBytecode": "0x608060405234801561001057600080fd5b50600436106103835760003560e01c8063940870dc116101de578063c7878a571161010f578063f23a6e61116100ad578063f7c3fec21161007c578063f7c3fec214610bae578063f9be94f214610bc1578063fb5ba8eb14610bd4578063fe827f4a14610bf257600080fd5b8063f23a6e6114610a36578063f2fde38b14610a49578063f3052d2614610a5c578063f4a5cb8e14610b9b57600080fd5b8063e6bebba5116100e9578063e6bebba5146109cf578063e8a35392146109f2578063ef016cdd14610a10578063efdcd97414610a2357600080fd5b8063c7878a5714610987578063c7cad905146109a9578063da12b2351461094e57600080fd5b8063b505ab861161017c578063bc197c8111610156578063bc197c811461090a578063bf2de21a1461094e578063c007acf614610961578063c092c5c31461097457600080fd5b8063b505ab86146108ba578063b99d5190146108cd578063bae5934a146108f757600080fd5b8063a0595582116101b8578063a059558214610841578063a05f59d814610854578063a3d334a11461087c578063a88fd94a1461089a57600080fd5b8063940870dc146107e557806394c4fa85146107f8578063977bfe781461082e57600080fd5b80635ba18df8116102b857806378227cb0116102565780638866894e116102305780638866894e146107815780638da5cb5b14610794578063915e9913146107b257806393fa0581146107d257600080fd5b806378227cb0146107465780637902298e146107595780638456cb591461077957600080fd5b80636b22e8e1116102925780636b22e8e1146106be578063714b847c146106fd578063715018a6146107205780637760bbef1461072857600080fd5b80635ba18df81461068b5780635c4e7a051461069e5780635c975abb146106b157600080fd5b80633f4ba83a11610325578063558ff383116102ff578063558ff3831461049d57806357b41a71146104b057806358cfb39e146104de5780635ac442821461050657600080fd5b80633f4ba83a1461044f57806342f1652714610457578063452b79571461046a57600080fd5b80631e5a9250116103615780631e5a9250146103d85780631fb0a624146103eb5780632204561e146104195780632c5dd8a91461043c57600080fd5b806301ffc9a714610388578063060da144146103b05780630eae128e146103c5575b600080fd5b61039b6103963660046129ff565b610c05565b60405190151581526020015b60405180910390f35b6103c36103be366004612a56565b610c9e565b005b6103c36103d3366004612a56565b610d86565b6103c36103e6366004612aa4565b610dee565b6103fe6103f9366004612ac1565b610e92565b604080519384526020840192909252908201526060016103a7565b61039b610427366004612ae3565b60009081526099602052604090205460ff1690565b6103c361044a366004612b0e565b610f42565b6103c3610ff0565b6103c3610465366004612a56565b611002565b60a75474010000000000000000000000000000000000000000900461ffff165b60405161ffff90911681526020016103a7565b6103c36104ab366004612b29565b6110b5565b6104d06104be366004612ae3565b6000908152609f602052604090205490565b6040519081526020016103a7565b6104f16104ec366004612ac1565b611158565b604080519283526020830191909152016103a7565b61067e610514366004612ae3565b6040805161012081018252600080825260208201819052918101829052606081018290526080810182905260a0810182905260c0810182905260e08101829052610100810191909152506000908152609c60209081526040918290208251610120810184528154815260018201549281019290925260028101549282019290925260039091015473ffffffffffffffffffffffffffffffffffffffff8116606083015263ffffffff74010000000000000000000000000000000000000000820416608083015261ffff780100000000000000000000000000000000000000000000000082041660a083015260ff7a0100000000000000000000000000000000000000000000000000008204811660c084015262ffffff7b0100000000000000000000000000000000000000000000000000000083041660e08401527e0100000000000000000000000000000000000000000000000000000000000090910416151561010082015290565b6040516103a79190612b5b565b6103c3610699366004612c44565b611203565b6103c36106ac366004612aa4565b6112de565b60975461039b9060ff1681565b60a55473ffffffffffffffffffffffffffffffffffffffff165b60405173ffffffffffffffffffffffffffffffffffffffff90911681526020016103a7565b61039b61070b366004612ae3565b60009081526098602052604090205460ff1690565b6103c3611353565b60a75473ffffffffffffffffffffffffffffffffffffffff166106d8565b6104d0610754366004612ae3565b611365565b61076c610767366004612ac1565b61138f565b6040516103a79190612d1b565b6103c3611456565b6103c361078f366004612b0e565b611466565b60335473ffffffffffffffffffffffffffffffffffffffff166106d8565b6107c56107c0366004612ae3565b611514565b6040516103a79190612dc4565b6103fe6107e0366004612ac1565b611576565b6103c36107f3366004612dd7565b6115dc565b6106d8610806366004612ae3565b6000908152609d602052604090205473ffffffffffffffffffffffffffffffffffffffff1690565b6103c361083c366004612e71565b6116b8565b6103c361084f366004612b0e565b611bb3565b60a7547801000000000000000000000000000000000000000000000000900461ffff1661048a565b60a45473ffffffffffffffffffffffffffffffffffffffff166106d8565b6104d06108a8366004612ae3565b600090815260a0602052604090205490565b6103c36108c8366004612f39565b611c61565b60a7547a010000000000000000000000000000000000000000000000000000900461ffff1661048a565b6103c3610905366004612f65565b611d47565b61091d610918366004613159565b611dc3565b6040517fffffffff0000000000000000000000000000000000000000000000000000000090911681526020016103a7565b6107c561095c366004612ae3565b611e16565b6103c361096f366004612f39565b611e76565b6103c3610982366004613207565b611f21565b61099a610995366004613259565b61201b565b6040516103a79392919061329b565b60a754760100000000000000000000000000000000000000000000900461ffff1661048a565b61039b6109dd366004612ae3565b6000908152609a602052604090205460ff1690565b60a65473ffffffffffffffffffffffffffffffffffffffff166106d8565b6103c3610a1e366004612ac1565b6120da565b6103c3610a31366004612aa4565b612141565b61091d610a4436600461331d565b612155565b6103c3610a57366004612aa4565b6121a7565b610b2f610a6a366004612ae3565b6040805160e081018252600080825260208201819052918101829052606081018290526080810182905260a0810182905260c0810191909152506000908152609b6020908152604091829020825160e08101845281548152600182015464ffffffffff81169382019390935265010000000000830461ffff1693810193909352670100000000000000820462ffffff1660608401526a010000000000000000000090910463ffffffff166080830152600281015460a08301526003015460c082015290565b6040516103a79190600060e0820190508251825264ffffffffff602084015116602083015261ffff604084015116604083015262ffffff606084015116606083015263ffffffff608084015116608083015260a083015160a083015260c083015160c083015292915050565b6103c3610ba936600461339a565b61225b565b6103c3610bbc366004612b0e565b6122c7565b6103c3610bcf366004613412565b612375565b60a35473ffffffffffffffffffffffffffffffffffffffff166106d8565b6103c3610c00366004612aa4565b612412565b60007f01ffc9a7000000000000000000000000000000000000000000000000000000007fffffffff0000000000000000000000000000000000000000000000000000000083161480610c9857507f4e2312e0000000000000000000000000000000000000000000000000000000007fffffffff000000000000000000000000000000000000000000000000000000008316145b92915050565b60a75473ffffffffffffffffffffffffffffffffffffffff163314610cf6576040517ff8fbf6e10000000000000000000000000000000000000000000000000000000081523360048201526024015b60405180910390fd5b6040517fc7694ed40000000000000000000000000000000000000000000000000000000081526098600482015260248101839052811515604482015273__$06758b071caa070fd4252ef0f8e320e34f$__9063c7694ed4906064015b60006040518083038186803b158015610d6a57600080fd5b505af4158015610d7e573d6000803e3d6000fd5b505050505050565b610d8e612487565b6040517ffbefa24f0000000000000000000000000000000000000000000000000000000081526098600482015260248101839052811515604482015273__$c07436818a8533723c4f7c0e44800fefac$__9063fbefa24f90606401610d52565b610df6612487565b6040517f0905e5c00000000000000000000000000000000000000000000000000000000081526098600482015273ffffffffffffffffffffffffffffffffffffffff8216602482015273__$06758b071caa070fd4252ef0f8e320e34f$__90630905e5c0906044015b60006040518083038186803b158015610e7757600080fd5b505af4158015610e8b573d6000803e3d6000fd5b5050505050565b6040517f3c8f4d3f0000000000000000000000000000000000000000000000000000000081526098600482015260248101839052604481018290526000908190819073__$51ed980ed4ddad7f2d2649c5620a5a284d$__90633c8f4d3f906064015b606060405180830381865af4158015610f11573d6000803e3d6000fd5b505050506040513d601f19601f82011682018060405250810190610f35919061349b565b9250925092509250925092565b60a75473ffffffffffffffffffffffffffffffffffffffff163314610f95576040517ff8fbf6e1000000000000000000000000000000000000000000000000000000008152336004820152602401610ced565b6040517f11bd86960000000000000000000000000000000000000000000000000000000081526098600482015261ffff8216602482015273__$51ed980ed4ddad7f2d2649c5620a5a284d$__906311bd869690604401610e5f565b610ff8612487565b611000612508565b565b60a75473ffffffffffffffffffffffffffffffffffffffff163314611055576040517ff8fbf6e1000000000000000000000000000000000000000000000000000000008152336004820152602401610ced565b6040517f9e1b007b0000000000000000000000000000000000000000000000000000000081526098600482015260248101839052811515604482015273__$06758b071caa070fd4252ef0f8e320e34f$__90639e1b007b90606401610d52565b6110bd612597565b6110c5612487565b6040517f4044acb000000000000000000000000000000000000000000000000000000000815273__$c07436818a8533723c4f7c0e44800fefac$__90634044acb09061111a90609890869086906004016134da565b60006040518083038186803b15801561113257600080fd5b505af4158015611146573d6000803e3d6000fd5b505050506111546001606555565b5050565b6040517fd152151e000000000000000000000000000000000000000000000000000000008152609860048201526024810183905260448101829052600090819073__$2ca33e8c99893de9c36adac6c06090d7b3$__9063d152151e906064016040805180830381865af41580156111d3573d6000803e3d6000fd5b505050506040513d601f19601f820116820180604052508101906111f791906135be565b915091505b9250929050565b60975460ff1615611240576040517f9e87fac800000000000000000000000000000000000000000000000000000000815260040160405180910390fd5b6040517f87475f2000000000000000000000000000000000000000000000000000000000815273__$49556f7947f3338075112416096ff342eb$__906387475f20906112a3906098908d908d908d908d908d908d908d908d908d9060040161362d565b60006040518083038186803b1580156112bb57600080fd5b505af41580156112cf573d6000803e3d6000fd5b50505050505050505050505050565b6112e6612487565b6040517f3273b4910000000000000000000000000000000000000000000000000000000081526098600482015273ffffffffffffffffffffffffffffffffffffffff8216602482015273__$49556f7947f3338075112416096ff342eb$__90633273b49190604401610e5f565b61135b612487565b6110006000612611565b60006098600a01828154811061137d5761137d6136ee565b90600052602060002001549050919050565b6040517fad728ad500000000000000000000000000000000000000000000000000000000815260986004820152602481018390526044810182905260609073__$2ca33e8c99893de9c36adac6c06090d7b3$__9063ad728ad590606401600060405180830381865af4158015611409573d6000803e3d6000fd5b505050506040513d6000823e601f3d9081017fffffffffffffffffffffffffffffffffffffffffffffffffffffffffffffffe016820160405261144f919081019061371d565b9392505050565b61145e612487565b611000612688565b60a75473ffffffffffffffffffffffffffffffffffffffff1633146114b9576040517ff8fbf6e1000000000000000000000000000000000000000000000000000000008152336004820152602401610ced565b6040517f7121562b0000000000000000000000000000000000000000000000000000000081526098600482015261ffff8216602482015273__$2ca33e8c99893de9c36adac6c06090d7b3$__90637121562b90604401610e5f565b600081815260a1602090815260409182902080548351818402810184019094528084526060939283018282801561156a57602002820191906000526020600020905b815481526020019060010190808311611556575b50505050509050919050565b6040517febf2cd6b0000000000000000000000000000000000000000000000000000000081526098600482015260248101839052604481018290526000908190819073__$2ca33e8c99893de9c36adac6c06090d7b3$__9063ebf2cd6b90606401610ef4565b6115e4612597565b60975460ff1615611621576040517f9e87fac800000000000000000000000000000000000000000000000000000000815260040160405180910390fd5b6040517f7e47ee6500000000000000000000000000000000000000000000000000000000815273__$2ca33e8c99893de9c36adac6c06090d7b3$__90637e47ee659061167e906098908a908a908a908a908a908a906004016137ef565b60006040518083038186803b15801561169657600080fd5b505af41580156116aa573d6000803e3d6000fd5b50505050610d7e6001606555565b600054610100900460ff16158080156116d85750600054600160ff909116105b806116f25750303b1580156116f2575060005460ff166001145b61177e576040517f08c379a000000000000000000000000000000000000000000000000000000000815260206004820152602e60248201527f496e697469616c697a61626c653a20636f6e747261637420697320616c72656160448201527f647920696e697469616c697a65640000000000000000000000000000000000006064820152608401610ced565b600080547fffffffffffffffffffffffffffffffffffffffffffffffffffffffffffffff0016600117905580156117dc57600080547fffffffffffffffffffffffffffffffffffffffffffffffffffffffffffff00ff166101001790555b6117e461271b565b6117ec6127ba565b6117f5836121a7565b60a4805473ffffffffffffffffffffffffffffffffffffffff8d81167fffffffffffffffffffffffff00000000000000000000000000000000000000009283161790925560a38054928d16929091169190911790556040517f11bd86960000000000000000000000000000000000000000000000000000000081526098600482015261ffff8a16602482015273__$51ed980ed4ddad7f2d2649c5620a5a284d$__906311bd86969060440160006040518083038186803b1580156118b857600080fd5b505af41580156118cc573d6000803e3d6000fd5b50506040517fa6400cc60000000000000000000000000000000000000000000000000000000081526098600482015261ffff8b16602482015273__$2ca33e8c99893de9c36adac6c06090d7b3$__925063a6400cc6915060440160006040518083038186803b15801561193e57600080fd5b505af4158015611952573d6000803e3d6000fd5b50506040517f7121562b0000000000000000000000000000000000000000000000000000000081526098600482015261ffff8a16602482015273__$2ca33e8c99893de9c36adac6c06090d7b3$__9250637121562b915060440160006040518083038186803b1580156119c457600080fd5b505af41580156119d8573d6000803e3d6000fd5b50506040517f5dae67cc0000000000000000000000000000000000000000000000000000000081526098600482015261ffff8916602482015273__$49556f7947f3338075112416096ff342eb$__9250635dae67cc915060440160006040518083038186803b158015611a4a57600080fd5b505af4158015611a5e573d6000803e3d6000fd5b50505050611a6b85612859565b60a780547fffffffffffffffffffffffff00000000000000000000000000000000000000001673ffffffffffffffffffffffffffffffffffffffff84161790556040517f3273b4910000000000000000000000000000000000000000000000000000000081526098600482015273ffffffffffffffffffffffffffffffffffffffff8516602482015273__$49556f7947f3338075112416096ff342eb$__90633273b4919060440160006040518083038186803b158015611b2b57600080fd5b505af4158015611b3f573d6000803e3d6000fd5b505050508015611ba657600080547fffffffffffffffffffffffffffffffffffffffffffffffffffffffffffff00ff169055604051600181527f7f26b83ff96e1f2b6a682f133852f6798a09c465da95921460cefb38474024989060200160405180910390a15b5050505050505050505050565b60a75473ffffffffffffffffffffffffffffffffffffffff163314611c06576040517ff8fbf6e1000000000000000000000000000000000000000000000000000000008152336004820152602401610ced565b6040517f5dae67cc0000000000000000000000000000000000000000000000000000000081526098600482015261ffff8216602482015273__$49556f7947f3338075112416096ff342eb$__90635dae67cc90604401610e5f565b611c69612597565b60975460ff1615611ca6576040517f9e87fac800000000000000000000000000000000000000000000000000000000815260040160405180910390fd5b6040517f79be5d600000000000000000000000000000000000000000000000000000000081526098600482015260248101849052604481018390526064810182905273__$51ed980ed4ddad7f2d2649c5620a5a284d$__906379be5d60906084015b60006040518083038186803b158015611d2057600080fd5b505af4158015611d34573d6000803e3d6000fd5b50505050611d426001606555565b505050565b611d4f612487565b6040517f4d62db72000000000000000000000000000000000000000000000000000000008152609860048201526024810183905273ffffffffffffffffffffffffffffffffffffffff8216604482015273__$06758b071caa070fd4252ef0f8e320e34f$__90634d62db7290606401610d52565b600073ffffffffffffffffffffffffffffffffffffffff86163014611dea57506000611e0d565b507fbc197c81000000000000000000000000000000000000000000000000000000005b95945050505050565b6000818152609e602090815260409182902080548351818402810184019094528084526060939283018282801561156a57602002820191906000526020600020908154815260200190600101908083116115565750505050509050919050565b611e7e612597565b60975460ff1615611ebb576040517f9e87fac800000000000000000000000000000000000000000000000000000000815260040160405180910390fd5b6040517f46edd1ef0000000000000000000000000000000000000000000000000000000081526098600482015260248101849052604481018390526064810182905273__$2ca33e8c99893de9c36adac6c06090d7b3$__906346edd1ef90608401611d08565b60a75473ffffffffffffffffffffffffffffffffffffffff163314611f74576040517ff8fbf6e1000000000000000000000000000000000000000000000000000000008152336004820152602401610ced565b6040517f7c924c6f00000000000000000000000000000000000000000000000000000000815260986004820152602481018590526044810184905264ffffffffff8316606482015261ffff8216608482015273__$c07436818a8533723c4f7c0e44800fefac$__90637c924c6f9060a40160006040518083038186803b158015611ffd57600080fd5b505af4158015612011573d6000803e3d6000fd5b5050505050505050565b6040517f1b768ae00000000000000000000000000000000000000000000000000000000081526060908190819073__$49556f7947f3338075112416096ff342eb$__90631b768ae090612077906098908990899060040161383f565b600060405180830381865af4158015612094573d6000803e3d6000fd5b505050506040513d6000823e601f3d9081017fffffffffffffffffffffffffffffffffffffffffffffffffffffffffffffffe0168201604052610f3591908101906138b4565b6120e2612487565b6040517f2a463d1100000000000000000000000000000000000000000000000000000000815260986004820152602481018390526044810182905273__$c07436818a8533723c4f7c0e44800fefac$__90632a463d1190606401610d52565b612149612487565b61215281612859565b50565b600073ffffffffffffffffffffffffffffffffffffffff8616301461217c57506000611e0d565b507ff23a6e610000000000000000000000000000000000000000000000000000000095945050505050565b6121af612487565b73ffffffffffffffffffffffffffffffffffffffff8116612252576040517f08c379a000000000000000000000000000000000000000000000000000000000815260206004820152602660248201527f4f776e61626c653a206e6577206f776e657220697320746865207a65726f206160448201527f64647265737300000000000000000000000000000000000000000000000000006064820152608401610ced565b61215281612611565b612263612487565b6040517f28c6ad9c000000000000000000000000000000000000000000000000000000008152609860048201526024810183905263ffffffff8216604482015273__$c07436818a8533723c4f7c0e44800fefac$__906328c6ad9c90606401610d52565b60a75473ffffffffffffffffffffffffffffffffffffffff16331461231a576040517ff8fbf6e1000000000000000000000000000000000000000000000000000000008152336004820152602401610ced565b6040517fa6400cc60000000000000000000000000000000000000000000000000000000081526098600482015261ffff8216602482015273__$2ca33e8c99893de9c36adac6c06090d7b3$__9063a6400cc690604401610e5f565b61237d612487565b6040517fb160ad5b00000000000000000000000000000000000000000000000000000000815273__$c07436818a8533723c4f7c0e44800fefac$__9063b160ad5b906123da906098908a908a908a908a908a908a906004016139e6565b60006040518083038186803b1580156123f257600080fd5b505af4158015612406573d6000803e3d6000fd5b50505050505050505050565b61241a612487565b6040517f25f2a0290000000000000000000000000000000000000000000000000000000081526098600482015273ffffffffffffffffffffffffffffffffffffffff8216602482015273__$06758b071caa070fd4252ef0f8e320e34f$__906325f2a02990604401610e5f565b60335473ffffffffffffffffffffffffffffffffffffffff163314611000576040517f08c379a000000000000000000000000000000000000000000000000000000000815260206004820181905260248201527f4f776e61626c653a2063616c6c6572206973206e6f7420746865206f776e65726044820152606401610ced565b60975460ff16612544576040517f6cd6020100000000000000000000000000000000000000000000000000000000815260040160405180910390fd5b609780547fffffffffffffffffffffffffffffffffffffffffffffffffffffffffffffff001690556040517f7805862f689e2f13df9f062ff482ad3ad112aca9e0847911ed832e158c525b3390600090a1565b600260655403612603576040517f08c379a000000000000000000000000000000000000000000000000000000000815260206004820152601f60248201527f5265656e7472616e637947756172643a207265656e7472616e742063616c6c006044820152606401610ced565b6002606555565b6001606555565b6033805473ffffffffffffffffffffffffffffffffffffffff8381167fffffffffffffffffffffffff0000000000000000000000000000000000000000831681179093556040519116919082907f8be0079c531659141344cd1fd0a4f28419497f9722a3daafe3b4186f6b6457e090600090a35050565b60975460ff16156126c5576040517f9e87fac800000000000000000000000000000000000000000000000000000000815260040160405180910390fd5b609780547fffffffffffffffffffffffffffffffffffffffffffffffffffffffffffffff001660011790556040517f6985a02210a168e66602d3235cb6db0e70f92b3ba4d376a33c0f3d9434bff62590600090a1565b600054610100900460ff166127b2576040517f08c379a000000000000000000000000000000000000000000000000000000000815260206004820152602b60248201527f496e697469616c697a61626c653a20636f6e7472616374206973206e6f74206960448201527f6e697469616c697a696e670000000000000000000000000000000000000000006064820152608401610ced565b6110006128c8565b600054610100900460ff16612851576040517f08c379a000000000000000000000000000000000000000000000000000000000815260206004820152602b60248201527f496e697469616c697a61626c653a20636f6e7472616374206973206e6f74206960448201527f6e697469616c697a696e670000000000000000000000000000000000000000006064820152608401610ced565b611000612968565b60a680547fffffffffffffffffffffffff00000000000000000000000000000000000000001673ffffffffffffffffffffffffffffffffffffffff83169081179091556040517f27aae5db36d94179909d019ae0b1ac7c16d96d953148f63c0f6a0a9c8ead79ee90600090a250565b600054610100900460ff1661295f576040517f08c379a000000000000000000000000000000000000000000000000000000000815260206004820152602b60248201527f496e697469616c697a61626c653a20636f6e7472616374206973206e6f74206960448201527f6e697469616c697a696e670000000000000000000000000000000000000000006064820152608401610ced565b61100033612611565b600054610100900460ff1661260a576040517f08c379a000000000000000000000000000000000000000000000000000000000815260206004820152602b60248201527f496e697469616c697a61626c653a20636f6e7472616374206973206e6f74206960448201527f6e697469616c697a696e670000000000000000000000000000000000000000006064820152608401610ced565b600060208284031215612a1157600080fd5b81357fffffffff000000000000000000000000000000000000000000000000000000008116811461144f57600080fd5b80358015158114612a5157600080fd5b919050565b60008060408385031215612a6957600080fd5b82359150612a7960208401612a41565b90509250929050565b73ffffffffffffffffffffffffffffffffffffffff8116811461215257600080fd5b600060208284031215612ab657600080fd5b813561144f81612a82565b60008060408385031215612ad457600080fd5b50508035926020909101359150565b600060208284031215612af557600080fd5b5035919050565b803561ffff81168114612a5157600080fd5b600060208284031215612b2057600080fd5b61144f82612afc565b600080828403610140811215612b3e57600080fd5b61012080821215612b4e57600080fd5b9395938601359450505050565b60006101208201905082518252602083015160208301526040830151604083015273ffffffffffffffffffffffffffffffffffffffff606084015116606083015263ffffffff608084015116608083015260a0830151612bc160a084018261ffff169052565b5060c0830151612bd660c084018260ff169052565b5060e0830151612bed60e084018262ffffff169052565b50610100928301511515919092015290565b60008083601f840112612c1157600080fd5b50813567ffffffffffffffff811115612c2957600080fd5b6020830191508360208260051b85010111156111fc57600080fd5b600080600080600080600080600060a08a8c031215612c6257600080fd5b893567ffffffffffffffff80821115612c7a57600080fd5b612c868d838e01612bff565b909b50995060208c0135915080821115612c9f57600080fd5b612cab8d838e01612bff565b909950975060408c0135915080821115612cc457600080fd5b612cd08d838e01612bff565b909750955060608c0135915080821115612ce957600080fd5b50612cf68c828d01612bff565b90945092505060808a0135612d0a81612a82565b809150509295985092959850929598565b602080825282518282018190526000919060409081850190868401855b82811015612d7c5781518051855286810151878601528581015186860152606080820151908601526080908101519085015260a09093019290850190600101612d38565b5091979650505050505050565b600081518084526020808501945080840160005b83811015612db957815187529582019590820190600101612d9d565b509495945050505050565b60208152600061144f6020830184612d89565b60008060008060008060608789031215612df057600080fd5b863567ffffffffffffffff80821115612e0857600080fd5b612e148a838b01612bff565b90985096506020890135915080821115612e2d57600080fd5b612e398a838b01612bff565b90965094506040890135915080821115612e5257600080fd5b50612e5f89828a01612bff565b979a9699509497509295939492505050565b6000806000806000806000806000806101408b8d031215612e9157600080fd5b8a35612e9c81612a82565b995060208b0135612eac81612a82565b9850612eba60408c01612afc565b9750612ec860608c01612afc565b9650612ed660808c01612afc565b9550612ee460a08c01612afc565b945060c08b0135612ef481612a82565b935060e08b0135612f0481612a82565b92506101008b0135612f1581612a82565b91506101208b0135612f2681612a82565b809150509295989b9194979a5092959850565b600080600060608486031215612f4e57600080fd5b505081359360208301359350604090920135919050565b60008060408385031215612f7857600080fd5b823591506020830135612f8a81612a82565b809150509250929050565b7f4e487b7100000000000000000000000000000000000000000000000000000000600052604160045260246000fd5b60405160a0810167ffffffffffffffff81118282101715612fe757612fe7612f95565b60405290565b604051601f82017fffffffffffffffffffffffffffffffffffffffffffffffffffffffffffffffe016810167ffffffffffffffff8111828210171561303457613034612f95565b604052919050565b600067ffffffffffffffff82111561305657613056612f95565b5060051b60200190565b600082601f83011261307157600080fd5b813560206130866130818361303c565b612fed565b82815260059290921b840181019181810190868411156130a557600080fd5b8286015b848110156130c057803583529183019183016130a9565b509695505050505050565b600082601f8301126130dc57600080fd5b813567ffffffffffffffff8111156130f6576130f6612f95565b61312760207fffffffffffffffffffffffffffffffffffffffffffffffffffffffffffffffe0601f84011601612fed565b81815284602083860101111561313c57600080fd5b816020850160208301376000918101602001919091529392505050565b600080600080600060a0868803121561317157600080fd5b853561317c81612a82565b9450602086013561318c81612a82565b9350604086013567ffffffffffffffff808211156131a957600080fd5b6131b589838a01613060565b945060608801359150808211156131cb57600080fd5b6131d789838a01613060565b935060808801359150808211156131ed57600080fd5b506131fa888289016130cb565b9150509295509295909350565b6000806000806080858703121561321d57600080fd5b8435935060208501359250604085013564ffffffffff8116811461324057600080fd5b915061324e60608601612afc565b905092959194509250565b6000806020838503121561326c57600080fd5b823567ffffffffffffffff81111561328357600080fd5b61328f85828601612bff565b90969095509350505050565b606080825284519082018190526000906020906080840190828801845b828110156132ea57815173ffffffffffffffffffffffffffffffffffffffff16845292840192908401906001016132b8565b505050838103828501526132fe8187612d89565b91505082810360408401526133138185612d89565b9695505050505050565b600080600080600060a0868803121561333557600080fd5b853561334081612a82565b9450602086013561335081612a82565b93506040860135925060608601359150608086013567ffffffffffffffff81111561337a57600080fd5b6131fa888289016130cb565b803563ffffffff81168114612a5157600080fd5b600080604083850312156133ad57600080fd5b82359150612a7960208401613386565b60008083601f8401126133cf57600080fd5b50813567ffffffffffffffff8111156133e757600080fd5b6020830191508360208285010111156111fc57600080fd5b803562ffffff81168114612a5157600080fd5b6000806000806000806080878903121561342b57600080fd5b86359550602087013567ffffffffffffffff8082111561344a57600080fd5b6134568a838b016133bd565b9097509550604089013591508082111561346f57600080fd5b5061347c89828a016133bd565b909450925061348f9050606088016133ff565b90509295509295509295565b6000806000606084860312156134b057600080fd5b8351925060208401519150604084015190509250925092565b803560ff81168114612a5157600080fd5b600061016082019050848252833560208301526020840135604083015260408401356060830152606084013561350f81612a82565b73ffffffffffffffffffffffffffffffffffffffff811660808401525061353860808501613386565b63ffffffff811660a08401525061355160a08501612afc565b61ffff811660c08401525061356860c085016134c9565b60ff811660e08401525061357e60e085016133ff565b6101006135918185018362ffffff169052565b61359c818701612a41565b9150506135ae61012084018215159052565b5082610140830152949350505050565b600080604083850312156135d157600080fd5b505080516020909101519092909150565b81835260007f07ffffffffffffffffffffffffffffffffffffffffffffffffffffffffffffff83111561361457600080fd5b8260051b80836020870137939093016020019392505050565b8a81526000602060c08184015261364860c084018c8e6135e2565b83810360408501528981528a90820160005b8b81101561369557823561366d81612a82565b73ffffffffffffffffffffffffffffffffffffffff168252918301919083019060010161365a565b5084810360608601526136a9818a8c6135e2565b9250505082810360808401526136c08186886135e2565b91505073ffffffffffffffffffffffffffffffffffffffff831660a08301529b9a5050505050505050505050565b7f4e487b7100000000000000000000000000000000000000000000000000000000600052603260045260246000fd5b6000602080838503121561373057600080fd5b825167ffffffffffffffff81111561374757600080fd5b8301601f8101851361375857600080fd5b80516137666130818261303c565b81815260a0918202830184019184820191908884111561378557600080fd5b938501935b838510156137e35780858a0312156137a25760008081fd5b6137aa612fc4565b8551815286860151878201526040808701519082015260608087015190820152608080870151908201528352938401939185019161378a565b50979650505050505050565b87815260806020820152600061380960808301888a6135e2565b828103604084015261381c8187896135e2565b905082810360608401526138318185876135e2565b9a9950505050505050505050565b838152604060208201526000611e0d6040830184866135e2565b600082601f83011261386a57600080fd5b8151602061387a6130818361303c565b82815260059290921b8401810191818101908684111561389957600080fd5b8286015b848110156130c0578051835291830191830161389d565b6000806000606084860312156138c957600080fd5b835167ffffffffffffffff808211156138e157600080fd5b818601915086601f8301126138f557600080fd5b815160206139056130818361303c565b82815260059290921b8401810191818101908a84111561392457600080fd5b948201945b8386101561394b57855161393c81612a82565b82529482019490820190613929565b9189015191975090935050508082111561396457600080fd5b61397087838801613859565b9350604086015191508082111561398657600080fd5b5061399386828701613859565b9150509250925092565b8183528181602085013750600060208284010152600060207fffffffffffffffffffffffffffffffffffffffffffffffffffffffffffffffe0601f840116840101905092915050565b87815286602082015260a060408201526000613a0660a08301878961399d565b8281036060840152613a1981868861399d565b91505062ffffff831660808301529897505050505050505056fea2646970667358221220fbfd3fdb65e47feb6f7d5fd8e2bf5987e2d9451db563ebe93aadaf1add0ab51a64736f6c63430008100033",
  "libraries": {
    "WeeklyCarbonRewards": "0xFB6B6d4E920B602bf7A83A47f09ae02C8A33430e",
    "CarbonDomainRepository": "0xe8A6c06B25e264aD2298F1cD743894e1C76EfB4E",
    "CollateralizationManager": "0xA254Ad9faA510BB56614eA02F3F97EC1F7294444",
    "DecollateralizationManager": "0x41E61b6AA46d5d8D39896A4E3096c9056DFD8E02",
    "RegulatoryComplianceManager": "0x6803727942864f51A51d47f5f140218BfD65C723"
  },
  "devdoc": {
    "kind": "dev",
    "methods": {
      "addBatch((uint256,uint256,uint256,address,uint32,uint16,uint8,uint24,bool),uint256)": {
        "params": {
          "batch": "Struct containing all the data for the batch",
          "mintableAmount": "The amount of ERC1155 tokens to be minted to the batch supplier"
        }
      },
      "addCategory(uint256,string,string,uint24)": {
        "params": {
          "categoryId": "The category ID",
          "initialTA": "The initial time appreciation for the category. Category's averageTA will be set to this value.",
          "tokenName": "The name of the ERC20 token that will be created for the category",
          "tokenSymbol": "The symbol of the ERC20 token that will be created for the category"
        }
      },
      "addProject(uint256,uint256)": {
        "params": {
          "categoryId": "The category ID to which the project belongs",
          "projectId": "The project ID"
        }
      },
      "bulkDecollateralizeTokens(uint256[],uint256[],uint256[])": {
        "details": "Bulk-decollateralizes ERC20 tokens into multiple ERC1155 tokens with specified amountsprior to calling, msg.sender must approve SolidWorldManager to spend `sum(amountsIn)` ERC20 tokensnonReentrant (_decollateralizeTokens), to avoid possible reentrancy after calling safeTransferFrom_batchIds must belong to the same Categorywill trigger a rebalance of the Category",
        "params": {
          "amountsIn": "ERC20 tokens to decollateralize",
          "amountsOutMin": "minimum output amounts of ERC1155 tokens for transaction to succeed",
          "batchIds": "ids of the batches"
        }
      },
      "collateralizeBatch(uint256,uint256,uint256)": {
        "details": "Collateralizes `amountIn` of ERC1155 tokens with id `batchId` for msg.senderprior to calling, msg.sender must approve SolidWorldManager to spend its ERC1155 tokens with id `batchId`nonReentrant, to avoid possible reentrancy after calling safeTransferFrom",
        "params": {
          "amountIn": "ERC1155 tokens to collateralize",
          "amountOutMin": "minimum output amount of ERC20 tokens for transaction to succeed",
          "batchId": "id of the batch"
        }
      },
      "computeWeeklyCarbonRewards(uint256[])": {
        "params": {
          "categoryIds": "The categories to which the incentivized assets belong"
        },
        "returns": {
          "_0": "List of carbon rewards getting distributed.",
          "_1": "List of carbon reward amounts getting distributed",
          "_2": "List of fee amounts charged by the DAO on carbon rewards"
        }
      },
      "decollateralizeTokens(uint256,uint256,uint256)": {
        "details": "Decollateralizes `amountIn` of ERC20 tokens and sends `amountOut` ERC1155 tokens with id `batchId` to msg.senderprior to calling, msg.sender must approve SolidWorldManager to spend `amountIn` ERC20 tokensnonReentrant (_decollateralizeTokens), to avoid possible reentrancy after calling safeTransferFromwill trigger a rebalance of the Category",
        "params": {
          "amountIn": "ERC20 tokens to decollateralize",
          "amountOutMin": "minimum output amount of ERC1155 tokens for transaction to succeed",
          "batchId": "id of the batch"
        }
      },
      "getBatchesDecollateralizationInfo(uint256,uint256)": {
        "details": "Computes relevant info for the decollateralization process involving batches that match the specified `projectId` and `vintage`",
        "params": {
          "projectId": "id of the project the batch belongs to",
          "vintage": "vintage of the batch"
        },
        "returns": {
          "_0": "array of relevant info about matching batches"
        }
      },
      "mintWeeklyCarbonRewards(uint256[],address[],uint256[],uint256[],address)": {
        "params": {
          "carbonRewards": "List of carbon rewards to mint",
          "categoryIds": "The categories to which the incentivized assets belong",
          "rewardAmounts": "List of carbon reward amounts to mint",
          "rewardFees": "List of fee amounts charged by the DAO on carbon rewards",
          "rewardsVault": "Account that secures ERC20 rewards"
        }
      },
      "onERC1155BatchReceived(address,address,uint256[],uint256[],bytes)": {
        "details": "accept transfers from this contract only"
      },
      "onERC1155Received(address,address,uint256,uint256,bytes)": {
        "details": "accept transfers from this contract only"
      },
      "owner()": {
        "details": "Returns the address of the current owner."
      },
      "pause()": {
        "details": "triggers stopped state"
      },
      "renounceOwnership()": {
        "details": "Leaves the contract without owner. It will not be possible to call `onlyOwner` functions anymore. Can only be called by the current owner. NOTE: Renouncing ownership will leave the contract without an owner, thereby removing any functionality that is only available to the owner."
      },
      "setBatchAccumulating(uint256,bool)": {
        "params": {
          "batchId": "The batch ID",
          "isAccumulating": "The new isAccumulating value for the batch"
        }
      },
      "setBatchCertificationDate(uint256,uint32)": {
        "params": {
          "batchId": "The batch ID to be updated",
          "certificationDate": "The new certification date for the batch"
        }
      },
      "setBoostedDecollateralizationFee(uint16)": {
        "params": {
          "boostedDecollateralizationFee": "fee for decollateralizing ERC20 tokens in case of certified batches"
        }
      },
      "setCollateralizationFee(uint16)": {
        "params": {
          "collateralizationFee": "fee for collateralizing ERC1155 tokens"
        }
      },
      "setDecollateralizationFee(uint16)": {
        "params": {
          "decollateralizationFee": "fee for decollateralizing ERC20 tokens"
        }
      },
      "setRewardsFee(uint16)": {
        "params": {
          "rewardsFee": "The new rewards fee charged on weekly rewards"
        }
      },
      "setWeeklyRewardsMinter(address)": {
        "params": {
          "weeklyRewardsMinter": "The only account allowed to mint weekly carbon rewards"
        }
      },
      "simulateBatchCollateralization(uint256,uint256)": {
        "details": "Simulates collateralization of `amountIn` ERC1155 tokens with id `batchId` for msg.sender",
        "params": {
          "amountIn": "ERC1155 tokens to collateralize",
          "batchId": "id of the batch"
        },
        "returns": {
          "_0": "ERC20 tokens to be received by msg.sender",
          "_1": "ERC20 tokens to be received by feeReceiver",
          "_2": "ERC20 tokens forfeited for collateralizing the ERC1155 tokens"
        }
      },
      "simulateDecollateralization(uint256,uint256)": {
        "details": "Simulates decollateralization of `amountIn` ERC20 tokens for ERC1155 tokens with id `batchId`",
        "params": {
          "amountIn": "ERC20 tokens to decollateralize",
          "batchId": "id of the batch"
        },
        "returns": {
          "_0": "ERC1155 tokens to be received",
          "_1": "minimum amount of ERC20 tokens to decollateralize `amountOut` ERC1155 tokens with id `batchId`",
          "_2": "ERC20 tokens to be received by `feeReceiver` for decollateralizing `minAmountIn` ERC20 tokens"
        }
      },
      "simulateReverseDecollateralization(uint256,uint256)": {
        "details": "Computes the `minCbt` ERC20 tokens that needs to be decollateralized to obtain `forwardCreditsAmount` ERC1155 tokens",
        "params": {
          "batchId": "id of the batch",
          "forwardCreditsAmount": "ERC1155 tokens to be received"
        },
        "returns": {
          "minCbt": "minimum amount of ERC20 tokens that needs to be decollateralized",
          "minCbtDaoCut": "amount of ERC20 tokens to be received by `feeReceiver` for decollateralizing `minCbt` ERC20 tokens"
        }
      },
      "supportsInterface(bytes4)": {
        "details": "Returns true if this contract implements the interface defined by `interfaceId`. See the corresponding https://eips.ethereum.org/EIPS/eip-165#how-interfaces-are-identified[EIP section] to learn more about how these ids are created. This function call must use less than 30 000 gas."
      },
      "transferOwnership(address)": {
        "details": "Transfers ownership of the contract to a new account (`newOwner`). Can only be called by the current owner."
      },
      "unpause()": {
        "details": "returns to normal state"
      },
      "updateCategory(uint256,uint256,uint40,uint16)": {
        "params": {
          "categoryId": "The category ID to be updated",
          "decayPerSecond": "The new decay per second for the category",
          "maxDepreciation": "The new max depreciation for the category. Quantified per year.",
          "volumeCoefficient": "The new volume coefficient for the category"
        }
      }
    },
    "version": 1
  },
  "userdoc": {
    "kind": "user",
    "methods": {
      "setBatchCertificationDate(uint256,uint32)": {
        "notice": "The certification date can only be set sooner than the current certification date"
      }
    },
    "version": 1
  },
  "storageLayout": {
    "storage": [
      {
        "astId": 138,
        "contract": "contracts/SolidWorldManager.sol:SolidWorldManager",
        "label": "_initialized",
        "offset": 0,
        "slot": "0",
        "type": "t_uint8"
      },
      {
        "astId": 141,
        "contract": "contracts/SolidWorldManager.sol:SolidWorldManager",
        "label": "_initializing",
        "offset": 1,
        "slot": "0",
        "type": "t_bool"
      },
      {
        "astId": 739,
        "contract": "contracts/SolidWorldManager.sol:SolidWorldManager",
        "label": "__gap",
        "offset": 0,
        "slot": "1",
        "type": "t_array(t_uint256)50_storage"
      },
      {
        "astId": 10,
        "contract": "contracts/SolidWorldManager.sol:SolidWorldManager",
        "label": "_owner",
        "offset": 0,
        "slot": "51",
        "type": "t_address"
      },
      {
        "astId": 130,
        "contract": "contracts/SolidWorldManager.sol:SolidWorldManager",
        "label": "__gap",
        "offset": 0,
        "slot": "52",
        "type": "t_array(t_uint256)49_storage"
      },
      {
        "astId": 314,
        "contract": "contracts/SolidWorldManager.sol:SolidWorldManager",
        "label": "_status",
        "offset": 0,
        "slot": "101",
        "type": "t_uint256"
      },
      {
        "astId": 372,
        "contract": "contracts/SolidWorldManager.sol:SolidWorldManager",
        "label": "__gap",
        "offset": 0,
        "slot": "102",
        "type": "t_array(t_uint256)49_storage"
      },
      {
        "astId": 10069,
        "contract": "contracts/SolidWorldManager.sol:SolidWorldManager",
        "label": "paused",
        "offset": 0,
        "slot": "151",
        "type": "t_bool"
      },
      {
        "astId": 11579,
        "contract": "contracts/SolidWorldManager.sol:SolidWorldManager",
        "label": "_storage",
        "offset": 0,
        "slot": "152",
        "type": "t_struct(Storage)11576_storage"
      }
    ],
    "types": {
      "t_address": {
        "encoding": "inplace",
        "label": "address",
        "numberOfBytes": "20"
      },
      "t_array(t_uint256)49_storage": {
        "base": "t_uint256",
        "encoding": "inplace",
        "label": "uint256[49]",
        "numberOfBytes": "1568"
      },
      "t_array(t_uint256)50_storage": {
        "base": "t_uint256",
        "encoding": "inplace",
        "label": "uint256[50]",
        "numberOfBytes": "1600"
      },
      "t_array(t_uint256)dyn_storage": {
        "base": "t_uint256",
        "encoding": "dynamic_array",
        "label": "uint256[]",
        "numberOfBytes": "32"
      },
      "t_bool": {
        "encoding": "inplace",
        "label": "bool",
        "numberOfBytes": "1"
      },
      "t_contract(CollateralizedBasketToken)8271": {
        "encoding": "inplace",
        "label": "contract CollateralizedBasketToken",
        "numberOfBytes": "20"
      },
      "t_contract(CollateralizedBasketTokenDeployer)8334": {
        "encoding": "inplace",
        "label": "contract CollateralizedBasketTokenDeployer",
        "numberOfBytes": "20"
      },
      "t_contract(ForwardContractBatchToken)8696": {
        "encoding": "inplace",
        "label": "contract ForwardContractBatchToken",
        "numberOfBytes": "20"
      },
      "t_mapping(t_uint256,t_array(t_uint256)dyn_storage)": {
        "encoding": "mapping",
        "key": "t_uint256",
        "label": "mapping(uint256 => uint256[])",
        "numberOfBytes": "32",
        "value": "t_array(t_uint256)dyn_storage"
      },
      "t_mapping(t_uint256,t_bool)": {
        "encoding": "mapping",
        "key": "t_uint256",
        "label": "mapping(uint256 => bool)",
        "numberOfBytes": "32",
        "value": "t_bool"
      },
      "t_mapping(t_uint256,t_contract(CollateralizedBasketToken)8271)": {
        "encoding": "mapping",
        "key": "t_uint256",
        "label": "mapping(uint256 => contract CollateralizedBasketToken)",
        "numberOfBytes": "32",
        "value": "t_contract(CollateralizedBasketToken)8271"
      },
      "t_mapping(t_uint256,t_struct(Batch)15553_storage)": {
        "encoding": "mapping",
        "key": "t_uint256",
        "label": "mapping(uint256 => struct DomainDataTypes.Batch)",
        "numberOfBytes": "32",
        "value": "t_struct(Batch)15553_storage"
      },
      "t_mapping(t_uint256,t_struct(Category)15568_storage)": {
        "encoding": "mapping",
        "key": "t_uint256",
        "label": "mapping(uint256 => struct DomainDataTypes.Category)",
        "numberOfBytes": "32",
        "value": "t_struct(Category)15568_storage"
      },
      "t_mapping(t_uint256,t_uint256)": {
        "encoding": "mapping",
        "key": "t_uint256",
        "label": "mapping(uint256 => uint256)",
        "numberOfBytes": "32",
        "value": "t_uint256"
      },
      "t_struct(Batch)15553_storage": {
        "encoding": "inplace",
        "label": "struct DomainDataTypes.Batch",
        "members": [
          {
            "astId": 15536,
            "contract": "contracts/SolidWorldManager.sol:SolidWorldManager",
            "label": "id",
            "offset": 0,
            "slot": "0",
            "type": "t_uint256"
          },
          {
            "astId": 15538,
            "contract": "contracts/SolidWorldManager.sol:SolidWorldManager",
            "label": "projectId",
            "offset": 0,
            "slot": "1",
            "type": "t_uint256"
          },
          {
            "astId": 15540,
            "contract": "contracts/SolidWorldManager.sol:SolidWorldManager",
            "label": "collateralizedCredits",
            "offset": 0,
            "slot": "2",
            "type": "t_uint256"
          },
          {
            "astId": 15542,
            "contract": "contracts/SolidWorldManager.sol:SolidWorldManager",
            "label": "supplier",
            "offset": 0,
            "slot": "3",
            "type": "t_address"
          },
          {
            "astId": 15544,
            "contract": "contracts/SolidWorldManager.sol:SolidWorldManager",
            "label": "certificationDate",
            "offset": 20,
            "slot": "3",
            "type": "t_uint32"
          },
          {
            "astId": 15546,
            "contract": "contracts/SolidWorldManager.sol:SolidWorldManager",
            "label": "vintage",
            "offset": 24,
            "slot": "3",
            "type": "t_uint16"
          },
          {
            "astId": 15548,
            "contract": "contracts/SolidWorldManager.sol:SolidWorldManager",
            "label": "status",
            "offset": 26,
            "slot": "3",
            "type": "t_uint8"
          },
          {
            "astId": 15550,
            "contract": "contracts/SolidWorldManager.sol:SolidWorldManager",
            "label": "batchTA",
            "offset": 27,
            "slot": "3",
            "type": "t_uint24"
          },
          {
            "astId": 15552,
            "contract": "contracts/SolidWorldManager.sol:SolidWorldManager",
            "label": "isAccumulating",
            "offset": 30,
            "slot": "3",
            "type": "t_bool"
          }
        ],
        "numberOfBytes": "128"
      },
      "t_struct(Category)15568_storage": {
        "encoding": "inplace",
        "label": "struct DomainDataTypes.Category",
        "members": [
          {
            "astId": 15555,
            "contract": "contracts/SolidWorldManager.sol:SolidWorldManager",
            "label": "volumeCoefficient",
            "offset": 0,
            "slot": "0",
            "type": "t_uint256"
          },
          {
            "astId": 15557,
            "contract": "contracts/SolidWorldManager.sol:SolidWorldManager",
            "label": "decayPerSecond",
            "offset": 0,
            "slot": "1",
            "type": "t_uint40"
          },
          {
            "astId": 15559,
            "contract": "contracts/SolidWorldManager.sol:SolidWorldManager",
            "label": "maxDepreciation",
            "offset": 5,
            "slot": "1",
            "type": "t_uint16"
          },
          {
            "astId": 15561,
            "contract": "contracts/SolidWorldManager.sol:SolidWorldManager",
            "label": "averageTA",
            "offset": 7,
            "slot": "1",
            "type": "t_uint24"
          },
          {
            "astId": 15563,
            "contract": "contracts/SolidWorldManager.sol:SolidWorldManager",
            "label": "lastCollateralizationTimestamp",
            "offset": 10,
            "slot": "1",
            "type": "t_uint32"
          },
          {
            "astId": 15565,
            "contract": "contracts/SolidWorldManager.sol:SolidWorldManager",
            "label": "totalCollateralized",
            "offset": 0,
            "slot": "2",
            "type": "t_uint256"
          },
          {
            "astId": 15567,
            "contract": "contracts/SolidWorldManager.sol:SolidWorldManager",
            "label": "lastCollateralizationMomentum",
            "offset": 0,
            "slot": "3",
            "type": "t_uint256"
          }
        ],
        "numberOfBytes": "128"
      },
      "t_struct(Storage)11576_storage": {
        "encoding": "inplace",
        "label": "struct SolidWorldManagerStorage.Storage",
        "members": [
          {
            "astId": 11492,
            "contract": "contracts/SolidWorldManager.sol:SolidWorldManager",
            "label": "categoryCreated",
            "offset": 0,
            "slot": "0",
            "type": "t_mapping(t_uint256,t_bool)"
          },
          {
            "astId": 11497,
            "contract": "contracts/SolidWorldManager.sol:SolidWorldManager",
            "label": "projectCreated",
            "offset": 0,
            "slot": "1",
            "type": "t_mapping(t_uint256,t_bool)"
          },
          {
            "astId": 11502,
            "contract": "contracts/SolidWorldManager.sol:SolidWorldManager",
            "label": "batchCreated",
            "offset": 0,
            "slot": "2",
            "type": "t_mapping(t_uint256,t_bool)"
          },
          {
            "astId": 11508,
            "contract": "contracts/SolidWorldManager.sol:SolidWorldManager",
            "label": "categories",
            "offset": 0,
            "slot": "3",
            "type": "t_mapping(t_uint256,t_struct(Category)15568_storage)"
          },
          {
            "astId": 11514,
            "contract": "contracts/SolidWorldManager.sol:SolidWorldManager",
            "label": "batches",
            "offset": 0,
            "slot": "4",
            "type": "t_mapping(t_uint256,t_struct(Batch)15553_storage)"
          },
          {
            "astId": 11520,
            "contract": "contracts/SolidWorldManager.sol:SolidWorldManager",
            "label": "categoryToken",
            "offset": 0,
            "slot": "5",
            "type": "t_mapping(t_uint256,t_contract(CollateralizedBasketToken)8271)"
          },
          {
            "astId": 11526,
            "contract": "contracts/SolidWorldManager.sol:SolidWorldManager",
            "label": "categoryProjects",
            "offset": 0,
            "slot": "6",
            "type": "t_mapping(t_uint256,t_array(t_uint256)dyn_storage)"
          },
          {
            "astId": 11531,
            "contract": "contracts/SolidWorldManager.sol:SolidWorldManager",
            "label": "projectCategory",
            "offset": 0,
            "slot": "7",
            "type": "t_mapping(t_uint256,t_uint256)"
          },
          {
            "astId": 11536,
            "contract": "contracts/SolidWorldManager.sol:SolidWorldManager",
            "label": "batchCategory",
            "offset": 0,
            "slot": "8",
            "type": "t_mapping(t_uint256,t_uint256)"
          },
          {
            "astId": 11542,
            "contract": "contracts/SolidWorldManager.sol:SolidWorldManager",
            "label": "projectBatches",
            "offset": 0,
            "slot": "9",
            "type": "t_mapping(t_uint256,t_array(t_uint256)dyn_storage)"
          },
          {
            "astId": 11546,
            "contract": "contracts/SolidWorldManager.sol:SolidWorldManager",
            "label": "batchIds",
            "offset": 0,
            "slot": "10",
            "type": "t_array(t_uint256)dyn_storage"
          },
          {
            "astId": 11550,
            "contract": "contracts/SolidWorldManager.sol:SolidWorldManager",
            "label": "_forwardContractBatch",
            "offset": 0,
            "slot": "11",
            "type": "t_contract(ForwardContractBatchToken)8696"
          },
          {
            "astId": 11554,
            "contract": "contracts/SolidWorldManager.sol:SolidWorldManager",
            "label": "_collateralizedBasketTokenDeployer",
            "offset": 0,
            "slot": "12",
            "type": "t_contract(CollateralizedBasketTokenDeployer)8334"
          },
          {
            "astId": 11557,
            "contract": "contracts/SolidWorldManager.sol:SolidWorldManager",
            "label": "weeklyRewardsMinter",
            "offset": 0,
            "slot": "13",
            "type": "t_address"
          },
          {
            "astId": 11560,
            "contract": "contracts/SolidWorldManager.sol:SolidWorldManager",
            "label": "feeReceiver",
            "offset": 0,
            "slot": "14",
            "type": "t_address"
          },
          {
            "astId": 11563,
            "contract": "contracts/SolidWorldManager.sol:SolidWorldManager",
            "label": "timelockController",
            "offset": 0,
            "slot": "15",
            "type": "t_address"
          },
          {
            "astId": 11566,
            "contract": "contracts/SolidWorldManager.sol:SolidWorldManager",
            "label": "collateralizationFee",
            "offset": 20,
            "slot": "15",
            "type": "t_uint16"
          },
          {
            "astId": 11569,
            "contract": "contracts/SolidWorldManager.sol:SolidWorldManager",
            "label": "decollateralizationFee",
            "offset": 22,
            "slot": "15",
            "type": "t_uint16"
          },
          {
            "astId": 11572,
            "contract": "contracts/SolidWorldManager.sol:SolidWorldManager",
            "label": "boostedDecollateralizationFee",
            "offset": 24,
            "slot": "15",
            "type": "t_uint16"
          },
          {
            "astId": 11575,
            "contract": "contracts/SolidWorldManager.sol:SolidWorldManager",
            "label": "rewardsFee",
            "offset": 26,
            "slot": "15",
            "type": "t_uint16"
          }
        ],
        "numberOfBytes": "512"
      },
      "t_uint16": {
        "encoding": "inplace",
        "label": "uint16",
        "numberOfBytes": "2"
      },
      "t_uint24": {
        "encoding": "inplace",
        "label": "uint24",
        "numberOfBytes": "3"
      },
      "t_uint256": {
        "encoding": "inplace",
        "label": "uint256",
        "numberOfBytes": "32"
      },
      "t_uint32": {
        "encoding": "inplace",
        "label": "uint32",
        "numberOfBytes": "4"
      },
      "t_uint40": {
        "encoding": "inplace",
        "label": "uint40",
        "numberOfBytes": "5"
      },
      "t_uint8": {
        "encoding": "inplace",
        "label": "uint8",
        "numberOfBytes": "1"
      }
    }
  }
}