{
  "address": "0x68b3E248bf5AdBA452d63dD40C2fCe7d7714900e",
  "abi": [
    {
      "inputs": [
        {
          "internalType": "address",
          "name": "_verificationRegistry",
          "type": "address"
        }
      ],
      "stateMutability": "nonpayable",
      "type": "constructor"
    },
    {
      "inputs": [],
      "name": "AlreadyInitialized",
      "type": "error"
    },
    {
      "inputs": [
        {
          "internalType": "address",
          "name": "token",
          "type": "address"
        }
      ],
      "name": "InvalidTokenAddress",
      "type": "error"
    },
    {
      "inputs": [],
      "name": "InvalidVerificationRegistry",
      "type": "error"
    },
    {
      "inputs": [
        {
          "internalType": "address",
          "name": "token",
          "type": "address"
        },
        {
          "internalType": "address",
          "name": "subject",
          "type": "address"
        }
      ],
      "name": "NotRegulatoryCompliant",
      "type": "error"
    },
    {
      "inputs": [
        {
          "internalType": "address",
          "name": "token",
          "type": "address"
        }
      ],
      "name": "TokenAlreadyAdded",
      "type": "error"
    },
    {
      "anonymous": false,
      "inputs": [
        {
          "indexed": true,
          "internalType": "address",
          "name": "token",
          "type": "address"
        },
        {
          "indexed": true,
          "internalType": "bool",
          "name": "kycRequired",
          "type": "bool"
        }
      ],
      "name": "KYCRequiredSet",
      "type": "event"
    },
    {
      "anonymous": false,
      "inputs": [
        {
          "indexed": true,
          "internalType": "address",
          "name": "previousOwner",
          "type": "address"
        },
        {
          "indexed": true,
          "internalType": "address",
          "name": "newOwner",
          "type": "address"
        }
      ],
      "name": "OwnershipTransferred",
      "type": "event"
    },
    {
      "anonymous": false,
      "inputs": [
        {
          "indexed": true,
          "internalType": "address",
          "name": "account",
          "type": "address"
        },
        {
          "indexed": true,
          "internalType": "address",
          "name": "token",
          "type": "address"
        },
        {
          "indexed": true,
          "internalType": "uint256",
          "name": "amount",
          "type": "uint256"
        }
      ],
      "name": "Stake",
      "type": "event"
    },
    {
      "anonymous": false,
      "inputs": [
        {
          "indexed": true,
          "internalType": "address",
          "name": "token",
          "type": "address"
        }
      ],
      "name": "TokenAdded",
      "type": "event"
    },
    {
      "anonymous": false,
      "inputs": [
        {
          "indexed": true,
          "internalType": "address",
          "name": "verificationRegistry",
          "type": "address"
        }
      ],
      "name": "VerificationRegistryUpdated",
      "type": "event"
    },
    {
      "anonymous": false,
      "inputs": [
        {
          "indexed": true,
          "internalType": "address",
          "name": "account",
          "type": "address"
        },
        {
          "indexed": true,
          "internalType": "address",
          "name": "token",
          "type": "address"
        },
        {
          "indexed": true,
          "internalType": "uint256",
          "name": "amount",
          "type": "uint256"
        }
      ],
      "name": "Withdraw",
      "type": "event"
    },
    {
      "inputs": [
        {
          "internalType": "address",
          "name": "token",
          "type": "address"
        }
      ],
      "name": "addToken",
      "outputs": [],
      "stateMutability": "nonpayable",
      "type": "function"
    },
    {
      "inputs": [
        {
          "internalType": "address",
          "name": "token",
          "type": "address"
        },
        {
          "internalType": "address",
          "name": "account",
          "type": "address"
        }
      ],
      "name": "balanceOf",
      "outputs": [
        {
          "internalType": "uint256",
          "name": "",
          "type": "uint256"
        }
      ],
      "stateMutability": "view",
      "type": "function"
    },
    {
      "inputs": [],
      "name": "getTokens",
      "outputs": [
        {
          "internalType": "address[]",
          "name": "_tokens",
          "type": "address[]"
        }
      ],
      "stateMutability": "view",
      "type": "function"
    },
    {
      "inputs": [],
      "name": "getVerificationRegistry",
      "outputs": [
        {
          "internalType": "address",
          "name": "",
          "type": "address"
        }
      ],
      "stateMutability": "view",
      "type": "function"
    },
    {
      "inputs": [
        {
          "internalType": "address",
          "name": "token",
          "type": "address"
        }
      ],
      "name": "isKYCRequired",
      "outputs": [
        {
          "internalType": "bool",
          "name": "",
          "type": "bool"
        }
      ],
      "stateMutability": "view",
      "type": "function"
    },
    {
      "inputs": [
        {
          "internalType": "address",
          "name": "counterparty",
          "type": "address"
        },
        {
          "internalType": "bool",
          "name": "_kycRequired",
          "type": "bool"
        }
      ],
      "name": "isValidCounterparty",
      "outputs": [
        {
          "internalType": "bool",
          "name": "",
          "type": "bool"
        }
      ],
      "stateMutability": "view",
      "type": "function"
    },
    {
      "inputs": [],
      "name": "owner",
      "outputs": [
        {
          "internalType": "address",
          "name": "",
          "type": "address"
        }
      ],
      "stateMutability": "view",
      "type": "function"
    },
    {
      "inputs": [],
      "name": "renounceOwnership",
      "outputs": [],
      "stateMutability": "nonpayable",
      "type": "function"
    },
    {
      "inputs": [],
      "name": "rewardsController",
      "outputs": [
        {
          "internalType": "contract IRewardsController",
          "name": "",
          "type": "address"
        }
      ],
      "stateMutability": "view",
      "type": "function"
    },
    {
      "inputs": [
        {
          "internalType": "address",
          "name": "token",
          "type": "address"
        },
        {
          "internalType": "bool",
          "name": "_kycRequired",
          "type": "bool"
        }
      ],
      "name": "setKYCRequired",
      "outputs": [],
      "stateMutability": "nonpayable",
      "type": "function"
    },
    {
      "inputs": [
        {
          "internalType": "address",
          "name": "_verificationRegistry",
          "type": "address"
        }
      ],
      "name": "setVerificationRegistry",
      "outputs": [],
      "stateMutability": "nonpayable",
      "type": "function"
    },
    {
      "inputs": [
        {
          "internalType": "contract IRewardsController",
          "name": "_rewardsController",
          "type": "address"
        },
        {
          "internalType": "address",
          "name": "owner",
          "type": "address"
        }
      ],
      "name": "setup",
      "outputs": [],
      "stateMutability": "nonpayable",
      "type": "function"
    },
    {
      "inputs": [
        {
          "internalType": "address",
          "name": "token",
          "type": "address"
        },
        {
          "internalType": "uint256",
          "name": "amount",
          "type": "uint256"
        }
      ],
      "name": "stake",
      "outputs": [],
      "stateMutability": "nonpayable",
      "type": "function"
    },
    {
      "inputs": [
        {
          "internalType": "address",
          "name": "",
          "type": "address"
        }
      ],
      "name": "tokenAdded",
      "outputs": [
        {
          "internalType": "bool",
          "name": "",
          "type": "bool"
        }
      ],
      "stateMutability": "view",
      "type": "function"
    },
    {
      "inputs": [
        {
          "internalType": "uint256",
          "name": "",
          "type": "uint256"
        }
      ],
      "name": "tokens",
      "outputs": [
        {
          "internalType": "address",
          "name": "",
          "type": "address"
        }
      ],
      "stateMutability": "view",
      "type": "function"
    },
    {
      "inputs": [
        {
          "internalType": "address",
          "name": "token",
          "type": "address"
        }
      ],
      "name": "totalStaked",
      "outputs": [
        {
          "internalType": "uint256",
          "name": "",
          "type": "uint256"
        }
      ],
      "stateMutability": "view",
      "type": "function"
    },
    {
      "inputs": [
        {
          "internalType": "address",
          "name": "newOwner",
          "type": "address"
        }
      ],
      "name": "transferOwnership",
      "outputs": [],
      "stateMutability": "nonpayable",
      "type": "function"
    },
    {
      "inputs": [
        {
          "internalType": "address",
          "name": "",
          "type": "address"
        },
        {
          "internalType": "address",
          "name": "",
          "type": "address"
        }
      ],
      "name": "userStake",
      "outputs": [
        {
          "internalType": "uint256",
          "name": "",
          "type": "uint256"
        }
      ],
      "stateMutability": "view",
      "type": "function"
    },
    {
      "inputs": [
        {
          "internalType": "address",
          "name": "token",
          "type": "address"
        },
        {
          "internalType": "uint256",
          "name": "amount",
          "type": "uint256"
        }
      ],
      "name": "withdraw",
      "outputs": [],
      "stateMutability": "nonpayable",
      "type": "function"
    },
    {
      "inputs": [
        {
          "internalType": "address",
          "name": "token",
          "type": "address"
        },
        {
          "internalType": "uint256",
          "name": "amount",
          "type": "uint256"
        }
      ],
      "name": "withdrawStakeAndClaimRewards",
      "outputs": [],
      "stateMutability": "nonpayable",
      "type": "function"
    }
  ],
  "transactionHash": "0x58768e1da6adb256ed5d1598316c8b69e52d5329dfec41d258e2241b62a57a53",
  "args": [
    "0x93Ab310eB10aE72255E26E858Cb4c1Ed7d115c59"
  ],
  "numDeployments": 1,
  "solcInputHash": "257cb75acc9591f4e17fa59e949f2f9e",
  "bytecode": "0x60806040523480156200001157600080fd5b5060405162001a7338038062001a7383398101604081905262000034916200011e565b600160005580620000453362000082565b806001600160a01b0381166200006e5760405163161a968360e01b815260040160405180910390fd5b6200007982620000d4565b50505062000150565b600180546001600160a01b038381166001600160a01b0319831681179093556040519116919082907f8be0079c531659141344cd1fd0a4f28419497f9722a3daafe3b4186f6b6457e090600090a35050565b600280546001600160a01b0319166001600160a01b0383169081179091556040517fcedf55f14e39eab9ea6df1b72eeb9a4ce7f42a669be00a2d94fc9eaccbe0637390600090a250565b6000602082840312156200013157600080fd5b81516001600160a01b03811681146200014957600080fd5b9392505050565b61191380620001606000396000f3fe608060405234801561001057600080fd5b506004361061016c5760003560e01c806387664f91116100cd578063d48bfca711610081578063f3fef3a311610066578063f3fef3a314610321578063f773f31114610334578063f7888aec1461034757600080fd5b8063d48bfca7146102fb578063f2fde38b1461030e57600080fd5b80639bfd8d61116100b25780639bfd8d61146102c0578063aa6ca808146102d3578063adc9772e146102e857600080fd5b806387664f911461029c5780638da5cb5b146102af57600080fd5b806351bdca3e116101245780636dfeb12f116101095780636dfeb12f14610245578063715018a6146102685780637c7a0cbf1461027057600080fd5b806351bdca3e146101f95780636bb65f531461023257600080fd5b80631ab71eaa116101555780631ab71eaa146101b05780632d34ba79146101d35780634f64b2be146101e657600080fd5b80630aabe439146101715780630c96a12c14610186575b600080fd5b61018461017f3660046114f7565b61035a565b005b6002546001600160a01b03165b6040516001600160a01b0390911681526020015b60405180910390f35b6101c36101be3660046114f7565b6103d4565b60405190151581526020016101a7565b6101846101e1366004611530565b610502565b6101936101f436600461155e565b6105d8565b610224610207366004611530565b600560209081526000928352604080842090915290825290205481565b6040519081526020016101a7565b600754610193906001600160a01b031681565b6101c3610253366004611577565b60046020526000908152604090205460ff1681565b610184610602565b6101c361027e366004611577565b6001600160a01b031660009081526006602052604090205460ff1690565b6101846102aa366004611577565b610616565b6001546001600160a01b0316610193565b6102246102ce366004611577565b61062a565b6102db6106a0565b6040516101a791906115df565b6101846102f63660046115f2565b610702565b610184610309366004611577565b610989565b61018461031c366004611577565b610ab4565b61018461032f3660046115f2565b610b5b565b6101846103423660046115f2565b610c3e565b610224610355366004611530565b610da0565b610362610e2c565b6001600160a01b03821660008181526006602052604080822080547fffffffffffffffffffffffffffffffffffffffffffffffffffffffffffffff001685151590811790915590519092917f852fc2e2378d86df920dabb5bed82e3da45e8b39ae319c0f6501b1c2f843880491a35050565b6002546000906001600160a01b03168215610474576040517f825115770000000000000000000000000000000000000000000000000000000081526001600160a01b038581166004830152821690638251157790602401602060405180830381865afa158015610448573d6000803e3d6000fd5b505050506040513d601f19601f8201168201806040525081019061046c919061161e565b9150506104fc565b6040517ffe575a870000000000000000000000000000000000000000000000000000000081526001600160a01b03858116600483015282169063fe575a8790602401602060405180830381865afa1580156104d3573d6000803e3d6000fd5b505050506040513d601f19601f820116820180604052508101906104f7919061161e565b159150505b92915050565b60015474010000000000000000000000000000000000000000900460ff1615610557576040517f0dc149f000000000000000000000000000000000000000000000000000000000815260040160405180910390fd5b600180547fffffffffffffffffffffff00ffffffffffffffffffffffffffffffffffffffff1674010000000000000000000000000000000000000000179055600780546001600160a01b0384167fffffffffffffffffffffffff00000000000000000000000000000000000000009091161790556105d481610ab4565b5050565b600381815481106105e857600080fd5b6000918252602090912001546001600160a01b0316905081565b61060a610e2c565b6106146000610ea0565b565b61061e610e2c565b61062781610f0a565b50565b6001600160a01b038116600090815260046020526040812054829060ff1661068e576040517f733068030000000000000000000000000000000000000000000000000000000081526001600160a01b03821660048201526024015b60405180910390fd5b61069783610f54565b91505b50919050565b606060038054806020026020016040519081016040528092919081815260200182805480156106f857602002820191906000526020600020905b81546001600160a01b031681526001909101906020018083116106da575b5050505050905090565b60026000540361076e576040517f08c379a000000000000000000000000000000000000000000000000000000000815260206004820152601f60248201527f5265656e7472616e637947756172643a207265656e7472616e742063616c6c006044820152606401610685565b600260009081556001600160a01b038316815260046020526040902054829060ff166107d1576040517f733068030000000000000000000000000000000000000000000000000000000081526001600160a01b0382166004820152602401610685565b6001600160a01b038316600090815260066020526040902054839033906107fc90829060ff166103d4565b610845576040517fc3da7c210000000000000000000000000000000000000000000000000000000081526001600160a01b03808416600483015282166024820152604401610685565b6001600160a01b03851660009081526005602090815260408083203384529091528120549061087387610f54565b905061087f868361166a565b6001600160a01b038881166000818152600560209081526040808320338085529252918290209490945560075490517f184dde8700000000000000000000000000000000000000000000000000000000815260048101929092526024820193909352604481018590526064810184905291169063184dde8790608401600060405180830381600087803b15801561091557600080fd5b505af1158015610929573d6000803e3d6000fd5b50610943925050506001600160a01b038816333089610fd8565b60405186906001600160a01b0389169033907f99039fcf0a98f484616c5196ee8b2ecfa971babf0b519848289ea4db381f85f790600090a4505060016000555050505050565b610991610e2c565b6001600160a01b03811660009081526004602052604090205460ff16156109ef576040517f13501a510000000000000000000000000000000000000000000000000000000081526001600160a01b0382166004820152602401610685565b6003805460018082019092557fc2575a0e9e593c00f959f8c92f12db2869c3395a3b0502d05e2516446f71f85b0180547fffffffffffffffffffffffff0000000000000000000000000000000000000000166001600160a01b03841690811790915560008181526004602052604080822080547fffffffffffffffffffffffffffffffffffffffffffffffffffffffffffffff0016909417909355915190917f784c8f4dbf0ffedd6e72c76501c545a70f8b203b30a26ce542bf92ba87c248a491a250565b610abc610e2c565b6001600160a01b038116610b52576040517f08c379a000000000000000000000000000000000000000000000000000000000815260206004820152602660248201527f4f776e61626c653a206e6577206f776e657220697320746865207a65726f206160448201527f64647265737300000000000000000000000000000000000000000000000000006064820152608401610685565b61062781610ea0565b600260005403610bc7576040517f08c379a000000000000000000000000000000000000000000000000000000000815260206004820152601f60248201527f5265656e7472616e637947756172643a207265656e7472616e742063616c6c006044820152606401610685565b600260009081556001600160a01b038316815260046020526040902054829060ff16610c2a576040517f733068030000000000000000000000000000000000000000000000000000000081526001600160a01b0382166004820152602401610685565b610c3483836110ad565b5050600160005550565b600260005403610caa576040517f08c379a000000000000000000000000000000000000000000000000000000000815260206004820152601f60248201527f5265656e7472616e637947756172643a207265656e7472616e742063616c6c006044820152606401610685565b600260009081556001600160a01b038316815260046020526040902054829060ff16610d0d576040517f733068030000000000000000000000000000000000000000000000000000000081526001600160a01b0382166004820152602401610685565b6001600160a01b03831660009081526006602052604090205483903390610d3890829060ff166103d4565b610d81576040517fc3da7c210000000000000000000000000000000000000000000000000000000081526001600160a01b03808416600483015282166024820152604401610685565b610d8b85856110ad565b610d94856111e8565b50506001600055505050565b6001600160a01b038216600090815260046020526040812054839060ff16610dff576040517f733068030000000000000000000000000000000000000000000000000000000081526001600160a01b0382166004820152602401610685565b50506001600160a01b03918216600090815260056020908152604080832093909416825291909152205490565b6001546001600160a01b03163314610614576040517f08c379a000000000000000000000000000000000000000000000000000000000815260206004820181905260248201527f4f776e61626c653a2063616c6c6572206973206e6f7420746865206f776e65726044820152606401610685565b600180546001600160a01b038381167fffffffffffffffffffffffff0000000000000000000000000000000000000000831681179093556040519116919082907f8be0079c531659141344cd1fd0a4f28419497f9722a3daafe3b4186f6b6457e090600090a35050565b806001600160a01b038116610f4b576040517f161a968300000000000000000000000000000000000000000000000000000000815260040160405180910390fd5b6105d4826112e3565b6040517f70a082310000000000000000000000000000000000000000000000000000000081523060048201526000906001600160a01b038316906370a0823190602401602060405180830381865afa158015610fb4573d6000803e3d6000fd5b505050506040513d601f19601f820116820180604052508101906104fc919061167d565b6040517f23b872dd000000000000000000000000000000000000000000000000000000008082526001600160a01b038581166004840152841660248301526044820183905290600080606483828a5af1611036573d6000803e3d6000fd5b5061104085611345565b6110a6576040517f08c379a000000000000000000000000000000000000000000000000000000000815260206004820152601960248201527f475076323a206661696c6564207472616e7366657246726f6d000000000000006044820152606401610685565b5050505050565b6001600160a01b0382166000908152600560209081526040808320338452909152812054906110db84610f54565b90506110e78383611696565b6001600160a01b038581166000818152600560209081526040808320338085529252918290209490945560075490517f184dde8700000000000000000000000000000000000000000000000000000000815260048101929092526024820193909352604481018590526064810184905291169063184dde8790608401600060405180830381600087803b15801561117d57600080fd5b505af1158015611191573d6000803e3d6000fd5b506111aa925050506001600160a01b038516338561140e565b60405183906001600160a01b0386169033907f9b1bfa7fa9ee420a16e124f794c35ac9f90472acc99140eb2f6447c714cad8eb90600090a450505050565b60408051600180825281830190925260009160208083019080368337019050509050818160008151811061121e5761121e6116d8565b6001600160a01b0392831660209182029290920101526007546040517f9ff55db9000000000000000000000000000000000000000000000000000000008152911690639ff55db99061127890849033908190600401611707565b6000604051808303816000875af1158015611297573d6000803e3d6000fd5b505050506040513d6000823e601f3d9081017fffffffffffffffffffffffffffffffffffffffffffffffffffffffffffffffe01682016040526112dd9190810190611818565b50505050565b600280547fffffffffffffffffffffffff0000000000000000000000000000000000000000166001600160a01b0383169081179091556040517fcedf55f14e39eab9ea6df1b72eeb9a4ce7f42a669be00a2d94fc9eaccbe0637390600090a250565b6000611384565b7f08c379a000000000000000000000000000000000000000000000000000000000600052602060045280602452508060445260646000fd5b3d80156113c357602081146113fd576113be7f475076323a206d616c666f726d6564207472616e7366657220726573756c7400601f61134c565b61069a565b823b6113f4576113f47f475076323a206e6f74206120636f6e7472616374000000000000000000000000601461134c565b6001915061069a565b3d6000803e50506000511515919050565b6040517fa9059cbb000000000000000000000000000000000000000000000000000000008082526001600160a01b0384166004830152602482018390529060008060448382895af1611464573d6000803e3d6000fd5b5061146e84611345565b6112dd576040517f08c379a000000000000000000000000000000000000000000000000000000000815260206004820152601560248201527f475076323a206661696c6564207472616e7366657200000000000000000000006044820152606401610685565b6001600160a01b038116811461062757600080fd5b801515811461062757600080fd5b6000806040838503121561150a57600080fd5b8235611515816114d4565b91506020830135611525816114e9565b809150509250929050565b6000806040838503121561154357600080fd5b823561154e816114d4565b91506020830135611525816114d4565b60006020828403121561157057600080fd5b5035919050565b60006020828403121561158957600080fd5b8135611594816114d4565b9392505050565b600081518084526020808501945080840160005b838110156115d45781516001600160a01b0316875295820195908201906001016115af565b509495945050505050565b602081526000611594602083018461159b565b6000806040838503121561160557600080fd5b8235611610816114d4565b946020939093013593505050565b60006020828403121561163057600080fd5b8151611594816114e9565b7f4e487b7100000000000000000000000000000000000000000000000000000000600052601160045260246000fd5b808201808211156104fc576104fc61163b565b60006020828403121561168f57600080fd5b5051919050565b818103818111156104fc576104fc61163b565b7f4e487b7100000000000000000000000000000000000000000000000000000000600052604160045260246000fd5b7f4e487b7100000000000000000000000000000000000000000000000000000000600052603260045260246000fd5b60608152600061171a606083018661159b565b6001600160a01b0394851660208401529290931660409091015292915050565b604051601f82017fffffffffffffffffffffffffffffffffffffffffffffffffffffffffffffffe016810167ffffffffffffffff81118282101715611781576117816116a9565b604052919050565b600067ffffffffffffffff8211156117a3576117a36116a9565b5060051b60200190565b600082601f8301126117be57600080fd5b815160206117d36117ce83611789565b61173a565b82815260059290921b840181019181810190868411156117f257600080fd5b8286015b8481101561180d57805183529183019183016117f6565b509695505050505050565b6000806040838503121561182b57600080fd5b825167ffffffffffffffff8082111561184357600080fd5b818501915085601f83011261185757600080fd5b815160206118676117ce83611789565b82815260059290921b8401810191818101908984111561188657600080fd5b948201945b838610156118ad57855161189e816114d4565b8252948201949082019061188b565b918801519196509093505050808211156118c657600080fd5b506118d3858286016117ad565b915050925092905056fea2646970667358221220d4b2fce3fffd6abf4ea73eb1da069ddb8d263c90c91ceb300eac3771790b9cf564736f6c63430008100033",
  "devdoc": {
    "author": "Solid World",
    "kind": "dev",
    "methods": {
      "addToken(address)": {
        "details": "Adds a new token to the staking contract",
        "params": {
          "token": "the token to add"
        }
      },
      "balanceOf(address,address)": {
        "details": "Computes the amount of tokens that the `account` has staked",
        "params": {
          "account": "the account to check",
          "token": "the token to check"
        },
        "returns": {
          "_0": "the amount of `token` tokens that the `account` has staked"
        }
      },
      "getTokens()": {
        "details": "Returns the list of tokens that can be staked",
        "returns": {
          "_tokens": "the list of tokens that can be staked"
        }
      },
      "isKYCRequired(address)": {
        "returns": {
          "_0": "whether the specified token requires msg.sender to be KYCed before staking"
        }
      },
      "isValidCounterparty(address,bool)": {
        "returns": {
          "_0": "true if the counterparty is compliant according to the current verification registry, taking into account the KYC requirement."
        }
      },
      "owner()": {
        "details": "Returns the address of the current owner."
      },
      "renounceOwnership()": {
        "details": "Leaves the contract without owner. It will not be possible to call `onlyOwner` functions anymore. Can only be called by the current owner. NOTE: Renouncing ownership will leave the contract without an owner, thereby removing any functionality that is only available to the owner."
      },
      "setKYCRequired(address,bool)": {
        "params": {
          "kycRequired": "whether the specified token requires msg.sender to be KYCed before staking",
          "token": "to set KYC requirement for"
        }
      },
      "stake(address,uint256)": {
        "details": "Stakes tokens for the caller into the staking contract",
        "params": {
          "amount": "the amount to stake",
          "token": "the token to stake"
        }
      },
      "totalStaked(address)": {
        "details": "Computes the total amount of tokens that have been staked",
        "params": {
          "token": "the token to check"
        },
        "returns": {
          "_0": "the total amount of `token` tokens that have been staked"
        }
      },
      "transferOwnership(address)": {
        "details": "Transfers ownership of the contract to a new account (`newOwner`). Can only be called by the current owner."
      },
      "withdraw(address,uint256)": {
        "details": "Withdraws tokens for the caller from the staking contract",
        "params": {
          "amount": "the amount to withdraw",
          "token": "the token to withdraw"
        }
      },
      "withdrawStakeAndClaimRewards(address,uint256)": {
        "details": "Withdraws tokens for the caller from the staking contractClaims all rewards of the incentivized `token` for the caller",
        "params": {
          "amount": "the amount to withdraw",
          "token": "the token to withdraw"
        }
      }
    },
    "stateVariables": {
      "kycRequired": {
        "details": "token => requires KYC"
      },
      "rewardsController": {
        "details": "Main contract used for interacting with rewards mechanism."
      },
      "tokens": {
        "details": "All stakable lp tokens."
      },
      "userStake": {
        "details": "Mapping with the staked amount of each account for each token.token => user => amount"
      }
    },
    "version": 1
  },
  "userdoc": {
    "kind": "user",
    "methods": {},
    "version": 1
  },
  "storageLayout": {
    "storage": [
      {
        "astId": 803,
        "contract": "contracts/SolidStaking.sol:SolidStaking",
        "label": "_status",
        "offset": 0,
        "slot": "0",
        "type": "t_uint256"
      },
      {
        "astId": 687,
        "contract": "contracts/SolidStaking.sol:SolidStaking",
        "label": "_owner",
        "offset": 0,
        "slot": "1",
        "type": "t_address"
      },
      {
        "astId": 8458,
        "contract": "contracts/SolidStaking.sol:SolidStaking",
        "label": "_initialized",
        "offset": 20,
        "slot": "1",
        "type": "t_bool"
      },
      {
        "astId": 10277,
        "contract": "contracts/SolidStaking.sol:SolidStaking",
        "label": "verificationRegistry",
        "offset": 0,
        "slot": "2",
        "type": "t_address"
      },
      {
        "astId": 8502,
        "contract": "contracts/SolidStaking.sol:SolidStaking",
        "label": "tokens",
        "offset": 0,
        "slot": "3",
        "type": "t_array(t_address)dyn_storage"
      },
      {
        "astId": 8506,
        "contract": "contracts/SolidStaking.sol:SolidStaking",
        "label": "tokenAdded",
        "offset": 0,
        "slot": "4",
        "type": "t_mapping(t_address,t_bool)"
      },
      {
        "astId": 8513,
        "contract": "contracts/SolidStaking.sol:SolidStaking",
        "label": "userStake",
        "offset": 0,
        "slot": "5",
        "type": "t_mapping(t_address,t_mapping(t_address,t_uint256))"
      },
      {
        "astId": 8518,
        "contract": "contracts/SolidStaking.sol:SolidStaking",
        "label": "kycRequired",
        "offset": 0,
        "slot": "6",
        "type": "t_mapping(t_address,t_bool)"
      },
      {
        "astId": 8522,
        "contract": "contracts/SolidStaking.sol:SolidStaking",
        "label": "rewardsController",
        "offset": 0,
        "slot": "7",
        "type": "t_contract(IRewardsController)11640"
      }
    ],
    "types": {
      "t_address": {
        "encoding": "inplace",
        "label": "address",
        "numberOfBytes": "20"
      },
      "t_array(t_address)dyn_storage": {
        "base": "t_address",
        "encoding": "dynamic_array",
        "label": "address[]",
        "numberOfBytes": "32"
      },
      "t_bool": {
        "encoding": "inplace",
        "label": "bool",
        "numberOfBytes": "1"
      },
      "t_contract(IRewardsController)11640": {
        "encoding": "inplace",
        "label": "contract IRewardsController",
        "numberOfBytes": "20"
      },
      "t_mapping(t_address,t_bool)": {
        "encoding": "mapping",
        "key": "t_address",
        "label": "mapping(address => bool)",
        "numberOfBytes": "32",
        "value": "t_bool"
      },
      "t_mapping(t_address,t_mapping(t_address,t_uint256))": {
        "encoding": "mapping",
        "key": "t_address",
        "label": "mapping(address => mapping(address => uint256))",
        "numberOfBytes": "32",
        "value": "t_mapping(t_address,t_uint256)"
      },
      "t_mapping(t_address,t_uint256)": {
        "encoding": "mapping",
        "key": "t_address",
        "label": "mapping(address => uint256)",
        "numberOfBytes": "32",
        "value": "t_uint256"
      },
      "t_uint256": {
        "encoding": "inplace",
        "label": "uint256",
        "numberOfBytes": "32"
      }
    }
  }
}