{
  "address": "0xa23D8b8e7e0dCde5fc213DaC537B3Fc91aBe17f5",
  "abi": [
    {
      "inputs": [],
      "name": "AlreadyInitialized",
      "type": "error"
    },
    {
      "inputs": [],
      "name": "InvalidInput",
      "type": "error"
    },
    {
      "inputs": [
        {
          "internalType": "address",
          "name": "sender",
          "type": "address"
        },
        {
          "internalType": "address",
          "name": "reward",
          "type": "address"
        }
      ],
      "name": "NotEmissionAdmin",
      "type": "error"
    },
    {
      "anonymous": false,
      "inputs": [
        {
          "indexed": true,
          "internalType": "address",
          "name": "newCarbonRewardsManager",
          "type": "address"
        }
      ],
      "name": "CarbonRewardsManagerUpdated",
      "type": "event"
    },
    {
      "anonymous": false,
      "inputs": [
        {
          "indexed": true,
          "internalType": "address",
          "name": "reward",
          "type": "address"
        },
        {
          "indexed": true,
          "internalType": "address",
          "name": "oldAdmin",
          "type": "address"
        },
        {
          "indexed": true,
          "internalType": "address",
          "name": "newAdmin",
          "type": "address"
        }
      ],
      "name": "EmissionAdminUpdated",
      "type": "event"
    },
    {
      "anonymous": false,
      "inputs": [
        {
          "indexed": true,
          "internalType": "address",
          "name": "previousOwner",
          "type": "address"
        },
        {
          "indexed": true,
          "internalType": "address",
          "name": "newOwner",
          "type": "address"
        }
      ],
      "name": "OwnershipTransferred",
      "type": "event"
    },
    {
      "anonymous": false,
      "inputs": [
        {
          "indexed": true,
          "internalType": "address",
          "name": "newRewardsController",
          "type": "address"
        }
      ],
      "name": "RewardsControllerUpdated",
      "type": "event"
    },
    {
      "inputs": [
        {
          "components": [
            {
              "internalType": "uint88",
              "name": "emissionPerSecond",
              "type": "uint88"
            },
            {
              "internalType": "uint256",
              "name": "totalStaked",
              "type": "uint256"
            },
            {
              "internalType": "uint32",
              "name": "distributionEnd",
              "type": "uint32"
            },
            {
              "internalType": "address",
              "name": "asset",
              "type": "address"
            },
            {
              "internalType": "address",
              "name": "reward",
              "type": "address"
            },
            {
              "internalType": "contract IEACAggregatorProxy",
              "name": "rewardOracle",
              "type": "address"
            }
          ],
          "internalType": "struct RewardsDataTypes.DistributionConfig[]",
          "name": "config",
          "type": "tuple[]"
        }
      ],
      "name": "configureAssets",
      "outputs": [],
      "stateMutability": "nonpayable",
      "type": "function"
    },
    {
      "inputs": [],
      "name": "getCarbonRewardsManager",
      "outputs": [
        {
          "internalType": "address",
          "name": "",
          "type": "address"
        }
      ],
      "stateMutability": "view",
      "type": "function"
    },
    {
      "inputs": [
        {
          "internalType": "address",
          "name": "reward",
          "type": "address"
        }
      ],
      "name": "getEmissionAdmin",
      "outputs": [
        {
          "internalType": "address",
          "name": "",
          "type": "address"
        }
      ],
      "stateMutability": "view",
      "type": "function"
    },
    {
      "inputs": [],
      "name": "getRewardsController",
      "outputs": [
        {
          "internalType": "contract IRewardsController",
          "name": "",
          "type": "address"
        }
      ],
      "stateMutability": "view",
      "type": "function"
    },
    {
      "inputs": [],
      "name": "owner",
      "outputs": [
        {
          "internalType": "address",
          "name": "",
          "type": "address"
        }
      ],
      "stateMutability": "view",
      "type": "function"
    },
    {
      "inputs": [],
      "name": "renounceOwnership",
      "outputs": [],
      "stateMutability": "nonpayable",
      "type": "function"
    },
    {
      "inputs": [
        {
          "internalType": "address",
          "name": "carbonRewardsManager",
          "type": "address"
        }
      ],
      "name": "setCarbonRewardsManager",
      "outputs": [],
      "stateMutability": "nonpayable",
      "type": "function"
    },
    {
      "inputs": [
        {
          "internalType": "address",
          "name": "user",
          "type": "address"
        },
        {
          "internalType": "address",
          "name": "claimer",
          "type": "address"
        }
      ],
      "name": "setClaimer",
      "outputs": [],
      "stateMutability": "nonpayable",
      "type": "function"
    },
    {
      "inputs": [
        {
          "internalType": "address",
          "name": "asset",
          "type": "address"
        },
        {
          "internalType": "address",
          "name": "reward",
          "type": "address"
        },
        {
          "internalType": "uint32",
          "name": "newDistributionEnd",
          "type": "uint32"
        }
      ],
      "name": "setDistributionEnd",
      "outputs": [],
      "stateMutability": "nonpayable",
      "type": "function"
    },
    {
      "inputs": [
        {
          "internalType": "address",
          "name": "reward",
          "type": "address"
        },
        {
          "internalType": "address",
          "name": "admin",
          "type": "address"
        }
      ],
      "name": "setEmissionAdmin",
      "outputs": [],
      "stateMutability": "nonpayable",
      "type": "function"
    },
    {
      "inputs": [
        {
          "internalType": "address",
          "name": "emissionManager",
          "type": "address"
        }
      ],
      "name": "setEmissionManager",
      "outputs": [],
      "stateMutability": "nonpayable",
      "type": "function"
    },
    {
      "inputs": [
        {
          "internalType": "address",
          "name": "asset",
          "type": "address"
        },
        {
          "internalType": "address[]",
          "name": "rewards",
          "type": "address[]"
        },
        {
          "internalType": "uint88[]",
          "name": "newEmissionsPerSecond",
          "type": "uint88[]"
        }
      ],
      "name": "setEmissionPerSecond",
      "outputs": [],
      "stateMutability": "nonpayable",
      "type": "function"
    },
    {
      "inputs": [
        {
          "internalType": "address",
          "name": "reward",
          "type": "address"
        },
        {
          "internalType": "contract IEACAggregatorProxy",
          "name": "rewardOracle",
          "type": "address"
        }
      ],
      "name": "setRewardOracle",
      "outputs": [],
      "stateMutability": "nonpayable",
      "type": "function"
    },
    {
      "inputs": [
        {
          "internalType": "address",
          "name": "controller",
          "type": "address"
        }
      ],
      "name": "setRewardsController",
      "outputs": [],
      "stateMutability": "nonpayable",
      "type": "function"
    },
    {
      "inputs": [
        {
          "internalType": "address",
          "name": "rewardsVault",
          "type": "address"
        }
      ],
      "name": "setRewardsVault",
      "outputs": [],
      "stateMutability": "nonpayable",
      "type": "function"
    },
    {
      "inputs": [
        {
          "internalType": "address",
          "name": "solidStaking",
          "type": "address"
        }
      ],
      "name": "setSolidStaking",
      "outputs": [],
      "stateMutability": "nonpayable",
      "type": "function"
    },
    {
      "inputs": [
        {
          "internalType": "address",
          "name": "carbonRewardsManager",
          "type": "address"
        },
        {
          "internalType": "address",
          "name": "controller",
          "type": "address"
        },
        {
          "internalType": "address",
          "name": "owner",
          "type": "address"
        }
      ],
      "name": "setup",
      "outputs": [],
      "stateMutability": "nonpayable",
      "type": "function"
    },
    {
      "inputs": [
        {
          "internalType": "address",
          "name": "newOwner",
          "type": "address"
        }
      ],
      "name": "transferOwnership",
      "outputs": [],
      "stateMutability": "nonpayable",
      "type": "function"
    },
    {
      "inputs": [
        {
          "internalType": "address[]",
          "name": "assets",
          "type": "address[]"
        },
        {
          "internalType": "uint256[]",
          "name": "categoryIds",
          "type": "uint256[]"
        }
      ],
      "name": "updateCarbonRewardDistribution",
      "outputs": [],
      "stateMutability": "nonpayable",
      "type": "function"
    }
  ],
  "transactionHash": "0x8888f9296bf6ffeb84681b473be1144ef7adec7ac908aa1895638fb51f1a6bf6",
  "args": [],
  "numDeployments": 1,
  "solcInputHash": "adf8dc5a593b2d373e02ec07bbd88a19",
  "bytecode": "0x608060405234801561001057600080fd5b5061001a33610023565b60018055610073565b600080546001600160a01b038381166001600160a01b0319831681178455604051919092169283917f8be0079c531659141344cd1fd0a4f28419497f9722a3daafe3b4186f6b6457e09190a35050565b611b17806100826000396000f3fe608060405234801561001057600080fd5b50600436106101515760003560e01c8063a286c6b4116100cd578063f2fde38b11610081578063f5cf673b11610066578063f5cf673b146102ed578063f996868b14610300578063fdc560be1461031357600080fd5b8063f2fde38b146102c7578063f5bb3e02146102da57600080fd5b8063c040af69116100b2578063c040af6914610283578063c5a7b53814610296578063de262738146102a957600080fd5b8063a286c6b41461025d578063bee36bb31461027057600080fd5b8063704e7f4511610124578063715018a611610109578063715018a61461022457806377b8b1c71461022c5780638da5cb5b1461023f57600080fd5b8063704e7f45146101f3578063707199e51461021157600080fd5b8063198af1f9146101565780634f7459d51461016b578063529b1e871461017e5780635453ba10146101e0575b600080fd5b61016961016436600461119a565b610326565b005b61016961017936600461119a565b61033a565b6101b761018c36600461119a565b73ffffffffffffffffffffffffffffffffffffffff9081166000908152600260205260409020541690565b60405173ffffffffffffffffffffffffffffffffffffffff909116815260200160405180910390f35b6101696101ee3660046111be565b6103cd565b60035473ffffffffffffffffffffffffffffffffffffffff166101b7565b61016961021f3660046112f6565b6104e6565b61016961063a565b61016961023a366004611400565b61064e565b60005473ffffffffffffffffffffffffffffffffffffffff166101b7565b61016961026b3660046111be565b610702565b61016961027e36600461119a565b610793565b61016961029136600461119a565b6107a4565b6101696102a436600461144b565b610806565b60045473ffffffffffffffffffffffffffffffffffffffff166101b7565b6101696102d536600461119a565b610927565b6101696102e836600461119a565b6109db565b6101696102fb3660046111be565b610a3d565b61016961030e3660046114de565b610ad8565b610169610321366004611561565b610c61565b61032e610f31565b61033781610fb2565b50565b610342610f31565b600480546040517f4f7459d500000000000000000000000000000000000000000000000000000000815273ffffffffffffffffffffffffffffffffffffffff84811693820193909352911690634f7459d5906024015b600060405180830381600087803b1580156103b257600080fd5b505af11580156103c6573d6000803e3d6000fd5b5050505050565b73ffffffffffffffffffffffffffffffffffffffff8083166000908152600260205260409020548391163314610452576040517f8c34b5a500000000000000000000000000000000000000000000000000000000815233600482015273ffffffffffffffffffffffffffffffffffffffff821660248201526044015b60405180910390fd5b600480546040517f5453ba1000000000000000000000000000000000000000000000000000000000815273ffffffffffffffffffffffffffffffffffffffff868116938201939093528483166024820152911690635453ba1090604401600060405180830381600087803b1580156104c957600080fd5b505af11580156104dd573d6000803e3d6000fd5b50505050505050565b60005b81518110156105e4573373ffffffffffffffffffffffffffffffffffffffff166002600084848151811061051f5761051f6115cd565b6020908102919091018101516080015173ffffffffffffffffffffffffffffffffffffffff9081168352908201929092526040016000205416146105d25733828281518110610570576105706115cd565b6020026020010151608001516040517f8c34b5a500000000000000000000000000000000000000000000000000000000815260040161044992919073ffffffffffffffffffffffffffffffffffffffff92831681529116602082015260400190565b806105dc816115fc565b9150506104e9565b50600480546040517f707199e500000000000000000000000000000000000000000000000000000000815273ffffffffffffffffffffffffffffffffffffffff9091169163707199e5916103989185910161165b565b610642610f31565b61064c6000611021565b565b60005474010000000000000000000000000000000000000000900460ff16156106a3576040517f0dc149f000000000000000000000000000000000000000000000000000000000815260040160405180910390fd5b600080547fffffffffffffffffffffff00ffffffffffffffffffffffffffffffffffffffff16740100000000000000000000000000000000000000001790556106eb83610fb2565b6106f482611096565b6106fd81610927565b505050565b61070a610f31565b73ffffffffffffffffffffffffffffffffffffffff80831660008181526002602052604080822080548686167fffffffffffffffffffffffff0000000000000000000000000000000000000000821681179092559151919094169392849290917fda40ea421dd7e42cf8be71255facac4fdc12a3f70f4d5fd373cb16cec4cb53849190a4505050565b61079b610f31565b61033781611096565b6107ac610f31565b600480546040517fc040af6900000000000000000000000000000000000000000000000000000000815273ffffffffffffffffffffffffffffffffffffffff8481169382019390935291169063c040af6990602401610398565b73ffffffffffffffffffffffffffffffffffffffff8083166000908152600260205260409020548391163314610886576040517f8c34b5a500000000000000000000000000000000000000000000000000000000815233600482015273ffffffffffffffffffffffffffffffffffffffff82166024820152604401610449565b600480546040517fc5a7b53800000000000000000000000000000000000000000000000000000000815273ffffffffffffffffffffffffffffffffffffffff87811693820193909352858316602482015263ffffffff8516604482015291169063c5a7b53890606401600060405180830381600087803b15801561090957600080fd5b505af115801561091d573d6000803e3d6000fd5b5050505050505050565b61092f610f31565b73ffffffffffffffffffffffffffffffffffffffff81166109d2576040517f08c379a000000000000000000000000000000000000000000000000000000000815260206004820152602660248201527f4f776e61626c653a206e6577206f776e657220697320746865207a65726f206160448201527f64647265737300000000000000000000000000000000000000000000000000006064820152608401610449565b61033781611021565b6109e3610f31565b600480546040517ff5bb3e0200000000000000000000000000000000000000000000000000000000815273ffffffffffffffffffffffffffffffffffffffff8481169382019390935291169063f5bb3e0290602401610398565b610a45610f31565b600480546040517ff5cf673b00000000000000000000000000000000000000000000000000000000815273ffffffffffffffffffffffffffffffffffffffff85811693820193909352838316602482015291169063f5cf673b90604401600060405180830381600087803b158015610abc57600080fd5b505af1158015610ad0573d6000803e3d6000fd5b505050505050565b60005b83811015610bca573360026000878785818110610afa57610afa6115cd565b9050602002016020810190610b0f919061119a565b73ffffffffffffffffffffffffffffffffffffffff90811682526020820192909252604001600020541614610bb85733858583818110610b5157610b516115cd565b9050602002016020810190610b66919061119a565b6040517f8c34b5a500000000000000000000000000000000000000000000000000000000815273ffffffffffffffffffffffffffffffffffffffff928316600482015291166024820152604401610449565b80610bc2816115fc565b915050610adb565b50600480546040517ff996868b00000000000000000000000000000000000000000000000000000000815273ffffffffffffffffffffffffffffffffffffffff9091169163f996868b91610c2891899189918991899189910161175a565b600060405180830381600087803b158015610c4257600080fd5b505af1158015610c56573d6000803e3d6000fd5b505050505050505050565b610c69611105565b828114610ca2576040517fb4fa3fb300000000000000000000000000000000000000000000000000000000815260040160405180910390fd5b6003546040517fc7878a570000000000000000000000000000000000000000000000000000000081526000918291829173ffffffffffffffffffffffffffffffffffffffff169063c7878a5790610cff9088908890600401611826565b600060405180830381865afa158015610d1c573d6000803e3d6000fd5b505050506040513d6000823e601f3d9081017fffffffffffffffffffffffffffffffffffffffffffffffffffffffffffffffe0168201604052610d6291908101906118a8565b600480546040517f38be719f00000000000000000000000000000000000000000000000000000000815294975092955090935073ffffffffffffffffffffffffffffffffffffffff909116916338be719f91610dc6918b918b918991899101611a07565b600060405180830381600087803b158015610de057600080fd5b505af1158015610df4573d6000803e3d6000fd5b50505050600360009054906101000a900473ffffffffffffffffffffffffffffffffffffffff1673ffffffffffffffffffffffffffffffffffffffff16635ba18df88686868686600460009054906101000a900473ffffffffffffffffffffffffffffffffffffffff1673ffffffffffffffffffffffffffffffffffffffff1663e23ddec56040518163ffffffff1660e01b8152600401602060405180830381865afa158015610ea8573d6000803e3d6000fd5b505050506040513d601f19601f82011682018060405250810190610ecc9190611a4c565b6040518763ffffffff1660e01b8152600401610eed96959493929190611a69565b600060405180830381600087803b158015610f0757600080fd5b505af1158015610f1b573d6000803e3d6000fd5b50505050505050610f2b60018055565b50505050565b60005473ffffffffffffffffffffffffffffffffffffffff16331461064c576040517f08c379a000000000000000000000000000000000000000000000000000000000815260206004820181905260248201527f4f776e61626c653a2063616c6c6572206973206e6f7420746865206f776e65726044820152606401610449565b600380547fffffffffffffffffffffffff00000000000000000000000000000000000000001673ffffffffffffffffffffffffffffffffffffffff83169081179091556040517f37834353422d316ecfa7a8ebecce4e945bacfdf53e9bcd8d5844aea51577a39590600090a250565b6000805473ffffffffffffffffffffffffffffffffffffffff8381167fffffffffffffffffffffffff0000000000000000000000000000000000000000831681178455604051919092169283917f8be0079c531659141344cd1fd0a4f28419497f9722a3daafe3b4186f6b6457e09190a35050565b600480547fffffffffffffffffffffffff00000000000000000000000000000000000000001673ffffffffffffffffffffffffffffffffffffffff83169081179091556040517f08e962872d9796488814bf2f7d7dcdc15d57086084be8d69a2f2fee06524d0f790600090a250565b600260015403611171576040517f08c379a000000000000000000000000000000000000000000000000000000000815260206004820152601f60248201527f5265656e7472616e637947756172643a207265656e7472616e742063616c6c006044820152606401610449565b6002600155565b73ffffffffffffffffffffffffffffffffffffffff8116811461033757600080fd5b6000602082840312156111ac57600080fd5b81356111b781611178565b9392505050565b600080604083850312156111d157600080fd5b82356111dc81611178565b915060208301356111ec81611178565b809150509250929050565b7f4e487b7100000000000000000000000000000000000000000000000000000000600052604160045260246000fd5b60405160c0810167ffffffffffffffff81118282101715611249576112496111f7565b60405290565b604051601f82017fffffffffffffffffffffffffffffffffffffffffffffffffffffffffffffffe016810167ffffffffffffffff81118282101715611296576112966111f7565b604052919050565b600067ffffffffffffffff8211156112b8576112b86111f7565b5060051b60200190565b80356affffffffffffffffffffff811681146112dd57600080fd5b919050565b803563ffffffff811681146112dd57600080fd5b6000602080838503121561130957600080fd5b823567ffffffffffffffff81111561132057600080fd5b8301601f8101851361133157600080fd5b803561134461133f8261129e565b61124f565b81815260c0918202830184019184820191908884111561136357600080fd5b938501935b838510156113f45780858a0312156113805760008081fd5b611388611226565b611391866112c2565b8152868601358782015260406113a88188016112e2565b908201526060868101356113bb81611178565b908201526080868101356113ce81611178565b9082015260a0868101356113e181611178565b9082015283529384019391850191611368565b50979650505050505050565b60008060006060848603121561141557600080fd5b833561142081611178565b9250602084013561143081611178565b9150604084013561144081611178565b809150509250925092565b60008060006060848603121561146057600080fd5b833561146b81611178565b9250602084013561147b81611178565b9150611489604085016112e2565b90509250925092565b60008083601f8401126114a457600080fd5b50813567ffffffffffffffff8111156114bc57600080fd5b6020830191508360208260051b85010111156114d757600080fd5b9250929050565b6000806000806000606086880312156114f657600080fd5b853561150181611178565b9450602086013567ffffffffffffffff8082111561151e57600080fd5b61152a89838a01611492565b9096509450604088013591508082111561154357600080fd5b5061155088828901611492565b969995985093965092949392505050565b6000806000806040858703121561157757600080fd5b843567ffffffffffffffff8082111561158f57600080fd5b61159b88838901611492565b909650945060208701359150808211156115b457600080fd5b506115c187828801611492565b95989497509550505050565b7f4e487b7100000000000000000000000000000000000000000000000000000000600052603260045260246000fd5b60007fffffffffffffffffffffffffffffffffffffffffffffffffffffffffffffffff8203611654577f4e487b7100000000000000000000000000000000000000000000000000000000600052601160045260246000fd5b5060010190565b602080825282518282018190526000919060409081850190868401855b828110156116f757815180516affffffffffffffffffffff16855286810151878601528581015163ffffffff168686015260608082015173ffffffffffffffffffffffffffffffffffffffff9081169187019190915260808083015182169087015260a091820151169085015260c09093019290850190600101611678565b5091979650505050505050565b8183526000602080850194508260005b8581101561174f57813561172781611178565b73ffffffffffffffffffffffffffffffffffffffff1687529582019590820190600101611714565b509495945050505050565b73ffffffffffffffffffffffffffffffffffffffff861681526000602060608184015261178b606084018789611704565b83810360408501528481528590820160005b868110156117cd576affffffffffffffffffffff6117ba846112c2565b168252918301919083019060010161179d565b509998505050505050505050565b81835260007f07ffffffffffffffffffffffffffffffffffffffffffffffffffffffffffffff83111561180d57600080fd5b8260051b80836020870137939093016020019392505050565b60208152600061183a6020830184866117db565b949350505050565b600082601f83011261185357600080fd5b8151602061186361133f8361129e565b82815260059290921b8401810191818101908684111561188257600080fd5b8286015b8481101561189d5780518352918301918301611886565b509695505050505050565b6000806000606084860312156118bd57600080fd5b835167ffffffffffffffff808211156118d557600080fd5b818601915086601f8301126118e957600080fd5b815160206118f961133f8361129e565b82815260059290921b8401810191818101908a84111561191857600080fd5b948201945b8386101561193f57855161193081611178565b8252948201949082019061191d565b9189015191975090935050508082111561195857600080fd5b61196487838801611842565b9350604086015191508082111561197a57600080fd5b5061198786828701611842565b9150509250925092565b600081518084526020808501945080840160005b8381101561174f57815173ffffffffffffffffffffffffffffffffffffffff16875295820195908201906001016119a5565b600081518084526020808501945080840160005b8381101561174f578151875295820195908201906001016119eb565b606081526000611a1b606083018688611704565b8281036020840152611a2d8186611991565b90508281036040840152611a4181856119d7565b979650505050505050565b600060208284031215611a5e57600080fd5b81516111b781611178565b60a081526000611a7d60a08301888a6117db565b8281036020840152611a8f8188611991565b90508281036040840152611aa381876119d7565b90508281036060840152611ab781866119d7565b91505073ffffffffffffffffffffffffffffffffffffffff8316608083015297965050505050505056fea26469706673582212200478cee3181440b81bb1b1ce069e75fc410713adc1e08df73612646deb1977c364736f6c63430008100033",
  "devdoc": {
    "author": "Aave",
    "kind": "dev",
    "methods": {
      "configureAssets((uint88,uint256,uint32,address,address,address)[])": {
        "details": "Configure assets to incentivize with an emission of rewards per second until the end of distribution.Only callable by the emission admin of the given rewards",
        "params": {
          "config": "The assets configuration input, the list of structs contains the following fields:   uint104 emissionPerSecond: The emission per second following rewards unit decimals.   uint256 totalSupply: The total supply of the asset to incentivize   uint40 distributionEnd: The end of the distribution of the incentives for an asset   address asset: The asset address to incentivize   address reward: The reward token address   IEACAggregatorProxy rewardOracle: The Price Oracle of a reward to visualize the incentives at the UI Frontend.                                     Must follow Chainlink Aggregator IEACAggregatorProxy interface to be compatible."
        }
      },
      "getCarbonRewardsManager()": {
        "returns": {
          "_0": "The address of the IWeeklyCarbonRewardsManager implementation contract"
        }
      },
      "getEmissionAdmin(address)": {
        "details": "Returns the admin of the given reward emission",
        "params": {
          "reward": "The address of the reward token"
        },
        "returns": {
          "_0": "The address of the emission admin"
        }
      },
      "getRewardsController()": {
        "details": "Returns the rewards controller address",
        "returns": {
          "_0": "The address of the RewardsController contract"
        }
      },
      "owner()": {
        "details": "Returns the address of the current owner."
      },
      "renounceOwnership()": {
        "details": "Leaves the contract without owner. It will not be possible to call `onlyOwner` functions anymore. Can only be called by the current owner. NOTE: Renouncing ownership will leave the contract without an owner, thereby removing any functionality that is only available to the owner."
      },
      "setCarbonRewardsManager(address)": {
        "details": "Only callable by the owner of the EmissionManager",
        "params": {
          "carbonRewardsManager": "the address of the IWeeklyCarbonRewardsManager contract"
        }
      },
      "setClaimer(address,address)": {
        "details": "Whitelists an address to claim the rewards on behalf of another addressOnly callable by the owner of the EmissionManager",
        "params": {
          "claimer": "The address of the claimer",
          "user": "The address of the user"
        }
      },
      "setDistributionEnd(address,address,uint32)": {
        "details": "Sets the end date for the distributionOnly callable by the emission admin of the given reward",
        "params": {
          "asset": "The asset to incentivize",
          "newDistributionEnd": "The end date of the incentivization, in unix time format",
          "reward": "The reward token that incentives the asset"
        }
      },
      "setEmissionAdmin(address,address)": {
        "details": "Updates the admin of the reward emissionOnly callable by the owner of the EmissionManager",
        "params": {
          "admin": "The address of the new admin of the emission",
          "reward": "The address of the reward token"
        }
      },
      "setEmissionManager(address)": {
        "details": "Updates the address of the emission managerOnly callable by the owner of the EmissionManager",
        "params": {
          "emissionManager": "The address of the new EmissionManager"
        }
      },
      "setEmissionPerSecond(address,address[],uint88[])": {
        "details": "Sets the emission per second of a set of reward distributions",
        "params": {
          "asset": "The asset is being incentivized",
          "newEmissionsPerSecond": "List of new reward emissions per second",
          "rewards": "List of reward addresses are being distributed"
        }
      },
      "setRewardOracle(address,address)": {
        "details": "Sets an Aave Oracle contract to enforce rewards with a source of value.Only callable by the emission admin of the given reward",
        "params": {
          "reward": "The address of the reward to set the price aggregator",
          "rewardOracle": "The address of price aggregator that follows IEACAggregatorProxy interface"
        }
      },
      "setRewardsController(address)": {
        "details": "Updates the address of the rewards controllerOnly callable by the owner of the EmissionManager",
        "params": {
          "controller": "the address of the RewardsController contract"
        }
      },
      "setRewardsVault(address)": {
        "details": "Only callable by the owner of the EmissionManager",
        "params": {
          "rewardsVault": "The address of the account that secures ERC20 rewards."
        }
      },
      "setSolidStaking(address)": {
        "details": "Only callable by the owner of the EmissionManager",
        "params": {
          "solidStaking": "Used to fetch the total amount staked and the stake of an user for a given asset"
        }
      },
      "transferOwnership(address)": {
        "details": "Transfers ownership of the contract to a new account (`newOwner`). Can only be called by the current owner."
      },
      "updateCarbonRewardDistribution(address[],uint256[])": {
        "details": "Computes and mints weekly carbon rewards, and instructs RewardsController how to distribute them",
        "params": {
          "_categoryIds": "The categories to which the incentivized assets belong",
          "assets": "The incentivized assets (hypervisors)"
        }
      }
    },
    "title": "EmissionManager",
    "version": 1
  },
  "userdoc": {
    "kind": "user",
    "methods": {
      "setRewardOracle(address,address)": {
        "notice": "At the moment of reward configuration, the Incentives Controller performs a check to see if the reward asset oracle is compatible with IEACAggregator proxy. This check is enforced for integrators to be able to show incentives at the current Aave UI without the need to setup an external price registry"
      }
    },
    "notice": "It manages the list of admins of reward emissions and provides functions to control reward emissions.",
    "version": 1
  },
  "storageLayout": {
    "storage": [
      {
        "astId": 1149,
        "contract": "contracts/rewards/EmissionManager.sol:EmissionManager",
        "label": "_owner",
        "offset": 0,
        "slot": "0",
        "type": "t_address"
      },
      {
        "astId": 10219,
        "contract": "contracts/rewards/EmissionManager.sol:EmissionManager",
        "label": "_initialized",
        "offset": 20,
        "slot": "0",
        "type": "t_bool"
      },
      {
        "astId": 2179,
        "contract": "contracts/rewards/EmissionManager.sol:EmissionManager",
        "label": "_status",
        "offset": 0,
        "slot": "1",
        "type": "t_uint256"
      },
      {
        "astId": 19898,
        "contract": "contracts/rewards/EmissionManager.sol:EmissionManager",
        "label": "_emissionAdmins",
        "offset": 0,
        "slot": "2",
        "type": "t_mapping(t_address,t_address)"
      },
      {
        "astId": 19901,
        "contract": "contracts/rewards/EmissionManager.sol:EmissionManager",
        "label": "_carbonRewardsManager",
        "offset": 0,
        "slot": "3",
        "type": "t_contract(IWeeklyCarbonRewardsManager)13361"
      },
      {
        "astId": 19904,
        "contract": "contracts/rewards/EmissionManager.sol:EmissionManager",
        "label": "_rewardsController",
        "offset": 0,
        "slot": "4",
        "type": "t_contract(IRewardsController)13697"
      }
    ],
    "types": {
      "t_address": {
        "encoding": "inplace",
        "label": "address",
        "numberOfBytes": "20"
      },
      "t_bool": {
        "encoding": "inplace",
        "label": "bool",
        "numberOfBytes": "1"
      },
      "t_contract(IRewardsController)13697": {
        "encoding": "inplace",
        "label": "contract IRewardsController",
        "numberOfBytes": "20"
      },
      "t_contract(IWeeklyCarbonRewardsManager)13361": {
        "encoding": "inplace",
        "label": "contract IWeeklyCarbonRewardsManager",
        "numberOfBytes": "20"
      },
      "t_mapping(t_address,t_address)": {
        "encoding": "mapping",
        "key": "t_address",
        "label": "mapping(address => address)",
        "numberOfBytes": "32",
        "value": "t_address"
      },
      "t_uint256": {
        "encoding": "inplace",
        "label": "uint256",
        "numberOfBytes": "32"
      }
    }
  }
}