{
  "address": "0xF378201B81927D41BA659a3f3Ed84A5FEb2f3BA9",
  "abi": [
    {
      "inputs": [
        {
          "internalType": "address",
          "name": "token0",
          "type": "address"
        },
        {
          "internalType": "address",
          "name": "token1",
          "type": "address"
        },
        {
          "internalType": "address",
          "name": "gammaVault",
          "type": "address"
        },
        {
          "internalType": "address",
          "name": "uniProxy",
          "type": "address"
        },
        {
          "internalType": "uint256",
          "name": "conversionRate",
          "type": "uint256"
        },
        {
          "internalType": "uint8",
          "name": "conversionRateDecimals",
          "type": "uint8"
        }
      ],
      "stateMutability": "nonpayable",
      "type": "constructor"
    },
    {
      "inputs": [
        {
          "internalType": "address",
          "name": "account",
          "type": "address"
        },
        {
          "internalType": "uint256",
          "name": "balance",
          "type": "uint256"
        },
        {
          "internalType": "uint256",
          "name": "withdrawAmount",
          "type": "uint256"
        }
      ],
      "name": "InsufficientLpTokenBalance",
      "type": "error"
    },
    {
      "inputs": [
        {
          "internalType": "address",
          "name": "token",
          "type": "address"
        },
        {
          "internalType": "address",
          "name": "account",
          "type": "address"
        },
        {
          "internalType": "uint256",
          "name": "balance",
          "type": "uint256"
        },
        {
          "internalType": "uint256",
          "name": "withdrawAmount",
          "type": "uint256"
        }
      ],
      "name": "InsufficientTokenBalance",
      "type": "error"
    },
    {
      "inputs": [
        {
          "internalType": "uint256",
          "name": "numerator",
          "type": "uint256"
        },
        {
          "internalType": "uint256",
          "name": "denominator",
          "type": "uint256"
        }
      ],
      "name": "InvalidFraction",
      "type": "error"
    },
    {
      "inputs": [],
      "name": "InvalidInput",
      "type": "error"
    },
    {
      "inputs": [
        {
          "internalType": "uint256",
          "name": "token0Liquidity",
          "type": "uint256"
        },
        {
          "internalType": "uint256",
          "name": "token1Liquidity",
          "type": "uint256"
        }
      ],
      "name": "NotEnoughAvailableLiquidity",
      "type": "error"
    },
    {
      "inputs": [],
      "name": "TokensMismatch",
      "type": "error"
    },
    {
      "anonymous": false,
      "inputs": [
        {
          "indexed": true,
          "internalType": "uint256",
          "name": "token0DeployedAmount",
          "type": "uint256"
        },
        {
          "indexed": true,
          "internalType": "uint256",
          "name": "token1DeployedAmount",
          "type": "uint256"
        },
        {
          "indexed": true,
          "internalType": "uint256",
          "name": "lpTokensReceived",
          "type": "uint256"
        }
      ],
      "name": "LiquidityDeployed",
      "type": "event"
    },
    {
      "anonymous": false,
      "inputs": [
        {
          "indexed": true,
          "internalType": "address",
          "name": "withdrawer",
          "type": "address"
        },
        {
          "indexed": true,
          "internalType": "uint256",
          "name": "amount",
          "type": "uint256"
        }
      ],
      "name": "LpTokenWithdrawn",
      "type": "event"
    },
    {
      "anonymous": false,
      "inputs": [
        {
          "indexed": true,
          "internalType": "address",
          "name": "token",
          "type": "address"
        },
        {
          "indexed": true,
          "internalType": "address",
          "name": "depositor",
          "type": "address"
        },
        {
          "indexed": true,
          "internalType": "uint256",
          "name": "amount",
          "type": "uint256"
        }
      ],
      "name": "TokenDeposited",
      "type": "event"
    },
    {
      "anonymous": false,
      "inputs": [
        {
          "indexed": true,
          "internalType": "address",
          "name": "token",
          "type": "address"
        },
        {
          "indexed": true,
          "internalType": "address",
          "name": "withdrawer",
          "type": "address"
        },
        {
          "indexed": true,
          "internalType": "uint256",
          "name": "amount",
          "type": "uint256"
        }
      ],
      "name": "TokenWithdrawn",
      "type": "event"
    },
    {
      "inputs": [],
      "name": "deployLiquidity",
      "outputs": [],
      "stateMutability": "nonpayable",
      "type": "function"
    },
    {
      "inputs": [
        {
          "internalType": "uint256",
          "name": "amount",
          "type": "uint256"
        }
      ],
      "name": "depositToken0",
      "outputs": [],
      "stateMutability": "nonpayable",
      "type": "function"
    },
    {
      "inputs": [
        {
          "internalType": "uint256",
          "name": "amount",
          "type": "uint256"
        }
      ],
      "name": "depositToken1",
      "outputs": [],
      "stateMutability": "nonpayable",
      "type": "function"
    },
    {
      "inputs": [],
      "name": "getConversionRate",
      "outputs": [
        {
          "internalType": "uint256",
          "name": "",
          "type": "uint256"
        }
      ],
      "stateMutability": "view",
      "type": "function"
    },
    {
      "inputs": [],
      "name": "getConversionRateDecimals",
      "outputs": [
        {
          "internalType": "uint8",
          "name": "",
          "type": "uint8"
        }
      ],
      "stateMutability": "view",
      "type": "function"
    },
    {
      "inputs": [],
      "name": "getGammaVault",
      "outputs": [
        {
          "internalType": "address",
          "name": "",
          "type": "address"
        }
      ],
      "stateMutability": "view",
      "type": "function"
    },
    {
      "inputs": [
        {
          "internalType": "address",
          "name": "liquidityProvider",
          "type": "address"
        }
      ],
      "name": "getLPTokensOwed",
      "outputs": [
        {
          "internalType": "uint256",
          "name": "",
          "type": "uint256"
        }
      ],
      "stateMutability": "view",
      "type": "function"
    },
    {
      "inputs": [],
      "name": "getLastGammaAdjustmentFactor",
      "outputs": [
        {
          "internalType": "uint256",
          "name": "",
          "type": "uint256"
        },
        {
          "internalType": "uint256",
          "name": "",
          "type": "uint256"
        }
      ],
      "stateMutability": "view",
      "type": "function"
    },
    {
      "inputs": [],
      "name": "getLastToken0AvailableLiquidity",
      "outputs": [
        {
          "internalType": "uint256",
          "name": "",
          "type": "uint256"
        }
      ],
      "stateMutability": "view",
      "type": "function"
    },
    {
      "inputs": [
        {
          "internalType": "address",
          "name": "liquidityProvider",
          "type": "address"
        }
      ],
      "name": "getLastToken0LiquidityDeployed",
      "outputs": [
        {
          "internalType": "uint256",
          "name": "lastDeployedAmount",
          "type": "uint256"
        }
      ],
      "stateMutability": "view",
      "type": "function"
    },
    {
      "inputs": [],
      "name": "getLastToken1AvailableLiquidity",
      "outputs": [
        {
          "internalType": "uint256",
          "name": "",
          "type": "uint256"
        }
      ],
      "stateMutability": "view",
      "type": "function"
    },
    {
      "inputs": [
        {
          "internalType": "address",
          "name": "liquidityProvider",
          "type": "address"
        }
      ],
      "name": "getLastToken1LiquidityDeployed",
      "outputs": [
        {
          "internalType": "uint256",
          "name": "lastDeployedAmount",
          "type": "uint256"
        }
      ],
      "stateMutability": "view",
      "type": "function"
    },
    {
      "inputs": [],
      "name": "getLastTotalDeployedLiquidity",
      "outputs": [
        {
          "internalType": "uint256",
          "name": "",
          "type": "uint256"
        },
        {
          "internalType": "uint256",
          "name": "",
          "type": "uint256"
        }
      ],
      "stateMutability": "view",
      "type": "function"
    },
    {
      "inputs": [],
      "name": "getMinConvertibleToken0Amount",
      "outputs": [
        {
          "internalType": "uint256",
          "name": "",
          "type": "uint256"
        }
      ],
      "stateMutability": "view",
      "type": "function"
    },
    {
      "inputs": [],
      "name": "getToken0",
      "outputs": [
        {
          "internalType": "address",
          "name": "",
          "type": "address"
        }
      ],
      "stateMutability": "view",
      "type": "function"
    },
    {
      "inputs": [],
      "name": "getToken1",
      "outputs": [
        {
          "internalType": "address",
          "name": "",
          "type": "address"
        }
      ],
      "stateMutability": "view",
      "type": "function"
    },
    {
      "inputs": [],
      "name": "getTokenDepositors",
      "outputs": [
        {
          "internalType": "address[]",
          "name": "tokenDepositors",
          "type": "address[]"
        }
      ],
      "stateMutability": "view",
      "type": "function"
    },
    {
      "inputs": [],
      "name": "getTotalDeposits",
      "outputs": [
        {
          "internalType": "uint256",
          "name": "token0Amount",
          "type": "uint256"
        },
        {
          "internalType": "uint256",
          "name": "token1Amount",
          "type": "uint256"
        }
      ],
      "stateMutability": "view",
      "type": "function"
    },
    {
      "inputs": [],
      "name": "getUniProxy",
      "outputs": [
        {
          "internalType": "address",
          "name": "",
          "type": "address"
        }
      ],
      "stateMutability": "view",
      "type": "function"
    },
    {
      "inputs": [
        {
          "internalType": "address",
          "name": "account",
          "type": "address"
        }
      ],
      "name": "token0BalanceOf",
      "outputs": [
        {
          "internalType": "uint256",
          "name": "",
          "type": "uint256"
        }
      ],
      "stateMutability": "view",
      "type": "function"
    },
    {
      "inputs": [
        {
          "internalType": "address",
          "name": "account",
          "type": "address"
        }
      ],
      "name": "token1BalanceOf",
      "outputs": [
        {
          "internalType": "uint256",
          "name": "",
          "type": "uint256"
        }
      ],
      "stateMutability": "view",
      "type": "function"
    },
    {
      "inputs": [
        {
          "internalType": "uint256",
          "name": "amount",
          "type": "uint256"
        }
      ],
      "name": "withdrawLpTokens",
      "outputs": [],
      "stateMutability": "nonpayable",
      "type": "function"
    },
    {
      "inputs": [],
      "name": "withdrawLpTokens",
      "outputs": [],
      "stateMutability": "nonpayable",
      "type": "function"
    },
    {
      "inputs": [
        {
          "internalType": "uint256",
          "name": "amount",
          "type": "uint256"
        }
      ],
      "name": "withdrawToken0",
      "outputs": [],
      "stateMutability": "nonpayable",
      "type": "function"
    },
    {
      "inputs": [
        {
          "internalType": "uint256",
          "name": "amount",
          "type": "uint256"
        }
      ],
      "name": "withdrawToken1",
      "outputs": [],
      "stateMutability": "nonpayable",
      "type": "function"
    }
  ],
  "transactionHash": "0x456a13be1164664673aaca1894b48658b3decbd1cd3121e7fc65635d4845811a",
  "args": [
    "0x2791bca1f2de4661ed88a30c99a7a9449aa84174",
    "0x672688c6ee3e750dfaa4874743ef693a6f2538ed",
    "0x27420e641CE96a6C0191dbFA0A9500eaCe33531d",
    "0xe339ecc9deef6b69dbc394abf6fbff19450faeb6",
    "93015987",
    "9"
  ],
  "numDeployments": 1,
  "solcInputHash": "97b17749aa3f202c6fa7446a0a6ca1f9",
  "bytecode": "0x60806040523480156200001157600080fd5b506040516200260b3803806200260b833981016040819052620000349162000444565b60016000819055508585856000819050806001600160a01b0316630dfe16816040518163ffffffff1660e01b8152600401602060405180830381865afa15801562000083573d6000803e3d6000fd5b505050506040513d601f19601f82011682018060405250810190620000a99190620004bc565b6001600160a01b0316846001600160a01b0316141580620001405750806001600160a01b031663d21220a76040518163ffffffff1660e01b8152600401602060405180830381865afa15801562000104573d6000803e3d6000fd5b505050506040513d601f19601f820116820180604052508101906200012a9190620004bc565b6001600160a01b0316836001600160a01b031614155b156200015f57604051637aa1a10560e01b815260040160405180910390fd5b600180546001600160a01b03199081166001600160a01b038d81169182179093556002805483168d85161790556003805483168c851617905560048054909216928a1692909217815560058890556007805460ff191660ff89161790556040805163313ce56760e01b8152905163313ce567928281019260209291908290030181865afa158015620001f5573d6000803e3d6000fd5b505050506040513d601f19601f820116820180604052508101906200021b9190620004da565b600160060160016101000a81548160ff021916908360ff160217905550886001600160a01b031663313ce5676040518163ffffffff1660e01b8152600401602060405180830381865afa15801562000277573d6000803e3d6000fd5b505050506040513d601f19601f820116820180604052508101906200029d9190620004da565b6007805462ff000019166201000060ff93841681029190911791829055620002e49261010083048116929190910481169089908916620002f8602090811b6200080217901c565b600655506200066d98505050505050505050565b60006200034460016200030c84886200050e565b6200031990600a62000627565b856200032788600a62000627565b62000333919062000635565b6200035a60201b6200084d1760201c565b620003519060016200050e565b95945050505050565b600080806000198587098587029250828110838203039150508060000362000399578382816200038e576200038e62000657565b04925050506200040e565b808411620003a657600080fd5b600084868809851960019081018716968790049682860381900495909211909303600082900391909104909201919091029190911760038402600290811880860282030280860282030280860282030280860282030280860282030280860290910302029150505b9392505050565b80516001600160a01b03811681146200042d57600080fd5b919050565b805160ff811681146200042d57600080fd5b60008060008060008060c087890312156200045e57600080fd5b620004698762000415565b9550620004796020880162000415565b9450620004896040880162000415565b9350620004996060880162000415565b925060808701519150620004b060a0880162000432565b90509295509295509295565b600060208284031215620004cf57600080fd5b6200040e8262000415565b600060208284031215620004ed57600080fd5b6200040e8262000432565b634e487b7160e01b600052601160045260246000fd5b80820180821115620005245762000524620004f8565b92915050565b600181815b808511156200056b5781600019048211156200054f576200054f620004f8565b808516156200055d57918102915b93841c93908002906200052f565b509250929050565b600082620005845750600162000524565b81620005935750600062000524565b8160018114620005ac5760028114620005b757620005d7565b600191505062000524565b60ff841115620005cb57620005cb620004f8565b50506001821b62000524565b5060208310610133831016604e8410600b8410161715620005fc575081810a62000524565b6200060883836200052a565b80600019048211156200061f576200061f620004f8565b029392505050565b60006200040e838362000573565b6000816000190483118215151615620006525762000652620004f8565b500290565b634e487b7160e01b600052601260045260246000fd5b611f8e806200067d6000396000f3fe608060405234801561001057600080fd5b50600436106101a35760003560e01c80636f26a710116100ee578063a5c0fd0511610097578063c5acb69011610071578063c5acb69014610406578063e68c471314610440578063f3143f8a14610448578063f36089ec1461048557600080fd5b8063a5c0fd05146103cd578063a9be8944146103e0578063ba94a315146103f557600080fd5b806384c5a67a116100c857806384c5a67a146103895780638eae2d221461039a578063971e3c43146103ba57600080fd5b80636f26a7101461032857806371210a0d146103395780637fb9e9121461034c57600080fd5b80632fb05b651161015057806344276f1e1161012a57806344276f1e146102cd5780635d71ebf2146102f257806367e3d15b146102fa57600080fd5b80632fb05b65146102765780633bd7a701146102b05780634086bf89146102c557600080fd5b806311e8416c1161018157806311e8416c14610215578063168a48221461022857806320b3cac21461025657600080fd5b806305bba6bd146101a8578063080a415d146101bd5780630cce4119146101f9575b600080fd5b6101bb6101b6366004611b42565b61048d565b005b6101e66101cb366004611b5b565b6001600160a01b031660009081526010602052604090205490565b6040519081526020015b60405180910390f35b600a54600b545b604080519283526020830191909152016101f0565b6101bb610223366004611b42565b6104ab565b6001546001600160a01b03908116600090815260116020526040808220546002549093168252902054610200565b6002546001600160a01b03166000908152600f60205260409020546101e6565b6101e6610284366004611b5b565b6001600160a01b039081166000908152600c602090815260408083206002549094168352929052205490565b60075460405160ff90911681526020016101f0565b6101bb61050f565b6004546001600160a01b03165b6040516001600160a01b0390911681526020016101f0565b6101bb610603565b6001546001600160a01b039081166000908152600e6020526040808220546002549093168252902054610200565b6002546001600160a01b03166102da565b6101bb610347366004611b42565b61062e565b6101e661035a366004611b5b565b6002546001600160a01b039081166000908152600d602090815260408083209490931682529290925290205490565b6003546001600160a01b03166102da565b6001546001600160a01b03166000908152600f60205260409020546101e6565b6101bb6103c8366004611b42565b610687565b6101bb6103db366004611b42565b6106e0565b6103e8610739565b6040516101f09190611b84565b6001546001600160a01b03166102da565b6101e6610414366004611b5b565b6001600160a01b039081166000908152600c602090815260408083206001549094168352929052205490565b6006546101e6565b6101e6610456366004611b5b565b6001546001600160a01b039081166000908152600d602090815260408083209490931682529290925290205490565b6005546101e6565b610495610920565b61049e81610998565b6104a86001600055565b50565b6104b3610920565b80806000036104ee576040517fb4fa3fb300000000000000000000000000000000000000000000000000000000815260040160405180910390fd5b600154610504906001600160a01b031683610aa9565b506104a86001600055565b610517610920565b61051f610bf9565b6001546001600160a01b039081166000908152600f6020526040808220600254909316825290209190915555610553610caa565b6001546001600160a01b039081166000908152600e6020526040808220600254909316825290209190915555610587610e59565b61058f6110b2565b60006105996111fd565b90506105a4816112aa565b6002546001600160a01b039081166000908152600e60205260408082205460015490931682528082205490518493927f27ef04f3eee6365ec57cc96b0ca6c817697868d1f05670199c789ca05b26979291a4506106016001600055565b565b61060b610920565b3360009081526010602052604090205461062490610998565b6106016001600055565b610636610920565b8080600003610671576040517fb4fa3fb300000000000000000000000000000000000000000000000000000000815260040160405180910390fd5b600254610504906001600160a01b031683611407565b61068f610920565b80806000036106ca576040517fb4fa3fb300000000000000000000000000000000000000000000000000000000815260040160405180910390fd5b600154610504906001600160a01b031683611407565b6106e8610920565b8080600003610723576040517fb4fa3fb300000000000000000000000000000000000000000000000000000000815260040160405180910390fd5b600254610504906001600160a01b031683610aa9565b60085460609067ffffffffffffffff81111561075757610757611bd1565b604051908082528060200260200182016040528015610780578160200160208202803683370190505b50905060005b6008548110156107fe5760088054829081106107a4576107a4611c00565b9060005260206000200160009054906101000a90046001600160a01b03168282815181106107d4576107d4611c00565b6001600160a01b0390921660209283029190910190910152806107f681611c5e565b915050610786565b5090565b600061083960016108138488611c96565b61081e90600a611dc9565b8561082a88600a611dc9565b6108349190611dd5565b61084d565b610844906001611c96565b95945050505050565b600080807fffffffffffffffffffffffffffffffffffffffffffffffffffffffffffffffff858709858702925082811083820303915050806000036108a55783828161089b5761089b611e12565b0492505050610919565b8084116108b157600080fd5b600084868809851960019081018716968790049682860381900495909211909303600082900391909104909201919091029190911760038402600290811880860282030280860282030280860282030280860282030280860282030280860290910302029150505b9392505050565b600260005403610991576040517f08c379a000000000000000000000000000000000000000000000000000000000815260206004820152601f60248201527f5265656e7472616e637947756172643a207265656e7472616e742063616c6c0060448201526064015b60405180910390fd5b6002600055565b80806000036109d3576040517fb4fa3fb300000000000000000000000000000000000000000000000000000000815260040160405180910390fd5b33600090815260106020526040902054821115610a3d5733600081815260106020526040908190205490517f1a8470c70000000000000000000000000000000000000000000000000000000081526004810192909252602482015260448101839052606401610988565b3360009081526010602052604081208054849290610a5c908490611e41565b9091555050600354610a78906001600160a01b03163384611567565b604051829033907f0b68af39d2b2f165a1280cac62c3a28685e96801c9a077e2b13bad6a31f1d44290600090a35050565b336000908152600c602090815260408083206001600160a01b0386168452909152902054811115610b4357336000818152600c602090815260408083206001600160a01b0387168085529252918290205491517fe4bc506800000000000000000000000000000000000000000000000000000000815260048101919091526024810192909252604482015260648101829052608401610988565b336000908152600c602090815260408083206001600160a01b038616845290915281208054839290610b76908490611e41565b90915550506001600160a01b03821660009081526011602052604081208054839290610ba3908490611e41565b90915550610bbd90506001600160a01b0383163383611567565b604051819033906001600160a01b038516907f8210728e7c071f615b840ee026032693858fbcd5e5359e67e438c890f59e562090600090a45050565b60008060005b600854811015610ca557600060086000018281548110610c2157610c21611c00565b6000918252602080832091909101546001600160a01b03908116808452600c83526040808520600154841686529093528284205460025490921684529190922054600654919350908210610c7c57610c798287611c96565b95505b8015610c8f57610c8c8186611c96565b94505b5050508080610c9d90611c5e565b915050610bff565b509091565b6001546001600160a01b03166000908152600f60205260408120548190610cd090611633565b1580610cf457506002546001600160a01b03166000908152600f6020526040902054155b15610d5e576001546001600160a01b039081166000908152600f6020526040808220546002549093168252908190205490517f931eb8e000000000000000000000000000000000000000000000000000000000815260048101929092526024820152604401610988565b610d66611674565b6001546001600160a01b03166000908152600f60209081526040808320548151808301909252600a548252600b5492820192909252610da59190611759565b6002546001600160a01b03166000908152600f60205260409020549091508111610dec576001546001600160a01b03166000908152600f6020526040902054925090509091565b6002546001600160a01b03166000908152600f6020908152604091829020548251808401909352600a548352600b5491830191909152610e3491610e2f906117cf565b611759565b6002546001600160a01b03166000908152600f60205260409020549093509150509091565b6040805180820182526001546001600160a01b039081166000818152600e6020818152868320548652928252600f8084528683205484870152865180880188526002549095168084529184528683205485529082528252938420549082015290915b6008548110156110ad57600060086000018281548110610edd57610edd611c00565b60009182526020808320909101546001600160a01b03908116808452600c83526040808520600154909316855291909252822054909250610f1e9086611850565b6001546001600160a01b039081166000908152600d6020908152604080832093871683529290522081905590508015610fc0576001600160a01b038083166000908152600c6020908152604080832060015490941683529290529081208054839290610f8b908490611e41565b90915550506001546001600160a01b031660009081526011602052604081208054839290610fba908490611e41565b90915550505b6001600160a01b038083166000908152600c60209081526040808320600254909416835292905290812054610ff5908661186b565b6002546001600160a01b039081166000908152600d6020908152604080832093881683529290522081905590508015611097576001600160a01b038084166000908152600c6020908152604080832060025490941683529290529081208054839290611062908490611e41565b90915550506002546001600160a01b031660009081526011602052604081208054839290611091908490611e41565b90915550505b50505080806110a590611c5e565b915050610ebb565b505050565b6001546003546001600160a01b039182166000818152600e6020526040908190205490517f095ea7b300000000000000000000000000000000000000000000000000000000815293909216600484015260248301919091529063095ea7b3906044016020604051808303816000875af1158015611133573d6000803e3d6000fd5b505050506040513d601f19601f820116820180604052508101906111579190611e54565b506002546003546001600160a01b039182166000818152600e6020526040908190205490517f095ea7b300000000000000000000000000000000000000000000000000000000815293909216600484015260248301919091529063095ea7b3906044016020604051808303816000875af11580156111d9573d6000803e3d6000fd5b505050506040513d601f19601f820116820180604052508101906104a89190611e54565b6004546001546001600160a01b039081166000908152600e60205260408082205460025484168352908220546003549294841693638e3c92e493309116611242611887565b6040518663ffffffff1660e01b8152600401611262959493929190611e76565b6020604051808303816000875af1158015611281573d6000803e3d6000fd5b505050506040513d601f19601f820116820180604052508101906112a59190611ed1565b905090565b6002546001600160a01b03166000908152600e60205260408120548291906112d06118b9565b6112da9190611c96565b905060005b6008548110156113a65760006008600001828154811061130157611301611c00565b60009182526020822001546001600160a01b03169150611320826118dd565b905080600003611331575050611394565b600061135187604051806040016040528085815260200188815250611759565b6001600160a01b03841660009081526010602052604081208054929350839290919061137e908490611c96565b9091555061138e90508187611e41565b95505050505b8061139e81611c5e565b9150506112df565b5081156110ad57816010600060086000016000815481106113c9576113c9611c00565b60009182526020808320909101546001600160a01b03168352820192909252604001812080549091906113fd908490611c96565b9091555050505050565b336000908152600c602090815260408083206001600160a01b03861684529091528120805483929061143a908490611c96565b90915550506001600160a01b03821660009081526011602052604081208054839290611467908490611c96565b90915550503360009081526009602052604090205460ff166115165733600081815260096020526040812080547fffffffffffffffffffffffffffffffffffffffffffffffffffffffffffffff001660019081179091556008805491820181559091527ff3f7a9fe364faab93b216da50a3214154f22a0a2b415b23a84c8169e8b636ee30180547fffffffffffffffffffffffff00000000000000000000000000000000000000001690911790555b61152b6001600160a01b038316333084611939565b604051819033906001600160a01b038516907ff1444b5cad7ce70cb018d1b8edc8618fe303f3c7f034d8d572a6e27facbf2bef90600090a45050565b6040517fa9059cbb000000000000000000000000000000000000000000000000000000008082526001600160a01b0384166004830152602482018390529060008060448382895af16115bd573d6000803e3d6000fd5b506115c784611a0e565b61162d576040517f08c379a000000000000000000000000000000000000000000000000000000000815260206004820152601560248201527f475076323a206661696c6564207472616e7366657200000000000000000000006044820152606401610988565b50505050565b60065460009082101561164857506000919050565b60075460055461166e9160ff610100820481169262010000830482169290911686611ad9565b92915050565b60075460009061168d90610100900460ff16600a611eea565b600480546003546001546040517f5ccfb71d0000000000000000000000000000000000000000000000000000000081526001600160a01b039283169481019490945281166024840152604483018490529293506000928392911690635ccfb71d906064016040805180830381865afa15801561170d573d6000803e3d6000fd5b505050506040513d601f19601f820116820180604052508101906117319190611ef9565b9092509050600060026117448385611c96565b61174e9190611f1d565b600a55505050600b55565b600081602001516000036117a957815160208301516040517f60c1ae3900000000000000000000000000000000000000000000000000000000815260048101929092526024820152604401610988565b60208201518251036117bc57508161166e565b610919838360000151846020015161084d565b6040805180820190915260008082526020820152816020015160000361183157815160208301516040517f60c1ae3900000000000000000000000000000000000000000000000000000000815260048101929092526024820152604401610988565b5060408051808201909152602080830151825291519181019190915290565b6006546000908310156118655750600061166e565b61091983835b60008260000361187d5750600061166e565b6109198383611759565b61188f611b24565b60405180608001604052806000815260200160008152602001600081526020016000815250905090565b6001546001600160a01b03166000908152600e60205260408120546112a590611633565b6001546001600160a01b039081166000908152600d602081815260408084208686168086529083528185205460025490961685529282528084209284529190528120549091908261192d83611633565b90506108448282611c96565b6040517f23b872dd000000000000000000000000000000000000000000000000000000008082526001600160a01b038581166004840152841660248301526044820183905290600080606483828a5af1611997573d6000803e3d6000fd5b506119a185611a0e565b611a07576040517f08c379a000000000000000000000000000000000000000000000000000000000815260206004820152601960248201527f475076323a206661696c6564207472616e7366657246726f6d000000000000006044820152606401610988565b5050505050565b6000611a4d565b7f08c379a000000000000000000000000000000000000000000000000000000000600052602060045280602452508060445260646000fd5b3d8015611a8c5760208114611ac657611a877f475076323a206d616c666f726d6564207472616e7366657220726573756c7400601f611a15565b611ad3565b823b611abd57611abd7f475076323a206e6f74206120636f6e74726163740000000000000000000000006014611a15565b60019150611ad3565b3d6000803e600051151591505b50919050565b600081600003611aeb57506000610844565b611b1a8285611afb88600a611dc9565b611b059190611dd5565b611b0f868a611c96565b61083490600a611dc9565b9695505050505050565b60405180608001604052806004906020820280368337509192915050565b600060208284031215611b5457600080fd5b5035919050565b600060208284031215611b6d57600080fd5b81356001600160a01b038116811461091957600080fd5b6020808252825182820181905260009190848201906040850190845b81811015611bc55783516001600160a01b031683529284019291840191600101611ba0565b50909695505050505050565b7f4e487b7100000000000000000000000000000000000000000000000000000000600052604160045260246000fd5b7f4e487b7100000000000000000000000000000000000000000000000000000000600052603260045260246000fd5b7f4e487b7100000000000000000000000000000000000000000000000000000000600052601160045260246000fd5b60007fffffffffffffffffffffffffffffffffffffffffffffffffffffffffffffffff8203611c8f57611c8f611c2f565b5060010190565b8082018082111561166e5761166e611c2f565b600181815b80851115611d0257817fffffffffffffffffffffffffffffffffffffffffffffffffffffffffffffffff04821115611ce857611ce8611c2f565b80851615611cf557918102915b93841c9390800290611cae565b509250929050565b600082611d195750600161166e565b81611d265750600061166e565b8160018114611d3c5760028114611d4657611d62565b600191505061166e565b60ff841115611d5757611d57611c2f565b50506001821b61166e565b5060208310610133831016604e8410600b8410161715611d85575081810a61166e565b611d8f8383611ca9565b807fffffffffffffffffffffffffffffffffffffffffffffffffffffffffffffffff04821115611dc157611dc1611c2f565b029392505050565b60006109198383611d0a565b6000817fffffffffffffffffffffffffffffffffffffffffffffffffffffffffffffffff0483118215151615611e0d57611e0d611c2f565b500290565b7f4e487b7100000000000000000000000000000000000000000000000000000000600052601260045260246000fd5b8181038181111561166e5761166e611c2f565b600060208284031215611e6657600080fd5b8151801515811461091957600080fd5b85815260208082018690526001600160a01b03858116604084015284166060830152610100820190608083018460005b6004811015611ec357815183529183019190830190600101611ea6565b505050509695505050505050565b600060208284031215611ee357600080fd5b5051919050565b600061091960ff841683611d0a565b60008060408385031215611f0c57600080fd5b505080516020909101519092909150565b600082611f53577f4e487b7100000000000000000000000000000000000000000000000000000000600052601260045260246000fd5b50049056fea2646970667358221220a762632e40357bf68314cdcedcc81dbbf49c7fc67fc65837a72de0b4ac6a15c264736f6c63430008100033",
  "devdoc": {
    "author": "Solid World",
    "kind": "dev",
    "methods": {
      "getConversionRate()": {
        "returns": {
          "_0": "1 token0 = ? token1"
        }
      },
      "getConversionRateDecimals()": {
        "returns": {
          "_0": "Number of decimals of the conversion rate e.g. to express 1 token0 = 0.000001 token1, conversion rate is 1 and decimals is 6"
        }
      },
      "getGammaVault()": {
        "returns": {
          "_0": "Gamma Vault address the UniProxy contract will deposit tokens to"
        }
      },
      "getLastGammaAdjustmentFactor()": {
        "returns": {
          "_0": "the output amount of token1 that was received for the given amount of token0",
          "_1": "the input amount of token0 to receive amount of token1"
        }
      },
      "getLastToken0AvailableLiquidity()": {
        "details": "returns the total amount of token0 that was available to be deployed (excludes deposits not convertible to token1)"
      },
      "getLastToken0LiquidityDeployed(address)": {
        "params": {
          "liquidityProvider": "account that contributed liquidity"
        },
        "returns": {
          "lastDeployedAmount": "amount of token0 liquidity that was deployed by the liquidity provider during the last deployment"
        }
      },
      "getLastToken1AvailableLiquidity()": {
        "details": "returns the total amount of token1 that was available to be deployed"
      },
      "getLastToken1LiquidityDeployed(address)": {
        "params": {
          "liquidityProvider": "account that contributed liquidity"
        },
        "returns": {
          "lastDeployedAmount": "amount of token1 liquidity that was last deployed by the liquidity provider during the last deployment"
        }
      },
      "getMinConvertibleToken0Amount()": {
        "details": "Returns the minimum amount of token0 that can be converted to token1"
      },
      "getUniProxy()": {
        "returns": {
          "_0": "UniProxy contract takes amounts of token0 and token1, deposits them to Gamma Vault, and returns LP tokens"
        }
      }
    },
    "stateVariables": {
      "lPTokensOwed": {
        "details": "Account => Amount"
      },
      "lastAvailableLiquidity": {
        "details": "Token => Amount"
      },
      "lastDeployedLiquidity": {
        "details": "Token => Account => Amount"
      },
      "lastTotalDeployedLiquidity": {
        "details": "Token => Amount"
      },
      "totalDeposits": {
        "details": "Token => Amount"
      },
      "userTokenBalance": {
        "details": "Account => Token => Balance"
      }
    },
    "version": 1
  },
  "userdoc": {
    "kind": "user",
    "methods": {
      "deployLiquidity()": {
        "notice": "Looks at the current configuration and state of the contract, deploys the available liquidity to the Gamma Vault, and distributes the LP tokens to the depositors proportionally"
      },
      "depositToken0(uint256)": {
        "notice": "The caller must approve the contract to spend `amount` of token0"
      },
      "depositToken1(uint256)": {
        "notice": "The caller must approve the contract to spend `amount` of token1"
      }
    },
    "version": 1
  },
  "storageLayout": {
    "storage": [
      {
        "astId": 2179,
        "contract": "contracts/LiquidityDeployer.sol:LiquidityDeployer",
        "label": "_status",
        "offset": 0,
        "slot": "0",
        "type": "t_uint256"
      },
      {
        "astId": 8194,
        "contract": "contracts/LiquidityDeployer.sol:LiquidityDeployer",
        "label": "config",
        "offset": 0,
        "slot": "1",
        "type": "t_struct(Config)16277_storage"
      },
      {
        "astId": 8197,
        "contract": "contracts/LiquidityDeployer.sol:LiquidityDeployer",
        "label": "depositors",
        "offset": 0,
        "slot": "8",
        "type": "t_struct(Depositors)16286_storage"
      },
      {
        "astId": 8200,
        "contract": "contracts/LiquidityDeployer.sol:LiquidityDeployer",
        "label": "lastGammaAdjustmentFactor",
        "offset": 0,
        "slot": "10",
        "type": "t_struct(Fraction)16291_storage"
      },
      {
        "astId": 8207,
        "contract": "contracts/LiquidityDeployer.sol:LiquidityDeployer",
        "label": "userTokenBalance",
        "offset": 0,
        "slot": "12",
        "type": "t_mapping(t_address,t_mapping(t_address,t_uint256))"
      },
      {
        "astId": 8214,
        "contract": "contracts/LiquidityDeployer.sol:LiquidityDeployer",
        "label": "lastDeployedLiquidity",
        "offset": 0,
        "slot": "13",
        "type": "t_mapping(t_address,t_mapping(t_address,t_uint256))"
      },
      {
        "astId": 8219,
        "contract": "contracts/LiquidityDeployer.sol:LiquidityDeployer",
        "label": "lastTotalDeployedLiquidity",
        "offset": 0,
        "slot": "14",
        "type": "t_mapping(t_address,t_uint256)"
      },
      {
        "astId": 8224,
        "contract": "contracts/LiquidityDeployer.sol:LiquidityDeployer",
        "label": "lastAvailableLiquidity",
        "offset": 0,
        "slot": "15",
        "type": "t_mapping(t_address,t_uint256)"
      },
      {
        "astId": 8229,
        "contract": "contracts/LiquidityDeployer.sol:LiquidityDeployer",
        "label": "lPTokensOwed",
        "offset": 0,
        "slot": "16",
        "type": "t_mapping(t_address,t_uint256)"
      },
      {
        "astId": 8234,
        "contract": "contracts/LiquidityDeployer.sol:LiquidityDeployer",
        "label": "totalDeposits",
        "offset": 0,
        "slot": "17",
        "type": "t_mapping(t_address,t_uint256)"
      }
    ],
    "types": {
      "t_address": {
        "encoding": "inplace",
        "label": "address",
        "numberOfBytes": "20"
      },
      "t_array(t_address)dyn_storage": {
        "base": "t_address",
        "encoding": "dynamic_array",
        "label": "address[]",
        "numberOfBytes": "32"
      },
      "t_bool": {
        "encoding": "inplace",
        "label": "bool",
        "numberOfBytes": "1"
      },
      "t_mapping(t_address,t_bool)": {
        "encoding": "mapping",
        "key": "t_address",
        "label": "mapping(address => bool)",
        "numberOfBytes": "32",
        "value": "t_bool"
      },
      "t_mapping(t_address,t_mapping(t_address,t_uint256))": {
        "encoding": "mapping",
        "key": "t_address",
        "label": "mapping(address => mapping(address => uint256))",
        "numberOfBytes": "32",
        "value": "t_mapping(t_address,t_uint256)"
      },
      "t_mapping(t_address,t_uint256)": {
        "encoding": "mapping",
        "key": "t_address",
        "label": "mapping(address => uint256)",
        "numberOfBytes": "32",
        "value": "t_uint256"
      },
      "t_struct(Config)16277_storage": {
        "encoding": "inplace",
        "label": "struct LiquidityDeployerDataTypes.Config",
        "members": [
          {
            "astId": 16259,
            "contract": "contracts/LiquidityDeployer.sol:LiquidityDeployer",
            "label": "token0",
            "offset": 0,
            "slot": "0",
            "type": "t_address"
          },
          {
            "astId": 16261,
            "contract": "contracts/LiquidityDeployer.sol:LiquidityDeployer",
            "label": "token1",
            "offset": 0,
            "slot": "1",
            "type": "t_address"
          },
          {
            "astId": 16263,
            "contract": "contracts/LiquidityDeployer.sol:LiquidityDeployer",
            "label": "gammaVault",
            "offset": 0,
            "slot": "2",
            "type": "t_address"
          },
          {
            "astId": 16265,
            "contract": "contracts/LiquidityDeployer.sol:LiquidityDeployer",
            "label": "uniProxy",
            "offset": 0,
            "slot": "3",
            "type": "t_address"
          },
          {
            "astId": 16268,
            "contract": "contracts/LiquidityDeployer.sol:LiquidityDeployer",
            "label": "conversionRate",
            "offset": 0,
            "slot": "4",
            "type": "t_uint256"
          },
          {
            "astId": 16270,
            "contract": "contracts/LiquidityDeployer.sol:LiquidityDeployer",
            "label": "minConvertibleToken0Amount",
            "offset": 0,
            "slot": "5",
            "type": "t_uint256"
          },
          {
            "astId": 16272,
            "contract": "contracts/LiquidityDeployer.sol:LiquidityDeployer",
            "label": "conversionRateDecimals",
            "offset": 0,
            "slot": "6",
            "type": "t_uint8"
          },
          {
            "astId": 16274,
            "contract": "contracts/LiquidityDeployer.sol:LiquidityDeployer",
            "label": "token0Decimals",
            "offset": 1,
            "slot": "6",
            "type": "t_uint8"
          },
          {
            "astId": 16276,
            "contract": "contracts/LiquidityDeployer.sol:LiquidityDeployer",
            "label": "token1Decimals",
            "offset": 2,
            "slot": "6",
            "type": "t_uint8"
          }
        ],
        "numberOfBytes": "224"
      },
      "t_struct(Depositors)16286_storage": {
        "encoding": "inplace",
        "label": "struct LiquidityDeployerDataTypes.Depositors",
        "members": [
          {
            "astId": 16280,
            "contract": "contracts/LiquidityDeployer.sol:LiquidityDeployer",
            "label": "tokenDepositors",
            "offset": 0,
            "slot": "0",
            "type": "t_array(t_address)dyn_storage"
          },
          {
            "astId": 16285,
            "contract": "contracts/LiquidityDeployer.sol:LiquidityDeployer",
            "label": "isDepositor",
            "offset": 0,
            "slot": "1",
            "type": "t_mapping(t_address,t_bool)"
          }
        ],
        "numberOfBytes": "64"
      },
      "t_struct(Fraction)16291_storage": {
        "encoding": "inplace",
        "label": "struct LiquidityDeployerDataTypes.Fraction",
        "members": [
          {
            "astId": 16288,
            "contract": "contracts/LiquidityDeployer.sol:LiquidityDeployer",
            "label": "numerator",
            "offset": 0,
            "slot": "0",
            "type": "t_uint256"
          },
          {
            "astId": 16290,
            "contract": "contracts/LiquidityDeployer.sol:LiquidityDeployer",
            "label": "denominator",
            "offset": 0,
            "slot": "1",
            "type": "t_uint256"
          }
        ],
        "numberOfBytes": "64"
      },
      "t_uint256": {
        "encoding": "inplace",
        "label": "uint256",
        "numberOfBytes": "32"
      },
      "t_uint8": {
        "encoding": "inplace",
        "label": "uint8",
        "numberOfBytes": "1"
      }
    }
  }
}