{
  "address": "0x7e289b1E61863D4D9232e716d37a159A97Aeb96E",
  "abi": [
    {
      "inputs": [
        {
          "internalType": "address",
          "name": "_router",
          "type": "address"
        },
        {
          "internalType": "address",
          "name": "_weth",
          "type": "address"
        },
        {
          "internalType": "address",
          "name": "_solidStaking",
          "type": "address"
        }
      ],
      "stateMutability": "nonpayable",
      "type": "constructor"
    },
    {
      "inputs": [
        {
          "internalType": "uint256",
          "name": "acquired",
          "type": "uint256"
        },
        {
          "internalType": "uint256",
          "name": "min",
          "type": "uint256"
        }
      ],
      "name": "AcquiredSharesLessThanMin",
      "type": "error"
    },
    {
      "inputs": [],
      "name": "GenericSwapError",
      "type": "error"
    },
    {
      "inputs": [],
      "name": "InvalidInput",
      "type": "error"
    },
    {
      "inputs": [],
      "name": "InvalidSwap",
      "type": "error"
    },
    {
      "inputs": [],
      "name": "SweepAmountZero",
      "type": "error"
    },
    {
      "anonymous": false,
      "inputs": [
        {
          "indexed": true,
          "internalType": "address",
          "name": "zapRecipient",
          "type": "address"
        },
        {
          "indexed": true,
          "internalType": "address",
          "name": "inputToken",
          "type": "address"
        },
        {
          "indexed": true,
          "internalType": "uint256",
          "name": "inputAmount",
          "type": "uint256"
        },
        {
          "indexed": false,
          "internalType": "uint256",
          "name": "shares",
          "type": "uint256"
        }
      ],
      "name": "ZapStake",
      "type": "event"
    },
    {
      "inputs": [],
      "name": "router",
      "outputs": [
        {
          "internalType": "address",
          "name": "",
          "type": "address"
        }
      ],
      "stateMutability": "view",
      "type": "function"
    },
    {
      "inputs": [
        {
          "internalType": "address",
          "name": "inputToken",
          "type": "address"
        },
        {
          "internalType": "uint256",
          "name": "inputAmount",
          "type": "uint256"
        },
        {
          "internalType": "address",
          "name": "hypervisor",
          "type": "address"
        },
        {
          "internalType": "bytes",
          "name": "swap1",
          "type": "bytes"
        },
        {
          "internalType": "bytes",
          "name": "swap2",
          "type": "bytes"
        }
      ],
      "name": "simulateStakeDoubleSwap",
      "outputs": [
        {
          "internalType": "bool",
          "name": "",
          "type": "bool"
        },
        {
          "internalType": "uint256",
          "name": "",
          "type": "uint256"
        },
        {
          "components": [
            {
              "internalType": "uint256",
              "name": "numerator",
              "type": "uint256"
            },
            {
              "internalType": "uint256",
              "name": "denominator",
              "type": "uint256"
            }
          ],
          "internalType": "struct ISolidZapStaker.Fraction",
          "name": "",
          "type": "tuple"
        }
      ],
      "stateMutability": "nonpayable",
      "type": "function"
    },
    {
      "inputs": [
        {
          "internalType": "address",
          "name": "hypervisor",
          "type": "address"
        },
        {
          "internalType": "bytes",
          "name": "swap1",
          "type": "bytes"
        },
        {
          "internalType": "bytes",
          "name": "swap2",
          "type": "bytes"
        }
      ],
      "name": "simulateStakeETH",
      "outputs": [
        {
          "internalType": "bool",
          "name": "",
          "type": "bool"
        },
        {
          "internalType": "uint256",
          "name": "",
          "type": "uint256"
        },
        {
          "components": [
            {
              "internalType": "uint256",
              "name": "numerator",
              "type": "uint256"
            },
            {
              "internalType": "uint256",
              "name": "denominator",
              "type": "uint256"
            }
          ],
          "internalType": "struct ISolidZapStaker.Fraction",
          "name": "",
          "type": "tuple"
        }
      ],
      "stateMutability": "payable",
      "type": "function"
    },
    {
      "inputs": [
        {
          "internalType": "address",
          "name": "inputToken",
          "type": "address"
        },
        {
          "internalType": "uint256",
          "name": "inputAmount",
          "type": "uint256"
        },
        {
          "internalType": "address",
          "name": "hypervisor",
          "type": "address"
        },
        {
          "internalType": "bytes",
          "name": "swap",
          "type": "bytes"
        }
      ],
      "name": "simulateStakeSingleSwap",
      "outputs": [
        {
          "internalType": "bool",
          "name": "isDustless",
          "type": "bool"
        },
        {
          "internalType": "uint256",
          "name": "shares",
          "type": "uint256"
        },
        {
          "components": [
            {
              "internalType": "uint256",
              "name": "numerator",
              "type": "uint256"
            },
            {
              "internalType": "uint256",
              "name": "denominator",
              "type": "uint256"
            }
          ],
          "internalType": "struct ISolidZapStaker.Fraction",
          "name": "ratio",
          "type": "tuple"
        }
      ],
      "stateMutability": "nonpayable",
      "type": "function"
    },
    {
      "inputs": [],
      "name": "solidStaking",
      "outputs": [
        {
          "internalType": "address",
          "name": "",
          "type": "address"
        }
      ],
      "stateMutability": "view",
      "type": "function"
    },
    {
      "inputs": [
        {
          "internalType": "address",
          "name": "inputToken",
          "type": "address"
        },
        {
          "internalType": "uint256",
          "name": "inputAmount",
          "type": "uint256"
        },
        {
          "internalType": "address",
          "name": "hypervisor",
          "type": "address"
        },
        {
          "internalType": "bytes",
          "name": "swap1",
          "type": "bytes"
        },
        {
          "internalType": "bytes",
          "name": "swap2",
          "type": "bytes"
        },
        {
          "internalType": "uint256",
          "name": "minShares",
          "type": "uint256"
        }
      ],
      "name": "stakeDoubleSwap",
      "outputs": [
        {
          "internalType": "uint256",
          "name": "",
          "type": "uint256"
        }
      ],
      "stateMutability": "nonpayable",
      "type": "function"
    },
    {
      "inputs": [
        {
          "internalType": "address",
          "name": "inputToken",
          "type": "address"
        },
        {
          "internalType": "uint256",
          "name": "inputAmount",
          "type": "uint256"
        },
        {
          "internalType": "address",
          "name": "hypervisor",
          "type": "address"
        },
        {
          "internalType": "bytes",
          "name": "swap1",
          "type": "bytes"
        },
        {
          "internalType": "bytes",
          "name": "swap2",
          "type": "bytes"
        },
        {
          "internalType": "uint256",
          "name": "minShares",
          "type": "uint256"
        },
        {
          "internalType": "address",
          "name": "zapRecipient",
          "type": "address"
        }
      ],
      "name": "stakeDoubleSwap",
      "outputs": [
        {
          "internalType": "uint256",
          "name": "",
          "type": "uint256"
        }
      ],
      "stateMutability": "nonpayable",
      "type": "function"
    },
    {
      "inputs": [
        {
          "internalType": "address",
          "name": "hypervisor",
          "type": "address"
        },
        {
          "internalType": "bytes",
          "name": "swap1",
          "type": "bytes"
        },
        {
          "internalType": "bytes",
          "name": "swap2",
          "type": "bytes"
        },
        {
          "internalType": "uint256",
          "name": "minShares",
          "type": "uint256"
        },
        {
          "internalType": "address",
          "name": "zapRecipient",
          "type": "address"
        }
      ],
      "name": "stakeETH",
      "outputs": [
        {
          "internalType": "uint256",
          "name": "",
          "type": "uint256"
        }
      ],
      "stateMutability": "payable",
      "type": "function"
    },
    {
      "inputs": [
        {
          "internalType": "address",
          "name": "hypervisor",
          "type": "address"
        },
        {
          "internalType": "bytes",
          "name": "swap1",
          "type": "bytes"
        },
        {
          "internalType": "bytes",
          "name": "swap2",
          "type": "bytes"
        },
        {
          "internalType": "uint256",
          "name": "minShares",
          "type": "uint256"
        }
      ],
      "name": "stakeETH",
      "outputs": [
        {
          "internalType": "uint256",
          "name": "",
          "type": "uint256"
        }
      ],
      "stateMutability": "payable",
      "type": "function"
    },
    {
      "inputs": [
        {
          "internalType": "address",
          "name": "inputToken",
          "type": "address"
        },
        {
          "internalType": "uint256",
          "name": "inputAmount",
          "type": "uint256"
        },
        {
          "internalType": "address",
          "name": "hypervisor",
          "type": "address"
        },
        {
          "internalType": "bytes",
          "name": "swap",
          "type": "bytes"
        },
        {
          "internalType": "uint256",
          "name": "minShares",
          "type": "uint256"
        },
        {
          "internalType": "address",
          "name": "zapRecipient",
          "type": "address"
        }
      ],
      "name": "stakeSingleSwap",
      "outputs": [
        {
          "internalType": "uint256",
          "name": "",
          "type": "uint256"
        }
      ],
      "stateMutability": "nonpayable",
      "type": "function"
    },
    {
      "inputs": [
        {
          "internalType": "address",
          "name": "inputToken",
          "type": "address"
        },
        {
          "internalType": "uint256",
          "name": "inputAmount",
          "type": "uint256"
        },
        {
          "internalType": "address",
          "name": "hypervisor",
          "type": "address"
        },
        {
          "internalType": "bytes",
          "name": "swap",
          "type": "bytes"
        },
        {
          "internalType": "uint256",
          "name": "minShares",
          "type": "uint256"
        }
      ],
      "name": "stakeSingleSwap",
      "outputs": [
        {
          "internalType": "uint256",
          "name": "",
          "type": "uint256"
        }
      ],
      "stateMutability": "nonpayable",
      "type": "function"
    },
    {
      "inputs": [],
      "name": "weth",
      "outputs": [
        {
          "internalType": "address",
          "name": "",
          "type": "address"
        }
      ],
      "stateMutability": "view",
      "type": "function"
    }
  ],
  "transactionHash": "0xf1597a388637e00f0e566b735f850f8beaf6688c33d184e64ffeee6ea302b611",
  "args": [
    "0xDef1C0ded9bec7F1a1670819833240f027b25EfF",
    "0x0d500B1d8E8eF31E21C99d1Db9A6444d3ADf1270",
    "0xaD7Ce5Cf8E594e1EFC6922Ab2c9F81d7a0E14337"
  ],
  "numDeployments": 1,
  "solcInputHash": "1174a45943333910f45a57b5ab85a8f8",
  "bytecode": "0x60e06040523480156200001157600080fd5b5060405162001e2d38038062001e2d8339810160408190526200003491620000f4565b60016000556001600160a01b03838116608081905283821660a081905291831660c05260405163095ea7b360e01b8152600481019190915260001960248201528491849184919063095ea7b3906044016020604051808303816000875af1158015620000a4573d6000803e3d6000fd5b505050506040513d601f19601f82011682018060405250810190620000ca91906200013e565b5050505050505062000169565b80516001600160a01b0381168114620000ef57600080fd5b919050565b6000806000606084860312156200010a57600080fd5b6200011584620000d7565b92506200012560208501620000d7565b91506200013560408501620000d7565b90509250925092565b6000602082840312156200015157600080fd5b815180151581146200016257600080fd5b9392505050565b60805160a05160c051611c39620001f4600039600081816101e401528181610c8d01526113a501526000818161018b0152818161032d015281816103570152818161048c015281816104e8015261051201526000818161027e015281816102d1015281816103c9015281816105a301528181610895015281816108be0152610c0f0152611c396000f3fe6080604052600436106100c75760003560e01c80634d93907211610074578063c0dd9c2f1161004e578063c0dd9c2f1461024c578063f887ea401461026c578063fbe522d4146102a057600080fd5b80634d939072146102065780637ead4aa414610226578063b998ef0e1461023957600080fd5b806310241b93116100a557806310241b93146101595780633fc8cef314610179578063452b7724146101d257600080fd5b806303df8699146100cc57806307e1761a146100ff5780630e8807dc14610112575b600080fd5b3480156100d857600080fd5b506100ec6100e7366004611596565b6102c0565b6040519081526020015b60405180910390f35b6100ec61010d36600461163c565b61031e565b34801561011e57600080fd5b5061013261012d3660046116dc565b61039a565b604080519315158452602080850193909352815190840152015160608201526080016100f6565b34801561016557600080fd5b506100ec61017436600461177b565b610417565b34801561018557600080fd5b506101ad7f000000000000000000000000000000000000000000000000000000000000000081565b60405173ffffffffffffffffffffffffffffffffffffffff90911681526020016100f6565b3480156101de57600080fd5b506101ad7f000000000000000000000000000000000000000000000000000000000000000081565b34801561021257600080fd5b506100ec6102213660046117fb565b610430565b610132610234366004611876565b61045f565b6100ec6102473660046118f9565b6104d9565b34801561025857600080fd5b50610132610267366004611984565b61053e565b34801561027857600080fd5b506101ad7f000000000000000000000000000000000000000000000000000000000000000081565b3480156102ac57600080fd5b506100ec6102bb3660046119e6565b610592565b60006102ca6105f1565b6102f589897f0000000000000000000000000000000000000000000000000000000000000000610669565b61030689898989898989893361069a565b90506103126001600055565b98975050505050505050565b60006103286105f1565b6103527f0000000000000000000000000000000000000000000000000000000000000000346106c9565b6103837f0000000000000000000000000000000000000000000000000000000000000000348a8a8a8a8a8a8a61069a565b905061038f6001600055565b979650505050505050565b6000806103ba604051806040016040528060008152602001600081525090565b6103c26105f1565b6103ed8a8a7f0000000000000000000000000000000000000000000000000000000000000000610669565b6103fa888888888861072e565b92509250925061040a6001600055565b9750975097945050505050565b60006104216105f1565b6103838888888888888861077b565b600061043a6105f1565b6104498787878787873361077b565b90506104556001600055565b9695505050505050565b60008061047f604051806040016040528060008152602001600081525090565b6104876105f1565b6104b17f0000000000000000000000000000000000000000000000000000000000000000346106c9565b6104be888888888861072e565b9250925092506104ce6001600055565b955095509592505050565b60006104e36105f1565b61050d7f0000000000000000000000000000000000000000000000000000000000000000346106c9565b6104497f0000000000000000000000000000000000000000000000000000000000000000348989898989893361069a565b60008061055e604051806040016040528060008152602001600081525090565b6105666105f1565b6000610575898989898961079b565b905061058187826109a9565b935093509350506104ce6001600055565b600061059c6105f1565b6105c78a8a7f0000000000000000000000000000000000000000000000000000000000000000610669565b6105d88a8a8a8a8a8a8a8a8a61069a565b90506105e46001600055565b9998505050505050505050565b600260005403610662576040517f08c379a000000000000000000000000000000000000000000000000000000000815260206004820152601f60248201527f5265656e7472616e637947756172643a207265656e7472616e742063616c6c0060448201526064015b60405180910390fd5b6002600055565b61068b73ffffffffffffffffffffffffffffffffffffffff84163330856109f2565b6106958382610ad4565b505050565b6000806106aa8989898989610bb6565b90506106ba8b8b8b878786610c35565b9b9a5050505050505050505050565b8173ffffffffffffffffffffffffffffffffffffffff1663d0e30db0826040518263ffffffff1660e01b81526004016000604051808303818588803b15801561071157600080fd5b505af1158015610725573d6000803e3d6000fd5b50505050505050565b60008061074e604051806040016040528060008152602001600081525090565b600061075d8989898989610bb6565b905061076989826109a9565b93509350935050955095509592505050565b60008061078b898989898961079b565b90506105e4898989878786610c35565b6040805160808101825260008183018181526060830182905282528251808401909352808352602080840182905282019290925290806107da86610d2e565b915091508173ffffffffffffffffffffffffffffffffffffffff168873ffffffffffffffffffffffffffffffffffffffff161415801561084657508073ffffffffffffffffffffffffffffffffffffffff168873ffffffffffffffffffffffffffffffffffffffff1614155b1561087d576040517fb4fa3fb300000000000000000000000000000000000000000000000000000000815260040160405180910390fd5b60008061088a8484610e18565b915091506108b98a8a7f0000000000000000000000000000000000000000000000000000000000000000610669565b6108e47f00000000000000000000000000000000000000000000000000000000000000008888610f45565b6000806108f18686610e18565b9150915083821115806109045750828111155b1561093b576040517f1115766700000000000000000000000000000000000000000000000000000000815260040160405180910390fd5b865173ffffffffffffffffffffffffffffffffffffffff871690526109608483611ad0565b875160209081019190915287015173ffffffffffffffffffffffffffffffffffffffff861690526109918382611ad0565b602080890151015250949a9950505050505050505050565b6000806109c9604051806040016040528060008152602001600081525090565b6109d38585610fc4565b909350905082156109eb576109e884866110e7565b91505b9250925092565b6040517f23b872dd0000000000000000000000000000000000000000000000000000000080825273ffffffffffffffffffffffffffffffffffffffff8581166004840152841660248301526044820183905290600080606483828a5af1610a5d573d6000803e3d6000fd5b50610a67856111b1565b610acd576040517f08c379a000000000000000000000000000000000000000000000000000000000815260206004820152601960248201527f475076323a206661696c6564207472616e7366657246726f6d000000000000006044820152606401610659565b5050505050565b6040517fdd62ed3e00000000000000000000000000000000000000000000000000000000815230600482015273ffffffffffffffffffffffffffffffffffffffff828116602483015283169063dd62ed3e90604401602060405180830381865afa158015610b46573d6000803e3d6000fd5b505050506040513d601f19601f82011682018060405250810190610b6a9190611ae3565b600003610bb257610bb273ffffffffffffffffffffffffffffffffffffffff8316827fffffffffffffffffffffffffffffffffffffffffffffffffffffffffffffffff61127c565b5050565b604080516080810182526000818301818152606083018290528252825180840190935280835260208084018290528201929092529080610bf588610d2e565b91509150600080610c068484610e18565b915091506108b97f00000000000000000000000000000000000000000000000000000000000000008a8a610f45565b6000610c4182866110e7565b905083811015610c87576040517f19a6c71a0000000000000000000000000000000000000000000000000000000081526004810182905260248101859052604401610659565b610cb1857f0000000000000000000000000000000000000000000000000000000000000000610ad4565b610cbc858285611351565b858773ffffffffffffffffffffffffffffffffffffffff168473ffffffffffffffffffffffffffffffffffffffff167f7602444f1556ffa1306aa87f177d86fbfe2b5088a5306c38bd2d223ed1de707584604051610d1c91815260200190565b60405180910390a49695505050505050565b6000808273ffffffffffffffffffffffffffffffffffffffff16630dfe16816040518163ffffffff1660e01b8152600401602060405180830381865afa158015610d7c573d6000803e3d6000fd5b505050506040513d601f19601f82011682018060405250810190610da09190611afc565b91508273ffffffffffffffffffffffffffffffffffffffff1663d21220a76040518163ffffffff1660e01b8152600401602060405180830381865afa158015610ded573d6000803e3d6000fd5b505050506040513d601f19601f82011682018060405250810190610e119190611afc565b9050915091565b6040517f70a08231000000000000000000000000000000000000000000000000000000008152306004820152600090819073ffffffffffffffffffffffffffffffffffffffff8516906370a0823190602401602060405180830381865afa158015610e87573d6000803e3d6000fd5b505050506040513d601f19601f82011682018060405250810190610eab9190611ae3565b6040517f70a0823100000000000000000000000000000000000000000000000000000000815230600482015290925073ffffffffffffffffffffffffffffffffffffffff8416906370a0823190602401602060405180830381865afa158015610f18573d6000803e3d6000fd5b505050506040513d601f19601f82011682018060405250810190610f3c9190611ae3565b90509250929050565b6000808473ffffffffffffffffffffffffffffffffffffffff168484604051610f6f929190611b19565b6000604051808303816000865af19150503d8060008114610fac576040519150601f19603f3d011682016040523d82523d6000602084013e610fb1565b606091505b509150915081610acd57610acd816113e9565b6000610fe3604051806040016040528060008152602001600081525090565b600080610fef8661142c565b855180516020909101516040517f5ccfb71d00000000000000000000000000000000000000000000000000000000815273ffffffffffffffffffffffffffffffffffffffff8a8116600483015292831660248201526044810191909152911690635ccfb71d906064016040805180830381865afa158015611074573d6000803e3d6000fd5b505050506040513d601f19601f820116820180604052508101906110989190611b29565b915091506110af85602001516020015183836114a3565b9350836110de57604051806040016040528086600001516020015181526020016110d984846114bd565b905292505b50509250929050565b8151516000906110f79083610ad4565b6020830151516111079083610ad4565b6111108261142c565b73ffffffffffffffffffffffffffffffffffffffff16638e3c92e484600001516020015185602001516020015130866111476114d8565b6040518663ffffffff1660e01b8152600401611167959493929190611b4d565b6020604051808303816000875af1158015611186573d6000803e3d6000fd5b505050506040513d601f19601f820116820180604052508101906111aa9190611ae3565b9392505050565b60006111f0565b7f08c379a000000000000000000000000000000000000000000000000000000000600052602060045280602452508060445260646000fd5b3d801561122f57602081146112695761122a7f475076323a206d616c666f726d6564207472616e7366657220726573756c7400601f6111b8565b611276565b823b611260576112607f475076323a206e6f74206120636f6e747261637400000000000000000000000060146111b8565b60019150611276565b3d6000803e600051151591505b50919050565b60006040517f095ea7b300000000000000000000000000000000000000000000000000000000815273ffffffffffffffffffffffffffffffffffffffff84166004820152826024820152602060006044836000895af13d15601f3d116001600051141617169150508061134b576040517f08c379a000000000000000000000000000000000000000000000000000000000815260206004820152600e60248201527f415050524f56455f4641494c45440000000000000000000000000000000000006044820152606401610659565b50505050565b6040517f294091cd00000000000000000000000000000000000000000000000000000000815273ffffffffffffffffffffffffffffffffffffffff84811660048301526024820184905282811660448301527f0000000000000000000000000000000000000000000000000000000000000000169063294091cd90606401600060405180830381600087803b15801561071157600080fd5b8051600003611424576040517f67e1b70700000000000000000000000000000000000000000000000000000000815260040160405180910390fd5b805181602001fd5b60008173ffffffffffffffffffffffffffffffffffffffff166386a290816040518163ffffffff1660e01b8152600401602060405180830381865afa158015611479573d6000803e3d6000fd5b505050506040513d601f19601f8201168201806040525081019061149d9190611afc565b92915050565b60008284101580156114b55750818411155b949350505050565b60006114cc6002848418611bb5565b6111aa90848416611bf0565b6114e061150a565b60405180608001604052806000815260200160008152602001600081526020016000815250905090565b60405180608001604052806004906020820280368337509192915050565b73ffffffffffffffffffffffffffffffffffffffff8116811461154a57600080fd5b50565b60008083601f84011261155f57600080fd5b50813567ffffffffffffffff81111561157757600080fd5b60208301915083602082850101111561158f57600080fd5b9250929050565b60008060008060008060008060c0898b0312156115b257600080fd5b88356115bd81611528565b97506020890135965060408901356115d481611528565b9550606089013567ffffffffffffffff808211156115f157600080fd5b6115fd8c838d0161154d565b909750955060808b013591508082111561161657600080fd5b506116238b828c0161154d565b999c989b50969995989497949560a00135949350505050565b600080600080600080600060a0888a03121561165757600080fd5b873561166281611528565b9650602088013567ffffffffffffffff8082111561167f57600080fd5b61168b8b838c0161154d565b909850965060408a01359150808211156116a457600080fd5b506116b18a828b0161154d565b9095509350506060880135915060808801356116cc81611528565b8091505092959891949750929550565b600080600080600080600060a0888a0312156116f757600080fd5b873561170281611528565b965060208801359550604088013561171981611528565b9450606088013567ffffffffffffffff8082111561173657600080fd5b6117428b838c0161154d565b909650945060808a013591508082111561175b57600080fd5b506117688a828b0161154d565b989b979a50959850939692959293505050565b600080600080600080600060c0888a03121561179657600080fd5b87356117a181611528565b96506020880135955060408801356117b881611528565b9450606088013567ffffffffffffffff8111156117d457600080fd5b6117e08a828b0161154d565b9095509350506080880135915060a08801356116cc81611528565b60008060008060008060a0878903121561181457600080fd5b863561181f81611528565b955060208701359450604087013561183681611528565b9350606087013567ffffffffffffffff81111561185257600080fd5b61185e89828a0161154d565b979a9699509497949695608090950135949350505050565b60008060008060006060868803121561188e57600080fd5b853561189981611528565b9450602086013567ffffffffffffffff808211156118b657600080fd5b6118c289838a0161154d565b909650945060408801359150808211156118db57600080fd5b506118e88882890161154d565b969995985093965092949392505050565b6000806000806000806080878903121561191257600080fd5b863561191d81611528565b9550602087013567ffffffffffffffff8082111561193a57600080fd5b6119468a838b0161154d565b9097509550604089013591508082111561195f57600080fd5b5061196c89828a0161154d565b979a9699509497949695606090950135949350505050565b60008060008060006080868803121561199c57600080fd5b85356119a781611528565b94506020860135935060408601356119be81611528565b9250606086013567ffffffffffffffff8111156119da57600080fd5b6118e88882890161154d565b600080600080600080600080600060e08a8c031215611a0457600080fd5b8935611a0f81611528565b985060208a0135975060408a0135611a2681611528565b965060608a013567ffffffffffffffff80821115611a4357600080fd5b611a4f8d838e0161154d565b909850965060808c0135915080821115611a6857600080fd5b50611a758c828d0161154d565b90955093505060a08a0135915060c08a0135611a9081611528565b809150509295985092959850929598565b7f4e487b7100000000000000000000000000000000000000000000000000000000600052601160045260246000fd5b8181038181111561149d5761149d611aa1565b600060208284031215611af557600080fd5b5051919050565b600060208284031215611b0e57600080fd5b81516111aa81611528565b8183823760009101908152919050565b60008060408385031215611b3c57600080fd5b505080516020909101519092909150565b858152602080820186905273ffffffffffffffffffffffffffffffffffffffff858116604084015284166060830152610100820190608083018460005b6004811015611ba757815183529183019190830190600101611b8a565b505050509695505050505050565b600082611beb577f4e487b7100000000000000000000000000000000000000000000000000000000600052601260045260246000fd5b500490565b8082018082111561149d5761149d611aa156fea2646970667358221220f1bc86db457c1cbe43bcb11b7a861fa4adf000938b5a18965119ccec7b95822264736f6c63430008120033",
  "devdoc": {
    "author": "Solid World",
    "kind": "dev",
    "methods": {
      "simulateStakeDoubleSwap(address,uint256,address,bytes,bytes)": {
        "params": {
          "hypervisor": "The hypervisor used to deploy liquidity",
          "inputAmount": "The amount of `inputToken` to use",
          "inputToken": "The token used to provide liquidity",
          "swap1": "Encoded swap to partially swap `inputToken` to desired token",
          "swap2": "Encoded swap to partially swap `inputToken` to desired token"
        },
        "returns": {
          "_0": "Whether the resulting tokens qualify for a dustless liquidity deployment",
          "_1": "The amount of shares minted from the dustless liquidity deployment",
          "_2": "The current gamma token ratio, or empty if dustless"
        }
      },
      "simulateStakeETH(address,bytes,bytes)": {
        "params": {
          "hypervisor": "The hypervisor used to deploy liquidity",
          "swap1": "Encoded swap to partially swap `WETH` to desired token",
          "swap2": "Encoded swap to partially swap `WETH` to desired token"
        },
        "returns": {
          "_0": "Whether the resulting tokens qualify for a dustless liquidity deployment",
          "_1": "The amount of shares minted from the dustless liquidity deployment",
          "_2": "The current gamma token ratio, or empty if dustless"
        }
      },
      "simulateStakeSingleSwap(address,uint256,address,bytes)": {
        "params": {
          "hypervisor": "The hypervisor used to deploy liquidity",
          "inputAmount": "The amount of `inputToken` to use",
          "inputToken": "The token used to provide liquidity",
          "swap": "Encoded swap to partially (close to 50%) swap `inputToken` to desired token"
        },
        "returns": {
          "isDustless": "Whether the resulting tokens qualify for a dustless liquidity deployment",
          "ratio": "The current gamma token ratio, or empty if dustless",
          "shares": "The amount of shares minted from the dustless liquidity deployment"
        }
      },
      "stakeDoubleSwap(address,uint256,address,bytes,bytes,uint256)": {
        "params": {
          "hypervisor": "The hypervisor used to deploy liquidity",
          "inputAmount": "The amount of `inputToken` to use",
          "inputToken": "The token used to provide liquidity",
          "minShares": "The minimum amount of liquidity shares required for transaction to succeed",
          "swap1": "Encoded swap to partially swap `inputToken` to desired token",
          "swap2": "Encoded swap to partially swap `inputToken` to desired token"
        },
        "returns": {
          "_0": "The amount of shares staked in `solidStaking`"
        }
      },
      "stakeDoubleSwap(address,uint256,address,bytes,bytes,uint256,address)": {
        "params": {
          "hypervisor": "The hypervisor used to deploy liquidity",
          "inputAmount": "The amount of `inputToken` to use",
          "inputToken": "The token used to provide liquidity",
          "minShares": "The minimum amount of liquidity shares required for transaction to succeed",
          "swap1": "Encoded swap to partially swap `inputToken` to desired token",
          "swap2": "Encoded swap to partially swap `inputToken` to desired token",
          "zapRecipient": "The beneficiary of the staked shares"
        },
        "returns": {
          "_0": "The amount of shares staked in `solidStaking`"
        }
      },
      "stakeETH(address,bytes,bytes,uint256)": {
        "params": {
          "hypervisor": "The hypervisor used to deploy liquidity",
          "minShares": "The minimum amount of liquidity shares required for transaction to succeed",
          "swap1": "Encoded swap to partially swap `WETH` to desired token",
          "swap2": "Encoded swap to partially swap `WETH` to desired token"
        },
        "returns": {
          "_0": "The amount of shares staked in `solidStaking`"
        }
      },
      "stakeETH(address,bytes,bytes,uint256,address)": {
        "params": {
          "hypervisor": "The hypervisor used to deploy liquidity",
          "minShares": "The minimum amount of liquidity shares required for transaction to succeed",
          "swap1": "Encoded swap to partially swap `WETH` to desired token",
          "swap2": "Encoded swap to partially swap `WETH` to desired token",
          "zapRecipient": "The beneficiary of the staked shares"
        },
        "returns": {
          "_0": "The amount of shares staked in `solidStaking`"
        }
      },
      "stakeSingleSwap(address,uint256,address,bytes,uint256)": {
        "params": {
          "hypervisor": "The hypervisor used to deploy liquidity",
          "inputAmount": "The amount of `inputToken` to use",
          "inputToken": "The token used to provide liquidity",
          "minShares": "The minimum amount of liquidity shares required for transaction to succeed",
          "swap": "Encoded swap to partially swap `inputToken` to desired token"
        },
        "returns": {
          "_0": "The amount of shares staked in `solidStaking`"
        }
      },
      "stakeSingleSwap(address,uint256,address,bytes,uint256,address)": {
        "params": {
          "hypervisor": "The hypervisor used to deploy liquidity",
          "inputAmount": "The amount of `inputToken` to use",
          "inputToken": "The token used to provide liquidity",
          "minShares": "The minimum amount of liquidity shares required for transaction to succeed",
          "swap": "Encoded swap to partially swap `inputToken` to desired token",
          "zapRecipient": "The beneficiary of the staked shares"
        },
        "returns": {
          "_0": "The amount of shares staked in `solidStaking`"
        }
      }
    },
    "version": 1
  },
  "userdoc": {
    "kind": "user",
    "methods": {
      "simulateStakeDoubleSwap(address,uint256,address,bytes,bytes)": {
        "notice": "Function is meant to be called off-chain with _staticCall_.Zap function that achieves the following: 1. Partially swaps `inputToken` to desired token via encoded swap1 2. Partially swaps `inputToken` to desired token via encoded swap2 3. Resulting tokens are checked against Gamma Vault to determine if they qualify for a dustless liquidity deployment     * if dustless, the function deploys the liquidity to obtain the amounts of shares getting minted and returns     * if not dustless, the function computes the current gamma token ratio and returnsThe msg.sender must own `inputAmount` and approve this contract to spend `inputToken`"
      },
      "simulateStakeETH(address,bytes,bytes)": {
        "notice": "Function is meant to be called off-chain with _staticCall_.Zap function that achieves the following: 1. Wraps `msg.value` to WETH 2. Partially swaps `WETH` to desired token via encoded swap1 3. Partially swaps `WETH` to desired token via encoded swap2 4. Resulting tokens are checked against Gamma Vault to determine if they qualify for a dustless liquidity deployment     * if dustless, the function deploys the liquidity to obtain the amounts of shares getting minted and returns     * if not dustless, the function computes the current gamma token ratio and returns"
      },
      "simulateStakeSingleSwap(address,uint256,address,bytes)": {
        "notice": "Function is meant to be called off-chain with _staticCall_.Zap function that achieves the following: 1. Partially (close to 50%) swaps `inputToken` to desired token via encoded swap 2. Resulting tokens are checked against Gamma Vault to determine if they qualify for a dustless liquidity deployment     * if dustless, the function deploys the liquidity to obtain the amounts of shares getting minted and returns     * if not dustless, the function computes the current gamma token ratio and returnsThe msg.sender must own `inputAmount` and approve this contract to spend `inputToken``inputToken` must be one of hypervisor's token0 or token1"
      },
      "stakeDoubleSwap(address,uint256,address,bytes,bytes,uint256)": {
        "notice": "Zap function that achieves the following: 1. Partially swaps `inputToken` to desired token via encoded swap1 2. Partially swaps `inputToken` to desired token via encoded swap2 3. Resulting tokens are deployed as liquidity via IUniProxy & `hypervisor` 4. Shares of the deployed liquidity are staked in `solidStaking`. `msg.sender` is the beneficiary of the staked sharesThe msg.sender must own `inputAmount` and approve this contract to spend `inputToken`"
      },
      "stakeDoubleSwap(address,uint256,address,bytes,bytes,uint256,address)": {
        "notice": "Zap function that achieves the following: 1. Partially swaps `inputToken` to desired token via encoded swap1 2. Partially swaps `inputToken` to desired token via encoded swap2 3. Resulting tokens are deployed as liquidity via IUniProxy & `hypervisor` 4. Shares of the deployed liquidity are staked in `solidStaking`. `zapRecipient` is the beneficiary of the staked sharesThe msg.sender must own `inputAmount` and approve this contract to spend `inputToken`"
      },
      "stakeETH(address,bytes,bytes,uint256)": {
        "notice": "Zap function that achieves the following: 1. Wraps `msg.value` to WETH 2. Partially swaps `WETH` to desired token via encoded swap1 3. Partially swaps `WETH` to desired token via encoded swap2 4. Resulting tokens are deployed as liquidity via IUniProxy & `hypervisor` 5. Shares of the deployed liquidity are staked in `solidStaking`. `msg.sender` is the beneficiary of the staked shares"
      },
      "stakeETH(address,bytes,bytes,uint256,address)": {
        "notice": "Zap function that achieves the following: 1. Wraps `msg.value` to WETH 2. Partially swaps `WETH` to desired token via encoded swap1 3. Partially swaps `WETH` to desired token via encoded swap2 4. Resulting tokens are deployed as liquidity via IUniProxy & `hypervisor` 5. Shares of the deployed liquidity are staked in `solidStaking`. `zapRecipient` is the beneficiary of the staked shares"
      },
      "stakeSingleSwap(address,uint256,address,bytes,uint256)": {
        "notice": "Zap function that achieves the following: 1. Partially (close to 50%) swaps `inputToken` to desired token via encoded swap 3. Resulting tokens are deployed as liquidity via IUniProxy & `hypervisor` 4. Shares of the deployed liquidity are staked in `solidStaking`. `msg.sender` is the beneficiary of the staked sharesThe msg.sender must own `inputAmount` and approve this contract to spend `inputToken``inputToken` must be one of hypervisor's token0 or token1"
      },
      "stakeSingleSwap(address,uint256,address,bytes,uint256,address)": {
        "notice": "Zap function that achieves the following: 1. Partially (close to 50%) swaps `inputToken` to desired token via encoded swap 3. Resulting tokens are deployed as liquidity via IUniProxy & `hypervisor` 4. Shares of the deployed liquidity are staked in `solidStaking`. `zapRecipient` is the beneficiary of the staked sharesThe msg.sender must own `inputAmount` and approve this contract to spend `inputToken``inputToken` must be one of hypervisor's token0 or token1"
      }
    },
    "version": 1
  },
  "storageLayout": {
    "storage": [
      {
        "astId": 2179,
        "contract": "contracts/zap/staking/SolidZapStaker.sol:SolidZapStaker",
        "label": "_status",
        "offset": 0,
        "slot": "0",
        "type": "t_uint256"
      }
    ],
    "types": {
      "t_uint256": {
        "encoding": "inplace",
        "label": "uint256",
        "numberOfBytes": "32"
      }
    }
  }
}