{
  "address": "0x13BD7598d2Fab55740F2d9c08C96bF84476dF6b9",
  "abi": [
    {
      "inputs": [
        {
          "internalType": "address",
          "name": "_router",
          "type": "address"
        },
        {
          "internalType": "address",
          "name": "_weth",
          "type": "address"
        },
        {
          "internalType": "address",
          "name": "_swManager",
          "type": "address"
        },
        {
          "internalType": "address",
          "name": "_forwardContractBatch",
          "type": "address"
        }
      ],
      "stateMutability": "nonpayable",
      "type": "constructor"
    },
    {
      "inputs": [],
      "name": "ETHTransferFailed",
      "type": "error"
    },
    {
      "inputs": [],
      "name": "GenericSwapError",
      "type": "error"
    },
    {
      "inputs": [],
      "name": "InvalidInput",
      "type": "error"
    },
    {
      "inputs": [],
      "name": "SweepAmountZero",
      "type": "error"
    },
    {
      "anonymous": false,
      "inputs": [
        {
          "indexed": true,
          "internalType": "address",
          "name": "receiver",
          "type": "address"
        },
        {
          "indexed": true,
          "internalType": "address",
          "name": "outputToken",
          "type": "address"
        },
        {
          "indexed": true,
          "internalType": "uint256",
          "name": "outputAmount",
          "type": "uint256"
        },
        {
          "indexed": false,
          "internalType": "uint256",
          "name": "dust",
          "type": "uint256"
        },
        {
          "indexed": false,
          "internalType": "address",
          "name": "dustRecipient",
          "type": "address"
        },
        {
          "indexed": false,
          "internalType": "uint256",
          "name": "categoryId",
          "type": "uint256"
        }
      ],
      "name": "ZapCollateralize",
      "type": "event"
    },
    {
      "stateMutability": "payable",
      "type": "fallback"
    },
    {
      "inputs": [],
      "name": "forwardContractBatch",
      "outputs": [
        {
          "internalType": "address",
          "name": "",
          "type": "address"
        }
      ],
      "stateMutability": "view",
      "type": "function"
    },
    {
      "inputs": [
        {
          "internalType": "address",
          "name": "operator",
          "type": "address"
        },
        {
          "internalType": "address",
          "name": "",
          "type": "address"
        },
        {
          "internalType": "uint256[]",
          "name": "",
          "type": "uint256[]"
        },
        {
          "internalType": "uint256[]",
          "name": "",
          "type": "uint256[]"
        },
        {
          "internalType": "bytes",
          "name": "",
          "type": "bytes"
        }
      ],
      "name": "onERC1155BatchReceived",
      "outputs": [
        {
          "internalType": "bytes4",
          "name": "",
          "type": "bytes4"
        }
      ],
      "stateMutability": "nonpayable",
      "type": "function"
    },
    {
      "inputs": [
        {
          "internalType": "address",
          "name": "operator",
          "type": "address"
        },
        {
          "internalType": "address",
          "name": "",
          "type": "address"
        },
        {
          "internalType": "uint256",
          "name": "",
          "type": "uint256"
        },
        {
          "internalType": "uint256",
          "name": "",
          "type": "uint256"
        },
        {
          "internalType": "bytes",
          "name": "",
          "type": "bytes"
        }
      ],
      "name": "onERC1155Received",
      "outputs": [
        {
          "internalType": "bytes4",
          "name": "",
          "type": "bytes4"
        }
      ],
      "stateMutability": "nonpayable",
      "type": "function"
    },
    {
      "inputs": [],
      "name": "router",
      "outputs": [
        {
          "internalType": "address",
          "name": "",
          "type": "address"
        }
      ],
      "stateMutability": "view",
      "type": "function"
    },
    {
      "inputs": [
        {
          "internalType": "bytes4",
          "name": "interfaceId",
          "type": "bytes4"
        }
      ],
      "name": "supportsInterface",
      "outputs": [
        {
          "internalType": "bool",
          "name": "",
          "type": "bool"
        }
      ],
      "stateMutability": "pure",
      "type": "function"
    },
    {
      "inputs": [],
      "name": "swManager",
      "outputs": [
        {
          "internalType": "address",
          "name": "",
          "type": "address"
        }
      ],
      "stateMutability": "view",
      "type": "function"
    },
    {
      "inputs": [],
      "name": "weth",
      "outputs": [
        {
          "internalType": "address",
          "name": "",
          "type": "address"
        }
      ],
      "stateMutability": "view",
      "type": "function"
    },
    {
      "inputs": [
        {
          "internalType": "address",
          "name": "outputToken",
          "type": "address"
        },
        {
          "internalType": "address",
          "name": "crispToken",
          "type": "address"
        },
        {
          "internalType": "uint256",
          "name": "batchId",
          "type": "uint256"
        },
        {
          "internalType": "uint256",
          "name": "amountIn",
          "type": "uint256"
        },
        {
          "internalType": "uint256",
          "name": "amountOutMin",
          "type": "uint256"
        },
        {
          "internalType": "bytes",
          "name": "swap",
          "type": "bytes"
        },
        {
          "internalType": "address",
          "name": "dustRecipient",
          "type": "address"
        },
        {
          "internalType": "address",
          "name": "zapRecipient",
          "type": "address"
        }
      ],
      "name": "zapCollateralize",
      "outputs": [],
      "stateMutability": "nonpayable",
      "type": "function"
    },
    {
      "inputs": [
        {
          "internalType": "address",
          "name": "outputToken",
          "type": "address"
        },
        {
          "internalType": "address",
          "name": "crispToken",
          "type": "address"
        },
        {
          "internalType": "uint256",
          "name": "batchId",
          "type": "uint256"
        },
        {
          "internalType": "uint256",
          "name": "amountIn",
          "type": "uint256"
        },
        {
          "internalType": "uint256",
          "name": "amountOutMin",
          "type": "uint256"
        },
        {
          "internalType": "bytes",
          "name": "swap",
          "type": "bytes"
        },
        {
          "internalType": "address",
          "name": "dustRecipient",
          "type": "address"
        }
      ],
      "name": "zapCollateralize",
      "outputs": [],
      "stateMutability": "nonpayable",
      "type": "function"
    },
    {
      "inputs": [
        {
          "internalType": "address",
          "name": "crispToken",
          "type": "address"
        },
        {
          "internalType": "uint256",
          "name": "batchId",
          "type": "uint256"
        },
        {
          "internalType": "uint256",
          "name": "amountIn",
          "type": "uint256"
        },
        {
          "internalType": "uint256",
          "name": "amountOutMin",
          "type": "uint256"
        },
        {
          "internalType": "bytes",
          "name": "swap",
          "type": "bytes"
        },
        {
          "internalType": "address",
          "name": "dustRecipient",
          "type": "address"
        }
      ],
      "name": "zapCollateralizeETH",
      "outputs": [],
      "stateMutability": "nonpayable",
      "type": "function"
    },
    {
      "inputs": [
        {
          "internalType": "address",
          "name": "crispToken",
          "type": "address"
        },
        {
          "internalType": "uint256",
          "name": "batchId",
          "type": "uint256"
        },
        {
          "internalType": "uint256",
          "name": "amountIn",
          "type": "uint256"
        },
        {
          "internalType": "uint256",
          "name": "amountOutMin",
          "type": "uint256"
        },
        {
          "internalType": "bytes",
          "name": "swap",
          "type": "bytes"
        },
        {
          "internalType": "address",
          "name": "dustRecipient",
          "type": "address"
        },
        {
          "internalType": "address",
          "name": "zapRecipient",
          "type": "address"
        }
      ],
      "name": "zapCollateralizeETH",
      "outputs": [],
      "stateMutability": "nonpayable",
      "type": "function"
    },
    {
      "stateMutability": "payable",
      "type": "receive"
    }
  ],
  "transactionHash": "0x9870cf747e2c1f984cc985bc73f46c6e99a58296b4a1b23af545c4c26293c997",
  "args": [
    "0xDef1C0ded9bec7F1a1670819833240f027b25EfF",
    "0x0d500B1d8E8eF31E21C99d1Db9A6444d3ADf1270",
    "0xe967aEBdbf137C2ddD4aaF076E87177c4EBEB851",
    "0x029090aC92b0BAAF20Ccef615BAfD268f08Db8fA"
  ],
  "numDeployments": 1,
  "solcInputHash": "1174a45943333910f45a57b5ab85a8f8",
  "bytecode": "0x6101006040523480156200001257600080fd5b506040516200190e3803806200190e8339810160408190526200003591620000ed565b600160008190556001600160a01b0385811660805284811660a05283811660c081905290831660e081905260405163a22cb46560e01b815260048101929092526024820192909252859185918591859163a22cb46590604401600060405180830381600087803b158015620000a957600080fd5b505af1158015620000be573d6000803e3d6000fd5b5050505050505050505050506200014a565b80516001600160a01b0381168114620000e857600080fd5b919050565b600080600080608085870312156200010457600080fd5b6200010f85620000d0565b93506200011f60208601620000d0565b92506200012f60408601620000d0565b91506200013f60608601620000d0565b905092959194509250565b60805160a05160c05160e05161173e620001d06000396000818161039e0152610c23015260008181610285015281816108d10152610ccd01526000818160dd0152818161014e0152818161020c015281816104ea0152818161065b015281816109d70152610ac201526000818161036a01528181610715015261073e015261173e6000f3fe6080604052600436106100c05760003560e01c806391ef00ea11610074578063f726024f1161004e578063f726024f14610338578063f887ea4014610358578063fb5ba8eb1461038c57610136565b806391ef00ea146102a7578063bc197c81146102c7578063f23a6e611461031857610136565b80633fc8cef3116100a55780633fc8cef3146101fa5780634a5020df1461025357806373d0eb6b1461027357610136565b8063014007d2146101a557806301ffc9a7146101c557610136565b36610136573373ffffffffffffffffffffffffffffffffffffffff7f00000000000000000000000000000000000000000000000000000000000000001614610134576040517fb12d13eb00000000000000000000000000000000000000000000000000000000815260040160405180910390fd5b005b3373ffffffffffffffffffffffffffffffffffffffff7f00000000000000000000000000000000000000000000000000000000000000001614610134576040517fb12d13eb00000000000000000000000000000000000000000000000000000000815260040160405180910390fd5b3480156101b157600080fd5b506101346101c03660046111c8565b6103c0565b3480156101d157600080fd5b506101e56101e036600461126b565b610419565b60405190151581526020015b60405180910390f35b34801561020657600080fd5b5061022e7f000000000000000000000000000000000000000000000000000000000000000081565b60405173ffffffffffffffffffffffffffffffffffffffff90911681526020016101f1565b34801561025f57600080fd5b5061013461026e3660046112ad565b6104b2565b34801561027f57600080fd5b5061022e7f000000000000000000000000000000000000000000000000000000000000000081565b3480156102b357600080fd5b506101346102c236600461132f565b610526565b3480156102d357600080fd5b506102e76102e236600461154d565b61057e565b6040517fffffffff0000000000000000000000000000000000000000000000000000000090911681526020016101f1565b34801561032457600080fd5b506102e76103333660046115f7565b6105d1565b34801561034457600080fd5b5061013461035336600461165c565b610623565b34801561036457600080fd5b5061022e7f000000000000000000000000000000000000000000000000000000000000000081565b34801561039857600080fd5b5061022e7f000000000000000000000000000000000000000000000000000000000000000081565b6103c8610682565b6103d68888888888886106fa565b60006103e48a83600161076c565b905060006103f28a8561086f565b9050610402838a8d85858961087d565b505061040e6001600055565b505050505050505050565b60007f01ffc9a7000000000000000000000000000000000000000000000000000000007fffffffff00000000000000000000000000000000000000000000000000000000831614806104ac57507f4e2312e0000000000000000000000000000000000000000000000000000000007fffffffff000000000000000000000000000000000000000000000000000000008316145b92915050565b6104ba610682565b6104c88787878787876106fa565b60006104d3336109a6565b905060006104e1898461086f565b905061051133897f000000000000000000000000000000000000000000000000000000000000000085858861087d565b505061051d6001600055565b50505050505050565b61052e610682565b61053c8787878787876106fa565b600061054a8933600161076c565b90506000610558898461086f565b905061056833898c85858861087d565b50506105746001600055565b5050505050505050565b600073ffffffffffffffffffffffffffffffffffffffff861630146105a5575060006105c8565b507fbc197c81000000000000000000000000000000000000000000000000000000005b95945050505050565b600073ffffffffffffffffffffffffffffffffffffffff861630146105f8575060006105c8565b507ff23a6e610000000000000000000000000000000000000000000000000000000095945050505050565b61062b610682565b6106398888888888886106fa565b6000610644826109a6565b905060006106528a8561086f565b9050610568838a7f000000000000000000000000000000000000000000000000000000000000000085858961087d565b6002600054036106f3576040517f08c379a000000000000000000000000000000000000000000000000000000000815260206004820152601f60248201527f5265656e7472616e637947756172643a207265656e7472616e742063616c6c0060448201526064015b60405180910390fd5b6002600055565b6107048585610bd3565b61070f858585610c90565b610739867f0000000000000000000000000000000000000000000000000000000000000000610d3a565b6107647f00000000000000000000000000000000000000000000000000000000000000008383610e1c565b505050505050565b6040517f70a0823100000000000000000000000000000000000000000000000000000000815230600482015260009073ffffffffffffffffffffffffffffffffffffffff8516906370a0823190602401602060405180830381865afa1580156107d9573d6000803e3d6000fd5b505050506040513d601f19601f820116820180604052508101906107fd91906116df565b90508015801561080a5750815b15610841576040517ff2035b6300000000000000000000000000000000000000000000000000000000815260040160405180910390fd5b80156108685761086873ffffffffffffffffffffffffffffffffffffffff85168483610ea2565b9392505050565b60006108688383600061076c565b828473ffffffffffffffffffffffffffffffffffffffff168773ffffffffffffffffffffffffffffffffffffffff167fbe71403e09bb5b80d1b3f9939bbb759c5d3fb5407b428889fbab5726ae90d64685857f000000000000000000000000000000000000000000000000000000000000000073ffffffffffffffffffffffffffffffffffffffff1663a88fd94a8c6040518263ffffffff1660e01b815260040161092a91815260200190565b602060405180830381865afa158015610947573d6000803e3d6000fd5b505050506040513d601f19601f8201168201806040525081019061096b91906116df565b6040805193845273ffffffffffffffffffffffffffffffffffffffff90921660208401529082015260600160405180910390a4505050505050565b6040517f70a082310000000000000000000000000000000000000000000000000000000081523060048201526000907f000000000000000000000000000000000000000000000000000000000000000073ffffffffffffffffffffffffffffffffffffffff16906370a0823190602401602060405180830381865afa158015610a33573d6000803e3d6000fd5b505050506040513d601f19601f82011682018060405250810190610a5791906116df565b905080600003610a93576040517ff2035b6300000000000000000000000000000000000000000000000000000000815260040160405180910390fd5b6040517f2e1a7d4d000000000000000000000000000000000000000000000000000000008152600481018290527f000000000000000000000000000000000000000000000000000000000000000073ffffffffffffffffffffffffffffffffffffffff1690632e1a7d4d90602401600060405180830381600087803b158015610b1b57600080fd5b505af1158015610b2f573d6000803e3d6000fd5b5050505060008273ffffffffffffffffffffffffffffffffffffffff168260405160006040518083038185875af1925050503d8060008114610b8d576040519150601f19603f3d011682016040523d82523d6000602084013e610b92565b606091505b5050905080610bcd576040517fb12d13eb00000000000000000000000000000000000000000000000000000000815260040160405180910390fd5b50919050565b6040517ff242432a000000000000000000000000000000000000000000000000000000008152336004820152306024820152604481018390526064810182905260a06084820152600060a48201527f000000000000000000000000000000000000000000000000000000000000000073ffffffffffffffffffffffffffffffffffffffff169063f242432a9060c401600060405180830381600087803b158015610c7c57600080fd5b505af1158015610764573d6000803e3d6000fd5b6040517fb505ab860000000000000000000000000000000000000000000000000000000081526004810184905260248101839052604481018290527f000000000000000000000000000000000000000000000000000000000000000073ffffffffffffffffffffffffffffffffffffffff169063b505ab8690606401600060405180830381600087803b158015610d2657600080fd5b505af115801561051d573d6000803e3d6000fd5b6040517fdd62ed3e00000000000000000000000000000000000000000000000000000000815230600482015273ffffffffffffffffffffffffffffffffffffffff828116602483015283169063dd62ed3e90604401602060405180830381865afa158015610dac573d6000803e3d6000fd5b505050506040513d601f19601f82011682018060405250810190610dd091906116df565b600003610e1857610e1873ffffffffffffffffffffffffffffffffffffffff8316827fffffffffffffffffffffffffffffffffffffffffffffffffffffffffffffffff610f7b565b5050565b6000808473ffffffffffffffffffffffffffffffffffffffff168484604051610e469291906116f8565b6000604051808303816000865af19150503d8060008114610e83576040519150601f19603f3d011682016040523d82523d6000602084013e610e88565b606091505b509150915081610e9b57610e9b8161104a565b5050505050565b6040517fa9059cbb0000000000000000000000000000000000000000000000000000000080825273ffffffffffffffffffffffffffffffffffffffff84166004830152602482018390529060008060448382895af1610f05573d6000803e3d6000fd5b50610f0f8461108d565b610f75576040517f08c379a000000000000000000000000000000000000000000000000000000000815260206004820152601560248201527f475076323a206661696c6564207472616e73666572000000000000000000000060448201526064016106ea565b50505050565b60006040517f095ea7b300000000000000000000000000000000000000000000000000000000815273ffffffffffffffffffffffffffffffffffffffff84166004820152826024820152602060006044836000895af13d15601f3d1160016000511416171691505080610f75576040517f08c379a000000000000000000000000000000000000000000000000000000000815260206004820152600e60248201527f415050524f56455f4641494c454400000000000000000000000000000000000060448201526064016106ea565b8051600003611085576040517f67e1b70700000000000000000000000000000000000000000000000000000000815260040160405180910390fd5b805181602001fd5b60006110cc565b7f08c379a000000000000000000000000000000000000000000000000000000000600052602060045280602452508060445260646000fd5b3d801561110b5760208114611145576111067f475076323a206d616c666f726d6564207472616e7366657220726573756c7400601f611094565b610bcd565b823b61113c5761113c7f475076323a206e6f74206120636f6e74726163740000000000000000000000006014611094565b60019150610bcd565b3d6000803e50506000511515919050565b803573ffffffffffffffffffffffffffffffffffffffff8116811461117a57600080fd5b919050565b60008083601f84011261119157600080fd5b50813567ffffffffffffffff8111156111a957600080fd5b6020830191508360208285010111156111c157600080fd5b9250929050565b60008060008060008060008060006101008a8c0312156111e757600080fd5b6111f08a611156565b98506111fe60208b01611156565b975060408a0135965060608a0135955060808a0135945060a08a013567ffffffffffffffff81111561122f57600080fd5b61123b8c828d0161117f565b909550935061124e905060c08b01611156565b915061125c60e08b01611156565b90509295985092959850929598565b60006020828403121561127d57600080fd5b81357fffffffff000000000000000000000000000000000000000000000000000000008116811461086857600080fd5b600080600080600080600060c0888a0312156112c857600080fd5b6112d188611156565b9650602088013595506040880135945060608801359350608088013567ffffffffffffffff81111561130257600080fd5b61130e8a828b0161117f565b9094509250611321905060a08901611156565b905092959891949750929550565b60008060008060008060008060e0898b03121561134b57600080fd5b61135489611156565b975061136260208a01611156565b965060408901359550606089013594506080890135935060a089013567ffffffffffffffff81111561139357600080fd5b61139f8b828c0161117f565b90945092506113b2905060c08a01611156565b90509295985092959890939650565b7f4e487b7100000000000000000000000000000000000000000000000000000000600052604160045260246000fd5b604051601f82017fffffffffffffffffffffffffffffffffffffffffffffffffffffffffffffffe016810167ffffffffffffffff81118282101715611437576114376113c1565b604052919050565b600082601f83011261145057600080fd5b8135602067ffffffffffffffff82111561146c5761146c6113c1565b8160051b61147b8282016113f0565b928352848101820192828101908785111561149557600080fd5b83870192505b848310156114b45782358252918301919083019061149b565b979650505050505050565b600082601f8301126114d057600080fd5b813567ffffffffffffffff8111156114ea576114ea6113c1565b61151b60207fffffffffffffffffffffffffffffffffffffffffffffffffffffffffffffffe0601f840116016113f0565b81815284602083860101111561153057600080fd5b816020850160208301376000918101602001919091529392505050565b600080600080600060a0868803121561156557600080fd5b61156e86611156565b945061157c60208701611156565b9350604086013567ffffffffffffffff8082111561159957600080fd5b6115a589838a0161143f565b945060608801359150808211156115bb57600080fd5b6115c789838a0161143f565b935060808801359150808211156115dd57600080fd5b506115ea888289016114bf565b9150509295509295909350565b600080600080600060a0868803121561160f57600080fd5b61161886611156565b945061162660208701611156565b93506040860135925060608601359150608086013567ffffffffffffffff81111561165057600080fd5b6115ea888289016114bf565b60008060008060008060008060e0898b03121561167857600080fd5b61168189611156565b9750602089013596506040890135955060608901359450608089013567ffffffffffffffff8111156116b257600080fd5b6116be8b828c0161117f565b90955093506116d1905060a08a01611156565b91506113b260c08a01611156565b6000602082840312156116f157600080fd5b5051919050565b818382376000910190815291905056fea264697066735822122037acf5d425525dae2deb6b0b9dd6224e00cb9c5b025e3d3c2c7af56ee5f6145364736f6c63430008120033",
  "devdoc": {
    "author": "Solid World",
    "kind": "dev",
    "methods": {
      "onERC1155BatchReceived(address,address,uint256[],uint256[],bytes)": {
        "details": "accept transfers from this contract only"
      },
      "onERC1155Received(address,address,uint256,uint256,bytes)": {
        "details": "accept transfers from this contract only"
      },
      "supportsInterface(bytes4)": {
        "details": "Returns true if this contract implements the interface defined by `interfaceId`. See the corresponding https://eips.ethereum.org/EIPS/eip-165#how-interfaces-are-identified[EIP section] to learn more about how these ids are created. This function call must use less than 30 000 gas."
      },
      "zapCollateralize(address,address,uint256,uint256,uint256,bytes,address)": {
        "params": {
          "amountIn": "The amounts of forward credits to collateralize",
          "amountOutMin": "The minimum amounts of `crispToken` to receive from collateralization",
          "batchId": "The batch id of the forward credits to collateralize",
          "crispToken": "The intermediate token received for collateralizing forward credits",
          "dustRecipient": "Address to receive any remaining `crispToken` dust",
          "outputToken": "The actual token received for collateralizing forward credits",
          "swap": "Encoded swap from `crispToken` to `outputToken`"
        }
      },
      "zapCollateralize(address,address,uint256,uint256,uint256,bytes,address,address)": {
        "params": {
          "amountIn": "The amounts of forward credits to collateralize",
          "amountOutMin": "The minimum amounts of `crispToken` to receive from collateralization",
          "batchId": "The batch id of the forward credits to collateralize",
          "crispToken": "The intermediate token received for collateralizing forward credits",
          "dustRecipient": "Address to receive any remaining `crispToken` dust",
          "outputToken": "The actual token received for collateralizing forward credits",
          "swap": "Encoded swap from `crispToken` to `outputToken`",
          "zapRecipient": "Address to receive the resulting `outputToken` amount"
        }
      },
      "zapCollateralizeETH(address,uint256,uint256,uint256,bytes,address)": {
        "params": {
          "amountIn": "The amounts of forward credits to collateralize",
          "amountOutMin": "The minimum amounts of `crispToken` to receive from collateralization",
          "batchId": "The batch id of the forward credits to collateralize",
          "crispToken": "The intermediate token received for collateralizing forward credits",
          "dustRecipient": "Address to receive any remaining `crispToken` dust",
          "swap": "Encoded swap from `crispToken` to WETH"
        }
      },
      "zapCollateralizeETH(address,uint256,uint256,uint256,bytes,address,address)": {
        "params": {
          "amountIn": "The amounts of forward credits to collateralize",
          "amountOutMin": "The minimum amounts of `crispToken` to receive from collateralization",
          "batchId": "The batch id of the forward credits to collateralize",
          "crispToken": "The intermediate token received for collateralizing forward credits",
          "dustRecipient": "Address to receive any remaining `crispToken` dust",
          "swap": "Encoded swap from `crispToken` to WETH",
          "zapRecipient": "Address to receive the resulting ETH amount"
        }
      }
    },
    "version": 1
  },
  "userdoc": {
    "kind": "user",
    "methods": {
      "zapCollateralize(address,address,uint256,uint256,uint256,bytes,address)": {
        "notice": "Zap function that achieves the following: 1. Transfers `amountIn` forward credits with batch id `batchId` to this contract 2. Collateralizes the transferred forward credits via SolidWorldManager, receives `crispToken` 3. Swaps `crispToken` for `outputToken` via encoded swap 4. Transfers the `outputToken` balance of SolidZapCollateralize to `msg.sender` 5. Transfers remaining `crispToken` balance of SolidZapCollateralize to the `dustRecipient`The `msg.sender` must approve this contract to spend the forward credits"
      },
      "zapCollateralize(address,address,uint256,uint256,uint256,bytes,address,address)": {
        "notice": "Zap function that achieves the following: 1. Transfers `amountIn` forward credits with batch id `batchId` to this contract 2. Collateralizes the transferred forward credits via SolidWorldManager, receives `crispToken` 3. Swaps `crispToken` for `outputToken` via encoded swap 4. Transfers the `outputToken` balance of SolidZapCollateralize to `zapRecipient` 5. Transfers remaining `crispToken` balance of SolidZapCollateralize to the `dustRecipient`The `msg.sender` must approve this contract to spend the forward credits"
      },
      "zapCollateralizeETH(address,uint256,uint256,uint256,bytes,address)": {
        "notice": "Zap function that achieves the following: 1. Transfers `amountIn` forward credits with batch id `batchId` to this contract 2. Collateralizes the transferred forward credits via SolidWorldManager, receives `crispToken` 3. Swaps `crispToken` for WETH via encoded swap 4. Unwraps WETH to ETH 5. Transfers the ETH balance of SolidZapCollateralize to `msg.sender` 6. Transfers remaining `crispToken` balance of SolidZapCollateralize to the `dustRecipient`The `msg.sender` must approve this contract to spend the forward credits"
      },
      "zapCollateralizeETH(address,uint256,uint256,uint256,bytes,address,address)": {
        "notice": "Zap function that achieves the following: 1. Transfers `amountIn` forward credits with batch id `batchId` to this contract 2. Collateralizes the transferred forward credits via SolidWorldManager, receives `crispToken` 3. Swaps `crispToken` for WETH via encoded swap 4. Unwraps WETH to ETH 5. Transfers the ETH balance of SolidZapCollateralize to `zapRecipient` 6. Transfers remaining `crispToken` balance of SolidZapCollateralize to the `dustRecipient`The `msg.sender` must approve this contract to spend the forward credits"
      }
    },
    "version": 1
  },
  "storageLayout": {
    "storage": [
      {
        "astId": 2179,
        "contract": "contracts/zap/collateralize/SolidZapCollateralize.sol:SolidZapCollateralize",
        "label": "_status",
        "offset": 0,
        "slot": "0",
        "type": "t_uint256"
      }
    ],
    "types": {
      "t_uint256": {
        "encoding": "inplace",
        "label": "uint256",
        "numberOfBytes": "32"
      }
    }
  }
}