{
  "address": "0x057f4E059fE214Cd355AA9e5368835BCa09833A9",
  "abi": [
    {
      "inputs": [
        {
          "internalType": "address",
          "name": "_router",
          "type": "address"
        },
        {
          "internalType": "address",
          "name": "_weth",
          "type": "address"
        },
        {
          "internalType": "address",
          "name": "_swManager",
          "type": "address"
        },
        {
          "internalType": "address",
          "name": "_forwardContractBatch",
          "type": "address"
        }
      ],
      "stateMutability": "nonpayable",
      "type": "constructor"
    },
    {
      "inputs": [],
      "name": "GenericSwapError",
      "type": "error"
    },
    {
      "inputs": [],
      "name": "InvalidInput",
      "type": "error"
    },
    {
      "inputs": [],
      "name": "SweepAmountZero",
      "type": "error"
    },
    {
      "anonymous": false,
      "inputs": [
        {
          "indexed": true,
          "internalType": "address",
          "name": "receiver",
          "type": "address"
        },
        {
          "indexed": true,
          "internalType": "address",
          "name": "inputToken",
          "type": "address"
        },
        {
          "indexed": true,
          "internalType": "uint256",
          "name": "inputAmount",
          "type": "uint256"
        },
        {
          "indexed": false,
          "internalType": "uint256",
          "name": "dust",
          "type": "uint256"
        },
        {
          "indexed": false,
          "internalType": "address",
          "name": "dustRecipient",
          "type": "address"
        },
        {
          "indexed": false,
          "internalType": "uint256",
          "name": "categoryId",
          "type": "uint256"
        }
      ],
      "name": "ZapDecollateralize",
      "type": "event"
    },
    {
      "inputs": [],
      "name": "forwardContractBatch",
      "outputs": [
        {
          "internalType": "address",
          "name": "",
          "type": "address"
        }
      ],
      "stateMutability": "view",
      "type": "function"
    },
    {
      "inputs": [
        {
          "internalType": "address",
          "name": "operator",
          "type": "address"
        },
        {
          "internalType": "address",
          "name": "",
          "type": "address"
        },
        {
          "internalType": "uint256[]",
          "name": "",
          "type": "uint256[]"
        },
        {
          "internalType": "uint256[]",
          "name": "",
          "type": "uint256[]"
        },
        {
          "internalType": "bytes",
          "name": "",
          "type": "bytes"
        }
      ],
      "name": "onERC1155BatchReceived",
      "outputs": [
        {
          "internalType": "bytes4",
          "name": "",
          "type": "bytes4"
        }
      ],
      "stateMutability": "nonpayable",
      "type": "function"
    },
    {
      "inputs": [
        {
          "internalType": "address",
          "name": "operator",
          "type": "address"
        },
        {
          "internalType": "address",
          "name": "",
          "type": "address"
        },
        {
          "internalType": "uint256",
          "name": "",
          "type": "uint256"
        },
        {
          "internalType": "uint256",
          "name": "",
          "type": "uint256"
        },
        {
          "internalType": "bytes",
          "name": "",
          "type": "bytes"
        }
      ],
      "name": "onERC1155Received",
      "outputs": [
        {
          "internalType": "bytes4",
          "name": "",
          "type": "bytes4"
        }
      ],
      "stateMutability": "nonpayable",
      "type": "function"
    },
    {
      "inputs": [],
      "name": "router",
      "outputs": [
        {
          "internalType": "address",
          "name": "",
          "type": "address"
        }
      ],
      "stateMutability": "view",
      "type": "function"
    },
    {
      "inputs": [
        {
          "internalType": "bytes4",
          "name": "interfaceId",
          "type": "bytes4"
        }
      ],
      "name": "supportsInterface",
      "outputs": [
        {
          "internalType": "bool",
          "name": "",
          "type": "bool"
        }
      ],
      "stateMutability": "pure",
      "type": "function"
    },
    {
      "inputs": [],
      "name": "swManager",
      "outputs": [
        {
          "internalType": "address",
          "name": "",
          "type": "address"
        }
      ],
      "stateMutability": "view",
      "type": "function"
    },
    {
      "inputs": [],
      "name": "weth",
      "outputs": [
        {
          "internalType": "address",
          "name": "",
          "type": "address"
        }
      ],
      "stateMutability": "view",
      "type": "function"
    },
    {
      "inputs": [
        {
          "internalType": "address",
          "name": "inputToken",
          "type": "address"
        },
        {
          "internalType": "uint256",
          "name": "inputAmount",
          "type": "uint256"
        },
        {
          "internalType": "address",
          "name": "crispToken",
          "type": "address"
        },
        {
          "internalType": "bytes",
          "name": "swap",
          "type": "bytes"
        },
        {
          "internalType": "address",
          "name": "dustRecipient",
          "type": "address"
        },
        {
          "components": [
            {
              "internalType": "uint256[]",
              "name": "batchIds",
              "type": "uint256[]"
            },
            {
              "internalType": "uint256[]",
              "name": "amountsIn",
              "type": "uint256[]"
            },
            {
              "internalType": "uint256[]",
              "name": "amountsOutMin",
              "type": "uint256[]"
            }
          ],
          "internalType": "struct ISolidZapDecollateralize.DecollateralizeParams",
          "name": "decollateralizeParams",
          "type": "tuple"
        }
      ],
      "name": "zapDecollateralize",
      "outputs": [],
      "stateMutability": "nonpayable",
      "type": "function"
    },
    {
      "inputs": [
        {
          "internalType": "address",
          "name": "inputToken",
          "type": "address"
        },
        {
          "internalType": "uint256",
          "name": "inputAmount",
          "type": "uint256"
        },
        {
          "internalType": "address",
          "name": "crispToken",
          "type": "address"
        },
        {
          "internalType": "bytes",
          "name": "swap",
          "type": "bytes"
        },
        {
          "internalType": "address",
          "name": "dustRecipient",
          "type": "address"
        },
        {
          "components": [
            {
              "internalType": "uint256[]",
              "name": "batchIds",
              "type": "uint256[]"
            },
            {
              "internalType": "uint256[]",
              "name": "amountsIn",
              "type": "uint256[]"
            },
            {
              "internalType": "uint256[]",
              "name": "amountsOutMin",
              "type": "uint256[]"
            }
          ],
          "internalType": "struct ISolidZapDecollateralize.DecollateralizeParams",
          "name": "decollateralizeParams",
          "type": "tuple"
        },
        {
          "internalType": "address",
          "name": "zapRecipient",
          "type": "address"
        }
      ],
      "name": "zapDecollateralize",
      "outputs": [],
      "stateMutability": "nonpayable",
      "type": "function"
    },
    {
      "inputs": [
        {
          "internalType": "address",
          "name": "crispToken",
          "type": "address"
        },
        {
          "internalType": "bytes",
          "name": "swap",
          "type": "bytes"
        },
        {
          "internalType": "address",
          "name": "dustRecipient",
          "type": "address"
        },
        {
          "components": [
            {
              "internalType": "uint256[]",
              "name": "batchIds",
              "type": "uint256[]"
            },
            {
              "internalType": "uint256[]",
              "name": "amountsIn",
              "type": "uint256[]"
            },
            {
              "internalType": "uint256[]",
              "name": "amountsOutMin",
              "type": "uint256[]"
            }
          ],
          "internalType": "struct ISolidZapDecollateralize.DecollateralizeParams",
          "name": "decollateralizeParams",
          "type": "tuple"
        },
        {
          "internalType": "address",
          "name": "zapRecipient",
          "type": "address"
        }
      ],
      "name": "zapDecollateralizeETH",
      "outputs": [],
      "stateMutability": "payable",
      "type": "function"
    },
    {
      "inputs": [
        {
          "internalType": "address",
          "name": "crispToken",
          "type": "address"
        },
        {
          "internalType": "bytes",
          "name": "swap",
          "type": "bytes"
        },
        {
          "internalType": "address",
          "name": "dustRecipient",
          "type": "address"
        },
        {
          "components": [
            {
              "internalType": "uint256[]",
              "name": "batchIds",
              "type": "uint256[]"
            },
            {
              "internalType": "uint256[]",
              "name": "amountsIn",
              "type": "uint256[]"
            },
            {
              "internalType": "uint256[]",
              "name": "amountsOutMin",
              "type": "uint256[]"
            }
          ],
          "internalType": "struct ISolidZapDecollateralize.DecollateralizeParams",
          "name": "decollateralizeParams",
          "type": "tuple"
        }
      ],
      "name": "zapDecollateralizeETH",
      "outputs": [],
      "stateMutability": "payable",
      "type": "function"
    }
  ],
  "transactionHash": "0x66130059e40d13ede8955a2621ff7b9c7e00d1ba127f6de8444ba125fe94739f",
  "args": [
    "0xDef1C0ded9bec7F1a1670819833240f027b25EfF",
    "0x0d500B1d8E8eF31E21C99d1Db9A6444d3ADf1270",
    "0xe967aEBdbf137C2ddD4aaF076E87177c4EBEB851",
    "0x029090aC92b0BAAF20Ccef615BAfD268f08Db8fA"
  ],
  "numDeployments": 1,
  "solcInputHash": "1174a45943333910f45a57b5ab85a8f8",
  "bytecode": "0x6101006040523480156200001257600080fd5b5060405162001c4038038062001c408339810160408190526200003591620000fe565b60016000556001600160a01b03848116608081905284821660a081905284831660c05291831660e05260405163095ea7b360e01b815260048101919091526000196024820152859185918591859163095ea7b3906044016020604051808303816000875af1158015620000ac573d6000803e3d6000fd5b505050506040513d601f19601f82011682018060405250810190620000d291906200015b565b50505050505050505062000186565b80516001600160a01b0381168114620000f957600080fd5b919050565b600080600080608085870312156200011557600080fd5b6200012085620000e1565b93506200013060208601620000e1565b92506200014060408601620000e1565b91506200015060608601620000e1565b905092959194509250565b6000602082840312156200016e57600080fd5b815180151581146200017f57600080fd5b9392505050565b60805160a05160c05160e051611a1e62000222600039600081816102a2015281816107c80152610cba0152600081816101a3015281816104820152818161057e015281816106dc01528181610717015261088801526000818161012a015281816104170152818161044101528181610514015261053e01526000818161026e0152818161036c015281816103c201526106b00152611a1e6000f3fe6080604052600436106100bc5760003560e01c806383d56e1211610074578063f23a6e611161004e578063f23a6e611461023c578063f887ea401461025c578063fb5ba8eb1461029057600080fd5b806383d56e12146101c5578063bc197c81146101d8578063d4d15e171461022957600080fd5b80633fc8cef3116100a55780633fc8cef3146101185780636a3df5631461017157806373d0eb6b1461019157600080fd5b806301ffc9a7146100c157806332ffa465146100f6575b600080fd5b3480156100cd57600080fd5b506100e16100dc366004611122565b6102c4565b60405190151581526020015b60405180910390f35b34801561010257600080fd5b506101166101113660046111e8565b61035d565b005b34801561012457600080fd5b5061014c7f000000000000000000000000000000000000000000000000000000000000000081565b60405173ffffffffffffffffffffffffffffffffffffffff90911681526020016100ed565b34801561017d57600080fd5b5061011661018c366004611290565b6103b3565b34801561019d57600080fd5b5061014c7f000000000000000000000000000000000000000000000000000000000000000081565b6101166101d3366004611348565b61040a565b3480156101e457600080fd5b506101f86101f3366004611580565b61047e565b6040517fffffffff0000000000000000000000000000000000000000000000000000000090911681526020016100ed565b61011661023736600461162a565b610507565b34801561024857600080fd5b506101f86102573660046116ab565b61057a565b34801561026857600080fd5b5061014c7f000000000000000000000000000000000000000000000000000000000000000081565b34801561029c57600080fd5b5061014c7f000000000000000000000000000000000000000000000000000000000000000081565b60007f01ffc9a7000000000000000000000000000000000000000000000000000000007fffffffff000000000000000000000000000000000000000000000000000000008316148061035757507f4e2312e0000000000000000000000000000000000000000000000000000000007fffffffff000000000000000000000000000000000000000000000000000000008316145b92915050565b610365610602565b61039087877f000000000000000000000000000000000000000000000000000000000000000061067a565b6103a087878787878787336106ab565b6103aa6001600055565b50505050505050565b6103bb610602565b6103e688887f000000000000000000000000000000000000000000000000000000000000000061067a565b6103f688888888888888886106ab565b6104006001600055565b5050505050505050565b610412610602565b61043c7f00000000000000000000000000000000000000000000000000000000000000003461099d565b61046c7f0000000000000000000000000000000000000000000000000000000000000000348888888888886106ab565b6104766001600055565b505050505050565b60007f000000000000000000000000000000000000000000000000000000000000000073ffffffffffffffffffffffffffffffffffffffff168673ffffffffffffffffffffffffffffffffffffffff16146104db575060006104fe565b507fbc197c81000000000000000000000000000000000000000000000000000000005b95945050505050565b61050f610602565b6105397f00000000000000000000000000000000000000000000000000000000000000003461099d565b6105697f0000000000000000000000000000000000000000000000000000000000000000348787878787336106ab565b6105736001600055565b5050505050565b60007f000000000000000000000000000000000000000000000000000000000000000073ffffffffffffffffffffffffffffffffffffffff168673ffffffffffffffffffffffffffffffffffffffff16146105d7575060006104fe565b507ff23a6e610000000000000000000000000000000000000000000000000000000095945050505050565b600260005403610673576040517f08c379a000000000000000000000000000000000000000000000000000000000815260206004820152601f60248201527f5265656e7472616e637947756172643a207265656e7472616e742063616c6c0060448201526064015b60405180910390fd5b6002600055565b61069c73ffffffffffffffffffffffffffffffffffffffff84163330856109f9565b6106a68382610ad4565b505050565b6106d67f00000000000000000000000000000000000000000000000000000000000000008686610bb6565b610700867f0000000000000000000000000000000000000000000000000000000000000000610ad4565b73ffffffffffffffffffffffffffffffffffffffff7f00000000000000000000000000000000000000000000000000000000000000001663940870dc6107468480611710565b6107536020870187611710565b6107606040890189611710565b6040518763ffffffff1660e01b8152600401610781969594939291906117c3565b600060405180830381600087803b15801561079b57600080fd5b505af11580156107af573d6000803e3d6000fd5b505073ffffffffffffffffffffffffffffffffffffffff7f0000000000000000000000000000000000000000000000000000000000000000169150632eb2c2d6905030836107fd8680611710565b61080f61080a8980611710565b610c35565b6040518663ffffffff1660e01b815260040161082f95949392919061180c565b600060405180830381600087803b15801561084957600080fd5b505af115801561085d573d6000803e3d6000fd5b50505050600061086d8785610d60565b9050600073ffffffffffffffffffffffffffffffffffffffff7f00000000000000000000000000000000000000000000000000000000000000001663a88fd94a6108b78680611710565b60008181106108c8576108c861189b565b905060200201356040518263ffffffff1660e01b81526004016108ed91815260200190565b602060405180830381865afa15801561090a573d6000803e3d6000fd5b505050506040513d601f19601f8201168201806040525081019061092e91906118ca565b6040805184815273ffffffffffffffffffffffffffffffffffffffff88811660208301529181018390529192508a91818d16918616907f90a1fbbf6c5359b6c8fbd1140c1132a6774bfcc2a94ad5754f3ef61d90a8f8219060600160405180910390a450505050505050505050565b8173ffffffffffffffffffffffffffffffffffffffff1663d0e30db0826040518263ffffffff1660e01b81526004016000604051808303818588803b1580156109e557600080fd5b505af11580156103aa573d6000803e3d6000fd5b6040517f23b872dd0000000000000000000000000000000000000000000000000000000080825273ffffffffffffffffffffffffffffffffffffffff8581166004840152841660248301526044820183905290600080606483828a5af1610a64573d6000803e3d6000fd5b50610a6e85610d75565b610573576040517f08c379a000000000000000000000000000000000000000000000000000000000815260206004820152601960248201527f475076323a206661696c6564207472616e7366657246726f6d00000000000000604482015260640161066a565b6040517fdd62ed3e00000000000000000000000000000000000000000000000000000000815230600482015273ffffffffffffffffffffffffffffffffffffffff828116602483015283169063dd62ed3e90604401602060405180830381865afa158015610b46573d6000803e3d6000fd5b505050506040513d601f19601f82011682018060405250810190610b6a91906118ca565b600003610bb257610bb273ffffffffffffffffffffffffffffffffffffffff8316827fffffffffffffffffffffffffffffffffffffffffffffffffffffffffffffffff610e40565b5050565b6000808473ffffffffffffffffffffffffffffffffffffffff168484604051610be09291906118e3565b6000604051808303816000865af19150503d8060008114610c1d576040519150601f19603f3d011682016040523d82523d6000602084013e610c22565b606091505b5091509150816105735761057381610f15565b60408051600180825281830190925260609160009190602080830190803683370190505090503081600081518110610c6f57610c6f61189b565b73ffffffffffffffffffffffffffffffffffffffff92831660209182029290920101526040517f4e1273f40000000000000000000000000000000000000000000000000000000081527f000000000000000000000000000000000000000000000000000000000000000090911690634e1273f490610cf5908490889088906004016118f3565b600060405180830381865afa158015610d12573d6000803e3d6000fd5b505050506040513d6000823e601f3d9081017fffffffffffffffffffffffffffffffffffffffffffffffffffffffffffffffe0168201604052610d589190810190611962565b949350505050565b6000610d6e83836000610f58565b9392505050565b6000610db4565b7f08c379a000000000000000000000000000000000000000000000000000000000600052602060045280602452508060445260646000fd5b3d8015610df35760208114610e2d57610dee7f475076323a206d616c666f726d6564207472616e7366657220726573756c7400601f610d7c565b610e3a565b823b610e2457610e247f475076323a206e6f74206120636f6e74726163740000000000000000000000006014610d7c565b60019150610e3a565b3d6000803e600051151591505b50919050565b60006040517f095ea7b300000000000000000000000000000000000000000000000000000000815273ffffffffffffffffffffffffffffffffffffffff84166004820152826024820152602060006044836000895af13d15601f3d1160016000511416171691505080610f0f576040517f08c379a000000000000000000000000000000000000000000000000000000000815260206004820152600e60248201527f415050524f56455f4641494c4544000000000000000000000000000000000000604482015260640161066a565b50505050565b8051600003610f50576040517f67e1b70700000000000000000000000000000000000000000000000000000000815260040160405180910390fd5b805181602001fd5b6040517f70a0823100000000000000000000000000000000000000000000000000000000815230600482015260009073ffffffffffffffffffffffffffffffffffffffff8516906370a0823190602401602060405180830381865afa158015610fc5573d6000803e3d6000fd5b505050506040513d601f19601f82011682018060405250810190610fe991906118ca565b905080158015610ff65750815b1561102d576040517ff2035b6300000000000000000000000000000000000000000000000000000000815260040160405180910390fd5b8015610d6e57610d6e73ffffffffffffffffffffffffffffffffffffffff851684836040517fa9059cbb0000000000000000000000000000000000000000000000000000000080825273ffffffffffffffffffffffffffffffffffffffff84166004830152602482018390529060008060448382895af16110b2573d6000803e3d6000fd5b506110bc84610d75565b610f0f576040517f08c379a000000000000000000000000000000000000000000000000000000000815260206004820152601560248201527f475076323a206661696c6564207472616e736665720000000000000000000000604482015260640161066a565b60006020828403121561113457600080fd5b81357fffffffff0000000000000000000000000000000000000000000000000000000081168114610d6e57600080fd5b803573ffffffffffffffffffffffffffffffffffffffff8116811461118857600080fd5b919050565b60008083601f84011261119f57600080fd5b50813567ffffffffffffffff8111156111b757600080fd5b6020830191508360208285010111156111cf57600080fd5b9250929050565b600060608284031215610e3a57600080fd5b600080600080600080600060c0888a03121561120357600080fd5b61120c88611164565b96506020880135955061122160408901611164565b9450606088013567ffffffffffffffff8082111561123e57600080fd5b61124a8b838c0161118d565b909650945084915061125e60808b01611164565b935060a08a013591508082111561127457600080fd5b506112818a828b016111d6565b91505092959891949750929550565b60008060008060008060008060e0898b0312156112ac57600080fd5b6112b589611164565b9750602089013596506112ca60408a01611164565b9550606089013567ffffffffffffffff808211156112e757600080fd5b6112f38c838d0161118d565b909750955085915061130760808c01611164565b945060a08b013591508082111561131d57600080fd5b5061132a8b828c016111d6565b92505061133960c08a01611164565b90509295985092959890939650565b60008060008060008060a0878903121561136157600080fd5b61136a87611164565b9550602087013567ffffffffffffffff8082111561138757600080fd5b6113938a838b0161118d565b90975095508591506113a760408a01611164565b945060608901359150808211156113bd57600080fd5b506113ca89828a016111d6565b9250506113d960808801611164565b90509295509295509295565b7f4e487b7100000000000000000000000000000000000000000000000000000000600052604160045260246000fd5b604051601f82017fffffffffffffffffffffffffffffffffffffffffffffffffffffffffffffffe016810167ffffffffffffffff8111828210171561145b5761145b6113e5565b604052919050565b600067ffffffffffffffff82111561147d5761147d6113e5565b5060051b60200190565b600082601f83011261149857600080fd5b813560206114ad6114a883611463565b611414565b82815260059290921b840181019181810190868411156114cc57600080fd5b8286015b848110156114e757803583529183019183016114d0565b509695505050505050565b600082601f83011261150357600080fd5b813567ffffffffffffffff81111561151d5761151d6113e5565b61154e60207fffffffffffffffffffffffffffffffffffffffffffffffffffffffffffffffe0601f84011601611414565b81815284602083860101111561156357600080fd5b816020850160208301376000918101602001919091529392505050565b600080600080600060a0868803121561159857600080fd5b6115a186611164565b94506115af60208701611164565b9350604086013567ffffffffffffffff808211156115cc57600080fd5b6115d889838a01611487565b945060608801359150808211156115ee57600080fd5b6115fa89838a01611487565b9350608088013591508082111561161057600080fd5b5061161d888289016114f2565b9150509295509295909350565b60008060008060006080868803121561164257600080fd5b61164b86611164565b9450602086013567ffffffffffffffff8082111561166857600080fd5b61167489838a0161118d565b909650945084915061168860408901611164565b9350606088013591508082111561169e57600080fd5b5061161d888289016111d6565b600080600080600060a086880312156116c357600080fd5b6116cc86611164565b94506116da60208701611164565b93506040860135925060608601359150608086013567ffffffffffffffff81111561170457600080fd5b61161d888289016114f2565b60008083357fffffffffffffffffffffffffffffffffffffffffffffffffffffffffffffffe184360301811261174557600080fd5b83018035915067ffffffffffffffff82111561176057600080fd5b6020019150600581901b36038213156111cf57600080fd5b81835260007f07ffffffffffffffffffffffffffffffffffffffffffffffffffffffffffffff8311156117aa57600080fd5b8260051b80836020870137939093016020019392505050565b6060815260006117d760608301888a611778565b82810360208401526117ea818789611778565b905082810360408401526117ff818587611778565b9998505050505050505050565b600073ffffffffffffffffffffffffffffffffffffffff808816835260208188168185015260a0604085015261184660a085018789611778565b8481036060860152855180825282870193509082019060005b8181101561187b5784518352938301939183019160010161185f565b505084810360808601526000815281810193505050509695505050505050565b7f4e487b7100000000000000000000000000000000000000000000000000000000600052603260045260246000fd5b6000602082840312156118dc57600080fd5b5051919050565b8183823760009101908152919050565b604080825284519082018190526000906020906060840190828801845b8281101561194257815173ffffffffffffffffffffffffffffffffffffffff1684529284019290840190600101611910565b50505083810382850152611957818688611778565b979650505050505050565b6000602080838503121561197557600080fd5b825167ffffffffffffffff81111561198c57600080fd5b8301601f8101851361199d57600080fd5b80516119ab6114a882611463565b81815260059190911b820183019083810190878311156119ca57600080fd5b928401925b82841015611957578351825292840192908401906119cf56fea2646970667358221220980a7a410c516346948da3e57a919659dd21353b3bb0b428d2d2854590df44cb64736f6c63430008120033",
  "devdoc": {
    "author": "Solid World",
    "kind": "dev",
    "methods": {
      "onERC1155BatchReceived(address,address,uint256[],uint256[],bytes)": {
        "details": "accept transfers from swManager contract only"
      },
      "onERC1155Received(address,address,uint256,uint256,bytes)": {
        "details": "accept transfers from swManager contract only"
      },
      "supportsInterface(bytes4)": {
        "details": "Returns true if this contract implements the interface defined by `interfaceId`. See the corresponding https://eips.ethereum.org/EIPS/eip-165#how-interfaces-are-identified[EIP section] to learn more about how these ids are created. This function call must use less than 30 000 gas."
      },
      "zapDecollateralize(address,uint256,address,bytes,address,(uint256[],uint256[],uint256[]))": {
        "params": {
          "crispToken": "The intermediate token used for redeeming forward credits",
          "decollateralizeParams": "Parameters for decollateralization  batchIds The batch ids of the forward credits to redeem  amountsIn The amounts of `crispToken` to used to redeem forward credits  amountsOutMin The minimum amounts of forward credits to receive",
          "dustRecipient": "Address to receive any remaining crisp tokens dust",
          "inputAmount": "The amount of `inputToken` to use",
          "inputToken": "The token used for redeeming forward credits",
          "swap": "Encoded swap from `inputToken` to `crispToken`"
        }
      },
      "zapDecollateralize(address,uint256,address,bytes,address,(uint256[],uint256[],uint256[]),address)": {
        "params": {
          "crispToken": "The intermediate token used for redeeming forward credits",
          "decollateralizeParams": "Parameters for decollateralization  batchIds The batch ids of the forward credits to redeem  amountsIn The amounts of `crispToken` to used to redeem forward credits  amountsOutMin The minimum amounts of forward credits to receive",
          "dustRecipient": "Address to receive any remaining crisp tokens dust",
          "inputAmount": "The amount of `inputToken` to use",
          "inputToken": "The token used for redeeming forward credits",
          "swap": "Encoded swap from `inputToken` to `crispToken`",
          "zapRecipient": "The address to receive forward credits"
        }
      },
      "zapDecollateralizeETH(address,bytes,address,(uint256[],uint256[],uint256[]))": {
        "params": {
          "crispToken": "The intermediate token used for redeeming forward credits",
          "decollateralizeParams": "Parameters for decollateralization  batchIds The batch ids of the forward credits to redeem  amountsIn The amounts of `crispToken` to used to redeem forward credits  amountsOutMin The minimum amounts of forward credits to receive",
          "dustRecipient": "Address to receive any remaining crisp tokens dust",
          "swap": "Encoded swap from `inputToken` to `crispToken`"
        }
      },
      "zapDecollateralizeETH(address,bytes,address,(uint256[],uint256[],uint256[]),address)": {
        "params": {
          "crispToken": "The intermediate token used for redeeming forward credits",
          "decollateralizeParams": "Parameters for decollateralization  batchIds The batch ids of the forward credits to redeem  amountsIn The amounts of `crispToken` to used to redeem forward credits  amountsOutMin The minimum amounts of forward credits to receive",
          "dustRecipient": "Address to receive any remaining crisp tokens dust",
          "swap": "Encoded swap from `inputToken` to `crispToken`",
          "zapRecipient": "The address to receive forward credits"
        }
      }
    },
    "version": 1
  },
  "userdoc": {
    "kind": "user",
    "methods": {
      "zapDecollateralize(address,uint256,address,bytes,address,(uint256[],uint256[],uint256[]))": {
        "notice": "Zap function that achieves the following: 1. Swaps `inputToken` to `crispToken` via encoded swap 2. Decollateralizes resulting tokens to forward credits via SolidWorldManager 3. Transfers resulting forward credits to `msg.sender` 4. Transfers remaining crisp token balance of SolidZapDecollateralize to the `dustRecipient`The `msg.sender` must own `inputAmount` and approve this contract to spend `inputToken`"
      },
      "zapDecollateralize(address,uint256,address,bytes,address,(uint256[],uint256[],uint256[]),address)": {
        "notice": "Zap function that achieves the following: 1. Swaps `inputToken` to `crispToken` via encoded swap 2. Decollateralizes resulting tokens to forward credits via SolidWorldManager 3. Transfers resulting forward credits to `zapRecipient` 4. Transfers remaining crisp token balance of SolidZapDecollateralize to the `dustRecipient`The msg.sender must own `inputAmount` and approve this contract to spend `inputToken`"
      },
      "zapDecollateralizeETH(address,bytes,address,(uint256[],uint256[],uint256[]))": {
        "notice": "Zap function that achieves the following: 1. Wraps `msg.value` to WETH 2. Swaps `WETH` to `crispToken` via encoded swap 3. Decollateralizes resulting tokens to forward credits via SolidWorldManager 4. Transfers resulting forward credits to `msg.sender` 5. Transfers remaining crisp token balance of SolidZapDecollateralize to the `dustRecipient`"
      },
      "zapDecollateralizeETH(address,bytes,address,(uint256[],uint256[],uint256[]),address)": {
        "notice": "Zap function that achieves the following: 1. Wraps `msg.value` to WETH 2. Swaps `WETH` to `crispToken` via encoded swap 3. Decollateralizes resulting tokens to forward credits via SolidWorldManager 4. Transfers resulting forward credits to `zapRecipient` 5. Transfers remaining crisp token balance of SolidZapDecollateralize to the `dustRecipient`"
      }
    },
    "version": 1
  },
  "storageLayout": {
    "storage": [
      {
        "astId": 2179,
        "contract": "contracts/zap/decollateralize/SolidZapDecollateralize.sol:SolidZapDecollateralize",
        "label": "_status",
        "offset": 0,
        "slot": "0",
        "type": "t_uint256"
      }
    ],
    "types": {
      "t_uint256": {
        "encoding": "inplace",
        "label": "uint256",
        "numberOfBytes": "32"
      }
    }
  }
}