{
  "address": "0xaD7Ce5Cf8E594e1EFC6922Ab2c9F81d7a0E14337",
  "abi": [
    {
      "inputs": [
        {
          "internalType": "address",
          "name": "_verificationRegistry",
          "type": "address"
        },
        {
          "internalType": "address",
          "name": "_timelockController",
          "type": "address"
        }
      ],
      "stateMutability": "nonpayable",
      "type": "constructor"
    },
    {
      "inputs": [],
      "name": "AlreadyInitialized",
      "type": "error"
    },
    {
      "inputs": [
        {
          "internalType": "address",
          "name": "subject",
          "type": "address"
        }
      ],
      "name": "Blacklisted",
      "type": "error"
    },
    {
      "inputs": [
        {
          "internalType": "address",
          "name": "token",
          "type": "address"
        }
      ],
      "name": "InvalidTokenAddress",
      "type": "error"
    },
    {
      "inputs": [],
      "name": "InvalidVerificationRegistry",
      "type": "error"
    },
    {
      "inputs": [
        {
          "internalType": "address",
          "name": "token",
          "type": "address"
        },
        {
          "internalType": "address",
          "name": "subject",
          "type": "address"
        }
      ],
      "name": "NotRegulatoryCompliant",
      "type": "error"
    },
    {
      "inputs": [
        {
          "internalType": "address",
          "name": "caller",
          "type": "address"
        }
      ],
      "name": "NotTimelockController",
      "type": "error"
    },
    {
      "inputs": [
        {
          "internalType": "address",
          "name": "token",
          "type": "address"
        }
      ],
      "name": "TokenAlreadyAdded",
      "type": "error"
    },
    {
      "anonymous": false,
      "inputs": [
        {
          "indexed": true,
          "internalType": "address",
          "name": "token",
          "type": "address"
        },
        {
          "indexed": true,
          "internalType": "bool",
          "name": "kycRequired",
          "type": "bool"
        }
      ],
      "name": "KYCRequiredSet",
      "type": "event"
    },
    {
      "anonymous": false,
      "inputs": [
        {
          "indexed": true,
          "internalType": "address",
          "name": "previousOwner",
          "type": "address"
        },
        {
          "indexed": true,
          "internalType": "address",
          "name": "newOwner",
          "type": "address"
        }
      ],
      "name": "OwnershipTransferred",
      "type": "event"
    },
    {
      "anonymous": false,
      "inputs": [
        {
          "indexed": true,
          "internalType": "address",
          "name": "account",
          "type": "address"
        },
        {
          "indexed": true,
          "internalType": "address",
          "name": "token",
          "type": "address"
        },
        {
          "indexed": true,
          "internalType": "uint256",
          "name": "amount",
          "type": "uint256"
        }
      ],
      "name": "Stake",
      "type": "event"
    },
    {
      "anonymous": false,
      "inputs": [
        {
          "indexed": true,
          "internalType": "address",
          "name": "token",
          "type": "address"
        }
      ],
      "name": "TokenAdded",
      "type": "event"
    },
    {
      "anonymous": false,
      "inputs": [
        {
          "indexed": true,
          "internalType": "address",
          "name": "verificationRegistry",
          "type": "address"
        }
      ],
      "name": "VerificationRegistryUpdated",
      "type": "event"
    },
    {
      "anonymous": false,
      "inputs": [
        {
          "indexed": true,
          "internalType": "address",
          "name": "account",
          "type": "address"
        },
        {
          "indexed": true,
          "internalType": "address",
          "name": "token",
          "type": "address"
        },
        {
          "indexed": true,
          "internalType": "uint256",
          "name": "amount",
          "type": "uint256"
        }
      ],
      "name": "Withdraw",
      "type": "event"
    },
    {
      "inputs": [
        {
          "internalType": "address",
          "name": "token",
          "type": "address"
        }
      ],
      "name": "addToken",
      "outputs": [],
      "stateMutability": "nonpayable",
      "type": "function"
    },
    {
      "inputs": [
        {
          "internalType": "address",
          "name": "token",
          "type": "address"
        },
        {
          "internalType": "address",
          "name": "account",
          "type": "address"
        }
      ],
      "name": "balanceOf",
      "outputs": [
        {
          "internalType": "uint256",
          "name": "",
          "type": "uint256"
        }
      ],
      "stateMutability": "view",
      "type": "function"
    },
    {
      "inputs": [],
      "name": "getTimelockController",
      "outputs": [
        {
          "internalType": "address",
          "name": "",
          "type": "address"
        }
      ],
      "stateMutability": "view",
      "type": "function"
    },
    {
      "inputs": [],
      "name": "getTokens",
      "outputs": [
        {
          "internalType": "address[]",
          "name": "_tokens",
          "type": "address[]"
        }
      ],
      "stateMutability": "view",
      "type": "function"
    },
    {
      "inputs": [],
      "name": "getVerificationRegistry",
      "outputs": [
        {
          "internalType": "address",
          "name": "",
          "type": "address"
        }
      ],
      "stateMutability": "view",
      "type": "function"
    },
    {
      "inputs": [
        {
          "internalType": "address",
          "name": "token",
          "type": "address"
        }
      ],
      "name": "isKYCRequired",
      "outputs": [
        {
          "internalType": "bool",
          "name": "",
          "type": "bool"
        }
      ],
      "stateMutability": "view",
      "type": "function"
    },
    {
      "inputs": [
        {
          "internalType": "address",
          "name": "counterparty",
          "type": "address"
        },
        {
          "internalType": "bool",
          "name": "_kycRequired",
          "type": "bool"
        }
      ],
      "name": "isValidCounterparty",
      "outputs": [
        {
          "internalType": "bool",
          "name": "",
          "type": "bool"
        }
      ],
      "stateMutability": "view",
      "type": "function"
    },
    {
      "inputs": [],
      "name": "owner",
      "outputs": [
        {
          "internalType": "address",
          "name": "",
          "type": "address"
        }
      ],
      "stateMutability": "view",
      "type": "function"
    },
    {
      "inputs": [],
      "name": "renounceOwnership",
      "outputs": [],
      "stateMutability": "nonpayable",
      "type": "function"
    },
    {
      "inputs": [],
      "name": "rewardsController",
      "outputs": [
        {
          "internalType": "contract IRewardsController",
          "name": "",
          "type": "address"
        }
      ],
      "stateMutability": "view",
      "type": "function"
    },
    {
      "inputs": [
        {
          "internalType": "address",
          "name": "token",
          "type": "address"
        },
        {
          "internalType": "bool",
          "name": "_kycRequired",
          "type": "bool"
        }
      ],
      "name": "setKYCRequired",
      "outputs": [],
      "stateMutability": "nonpayable",
      "type": "function"
    },
    {
      "inputs": [
        {
          "internalType": "address",
          "name": "_verificationRegistry",
          "type": "address"
        }
      ],
      "name": "setVerificationRegistry",
      "outputs": [],
      "stateMutability": "nonpayable",
      "type": "function"
    },
    {
      "inputs": [
        {
          "internalType": "contract IRewardsController",
          "name": "_rewardsController",
          "type": "address"
        },
        {
          "internalType": "address",
          "name": "owner",
          "type": "address"
        }
      ],
      "name": "setup",
      "outputs": [],
      "stateMutability": "nonpayable",
      "type": "function"
    },
    {
      "inputs": [
        {
          "internalType": "address",
          "name": "token",
          "type": "address"
        },
        {
          "internalType": "uint256",
          "name": "amount",
          "type": "uint256"
        },
        {
          "internalType": "address",
          "name": "recipient",
          "type": "address"
        }
      ],
      "name": "stake",
      "outputs": [],
      "stateMutability": "nonpayable",
      "type": "function"
    },
    {
      "inputs": [
        {
          "internalType": "address",
          "name": "token",
          "type": "address"
        },
        {
          "internalType": "uint256",
          "name": "amount",
          "type": "uint256"
        }
      ],
      "name": "stake",
      "outputs": [],
      "stateMutability": "nonpayable",
      "type": "function"
    },
    {
      "inputs": [
        {
          "internalType": "address",
          "name": "",
          "type": "address"
        }
      ],
      "name": "tokenAdded",
      "outputs": [
        {
          "internalType": "bool",
          "name": "",
          "type": "bool"
        }
      ],
      "stateMutability": "view",
      "type": "function"
    },
    {
      "inputs": [
        {
          "internalType": "uint256",
          "name": "",
          "type": "uint256"
        }
      ],
      "name": "tokens",
      "outputs": [
        {
          "internalType": "address",
          "name": "",
          "type": "address"
        }
      ],
      "stateMutability": "view",
      "type": "function"
    },
    {
      "inputs": [
        {
          "internalType": "address",
          "name": "token",
          "type": "address"
        }
      ],
      "name": "totalStaked",
      "outputs": [
        {
          "internalType": "uint256",
          "name": "",
          "type": "uint256"
        }
      ],
      "stateMutability": "view",
      "type": "function"
    },
    {
      "inputs": [
        {
          "internalType": "address",
          "name": "newOwner",
          "type": "address"
        }
      ],
      "name": "transferOwnership",
      "outputs": [],
      "stateMutability": "nonpayable",
      "type": "function"
    },
    {
      "inputs": [
        {
          "internalType": "address",
          "name": "",
          "type": "address"
        },
        {
          "internalType": "address",
          "name": "",
          "type": "address"
        }
      ],
      "name": "userStake",
      "outputs": [
        {
          "internalType": "uint256",
          "name": "",
          "type": "uint256"
        }
      ],
      "stateMutability": "view",
      "type": "function"
    },
    {
      "inputs": [
        {
          "internalType": "address",
          "name": "token",
          "type": "address"
        },
        {
          "internalType": "uint256",
          "name": "amount",
          "type": "uint256"
        }
      ],
      "name": "withdraw",
      "outputs": [],
      "stateMutability": "nonpayable",
      "type": "function"
    },
    {
      "inputs": [
        {
          "internalType": "address",
          "name": "token",
          "type": "address"
        },
        {
          "internalType": "uint256",
          "name": "amount",
          "type": "uint256"
        }
      ],
      "name": "withdrawStakeAndClaimRewards",
      "outputs": [],
      "stateMutability": "nonpayable",
      "type": "function"
    }
  ],
  "transactionHash": "0x9d387a54d4cf0a5147119f06744143e4082b2309ef85b37a5a3267cb006ee938",
  "args": [
    "0x1F27415baa5a61960b27d3339BAB0819FC754EA3",
    "0x76f018bDc9381a26eE1f507701145b63FA33C0ea"
  ],
  "numDeployments": 1,
  "solcInputHash": "adf8dc5a593b2d373e02ec07bbd88a19",
  "bytecode": "0x60a06040523480156200001157600080fd5b5060405162001c3838038062001c38833981016040819052620000349162000147565b60016000558162000045336200008e565b806001600160a01b0381166200006e5760405163161a968360e01b815260040160405180910390fd5b6200007982620000e0565b50506001600160a01b0316608052506200017f565b600180546001600160a01b038381166001600160a01b0319831681179093556040519116919082907f8be0079c531659141344cd1fd0a4f28419497f9722a3daafe3b4186f6b6457e090600090a35050565b600280546001600160a01b0319166001600160a01b0383169081179091556040517fcedf55f14e39eab9ea6df1b72eeb9a4ce7f42a669be00a2d94fc9eaccbe0637390600090a250565b80516001600160a01b03811681146200014257600080fd5b919050565b600080604083850312156200015b57600080fd5b62000166836200012a565b915062000176602084016200012a565b90509250929050565b608051611a96620001a26000396000818161029b01526103b40152611a966000f3fe608060405234801561001057600080fd5b50600436106101825760003560e01c80637c7a0cbf116100d8578063adc9772e1161008c578063f3fef3a311610066578063f3fef3a314610370578063f773f31114610383578063f7888aec1461039657600080fd5b8063adc9772e14610337578063d48bfca71461034a578063f2fde38b1461035d57600080fd5b80638da5cb5b116100bd5780638da5cb5b146102fe5780639bfd8d611461030f578063aa6ca8081461032257600080fd5b80637c7a0cbf146102bf57806387664f91146102eb57600080fd5b80634f64b2be1161013a5780636dfeb12f116101145780636dfeb12f1461026e578063715018a6146102915780637760bbef1461029957600080fd5b80634f64b2be1461020f57806351bdca3e146102225780636bb65f531461025b57600080fd5b80631ab71eaa1161016b5780631ab71eaa146101c6578063294091cd146101e95780632d34ba79146101fc57600080fd5b80630aabe439146101875780630c96a12c1461019c575b600080fd5b61019a610195366004611638565b6103a9565b005b6002546001600160a01b03165b6040516001600160a01b0390911681526020015b60405180910390f35b6101d96101d4366004611638565b610484565b60405190151581526020016101bd565b61019a6101f7366004611671565b6105b2565b61019a61020a3660046116b3565b6106f8565b6101a961021d3660046116e1565b6107ce565b61024d6102303660046116b3565b600560209081526000928352604080842090915290825290205481565b6040519081526020016101bd565b6007546101a9906001600160a01b031681565b6101d961027c3660046116fa565b60046020526000908152604090205460ff1681565b61019a6107f8565b7f00000000000000000000000000000000000000000000000000000000000000006101a9565b6101d96102cd3660046116fa565b6001600160a01b031660009081526006602052604090205460ff1690565b61019a6102f93660046116fa565b61080c565b6001546001600160a01b03166101a9565b61024d61031d3660046116fa565b610820565b61032a610891565b6040516101bd9190611762565b61019a610345366004611775565b6108f3565b61019a6103583660046116fa565b6109e6565b61019a61036b3660046116fa565b610b11565b61019a61037e366004611775565b610bb8565b61019a610391366004611775565b610c34565b61024d6103a43660046116b3565b610d22565b336001600160a01b037f00000000000000000000000000000000000000000000000000000000000000001614610412576040517ff8fbf6e10000000000000000000000000000000000000000000000000000000081523360048201526024015b60405180910390fd5b6001600160a01b03821660008181526006602052604080822080547fffffffffffffffffffffffffffffffffffffffffffffffffffffffffffffff001685151590811790915590519092917f852fc2e2378d86df920dabb5bed82e3da45e8b39ae319c0f6501b1c2f843880491a35050565b6002546000906001600160a01b03168215610524576040517f825115770000000000000000000000000000000000000000000000000000000081526001600160a01b038581166004830152821690638251157790602401602060405180830381865afa1580156104f8573d6000803e3d6000fd5b505050506040513d601f19601f8201168201806040525081019061051c91906117a1565b9150506105ac565b6040517ffe575a870000000000000000000000000000000000000000000000000000000081526001600160a01b03858116600483015282169063fe575a8790602401602060405180830381865afa158015610583573d6000803e3d6000fd5b505050506040513d601f19601f820116820180604052508101906105a791906117a1565b159150505b92915050565b6105ba610dae565b6001600160a01b038316600090815260046020526040902054839060ff16610619576040517f733068030000000000000000000000000000000000000000000000000000000081526001600160a01b0382166004820152602401610409565b33610625816000610484565b610666576040517fffa4e6180000000000000000000000000000000000000000000000000000000081526001600160a01b0382166004820152602401610409565b6001600160a01b0385166000908152600660205260409020548590849061069190829060ff16610484565b6106da576040517fc3da7c210000000000000000000000000000000000000000000000000000000081526001600160a01b03808416600483015282166024820152604401610409565b6106e5878787610e21565b505050506106f36001600055565b505050565b60015474010000000000000000000000000000000000000000900460ff161561074d576040517f0dc149f000000000000000000000000000000000000000000000000000000000815260040160405180910390fd5b600180547fffffffffffffffffffffff00ffffffffffffffffffffffffffffffffffffffff1674010000000000000000000000000000000000000000179055600780546001600160a01b0384167fffffffffffffffffffffffff00000000000000000000000000000000000000009091161790556107ca81610b11565b5050565b600381815481106107de57600080fd5b6000918252602090912001546001600160a01b0316905081565b610800610f6d565b61080a6000610fe1565b565b610814610f6d565b61081d8161104b565b50565b6001600160a01b038116600090815260046020526040812054829060ff1661087f576040517f733068030000000000000000000000000000000000000000000000000000000081526001600160a01b0382166004820152602401610409565b61088883611095565b91505b50919050565b606060038054806020026020016040519081016040528092919081815260200182805480156108e957602002820191906000526020600020905b81546001600160a01b031681526001909101906020018083116108cb575b5050505050905090565b6108fb610dae565b6001600160a01b038216600090815260046020526040902054829060ff1661095a576040517f733068030000000000000000000000000000000000000000000000000000000081526001600160a01b0382166004820152602401610409565b6001600160a01b0383166000908152600660205260409020548390339061098590829060ff16610484565b6109ce576040517fc3da7c210000000000000000000000000000000000000000000000000000000081526001600160a01b03808416600483015282166024820152604401610409565b6109d9858533610e21565b5050506107ca6001600055565b6109ee610f6d565b6001600160a01b03811660009081526004602052604090205460ff1615610a4c576040517f13501a510000000000000000000000000000000000000000000000000000000081526001600160a01b0382166004820152602401610409565b6003805460018082019092557fc2575a0e9e593c00f959f8c92f12db2869c3395a3b0502d05e2516446f71f85b0180547fffffffffffffffffffffffff0000000000000000000000000000000000000000166001600160a01b03841690811790915560008181526004602052604080822080547fffffffffffffffffffffffffffffffffffffffffffffffffffffffffffffff0016909417909355915190917f784c8f4dbf0ffedd6e72c76501c545a70f8b203b30a26ce542bf92ba87c248a491a250565b610b19610f6d565b6001600160a01b038116610baf576040517f08c379a000000000000000000000000000000000000000000000000000000000815260206004820152602660248201527f4f776e61626c653a206e6577206f776e657220697320746865207a65726f206160448201527f64647265737300000000000000000000000000000000000000000000000000006064820152608401610409565b61081d81610fe1565b610bc0610dae565b6001600160a01b038216600090815260046020526040902054829060ff16610c1f576040517f733068030000000000000000000000000000000000000000000000000000000081526001600160a01b0382166004820152602401610409565b610c298383611119565b506107ca6001600055565b610c3c610dae565b6001600160a01b038216600090815260046020526040902054829060ff16610c9b576040517f733068030000000000000000000000000000000000000000000000000000000081526001600160a01b0382166004820152602401610409565b6001600160a01b03831660009081526006602052604090205483903390610cc690829060ff16610484565b610d0f576040517fc3da7c210000000000000000000000000000000000000000000000000000000081526001600160a01b03808416600483015282166024820152604401610409565b610d198585611119565b6109d985611254565b6001600160a01b038216600090815260046020526040812054839060ff16610d81576040517f733068030000000000000000000000000000000000000000000000000000000081526001600160a01b0382166004820152602401610409565b50506001600160a01b03918216600090815260056020908152604080832093909416825291909152205490565b600260005403610e1a576040517f08c379a000000000000000000000000000000000000000000000000000000000815260206004820152601f60248201527f5265656e7472616e637947756172643a207265656e7472616e742063616c6c006044820152606401610409565b6002600055565b6001600160a01b03838116600090815260056020908152604080832093851683529290529081205490610e5385611095565b9050610e5f84836117ed565b6001600160a01b0386811660008181526005602090815260408083208986168085529252918290209490945560075490517f184dde8700000000000000000000000000000000000000000000000000000000815260048101929092526024820193909352604481018590526064810184905291169063184dde8790608401600060405180830381600087803b158015610ef757600080fd5b505af1158015610f0b573d6000803e3d6000fd5b50610f25925050506001600160a01b03861633308761134f565b83856001600160a01b0316846001600160a01b03167f99039fcf0a98f484616c5196ee8b2ecfa971babf0b519848289ea4db381f85f760405160405180910390a45050505050565b6001546001600160a01b0316331461080a576040517f08c379a000000000000000000000000000000000000000000000000000000000815260206004820181905260248201527f4f776e61626c653a2063616c6c6572206973206e6f7420746865206f776e65726044820152606401610409565b600180546001600160a01b038381167fffffffffffffffffffffffff0000000000000000000000000000000000000000831681179093556040519116919082907f8be0079c531659141344cd1fd0a4f28419497f9722a3daafe3b4186f6b6457e090600090a35050565b806001600160a01b03811661108c576040517f161a968300000000000000000000000000000000000000000000000000000000815260040160405180910390fd5b6107ca82611424565b6040517f70a082310000000000000000000000000000000000000000000000000000000081523060048201526000906001600160a01b038316906370a0823190602401602060405180830381865afa1580156110f5573d6000803e3d6000fd5b505050506040513d601f19601f820116820180604052508101906105ac9190611800565b6001600160a01b03821660009081526005602090815260408083203384529091528120549061114784611095565b90506111538383611819565b6001600160a01b038581166000818152600560209081526040808320338085529252918290209490945560075490517f184dde8700000000000000000000000000000000000000000000000000000000815260048101929092526024820193909352604481018590526064810184905291169063184dde8790608401600060405180830381600087803b1580156111e957600080fd5b505af11580156111fd573d6000803e3d6000fd5b50611216925050506001600160a01b0385163385611486565b60405183906001600160a01b0386169033907f9b1bfa7fa9ee420a16e124f794c35ac9f90472acc99140eb2f6447c714cad8eb90600090a450505050565b60408051600180825281830190925260009160208083019080368337019050509050818160008151811061128a5761128a61185b565b6001600160a01b0392831660209182029290920101526007546040517f9ff55db9000000000000000000000000000000000000000000000000000000008152911690639ff55db9906112e49084903390819060040161188a565b6000604051808303816000875af1158015611303573d6000803e3d6000fd5b505050506040513d6000823e601f3d9081017fffffffffffffffffffffffffffffffffffffffffffffffffffffffffffffffe0168201604052611349919081019061199b565b50505050565b6040517f23b872dd000000000000000000000000000000000000000000000000000000008082526001600160a01b038581166004840152841660248301526044820183905290600080606483828a5af16113ad573d6000803e3d6000fd5b506113b78561154c565b61141d576040517f08c379a000000000000000000000000000000000000000000000000000000000815260206004820152601960248201527f475076323a206661696c6564207472616e7366657246726f6d000000000000006044820152606401610409565b5050505050565b600280547fffffffffffffffffffffffff0000000000000000000000000000000000000000166001600160a01b0383169081179091556040517fcedf55f14e39eab9ea6df1b72eeb9a4ce7f42a669be00a2d94fc9eaccbe0637390600090a250565b6040517fa9059cbb000000000000000000000000000000000000000000000000000000008082526001600160a01b0384166004830152602482018390529060008060448382895af16114dc573d6000803e3d6000fd5b506114e68461154c565b611349576040517f08c379a000000000000000000000000000000000000000000000000000000000815260206004820152601560248201527f475076323a206661696c6564207472616e7366657200000000000000000000006044820152606401610409565b600061158b565b7f08c379a000000000000000000000000000000000000000000000000000000000600052602060045280602452508060445260646000fd5b3d80156115ca5760208114611604576115c57f475076323a206d616c666f726d6564207472616e7366657220726573756c7400601f611553565b61088b565b823b6115fb576115fb7f475076323a206e6f74206120636f6e74726163740000000000000000000000006014611553565b6001915061088b565b3d6000803e50506000511515919050565b6001600160a01b038116811461081d57600080fd5b801515811461081d57600080fd5b6000806040838503121561164b57600080fd5b823561165681611615565b915060208301356116668161162a565b809150509250929050565b60008060006060848603121561168657600080fd5b833561169181611615565b92506020840135915060408401356116a881611615565b809150509250925092565b600080604083850312156116c657600080fd5b82356116d181611615565b9150602083013561166681611615565b6000602082840312156116f357600080fd5b5035919050565b60006020828403121561170c57600080fd5b813561171781611615565b9392505050565b600081518084526020808501945080840160005b838110156117575781516001600160a01b031687529582019590820190600101611732565b509495945050505050565b602081526000611717602083018461171e565b6000806040838503121561178857600080fd5b823561179381611615565b946020939093013593505050565b6000602082840312156117b357600080fd5b81516117178161162a565b7f4e487b7100000000000000000000000000000000000000000000000000000000600052601160045260246000fd5b808201808211156105ac576105ac6117be565b60006020828403121561181257600080fd5b5051919050565b818103818111156105ac576105ac6117be565b7f4e487b7100000000000000000000000000000000000000000000000000000000600052604160045260246000fd5b7f4e487b7100000000000000000000000000000000000000000000000000000000600052603260045260246000fd5b60608152600061189d606083018661171e565b6001600160a01b0394851660208401529290931660409091015292915050565b604051601f82017fffffffffffffffffffffffffffffffffffffffffffffffffffffffffffffffe016810167ffffffffffffffff811182821017156119045761190461182c565b604052919050565b600067ffffffffffffffff8211156119265761192661182c565b5060051b60200190565b600082601f83011261194157600080fd5b815160206119566119518361190c565b6118bd565b82815260059290921b8401810191818101908684111561197557600080fd5b8286015b848110156119905780518352918301918301611979565b509695505050505050565b600080604083850312156119ae57600080fd5b825167ffffffffffffffff808211156119c657600080fd5b818501915085601f8301126119da57600080fd5b815160206119ea6119518361190c565b82815260059290921b84018101918181019089841115611a0957600080fd5b948201945b83861015611a30578551611a2181611615565b82529482019490820190611a0e565b91880151919650909350505080821115611a4957600080fd5b50611a5685828601611930565b915050925092905056fea2646970667358221220383a01c2110c53bdceae92ffa2c2af1443b99540c8ed4789ea87cb46f96e6f2d64736f6c63430008100033",
  "devdoc": {
    "author": "Solid World",
    "kind": "dev",
    "methods": {
      "addToken(address)": {
        "details": "Adds a new token to the staking contract",
        "params": {
          "token": "the token to add"
        }
      },
      "balanceOf(address,address)": {
        "details": "Computes the amount of tokens that the `account` has staked",
        "params": {
          "account": "the account to check",
          "token": "the token to check"
        },
        "returns": {
          "_0": "the amount of `token` tokens that the `account` has staked"
        }
      },
      "getTimelockController()": {
        "returns": {
          "_0": "The address controlling timelocked functions (e.g. KYC requirement changes)"
        }
      },
      "getTokens()": {
        "details": "Returns the list of tokens that can be staked",
        "returns": {
          "_tokens": "the list of tokens that can be staked"
        }
      },
      "isKYCRequired(address)": {
        "returns": {
          "_0": "whether the specified token requires msg.sender to be KYCed before staking"
        }
      },
      "isValidCounterparty(address,bool)": {
        "returns": {
          "_0": "true if the counterparty is compliant according to the current verification registry, taking into account the KYC requirement."
        }
      },
      "owner()": {
        "details": "Returns the address of the current owner."
      },
      "renounceOwnership()": {
        "details": "Leaves the contract without owner. It will not be possible to call `onlyOwner` functions anymore. Can only be called by the current owner. NOTE: Renouncing ownership will leave the contract without an owner, thereby removing any functionality that is only available to the owner."
      },
      "setKYCRequired(address,bool)": {
        "params": {
          "kycRequired": "whether the specified token requires msg.sender to be KYCed before staking",
          "token": "to set KYC requirement for"
        }
      },
      "stake(address,uint256)": {
        "details": "Stakes tokens for the caller into the staking contract",
        "params": {
          "amount": "the amount to stake",
          "token": "the token to stake"
        }
      },
      "stake(address,uint256,address)": {
        "details": "funds are subtracted from msg.sender, stake is credited to recipient",
        "params": {
          "amount": "the amount to stake",
          "recipient": "the recipient of the stake",
          "token": "the token to stake"
        }
      },
      "totalStaked(address)": {
        "details": "Computes the total amount of tokens that have been staked",
        "params": {
          "token": "the token to check"
        },
        "returns": {
          "_0": "the total amount of `token` tokens that have been staked"
        }
      },
      "transferOwnership(address)": {
        "details": "Transfers ownership of the contract to a new account (`newOwner`). Can only be called by the current owner."
      },
      "withdraw(address,uint256)": {
        "details": "Withdraws tokens for the caller from the staking contract",
        "params": {
          "amount": "the amount to withdraw",
          "token": "the token to withdraw"
        }
      },
      "withdrawStakeAndClaimRewards(address,uint256)": {
        "details": "Withdraws tokens for the caller from the staking contractClaims all rewards of the incentivized `token` for the caller",
        "params": {
          "amount": "the amount to withdraw",
          "token": "the token to withdraw"
        }
      }
    },
    "stateVariables": {
      "kycRequired": {
        "details": "token => requires KYC"
      },
      "rewardsController": {
        "details": "Main contract used for interacting with rewards mechanism."
      },
      "timelockController": {
        "details": "Address controlling timelocked functions (e.g. KYC requirement changes)"
      },
      "tokens": {
        "details": "All stakable lp tokens."
      },
      "userStake": {
        "details": "Mapping with the staked amount of each account for each token.token => user => amount"
      }
    },
    "version": 1
  },
  "userdoc": {
    "kind": "user",
    "methods": {
      "stake(address,uint256,address)": {
        "notice": "msg.sender stakes tokens for the recipient into the staking contract"
      }
    },
    "version": 1
  },
  "storageLayout": {
    "storage": [
      {
        "astId": 2179,
        "contract": "contracts/SolidStaking.sol:SolidStaking",
        "label": "_status",
        "offset": 0,
        "slot": "0",
        "type": "t_uint256"
      },
      {
        "astId": 1149,
        "contract": "contracts/SolidStaking.sol:SolidStaking",
        "label": "_owner",
        "offset": 0,
        "slot": "1",
        "type": "t_address"
      },
      {
        "astId": 10219,
        "contract": "contracts/SolidStaking.sol:SolidStaking",
        "label": "_initialized",
        "offset": 20,
        "slot": "1",
        "type": "t_bool"
      },
      {
        "astId": 12280,
        "contract": "contracts/SolidStaking.sol:SolidStaking",
        "label": "verificationRegistry",
        "offset": 0,
        "slot": "2",
        "type": "t_address"
      },
      {
        "astId": 10263,
        "contract": "contracts/SolidStaking.sol:SolidStaking",
        "label": "tokens",
        "offset": 0,
        "slot": "3",
        "type": "t_array(t_address)dyn_storage"
      },
      {
        "astId": 10267,
        "contract": "contracts/SolidStaking.sol:SolidStaking",
        "label": "tokenAdded",
        "offset": 0,
        "slot": "4",
        "type": "t_mapping(t_address,t_bool)"
      },
      {
        "astId": 10274,
        "contract": "contracts/SolidStaking.sol:SolidStaking",
        "label": "userStake",
        "offset": 0,
        "slot": "5",
        "type": "t_mapping(t_address,t_mapping(t_address,t_uint256))"
      },
      {
        "astId": 10279,
        "contract": "contracts/SolidStaking.sol:SolidStaking",
        "label": "kycRequired",
        "offset": 0,
        "slot": "6",
        "type": "t_mapping(t_address,t_bool)"
      },
      {
        "astId": 10283,
        "contract": "contracts/SolidStaking.sol:SolidStaking",
        "label": "rewardsController",
        "offset": 0,
        "slot": "7",
        "type": "t_contract(IRewardsController)13697"
      }
    ],
    "types": {
      "t_address": {
        "encoding": "inplace",
        "label": "address",
        "numberOfBytes": "20"
      },
      "t_array(t_address)dyn_storage": {
        "base": "t_address",
        "encoding": "dynamic_array",
        "label": "address[]",
        "numberOfBytes": "32"
      },
      "t_bool": {
        "encoding": "inplace",
        "label": "bool",
        "numberOfBytes": "1"
      },
      "t_contract(IRewardsController)13697": {
        "encoding": "inplace",
        "label": "contract IRewardsController",
        "numberOfBytes": "20"
      },
      "t_mapping(t_address,t_bool)": {
        "encoding": "mapping",
        "key": "t_address",
        "label": "mapping(address => bool)",
        "numberOfBytes": "32",
        "value": "t_bool"
      },
      "t_mapping(t_address,t_mapping(t_address,t_uint256))": {
        "encoding": "mapping",
        "key": "t_address",
        "label": "mapping(address => mapping(address => uint256))",
        "numberOfBytes": "32",
        "value": "t_mapping(t_address,t_uint256)"
      },
      "t_mapping(t_address,t_uint256)": {
        "encoding": "mapping",
        "key": "t_address",
        "label": "mapping(address => uint256)",
        "numberOfBytes": "32",
        "value": "t_uint256"
      },
      "t_uint256": {
        "encoding": "inplace",
        "label": "uint256",
        "numberOfBytes": "32"
      }
    }
  }
}