{
	"SCTERC20.sol": {
		"SCTERC20Token": {
			"abi": [
				{
					"inputs": [
						{
							"internalType": "address",
							"name": "_authority",
							"type": "address"
						}
					],
					"stateMutability": "nonpayable",
					"type": "constructor"
				},
				{
					"anonymous": false,
					"inputs": [
						{
							"indexed": true,
							"internalType": "address",
							"name": "owner",
							"type": "address"
						},
						{
							"indexed": true,
							"internalType": "address",
							"name": "spender",
							"type": "address"
						},
						{
							"indexed": false,
							"internalType": "uint256",
							"name": "value",
							"type": "uint256"
						}
					],
					"name": "Approval",
					"type": "event"
				},
				{
					"anonymous": false,
					"inputs": [
						{
							"indexed": true,
							"internalType": "contract ISolidDaoManagement",
							"name": "authority",
							"type": "address"
						}
					],
					"name": "AuthorityUpdated",
					"type": "event"
				},
				{
					"anonymous": false,
					"inputs": [
						{
							"indexed": true,
							"internalType": "address",
							"name": "from",
							"type": "address"
						},
						{
							"indexed": true,
							"internalType": "address",
							"name": "to",
							"type": "address"
						},
						{
							"indexed": false,
							"internalType": "uint256",
							"name": "value",
							"type": "uint256"
						}
					],
					"name": "Transfer",
					"type": "event"
				},
				{
					"inputs": [],
					"name": "DOMAIN_SEPARATOR",
					"outputs": [
						{
							"internalType": "bytes32",
							"name": "",
							"type": "bytes32"
						}
					],
					"stateMutability": "view",
					"type": "function"
				},
				{
					"inputs": [
						{
							"internalType": "address",
							"name": "owner",
							"type": "address"
						},
						{
							"internalType": "address",
							"name": "spender",
							"type": "address"
						}
					],
					"name": "allowance",
					"outputs": [
						{
							"internalType": "uint256",
							"name": "",
							"type": "uint256"
						}
					],
					"stateMutability": "view",
					"type": "function"
				},
				{
					"inputs": [
						{
							"internalType": "address",
							"name": "spender",
							"type": "address"
						},
						{
							"internalType": "uint256",
							"name": "amount",
							"type": "uint256"
						}
					],
					"name": "approve",
					"outputs": [
						{
							"internalType": "bool",
							"name": "",
							"type": "bool"
						}
					],
					"stateMutability": "nonpayable",
					"type": "function"
				},
				{
					"inputs": [],
					"name": "authority",
					"outputs": [
						{
							"internalType": "contract ISolidDaoManagement",
							"name": "",
							"type": "address"
						}
					],
					"stateMutability": "view",
					"type": "function"
				},
				{
					"inputs": [
						{
							"internalType": "address",
							"name": "account",
							"type": "address"
						}
					],
					"name": "balanceOf",
					"outputs": [
						{
							"internalType": "uint256",
							"name": "",
							"type": "uint256"
						}
					],
					"stateMutability": "view",
					"type": "function"
				},
				{
					"inputs": [
						{
							"internalType": "uint256",
							"name": "amount",
							"type": "uint256"
						}
					],
					"name": "burn",
					"outputs": [],
					"stateMutability": "nonpayable",
					"type": "function"
				},
				{
					"inputs": [
						{
							"internalType": "address",
							"name": "account_",
							"type": "address"
						},
						{
							"internalType": "uint256",
							"name": "amount_",
							"type": "uint256"
						}
					],
					"name": "burnFrom",
					"outputs": [],
					"stateMutability": "nonpayable",
					"type": "function"
				},
				{
					"inputs": [],
					"name": "decimals",
					"outputs": [
						{
							"internalType": "uint8",
							"name": "",
							"type": "uint8"
						}
					],
					"stateMutability": "view",
					"type": "function"
				},
				{
					"inputs": [
						{
							"internalType": "address",
							"name": "spender",
							"type": "address"
						},
						{
							"internalType": "uint256",
							"name": "subtractedValue",
							"type": "uint256"
						}
					],
					"name": "decreaseAllowance",
					"outputs": [
						{
							"internalType": "bool",
							"name": "",
							"type": "bool"
						}
					],
					"stateMutability": "nonpayable",
					"type": "function"
				},
				{
					"inputs": [
						{
							"internalType": "address",
							"name": "spender",
							"type": "address"
						},
						{
							"internalType": "uint256",
							"name": "addedValue",
							"type": "uint256"
						}
					],
					"name": "increaseAllowance",
					"outputs": [
						{
							"internalType": "bool",
							"name": "",
							"type": "bool"
						}
					],
					"stateMutability": "nonpayable",
					"type": "function"
				},
				{
					"inputs": [
						{
							"internalType": "address",
							"name": "account_",
							"type": "address"
						},
						{
							"internalType": "uint256",
							"name": "amount_",
							"type": "uint256"
						}
					],
					"name": "mint",
					"outputs": [],
					"stateMutability": "nonpayable",
					"type": "function"
				},
				{
					"inputs": [],
					"name": "name",
					"outputs": [
						{
							"internalType": "string",
							"name": "",
							"type": "string"
						}
					],
					"stateMutability": "view",
					"type": "function"
				},
				{
					"inputs": [
						{
							"internalType": "address",
							"name": "owner",
							"type": "address"
						}
					],
					"name": "nonces",
					"outputs": [
						{
							"internalType": "uint256",
							"name": "",
							"type": "uint256"
						}
					],
					"stateMutability": "view",
					"type": "function"
				},
				{
					"inputs": [
						{
							"internalType": "address",
							"name": "owner",
							"type": "address"
						},
						{
							"internalType": "address",
							"name": "spender",
							"type": "address"
						},
						{
							"internalType": "uint256",
							"name": "value",
							"type": "uint256"
						},
						{
							"internalType": "uint256",
							"name": "deadline",
							"type": "uint256"
						},
						{
							"internalType": "uint8",
							"name": "v",
							"type": "uint8"
						},
						{
							"internalType": "bytes32",
							"name": "r",
							"type": "bytes32"
						},
						{
							"internalType": "bytes32",
							"name": "s",
							"type": "bytes32"
						}
					],
					"name": "permit",
					"outputs": [],
					"stateMutability": "nonpayable",
					"type": "function"
				},
				{
					"inputs": [
						{
							"internalType": "contract ISolidDaoManagement",
							"name": "_newAuthority",
							"type": "address"
						}
					],
					"name": "setAuthority",
					"outputs": [],
					"stateMutability": "nonpayable",
					"type": "function"
				},
				{
					"inputs": [],
					"name": "symbol",
					"outputs": [
						{
							"internalType": "string",
							"name": "",
							"type": "string"
						}
					],
					"stateMutability": "view",
					"type": "function"
				},
				{
					"inputs": [],
					"name": "totalSupply",
					"outputs": [
						{
							"internalType": "uint256",
							"name": "",
							"type": "uint256"
						}
					],
					"stateMutability": "view",
					"type": "function"
				},
				{
					"inputs": [
						{
							"internalType": "address",
							"name": "to",
							"type": "address"
						},
						{
							"internalType": "uint256",
							"name": "amount",
							"type": "uint256"
						}
					],
					"name": "transfer",
					"outputs": [
						{
							"internalType": "bool",
							"name": "",
							"type": "bool"
						}
					],
					"stateMutability": "nonpayable",
					"type": "function"
				},
				{
					"inputs": [
						{
							"internalType": "address",
							"name": "from",
							"type": "address"
						},
						{
							"internalType": "address",
							"name": "to",
							"type": "address"
						},
						{
							"internalType": "uint256",
							"name": "amount",
							"type": "uint256"
						}
					],
					"name": "transferFrom",
					"outputs": [
						{
							"internalType": "bool",
							"name": "",
							"type": "bool"
						}
					],
					"stateMutability": "nonpayable",
					"type": "function"
				}
			],
			"devdoc": {
				"author": "Solid World DAO",
				"kind": "dev",
				"methods": {
					"DOMAIN_SEPARATOR()": {
						"details": "See {IERC20Permit-DOMAIN_SEPARATOR}."
					},
					"allowance(address,address)": {
						"details": "See {IERC20-allowance}."
					},
					"approve(address,uint256)": {
						"details": "See {IERC20-approve}. NOTE: If `amount` is the maximum `uint256`, the allowance is not updated on `transferFrom`. This is semantically equivalent to an infinite approval. Requirements: - `spender` cannot be the zero address."
					},
					"balanceOf(address)": {
						"details": "See {IERC20-balanceOf}."
					},
					"decimals()": {
						"details": "Returns the number of decimals used to get its user representation. For example, if `decimals` equals `2`, a balance of `505` tokens should be displayed to a user as `5.05` (`505 / 10 ** 2`). Tokens usually opt for a value of 18, imitating the relationship between Ether and Wei. This is the value {ERC20} uses, unless this function is overridden; NOTE: This information is only used for _display_ purposes: it in no way affects any of the arithmetic of the contract, including {IERC20-balanceOf} and {IERC20-transfer}."
					},
					"decreaseAllowance(address,uint256)": {
						"details": "Atomically decreases the allowance granted to `spender` by the caller. This is an alternative to {approve} that can be used as a mitigation for problems described in {IERC20-approve}. Emits an {Approval} event indicating the updated allowance. Requirements: - `spender` cannot be the zero address. - `spender` must have allowance for the caller of at least `subtractedValue`."
					},
					"increaseAllowance(address,uint256)": {
						"details": "Atomically increases the allowance granted to `spender` by the caller. This is an alternative to {approve} that can be used as a mitigation for problems described in {IERC20-approve}. Emits an {Approval} event indicating the updated allowance. Requirements: - `spender` cannot be the zero address."
					},
					"name()": {
						"details": "Returns the name of the token."
					},
					"nonces(address)": {
						"details": "See {IERC20Permit-nonces}."
					},
					"permit(address,address,uint256,uint256,uint8,bytes32,bytes32)": {
						"details": "See {IERC20Permit-permit}."
					},
					"setAuthority(address)": {
						"details": "Emit AuthorityUpdated event",
						"params": {
							"_newAuthority": "Address of the new Solid Dao Management smart contract"
						}
					},
					"symbol()": {
						"details": "Returns the symbol of the token, usually a shorter version of the name."
					},
					"totalSupply()": {
						"details": "See {IERC20-totalSupply}."
					},
					"transfer(address,uint256)": {
						"details": "See {IERC20-transfer}. Requirements: - `to` cannot be the zero address. - the caller must have a balance of at least `amount`."
					},
					"transferFrom(address,address,uint256)": {
						"details": "See {IERC20-transferFrom}. Emits an {Approval} event indicating the updated allowance. This is not required by the EIP. See the note at the beginning of {ERC20}. NOTE: Does not update the allowance if the current allowance is the maximum `uint256`. Requirements: - `from` and `to` cannot be the zero address. - `from` must have a balance of at least `amount`. - the caller must have allowance for ``from``'s tokens of at least `amount`."
					}
				},
				"title": "SCT ERC-20 Token",
				"version": 1
			},
			"evm": {
				"assembly": "    /* \"SCTERC20.sol\":316:1236  contract SCTERC20Token is ERC20Permit, ISCT, SolidDaoManaged {... */\n  mstore(0x40, 0x0160)\n    /* \"lib/SolidDaoManaged.sol\":494:530  string UNAUTHORIZED = \"UNAUTHORIZED\" */\n  mload(0x40)\n  dup1\n  0x40\n  add\n  0x40\n  mstore\n  dup1\n  0x0c\n  dup2\n  mstore\n  0x20\n  add\n  0x554e415554484f52495a45440000000000000000000000000000000000000000\n  dup2\n  mstore\n  pop\n  0x07\n  swap1\n  dup1\n  mload\n  swap1\n  0x20\n  add\n  swap1\n  tag_1\n  swap3\n  swap2\n  swap1\n  tag_2\n  jump\t// in\ntag_1:\n  pop\n    /* \"SCTERC20.sol\":384:533  constructor(address _authority)... */\n  callvalue\n  dup1\n  iszero\n  tag_3\n  jumpi\n  0x00\n  dup1\n  revert\ntag_3:\n  pop\n  mload(0x40)\n  sub(codesize, bytecodeSize)\n  dup1\n  bytecodeSize\n  dup4\n  codecopy\n  dup2\n  dup2\n  add\n  0x40\n  mstore\n  dup2\n  add\n  swap1\n  tag_4\n  swap2\n  swap1\n  tag_5\n  jump\t// in\ntag_4:\n    /* \"SCTERC20.sol\":518:528  _authority */\n  dup1\n    /* \"lib/ERC20Permit.sol\":1762:1814  constructor(string memory name) EIP712(name, \"1\") {} */\n  mload(0x40)\n  dup1\n  0x40\n  add\n  0x40\n  mstore\n  dup1\n  0x03\n  dup2\n  mstore\n  0x20\n  add\n  0x5343540000000000000000000000000000000000000000000000000000000000\n  dup2\n  mstore\n  pop\n    /* \"lib/ERC20Permit.sol\":1801:1805  name */\n  dup1\n    /* \"lib/EIP712.sol\":2455:3057  constructor(string memory name, string memory version) {... */\n  mload(0x40)\n  dup1\n  0x40\n  add\n  0x40\n  mstore\n  dup1\n  0x01\n  dup2\n  mstore\n  0x20\n  add\n  0x3100000000000000000000000000000000000000000000000000000000000000\n  dup2\n  mstore\n  pop\n    /* \"tokens/ERC20.sol\":1804:1965  constructor(string memory name_, string memory symbol_, uint8 decimals_) {... */\n  mload(0x40)\n  dup1\n  0x40\n  add\n  0x40\n  mstore\n  dup1\n  0x03\n  dup2\n  mstore\n  0x20\n  add\n  0x5343540000000000000000000000000000000000000000000000000000000000\n  dup2\n  mstore\n  pop\n  mload(0x40)\n  dup1\n  0x40\n  add\n  0x40\n  mstore\n  dup1\n  0x03\n  dup2\n  mstore\n  0x20\n  add\n  0x5343540000000000000000000000000000000000000000000000000000000000\n  dup2\n  mstore\n  pop\n    /* \"SCTERC20.sol\":444:445  9 */\n  0x09\n    /* \"tokens/ERC20.sol\":1895:1900  name_ */\n  dup3\n    /* \"tokens/ERC20.sol\":1887:1892  _name */\n  0x03\n    /* \"tokens/ERC20.sol\":1887:1900  _name = name_ */\n  swap1\n  dup1\n  mload\n  swap1\n  0x20\n  add\n  swap1\n  tag_12\n  swap3\n  swap2\n  swap1\n  tag_2\n  jump\t// in\ntag_12:\n  pop\n    /* \"tokens/ERC20.sol\":1920:1927  symbol_ */\n  dup2\n    /* \"tokens/ERC20.sol\":1910:1917  _symbol */\n  0x04\n    /* \"tokens/ERC20.sol\":1910:1927  _symbol = symbol_ */\n  swap1\n  dup1\n  mload\n  swap1\n  0x20\n  add\n  swap1\n  tag_13\n  swap3\n  swap2\n  swap1\n  tag_2\n  jump\t// in\ntag_13:\n  pop\n    /* \"tokens/ERC20.sol\":1949:1958  decimals_ */\n  dup1\n    /* \"tokens/ERC20.sol\":1937:1958  _decimals = decimals_ */\n  0xff\n  and\n  0x80\n  dup2\n  0xff\n  and\n  dup2\n  mstore\n  pop\n  pop\n    /* \"tokens/ERC20.sol\":1804:1965  constructor(string memory name_, string memory symbol_, uint8 decimals_) {... */\n  pop\n  pop\n  pop\n    /* \"lib/EIP712.sol\":2520:2538  bytes32 hashedName */\n  0x00\n    /* \"lib/EIP712.sol\":2557:2561  name */\n  dup3\n    /* \"lib/EIP712.sol\":2541:2563  keccak256(bytes(name)) */\n  dup1\n  mload\n  swap1\n  0x20\n  add\n  keccak256\n    /* \"lib/EIP712.sol\":2520:2563  bytes32 hashedName = keccak256(bytes(name)) */\n  swap1\n  pop\n    /* \"lib/EIP712.sol\":2573:2594  bytes32 hashedVersion */\n  0x00\n    /* \"lib/EIP712.sol\":2613:2620  version */\n  dup3\n    /* \"lib/EIP712.sol\":2597:2622  keccak256(bytes(version)) */\n  dup1\n  mload\n  swap1\n  0x20\n  add\n  keccak256\n    /* \"lib/EIP712.sol\":2573:2622  bytes32 hashedVersion = keccak256(bytes(version)) */\n  swap1\n  pop\n    /* \"lib/EIP712.sol\":2632:2648  bytes32 typeHash */\n  0x00\n    /* \"lib/EIP712.sol\":2651:2768  keccak256(... */\n  0x8b73c3c69bb8fe3d512ecc4cf759cc79239f7b179b0ffacaa9a75d522b39400f\n    /* \"lib/EIP712.sol\":2632:2768  bytes32 typeHash = keccak256(... */\n  swap1\n  pop\n    /* \"lib/EIP712.sol\":2793:2803  hashedName */\n  dup3\n    /* \"lib/EIP712.sol\":2778:2803  _HASHED_NAME = hashedName */\n  0x0100\n  dup2\n  dup2\n  mstore\n  pop\n  pop\n    /* \"lib/EIP712.sol\":2831:2844  hashedVersion */\n  dup2\n    /* \"lib/EIP712.sol\":2813:2844  _HASHED_VERSION = hashedVersion */\n  0x0120\n  dup2\n  dup2\n  mstore\n  pop\n  pop\n    /* \"lib/EIP712.sol\":2873:2886  block.chainid */\n  chainid\n    /* \"lib/EIP712.sol\":2854:2886  _CACHED_CHAIN_ID = block.chainid */\n  0xc0\n  dup2\n  dup2\n  mstore\n  pop\n  pop\n    /* \"lib/EIP712.sol\":2923:2981  _buildDomainSeparator(typeHash, hashedName, hashedVersion) */\n  tag_15\n    /* \"lib/EIP712.sol\":2945:2953  typeHash */\n  dup2\n    /* \"lib/EIP712.sol\":2955:2965  hashedName */\n  dup5\n    /* \"lib/EIP712.sol\":2967:2980  hashedVersion */\n  dup5\n    /* \"lib/EIP712.sol\":2923:2944  _buildDomainSeparator */\n  shl(0x20, tag_16)\n    /* \"lib/EIP712.sol\":2923:2981  _buildDomainSeparator(typeHash, hashedName, hashedVersion) */\n  0x20\n  shr\n  jump\t// in\ntag_15:\n    /* \"lib/EIP712.sol\":2896:2981  _CACHED_DOMAIN_SEPARATOR = _buildDomainSeparator(typeHash, hashedName, hashedVersion) */\n  0xa0\n  dup2\n  dup2\n  mstore\n  pop\n  pop\n    /* \"lib/EIP712.sol\":3014:3018  this */\n  address\n    /* \"lib/EIP712.sol\":2991:3019  _CACHED_THIS = address(this) */\n  0xffffffffffffffffffffffffffffffffffffffff\n  and\n  0xe0\n  dup2\n  0xffffffffffffffffffffffffffffffffffffffff\n  and\n  dup2\n  mstore\n  pop\n  pop\n    /* \"lib/EIP712.sol\":3042:3050  typeHash */\n  dup1\n    /* \"lib/EIP712.sol\":3029:3050  _TYPE_HASH = typeHash */\n  0x0140\n  dup2\n  dup2\n  mstore\n  pop\n  pop\n    /* \"lib/EIP712.sol\":2510:3057  {... */\n  pop\n  pop\n  pop\n    /* \"lib/EIP712.sol\":2455:3057  constructor(string memory name, string memory version) {... */\n  pop\n  pop\n    /* \"lib/ERC20Permit.sol\":1762:1814  constructor(string memory name) EIP712(name, \"1\") {} */\n  pop\n    /* \"lib/SolidDaoManaged.sol\":646:656  _authority */\n  dup1\n    /* \"lib/SolidDaoManaged.sol\":634:643  authority */\n  0x08\n  0x00\n    /* \"lib/SolidDaoManaged.sol\":634:656  authority = _authority */\n  0x0100\n  exp\n  dup2\n  sload\n  dup2\n  0xffffffffffffffffffffffffffffffffffffffff\n  mul\n  not\n  and\n  swap1\n  dup4\n  0xffffffffffffffffffffffffffffffffffffffff\n  and\n  mul\n  or\n  swap1\n  sstore\n  pop\n    /* \"lib/SolidDaoManaged.sol\":688:698  _authority */\n  dup1\n    /* \"lib/SolidDaoManaged.sol\":671:699  AuthorityUpdated(_authority) */\n  0xffffffffffffffffffffffffffffffffffffffff\n  and\n  0x2f658b440c35314f52658ea8a740e05b284cdc84dc9ae01e891f21b8933e7cad\n  mload(0x40)\n  mload(0x40)\n  dup1\n  swap2\n  sub\n  swap1\n  log2\n    /* \"lib/SolidDaoManaged.sol\":580:706  constructor(ISolidDaoManagement _authority) {... */\n  pop\n    /* \"SCTERC20.sol\":384:533  constructor(address _authority)... */\n  pop\n    /* \"SCTERC20.sol\":316:1236  contract SCTERC20Token is ERC20Permit, ISCT, SolidDaoManaged {... */\n  jump(tag_20)\n    /* \"lib/EIP712.sol\":3457:3714  function _buildDomainSeparator(... */\ntag_16:\n    /* \"lib/EIP712.sol\":3597:3604  bytes32 */\n  0x00\n    /* \"lib/EIP712.sol\":3644:3652  typeHash */\n  dup4\n    /* \"lib/EIP712.sol\":3654:3662  nameHash */\n  dup4\n    /* \"lib/EIP712.sol\":3664:3675  versionHash */\n  dup4\n    /* \"lib/EIP712.sol\":3677:3690  block.chainid */\n  chainid\n    /* \"lib/EIP712.sol\":3700:3704  this */\n  address\n    /* \"lib/EIP712.sol\":3633:3706  abi.encode(typeHash, nameHash, versionHash, block.chainid, address(this)) */\n  add(0x20, mload(0x40))\n  tag_22\n  swap6\n  swap5\n  swap4\n  swap3\n  swap2\n  swap1\n  tag_23\n  jump\t// in\ntag_22:\n  mload(0x40)\n  0x20\n  dup2\n  dup4\n  sub\n  sub\n  dup2\n  mstore\n  swap1\n  0x40\n  mstore\n    /* \"lib/EIP712.sol\":3623:3707  keccak256(abi.encode(typeHash, nameHash, versionHash, block.chainid, address(this))) */\n  dup1\n  mload\n  swap1\n  0x20\n  add\n  keccak256\n    /* \"lib/EIP712.sol\":3616:3707  return keccak256(abi.encode(typeHash, nameHash, versionHash, block.chainid, address(this))) */\n  swap1\n  pop\n    /* \"lib/EIP712.sol\":3457:3714  function _buildDomainSeparator(... */\n  swap4\n  swap3\n  pop\n  pop\n  pop\n  jump\t// out\n    /* \"SCTERC20.sol\":316:1236  contract SCTERC20Token is ERC20Permit, ISCT, SolidDaoManaged {... */\ntag_2:\n  dup3\n  dup1\n  sload\n  tag_24\n  swap1\n  tag_25\n  jump\t// in\ntag_24:\n  swap1\n  0x00\n  mstore\n  keccak256(0x00, 0x20)\n  swap1\n  0x1f\n  add\n  0x20\n  swap1\n  div\n  dup2\n  add\n  swap3\n  dup3\n  tag_27\n  jumpi\n  0x00\n  dup6\n  sstore\n  jump(tag_26)\ntag_27:\n  dup3\n  0x1f\n  lt\n  tag_28\n  jumpi\n  dup1\n  mload\n  not(0xff)\n  and\n  dup4\n  dup1\n  add\n  or\n  dup6\n  sstore\n  jump(tag_26)\ntag_28:\n  dup3\n  dup1\n  add\n  0x01\n  add\n  dup6\n  sstore\n  dup3\n  iszero\n  tag_26\n  jumpi\n  swap2\n  dup3\n  add\ntag_29:\n  dup3\n  dup2\n  gt\n  iszero\n  tag_30\n  jumpi\n  dup3\n  mload\n  dup3\n  sstore\n  swap2\n  0x20\n  add\n  swap2\n  swap1\n  0x01\n  add\n  swap1\n  jump(tag_29)\ntag_30:\ntag_26:\n  pop\n  swap1\n  pop\n  tag_31\n  swap2\n  swap1\n  tag_32\n  jump\t// in\ntag_31:\n  pop\n  swap1\n  jump\t// out\ntag_32:\ntag_33:\n  dup1\n  dup3\n  gt\n  iszero\n  tag_34\n  jumpi\n  0x00\n  dup2\n  0x00\n  swap1\n  sstore\n  pop\n  0x01\n  add\n  jump(tag_33)\ntag_34:\n  pop\n  swap1\n  jump\t// out\n    /* \"#utility.yul\":88:205   */\ntag_36:\n    /* \"#utility.yul\":197:198   */\n  0x00\n    /* \"#utility.yul\":194:195   */\n  dup1\n    /* \"#utility.yul\":187:199   */\n  revert\n    /* \"#utility.yul\":334:460   */\ntag_38:\n    /* \"#utility.yul\":371:378   */\n  0x00\n    /* \"#utility.yul\":411:453   */\n  0xffffffffffffffffffffffffffffffffffffffff\n    /* \"#utility.yul\":404:409   */\n  dup3\n    /* \"#utility.yul\":400:454   */\n  and\n    /* \"#utility.yul\":389:454   */\n  swap1\n  pop\n    /* \"#utility.yul\":334:460   */\n  swap2\n  swap1\n  pop\n  jump\t// out\n    /* \"#utility.yul\":466:562   */\ntag_39:\n    /* \"#utility.yul\":503:510   */\n  0x00\n    /* \"#utility.yul\":532:556   */\n  tag_54\n    /* \"#utility.yul\":550:555   */\n  dup3\n    /* \"#utility.yul\":532:556   */\n  tag_38\n  jump\t// in\ntag_54:\n    /* \"#utility.yul\":521:556   */\n  swap1\n  pop\n    /* \"#utility.yul\":466:562   */\n  swap2\n  swap1\n  pop\n  jump\t// out\n    /* \"#utility.yul\":568:690   */\ntag_40:\n    /* \"#utility.yul\":641:665   */\n  tag_56\n    /* \"#utility.yul\":659:664   */\n  dup2\n    /* \"#utility.yul\":641:665   */\n  tag_39\n  jump\t// in\ntag_56:\n    /* \"#utility.yul\":634:639   */\n  dup2\n    /* \"#utility.yul\":631:666   */\n  eq\n    /* \"#utility.yul\":621:684   */\n  tag_57\n  jumpi\n    /* \"#utility.yul\":680:681   */\n  0x00\n    /* \"#utility.yul\":677:678   */\n  dup1\n    /* \"#utility.yul\":670:682   */\n  revert\n    /* \"#utility.yul\":621:684   */\ntag_57:\n    /* \"#utility.yul\":568:690   */\n  pop\n  jump\t// out\n    /* \"#utility.yul\":696:839   */\ntag_41:\n    /* \"#utility.yul\":753:758   */\n  0x00\n    /* \"#utility.yul\":784:790   */\n  dup2\n    /* \"#utility.yul\":778:791   */\n  mload\n    /* \"#utility.yul\":769:791   */\n  swap1\n  pop\n    /* \"#utility.yul\":800:833   */\n  tag_59\n    /* \"#utility.yul\":827:832   */\n  dup2\n    /* \"#utility.yul\":800:833   */\n  tag_40\n  jump\t// in\ntag_59:\n    /* \"#utility.yul\":696:839   */\n  swap3\n  swap2\n  pop\n  pop\n  jump\t// out\n    /* \"#utility.yul\":845:1196   */\ntag_5:\n    /* \"#utility.yul\":915:921   */\n  0x00\n    /* \"#utility.yul\":964:966   */\n  0x20\n    /* \"#utility.yul\":952:961   */\n  dup3\n    /* \"#utility.yul\":943:950   */\n  dup5\n    /* \"#utility.yul\":939:962   */\n  sub\n    /* \"#utility.yul\":935:967   */\n  slt\n    /* \"#utility.yul\":932:1051   */\n  iszero\n  tag_61\n  jumpi\n    /* \"#utility.yul\":970:1049   */\n  tag_62\n  tag_36\n  jump\t// in\ntag_62:\n    /* \"#utility.yul\":932:1051   */\ntag_61:\n    /* \"#utility.yul\":1090:1091   */\n  0x00\n    /* \"#utility.yul\":1115:1179   */\n  tag_63\n    /* \"#utility.yul\":1171:1178   */\n  dup5\n    /* \"#utility.yul\":1162:1168   */\n  dup3\n    /* \"#utility.yul\":1151:1160   */\n  dup6\n    /* \"#utility.yul\":1147:1169   */\n  add\n    /* \"#utility.yul\":1115:1179   */\n  tag_41\n  jump\t// in\ntag_63:\n    /* \"#utility.yul\":1105:1179   */\n  swap2\n  pop\n    /* \"#utility.yul\":1061:1189   */\n  pop\n    /* \"#utility.yul\":845:1196   */\n  swap3\n  swap2\n  pop\n  pop\n  jump\t// out\n    /* \"#utility.yul\":1202:1279   */\ntag_42:\n    /* \"#utility.yul\":1239:1246   */\n  0x00\n    /* \"#utility.yul\":1268:1273   */\n  dup2\n    /* \"#utility.yul\":1257:1273   */\n  swap1\n  pop\n    /* \"#utility.yul\":1202:1279   */\n  swap2\n  swap1\n  pop\n  jump\t// out\n    /* \"#utility.yul\":1285:1403   */\ntag_43:\n    /* \"#utility.yul\":1372:1396   */\n  tag_66\n    /* \"#utility.yul\":1390:1395   */\n  dup2\n    /* \"#utility.yul\":1372:1396   */\n  tag_42\n  jump\t// in\ntag_66:\n    /* \"#utility.yul\":1367:1370   */\n  dup3\n    /* \"#utility.yul\":1360:1397   */\n  mstore\n    /* \"#utility.yul\":1285:1403   */\n  pop\n  pop\n  jump\t// out\n    /* \"#utility.yul\":1409:1486   */\ntag_44:\n    /* \"#utility.yul\":1446:1453   */\n  0x00\n    /* \"#utility.yul\":1475:1480   */\n  dup2\n    /* \"#utility.yul\":1464:1480   */\n  swap1\n  pop\n    /* \"#utility.yul\":1409:1486   */\n  swap2\n  swap1\n  pop\n  jump\t// out\n    /* \"#utility.yul\":1492:1610   */\ntag_45:\n    /* \"#utility.yul\":1579:1603   */\n  tag_69\n    /* \"#utility.yul\":1597:1602   */\n  dup2\n    /* \"#utility.yul\":1579:1603   */\n  tag_44\n  jump\t// in\ntag_69:\n    /* \"#utility.yul\":1574:1577   */\n  dup3\n    /* \"#utility.yul\":1567:1604   */\n  mstore\n    /* \"#utility.yul\":1492:1610   */\n  pop\n  pop\n  jump\t// out\n    /* \"#utility.yul\":1616:1734   */\ntag_46:\n    /* \"#utility.yul\":1703:1727   */\n  tag_71\n    /* \"#utility.yul\":1721:1726   */\n  dup2\n    /* \"#utility.yul\":1703:1727   */\n  tag_39\n  jump\t// in\ntag_71:\n    /* \"#utility.yul\":1698:1701   */\n  dup3\n    /* \"#utility.yul\":1691:1728   */\n  mstore\n    /* \"#utility.yul\":1616:1734   */\n  pop\n  pop\n  jump\t// out\n    /* \"#utility.yul\":1740:2404   */\ntag_23:\n    /* \"#utility.yul\":1945:1949   */\n  0x00\n    /* \"#utility.yul\":1983:1986   */\n  0xa0\n    /* \"#utility.yul\":1972:1981   */\n  dup3\n    /* \"#utility.yul\":1968:1987   */\n  add\n    /* \"#utility.yul\":1960:1987   */\n  swap1\n  pop\n    /* \"#utility.yul\":1997:2068   */\n  tag_73\n    /* \"#utility.yul\":2065:2066   */\n  0x00\n    /* \"#utility.yul\":2054:2063   */\n  dup4\n    /* \"#utility.yul\":2050:2067   */\n  add\n    /* \"#utility.yul\":2041:2047   */\n  dup9\n    /* \"#utility.yul\":1997:2068   */\n  tag_43\n  jump\t// in\ntag_73:\n    /* \"#utility.yul\":2078:2150   */\n  tag_74\n    /* \"#utility.yul\":2146:2148   */\n  0x20\n    /* \"#utility.yul\":2135:2144   */\n  dup4\n    /* \"#utility.yul\":2131:2149   */\n  add\n    /* \"#utility.yul\":2122:2128   */\n  dup8\n    /* \"#utility.yul\":2078:2150   */\n  tag_43\n  jump\t// in\ntag_74:\n    /* \"#utility.yul\":2160:2232   */\n  tag_75\n    /* \"#utility.yul\":2228:2230   */\n  0x40\n    /* \"#utility.yul\":2217:2226   */\n  dup4\n    /* \"#utility.yul\":2213:2231   */\n  add\n    /* \"#utility.yul\":2204:2210   */\n  dup7\n    /* \"#utility.yul\":2160:2232   */\n  tag_43\n  jump\t// in\ntag_75:\n    /* \"#utility.yul\":2242:2314   */\n  tag_76\n    /* \"#utility.yul\":2310:2312   */\n  0x60\n    /* \"#utility.yul\":2299:2308   */\n  dup4\n    /* \"#utility.yul\":2295:2313   */\n  add\n    /* \"#utility.yul\":2286:2292   */\n  dup6\n    /* \"#utility.yul\":2242:2314   */\n  tag_45\n  jump\t// in\ntag_76:\n    /* \"#utility.yul\":2324:2397   */\n  tag_77\n    /* \"#utility.yul\":2392:2395   */\n  0x80\n    /* \"#utility.yul\":2381:2390   */\n  dup4\n    /* \"#utility.yul\":2377:2396   */\n  add\n    /* \"#utility.yul\":2368:2374   */\n  dup5\n    /* \"#utility.yul\":2324:2397   */\n  tag_46\n  jump\t// in\ntag_77:\n    /* \"#utility.yul\":1740:2404   */\n  swap7\n  swap6\n  pop\n  pop\n  pop\n  pop\n  pop\n  pop\n  jump\t// out\n    /* \"#utility.yul\":2410:2590   */\ntag_47:\n    /* \"#utility.yul\":2458:2535   */\n  0x4e487b7100000000000000000000000000000000000000000000000000000000\n    /* \"#utility.yul\":2455:2456   */\n  0x00\n    /* \"#utility.yul\":2448:2536   */\n  mstore\n    /* \"#utility.yul\":2555:2559   */\n  0x22\n    /* \"#utility.yul\":2552:2553   */\n  0x04\n    /* \"#utility.yul\":2545:2560   */\n  mstore\n    /* \"#utility.yul\":2579:2583   */\n  0x24\n    /* \"#utility.yul\":2576:2577   */\n  0x00\n    /* \"#utility.yul\":2569:2584   */\n  revert\n    /* \"#utility.yul\":2596:2916   */\ntag_25:\n    /* \"#utility.yul\":2640:2646   */\n  0x00\n    /* \"#utility.yul\":2677:2678   */\n  0x02\n    /* \"#utility.yul\":2671:2675   */\n  dup3\n    /* \"#utility.yul\":2667:2679   */\n  div\n    /* \"#utility.yul\":2657:2679   */\n  swap1\n  pop\n    /* \"#utility.yul\":2724:2725   */\n  0x01\n    /* \"#utility.yul\":2718:2722   */\n  dup3\n    /* \"#utility.yul\":2714:2726   */\n  and\n    /* \"#utility.yul\":2745:2763   */\n  dup1\n    /* \"#utility.yul\":2735:2816   */\n  tag_80\n  jumpi\n    /* \"#utility.yul\":2801:2805   */\n  0x7f\n    /* \"#utility.yul\":2793:2799   */\n  dup3\n    /* \"#utility.yul\":2789:2806   */\n  and\n    /* \"#utility.yul\":2779:2806   */\n  swap2\n  pop\n    /* \"#utility.yul\":2735:2816   */\ntag_80:\n    /* \"#utility.yul\":2863:2865   */\n  0x20\n    /* \"#utility.yul\":2855:2861   */\n  dup3\n    /* \"#utility.yul\":2852:2866   */\n  lt\n    /* \"#utility.yul\":2832:2850   */\n  dup2\n    /* \"#utility.yul\":2829:2867   */\n  sub\n    /* \"#utility.yul\":2826:2910   */\n  tag_81\n  jumpi\n    /* \"#utility.yul\":2882:2900   */\n  tag_82\n  tag_47\n  jump\t// in\ntag_82:\n    /* \"#utility.yul\":2826:2910   */\ntag_81:\n    /* \"#utility.yul\":2647:2916   */\n  pop\n    /* \"#utility.yul\":2596:2916   */\n  swap2\n  swap1\n  pop\n  jump\t// out\n    /* \"SCTERC20.sol\":316:1236  contract SCTERC20Token is ERC20Permit, ISCT, SolidDaoManaged {... */\ntag_20:\n  mload(0x80)\n  mload(0xa0)\n  mload(0xc0)\n  mload(0xe0)\n  mload(0x0100)\n  mload(0x0120)\n  mload(0x0140)\n  codecopy(0x00, dataOffset(sub_0), dataSize(sub_0))\n  0x00\n  assignImmutable(\"0x1d2b7ce2c7309c0ae499257b4d570bbc2aa804a132076a507e13da63d22f2ea8\")\n  0x00\n  assignImmutable(\"0xf44e26cb6192c7a70f026ebae4c4bdf0822fd8ec199501187afd94cd2c3c7097\")\n  0x00\n  assignImmutable(\"0xc5e1f1d4bf9d5972febd47f77b791d34fca2c4f78e047aba365c0f66e5d88c39\")\n  0x00\n  assignImmutable(\"0xd3dad2b3fa6464c5d12f6373a47a6014623e3f162de557e09b0006ceac3fe4f9\")\n  0x00\n  assignImmutable(\"0xa9903e230a4a4f2af602b37c0f984d2b43537f89ce9d4cfbf1232e27c498bd38\")\n  0x00\n  assignImmutable(\"0x02f6903e55725b8fb1e67e68fc4dfbf8e90ced5ec278dfd2021debfe4c69d139\")\n  0x00\n  assignImmutable(\"0xbfa4c3ea5a2d294d938e01522babaca2aa640becce055f0bd2b924f41632ea8d\")\n  return(0x00, dataSize(sub_0))\nstop\n\nsub_0: assembly {\n        /* \"SCTERC20.sol\":316:1236  contract SCTERC20Token is ERC20Permit, ISCT, SolidDaoManaged {... */\n      mstore(0x40, 0x80)\n      callvalue\n      dup1\n      iszero\n      tag_1\n      jumpi\n      0x00\n      dup1\n      revert\n    tag_1:\n      pop\n      jumpi(tag_2, lt(calldatasize, 0x04))\n      shr(0xe0, calldataload(0x00))\n      dup1\n      0x70a08231\n      gt\n      tag_22\n      jumpi\n      dup1\n      0xa457c2d7\n      gt\n      tag_23\n      jumpi\n      dup1\n      0xa457c2d7\n      eq\n      tag_17\n      jumpi\n      dup1\n      0xa9059cbb\n      eq\n      tag_18\n      jumpi\n      dup1\n      0xbf7e214f\n      eq\n      tag_19\n      jumpi\n      dup1\n      0xd505accf\n      eq\n      tag_20\n      jumpi\n      dup1\n      0xdd62ed3e\n      eq\n      tag_21\n      jumpi\n      jump(tag_2)\n    tag_23:\n      dup1\n      0x70a08231\n      eq\n      tag_12\n      jumpi\n      dup1\n      0x79cc6790\n      eq\n      tag_13\n      jumpi\n      dup1\n      0x7a9e5e4b\n      eq\n      tag_14\n      jumpi\n      dup1\n      0x7ecebe00\n      eq\n      tag_15\n      jumpi\n      dup1\n      0x95d89b41\n      eq\n      tag_16\n      jumpi\n      jump(tag_2)\n    tag_22:\n      dup1\n      0x313ce567\n      gt\n      tag_24\n      jumpi\n      dup1\n      0x313ce567\n      eq\n      tag_7\n      jumpi\n      dup1\n      0x3644e515\n      eq\n      tag_8\n      jumpi\n      dup1\n      0x39509351\n      eq\n      tag_9\n      jumpi\n      dup1\n      0x40c10f19\n      eq\n      tag_10\n      jumpi\n      dup1\n      0x42966c68\n      eq\n      tag_11\n      jumpi\n      jump(tag_2)\n    tag_24:\n      dup1\n      0x06fdde03\n      eq\n      tag_3\n      jumpi\n      dup1\n      0x095ea7b3\n      eq\n      tag_4\n      jumpi\n      dup1\n      0x18160ddd\n      eq\n      tag_5\n      jumpi\n      dup1\n      0x23b872dd\n      eq\n      tag_6\n      jumpi\n    tag_2:\n      0x00\n      dup1\n      revert\n        /* \"tokens/ERC20.sol\":2030:2128  function name() public view virtual override returns (string memory) {... */\n    tag_3:\n      tag_25\n      tag_26\n      jump\t// in\n    tag_25:\n      mload(0x40)\n      tag_27\n      swap2\n      swap1\n      tag_28\n      jump\t// in\n    tag_27:\n      mload(0x40)\n      dup1\n      swap2\n      sub\n      swap1\n      return\n        /* \"tokens/ERC20.sol\":4314:4511  function approve(address spender, uint256 amount) public virtual override returns (bool) {... */\n    tag_4:\n      tag_29\n      0x04\n      dup1\n      calldatasize\n      sub\n      dup2\n      add\n      swap1\n      tag_30\n      swap2\n      swap1\n      tag_31\n      jump\t// in\n    tag_30:\n      tag_32\n      jump\t// in\n    tag_29:\n      mload(0x40)\n      tag_33\n      swap2\n      swap1\n      tag_34\n      jump\t// in\n    tag_33:\n      mload(0x40)\n      dup1\n      swap2\n      sub\n      swap1\n      return\n        /* \"tokens/ERC20.sol\":3125:3231  function totalSupply() public view virtual override returns (uint256) {... */\n    tag_5:\n      tag_35\n      tag_36\n      jump\t// in\n    tag_35:\n      mload(0x40)\n      tag_37\n      swap2\n      swap1\n      tag_38\n      jump\t// in\n    tag_37:\n      mload(0x40)\n      dup1\n      swap2\n      sub\n      swap1\n      return\n        /* \"tokens/ERC20.sol\":5073:5359  function transferFrom(... */\n    tag_6:\n      tag_39\n      0x04\n      dup1\n      calldatasize\n      sub\n      dup2\n      add\n      swap1\n      tag_40\n      swap2\n      swap1\n      tag_41\n      jump\t// in\n    tag_40:\n      tag_42\n      jump\t// in\n    tag_39:\n      mload(0x40)\n      tag_43\n      swap2\n      swap1\n      tag_34\n      jump\t// in\n    tag_43:\n      mload(0x40)\n      dup1\n      swap2\n      sub\n      swap1\n      return\n        /* \"tokens/ERC20.sol\":2967:3065  function decimals() public view virtual override returns (uint8) {... */\n    tag_7:\n      tag_44\n      tag_45\n      jump\t// in\n    tag_44:\n      mload(0x40)\n      tag_46\n      swap2\n      swap1\n      tag_47\n      jump\t// in\n    tag_46:\n      mload(0x40)\n      dup1\n      swap2\n      sub\n      swap1\n      return\n        /* \"lib/ERC20Permit.sol\":2812:2925  function DOMAIN_SEPARATOR() external view override returns (bytes32) {... */\n    tag_8:\n      tag_48\n      tag_49\n      jump\t// in\n    tag_48:\n      mload(0x40)\n      tag_50\n      swap2\n      swap1\n      tag_51\n      jump\t// in\n    tag_50:\n      mload(0x40)\n      dup1\n      swap2\n      sub\n      swap1\n      return\n        /* \"tokens/ERC20.sol\":5754:5988  function increaseAllowance(address spender, uint256 addedValue) public virtual returns (bool) {... */\n    tag_9:\n      tag_52\n      0x04\n      dup1\n      calldatasize\n      sub\n      dup2\n      add\n      swap1\n      tag_53\n      swap2\n      swap1\n      tag_31\n      jump\t// in\n    tag_53:\n      tag_54\n      jump\t// in\n    tag_52:\n      mload(0x40)\n      tag_55\n      swap2\n      swap1\n      tag_34\n      jump\t// in\n    tag_55:\n      mload(0x40)\n      dup1\n      swap2\n      sub\n      swap1\n      return\n        /* \"SCTERC20.sol\":539:657  function mint(address account_, uint256 amount_) external override onlyVault {... */\n    tag_10:\n      tag_56\n      0x04\n      dup1\n      calldatasize\n      sub\n      dup2\n      add\n      swap1\n      tag_57\n      swap2\n      swap1\n      tag_31\n      jump\t// in\n    tag_57:\n      tag_58\n      jump\t// in\n    tag_56:\n      stop\n        /* \"SCTERC20.sol\":663:753  function burn(uint256 amount) external override {... */\n    tag_11:\n      tag_59\n      0x04\n      dup1\n      calldatasize\n      sub\n      dup2\n      add\n      swap1\n      tag_60\n      swap2\n      swap1\n      tag_61\n      jump\t// in\n    tag_60:\n      tag_62\n      jump\t// in\n    tag_59:\n      stop\n        /* \"tokens/ERC20.sol\":3289:3414  function balanceOf(address account) public view virtual override returns (uint256) {... */\n    tag_12:\n      tag_63\n      0x04\n      dup1\n      calldatasize\n      sub\n      dup2\n      add\n      swap1\n      tag_64\n      swap2\n      swap1\n      tag_65\n      jump\t// in\n    tag_64:\n      tag_66\n      jump\t// in\n    tag_63:\n      mload(0x40)\n      tag_67\n      swap2\n      swap1\n      tag_38\n      jump\t// in\n    tag_67:\n      mload(0x40)\n      dup1\n      swap2\n      sub\n      swap1\n      return\n        /* \"SCTERC20.sol\":759:875  function burnFrom(address account_, uint256 amount_) external override {... */\n    tag_13:\n      tag_68\n      0x04\n      dup1\n      calldatasize\n      sub\n      dup2\n      add\n      swap1\n      tag_69\n      swap2\n      swap1\n      tag_31\n      jump\t// in\n    tag_69:\n      tag_70\n      jump\t// in\n    tag_68:\n      stop\n        /* \"lib/SolidDaoManaged.sol\":2055:2222  function setAuthority(ISolidDaoManagement _newAuthority) external onlyGovernor {... */\n    tag_14:\n      tag_71\n      0x04\n      dup1\n      calldatasize\n      sub\n      dup2\n      add\n      swap1\n      tag_72\n      swap2\n      swap1\n      tag_73\n      jump\t// in\n    tag_72:\n      tag_74\n      jump\t// in\n    tag_71:\n      stop\n        /* \"lib/ERC20Permit.sol\":2562:2688  function nonces(address owner) public view virtual override returns (uint256) {... */\n    tag_15:\n      tag_75\n      0x04\n      dup1\n      calldatasize\n      sub\n      dup2\n      add\n      swap1\n      tag_76\n      swap2\n      swap1\n      tag_65\n      jump\t// in\n    tag_76:\n      tag_77\n      jump\t// in\n    tag_75:\n      mload(0x40)\n      tag_78\n      swap2\n      swap1\n      tag_38\n      jump\t// in\n    tag_78:\n      mload(0x40)\n      dup1\n      swap2\n      sub\n      swap1\n      return\n        /* \"tokens/ERC20.sol\":2241:2343  function symbol() public view virtual override returns (string memory) {... */\n    tag_16:\n      tag_79\n      tag_80\n      jump\t// in\n    tag_79:\n      mload(0x40)\n      tag_81\n      swap2\n      swap1\n      tag_28\n      jump\t// in\n    tag_81:\n      mload(0x40)\n      dup1\n      swap2\n      sub\n      swap1\n      return\n        /* \"tokens/ERC20.sol\":6475:6902  function decreaseAllowance(address spender, uint256 subtractedValue) public virtual returns (bool) {... */\n    tag_17:\n      tag_82\n      0x04\n      dup1\n      calldatasize\n      sub\n      dup2\n      add\n      swap1\n      tag_83\n      swap2\n      swap1\n      tag_31\n      jump\t// in\n    tag_83:\n      tag_84\n      jump\t// in\n    tag_82:\n      mload(0x40)\n      tag_85\n      swap2\n      swap1\n      tag_34\n      jump\t// in\n    tag_85:\n      mload(0x40)\n      dup1\n      swap2\n      sub\n      swap1\n      return\n        /* \"tokens/ERC20.sol\":3610:3799  function transfer(address to, uint256 amount) public virtual override returns (bool) {... */\n    tag_18:\n      tag_86\n      0x04\n      dup1\n      calldatasize\n      sub\n      dup2\n      add\n      swap1\n      tag_87\n      swap2\n      swap1\n      tag_31\n      jump\t// in\n    tag_87:\n      tag_88\n      jump\t// in\n    tag_86:\n      mload(0x40)\n      tag_89\n      swap2\n      swap1\n      tag_34\n      jump\t// in\n    tag_89:\n      mload(0x40)\n      dup1\n      swap2\n      sub\n      swap1\n      return\n        /* \"lib/SolidDaoManaged.sol\":537:573  ISolidDaoManagement public authority */\n    tag_19:\n      tag_90\n      tag_91\n      jump\t// in\n    tag_90:\n      mload(0x40)\n      tag_92\n      swap2\n      swap1\n      tag_93\n      jump\t// in\n    tag_92:\n      mload(0x40)\n      dup1\n      swap2\n      sub\n      swap1\n      return\n        /* \"lib/ERC20Permit.sol\":1875:2501  function permit(... */\n    tag_20:\n      tag_94\n      0x04\n      dup1\n      calldatasize\n      sub\n      dup2\n      add\n      swap1\n      tag_95\n      swap2\n      swap1\n      tag_96\n      jump\t// in\n    tag_95:\n      tag_97\n      jump\t// in\n    tag_94:\n      stop\n        /* \"tokens/ERC20.sol\":3857:4006  function allowance(address owner, address spender) public view virtual override returns (uint256) {... */\n    tag_21:\n      tag_98\n      0x04\n      dup1\n      calldatasize\n      sub\n      dup2\n      add\n      swap1\n      tag_99\n      swap2\n      swap1\n      tag_100\n      jump\t// in\n    tag_99:\n      tag_101\n      jump\t// in\n    tag_98:\n      mload(0x40)\n      tag_102\n      swap2\n      swap1\n      tag_38\n      jump\t// in\n    tag_102:\n      mload(0x40)\n      dup1\n      swap2\n      sub\n      swap1\n      return\n        /* \"tokens/ERC20.sol\":2030:2128  function name() public view virtual override returns (string memory) {... */\n    tag_26:\n        /* \"tokens/ERC20.sol\":2084:2097  string memory */\n      0x60\n        /* \"tokens/ERC20.sol\":2116:2121  _name */\n      0x03\n        /* \"tokens/ERC20.sol\":2109:2121  return _name */\n      dup1\n      sload\n      tag_104\n      swap1\n      tag_105\n      jump\t// in\n    tag_104:\n      dup1\n      0x1f\n      add\n      0x20\n      dup1\n      swap2\n      div\n      mul\n      0x20\n      add\n      mload(0x40)\n      swap1\n      dup2\n      add\n      0x40\n      mstore\n      dup1\n      swap3\n      swap2\n      swap1\n      dup2\n      dup2\n      mstore\n      0x20\n      add\n      dup3\n      dup1\n      sload\n      tag_106\n      swap1\n      tag_105\n      jump\t// in\n    tag_106:\n      dup1\n      iszero\n      tag_107\n      jumpi\n      dup1\n      0x1f\n      lt\n      tag_108\n      jumpi\n      0x0100\n      dup1\n      dup4\n      sload\n      div\n      mul\n      dup4\n      mstore\n      swap2\n      0x20\n      add\n      swap2\n      jump(tag_107)\n    tag_108:\n      dup3\n      add\n      swap2\n      swap1\n      0x00\n      mstore\n      keccak256(0x00, 0x20)\n      swap1\n    tag_109:\n      dup2\n      sload\n      dup2\n      mstore\n      swap1\n      0x01\n      add\n      swap1\n      0x20\n      add\n      dup1\n      dup4\n      gt\n      tag_109\n      jumpi\n      dup3\n      swap1\n      sub\n      0x1f\n      and\n      dup3\n      add\n      swap2\n    tag_107:\n      pop\n      pop\n      pop\n      pop\n      pop\n      swap1\n      pop\n        /* \"tokens/ERC20.sol\":2030:2128  function name() public view virtual override returns (string memory) {... */\n      swap1\n      jump\t// out\n        /* \"tokens/ERC20.sol\":4314:4511  function approve(address spender, uint256 amount) public virtual override returns (bool) {... */\n    tag_32:\n        /* \"tokens/ERC20.sol\":4397:4401  bool */\n      0x00\n        /* \"tokens/ERC20.sol\":4413:4426  address owner */\n      dup1\n        /* \"tokens/ERC20.sol\":4429:4441  _msgSender() */\n      tag_111\n        /* \"tokens/ERC20.sol\":4429:4439  _msgSender */\n      tag_112\n        /* \"tokens/ERC20.sol\":4429:4441  _msgSender() */\n      jump\t// in\n    tag_111:\n        /* \"tokens/ERC20.sol\":4413:4441  address owner = _msgSender() */\n      swap1\n      pop\n        /* \"tokens/ERC20.sol\":4451:4483  _approve(owner, spender, amount) */\n      tag_113\n        /* \"tokens/ERC20.sol\":4460:4465  owner */\n      dup2\n        /* \"tokens/ERC20.sol\":4467:4474  spender */\n      dup6\n        /* \"tokens/ERC20.sol\":4476:4482  amount */\n      dup6\n        /* \"tokens/ERC20.sol\":4451:4459  _approve */\n      tag_114\n        /* \"tokens/ERC20.sol\":4451:4483  _approve(owner, spender, amount) */\n      jump\t// in\n    tag_113:\n        /* \"tokens/ERC20.sol\":4500:4504  true */\n      0x01\n        /* \"tokens/ERC20.sol\":4493:4504  return true */\n      swap2\n      pop\n      pop\n        /* \"tokens/ERC20.sol\":4314:4511  function approve(address spender, uint256 amount) public virtual override returns (bool) {... */\n      swap3\n      swap2\n      pop\n      pop\n      jump\t// out\n        /* \"tokens/ERC20.sol\":3125:3231  function totalSupply() public view virtual override returns (uint256) {... */\n    tag_36:\n        /* \"tokens/ERC20.sol\":3186:3193  uint256 */\n      0x00\n        /* \"tokens/ERC20.sol\":3212:3224  _totalSupply */\n      sload(0x02)\n        /* \"tokens/ERC20.sol\":3205:3224  return _totalSupply */\n      swap1\n      pop\n        /* \"tokens/ERC20.sol\":3125:3231  function totalSupply() public view virtual override returns (uint256) {... */\n      swap1\n      jump\t// out\n        /* \"tokens/ERC20.sol\":5073:5359  function transferFrom(... */\n    tag_42:\n        /* \"tokens/ERC20.sol\":5200:5204  bool */\n      0x00\n        /* \"tokens/ERC20.sol\":5216:5231  address spender */\n      dup1\n        /* \"tokens/ERC20.sol\":5234:5246  _msgSender() */\n      tag_117\n        /* \"tokens/ERC20.sol\":5234:5244  _msgSender */\n      tag_112\n        /* \"tokens/ERC20.sol\":5234:5246  _msgSender() */\n      jump\t// in\n    tag_117:\n        /* \"tokens/ERC20.sol\":5216:5246  address spender = _msgSender() */\n      swap1\n      pop\n        /* \"tokens/ERC20.sol\":5256:5294  _spendAllowance(from, spender, amount) */\n      tag_118\n        /* \"tokens/ERC20.sol\":5272:5276  from */\n      dup6\n        /* \"tokens/ERC20.sol\":5278:5285  spender */\n      dup3\n        /* \"tokens/ERC20.sol\":5287:5293  amount */\n      dup6\n        /* \"tokens/ERC20.sol\":5256:5271  _spendAllowance */\n      tag_119\n        /* \"tokens/ERC20.sol\":5256:5294  _spendAllowance(from, spender, amount) */\n      jump\t// in\n    tag_118:\n        /* \"tokens/ERC20.sol\":5304:5331  _transfer(from, to, amount) */\n      tag_120\n        /* \"tokens/ERC20.sol\":5314:5318  from */\n      dup6\n        /* \"tokens/ERC20.sol\":5320:5322  to */\n      dup6\n        /* \"tokens/ERC20.sol\":5324:5330  amount */\n      dup6\n        /* \"tokens/ERC20.sol\":5304:5313  _transfer */\n      tag_121\n        /* \"tokens/ERC20.sol\":5304:5331  _transfer(from, to, amount) */\n      jump\t// in\n    tag_120:\n        /* \"tokens/ERC20.sol\":5348:5352  true */\n      0x01\n        /* \"tokens/ERC20.sol\":5341:5352  return true */\n      swap2\n      pop\n      pop\n        /* \"tokens/ERC20.sol\":5073:5359  function transferFrom(... */\n      swap4\n      swap3\n      pop\n      pop\n      pop\n      jump\t// out\n        /* \"tokens/ERC20.sol\":2967:3065  function decimals() public view virtual override returns (uint8) {... */\n    tag_45:\n        /* \"tokens/ERC20.sol\":3025:3030  uint8 */\n      0x00\n        /* \"tokens/ERC20.sol\":3049:3058  _decimals */\n      immutable(\"0xbfa4c3ea5a2d294d938e01522babaca2aa640becce055f0bd2b924f41632ea8d\")\n        /* \"tokens/ERC20.sol\":3042:3058  return _decimals */\n      swap1\n      pop\n        /* \"tokens/ERC20.sol\":2967:3065  function decimals() public view virtual override returns (uint8) {... */\n      swap1\n      jump\t// out\n        /* \"lib/ERC20Permit.sol\":2812:2925  function DOMAIN_SEPARATOR() external view override returns (bytes32) {... */\n    tag_49:\n        /* \"lib/ERC20Permit.sol\":2872:2879  bytes32 */\n      0x00\n        /* \"lib/ERC20Permit.sol\":2898:2918  _domainSeparatorV4() */\n      tag_124\n        /* \"lib/ERC20Permit.sol\":2898:2916  _domainSeparatorV4 */\n      tag_125\n        /* \"lib/ERC20Permit.sol\":2898:2918  _domainSeparatorV4() */\n      jump\t// in\n    tag_124:\n        /* \"lib/ERC20Permit.sol\":2891:2918  return _domainSeparatorV4() */\n      swap1\n      pop\n        /* \"lib/ERC20Permit.sol\":2812:2925  function DOMAIN_SEPARATOR() external view override returns (bytes32) {... */\n      swap1\n      jump\t// out\n        /* \"tokens/ERC20.sol\":5754:5988  function increaseAllowance(address spender, uint256 addedValue) public virtual returns (bool) {... */\n    tag_54:\n        /* \"tokens/ERC20.sol\":5842:5846  bool */\n      0x00\n        /* \"tokens/ERC20.sol\":5858:5871  address owner */\n      dup1\n        /* \"tokens/ERC20.sol\":5874:5886  _msgSender() */\n      tag_127\n        /* \"tokens/ERC20.sol\":5874:5884  _msgSender */\n      tag_112\n        /* \"tokens/ERC20.sol\":5874:5886  _msgSender() */\n      jump\t// in\n    tag_127:\n        /* \"tokens/ERC20.sol\":5858:5886  address owner = _msgSender() */\n      swap1\n      pop\n        /* \"tokens/ERC20.sol\":5896:5960  _approve(owner, spender, allowance(owner, spender) + addedValue) */\n      tag_128\n        /* \"tokens/ERC20.sol\":5905:5910  owner */\n      dup2\n        /* \"tokens/ERC20.sol\":5912:5919  spender */\n      dup6\n        /* \"tokens/ERC20.sol\":5949:5959  addedValue */\n      dup6\n        /* \"tokens/ERC20.sol\":5921:5946  allowance(owner, spender) */\n      tag_129\n        /* \"tokens/ERC20.sol\":5931:5936  owner */\n      dup6\n        /* \"tokens/ERC20.sol\":5938:5945  spender */\n      dup10\n        /* \"tokens/ERC20.sol\":5921:5930  allowance */\n      tag_101\n        /* \"tokens/ERC20.sol\":5921:5946  allowance(owner, spender) */\n      jump\t// in\n    tag_129:\n        /* \"tokens/ERC20.sol\":5921:5959  allowance(owner, spender) + addedValue */\n      tag_130\n      swap2\n      swap1\n      tag_131\n      jump\t// in\n    tag_130:\n        /* \"tokens/ERC20.sol\":5896:5904  _approve */\n      tag_114\n        /* \"tokens/ERC20.sol\":5896:5960  _approve(owner, spender, allowance(owner, spender) + addedValue) */\n      jump\t// in\n    tag_128:\n        /* \"tokens/ERC20.sol\":5977:5981  true */\n      0x01\n        /* \"tokens/ERC20.sol\":5970:5981  return true */\n      swap2\n      pop\n      pop\n        /* \"tokens/ERC20.sol\":5754:5988  function increaseAllowance(address spender, uint256 addedValue) public virtual returns (bool) {... */\n      swap3\n      swap2\n      pop\n      pop\n      jump\t// out\n        /* \"SCTERC20.sol\":539:657  function mint(address account_, uint256 amount_) external override onlyVault {... */\n    tag_58:\n        /* \"lib/SolidDaoManaged.sol\":1777:1786  authority */\n      0x08\n      0x00\n      swap1\n      sload\n      swap1\n      0x0100\n      exp\n      swap1\n      div\n      0xffffffffffffffffffffffffffffffffffffffff\n      and\n        /* \"lib/SolidDaoManaged.sol\":1777:1792  authority.vault */\n      0xffffffffffffffffffffffffffffffffffffffff\n      and\n      0xfbfa77cf\n        /* \"lib/SolidDaoManaged.sol\":1777:1794  authority.vault() */\n      mload(0x40)\n      dup2\n      0xffffffff\n      and\n      0xe0\n      shl\n      dup2\n      mstore\n      0x04\n      add\n      0x20\n      mload(0x40)\n      dup1\n      dup4\n      sub\n      dup2\n      dup7\n      gas\n      staticcall\n      iszero\n      dup1\n      iszero\n      tag_134\n      jumpi\n      returndatasize\n      0x00\n      dup1\n      returndatacopy\n      revert(0x00, returndatasize)\n    tag_134:\n      pop\n      pop\n      pop\n      pop\n      mload(0x40)\n      returndatasize\n      not(0x1f)\n      0x1f\n      dup3\n      add\n      and\n      dup3\n      add\n      dup1\n      0x40\n      mstore\n      pop\n      dup2\n      add\n      swap1\n      tag_135\n      swap2\n      swap1\n      tag_136\n      jump\t// in\n    tag_135:\n        /* \"lib/SolidDaoManaged.sol\":1763:1794  msg.sender == authority.vault() */\n      0xffffffffffffffffffffffffffffffffffffffff\n      and\n        /* \"lib/SolidDaoManaged.sol\":1763:1773  msg.sender */\n      caller\n        /* \"lib/SolidDaoManaged.sol\":1763:1794  msg.sender == authority.vault() */\n      0xffffffffffffffffffffffffffffffffffffffff\n      and\n      eq\n        /* \"lib/SolidDaoManaged.sol\":1796:1808  UNAUTHORIZED */\n      0x07\n        /* \"lib/SolidDaoManaged.sol\":1755:1809  require(msg.sender == authority.vault(), UNAUTHORIZED) */\n      swap1\n      tag_137\n      jumpi\n      mload(0x40)\n      0x08c379a000000000000000000000000000000000000000000000000000000000\n      dup2\n      mstore\n      0x04\n      add\n      tag_138\n      swap2\n      swap1\n      tag_139\n      jump\t// in\n    tag_138:\n      mload(0x40)\n      dup1\n      swap2\n      sub\n      swap1\n      revert\n    tag_137:\n      pop\n        /* \"SCTERC20.sol\":626:650  _mint(account_, amount_) */\n      tag_141\n        /* \"SCTERC20.sol\":632:640  account_ */\n      dup3\n        /* \"SCTERC20.sol\":642:649  amount_ */\n      dup3\n        /* \"SCTERC20.sol\":626:631  _mint */\n      tag_142\n        /* \"SCTERC20.sol\":626:650  _mint(account_, amount_) */\n      jump\t// in\n    tag_141:\n        /* \"SCTERC20.sol\":539:657  function mint(address account_, uint256 amount_) external override onlyVault {... */\n      pop\n      pop\n      jump\t// out\n        /* \"SCTERC20.sol\":663:753  function burn(uint256 amount) external override {... */\n    tag_62:\n        /* \"SCTERC20.sol\":721:746  _burn(msg.sender, amount) */\n      tag_144\n        /* \"SCTERC20.sol\":727:737  msg.sender */\n      caller\n        /* \"SCTERC20.sol\":739:745  amount */\n      dup3\n        /* \"SCTERC20.sol\":721:726  _burn */\n      tag_145\n        /* \"SCTERC20.sol\":721:746  _burn(msg.sender, amount) */\n      jump\t// in\n    tag_144:\n        /* \"SCTERC20.sol\":663:753  function burn(uint256 amount) external override {... */\n      pop\n      jump\t// out\n        /* \"tokens/ERC20.sol\":3289:3414  function balanceOf(address account) public view virtual override returns (uint256) {... */\n    tag_66:\n        /* \"tokens/ERC20.sol\":3363:3370  uint256 */\n      0x00\n        /* \"tokens/ERC20.sol\":3389:3398  _balances */\n      dup1\n        /* \"tokens/ERC20.sol\":3389:3407  _balances[account] */\n      0x00\n        /* \"tokens/ERC20.sol\":3399:3406  account */\n      dup4\n        /* \"tokens/ERC20.sol\":3389:3407  _balances[account] */\n      0xffffffffffffffffffffffffffffffffffffffff\n      and\n      0xffffffffffffffffffffffffffffffffffffffff\n      and\n      dup2\n      mstore\n      0x20\n      add\n      swap1\n      dup2\n      mstore\n      0x20\n      add\n      0x00\n      keccak256\n      sload\n        /* \"tokens/ERC20.sol\":3382:3407  return _balances[account] */\n      swap1\n      pop\n        /* \"tokens/ERC20.sol\":3289:3414  function balanceOf(address account) public view virtual override returns (uint256) {... */\n      swap2\n      swap1\n      pop\n      jump\t// out\n        /* \"SCTERC20.sol\":759:875  function burnFrom(address account_, uint256 amount_) external override {... */\n    tag_70:\n        /* \"SCTERC20.sol\":840:868  _burnFrom(account_, amount_) */\n      tag_148\n        /* \"SCTERC20.sol\":850:858  account_ */\n      dup3\n        /* \"SCTERC20.sol\":860:867  amount_ */\n      dup3\n        /* \"SCTERC20.sol\":840:849  _burnFrom */\n      tag_149\n        /* \"SCTERC20.sol\":840:868  _burnFrom(account_, amount_) */\n      jump\t// in\n    tag_148:\n        /* \"SCTERC20.sol\":759:875  function burnFrom(address account_, uint256 amount_) external override {... */\n      pop\n      pop\n      jump\t// out\n        /* \"lib/SolidDaoManaged.sol\":2055:2222  function setAuthority(ISolidDaoManagement _newAuthority) external onlyGovernor {... */\n    tag_74:\n        /* \"lib/SolidDaoManaged.sol\":938:947  authority */\n      0x08\n      0x00\n      swap1\n      sload\n      swap1\n      0x0100\n      exp\n      swap1\n      div\n      0xffffffffffffffffffffffffffffffffffffffff\n      and\n        /* \"lib/SolidDaoManaged.sol\":938:956  authority.governor */\n      0xffffffffffffffffffffffffffffffffffffffff\n      and\n      0x0c340a24\n        /* \"lib/SolidDaoManaged.sol\":938:958  authority.governor() */\n      mload(0x40)\n      dup2\n      0xffffffff\n      and\n      0xe0\n      shl\n      dup2\n      mstore\n      0x04\n      add\n      0x20\n      mload(0x40)\n      dup1\n      dup4\n      sub\n      dup2\n      dup7\n      gas\n      staticcall\n      iszero\n      dup1\n      iszero\n      tag_152\n      jumpi\n      returndatasize\n      0x00\n      dup1\n      returndatacopy\n      revert(0x00, returndatasize)\n    tag_152:\n      pop\n      pop\n      pop\n      pop\n      mload(0x40)\n      returndatasize\n      not(0x1f)\n      0x1f\n      dup3\n      add\n      and\n      dup3\n      add\n      dup1\n      0x40\n      mstore\n      pop\n      dup2\n      add\n      swap1\n      tag_153\n      swap2\n      swap1\n      tag_136\n      jump\t// in\n    tag_153:\n        /* \"lib/SolidDaoManaged.sol\":924:958  msg.sender == authority.governor() */\n      0xffffffffffffffffffffffffffffffffffffffff\n      and\n        /* \"lib/SolidDaoManaged.sol\":924:934  msg.sender */\n      caller\n        /* \"lib/SolidDaoManaged.sol\":924:958  msg.sender == authority.governor() */\n      0xffffffffffffffffffffffffffffffffffffffff\n      and\n      eq\n        /* \"lib/SolidDaoManaged.sol\":960:972  UNAUTHORIZED */\n      0x07\n        /* \"lib/SolidDaoManaged.sol\":916:973  require(msg.sender == authority.governor(), UNAUTHORIZED) */\n      swap1\n      tag_154\n      jumpi\n      mload(0x40)\n      0x08c379a000000000000000000000000000000000000000000000000000000000\n      dup2\n      mstore\n      0x04\n      add\n      tag_155\n      swap2\n      swap1\n      tag_139\n      jump\t// in\n    tag_155:\n      mload(0x40)\n      dup1\n      swap2\n      sub\n      swap1\n      revert\n    tag_154:\n      pop\n        /* \"lib/SolidDaoManaged.sol\":2156:2169  _newAuthority */\n      dup1\n        /* \"lib/SolidDaoManaged.sol\":2144:2153  authority */\n      0x08\n      0x00\n        /* \"lib/SolidDaoManaged.sol\":2144:2169  authority = _newAuthority */\n      0x0100\n      exp\n      dup2\n      sload\n      dup2\n      0xffffffffffffffffffffffffffffffffffffffff\n      mul\n      not\n      and\n      swap1\n      dup4\n      0xffffffffffffffffffffffffffffffffffffffff\n      and\n      mul\n      or\n      swap1\n      sstore\n      pop\n        /* \"lib/SolidDaoManaged.sol\":2201:2214  _newAuthority */\n      dup1\n        /* \"lib/SolidDaoManaged.sol\":2184:2215  AuthorityUpdated(_newAuthority) */\n      0xffffffffffffffffffffffffffffffffffffffff\n      and\n      0x2f658b440c35314f52658ea8a740e05b284cdc84dc9ae01e891f21b8933e7cad\n      mload(0x40)\n      mload(0x40)\n      dup1\n      swap2\n      sub\n      swap1\n      log2\n        /* \"lib/SolidDaoManaged.sol\":2055:2222  function setAuthority(ISolidDaoManagement _newAuthority) external onlyGovernor {... */\n      pop\n      jump\t// out\n        /* \"lib/ERC20Permit.sol\":2562:2688  function nonces(address owner) public view virtual override returns (uint256) {... */\n    tag_77:\n        /* \"lib/ERC20Permit.sol\":2631:2638  uint256 */\n      0x00\n        /* \"lib/ERC20Permit.sol\":2657:2681  _nonces[owner].current() */\n      tag_158\n        /* \"lib/ERC20Permit.sol\":2657:2664  _nonces */\n      0x05\n        /* \"lib/ERC20Permit.sol\":2657:2671  _nonces[owner] */\n      0x00\n        /* \"lib/ERC20Permit.sol\":2665:2670  owner */\n      dup5\n        /* \"lib/ERC20Permit.sol\":2657:2671  _nonces[owner] */\n      0xffffffffffffffffffffffffffffffffffffffff\n      and\n      0xffffffffffffffffffffffffffffffffffffffff\n      and\n      dup2\n      mstore\n      0x20\n      add\n      swap1\n      dup2\n      mstore\n      0x20\n      add\n      0x00\n      keccak256\n        /* \"lib/ERC20Permit.sol\":2657:2679  _nonces[owner].current */\n      tag_159\n        /* \"lib/ERC20Permit.sol\":2657:2681  _nonces[owner].current() */\n      jump\t// in\n    tag_158:\n        /* \"lib/ERC20Permit.sol\":2650:2681  return _nonces[owner].current() */\n      swap1\n      pop\n        /* \"lib/ERC20Permit.sol\":2562:2688  function nonces(address owner) public view virtual override returns (uint256) {... */\n      swap2\n      swap1\n      pop\n      jump\t// out\n        /* \"tokens/ERC20.sol\":2241:2343  function symbol() public view virtual override returns (string memory) {... */\n    tag_80:\n        /* \"tokens/ERC20.sol\":2297:2310  string memory */\n      0x60\n        /* \"tokens/ERC20.sol\":2329:2336  _symbol */\n      0x04\n        /* \"tokens/ERC20.sol\":2322:2336  return _symbol */\n      dup1\n      sload\n      tag_161\n      swap1\n      tag_105\n      jump\t// in\n    tag_161:\n      dup1\n      0x1f\n      add\n      0x20\n      dup1\n      swap2\n      div\n      mul\n      0x20\n      add\n      mload(0x40)\n      swap1\n      dup2\n      add\n      0x40\n      mstore\n      dup1\n      swap3\n      swap2\n      swap1\n      dup2\n      dup2\n      mstore\n      0x20\n      add\n      dup3\n      dup1\n      sload\n      tag_162\n      swap1\n      tag_105\n      jump\t// in\n    tag_162:\n      dup1\n      iszero\n      tag_163\n      jumpi\n      dup1\n      0x1f\n      lt\n      tag_164\n      jumpi\n      0x0100\n      dup1\n      dup4\n      sload\n      div\n      mul\n      dup4\n      mstore\n      swap2\n      0x20\n      add\n      swap2\n      jump(tag_163)\n    tag_164:\n      dup3\n      add\n      swap2\n      swap1\n      0x00\n      mstore\n      keccak256(0x00, 0x20)\n      swap1\n    tag_165:\n      dup2\n      sload\n      dup2\n      mstore\n      swap1\n      0x01\n      add\n      swap1\n      0x20\n      add\n      dup1\n      dup4\n      gt\n      tag_165\n      jumpi\n      dup3\n      swap1\n      sub\n      0x1f\n      and\n      dup3\n      add\n      swap2\n    tag_163:\n      pop\n      pop\n      pop\n      pop\n      pop\n      swap1\n      pop\n        /* \"tokens/ERC20.sol\":2241:2343  function symbol() public view virtual override returns (string memory) {... */\n      swap1\n      jump\t// out\n        /* \"tokens/ERC20.sol\":6475:6902  function decreaseAllowance(address spender, uint256 subtractedValue) public virtual returns (bool) {... */\n    tag_84:\n        /* \"tokens/ERC20.sol\":6568:6572  bool */\n      0x00\n        /* \"tokens/ERC20.sol\":6584:6597  address owner */\n      dup1\n        /* \"tokens/ERC20.sol\":6600:6612  _msgSender() */\n      tag_167\n        /* \"tokens/ERC20.sol\":6600:6610  _msgSender */\n      tag_112\n        /* \"tokens/ERC20.sol\":6600:6612  _msgSender() */\n      jump\t// in\n    tag_167:\n        /* \"tokens/ERC20.sol\":6584:6612  address owner = _msgSender() */\n      swap1\n      pop\n        /* \"tokens/ERC20.sol\":6622:6646  uint256 currentAllowance */\n      0x00\n        /* \"tokens/ERC20.sol\":6649:6674  allowance(owner, spender) */\n      tag_168\n        /* \"tokens/ERC20.sol\":6659:6664  owner */\n      dup3\n        /* \"tokens/ERC20.sol\":6666:6673  spender */\n      dup7\n        /* \"tokens/ERC20.sol\":6649:6658  allowance */\n      tag_101\n        /* \"tokens/ERC20.sol\":6649:6674  allowance(owner, spender) */\n      jump\t// in\n    tag_168:\n        /* \"tokens/ERC20.sol\":6622:6674  uint256 currentAllowance = allowance(owner, spender) */\n      swap1\n      pop\n        /* \"tokens/ERC20.sol\":6712:6727  subtractedValue */\n      dup4\n        /* \"tokens/ERC20.sol\":6692:6708  currentAllowance */\n      dup2\n        /* \"tokens/ERC20.sol\":6692:6727  currentAllowance >= subtractedValue */\n      lt\n      iszero\n        /* \"tokens/ERC20.sol\":6684:6769  require(currentAllowance >= subtractedValue, \"ERC20: decreased allowance below zero\") */\n      tag_169\n      jumpi\n      mload(0x40)\n      0x08c379a000000000000000000000000000000000000000000000000000000000\n      dup2\n      mstore\n      0x04\n      add\n      tag_170\n      swap1\n      tag_171\n      jump\t// in\n    tag_170:\n      mload(0x40)\n      dup1\n      swap2\n      sub\n      swap1\n      revert\n    tag_169:\n        /* \"tokens/ERC20.sol\":6803:6863  _approve(owner, spender, currentAllowance - subtractedValue) */\n      tag_172\n        /* \"tokens/ERC20.sol\":6812:6817  owner */\n      dup3\n        /* \"tokens/ERC20.sol\":6819:6826  spender */\n      dup7\n        /* \"tokens/ERC20.sol\":6847:6862  subtractedValue */\n      dup7\n        /* \"tokens/ERC20.sol\":6828:6844  currentAllowance */\n      dup5\n        /* \"tokens/ERC20.sol\":6828:6862  currentAllowance - subtractedValue */\n      sub\n        /* \"tokens/ERC20.sol\":6803:6811  _approve */\n      tag_114\n        /* \"tokens/ERC20.sol\":6803:6863  _approve(owner, spender, currentAllowance - subtractedValue) */\n      jump\t// in\n    tag_172:\n        /* \"tokens/ERC20.sol\":6891:6895  true */\n      0x01\n        /* \"tokens/ERC20.sol\":6884:6895  return true */\n      swap3\n      pop\n      pop\n      pop\n        /* \"tokens/ERC20.sol\":6475:6902  function decreaseAllowance(address spender, uint256 subtractedValue) public virtual returns (bool) {... */\n      swap3\n      swap2\n      pop\n      pop\n      jump\t// out\n        /* \"tokens/ERC20.sol\":3610:3799  function transfer(address to, uint256 amount) public virtual override returns (bool) {... */\n    tag_88:\n        /* \"tokens/ERC20.sol\":3689:3693  bool */\n      0x00\n        /* \"tokens/ERC20.sol\":3705:3718  address owner */\n      dup1\n        /* \"tokens/ERC20.sol\":3721:3733  _msgSender() */\n      tag_174\n        /* \"tokens/ERC20.sol\":3721:3731  _msgSender */\n      tag_112\n        /* \"tokens/ERC20.sol\":3721:3733  _msgSender() */\n      jump\t// in\n    tag_174:\n        /* \"tokens/ERC20.sol\":3705:3733  address owner = _msgSender() */\n      swap1\n      pop\n        /* \"tokens/ERC20.sol\":3743:3771  _transfer(owner, to, amount) */\n      tag_175\n        /* \"tokens/ERC20.sol\":3753:3758  owner */\n      dup2\n        /* \"tokens/ERC20.sol\":3760:3762  to */\n      dup6\n        /* \"tokens/ERC20.sol\":3764:3770  amount */\n      dup6\n        /* \"tokens/ERC20.sol\":3743:3752  _transfer */\n      tag_121\n        /* \"tokens/ERC20.sol\":3743:3771  _transfer(owner, to, amount) */\n      jump\t// in\n    tag_175:\n        /* \"tokens/ERC20.sol\":3788:3792  true */\n      0x01\n        /* \"tokens/ERC20.sol\":3781:3792  return true */\n      swap2\n      pop\n      pop\n        /* \"tokens/ERC20.sol\":3610:3799  function transfer(address to, uint256 amount) public virtual override returns (bool) {... */\n      swap3\n      swap2\n      pop\n      pop\n      jump\t// out\n        /* \"lib/SolidDaoManaged.sol\":537:573  ISolidDaoManagement public authority */\n    tag_91:\n      0x08\n      0x00\n      swap1\n      sload\n      swap1\n      0x0100\n      exp\n      swap1\n      div\n      0xffffffffffffffffffffffffffffffffffffffff\n      and\n      dup2\n      jump\t// out\n        /* \"lib/ERC20Permit.sol\":1875:2501  function permit(... */\n    tag_97:\n        /* \"lib/ERC20Permit.sol\":2110:2118  deadline */\n      dup4\n        /* \"lib/ERC20Permit.sol\":2091:2106  block.timestamp */\n      timestamp\n        /* \"lib/ERC20Permit.sol\":2091:2118  block.timestamp <= deadline */\n      gt\n      iszero\n        /* \"lib/ERC20Permit.sol\":2083:2152  require(block.timestamp <= deadline, \"ERC20Permit: expired deadline\") */\n      tag_177\n      jumpi\n      mload(0x40)\n      0x08c379a000000000000000000000000000000000000000000000000000000000\n      dup2\n      mstore\n      0x04\n      add\n      tag_178\n      swap1\n      tag_179\n      jump\t// in\n    tag_178:\n      mload(0x40)\n      dup1\n      swap2\n      sub\n      swap1\n      revert\n    tag_177:\n        /* \"lib/ERC20Permit.sol\":2163:2181  bytes32 structHash */\n      0x00\n        /* \"lib/ERC20Permit.sol\":1070:1165  keccak256(\"Permit(address owner,address spender,uint256 value,uint256 nonce,uint256 deadline)\") */\n      0x6e71edae12b1b97f4d1f60370fef10105fa2faae0126114a169c64845d6126c9\n        /* \"lib/ERC20Permit.sol\":2223:2228  owner */\n      dup9\n        /* \"lib/ERC20Permit.sol\":2230:2237  spender */\n      dup9\n        /* \"lib/ERC20Permit.sol\":2239:2244  value */\n      dup9\n        /* \"lib/ERC20Permit.sol\":2246:2262  _useNonce(owner) */\n      tag_180\n        /* \"lib/ERC20Permit.sol\":2256:2261  owner */\n      dup13\n        /* \"lib/ERC20Permit.sol\":2246:2255  _useNonce */\n      tag_181\n        /* \"lib/ERC20Permit.sol\":2246:2262  _useNonce(owner) */\n      jump\t// in\n    tag_180:\n        /* \"lib/ERC20Permit.sol\":2264:2272  deadline */\n      dup10\n        /* \"lib/ERC20Permit.sol\":2194:2273  abi.encode(_PERMIT_TYPEHASH, owner, spender, value, _useNonce(owner), deadline) */\n      add(0x20, mload(0x40))\n      tag_182\n      swap7\n      swap6\n      swap5\n      swap4\n      swap3\n      swap2\n      swap1\n      tag_183\n      jump\t// in\n    tag_182:\n      mload(0x40)\n      0x20\n      dup2\n      dup4\n      sub\n      sub\n      dup2\n      mstore\n      swap1\n      0x40\n      mstore\n        /* \"lib/ERC20Permit.sol\":2184:2274  keccak256(abi.encode(_PERMIT_TYPEHASH, owner, spender, value, _useNonce(owner), deadline)) */\n      dup1\n      mload\n      swap1\n      0x20\n      add\n      keccak256\n        /* \"lib/ERC20Permit.sol\":2163:2274  bytes32 structHash = keccak256(abi.encode(_PERMIT_TYPEHASH, owner, spender, value, _useNonce(owner), deadline)) */\n      swap1\n      pop\n        /* \"lib/ERC20Permit.sol\":2285:2297  bytes32 hash */\n      0x00\n        /* \"lib/ERC20Permit.sol\":2300:2328  _hashTypedDataV4(structHash) */\n      tag_184\n        /* \"lib/ERC20Permit.sol\":2317:2327  structHash */\n      dup3\n        /* \"lib/ERC20Permit.sol\":2300:2316  _hashTypedDataV4 */\n      tag_185\n        /* \"lib/ERC20Permit.sol\":2300:2328  _hashTypedDataV4(structHash) */\n      jump\t// in\n    tag_184:\n        /* \"lib/ERC20Permit.sol\":2285:2328  bytes32 hash = _hashTypedDataV4(structHash) */\n      swap1\n      pop\n        /* \"lib/ERC20Permit.sol\":2339:2353  address signer */\n      0x00\n        /* \"lib/ERC20Permit.sol\":2356:2384  ECDSA.recover(hash, v, r, s) */\n      tag_186\n        /* \"lib/ERC20Permit.sol\":2370:2374  hash */\n      dup3\n        /* \"lib/ERC20Permit.sol\":2376:2377  v */\n      dup8\n        /* \"lib/ERC20Permit.sol\":2379:2380  r */\n      dup8\n        /* \"lib/ERC20Permit.sol\":2382:2383  s */\n      dup8\n        /* \"lib/ERC20Permit.sol\":2356:2369  ECDSA.recover */\n      tag_187\n        /* \"lib/ERC20Permit.sol\":2356:2384  ECDSA.recover(hash, v, r, s) */\n      jump\t// in\n    tag_186:\n        /* \"lib/ERC20Permit.sol\":2339:2384  address signer = ECDSA.recover(hash, v, r, s) */\n      swap1\n      pop\n        /* \"lib/ERC20Permit.sol\":2412:2417  owner */\n      dup10\n        /* \"lib/ERC20Permit.sol\":2402:2417  signer == owner */\n      0xffffffffffffffffffffffffffffffffffffffff\n      and\n        /* \"lib/ERC20Permit.sol\":2402:2408  signer */\n      dup2\n        /* \"lib/ERC20Permit.sol\":2402:2417  signer == owner */\n      0xffffffffffffffffffffffffffffffffffffffff\n      and\n      eq\n        /* \"lib/ERC20Permit.sol\":2394:2452  require(signer == owner, \"ERC20Permit: invalid signature\") */\n      tag_188\n      jumpi\n      mload(0x40)\n      0x08c379a000000000000000000000000000000000000000000000000000000000\n      dup2\n      mstore\n      0x04\n      add\n      tag_189\n      swap1\n      tag_190\n      jump\t// in\n    tag_189:\n      mload(0x40)\n      dup1\n      swap2\n      sub\n      swap1\n      revert\n    tag_188:\n        /* \"lib/ERC20Permit.sol\":2463:2494  _approve(owner, spender, value) */\n      tag_191\n        /* \"lib/ERC20Permit.sol\":2472:2477  owner */\n      dup11\n        /* \"lib/ERC20Permit.sol\":2479:2486  spender */\n      dup11\n        /* \"lib/ERC20Permit.sol\":2488:2493  value */\n      dup11\n        /* \"lib/ERC20Permit.sol\":2463:2471  _approve */\n      tag_114\n        /* \"lib/ERC20Permit.sol\":2463:2494  _approve(owner, spender, value) */\n      jump\t// in\n    tag_191:\n        /* \"lib/ERC20Permit.sol\":2073:2501  {... */\n      pop\n      pop\n      pop\n        /* \"lib/ERC20Permit.sol\":1875:2501  function permit(... */\n      pop\n      pop\n      pop\n      pop\n      pop\n      pop\n      pop\n      jump\t// out\n        /* \"tokens/ERC20.sol\":3857:4006  function allowance(address owner, address spender) public view virtual override returns (uint256) {... */\n    tag_101:\n        /* \"tokens/ERC20.sol\":3946:3953  uint256 */\n      0x00\n        /* \"tokens/ERC20.sol\":3972:3983  _allowances */\n      0x01\n        /* \"tokens/ERC20.sol\":3972:3990  _allowances[owner] */\n      0x00\n        /* \"tokens/ERC20.sol\":3984:3989  owner */\n      dup5\n        /* \"tokens/ERC20.sol\":3972:3990  _allowances[owner] */\n      0xffffffffffffffffffffffffffffffffffffffff\n      and\n      0xffffffffffffffffffffffffffffffffffffffff\n      and\n      dup2\n      mstore\n      0x20\n      add\n      swap1\n      dup2\n      mstore\n      0x20\n      add\n      0x00\n      keccak256\n        /* \"tokens/ERC20.sol\":3972:3999  _allowances[owner][spender] */\n      0x00\n        /* \"tokens/ERC20.sol\":3991:3998  spender */\n      dup4\n        /* \"tokens/ERC20.sol\":3972:3999  _allowances[owner][spender] */\n      0xffffffffffffffffffffffffffffffffffffffff\n      and\n      0xffffffffffffffffffffffffffffffffffffffff\n      and\n      dup2\n      mstore\n      0x20\n      add\n      swap1\n      dup2\n      mstore\n      0x20\n      add\n      0x00\n      keccak256\n      sload\n        /* \"tokens/ERC20.sol\":3965:3999  return _allowances[owner][spender] */\n      swap1\n      pop\n        /* \"tokens/ERC20.sol\":3857:4006  function allowance(address owner, address spender) public view virtual override returns (uint256) {... */\n      swap3\n      swap2\n      pop\n      pop\n      jump\t// out\n        /* \"lib/Context.sol\":640:736  function _msgSender() internal view virtual returns (address) {... */\n    tag_112:\n        /* \"lib/Context.sol\":693:700  address */\n      0x00\n        /* \"lib/Context.sol\":719:729  msg.sender */\n      caller\n        /* \"lib/Context.sol\":712:729  return msg.sender */\n      swap1\n      pop\n        /* \"lib/Context.sol\":640:736  function _msgSender() internal view virtual returns (address) {... */\n      swap1\n      jump\t// out\n        /* \"tokens/ERC20.sol\":10000:10370  function _approve(... */\n    tag_114:\n        /* \"tokens/ERC20.sol\":10148:10149  0 */\n      0x00\n        /* \"tokens/ERC20.sol\":10131:10150  owner != address(0) */\n      0xffffffffffffffffffffffffffffffffffffffff\n      and\n        /* \"tokens/ERC20.sol\":10131:10136  owner */\n      dup4\n        /* \"tokens/ERC20.sol\":10131:10150  owner != address(0) */\n      0xffffffffffffffffffffffffffffffffffffffff\n      and\n      sub\n        /* \"tokens/ERC20.sol\":10123:10191  require(owner != address(0), \"ERC20: approve from the zero address\") */\n      tag_195\n      jumpi\n      mload(0x40)\n      0x08c379a000000000000000000000000000000000000000000000000000000000\n      dup2\n      mstore\n      0x04\n      add\n      tag_196\n      swap1\n      tag_197\n      jump\t// in\n    tag_196:\n      mload(0x40)\n      dup1\n      swap2\n      sub\n      swap1\n      revert\n    tag_195:\n        /* \"tokens/ERC20.sol\":10228:10229  0 */\n      0x00\n        /* \"tokens/ERC20.sol\":10209:10230  spender != address(0) */\n      0xffffffffffffffffffffffffffffffffffffffff\n      and\n        /* \"tokens/ERC20.sol\":10209:10216  spender */\n      dup3\n        /* \"tokens/ERC20.sol\":10209:10230  spender != address(0) */\n      0xffffffffffffffffffffffffffffffffffffffff\n      and\n      sub\n        /* \"tokens/ERC20.sol\":10201:10269  require(spender != address(0), \"ERC20: approve to the zero address\") */\n      tag_198\n      jumpi\n      mload(0x40)\n      0x08c379a000000000000000000000000000000000000000000000000000000000\n      dup2\n      mstore\n      0x04\n      add\n      tag_199\n      swap1\n      tag_200\n      jump\t// in\n    tag_199:\n      mload(0x40)\n      dup1\n      swap2\n      sub\n      swap1\n      revert\n    tag_198:\n        /* \"tokens/ERC20.sol\":10310:10316  amount */\n      dup1\n        /* \"tokens/ERC20.sol\":10280:10291  _allowances */\n      0x01\n        /* \"tokens/ERC20.sol\":10280:10298  _allowances[owner] */\n      0x00\n        /* \"tokens/ERC20.sol\":10292:10297  owner */\n      dup6\n        /* \"tokens/ERC20.sol\":10280:10298  _allowances[owner] */\n      0xffffffffffffffffffffffffffffffffffffffff\n      and\n      0xffffffffffffffffffffffffffffffffffffffff\n      and\n      dup2\n      mstore\n      0x20\n      add\n      swap1\n      dup2\n      mstore\n      0x20\n      add\n      0x00\n      keccak256\n        /* \"tokens/ERC20.sol\":10280:10307  _allowances[owner][spender] */\n      0x00\n        /* \"tokens/ERC20.sol\":10299:10306  spender */\n      dup5\n        /* \"tokens/ERC20.sol\":10280:10307  _allowances[owner][spender] */\n      0xffffffffffffffffffffffffffffffffffffffff\n      and\n      0xffffffffffffffffffffffffffffffffffffffff\n      and\n      dup2\n      mstore\n      0x20\n      add\n      swap1\n      dup2\n      mstore\n      0x20\n      add\n      0x00\n      keccak256\n        /* \"tokens/ERC20.sol\":10280:10316  _allowances[owner][spender] = amount */\n      dup2\n      swap1\n      sstore\n      pop\n        /* \"tokens/ERC20.sol\":10347:10354  spender */\n      dup2\n        /* \"tokens/ERC20.sol\":10331:10363  Approval(owner, spender, amount) */\n      0xffffffffffffffffffffffffffffffffffffffff\n      and\n        /* \"tokens/ERC20.sol\":10340:10345  owner */\n      dup4\n        /* \"tokens/ERC20.sol\":10331:10363  Approval(owner, spender, amount) */\n      0xffffffffffffffffffffffffffffffffffffffff\n      and\n      0x8c5be1e5ebec7d5bd14f71427d1e84f3dd0314c0f7b2291e5b200ac8c7c3b925\n        /* \"tokens/ERC20.sol\":10356:10362  amount */\n      dup4\n        /* \"tokens/ERC20.sol\":10331:10363  Approval(owner, spender, amount) */\n      mload(0x40)\n      tag_201\n      swap2\n      swap1\n      tag_38\n      jump\t// in\n    tag_201:\n      mload(0x40)\n      dup1\n      swap2\n      sub\n      swap1\n      log3\n        /* \"tokens/ERC20.sol\":10000:10370  function _approve(... */\n      pop\n      pop\n      pop\n      jump\t// out\n        /* \"tokens/ERC20.sol\":10651:11092  function _spendAllowance(... */\n    tag_119:\n        /* \"tokens/ERC20.sol\":10781:10805  uint256 currentAllowance */\n      0x00\n        /* \"tokens/ERC20.sol\":10808:10833  allowance(owner, spender) */\n      tag_203\n        /* \"tokens/ERC20.sol\":10818:10823  owner */\n      dup5\n        /* \"tokens/ERC20.sol\":10825:10832  spender */\n      dup5\n        /* \"tokens/ERC20.sol\":10808:10817  allowance */\n      tag_101\n        /* \"tokens/ERC20.sol\":10808:10833  allowance(owner, spender) */\n      jump\t// in\n    tag_203:\n        /* \"tokens/ERC20.sol\":10781:10833  uint256 currentAllowance = allowance(owner, spender) */\n      swap1\n      pop\n        /* \"tokens/ERC20.sol\":10867:10884  type(uint256).max */\n      0xffffffffffffffffffffffffffffffffffffffffffffffffffffffffffffffff\n        /* \"tokens/ERC20.sol\":10847:10863  currentAllowance */\n      dup2\n        /* \"tokens/ERC20.sol\":10847:10884  currentAllowance != type(uint256).max */\n      eq\n        /* \"tokens/ERC20.sol\":10843:11086  if (currentAllowance != type(uint256).max) {... */\n      tag_204\n      jumpi\n        /* \"tokens/ERC20.sol\":10928:10934  amount */\n      dup2\n        /* \"tokens/ERC20.sol\":10908:10924  currentAllowance */\n      dup2\n        /* \"tokens/ERC20.sol\":10908:10934  currentAllowance >= amount */\n      lt\n      iszero\n        /* \"tokens/ERC20.sol\":10900:10968  require(currentAllowance >= amount, \"ERC20: insufficient allowance\") */\n      tag_205\n      jumpi\n      mload(0x40)\n      0x08c379a000000000000000000000000000000000000000000000000000000000\n      dup2\n      mstore\n      0x04\n      add\n      tag_206\n      swap1\n      tag_207\n      jump\t// in\n    tag_206:\n      mload(0x40)\n      dup1\n      swap2\n      sub\n      swap1\n      revert\n    tag_205:\n        /* \"tokens/ERC20.sol\":11010:11061  _approve(owner, spender, currentAllowance - amount) */\n      tag_208\n        /* \"tokens/ERC20.sol\":11019:11024  owner */\n      dup5\n        /* \"tokens/ERC20.sol\":11026:11033  spender */\n      dup5\n        /* \"tokens/ERC20.sol\":11054:11060  amount */\n      dup5\n        /* \"tokens/ERC20.sol\":11035:11051  currentAllowance */\n      dup5\n        /* \"tokens/ERC20.sol\":11035:11060  currentAllowance - amount */\n      sub\n        /* \"tokens/ERC20.sol\":11010:11018  _approve */\n      tag_114\n        /* \"tokens/ERC20.sol\":11010:11061  _approve(owner, spender, currentAllowance - amount) */\n      jump\t// in\n    tag_208:\n        /* \"tokens/ERC20.sol\":10843:11086  if (currentAllowance != type(uint256).max) {... */\n    tag_204:\n        /* \"tokens/ERC20.sol\":10771:11092  {... */\n      pop\n        /* \"tokens/ERC20.sol\":10651:11092  function _spendAllowance(... */\n      pop\n      pop\n      pop\n      jump\t// out\n        /* \"tokens/ERC20.sol\":7365:8016  function _transfer(... */\n    tag_121:\n        /* \"tokens/ERC20.sol\":7507:7508  0 */\n      0x00\n        /* \"tokens/ERC20.sol\":7491:7509  from != address(0) */\n      0xffffffffffffffffffffffffffffffffffffffff\n      and\n        /* \"tokens/ERC20.sol\":7491:7495  from */\n      dup4\n        /* \"tokens/ERC20.sol\":7491:7509  from != address(0) */\n      0xffffffffffffffffffffffffffffffffffffffff\n      and\n      sub\n        /* \"tokens/ERC20.sol\":7483:7551  require(from != address(0), \"ERC20: transfer from the zero address\") */\n      tag_210\n      jumpi\n      mload(0x40)\n      0x08c379a000000000000000000000000000000000000000000000000000000000\n      dup2\n      mstore\n      0x04\n      add\n      tag_211\n      swap1\n      tag_212\n      jump\t// in\n    tag_211:\n      mload(0x40)\n      dup1\n      swap2\n      sub\n      swap1\n      revert\n    tag_210:\n        /* \"tokens/ERC20.sol\":7583:7584  0 */\n      0x00\n        /* \"tokens/ERC20.sol\":7569:7585  to != address(0) */\n      0xffffffffffffffffffffffffffffffffffffffff\n      and\n        /* \"tokens/ERC20.sol\":7569:7571  to */\n      dup3\n        /* \"tokens/ERC20.sol\":7569:7585  to != address(0) */\n      0xffffffffffffffffffffffffffffffffffffffff\n      and\n      sub\n        /* \"tokens/ERC20.sol\":7561:7625  require(to != address(0), \"ERC20: transfer to the zero address\") */\n      tag_213\n      jumpi\n      mload(0x40)\n      0x08c379a000000000000000000000000000000000000000000000000000000000\n      dup2\n      mstore\n      0x04\n      add\n      tag_214\n      swap1\n      tag_215\n      jump\t// in\n    tag_214:\n      mload(0x40)\n      dup1\n      swap2\n      sub\n      swap1\n      revert\n    tag_213:\n        /* \"tokens/ERC20.sol\":7636:7674  _beforeTokenTransfer(from, to, amount) */\n      tag_216\n        /* \"tokens/ERC20.sol\":7657:7661  from */\n      dup4\n        /* \"tokens/ERC20.sol\":7663:7665  to */\n      dup4\n        /* \"tokens/ERC20.sol\":7667:7673  amount */\n      dup4\n        /* \"tokens/ERC20.sol\":7636:7656  _beforeTokenTransfer */\n      tag_217\n        /* \"tokens/ERC20.sol\":7636:7674  _beforeTokenTransfer(from, to, amount) */\n      jump\t// in\n    tag_216:\n        /* \"tokens/ERC20.sol\":7685:7704  uint256 fromBalance */\n      0x00\n        /* \"tokens/ERC20.sol\":7707:7716  _balances */\n      dup1\n        /* \"tokens/ERC20.sol\":7707:7722  _balances[from] */\n      0x00\n        /* \"tokens/ERC20.sol\":7717:7721  from */\n      dup6\n        /* \"tokens/ERC20.sol\":7707:7722  _balances[from] */\n      0xffffffffffffffffffffffffffffffffffffffff\n      and\n      0xffffffffffffffffffffffffffffffffffffffff\n      and\n      dup2\n      mstore\n      0x20\n      add\n      swap1\n      dup2\n      mstore\n      0x20\n      add\n      0x00\n      keccak256\n      sload\n        /* \"tokens/ERC20.sol\":7685:7722  uint256 fromBalance = _balances[from] */\n      swap1\n      pop\n        /* \"tokens/ERC20.sol\":7755:7761  amount */\n      dup2\n        /* \"tokens/ERC20.sol\":7740:7751  fromBalance */\n      dup2\n        /* \"tokens/ERC20.sol\":7740:7761  fromBalance >= amount */\n      lt\n      iszero\n        /* \"tokens/ERC20.sol\":7732:7804  require(fromBalance >= amount, \"ERC20: transfer amount exceeds balance\") */\n      tag_218\n      jumpi\n      mload(0x40)\n      0x08c379a000000000000000000000000000000000000000000000000000000000\n      dup2\n      mstore\n      0x04\n      add\n      tag_219\n      swap1\n      tag_220\n      jump\t// in\n    tag_219:\n      mload(0x40)\n      dup1\n      swap2\n      sub\n      swap1\n      revert\n    tag_218:\n        /* \"tokens/ERC20.sol\":7870:7876  amount */\n      dup2\n        /* \"tokens/ERC20.sol\":7856:7867  fromBalance */\n      dup2\n        /* \"tokens/ERC20.sol\":7856:7876  fromBalance - amount */\n      sub\n        /* \"tokens/ERC20.sol\":7838:7847  _balances */\n      0x00\n        /* \"tokens/ERC20.sol\":7838:7853  _balances[from] */\n      dup1\n        /* \"tokens/ERC20.sol\":7848:7852  from */\n      dup7\n        /* \"tokens/ERC20.sol\":7838:7853  _balances[from] */\n      0xffffffffffffffffffffffffffffffffffffffff\n      and\n      0xffffffffffffffffffffffffffffffffffffffff\n      and\n      dup2\n      mstore\n      0x20\n      add\n      swap1\n      dup2\n      mstore\n      0x20\n      add\n      0x00\n      keccak256\n        /* \"tokens/ERC20.sol\":7838:7876  _balances[from] = fromBalance - amount */\n      dup2\n      swap1\n      sstore\n      pop\n        /* \"tokens/ERC20.sol\":7913:7919  amount */\n      dup2\n        /* \"tokens/ERC20.sol\":7896:7905  _balances */\n      0x00\n        /* \"tokens/ERC20.sol\":7896:7909  _balances[to] */\n      dup1\n        /* \"tokens/ERC20.sol\":7906:7908  to */\n      dup6\n        /* \"tokens/ERC20.sol\":7896:7909  _balances[to] */\n      0xffffffffffffffffffffffffffffffffffffffff\n      and\n      0xffffffffffffffffffffffffffffffffffffffff\n      and\n      dup2\n      mstore\n      0x20\n      add\n      swap1\n      dup2\n      mstore\n      0x20\n      add\n      0x00\n      keccak256\n      0x00\n        /* \"tokens/ERC20.sol\":7896:7919  _balances[to] += amount */\n      dup3\n      dup3\n      sload\n      tag_221\n      swap2\n      swap1\n      tag_131\n      jump\t// in\n    tag_221:\n      swap3\n      pop\n      pop\n      dup2\n      swap1\n      sstore\n      pop\n        /* \"tokens/ERC20.sol\":7950:7952  to */\n      dup3\n        /* \"tokens/ERC20.sol\":7935:7961  Transfer(from, to, amount) */\n      0xffffffffffffffffffffffffffffffffffffffff\n      and\n        /* \"tokens/ERC20.sol\":7944:7948  from */\n      dup5\n        /* \"tokens/ERC20.sol\":7935:7961  Transfer(from, to, amount) */\n      0xffffffffffffffffffffffffffffffffffffffff\n      and\n      0xddf252ad1be2c89b69c2b068fc378daa952ba7f163c4a11628f55a4df523b3ef\n        /* \"tokens/ERC20.sol\":7954:7960  amount */\n      dup5\n        /* \"tokens/ERC20.sol\":7935:7961  Transfer(from, to, amount) */\n      mload(0x40)\n      tag_222\n      swap2\n      swap1\n      tag_38\n      jump\t// in\n    tag_222:\n      mload(0x40)\n      dup1\n      swap2\n      sub\n      swap1\n      log3\n        /* \"tokens/ERC20.sol\":7972:8009  _afterTokenTransfer(from, to, amount) */\n      tag_223\n        /* \"tokens/ERC20.sol\":7992:7996  from */\n      dup5\n        /* \"tokens/ERC20.sol\":7998:8000  to */\n      dup5\n        /* \"tokens/ERC20.sol\":8002:8008  amount */\n      dup5\n        /* \"tokens/ERC20.sol\":7972:7991  _afterTokenTransfer */\n      tag_224\n        /* \"tokens/ERC20.sol\":7972:8009  _afterTokenTransfer(from, to, amount) */\n      jump\t// in\n    tag_223:\n        /* \"tokens/ERC20.sol\":7473:8016  {... */\n      pop\n        /* \"tokens/ERC20.sol\":7365:8016  function _transfer(... */\n      pop\n      pop\n      pop\n      jump\t// out\n        /* \"lib/EIP712.sol\":3143:3451  function _domainSeparatorV4() internal view returns (bytes32) {... */\n    tag_125:\n        /* \"lib/EIP712.sol\":3196:3203  bytes32 */\n      0x00\n        /* \"lib/EIP712.sol\":3236:3248  _CACHED_THIS */\n      immutable(\"0xd3dad2b3fa6464c5d12f6373a47a6014623e3f162de557e09b0006ceac3fe4f9\")\n        /* \"lib/EIP712.sol\":3219:3248  address(this) == _CACHED_THIS */\n      0xffffffffffffffffffffffffffffffffffffffff\n      and\n        /* \"lib/EIP712.sol\":3227:3231  this */\n      address\n        /* \"lib/EIP712.sol\":3219:3248  address(this) == _CACHED_THIS */\n      0xffffffffffffffffffffffffffffffffffffffff\n      and\n      eq\n        /* \"lib/EIP712.sol\":3219:3285  address(this) == _CACHED_THIS && block.chainid == _CACHED_CHAIN_ID */\n      dup1\n      iszero\n      tag_226\n      jumpi\n      pop\n        /* \"lib/EIP712.sol\":3269:3285  _CACHED_CHAIN_ID */\n      immutable(\"0xa9903e230a4a4f2af602b37c0f984d2b43537f89ce9d4cfbf1232e27c498bd38\")\n        /* \"lib/EIP712.sol\":3252:3265  block.chainid */\n      chainid\n        /* \"lib/EIP712.sol\":3252:3285  block.chainid == _CACHED_CHAIN_ID */\n      eq\n        /* \"lib/EIP712.sol\":3219:3285  address(this) == _CACHED_THIS && block.chainid == _CACHED_CHAIN_ID */\n    tag_226:\n        /* \"lib/EIP712.sol\":3215:3445  if (address(this) == _CACHED_THIS && block.chainid == _CACHED_CHAIN_ID) {... */\n      iszero\n      tag_227\n      jumpi\n        /* \"lib/EIP712.sol\":3308:3332  _CACHED_DOMAIN_SEPARATOR */\n      immutable(\"0x02f6903e55725b8fb1e67e68fc4dfbf8e90ced5ec278dfd2021debfe4c69d139\")\n        /* \"lib/EIP712.sol\":3301:3332  return _CACHED_DOMAIN_SEPARATOR */\n      swap1\n      pop\n      jump(tag_225)\n        /* \"lib/EIP712.sol\":3215:3445  if (address(this) == _CACHED_THIS && block.chainid == _CACHED_CHAIN_ID) {... */\n    tag_227:\n        /* \"lib/EIP712.sol\":3370:3434  _buildDomainSeparator(_TYPE_HASH, _HASHED_NAME, _HASHED_VERSION) */\n      tag_229\n        /* \"lib/EIP712.sol\":3392:3402  _TYPE_HASH */\n      immutable(\"0x1d2b7ce2c7309c0ae499257b4d570bbc2aa804a132076a507e13da63d22f2ea8\")\n        /* \"lib/EIP712.sol\":3404:3416  _HASHED_NAME */\n      immutable(\"0xc5e1f1d4bf9d5972febd47f77b791d34fca2c4f78e047aba365c0f66e5d88c39\")\n        /* \"lib/EIP712.sol\":3418:3433  _HASHED_VERSION */\n      immutable(\"0xf44e26cb6192c7a70f026ebae4c4bdf0822fd8ec199501187afd94cd2c3c7097\")\n        /* \"lib/EIP712.sol\":3370:3391  _buildDomainSeparator */\n      tag_230\n        /* \"lib/EIP712.sol\":3370:3434  _buildDomainSeparator(_TYPE_HASH, _HASHED_NAME, _HASHED_VERSION) */\n      jump\t// in\n    tag_229:\n        /* \"lib/EIP712.sol\":3363:3434  return _buildDomainSeparator(_TYPE_HASH, _HASHED_NAME, _HASHED_VERSION) */\n      swap1\n      pop\n        /* \"lib/EIP712.sol\":3143:3451  function _domainSeparatorV4() internal view returns (bytes32) {... */\n    tag_225:\n      swap1\n      jump\t// out\n        /* \"tokens/ERC20.sol\":8292:8681  function _mint(address account, uint256 amount) internal virtual {... */\n    tag_142:\n        /* \"tokens/ERC20.sol\":8394:8395  0 */\n      0x00\n        /* \"tokens/ERC20.sol\":8375:8396  account != address(0) */\n      0xffffffffffffffffffffffffffffffffffffffff\n      and\n        /* \"tokens/ERC20.sol\":8375:8382  account */\n      dup3\n        /* \"tokens/ERC20.sol\":8375:8396  account != address(0) */\n      0xffffffffffffffffffffffffffffffffffffffff\n      and\n      sub\n        /* \"tokens/ERC20.sol\":8367:8432  require(account != address(0), \"ERC20: mint to the zero address\") */\n      tag_232\n      jumpi\n      mload(0x40)\n      0x08c379a000000000000000000000000000000000000000000000000000000000\n      dup2\n      mstore\n      0x04\n      add\n      tag_233\n      swap1\n      tag_234\n      jump\t// in\n    tag_233:\n      mload(0x40)\n      dup1\n      swap2\n      sub\n      swap1\n      revert\n    tag_232:\n        /* \"tokens/ERC20.sol\":8443:8492  _beforeTokenTransfer(address(0), account, amount) */\n      tag_235\n        /* \"tokens/ERC20.sol\":8472:8473  0 */\n      0x00\n        /* \"tokens/ERC20.sol\":8476:8483  account */\n      dup4\n        /* \"tokens/ERC20.sol\":8485:8491  amount */\n      dup4\n        /* \"tokens/ERC20.sol\":8443:8463  _beforeTokenTransfer */\n      tag_217\n        /* \"tokens/ERC20.sol\":8443:8492  _beforeTokenTransfer(address(0), account, amount) */\n      jump\t// in\n    tag_235:\n        /* \"tokens/ERC20.sol\":8519:8525  amount */\n      dup1\n        /* \"tokens/ERC20.sol\":8503:8515  _totalSupply */\n      0x02\n      0x00\n        /* \"tokens/ERC20.sol\":8503:8525  _totalSupply += amount */\n      dup3\n      dup3\n      sload\n      tag_236\n      swap2\n      swap1\n      tag_131\n      jump\t// in\n    tag_236:\n      swap3\n      pop\n      pop\n      dup2\n      swap1\n      sstore\n      pop\n        /* \"tokens/ERC20.sol\":8557:8563  amount */\n      dup1\n        /* \"tokens/ERC20.sol\":8535:8544  _balances */\n      0x00\n        /* \"tokens/ERC20.sol\":8535:8553  _balances[account] */\n      dup1\n        /* \"tokens/ERC20.sol\":8545:8552  account */\n      dup5\n        /* \"tokens/ERC20.sol\":8535:8553  _balances[account] */\n      0xffffffffffffffffffffffffffffffffffffffff\n      and\n      0xffffffffffffffffffffffffffffffffffffffff\n      and\n      dup2\n      mstore\n      0x20\n      add\n      swap1\n      dup2\n      mstore\n      0x20\n      add\n      0x00\n      keccak256\n      0x00\n        /* \"tokens/ERC20.sol\":8535:8563  _balances[account] += amount */\n      dup3\n      dup3\n      sload\n      tag_237\n      swap2\n      swap1\n      tag_131\n      jump\t// in\n    tag_237:\n      swap3\n      pop\n      pop\n      dup2\n      swap1\n      sstore\n      pop\n        /* \"tokens/ERC20.sol\":8599:8606  account */\n      dup2\n        /* \"tokens/ERC20.sol\":8578:8615  Transfer(address(0), account, amount) */\n      0xffffffffffffffffffffffffffffffffffffffff\n      and\n        /* \"tokens/ERC20.sol\":8595:8596  0 */\n      0x00\n        /* \"tokens/ERC20.sol\":8578:8615  Transfer(address(0), account, amount) */\n      0xffffffffffffffffffffffffffffffffffffffff\n      and\n      0xddf252ad1be2c89b69c2b068fc378daa952ba7f163c4a11628f55a4df523b3ef\n        /* \"tokens/ERC20.sol\":8608:8614  amount */\n      dup4\n        /* \"tokens/ERC20.sol\":8578:8615  Transfer(address(0), account, amount) */\n      mload(0x40)\n      tag_238\n      swap2\n      swap1\n      tag_38\n      jump\t// in\n    tag_238:\n      mload(0x40)\n      dup1\n      swap2\n      sub\n      swap1\n      log3\n        /* \"tokens/ERC20.sol\":8626:8674  _afterTokenTransfer(address(0), account, amount) */\n      tag_239\n        /* \"tokens/ERC20.sol\":8654:8655  0 */\n      0x00\n        /* \"tokens/ERC20.sol\":8658:8665  account */\n      dup4\n        /* \"tokens/ERC20.sol\":8667:8673  amount */\n      dup4\n        /* \"tokens/ERC20.sol\":8626:8645  _afterTokenTransfer */\n      tag_224\n        /* \"tokens/ERC20.sol\":8626:8674  _afterTokenTransfer(address(0), account, amount) */\n      jump\t// in\n    tag_239:\n        /* \"tokens/ERC20.sol\":8292:8681  function _mint(address account, uint256 amount) internal virtual {... */\n      pop\n      pop\n      jump\t// out\n        /* \"tokens/ERC20.sol\":9001:9577  function _burn(address account, uint256 amount) internal virtual {... */\n    tag_145:\n        /* \"tokens/ERC20.sol\":9103:9104  0 */\n      0x00\n        /* \"tokens/ERC20.sol\":9084:9105  account != address(0) */\n      0xffffffffffffffffffffffffffffffffffffffff\n      and\n        /* \"tokens/ERC20.sol\":9084:9091  account */\n      dup3\n        /* \"tokens/ERC20.sol\":9084:9105  account != address(0) */\n      0xffffffffffffffffffffffffffffffffffffffff\n      and\n      sub\n        /* \"tokens/ERC20.sol\":9076:9143  require(account != address(0), \"ERC20: burn from the zero address\") */\n      tag_241\n      jumpi\n      mload(0x40)\n      0x08c379a000000000000000000000000000000000000000000000000000000000\n      dup2\n      mstore\n      0x04\n      add\n      tag_242\n      swap1\n      tag_243\n      jump\t// in\n    tag_242:\n      mload(0x40)\n      dup1\n      swap2\n      sub\n      swap1\n      revert\n    tag_241:\n        /* \"tokens/ERC20.sol\":9154:9203  _beforeTokenTransfer(account, address(0), amount) */\n      tag_244\n        /* \"tokens/ERC20.sol\":9175:9182  account */\n      dup3\n        /* \"tokens/ERC20.sol\":9192:9193  0 */\n      0x00\n        /* \"tokens/ERC20.sol\":9196:9202  amount */\n      dup4\n        /* \"tokens/ERC20.sol\":9154:9174  _beforeTokenTransfer */\n      tag_217\n        /* \"tokens/ERC20.sol\":9154:9203  _beforeTokenTransfer(account, address(0), amount) */\n      jump\t// in\n    tag_244:\n        /* \"tokens/ERC20.sol\":9214:9236  uint256 accountBalance */\n      0x00\n        /* \"tokens/ERC20.sol\":9239:9248  _balances */\n      dup1\n        /* \"tokens/ERC20.sol\":9239:9257  _balances[account] */\n      0x00\n        /* \"tokens/ERC20.sol\":9249:9256  account */\n      dup5\n        /* \"tokens/ERC20.sol\":9239:9257  _balances[account] */\n      0xffffffffffffffffffffffffffffffffffffffff\n      and\n      0xffffffffffffffffffffffffffffffffffffffff\n      and\n      dup2\n      mstore\n      0x20\n      add\n      swap1\n      dup2\n      mstore\n      0x20\n      add\n      0x00\n      keccak256\n      sload\n        /* \"tokens/ERC20.sol\":9214:9257  uint256 accountBalance = _balances[account] */\n      swap1\n      pop\n        /* \"tokens/ERC20.sol\":9293:9299  amount */\n      dup2\n        /* \"tokens/ERC20.sol\":9275:9289  accountBalance */\n      dup2\n        /* \"tokens/ERC20.sol\":9275:9299  accountBalance >= amount */\n      lt\n      iszero\n        /* \"tokens/ERC20.sol\":9267:9338  require(accountBalance >= amount, \"ERC20: burn amount exceeds balance\") */\n      tag_245\n      jumpi\n      mload(0x40)\n      0x08c379a000000000000000000000000000000000000000000000000000000000\n      dup2\n      mstore\n      0x04\n      add\n      tag_246\n      swap1\n      tag_247\n      jump\t// in\n    tag_246:\n      mload(0x40)\n      dup1\n      swap2\n      sub\n      swap1\n      revert\n    tag_245:\n        /* \"tokens/ERC20.sol\":9410:9416  amount */\n      dup2\n        /* \"tokens/ERC20.sol\":9393:9407  accountBalance */\n      dup2\n        /* \"tokens/ERC20.sol\":9393:9416  accountBalance - amount */\n      sub\n        /* \"tokens/ERC20.sol\":9372:9381  _balances */\n      0x00\n        /* \"tokens/ERC20.sol\":9372:9390  _balances[account] */\n      dup1\n        /* \"tokens/ERC20.sol\":9382:9389  account */\n      dup6\n        /* \"tokens/ERC20.sol\":9372:9390  _balances[account] */\n      0xffffffffffffffffffffffffffffffffffffffff\n      and\n      0xffffffffffffffffffffffffffffffffffffffff\n      and\n      dup2\n      mstore\n      0x20\n      add\n      swap1\n      dup2\n      mstore\n      0x20\n      add\n      0x00\n      keccak256\n        /* \"tokens/ERC20.sol\":9372:9416  _balances[account] = accountBalance - amount */\n      dup2\n      swap1\n      sstore\n      pop\n        /* \"tokens/ERC20.sol\":9452:9458  amount */\n      dup2\n        /* \"tokens/ERC20.sol\":9436:9448  _totalSupply */\n      0x02\n      0x00\n        /* \"tokens/ERC20.sol\":9436:9458  _totalSupply -= amount */\n      dup3\n      dup3\n      sload\n      tag_248\n      swap2\n      swap1\n      tag_249\n      jump\t// in\n    tag_248:\n      swap3\n      pop\n      pop\n      dup2\n      swap1\n      sstore\n      pop\n        /* \"tokens/ERC20.sol\":9500:9501  0 */\n      0x00\n        /* \"tokens/ERC20.sol\":9474:9511  Transfer(account, address(0), amount) */\n      0xffffffffffffffffffffffffffffffffffffffff\n      and\n        /* \"tokens/ERC20.sol\":9483:9490  account */\n      dup4\n        /* \"tokens/ERC20.sol\":9474:9511  Transfer(account, address(0), amount) */\n      0xffffffffffffffffffffffffffffffffffffffff\n      and\n      0xddf252ad1be2c89b69c2b068fc378daa952ba7f163c4a11628f55a4df523b3ef\n        /* \"tokens/ERC20.sol\":9504:9510  amount */\n      dup5\n        /* \"tokens/ERC20.sol\":9474:9511  Transfer(account, address(0), amount) */\n      mload(0x40)\n      tag_250\n      swap2\n      swap1\n      tag_38\n      jump\t// in\n    tag_250:\n      mload(0x40)\n      dup1\n      swap2\n      sub\n      swap1\n      log3\n        /* \"tokens/ERC20.sol\":9522:9570  _afterTokenTransfer(account, address(0), amount) */\n      tag_251\n        /* \"tokens/ERC20.sol\":9542:9549  account */\n      dup4\n        /* \"tokens/ERC20.sol\":9559:9560  0 */\n      0x00\n        /* \"tokens/ERC20.sol\":9563:9569  amount */\n      dup5\n        /* \"tokens/ERC20.sol\":9522:9541  _afterTokenTransfer */\n      tag_224\n        /* \"tokens/ERC20.sol\":9522:9570  _afterTokenTransfer(account, address(0), amount) */\n      jump\t// in\n    tag_251:\n        /* \"tokens/ERC20.sol\":9066:9577  {... */\n      pop\n        /* \"tokens/ERC20.sol\":9001:9577  function _burn(address account, uint256 amount) internal virtual {... */\n      pop\n      pop\n      jump\t// out\n        /* \"SCTERC20.sol\":881:1234  function _burnFrom(address account_, uint256 amount_) internal {... */\n    tag_149:\n        /* \"SCTERC20.sol\":954:977  uint256 senderAllowance */\n      0x00\n        /* \"SCTERC20.sol\":980:1011  allowance(account_, msg.sender) */\n      tag_253\n        /* \"SCTERC20.sol\":990:998  account_ */\n      dup4\n        /* \"SCTERC20.sol\":1000:1010  msg.sender */\n      caller\n        /* \"SCTERC20.sol\":980:989  allowance */\n      tag_101\n        /* \"SCTERC20.sol\":980:1011  allowance(account_, msg.sender) */\n      jump\t// in\n    tag_253:\n        /* \"SCTERC20.sol\":954:1011  uint256 senderAllowance = allowance(account_, msg.sender) */\n      swap1\n      pop\n        /* \"SCTERC20.sol\":1058:1059  0 */\n      0x00\n        /* \"SCTERC20.sol\":1047:1054  amount_ */\n      dup3\n        /* \"SCTERC20.sol\":1029:1044  senderAllowance */\n      dup3\n        /* \"SCTERC20.sol\":1029:1054  senderAllowance - amount_ */\n      tag_254\n      swap2\n      swap1\n      tag_249\n      jump\t// in\n    tag_254:\n        /* \"SCTERC20.sol\":1029:1059  senderAllowance - amount_ >= 0 */\n      lt\n      iszero\n        /* \"SCTERC20.sol\":1021:1100  require(senderAllowance - amount_ >= 0, \"ERC20: burn amount exceeds allowance\") */\n      tag_255\n      jumpi\n      mload(0x40)\n      0x08c379a000000000000000000000000000000000000000000000000000000000\n      dup2\n      mstore\n      0x04\n      add\n      tag_256\n      swap1\n      tag_257\n      jump\t// in\n    tag_256:\n      mload(0x40)\n      dup1\n      swap2\n      sub\n      swap1\n      revert\n    tag_255:\n        /* \"SCTERC20.sol\":1129:1136  amount_ */\n      dup2\n        /* \"SCTERC20.sol\":1110:1136  senderAllowance -= amount_ */\n      dup2\n      tag_258\n      swap2\n      swap1\n      tag_249\n      jump\t// in\n    tag_258:\n      swap1\n      pop\n        /* \"SCTERC20.sol\":1146:1193  _approve(account_, msg.sender, senderAllowance) */\n      tag_259\n        /* \"SCTERC20.sol\":1155:1163  account_ */\n      dup4\n        /* \"SCTERC20.sol\":1165:1175  msg.sender */\n      caller\n        /* \"SCTERC20.sol\":1177:1192  senderAllowance */\n      dup4\n        /* \"SCTERC20.sol\":1146:1154  _approve */\n      tag_114\n        /* \"SCTERC20.sol\":1146:1193  _approve(account_, msg.sender, senderAllowance) */\n      jump\t// in\n    tag_259:\n        /* \"SCTERC20.sol\":1203:1227  _burn(account_, amount_) */\n      tag_260\n        /* \"SCTERC20.sol\":1209:1217  account_ */\n      dup4\n        /* \"SCTERC20.sol\":1219:1226  amount_ */\n      dup4\n        /* \"SCTERC20.sol\":1203:1208  _burn */\n      tag_145\n        /* \"SCTERC20.sol\":1203:1227  _burn(account_, amount_) */\n      jump\t// in\n    tag_260:\n        /* \"SCTERC20.sol\":944:1234  {... */\n      pop\n        /* \"SCTERC20.sol\":881:1234  function _burnFrom(address account_, uint256 amount_) internal {... */\n      pop\n      pop\n      jump\t// out\n        /* \"lib/Counters.sol\":827:939  function current(Counter storage counter) internal view returns (uint256) {... */\n    tag_159:\n        /* \"lib/Counters.sol\":892:899  uint256 */\n      0x00\n        /* \"lib/Counters.sol\":918:925  counter */\n      dup2\n        /* \"lib/Counters.sol\":918:932  counter._value */\n      0x00\n      add\n      sload\n        /* \"lib/Counters.sol\":911:932  return counter._value */\n      swap1\n      pop\n        /* \"lib/Counters.sol\":827:939  function current(Counter storage counter) internal view returns (uint256) {... */\n      swap2\n      swap1\n      pop\n      jump\t// out\n        /* \"lib/ERC20Permit.sol\":3056:3259  function _useNonce(address owner) internal virtual returns (uint256 current) {... */\n    tag_181:\n        /* \"lib/ERC20Permit.sol\":3116:3131  uint256 current */\n      0x00\n        /* \"lib/ERC20Permit.sol\":3143:3173  Counters.Counter storage nonce */\n      dup1\n        /* \"lib/ERC20Permit.sol\":3176:3183  _nonces */\n      0x05\n        /* \"lib/ERC20Permit.sol\":3176:3190  _nonces[owner] */\n      0x00\n        /* \"lib/ERC20Permit.sol\":3184:3189  owner */\n      dup5\n        /* \"lib/ERC20Permit.sol\":3176:3190  _nonces[owner] */\n      0xffffffffffffffffffffffffffffffffffffffff\n      and\n      0xffffffffffffffffffffffffffffffffffffffff\n      and\n      dup2\n      mstore\n      0x20\n      add\n      swap1\n      dup2\n      mstore\n      0x20\n      add\n      0x00\n      keccak256\n        /* \"lib/ERC20Permit.sol\":3143:3190  Counters.Counter storage nonce = _nonces[owner] */\n      swap1\n      pop\n        /* \"lib/ERC20Permit.sol\":3210:3225  nonce.current() */\n      tag_263\n        /* \"lib/ERC20Permit.sol\":3210:3215  nonce */\n      dup2\n        /* \"lib/ERC20Permit.sol\":3210:3223  nonce.current */\n      tag_159\n        /* \"lib/ERC20Permit.sol\":3210:3225  nonce.current() */\n      jump\t// in\n    tag_263:\n        /* \"lib/ERC20Permit.sol\":3200:3225  current = nonce.current() */\n      swap2\n      pop\n        /* \"lib/ERC20Permit.sol\":3235:3252  nonce.increment() */\n      tag_264\n        /* \"lib/ERC20Permit.sol\":3235:3240  nonce */\n      dup2\n        /* \"lib/ERC20Permit.sol\":3235:3250  nonce.increment */\n      tag_265\n        /* \"lib/ERC20Permit.sol\":3235:3252  nonce.increment() */\n      jump\t// in\n    tag_264:\n        /* \"lib/ERC20Permit.sol\":3133:3259  {... */\n      pop\n        /* \"lib/ERC20Permit.sol\":3056:3259  function _useNonce(address owner) internal virtual returns (uint256 current) {... */\n      swap2\n      swap1\n      pop\n      jump\t// out\n        /* \"lib/EIP712.sol\":4339:4504  function _hashTypedDataV4(bytes32 structHash) internal view virtual returns (bytes32) {... */\n    tag_185:\n        /* \"lib/EIP712.sol\":4416:4423  bytes32 */\n      0x00\n        /* \"lib/EIP712.sol\":4442:4497  ECDSA.toTypedDataHash(_domainSeparatorV4(), structHash) */\n      tag_267\n        /* \"lib/EIP712.sol\":4464:4484  _domainSeparatorV4() */\n      tag_268\n        /* \"lib/EIP712.sol\":4464:4482  _domainSeparatorV4 */\n      tag_125\n        /* \"lib/EIP712.sol\":4464:4484  _domainSeparatorV4() */\n      jump\t// in\n    tag_268:\n        /* \"lib/EIP712.sol\":4486:4496  structHash */\n      dup4\n        /* \"lib/EIP712.sol\":4442:4463  ECDSA.toTypedDataHash */\n      tag_269\n        /* \"lib/EIP712.sol\":4442:4497  ECDSA.toTypedDataHash(_domainSeparatorV4(), structHash) */\n      jump\t// in\n    tag_267:\n        /* \"lib/EIP712.sol\":4435:4497  return ECDSA.toTypedDataHash(_domainSeparatorV4(), structHash) */\n      swap1\n      pop\n        /* \"lib/EIP712.sol\":4339:4504  function _hashTypedDataV4(bytes32 structHash) internal view virtual returns (bytes32) {... */\n      swap2\n      swap1\n      pop\n      jump\t// out\n        /* \"lib/ECDSA.sol\":7451:7721  function recover(... */\n    tag_187:\n        /* \"lib/ECDSA.sol\":7574:7581  address */\n      0x00\n        /* \"lib/ECDSA.sol\":7594:7611  address recovered */\n      dup1\n        /* \"lib/ECDSA.sol\":7613:7631  RecoverError error */\n      0x00\n        /* \"lib/ECDSA.sol\":7635:7660  tryRecover(hash, v, r, s) */\n      tag_271\n        /* \"lib/ECDSA.sol\":7646:7650  hash */\n      dup8\n        /* \"lib/ECDSA.sol\":7652:7653  v */\n      dup8\n        /* \"lib/ECDSA.sol\":7655:7656  r */\n      dup8\n        /* \"lib/ECDSA.sol\":7658:7659  s */\n      dup8\n        /* \"lib/ECDSA.sol\":7635:7645  tryRecover */\n      tag_272\n        /* \"lib/ECDSA.sol\":7635:7660  tryRecover(hash, v, r, s) */\n      jump\t// in\n    tag_271:\n        /* \"lib/ECDSA.sol\":7593:7660  (address recovered, RecoverError error) = tryRecover(hash, v, r, s) */\n      swap2\n      pop\n      swap2\n      pop\n        /* \"lib/ECDSA.sol\":7670:7688  _throwError(error) */\n      tag_273\n        /* \"lib/ECDSA.sol\":7682:7687  error */\n      dup2\n        /* \"lib/ECDSA.sol\":7670:7681  _throwError */\n      tag_274\n        /* \"lib/ECDSA.sol\":7670:7688  _throwError(error) */\n      jump\t// in\n    tag_273:\n        /* \"lib/ECDSA.sol\":7705:7714  recovered */\n      dup2\n        /* \"lib/ECDSA.sol\":7698:7714  return recovered */\n      swap3\n      pop\n      pop\n      pop\n        /* \"lib/ECDSA.sol\":7451:7721  function recover(... */\n      swap5\n      swap4\n      pop\n      pop\n      pop\n      pop\n      jump\t// out\n        /* \"tokens/ERC20.sol\":11676:11797  function _beforeTokenTransfer(... */\n    tag_217:\n      pop\n      pop\n      pop\n      jump\t// out\n        /* \"tokens/ERC20.sol\":12385:12505  function _afterTokenTransfer(... */\n    tag_224:\n      pop\n      pop\n      pop\n      jump\t// out\n        /* \"lib/EIP712.sol\":3457:3714  function _buildDomainSeparator(... */\n    tag_230:\n        /* \"lib/EIP712.sol\":3597:3604  bytes32 */\n      0x00\n        /* \"lib/EIP712.sol\":3644:3652  typeHash */\n      dup4\n        /* \"lib/EIP712.sol\":3654:3662  nameHash */\n      dup4\n        /* \"lib/EIP712.sol\":3664:3675  versionHash */\n      dup4\n        /* \"lib/EIP712.sol\":3677:3690  block.chainid */\n      chainid\n        /* \"lib/EIP712.sol\":3700:3704  this */\n      address\n        /* \"lib/EIP712.sol\":3633:3706  abi.encode(typeHash, nameHash, versionHash, block.chainid, address(this)) */\n      add(0x20, mload(0x40))\n      tag_278\n      swap6\n      swap5\n      swap4\n      swap3\n      swap2\n      swap1\n      tag_279\n      jump\t// in\n    tag_278:\n      mload(0x40)\n      0x20\n      dup2\n      dup4\n      sub\n      sub\n      dup2\n      mstore\n      swap1\n      0x40\n      mstore\n        /* \"lib/EIP712.sol\":3623:3707  keccak256(abi.encode(typeHash, nameHash, versionHash, block.chainid, address(this))) */\n      dup1\n      mload\n      swap1\n      0x20\n      add\n      keccak256\n        /* \"lib/EIP712.sol\":3616:3707  return keccak256(abi.encode(typeHash, nameHash, versionHash, block.chainid, address(this))) */\n      swap1\n      pop\n        /* \"lib/EIP712.sol\":3457:3714  function _buildDomainSeparator(... */\n      swap4\n      swap3\n      pop\n      pop\n      pop\n      jump\t// out\n        /* \"lib/Counters.sol\":945:1068  function increment(Counter storage counter) internal {... */\n    tag_265:\n        /* \"lib/Counters.sol\":1050:1051  1 */\n      0x01\n        /* \"lib/Counters.sol\":1032:1039  counter */\n      dup2\n        /* \"lib/Counters.sol\":1032:1046  counter._value */\n      0x00\n      add\n      0x00\n        /* \"lib/Counters.sol\":1032:1051  counter._value += 1 */\n      dup3\n      dup3\n      sload\n      add\n      swap3\n      pop\n      pop\n      dup2\n      swap1\n      sstore\n      pop\n        /* \"lib/Counters.sol\":945:1068  function increment(Counter storage counter) internal {... */\n      pop\n      jump\t// out\n        /* \"lib/ECDSA.sol\":9096:9290  function toTypedDataHash(bytes32 domainSeparator, bytes32 structHash) internal pure returns (bytes32) {... */\n    tag_269:\n        /* \"lib/ECDSA.sol\":9189:9196  bytes32 */\n      0x00\n        /* \"lib/ECDSA.sol\":9254:9269  domainSeparator */\n      dup3\n        /* \"lib/ECDSA.sol\":9271:9281  structHash */\n      dup3\n        /* \"lib/ECDSA.sol\":9225:9282  abi.encodePacked(\"\\x19\\x01\", domainSeparator, structHash) */\n      add(0x20, mload(0x40))\n      tag_282\n      swap3\n      swap2\n      swap1\n      tag_283\n      jump\t// in\n    tag_282:\n      mload(0x40)\n      0x20\n      dup2\n      dup4\n      sub\n      sub\n      dup2\n      mstore\n      swap1\n      0x40\n      mstore\n        /* \"lib/ECDSA.sol\":9215:9283  keccak256(abi.encodePacked(\"\\x19\\x01\", domainSeparator, structHash)) */\n      dup1\n      mload\n      swap1\n      0x20\n      add\n      keccak256\n        /* \"lib/ECDSA.sol\":9208:9283  return keccak256(abi.encodePacked(\"\\x19\\x01\", domainSeparator, structHash)) */\n      swap1\n      pop\n        /* \"lib/ECDSA.sol\":9096:9290  function toTypedDataHash(bytes32 domainSeparator, bytes32 structHash) internal pure returns (bytes32) {... */\n      swap3\n      swap2\n      pop\n      pop\n      jump\t// out\n        /* \"lib/ECDSA.sol\":5715:7318  function tryRecover(... */\n    tag_272:\n        /* \"lib/ECDSA.sol\":5841:5848  address */\n      0x00\n        /* \"lib/ECDSA.sol\":5850:5862  RecoverError */\n      dup1\n        /* \"lib/ECDSA.sol\":6765:6831  0x7FFFFFFFFFFFFFFFFFFFFFFFFFFFFFFF5D576E7357A4501DDFE92F46681B20A0 */\n      0x7fffffffffffffffffffffffffffffff5d576e7357a4501ddfe92f46681b20a0\n        /* \"lib/ECDSA.sol\":6760:6761  s */\n      dup4\n        /* \"lib/ECDSA.sol\":6752:6762  uint256(s) */\n      0x00\n      shr\n        /* \"lib/ECDSA.sol\":6752:6831  uint256(s) > 0x7FFFFFFFFFFFFFFFFFFFFFFFFFFFFFFF5D576E7357A4501DDFE92F46681B20A0 */\n      gt\n        /* \"lib/ECDSA.sol\":6748:6909  if (uint256(s) > 0x7FFFFFFFFFFFFFFFFFFFFFFFFFFFFFFF5D576E7357A4501DDFE92F46681B20A0) {... */\n      iszero\n      tag_285\n      jumpi\n        /* \"lib/ECDSA.sol\":6863:6864  0 */\n      0x00\n        /* \"lib/ECDSA.sol\":6867:6897  RecoverError.InvalidSignatureS */\n      0x03\n        /* \"lib/ECDSA.sol\":6847:6898  return (address(0), RecoverError.InvalidSignatureS) */\n      swap2\n      pop\n      swap2\n      pop\n      jump(tag_284)\n        /* \"lib/ECDSA.sol\":6748:6909  if (uint256(s) > 0x7FFFFFFFFFFFFFFFFFFFFFFFFFFFFFFF5D576E7357A4501DDFE92F46681B20A0) {... */\n    tag_285:\n        /* \"lib/ECDSA.sol\":6927:6929  27 */\n      0x1b\n        /* \"lib/ECDSA.sol\":6922:6923  v */\n      dup6\n        /* \"lib/ECDSA.sol\":6922:6929  v != 27 */\n      0xff\n      and\n      eq\n      iszero\n        /* \"lib/ECDSA.sol\":6922:6940  v != 27 && v != 28 */\n      dup1\n      iszero\n      tag_286\n      jumpi\n      pop\n        /* \"lib/ECDSA.sol\":6938:6940  28 */\n      0x1c\n        /* \"lib/ECDSA.sol\":6933:6934  v */\n      dup6\n        /* \"lib/ECDSA.sol\":6933:6940  v != 28 */\n      0xff\n      and\n      eq\n      iszero\n        /* \"lib/ECDSA.sol\":6922:6940  v != 27 && v != 28 */\n    tag_286:\n        /* \"lib/ECDSA.sol\":6918:7018  if (v != 27 && v != 28) {... */\n      iszero\n      tag_287\n      jumpi\n        /* \"lib/ECDSA.sol\":6972:6973  0 */\n      0x00\n        /* \"lib/ECDSA.sol\":6976:7006  RecoverError.InvalidSignatureV */\n      0x04\n        /* \"lib/ECDSA.sol\":6956:7007  return (address(0), RecoverError.InvalidSignatureV) */\n      swap2\n      pop\n      swap2\n      pop\n      jump(tag_284)\n        /* \"lib/ECDSA.sol\":6918:7018  if (v != 27 && v != 28) {... */\n    tag_287:\n        /* \"lib/ECDSA.sol\":7112:7126  address signer */\n      0x00\n        /* \"lib/ECDSA.sol\":7129:7153  ecrecover(hash, v, r, s) */\n      0x01\n        /* \"lib/ECDSA.sol\":7139:7143  hash */\n      dup8\n        /* \"lib/ECDSA.sol\":7145:7146  v */\n      dup8\n        /* \"lib/ECDSA.sol\":7148:7149  r */\n      dup8\n        /* \"lib/ECDSA.sol\":7151:7152  s */\n      dup8\n        /* \"lib/ECDSA.sol\":7129:7153  ecrecover(hash, v, r, s) */\n      mload(0x40)\n      0x00\n      dup2\n      mstore\n      0x20\n      add\n      0x40\n      mstore\n      mload(0x40)\n      tag_288\n      swap5\n      swap4\n      swap3\n      swap2\n      swap1\n      tag_289\n      jump\t// in\n    tag_288:\n      0x20\n      mload(0x40)\n      0x20\n      dup2\n      sub\n      swap1\n      dup1\n      dup5\n      sub\n      swap1\n      dup6\n      gas\n      staticcall\n      iszero\n      dup1\n      iszero\n      tag_291\n      jumpi\n      returndatasize\n      0x00\n      dup1\n      returndatacopy\n      revert(0x00, returndatasize)\n    tag_291:\n      pop\n      pop\n      pop\n      mload(sub(mload(0x40), 0x20))\n        /* \"lib/ECDSA.sol\":7112:7153  address signer = ecrecover(hash, v, r, s) */\n      swap1\n      pop\n        /* \"lib/ECDSA.sol\":7185:7186  0 */\n      0x00\n        /* \"lib/ECDSA.sol\":7167:7187  signer == address(0) */\n      0xffffffffffffffffffffffffffffffffffffffff\n      and\n        /* \"lib/ECDSA.sol\":7167:7173  signer */\n      dup2\n        /* \"lib/ECDSA.sol\":7167:7187  signer == address(0) */\n      0xffffffffffffffffffffffffffffffffffffffff\n      and\n      sub\n        /* \"lib/ECDSA.sol\":7163:7264  if (signer == address(0)) {... */\n      tag_292\n      jumpi\n        /* \"lib/ECDSA.sol\":7219:7220  0 */\n      0x00\n        /* \"lib/ECDSA.sol\":7223:7252  RecoverError.InvalidSignature */\n      0x01\n        /* \"lib/ECDSA.sol\":7203:7253  return (address(0), RecoverError.InvalidSignature) */\n      swap3\n      pop\n      swap3\n      pop\n      pop\n      jump(tag_284)\n        /* \"lib/ECDSA.sol\":7163:7264  if (signer == address(0)) {... */\n    tag_292:\n        /* \"lib/ECDSA.sol\":7282:7288  signer */\n      dup1\n        /* \"lib/ECDSA.sol\":7290:7310  RecoverError.NoError */\n      0x00\n        /* \"lib/ECDSA.sol\":7274:7311  return (signer, RecoverError.NoError) */\n      swap3\n      pop\n      swap3\n      pop\n      pop\n        /* \"lib/ECDSA.sol\":5715:7318  function tryRecover(... */\n    tag_284:\n      swap5\n      pop\n      swap5\n      swap3\n      pop\n      pop\n      pop\n      jump\t// out\n        /* \"lib/ECDSA.sol\":547:1178  function _throwError(RecoverError error) private pure {... */\n    tag_274:\n        /* \"lib/ECDSA.sol\":624:644  RecoverError.NoError */\n      0x00\n        /* \"lib/ECDSA.sol\":615:644  error == RecoverError.NoError */\n      0x04\n      dup2\n      gt\n      iszero\n      tag_294\n      jumpi\n      tag_295\n      tag_296\n      jump\t// in\n    tag_295:\n    tag_294:\n        /* \"lib/ECDSA.sol\":615:620  error */\n      dup2\n        /* \"lib/ECDSA.sol\":615:644  error == RecoverError.NoError */\n      0x04\n      dup2\n      gt\n      iszero\n      tag_297\n      jumpi\n      tag_298\n      tag_296\n      jump\t// in\n    tag_298:\n    tag_297:\n      sub\n        /* \"lib/ECDSA.sol\":611:1172  if (error == RecoverError.NoError) {... */\n      iszero\n        /* \"lib/ECDSA.sol\":660:667  return; */\n      tag_293\n        /* \"lib/ECDSA.sol\":611:1172  if (error == RecoverError.NoError) {... */\n      jumpi\n        /* \"lib/ECDSA.sol\":720:749  RecoverError.InvalidSignature */\n      0x01\n        /* \"lib/ECDSA.sol\":711:749  error == RecoverError.InvalidSignature */\n      0x04\n      dup2\n      gt\n      iszero\n      tag_301\n      jumpi\n      tag_302\n      tag_296\n      jump\t// in\n    tag_302:\n    tag_301:\n        /* \"lib/ECDSA.sol\":711:716  error */\n      dup2\n        /* \"lib/ECDSA.sol\":711:749  error == RecoverError.InvalidSignature */\n      0x04\n      dup2\n      gt\n      iszero\n      tag_303\n      jumpi\n      tag_304\n      tag_296\n      jump\t// in\n    tag_304:\n    tag_303:\n      sub\n        /* \"lib/ECDSA.sol\":707:1172  if (error == RecoverError.InvalidSignature) {... */\n      tag_305\n      jumpi\n        /* \"lib/ECDSA.sol\":765:799  revert(\"ECDSA: invalid signature\") */\n      mload(0x40)\n      0x08c379a000000000000000000000000000000000000000000000000000000000\n      dup2\n      mstore\n      0x04\n      add\n      tag_306\n      swap1\n      tag_307\n      jump\t// in\n    tag_306:\n      mload(0x40)\n      dup1\n      swap2\n      sub\n      swap1\n      revert\n        /* \"lib/ECDSA.sol\":707:1172  if (error == RecoverError.InvalidSignature) {... */\n    tag_305:\n        /* \"lib/ECDSA.sol\":829:864  RecoverError.InvalidSignatureLength */\n      0x02\n        /* \"lib/ECDSA.sol\":820:864  error == RecoverError.InvalidSignatureLength */\n      0x04\n      dup2\n      gt\n      iszero\n      tag_309\n      jumpi\n      tag_310\n      tag_296\n      jump\t// in\n    tag_310:\n    tag_309:\n        /* \"lib/ECDSA.sol\":820:825  error */\n      dup2\n        /* \"lib/ECDSA.sol\":820:864  error == RecoverError.InvalidSignatureLength */\n      0x04\n      dup2\n      gt\n      iszero\n      tag_311\n      jumpi\n      tag_312\n      tag_296\n      jump\t// in\n    tag_312:\n    tag_311:\n      sub\n        /* \"lib/ECDSA.sol\":816:1172  if (error == RecoverError.InvalidSignatureLength) {... */\n      tag_313\n      jumpi\n        /* \"lib/ECDSA.sol\":880:921  revert(\"ECDSA: invalid signature length\") */\n      mload(0x40)\n      0x08c379a000000000000000000000000000000000000000000000000000000000\n      dup2\n      mstore\n      0x04\n      add\n      tag_314\n      swap1\n      tag_315\n      jump\t// in\n    tag_314:\n      mload(0x40)\n      dup1\n      swap2\n      sub\n      swap1\n      revert\n        /* \"lib/ECDSA.sol\":816:1172  if (error == RecoverError.InvalidSignatureLength) {... */\n    tag_313:\n        /* \"lib/ECDSA.sol\":951:981  RecoverError.InvalidSignatureS */\n      0x03\n        /* \"lib/ECDSA.sol\":942:981  error == RecoverError.InvalidSignatureS */\n      0x04\n      dup2\n      gt\n      iszero\n      tag_317\n      jumpi\n      tag_318\n      tag_296\n      jump\t// in\n    tag_318:\n    tag_317:\n        /* \"lib/ECDSA.sol\":942:947  error */\n      dup2\n        /* \"lib/ECDSA.sol\":942:981  error == RecoverError.InvalidSignatureS */\n      0x04\n      dup2\n      gt\n      iszero\n      tag_319\n      jumpi\n      tag_320\n      tag_296\n      jump\t// in\n    tag_320:\n    tag_319:\n      sub\n        /* \"lib/ECDSA.sol\":938:1172  if (error == RecoverError.InvalidSignatureS) {... */\n      tag_321\n      jumpi\n        /* \"lib/ECDSA.sol\":997:1041  revert(\"ECDSA: invalid signature 's' value\") */\n      mload(0x40)\n      0x08c379a000000000000000000000000000000000000000000000000000000000\n      dup2\n      mstore\n      0x04\n      add\n      tag_322\n      swap1\n      tag_323\n      jump\t// in\n    tag_322:\n      mload(0x40)\n      dup1\n      swap2\n      sub\n      swap1\n      revert\n        /* \"lib/ECDSA.sol\":938:1172  if (error == RecoverError.InvalidSignatureS) {... */\n    tag_321:\n        /* \"lib/ECDSA.sol\":1071:1101  RecoverError.InvalidSignatureV */\n      0x04\n        /* \"lib/ECDSA.sol\":1062:1101  error == RecoverError.InvalidSignatureV */\n      dup1\n      dup2\n      gt\n      iszero\n      tag_325\n      jumpi\n      tag_326\n      tag_296\n      jump\t// in\n    tag_326:\n    tag_325:\n        /* \"lib/ECDSA.sol\":1062:1067  error */\n      dup2\n        /* \"lib/ECDSA.sol\":1062:1101  error == RecoverError.InvalidSignatureV */\n      0x04\n      dup2\n      gt\n      iszero\n      tag_327\n      jumpi\n      tag_328\n      tag_296\n      jump\t// in\n    tag_328:\n    tag_327:\n      sub\n        /* \"lib/ECDSA.sol\":1058:1172  if (error == RecoverError.InvalidSignatureV) {... */\n      tag_329\n      jumpi\n        /* \"lib/ECDSA.sol\":1117:1161  revert(\"ECDSA: invalid signature 'v' value\") */\n      mload(0x40)\n      0x08c379a000000000000000000000000000000000000000000000000000000000\n      dup2\n      mstore\n      0x04\n      add\n      tag_330\n      swap1\n      tag_331\n      jump\t// in\n    tag_330:\n      mload(0x40)\n      dup1\n      swap2\n      sub\n      swap1\n      revert\n        /* \"lib/ECDSA.sol\":1058:1172  if (error == RecoverError.InvalidSignatureV) {... */\n    tag_329:\n        /* \"lib/ECDSA.sol\":547:1178  function _throwError(RecoverError error) private pure {... */\n    tag_293:\n      pop\n      jump\t// out\n        /* \"#utility.yul\":7:106   */\n    tag_332:\n        /* \"#utility.yul\":59:65   */\n      0x00\n        /* \"#utility.yul\":93:98   */\n      dup2\n        /* \"#utility.yul\":87:99   */\n      mload\n        /* \"#utility.yul\":77:99   */\n      swap1\n      pop\n        /* \"#utility.yul\":7:106   */\n      swap2\n      swap1\n      pop\n      jump\t// out\n        /* \"#utility.yul\":112:281   */\n    tag_333:\n        /* \"#utility.yul\":196:207   */\n      0x00\n        /* \"#utility.yul\":230:236   */\n      dup3\n        /* \"#utility.yul\":225:228   */\n      dup3\n        /* \"#utility.yul\":218:237   */\n      mstore\n        /* \"#utility.yul\":270:274   */\n      0x20\n        /* \"#utility.yul\":265:268   */\n      dup3\n        /* \"#utility.yul\":261:275   */\n      add\n        /* \"#utility.yul\":246:275   */\n      swap1\n      pop\n        /* \"#utility.yul\":112:281   */\n      swap3\n      swap2\n      pop\n      pop\n      jump\t// out\n        /* \"#utility.yul\":287:594   */\n    tag_334:\n        /* \"#utility.yul\":355:356   */\n      0x00\n        /* \"#utility.yul\":365:478   */\n    tag_415:\n        /* \"#utility.yul\":379:385   */\n      dup4\n        /* \"#utility.yul\":376:377   */\n      dup2\n        /* \"#utility.yul\":373:386   */\n      lt\n        /* \"#utility.yul\":365:478   */\n      iszero\n      tag_417\n      jumpi\n        /* \"#utility.yul\":464:465   */\n      dup1\n        /* \"#utility.yul\":459:462   */\n      dup3\n        /* \"#utility.yul\":455:466   */\n      add\n        /* \"#utility.yul\":449:467   */\n      mload\n        /* \"#utility.yul\":445:446   */\n      dup2\n        /* \"#utility.yul\":440:443   */\n      dup5\n        /* \"#utility.yul\":436:447   */\n      add\n        /* \"#utility.yul\":429:468   */\n      mstore\n        /* \"#utility.yul\":401:403   */\n      0x20\n        /* \"#utility.yul\":398:399   */\n      dup2\n        /* \"#utility.yul\":394:404   */\n      add\n        /* \"#utility.yul\":389:404   */\n      swap1\n      pop\n        /* \"#utility.yul\":365:478   */\n      jump(tag_415)\n    tag_417:\n        /* \"#utility.yul\":496:502   */\n      dup4\n        /* \"#utility.yul\":493:494   */\n      dup2\n        /* \"#utility.yul\":490:503   */\n      gt\n        /* \"#utility.yul\":487:588   */\n      iszero\n      tag_418\n      jumpi\n        /* \"#utility.yul\":576:577   */\n      0x00\n        /* \"#utility.yul\":567:573   */\n      dup5\n        /* \"#utility.yul\":562:565   */\n      dup5\n        /* \"#utility.yul\":558:574   */\n      add\n        /* \"#utility.yul\":551:578   */\n      mstore\n        /* \"#utility.yul\":487:588   */\n    tag_418:\n        /* \"#utility.yul\":336:594   */\n      pop\n        /* \"#utility.yul\":287:594   */\n      pop\n      pop\n      pop\n      jump\t// out\n        /* \"#utility.yul\":600:702   */\n    tag_335:\n        /* \"#utility.yul\":641:647   */\n      0x00\n        /* \"#utility.yul\":692:694   */\n      0x1f\n        /* \"#utility.yul\":688:695   */\n      not\n        /* \"#utility.yul\":683:685   */\n      0x1f\n        /* \"#utility.yul\":676:681   */\n      dup4\n        /* \"#utility.yul\":672:686   */\n      add\n        /* \"#utility.yul\":668:696   */\n      and\n        /* \"#utility.yul\":658:696   */\n      swap1\n      pop\n        /* \"#utility.yul\":600:702   */\n      swap2\n      swap1\n      pop\n      jump\t// out\n        /* \"#utility.yul\":708:1072   */\n    tag_336:\n        /* \"#utility.yul\":796:799   */\n      0x00\n        /* \"#utility.yul\":824:863   */\n      tag_421\n        /* \"#utility.yul\":857:862   */\n      dup3\n        /* \"#utility.yul\":824:863   */\n      tag_332\n      jump\t// in\n    tag_421:\n        /* \"#utility.yul\":879:950   */\n      tag_422\n        /* \"#utility.yul\":943:949   */\n      dup2\n        /* \"#utility.yul\":938:941   */\n      dup6\n        /* \"#utility.yul\":879:950   */\n      tag_333\n      jump\t// in\n    tag_422:\n        /* \"#utility.yul\":872:950   */\n      swap4\n      pop\n        /* \"#utility.yul\":959:1011   */\n      tag_423\n        /* \"#utility.yul\":1004:1010   */\n      dup2\n        /* \"#utility.yul\":999:1002   */\n      dup6\n        /* \"#utility.yul\":992:996   */\n      0x20\n        /* \"#utility.yul\":985:990   */\n      dup7\n        /* \"#utility.yul\":981:997   */\n      add\n        /* \"#utility.yul\":959:1011   */\n      tag_334\n      jump\t// in\n    tag_423:\n        /* \"#utility.yul\":1036:1065   */\n      tag_424\n        /* \"#utility.yul\":1058:1064   */\n      dup2\n        /* \"#utility.yul\":1036:1065   */\n      tag_335\n      jump\t// in\n    tag_424:\n        /* \"#utility.yul\":1031:1034   */\n      dup5\n        /* \"#utility.yul\":1027:1066   */\n      add\n        /* \"#utility.yul\":1020:1066   */\n      swap2\n      pop\n        /* \"#utility.yul\":800:1072   */\n      pop\n        /* \"#utility.yul\":708:1072   */\n      swap3\n      swap2\n      pop\n      pop\n      jump\t// out\n        /* \"#utility.yul\":1078:1391   */\n    tag_28:\n        /* \"#utility.yul\":1191:1195   */\n      0x00\n        /* \"#utility.yul\":1229:1231   */\n      0x20\n        /* \"#utility.yul\":1218:1227   */\n      dup3\n        /* \"#utility.yul\":1214:1232   */\n      add\n        /* \"#utility.yul\":1206:1232   */\n      swap1\n      pop\n        /* \"#utility.yul\":1278:1287   */\n      dup2\n        /* \"#utility.yul\":1272:1276   */\n      dup2\n        /* \"#utility.yul\":1268:1288   */\n      sub\n        /* \"#utility.yul\":1264:1265   */\n      0x00\n        /* \"#utility.yul\":1253:1262   */\n      dup4\n        /* \"#utility.yul\":1249:1266   */\n      add\n        /* \"#utility.yul\":1242:1289   */\n      mstore\n        /* \"#utility.yul\":1306:1384   */\n      tag_426\n        /* \"#utility.yul\":1379:1383   */\n      dup2\n        /* \"#utility.yul\":1370:1376   */\n      dup5\n        /* \"#utility.yul\":1306:1384   */\n      tag_336\n      jump\t// in\n    tag_426:\n        /* \"#utility.yul\":1298:1384   */\n      swap1\n      pop\n        /* \"#utility.yul\":1078:1391   */\n      swap3\n      swap2\n      pop\n      pop\n      jump\t// out\n        /* \"#utility.yul\":1478:1595   */\n    tag_338:\n        /* \"#utility.yul\":1587:1588   */\n      0x00\n        /* \"#utility.yul\":1584:1585   */\n      dup1\n        /* \"#utility.yul\":1577:1589   */\n      revert\n        /* \"#utility.yul\":1724:1850   */\n    tag_340:\n        /* \"#utility.yul\":1761:1768   */\n      0x00\n        /* \"#utility.yul\":1801:1843   */\n      0xffffffffffffffffffffffffffffffffffffffff\n        /* \"#utility.yul\":1794:1799   */\n      dup3\n        /* \"#utility.yul\":1790:1844   */\n      and\n        /* \"#utility.yul\":1779:1844   */\n      swap1\n      pop\n        /* \"#utility.yul\":1724:1850   */\n      swap2\n      swap1\n      pop\n      jump\t// out\n        /* \"#utility.yul\":1856:1952   */\n    tag_341:\n        /* \"#utility.yul\":1893:1900   */\n      0x00\n        /* \"#utility.yul\":1922:1946   */\n      tag_432\n        /* \"#utility.yul\":1940:1945   */\n      dup3\n        /* \"#utility.yul\":1922:1946   */\n      tag_340\n      jump\t// in\n    tag_432:\n        /* \"#utility.yul\":1911:1946   */\n      swap1\n      pop\n        /* \"#utility.yul\":1856:1952   */\n      swap2\n      swap1\n      pop\n      jump\t// out\n        /* \"#utility.yul\":1958:2080   */\n    tag_342:\n        /* \"#utility.yul\":2031:2055   */\n      tag_434\n        /* \"#utility.yul\":2049:2054   */\n      dup2\n        /* \"#utility.yul\":2031:2055   */\n      tag_341\n      jump\t// in\n    tag_434:\n        /* \"#utility.yul\":2024:2029   */\n      dup2\n        /* \"#utility.yul\":2021:2056   */\n      eq\n        /* \"#utility.yul\":2011:2074   */\n      tag_435\n      jumpi\n        /* \"#utility.yul\":2070:2071   */\n      0x00\n        /* \"#utility.yul\":2067:2068   */\n      dup1\n        /* \"#utility.yul\":2060:2072   */\n      revert\n        /* \"#utility.yul\":2011:2074   */\n    tag_435:\n        /* \"#utility.yul\":1958:2080   */\n      pop\n      jump\t// out\n        /* \"#utility.yul\":2086:2225   */\n    tag_343:\n        /* \"#utility.yul\":2132:2137   */\n      0x00\n        /* \"#utility.yul\":2170:2176   */\n      dup2\n        /* \"#utility.yul\":2157:2177   */\n      calldataload\n        /* \"#utility.yul\":2148:2177   */\n      swap1\n      pop\n        /* \"#utility.yul\":2186:2219   */\n      tag_437\n        /* \"#utility.yul\":2213:2218   */\n      dup2\n        /* \"#utility.yul\":2186:2219   */\n      tag_342\n      jump\t// in\n    tag_437:\n        /* \"#utility.yul\":2086:2225   */\n      swap3\n      swap2\n      pop\n      pop\n      jump\t// out\n        /* \"#utility.yul\":2231:2308   */\n    tag_344:\n        /* \"#utility.yul\":2268:2275   */\n      0x00\n        /* \"#utility.yul\":2297:2302   */\n      dup2\n        /* \"#utility.yul\":2286:2302   */\n      swap1\n      pop\n        /* \"#utility.yul\":2231:2308   */\n      swap2\n      swap1\n      pop\n      jump\t// out\n        /* \"#utility.yul\":2314:2436   */\n    tag_345:\n        /* \"#utility.yul\":2387:2411   */\n      tag_440\n        /* \"#utility.yul\":2405:2410   */\n      dup2\n        /* \"#utility.yul\":2387:2411   */\n      tag_344\n      jump\t// in\n    tag_440:\n        /* \"#utility.yul\":2380:2385   */\n      dup2\n        /* \"#utility.yul\":2377:2412   */\n      eq\n        /* \"#utility.yul\":2367:2430   */\n      tag_441\n      jumpi\n        /* \"#utility.yul\":2426:2427   */\n      0x00\n        /* \"#utility.yul\":2423:2424   */\n      dup1\n        /* \"#utility.yul\":2416:2428   */\n      revert\n        /* \"#utility.yul\":2367:2430   */\n    tag_441:\n        /* \"#utility.yul\":2314:2436   */\n      pop\n      jump\t// out\n        /* \"#utility.yul\":2442:2581   */\n    tag_346:\n        /* \"#utility.yul\":2488:2493   */\n      0x00\n        /* \"#utility.yul\":2526:2532   */\n      dup2\n        /* \"#utility.yul\":2513:2533   */\n      calldataload\n        /* \"#utility.yul\":2504:2533   */\n      swap1\n      pop\n        /* \"#utility.yul\":2542:2575   */\n      tag_443\n        /* \"#utility.yul\":2569:2574   */\n      dup2\n        /* \"#utility.yul\":2542:2575   */\n      tag_345\n      jump\t// in\n    tag_443:\n        /* \"#utility.yul\":2442:2581   */\n      swap3\n      swap2\n      pop\n      pop\n      jump\t// out\n        /* \"#utility.yul\":2587:3061   */\n    tag_31:\n        /* \"#utility.yul\":2655:2661   */\n      0x00\n        /* \"#utility.yul\":2663:2669   */\n      dup1\n        /* \"#utility.yul\":2712:2714   */\n      0x40\n        /* \"#utility.yul\":2700:2709   */\n      dup4\n        /* \"#utility.yul\":2691:2698   */\n      dup6\n        /* \"#utility.yul\":2687:2710   */\n      sub\n        /* \"#utility.yul\":2683:2715   */\n      slt\n        /* \"#utility.yul\":2680:2799   */\n      iszero\n      tag_445\n      jumpi\n        /* \"#utility.yul\":2718:2797   */\n      tag_446\n      tag_338\n      jump\t// in\n    tag_446:\n        /* \"#utility.yul\":2680:2799   */\n    tag_445:\n        /* \"#utility.yul\":2838:2839   */\n      0x00\n        /* \"#utility.yul\":2863:2916   */\n      tag_447\n        /* \"#utility.yul\":2908:2915   */\n      dup6\n        /* \"#utility.yul\":2899:2905   */\n      dup3\n        /* \"#utility.yul\":2888:2897   */\n      dup7\n        /* \"#utility.yul\":2884:2906   */\n      add\n        /* \"#utility.yul\":2863:2916   */\n      tag_343\n      jump\t// in\n    tag_447:\n        /* \"#utility.yul\":2853:2916   */\n      swap3\n      pop\n        /* \"#utility.yul\":2809:2926   */\n      pop\n        /* \"#utility.yul\":2965:2967   */\n      0x20\n        /* \"#utility.yul\":2991:3044   */\n      tag_448\n        /* \"#utility.yul\":3036:3043   */\n      dup6\n        /* \"#utility.yul\":3027:3033   */\n      dup3\n        /* \"#utility.yul\":3016:3025   */\n      dup7\n        /* \"#utility.yul\":3012:3034   */\n      add\n        /* \"#utility.yul\":2991:3044   */\n      tag_346\n      jump\t// in\n    tag_448:\n        /* \"#utility.yul\":2981:3044   */\n      swap2\n      pop\n        /* \"#utility.yul\":2936:3054   */\n      pop\n        /* \"#utility.yul\":2587:3061   */\n      swap3\n      pop\n      swap3\n      swap1\n      pop\n      jump\t// out\n        /* \"#utility.yul\":3067:3157   */\n    tag_347:\n        /* \"#utility.yul\":3101:3108   */\n      0x00\n        /* \"#utility.yul\":3144:3149   */\n      dup2\n        /* \"#utility.yul\":3137:3150   */\n      iszero\n        /* \"#utility.yul\":3130:3151   */\n      iszero\n        /* \"#utility.yul\":3119:3151   */\n      swap1\n      pop\n        /* \"#utility.yul\":3067:3157   */\n      swap2\n      swap1\n      pop\n      jump\t// out\n        /* \"#utility.yul\":3163:3272   */\n    tag_348:\n        /* \"#utility.yul\":3244:3265   */\n      tag_451\n        /* \"#utility.yul\":3259:3264   */\n      dup2\n        /* \"#utility.yul\":3244:3265   */\n      tag_347\n      jump\t// in\n    tag_451:\n        /* \"#utility.yul\":3239:3242   */\n      dup3\n        /* \"#utility.yul\":3232:3266   */\n      mstore\n        /* \"#utility.yul\":3163:3272   */\n      pop\n      pop\n      jump\t// out\n        /* \"#utility.yul\":3278:3488   */\n    tag_34:\n        /* \"#utility.yul\":3365:3369   */\n      0x00\n        /* \"#utility.yul\":3403:3405   */\n      0x20\n        /* \"#utility.yul\":3392:3401   */\n      dup3\n        /* \"#utility.yul\":3388:3406   */\n      add\n        /* \"#utility.yul\":3380:3406   */\n      swap1\n      pop\n        /* \"#utility.yul\":3416:3481   */\n      tag_453\n        /* \"#utility.yul\":3478:3479   */\n      0x00\n        /* \"#utility.yul\":3467:3476   */\n      dup4\n        /* \"#utility.yul\":3463:3480   */\n      add\n        /* \"#utility.yul\":3454:3460   */\n      dup5\n        /* \"#utility.yul\":3416:3481   */\n      tag_348\n      jump\t// in\n    tag_453:\n        /* \"#utility.yul\":3278:3488   */\n      swap3\n      swap2\n      pop\n      pop\n      jump\t// out\n        /* \"#utility.yul\":3494:3612   */\n    tag_349:\n        /* \"#utility.yul\":3581:3605   */\n      tag_455\n        /* \"#utility.yul\":3599:3604   */\n      dup2\n        /* \"#utility.yul\":3581:3605   */\n      tag_344\n      jump\t// in\n    tag_455:\n        /* \"#utility.yul\":3576:3579   */\n      dup3\n        /* \"#utility.yul\":3569:3606   */\n      mstore\n        /* \"#utility.yul\":3494:3612   */\n      pop\n      pop\n      jump\t// out\n        /* \"#utility.yul\":3618:3840   */\n    tag_38:\n        /* \"#utility.yul\":3711:3715   */\n      0x00\n        /* \"#utility.yul\":3749:3751   */\n      0x20\n        /* \"#utility.yul\":3738:3747   */\n      dup3\n        /* \"#utility.yul\":3734:3752   */\n      add\n        /* \"#utility.yul\":3726:3752   */\n      swap1\n      pop\n        /* \"#utility.yul\":3762:3833   */\n      tag_457\n        /* \"#utility.yul\":3830:3831   */\n      0x00\n        /* \"#utility.yul\":3819:3828   */\n      dup4\n        /* \"#utility.yul\":3815:3832   */\n      add\n        /* \"#utility.yul\":3806:3812   */\n      dup5\n        /* \"#utility.yul\":3762:3833   */\n      tag_349\n      jump\t// in\n    tag_457:\n        /* \"#utility.yul\":3618:3840   */\n      swap3\n      swap2\n      pop\n      pop\n      jump\t// out\n        /* \"#utility.yul\":3846:4465   */\n    tag_41:\n        /* \"#utility.yul\":3923:3929   */\n      0x00\n        /* \"#utility.yul\":3931:3937   */\n      dup1\n        /* \"#utility.yul\":3939:3945   */\n      0x00\n        /* \"#utility.yul\":3988:3990   */\n      0x60\n        /* \"#utility.yul\":3976:3985   */\n      dup5\n        /* \"#utility.yul\":3967:3974   */\n      dup7\n        /* \"#utility.yul\":3963:3986   */\n      sub\n        /* \"#utility.yul\":3959:3991   */\n      slt\n        /* \"#utility.yul\":3956:4075   */\n      iszero\n      tag_459\n      jumpi\n        /* \"#utility.yul\":3994:4073   */\n      tag_460\n      tag_338\n      jump\t// in\n    tag_460:\n        /* \"#utility.yul\":3956:4075   */\n    tag_459:\n        /* \"#utility.yul\":4114:4115   */\n      0x00\n        /* \"#utility.yul\":4139:4192   */\n      tag_461\n        /* \"#utility.yul\":4184:4191   */\n      dup7\n        /* \"#utility.yul\":4175:4181   */\n      dup3\n        /* \"#utility.yul\":4164:4173   */\n      dup8\n        /* \"#utility.yul\":4160:4182   */\n      add\n        /* \"#utility.yul\":4139:4192   */\n      tag_343\n      jump\t// in\n    tag_461:\n        /* \"#utility.yul\":4129:4192   */\n      swap4\n      pop\n        /* \"#utility.yul\":4085:4202   */\n      pop\n        /* \"#utility.yul\":4241:4243   */\n      0x20\n        /* \"#utility.yul\":4267:4320   */\n      tag_462\n        /* \"#utility.yul\":4312:4319   */\n      dup7\n        /* \"#utility.yul\":4303:4309   */\n      dup3\n        /* \"#utility.yul\":4292:4301   */\n      dup8\n        /* \"#utility.yul\":4288:4310   */\n      add\n        /* \"#utility.yul\":4267:4320   */\n      tag_343\n      jump\t// in\n    tag_462:\n        /* \"#utility.yul\":4257:4320   */\n      swap3\n      pop\n        /* \"#utility.yul\":4212:4330   */\n      pop\n        /* \"#utility.yul\":4369:4371   */\n      0x40\n        /* \"#utility.yul\":4395:4448   */\n      tag_463\n        /* \"#utility.yul\":4440:4447   */\n      dup7\n        /* \"#utility.yul\":4431:4437   */\n      dup3\n        /* \"#utility.yul\":4420:4429   */\n      dup8\n        /* \"#utility.yul\":4416:4438   */\n      add\n        /* \"#utility.yul\":4395:4448   */\n      tag_346\n      jump\t// in\n    tag_463:\n        /* \"#utility.yul\":4385:4448   */\n      swap2\n      pop\n        /* \"#utility.yul\":4340:4458   */\n      pop\n        /* \"#utility.yul\":3846:4465   */\n      swap3\n      pop\n      swap3\n      pop\n      swap3\n      jump\t// out\n        /* \"#utility.yul\":4471:4557   */\n    tag_350:\n        /* \"#utility.yul\":4506:4513   */\n      0x00\n        /* \"#utility.yul\":4546:4550   */\n      0xff\n        /* \"#utility.yul\":4539:4544   */\n      dup3\n        /* \"#utility.yul\":4535:4551   */\n      and\n        /* \"#utility.yul\":4524:4551   */\n      swap1\n      pop\n        /* \"#utility.yul\":4471:4557   */\n      swap2\n      swap1\n      pop\n      jump\t// out\n        /* \"#utility.yul\":4563:4675   */\n    tag_351:\n        /* \"#utility.yul\":4646:4668   */\n      tag_466\n        /* \"#utility.yul\":4662:4667   */\n      dup2\n        /* \"#utility.yul\":4646:4668   */\n      tag_350\n      jump\t// in\n    tag_466:\n        /* \"#utility.yul\":4641:4644   */\n      dup3\n        /* \"#utility.yul\":4634:4669   */\n      mstore\n        /* \"#utility.yul\":4563:4675   */\n      pop\n      pop\n      jump\t// out\n        /* \"#utility.yul\":4681:4895   */\n    tag_47:\n        /* \"#utility.yul\":4770:4774   */\n      0x00\n        /* \"#utility.yul\":4808:4810   */\n      0x20\n        /* \"#utility.yul\":4797:4806   */\n      dup3\n        /* \"#utility.yul\":4793:4811   */\n      add\n        /* \"#utility.yul\":4785:4811   */\n      swap1\n      pop\n        /* \"#utility.yul\":4821:4888   */\n      tag_468\n        /* \"#utility.yul\":4885:4886   */\n      0x00\n        /* \"#utility.yul\":4874:4883   */\n      dup4\n        /* \"#utility.yul\":4870:4887   */\n      add\n        /* \"#utility.yul\":4861:4867   */\n      dup5\n        /* \"#utility.yul\":4821:4888   */\n      tag_351\n      jump\t// in\n    tag_468:\n        /* \"#utility.yul\":4681:4895   */\n      swap3\n      swap2\n      pop\n      pop\n      jump\t// out\n        /* \"#utility.yul\":4901:4978   */\n    tag_352:\n        /* \"#utility.yul\":4938:4945   */\n      0x00\n        /* \"#utility.yul\":4967:4972   */\n      dup2\n        /* \"#utility.yul\":4956:4972   */\n      swap1\n      pop\n        /* \"#utility.yul\":4901:4978   */\n      swap2\n      swap1\n      pop\n      jump\t// out\n        /* \"#utility.yul\":4984:5102   */\n    tag_353:\n        /* \"#utility.yul\":5071:5095   */\n      tag_471\n        /* \"#utility.yul\":5089:5094   */\n      dup2\n        /* \"#utility.yul\":5071:5095   */\n      tag_352\n      jump\t// in\n    tag_471:\n        /* \"#utility.yul\":5066:5069   */\n      dup3\n        /* \"#utility.yul\":5059:5096   */\n      mstore\n        /* \"#utility.yul\":4984:5102   */\n      pop\n      pop\n      jump\t// out\n        /* \"#utility.yul\":5108:5330   */\n    tag_51:\n        /* \"#utility.yul\":5201:5205   */\n      0x00\n        /* \"#utility.yul\":5239:5241   */\n      0x20\n        /* \"#utility.yul\":5228:5237   */\n      dup3\n        /* \"#utility.yul\":5224:5242   */\n      add\n        /* \"#utility.yul\":5216:5242   */\n      swap1\n      pop\n        /* \"#utility.yul\":5252:5323   */\n      tag_473\n        /* \"#utility.yul\":5320:5321   */\n      0x00\n        /* \"#utility.yul\":5309:5318   */\n      dup4\n        /* \"#utility.yul\":5305:5322   */\n      add\n        /* \"#utility.yul\":5296:5302   */\n      dup5\n        /* \"#utility.yul\":5252:5323   */\n      tag_353\n      jump\t// in\n    tag_473:\n        /* \"#utility.yul\":5108:5330   */\n      swap3\n      swap2\n      pop\n      pop\n      jump\t// out\n        /* \"#utility.yul\":5336:5665   */\n    tag_61:\n        /* \"#utility.yul\":5395:5401   */\n      0x00\n        /* \"#utility.yul\":5444:5446   */\n      0x20\n        /* \"#utility.yul\":5432:5441   */\n      dup3\n        /* \"#utility.yul\":5423:5430   */\n      dup5\n        /* \"#utility.yul\":5419:5442   */\n      sub\n        /* \"#utility.yul\":5415:5447   */\n      slt\n        /* \"#utility.yul\":5412:5531   */\n      iszero\n      tag_475\n      jumpi\n        /* \"#utility.yul\":5450:5529   */\n      tag_476\n      tag_338\n      jump\t// in\n    tag_476:\n        /* \"#utility.yul\":5412:5531   */\n    tag_475:\n        /* \"#utility.yul\":5570:5571   */\n      0x00\n        /* \"#utility.yul\":5595:5648   */\n      tag_477\n        /* \"#utility.yul\":5640:5647   */\n      dup5\n        /* \"#utility.yul\":5631:5637   */\n      dup3\n        /* \"#utility.yul\":5620:5629   */\n      dup6\n        /* \"#utility.yul\":5616:5638   */\n      add\n        /* \"#utility.yul\":5595:5648   */\n      tag_346\n      jump\t// in\n    tag_477:\n        /* \"#utility.yul\":5585:5648   */\n      swap2\n      pop\n        /* \"#utility.yul\":5541:5658   */\n      pop\n        /* \"#utility.yul\":5336:5665   */\n      swap3\n      swap2\n      pop\n      pop\n      jump\t// out\n        /* \"#utility.yul\":5671:6000   */\n    tag_65:\n        /* \"#utility.yul\":5730:5736   */\n      0x00\n        /* \"#utility.yul\":5779:5781   */\n      0x20\n        /* \"#utility.yul\":5767:5776   */\n      dup3\n        /* \"#utility.yul\":5758:5765   */\n      dup5\n        /* \"#utility.yul\":5754:5777   */\n      sub\n        /* \"#utility.yul\":5750:5782   */\n      slt\n        /* \"#utility.yul\":5747:5866   */\n      iszero\n      tag_479\n      jumpi\n        /* \"#utility.yul\":5785:5864   */\n      tag_480\n      tag_338\n      jump\t// in\n    tag_480:\n        /* \"#utility.yul\":5747:5866   */\n    tag_479:\n        /* \"#utility.yul\":5905:5906   */\n      0x00\n        /* \"#utility.yul\":5930:5983   */\n      tag_481\n        /* \"#utility.yul\":5975:5982   */\n      dup5\n        /* \"#utility.yul\":5966:5972   */\n      dup3\n        /* \"#utility.yul\":5955:5964   */\n      dup6\n        /* \"#utility.yul\":5951:5973   */\n      add\n        /* \"#utility.yul\":5930:5983   */\n      tag_343\n      jump\t// in\n    tag_481:\n        /* \"#utility.yul\":5920:5983   */\n      swap2\n      pop\n        /* \"#utility.yul\":5876:5993   */\n      pop\n        /* \"#utility.yul\":5671:6000   */\n      swap3\n      swap2\n      pop\n      pop\n      jump\t// out\n        /* \"#utility.yul\":6006:6129   */\n    tag_354:\n        /* \"#utility.yul\":6070:6077   */\n      0x00\n        /* \"#utility.yul\":6099:6123   */\n      tag_483\n        /* \"#utility.yul\":6117:6122   */\n      dup3\n        /* \"#utility.yul\":6099:6123   */\n      tag_341\n      jump\t// in\n    tag_483:\n        /* \"#utility.yul\":6088:6123   */\n      swap1\n      pop\n        /* \"#utility.yul\":6006:6129   */\n      swap2\n      swap1\n      pop\n      jump\t// out\n        /* \"#utility.yul\":6135:6311   */\n    tag_355:\n        /* \"#utility.yul\":6235:6286   */\n      tag_485\n        /* \"#utility.yul\":6280:6285   */\n      dup2\n        /* \"#utility.yul\":6235:6286   */\n      tag_354\n      jump\t// in\n    tag_485:\n        /* \"#utility.yul\":6228:6233   */\n      dup2\n        /* \"#utility.yul\":6225:6287   */\n      eq\n        /* \"#utility.yul\":6215:6305   */\n      tag_486\n      jumpi\n        /* \"#utility.yul\":6301:6302   */\n      0x00\n        /* \"#utility.yul\":6298:6299   */\n      dup1\n        /* \"#utility.yul\":6291:6303   */\n      revert\n        /* \"#utility.yul\":6215:6305   */\n    tag_486:\n        /* \"#utility.yul\":6135:6311   */\n      pop\n      jump\t// out\n        /* \"#utility.yul\":6317:6510   */\n    tag_356:\n        /* \"#utility.yul\":6390:6395   */\n      0x00\n        /* \"#utility.yul\":6428:6434   */\n      dup2\n        /* \"#utility.yul\":6415:6435   */\n      calldataload\n        /* \"#utility.yul\":6406:6435   */\n      swap1\n      pop\n        /* \"#utility.yul\":6444:6504   */\n      tag_488\n        /* \"#utility.yul\":6498:6503   */\n      dup2\n        /* \"#utility.yul\":6444:6504   */\n      tag_355\n      jump\t// in\n    tag_488:\n        /* \"#utility.yul\":6317:6510   */\n      swap3\n      swap2\n      pop\n      pop\n      jump\t// out\n        /* \"#utility.yul\":6516:6899   */\n    tag_73:\n        /* \"#utility.yul\":6602:6608   */\n      0x00\n        /* \"#utility.yul\":6651:6653   */\n      0x20\n        /* \"#utility.yul\":6639:6648   */\n      dup3\n        /* \"#utility.yul\":6630:6637   */\n      dup5\n        /* \"#utility.yul\":6626:6649   */\n      sub\n        /* \"#utility.yul\":6622:6654   */\n      slt\n        /* \"#utility.yul\":6619:6738   */\n      iszero\n      tag_490\n      jumpi\n        /* \"#utility.yul\":6657:6736   */\n      tag_491\n      tag_338\n      jump\t// in\n    tag_491:\n        /* \"#utility.yul\":6619:6738   */\n    tag_490:\n        /* \"#utility.yul\":6777:6778   */\n      0x00\n        /* \"#utility.yul\":6802:6882   */\n      tag_492\n        /* \"#utility.yul\":6874:6881   */\n      dup5\n        /* \"#utility.yul\":6865:6871   */\n      dup3\n        /* \"#utility.yul\":6854:6863   */\n      dup6\n        /* \"#utility.yul\":6850:6872   */\n      add\n        /* \"#utility.yul\":6802:6882   */\n      tag_356\n      jump\t// in\n    tag_492:\n        /* \"#utility.yul\":6792:6882   */\n      swap2\n      pop\n        /* \"#utility.yul\":6748:6892   */\n      pop\n        /* \"#utility.yul\":6516:6899   */\n      swap3\n      swap2\n      pop\n      pop\n      jump\t// out\n        /* \"#utility.yul\":6905:6965   */\n    tag_357:\n        /* \"#utility.yul\":6933:6936   */\n      0x00\n        /* \"#utility.yul\":6954:6959   */\n      dup2\n        /* \"#utility.yul\":6947:6959   */\n      swap1\n      pop\n        /* \"#utility.yul\":6905:6965   */\n      swap2\n      swap1\n      pop\n      jump\t// out\n        /* \"#utility.yul\":6971:7113   */\n    tag_358:\n        /* \"#utility.yul\":7021:7030   */\n      0x00\n        /* \"#utility.yul\":7054:7107   */\n      tag_495\n        /* \"#utility.yul\":7072:7106   */\n      tag_496\n        /* \"#utility.yul\":7081:7105   */\n      tag_497\n        /* \"#utility.yul\":7099:7104   */\n      dup5\n        /* \"#utility.yul\":7081:7105   */\n      tag_340\n      jump\t// in\n    tag_497:\n        /* \"#utility.yul\":7072:7106   */\n      tag_357\n      jump\t// in\n    tag_496:\n        /* \"#utility.yul\":7054:7107   */\n      tag_340\n      jump\t// in\n    tag_495:\n        /* \"#utility.yul\":7041:7107   */\n      swap1\n      pop\n        /* \"#utility.yul\":6971:7113   */\n      swap2\n      swap1\n      pop\n      jump\t// out\n        /* \"#utility.yul\":7119:7245   */\n    tag_359:\n        /* \"#utility.yul\":7169:7178   */\n      0x00\n        /* \"#utility.yul\":7202:7239   */\n      tag_499\n        /* \"#utility.yul\":7233:7238   */\n      dup3\n        /* \"#utility.yul\":7202:7239   */\n      tag_358\n      jump\t// in\n    tag_499:\n        /* \"#utility.yul\":7189:7239   */\n      swap1\n      pop\n        /* \"#utility.yul\":7119:7245   */\n      swap2\n      swap1\n      pop\n      jump\t// out\n        /* \"#utility.yul\":7251:7404   */\n    tag_360:\n        /* \"#utility.yul\":7328:7337   */\n      0x00\n        /* \"#utility.yul\":7361:7398   */\n      tag_501\n        /* \"#utility.yul\":7392:7397   */\n      dup3\n        /* \"#utility.yul\":7361:7398   */\n      tag_359\n      jump\t// in\n    tag_501:\n        /* \"#utility.yul\":7348:7398   */\n      swap1\n      pop\n        /* \"#utility.yul\":7251:7404   */\n      swap2\n      swap1\n      pop\n      jump\t// out\n        /* \"#utility.yul\":7410:7595   */\n    tag_361:\n        /* \"#utility.yul\":7524:7588   */\n      tag_503\n        /* \"#utility.yul\":7582:7587   */\n      dup2\n        /* \"#utility.yul\":7524:7588   */\n      tag_360\n      jump\t// in\n    tag_503:\n        /* \"#utility.yul\":7519:7522   */\n      dup3\n        /* \"#utility.yul\":7512:7589   */\n      mstore\n        /* \"#utility.yul\":7410:7595   */\n      pop\n      pop\n      jump\t// out\n        /* \"#utility.yul\":7601:7877   */\n    tag_93:\n        /* \"#utility.yul\":7721:7725   */\n      0x00\n        /* \"#utility.yul\":7759:7761   */\n      0x20\n        /* \"#utility.yul\":7748:7757   */\n      dup3\n        /* \"#utility.yul\":7744:7762   */\n      add\n        /* \"#utility.yul\":7736:7762   */\n      swap1\n      pop\n        /* \"#utility.yul\":7772:7870   */\n      tag_505\n        /* \"#utility.yul\":7867:7868   */\n      0x00\n        /* \"#utility.yul\":7856:7865   */\n      dup4\n        /* \"#utility.yul\":7852:7869   */\n      add\n        /* \"#utility.yul\":7843:7849   */\n      dup5\n        /* \"#utility.yul\":7772:7870   */\n      tag_361\n      jump\t// in\n    tag_505:\n        /* \"#utility.yul\":7601:7877   */\n      swap3\n      swap2\n      pop\n      pop\n      jump\t// out\n        /* \"#utility.yul\":7883:8001   */\n    tag_362:\n        /* \"#utility.yul\":7954:7976   */\n      tag_507\n        /* \"#utility.yul\":7970:7975   */\n      dup2\n        /* \"#utility.yul\":7954:7976   */\n      tag_350\n      jump\t// in\n    tag_507:\n        /* \"#utility.yul\":7947:7952   */\n      dup2\n        /* \"#utility.yul\":7944:7977   */\n      eq\n        /* \"#utility.yul\":7934:7995   */\n      tag_508\n      jumpi\n        /* \"#utility.yul\":7991:7992   */\n      0x00\n        /* \"#utility.yul\":7988:7989   */\n      dup1\n        /* \"#utility.yul\":7981:7993   */\n      revert\n        /* \"#utility.yul\":7934:7995   */\n    tag_508:\n        /* \"#utility.yul\":7883:8001   */\n      pop\n      jump\t// out\n        /* \"#utility.yul\":8007:8142   */\n    tag_363:\n        /* \"#utility.yul\":8051:8056   */\n      0x00\n        /* \"#utility.yul\":8089:8095   */\n      dup2\n        /* \"#utility.yul\":8076:8096   */\n      calldataload\n        /* \"#utility.yul\":8067:8096   */\n      swap1\n      pop\n        /* \"#utility.yul\":8105:8136   */\n      tag_510\n        /* \"#utility.yul\":8130:8135   */\n      dup2\n        /* \"#utility.yul\":8105:8136   */\n      tag_362\n      jump\t// in\n    tag_510:\n        /* \"#utility.yul\":8007:8142   */\n      swap3\n      swap2\n      pop\n      pop\n      jump\t// out\n        /* \"#utility.yul\":8148:8270   */\n    tag_364:\n        /* \"#utility.yul\":8221:8245   */\n      tag_512\n        /* \"#utility.yul\":8239:8244   */\n      dup2\n        /* \"#utility.yul\":8221:8245   */\n      tag_352\n      jump\t// in\n    tag_512:\n        /* \"#utility.yul\":8214:8219   */\n      dup2\n        /* \"#utility.yul\":8211:8246   */\n      eq\n        /* \"#utility.yul\":8201:8264   */\n      tag_513\n      jumpi\n        /* \"#utility.yul\":8260:8261   */\n      0x00\n        /* \"#utility.yul\":8257:8258   */\n      dup1\n        /* \"#utility.yul\":8250:8262   */\n      revert\n        /* \"#utility.yul\":8201:8264   */\n    tag_513:\n        /* \"#utility.yul\":8148:8270   */\n      pop\n      jump\t// out\n        /* \"#utility.yul\":8276:8415   */\n    tag_365:\n        /* \"#utility.yul\":8322:8327   */\n      0x00\n        /* \"#utility.yul\":8360:8366   */\n      dup2\n        /* \"#utility.yul\":8347:8367   */\n      calldataload\n        /* \"#utility.yul\":8338:8367   */\n      swap1\n      pop\n        /* \"#utility.yul\":8376:8409   */\n      tag_515\n        /* \"#utility.yul\":8403:8408   */\n      dup2\n        /* \"#utility.yul\":8376:8409   */\n      tag_364\n      jump\t// in\n    tag_515:\n        /* \"#utility.yul\":8276:8415   */\n      swap3\n      swap2\n      pop\n      pop\n      jump\t// out\n        /* \"#utility.yul\":8421:9620   */\n    tag_96:\n        /* \"#utility.yul\":8532:8538   */\n      0x00\n        /* \"#utility.yul\":8540:8546   */\n      dup1\n        /* \"#utility.yul\":8548:8554   */\n      0x00\n        /* \"#utility.yul\":8556:8562   */\n      dup1\n        /* \"#utility.yul\":8564:8570   */\n      0x00\n        /* \"#utility.yul\":8572:8578   */\n      dup1\n        /* \"#utility.yul\":8580:8586   */\n      0x00\n        /* \"#utility.yul\":8629:8632   */\n      0xe0\n        /* \"#utility.yul\":8617:8626   */\n      dup9\n        /* \"#utility.yul\":8608:8615   */\n      dup11\n        /* \"#utility.yul\":8604:8627   */\n      sub\n        /* \"#utility.yul\":8600:8633   */\n      slt\n        /* \"#utility.yul\":8597:8717   */\n      iszero\n      tag_517\n      jumpi\n        /* \"#utility.yul\":8636:8715   */\n      tag_518\n      tag_338\n      jump\t// in\n    tag_518:\n        /* \"#utility.yul\":8597:8717   */\n    tag_517:\n        /* \"#utility.yul\":8756:8757   */\n      0x00\n        /* \"#utility.yul\":8781:8834   */\n      tag_519\n        /* \"#utility.yul\":8826:8833   */\n      dup11\n        /* \"#utility.yul\":8817:8823   */\n      dup3\n        /* \"#utility.yul\":8806:8815   */\n      dup12\n        /* \"#utility.yul\":8802:8824   */\n      add\n        /* \"#utility.yul\":8781:8834   */\n      tag_343\n      jump\t// in\n    tag_519:\n        /* \"#utility.yul\":8771:8834   */\n      swap8\n      pop\n        /* \"#utility.yul\":8727:8844   */\n      pop\n        /* \"#utility.yul\":8883:8885   */\n      0x20\n        /* \"#utility.yul\":8909:8962   */\n      tag_520\n        /* \"#utility.yul\":8954:8961   */\n      dup11\n        /* \"#utility.yul\":8945:8951   */\n      dup3\n        /* \"#utility.yul\":8934:8943   */\n      dup12\n        /* \"#utility.yul\":8930:8952   */\n      add\n        /* \"#utility.yul\":8909:8962   */\n      tag_343\n      jump\t// in\n    tag_520:\n        /* \"#utility.yul\":8899:8962   */\n      swap7\n      pop\n        /* \"#utility.yul\":8854:8972   */\n      pop\n        /* \"#utility.yul\":9011:9013   */\n      0x40\n        /* \"#utility.yul\":9037:9090   */\n      tag_521\n        /* \"#utility.yul\":9082:9089   */\n      dup11\n        /* \"#utility.yul\":9073:9079   */\n      dup3\n        /* \"#utility.yul\":9062:9071   */\n      dup12\n        /* \"#utility.yul\":9058:9080   */\n      add\n        /* \"#utility.yul\":9037:9090   */\n      tag_346\n      jump\t// in\n    tag_521:\n        /* \"#utility.yul\":9027:9090   */\n      swap6\n      pop\n        /* \"#utility.yul\":8982:9100   */\n      pop\n        /* \"#utility.yul\":9139:9141   */\n      0x60\n        /* \"#utility.yul\":9165:9218   */\n      tag_522\n        /* \"#utility.yul\":9210:9217   */\n      dup11\n        /* \"#utility.yul\":9201:9207   */\n      dup3\n        /* \"#utility.yul\":9190:9199   */\n      dup12\n        /* \"#utility.yul\":9186:9208   */\n      add\n        /* \"#utility.yul\":9165:9218   */\n      tag_346\n      jump\t// in\n    tag_522:\n        /* \"#utility.yul\":9155:9218   */\n      swap5\n      pop\n        /* \"#utility.yul\":9110:9228   */\n      pop\n        /* \"#utility.yul\":9267:9270   */\n      0x80\n        /* \"#utility.yul\":9294:9345   */\n      tag_523\n        /* \"#utility.yul\":9337:9344   */\n      dup11\n        /* \"#utility.yul\":9328:9334   */\n      dup3\n        /* \"#utility.yul\":9317:9326   */\n      dup12\n        /* \"#utility.yul\":9313:9335   */\n      add\n        /* \"#utility.yul\":9294:9345   */\n      tag_363\n      jump\t// in\n    tag_523:\n        /* \"#utility.yul\":9284:9345   */\n      swap4\n      pop\n        /* \"#utility.yul\":9238:9355   */\n      pop\n        /* \"#utility.yul\":9394:9397   */\n      0xa0\n        /* \"#utility.yul\":9421:9474   */\n      tag_524\n        /* \"#utility.yul\":9466:9473   */\n      dup11\n        /* \"#utility.yul\":9457:9463   */\n      dup3\n        /* \"#utility.yul\":9446:9455   */\n      dup12\n        /* \"#utility.yul\":9442:9464   */\n      add\n        /* \"#utility.yul\":9421:9474   */\n      tag_365\n      jump\t// in\n    tag_524:\n        /* \"#utility.yul\":9411:9474   */\n      swap3\n      pop\n        /* \"#utility.yul\":9365:9484   */\n      pop\n        /* \"#utility.yul\":9523:9526   */\n      0xc0\n        /* \"#utility.yul\":9550:9603   */\n      tag_525\n        /* \"#utility.yul\":9595:9602   */\n      dup11\n        /* \"#utility.yul\":9586:9592   */\n      dup3\n        /* \"#utility.yul\":9575:9584   */\n      dup12\n        /* \"#utility.yul\":9571:9593   */\n      add\n        /* \"#utility.yul\":9550:9603   */\n      tag_365\n      jump\t// in\n    tag_525:\n        /* \"#utility.yul\":9540:9603   */\n      swap2\n      pop\n        /* \"#utility.yul\":9494:9613   */\n      pop\n        /* \"#utility.yul\":8421:9620   */\n      swap3\n      swap6\n      swap9\n      swap2\n      swap5\n      swap8\n      pop\n      swap3\n      swap6\n      pop\n      jump\t// out\n        /* \"#utility.yul\":9626:10100   */\n    tag_100:\n        /* \"#utility.yul\":9694:9700   */\n      0x00\n        /* \"#utility.yul\":9702:9708   */\n      dup1\n        /* \"#utility.yul\":9751:9753   */\n      0x40\n        /* \"#utility.yul\":9739:9748   */\n      dup4\n        /* \"#utility.yul\":9730:9737   */\n      dup6\n        /* \"#utility.yul\":9726:9749   */\n      sub\n        /* \"#utility.yul\":9722:9754   */\n      slt\n        /* \"#utility.yul\":9719:9838   */\n      iszero\n      tag_527\n      jumpi\n        /* \"#utility.yul\":9757:9836   */\n      tag_528\n      tag_338\n      jump\t// in\n    tag_528:\n        /* \"#utility.yul\":9719:9838   */\n    tag_527:\n        /* \"#utility.yul\":9877:9878   */\n      0x00\n        /* \"#utility.yul\":9902:9955   */\n      tag_529\n        /* \"#utility.yul\":9947:9954   */\n      dup6\n        /* \"#utility.yul\":9938:9944   */\n      dup3\n        /* \"#utility.yul\":9927:9936   */\n      dup7\n        /* \"#utility.yul\":9923:9945   */\n      add\n        /* \"#utility.yul\":9902:9955   */\n      tag_343\n      jump\t// in\n    tag_529:\n        /* \"#utility.yul\":9892:9955   */\n      swap3\n      pop\n        /* \"#utility.yul\":9848:9965   */\n      pop\n        /* \"#utility.yul\":10004:10006   */\n      0x20\n        /* \"#utility.yul\":10030:10083   */\n      tag_530\n        /* \"#utility.yul\":10075:10082   */\n      dup6\n        /* \"#utility.yul\":10066:10072   */\n      dup3\n        /* \"#utility.yul\":10055:10064   */\n      dup7\n        /* \"#utility.yul\":10051:10073   */\n      add\n        /* \"#utility.yul\":10030:10083   */\n      tag_343\n      jump\t// in\n    tag_530:\n        /* \"#utility.yul\":10020:10083   */\n      swap2\n      pop\n        /* \"#utility.yul\":9975:10093   */\n      pop\n        /* \"#utility.yul\":9626:10100   */\n      swap3\n      pop\n      swap3\n      swap1\n      pop\n      jump\t// out\n        /* \"#utility.yul\":10106:10286   */\n    tag_366:\n        /* \"#utility.yul\":10154:10231   */\n      0x4e487b7100000000000000000000000000000000000000000000000000000000\n        /* \"#utility.yul\":10151:10152   */\n      0x00\n        /* \"#utility.yul\":10144:10232   */\n      mstore\n        /* \"#utility.yul\":10251:10255   */\n      0x22\n        /* \"#utility.yul\":10248:10249   */\n      0x04\n        /* \"#utility.yul\":10241:10256   */\n      mstore\n        /* \"#utility.yul\":10275:10279   */\n      0x24\n        /* \"#utility.yul\":10272:10273   */\n      0x00\n        /* \"#utility.yul\":10265:10280   */\n      revert\n        /* \"#utility.yul\":10292:10612   */\n    tag_105:\n        /* \"#utility.yul\":10336:10342   */\n      0x00\n        /* \"#utility.yul\":10373:10374   */\n      0x02\n        /* \"#utility.yul\":10367:10371   */\n      dup3\n        /* \"#utility.yul\":10363:10375   */\n      div\n        /* \"#utility.yul\":10353:10375   */\n      swap1\n      pop\n        /* \"#utility.yul\":10420:10421   */\n      0x01\n        /* \"#utility.yul\":10414:10418   */\n      dup3\n        /* \"#utility.yul\":10410:10422   */\n      and\n        /* \"#utility.yul\":10441:10459   */\n      dup1\n        /* \"#utility.yul\":10431:10512   */\n      tag_533\n      jumpi\n        /* \"#utility.yul\":10497:10501   */\n      0x7f\n        /* \"#utility.yul\":10489:10495   */\n      dup3\n        /* \"#utility.yul\":10485:10502   */\n      and\n        /* \"#utility.yul\":10475:10502   */\n      swap2\n      pop\n        /* \"#utility.yul\":10431:10512   */\n    tag_533:\n        /* \"#utility.yul\":10559:10561   */\n      0x20\n        /* \"#utility.yul\":10551:10557   */\n      dup3\n        /* \"#utility.yul\":10548:10562   */\n      lt\n        /* \"#utility.yul\":10528:10546   */\n      dup2\n        /* \"#utility.yul\":10525:10563   */\n      sub\n        /* \"#utility.yul\":10522:10606   */\n      tag_534\n      jumpi\n        /* \"#utility.yul\":10578:10596   */\n      tag_535\n      tag_366\n      jump\t// in\n    tag_535:\n        /* \"#utility.yul\":10522:10606   */\n    tag_534:\n        /* \"#utility.yul\":10343:10612   */\n      pop\n        /* \"#utility.yul\":10292:10612   */\n      swap2\n      swap1\n      pop\n      jump\t// out\n        /* \"#utility.yul\":10618:10798   */\n    tag_367:\n        /* \"#utility.yul\":10666:10743   */\n      0x4e487b7100000000000000000000000000000000000000000000000000000000\n        /* \"#utility.yul\":10663:10664   */\n      0x00\n        /* \"#utility.yul\":10656:10744   */\n      mstore\n        /* \"#utility.yul\":10763:10767   */\n      0x11\n        /* \"#utility.yul\":10760:10761   */\n      0x04\n        /* \"#utility.yul\":10753:10768   */\n      mstore\n        /* \"#utility.yul\":10787:10791   */\n      0x24\n        /* \"#utility.yul\":10784:10785   */\n      0x00\n        /* \"#utility.yul\":10777:10792   */\n      revert\n        /* \"#utility.yul\":10804:11109   */\n    tag_131:\n        /* \"#utility.yul\":10844:10847   */\n      0x00\n        /* \"#utility.yul\":10863:10883   */\n      tag_538\n        /* \"#utility.yul\":10881:10882   */\n      dup3\n        /* \"#utility.yul\":10863:10883   */\n      tag_344\n      jump\t// in\n    tag_538:\n        /* \"#utility.yul\":10858:10883   */\n      swap2\n      pop\n        /* \"#utility.yul\":10897:10917   */\n      tag_539\n        /* \"#utility.yul\":10915:10916   */\n      dup4\n        /* \"#utility.yul\":10897:10917   */\n      tag_344\n      jump\t// in\n    tag_539:\n        /* \"#utility.yul\":10892:10917   */\n      swap3\n      pop\n        /* \"#utility.yul\":11051:11052   */\n      dup3\n        /* \"#utility.yul\":10983:11049   */\n      0xffffffffffffffffffffffffffffffffffffffffffffffffffffffffffffffff\n        /* \"#utility.yul\":10979:11053   */\n      sub\n        /* \"#utility.yul\":10976:10977   */\n      dup3\n        /* \"#utility.yul\":10973:11054   */\n      gt\n        /* \"#utility.yul\":10970:11077   */\n      iszero\n      tag_540\n      jumpi\n        /* \"#utility.yul\":11057:11075   */\n      tag_541\n      tag_367\n      jump\t// in\n    tag_541:\n        /* \"#utility.yul\":10970:11077   */\n    tag_540:\n        /* \"#utility.yul\":11101:11102   */\n      dup3\n        /* \"#utility.yul\":11098:11099   */\n      dup3\n        /* \"#utility.yul\":11094:11103   */\n      add\n        /* \"#utility.yul\":11087:11103   */\n      swap1\n      pop\n        /* \"#utility.yul\":10804:11109   */\n      swap3\n      swap2\n      pop\n      pop\n      jump\t// out\n        /* \"#utility.yul\":11115:11258   */\n    tag_368:\n        /* \"#utility.yul\":11172:11177   */\n      0x00\n        /* \"#utility.yul\":11203:11209   */\n      dup2\n        /* \"#utility.yul\":11197:11210   */\n      mload\n        /* \"#utility.yul\":11188:11210   */\n      swap1\n      pop\n        /* \"#utility.yul\":11219:11252   */\n      tag_543\n        /* \"#utility.yul\":11246:11251   */\n      dup2\n        /* \"#utility.yul\":11219:11252   */\n      tag_342\n      jump\t// in\n    tag_543:\n        /* \"#utility.yul\":11115:11258   */\n      swap3\n      swap2\n      pop\n      pop\n      jump\t// out\n        /* \"#utility.yul\":11264:11615   */\n    tag_136:\n        /* \"#utility.yul\":11334:11340   */\n      0x00\n        /* \"#utility.yul\":11383:11385   */\n      0x20\n        /* \"#utility.yul\":11371:11380   */\n      dup3\n        /* \"#utility.yul\":11362:11369   */\n      dup5\n        /* \"#utility.yul\":11358:11381   */\n      sub\n        /* \"#utility.yul\":11354:11386   */\n      slt\n        /* \"#utility.yul\":11351:11470   */\n      iszero\n      tag_545\n      jumpi\n        /* \"#utility.yul\":11389:11468   */\n      tag_546\n      tag_338\n      jump\t// in\n    tag_546:\n        /* \"#utility.yul\":11351:11470   */\n    tag_545:\n        /* \"#utility.yul\":11509:11510   */\n      0x00\n        /* \"#utility.yul\":11534:11598   */\n      tag_547\n        /* \"#utility.yul\":11590:11597   */\n      dup5\n        /* \"#utility.yul\":11581:11587   */\n      dup3\n        /* \"#utility.yul\":11570:11579   */\n      dup6\n        /* \"#utility.yul\":11566:11588   */\n      add\n        /* \"#utility.yul\":11534:11598   */\n      tag_368\n      jump\t// in\n    tag_547:\n        /* \"#utility.yul\":11524:11598   */\n      swap2\n      pop\n        /* \"#utility.yul\":11480:11608   */\n      pop\n        /* \"#utility.yul\":11264:11615   */\n      swap3\n      swap2\n      pop\n      pop\n      jump\t// out\n        /* \"#utility.yul\":11621:11762   */\n    tag_369:\n        /* \"#utility.yul\":11670:11674   */\n      0x00\n        /* \"#utility.yul\":11693:11696   */\n      dup2\n        /* \"#utility.yul\":11685:11696   */\n      swap1\n      pop\n        /* \"#utility.yul\":11716:11719   */\n      dup2\n        /* \"#utility.yul\":11713:11714   */\n      0x00\n        /* \"#utility.yul\":11706:11720   */\n      mstore\n        /* \"#utility.yul\":11750:11754   */\n      0x20\n        /* \"#utility.yul\":11747:11748   */\n      0x00\n        /* \"#utility.yul\":11737:11755   */\n      keccak256\n        /* \"#utility.yul\":11729:11755   */\n      swap1\n      pop\n        /* \"#utility.yul\":11621:11762   */\n      swap2\n      swap1\n      pop\n      jump\t// out\n        /* \"#utility.yul\":11792:12594   */\n    tag_370:\n        /* \"#utility.yul\":11877:11880   */\n      0x00\n        /* \"#utility.yul\":11914:11919   */\n      dup2\n        /* \"#utility.yul\":11908:11920   */\n      sload\n        /* \"#utility.yul\":11943:11979   */\n      tag_550\n        /* \"#utility.yul\":11969:11978   */\n      dup2\n        /* \"#utility.yul\":11943:11979   */\n      tag_105\n      jump\t// in\n    tag_550:\n        /* \"#utility.yul\":11995:12066   */\n      tag_551\n        /* \"#utility.yul\":12059:12065   */\n      dup2\n        /* \"#utility.yul\":12054:12057   */\n      dup7\n        /* \"#utility.yul\":11995:12066   */\n      tag_333\n      jump\t// in\n    tag_551:\n        /* \"#utility.yul\":11988:12066   */\n      swap5\n      pop\n        /* \"#utility.yul\":12097:12098   */\n      0x01\n        /* \"#utility.yul\":12086:12095   */\n      dup3\n        /* \"#utility.yul\":12082:12099   */\n      and\n        /* \"#utility.yul\":12113:12114   */\n      0x00\n        /* \"#utility.yul\":12108:12243   */\n      dup2\n      eq\n      tag_553\n      jumpi\n        /* \"#utility.yul\":12257:12258   */\n      0x01\n        /* \"#utility.yul\":12252:12588   */\n      dup2\n      eq\n      tag_554\n      jumpi\n        /* \"#utility.yul\":12075:12588   */\n      jump(tag_552)\n        /* \"#utility.yul\":12108:12243   */\n    tag_553:\n        /* \"#utility.yul\":12192:12196   */\n      0xff\n        /* \"#utility.yul\":12188:12197   */\n      not\n        /* \"#utility.yul\":12177:12186   */\n      dup4\n        /* \"#utility.yul\":12173:12198   */\n      and\n        /* \"#utility.yul\":12168:12171   */\n      dup7\n        /* \"#utility.yul\":12161:12199   */\n      mstore\n        /* \"#utility.yul\":12228:12232   */\n      0x20\n        /* \"#utility.yul\":12223:12226   */\n      dup7\n        /* \"#utility.yul\":12219:12233   */\n      add\n        /* \"#utility.yul\":12212:12233   */\n      swap4\n      pop\n        /* \"#utility.yul\":12108:12243   */\n      jump(tag_552)\n        /* \"#utility.yul\":12252:12588   */\n    tag_554:\n        /* \"#utility.yul\":12319:12357   */\n      tag_555\n        /* \"#utility.yul\":12351:12356   */\n      dup6\n        /* \"#utility.yul\":12319:12357   */\n      tag_369\n      jump\t// in\n    tag_555:\n        /* \"#utility.yul\":12379:12380   */\n      0x00\n        /* \"#utility.yul\":12393:12547   */\n    tag_556:\n        /* \"#utility.yul\":12407:12413   */\n      dup4\n        /* \"#utility.yul\":12404:12405   */\n      dup2\n        /* \"#utility.yul\":12401:12414   */\n      lt\n        /* \"#utility.yul\":12393:12547   */\n      iszero\n      tag_558\n      jumpi\n        /* \"#utility.yul\":12481:12488   */\n      dup2\n        /* \"#utility.yul\":12475:12489   */\n      sload\n        /* \"#utility.yul\":12471:12472   */\n      dup2\n        /* \"#utility.yul\":12466:12469   */\n      dup10\n        /* \"#utility.yul\":12462:12473   */\n      add\n        /* \"#utility.yul\":12455:12490   */\n      mstore\n        /* \"#utility.yul\":12531:12532   */\n      0x01\n        /* \"#utility.yul\":12522:12529   */\n      dup3\n        /* \"#utility.yul\":12518:12533   */\n      add\n        /* \"#utility.yul\":12507:12533   */\n      swap2\n      pop\n        /* \"#utility.yul\":12429:12433   */\n      0x20\n        /* \"#utility.yul\":12426:12427   */\n      dup2\n        /* \"#utility.yul\":12422:12434   */\n      add\n        /* \"#utility.yul\":12417:12434   */\n      swap1\n      pop\n        /* \"#utility.yul\":12393:12547   */\n      jump(tag_556)\n    tag_558:\n        /* \"#utility.yul\":12576:12577   */\n      dup1\n        /* \"#utility.yul\":12571:12574   */\n      dup9\n        /* \"#utility.yul\":12567:12578   */\n      add\n        /* \"#utility.yul\":12560:12578   */\n      swap6\n      pop\n        /* \"#utility.yul\":12259:12588   */\n      pop\n      pop\n        /* \"#utility.yul\":12075:12588   */\n    tag_552:\n      pop\n        /* \"#utility.yul\":11881:12594   */\n      pop\n      pop\n        /* \"#utility.yul\":11792:12594   */\n      swap3\n      swap2\n      pop\n      pop\n      jump\t// out\n        /* \"#utility.yul\":12600:12907   */\n    tag_139:\n        /* \"#utility.yul\":12710:12714   */\n      0x00\n        /* \"#utility.yul\":12748:12750   */\n      0x20\n        /* \"#utility.yul\":12737:12746   */\n      dup3\n        /* \"#utility.yul\":12733:12751   */\n      add\n        /* \"#utility.yul\":12725:12751   */\n      swap1\n      pop\n        /* \"#utility.yul\":12797:12806   */\n      dup2\n        /* \"#utility.yul\":12791:12795   */\n      dup2\n        /* \"#utility.yul\":12787:12807   */\n      sub\n        /* \"#utility.yul\":12783:12784   */\n      0x00\n        /* \"#utility.yul\":12772:12781   */\n      dup4\n        /* \"#utility.yul\":12768:12785   */\n      add\n        /* \"#utility.yul\":12761:12808   */\n      mstore\n        /* \"#utility.yul\":12825:12900   */\n      tag_560\n        /* \"#utility.yul\":12895:12899   */\n      dup2\n        /* \"#utility.yul\":12886:12892   */\n      dup5\n        /* \"#utility.yul\":12825:12900   */\n      tag_370\n      jump\t// in\n    tag_560:\n        /* \"#utility.yul\":12817:12900   */\n      swap1\n      pop\n        /* \"#utility.yul\":12600:12907   */\n      swap3\n      swap2\n      pop\n      pop\n      jump\t// out\n        /* \"#utility.yul\":12913:13137   */\n    tag_371:\n        /* \"#utility.yul\":13053:13087   */\n      0x45524332303a2064656372656173656420616c6c6f77616e63652062656c6f77\n        /* \"#utility.yul\":13049:13050   */\n      0x00\n        /* \"#utility.yul\":13041:13047   */\n      dup3\n        /* \"#utility.yul\":13037:13051   */\n      add\n        /* \"#utility.yul\":13030:13088   */\n      mstore\n        /* \"#utility.yul\":13122:13129   */\n      0x207a65726f000000000000000000000000000000000000000000000000000000\n        /* \"#utility.yul\":13117:13119   */\n      0x20\n        /* \"#utility.yul\":13109:13115   */\n      dup3\n        /* \"#utility.yul\":13105:13120   */\n      add\n        /* \"#utility.yul\":13098:13130   */\n      mstore\n        /* \"#utility.yul\":12913:13137   */\n      pop\n      jump\t// out\n        /* \"#utility.yul\":13143:13509   */\n    tag_372:\n        /* \"#utility.yul\":13285:13288   */\n      0x00\n        /* \"#utility.yul\":13306:13373   */\n      tag_563\n        /* \"#utility.yul\":13370:13372   */\n      0x25\n        /* \"#utility.yul\":13365:13368   */\n      dup4\n        /* \"#utility.yul\":13306:13373   */\n      tag_333\n      jump\t// in\n    tag_563:\n        /* \"#utility.yul\":13299:13373   */\n      swap2\n      pop\n        /* \"#utility.yul\":13382:13475   */\n      tag_564\n        /* \"#utility.yul\":13471:13474   */\n      dup3\n        /* \"#utility.yul\":13382:13475   */\n      tag_371\n      jump\t// in\n    tag_564:\n        /* \"#utility.yul\":13500:13502   */\n      0x40\n        /* \"#utility.yul\":13495:13498   */\n      dup3\n        /* \"#utility.yul\":13491:13503   */\n      add\n        /* \"#utility.yul\":13484:13503   */\n      swap1\n      pop\n        /* \"#utility.yul\":13143:13509   */\n      swap2\n      swap1\n      pop\n      jump\t// out\n        /* \"#utility.yul\":13515:13934   */\n    tag_171:\n        /* \"#utility.yul\":13681:13685   */\n      0x00\n        /* \"#utility.yul\":13719:13721   */\n      0x20\n        /* \"#utility.yul\":13708:13717   */\n      dup3\n        /* \"#utility.yul\":13704:13722   */\n      add\n        /* \"#utility.yul\":13696:13722   */\n      swap1\n      pop\n        /* \"#utility.yul\":13768:13777   */\n      dup2\n        /* \"#utility.yul\":13762:13766   */\n      dup2\n        /* \"#utility.yul\":13758:13778   */\n      sub\n        /* \"#utility.yul\":13754:13755   */\n      0x00\n        /* \"#utility.yul\":13743:13752   */\n      dup4\n        /* \"#utility.yul\":13739:13756   */\n      add\n        /* \"#utility.yul\":13732:13779   */\n      mstore\n        /* \"#utility.yul\":13796:13927   */\n      tag_566\n        /* \"#utility.yul\":13922:13926   */\n      dup2\n        /* \"#utility.yul\":13796:13927   */\n      tag_372\n      jump\t// in\n    tag_566:\n        /* \"#utility.yul\":13788:13927   */\n      swap1\n      pop\n        /* \"#utility.yul\":13515:13934   */\n      swap2\n      swap1\n      pop\n      jump\t// out\n        /* \"#utility.yul\":13940:14119   */\n    tag_373:\n        /* \"#utility.yul\":14080:14111   */\n      0x45524332305065726d69743a206578706972656420646561646c696e65000000\n        /* \"#utility.yul\":14076:14077   */\n      0x00\n        /* \"#utility.yul\":14068:14074   */\n      dup3\n        /* \"#utility.yul\":14064:14078   */\n      add\n        /* \"#utility.yul\":14057:14112   */\n      mstore\n        /* \"#utility.yul\":13940:14119   */\n      pop\n      jump\t// out\n        /* \"#utility.yul\":14125:14491   */\n    tag_374:\n        /* \"#utility.yul\":14267:14270   */\n      0x00\n        /* \"#utility.yul\":14288:14355   */\n      tag_569\n        /* \"#utility.yul\":14352:14354   */\n      0x1d\n        /* \"#utility.yul\":14347:14350   */\n      dup4\n        /* \"#utility.yul\":14288:14355   */\n      tag_333\n      jump\t// in\n    tag_569:\n        /* \"#utility.yul\":14281:14355   */\n      swap2\n      pop\n        /* \"#utility.yul\":14364:14457   */\n      tag_570\n        /* \"#utility.yul\":14453:14456   */\n      dup3\n        /* \"#utility.yul\":14364:14457   */\n      tag_373\n      jump\t// in\n    tag_570:\n        /* \"#utility.yul\":14482:14484   */\n      0x20\n        /* \"#utility.yul\":14477:14480   */\n      dup3\n        /* \"#utility.yul\":14473:14485   */\n      add\n        /* \"#utility.yul\":14466:14485   */\n      swap1\n      pop\n        /* \"#utility.yul\":14125:14491   */\n      swap2\n      swap1\n      pop\n      jump\t// out\n        /* \"#utility.yul\":14497:14916   */\n    tag_179:\n        /* \"#utility.yul\":14663:14667   */\n      0x00\n        /* \"#utility.yul\":14701:14703   */\n      0x20\n        /* \"#utility.yul\":14690:14699   */\n      dup3\n        /* \"#utility.yul\":14686:14704   */\n      add\n        /* \"#utility.yul\":14678:14704   */\n      swap1\n      pop\n        /* \"#utility.yul\":14750:14759   */\n      dup2\n        /* \"#utility.yul\":14744:14748   */\n      dup2\n        /* \"#utility.yul\":14740:14760   */\n      sub\n        /* \"#utility.yul\":14736:14737   */\n      0x00\n        /* \"#utility.yul\":14725:14734   */\n      dup4\n        /* \"#utility.yul\":14721:14738   */\n      add\n        /* \"#utility.yul\":14714:14761   */\n      mstore\n        /* \"#utility.yul\":14778:14909   */\n      tag_572\n        /* \"#utility.yul\":14904:14908   */\n      dup2\n        /* \"#utility.yul\":14778:14909   */\n      tag_374\n      jump\t// in\n    tag_572:\n        /* \"#utility.yul\":14770:14909   */\n      swap1\n      pop\n        /* \"#utility.yul\":14497:14916   */\n      swap2\n      swap1\n      pop\n      jump\t// out\n        /* \"#utility.yul\":14922:15040   */\n    tag_375:\n        /* \"#utility.yul\":15009:15033   */\n      tag_574\n        /* \"#utility.yul\":15027:15032   */\n      dup2\n        /* \"#utility.yul\":15009:15033   */\n      tag_341\n      jump\t// in\n    tag_574:\n        /* \"#utility.yul\":15004:15007   */\n      dup3\n        /* \"#utility.yul\":14997:15034   */\n      mstore\n        /* \"#utility.yul\":14922:15040   */\n      pop\n      pop\n      jump\t// out\n        /* \"#utility.yul\":15046:15821   */\n    tag_183:\n        /* \"#utility.yul\":15279:15283   */\n      0x00\n        /* \"#utility.yul\":15317:15320   */\n      0xc0\n        /* \"#utility.yul\":15306:15315   */\n      dup3\n        /* \"#utility.yul\":15302:15321   */\n      add\n        /* \"#utility.yul\":15294:15321   */\n      swap1\n      pop\n        /* \"#utility.yul\":15331:15402   */\n      tag_576\n        /* \"#utility.yul\":15399:15400   */\n      0x00\n        /* \"#utility.yul\":15388:15397   */\n      dup4\n        /* \"#utility.yul\":15384:15401   */\n      add\n        /* \"#utility.yul\":15375:15381   */\n      dup10\n        /* \"#utility.yul\":15331:15402   */\n      tag_353\n      jump\t// in\n    tag_576:\n        /* \"#utility.yul\":15412:15484   */\n      tag_577\n        /* \"#utility.yul\":15480:15482   */\n      0x20\n        /* \"#utility.yul\":15469:15478   */\n      dup4\n        /* \"#utility.yul\":15465:15483   */\n      add\n        /* \"#utility.yul\":15456:15462   */\n      dup9\n        /* \"#utility.yul\":15412:15484   */\n      tag_375\n      jump\t// in\n    tag_577:\n        /* \"#utility.yul\":15494:15566   */\n      tag_578\n        /* \"#utility.yul\":15562:15564   */\n      0x40\n        /* \"#utility.yul\":15551:15560   */\n      dup4\n        /* \"#utility.yul\":15547:15565   */\n      add\n        /* \"#utility.yul\":15538:15544   */\n      dup8\n        /* \"#utility.yul\":15494:15566   */\n      tag_375\n      jump\t// in\n    tag_578:\n        /* \"#utility.yul\":15576:15648   */\n      tag_579\n        /* \"#utility.yul\":15644:15646   */\n      0x60\n        /* \"#utility.yul\":15633:15642   */\n      dup4\n        /* \"#utility.yul\":15629:15647   */\n      add\n        /* \"#utility.yul\":15620:15626   */\n      dup7\n        /* \"#utility.yul\":15576:15648   */\n      tag_349\n      jump\t// in\n    tag_579:\n        /* \"#utility.yul\":15658:15731   */\n      tag_580\n        /* \"#utility.yul\":15726:15729   */\n      0x80\n        /* \"#utility.yul\":15715:15724   */\n      dup4\n        /* \"#utility.yul\":15711:15730   */\n      add\n        /* \"#utility.yul\":15702:15708   */\n      dup6\n        /* \"#utility.yul\":15658:15731   */\n      tag_349\n      jump\t// in\n    tag_580:\n        /* \"#utility.yul\":15741:15814   */\n      tag_581\n        /* \"#utility.yul\":15809:15812   */\n      0xa0\n        /* \"#utility.yul\":15798:15807   */\n      dup4\n        /* \"#utility.yul\":15794:15813   */\n      add\n        /* \"#utility.yul\":15785:15791   */\n      dup5\n        /* \"#utility.yul\":15741:15814   */\n      tag_349\n      jump\t// in\n    tag_581:\n        /* \"#utility.yul\":15046:15821   */\n      swap8\n      swap7\n      pop\n      pop\n      pop\n      pop\n      pop\n      pop\n      pop\n      jump\t// out\n        /* \"#utility.yul\":15827:16007   */\n    tag_376:\n        /* \"#utility.yul\":15967:15999   */\n      0x45524332305065726d69743a20696e76616c6964207369676e61747572650000\n        /* \"#utility.yul\":15963:15964   */\n      0x00\n        /* \"#utility.yul\":15955:15961   */\n      dup3\n        /* \"#utility.yul\":15951:15965   */\n      add\n        /* \"#utility.yul\":15944:16000   */\n      mstore\n        /* \"#utility.yul\":15827:16007   */\n      pop\n      jump\t// out\n        /* \"#utility.yul\":16013:16379   */\n    tag_377:\n        /* \"#utility.yul\":16155:16158   */\n      0x00\n        /* \"#utility.yul\":16176:16243   */\n      tag_584\n        /* \"#utility.yul\":16240:16242   */\n      0x1e\n        /* \"#utility.yul\":16235:16238   */\n      dup4\n        /* \"#utility.yul\":16176:16243   */\n      tag_333\n      jump\t// in\n    tag_584:\n        /* \"#utility.yul\":16169:16243   */\n      swap2\n      pop\n        /* \"#utility.yul\":16252:16345   */\n      tag_585\n        /* \"#utility.yul\":16341:16344   */\n      dup3\n        /* \"#utility.yul\":16252:16345   */\n      tag_376\n      jump\t// in\n    tag_585:\n        /* \"#utility.yul\":16370:16372   */\n      0x20\n        /* \"#utility.yul\":16365:16368   */\n      dup3\n        /* \"#utility.yul\":16361:16373   */\n      add\n        /* \"#utility.yul\":16354:16373   */\n      swap1\n      pop\n        /* \"#utility.yul\":16013:16379   */\n      swap2\n      swap1\n      pop\n      jump\t// out\n        /* \"#utility.yul\":16385:16804   */\n    tag_190:\n        /* \"#utility.yul\":16551:16555   */\n      0x00\n        /* \"#utility.yul\":16589:16591   */\n      0x20\n        /* \"#utility.yul\":16578:16587   */\n      dup3\n        /* \"#utility.yul\":16574:16592   */\n      add\n        /* \"#utility.yul\":16566:16592   */\n      swap1\n      pop\n        /* \"#utility.yul\":16638:16647   */\n      dup2\n        /* \"#utility.yul\":16632:16636   */\n      dup2\n        /* \"#utility.yul\":16628:16648   */\n      sub\n        /* \"#utility.yul\":16624:16625   */\n      0x00\n        /* \"#utility.yul\":16613:16622   */\n      dup4\n        /* \"#utility.yul\":16609:16626   */\n      add\n        /* \"#utility.yul\":16602:16649   */\n      mstore\n        /* \"#utility.yul\":16666:16797   */\n      tag_587\n        /* \"#utility.yul\":16792:16796   */\n      dup2\n        /* \"#utility.yul\":16666:16797   */\n      tag_377\n      jump\t// in\n    tag_587:\n        /* \"#utility.yul\":16658:16797   */\n      swap1\n      pop\n        /* \"#utility.yul\":16385:16804   */\n      swap2\n      swap1\n      pop\n      jump\t// out\n        /* \"#utility.yul\":16810:17033   */\n    tag_378:\n        /* \"#utility.yul\":16950:16984   */\n      0x45524332303a20617070726f76652066726f6d20746865207a65726f20616464\n        /* \"#utility.yul\":16946:16947   */\n      0x00\n        /* \"#utility.yul\":16938:16944   */\n      dup3\n        /* \"#utility.yul\":16934:16948   */\n      add\n        /* \"#utility.yul\":16927:16985   */\n      mstore\n        /* \"#utility.yul\":17019:17025   */\n      0x7265737300000000000000000000000000000000000000000000000000000000\n        /* \"#utility.yul\":17014:17016   */\n      0x20\n        /* \"#utility.yul\":17006:17012   */\n      dup3\n        /* \"#utility.yul\":17002:17017   */\n      add\n        /* \"#utility.yul\":16995:17026   */\n      mstore\n        /* \"#utility.yul\":16810:17033   */\n      pop\n      jump\t// out\n        /* \"#utility.yul\":17039:17405   */\n    tag_379:\n        /* \"#utility.yul\":17181:17184   */\n      0x00\n        /* \"#utility.yul\":17202:17269   */\n      tag_590\n        /* \"#utility.yul\":17266:17268   */\n      0x24\n        /* \"#utility.yul\":17261:17264   */\n      dup4\n        /* \"#utility.yul\":17202:17269   */\n      tag_333\n      jump\t// in\n    tag_590:\n        /* \"#utility.yul\":17195:17269   */\n      swap2\n      pop\n        /* \"#utility.yul\":17278:17371   */\n      tag_591\n        /* \"#utility.yul\":17367:17370   */\n      dup3\n        /* \"#utility.yul\":17278:17371   */\n      tag_378\n      jump\t// in\n    tag_591:\n        /* \"#utility.yul\":17396:17398   */\n      0x40\n        /* \"#utility.yul\":17391:17394   */\n      dup3\n        /* \"#utility.yul\":17387:17399   */\n      add\n        /* \"#utility.yul\":17380:17399   */\n      swap1\n      pop\n        /* \"#utility.yul\":17039:17405   */\n      swap2\n      swap1\n      pop\n      jump\t// out\n        /* \"#utility.yul\":17411:17830   */\n    tag_197:\n        /* \"#utility.yul\":17577:17581   */\n      0x00\n        /* \"#utility.yul\":17615:17617   */\n      0x20\n        /* \"#utility.yul\":17604:17613   */\n      dup3\n        /* \"#utility.yul\":17600:17618   */\n      add\n        /* \"#utility.yul\":17592:17618   */\n      swap1\n      pop\n        /* \"#utility.yul\":17664:17673   */\n      dup2\n        /* \"#utility.yul\":17658:17662   */\n      dup2\n        /* \"#utility.yul\":17654:17674   */\n      sub\n        /* \"#utility.yul\":17650:17651   */\n      0x00\n        /* \"#utility.yul\":17639:17648   */\n      dup4\n        /* \"#utility.yul\":17635:17652   */\n      add\n        /* \"#utility.yul\":17628:17675   */\n      mstore\n        /* \"#utility.yul\":17692:17823   */\n      tag_593\n        /* \"#utility.yul\":17818:17822   */\n      dup2\n        /* \"#utility.yul\":17692:17823   */\n      tag_379\n      jump\t// in\n    tag_593:\n        /* \"#utility.yul\":17684:17823   */\n      swap1\n      pop\n        /* \"#utility.yul\":17411:17830   */\n      swap2\n      swap1\n      pop\n      jump\t// out\n        /* \"#utility.yul\":17836:18057   */\n    tag_380:\n        /* \"#utility.yul\":17976:18010   */\n      0x45524332303a20617070726f766520746f20746865207a65726f206164647265\n        /* \"#utility.yul\":17972:17973   */\n      0x00\n        /* \"#utility.yul\":17964:17970   */\n      dup3\n        /* \"#utility.yul\":17960:17974   */\n      add\n        /* \"#utility.yul\":17953:18011   */\n      mstore\n        /* \"#utility.yul\":18045:18049   */\n      0x7373000000000000000000000000000000000000000000000000000000000000\n        /* \"#utility.yul\":18040:18042   */\n      0x20\n        /* \"#utility.yul\":18032:18038   */\n      dup3\n        /* \"#utility.yul\":18028:18043   */\n      add\n        /* \"#utility.yul\":18021:18050   */\n      mstore\n        /* \"#utility.yul\":17836:18057   */\n      pop\n      jump\t// out\n        /* \"#utility.yul\":18063:18429   */\n    tag_381:\n        /* \"#utility.yul\":18205:18208   */\n      0x00\n        /* \"#utility.yul\":18226:18293   */\n      tag_596\n        /* \"#utility.yul\":18290:18292   */\n      0x22\n        /* \"#utility.yul\":18285:18288   */\n      dup4\n        /* \"#utility.yul\":18226:18293   */\n      tag_333\n      jump\t// in\n    tag_596:\n        /* \"#utility.yul\":18219:18293   */\n      swap2\n      pop\n        /* \"#utility.yul\":18302:18395   */\n      tag_597\n        /* \"#utility.yul\":18391:18394   */\n      dup3\n        /* \"#utility.yul\":18302:18395   */\n      tag_380\n      jump\t// in\n    tag_597:\n        /* \"#utility.yul\":18420:18422   */\n      0x40\n        /* \"#utility.yul\":18415:18418   */\n      dup3\n        /* \"#utility.yul\":18411:18423   */\n      add\n        /* \"#utility.yul\":18404:18423   */\n      swap1\n      pop\n        /* \"#utility.yul\":18063:18429   */\n      swap2\n      swap1\n      pop\n      jump\t// out\n        /* \"#utility.yul\":18435:18854   */\n    tag_200:\n        /* \"#utility.yul\":18601:18605   */\n      0x00\n        /* \"#utility.yul\":18639:18641   */\n      0x20\n        /* \"#utility.yul\":18628:18637   */\n      dup3\n        /* \"#utility.yul\":18624:18642   */\n      add\n        /* \"#utility.yul\":18616:18642   */\n      swap1\n      pop\n        /* \"#utility.yul\":18688:18697   */\n      dup2\n        /* \"#utility.yul\":18682:18686   */\n      dup2\n        /* \"#utility.yul\":18678:18698   */\n      sub\n        /* \"#utility.yul\":18674:18675   */\n      0x00\n        /* \"#utility.yul\":18663:18672   */\n      dup4\n        /* \"#utility.yul\":18659:18676   */\n      add\n        /* \"#utility.yul\":18652:18699   */\n      mstore\n        /* \"#utility.yul\":18716:18847   */\n      tag_599\n        /* \"#utility.yul\":18842:18846   */\n      dup2\n        /* \"#utility.yul\":18716:18847   */\n      tag_381\n      jump\t// in\n    tag_599:\n        /* \"#utility.yul\":18708:18847   */\n      swap1\n      pop\n        /* \"#utility.yul\":18435:18854   */\n      swap2\n      swap1\n      pop\n      jump\t// out\n        /* \"#utility.yul\":18860:19039   */\n    tag_382:\n        /* \"#utility.yul\":19000:19031   */\n      0x45524332303a20696e73756666696369656e7420616c6c6f77616e6365000000\n        /* \"#utility.yul\":18996:18997   */\n      0x00\n        /* \"#utility.yul\":18988:18994   */\n      dup3\n        /* \"#utility.yul\":18984:18998   */\n      add\n        /* \"#utility.yul\":18977:19032   */\n      mstore\n        /* \"#utility.yul\":18860:19039   */\n      pop\n      jump\t// out\n        /* \"#utility.yul\":19045:19411   */\n    tag_383:\n        /* \"#utility.yul\":19187:19190   */\n      0x00\n        /* \"#utility.yul\":19208:19275   */\n      tag_602\n        /* \"#utility.yul\":19272:19274   */\n      0x1d\n        /* \"#utility.yul\":19267:19270   */\n      dup4\n        /* \"#utility.yul\":19208:19275   */\n      tag_333\n      jump\t// in\n    tag_602:\n        /* \"#utility.yul\":19201:19275   */\n      swap2\n      pop\n        /* \"#utility.yul\":19284:19377   */\n      tag_603\n        /* \"#utility.yul\":19373:19376   */\n      dup3\n        /* \"#utility.yul\":19284:19377   */\n      tag_382\n      jump\t// in\n    tag_603:\n        /* \"#utility.yul\":19402:19404   */\n      0x20\n        /* \"#utility.yul\":19397:19400   */\n      dup3\n        /* \"#utility.yul\":19393:19405   */\n      add\n        /* \"#utility.yul\":19386:19405   */\n      swap1\n      pop\n        /* \"#utility.yul\":19045:19411   */\n      swap2\n      swap1\n      pop\n      jump\t// out\n        /* \"#utility.yul\":19417:19836   */\n    tag_207:\n        /* \"#utility.yul\":19583:19587   */\n      0x00\n        /* \"#utility.yul\":19621:19623   */\n      0x20\n        /* \"#utility.yul\":19610:19619   */\n      dup3\n        /* \"#utility.yul\":19606:19624   */\n      add\n        /* \"#utility.yul\":19598:19624   */\n      swap1\n      pop\n        /* \"#utility.yul\":19670:19679   */\n      dup2\n        /* \"#utility.yul\":19664:19668   */\n      dup2\n        /* \"#utility.yul\":19660:19680   */\n      sub\n        /* \"#utility.yul\":19656:19657   */\n      0x00\n        /* \"#utility.yul\":19645:19654   */\n      dup4\n        /* \"#utility.yul\":19641:19658   */\n      add\n        /* \"#utility.yul\":19634:19681   */\n      mstore\n        /* \"#utility.yul\":19698:19829   */\n      tag_605\n        /* \"#utility.yul\":19824:19828   */\n      dup2\n        /* \"#utility.yul\":19698:19829   */\n      tag_383\n      jump\t// in\n    tag_605:\n        /* \"#utility.yul\":19690:19829   */\n      swap1\n      pop\n        /* \"#utility.yul\":19417:19836   */\n      swap2\n      swap1\n      pop\n      jump\t// out\n        /* \"#utility.yul\":19842:20066   */\n    tag_384:\n        /* \"#utility.yul\":19982:20016   */\n      0x45524332303a207472616e736665722066726f6d20746865207a65726f206164\n        /* \"#utility.yul\":19978:19979   */\n      0x00\n        /* \"#utility.yul\":19970:19976   */\n      dup3\n        /* \"#utility.yul\":19966:19980   */\n      add\n        /* \"#utility.yul\":19959:20017   */\n      mstore\n        /* \"#utility.yul\":20051:20058   */\n      0x6472657373000000000000000000000000000000000000000000000000000000\n        /* \"#utility.yul\":20046:20048   */\n      0x20\n        /* \"#utility.yul\":20038:20044   */\n      dup3\n        /* \"#utility.yul\":20034:20049   */\n      add\n        /* \"#utility.yul\":20027:20059   */\n      mstore\n        /* \"#utility.yul\":19842:20066   */\n      pop\n      jump\t// out\n        /* \"#utility.yul\":20072:20438   */\n    tag_385:\n        /* \"#utility.yul\":20214:20217   */\n      0x00\n        /* \"#utility.yul\":20235:20302   */\n      tag_608\n        /* \"#utility.yul\":20299:20301   */\n      0x25\n        /* \"#utility.yul\":20294:20297   */\n      dup4\n        /* \"#utility.yul\":20235:20302   */\n      tag_333\n      jump\t// in\n    tag_608:\n        /* \"#utility.yul\":20228:20302   */\n      swap2\n      pop\n        /* \"#utility.yul\":20311:20404   */\n      tag_609\n        /* \"#utility.yul\":20400:20403   */\n      dup3\n        /* \"#utility.yul\":20311:20404   */\n      tag_384\n      jump\t// in\n    tag_609:\n        /* \"#utility.yul\":20429:20431   */\n      0x40\n        /* \"#utility.yul\":20424:20427   */\n      dup3\n        /* \"#utility.yul\":20420:20432   */\n      add\n        /* \"#utility.yul\":20413:20432   */\n      swap1\n      pop\n        /* \"#utility.yul\":20072:20438   */\n      swap2\n      swap1\n      pop\n      jump\t// out\n        /* \"#utility.yul\":20444:20863   */\n    tag_212:\n        /* \"#utility.yul\":20610:20614   */\n      0x00\n        /* \"#utility.yul\":20648:20650   */\n      0x20\n        /* \"#utility.yul\":20637:20646   */\n      dup3\n        /* \"#utility.yul\":20633:20651   */\n      add\n        /* \"#utility.yul\":20625:20651   */\n      swap1\n      pop\n        /* \"#utility.yul\":20697:20706   */\n      dup2\n        /* \"#utility.yul\":20691:20695   */\n      dup2\n        /* \"#utility.yul\":20687:20707   */\n      sub\n        /* \"#utility.yul\":20683:20684   */\n      0x00\n        /* \"#utility.yul\":20672:20681   */\n      dup4\n        /* \"#utility.yul\":20668:20685   */\n      add\n        /* \"#utility.yul\":20661:20708   */\n      mstore\n        /* \"#utility.yul\":20725:20856   */\n      tag_611\n        /* \"#utility.yul\":20851:20855   */\n      dup2\n        /* \"#utility.yul\":20725:20856   */\n      tag_385\n      jump\t// in\n    tag_611:\n        /* \"#utility.yul\":20717:20856   */\n      swap1\n      pop\n        /* \"#utility.yul\":20444:20863   */\n      swap2\n      swap1\n      pop\n      jump\t// out\n        /* \"#utility.yul\":20869:21091   */\n    tag_386:\n        /* \"#utility.yul\":21009:21043   */\n      0x45524332303a207472616e7366657220746f20746865207a65726f2061646472\n        /* \"#utility.yul\":21005:21006   */\n      0x00\n        /* \"#utility.yul\":20997:21003   */\n      dup3\n        /* \"#utility.yul\":20993:21007   */\n      add\n        /* \"#utility.yul\":20986:21044   */\n      mstore\n        /* \"#utility.yul\":21078:21083   */\n      0x6573730000000000000000000000000000000000000000000000000000000000\n        /* \"#utility.yul\":21073:21075   */\n      0x20\n        /* \"#utility.yul\":21065:21071   */\n      dup3\n        /* \"#utility.yul\":21061:21076   */\n      add\n        /* \"#utility.yul\":21054:21084   */\n      mstore\n        /* \"#utility.yul\":20869:21091   */\n      pop\n      jump\t// out\n        /* \"#utility.yul\":21097:21463   */\n    tag_387:\n        /* \"#utility.yul\":21239:21242   */\n      0x00\n        /* \"#utility.yul\":21260:21327   */\n      tag_614\n        /* \"#utility.yul\":21324:21326   */\n      0x23\n        /* \"#utility.yul\":21319:21322   */\n      dup4\n        /* \"#utility.yul\":21260:21327   */\n      tag_333\n      jump\t// in\n    tag_614:\n        /* \"#utility.yul\":21253:21327   */\n      swap2\n      pop\n        /* \"#utility.yul\":21336:21429   */\n      tag_615\n        /* \"#utility.yul\":21425:21428   */\n      dup3\n        /* \"#utility.yul\":21336:21429   */\n      tag_386\n      jump\t// in\n    tag_615:\n        /* \"#utility.yul\":21454:21456   */\n      0x40\n        /* \"#utility.yul\":21449:21452   */\n      dup3\n        /* \"#utility.yul\":21445:21457   */\n      add\n        /* \"#utility.yul\":21438:21457   */\n      swap1\n      pop\n        /* \"#utility.yul\":21097:21463   */\n      swap2\n      swap1\n      pop\n      jump\t// out\n        /* \"#utility.yul\":21469:21888   */\n    tag_215:\n        /* \"#utility.yul\":21635:21639   */\n      0x00\n        /* \"#utility.yul\":21673:21675   */\n      0x20\n        /* \"#utility.yul\":21662:21671   */\n      dup3\n        /* \"#utility.yul\":21658:21676   */\n      add\n        /* \"#utility.yul\":21650:21676   */\n      swap1\n      pop\n        /* \"#utility.yul\":21722:21731   */\n      dup2\n        /* \"#utility.yul\":21716:21720   */\n      dup2\n        /* \"#utility.yul\":21712:21732   */\n      sub\n        /* \"#utility.yul\":21708:21709   */\n      0x00\n        /* \"#utility.yul\":21697:21706   */\n      dup4\n        /* \"#utility.yul\":21693:21710   */\n      add\n        /* \"#utility.yul\":21686:21733   */\n      mstore\n        /* \"#utility.yul\":21750:21881   */\n      tag_617\n        /* \"#utility.yul\":21876:21880   */\n      dup2\n        /* \"#utility.yul\":21750:21881   */\n      tag_387\n      jump\t// in\n    tag_617:\n        /* \"#utility.yul\":21742:21881   */\n      swap1\n      pop\n        /* \"#utility.yul\":21469:21888   */\n      swap2\n      swap1\n      pop\n      jump\t// out\n        /* \"#utility.yul\":21894:22119   */\n    tag_388:\n        /* \"#utility.yul\":22034:22068   */\n      0x45524332303a207472616e7366657220616d6f756e7420657863656564732062\n        /* \"#utility.yul\":22030:22031   */\n      0x00\n        /* \"#utility.yul\":22022:22028   */\n      dup3\n        /* \"#utility.yul\":22018:22032   */\n      add\n        /* \"#utility.yul\":22011:22069   */\n      mstore\n        /* \"#utility.yul\":22103:22111   */\n      0x616c616e63650000000000000000000000000000000000000000000000000000\n        /* \"#utility.yul\":22098:22100   */\n      0x20\n        /* \"#utility.yul\":22090:22096   */\n      dup3\n        /* \"#utility.yul\":22086:22101   */\n      add\n        /* \"#utility.yul\":22079:22112   */\n      mstore\n        /* \"#utility.yul\":21894:22119   */\n      pop\n      jump\t// out\n        /* \"#utility.yul\":22125:22491   */\n    tag_389:\n        /* \"#utility.yul\":22267:22270   */\n      0x00\n        /* \"#utility.yul\":22288:22355   */\n      tag_620\n        /* \"#utility.yul\":22352:22354   */\n      0x26\n        /* \"#utility.yul\":22347:22350   */\n      dup4\n        /* \"#utility.yul\":22288:22355   */\n      tag_333\n      jump\t// in\n    tag_620:\n        /* \"#utility.yul\":22281:22355   */\n      swap2\n      pop\n        /* \"#utility.yul\":22364:22457   */\n      tag_621\n        /* \"#utility.yul\":22453:22456   */\n      dup3\n        /* \"#utility.yul\":22364:22457   */\n      tag_388\n      jump\t// in\n    tag_621:\n        /* \"#utility.yul\":22482:22484   */\n      0x40\n        /* \"#utility.yul\":22477:22480   */\n      dup3\n        /* \"#utility.yul\":22473:22485   */\n      add\n        /* \"#utility.yul\":22466:22485   */\n      swap1\n      pop\n        /* \"#utility.yul\":22125:22491   */\n      swap2\n      swap1\n      pop\n      jump\t// out\n        /* \"#utility.yul\":22497:22916   */\n    tag_220:\n        /* \"#utility.yul\":22663:22667   */\n      0x00\n        /* \"#utility.yul\":22701:22703   */\n      0x20\n        /* \"#utility.yul\":22690:22699   */\n      dup3\n        /* \"#utility.yul\":22686:22704   */\n      add\n        /* \"#utility.yul\":22678:22704   */\n      swap1\n      pop\n        /* \"#utility.yul\":22750:22759   */\n      dup2\n        /* \"#utility.yul\":22744:22748   */\n      dup2\n        /* \"#utility.yul\":22740:22760   */\n      sub\n        /* \"#utility.yul\":22736:22737   */\n      0x00\n        /* \"#utility.yul\":22725:22734   */\n      dup4\n        /* \"#utility.yul\":22721:22738   */\n      add\n        /* \"#utility.yul\":22714:22761   */\n      mstore\n        /* \"#utility.yul\":22778:22909   */\n      tag_623\n        /* \"#utility.yul\":22904:22908   */\n      dup2\n        /* \"#utility.yul\":22778:22909   */\n      tag_389\n      jump\t// in\n    tag_623:\n        /* \"#utility.yul\":22770:22909   */\n      swap1\n      pop\n        /* \"#utility.yul\":22497:22916   */\n      swap2\n      swap1\n      pop\n      jump\t// out\n        /* \"#utility.yul\":22922:23103   */\n    tag_390:\n        /* \"#utility.yul\":23062:23095   */\n      0x45524332303a206d696e7420746f20746865207a65726f206164647265737300\n        /* \"#utility.yul\":23058:23059   */\n      0x00\n        /* \"#utility.yul\":23050:23056   */\n      dup3\n        /* \"#utility.yul\":23046:23060   */\n      add\n        /* \"#utility.yul\":23039:23096   */\n      mstore\n        /* \"#utility.yul\":22922:23103   */\n      pop\n      jump\t// out\n        /* \"#utility.yul\":23109:23475   */\n    tag_391:\n        /* \"#utility.yul\":23251:23254   */\n      0x00\n        /* \"#utility.yul\":23272:23339   */\n      tag_626\n        /* \"#utility.yul\":23336:23338   */\n      0x1f\n        /* \"#utility.yul\":23331:23334   */\n      dup4\n        /* \"#utility.yul\":23272:23339   */\n      tag_333\n      jump\t// in\n    tag_626:\n        /* \"#utility.yul\":23265:23339   */\n      swap2\n      pop\n        /* \"#utility.yul\":23348:23441   */\n      tag_627\n        /* \"#utility.yul\":23437:23440   */\n      dup3\n        /* \"#utility.yul\":23348:23441   */\n      tag_390\n      jump\t// in\n    tag_627:\n        /* \"#utility.yul\":23466:23468   */\n      0x20\n        /* \"#utility.yul\":23461:23464   */\n      dup3\n        /* \"#utility.yul\":23457:23469   */\n      add\n        /* \"#utility.yul\":23450:23469   */\n      swap1\n      pop\n        /* \"#utility.yul\":23109:23475   */\n      swap2\n      swap1\n      pop\n      jump\t// out\n        /* \"#utility.yul\":23481:23900   */\n    tag_234:\n        /* \"#utility.yul\":23647:23651   */\n      0x00\n        /* \"#utility.yul\":23685:23687   */\n      0x20\n        /* \"#utility.yul\":23674:23683   */\n      dup3\n        /* \"#utility.yul\":23670:23688   */\n      add\n        /* \"#utility.yul\":23662:23688   */\n      swap1\n      pop\n        /* \"#utility.yul\":23734:23743   */\n      dup2\n        /* \"#utility.yul\":23728:23732   */\n      dup2\n        /* \"#utility.yul\":23724:23744   */\n      sub\n        /* \"#utility.yul\":23720:23721   */\n      0x00\n        /* \"#utility.yul\":23709:23718   */\n      dup4\n        /* \"#utility.yul\":23705:23722   */\n      add\n        /* \"#utility.yul\":23698:23745   */\n      mstore\n        /* \"#utility.yul\":23762:23893   */\n      tag_629\n        /* \"#utility.yul\":23888:23892   */\n      dup2\n        /* \"#utility.yul\":23762:23893   */\n      tag_391\n      jump\t// in\n    tag_629:\n        /* \"#utility.yul\":23754:23893   */\n      swap1\n      pop\n        /* \"#utility.yul\":23481:23900   */\n      swap2\n      swap1\n      pop\n      jump\t// out\n        /* \"#utility.yul\":23906:24126   */\n    tag_392:\n        /* \"#utility.yul\":24046:24080   */\n      0x45524332303a206275726e2066726f6d20746865207a65726f20616464726573\n        /* \"#utility.yul\":24042:24043   */\n      0x00\n        /* \"#utility.yul\":24034:24040   */\n      dup3\n        /* \"#utility.yul\":24030:24044   */\n      add\n        /* \"#utility.yul\":24023:24081   */\n      mstore\n        /* \"#utility.yul\":24115:24118   */\n      0x7300000000000000000000000000000000000000000000000000000000000000\n        /* \"#utility.yul\":24110:24112   */\n      0x20\n        /* \"#utility.yul\":24102:24108   */\n      dup3\n        /* \"#utility.yul\":24098:24113   */\n      add\n        /* \"#utility.yul\":24091:24119   */\n      mstore\n        /* \"#utility.yul\":23906:24126   */\n      pop\n      jump\t// out\n        /* \"#utility.yul\":24132:24498   */\n    tag_393:\n        /* \"#utility.yul\":24274:24277   */\n      0x00\n        /* \"#utility.yul\":24295:24362   */\n      tag_632\n        /* \"#utility.yul\":24359:24361   */\n      0x21\n        /* \"#utility.yul\":24354:24357   */\n      dup4\n        /* \"#utility.yul\":24295:24362   */\n      tag_333\n      jump\t// in\n    tag_632:\n        /* \"#utility.yul\":24288:24362   */\n      swap2\n      pop\n        /* \"#utility.yul\":24371:24464   */\n      tag_633\n        /* \"#utility.yul\":24460:24463   */\n      dup3\n        /* \"#utility.yul\":24371:24464   */\n      tag_392\n      jump\t// in\n    tag_633:\n        /* \"#utility.yul\":24489:24491   */\n      0x40\n        /* \"#utility.yul\":24484:24487   */\n      dup3\n        /* \"#utility.yul\":24480:24492   */\n      add\n        /* \"#utility.yul\":24473:24492   */\n      swap1\n      pop\n        /* \"#utility.yul\":24132:24498   */\n      swap2\n      swap1\n      pop\n      jump\t// out\n        /* \"#utility.yul\":24504:24923   */\n    tag_243:\n        /* \"#utility.yul\":24670:24674   */\n      0x00\n        /* \"#utility.yul\":24708:24710   */\n      0x20\n        /* \"#utility.yul\":24697:24706   */\n      dup3\n        /* \"#utility.yul\":24693:24711   */\n      add\n        /* \"#utility.yul\":24685:24711   */\n      swap1\n      pop\n        /* \"#utility.yul\":24757:24766   */\n      dup2\n        /* \"#utility.yul\":24751:24755   */\n      dup2\n        /* \"#utility.yul\":24747:24767   */\n      sub\n        /* \"#utility.yul\":24743:24744   */\n      0x00\n        /* \"#utility.yul\":24732:24741   */\n      dup4\n        /* \"#utility.yul\":24728:24745   */\n      add\n        /* \"#utility.yul\":24721:24768   */\n      mstore\n        /* \"#utility.yul\":24785:24916   */\n      tag_635\n        /* \"#utility.yul\":24911:24915   */\n      dup2\n        /* \"#utility.yul\":24785:24916   */\n      tag_393\n      jump\t// in\n    tag_635:\n        /* \"#utility.yul\":24777:24916   */\n      swap1\n      pop\n        /* \"#utility.yul\":24504:24923   */\n      swap2\n      swap1\n      pop\n      jump\t// out\n        /* \"#utility.yul\":24929:25150   */\n    tag_394:\n        /* \"#utility.yul\":25069:25103   */\n      0x45524332303a206275726e20616d6f756e7420657863656564732062616c616e\n        /* \"#utility.yul\":25065:25066   */\n      0x00\n        /* \"#utility.yul\":25057:25063   */\n      dup3\n        /* \"#utility.yul\":25053:25067   */\n      add\n        /* \"#utility.yul\":25046:25104   */\n      mstore\n        /* \"#utility.yul\":25138:25142   */\n      0x6365000000000000000000000000000000000000000000000000000000000000\n        /* \"#utility.yul\":25133:25135   */\n      0x20\n        /* \"#utility.yul\":25125:25131   */\n      dup3\n        /* \"#utility.yul\":25121:25136   */\n      add\n        /* \"#utility.yul\":25114:25143   */\n      mstore\n        /* \"#utility.yul\":24929:25150   */\n      pop\n      jump\t// out\n        /* \"#utility.yul\":25156:25522   */\n    tag_395:\n        /* \"#utility.yul\":25298:25301   */\n      0x00\n        /* \"#utility.yul\":25319:25386   */\n      tag_638\n        /* \"#utility.yul\":25383:25385   */\n      0x22\n        /* \"#utility.yul\":25378:25381   */\n      dup4\n        /* \"#utility.yul\":25319:25386   */\n      tag_333\n      jump\t// in\n    tag_638:\n        /* \"#utility.yul\":25312:25386   */\n      swap2\n      pop\n        /* \"#utility.yul\":25395:25488   */\n      tag_639\n        /* \"#utility.yul\":25484:25487   */\n      dup3\n        /* \"#utility.yul\":25395:25488   */\n      tag_394\n      jump\t// in\n    tag_639:\n        /* \"#utility.yul\":25513:25515   */\n      0x40\n        /* \"#utility.yul\":25508:25511   */\n      dup3\n        /* \"#utility.yul\":25504:25516   */\n      add\n        /* \"#utility.yul\":25497:25516   */\n      swap1\n      pop\n        /* \"#utility.yul\":25156:25522   */\n      swap2\n      swap1\n      pop\n      jump\t// out\n        /* \"#utility.yul\":25528:25947   */\n    tag_247:\n        /* \"#utility.yul\":25694:25698   */\n      0x00\n        /* \"#utility.yul\":25732:25734   */\n      0x20\n        /* \"#utility.yul\":25721:25730   */\n      dup3\n        /* \"#utility.yul\":25717:25735   */\n      add\n        /* \"#utility.yul\":25709:25735   */\n      swap1\n      pop\n        /* \"#utility.yul\":25781:25790   */\n      dup2\n        /* \"#utility.yul\":25775:25779   */\n      dup2\n        /* \"#utility.yul\":25771:25791   */\n      sub\n        /* \"#utility.yul\":25767:25768   */\n      0x00\n        /* \"#utility.yul\":25756:25765   */\n      dup4\n        /* \"#utility.yul\":25752:25769   */\n      add\n        /* \"#utility.yul\":25745:25792   */\n      mstore\n        /* \"#utility.yul\":25809:25940   */\n      tag_641\n        /* \"#utility.yul\":25935:25939   */\n      dup2\n        /* \"#utility.yul\":25809:25940   */\n      tag_395\n      jump\t// in\n    tag_641:\n        /* \"#utility.yul\":25801:25940   */\n      swap1\n      pop\n        /* \"#utility.yul\":25528:25947   */\n      swap2\n      swap1\n      pop\n      jump\t// out\n        /* \"#utility.yul\":25953:26144   */\n    tag_249:\n        /* \"#utility.yul\":25993:25997   */\n      0x00\n        /* \"#utility.yul\":26013:26033   */\n      tag_643\n        /* \"#utility.yul\":26031:26032   */\n      dup3\n        /* \"#utility.yul\":26013:26033   */\n      tag_344\n      jump\t// in\n    tag_643:\n        /* \"#utility.yul\":26008:26033   */\n      swap2\n      pop\n        /* \"#utility.yul\":26047:26067   */\n      tag_644\n        /* \"#utility.yul\":26065:26066   */\n      dup4\n        /* \"#utility.yul\":26047:26067   */\n      tag_344\n      jump\t// in\n    tag_644:\n        /* \"#utility.yul\":26042:26067   */\n      swap3\n      pop\n        /* \"#utility.yul\":26086:26087   */\n      dup3\n        /* \"#utility.yul\":26083:26084   */\n      dup3\n        /* \"#utility.yul\":26080:26088   */\n      lt\n        /* \"#utility.yul\":26077:26111   */\n      iszero\n      tag_645\n      jumpi\n        /* \"#utility.yul\":26091:26109   */\n      tag_646\n      tag_367\n      jump\t// in\n    tag_646:\n        /* \"#utility.yul\":26077:26111   */\n    tag_645:\n        /* \"#utility.yul\":26136:26137   */\n      dup3\n        /* \"#utility.yul\":26133:26134   */\n      dup3\n        /* \"#utility.yul\":26129:26138   */\n      sub\n        /* \"#utility.yul\":26121:26138   */\n      swap1\n      pop\n        /* \"#utility.yul\":25953:26144   */\n      swap3\n      swap2\n      pop\n      pop\n      jump\t// out\n        /* \"#utility.yul\":26150:26373   */\n    tag_396:\n        /* \"#utility.yul\":26290:26324   */\n      0x45524332303a206275726e20616d6f756e74206578636565647320616c6c6f77\n        /* \"#utility.yul\":26286:26287   */\n      0x00\n        /* \"#utility.yul\":26278:26284   */\n      dup3\n        /* \"#utility.yul\":26274:26288   */\n      add\n        /* \"#utility.yul\":26267:26325   */\n      mstore\n        /* \"#utility.yul\":26359:26365   */\n      0x616e636500000000000000000000000000000000000000000000000000000000\n        /* \"#utility.yul\":26354:26356   */\n      0x20\n        /* \"#utility.yul\":26346:26352   */\n      dup3\n        /* \"#utility.yul\":26342:26357   */\n      add\n        /* \"#utility.yul\":26335:26366   */\n      mstore\n        /* \"#utility.yul\":26150:26373   */\n      pop\n      jump\t// out\n        /* \"#utility.yul\":26379:26745   */\n    tag_397:\n        /* \"#utility.yul\":26521:26524   */\n      0x00\n        /* \"#utility.yul\":26542:26609   */\n      tag_649\n        /* \"#utility.yul\":26606:26608   */\n      0x24\n        /* \"#utility.yul\":26601:26604   */\n      dup4\n        /* \"#utility.yul\":26542:26609   */\n      tag_333\n      jump\t// in\n    tag_649:\n        /* \"#utility.yul\":26535:26609   */\n      swap2\n      pop\n        /* \"#utility.yul\":26618:26711   */\n      tag_650\n        /* \"#utility.yul\":26707:26710   */\n      dup3\n        /* \"#utility.yul\":26618:26711   */\n      tag_396\n      jump\t// in\n    tag_650:\n        /* \"#utility.yul\":26736:26738   */\n      0x40\n        /* \"#utility.yul\":26731:26734   */\n      dup3\n        /* \"#utility.yul\":26727:26739   */\n      add\n        /* \"#utility.yul\":26720:26739   */\n      swap1\n      pop\n        /* \"#utility.yul\":26379:26745   */\n      swap2\n      swap1\n      pop\n      jump\t// out\n        /* \"#utility.yul\":26751:27170   */\n    tag_257:\n        /* \"#utility.yul\":26917:26921   */\n      0x00\n        /* \"#utility.yul\":26955:26957   */\n      0x20\n        /* \"#utility.yul\":26944:26953   */\n      dup3\n        /* \"#utility.yul\":26940:26958   */\n      add\n        /* \"#utility.yul\":26932:26958   */\n      swap1\n      pop\n        /* \"#utility.yul\":27004:27013   */\n      dup2\n        /* \"#utility.yul\":26998:27002   */\n      dup2\n        /* \"#utility.yul\":26994:27014   */\n      sub\n        /* \"#utility.yul\":26990:26991   */\n      0x00\n        /* \"#utility.yul\":26979:26988   */\n      dup4\n        /* \"#utility.yul\":26975:26992   */\n      add\n        /* \"#utility.yul\":26968:27015   */\n      mstore\n        /* \"#utility.yul\":27032:27163   */\n      tag_652\n        /* \"#utility.yul\":27158:27162   */\n      dup2\n        /* \"#utility.yul\":27032:27163   */\n      tag_397\n      jump\t// in\n    tag_652:\n        /* \"#utility.yul\":27024:27163   */\n      swap1\n      pop\n        /* \"#utility.yul\":26751:27170   */\n      swap2\n      swap1\n      pop\n      jump\t// out\n        /* \"#utility.yul\":27176:27840   */\n    tag_279:\n        /* \"#utility.yul\":27381:27385   */\n      0x00\n        /* \"#utility.yul\":27419:27422   */\n      0xa0\n        /* \"#utility.yul\":27408:27417   */\n      dup3\n        /* \"#utility.yul\":27404:27423   */\n      add\n        /* \"#utility.yul\":27396:27423   */\n      swap1\n      pop\n        /* \"#utility.yul\":27433:27504   */\n      tag_654\n        /* \"#utility.yul\":27501:27502   */\n      0x00\n        /* \"#utility.yul\":27490:27499   */\n      dup4\n        /* \"#utility.yul\":27486:27503   */\n      add\n        /* \"#utility.yul\":27477:27483   */\n      dup9\n        /* \"#utility.yul\":27433:27504   */\n      tag_353\n      jump\t// in\n    tag_654:\n        /* \"#utility.yul\":27514:27586   */\n      tag_655\n        /* \"#utility.yul\":27582:27584   */\n      0x20\n        /* \"#utility.yul\":27571:27580   */\n      dup4\n        /* \"#utility.yul\":27567:27585   */\n      add\n        /* \"#utility.yul\":27558:27564   */\n      dup8\n        /* \"#utility.yul\":27514:27586   */\n      tag_353\n      jump\t// in\n    tag_655:\n        /* \"#utility.yul\":27596:27668   */\n      tag_656\n        /* \"#utility.yul\":27664:27666   */\n      0x40\n        /* \"#utility.yul\":27653:27662   */\n      dup4\n        /* \"#utility.yul\":27649:27667   */\n      add\n        /* \"#utility.yul\":27640:27646   */\n      dup7\n        /* \"#utility.yul\":27596:27668   */\n      tag_353\n      jump\t// in\n    tag_656:\n        /* \"#utility.yul\":27678:27750   */\n      tag_657\n        /* \"#utility.yul\":27746:27748   */\n      0x60\n        /* \"#utility.yul\":27735:27744   */\n      dup4\n        /* \"#utility.yul\":27731:27749   */\n      add\n        /* \"#utility.yul\":27722:27728   */\n      dup6\n        /* \"#utility.yul\":27678:27750   */\n      tag_349\n      jump\t// in\n    tag_657:\n        /* \"#utility.yul\":27760:27833   */\n      tag_658\n        /* \"#utility.yul\":27828:27831   */\n      0x80\n        /* \"#utility.yul\":27817:27826   */\n      dup4\n        /* \"#utility.yul\":27813:27832   */\n      add\n        /* \"#utility.yul\":27804:27810   */\n      dup5\n        /* \"#utility.yul\":27760:27833   */\n      tag_375\n      jump\t// in\n    tag_658:\n        /* \"#utility.yul\":27176:27840   */\n      swap7\n      swap6\n      pop\n      pop\n      pop\n      pop\n      pop\n      pop\n      jump\t// out\n        /* \"#utility.yul\":27846:27994   */\n    tag_398:\n        /* \"#utility.yul\":27948:27959   */\n      0x00\n        /* \"#utility.yul\":27985:27988   */\n      dup2\n        /* \"#utility.yul\":27970:27988   */\n      swap1\n      pop\n        /* \"#utility.yul\":27846:27994   */\n      swap3\n      swap2\n      pop\n      pop\n      jump\t// out\n        /* \"#utility.yul\":28000:28214   */\n    tag_399:\n        /* \"#utility.yul\":28140:28206   */\n      0x1901000000000000000000000000000000000000000000000000000000000000\n        /* \"#utility.yul\":28136:28137   */\n      0x00\n        /* \"#utility.yul\":28128:28134   */\n      dup3\n        /* \"#utility.yul\":28124:28138   */\n      add\n        /* \"#utility.yul\":28117:28207   */\n      mstore\n        /* \"#utility.yul\":28000:28214   */\n      pop\n      jump\t// out\n        /* \"#utility.yul\":28220:28620   */\n    tag_400:\n        /* \"#utility.yul\":28380:28383   */\n      0x00\n        /* \"#utility.yul\":28401:28485   */\n      tag_662\n        /* \"#utility.yul\":28483:28484   */\n      0x02\n        /* \"#utility.yul\":28478:28481   */\n      dup4\n        /* \"#utility.yul\":28401:28485   */\n      tag_398\n      jump\t// in\n    tag_662:\n        /* \"#utility.yul\":28394:28485   */\n      swap2\n      pop\n        /* \"#utility.yul\":28494:28587   */\n      tag_663\n        /* \"#utility.yul\":28583:28586   */\n      dup3\n        /* \"#utility.yul\":28494:28587   */\n      tag_399\n      jump\t// in\n    tag_663:\n        /* \"#utility.yul\":28612:28613   */\n      0x02\n        /* \"#utility.yul\":28607:28610   */\n      dup3\n        /* \"#utility.yul\":28603:28614   */\n      add\n        /* \"#utility.yul\":28596:28614   */\n      swap1\n      pop\n        /* \"#utility.yul\":28220:28620   */\n      swap2\n      swap1\n      pop\n      jump\t// out\n        /* \"#utility.yul\":28626:28705   */\n    tag_401:\n        /* \"#utility.yul\":28665:28672   */\n      0x00\n        /* \"#utility.yul\":28694:28699   */\n      dup2\n        /* \"#utility.yul\":28683:28699   */\n      swap1\n      pop\n        /* \"#utility.yul\":28626:28705   */\n      swap2\n      swap1\n      pop\n      jump\t// out\n        /* \"#utility.yul\":28711:28868   */\n    tag_402:\n        /* \"#utility.yul\":28816:28861   */\n      tag_666\n        /* \"#utility.yul\":28836:28860   */\n      tag_667\n        /* \"#utility.yul\":28854:28859   */\n      dup3\n        /* \"#utility.yul\":28836:28860   */\n      tag_352\n      jump\t// in\n    tag_667:\n        /* \"#utility.yul\":28816:28861   */\n      tag_401\n      jump\t// in\n    tag_666:\n        /* \"#utility.yul\":28811:28814   */\n      dup3\n        /* \"#utility.yul\":28804:28862   */\n      mstore\n        /* \"#utility.yul\":28711:28868   */\n      pop\n      pop\n      jump\t// out\n        /* \"#utility.yul\":28874:29537   */\n    tag_283:\n        /* \"#utility.yul\":29115:29118   */\n      0x00\n        /* \"#utility.yul\":29137:29285   */\n      tag_669\n        /* \"#utility.yul\":29281:29284   */\n      dup3\n        /* \"#utility.yul\":29137:29285   */\n      tag_400\n      jump\t// in\n    tag_669:\n        /* \"#utility.yul\":29130:29285   */\n      swap2\n      pop\n        /* \"#utility.yul\":29295:29370   */\n      tag_670\n        /* \"#utility.yul\":29366:29369   */\n      dup3\n        /* \"#utility.yul\":29357:29363   */\n      dup6\n        /* \"#utility.yul\":29295:29370   */\n      tag_402\n      jump\t// in\n    tag_670:\n        /* \"#utility.yul\":29395:29397   */\n      0x20\n        /* \"#utility.yul\":29390:29393   */\n      dup3\n        /* \"#utility.yul\":29386:29398   */\n      add\n        /* \"#utility.yul\":29379:29398   */\n      swap2\n      pop\n        /* \"#utility.yul\":29408:29483   */\n      tag_671\n        /* \"#utility.yul\":29479:29482   */\n      dup3\n        /* \"#utility.yul\":29470:29476   */\n      dup5\n        /* \"#utility.yul\":29408:29483   */\n      tag_402\n      jump\t// in\n    tag_671:\n        /* \"#utility.yul\":29508:29510   */\n      0x20\n        /* \"#utility.yul\":29503:29506   */\n      dup3\n        /* \"#utility.yul\":29499:29511   */\n      add\n        /* \"#utility.yul\":29492:29511   */\n      swap2\n      pop\n        /* \"#utility.yul\":29528:29531   */\n      dup2\n        /* \"#utility.yul\":29521:29531   */\n      swap1\n      pop\n        /* \"#utility.yul\":28874:29537   */\n      swap4\n      swap3\n      pop\n      pop\n      pop\n      jump\t// out\n        /* \"#utility.yul\":29543:30088   */\n    tag_289:\n        /* \"#utility.yul\":29716:29720   */\n      0x00\n        /* \"#utility.yul\":29754:29757   */\n      0x80\n        /* \"#utility.yul\":29743:29752   */\n      dup3\n        /* \"#utility.yul\":29739:29758   */\n      add\n        /* \"#utility.yul\":29731:29758   */\n      swap1\n      pop\n        /* \"#utility.yul\":29768:29839   */\n      tag_673\n        /* \"#utility.yul\":29836:29837   */\n      0x00\n        /* \"#utility.yul\":29825:29834   */\n      dup4\n        /* \"#utility.yul\":29821:29838   */\n      add\n        /* \"#utility.yul\":29812:29818   */\n      dup8\n        /* \"#utility.yul\":29768:29839   */\n      tag_353\n      jump\t// in\n    tag_673:\n        /* \"#utility.yul\":29849:29917   */\n      tag_674\n        /* \"#utility.yul\":29913:29915   */\n      0x20\n        /* \"#utility.yul\":29902:29911   */\n      dup4\n        /* \"#utility.yul\":29898:29916   */\n      add\n        /* \"#utility.yul\":29889:29895   */\n      dup7\n        /* \"#utility.yul\":29849:29917   */\n      tag_351\n      jump\t// in\n    tag_674:\n        /* \"#utility.yul\":29927:29999   */\n      tag_675\n        /* \"#utility.yul\":29995:29997   */\n      0x40\n        /* \"#utility.yul\":29984:29993   */\n      dup4\n        /* \"#utility.yul\":29980:29998   */\n      add\n        /* \"#utility.yul\":29971:29977   */\n      dup6\n        /* \"#utility.yul\":29927:29999   */\n      tag_353\n      jump\t// in\n    tag_675:\n        /* \"#utility.yul\":30009:30081   */\n      tag_676\n        /* \"#utility.yul\":30077:30079   */\n      0x60\n        /* \"#utility.yul\":30066:30075   */\n      dup4\n        /* \"#utility.yul\":30062:30080   */\n      add\n        /* \"#utility.yul\":30053:30059   */\n      dup5\n        /* \"#utility.yul\":30009:30081   */\n      tag_353\n      jump\t// in\n    tag_676:\n        /* \"#utility.yul\":29543:30088   */\n      swap6\n      swap5\n      pop\n      pop\n      pop\n      pop\n      pop\n      jump\t// out\n        /* \"#utility.yul\":30094:30274   */\n    tag_296:\n        /* \"#utility.yul\":30142:30219   */\n      0x4e487b7100000000000000000000000000000000000000000000000000000000\n        /* \"#utility.yul\":30139:30140   */\n      0x00\n        /* \"#utility.yul\":30132:30220   */\n      mstore\n        /* \"#utility.yul\":30239:30243   */\n      0x21\n        /* \"#utility.yul\":30236:30237   */\n      0x04\n        /* \"#utility.yul\":30229:30244   */\n      mstore\n        /* \"#utility.yul\":30263:30267   */\n      0x24\n        /* \"#utility.yul\":30260:30261   */\n      0x00\n        /* \"#utility.yul\":30253:30268   */\n      revert\n        /* \"#utility.yul\":30280:30454   */\n    tag_403:\n        /* \"#utility.yul\":30420:30446   */\n      0x45434453413a20696e76616c6964207369676e61747572650000000000000000\n        /* \"#utility.yul\":30416:30417   */\n      0x00\n        /* \"#utility.yul\":30408:30414   */\n      dup3\n        /* \"#utility.yul\":30404:30418   */\n      add\n        /* \"#utility.yul\":30397:30447   */\n      mstore\n        /* \"#utility.yul\":30280:30454   */\n      pop\n      jump\t// out\n        /* \"#utility.yul\":30460:30826   */\n    tag_404:\n        /* \"#utility.yul\":30602:30605   */\n      0x00\n        /* \"#utility.yul\":30623:30690   */\n      tag_680\n        /* \"#utility.yul\":30687:30689   */\n      0x18\n        /* \"#utility.yul\":30682:30685   */\n      dup4\n        /* \"#utility.yul\":30623:30690   */\n      tag_333\n      jump\t// in\n    tag_680:\n        /* \"#utility.yul\":30616:30690   */\n      swap2\n      pop\n        /* \"#utility.yul\":30699:30792   */\n      tag_681\n        /* \"#utility.yul\":30788:30791   */\n      dup3\n        /* \"#utility.yul\":30699:30792   */\n      tag_403\n      jump\t// in\n    tag_681:\n        /* \"#utility.yul\":30817:30819   */\n      0x20\n        /* \"#utility.yul\":30812:30815   */\n      dup3\n        /* \"#utility.yul\":30808:30820   */\n      add\n        /* \"#utility.yul\":30801:30820   */\n      swap1\n      pop\n        /* \"#utility.yul\":30460:30826   */\n      swap2\n      swap1\n      pop\n      jump\t// out\n        /* \"#utility.yul\":30832:31251   */\n    tag_307:\n        /* \"#utility.yul\":30998:31002   */\n      0x00\n        /* \"#utility.yul\":31036:31038   */\n      0x20\n        /* \"#utility.yul\":31025:31034   */\n      dup3\n        /* \"#utility.yul\":31021:31039   */\n      add\n        /* \"#utility.yul\":31013:31039   */\n      swap1\n      pop\n        /* \"#utility.yul\":31085:31094   */\n      dup2\n        /* \"#utility.yul\":31079:31083   */\n      dup2\n        /* \"#utility.yul\":31075:31095   */\n      sub\n        /* \"#utility.yul\":31071:31072   */\n      0x00\n        /* \"#utility.yul\":31060:31069   */\n      dup4\n        /* \"#utility.yul\":31056:31073   */\n      add\n        /* \"#utility.yul\":31049:31096   */\n      mstore\n        /* \"#utility.yul\":31113:31244   */\n      tag_683\n        /* \"#utility.yul\":31239:31243   */\n      dup2\n        /* \"#utility.yul\":31113:31244   */\n      tag_404\n      jump\t// in\n    tag_683:\n        /* \"#utility.yul\":31105:31244   */\n      swap1\n      pop\n        /* \"#utility.yul\":30832:31251   */\n      swap2\n      swap1\n      pop\n      jump\t// out\n        /* \"#utility.yul\":31257:31438   */\n    tag_405:\n        /* \"#utility.yul\":31397:31430   */\n      0x45434453413a20696e76616c6964207369676e6174757265206c656e67746800\n        /* \"#utility.yul\":31393:31394   */\n      0x00\n        /* \"#utility.yul\":31385:31391   */\n      dup3\n        /* \"#utility.yul\":31381:31395   */\n      add\n        /* \"#utility.yul\":31374:31431   */\n      mstore\n        /* \"#utility.yul\":31257:31438   */\n      pop\n      jump\t// out\n        /* \"#utility.yul\":31444:31810   */\n    tag_406:\n        /* \"#utility.yul\":31586:31589   */\n      0x00\n        /* \"#utility.yul\":31607:31674   */\n      tag_686\n        /* \"#utility.yul\":31671:31673   */\n      0x1f\n        /* \"#utility.yul\":31666:31669   */\n      dup4\n        /* \"#utility.yul\":31607:31674   */\n      tag_333\n      jump\t// in\n    tag_686:\n        /* \"#utility.yul\":31600:31674   */\n      swap2\n      pop\n        /* \"#utility.yul\":31683:31776   */\n      tag_687\n        /* \"#utility.yul\":31772:31775   */\n      dup3\n        /* \"#utility.yul\":31683:31776   */\n      tag_405\n      jump\t// in\n    tag_687:\n        /* \"#utility.yul\":31801:31803   */\n      0x20\n        /* \"#utility.yul\":31796:31799   */\n      dup3\n        /* \"#utility.yul\":31792:31804   */\n      add\n        /* \"#utility.yul\":31785:31804   */\n      swap1\n      pop\n        /* \"#utility.yul\":31444:31810   */\n      swap2\n      swap1\n      pop\n      jump\t// out\n        /* \"#utility.yul\":31816:32235   */\n    tag_315:\n        /* \"#utility.yul\":31982:31986   */\n      0x00\n        /* \"#utility.yul\":32020:32022   */\n      0x20\n        /* \"#utility.yul\":32009:32018   */\n      dup3\n        /* \"#utility.yul\":32005:32023   */\n      add\n        /* \"#utility.yul\":31997:32023   */\n      swap1\n      pop\n        /* \"#utility.yul\":32069:32078   */\n      dup2\n        /* \"#utility.yul\":32063:32067   */\n      dup2\n        /* \"#utility.yul\":32059:32079   */\n      sub\n        /* \"#utility.yul\":32055:32056   */\n      0x00\n        /* \"#utility.yul\":32044:32053   */\n      dup4\n        /* \"#utility.yul\":32040:32057   */\n      add\n        /* \"#utility.yul\":32033:32080   */\n      mstore\n        /* \"#utility.yul\":32097:32228   */\n      tag_689\n        /* \"#utility.yul\":32223:32227   */\n      dup2\n        /* \"#utility.yul\":32097:32228   */\n      tag_406\n      jump\t// in\n    tag_689:\n        /* \"#utility.yul\":32089:32228   */\n      swap1\n      pop\n        /* \"#utility.yul\":31816:32235   */\n      swap2\n      swap1\n      pop\n      jump\t// out\n        /* \"#utility.yul\":32241:32462   */\n    tag_407:\n        /* \"#utility.yul\":32381:32415   */\n      0x45434453413a20696e76616c6964207369676e6174757265202773272076616c\n        /* \"#utility.yul\":32377:32378   */\n      0x00\n        /* \"#utility.yul\":32369:32375   */\n      dup3\n        /* \"#utility.yul\":32365:32379   */\n      add\n        /* \"#utility.yul\":32358:32416   */\n      mstore\n        /* \"#utility.yul\":32450:32454   */\n      0x7565000000000000000000000000000000000000000000000000000000000000\n        /* \"#utility.yul\":32445:32447   */\n      0x20\n        /* \"#utility.yul\":32437:32443   */\n      dup3\n        /* \"#utility.yul\":32433:32448   */\n      add\n        /* \"#utility.yul\":32426:32455   */\n      mstore\n        /* \"#utility.yul\":32241:32462   */\n      pop\n      jump\t// out\n        /* \"#utility.yul\":32468:32834   */\n    tag_408:\n        /* \"#utility.yul\":32610:32613   */\n      0x00\n        /* \"#utility.yul\":32631:32698   */\n      tag_692\n        /* \"#utility.yul\":32695:32697   */\n      0x22\n        /* \"#utility.yul\":32690:32693   */\n      dup4\n        /* \"#utility.yul\":32631:32698   */\n      tag_333\n      jump\t// in\n    tag_692:\n        /* \"#utility.yul\":32624:32698   */\n      swap2\n      pop\n        /* \"#utility.yul\":32707:32800   */\n      tag_693\n        /* \"#utility.yul\":32796:32799   */\n      dup3\n        /* \"#utility.yul\":32707:32800   */\n      tag_407\n      jump\t// in\n    tag_693:\n        /* \"#utility.yul\":32825:32827   */\n      0x40\n        /* \"#utility.yul\":32820:32823   */\n      dup3\n        /* \"#utility.yul\":32816:32828   */\n      add\n        /* \"#utility.yul\":32809:32828   */\n      swap1\n      pop\n        /* \"#utility.yul\":32468:32834   */\n      swap2\n      swap1\n      pop\n      jump\t// out\n        /* \"#utility.yul\":32840:33259   */\n    tag_323:\n        /* \"#utility.yul\":33006:33010   */\n      0x00\n        /* \"#utility.yul\":33044:33046   */\n      0x20\n        /* \"#utility.yul\":33033:33042   */\n      dup3\n        /* \"#utility.yul\":33029:33047   */\n      add\n        /* \"#utility.yul\":33021:33047   */\n      swap1\n      pop\n        /* \"#utility.yul\":33093:33102   */\n      dup2\n        /* \"#utility.yul\":33087:33091   */\n      dup2\n        /* \"#utility.yul\":33083:33103   */\n      sub\n        /* \"#utility.yul\":33079:33080   */\n      0x00\n        /* \"#utility.yul\":33068:33077   */\n      dup4\n        /* \"#utility.yul\":33064:33081   */\n      add\n        /* \"#utility.yul\":33057:33104   */\n      mstore\n        /* \"#utility.yul\":33121:33252   */\n      tag_695\n        /* \"#utility.yul\":33247:33251   */\n      dup2\n        /* \"#utility.yul\":33121:33252   */\n      tag_408\n      jump\t// in\n    tag_695:\n        /* \"#utility.yul\":33113:33252   */\n      swap1\n      pop\n        /* \"#utility.yul\":32840:33259   */\n      swap2\n      swap1\n      pop\n      jump\t// out\n        /* \"#utility.yul\":33265:33486   */\n    tag_409:\n        /* \"#utility.yul\":33405:33439   */\n      0x45434453413a20696e76616c6964207369676e6174757265202776272076616c\n        /* \"#utility.yul\":33401:33402   */\n      0x00\n        /* \"#utility.yul\":33393:33399   */\n      dup3\n        /* \"#utility.yul\":33389:33403   */\n      add\n        /* \"#utility.yul\":33382:33440   */\n      mstore\n        /* \"#utility.yul\":33474:33478   */\n      0x7565000000000000000000000000000000000000000000000000000000000000\n        /* \"#utility.yul\":33469:33471   */\n      0x20\n        /* \"#utility.yul\":33461:33467   */\n      dup3\n        /* \"#utility.yul\":33457:33472   */\n      add\n        /* \"#utility.yul\":33450:33479   */\n      mstore\n        /* \"#utility.yul\":33265:33486   */\n      pop\n      jump\t// out\n        /* \"#utility.yul\":33492:33858   */\n    tag_410:\n        /* \"#utility.yul\":33634:33637   */\n      0x00\n        /* \"#utility.yul\":33655:33722   */\n      tag_698\n        /* \"#utility.yul\":33719:33721   */\n      0x22\n        /* \"#utility.yul\":33714:33717   */\n      dup4\n        /* \"#utility.yul\":33655:33722   */\n      tag_333\n      jump\t// in\n    tag_698:\n        /* \"#utility.yul\":33648:33722   */\n      swap2\n      pop\n        /* \"#utility.yul\":33731:33824   */\n      tag_699\n        /* \"#utility.yul\":33820:33823   */\n      dup3\n        /* \"#utility.yul\":33731:33824   */\n      tag_409\n      jump\t// in\n    tag_699:\n        /* \"#utility.yul\":33849:33851   */\n      0x40\n        /* \"#utility.yul\":33844:33847   */\n      dup3\n        /* \"#utility.yul\":33840:33852   */\n      add\n        /* \"#utility.yul\":33833:33852   */\n      swap1\n      pop\n        /* \"#utility.yul\":33492:33858   */\n      swap2\n      swap1\n      pop\n      jump\t// out\n        /* \"#utility.yul\":33864:34283   */\n    tag_331:\n        /* \"#utility.yul\":34030:34034   */\n      0x00\n        /* \"#utility.yul\":34068:34070   */\n      0x20\n        /* \"#utility.yul\":34057:34066   */\n      dup3\n        /* \"#utility.yul\":34053:34071   */\n      add\n        /* \"#utility.yul\":34045:34071   */\n      swap1\n      pop\n        /* \"#utility.yul\":34117:34126   */\n      dup2\n        /* \"#utility.yul\":34111:34115   */\n      dup2\n        /* \"#utility.yul\":34107:34127   */\n      sub\n        /* \"#utility.yul\":34103:34104   */\n      0x00\n        /* \"#utility.yul\":34092:34101   */\n      dup4\n        /* \"#utility.yul\":34088:34105   */\n      add\n        /* \"#utility.yul\":34081:34128   */\n      mstore\n        /* \"#utility.yul\":34145:34276   */\n      tag_701\n        /* \"#utility.yul\":34271:34275   */\n      dup2\n        /* \"#utility.yul\":34145:34276   */\n      tag_410\n      jump\t// in\n    tag_701:\n        /* \"#utility.yul\":34137:34276   */\n      swap1\n      pop\n        /* \"#utility.yul\":33864:34283   */\n      swap2\n      swap1\n      pop\n      jump\t// out\n\n    auxdata: 0xa2646970667358221220e1e28c5cfb55848f00eaf095cf3a1c33158977def7e127af3da388f6dc593bee64736f6c634300080d0033\n}\n",
				"bytecode": {
					"linkReferences": {},
					"object": "6101606040526040518060400160405280600c81526020017f554e415554484f52495a45440000000000000000000000000000000000000000815250600790805190602001906200005292919062000321565b503480156200006057600080fd5b50604051620031683803806200316883398181016040528101906200008691906200043b565b806040518060400160405280600381526020017f5343540000000000000000000000000000000000000000000000000000000000815250806040518060400160405280600181526020017f31000000000000000000000000000000000000000000000000000000000000008152506040518060400160405280600381526020017f53435400000000000000000000000000000000000000000000000000000000008152506040518060400160405280600381526020017f5343540000000000000000000000000000000000000000000000000000000000815250600982600390805190602001906200017a92919062000321565b5081600490805190602001906200019392919062000321565b508060ff1660808160ff168152505050505060008280519060200120905060008280519060200120905060007f8b73c3c69bb8fe3d512ecc4cf759cc79239f7b179b0ffacaa9a75d522b39400f90508261010081815250508161012081815250504660c081815250506200020f818484620002e560201b60201c565b60a081815250503073ffffffffffffffffffffffffffffffffffffffff1660e08173ffffffffffffffffffffffffffffffffffffffff168152505080610140818152505050505050505080600860006101000a81548173ffffffffffffffffffffffffffffffffffffffff021916908373ffffffffffffffffffffffffffffffffffffffff1602179055508073ffffffffffffffffffffffffffffffffffffffff167f2f658b440c35314f52658ea8a740e05b284cdc84dc9ae01e891f21b8933e7cad60405160405180910390a2505062000575565b6000838383463060405160200162000302959493929190620004b4565b6040516020818303038152906040528051906020012090509392505050565b8280546200032f9062000540565b90600052602060002090601f0160209004810192826200035357600085556200039f565b82601f106200036e57805160ff19168380011785556200039f565b828001600101855582156200039f579182015b828111156200039e57825182559160200191906001019062000381565b5b509050620003ae9190620003b2565b5090565b5b80821115620003cd576000816000905550600101620003b3565b5090565b600080fd5b600073ffffffffffffffffffffffffffffffffffffffff82169050919050565b60006200040382620003d6565b9050919050565b6200041581620003f6565b81146200042157600080fd5b50565b60008151905062000435816200040a565b92915050565b600060208284031215620004545762000453620003d1565b5b6000620004648482850162000424565b91505092915050565b6000819050919050565b62000482816200046d565b82525050565b6000819050919050565b6200049d8162000488565b82525050565b620004ae81620003f6565b82525050565b600060a082019050620004cb600083018862000477565b620004da602083018762000477565b620004e9604083018662000477565b620004f8606083018562000492565b620005076080830184620004a3565b9695505050505050565b7f4e487b7100000000000000000000000000000000000000000000000000000000600052602260045260246000fd5b600060028204905060018216806200055957607f821691505b6020821081036200056f576200056e62000511565b5b50919050565b60805160a05160c05160e051610100516101205161014051612b98620005d0600039600061113501526000611177015260006111560152600061108b015260006110e10152600061110a015260006104d80152612b986000f3fe608060405234801561001057600080fd5b50600436106101215760003560e01c806370a08231116100ad578063a457c2d711610071578063a457c2d71461031c578063a9059cbb1461034c578063bf7e214f1461037c578063d505accf1461039a578063dd62ed3e146103b657610121565b806370a082311461026657806379cc6790146102965780637a9e5e4b146102b25780637ecebe00146102ce57806395d89b41146102fe57610121565b8063313ce567116100f4578063313ce567146101c25780633644e515146101e057806339509351146101fe57806340c10f191461022e57806342966c681461024a57610121565b806306fdde0314610126578063095ea7b31461014457806318160ddd1461017457806323b872dd14610192575b600080fd5b61012e6103e6565b60405161013b9190611a0a565b60405180910390f35b61015e60048036038101906101599190611ac5565b610478565b60405161016b9190611b20565b60405180910390f35b61017c61049b565b6040516101899190611b4a565b60405180910390f35b6101ac60048036038101906101a79190611b65565b6104a5565b6040516101b99190611b20565b60405180910390f35b6101ca6104d4565b6040516101d79190611bd4565b60405180910390f35b6101e86104fc565b6040516101f59190611c08565b60405180910390f35b61021860048036038101906102139190611ac5565b61050b565b6040516102259190611b20565b60405180910390f35b61024860048036038101906102439190611ac5565b610542565b005b610264600480360381019061025f9190611c23565b610653565b005b610280600480360381019061027b9190611c50565b610660565b60405161028d9190611b4a565b60405180910390f35b6102b060048036038101906102ab9190611ac5565b6106a8565b005b6102cc60048036038101906102c79190611cbb565b6106b6565b005b6102e860048036038101906102e39190611c50565b610840565b6040516102f59190611b4a565b60405180910390f35b610306610890565b6040516103139190611a0a565b60405180910390f35b61033660048036038101906103319190611ac5565b610922565b6040516103439190611b20565b60405180910390f35b61036660048036038101906103619190611ac5565b610999565b6040516103739190611b20565b60405180910390f35b6103846109bc565b6040516103919190611d47565b60405180910390f35b6103b460048036038101906103af9190611dba565b6109e2565b005b6103d060048036038101906103cb9190611e5c565b610b24565b6040516103dd9190611b4a565b60405180910390f35b6060600380546103f590611ecb565b80601f016020809104026020016040519081016040528092919081815260200182805461042190611ecb565b801561046e5780601f106104435761010080835404028352916020019161046e565b820191906000526020600020905b81548152906001019060200180831161045157829003601f168201915b5050505050905090565b600080610483610bab565b9050610490818585610bb3565b600191505092915050565b6000600254905090565b6000806104b0610bab565b90506104bd858285610d7c565b6104c8858585610e08565b60019150509392505050565b60007f0000000000000000000000000000000000000000000000000000000000000000905090565b6000610506611087565b905090565b600080610516610bab565b90506105378185856105288589610b24565b6105329190611f2b565b610bb3565b600191505092915050565b600860009054906101000a900473ffffffffffffffffffffffffffffffffffffffff1673ffffffffffffffffffffffffffffffffffffffff1663fbfa77cf6040518163ffffffff1660e01b8152600401602060405180830381865afa1580156105af573d6000803e3d6000fd5b505050506040513d601f19601f820116820180604052508101906105d39190611f96565b73ffffffffffffffffffffffffffffffffffffffff163373ffffffffffffffffffffffffffffffffffffffff1614600790610644576040517f08c379a000000000000000000000000000000000000000000000000000000000815260040161063b9190612058565b60405180910390fd5b5061064f82826111a1565b5050565b61065d3382611300565b50565b60008060008373ffffffffffffffffffffffffffffffffffffffff1673ffffffffffffffffffffffffffffffffffffffff168152602001908152602001600020549050919050565b6106b282826114d6565b5050565b600860009054906101000a900473ffffffffffffffffffffffffffffffffffffffff1673ffffffffffffffffffffffffffffffffffffffff16630c340a246040518163ffffffff1660e01b8152600401602060405180830381865afa158015610723573d6000803e3d6000fd5b505050506040513d601f19601f820116820180604052508101906107479190611f96565b73ffffffffffffffffffffffffffffffffffffffff163373ffffffffffffffffffffffffffffffffffffffff16146007906107b8576040517f08c379a00000000000000000000000000000000000000000000000000000000081526004016107af9190612058565b60405180910390fd5b5080600860006101000a81548173ffffffffffffffffffffffffffffffffffffffff021916908373ffffffffffffffffffffffffffffffffffffffff1602179055508073ffffffffffffffffffffffffffffffffffffffff167f2f658b440c35314f52658ea8a740e05b284cdc84dc9ae01e891f21b8933e7cad60405160405180910390a250565b6000610889600560008473ffffffffffffffffffffffffffffffffffffffff1673ffffffffffffffffffffffffffffffffffffffff16815260200190815260200160002061155b565b9050919050565b60606004805461089f90611ecb565b80601f01602080910402602001604051908101604052809291908181526020018280546108cb90611ecb565b80156109185780601f106108ed57610100808354040283529160200191610918565b820191906000526020600020905b8154815290600101906020018083116108fb57829003601f168201915b5050505050905090565b60008061092d610bab565b9050600061093b8286610b24565b905083811015610980576040517f08c379a0000000000000000000000000000000000000000000000000000000008152600401610977906120ec565b60405180910390fd5b61098d8286868403610bb3565b60019250505092915050565b6000806109a4610bab565b90506109b1818585610e08565b600191505092915050565b600860009054906101000a900473ffffffffffffffffffffffffffffffffffffffff1681565b83421115610a25576040517f08c379a0000000000000000000000000000000000000000000000000000000008152600401610a1c90612158565b60405180910390fd5b60007f6e71edae12b1b97f4d1f60370fef10105fa2faae0126114a169c64845d6126c9888888610a548c611569565b89604051602001610a6a96959493929190612187565b6040516020818303038152906040528051906020012090506000610a8d826115c7565b90506000610a9d828787876115e1565b90508973ffffffffffffffffffffffffffffffffffffffff168173ffffffffffffffffffffffffffffffffffffffff1614610b0d576040517f08c379a0000000000000000000000000000000000000000000000000000000008152600401610b0490612234565b60405180910390fd5b610b188a8a8a610bb3565b50505050505050505050565b6000600160008473ffffffffffffffffffffffffffffffffffffffff1673ffffffffffffffffffffffffffffffffffffffff16815260200190815260200160002060008373ffffffffffffffffffffffffffffffffffffffff1673ffffffffffffffffffffffffffffffffffffffff16815260200190815260200160002054905092915050565b600033905090565b600073ffffffffffffffffffffffffffffffffffffffff168373ffffffffffffffffffffffffffffffffffffffff1603610c22576040517f08c379a0000000000000000000000000000000000000000000000000000000008152600401610c19906122c6565b60405180910390fd5b600073ffffffffffffffffffffffffffffffffffffffff168273ffffffffffffffffffffffffffffffffffffffff1603610c91576040517f08c379a0000000000000000000000000000000000000000000000000000000008152600401610c8890612358565b60405180910390fd5b80600160008573ffffffffffffffffffffffffffffffffffffffff1673ffffffffffffffffffffffffffffffffffffffff16815260200190815260200160002060008473ffffffffffffffffffffffffffffffffffffffff1673ffffffffffffffffffffffffffffffffffffffff168152602001908152602001600020819055508173ffffffffffffffffffffffffffffffffffffffff168373ffffffffffffffffffffffffffffffffffffffff167f8c5be1e5ebec7d5bd14f71427d1e84f3dd0314c0f7b2291e5b200ac8c7c3b92583604051610d6f9190611b4a565b60405180910390a3505050565b6000610d888484610b24565b90507fffffffffffffffffffffffffffffffffffffffffffffffffffffffffffffffff8114610e025781811015610df4576040517f08c379a0000000000000000000000000000000000000000000000000000000008152600401610deb906123c4565b60405180910390fd5b610e018484848403610bb3565b5b50505050565b600073ffffffffffffffffffffffffffffffffffffffff168373ffffffffffffffffffffffffffffffffffffffff1603610e77576040517f08c379a0000000000000000000000000000000000000000000000000000000008152600401610e6e90612456565b60405180910390fd5b600073ffffffffffffffffffffffffffffffffffffffff168273ffffffffffffffffffffffffffffffffffffffff1603610ee6576040517f08c379a0000000000000000000000000000000000000000000000000000000008152600401610edd906124e8565b60405180910390fd5b610ef183838361160c565b60008060008573ffffffffffffffffffffffffffffffffffffffff1673ffffffffffffffffffffffffffffffffffffffff16815260200190815260200160002054905081811015610f77576040517f08c379a0000000000000000000000000000000000000000000000000000000008152600401610f6e9061257a565b60405180910390fd5b8181036000808673ffffffffffffffffffffffffffffffffffffffff1673ffffffffffffffffffffffffffffffffffffffff16815260200190815260200160002081905550816000808573ffffffffffffffffffffffffffffffffffffffff1673ffffffffffffffffffffffffffffffffffffffff168152602001908152602001600020600082825461100a9190611f2b565b925050819055508273ffffffffffffffffffffffffffffffffffffffff168473ffffffffffffffffffffffffffffffffffffffff167fddf252ad1be2c89b69c2b068fc378daa952ba7f163c4a11628f55a4df523b3ef8460405161106e9190611b4a565b60405180910390a3611081848484611611565b50505050565b60007f000000000000000000000000000000000000000000000000000000000000000073ffffffffffffffffffffffffffffffffffffffff163073ffffffffffffffffffffffffffffffffffffffff1614801561110357507f000000000000000000000000000000000000000000000000000000000000000046145b15611130577f0000000000000000000000000000000000000000000000000000000000000000905061119e565b61119b7f00000000000000000000000000000000000000000000000000000000000000007f00000000000000000000000000000000000000000000000000000000000000007f0000000000000000000000000000000000000000000000000000000000000000611616565b90505b90565b600073ffffffffffffffffffffffffffffffffffffffff168273ffffffffffffffffffffffffffffffffffffffff1603611210576040517f08c379a0000000000000000000000000000000000000000000000000000000008152600401611207906125e6565b60405180910390fd5b61121c6000838361160c565b806002600082825461122e9190611f2b565b92505081905550806000808473ffffffffffffffffffffffffffffffffffffffff1673ffffffffffffffffffffffffffffffffffffffff16815260200190815260200160002060008282546112839190611f2b565b925050819055508173ffffffffffffffffffffffffffffffffffffffff16600073ffffffffffffffffffffffffffffffffffffffff167fddf252ad1be2c89b69c2b068fc378daa952ba7f163c4a11628f55a4df523b3ef836040516112e89190611b4a565b60405180910390a36112fc60008383611611565b5050565b600073ffffffffffffffffffffffffffffffffffffffff168273ffffffffffffffffffffffffffffffffffffffff160361136f576040517f08c379a000000000000000000000000000000000000000000000000000000000815260040161136690612678565b60405180910390fd5b61137b8260008361160c565b60008060008473ffffffffffffffffffffffffffffffffffffffff1673ffffffffffffffffffffffffffffffffffffffff16815260200190815260200160002054905081811015611401576040517f08c379a00000000000000000000000000000000000000000000000000000000081526004016113f89061270a565b60405180910390fd5b8181036000808573ffffffffffffffffffffffffffffffffffffffff1673ffffffffffffffffffffffffffffffffffffffff168152602001908152602001600020819055508160026000828254611458919061272a565b92505081905550600073ffffffffffffffffffffffffffffffffffffffff168373ffffffffffffffffffffffffffffffffffffffff167fddf252ad1be2c89b69c2b068fc378daa952ba7f163c4a11628f55a4df523b3ef846040516114bd9190611b4a565b60405180910390a36114d183600084611611565b505050565b60006114e28333610b24565b9050600082826114f2919061272a565b1015611533576040517f08c379a000000000000000000000000000000000000000000000000000000000815260040161152a906127d0565b60405180910390fd5b818161153f919061272a565b905061154c833383610bb3565b6115568383611300565b505050565b600081600001549050919050565b600080600560008473ffffffffffffffffffffffffffffffffffffffff1673ffffffffffffffffffffffffffffffffffffffff16815260200190815260200160002090506115b68161155b565b91506115c181611650565b50919050565b60006115da6115d4611087565b83611666565b9050919050565b60008060006115f287878787611699565b915091506115ff816117a5565b8192505050949350505050565b505050565b505050565b600083838346306040516020016116319594939291906127f0565b6040516020818303038152906040528051906020012090509392505050565b6001816000016000828254019250508190555050565b6000828260405160200161167b9291906128bb565b60405160208183030381529060405280519060200120905092915050565b6000807f7fffffffffffffffffffffffffffffff5d576e7357a4501ddfe92f46681b20a08360001c11156116d457600060039150915061179c565b601b8560ff16141580156116ec5750601c8560ff1614155b156116fe57600060049150915061179c565b60006001878787876040516000815260200160405260405161172394939291906128f2565b6020604051602081039080840390855afa158015611745573d6000803e3d6000fd5b505050602060405103519050600073ffffffffffffffffffffffffffffffffffffffff168173ffffffffffffffffffffffffffffffffffffffff16036117935760006001925092505061179c565b80600092509250505b94509492505050565b600060048111156117b9576117b8612937565b5b8160048111156117cc576117cb612937565b5b031561196e57600160048111156117e6576117e5612937565b5b8160048111156117f9576117f8612937565b5b03611839576040517f08c379a0000000000000000000000000000000000000000000000000000000008152600401611830906129b2565b60405180910390fd5b6002600481111561184d5761184c612937565b5b8160048111156118605761185f612937565b5b036118a0576040517f08c379a000000000000000000000000000000000000000000000000000000000815260040161189790612a1e565b60405180910390fd5b600360048111156118b4576118b3612937565b5b8160048111156118c7576118c6612937565b5b03611907576040517f08c379a00000000000000000000000000000000000000000000000000000000081526004016118fe90612ab0565b60405180910390fd5b60048081111561191a57611919612937565b5b81600481111561192d5761192c612937565b5b0361196d576040517f08c379a000000000000000000000000000000000000000000000000000000000815260040161196490612b42565b60405180910390fd5b5b50565b600081519050919050565b600082825260208201905092915050565b60005b838110156119ab578082015181840152602081019050611990565b838111156119ba576000848401525b50505050565b6000601f19601f8301169050919050565b60006119dc82611971565b6119e6818561197c565b93506119f681856020860161198d565b6119ff816119c0565b840191505092915050565b60006020820190508181036000830152611a2481846119d1565b905092915050565b600080fd5b600073ffffffffffffffffffffffffffffffffffffffff82169050919050565b6000611a5c82611a31565b9050919050565b611a6c81611a51565b8114611a7757600080fd5b50565b600081359050611a8981611a63565b92915050565b6000819050919050565b611aa281611a8f565b8114611aad57600080fd5b50565b600081359050611abf81611a99565b92915050565b60008060408385031215611adc57611adb611a2c565b5b6000611aea85828601611a7a565b9250506020611afb85828601611ab0565b9150509250929050565b60008115159050919050565b611b1a81611b05565b82525050565b6000602082019050611b356000830184611b11565b92915050565b611b4481611a8f565b82525050565b6000602082019050611b5f6000830184611b3b565b92915050565b600080600060608486031215611b7e57611b7d611a2c565b5b6000611b8c86828701611a7a565b9350506020611b9d86828701611a7a565b9250506040611bae86828701611ab0565b9150509250925092565b600060ff82169050919050565b611bce81611bb8565b82525050565b6000602082019050611be96000830184611bc5565b92915050565b6000819050919050565b611c0281611bef565b82525050565b6000602082019050611c1d6000830184611bf9565b92915050565b600060208284031215611c3957611c38611a2c565b5b6000611c4784828501611ab0565b91505092915050565b600060208284031215611c6657611c65611a2c565b5b6000611c7484828501611a7a565b91505092915050565b6000611c8882611a51565b9050919050565b611c9881611c7d565b8114611ca357600080fd5b50565b600081359050611cb581611c8f565b92915050565b600060208284031215611cd157611cd0611a2c565b5b6000611cdf84828501611ca6565b91505092915050565b6000819050919050565b6000611d0d611d08611d0384611a31565b611ce8565b611a31565b9050919050565b6000611d1f82611cf2565b9050919050565b6000611d3182611d14565b9050919050565b611d4181611d26565b82525050565b6000602082019050611d5c6000830184611d38565b92915050565b611d6b81611bb8565b8114611d7657600080fd5b50565b600081359050611d8881611d62565b92915050565b611d9781611bef565b8114611da257600080fd5b50565b600081359050611db481611d8e565b92915050565b600080600080600080600060e0888a031215611dd957611dd8611a2c565b5b6000611de78a828b01611a7a565b9750506020611df88a828b01611a7a565b9650506040611e098a828b01611ab0565b9550506060611e1a8a828b01611ab0565b9450506080611e2b8a828b01611d79565b93505060a0611e3c8a828b01611da5565b92505060c0611e4d8a828b01611da5565b91505092959891949750929550565b60008060408385031215611e7357611e72611a2c565b5b6000611e8185828601611a7a565b9250506020611e9285828601611a7a565b9150509250929050565b7f4e487b7100000000000000000000000000000000000000000000000000000000600052602260045260246000fd5b60006002820490506001821680611ee357607f821691505b602082108103611ef657611ef5611e9c565b5b50919050565b7f4e487b7100000000000000000000000000000000000000000000000000000000600052601160045260246000fd5b6000611f3682611a8f565b9150611f4183611a8f565b9250827fffffffffffffffffffffffffffffffffffffffffffffffffffffffffffffffff03821115611f7657611f75611efc565b5b828201905092915050565b600081519050611f9081611a63565b92915050565b600060208284031215611fac57611fab611a2c565b5b6000611fba84828501611f81565b91505092915050565b60008190508160005260206000209050919050565b60008154611fe581611ecb565b611fef818661197c565b9450600182166000811461200a576001811461201c5761204f565b60ff198316865260208601935061204f565b61202585611fc3565b60005b8381101561204757815481890152600182019150602081019050612028565b808801955050505b50505092915050565b600060208201905081810360008301526120728184611fd8565b905092915050565b7f45524332303a2064656372656173656420616c6c6f77616e63652062656c6f7760008201527f207a65726f000000000000000000000000000000000000000000000000000000602082015250565b60006120d660258361197c565b91506120e18261207a565b604082019050919050565b60006020820190508181036000830152612105816120c9565b9050919050565b7f45524332305065726d69743a206578706972656420646561646c696e65000000600082015250565b6000612142601d8361197c565b915061214d8261210c565b602082019050919050565b6000602082019050818103600083015261217181612135565b9050919050565b61218181611a51565b82525050565b600060c08201905061219c6000830189611bf9565b6121a96020830188612178565b6121b66040830187612178565b6121c36060830186611b3b565b6121d06080830185611b3b565b6121dd60a0830184611b3b565b979650505050505050565b7f45524332305065726d69743a20696e76616c6964207369676e61747572650000600082015250565b600061221e601e8361197c565b9150612229826121e8565b602082019050919050565b6000602082019050818103600083015261224d81612211565b9050919050565b7f45524332303a20617070726f76652066726f6d20746865207a65726f2061646460008201527f7265737300000000000000000000000000000000000000000000000000000000602082015250565b60006122b060248361197c565b91506122bb82612254565b604082019050919050565b600060208201905081810360008301526122df816122a3565b9050919050565b7f45524332303a20617070726f766520746f20746865207a65726f20616464726560008201527f7373000000000000000000000000000000000000000000000000000000000000602082015250565b600061234260228361197c565b915061234d826122e6565b604082019050919050565b6000602082019050818103600083015261237181612335565b9050919050565b7f45524332303a20696e73756666696369656e7420616c6c6f77616e6365000000600082015250565b60006123ae601d8361197c565b91506123b982612378565b602082019050919050565b600060208201905081810360008301526123dd816123a1565b9050919050565b7f45524332303a207472616e736665722066726f6d20746865207a65726f20616460008201527f6472657373000000000000000000000000000000000000000000000000000000602082015250565b600061244060258361197c565b915061244b826123e4565b604082019050919050565b6000602082019050818103600083015261246f81612433565b9050919050565b7f45524332303a207472616e7366657220746f20746865207a65726f206164647260008201527f6573730000000000000000000000000000000000000000000000000000000000602082015250565b60006124d260238361197c565b91506124dd82612476565b604082019050919050565b60006020820190508181036000830152612501816124c5565b9050919050565b7f45524332303a207472616e7366657220616d6f756e742065786365656473206260008201527f616c616e63650000000000000000000000000000000000000000000000000000602082015250565b600061256460268361197c565b915061256f82612508565b604082019050919050565b6000602082019050818103600083015261259381612557565b9050919050565b7f45524332303a206d696e7420746f20746865207a65726f206164647265737300600082015250565b60006125d0601f8361197c565b91506125db8261259a565b602082019050919050565b600060208201905081810360008301526125ff816125c3565b9050919050565b7f45524332303a206275726e2066726f6d20746865207a65726f2061646472657360008201527f7300000000000000000000000000000000000000000000000000000000000000602082015250565b600061266260218361197c565b915061266d82612606565b604082019050919050565b6000602082019050818103600083015261269181612655565b9050919050565b7f45524332303a206275726e20616d6f756e7420657863656564732062616c616e60008201527f6365000000000000000000000000000000000000000000000000000000000000602082015250565b60006126f460228361197c565b91506126ff82612698565b604082019050919050565b60006020820190508181036000830152612723816126e7565b9050919050565b600061273582611a8f565b915061274083611a8f565b92508282101561275357612752611efc565b5b828203905092915050565b7f45524332303a206275726e20616d6f756e74206578636565647320616c6c6f7760008201527f616e636500000000000000000000000000000000000000000000000000000000602082015250565b60006127ba60248361197c565b91506127c58261275e565b604082019050919050565b600060208201905081810360008301526127e9816127ad565b9050919050565b600060a0820190506128056000830188611bf9565b6128126020830187611bf9565b61281f6040830186611bf9565b61282c6060830185611b3b565b6128396080830184612178565b9695505050505050565b600081905092915050565b7f1901000000000000000000000000000000000000000000000000000000000000600082015250565b6000612884600283612843565b915061288f8261284e565b600282019050919050565b6000819050919050565b6128b56128b082611bef565b61289a565b82525050565b60006128c682612877565b91506128d282856128a4565b6020820191506128e282846128a4565b6020820191508190509392505050565b60006080820190506129076000830187611bf9565b6129146020830186611bc5565b6129216040830185611bf9565b61292e6060830184611bf9565b95945050505050565b7f4e487b7100000000000000000000000000000000000000000000000000000000600052602160045260246000fd5b7f45434453413a20696e76616c6964207369676e61747572650000000000000000600082015250565b600061299c60188361197c565b91506129a782612966565b602082019050919050565b600060208201905081810360008301526129cb8161298f565b9050919050565b7f45434453413a20696e76616c6964207369676e6174757265206c656e67746800600082015250565b6000612a08601f8361197c565b9150612a13826129d2565b602082019050919050565b60006020820190508181036000830152612a37816129fb565b9050919050565b7f45434453413a20696e76616c6964207369676e6174757265202773272076616c60008201527f7565000000000000000000000000000000000000000000000000000000000000602082015250565b6000612a9a60228361197c565b9150612aa582612a3e565b604082019050919050565b60006020820190508181036000830152612ac981612a8d565b9050919050565b7f45434453413a20696e76616c6964207369676e6174757265202776272076616c60008201527f7565000000000000000000000000000000000000000000000000000000000000602082015250565b6000612b2c60228361197c565b9150612b3782612ad0565b604082019050919050565b60006020820190508181036000830152612b5b81612b1f565b905091905056fea2646970667358221220e1e28c5cfb55848f00eaf095cf3a1c33158977def7e127af3da388f6dc593bee64736f6c634300080d0033",
					"opcodes": "PUSH2 0x160 PUSH1 0x40 MSTORE PUSH1 0x40 MLOAD DUP1 PUSH1 0x40 ADD PUSH1 0x40 MSTORE DUP1 PUSH1 0xC DUP2 MSTORE PUSH1 0x20 ADD PUSH32 0x554E415554484F52495A45440000000000000000000000000000000000000000 DUP2 MSTORE POP PUSH1 0x7 SWAP1 DUP1 MLOAD SWAP1 PUSH1 0x20 ADD SWAP1 PUSH3 0x52 SWAP3 SWAP2 SWAP1 PUSH3 0x321 JUMP JUMPDEST POP CALLVALUE DUP1 ISZERO PUSH3 0x60 JUMPI PUSH1 0x0 DUP1 REVERT JUMPDEST POP PUSH1 0x40 MLOAD PUSH3 0x3168 CODESIZE SUB DUP1 PUSH3 0x3168 DUP4 CODECOPY DUP2 DUP2 ADD PUSH1 0x40 MSTORE DUP2 ADD SWAP1 PUSH3 0x86 SWAP2 SWAP1 PUSH3 0x43B JUMP JUMPDEST DUP1 PUSH1 0x40 MLOAD DUP1 PUSH1 0x40 ADD PUSH1 0x40 MSTORE DUP1 PUSH1 0x3 DUP2 MSTORE PUSH1 0x20 ADD PUSH32 0x5343540000000000000000000000000000000000000000000000000000000000 DUP2 MSTORE POP DUP1 PUSH1 0x40 MLOAD DUP1 PUSH1 0x40 ADD PUSH1 0x40 MSTORE DUP1 PUSH1 0x1 DUP2 MSTORE PUSH1 0x20 ADD PUSH32 0x3100000000000000000000000000000000000000000000000000000000000000 DUP2 MSTORE POP PUSH1 0x40 MLOAD DUP1 PUSH1 0x40 ADD PUSH1 0x40 MSTORE DUP1 PUSH1 0x3 DUP2 MSTORE PUSH1 0x20 ADD PUSH32 0x5343540000000000000000000000000000000000000000000000000000000000 DUP2 MSTORE POP PUSH1 0x40 MLOAD DUP1 PUSH1 0x40 ADD PUSH1 0x40 MSTORE DUP1 PUSH1 0x3 DUP2 MSTORE PUSH1 0x20 ADD PUSH32 0x5343540000000000000000000000000000000000000000000000000000000000 DUP2 MSTORE POP PUSH1 0x9 DUP3 PUSH1 0x3 SWAP1 DUP1 MLOAD SWAP1 PUSH1 0x20 ADD SWAP1 PUSH3 0x17A SWAP3 SWAP2 SWAP1 PUSH3 0x321 JUMP JUMPDEST POP DUP2 PUSH1 0x4 SWAP1 DUP1 MLOAD SWAP1 PUSH1 0x20 ADD SWAP1 PUSH3 0x193 SWAP3 SWAP2 SWAP1 PUSH3 0x321 JUMP JUMPDEST POP DUP1 PUSH1 0xFF AND PUSH1 0x80 DUP2 PUSH1 0xFF AND DUP2 MSTORE POP POP POP POP POP PUSH1 0x0 DUP3 DUP1 MLOAD SWAP1 PUSH1 0x20 ADD KECCAK256 SWAP1 POP PUSH1 0x0 DUP3 DUP1 MLOAD SWAP1 PUSH1 0x20 ADD KECCAK256 SWAP1 POP PUSH1 0x0 PUSH32 0x8B73C3C69BB8FE3D512ECC4CF759CC79239F7B179B0FFACAA9A75D522B39400F SWAP1 POP DUP3 PUSH2 0x100 DUP2 DUP2 MSTORE POP POP DUP2 PUSH2 0x120 DUP2 DUP2 MSTORE POP POP CHAINID PUSH1 0xC0 DUP2 DUP2 MSTORE POP POP PUSH3 0x20F DUP2 DUP5 DUP5 PUSH3 0x2E5 PUSH1 0x20 SHL PUSH1 0x20 SHR JUMP JUMPDEST PUSH1 0xA0 DUP2 DUP2 MSTORE POP POP ADDRESS PUSH20 0xFFFFFFFFFFFFFFFFFFFFFFFFFFFFFFFFFFFFFFFF AND PUSH1 0xE0 DUP2 PUSH20 0xFFFFFFFFFFFFFFFFFFFFFFFFFFFFFFFFFFFFFFFF AND DUP2 MSTORE POP POP DUP1 PUSH2 0x140 DUP2 DUP2 MSTORE POP POP POP POP POP POP POP POP DUP1 PUSH1 0x8 PUSH1 0x0 PUSH2 0x100 EXP DUP2 SLOAD DUP2 PUSH20 0xFFFFFFFFFFFFFFFFFFFFFFFFFFFFFFFFFFFFFFFF MUL NOT AND SWAP1 DUP4 PUSH20 0xFFFFFFFFFFFFFFFFFFFFFFFFFFFFFFFFFFFFFFFF AND MUL OR SWAP1 SSTORE POP DUP1 PUSH20 0xFFFFFFFFFFFFFFFFFFFFFFFFFFFFFFFFFFFFFFFF AND PUSH32 0x2F658B440C35314F52658EA8A740E05B284CDC84DC9AE01E891F21B8933E7CAD PUSH1 0x40 MLOAD PUSH1 0x40 MLOAD DUP1 SWAP2 SUB SWAP1 LOG2 POP POP PUSH3 0x575 JUMP JUMPDEST PUSH1 0x0 DUP4 DUP4 DUP4 CHAINID ADDRESS PUSH1 0x40 MLOAD PUSH1 0x20 ADD PUSH3 0x302 SWAP6 SWAP5 SWAP4 SWAP3 SWAP2 SWAP1 PUSH3 0x4B4 JUMP JUMPDEST PUSH1 0x40 MLOAD PUSH1 0x20 DUP2 DUP4 SUB SUB DUP2 MSTORE SWAP1 PUSH1 0x40 MSTORE DUP1 MLOAD SWAP1 PUSH1 0x20 ADD KECCAK256 SWAP1 POP SWAP4 SWAP3 POP POP POP JUMP JUMPDEST DUP3 DUP1 SLOAD PUSH3 0x32F SWAP1 PUSH3 0x540 JUMP JUMPDEST SWAP1 PUSH1 0x0 MSTORE PUSH1 0x20 PUSH1 0x0 KECCAK256 SWAP1 PUSH1 0x1F ADD PUSH1 0x20 SWAP1 DIV DUP2 ADD SWAP3 DUP3 PUSH3 0x353 JUMPI PUSH1 0x0 DUP6 SSTORE PUSH3 0x39F JUMP JUMPDEST DUP3 PUSH1 0x1F LT PUSH3 0x36E JUMPI DUP1 MLOAD PUSH1 0xFF NOT AND DUP4 DUP1 ADD OR DUP6 SSTORE PUSH3 0x39F JUMP JUMPDEST DUP3 DUP1 ADD PUSH1 0x1 ADD DUP6 SSTORE DUP3 ISZERO PUSH3 0x39F JUMPI SWAP2 DUP3 ADD JUMPDEST DUP3 DUP2 GT ISZERO PUSH3 0x39E JUMPI DUP3 MLOAD DUP3 SSTORE SWAP2 PUSH1 0x20 ADD SWAP2 SWAP1 PUSH1 0x1 ADD SWAP1 PUSH3 0x381 JUMP JUMPDEST JUMPDEST POP SWAP1 POP PUSH3 0x3AE SWAP2 SWAP1 PUSH3 0x3B2 JUMP JUMPDEST POP SWAP1 JUMP JUMPDEST JUMPDEST DUP1 DUP3 GT ISZERO PUSH3 0x3CD JUMPI PUSH1 0x0 DUP2 PUSH1 0x0 SWAP1 SSTORE POP PUSH1 0x1 ADD PUSH3 0x3B3 JUMP JUMPDEST POP SWAP1 JUMP JUMPDEST PUSH1 0x0 DUP1 REVERT JUMPDEST PUSH1 0x0 PUSH20 0xFFFFFFFFFFFFFFFFFFFFFFFFFFFFFFFFFFFFFFFF DUP3 AND SWAP1 POP SWAP2 SWAP1 POP JUMP JUMPDEST PUSH1 0x0 PUSH3 0x403 DUP3 PUSH3 0x3D6 JUMP JUMPDEST SWAP1 POP SWAP2 SWAP1 POP JUMP JUMPDEST PUSH3 0x415 DUP2 PUSH3 0x3F6 JUMP JUMPDEST DUP2 EQ PUSH3 0x421 JUMPI PUSH1 0x0 DUP1 REVERT JUMPDEST POP JUMP JUMPDEST PUSH1 0x0 DUP2 MLOAD SWAP1 POP PUSH3 0x435 DUP2 PUSH3 0x40A JUMP JUMPDEST SWAP3 SWAP2 POP POP JUMP JUMPDEST PUSH1 0x0 PUSH1 0x20 DUP3 DUP5 SUB SLT ISZERO PUSH3 0x454 JUMPI PUSH3 0x453 PUSH3 0x3D1 JUMP JUMPDEST JUMPDEST PUSH1 0x0 PUSH3 0x464 DUP5 DUP3 DUP6 ADD PUSH3 0x424 JUMP JUMPDEST SWAP2 POP POP SWAP3 SWAP2 POP POP JUMP JUMPDEST PUSH1 0x0 DUP2 SWAP1 POP SWAP2 SWAP1 POP JUMP JUMPDEST PUSH3 0x482 DUP2 PUSH3 0x46D JUMP JUMPDEST DUP3 MSTORE POP POP JUMP JUMPDEST PUSH1 0x0 DUP2 SWAP1 POP SWAP2 SWAP1 POP JUMP JUMPDEST PUSH3 0x49D DUP2 PUSH3 0x488 JUMP JUMPDEST DUP3 MSTORE POP POP JUMP JUMPDEST PUSH3 0x4AE DUP2 PUSH3 0x3F6 JUMP JUMPDEST DUP3 MSTORE POP POP JUMP JUMPDEST PUSH1 0x0 PUSH1 0xA0 DUP3 ADD SWAP1 POP PUSH3 0x4CB PUSH1 0x0 DUP4 ADD DUP9 PUSH3 0x477 JUMP JUMPDEST PUSH3 0x4DA PUSH1 0x20 DUP4 ADD DUP8 PUSH3 0x477 JUMP JUMPDEST PUSH3 0x4E9 PUSH1 0x40 DUP4 ADD DUP7 PUSH3 0x477 JUMP JUMPDEST PUSH3 0x4F8 PUSH1 0x60 DUP4 ADD DUP6 PUSH3 0x492 JUMP JUMPDEST PUSH3 0x507 PUSH1 0x80 DUP4 ADD DUP5 PUSH3 0x4A3 JUMP JUMPDEST SWAP7 SWAP6 POP POP POP POP POP POP JUMP JUMPDEST PUSH32 0x4E487B7100000000000000000000000000000000000000000000000000000000 PUSH1 0x0 MSTORE PUSH1 0x22 PUSH1 0x4 MSTORE PUSH1 0x24 PUSH1 0x0 REVERT JUMPDEST PUSH1 0x0 PUSH1 0x2 DUP3 DIV SWAP1 POP PUSH1 0x1 DUP3 AND DUP1 PUSH3 0x559 JUMPI PUSH1 0x7F DUP3 AND SWAP2 POP JUMPDEST PUSH1 0x20 DUP3 LT DUP2 SUB PUSH3 0x56F JUMPI PUSH3 0x56E PUSH3 0x511 JUMP JUMPDEST JUMPDEST POP SWAP2 SWAP1 POP JUMP JUMPDEST PUSH1 0x80 MLOAD PUSH1 0xA0 MLOAD PUSH1 0xC0 MLOAD PUSH1 0xE0 MLOAD PUSH2 0x100 MLOAD PUSH2 0x120 MLOAD PUSH2 0x140 MLOAD PUSH2 0x2B98 PUSH3 0x5D0 PUSH1 0x0 CODECOPY PUSH1 0x0 PUSH2 0x1135 ADD MSTORE PUSH1 0x0 PUSH2 0x1177 ADD MSTORE PUSH1 0x0 PUSH2 0x1156 ADD MSTORE PUSH1 0x0 PUSH2 0x108B ADD MSTORE PUSH1 0x0 PUSH2 0x10E1 ADD MSTORE PUSH1 0x0 PUSH2 0x110A ADD MSTORE PUSH1 0x0 PUSH2 0x4D8 ADD MSTORE PUSH2 0x2B98 PUSH1 0x0 RETURN INVALID PUSH1 0x80 PUSH1 0x40 MSTORE CALLVALUE DUP1 ISZERO PUSH2 0x10 JUMPI PUSH1 0x0 DUP1 REVERT JUMPDEST POP PUSH1 0x4 CALLDATASIZE LT PUSH2 0x121 JUMPI PUSH1 0x0 CALLDATALOAD PUSH1 0xE0 SHR DUP1 PUSH4 0x70A08231 GT PUSH2 0xAD JUMPI DUP1 PUSH4 0xA457C2D7 GT PUSH2 0x71 JUMPI DUP1 PUSH4 0xA457C2D7 EQ PUSH2 0x31C JUMPI DUP1 PUSH4 0xA9059CBB EQ PUSH2 0x34C JUMPI DUP1 PUSH4 0xBF7E214F EQ PUSH2 0x37C JUMPI DUP1 PUSH4 0xD505ACCF EQ PUSH2 0x39A JUMPI DUP1 PUSH4 0xDD62ED3E EQ PUSH2 0x3B6 JUMPI PUSH2 0x121 JUMP JUMPDEST DUP1 PUSH4 0x70A08231 EQ PUSH2 0x266 JUMPI DUP1 PUSH4 0x79CC6790 EQ PUSH2 0x296 JUMPI DUP1 PUSH4 0x7A9E5E4B EQ PUSH2 0x2B2 JUMPI DUP1 PUSH4 0x7ECEBE00 EQ PUSH2 0x2CE JUMPI DUP1 PUSH4 0x95D89B41 EQ PUSH2 0x2FE JUMPI PUSH2 0x121 JUMP JUMPDEST DUP1 PUSH4 0x313CE567 GT PUSH2 0xF4 JUMPI DUP1 PUSH4 0x313CE567 EQ PUSH2 0x1C2 JUMPI DUP1 PUSH4 0x3644E515 EQ PUSH2 0x1E0 JUMPI DUP1 PUSH4 0x39509351 EQ PUSH2 0x1FE JUMPI DUP1 PUSH4 0x40C10F19 EQ PUSH2 0x22E JUMPI DUP1 PUSH4 0x42966C68 EQ PUSH2 0x24A JUMPI PUSH2 0x121 JUMP JUMPDEST DUP1 PUSH4 0x6FDDE03 EQ PUSH2 0x126 JUMPI DUP1 PUSH4 0x95EA7B3 EQ PUSH2 0x144 JUMPI DUP1 PUSH4 0x18160DDD EQ PUSH2 0x174 JUMPI DUP1 PUSH4 0x23B872DD EQ PUSH2 0x192 JUMPI JUMPDEST PUSH1 0x0 DUP1 REVERT JUMPDEST PUSH2 0x12E PUSH2 0x3E6 JUMP JUMPDEST PUSH1 0x40 MLOAD PUSH2 0x13B SWAP2 SWAP1 PUSH2 0x1A0A JUMP JUMPDEST PUSH1 0x40 MLOAD DUP1 SWAP2 SUB SWAP1 RETURN JUMPDEST PUSH2 0x15E PUSH1 0x4 DUP1 CALLDATASIZE SUB DUP2 ADD SWAP1 PUSH2 0x159 SWAP2 SWAP1 PUSH2 0x1AC5 JUMP JUMPDEST PUSH2 0x478 JUMP JUMPDEST PUSH1 0x40 MLOAD PUSH2 0x16B SWAP2 SWAP1 PUSH2 0x1B20 JUMP JUMPDEST PUSH1 0x40 MLOAD DUP1 SWAP2 SUB SWAP1 RETURN JUMPDEST PUSH2 0x17C PUSH2 0x49B JUMP JUMPDEST PUSH1 0x40 MLOAD PUSH2 0x189 SWAP2 SWAP1 PUSH2 0x1B4A JUMP JUMPDEST PUSH1 0x40 MLOAD DUP1 SWAP2 SUB SWAP1 RETURN JUMPDEST PUSH2 0x1AC PUSH1 0x4 DUP1 CALLDATASIZE SUB DUP2 ADD SWAP1 PUSH2 0x1A7 SWAP2 SWAP1 PUSH2 0x1B65 JUMP JUMPDEST PUSH2 0x4A5 JUMP JUMPDEST PUSH1 0x40 MLOAD PUSH2 0x1B9 SWAP2 SWAP1 PUSH2 0x1B20 JUMP JUMPDEST PUSH1 0x40 MLOAD DUP1 SWAP2 SUB SWAP1 RETURN JUMPDEST PUSH2 0x1CA PUSH2 0x4D4 JUMP JUMPDEST PUSH1 0x40 MLOAD PUSH2 0x1D7 SWAP2 SWAP1 PUSH2 0x1BD4 JUMP JUMPDEST PUSH1 0x40 MLOAD DUP1 SWAP2 SUB SWAP1 RETURN JUMPDEST PUSH2 0x1E8 PUSH2 0x4FC JUMP JUMPDEST PUSH1 0x40 MLOAD PUSH2 0x1F5 SWAP2 SWAP1 PUSH2 0x1C08 JUMP JUMPDEST PUSH1 0x40 MLOAD DUP1 SWAP2 SUB SWAP1 RETURN JUMPDEST PUSH2 0x218 PUSH1 0x4 DUP1 CALLDATASIZE SUB DUP2 ADD SWAP1 PUSH2 0x213 SWAP2 SWAP1 PUSH2 0x1AC5 JUMP JUMPDEST PUSH2 0x50B JUMP JUMPDEST PUSH1 0x40 MLOAD PUSH2 0x225 SWAP2 SWAP1 PUSH2 0x1B20 JUMP JUMPDEST PUSH1 0x40 MLOAD DUP1 SWAP2 SUB SWAP1 RETURN JUMPDEST PUSH2 0x248 PUSH1 0x4 DUP1 CALLDATASIZE SUB DUP2 ADD SWAP1 PUSH2 0x243 SWAP2 SWAP1 PUSH2 0x1AC5 JUMP JUMPDEST PUSH2 0x542 JUMP JUMPDEST STOP JUMPDEST PUSH2 0x264 PUSH1 0x4 DUP1 CALLDATASIZE SUB DUP2 ADD SWAP1 PUSH2 0x25F SWAP2 SWAP1 PUSH2 0x1C23 JUMP JUMPDEST PUSH2 0x653 JUMP JUMPDEST STOP JUMPDEST PUSH2 0x280 PUSH1 0x4 DUP1 CALLDATASIZE SUB DUP2 ADD SWAP1 PUSH2 0x27B SWAP2 SWAP1 PUSH2 0x1C50 JUMP JUMPDEST PUSH2 0x660 JUMP JUMPDEST PUSH1 0x40 MLOAD PUSH2 0x28D SWAP2 SWAP1 PUSH2 0x1B4A JUMP JUMPDEST PUSH1 0x40 MLOAD DUP1 SWAP2 SUB SWAP1 RETURN JUMPDEST PUSH2 0x2B0 PUSH1 0x4 DUP1 CALLDATASIZE SUB DUP2 ADD SWAP1 PUSH2 0x2AB SWAP2 SWAP1 PUSH2 0x1AC5 JUMP JUMPDEST PUSH2 0x6A8 JUMP JUMPDEST STOP JUMPDEST PUSH2 0x2CC PUSH1 0x4 DUP1 CALLDATASIZE SUB DUP2 ADD SWAP1 PUSH2 0x2C7 SWAP2 SWAP1 PUSH2 0x1CBB JUMP JUMPDEST PUSH2 0x6B6 JUMP JUMPDEST STOP JUMPDEST PUSH2 0x2E8 PUSH1 0x4 DUP1 CALLDATASIZE SUB DUP2 ADD SWAP1 PUSH2 0x2E3 SWAP2 SWAP1 PUSH2 0x1C50 JUMP JUMPDEST PUSH2 0x840 JUMP JUMPDEST PUSH1 0x40 MLOAD PUSH2 0x2F5 SWAP2 SWAP1 PUSH2 0x1B4A JUMP JUMPDEST PUSH1 0x40 MLOAD DUP1 SWAP2 SUB SWAP1 RETURN JUMPDEST PUSH2 0x306 PUSH2 0x890 JUMP JUMPDEST PUSH1 0x40 MLOAD PUSH2 0x313 SWAP2 SWAP1 PUSH2 0x1A0A JUMP JUMPDEST PUSH1 0x40 MLOAD DUP1 SWAP2 SUB SWAP1 RETURN JUMPDEST PUSH2 0x336 PUSH1 0x4 DUP1 CALLDATASIZE SUB DUP2 ADD SWAP1 PUSH2 0x331 SWAP2 SWAP1 PUSH2 0x1AC5 JUMP JUMPDEST PUSH2 0x922 JUMP JUMPDEST PUSH1 0x40 MLOAD PUSH2 0x343 SWAP2 SWAP1 PUSH2 0x1B20 JUMP JUMPDEST PUSH1 0x40 MLOAD DUP1 SWAP2 SUB SWAP1 RETURN JUMPDEST PUSH2 0x366 PUSH1 0x4 DUP1 CALLDATASIZE SUB DUP2 ADD SWAP1 PUSH2 0x361 SWAP2 SWAP1 PUSH2 0x1AC5 JUMP JUMPDEST PUSH2 0x999 JUMP JUMPDEST PUSH1 0x40 MLOAD PUSH2 0x373 SWAP2 SWAP1 PUSH2 0x1B20 JUMP JUMPDEST PUSH1 0x40 MLOAD DUP1 SWAP2 SUB SWAP1 RETURN JUMPDEST PUSH2 0x384 PUSH2 0x9BC JUMP JUMPDEST PUSH1 0x40 MLOAD PUSH2 0x391 SWAP2 SWAP1 PUSH2 0x1D47 JUMP JUMPDEST PUSH1 0x40 MLOAD DUP1 SWAP2 SUB SWAP1 RETURN JUMPDEST PUSH2 0x3B4 PUSH1 0x4 DUP1 CALLDATASIZE SUB DUP2 ADD SWAP1 PUSH2 0x3AF SWAP2 SWAP1 PUSH2 0x1DBA JUMP JUMPDEST PUSH2 0x9E2 JUMP JUMPDEST STOP JUMPDEST PUSH2 0x3D0 PUSH1 0x4 DUP1 CALLDATASIZE SUB DUP2 ADD SWAP1 PUSH2 0x3CB SWAP2 SWAP1 PUSH2 0x1E5C JUMP JUMPDEST PUSH2 0xB24 JUMP JUMPDEST PUSH1 0x40 MLOAD PUSH2 0x3DD SWAP2 SWAP1 PUSH2 0x1B4A JUMP JUMPDEST PUSH1 0x40 MLOAD DUP1 SWAP2 SUB SWAP1 RETURN JUMPDEST PUSH1 0x60 PUSH1 0x3 DUP1 SLOAD PUSH2 0x3F5 SWAP1 PUSH2 0x1ECB JUMP JUMPDEST DUP1 PUSH1 0x1F ADD PUSH1 0x20 DUP1 SWAP2 DIV MUL PUSH1 0x20 ADD PUSH1 0x40 MLOAD SWAP1 DUP2 ADD PUSH1 0x40 MSTORE DUP1 SWAP3 SWAP2 SWAP1 DUP2 DUP2 MSTORE PUSH1 0x20 ADD DUP3 DUP1 SLOAD PUSH2 0x421 SWAP1 PUSH2 0x1ECB JUMP JUMPDEST DUP1 ISZERO PUSH2 0x46E JUMPI DUP1 PUSH1 0x1F LT PUSH2 0x443 JUMPI PUSH2 0x100 DUP1 DUP4 SLOAD DIV MUL DUP4 MSTORE SWAP2 PUSH1 0x20 ADD SWAP2 PUSH2 0x46E JUMP JUMPDEST DUP3 ADD SWAP2 SWAP1 PUSH1 0x0 MSTORE PUSH1 0x20 PUSH1 0x0 KECCAK256 SWAP1 JUMPDEST DUP2 SLOAD DUP2 MSTORE SWAP1 PUSH1 0x1 ADD SWAP1 PUSH1 0x20 ADD DUP1 DUP4 GT PUSH2 0x451 JUMPI DUP3 SWAP1 SUB PUSH1 0x1F AND DUP3 ADD SWAP2 JUMPDEST POP POP POP POP POP SWAP1 POP SWAP1 JUMP JUMPDEST PUSH1 0x0 DUP1 PUSH2 0x483 PUSH2 0xBAB JUMP JUMPDEST SWAP1 POP PUSH2 0x490 DUP2 DUP6 DUP6 PUSH2 0xBB3 JUMP JUMPDEST PUSH1 0x1 SWAP2 POP POP SWAP3 SWAP2 POP POP JUMP JUMPDEST PUSH1 0x0 PUSH1 0x2 SLOAD SWAP1 POP SWAP1 JUMP JUMPDEST PUSH1 0x0 DUP1 PUSH2 0x4B0 PUSH2 0xBAB JUMP JUMPDEST SWAP1 POP PUSH2 0x4BD DUP6 DUP3 DUP6 PUSH2 0xD7C JUMP JUMPDEST PUSH2 0x4C8 DUP6 DUP6 DUP6 PUSH2 0xE08 JUMP JUMPDEST PUSH1 0x1 SWAP2 POP POP SWAP4 SWAP3 POP POP POP JUMP JUMPDEST PUSH1 0x0 PUSH32 0x0 SWAP1 POP SWAP1 JUMP JUMPDEST PUSH1 0x0 PUSH2 0x506 PUSH2 0x1087 JUMP JUMPDEST SWAP1 POP SWAP1 JUMP JUMPDEST PUSH1 0x0 DUP1 PUSH2 0x516 PUSH2 0xBAB JUMP JUMPDEST SWAP1 POP PUSH2 0x537 DUP2 DUP6 DUP6 PUSH2 0x528 DUP6 DUP10 PUSH2 0xB24 JUMP JUMPDEST PUSH2 0x532 SWAP2 SWAP1 PUSH2 0x1F2B JUMP JUMPDEST PUSH2 0xBB3 JUMP JUMPDEST PUSH1 0x1 SWAP2 POP POP SWAP3 SWAP2 POP POP JUMP JUMPDEST PUSH1 0x8 PUSH1 0x0 SWAP1 SLOAD SWAP1 PUSH2 0x100 EXP SWAP1 DIV PUSH20 0xFFFFFFFFFFFFFFFFFFFFFFFFFFFFFFFFFFFFFFFF AND PUSH20 0xFFFFFFFFFFFFFFFFFFFFFFFFFFFFFFFFFFFFFFFF AND PUSH4 0xFBFA77CF PUSH1 0x40 MLOAD DUP2 PUSH4 0xFFFFFFFF AND PUSH1 0xE0 SHL DUP2 MSTORE PUSH1 0x4 ADD PUSH1 0x20 PUSH1 0x40 MLOAD DUP1 DUP4 SUB DUP2 DUP7 GAS STATICCALL ISZERO DUP1 ISZERO PUSH2 0x5AF JUMPI RETURNDATASIZE PUSH1 0x0 DUP1 RETURNDATACOPY RETURNDATASIZE PUSH1 0x0 REVERT JUMPDEST POP POP POP POP PUSH1 0x40 MLOAD RETURNDATASIZE PUSH1 0x1F NOT PUSH1 0x1F DUP3 ADD AND DUP3 ADD DUP1 PUSH1 0x40 MSTORE POP DUP2 ADD SWAP1 PUSH2 0x5D3 SWAP2 SWAP1 PUSH2 0x1F96 JUMP JUMPDEST PUSH20 0xFFFFFFFFFFFFFFFFFFFFFFFFFFFFFFFFFFFFFFFF AND CALLER PUSH20 0xFFFFFFFFFFFFFFFFFFFFFFFFFFFFFFFFFFFFFFFF AND EQ PUSH1 0x7 SWAP1 PUSH2 0x644 JUMPI PUSH1 0x40 MLOAD PUSH32 0x8C379A000000000000000000000000000000000000000000000000000000000 DUP2 MSTORE PUSH1 0x4 ADD PUSH2 0x63B SWAP2 SWAP1 PUSH2 0x2058 JUMP JUMPDEST PUSH1 0x40 MLOAD DUP1 SWAP2 SUB SWAP1 REVERT JUMPDEST POP PUSH2 0x64F DUP3 DUP3 PUSH2 0x11A1 JUMP JUMPDEST POP POP JUMP JUMPDEST PUSH2 0x65D CALLER DUP3 PUSH2 0x1300 JUMP JUMPDEST POP JUMP JUMPDEST PUSH1 0x0 DUP1 PUSH1 0x0 DUP4 PUSH20 0xFFFFFFFFFFFFFFFFFFFFFFFFFFFFFFFFFFFFFFFF AND PUSH20 0xFFFFFFFFFFFFFFFFFFFFFFFFFFFFFFFFFFFFFFFF AND DUP2 MSTORE PUSH1 0x20 ADD SWAP1 DUP2 MSTORE PUSH1 0x20 ADD PUSH1 0x0 KECCAK256 SLOAD SWAP1 POP SWAP2 SWAP1 POP JUMP JUMPDEST PUSH2 0x6B2 DUP3 DUP3 PUSH2 0x14D6 JUMP JUMPDEST POP POP JUMP JUMPDEST PUSH1 0x8 PUSH1 0x0 SWAP1 SLOAD SWAP1 PUSH2 0x100 EXP SWAP1 DIV PUSH20 0xFFFFFFFFFFFFFFFFFFFFFFFFFFFFFFFFFFFFFFFF AND PUSH20 0xFFFFFFFFFFFFFFFFFFFFFFFFFFFFFFFFFFFFFFFF AND PUSH4 0xC340A24 PUSH1 0x40 MLOAD DUP2 PUSH4 0xFFFFFFFF AND PUSH1 0xE0 SHL DUP2 MSTORE PUSH1 0x4 ADD PUSH1 0x20 PUSH1 0x40 MLOAD DUP1 DUP4 SUB DUP2 DUP7 GAS STATICCALL ISZERO DUP1 ISZERO PUSH2 0x723 JUMPI RETURNDATASIZE PUSH1 0x0 DUP1 RETURNDATACOPY RETURNDATASIZE PUSH1 0x0 REVERT JUMPDEST POP POP POP POP PUSH1 0x40 MLOAD RETURNDATASIZE PUSH1 0x1F NOT PUSH1 0x1F DUP3 ADD AND DUP3 ADD DUP1 PUSH1 0x40 MSTORE POP DUP2 ADD SWAP1 PUSH2 0x747 SWAP2 SWAP1 PUSH2 0x1F96 JUMP JUMPDEST PUSH20 0xFFFFFFFFFFFFFFFFFFFFFFFFFFFFFFFFFFFFFFFF AND CALLER PUSH20 0xFFFFFFFFFFFFFFFFFFFFFFFFFFFFFFFFFFFFFFFF AND EQ PUSH1 0x7 SWAP1 PUSH2 0x7B8 JUMPI PUSH1 0x40 MLOAD PUSH32 0x8C379A000000000000000000000000000000000000000000000000000000000 DUP2 MSTORE PUSH1 0x4 ADD PUSH2 0x7AF SWAP2 SWAP1 PUSH2 0x2058 JUMP JUMPDEST PUSH1 0x40 MLOAD DUP1 SWAP2 SUB SWAP1 REVERT JUMPDEST POP DUP1 PUSH1 0x8 PUSH1 0x0 PUSH2 0x100 EXP DUP2 SLOAD DUP2 PUSH20 0xFFFFFFFFFFFFFFFFFFFFFFFFFFFFFFFFFFFFFFFF MUL NOT AND SWAP1 DUP4 PUSH20 0xFFFFFFFFFFFFFFFFFFFFFFFFFFFFFFFFFFFFFFFF AND MUL OR SWAP1 SSTORE POP DUP1 PUSH20 0xFFFFFFFFFFFFFFFFFFFFFFFFFFFFFFFFFFFFFFFF AND PUSH32 0x2F658B440C35314F52658EA8A740E05B284CDC84DC9AE01E891F21B8933E7CAD PUSH1 0x40 MLOAD PUSH1 0x40 MLOAD DUP1 SWAP2 SUB SWAP1 LOG2 POP JUMP JUMPDEST PUSH1 0x0 PUSH2 0x889 PUSH1 0x5 PUSH1 0x0 DUP5 PUSH20 0xFFFFFFFFFFFFFFFFFFFFFFFFFFFFFFFFFFFFFFFF AND PUSH20 0xFFFFFFFFFFFFFFFFFFFFFFFFFFFFFFFFFFFFFFFF AND DUP2 MSTORE PUSH1 0x20 ADD SWAP1 DUP2 MSTORE PUSH1 0x20 ADD PUSH1 0x0 KECCAK256 PUSH2 0x155B JUMP JUMPDEST SWAP1 POP SWAP2 SWAP1 POP JUMP JUMPDEST PUSH1 0x60 PUSH1 0x4 DUP1 SLOAD PUSH2 0x89F SWAP1 PUSH2 0x1ECB JUMP JUMPDEST DUP1 PUSH1 0x1F ADD PUSH1 0x20 DUP1 SWAP2 DIV MUL PUSH1 0x20 ADD PUSH1 0x40 MLOAD SWAP1 DUP2 ADD PUSH1 0x40 MSTORE DUP1 SWAP3 SWAP2 SWAP1 DUP2 DUP2 MSTORE PUSH1 0x20 ADD DUP3 DUP1 SLOAD PUSH2 0x8CB SWAP1 PUSH2 0x1ECB JUMP JUMPDEST DUP1 ISZERO PUSH2 0x918 JUMPI DUP1 PUSH1 0x1F LT PUSH2 0x8ED JUMPI PUSH2 0x100 DUP1 DUP4 SLOAD DIV MUL DUP4 MSTORE SWAP2 PUSH1 0x20 ADD SWAP2 PUSH2 0x918 JUMP JUMPDEST DUP3 ADD SWAP2 SWAP1 PUSH1 0x0 MSTORE PUSH1 0x20 PUSH1 0x0 KECCAK256 SWAP1 JUMPDEST DUP2 SLOAD DUP2 MSTORE SWAP1 PUSH1 0x1 ADD SWAP1 PUSH1 0x20 ADD DUP1 DUP4 GT PUSH2 0x8FB JUMPI DUP3 SWAP1 SUB PUSH1 0x1F AND DUP3 ADD SWAP2 JUMPDEST POP POP POP POP POP SWAP1 POP SWAP1 JUMP JUMPDEST PUSH1 0x0 DUP1 PUSH2 0x92D PUSH2 0xBAB JUMP JUMPDEST SWAP1 POP PUSH1 0x0 PUSH2 0x93B DUP3 DUP7 PUSH2 0xB24 JUMP JUMPDEST SWAP1 POP DUP4 DUP2 LT ISZERO PUSH2 0x980 JUMPI PUSH1 0x40 MLOAD PUSH32 0x8C379A000000000000000000000000000000000000000000000000000000000 DUP2 MSTORE PUSH1 0x4 ADD PUSH2 0x977 SWAP1 PUSH2 0x20EC JUMP JUMPDEST PUSH1 0x40 MLOAD DUP1 SWAP2 SUB SWAP1 REVERT JUMPDEST PUSH2 0x98D DUP3 DUP7 DUP7 DUP5 SUB PUSH2 0xBB3 JUMP JUMPDEST PUSH1 0x1 SWAP3 POP POP POP SWAP3 SWAP2 POP POP JUMP JUMPDEST PUSH1 0x0 DUP1 PUSH2 0x9A4 PUSH2 0xBAB JUMP JUMPDEST SWAP1 POP PUSH2 0x9B1 DUP2 DUP6 DUP6 PUSH2 0xE08 JUMP JUMPDEST PUSH1 0x1 SWAP2 POP POP SWAP3 SWAP2 POP POP JUMP JUMPDEST PUSH1 0x8 PUSH1 0x0 SWAP1 SLOAD SWAP1 PUSH2 0x100 EXP SWAP1 DIV PUSH20 0xFFFFFFFFFFFFFFFFFFFFFFFFFFFFFFFFFFFFFFFF AND DUP2 JUMP JUMPDEST DUP4 TIMESTAMP GT ISZERO PUSH2 0xA25 JUMPI PUSH1 0x40 MLOAD PUSH32 0x8C379A000000000000000000000000000000000000000000000000000000000 DUP2 MSTORE PUSH1 0x4 ADD PUSH2 0xA1C SWAP1 PUSH2 0x2158 JUMP JUMPDEST PUSH1 0x40 MLOAD DUP1 SWAP2 SUB SWAP1 REVERT JUMPDEST PUSH1 0x0 PUSH32 0x6E71EDAE12B1B97F4D1F60370FEF10105FA2FAAE0126114A169C64845D6126C9 DUP9 DUP9 DUP9 PUSH2 0xA54 DUP13 PUSH2 0x1569 JUMP JUMPDEST DUP10 PUSH1 0x40 MLOAD PUSH1 0x20 ADD PUSH2 0xA6A SWAP7 SWAP6 SWAP5 SWAP4 SWAP3 SWAP2 SWAP1 PUSH2 0x2187 JUMP JUMPDEST PUSH1 0x40 MLOAD PUSH1 0x20 DUP2 DUP4 SUB SUB DUP2 MSTORE SWAP1 PUSH1 0x40 MSTORE DUP1 MLOAD SWAP1 PUSH1 0x20 ADD KECCAK256 SWAP1 POP PUSH1 0x0 PUSH2 0xA8D DUP3 PUSH2 0x15C7 JUMP JUMPDEST SWAP1 POP PUSH1 0x0 PUSH2 0xA9D DUP3 DUP8 DUP8 DUP8 PUSH2 0x15E1 JUMP JUMPDEST SWAP1 POP DUP10 PUSH20 0xFFFFFFFFFFFFFFFFFFFFFFFFFFFFFFFFFFFFFFFF AND DUP2 PUSH20 0xFFFFFFFFFFFFFFFFFFFFFFFFFFFFFFFFFFFFFFFF AND EQ PUSH2 0xB0D JUMPI PUSH1 0x40 MLOAD PUSH32 0x8C379A000000000000000000000000000000000000000000000000000000000 DUP2 MSTORE PUSH1 0x4 ADD PUSH2 0xB04 SWAP1 PUSH2 0x2234 JUMP JUMPDEST PUSH1 0x40 MLOAD DUP1 SWAP2 SUB SWAP1 REVERT JUMPDEST PUSH2 0xB18 DUP11 DUP11 DUP11 PUSH2 0xBB3 JUMP JUMPDEST POP POP POP POP POP POP POP POP POP POP JUMP JUMPDEST PUSH1 0x0 PUSH1 0x1 PUSH1 0x0 DUP5 PUSH20 0xFFFFFFFFFFFFFFFFFFFFFFFFFFFFFFFFFFFFFFFF AND PUSH20 0xFFFFFFFFFFFFFFFFFFFFFFFFFFFFFFFFFFFFFFFF AND DUP2 MSTORE PUSH1 0x20 ADD SWAP1 DUP2 MSTORE PUSH1 0x20 ADD PUSH1 0x0 KECCAK256 PUSH1 0x0 DUP4 PUSH20 0xFFFFFFFFFFFFFFFFFFFFFFFFFFFFFFFFFFFFFFFF AND PUSH20 0xFFFFFFFFFFFFFFFFFFFFFFFFFFFFFFFFFFFFFFFF AND DUP2 MSTORE PUSH1 0x20 ADD SWAP1 DUP2 MSTORE PUSH1 0x20 ADD PUSH1 0x0 KECCAK256 SLOAD SWAP1 POP SWAP3 SWAP2 POP POP JUMP JUMPDEST PUSH1 0x0 CALLER SWAP1 POP SWAP1 JUMP JUMPDEST PUSH1 0x0 PUSH20 0xFFFFFFFFFFFFFFFFFFFFFFFFFFFFFFFFFFFFFFFF AND DUP4 PUSH20 0xFFFFFFFFFFFFFFFFFFFFFFFFFFFFFFFFFFFFFFFF AND SUB PUSH2 0xC22 JUMPI PUSH1 0x40 MLOAD PUSH32 0x8C379A000000000000000000000000000000000000000000000000000000000 DUP2 MSTORE PUSH1 0x4 ADD PUSH2 0xC19 SWAP1 PUSH2 0x22C6 JUMP JUMPDEST PUSH1 0x40 MLOAD DUP1 SWAP2 SUB SWAP1 REVERT JUMPDEST PUSH1 0x0 PUSH20 0xFFFFFFFFFFFFFFFFFFFFFFFFFFFFFFFFFFFFFFFF AND DUP3 PUSH20 0xFFFFFFFFFFFFFFFFFFFFFFFFFFFFFFFFFFFFFFFF AND SUB PUSH2 0xC91 JUMPI PUSH1 0x40 MLOAD PUSH32 0x8C379A000000000000000000000000000000000000000000000000000000000 DUP2 MSTORE PUSH1 0x4 ADD PUSH2 0xC88 SWAP1 PUSH2 0x2358 JUMP JUMPDEST PUSH1 0x40 MLOAD DUP1 SWAP2 SUB SWAP1 REVERT JUMPDEST DUP1 PUSH1 0x1 PUSH1 0x0 DUP6 PUSH20 0xFFFFFFFFFFFFFFFFFFFFFFFFFFFFFFFFFFFFFFFF AND PUSH20 0xFFFFFFFFFFFFFFFFFFFFFFFFFFFFFFFFFFFFFFFF AND DUP2 MSTORE PUSH1 0x20 ADD SWAP1 DUP2 MSTORE PUSH1 0x20 ADD PUSH1 0x0 KECCAK256 PUSH1 0x0 DUP5 PUSH20 0xFFFFFFFFFFFFFFFFFFFFFFFFFFFFFFFFFFFFFFFF AND PUSH20 0xFFFFFFFFFFFFFFFFFFFFFFFFFFFFFFFFFFFFFFFF AND DUP2 MSTORE PUSH1 0x20 ADD SWAP1 DUP2 MSTORE PUSH1 0x20 ADD PUSH1 0x0 KECCAK256 DUP2 SWAP1 SSTORE POP DUP2 PUSH20 0xFFFFFFFFFFFFFFFFFFFFFFFFFFFFFFFFFFFFFFFF AND DUP4 PUSH20 0xFFFFFFFFFFFFFFFFFFFFFFFFFFFFFFFFFFFFFFFF AND PUSH32 0x8C5BE1E5EBEC7D5BD14F71427D1E84F3DD0314C0F7B2291E5B200AC8C7C3B925 DUP4 PUSH1 0x40 MLOAD PUSH2 0xD6F SWAP2 SWAP1 PUSH2 0x1B4A JUMP JUMPDEST PUSH1 0x40 MLOAD DUP1 SWAP2 SUB SWAP1 LOG3 POP POP POP JUMP JUMPDEST PUSH1 0x0 PUSH2 0xD88 DUP5 DUP5 PUSH2 0xB24 JUMP JUMPDEST SWAP1 POP PUSH32 0xFFFFFFFFFFFFFFFFFFFFFFFFFFFFFFFFFFFFFFFFFFFFFFFFFFFFFFFFFFFFFFFF DUP2 EQ PUSH2 0xE02 JUMPI DUP2 DUP2 LT ISZERO PUSH2 0xDF4 JUMPI PUSH1 0x40 MLOAD PUSH32 0x8C379A000000000000000000000000000000000000000000000000000000000 DUP2 MSTORE PUSH1 0x4 ADD PUSH2 0xDEB SWAP1 PUSH2 0x23C4 JUMP JUMPDEST PUSH1 0x40 MLOAD DUP1 SWAP2 SUB SWAP1 REVERT JUMPDEST PUSH2 0xE01 DUP5 DUP5 DUP5 DUP5 SUB PUSH2 0xBB3 JUMP JUMPDEST JUMPDEST POP POP POP POP JUMP JUMPDEST PUSH1 0x0 PUSH20 0xFFFFFFFFFFFFFFFFFFFFFFFFFFFFFFFFFFFFFFFF AND DUP4 PUSH20 0xFFFFFFFFFFFFFFFFFFFFFFFFFFFFFFFFFFFFFFFF AND SUB PUSH2 0xE77 JUMPI PUSH1 0x40 MLOAD PUSH32 0x8C379A000000000000000000000000000000000000000000000000000000000 DUP2 MSTORE PUSH1 0x4 ADD PUSH2 0xE6E SWAP1 PUSH2 0x2456 JUMP JUMPDEST PUSH1 0x40 MLOAD DUP1 SWAP2 SUB SWAP1 REVERT JUMPDEST PUSH1 0x0 PUSH20 0xFFFFFFFFFFFFFFFFFFFFFFFFFFFFFFFFFFFFFFFF AND DUP3 PUSH20 0xFFFFFFFFFFFFFFFFFFFFFFFFFFFFFFFFFFFFFFFF AND SUB PUSH2 0xEE6 JUMPI PUSH1 0x40 MLOAD PUSH32 0x8C379A000000000000000000000000000000000000000000000000000000000 DUP2 MSTORE PUSH1 0x4 ADD PUSH2 0xEDD SWAP1 PUSH2 0x24E8 JUMP JUMPDEST PUSH1 0x40 MLOAD DUP1 SWAP2 SUB SWAP1 REVERT JUMPDEST PUSH2 0xEF1 DUP4 DUP4 DUP4 PUSH2 0x160C JUMP JUMPDEST PUSH1 0x0 DUP1 PUSH1 0x0 DUP6 PUSH20 0xFFFFFFFFFFFFFFFFFFFFFFFFFFFFFFFFFFFFFFFF AND PUSH20 0xFFFFFFFFFFFFFFFFFFFFFFFFFFFFFFFFFFFFFFFF AND DUP2 MSTORE PUSH1 0x20 ADD SWAP1 DUP2 MSTORE PUSH1 0x20 ADD PUSH1 0x0 KECCAK256 SLOAD SWAP1 POP DUP2 DUP2 LT ISZERO PUSH2 0xF77 JUMPI PUSH1 0x40 MLOAD PUSH32 0x8C379A000000000000000000000000000000000000000000000000000000000 DUP2 MSTORE PUSH1 0x4 ADD PUSH2 0xF6E SWAP1 PUSH2 0x257A JUMP JUMPDEST PUSH1 0x40 MLOAD DUP1 SWAP2 SUB SWAP1 REVERT JUMPDEST DUP2 DUP2 SUB PUSH1 0x0 DUP1 DUP7 PUSH20 0xFFFFFFFFFFFFFFFFFFFFFFFFFFFFFFFFFFFFFFFF AND PUSH20 0xFFFFFFFFFFFFFFFFFFFFFFFFFFFFFFFFFFFFFFFF AND DUP2 MSTORE PUSH1 0x20 ADD SWAP1 DUP2 MSTORE PUSH1 0x20 ADD PUSH1 0x0 KECCAK256 DUP2 SWAP1 SSTORE POP DUP2 PUSH1 0x0 DUP1 DUP6 PUSH20 0xFFFFFFFFFFFFFFFFFFFFFFFFFFFFFFFFFFFFFFFF AND PUSH20 0xFFFFFFFFFFFFFFFFFFFFFFFFFFFFFFFFFFFFFFFF AND DUP2 MSTORE PUSH1 0x20 ADD SWAP1 DUP2 MSTORE PUSH1 0x20 ADD PUSH1 0x0 KECCAK256 PUSH1 0x0 DUP3 DUP3 SLOAD PUSH2 0x100A SWAP2 SWAP1 PUSH2 0x1F2B JUMP JUMPDEST SWAP3 POP POP DUP2 SWAP1 SSTORE POP DUP3 PUSH20 0xFFFFFFFFFFFFFFFFFFFFFFFFFFFFFFFFFFFFFFFF AND DUP5 PUSH20 0xFFFFFFFFFFFFFFFFFFFFFFFFFFFFFFFFFFFFFFFF AND PUSH32 0xDDF252AD1BE2C89B69C2B068FC378DAA952BA7F163C4A11628F55A4DF523B3EF DUP5 PUSH1 0x40 MLOAD PUSH2 0x106E SWAP2 SWAP1 PUSH2 0x1B4A JUMP JUMPDEST PUSH1 0x40 MLOAD DUP1 SWAP2 SUB SWAP1 LOG3 PUSH2 0x1081 DUP5 DUP5 DUP5 PUSH2 0x1611 JUMP JUMPDEST POP POP POP POP JUMP JUMPDEST PUSH1 0x0 PUSH32 0x0 PUSH20 0xFFFFFFFFFFFFFFFFFFFFFFFFFFFFFFFFFFFFFFFF AND ADDRESS PUSH20 0xFFFFFFFFFFFFFFFFFFFFFFFFFFFFFFFFFFFFFFFF AND EQ DUP1 ISZERO PUSH2 0x1103 JUMPI POP PUSH32 0x0 CHAINID EQ JUMPDEST ISZERO PUSH2 0x1130 JUMPI PUSH32 0x0 SWAP1 POP PUSH2 0x119E JUMP JUMPDEST PUSH2 0x119B PUSH32 0x0 PUSH32 0x0 PUSH32 0x0 PUSH2 0x1616 JUMP JUMPDEST SWAP1 POP JUMPDEST SWAP1 JUMP JUMPDEST PUSH1 0x0 PUSH20 0xFFFFFFFFFFFFFFFFFFFFFFFFFFFFFFFFFFFFFFFF AND DUP3 PUSH20 0xFFFFFFFFFFFFFFFFFFFFFFFFFFFFFFFFFFFFFFFF AND SUB PUSH2 0x1210 JUMPI PUSH1 0x40 MLOAD PUSH32 0x8C379A000000000000000000000000000000000000000000000000000000000 DUP2 MSTORE PUSH1 0x4 ADD PUSH2 0x1207 SWAP1 PUSH2 0x25E6 JUMP JUMPDEST PUSH1 0x40 MLOAD DUP1 SWAP2 SUB SWAP1 REVERT JUMPDEST PUSH2 0x121C PUSH1 0x0 DUP4 DUP4 PUSH2 0x160C JUMP JUMPDEST DUP1 PUSH1 0x2 PUSH1 0x0 DUP3 DUP3 SLOAD PUSH2 0x122E SWAP2 SWAP1 PUSH2 0x1F2B JUMP JUMPDEST SWAP3 POP POP DUP2 SWAP1 SSTORE POP DUP1 PUSH1 0x0 DUP1 DUP5 PUSH20 0xFFFFFFFFFFFFFFFFFFFFFFFFFFFFFFFFFFFFFFFF AND PUSH20 0xFFFFFFFFFFFFFFFFFFFFFFFFFFFFFFFFFFFFFFFF AND DUP2 MSTORE PUSH1 0x20 ADD SWAP1 DUP2 MSTORE PUSH1 0x20 ADD PUSH1 0x0 KECCAK256 PUSH1 0x0 DUP3 DUP3 SLOAD PUSH2 0x1283 SWAP2 SWAP1 PUSH2 0x1F2B JUMP JUMPDEST SWAP3 POP POP DUP2 SWAP1 SSTORE POP DUP2 PUSH20 0xFFFFFFFFFFFFFFFFFFFFFFFFFFFFFFFFFFFFFFFF AND PUSH1 0x0 PUSH20 0xFFFFFFFFFFFFFFFFFFFFFFFFFFFFFFFFFFFFFFFF AND PUSH32 0xDDF252AD1BE2C89B69C2B068FC378DAA952BA7F163C4A11628F55A4DF523B3EF DUP4 PUSH1 0x40 MLOAD PUSH2 0x12E8 SWAP2 SWAP1 PUSH2 0x1B4A JUMP JUMPDEST PUSH1 0x40 MLOAD DUP1 SWAP2 SUB SWAP1 LOG3 PUSH2 0x12FC PUSH1 0x0 DUP4 DUP4 PUSH2 0x1611 JUMP JUMPDEST POP POP JUMP JUMPDEST PUSH1 0x0 PUSH20 0xFFFFFFFFFFFFFFFFFFFFFFFFFFFFFFFFFFFFFFFF AND DUP3 PUSH20 0xFFFFFFFFFFFFFFFFFFFFFFFFFFFFFFFFFFFFFFFF AND SUB PUSH2 0x136F JUMPI PUSH1 0x40 MLOAD PUSH32 0x8C379A000000000000000000000000000000000000000000000000000000000 DUP2 MSTORE PUSH1 0x4 ADD PUSH2 0x1366 SWAP1 PUSH2 0x2678 JUMP JUMPDEST PUSH1 0x40 MLOAD DUP1 SWAP2 SUB SWAP1 REVERT JUMPDEST PUSH2 0x137B DUP3 PUSH1 0x0 DUP4 PUSH2 0x160C JUMP JUMPDEST PUSH1 0x0 DUP1 PUSH1 0x0 DUP5 PUSH20 0xFFFFFFFFFFFFFFFFFFFFFFFFFFFFFFFFFFFFFFFF AND PUSH20 0xFFFFFFFFFFFFFFFFFFFFFFFFFFFFFFFFFFFFFFFF AND DUP2 MSTORE PUSH1 0x20 ADD SWAP1 DUP2 MSTORE PUSH1 0x20 ADD PUSH1 0x0 KECCAK256 SLOAD SWAP1 POP DUP2 DUP2 LT ISZERO PUSH2 0x1401 JUMPI PUSH1 0x40 MLOAD PUSH32 0x8C379A000000000000000000000000000000000000000000000000000000000 DUP2 MSTORE PUSH1 0x4 ADD PUSH2 0x13F8 SWAP1 PUSH2 0x270A JUMP JUMPDEST PUSH1 0x40 MLOAD DUP1 SWAP2 SUB SWAP1 REVERT JUMPDEST DUP2 DUP2 SUB PUSH1 0x0 DUP1 DUP6 PUSH20 0xFFFFFFFFFFFFFFFFFFFFFFFFFFFFFFFFFFFFFFFF AND PUSH20 0xFFFFFFFFFFFFFFFFFFFFFFFFFFFFFFFFFFFFFFFF AND DUP2 MSTORE PUSH1 0x20 ADD SWAP1 DUP2 MSTORE PUSH1 0x20 ADD PUSH1 0x0 KECCAK256 DUP2 SWAP1 SSTORE POP DUP2 PUSH1 0x2 PUSH1 0x0 DUP3 DUP3 SLOAD PUSH2 0x1458 SWAP2 SWAP1 PUSH2 0x272A JUMP JUMPDEST SWAP3 POP POP DUP2 SWAP1 SSTORE POP PUSH1 0x0 PUSH20 0xFFFFFFFFFFFFFFFFFFFFFFFFFFFFFFFFFFFFFFFF AND DUP4 PUSH20 0xFFFFFFFFFFFFFFFFFFFFFFFFFFFFFFFFFFFFFFFF AND PUSH32 0xDDF252AD1BE2C89B69C2B068FC378DAA952BA7F163C4A11628F55A4DF523B3EF DUP5 PUSH1 0x40 MLOAD PUSH2 0x14BD SWAP2 SWAP1 PUSH2 0x1B4A JUMP JUMPDEST PUSH1 0x40 MLOAD DUP1 SWAP2 SUB SWAP1 LOG3 PUSH2 0x14D1 DUP4 PUSH1 0x0 DUP5 PUSH2 0x1611 JUMP JUMPDEST POP POP POP JUMP JUMPDEST PUSH1 0x0 PUSH2 0x14E2 DUP4 CALLER PUSH2 0xB24 JUMP JUMPDEST SWAP1 POP PUSH1 0x0 DUP3 DUP3 PUSH2 0x14F2 SWAP2 SWAP1 PUSH2 0x272A JUMP JUMPDEST LT ISZERO PUSH2 0x1533 JUMPI PUSH1 0x40 MLOAD PUSH32 0x8C379A000000000000000000000000000000000000000000000000000000000 DUP2 MSTORE PUSH1 0x4 ADD PUSH2 0x152A SWAP1 PUSH2 0x27D0 JUMP JUMPDEST PUSH1 0x40 MLOAD DUP1 SWAP2 SUB SWAP1 REVERT JUMPDEST DUP2 DUP2 PUSH2 0x153F SWAP2 SWAP1 PUSH2 0x272A JUMP JUMPDEST SWAP1 POP PUSH2 0x154C DUP4 CALLER DUP4 PUSH2 0xBB3 JUMP JUMPDEST PUSH2 0x1556 DUP4 DUP4 PUSH2 0x1300 JUMP JUMPDEST POP POP POP JUMP JUMPDEST PUSH1 0x0 DUP2 PUSH1 0x0 ADD SLOAD SWAP1 POP SWAP2 SWAP1 POP JUMP JUMPDEST PUSH1 0x0 DUP1 PUSH1 0x5 PUSH1 0x0 DUP5 PUSH20 0xFFFFFFFFFFFFFFFFFFFFFFFFFFFFFFFFFFFFFFFF AND PUSH20 0xFFFFFFFFFFFFFFFFFFFFFFFFFFFFFFFFFFFFFFFF AND DUP2 MSTORE PUSH1 0x20 ADD SWAP1 DUP2 MSTORE PUSH1 0x20 ADD PUSH1 0x0 KECCAK256 SWAP1 POP PUSH2 0x15B6 DUP2 PUSH2 0x155B JUMP JUMPDEST SWAP2 POP PUSH2 0x15C1 DUP2 PUSH2 0x1650 JUMP JUMPDEST POP SWAP2 SWAP1 POP JUMP JUMPDEST PUSH1 0x0 PUSH2 0x15DA PUSH2 0x15D4 PUSH2 0x1087 JUMP JUMPDEST DUP4 PUSH2 0x1666 JUMP JUMPDEST SWAP1 POP SWAP2 SWAP1 POP JUMP JUMPDEST PUSH1 0x0 DUP1 PUSH1 0x0 PUSH2 0x15F2 DUP8 DUP8 DUP8 DUP8 PUSH2 0x1699 JUMP JUMPDEST SWAP2 POP SWAP2 POP PUSH2 0x15FF DUP2 PUSH2 0x17A5 JUMP JUMPDEST DUP2 SWAP3 POP POP POP SWAP5 SWAP4 POP POP POP POP JUMP JUMPDEST POP POP POP JUMP JUMPDEST POP POP POP JUMP JUMPDEST PUSH1 0x0 DUP4 DUP4 DUP4 CHAINID ADDRESS PUSH1 0x40 MLOAD PUSH1 0x20 ADD PUSH2 0x1631 SWAP6 SWAP5 SWAP4 SWAP3 SWAP2 SWAP1 PUSH2 0x27F0 JUMP JUMPDEST PUSH1 0x40 MLOAD PUSH1 0x20 DUP2 DUP4 SUB SUB DUP2 MSTORE SWAP1 PUSH1 0x40 MSTORE DUP1 MLOAD SWAP1 PUSH1 0x20 ADD KECCAK256 SWAP1 POP SWAP4 SWAP3 POP POP POP JUMP JUMPDEST PUSH1 0x1 DUP2 PUSH1 0x0 ADD PUSH1 0x0 DUP3 DUP3 SLOAD ADD SWAP3 POP POP DUP2 SWAP1 SSTORE POP POP JUMP JUMPDEST PUSH1 0x0 DUP3 DUP3 PUSH1 0x40 MLOAD PUSH1 0x20 ADD PUSH2 0x167B SWAP3 SWAP2 SWAP1 PUSH2 0x28BB JUMP JUMPDEST PUSH1 0x40 MLOAD PUSH1 0x20 DUP2 DUP4 SUB SUB DUP2 MSTORE SWAP1 PUSH1 0x40 MSTORE DUP1 MLOAD SWAP1 PUSH1 0x20 ADD KECCAK256 SWAP1 POP SWAP3 SWAP2 POP POP JUMP JUMPDEST PUSH1 0x0 DUP1 PUSH32 0x7FFFFFFFFFFFFFFFFFFFFFFFFFFFFFFF5D576E7357A4501DDFE92F46681B20A0 DUP4 PUSH1 0x0 SHR GT ISZERO PUSH2 0x16D4 JUMPI PUSH1 0x0 PUSH1 0x3 SWAP2 POP SWAP2 POP PUSH2 0x179C JUMP JUMPDEST PUSH1 0x1B DUP6 PUSH1 0xFF AND EQ ISZERO DUP1 ISZERO PUSH2 0x16EC JUMPI POP PUSH1 0x1C DUP6 PUSH1 0xFF AND EQ ISZERO JUMPDEST ISZERO PUSH2 0x16FE JUMPI PUSH1 0x0 PUSH1 0x4 SWAP2 POP SWAP2 POP PUSH2 0x179C JUMP JUMPDEST PUSH1 0x0 PUSH1 0x1 DUP8 DUP8 DUP8 DUP8 PUSH1 0x40 MLOAD PUSH1 0x0 DUP2 MSTORE PUSH1 0x20 ADD PUSH1 0x40 MSTORE PUSH1 0x40 MLOAD PUSH2 0x1723 SWAP5 SWAP4 SWAP3 SWAP2 SWAP1 PUSH2 0x28F2 JUMP JUMPDEST PUSH1 0x20 PUSH1 0x40 MLOAD PUSH1 0x20 DUP2 SUB SWAP1 DUP1 DUP5 SUB SWAP1 DUP6 GAS STATICCALL ISZERO DUP1 ISZERO PUSH2 0x1745 JUMPI RETURNDATASIZE PUSH1 0x0 DUP1 RETURNDATACOPY RETURNDATASIZE PUSH1 0x0 REVERT JUMPDEST POP POP POP PUSH1 0x20 PUSH1 0x40 MLOAD SUB MLOAD SWAP1 POP PUSH1 0x0 PUSH20 0xFFFFFFFFFFFFFFFFFFFFFFFFFFFFFFFFFFFFFFFF AND DUP2 PUSH20 0xFFFFFFFFFFFFFFFFFFFFFFFFFFFFFFFFFFFFFFFF AND SUB PUSH2 0x1793 JUMPI PUSH1 0x0 PUSH1 0x1 SWAP3 POP SWAP3 POP POP PUSH2 0x179C JUMP JUMPDEST DUP1 PUSH1 0x0 SWAP3 POP SWAP3 POP POP JUMPDEST SWAP5 POP SWAP5 SWAP3 POP POP POP JUMP JUMPDEST PUSH1 0x0 PUSH1 0x4 DUP2 GT ISZERO PUSH2 0x17B9 JUMPI PUSH2 0x17B8 PUSH2 0x2937 JUMP JUMPDEST JUMPDEST DUP2 PUSH1 0x4 DUP2 GT ISZERO PUSH2 0x17CC JUMPI PUSH2 0x17CB PUSH2 0x2937 JUMP JUMPDEST JUMPDEST SUB ISZERO PUSH2 0x196E JUMPI PUSH1 0x1 PUSH1 0x4 DUP2 GT ISZERO PUSH2 0x17E6 JUMPI PUSH2 0x17E5 PUSH2 0x2937 JUMP JUMPDEST JUMPDEST DUP2 PUSH1 0x4 DUP2 GT ISZERO PUSH2 0x17F9 JUMPI PUSH2 0x17F8 PUSH2 0x2937 JUMP JUMPDEST JUMPDEST SUB PUSH2 0x1839 JUMPI PUSH1 0x40 MLOAD PUSH32 0x8C379A000000000000000000000000000000000000000000000000000000000 DUP2 MSTORE PUSH1 0x4 ADD PUSH2 0x1830 SWAP1 PUSH2 0x29B2 JUMP JUMPDEST PUSH1 0x40 MLOAD DUP1 SWAP2 SUB SWAP1 REVERT JUMPDEST PUSH1 0x2 PUSH1 0x4 DUP2 GT ISZERO PUSH2 0x184D JUMPI PUSH2 0x184C PUSH2 0x2937 JUMP JUMPDEST JUMPDEST DUP2 PUSH1 0x4 DUP2 GT ISZERO PUSH2 0x1860 JUMPI PUSH2 0x185F PUSH2 0x2937 JUMP JUMPDEST JUMPDEST SUB PUSH2 0x18A0 JUMPI PUSH1 0x40 MLOAD PUSH32 0x8C379A000000000000000000000000000000000000000000000000000000000 DUP2 MSTORE PUSH1 0x4 ADD PUSH2 0x1897 SWAP1 PUSH2 0x2A1E JUMP JUMPDEST PUSH1 0x40 MLOAD DUP1 SWAP2 SUB SWAP1 REVERT JUMPDEST PUSH1 0x3 PUSH1 0x4 DUP2 GT ISZERO PUSH2 0x18B4 JUMPI PUSH2 0x18B3 PUSH2 0x2937 JUMP JUMPDEST JUMPDEST DUP2 PUSH1 0x4 DUP2 GT ISZERO PUSH2 0x18C7 JUMPI PUSH2 0x18C6 PUSH2 0x2937 JUMP JUMPDEST JUMPDEST SUB PUSH2 0x1907 JUMPI PUSH1 0x40 MLOAD PUSH32 0x8C379A000000000000000000000000000000000000000000000000000000000 DUP2 MSTORE PUSH1 0x4 ADD PUSH2 0x18FE SWAP1 PUSH2 0x2AB0 JUMP JUMPDEST PUSH1 0x40 MLOAD DUP1 SWAP2 SUB SWAP1 REVERT JUMPDEST PUSH1 0x4 DUP1 DUP2 GT ISZERO PUSH2 0x191A JUMPI PUSH2 0x1919 PUSH2 0x2937 JUMP JUMPDEST JUMPDEST DUP2 PUSH1 0x4 DUP2 GT ISZERO PUSH2 0x192D JUMPI PUSH2 0x192C PUSH2 0x2937 JUMP JUMPDEST JUMPDEST SUB PUSH2 0x196D JUMPI PUSH1 0x40 MLOAD PUSH32 0x8C379A000000000000000000000000000000000000000000000000000000000 DUP2 MSTORE PUSH1 0x4 ADD PUSH2 0x1964 SWAP1 PUSH2 0x2B42 JUMP JUMPDEST PUSH1 0x40 MLOAD DUP1 SWAP2 SUB SWAP1 REVERT JUMPDEST JUMPDEST POP JUMP JUMPDEST PUSH1 0x0 DUP2 MLOAD SWAP1 POP SWAP2 SWAP1 POP JUMP JUMPDEST PUSH1 0x0 DUP3 DUP3 MSTORE PUSH1 0x20 DUP3 ADD SWAP1 POP SWAP3 SWAP2 POP POP JUMP JUMPDEST PUSH1 0x0 JUMPDEST DUP4 DUP2 LT ISZERO PUSH2 0x19AB JUMPI DUP1 DUP3 ADD MLOAD DUP2 DUP5 ADD MSTORE PUSH1 0x20 DUP2 ADD SWAP1 POP PUSH2 0x1990 JUMP JUMPDEST DUP4 DUP2 GT ISZERO PUSH2 0x19BA JUMPI PUSH1 0x0 DUP5 DUP5 ADD MSTORE JUMPDEST POP POP POP POP JUMP JUMPDEST PUSH1 0x0 PUSH1 0x1F NOT PUSH1 0x1F DUP4 ADD AND SWAP1 POP SWAP2 SWAP1 POP JUMP JUMPDEST PUSH1 0x0 PUSH2 0x19DC DUP3 PUSH2 0x1971 JUMP JUMPDEST PUSH2 0x19E6 DUP2 DUP6 PUSH2 0x197C JUMP JUMPDEST SWAP4 POP PUSH2 0x19F6 DUP2 DUP6 PUSH1 0x20 DUP7 ADD PUSH2 0x198D JUMP JUMPDEST PUSH2 0x19FF DUP2 PUSH2 0x19C0 JUMP JUMPDEST DUP5 ADD SWAP2 POP POP SWAP3 SWAP2 POP POP JUMP JUMPDEST PUSH1 0x0 PUSH1 0x20 DUP3 ADD SWAP1 POP DUP2 DUP2 SUB PUSH1 0x0 DUP4 ADD MSTORE PUSH2 0x1A24 DUP2 DUP5 PUSH2 0x19D1 JUMP JUMPDEST SWAP1 POP SWAP3 SWAP2 POP POP JUMP JUMPDEST PUSH1 0x0 DUP1 REVERT JUMPDEST PUSH1 0x0 PUSH20 0xFFFFFFFFFFFFFFFFFFFFFFFFFFFFFFFFFFFFFFFF DUP3 AND SWAP1 POP SWAP2 SWAP1 POP JUMP JUMPDEST PUSH1 0x0 PUSH2 0x1A5C DUP3 PUSH2 0x1A31 JUMP JUMPDEST SWAP1 POP SWAP2 SWAP1 POP JUMP JUMPDEST PUSH2 0x1A6C DUP2 PUSH2 0x1A51 JUMP JUMPDEST DUP2 EQ PUSH2 0x1A77 JUMPI PUSH1 0x0 DUP1 REVERT JUMPDEST POP JUMP JUMPDEST PUSH1 0x0 DUP2 CALLDATALOAD SWAP1 POP PUSH2 0x1A89 DUP2 PUSH2 0x1A63 JUMP JUMPDEST SWAP3 SWAP2 POP POP JUMP JUMPDEST PUSH1 0x0 DUP2 SWAP1 POP SWAP2 SWAP1 POP JUMP JUMPDEST PUSH2 0x1AA2 DUP2 PUSH2 0x1A8F JUMP JUMPDEST DUP2 EQ PUSH2 0x1AAD JUMPI PUSH1 0x0 DUP1 REVERT JUMPDEST POP JUMP JUMPDEST PUSH1 0x0 DUP2 CALLDATALOAD SWAP1 POP PUSH2 0x1ABF DUP2 PUSH2 0x1A99 JUMP JUMPDEST SWAP3 SWAP2 POP POP JUMP JUMPDEST PUSH1 0x0 DUP1 PUSH1 0x40 DUP4 DUP6 SUB SLT ISZERO PUSH2 0x1ADC JUMPI PUSH2 0x1ADB PUSH2 0x1A2C JUMP JUMPDEST JUMPDEST PUSH1 0x0 PUSH2 0x1AEA DUP6 DUP3 DUP7 ADD PUSH2 0x1A7A JUMP JUMPDEST SWAP3 POP POP PUSH1 0x20 PUSH2 0x1AFB DUP6 DUP3 DUP7 ADD PUSH2 0x1AB0 JUMP JUMPDEST SWAP2 POP POP SWAP3 POP SWAP3 SWAP1 POP JUMP JUMPDEST PUSH1 0x0 DUP2 ISZERO ISZERO SWAP1 POP SWAP2 SWAP1 POP JUMP JUMPDEST PUSH2 0x1B1A DUP2 PUSH2 0x1B05 JUMP JUMPDEST DUP3 MSTORE POP POP JUMP JUMPDEST PUSH1 0x0 PUSH1 0x20 DUP3 ADD SWAP1 POP PUSH2 0x1B35 PUSH1 0x0 DUP4 ADD DUP5 PUSH2 0x1B11 JUMP JUMPDEST SWAP3 SWAP2 POP POP JUMP JUMPDEST PUSH2 0x1B44 DUP2 PUSH2 0x1A8F JUMP JUMPDEST DUP3 MSTORE POP POP JUMP JUMPDEST PUSH1 0x0 PUSH1 0x20 DUP3 ADD SWAP1 POP PUSH2 0x1B5F PUSH1 0x0 DUP4 ADD DUP5 PUSH2 0x1B3B JUMP JUMPDEST SWAP3 SWAP2 POP POP JUMP JUMPDEST PUSH1 0x0 DUP1 PUSH1 0x0 PUSH1 0x60 DUP5 DUP7 SUB SLT ISZERO PUSH2 0x1B7E JUMPI PUSH2 0x1B7D PUSH2 0x1A2C JUMP JUMPDEST JUMPDEST PUSH1 0x0 PUSH2 0x1B8C DUP7 DUP3 DUP8 ADD PUSH2 0x1A7A JUMP JUMPDEST SWAP4 POP POP PUSH1 0x20 PUSH2 0x1B9D DUP7 DUP3 DUP8 ADD PUSH2 0x1A7A JUMP JUMPDEST SWAP3 POP POP PUSH1 0x40 PUSH2 0x1BAE DUP7 DUP3 DUP8 ADD PUSH2 0x1AB0 JUMP JUMPDEST SWAP2 POP POP SWAP3 POP SWAP3 POP SWAP3 JUMP JUMPDEST PUSH1 0x0 PUSH1 0xFF DUP3 AND SWAP1 POP SWAP2 SWAP1 POP JUMP JUMPDEST PUSH2 0x1BCE DUP2 PUSH2 0x1BB8 JUMP JUMPDEST DUP3 MSTORE POP POP JUMP JUMPDEST PUSH1 0x0 PUSH1 0x20 DUP3 ADD SWAP1 POP PUSH2 0x1BE9 PUSH1 0x0 DUP4 ADD DUP5 PUSH2 0x1BC5 JUMP JUMPDEST SWAP3 SWAP2 POP POP JUMP JUMPDEST PUSH1 0x0 DUP2 SWAP1 POP SWAP2 SWAP1 POP JUMP JUMPDEST PUSH2 0x1C02 DUP2 PUSH2 0x1BEF JUMP JUMPDEST DUP3 MSTORE POP POP JUMP JUMPDEST PUSH1 0x0 PUSH1 0x20 DUP3 ADD SWAP1 POP PUSH2 0x1C1D PUSH1 0x0 DUP4 ADD DUP5 PUSH2 0x1BF9 JUMP JUMPDEST SWAP3 SWAP2 POP POP JUMP JUMPDEST PUSH1 0x0 PUSH1 0x20 DUP3 DUP5 SUB SLT ISZERO PUSH2 0x1C39 JUMPI PUSH2 0x1C38 PUSH2 0x1A2C JUMP JUMPDEST JUMPDEST PUSH1 0x0 PUSH2 0x1C47 DUP5 DUP3 DUP6 ADD PUSH2 0x1AB0 JUMP JUMPDEST SWAP2 POP POP SWAP3 SWAP2 POP POP JUMP JUMPDEST PUSH1 0x0 PUSH1 0x20 DUP3 DUP5 SUB SLT ISZERO PUSH2 0x1C66 JUMPI PUSH2 0x1C65 PUSH2 0x1A2C JUMP JUMPDEST JUMPDEST PUSH1 0x0 PUSH2 0x1C74 DUP5 DUP3 DUP6 ADD PUSH2 0x1A7A JUMP JUMPDEST SWAP2 POP POP SWAP3 SWAP2 POP POP JUMP JUMPDEST PUSH1 0x0 PUSH2 0x1C88 DUP3 PUSH2 0x1A51 JUMP JUMPDEST SWAP1 POP SWAP2 SWAP1 POP JUMP JUMPDEST PUSH2 0x1C98 DUP2 PUSH2 0x1C7D JUMP JUMPDEST DUP2 EQ PUSH2 0x1CA3 JUMPI PUSH1 0x0 DUP1 REVERT JUMPDEST POP JUMP JUMPDEST PUSH1 0x0 DUP2 CALLDATALOAD SWAP1 POP PUSH2 0x1CB5 DUP2 PUSH2 0x1C8F JUMP JUMPDEST SWAP3 SWAP2 POP POP JUMP JUMPDEST PUSH1 0x0 PUSH1 0x20 DUP3 DUP5 SUB SLT ISZERO PUSH2 0x1CD1 JUMPI PUSH2 0x1CD0 PUSH2 0x1A2C JUMP JUMPDEST JUMPDEST PUSH1 0x0 PUSH2 0x1CDF DUP5 DUP3 DUP6 ADD PUSH2 0x1CA6 JUMP JUMPDEST SWAP2 POP POP SWAP3 SWAP2 POP POP JUMP JUMPDEST PUSH1 0x0 DUP2 SWAP1 POP SWAP2 SWAP1 POP JUMP JUMPDEST PUSH1 0x0 PUSH2 0x1D0D PUSH2 0x1D08 PUSH2 0x1D03 DUP5 PUSH2 0x1A31 JUMP JUMPDEST PUSH2 0x1CE8 JUMP JUMPDEST PUSH2 0x1A31 JUMP JUMPDEST SWAP1 POP SWAP2 SWAP1 POP JUMP JUMPDEST PUSH1 0x0 PUSH2 0x1D1F DUP3 PUSH2 0x1CF2 JUMP JUMPDEST SWAP1 POP SWAP2 SWAP1 POP JUMP JUMPDEST PUSH1 0x0 PUSH2 0x1D31 DUP3 PUSH2 0x1D14 JUMP JUMPDEST SWAP1 POP SWAP2 SWAP1 POP JUMP JUMPDEST PUSH2 0x1D41 DUP2 PUSH2 0x1D26 JUMP JUMPDEST DUP3 MSTORE POP POP JUMP JUMPDEST PUSH1 0x0 PUSH1 0x20 DUP3 ADD SWAP1 POP PUSH2 0x1D5C PUSH1 0x0 DUP4 ADD DUP5 PUSH2 0x1D38 JUMP JUMPDEST SWAP3 SWAP2 POP POP JUMP JUMPDEST PUSH2 0x1D6B DUP2 PUSH2 0x1BB8 JUMP JUMPDEST DUP2 EQ PUSH2 0x1D76 JUMPI PUSH1 0x0 DUP1 REVERT JUMPDEST POP JUMP JUMPDEST PUSH1 0x0 DUP2 CALLDATALOAD SWAP1 POP PUSH2 0x1D88 DUP2 PUSH2 0x1D62 JUMP JUMPDEST SWAP3 SWAP2 POP POP JUMP JUMPDEST PUSH2 0x1D97 DUP2 PUSH2 0x1BEF JUMP JUMPDEST DUP2 EQ PUSH2 0x1DA2 JUMPI PUSH1 0x0 DUP1 REVERT JUMPDEST POP JUMP JUMPDEST PUSH1 0x0 DUP2 CALLDATALOAD SWAP1 POP PUSH2 0x1DB4 DUP2 PUSH2 0x1D8E JUMP JUMPDEST SWAP3 SWAP2 POP POP JUMP JUMPDEST PUSH1 0x0 DUP1 PUSH1 0x0 DUP1 PUSH1 0x0 DUP1 PUSH1 0x0 PUSH1 0xE0 DUP9 DUP11 SUB SLT ISZERO PUSH2 0x1DD9 JUMPI PUSH2 0x1DD8 PUSH2 0x1A2C JUMP JUMPDEST JUMPDEST PUSH1 0x0 PUSH2 0x1DE7 DUP11 DUP3 DUP12 ADD PUSH2 0x1A7A JUMP JUMPDEST SWAP8 POP POP PUSH1 0x20 PUSH2 0x1DF8 DUP11 DUP3 DUP12 ADD PUSH2 0x1A7A JUMP JUMPDEST SWAP7 POP POP PUSH1 0x40 PUSH2 0x1E09 DUP11 DUP3 DUP12 ADD PUSH2 0x1AB0 JUMP JUMPDEST SWAP6 POP POP PUSH1 0x60 PUSH2 0x1E1A DUP11 DUP3 DUP12 ADD PUSH2 0x1AB0 JUMP JUMPDEST SWAP5 POP POP PUSH1 0x80 PUSH2 0x1E2B DUP11 DUP3 DUP12 ADD PUSH2 0x1D79 JUMP JUMPDEST SWAP4 POP POP PUSH1 0xA0 PUSH2 0x1E3C DUP11 DUP3 DUP12 ADD PUSH2 0x1DA5 JUMP JUMPDEST SWAP3 POP POP PUSH1 0xC0 PUSH2 0x1E4D DUP11 DUP3 DUP12 ADD PUSH2 0x1DA5 JUMP JUMPDEST SWAP2 POP POP SWAP3 SWAP6 SWAP9 SWAP2 SWAP5 SWAP8 POP SWAP3 SWAP6 POP JUMP JUMPDEST PUSH1 0x0 DUP1 PUSH1 0x40 DUP4 DUP6 SUB SLT ISZERO PUSH2 0x1E73 JUMPI PUSH2 0x1E72 PUSH2 0x1A2C JUMP JUMPDEST JUMPDEST PUSH1 0x0 PUSH2 0x1E81 DUP6 DUP3 DUP7 ADD PUSH2 0x1A7A JUMP JUMPDEST SWAP3 POP POP PUSH1 0x20 PUSH2 0x1E92 DUP6 DUP3 DUP7 ADD PUSH2 0x1A7A JUMP JUMPDEST SWAP2 POP POP SWAP3 POP SWAP3 SWAP1 POP JUMP JUMPDEST PUSH32 0x4E487B7100000000000000000000000000000000000000000000000000000000 PUSH1 0x0 MSTORE PUSH1 0x22 PUSH1 0x4 MSTORE PUSH1 0x24 PUSH1 0x0 REVERT JUMPDEST PUSH1 0x0 PUSH1 0x2 DUP3 DIV SWAP1 POP PUSH1 0x1 DUP3 AND DUP1 PUSH2 0x1EE3 JUMPI PUSH1 0x7F DUP3 AND SWAP2 POP JUMPDEST PUSH1 0x20 DUP3 LT DUP2 SUB PUSH2 0x1EF6 JUMPI PUSH2 0x1EF5 PUSH2 0x1E9C JUMP JUMPDEST JUMPDEST POP SWAP2 SWAP1 POP JUMP JUMPDEST PUSH32 0x4E487B7100000000000000000000000000000000000000000000000000000000 PUSH1 0x0 MSTORE PUSH1 0x11 PUSH1 0x4 MSTORE PUSH1 0x24 PUSH1 0x0 REVERT JUMPDEST PUSH1 0x0 PUSH2 0x1F36 DUP3 PUSH2 0x1A8F JUMP JUMPDEST SWAP2 POP PUSH2 0x1F41 DUP4 PUSH2 0x1A8F JUMP JUMPDEST SWAP3 POP DUP3 PUSH32 0xFFFFFFFFFFFFFFFFFFFFFFFFFFFFFFFFFFFFFFFFFFFFFFFFFFFFFFFFFFFFFFFF SUB DUP3 GT ISZERO PUSH2 0x1F76 JUMPI PUSH2 0x1F75 PUSH2 0x1EFC JUMP JUMPDEST JUMPDEST DUP3 DUP3 ADD SWAP1 POP SWAP3 SWAP2 POP POP JUMP JUMPDEST PUSH1 0x0 DUP2 MLOAD SWAP1 POP PUSH2 0x1F90 DUP2 PUSH2 0x1A63 JUMP JUMPDEST SWAP3 SWAP2 POP POP JUMP JUMPDEST PUSH1 0x0 PUSH1 0x20 DUP3 DUP5 SUB SLT ISZERO PUSH2 0x1FAC JUMPI PUSH2 0x1FAB PUSH2 0x1A2C JUMP JUMPDEST JUMPDEST PUSH1 0x0 PUSH2 0x1FBA DUP5 DUP3 DUP6 ADD PUSH2 0x1F81 JUMP JUMPDEST SWAP2 POP POP SWAP3 SWAP2 POP POP JUMP JUMPDEST PUSH1 0x0 DUP2 SWAP1 POP DUP2 PUSH1 0x0 MSTORE PUSH1 0x20 PUSH1 0x0 KECCAK256 SWAP1 POP SWAP2 SWAP1 POP JUMP JUMPDEST PUSH1 0x0 DUP2 SLOAD PUSH2 0x1FE5 DUP2 PUSH2 0x1ECB JUMP JUMPDEST PUSH2 0x1FEF DUP2 DUP7 PUSH2 0x197C JUMP JUMPDEST SWAP5 POP PUSH1 0x1 DUP3 AND PUSH1 0x0 DUP2 EQ PUSH2 0x200A JUMPI PUSH1 0x1 DUP2 EQ PUSH2 0x201C JUMPI PUSH2 0x204F JUMP JUMPDEST PUSH1 0xFF NOT DUP4 AND DUP7 MSTORE PUSH1 0x20 DUP7 ADD SWAP4 POP PUSH2 0x204F JUMP JUMPDEST PUSH2 0x2025 DUP6 PUSH2 0x1FC3 JUMP JUMPDEST PUSH1 0x0 JUMPDEST DUP4 DUP2 LT ISZERO PUSH2 0x2047 JUMPI DUP2 SLOAD DUP2 DUP10 ADD MSTORE PUSH1 0x1 DUP3 ADD SWAP2 POP PUSH1 0x20 DUP2 ADD SWAP1 POP PUSH2 0x2028 JUMP JUMPDEST DUP1 DUP9 ADD SWAP6 POP POP POP JUMPDEST POP POP POP SWAP3 SWAP2 POP POP JUMP JUMPDEST PUSH1 0x0 PUSH1 0x20 DUP3 ADD SWAP1 POP DUP2 DUP2 SUB PUSH1 0x0 DUP4 ADD MSTORE PUSH2 0x2072 DUP2 DUP5 PUSH2 0x1FD8 JUMP JUMPDEST SWAP1 POP SWAP3 SWAP2 POP POP JUMP JUMPDEST PUSH32 0x45524332303A2064656372656173656420616C6C6F77616E63652062656C6F77 PUSH1 0x0 DUP3 ADD MSTORE PUSH32 0x207A65726F000000000000000000000000000000000000000000000000000000 PUSH1 0x20 DUP3 ADD MSTORE POP JUMP JUMPDEST PUSH1 0x0 PUSH2 0x20D6 PUSH1 0x25 DUP4 PUSH2 0x197C JUMP JUMPDEST SWAP2 POP PUSH2 0x20E1 DUP3 PUSH2 0x207A JUMP JUMPDEST PUSH1 0x40 DUP3 ADD SWAP1 POP SWAP2 SWAP1 POP JUMP JUMPDEST PUSH1 0x0 PUSH1 0x20 DUP3 ADD SWAP1 POP DUP2 DUP2 SUB PUSH1 0x0 DUP4 ADD MSTORE PUSH2 0x2105 DUP2 PUSH2 0x20C9 JUMP JUMPDEST SWAP1 POP SWAP2 SWAP1 POP JUMP JUMPDEST PUSH32 0x45524332305065726D69743A206578706972656420646561646C696E65000000 PUSH1 0x0 DUP3 ADD MSTORE POP JUMP JUMPDEST PUSH1 0x0 PUSH2 0x2142 PUSH1 0x1D DUP4 PUSH2 0x197C JUMP JUMPDEST SWAP2 POP PUSH2 0x214D DUP3 PUSH2 0x210C JUMP JUMPDEST PUSH1 0x20 DUP3 ADD SWAP1 POP SWAP2 SWAP1 POP JUMP JUMPDEST PUSH1 0x0 PUSH1 0x20 DUP3 ADD SWAP1 POP DUP2 DUP2 SUB PUSH1 0x0 DUP4 ADD MSTORE PUSH2 0x2171 DUP2 PUSH2 0x2135 JUMP JUMPDEST SWAP1 POP SWAP2 SWAP1 POP JUMP JUMPDEST PUSH2 0x2181 DUP2 PUSH2 0x1A51 JUMP JUMPDEST DUP3 MSTORE POP POP JUMP JUMPDEST PUSH1 0x0 PUSH1 0xC0 DUP3 ADD SWAP1 POP PUSH2 0x219C PUSH1 0x0 DUP4 ADD DUP10 PUSH2 0x1BF9 JUMP JUMPDEST PUSH2 0x21A9 PUSH1 0x20 DUP4 ADD DUP9 PUSH2 0x2178 JUMP JUMPDEST PUSH2 0x21B6 PUSH1 0x40 DUP4 ADD DUP8 PUSH2 0x2178 JUMP JUMPDEST PUSH2 0x21C3 PUSH1 0x60 DUP4 ADD DUP7 PUSH2 0x1B3B JUMP JUMPDEST PUSH2 0x21D0 PUSH1 0x80 DUP4 ADD DUP6 PUSH2 0x1B3B JUMP JUMPDEST PUSH2 0x21DD PUSH1 0xA0 DUP4 ADD DUP5 PUSH2 0x1B3B JUMP JUMPDEST SWAP8 SWAP7 POP POP POP POP POP POP POP JUMP JUMPDEST PUSH32 0x45524332305065726D69743A20696E76616C6964207369676E61747572650000 PUSH1 0x0 DUP3 ADD MSTORE POP JUMP JUMPDEST PUSH1 0x0 PUSH2 0x221E PUSH1 0x1E DUP4 PUSH2 0x197C JUMP JUMPDEST SWAP2 POP PUSH2 0x2229 DUP3 PUSH2 0x21E8 JUMP JUMPDEST PUSH1 0x20 DUP3 ADD SWAP1 POP SWAP2 SWAP1 POP JUMP JUMPDEST PUSH1 0x0 PUSH1 0x20 DUP3 ADD SWAP1 POP DUP2 DUP2 SUB PUSH1 0x0 DUP4 ADD MSTORE PUSH2 0x224D DUP2 PUSH2 0x2211 JUMP JUMPDEST SWAP1 POP SWAP2 SWAP1 POP JUMP JUMPDEST PUSH32 0x45524332303A20617070726F76652066726F6D20746865207A65726F20616464 PUSH1 0x0 DUP3 ADD MSTORE PUSH32 0x7265737300000000000000000000000000000000000000000000000000000000 PUSH1 0x20 DUP3 ADD MSTORE POP JUMP JUMPDEST PUSH1 0x0 PUSH2 0x22B0 PUSH1 0x24 DUP4 PUSH2 0x197C JUMP JUMPDEST SWAP2 POP PUSH2 0x22BB DUP3 PUSH2 0x2254 JUMP JUMPDEST PUSH1 0x40 DUP3 ADD SWAP1 POP SWAP2 SWAP1 POP JUMP JUMPDEST PUSH1 0x0 PUSH1 0x20 DUP3 ADD SWAP1 POP DUP2 DUP2 SUB PUSH1 0x0 DUP4 ADD MSTORE PUSH2 0x22DF DUP2 PUSH2 0x22A3 JUMP JUMPDEST SWAP1 POP SWAP2 SWAP1 POP JUMP JUMPDEST PUSH32 0x45524332303A20617070726F766520746F20746865207A65726F206164647265 PUSH1 0x0 DUP3 ADD MSTORE PUSH32 0x7373000000000000000000000000000000000000000000000000000000000000 PUSH1 0x20 DUP3 ADD MSTORE POP JUMP JUMPDEST PUSH1 0x0 PUSH2 0x2342 PUSH1 0x22 DUP4 PUSH2 0x197C JUMP JUMPDEST SWAP2 POP PUSH2 0x234D DUP3 PUSH2 0x22E6 JUMP JUMPDEST PUSH1 0x40 DUP3 ADD SWAP1 POP SWAP2 SWAP1 POP JUMP JUMPDEST PUSH1 0x0 PUSH1 0x20 DUP3 ADD SWAP1 POP DUP2 DUP2 SUB PUSH1 0x0 DUP4 ADD MSTORE PUSH2 0x2371 DUP2 PUSH2 0x2335 JUMP JUMPDEST SWAP1 POP SWAP2 SWAP1 POP JUMP JUMPDEST PUSH32 0x45524332303A20696E73756666696369656E7420616C6C6F77616E6365000000 PUSH1 0x0 DUP3 ADD MSTORE POP JUMP JUMPDEST PUSH1 0x0 PUSH2 0x23AE PUSH1 0x1D DUP4 PUSH2 0x197C JUMP JUMPDEST SWAP2 POP PUSH2 0x23B9 DUP3 PUSH2 0x2378 JUMP JUMPDEST PUSH1 0x20 DUP3 ADD SWAP1 POP SWAP2 SWAP1 POP JUMP JUMPDEST PUSH1 0x0 PUSH1 0x20 DUP3 ADD SWAP1 POP DUP2 DUP2 SUB PUSH1 0x0 DUP4 ADD MSTORE PUSH2 0x23DD DUP2 PUSH2 0x23A1 JUMP JUMPDEST SWAP1 POP SWAP2 SWAP1 POP JUMP JUMPDEST PUSH32 0x45524332303A207472616E736665722066726F6D20746865207A65726F206164 PUSH1 0x0 DUP3 ADD MSTORE PUSH32 0x6472657373000000000000000000000000000000000000000000000000000000 PUSH1 0x20 DUP3 ADD MSTORE POP JUMP JUMPDEST PUSH1 0x0 PUSH2 0x2440 PUSH1 0x25 DUP4 PUSH2 0x197C JUMP JUMPDEST SWAP2 POP PUSH2 0x244B DUP3 PUSH2 0x23E4 JUMP JUMPDEST PUSH1 0x40 DUP3 ADD SWAP1 POP SWAP2 SWAP1 POP JUMP JUMPDEST PUSH1 0x0 PUSH1 0x20 DUP3 ADD SWAP1 POP DUP2 DUP2 SUB PUSH1 0x0 DUP4 ADD MSTORE PUSH2 0x246F DUP2 PUSH2 0x2433 JUMP JUMPDEST SWAP1 POP SWAP2 SWAP1 POP JUMP JUMPDEST PUSH32 0x45524332303A207472616E7366657220746F20746865207A65726F2061646472 PUSH1 0x0 DUP3 ADD MSTORE PUSH32 0x6573730000000000000000000000000000000000000000000000000000000000 PUSH1 0x20 DUP3 ADD MSTORE POP JUMP JUMPDEST PUSH1 0x0 PUSH2 0x24D2 PUSH1 0x23 DUP4 PUSH2 0x197C JUMP JUMPDEST SWAP2 POP PUSH2 0x24DD DUP3 PUSH2 0x2476 JUMP JUMPDEST PUSH1 0x40 DUP3 ADD SWAP1 POP SWAP2 SWAP1 POP JUMP JUMPDEST PUSH1 0x0 PUSH1 0x20 DUP3 ADD SWAP1 POP DUP2 DUP2 SUB PUSH1 0x0 DUP4 ADD MSTORE PUSH2 0x2501 DUP2 PUSH2 0x24C5 JUMP JUMPDEST SWAP1 POP SWAP2 SWAP1 POP JUMP JUMPDEST PUSH32 0x45524332303A207472616E7366657220616D6F756E7420657863656564732062 PUSH1 0x0 DUP3 ADD MSTORE PUSH32 0x616C616E63650000000000000000000000000000000000000000000000000000 PUSH1 0x20 DUP3 ADD MSTORE POP JUMP JUMPDEST PUSH1 0x0 PUSH2 0x2564 PUSH1 0x26 DUP4 PUSH2 0x197C JUMP JUMPDEST SWAP2 POP PUSH2 0x256F DUP3 PUSH2 0x2508 JUMP JUMPDEST PUSH1 0x40 DUP3 ADD SWAP1 POP SWAP2 SWAP1 POP JUMP JUMPDEST PUSH1 0x0 PUSH1 0x20 DUP3 ADD SWAP1 POP DUP2 DUP2 SUB PUSH1 0x0 DUP4 ADD MSTORE PUSH2 0x2593 DUP2 PUSH2 0x2557 JUMP JUMPDEST SWAP1 POP SWAP2 SWAP1 POP JUMP JUMPDEST PUSH32 0x45524332303A206D696E7420746F20746865207A65726F206164647265737300 PUSH1 0x0 DUP3 ADD MSTORE POP JUMP JUMPDEST PUSH1 0x0 PUSH2 0x25D0 PUSH1 0x1F DUP4 PUSH2 0x197C JUMP JUMPDEST SWAP2 POP PUSH2 0x25DB DUP3 PUSH2 0x259A JUMP JUMPDEST PUSH1 0x20 DUP3 ADD SWAP1 POP SWAP2 SWAP1 POP JUMP JUMPDEST PUSH1 0x0 PUSH1 0x20 DUP3 ADD SWAP1 POP DUP2 DUP2 SUB PUSH1 0x0 DUP4 ADD MSTORE PUSH2 0x25FF DUP2 PUSH2 0x25C3 JUMP JUMPDEST SWAP1 POP SWAP2 SWAP1 POP JUMP JUMPDEST PUSH32 0x45524332303A206275726E2066726F6D20746865207A65726F20616464726573 PUSH1 0x0 DUP3 ADD MSTORE PUSH32 0x7300000000000000000000000000000000000000000000000000000000000000 PUSH1 0x20 DUP3 ADD MSTORE POP JUMP JUMPDEST PUSH1 0x0 PUSH2 0x2662 PUSH1 0x21 DUP4 PUSH2 0x197C JUMP JUMPDEST SWAP2 POP PUSH2 0x266D DUP3 PUSH2 0x2606 JUMP JUMPDEST PUSH1 0x40 DUP3 ADD SWAP1 POP SWAP2 SWAP1 POP JUMP JUMPDEST PUSH1 0x0 PUSH1 0x20 DUP3 ADD SWAP1 POP DUP2 DUP2 SUB PUSH1 0x0 DUP4 ADD MSTORE PUSH2 0x2691 DUP2 PUSH2 0x2655 JUMP JUMPDEST SWAP1 POP SWAP2 SWAP1 POP JUMP JUMPDEST PUSH32 0x45524332303A206275726E20616D6F756E7420657863656564732062616C616E PUSH1 0x0 DUP3 ADD MSTORE PUSH32 0x6365000000000000000000000000000000000000000000000000000000000000 PUSH1 0x20 DUP3 ADD MSTORE POP JUMP JUMPDEST PUSH1 0x0 PUSH2 0x26F4 PUSH1 0x22 DUP4 PUSH2 0x197C JUMP JUMPDEST SWAP2 POP PUSH2 0x26FF DUP3 PUSH2 0x2698 JUMP JUMPDEST PUSH1 0x40 DUP3 ADD SWAP1 POP SWAP2 SWAP1 POP JUMP JUMPDEST PUSH1 0x0 PUSH1 0x20 DUP3 ADD SWAP1 POP DUP2 DUP2 SUB PUSH1 0x0 DUP4 ADD MSTORE PUSH2 0x2723 DUP2 PUSH2 0x26E7 JUMP JUMPDEST SWAP1 POP SWAP2 SWAP1 POP JUMP JUMPDEST PUSH1 0x0 PUSH2 0x2735 DUP3 PUSH2 0x1A8F JUMP JUMPDEST SWAP2 POP PUSH2 0x2740 DUP4 PUSH2 0x1A8F JUMP JUMPDEST SWAP3 POP DUP3 DUP3 LT ISZERO PUSH2 0x2753 JUMPI PUSH2 0x2752 PUSH2 0x1EFC JUMP JUMPDEST JUMPDEST DUP3 DUP3 SUB SWAP1 POP SWAP3 SWAP2 POP POP JUMP JUMPDEST PUSH32 0x45524332303A206275726E20616D6F756E74206578636565647320616C6C6F77 PUSH1 0x0 DUP3 ADD MSTORE PUSH32 0x616E636500000000000000000000000000000000000000000000000000000000 PUSH1 0x20 DUP3 ADD MSTORE POP JUMP JUMPDEST PUSH1 0x0 PUSH2 0x27BA PUSH1 0x24 DUP4 PUSH2 0x197C JUMP JUMPDEST SWAP2 POP PUSH2 0x27C5 DUP3 PUSH2 0x275E JUMP JUMPDEST PUSH1 0x40 DUP3 ADD SWAP1 POP SWAP2 SWAP1 POP JUMP JUMPDEST PUSH1 0x0 PUSH1 0x20 DUP3 ADD SWAP1 POP DUP2 DUP2 SUB PUSH1 0x0 DUP4 ADD MSTORE PUSH2 0x27E9 DUP2 PUSH2 0x27AD JUMP JUMPDEST SWAP1 POP SWAP2 SWAP1 POP JUMP JUMPDEST PUSH1 0x0 PUSH1 0xA0 DUP3 ADD SWAP1 POP PUSH2 0x2805 PUSH1 0x0 DUP4 ADD DUP9 PUSH2 0x1BF9 JUMP JUMPDEST PUSH2 0x2812 PUSH1 0x20 DUP4 ADD DUP8 PUSH2 0x1BF9 JUMP JUMPDEST PUSH2 0x281F PUSH1 0x40 DUP4 ADD DUP7 PUSH2 0x1BF9 JUMP JUMPDEST PUSH2 0x282C PUSH1 0x60 DUP4 ADD DUP6 PUSH2 0x1B3B JUMP JUMPDEST PUSH2 0x2839 PUSH1 0x80 DUP4 ADD DUP5 PUSH2 0x2178 JUMP JUMPDEST SWAP7 SWAP6 POP POP POP POP POP POP JUMP JUMPDEST PUSH1 0x0 DUP2 SWAP1 POP SWAP3 SWAP2 POP POP JUMP JUMPDEST PUSH32 0x1901000000000000000000000000000000000000000000000000000000000000 PUSH1 0x0 DUP3 ADD MSTORE POP JUMP JUMPDEST PUSH1 0x0 PUSH2 0x2884 PUSH1 0x2 DUP4 PUSH2 0x2843 JUMP JUMPDEST SWAP2 POP PUSH2 0x288F DUP3 PUSH2 0x284E JUMP JUMPDEST PUSH1 0x2 DUP3 ADD SWAP1 POP SWAP2 SWAP1 POP JUMP JUMPDEST PUSH1 0x0 DUP2 SWAP1 POP SWAP2 SWAP1 POP JUMP JUMPDEST PUSH2 0x28B5 PUSH2 0x28B0 DUP3 PUSH2 0x1BEF JUMP JUMPDEST PUSH2 0x289A JUMP JUMPDEST DUP3 MSTORE POP POP JUMP JUMPDEST PUSH1 0x0 PUSH2 0x28C6 DUP3 PUSH2 0x2877 JUMP JUMPDEST SWAP2 POP PUSH2 0x28D2 DUP3 DUP6 PUSH2 0x28A4 JUMP JUMPDEST PUSH1 0x20 DUP3 ADD SWAP2 POP PUSH2 0x28E2 DUP3 DUP5 PUSH2 0x28A4 JUMP JUMPDEST PUSH1 0x20 DUP3 ADD SWAP2 POP DUP2 SWAP1 POP SWAP4 SWAP3 POP POP POP JUMP JUMPDEST PUSH1 0x0 PUSH1 0x80 DUP3 ADD SWAP1 POP PUSH2 0x2907 PUSH1 0x0 DUP4 ADD DUP8 PUSH2 0x1BF9 JUMP JUMPDEST PUSH2 0x2914 PUSH1 0x20 DUP4 ADD DUP7 PUSH2 0x1BC5 JUMP JUMPDEST PUSH2 0x2921 PUSH1 0x40 DUP4 ADD DUP6 PUSH2 0x1BF9 JUMP JUMPDEST PUSH2 0x292E PUSH1 0x60 DUP4 ADD DUP5 PUSH2 0x1BF9 JUMP JUMPDEST SWAP6 SWAP5 POP POP POP POP POP JUMP JUMPDEST PUSH32 0x4E487B7100000000000000000000000000000000000000000000000000000000 PUSH1 0x0 MSTORE PUSH1 0x21 PUSH1 0x4 MSTORE PUSH1 0x24 PUSH1 0x0 REVERT JUMPDEST PUSH32 0x45434453413A20696E76616C6964207369676E61747572650000000000000000 PUSH1 0x0 DUP3 ADD MSTORE POP JUMP JUMPDEST PUSH1 0x0 PUSH2 0x299C PUSH1 0x18 DUP4 PUSH2 0x197C JUMP JUMPDEST SWAP2 POP PUSH2 0x29A7 DUP3 PUSH2 0x2966 JUMP JUMPDEST PUSH1 0x20 DUP3 ADD SWAP1 POP SWAP2 SWAP1 POP JUMP JUMPDEST PUSH1 0x0 PUSH1 0x20 DUP3 ADD SWAP1 POP DUP2 DUP2 SUB PUSH1 0x0 DUP4 ADD MSTORE PUSH2 0x29CB DUP2 PUSH2 0x298F JUMP JUMPDEST SWAP1 POP SWAP2 SWAP1 POP JUMP JUMPDEST PUSH32 0x45434453413A20696E76616C6964207369676E6174757265206C656E67746800 PUSH1 0x0 DUP3 ADD MSTORE POP JUMP JUMPDEST PUSH1 0x0 PUSH2 0x2A08 PUSH1 0x1F DUP4 PUSH2 0x197C JUMP JUMPDEST SWAP2 POP PUSH2 0x2A13 DUP3 PUSH2 0x29D2 JUMP JUMPDEST PUSH1 0x20 DUP3 ADD SWAP1 POP SWAP2 SWAP1 POP JUMP JUMPDEST PUSH1 0x0 PUSH1 0x20 DUP3 ADD SWAP1 POP DUP2 DUP2 SUB PUSH1 0x0 DUP4 ADD MSTORE PUSH2 0x2A37 DUP2 PUSH2 0x29FB JUMP JUMPDEST SWAP1 POP SWAP2 SWAP1 POP JUMP JUMPDEST PUSH32 0x45434453413A20696E76616C6964207369676E6174757265202773272076616C PUSH1 0x0 DUP3 ADD MSTORE PUSH32 0x7565000000000000000000000000000000000000000000000000000000000000 PUSH1 0x20 DUP3 ADD MSTORE POP JUMP JUMPDEST PUSH1 0x0 PUSH2 0x2A9A PUSH1 0x22 DUP4 PUSH2 0x197C JUMP JUMPDEST SWAP2 POP PUSH2 0x2AA5 DUP3 PUSH2 0x2A3E JUMP JUMPDEST PUSH1 0x40 DUP3 ADD SWAP1 POP SWAP2 SWAP1 POP JUMP JUMPDEST PUSH1 0x0 PUSH1 0x20 DUP3 ADD SWAP1 POP DUP2 DUP2 SUB PUSH1 0x0 DUP4 ADD MSTORE PUSH2 0x2AC9 DUP2 PUSH2 0x2A8D JUMP JUMPDEST SWAP1 POP SWAP2 SWAP1 POP JUMP JUMPDEST PUSH32 0x45434453413A20696E76616C6964207369676E6174757265202776272076616C PUSH1 0x0 DUP3 ADD MSTORE PUSH32 0x7565000000000000000000000000000000000000000000000000000000000000 PUSH1 0x20 DUP3 ADD MSTORE POP JUMP JUMPDEST PUSH1 0x0 PUSH2 0x2B2C PUSH1 0x22 DUP4 PUSH2 0x197C JUMP JUMPDEST SWAP2 POP PUSH2 0x2B37 DUP3 PUSH2 0x2AD0 JUMP JUMPDEST PUSH1 0x40 DUP3 ADD SWAP1 POP SWAP2 SWAP1 POP JUMP JUMPDEST PUSH1 0x0 PUSH1 0x20 DUP3 ADD SWAP1 POP DUP2 DUP2 SUB PUSH1 0x0 DUP4 ADD MSTORE PUSH2 0x2B5B DUP2 PUSH2 0x2B1F JUMP JUMPDEST SWAP1 POP SWAP2 SWAP1 POP JUMP INVALID LOG2 PUSH5 0x6970667358 0x22 SLT KECCAK256 0xE1 0xE2 DUP13 0x5C 0xFB SSTORE DUP5 DUP16 STOP 0xEA CREATE SWAP6 0xCF GASPRICE SHR CALLER ISZERO DUP10 PUSH24 0xDEF7E127AF3DA388F6DC593BEE64736F6C634300080D0033 "
				},
				"gasEstimates": {
					"creation": {
						"codeDepositCost": "2232000",
						"executionCost": "infinite",
						"totalCost": "infinite"
					},
					"external": {
						"DOMAIN_SEPARATOR()": "infinite",
						"allowance(address,address)": "infinite",
						"approve(address,uint256)": "infinite",
						"authority()": "infinite",
						"balanceOf(address)": "2864",
						"burn(uint256)": "infinite",
						"burnFrom(address,uint256)": "infinite",
						"decimals()": "infinite",
						"decreaseAllowance(address,uint256)": "infinite",
						"increaseAllowance(address,uint256)": "infinite",
						"mint(address,uint256)": "infinite",
						"name()": "infinite",
						"nonces(address)": "2979",
						"permit(address,address,uint256,uint256,uint8,bytes32,bytes32)": "infinite",
						"setAuthority(address)": "infinite",
						"symbol()": "infinite",
						"totalSupply()": "2505",
						"transfer(address,uint256)": "infinite",
						"transferFrom(address,address,uint256)": "infinite"
					},
					"internal": {
						"_burnFrom(address,uint256)": "infinite"
					}
				},
				"methodIdentifiers": {
					"DOMAIN_SEPARATOR()": "3644e515",
					"allowance(address,address)": "dd62ed3e",
					"approve(address,uint256)": "095ea7b3",
					"authority()": "bf7e214f",
					"balanceOf(address)": "70a08231",
					"burn(uint256)": "42966c68",
					"burnFrom(address,uint256)": "79cc6790",
					"decimals()": "313ce567",
					"decreaseAllowance(address,uint256)": "a457c2d7",
					"increaseAllowance(address,uint256)": "39509351",
					"mint(address,uint256)": "40c10f19",
					"name()": "06fdde03",
					"nonces(address)": "7ecebe00",
					"permit(address,address,uint256,uint256,uint8,bytes32,bytes32)": "d505accf",
					"setAuthority(address)": "7a9e5e4b",
					"symbol()": "95d89b41",
					"totalSupply()": "18160ddd",
					"transfer(address,uint256)": "a9059cbb",
					"transferFrom(address,address,uint256)": "23b872dd"
				}
			},
			"userdoc": {
				"kind": "user",
				"methods": {
					"setAuthority(address)": {
						"notice": "Function to set and update Solid Dao Management smart contract address"
					}
				},
				"notice": "SCT Token",
				"version": 1
			}
		}
	}
}