{
	"SolidDaoManagement.sol": {
		"SolidDaoManagement": {
			"abi": [
				{
					"inputs": [
						{
							"internalType": "address",
							"name": "_governor",
							"type": "address"
						},
						{
							"internalType": "address",
							"name": "_guardian",
							"type": "address"
						},
						{
							"internalType": "address",
							"name": "_policy",
							"type": "address"
						},
						{
							"internalType": "address",
							"name": "_vault",
							"type": "address"
						}
					],
					"stateMutability": "nonpayable",
					"type": "constructor"
				},
				{
					"anonymous": false,
					"inputs": [
						{
							"indexed": true,
							"internalType": "contract ISolidDaoManagement",
							"name": "authority",
							"type": "address"
						}
					],
					"name": "AuthorityUpdated",
					"type": "event"
				},
				{
					"anonymous": false,
					"inputs": [
						{
							"indexed": true,
							"internalType": "address",
							"name": "from",
							"type": "address"
						},
						{
							"indexed": true,
							"internalType": "address",
							"name": "to",
							"type": "address"
						}
					],
					"name": "GovernorPulled",
					"type": "event"
				},
				{
					"anonymous": false,
					"inputs": [
						{
							"indexed": true,
							"internalType": "address",
							"name": "from",
							"type": "address"
						},
						{
							"indexed": true,
							"internalType": "address",
							"name": "to",
							"type": "address"
						},
						{
							"indexed": false,
							"internalType": "bool",
							"name": "_effectiveImmediately",
							"type": "bool"
						}
					],
					"name": "GovernorPushed",
					"type": "event"
				},
				{
					"anonymous": false,
					"inputs": [
						{
							"indexed": true,
							"internalType": "address",
							"name": "from",
							"type": "address"
						},
						{
							"indexed": true,
							"internalType": "address",
							"name": "to",
							"type": "address"
						}
					],
					"name": "GuardianPulled",
					"type": "event"
				},
				{
					"anonymous": false,
					"inputs": [
						{
							"indexed": true,
							"internalType": "address",
							"name": "from",
							"type": "address"
						},
						{
							"indexed": true,
							"internalType": "address",
							"name": "to",
							"type": "address"
						},
						{
							"indexed": false,
							"internalType": "bool",
							"name": "_effectiveImmediately",
							"type": "bool"
						}
					],
					"name": "GuardianPushed",
					"type": "event"
				},
				{
					"anonymous": false,
					"inputs": [
						{
							"indexed": true,
							"internalType": "address",
							"name": "from",
							"type": "address"
						},
						{
							"indexed": true,
							"internalType": "address",
							"name": "to",
							"type": "address"
						}
					],
					"name": "PolicyPulled",
					"type": "event"
				},
				{
					"anonymous": false,
					"inputs": [
						{
							"indexed": true,
							"internalType": "address",
							"name": "from",
							"type": "address"
						},
						{
							"indexed": true,
							"internalType": "address",
							"name": "to",
							"type": "address"
						},
						{
							"indexed": false,
							"internalType": "bool",
							"name": "_effectiveImmediately",
							"type": "bool"
						}
					],
					"name": "PolicyPushed",
					"type": "event"
				},
				{
					"anonymous": false,
					"inputs": [
						{
							"indexed": true,
							"internalType": "address",
							"name": "from",
							"type": "address"
						},
						{
							"indexed": true,
							"internalType": "address",
							"name": "to",
							"type": "address"
						}
					],
					"name": "VaultPulled",
					"type": "event"
				},
				{
					"anonymous": false,
					"inputs": [
						{
							"indexed": true,
							"internalType": "address",
							"name": "from",
							"type": "address"
						},
						{
							"indexed": true,
							"internalType": "address",
							"name": "to",
							"type": "address"
						},
						{
							"indexed": false,
							"internalType": "bool",
							"name": "_effectiveImmediately",
							"type": "bool"
						}
					],
					"name": "VaultPushed",
					"type": "event"
				},
				{
					"inputs": [],
					"name": "authority",
					"outputs": [
						{
							"internalType": "contract ISolidDaoManagement",
							"name": "",
							"type": "address"
						}
					],
					"stateMutability": "view",
					"type": "function"
				},
				{
					"inputs": [],
					"name": "governor",
					"outputs": [
						{
							"internalType": "address",
							"name": "",
							"type": "address"
						}
					],
					"stateMutability": "view",
					"type": "function"
				},
				{
					"inputs": [],
					"name": "guardian",
					"outputs": [
						{
							"internalType": "address",
							"name": "",
							"type": "address"
						}
					],
					"stateMutability": "view",
					"type": "function"
				},
				{
					"inputs": [],
					"name": "newGovernor",
					"outputs": [
						{
							"internalType": "address",
							"name": "",
							"type": "address"
						}
					],
					"stateMutability": "view",
					"type": "function"
				},
				{
					"inputs": [],
					"name": "newGuardian",
					"outputs": [
						{
							"internalType": "address",
							"name": "",
							"type": "address"
						}
					],
					"stateMutability": "view",
					"type": "function"
				},
				{
					"inputs": [],
					"name": "newPolicy",
					"outputs": [
						{
							"internalType": "address",
							"name": "",
							"type": "address"
						}
					],
					"stateMutability": "view",
					"type": "function"
				},
				{
					"inputs": [],
					"name": "newVault",
					"outputs": [
						{
							"internalType": "address",
							"name": "",
							"type": "address"
						}
					],
					"stateMutability": "view",
					"type": "function"
				},
				{
					"inputs": [],
					"name": "policy",
					"outputs": [
						{
							"internalType": "address",
							"name": "",
							"type": "address"
						}
					],
					"stateMutability": "view",
					"type": "function"
				},
				{
					"inputs": [],
					"name": "pullGovernor",
					"outputs": [],
					"stateMutability": "nonpayable",
					"type": "function"
				},
				{
					"inputs": [],
					"name": "pullGuardian",
					"outputs": [],
					"stateMutability": "nonpayable",
					"type": "function"
				},
				{
					"inputs": [],
					"name": "pullPolicy",
					"outputs": [],
					"stateMutability": "nonpayable",
					"type": "function"
				},
				{
					"inputs": [],
					"name": "pullVault",
					"outputs": [],
					"stateMutability": "nonpayable",
					"type": "function"
				},
				{
					"inputs": [
						{
							"internalType": "address",
							"name": "_newGovernor",
							"type": "address"
						},
						{
							"internalType": "bool",
							"name": "_effectiveImmediately",
							"type": "bool"
						}
					],
					"name": "pushGovernor",
					"outputs": [],
					"stateMutability": "nonpayable",
					"type": "function"
				},
				{
					"inputs": [
						{
							"internalType": "address",
							"name": "_newGuardian",
							"type": "address"
						},
						{
							"internalType": "bool",
							"name": "_effectiveImmediately",
							"type": "bool"
						}
					],
					"name": "pushGuardian",
					"outputs": [],
					"stateMutability": "nonpayable",
					"type": "function"
				},
				{
					"inputs": [
						{
							"internalType": "address",
							"name": "_newPolicy",
							"type": "address"
						},
						{
							"internalType": "bool",
							"name": "_effectiveImmediately",
							"type": "bool"
						}
					],
					"name": "pushPolicy",
					"outputs": [],
					"stateMutability": "nonpayable",
					"type": "function"
				},
				{
					"inputs": [
						{
							"internalType": "address",
							"name": "_newVault",
							"type": "address"
						},
						{
							"internalType": "bool",
							"name": "_effectiveImmediately",
							"type": "bool"
						}
					],
					"name": "pushVault",
					"outputs": [],
					"stateMutability": "nonpayable",
					"type": "function"
				},
				{
					"inputs": [
						{
							"internalType": "contract ISolidDaoManagement",
							"name": "_newAuthority",
							"type": "address"
						}
					],
					"name": "setAuthority",
					"outputs": [],
					"stateMutability": "nonpayable",
					"type": "function"
				},
				{
					"inputs": [],
					"name": "vault",
					"outputs": [
						{
							"internalType": "address",
							"name": "",
							"type": "address"
						}
					],
					"stateMutability": "view",
					"type": "function"
				}
			],
			"devdoc": {
				"author": "Solid World DAO",
				"kind": "dev",
				"methods": {
					"setAuthority(address)": {
						"details": "Emit AuthorityUpdated event",
						"params": {
							"_newAuthority": "Address of the new Solid Dao Management smart contract"
						}
					}
				},
				"title": "Solid Dao Management",
				"version": 1
			},
			"evm": {
				"assembly": "    /* \"lib/SolidDaoManaged.sol\":494:530  string UNAUTHORIZED = \"UNAUTHORIZED\" */\n  0xc0\n    /* \"SolidDaoManagement.sol\":293:2940  contract SolidDaoManagement is ISolidDaoManagement, SolidDaoManaged {... */\n  0x40\n    /* \"lib/SolidDaoManaged.sol\":494:530  string UNAUTHORIZED = \"UNAUTHORIZED\" */\n  mstore\n  0x0c\n    /* \"SolidDaoManagement.sol\":293:2940  contract SolidDaoManagement is ISolidDaoManagement, SolidDaoManaged {... */\n  0x80\n    /* \"lib/SolidDaoManaged.sol\":494:530  string UNAUTHORIZED = \"UNAUTHORIZED\" */\n  dup2\n  swap1\n  mstore\n  shl(0xa2, 0x15539055551213d492569151)\n  0xa0\n  swap1\n  dup2\n  mstore\n  tag_1\n  swap2\n  0x00\n  swap2\n  swap1\n  tag_2\n  jump\t// in\ntag_1:\n  pop\n    /* \"SolidDaoManagement.sol\":640:1150  constructor(... */\n  callvalue\n  dup1\n  iszero\n  tag_3\n  jumpi\n  0x00\n  dup1\n  revert\ntag_3:\n  pop\n  mload(0x40)\n  sub(codesize, bytecodeSize)\n  dup1\n  bytecodeSize\n  dup4\n  codecopy\n  dup2\n  add\n  0x40\n  dup2\n  swap1\n  mstore\n  tag_4\n  swap2\n  tag_5\n  jump\t// in\ntag_4:\n    /* \"lib/SolidDaoManaged.sol\":634:643  authority */\n  0x01\n    /* \"lib/SolidDaoManaged.sol\":634:656  authority = _authority */\n  dup1\n  sload\n  not(sub(shl(0xa0, 0x01), 0x01))\n  and\n    /* \"SolidDaoManagement.sol\":806:810  this */\n  address\n    /* \"lib/SolidDaoManaged.sol\":634:656  authority = _authority */\n  swap1\n  dup2\n  or\n  swap1\n  swap2\n  sstore\n    /* \"lib/SolidDaoManaged.sol\":671:699  AuthorityUpdated(_authority) */\n  mload(0x40)\n    /* \"SolidDaoManagement.sol\":806:810  this */\n  dup2\n  swap1\n    /* \"lib/SolidDaoManaged.sol\":671:699  AuthorityUpdated(_authority) */\n  0x2f658b440c35314f52658ea8a740e05b284cdc84dc9ae01e891f21b8933e7cad\n  swap1\n    /* \"lib/SolidDaoManaged.sol\":634:643  authority */\n  0x00\n  swap1\n    /* \"lib/SolidDaoManaged.sol\":671:699  AuthorityUpdated(_authority) */\n  log2\n  pop\n    /* \"SolidDaoManagement.sol\":825:833  governor */\n  0x02\n    /* \"SolidDaoManagement.sol\":825:845  governor = _governor */\n  dup1\n  sload\n  not(sub(shl(0xa0, 0x01), 0x01))\n  and\n  sub(shl(0xa0, 0x01), 0x01)\n  dup7\n  and\n  swap1\n  dup2\n  or\n  swap1\n  swap2\n  sstore\n    /* \"SolidDaoManagement.sol\":860:902  GovernorPushed(address(0), governor, true) */\n  mload(0x40)\n  0x01\n    /* \"#utility.yul\":805:846   */\n  dup2\n  mstore\n  0x00\n  swap1\n    /* \"SolidDaoManagement.sol\":860:902  GovernorPushed(address(0), governor, true) */\n  0x4f337dcbb2512f18373c1f72d990a2f0a6ee5024b04007c52afd01eb73374a89\n  swap1\n    /* \"#utility.yul\":793:795   */\n  0x20\n    /* \"#utility.yul\":778:796   */\n  add\n    /* \"SolidDaoManagement.sol\":860:902  GovernorPushed(address(0), governor, true) */\n  mload(0x40)\n  dup1\n  swap2\n  sub\n  swap1\n  log3\n    /* \"SolidDaoManagement.sol\":912:920  guardian */\n  0x03\n    /* \"SolidDaoManagement.sol\":912:932  guardian = _guardian */\n  dup1\n  sload\n  not(sub(shl(0xa0, 0x01), 0x01))\n  and\n  sub(shl(0xa0, 0x01), 0x01)\n  dup6\n  and\n  swap1\n  dup2\n  or\n  swap1\n  swap2\n  sstore\n    /* \"SolidDaoManagement.sol\":947:989  GuardianPushed(address(0), guardian, true) */\n  mload(0x40)\n  0x01\n    /* \"#utility.yul\":805:846   */\n  dup2\n  mstore\n  0x00\n  swap1\n    /* \"SolidDaoManagement.sol\":947:989  GuardianPushed(address(0), guardian, true) */\n  0xde655975891e8f09671597b37bd4d663bcc5c21dc6d7641b33cdf85fbe15d08b\n  swap1\n    /* \"#utility.yul\":793:795   */\n  0x20\n    /* \"#utility.yul\":778:796   */\n  add\n    /* \"SolidDaoManagement.sol\":947:989  GuardianPushed(address(0), guardian, true) */\n  mload(0x40)\n  dup1\n  swap2\n  sub\n  swap1\n  log3\n    /* \"SolidDaoManagement.sol\":999:1005  policy */\n  0x04\n    /* \"SolidDaoManagement.sol\":999:1015  policy = _policy */\n  dup1\n  sload\n  not(sub(shl(0xa0, 0x01), 0x01))\n  and\n  sub(shl(0xa0, 0x01), 0x01)\n  dup5\n  and\n  swap1\n  dup2\n  or\n  swap1\n  swap2\n  sstore\n    /* \"SolidDaoManagement.sol\":1030:1068  PolicyPushed(address(0), policy, true) */\n  mload(0x40)\n  0x01\n    /* \"#utility.yul\":805:846   */\n  dup2\n  mstore\n  0x00\n  swap1\n    /* \"SolidDaoManagement.sol\":1030:1068  PolicyPushed(address(0), policy, true) */\n  0x90a5902a45c24aae553d5aff384ca16d6560f08d74c9784a4fbd2796d9e13f2b\n  swap1\n    /* \"#utility.yul\":793:795   */\n  0x20\n    /* \"#utility.yul\":778:796   */\n  add\n    /* \"SolidDaoManagement.sol\":1030:1068  PolicyPushed(address(0), policy, true) */\n  mload(0x40)\n  dup1\n  swap2\n  sub\n  swap1\n  log3\n    /* \"SolidDaoManagement.sol\":1078:1083  vault */\n  0x05\n    /* \"SolidDaoManagement.sol\":1078:1092  vault = _vault */\n  dup1\n  sload\n  not(sub(shl(0xa0, 0x01), 0x01))\n  and\n  sub(shl(0xa0, 0x01), 0x01)\n  dup4\n  and\n  swap1\n  dup2\n  or\n  swap1\n  swap2\n  sstore\n    /* \"SolidDaoManagement.sol\":1107:1143  VaultPushed(address(0), vault, true) */\n  mload(0x40)\n  0x01\n    /* \"#utility.yul\":805:846   */\n  dup2\n  mstore\n  0x00\n  swap1\n    /* \"SolidDaoManagement.sol\":1107:1143  VaultPushed(address(0), vault, true) */\n  0x05a80f5053574d6a62733e1692e8cbcfaf927dc82df0a7267ea2e489a7cc18ff\n  swap1\n    /* \"#utility.yul\":793:795   */\n  0x20\n    /* \"#utility.yul\":778:796   */\n  add\n    /* \"SolidDaoManagement.sol\":1107:1143  VaultPushed(address(0), vault, true) */\n  mload(0x40)\n  dup1\n  swap2\n  sub\n  swap1\n  log3\n    /* \"SolidDaoManagement.sol\":640:1150  constructor(... */\n  pop\n  pop\n  pop\n  pop\n    /* \"SolidDaoManagement.sol\":293:2940  contract SolidDaoManagement is ISolidDaoManagement, SolidDaoManaged {... */\n  jump(tag_28)\ntag_2:\n  dup3\n  dup1\n  sload\n  tag_16\n  swap1\n  tag_17\n  jump\t// in\ntag_16:\n  swap1\n  0x00\n  mstore\n  keccak256(0x00, 0x20)\n  swap1\n  0x1f\n  add\n  0x20\n  swap1\n  div\n  dup2\n  add\n  swap3\n  dup3\n  tag_19\n  jumpi\n  0x00\n  dup6\n  sstore\n  jump(tag_22)\ntag_19:\n  dup3\n  0x1f\n  lt\n  tag_20\n  jumpi\n  dup1\n  mload\n  not(0xff)\n  and\n  dup4\n  dup1\n  add\n  or\n  dup6\n  sstore\n  jump(tag_22)\ntag_20:\n  dup3\n  dup1\n  add\n  0x01\n  add\n  dup6\n  sstore\n  dup3\n  iszero\n  tag_22\n  jumpi\n  swap2\n  dup3\n  add\ntag_21:\n  dup3\n  dup2\n  gt\n  iszero\n  tag_22\n  jumpi\n  dup3\n  mload\n  dup3\n  sstore\n  swap2\n  0x20\n  add\n  swap2\n  swap1\n  0x01\n  add\n  swap1\n  jump(tag_21)\ntag_22:\n  pop\n  tag_23\n  swap3\n  swap2\n  pop\n  tag_24\n  jump\t// in\ntag_23:\n  pop\n  swap1\n  jump\t// out\ntag_24:\ntag_25:\n  dup1\n  dup3\n  gt\n  iszero\n  tag_23\n  jumpi\n  0x00\n  dup2\n  sstore\n  0x01\n  add\n  jump(tag_25)\n    /* \"#utility.yul\":14:191   */\ntag_27:\n    /* \"#utility.yul\":93:106   */\n  dup1\n  mload\n  sub(shl(0xa0, 0x01), 0x01)\n    /* \"#utility.yul\":135:166   */\n  dup2\n  and\n    /* \"#utility.yul\":125:167   */\n  dup2\n  eq\n    /* \"#utility.yul\":115:185   */\n  tag_30\n  jumpi\n    /* \"#utility.yul\":181:182   */\n  0x00\n    /* \"#utility.yul\":178:179   */\n  dup1\n    /* \"#utility.yul\":171:183   */\n  revert\n    /* \"#utility.yul\":115:185   */\ntag_30:\n    /* \"#utility.yul\":14:191   */\n  swap2\n  swap1\n  pop\n  jump\t// out\n    /* \"#utility.yul\":196:660   */\ntag_5:\n    /* \"#utility.yul\":293:299   */\n  0x00\n    /* \"#utility.yul\":301:307   */\n  dup1\n    /* \"#utility.yul\":309:315   */\n  0x00\n    /* \"#utility.yul\":317:323   */\n  dup1\n    /* \"#utility.yul\":370:373   */\n  0x80\n    /* \"#utility.yul\":358:367   */\n  dup6\n    /* \"#utility.yul\":349:356   */\n  dup8\n    /* \"#utility.yul\":345:368   */\n  sub\n    /* \"#utility.yul\":341:374   */\n  slt\n    /* \"#utility.yul\":338:391   */\n  iszero\n  tag_32\n  jumpi\n    /* \"#utility.yul\":387:388   */\n  0x00\n    /* \"#utility.yul\":384:385   */\n  dup1\n    /* \"#utility.yul\":377:389   */\n  revert\n    /* \"#utility.yul\":338:391   */\ntag_32:\n    /* \"#utility.yul\":410:450   */\n  tag_33\n    /* \"#utility.yul\":440:449   */\n  dup6\n    /* \"#utility.yul\":410:450   */\n  tag_27\n  jump\t// in\ntag_33:\n    /* \"#utility.yul\":400:450   */\n  swap4\n  pop\n    /* \"#utility.yul\":469:518   */\n  tag_34\n    /* \"#utility.yul\":514:516   */\n  0x20\n    /* \"#utility.yul\":503:512   */\n  dup7\n    /* \"#utility.yul\":499:517   */\n  add\n    /* \"#utility.yul\":469:518   */\n  tag_27\n  jump\t// in\ntag_34:\n    /* \"#utility.yul\":459:518   */\n  swap3\n  pop\n    /* \"#utility.yul\":537:586   */\n  tag_35\n    /* \"#utility.yul\":582:584   */\n  0x40\n    /* \"#utility.yul\":571:580   */\n  dup7\n    /* \"#utility.yul\":567:585   */\n  add\n    /* \"#utility.yul\":537:586   */\n  tag_27\n  jump\t// in\ntag_35:\n    /* \"#utility.yul\":527:586   */\n  swap2\n  pop\n    /* \"#utility.yul\":605:654   */\n  tag_36\n    /* \"#utility.yul\":650:652   */\n  0x60\n    /* \"#utility.yul\":639:648   */\n  dup7\n    /* \"#utility.yul\":635:653   */\n  add\n    /* \"#utility.yul\":605:654   */\n  tag_27\n  jump\t// in\ntag_36:\n    /* \"#utility.yul\":595:654   */\n  swap1\n  pop\n    /* \"#utility.yul\":196:660   */\n  swap3\n  swap6\n  swap2\n  swap5\n  pop\n  swap3\n  pop\n  jump\t// out\n    /* \"#utility.yul\":857:1237   */\ntag_17:\n    /* \"#utility.yul\":936:937   */\n  0x01\n    /* \"#utility.yul\":932:944   */\n  dup2\n  dup2\n  shr\n  swap1\n    /* \"#utility.yul\":979:991   */\n  dup3\n  and\n  dup1\n    /* \"#utility.yul\":1000:1061   */\n  tag_39\n  jumpi\n    /* \"#utility.yul\":1054:1058   */\n  0x7f\n    /* \"#utility.yul\":1046:1052   */\n  dup3\n    /* \"#utility.yul\":1042:1059   */\n  and\n    /* \"#utility.yul\":1032:1059   */\n  swap2\n  pop\n    /* \"#utility.yul\":1000:1061   */\ntag_39:\n    /* \"#utility.yul\":1107:1109   */\n  0x20\n    /* \"#utility.yul\":1099:1105   */\n  dup3\n    /* \"#utility.yul\":1096:1110   */\n  lt\n    /* \"#utility.yul\":1076:1094   */\n  dup2\n    /* \"#utility.yul\":1073:1111   */\n  sub\n    /* \"#utility.yul\":1070:1231   */\n  tag_40\n  jumpi\n    /* \"#utility.yul\":1153:1163   */\n  0x4e487b71\n    /* \"#utility.yul\":1148:1151   */\n  0xe0\n    /* \"#utility.yul\":1144:1164   */\n  shl\n    /* \"#utility.yul\":1141:1142   */\n  0x00\n    /* \"#utility.yul\":1134:1165   */\n  mstore\n    /* \"#utility.yul\":1188:1192   */\n  0x22\n    /* \"#utility.yul\":1185:1186   */\n  0x04\n    /* \"#utility.yul\":1178:1193   */\n  mstore\n    /* \"#utility.yul\":1216:1220   */\n  0x24\n    /* \"#utility.yul\":1213:1214   */\n  0x00\n    /* \"#utility.yul\":1206:1221   */\n  revert\n    /* \"#utility.yul\":1070:1231   */\ntag_40:\n  pop\n    /* \"#utility.yul\":857:1237   */\n  swap2\n  swap1\n  pop\n  jump\t// out\ntag_28:\n    /* \"SolidDaoManagement.sol\":293:2940  contract SolidDaoManagement is ISolidDaoManagement, SolidDaoManaged {... */\n  dataSize(sub_0)\n  dup1\n  dataOffset(sub_0)\n  0x00\n  codecopy\n  0x00\n  return\nstop\n\nsub_0: assembly {\n        /* \"SolidDaoManagement.sol\":293:2940  contract SolidDaoManagement is ISolidDaoManagement, SolidDaoManaged {... */\n      mstore(0x40, 0x80)\n      callvalue\n      dup1\n      iszero\n      tag_1\n      jumpi\n      0x00\n      dup1\n      revert\n    tag_1:\n      pop\n      jumpi(tag_2, lt(calldatasize, 0x04))\n      shr(0xe0, calldataload(0x00))\n      dup1\n      0x5beede08\n      gt\n      tag_21\n      jumpi\n      dup1\n      0x8fd20577\n      gt\n      tag_22\n      jumpi\n      dup1\n      0x8fd20577\n      eq\n      tag_16\n      jumpi\n      dup1\n      0xbe11f1dd\n      eq\n      tag_17\n      jumpi\n      dup1\n      0xbf7e214f\n      eq\n      tag_18\n      jumpi\n      dup1\n      0xd8a04212\n      eq\n      tag_19\n      jumpi\n      dup1\n      0xfbfa77cf\n      eq\n      tag_20\n      jumpi\n      0x00\n      dup1\n      revert\n    tag_22:\n      dup1\n      0x5beede08\n      eq\n      tag_12\n      jumpi\n      dup1\n      0x6fe72c14\n      eq\n      tag_13\n      jumpi\n      dup1\n      0x7a9e5e4b\n      eq\n      tag_14\n      jumpi\n      dup1\n      0x88aaf0c8\n      eq\n      tag_15\n      jumpi\n      0x00\n      dup1\n      revert\n    tag_21:\n      dup1\n      0x215e92bc\n      gt\n      tag_23\n      jumpi\n      dup1\n      0x215e92bc\n      eq\n      tag_7\n      jumpi\n      dup1\n      0x3bf90c28\n      eq\n      tag_8\n      jumpi\n      dup1\n      0x452a9320\n      eq\n      tag_9\n      jumpi\n      dup1\n      0x52759694\n      eq\n      tag_10\n      jumpi\n      dup1\n      0x54e3d703\n      eq\n      tag_11\n      jumpi\n      0x00\n      dup1\n      revert\n    tag_23:\n      dup1\n      0x0505c8c9\n      eq\n      tag_3\n      jumpi\n      dup1\n      0x0c340a24\n      eq\n      tag_4\n      jumpi\n      dup1\n      0x19859847\n      eq\n      tag_5\n      jumpi\n      dup1\n      0x1afe8714\n      eq\n      tag_6\n      jumpi\n    tag_2:\n      0x00\n      dup1\n      revert\n        /* \"SolidDaoManagement.sol\":444:474  address public override policy */\n    tag_3:\n      sload(0x04)\n      tag_24\n      swap1\n      sub(shl(0xa0, 0x01), 0x01)\n      and\n      dup2\n      jump\n    tag_24:\n      mload(0x40)\n      sub(shl(0xa0, 0x01), 0x01)\n        /* \"#utility.yul\":178:210   */\n      swap1\n      swap2\n      and\n        /* \"#utility.yul\":160:211   */\n      dup2\n      mstore\n        /* \"#utility.yul\":148:150   */\n      0x20\n        /* \"#utility.yul\":133:151   */\n      add\n        /* \"SolidDaoManagement.sol\":444:474  address public override policy */\n      mload(0x40)\n      dup1\n      swap2\n      sub\n      swap1\n      return\n        /* \"SolidDaoManagement.sol\":368:400  address public override governor */\n    tag_4:\n      sload(0x02)\n      tag_24\n      swap1\n      sub(shl(0xa0, 0x01), 0x01)\n      and\n      dup2\n      jump\n        /* \"SolidDaoManagement.sol\":548:574  address public newGuardian */\n    tag_5:\n      sload(0x07)\n      tag_24\n      swap1\n      sub(shl(0xa0, 0x01), 0x01)\n      and\n      dup2\n      jump\n        /* \"SolidDaoManagement.sol\":1435:1708  function pushGuardian(address _newGuardian, bool _effectiveImmediately) external onlyGovernor {... */\n    tag_6:\n      tag_34\n      tag_35\n      calldatasize\n      0x04\n      tag_36\n      jump\t// in\n    tag_35:\n      tag_37\n      jump\t// in\n    tag_34:\n      stop\n        /* \"SolidDaoManagement.sol\":2778:2938  function pullVault() external {... */\n    tag_7:\n      tag_34\n      tag_39\n      jump\t// in\n        /* \"SolidDaoManagement.sol\":580:604  address public newPolicy */\n    tag_8:\n      sload(0x08)\n      tag_24\n      swap1\n      sub(shl(0xa0, 0x01), 0x01)\n      and\n      dup2\n      jump\n        /* \"SolidDaoManagement.sol\":406:438  address public override guardian */\n    tag_9:\n      sload(0x03)\n      tag_24\n      swap1\n      sub(shl(0xa0, 0x01), 0x01)\n      and\n      dup2\n      jump\n        /* \"SolidDaoManagement.sol\":1156:1429  function pushGovernor(address _newGovernor, bool _effectiveImmediately) external onlyGovernor {... */\n    tag_10:\n      tag_34\n      tag_47\n      calldatasize\n      0x04\n      tag_36\n      jump\t// in\n    tag_47:\n      tag_48\n      jump\t// in\n        /* \"SolidDaoManagement.sol\":1714:1969  function pushPolicy(address _newPolicy, bool _effectiveImmediately) external onlyGovernor {... */\n    tag_11:\n      tag_34\n      tag_50\n      calldatasize\n      0x04\n      tag_36\n      jump\t// in\n    tag_50:\n      tag_51\n      jump\t// in\n        /* \"SolidDaoManagement.sol\":2604:2772  function pullPolicy() external {... */\n    tag_12:\n      tag_34\n      tag_53\n      jump\t// in\n        /* \"SolidDaoManagement.sol\":1975:2221  function pushVault(address _newVault, bool _effectiveImmediately) external onlyGovernor {... */\n    tag_13:\n      tag_34\n      tag_55\n      calldatasize\n      0x04\n      tag_36\n      jump\t// in\n    tag_55:\n      tag_56\n      jump\t// in\n        /* \"lib/SolidDaoManaged.sol\":2055:2222  function setAuthority(ISolidDaoManagement _newAuthority) external onlyGovernor {... */\n    tag_14:\n      tag_34\n      tag_58\n      calldatasize\n      0x04\n      tag_59\n      jump\t// in\n    tag_58:\n      tag_60\n      jump\t// in\n        /* \"SolidDaoManagement.sol\":610:633  address public newVault */\n    tag_15:\n      sload(0x09)\n      tag_24\n      swap1\n      sub(shl(0xa0, 0x01), 0x01)\n      and\n      dup2\n      jump\n        /* \"SolidDaoManagement.sol\":516:542  address public newGovernor */\n    tag_16:\n      sload(0x06)\n      tag_24\n      swap1\n      sub(shl(0xa0, 0x01), 0x01)\n      and\n      dup2\n      jump\n        /* \"SolidDaoManagement.sol\":2417:2598  function pullGuardian() external {... */\n    tag_17:\n      tag_34\n      tag_68\n      jump\t// in\n        /* \"lib/SolidDaoManaged.sol\":537:573  ISolidDaoManagement public authority */\n    tag_18:\n      sload(0x01)\n      tag_24\n      swap1\n      sub(shl(0xa0, 0x01), 0x01)\n      and\n      dup2\n      jump\n        /* \"SolidDaoManagement.sol\":2227:2411  function pullGovernor() external {... */\n    tag_19:\n      tag_34\n      tag_74\n      jump\t// in\n        /* \"SolidDaoManagement.sol\":480:509  address public override vault */\n    tag_20:\n      sload(0x05)\n      tag_24\n      swap1\n      sub(shl(0xa0, 0x01), 0x01)\n      and\n      dup2\n      jump\n        /* \"SolidDaoManagement.sol\":1435:1708  function pushGuardian(address _newGuardian, bool _effectiveImmediately) external onlyGovernor {... */\n    tag_37:\n        /* \"lib/SolidDaoManaged.sol\":938:947  authority */\n      0x01\n      0x00\n      swap1\n      sload\n      swap1\n      0x0100\n      exp\n      swap1\n      div\n      sub(shl(0xa0, 0x01), 0x01)\n      and\n      sub(shl(0xa0, 0x01), 0x01)\n        /* \"lib/SolidDaoManaged.sol\":938:956  authority.governor */\n      and\n      0x0c340a24\n        /* \"lib/SolidDaoManaged.sol\":938:958  authority.governor() */\n      mload(0x40)\n      dup2\n      0xffffffff\n      and\n      0xe0\n      shl\n      dup2\n      mstore\n      0x04\n      add\n      0x20\n      mload(0x40)\n      dup1\n      dup4\n      sub\n      dup2\n      dup7\n      gas\n      staticcall\n      iszero\n      dup1\n      iszero\n      tag_80\n      jumpi\n      returndatasize\n      0x00\n      dup1\n      returndatacopy\n      revert(0x00, returndatasize)\n    tag_80:\n      pop\n      pop\n      pop\n      pop\n      mload(0x40)\n      returndatasize\n      not(0x1f)\n      0x1f\n      dup3\n      add\n      and\n      dup3\n      add\n      dup1\n      0x40\n      mstore\n      pop\n      dup2\n      add\n      swap1\n      tag_81\n      swap2\n      swap1\n      tag_82\n      jump\t// in\n    tag_81:\n      sub(shl(0xa0, 0x01), 0x01)\n        /* \"lib/SolidDaoManaged.sol\":924:958  msg.sender == authority.governor() */\n      and\n        /* \"lib/SolidDaoManaged.sol\":924:934  msg.sender */\n      caller\n      sub(shl(0xa0, 0x01), 0x01)\n        /* \"lib/SolidDaoManaged.sol\":924:958  msg.sender == authority.governor() */\n      and\n      eq\n        /* \"lib/SolidDaoManaged.sol\":960:972  UNAUTHORIZED */\n      0x00\n        /* \"lib/SolidDaoManaged.sol\":916:973  require(msg.sender == authority.governor(), UNAUTHORIZED) */\n      swap1\n      tag_83\n      jumpi\n      mload(0x40)\n      shl(0xe5, 0x461bcd)\n      dup2\n      mstore\n      0x04\n      add\n      tag_84\n      swap2\n      swap1\n      tag_85\n      jump\t// in\n    tag_84:\n      mload(0x40)\n      dup1\n      swap2\n      sub\n      swap1\n      revert\n    tag_83:\n      pop\n        /* \"SolidDaoManagement.sol\":1543:1564  _effectiveImmediately */\n      dup1\n        /* \"SolidDaoManagement.sol\":1539:1590  if( _effectiveImmediately ) guardian = _newGuardian */\n      iszero\n      tag_87\n      jumpi\n        /* \"SolidDaoManagement.sol\":1567:1575  guardian */\n      0x03\n        /* \"SolidDaoManagement.sol\":1567:1590  guardian = _newGuardian */\n      dup1\n      sload\n      not(sub(shl(0xa0, 0x01), 0x01))\n      and\n      sub(shl(0xa0, 0x01), 0x01)\n      dup5\n      and\n      or\n      swap1\n      sstore\n        /* \"SolidDaoManagement.sol\":1539:1590  if( _effectiveImmediately ) guardian = _newGuardian */\n    tag_87:\n        /* \"SolidDaoManagement.sol\":1600:1611  newGuardian */\n      0x07\n        /* \"SolidDaoManagement.sol\":1600:1626  newGuardian = _newGuardian */\n      dup1\n      sload\n      not(sub(shl(0xa0, 0x01), 0x01))\n      and\n      sub(shl(0xa0, 0x01), 0x01)\n      dup5\n      dup2\n      and\n      swap2\n      dup3\n      or\n      swap1\n      swap3\n      sstore\n        /* \"SolidDaoManagement.sol\":1656:1664  guardian */\n      sload(0x03)\n        /* \"SolidDaoManagement.sol\":1641:1701  GuardianPushed(guardian, newGuardian, _effectiveImmediately) */\n      mload(0x40)\n        /* \"#utility.yul\":3186:3200   */\n      dup5\n      iszero\n        /* \"#utility.yul\":3179:3201   */\n      iszero\n        /* \"#utility.yul\":3161:3202   */\n      dup2\n      mstore\n        /* \"SolidDaoManagement.sol\":1600:1626  newGuardian = _newGuardian */\n      swap2\n      swap3\n        /* \"SolidDaoManagement.sol\":1656:1664  guardian */\n      and\n      swap1\n        /* \"SolidDaoManagement.sol\":1641:1701  GuardianPushed(guardian, newGuardian, _effectiveImmediately) */\n      0xde655975891e8f09671597b37bd4d663bcc5c21dc6d7641b33cdf85fbe15d08b\n      swap1\n        /* \"#utility.yul\":3149:3151   */\n      0x20\n        /* \"#utility.yul\":3134:3152   */\n      add\n        /* \"SolidDaoManagement.sol\":1641:1701  GuardianPushed(guardian, newGuardian, _effectiveImmediately) */\n    tag_88:\n      mload(0x40)\n      dup1\n      swap2\n      sub\n      swap1\n      log3\n        /* \"SolidDaoManagement.sol\":1435:1708  function pushGuardian(address _newGuardian, bool _effectiveImmediately) external onlyGovernor {... */\n      pop\n      pop\n      jump\t// out\n        /* \"SolidDaoManagement.sol\":2778:2938  function pullVault() external {... */\n    tag_39:\n        /* \"SolidDaoManagement.sol\":2840:2848  newVault */\n      and(sub(shl(0xa0, 0x01), 0x01), sload(0x09))\n        /* \"SolidDaoManagement.sol\":2826:2836  msg.sender */\n      caller\n        /* \"SolidDaoManagement.sol\":2826:2848  msg.sender == newVault */\n      eq\n        /* \"SolidDaoManagement.sol\":2818:2862  require(msg.sender == newVault, \"!newVault\") */\n      tag_91\n      jumpi\n      mload(0x40)\n      shl(0xe5, 0x461bcd)\n      dup2\n      mstore\n        /* \"#utility.yul\":3415:3417   */\n      0x20\n        /* \"SolidDaoManagement.sol\":2818:2862  require(msg.sender == newVault, \"!newVault\") */\n      0x04\n      dup3\n      add\n        /* \"#utility.yul\":3397:3418   */\n      mstore\n        /* \"#utility.yul\":3454:3455   */\n      0x09\n        /* \"#utility.yul\":3434:3452   */\n      0x24\n      dup3\n      add\n        /* \"#utility.yul\":3427:3456   */\n      mstore\n      shl(0xba, 0x085b995dd5985d5b1d)\n        /* \"#utility.yul\":3472:3490   */\n      0x44\n      dup3\n      add\n        /* \"#utility.yul\":3465:3504   */\n      mstore\n        /* \"#utility.yul\":3521:3539   */\n      0x64\n      add\n        /* \"SolidDaoManagement.sol\":2818:2862  require(msg.sender == newVault, \"!newVault\") */\n      tag_84\n        /* \"#utility.yul\":3213:3545   */\n      jump\n        /* \"SolidDaoManagement.sol\":2818:2862  require(msg.sender == newVault, \"!newVault\") */\n    tag_91:\n        /* \"SolidDaoManagement.sol\":2896:2904  newVault */\n      sload(0x09)\n        /* \"SolidDaoManagement.sol\":2889:2894  vault */\n      sload(0x05)\n        /* \"SolidDaoManagement.sol\":2877:2905  VaultPulled(vault, newVault) */\n      mload(0x40)\n      sub(shl(0xa0, 0x01), 0x01)\n        /* \"SolidDaoManagement.sol\":2896:2904  newVault */\n      swap3\n      dup4\n      and\n      swap3\n        /* \"SolidDaoManagement.sol\":2889:2894  vault */\n      swap1\n      swap2\n      and\n      swap1\n        /* \"SolidDaoManagement.sol\":2877:2905  VaultPulled(vault, newVault) */\n      0x3d08e01e3b8340be6ca709db7a9321448661a1f490da4d7f3eb03d84fe730953\n      swap1\n        /* \"SolidDaoManagement.sol\":2896:2904  newVault */\n      0x00\n      swap1\n        /* \"SolidDaoManagement.sol\":2877:2905  VaultPulled(vault, newVault) */\n      log3\n        /* \"SolidDaoManagement.sol\":2923:2931  newVault */\n      sload(0x09)\n        /* \"SolidDaoManagement.sol\":2915:2920  vault */\n      0x05\n        /* \"SolidDaoManagement.sol\":2915:2931  vault = newVault */\n      dup1\n      sload\n      not(sub(shl(0xa0, 0x01), 0x01))\n      and\n      sub(shl(0xa0, 0x01), 0x01)\n        /* \"SolidDaoManagement.sol\":2923:2931  newVault */\n      swap1\n      swap3\n      and\n        /* \"SolidDaoManagement.sol\":2915:2931  vault = newVault */\n      swap2\n      swap1\n      swap2\n      or\n      swap1\n      sstore\n        /* \"SolidDaoManagement.sol\":2778:2938  function pullVault() external {... */\n      jump\t// out\n        /* \"SolidDaoManagement.sol\":1156:1429  function pushGovernor(address _newGovernor, bool _effectiveImmediately) external onlyGovernor {... */\n    tag_48:\n        /* \"lib/SolidDaoManaged.sol\":938:947  authority */\n      0x01\n      0x00\n      swap1\n      sload\n      swap1\n      0x0100\n      exp\n      swap1\n      div\n      sub(shl(0xa0, 0x01), 0x01)\n      and\n      sub(shl(0xa0, 0x01), 0x01)\n        /* \"lib/SolidDaoManaged.sol\":938:956  authority.governor */\n      and\n      0x0c340a24\n        /* \"lib/SolidDaoManaged.sol\":938:958  authority.governor() */\n      mload(0x40)\n      dup2\n      0xffffffff\n      and\n      0xe0\n      shl\n      dup2\n      mstore\n      0x04\n      add\n      0x20\n      mload(0x40)\n      dup1\n      dup4\n      sub\n      dup2\n      dup7\n      gas\n      staticcall\n      iszero\n      dup1\n      iszero\n      tag_96\n      jumpi\n      returndatasize\n      0x00\n      dup1\n      returndatacopy\n      revert(0x00, returndatasize)\n    tag_96:\n      pop\n      pop\n      pop\n      pop\n      mload(0x40)\n      returndatasize\n      not(0x1f)\n      0x1f\n      dup3\n      add\n      and\n      dup3\n      add\n      dup1\n      0x40\n      mstore\n      pop\n      dup2\n      add\n      swap1\n      tag_97\n      swap2\n      swap1\n      tag_82\n      jump\t// in\n    tag_97:\n      sub(shl(0xa0, 0x01), 0x01)\n        /* \"lib/SolidDaoManaged.sol\":924:958  msg.sender == authority.governor() */\n      and\n        /* \"lib/SolidDaoManaged.sol\":924:934  msg.sender */\n      caller\n      sub(shl(0xa0, 0x01), 0x01)\n        /* \"lib/SolidDaoManaged.sol\":924:958  msg.sender == authority.governor() */\n      and\n      eq\n        /* \"lib/SolidDaoManaged.sol\":960:972  UNAUTHORIZED */\n      0x00\n        /* \"lib/SolidDaoManaged.sol\":916:973  require(msg.sender == authority.governor(), UNAUTHORIZED) */\n      swap1\n      tag_98\n      jumpi\n      mload(0x40)\n      shl(0xe5, 0x461bcd)\n      dup2\n      mstore\n      0x04\n      add\n      tag_84\n      swap2\n      swap1\n      tag_85\n      jump\t// in\n    tag_98:\n      pop\n        /* \"SolidDaoManagement.sol\":1264:1285  _effectiveImmediately */\n      dup1\n        /* \"SolidDaoManagement.sol\":1260:1311  if( _effectiveImmediately ) governor = _newGovernor */\n      iszero\n      tag_101\n      jumpi\n        /* \"SolidDaoManagement.sol\":1288:1296  governor */\n      0x02\n        /* \"SolidDaoManagement.sol\":1288:1311  governor = _newGovernor */\n      dup1\n      sload\n      not(sub(shl(0xa0, 0x01), 0x01))\n      and\n      sub(shl(0xa0, 0x01), 0x01)\n      dup5\n      and\n      or\n      swap1\n      sstore\n        /* \"SolidDaoManagement.sol\":1260:1311  if( _effectiveImmediately ) governor = _newGovernor */\n    tag_101:\n        /* \"SolidDaoManagement.sol\":1321:1332  newGovernor */\n      0x06\n        /* \"SolidDaoManagement.sol\":1321:1347  newGovernor = _newGovernor */\n      dup1\n      sload\n      not(sub(shl(0xa0, 0x01), 0x01))\n      and\n      sub(shl(0xa0, 0x01), 0x01)\n      dup5\n      dup2\n      and\n      swap2\n      dup3\n      or\n      swap1\n      swap3\n      sstore\n        /* \"SolidDaoManagement.sol\":1377:1385  governor */\n      sload(0x02)\n        /* \"SolidDaoManagement.sol\":1362:1422  GovernorPushed(governor, newGovernor, _effectiveImmediately) */\n      mload(0x40)\n        /* \"#utility.yul\":3186:3200   */\n      dup5\n      iszero\n        /* \"#utility.yul\":3179:3201   */\n      iszero\n        /* \"#utility.yul\":3161:3202   */\n      dup2\n      mstore\n        /* \"SolidDaoManagement.sol\":1321:1347  newGovernor = _newGovernor */\n      swap2\n      swap3\n        /* \"SolidDaoManagement.sol\":1377:1385  governor */\n      and\n      swap1\n        /* \"SolidDaoManagement.sol\":1362:1422  GovernorPushed(governor, newGovernor, _effectiveImmediately) */\n      0x4f337dcbb2512f18373c1f72d990a2f0a6ee5024b04007c52afd01eb73374a89\n      swap1\n        /* \"#utility.yul\":3149:3151   */\n      0x20\n        /* \"#utility.yul\":3134:3152   */\n      add\n        /* \"SolidDaoManagement.sol\":1362:1422  GovernorPushed(governor, newGovernor, _effectiveImmediately) */\n      tag_88\n        /* \"#utility.yul\":3021:3208   */\n      jump\n        /* \"SolidDaoManagement.sol\":1714:1969  function pushPolicy(address _newPolicy, bool _effectiveImmediately) external onlyGovernor {... */\n    tag_51:\n        /* \"lib/SolidDaoManaged.sol\":938:947  authority */\n      0x01\n      0x00\n      swap1\n      sload\n      swap1\n      0x0100\n      exp\n      swap1\n      div\n      sub(shl(0xa0, 0x01), 0x01)\n      and\n      sub(shl(0xa0, 0x01), 0x01)\n        /* \"lib/SolidDaoManaged.sol\":938:956  authority.governor */\n      and\n      0x0c340a24\n        /* \"lib/SolidDaoManaged.sol\":938:958  authority.governor() */\n      mload(0x40)\n      dup2\n      0xffffffff\n      and\n      0xe0\n      shl\n      dup2\n      mstore\n      0x04\n      add\n      0x20\n      mload(0x40)\n      dup1\n      dup4\n      sub\n      dup2\n      dup7\n      gas\n      staticcall\n      iszero\n      dup1\n      iszero\n      tag_105\n      jumpi\n      returndatasize\n      0x00\n      dup1\n      returndatacopy\n      revert(0x00, returndatasize)\n    tag_105:\n      pop\n      pop\n      pop\n      pop\n      mload(0x40)\n      returndatasize\n      not(0x1f)\n      0x1f\n      dup3\n      add\n      and\n      dup3\n      add\n      dup1\n      0x40\n      mstore\n      pop\n      dup2\n      add\n      swap1\n      tag_106\n      swap2\n      swap1\n      tag_82\n      jump\t// in\n    tag_106:\n      sub(shl(0xa0, 0x01), 0x01)\n        /* \"lib/SolidDaoManaged.sol\":924:958  msg.sender == authority.governor() */\n      and\n        /* \"lib/SolidDaoManaged.sol\":924:934  msg.sender */\n      caller\n      sub(shl(0xa0, 0x01), 0x01)\n        /* \"lib/SolidDaoManaged.sol\":924:958  msg.sender == authority.governor() */\n      and\n      eq\n        /* \"lib/SolidDaoManaged.sol\":960:972  UNAUTHORIZED */\n      0x00\n        /* \"lib/SolidDaoManaged.sol\":916:973  require(msg.sender == authority.governor(), UNAUTHORIZED) */\n      swap1\n      tag_107\n      jumpi\n      mload(0x40)\n      shl(0xe5, 0x461bcd)\n      dup2\n      mstore\n      0x04\n      add\n      tag_84\n      swap2\n      swap1\n      tag_85\n      jump\t// in\n    tag_107:\n      pop\n        /* \"SolidDaoManagement.sol\":1818:1839  _effectiveImmediately */\n      dup1\n        /* \"SolidDaoManagement.sol\":1814:1861  if( _effectiveImmediately ) policy = _newPolicy */\n      iszero\n      tag_110\n      jumpi\n        /* \"SolidDaoManagement.sol\":1842:1848  policy */\n      0x04\n        /* \"SolidDaoManagement.sol\":1842:1861  policy = _newPolicy */\n      dup1\n      sload\n      not(sub(shl(0xa0, 0x01), 0x01))\n      and\n      sub(shl(0xa0, 0x01), 0x01)\n      dup5\n      and\n      or\n      swap1\n      sstore\n        /* \"SolidDaoManagement.sol\":1814:1861  if( _effectiveImmediately ) policy = _newPolicy */\n    tag_110:\n        /* \"SolidDaoManagement.sol\":1871:1880  newPolicy */\n      0x08\n        /* \"SolidDaoManagement.sol\":1871:1893  newPolicy = _newPolicy */\n      dup1\n      sload\n      not(sub(shl(0xa0, 0x01), 0x01))\n      and\n      sub(shl(0xa0, 0x01), 0x01)\n      dup5\n      dup2\n      and\n      swap2\n      dup3\n      or\n      swap1\n      swap3\n      sstore\n        /* \"SolidDaoManagement.sol\":1921:1927  policy */\n      sload(0x04)\n        /* \"SolidDaoManagement.sol\":1908:1962  PolicyPushed(policy, newPolicy, _effectiveImmediately) */\n      mload(0x40)\n        /* \"#utility.yul\":3186:3200   */\n      dup5\n      iszero\n        /* \"#utility.yul\":3179:3201   */\n      iszero\n        /* \"#utility.yul\":3161:3202   */\n      dup2\n      mstore\n        /* \"SolidDaoManagement.sol\":1871:1893  newPolicy = _newPolicy */\n      swap2\n      swap3\n        /* \"SolidDaoManagement.sol\":1921:1927  policy */\n      and\n      swap1\n        /* \"SolidDaoManagement.sol\":1908:1962  PolicyPushed(policy, newPolicy, _effectiveImmediately) */\n      0x90a5902a45c24aae553d5aff384ca16d6560f08d74c9784a4fbd2796d9e13f2b\n      swap1\n        /* \"#utility.yul\":3149:3151   */\n      0x20\n        /* \"#utility.yul\":3134:3152   */\n      add\n        /* \"SolidDaoManagement.sol\":1908:1962  PolicyPushed(policy, newPolicy, _effectiveImmediately) */\n      tag_88\n        /* \"#utility.yul\":3021:3208   */\n      jump\n        /* \"SolidDaoManagement.sol\":2604:2772  function pullPolicy() external {... */\n    tag_53:\n        /* \"SolidDaoManagement.sol\":2667:2676  newPolicy */\n      and(sub(shl(0xa0, 0x01), 0x01), sload(0x08))\n        /* \"SolidDaoManagement.sol\":2653:2663  msg.sender */\n      caller\n        /* \"SolidDaoManagement.sol\":2653:2676  msg.sender == newPolicy */\n      eq\n        /* \"SolidDaoManagement.sol\":2645:2691  require(msg.sender == newPolicy, \"!newPolicy\") */\n      tag_113\n      jumpi\n      mload(0x40)\n      shl(0xe5, 0x461bcd)\n      dup2\n      mstore\n        /* \"#utility.yul\":3752:3754   */\n      0x20\n        /* \"SolidDaoManagement.sol\":2645:2691  require(msg.sender == newPolicy, \"!newPolicy\") */\n      0x04\n      dup3\n      add\n        /* \"#utility.yul\":3734:3755   */\n      mstore\n        /* \"#utility.yul\":3791:3793   */\n      0x0a\n        /* \"#utility.yul\":3771:3789   */\n      0x24\n      dup3\n      add\n        /* \"#utility.yul\":3764:3794   */\n      mstore\n      shl(0xb0, 0x216e6577506f6c696379)\n        /* \"#utility.yul\":3810:3828   */\n      0x44\n      dup3\n      add\n        /* \"#utility.yul\":3803:3843   */\n      mstore\n        /* \"#utility.yul\":3860:3878   */\n      0x64\n      add\n        /* \"SolidDaoManagement.sol\":2645:2691  require(msg.sender == newPolicy, \"!newPolicy\") */\n      tag_84\n        /* \"#utility.yul\":3550:3884   */\n      jump\n        /* \"SolidDaoManagement.sol\":2645:2691  require(msg.sender == newPolicy, \"!newPolicy\") */\n    tag_113:\n        /* \"SolidDaoManagement.sol\":2727:2736  newPolicy */\n      sload(0x08)\n        /* \"SolidDaoManagement.sol\":2719:2725  policy */\n      sload(0x04)\n        /* \"SolidDaoManagement.sol\":2706:2737  PolicyPulled(policy, newPolicy) */\n      mload(0x40)\n      sub(shl(0xa0, 0x01), 0x01)\n        /* \"SolidDaoManagement.sol\":2727:2736  newPolicy */\n      swap3\n      dup4\n      and\n      swap3\n        /* \"SolidDaoManagement.sol\":2719:2725  policy */\n      swap1\n      swap2\n      and\n      swap1\n        /* \"SolidDaoManagement.sol\":2706:2737  PolicyPulled(policy, newPolicy) */\n      0x64d2fa522b403ca222efff0c7ad07d2ef45472a45e5770918bdfa9a2845d29a8\n      swap1\n        /* \"SolidDaoManagement.sol\":2727:2736  newPolicy */\n      0x00\n      swap1\n        /* \"SolidDaoManagement.sol\":2706:2737  PolicyPulled(policy, newPolicy) */\n      log3\n        /* \"SolidDaoManagement.sol\":2756:2765  newPolicy */\n      sload(0x08)\n        /* \"SolidDaoManagement.sol\":2747:2753  policy */\n      0x04\n        /* \"SolidDaoManagement.sol\":2747:2765  policy = newPolicy */\n      dup1\n      sload\n      not(sub(shl(0xa0, 0x01), 0x01))\n      and\n      sub(shl(0xa0, 0x01), 0x01)\n        /* \"SolidDaoManagement.sol\":2756:2765  newPolicy */\n      swap1\n      swap3\n      and\n        /* \"SolidDaoManagement.sol\":2747:2765  policy = newPolicy */\n      swap2\n      swap1\n      swap2\n      or\n      swap1\n      sstore\n        /* \"SolidDaoManagement.sol\":2604:2772  function pullPolicy() external {... */\n      jump\t// out\n        /* \"SolidDaoManagement.sol\":1975:2221  function pushVault(address _newVault, bool _effectiveImmediately) external onlyGovernor {... */\n    tag_56:\n        /* \"lib/SolidDaoManaged.sol\":938:947  authority */\n      0x01\n      0x00\n      swap1\n      sload\n      swap1\n      0x0100\n      exp\n      swap1\n      div\n      sub(shl(0xa0, 0x01), 0x01)\n      and\n      sub(shl(0xa0, 0x01), 0x01)\n        /* \"lib/SolidDaoManaged.sol\":938:956  authority.governor */\n      and\n      0x0c340a24\n        /* \"lib/SolidDaoManaged.sol\":938:958  authority.governor() */\n      mload(0x40)\n      dup2\n      0xffffffff\n      and\n      0xe0\n      shl\n      dup2\n      mstore\n      0x04\n      add\n      0x20\n      mload(0x40)\n      dup1\n      dup4\n      sub\n      dup2\n      dup7\n      gas\n      staticcall\n      iszero\n      dup1\n      iszero\n      tag_118\n      jumpi\n      returndatasize\n      0x00\n      dup1\n      returndatacopy\n      revert(0x00, returndatasize)\n    tag_118:\n      pop\n      pop\n      pop\n      pop\n      mload(0x40)\n      returndatasize\n      not(0x1f)\n      0x1f\n      dup3\n      add\n      and\n      dup3\n      add\n      dup1\n      0x40\n      mstore\n      pop\n      dup2\n      add\n      swap1\n      tag_119\n      swap2\n      swap1\n      tag_82\n      jump\t// in\n    tag_119:\n      sub(shl(0xa0, 0x01), 0x01)\n        /* \"lib/SolidDaoManaged.sol\":924:958  msg.sender == authority.governor() */\n      and\n        /* \"lib/SolidDaoManaged.sol\":924:934  msg.sender */\n      caller\n      sub(shl(0xa0, 0x01), 0x01)\n        /* \"lib/SolidDaoManaged.sol\":924:958  msg.sender == authority.governor() */\n      and\n      eq\n        /* \"lib/SolidDaoManaged.sol\":960:972  UNAUTHORIZED */\n      0x00\n        /* \"lib/SolidDaoManaged.sol\":916:973  require(msg.sender == authority.governor(), UNAUTHORIZED) */\n      swap1\n      tag_120\n      jumpi\n      mload(0x40)\n      shl(0xe5, 0x461bcd)\n      dup2\n      mstore\n      0x04\n      add\n      tag_84\n      swap2\n      swap1\n      tag_85\n      jump\t// in\n    tag_120:\n      pop\n        /* \"SolidDaoManagement.sol\":2077:2098  _effectiveImmediately */\n      dup1\n        /* \"SolidDaoManagement.sol\":2073:2118  if( _effectiveImmediately ) vault = _newVault */\n      iszero\n      tag_123\n      jumpi\n        /* \"SolidDaoManagement.sol\":2101:2106  vault */\n      0x05\n        /* \"SolidDaoManagement.sol\":2101:2118  vault = _newVault */\n      dup1\n      sload\n      not(sub(shl(0xa0, 0x01), 0x01))\n      and\n      sub(shl(0xa0, 0x01), 0x01)\n      dup5\n      and\n      or\n      swap1\n      sstore\n        /* \"SolidDaoManagement.sol\":2073:2118  if( _effectiveImmediately ) vault = _newVault */\n    tag_123:\n        /* \"SolidDaoManagement.sol\":2128:2136  newVault */\n      0x09\n        /* \"SolidDaoManagement.sol\":2128:2148  newVault = _newVault */\n      dup1\n      sload\n      not(sub(shl(0xa0, 0x01), 0x01))\n      and\n      sub(shl(0xa0, 0x01), 0x01)\n      dup5\n      dup2\n      and\n      swap2\n      dup3\n      or\n      swap1\n      swap3\n      sstore\n        /* \"SolidDaoManagement.sol\":2175:2180  vault */\n      sload(0x05)\n        /* \"SolidDaoManagement.sol\":2163:2214  VaultPushed(vault, newVault, _effectiveImmediately) */\n      mload(0x40)\n        /* \"#utility.yul\":3186:3200   */\n      dup5\n      iszero\n        /* \"#utility.yul\":3179:3201   */\n      iszero\n        /* \"#utility.yul\":3161:3202   */\n      dup2\n      mstore\n        /* \"SolidDaoManagement.sol\":2128:2148  newVault = _newVault */\n      swap2\n      swap3\n        /* \"SolidDaoManagement.sol\":2175:2180  vault */\n      and\n      swap1\n        /* \"SolidDaoManagement.sol\":2163:2214  VaultPushed(vault, newVault, _effectiveImmediately) */\n      0x05a80f5053574d6a62733e1692e8cbcfaf927dc82df0a7267ea2e489a7cc18ff\n      swap1\n        /* \"#utility.yul\":3149:3151   */\n      0x20\n        /* \"#utility.yul\":3134:3152   */\n      add\n        /* \"SolidDaoManagement.sol\":2163:2214  VaultPushed(vault, newVault, _effectiveImmediately) */\n      tag_88\n        /* \"#utility.yul\":3021:3208   */\n      jump\n        /* \"lib/SolidDaoManaged.sol\":2055:2222  function setAuthority(ISolidDaoManagement _newAuthority) external onlyGovernor {... */\n    tag_60:\n        /* \"lib/SolidDaoManaged.sol\":938:947  authority */\n      0x01\n      0x00\n      swap1\n      sload\n      swap1\n      0x0100\n      exp\n      swap1\n      div\n      sub(shl(0xa0, 0x01), 0x01)\n      and\n      sub(shl(0xa0, 0x01), 0x01)\n        /* \"lib/SolidDaoManaged.sol\":938:956  authority.governor */\n      and\n      0x0c340a24\n        /* \"lib/SolidDaoManaged.sol\":938:958  authority.governor() */\n      mload(0x40)\n      dup2\n      0xffffffff\n      and\n      0xe0\n      shl\n      dup2\n      mstore\n      0x04\n      add\n      0x20\n      mload(0x40)\n      dup1\n      dup4\n      sub\n      dup2\n      dup7\n      gas\n      staticcall\n      iszero\n      dup1\n      iszero\n      tag_127\n      jumpi\n      returndatasize\n      0x00\n      dup1\n      returndatacopy\n      revert(0x00, returndatasize)\n    tag_127:\n      pop\n      pop\n      pop\n      pop\n      mload(0x40)\n      returndatasize\n      not(0x1f)\n      0x1f\n      dup3\n      add\n      and\n      dup3\n      add\n      dup1\n      0x40\n      mstore\n      pop\n      dup2\n      add\n      swap1\n      tag_128\n      swap2\n      swap1\n      tag_82\n      jump\t// in\n    tag_128:\n      sub(shl(0xa0, 0x01), 0x01)\n        /* \"lib/SolidDaoManaged.sol\":924:958  msg.sender == authority.governor() */\n      and\n        /* \"lib/SolidDaoManaged.sol\":924:934  msg.sender */\n      caller\n      sub(shl(0xa0, 0x01), 0x01)\n        /* \"lib/SolidDaoManaged.sol\":924:958  msg.sender == authority.governor() */\n      and\n      eq\n        /* \"lib/SolidDaoManaged.sol\":960:972  UNAUTHORIZED */\n      0x00\n        /* \"lib/SolidDaoManaged.sol\":916:973  require(msg.sender == authority.governor(), UNAUTHORIZED) */\n      swap1\n      tag_129\n      jumpi\n      mload(0x40)\n      shl(0xe5, 0x461bcd)\n      dup2\n      mstore\n      0x04\n      add\n      tag_84\n      swap2\n      swap1\n      tag_85\n      jump\t// in\n    tag_129:\n      pop\n        /* \"lib/SolidDaoManaged.sol\":2144:2153  authority */\n      0x01\n        /* \"lib/SolidDaoManaged.sol\":2144:2169  authority = _newAuthority */\n      dup1\n      sload\n      not(sub(shl(0xa0, 0x01), 0x01))\n      and\n      sub(shl(0xa0, 0x01), 0x01)\n      dup4\n      and\n      swap1\n      dup2\n      or\n      swap1\n      swap2\n      sstore\n        /* \"lib/SolidDaoManaged.sol\":2184:2215  AuthorityUpdated(_newAuthority) */\n      mload(0x40)\n      0x2f658b440c35314f52658ea8a740e05b284cdc84dc9ae01e891f21b8933e7cad\n      swap1\n      0x00\n      swap1\n      log2\n        /* \"lib/SolidDaoManaged.sol\":2055:2222  function setAuthority(ISolidDaoManagement _newAuthority) external onlyGovernor {... */\n      pop\n      jump\t// out\n        /* \"SolidDaoManagement.sol\":2417:2598  function pullGuardian() external {... */\n    tag_68:\n        /* \"SolidDaoManagement.sol\":2482:2493  newGuardian */\n      and(sub(shl(0xa0, 0x01), 0x01), sload(0x07))\n        /* \"SolidDaoManagement.sol\":2468:2478  msg.sender */\n      caller\n        /* \"SolidDaoManagement.sol\":2468:2493  msg.sender == newGuardian */\n      eq\n        /* \"SolidDaoManagement.sol\":2460:2507  require(msg.sender == newGuardian, \"!newGuard\") */\n      tag_133\n      jumpi\n      mload(0x40)\n      shl(0xe5, 0x461bcd)\n      dup2\n      mstore\n        /* \"#utility.yul\":4091:4093   */\n      0x20\n        /* \"SolidDaoManagement.sol\":2460:2507  require(msg.sender == newGuardian, \"!newGuard\") */\n      0x04\n      dup3\n      add\n        /* \"#utility.yul\":4073:4094   */\n      mstore\n        /* \"#utility.yul\":4130:4131   */\n      0x09\n        /* \"#utility.yul\":4110:4128   */\n      0x24\n      dup3\n      add\n        /* \"#utility.yul\":4103:4132   */\n      mstore\n      shl(0xba, 0x085b995dd1dd585c99)\n        /* \"#utility.yul\":4148:4166   */\n      0x44\n      dup3\n      add\n        /* \"#utility.yul\":4141:4180   */\n      mstore\n        /* \"#utility.yul\":4197:4215   */\n      0x64\n      add\n        /* \"SolidDaoManagement.sol\":2460:2507  require(msg.sender == newGuardian, \"!newGuard\") */\n      tag_84\n        /* \"#utility.yul\":3889:4221   */\n      jump\n        /* \"SolidDaoManagement.sol\":2460:2507  require(msg.sender == newGuardian, \"!newGuard\") */\n    tag_133:\n        /* \"SolidDaoManagement.sol\":2547:2558  newGuardian */\n      sload(0x07)\n        /* \"SolidDaoManagement.sol\":2537:2545  guardian */\n      sload(0x03)\n        /* \"SolidDaoManagement.sol\":2522:2559  GuardianPulled(guardian, newGuardian) */\n      mload(0x40)\n      sub(shl(0xa0, 0x01), 0x01)\n        /* \"SolidDaoManagement.sol\":2547:2558  newGuardian */\n      swap3\n      dup4\n      and\n      swap3\n        /* \"SolidDaoManagement.sol\":2537:2545  guardian */\n      swap1\n      swap2\n      and\n      swap1\n        /* \"SolidDaoManagement.sol\":2522:2559  GuardianPulled(guardian, newGuardian) */\n      0x0960fb9900fb8096216606c4f7fc2fce5d08cc0c82da55cec8619b66b5238481\n      swap1\n        /* \"SolidDaoManagement.sol\":2547:2558  newGuardian */\n      0x00\n      swap1\n        /* \"SolidDaoManagement.sol\":2522:2559  GuardianPulled(guardian, newGuardian) */\n      log3\n        /* \"SolidDaoManagement.sol\":2580:2591  newGuardian */\n      sload(0x07)\n        /* \"SolidDaoManagement.sol\":2569:2577  guardian */\n      0x03\n        /* \"SolidDaoManagement.sol\":2569:2591  guardian = newGuardian */\n      dup1\n      sload\n      not(sub(shl(0xa0, 0x01), 0x01))\n      and\n      sub(shl(0xa0, 0x01), 0x01)\n        /* \"SolidDaoManagement.sol\":2580:2591  newGuardian */\n      swap1\n      swap3\n      and\n        /* \"SolidDaoManagement.sol\":2569:2591  guardian = newGuardian */\n      swap2\n      swap1\n      swap2\n      or\n      swap1\n      sstore\n        /* \"SolidDaoManagement.sol\":2417:2598  function pullGuardian() external {... */\n      jump\t// out\n        /* \"SolidDaoManagement.sol\":2227:2411  function pullGovernor() external {... */\n    tag_74:\n        /* \"SolidDaoManagement.sol\":2292:2303  newGovernor */\n      and(sub(shl(0xa0, 0x01), 0x01), sload(0x06))\n        /* \"SolidDaoManagement.sol\":2278:2288  msg.sender */\n      caller\n        /* \"SolidDaoManagement.sol\":2278:2303  msg.sender == newGovernor */\n      eq\n        /* \"SolidDaoManagement.sol\":2270:2320  require(msg.sender == newGovernor, \"!newGovernor\") */\n      tag_137\n      jumpi\n      mload(0x40)\n      shl(0xe5, 0x461bcd)\n      dup2\n      mstore\n        /* \"#utility.yul\":4428:4430   */\n      0x20\n        /* \"SolidDaoManagement.sol\":2270:2320  require(msg.sender == newGovernor, \"!newGovernor\") */\n      0x04\n      dup3\n      add\n        /* \"#utility.yul\":4410:4431   */\n      mstore\n        /* \"#utility.yul\":4467:4469   */\n      0x0c\n        /* \"#utility.yul\":4447:4465   */\n      0x24\n      dup3\n      add\n        /* \"#utility.yul\":4440:4470   */\n      mstore\n      shl(0xa1, 0x10b732bba3b7bb32b93737b9)\n        /* \"#utility.yul\":4486:4504   */\n      0x44\n      dup3\n      add\n        /* \"#utility.yul\":4479:4521   */\n      mstore\n        /* \"#utility.yul\":4538:4556   */\n      0x64\n      add\n        /* \"SolidDaoManagement.sol\":2270:2320  require(msg.sender == newGovernor, \"!newGovernor\") */\n      tag_84\n        /* \"#utility.yul\":4226:4562   */\n      jump\n        /* \"SolidDaoManagement.sol\":2270:2320  require(msg.sender == newGovernor, \"!newGovernor\") */\n    tag_137:\n        /* \"SolidDaoManagement.sol\":2360:2371  newGovernor */\n      sload(0x06)\n        /* \"SolidDaoManagement.sol\":2350:2358  governor */\n      sload(0x02)\n        /* \"SolidDaoManagement.sol\":2335:2372  GovernorPulled(governor, newGovernor) */\n      mload(0x40)\n      sub(shl(0xa0, 0x01), 0x01)\n        /* \"SolidDaoManagement.sol\":2360:2371  newGovernor */\n      swap3\n      dup4\n      and\n      swap3\n        /* \"SolidDaoManagement.sol\":2350:2358  governor */\n      swap1\n      swap2\n      and\n      swap1\n        /* \"SolidDaoManagement.sol\":2335:2372  GovernorPulled(governor, newGovernor) */\n      0xffd6fed33fe8ec1016718bdd5d04ae6fecd9aba0da6578807daaaa7fc3d16826\n      swap1\n        /* \"SolidDaoManagement.sol\":2360:2371  newGovernor */\n      0x00\n      swap1\n        /* \"SolidDaoManagement.sol\":2335:2372  GovernorPulled(governor, newGovernor) */\n      log3\n        /* \"SolidDaoManagement.sol\":2393:2404  newGovernor */\n      sload(0x06)\n        /* \"SolidDaoManagement.sol\":2382:2390  governor */\n      0x02\n        /* \"SolidDaoManagement.sol\":2382:2404  governor = newGovernor */\n      dup1\n      sload\n      not(sub(shl(0xa0, 0x01), 0x01))\n      and\n      sub(shl(0xa0, 0x01), 0x01)\n        /* \"SolidDaoManagement.sol\":2393:2404  newGovernor */\n      swap1\n      swap3\n      and\n        /* \"SolidDaoManagement.sol\":2382:2404  governor = newGovernor */\n      swap2\n      swap1\n      swap2\n      or\n      swap1\n      sstore\n        /* \"SolidDaoManagement.sol\":2227:2411  function pullGovernor() external {... */\n      jump\t// out\n        /* \"#utility.yul\":222:353   */\n    tag_140:\n      sub(shl(0xa0, 0x01), 0x01)\n        /* \"#utility.yul\":297:328   */\n      dup2\n      and\n        /* \"#utility.yul\":287:329   */\n      dup2\n      eq\n        /* \"#utility.yul\":277:347   */\n      tag_146\n      jumpi\n        /* \"#utility.yul\":343:344   */\n      0x00\n        /* \"#utility.yul\":340:341   */\n      dup1\n        /* \"#utility.yul\":333:345   */\n      revert\n        /* \"#utility.yul\":277:347   */\n    tag_146:\n        /* \"#utility.yul\":222:353   */\n      pop\n      jump\t// out\n        /* \"#utility.yul\":358:774   */\n    tag_36:\n        /* \"#utility.yul\":423:429   */\n      0x00\n        /* \"#utility.yul\":431:437   */\n      dup1\n        /* \"#utility.yul\":484:486   */\n      0x40\n        /* \"#utility.yul\":472:481   */\n      dup4\n        /* \"#utility.yul\":463:470   */\n      dup6\n        /* \"#utility.yul\":459:482   */\n      sub\n        /* \"#utility.yul\":455:487   */\n      slt\n        /* \"#utility.yul\":452:504   */\n      iszero\n      tag_148\n      jumpi\n        /* \"#utility.yul\":500:501   */\n      0x00\n        /* \"#utility.yul\":497:498   */\n      dup1\n        /* \"#utility.yul\":490:502   */\n      revert\n        /* \"#utility.yul\":452:504   */\n    tag_148:\n        /* \"#utility.yul\":539:548   */\n      dup3\n        /* \"#utility.yul\":526:549   */\n      calldataload\n        /* \"#utility.yul\":558:589   */\n      tag_149\n        /* \"#utility.yul\":583:588   */\n      dup2\n        /* \"#utility.yul\":558:589   */\n      tag_140\n      jump\t// in\n    tag_149:\n        /* \"#utility.yul\":608:613   */\n      swap2\n      pop\n        /* \"#utility.yul\":665:667   */\n      0x20\n        /* \"#utility.yul\":650:668   */\n      dup4\n      add\n        /* \"#utility.yul\":637:669   */\n      calldataload\n        /* \"#utility.yul\":707:722   */\n      dup1\n      iszero\n        /* \"#utility.yul\":700:723   */\n      iszero\n        /* \"#utility.yul\":688:724   */\n      dup2\n      eq\n        /* \"#utility.yul\":678:742   */\n      tag_150\n      jumpi\n        /* \"#utility.yul\":738:739   */\n      0x00\n        /* \"#utility.yul\":735:736   */\n      dup1\n        /* \"#utility.yul\":728:740   */\n      revert\n        /* \"#utility.yul\":678:742   */\n    tag_150:\n        /* \"#utility.yul\":761:768   */\n      dup1\n        /* \"#utility.yul\":751:768   */\n      swap2\n      pop\n      pop\n        /* \"#utility.yul\":358:774   */\n      swap3\n      pop\n      swap3\n      swap1\n      pop\n      jump\t// out\n        /* \"#utility.yul\":779:1053   */\n    tag_59:\n        /* \"#utility.yul\":865:871   */\n      0x00\n        /* \"#utility.yul\":918:920   */\n      0x20\n        /* \"#utility.yul\":906:915   */\n      dup3\n        /* \"#utility.yul\":897:904   */\n      dup5\n        /* \"#utility.yul\":893:916   */\n      sub\n        /* \"#utility.yul\":889:921   */\n      slt\n        /* \"#utility.yul\":886:938   */\n      iszero\n      tag_152\n      jumpi\n        /* \"#utility.yul\":934:935   */\n      0x00\n        /* \"#utility.yul\":931:932   */\n      dup1\n        /* \"#utility.yul\":924:936   */\n      revert\n        /* \"#utility.yul\":886:938   */\n    tag_152:\n        /* \"#utility.yul\":973:982   */\n      dup2\n        /* \"#utility.yul\":960:983   */\n      calldataload\n        /* \"#utility.yul\":992:1023   */\n      tag_153\n        /* \"#utility.yul\":1017:1022   */\n      dup2\n        /* \"#utility.yul\":992:1023   */\n      tag_140\n      jump\t// in\n    tag_153:\n        /* \"#utility.yul\":1042:1047   */\n      swap4\n        /* \"#utility.yul\":779:1053   */\n      swap3\n      pop\n      pop\n      pop\n      jump\t// out\n        /* \"#utility.yul\":1293:1544   */\n    tag_82:\n        /* \"#utility.yul\":1363:1369   */\n      0x00\n        /* \"#utility.yul\":1416:1418   */\n      0x20\n        /* \"#utility.yul\":1404:1413   */\n      dup3\n        /* \"#utility.yul\":1395:1402   */\n      dup5\n        /* \"#utility.yul\":1391:1414   */\n      sub\n        /* \"#utility.yul\":1387:1419   */\n      slt\n        /* \"#utility.yul\":1384:1436   */\n      iszero\n      tag_156\n      jumpi\n        /* \"#utility.yul\":1432:1433   */\n      0x00\n        /* \"#utility.yul\":1429:1430   */\n      dup1\n        /* \"#utility.yul\":1422:1434   */\n      revert\n        /* \"#utility.yul\":1384:1436   */\n    tag_156:\n        /* \"#utility.yul\":1464:1473   */\n      dup2\n        /* \"#utility.yul\":1458:1474   */\n      mload\n        /* \"#utility.yul\":1483:1514   */\n      tag_153\n        /* \"#utility.yul\":1508:1513   */\n      dup2\n        /* \"#utility.yul\":1483:1514   */\n      tag_140\n      jump\t// in\n        /* \"#utility.yul\":1830:3016   */\n    tag_85:\n        /* \"#utility.yul\":1939:1943   */\n      0x00\n        /* \"#utility.yul\":1968:1970   */\n      0x20\n        /* \"#utility.yul\":1997:1999   */\n      dup1\n        /* \"#utility.yul\":1986:1995   */\n      dup4\n        /* \"#utility.yul\":1979:2000   */\n      mstore\n        /* \"#utility.yul\":2020:2021   */\n      0x00\n        /* \"#utility.yul\":2053:2059   */\n      dup5\n        /* \"#utility.yul\":2047:2060   */\n      sload\n        /* \"#utility.yul\":2083:2086   */\n      dup2\n        /* \"#utility.yul\":2105:2106   */\n      0x01\n        /* \"#utility.yul\":2133:2142   */\n      dup3\n        /* \"#utility.yul\":2129:2131   */\n      dup2\n        /* \"#utility.yul\":2125:2143   */\n      shr\n        /* \"#utility.yul\":2115:2143   */\n      swap2\n      pop\n        /* \"#utility.yul\":2193:2195   */\n      dup1\n        /* \"#utility.yul\":2182:2191   */\n      dup4\n        /* \"#utility.yul\":2178:2196   */\n      and\n        /* \"#utility.yul\":2215:2233   */\n      dup1\n        /* \"#utility.yul\":2205:2266   */\n      tag_161\n      jumpi\n        /* \"#utility.yul\":2259:2263   */\n      0x7f\n        /* \"#utility.yul\":2251:2257   */\n      dup4\n        /* \"#utility.yul\":2247:2264   */\n      and\n        /* \"#utility.yul\":2237:2264   */\n      swap3\n      pop\n        /* \"#utility.yul\":2205:2266   */\n    tag_161:\n        /* \"#utility.yul\":2312:2314   */\n      dup6\n        /* \"#utility.yul\":2304:2310   */\n      dup4\n        /* \"#utility.yul\":2301:2315   */\n      lt\n        /* \"#utility.yul\":2281:2299   */\n      dup2\n        /* \"#utility.yul\":2278:2316   */\n      sub\n        /* \"#utility.yul\":2275:2440   */\n      tag_162\n      jumpi\n      shl(0xe0, 0x4e487b71)\n        /* \"#utility.yul\":2339:2372   */\n      dup6\n      mstore\n        /* \"#utility.yul\":2395:2399   */\n      0x22\n        /* \"#utility.yul\":2392:2393   */\n      0x04\n        /* \"#utility.yul\":2385:2400   */\n      mstore\n        /* \"#utility.yul\":2425:2429   */\n      0x24\n        /* \"#utility.yul\":2346:2349   */\n      dup6\n        /* \"#utility.yul\":2413:2430   */\n      revert\n        /* \"#utility.yul\":2275:2440   */\n    tag_162:\n        /* \"#utility.yul\":2496:2514   */\n      dup8\n      dup7\n      add\n        /* \"#utility.yul\":1636:1655   */\n      dup4\n      dup2\n      mstore\n        /* \"#utility.yul\":1688:1692   */\n      0x20\n        /* \"#utility.yul\":1679:1693   */\n      add\n        /* \"#utility.yul\":2539:2557   */\n      dup2\n        /* \"#utility.yul\":2566:2666   */\n      dup1\n      iszero\n      tag_165\n      jumpi\n        /* \"#utility.yul\":2680:2681   */\n      0x01\n        /* \"#utility.yul\":2675:2990   */\n      dup2\n      eq\n      tag_166\n      jumpi\n        /* \"#utility.yul\":2532:2990   */\n      jump(tag_164)\n        /* \"#utility.yul\":2566:2666   */\n    tag_165:\n      not(0xff)\n        /* \"#utility.yul\":2599:2623   */\n      dup7\n      and\n        /* \"#utility.yul\":2587:2624   */\n      dup3\n      mstore\n        /* \"#utility.yul\":2644:2656   */\n      dup8\n      dup3\n      add\n      swap7\n      pop\n        /* \"#utility.yul\":2566:2666   */\n      jump(tag_164)\n        /* \"#utility.yul\":2675:2990   */\n    tag_166:\n        /* \"#utility.yul\":1777:1778   */\n      0x00\n        /* \"#utility.yul\":1770:1784   */\n      dup12\n      dup2\n      mstore\n        /* \"#utility.yul\":1814:1818   */\n      0x20\n        /* \"#utility.yul\":1801:1819   */\n      swap1\n      keccak256\n        /* \"#utility.yul\":2770:2771   */\n      0x00\n        /* \"#utility.yul\":2784:2949   */\n    tag_168:\n        /* \"#utility.yul\":2798:2804   */\n      dup7\n        /* \"#utility.yul\":2795:2796   */\n      dup2\n        /* \"#utility.yul\":2792:2805   */\n      lt\n        /* \"#utility.yul\":2784:2949   */\n      iszero\n      tag_170\n      jumpi\n        /* \"#utility.yul\":2876:2890   */\n      dup2\n      sload\n        /* \"#utility.yul\":2863:2874   */\n      dup5\n      dup3\n      add\n        /* \"#utility.yul\":2856:2891   */\n      mstore\n        /* \"#utility.yul\":2919:2935   */\n      swap1\n      dup6\n      add\n      swap1\n        /* \"#utility.yul\":2813:2823   */\n      dup10\n      add\n        /* \"#utility.yul\":2784:2949   */\n      jump(tag_168)\n    tag_170:\n        /* \"#utility.yul\":2969:2980   */\n      dup4\n      add\n      swap8\n      pop\n      pop\n        /* \"#utility.yul\":2532:2990   */\n    tag_164:\n      pop\n        /* \"#utility.yul\":3007:3010   */\n      swap5\n      swap10\n        /* \"#utility.yul\":1830:3016   */\n      swap9\n      pop\n      pop\n      pop\n      pop\n      pop\n      pop\n      pop\n      pop\n      pop\n      jump\t// out\n\n    auxdata: 0xa2646970667358221220de6048da60f7edc5ad4cd54c9c93d93e470a2e8603d854f44a092e31791674c364736f6c634300080d0033\n}\n",
				"bytecode": {
					"linkReferences": {},
					"object": "60c0604052600c60808190526b15539055551213d49256915160a21b60a09081526200002f9160009190620001ff565b503480156200003d57600080fd5b5060405162000f8938038062000f898339810160408190526200006091620002c2565b600180546001600160a01b0319163090811790915560405181907f2f658b440c35314f52658ea8a740e05b284cdc84dc9ae01e891f21b8933e7cad90600090a250600280546001600160a01b0319166001600160a01b038616908117909155604051600181526000907f4f337dcbb2512f18373c1f72d990a2f0a6ee5024b04007c52afd01eb73374a899060200160405180910390a3600380546001600160a01b0319166001600160a01b038516908117909155604051600181526000907fde655975891e8f09671597b37bd4d663bcc5c21dc6d7641b33cdf85fbe15d08b9060200160405180910390a3600480546001600160a01b0319166001600160a01b038416908117909155604051600181526000907f90a5902a45c24aae553d5aff384ca16d6560f08d74c9784a4fbd2796d9e13f2b9060200160405180910390a3600580546001600160a01b0319166001600160a01b038316908117909155604051600181526000907f05a80f5053574d6a62733e1692e8cbcfaf927dc82df0a7267ea2e489a7cc18ff9060200160405180910390a3505050506200035b565b8280546200020d906200031f565b90600052602060002090601f0160209004810192826200023157600085556200027c565b82601f106200024c57805160ff19168380011785556200027c565b828001600101855582156200027c579182015b828111156200027c5782518255916020019190600101906200025f565b506200028a9291506200028e565b5090565b5b808211156200028a57600081556001016200028f565b80516001600160a01b0381168114620002bd57600080fd5b919050565b60008060008060808587031215620002d957600080fd5b620002e485620002a5565b9350620002f460208601620002a5565b92506200030460408601620002a5565b91506200031460608601620002a5565b905092959194509250565b600181811c908216806200033457607f821691505b6020821081036200035557634e487b7160e01b600052602260045260246000fd5b50919050565b610c1e806200036b6000396000f3fe608060405234801561001057600080fd5b50600436106101165760003560e01c80635beede08116100a25780638fd20577116100715780638fd205771461021a578063be11f1dd1461022d578063bf7e214f14610235578063d8a0421214610248578063fbfa77cf1461025057600080fd5b80635beede08146101d95780636fe72c14146101e15780637a9e5e4b146101f457806388aaf0c81461020757600080fd5b8063215e92bc116100e9578063215e92bc146101855780633bf90c281461018d578063452a9320146101a057806352759694146101b357806354e3d703146101c657600080fd5b80630505c8c91461011b5780630c340a241461014a578063198598471461015d5780631afe871414610170575b600080fd5b60045461012e906001600160a01b031681565b6040516001600160a01b03909116815260200160405180910390f35b60025461012e906001600160a01b031681565b60075461012e906001600160a01b031681565b61018361017e366004610ac2565b610263565b005b61018361039a565b60085461012e906001600160a01b031681565b60035461012e906001600160a01b031681565b6101836101c1366004610ac2565b610443565b6101836101d4366004610ac2565b610569565b61018361068f565b6101836101ef366004610ac2565b610739565b610183610202366004610b00565b61085f565b60095461012e906001600160a01b031681565b60065461012e906001600160a01b031681565b610183610955565b60015461012e906001600160a01b031681565b6101836109fe565b60055461012e906001600160a01b031681565b600160009054906101000a90046001600160a01b03166001600160a01b0316630c340a246040518163ffffffff1660e01b8152600401602060405180830381865afa1580156102b6573d6000803e3d6000fd5b505050506040513d601f19601f820116820180604052508101906102da9190610b24565b6001600160a01b0316336001600160a01b0316146000906103175760405162461bcd60e51b815260040161030e9190610b41565b60405180910390fd5b50801561033a57600380546001600160a01b0319166001600160a01b0384161790555b600780546001600160a01b0319166001600160a01b038481169182179092556003546040518415158152919216907fde655975891e8f09671597b37bd4d663bcc5c21dc6d7641b33cdf85fbe15d08b906020015b60405180910390a35050565b6009546001600160a01b031633146103e05760405162461bcd60e51b8152602060048201526009602482015268085b995dd5985d5b1d60ba1b604482015260640161030e565b6009546005546040516001600160a01b0392831692909116907f3d08e01e3b8340be6ca709db7a9321448661a1f490da4d7f3eb03d84fe73095390600090a3600954600580546001600160a01b0319166001600160a01b03909216919091179055565b600160009054906101000a90046001600160a01b03166001600160a01b0316630c340a246040518163ffffffff1660e01b8152600401602060405180830381865afa158015610496573d6000803e3d6000fd5b505050506040513d601f19601f820116820180604052508101906104ba9190610b24565b6001600160a01b0316336001600160a01b0316146000906104ee5760405162461bcd60e51b815260040161030e9190610b41565b50801561051157600280546001600160a01b0319166001600160a01b0384161790555b600680546001600160a01b0319166001600160a01b038481169182179092556002546040518415158152919216907f4f337dcbb2512f18373c1f72d990a2f0a6ee5024b04007c52afd01eb73374a899060200161038e565b600160009054906101000a90046001600160a01b03166001600160a01b0316630c340a246040518163ffffffff1660e01b8152600401602060405180830381865afa1580156105bc573d6000803e3d6000fd5b505050506040513d601f19601f820116820180604052508101906105e09190610b24565b6001600160a01b0316336001600160a01b0316146000906106145760405162461bcd60e51b815260040161030e9190610b41565b50801561063757600480546001600160a01b0319166001600160a01b0384161790555b600880546001600160a01b0319166001600160a01b038481169182179092556004546040518415158152919216907f90a5902a45c24aae553d5aff384ca16d6560f08d74c9784a4fbd2796d9e13f2b9060200161038e565b6008546001600160a01b031633146106d65760405162461bcd60e51b815260206004820152600a602482015269216e6577506f6c69637960b01b604482015260640161030e565b6008546004546040516001600160a01b0392831692909116907f64d2fa522b403ca222efff0c7ad07d2ef45472a45e5770918bdfa9a2845d29a890600090a3600854600480546001600160a01b0319166001600160a01b03909216919091179055565b600160009054906101000a90046001600160a01b03166001600160a01b0316630c340a246040518163ffffffff1660e01b8152600401602060405180830381865afa15801561078c573d6000803e3d6000fd5b505050506040513d601f19601f820116820180604052508101906107b09190610b24565b6001600160a01b0316336001600160a01b0316146000906107e45760405162461bcd60e51b815260040161030e9190610b41565b50801561080757600580546001600160a01b0319166001600160a01b0384161790555b600980546001600160a01b0319166001600160a01b038481169182179092556005546040518415158152919216907f05a80f5053574d6a62733e1692e8cbcfaf927dc82df0a7267ea2e489a7cc18ff9060200161038e565b600160009054906101000a90046001600160a01b03166001600160a01b0316630c340a246040518163ffffffff1660e01b8152600401602060405180830381865afa1580156108b2573d6000803e3d6000fd5b505050506040513d601f19601f820116820180604052508101906108d69190610b24565b6001600160a01b0316336001600160a01b03161460009061090a5760405162461bcd60e51b815260040161030e9190610b41565b50600180546001600160a01b0319166001600160a01b0383169081179091556040517f2f658b440c35314f52658ea8a740e05b284cdc84dc9ae01e891f21b8933e7cad90600090a250565b6007546001600160a01b0316331461099b5760405162461bcd60e51b8152602060048201526009602482015268085b995dd1dd585c9960ba1b604482015260640161030e565b6007546003546040516001600160a01b0392831692909116907f0960fb9900fb8096216606c4f7fc2fce5d08cc0c82da55cec8619b66b523848190600090a3600754600380546001600160a01b0319166001600160a01b03909216919091179055565b6006546001600160a01b03163314610a475760405162461bcd60e51b815260206004820152600c60248201526b10b732bba3b7bb32b93737b960a11b604482015260640161030e565b6006546002546040516001600160a01b0392831692909116907fffd6fed33fe8ec1016718bdd5d04ae6fecd9aba0da6578807daaaa7fc3d1682690600090a3600654600280546001600160a01b0319166001600160a01b03909216919091179055565b6001600160a01b0381168114610abf57600080fd5b50565b60008060408385031215610ad557600080fd5b8235610ae081610aaa565b915060208301358015158114610af557600080fd5b809150509250929050565b600060208284031215610b1257600080fd5b8135610b1d81610aaa565b9392505050565b600060208284031215610b3657600080fd5b8151610b1d81610aaa565b600060208083526000845481600182811c915080831680610b6357607f831692505b8583108103610b8057634e487b7160e01b85526022600452602485fd5b878601838152602001818015610b9d5760018114610bae57610bd9565b60ff19861682528782019650610bd9565b60008b81526020902060005b86811015610bd357815484820152908501908901610bba565b83019750505b5094999850505050505050505056fea2646970667358221220de6048da60f7edc5ad4cd54c9c93d93e470a2e8603d854f44a092e31791674c364736f6c634300080d0033",
					"opcodes": "PUSH1 0xC0 PUSH1 0x40 MSTORE PUSH1 0xC PUSH1 0x80 DUP2 SWAP1 MSTORE PUSH12 0x15539055551213D492569151 PUSH1 0xA2 SHL PUSH1 0xA0 SWAP1 DUP2 MSTORE PUSH3 0x2F SWAP2 PUSH1 0x0 SWAP2 SWAP1 PUSH3 0x1FF JUMP JUMPDEST POP CALLVALUE DUP1 ISZERO PUSH3 0x3D JUMPI PUSH1 0x0 DUP1 REVERT JUMPDEST POP PUSH1 0x40 MLOAD PUSH3 0xF89 CODESIZE SUB DUP1 PUSH3 0xF89 DUP4 CODECOPY DUP2 ADD PUSH1 0x40 DUP2 SWAP1 MSTORE PUSH3 0x60 SWAP2 PUSH3 0x2C2 JUMP JUMPDEST PUSH1 0x1 DUP1 SLOAD PUSH1 0x1 PUSH1 0x1 PUSH1 0xA0 SHL SUB NOT AND ADDRESS SWAP1 DUP2 OR SWAP1 SWAP2 SSTORE PUSH1 0x40 MLOAD DUP2 SWAP1 PUSH32 0x2F658B440C35314F52658EA8A740E05B284CDC84DC9AE01E891F21B8933E7CAD SWAP1 PUSH1 0x0 SWAP1 LOG2 POP PUSH1 0x2 DUP1 SLOAD PUSH1 0x1 PUSH1 0x1 PUSH1 0xA0 SHL SUB NOT AND PUSH1 0x1 PUSH1 0x1 PUSH1 0xA0 SHL SUB DUP7 AND SWAP1 DUP2 OR SWAP1 SWAP2 SSTORE PUSH1 0x40 MLOAD PUSH1 0x1 DUP2 MSTORE PUSH1 0x0 SWAP1 PUSH32 0x4F337DCBB2512F18373C1F72D990A2F0A6EE5024B04007C52AFD01EB73374A89 SWAP1 PUSH1 0x20 ADD PUSH1 0x40 MLOAD DUP1 SWAP2 SUB SWAP1 LOG3 PUSH1 0x3 DUP1 SLOAD PUSH1 0x1 PUSH1 0x1 PUSH1 0xA0 SHL SUB NOT AND PUSH1 0x1 PUSH1 0x1 PUSH1 0xA0 SHL SUB DUP6 AND SWAP1 DUP2 OR SWAP1 SWAP2 SSTORE PUSH1 0x40 MLOAD PUSH1 0x1 DUP2 MSTORE PUSH1 0x0 SWAP1 PUSH32 0xDE655975891E8F09671597B37BD4D663BCC5C21DC6D7641B33CDF85FBE15D08B SWAP1 PUSH1 0x20 ADD PUSH1 0x40 MLOAD DUP1 SWAP2 SUB SWAP1 LOG3 PUSH1 0x4 DUP1 SLOAD PUSH1 0x1 PUSH1 0x1 PUSH1 0xA0 SHL SUB NOT AND PUSH1 0x1 PUSH1 0x1 PUSH1 0xA0 SHL SUB DUP5 AND SWAP1 DUP2 OR SWAP1 SWAP2 SSTORE PUSH1 0x40 MLOAD PUSH1 0x1 DUP2 MSTORE PUSH1 0x0 SWAP1 PUSH32 0x90A5902A45C24AAE553D5AFF384CA16D6560F08D74C9784A4FBD2796D9E13F2B SWAP1 PUSH1 0x20 ADD PUSH1 0x40 MLOAD DUP1 SWAP2 SUB SWAP1 LOG3 PUSH1 0x5 DUP1 SLOAD PUSH1 0x1 PUSH1 0x1 PUSH1 0xA0 SHL SUB NOT AND PUSH1 0x1 PUSH1 0x1 PUSH1 0xA0 SHL SUB DUP4 AND SWAP1 DUP2 OR SWAP1 SWAP2 SSTORE PUSH1 0x40 MLOAD PUSH1 0x1 DUP2 MSTORE PUSH1 0x0 SWAP1 PUSH32 0x5A80F5053574D6A62733E1692E8CBCFAF927DC82DF0A7267EA2E489A7CC18FF SWAP1 PUSH1 0x20 ADD PUSH1 0x40 MLOAD DUP1 SWAP2 SUB SWAP1 LOG3 POP POP POP POP PUSH3 0x35B JUMP JUMPDEST DUP3 DUP1 SLOAD PUSH3 0x20D SWAP1 PUSH3 0x31F JUMP JUMPDEST SWAP1 PUSH1 0x0 MSTORE PUSH1 0x20 PUSH1 0x0 KECCAK256 SWAP1 PUSH1 0x1F ADD PUSH1 0x20 SWAP1 DIV DUP2 ADD SWAP3 DUP3 PUSH3 0x231 JUMPI PUSH1 0x0 DUP6 SSTORE PUSH3 0x27C JUMP JUMPDEST DUP3 PUSH1 0x1F LT PUSH3 0x24C JUMPI DUP1 MLOAD PUSH1 0xFF NOT AND DUP4 DUP1 ADD OR DUP6 SSTORE PUSH3 0x27C JUMP JUMPDEST DUP3 DUP1 ADD PUSH1 0x1 ADD DUP6 SSTORE DUP3 ISZERO PUSH3 0x27C JUMPI SWAP2 DUP3 ADD JUMPDEST DUP3 DUP2 GT ISZERO PUSH3 0x27C JUMPI DUP3 MLOAD DUP3 SSTORE SWAP2 PUSH1 0x20 ADD SWAP2 SWAP1 PUSH1 0x1 ADD SWAP1 PUSH3 0x25F JUMP JUMPDEST POP PUSH3 0x28A SWAP3 SWAP2 POP PUSH3 0x28E JUMP JUMPDEST POP SWAP1 JUMP JUMPDEST JUMPDEST DUP1 DUP3 GT ISZERO PUSH3 0x28A JUMPI PUSH1 0x0 DUP2 SSTORE PUSH1 0x1 ADD PUSH3 0x28F JUMP JUMPDEST DUP1 MLOAD PUSH1 0x1 PUSH1 0x1 PUSH1 0xA0 SHL SUB DUP2 AND DUP2 EQ PUSH3 0x2BD JUMPI PUSH1 0x0 DUP1 REVERT JUMPDEST SWAP2 SWAP1 POP JUMP JUMPDEST PUSH1 0x0 DUP1 PUSH1 0x0 DUP1 PUSH1 0x80 DUP6 DUP8 SUB SLT ISZERO PUSH3 0x2D9 JUMPI PUSH1 0x0 DUP1 REVERT JUMPDEST PUSH3 0x2E4 DUP6 PUSH3 0x2A5 JUMP JUMPDEST SWAP4 POP PUSH3 0x2F4 PUSH1 0x20 DUP7 ADD PUSH3 0x2A5 JUMP JUMPDEST SWAP3 POP PUSH3 0x304 PUSH1 0x40 DUP7 ADD PUSH3 0x2A5 JUMP JUMPDEST SWAP2 POP PUSH3 0x314 PUSH1 0x60 DUP7 ADD PUSH3 0x2A5 JUMP JUMPDEST SWAP1 POP SWAP3 SWAP6 SWAP2 SWAP5 POP SWAP3 POP JUMP JUMPDEST PUSH1 0x1 DUP2 DUP2 SHR SWAP1 DUP3 AND DUP1 PUSH3 0x334 JUMPI PUSH1 0x7F DUP3 AND SWAP2 POP JUMPDEST PUSH1 0x20 DUP3 LT DUP2 SUB PUSH3 0x355 JUMPI PUSH4 0x4E487B71 PUSH1 0xE0 SHL PUSH1 0x0 MSTORE PUSH1 0x22 PUSH1 0x4 MSTORE PUSH1 0x24 PUSH1 0x0 REVERT JUMPDEST POP SWAP2 SWAP1 POP JUMP JUMPDEST PUSH2 0xC1E DUP1 PUSH3 0x36B PUSH1 0x0 CODECOPY PUSH1 0x0 RETURN INVALID PUSH1 0x80 PUSH1 0x40 MSTORE CALLVALUE DUP1 ISZERO PUSH2 0x10 JUMPI PUSH1 0x0 DUP1 REVERT JUMPDEST POP PUSH1 0x4 CALLDATASIZE LT PUSH2 0x116 JUMPI PUSH1 0x0 CALLDATALOAD PUSH1 0xE0 SHR DUP1 PUSH4 0x5BEEDE08 GT PUSH2 0xA2 JUMPI DUP1 PUSH4 0x8FD20577 GT PUSH2 0x71 JUMPI DUP1 PUSH4 0x8FD20577 EQ PUSH2 0x21A JUMPI DUP1 PUSH4 0xBE11F1DD EQ PUSH2 0x22D JUMPI DUP1 PUSH4 0xBF7E214F EQ PUSH2 0x235 JUMPI DUP1 PUSH4 0xD8A04212 EQ PUSH2 0x248 JUMPI DUP1 PUSH4 0xFBFA77CF EQ PUSH2 0x250 JUMPI PUSH1 0x0 DUP1 REVERT JUMPDEST DUP1 PUSH4 0x5BEEDE08 EQ PUSH2 0x1D9 JUMPI DUP1 PUSH4 0x6FE72C14 EQ PUSH2 0x1E1 JUMPI DUP1 PUSH4 0x7A9E5E4B EQ PUSH2 0x1F4 JUMPI DUP1 PUSH4 0x88AAF0C8 EQ PUSH2 0x207 JUMPI PUSH1 0x0 DUP1 REVERT JUMPDEST DUP1 PUSH4 0x215E92BC GT PUSH2 0xE9 JUMPI DUP1 PUSH4 0x215E92BC EQ PUSH2 0x185 JUMPI DUP1 PUSH4 0x3BF90C28 EQ PUSH2 0x18D JUMPI DUP1 PUSH4 0x452A9320 EQ PUSH2 0x1A0 JUMPI DUP1 PUSH4 0x52759694 EQ PUSH2 0x1B3 JUMPI DUP1 PUSH4 0x54E3D703 EQ PUSH2 0x1C6 JUMPI PUSH1 0x0 DUP1 REVERT JUMPDEST DUP1 PUSH4 0x505C8C9 EQ PUSH2 0x11B JUMPI DUP1 PUSH4 0xC340A24 EQ PUSH2 0x14A JUMPI DUP1 PUSH4 0x19859847 EQ PUSH2 0x15D JUMPI DUP1 PUSH4 0x1AFE8714 EQ PUSH2 0x170 JUMPI JUMPDEST PUSH1 0x0 DUP1 REVERT JUMPDEST PUSH1 0x4 SLOAD PUSH2 0x12E SWAP1 PUSH1 0x1 PUSH1 0x1 PUSH1 0xA0 SHL SUB AND DUP2 JUMP JUMPDEST PUSH1 0x40 MLOAD PUSH1 0x1 PUSH1 0x1 PUSH1 0xA0 SHL SUB SWAP1 SWAP2 AND DUP2 MSTORE PUSH1 0x20 ADD PUSH1 0x40 MLOAD DUP1 SWAP2 SUB SWAP1 RETURN JUMPDEST PUSH1 0x2 SLOAD PUSH2 0x12E SWAP1 PUSH1 0x1 PUSH1 0x1 PUSH1 0xA0 SHL SUB AND DUP2 JUMP JUMPDEST PUSH1 0x7 SLOAD PUSH2 0x12E SWAP1 PUSH1 0x1 PUSH1 0x1 PUSH1 0xA0 SHL SUB AND DUP2 JUMP JUMPDEST PUSH2 0x183 PUSH2 0x17E CALLDATASIZE PUSH1 0x4 PUSH2 0xAC2 JUMP JUMPDEST PUSH2 0x263 JUMP JUMPDEST STOP JUMPDEST PUSH2 0x183 PUSH2 0x39A JUMP JUMPDEST PUSH1 0x8 SLOAD PUSH2 0x12E SWAP1 PUSH1 0x1 PUSH1 0x1 PUSH1 0xA0 SHL SUB AND DUP2 JUMP JUMPDEST PUSH1 0x3 SLOAD PUSH2 0x12E SWAP1 PUSH1 0x1 PUSH1 0x1 PUSH1 0xA0 SHL SUB AND DUP2 JUMP JUMPDEST PUSH2 0x183 PUSH2 0x1C1 CALLDATASIZE PUSH1 0x4 PUSH2 0xAC2 JUMP JUMPDEST PUSH2 0x443 JUMP JUMPDEST PUSH2 0x183 PUSH2 0x1D4 CALLDATASIZE PUSH1 0x4 PUSH2 0xAC2 JUMP JUMPDEST PUSH2 0x569 JUMP JUMPDEST PUSH2 0x183 PUSH2 0x68F JUMP JUMPDEST PUSH2 0x183 PUSH2 0x1EF CALLDATASIZE PUSH1 0x4 PUSH2 0xAC2 JUMP JUMPDEST PUSH2 0x739 JUMP JUMPDEST PUSH2 0x183 PUSH2 0x202 CALLDATASIZE PUSH1 0x4 PUSH2 0xB00 JUMP JUMPDEST PUSH2 0x85F JUMP JUMPDEST PUSH1 0x9 SLOAD PUSH2 0x12E SWAP1 PUSH1 0x1 PUSH1 0x1 PUSH1 0xA0 SHL SUB AND DUP2 JUMP JUMPDEST PUSH1 0x6 SLOAD PUSH2 0x12E SWAP1 PUSH1 0x1 PUSH1 0x1 PUSH1 0xA0 SHL SUB AND DUP2 JUMP JUMPDEST PUSH2 0x183 PUSH2 0x955 JUMP JUMPDEST PUSH1 0x1 SLOAD PUSH2 0x12E SWAP1 PUSH1 0x1 PUSH1 0x1 PUSH1 0xA0 SHL SUB AND DUP2 JUMP JUMPDEST PUSH2 0x183 PUSH2 0x9FE JUMP JUMPDEST PUSH1 0x5 SLOAD PUSH2 0x12E SWAP1 PUSH1 0x1 PUSH1 0x1 PUSH1 0xA0 SHL SUB AND DUP2 JUMP JUMPDEST PUSH1 0x1 PUSH1 0x0 SWAP1 SLOAD SWAP1 PUSH2 0x100 EXP SWAP1 DIV PUSH1 0x1 PUSH1 0x1 PUSH1 0xA0 SHL SUB AND PUSH1 0x1 PUSH1 0x1 PUSH1 0xA0 SHL SUB AND PUSH4 0xC340A24 PUSH1 0x40 MLOAD DUP2 PUSH4 0xFFFFFFFF AND PUSH1 0xE0 SHL DUP2 MSTORE PUSH1 0x4 ADD PUSH1 0x20 PUSH1 0x40 MLOAD DUP1 DUP4 SUB DUP2 DUP7 GAS STATICCALL ISZERO DUP1 ISZERO PUSH2 0x2B6 JUMPI RETURNDATASIZE PUSH1 0x0 DUP1 RETURNDATACOPY RETURNDATASIZE PUSH1 0x0 REVERT JUMPDEST POP POP POP POP PUSH1 0x40 MLOAD RETURNDATASIZE PUSH1 0x1F NOT PUSH1 0x1F DUP3 ADD AND DUP3 ADD DUP1 PUSH1 0x40 MSTORE POP DUP2 ADD SWAP1 PUSH2 0x2DA SWAP2 SWAP1 PUSH2 0xB24 JUMP JUMPDEST PUSH1 0x1 PUSH1 0x1 PUSH1 0xA0 SHL SUB AND CALLER PUSH1 0x1 PUSH1 0x1 PUSH1 0xA0 SHL SUB AND EQ PUSH1 0x0 SWAP1 PUSH2 0x317 JUMPI PUSH1 0x40 MLOAD PUSH3 0x461BCD PUSH1 0xE5 SHL DUP2 MSTORE PUSH1 0x4 ADD PUSH2 0x30E SWAP2 SWAP1 PUSH2 0xB41 JUMP JUMPDEST PUSH1 0x40 MLOAD DUP1 SWAP2 SUB SWAP1 REVERT JUMPDEST POP DUP1 ISZERO PUSH2 0x33A JUMPI PUSH1 0x3 DUP1 SLOAD PUSH1 0x1 PUSH1 0x1 PUSH1 0xA0 SHL SUB NOT AND PUSH1 0x1 PUSH1 0x1 PUSH1 0xA0 SHL SUB DUP5 AND OR SWAP1 SSTORE JUMPDEST PUSH1 0x7 DUP1 SLOAD PUSH1 0x1 PUSH1 0x1 PUSH1 0xA0 SHL SUB NOT AND PUSH1 0x1 PUSH1 0x1 PUSH1 0xA0 SHL SUB DUP5 DUP2 AND SWAP2 DUP3 OR SWAP1 SWAP3 SSTORE PUSH1 0x3 SLOAD PUSH1 0x40 MLOAD DUP5 ISZERO ISZERO DUP2 MSTORE SWAP2 SWAP3 AND SWAP1 PUSH32 0xDE655975891E8F09671597B37BD4D663BCC5C21DC6D7641B33CDF85FBE15D08B SWAP1 PUSH1 0x20 ADD JUMPDEST PUSH1 0x40 MLOAD DUP1 SWAP2 SUB SWAP1 LOG3 POP POP JUMP JUMPDEST PUSH1 0x9 SLOAD PUSH1 0x1 PUSH1 0x1 PUSH1 0xA0 SHL SUB AND CALLER EQ PUSH2 0x3E0 JUMPI PUSH1 0x40 MLOAD PUSH3 0x461BCD PUSH1 0xE5 SHL DUP2 MSTORE PUSH1 0x20 PUSH1 0x4 DUP3 ADD MSTORE PUSH1 0x9 PUSH1 0x24 DUP3 ADD MSTORE PUSH9 0x85B995DD5985D5B1D PUSH1 0xBA SHL PUSH1 0x44 DUP3 ADD MSTORE PUSH1 0x64 ADD PUSH2 0x30E JUMP JUMPDEST PUSH1 0x9 SLOAD PUSH1 0x5 SLOAD PUSH1 0x40 MLOAD PUSH1 0x1 PUSH1 0x1 PUSH1 0xA0 SHL SUB SWAP3 DUP4 AND SWAP3 SWAP1 SWAP2 AND SWAP1 PUSH32 0x3D08E01E3B8340BE6CA709DB7A9321448661A1F490DA4D7F3EB03D84FE730953 SWAP1 PUSH1 0x0 SWAP1 LOG3 PUSH1 0x9 SLOAD PUSH1 0x5 DUP1 SLOAD PUSH1 0x1 PUSH1 0x1 PUSH1 0xA0 SHL SUB NOT AND PUSH1 0x1 PUSH1 0x1 PUSH1 0xA0 SHL SUB SWAP1 SWAP3 AND SWAP2 SWAP1 SWAP2 OR SWAP1 SSTORE JUMP JUMPDEST PUSH1 0x1 PUSH1 0x0 SWAP1 SLOAD SWAP1 PUSH2 0x100 EXP SWAP1 DIV PUSH1 0x1 PUSH1 0x1 PUSH1 0xA0 SHL SUB AND PUSH1 0x1 PUSH1 0x1 PUSH1 0xA0 SHL SUB AND PUSH4 0xC340A24 PUSH1 0x40 MLOAD DUP2 PUSH4 0xFFFFFFFF AND PUSH1 0xE0 SHL DUP2 MSTORE PUSH1 0x4 ADD PUSH1 0x20 PUSH1 0x40 MLOAD DUP1 DUP4 SUB DUP2 DUP7 GAS STATICCALL ISZERO DUP1 ISZERO PUSH2 0x496 JUMPI RETURNDATASIZE PUSH1 0x0 DUP1 RETURNDATACOPY RETURNDATASIZE PUSH1 0x0 REVERT JUMPDEST POP POP POP POP PUSH1 0x40 MLOAD RETURNDATASIZE PUSH1 0x1F NOT PUSH1 0x1F DUP3 ADD AND DUP3 ADD DUP1 PUSH1 0x40 MSTORE POP DUP2 ADD SWAP1 PUSH2 0x4BA SWAP2 SWAP1 PUSH2 0xB24 JUMP JUMPDEST PUSH1 0x1 PUSH1 0x1 PUSH1 0xA0 SHL SUB AND CALLER PUSH1 0x1 PUSH1 0x1 PUSH1 0xA0 SHL SUB AND EQ PUSH1 0x0 SWAP1 PUSH2 0x4EE JUMPI PUSH1 0x40 MLOAD PUSH3 0x461BCD PUSH1 0xE5 SHL DUP2 MSTORE PUSH1 0x4 ADD PUSH2 0x30E SWAP2 SWAP1 PUSH2 0xB41 JUMP JUMPDEST POP DUP1 ISZERO PUSH2 0x511 JUMPI PUSH1 0x2 DUP1 SLOAD PUSH1 0x1 PUSH1 0x1 PUSH1 0xA0 SHL SUB NOT AND PUSH1 0x1 PUSH1 0x1 PUSH1 0xA0 SHL SUB DUP5 AND OR SWAP1 SSTORE JUMPDEST PUSH1 0x6 DUP1 SLOAD PUSH1 0x1 PUSH1 0x1 PUSH1 0xA0 SHL SUB NOT AND PUSH1 0x1 PUSH1 0x1 PUSH1 0xA0 SHL SUB DUP5 DUP2 AND SWAP2 DUP3 OR SWAP1 SWAP3 SSTORE PUSH1 0x2 SLOAD PUSH1 0x40 MLOAD DUP5 ISZERO ISZERO DUP2 MSTORE SWAP2 SWAP3 AND SWAP1 PUSH32 0x4F337DCBB2512F18373C1F72D990A2F0A6EE5024B04007C52AFD01EB73374A89 SWAP1 PUSH1 0x20 ADD PUSH2 0x38E JUMP JUMPDEST PUSH1 0x1 PUSH1 0x0 SWAP1 SLOAD SWAP1 PUSH2 0x100 EXP SWAP1 DIV PUSH1 0x1 PUSH1 0x1 PUSH1 0xA0 SHL SUB AND PUSH1 0x1 PUSH1 0x1 PUSH1 0xA0 SHL SUB AND PUSH4 0xC340A24 PUSH1 0x40 MLOAD DUP2 PUSH4 0xFFFFFFFF AND PUSH1 0xE0 SHL DUP2 MSTORE PUSH1 0x4 ADD PUSH1 0x20 PUSH1 0x40 MLOAD DUP1 DUP4 SUB DUP2 DUP7 GAS STATICCALL ISZERO DUP1 ISZERO PUSH2 0x5BC JUMPI RETURNDATASIZE PUSH1 0x0 DUP1 RETURNDATACOPY RETURNDATASIZE PUSH1 0x0 REVERT JUMPDEST POP POP POP POP PUSH1 0x40 MLOAD RETURNDATASIZE PUSH1 0x1F NOT PUSH1 0x1F DUP3 ADD AND DUP3 ADD DUP1 PUSH1 0x40 MSTORE POP DUP2 ADD SWAP1 PUSH2 0x5E0 SWAP2 SWAP1 PUSH2 0xB24 JUMP JUMPDEST PUSH1 0x1 PUSH1 0x1 PUSH1 0xA0 SHL SUB AND CALLER PUSH1 0x1 PUSH1 0x1 PUSH1 0xA0 SHL SUB AND EQ PUSH1 0x0 SWAP1 PUSH2 0x614 JUMPI PUSH1 0x40 MLOAD PUSH3 0x461BCD PUSH1 0xE5 SHL DUP2 MSTORE PUSH1 0x4 ADD PUSH2 0x30E SWAP2 SWAP1 PUSH2 0xB41 JUMP JUMPDEST POP DUP1 ISZERO PUSH2 0x637 JUMPI PUSH1 0x4 DUP1 SLOAD PUSH1 0x1 PUSH1 0x1 PUSH1 0xA0 SHL SUB NOT AND PUSH1 0x1 PUSH1 0x1 PUSH1 0xA0 SHL SUB DUP5 AND OR SWAP1 SSTORE JUMPDEST PUSH1 0x8 DUP1 SLOAD PUSH1 0x1 PUSH1 0x1 PUSH1 0xA0 SHL SUB NOT AND PUSH1 0x1 PUSH1 0x1 PUSH1 0xA0 SHL SUB DUP5 DUP2 AND SWAP2 DUP3 OR SWAP1 SWAP3 SSTORE PUSH1 0x4 SLOAD PUSH1 0x40 MLOAD DUP5 ISZERO ISZERO DUP2 MSTORE SWAP2 SWAP3 AND SWAP1 PUSH32 0x90A5902A45C24AAE553D5AFF384CA16D6560F08D74C9784A4FBD2796D9E13F2B SWAP1 PUSH1 0x20 ADD PUSH2 0x38E JUMP JUMPDEST PUSH1 0x8 SLOAD PUSH1 0x1 PUSH1 0x1 PUSH1 0xA0 SHL SUB AND CALLER EQ PUSH2 0x6D6 JUMPI PUSH1 0x40 MLOAD PUSH3 0x461BCD PUSH1 0xE5 SHL DUP2 MSTORE PUSH1 0x20 PUSH1 0x4 DUP3 ADD MSTORE PUSH1 0xA PUSH1 0x24 DUP3 ADD MSTORE PUSH10 0x216E6577506F6C696379 PUSH1 0xB0 SHL PUSH1 0x44 DUP3 ADD MSTORE PUSH1 0x64 ADD PUSH2 0x30E JUMP JUMPDEST PUSH1 0x8 SLOAD PUSH1 0x4 SLOAD PUSH1 0x40 MLOAD PUSH1 0x1 PUSH1 0x1 PUSH1 0xA0 SHL SUB SWAP3 DUP4 AND SWAP3 SWAP1 SWAP2 AND SWAP1 PUSH32 0x64D2FA522B403CA222EFFF0C7AD07D2EF45472A45E5770918BDFA9A2845D29A8 SWAP1 PUSH1 0x0 SWAP1 LOG3 PUSH1 0x8 SLOAD PUSH1 0x4 DUP1 SLOAD PUSH1 0x1 PUSH1 0x1 PUSH1 0xA0 SHL SUB NOT AND PUSH1 0x1 PUSH1 0x1 PUSH1 0xA0 SHL SUB SWAP1 SWAP3 AND SWAP2 SWAP1 SWAP2 OR SWAP1 SSTORE JUMP JUMPDEST PUSH1 0x1 PUSH1 0x0 SWAP1 SLOAD SWAP1 PUSH2 0x100 EXP SWAP1 DIV PUSH1 0x1 PUSH1 0x1 PUSH1 0xA0 SHL SUB AND PUSH1 0x1 PUSH1 0x1 PUSH1 0xA0 SHL SUB AND PUSH4 0xC340A24 PUSH1 0x40 MLOAD DUP2 PUSH4 0xFFFFFFFF AND PUSH1 0xE0 SHL DUP2 MSTORE PUSH1 0x4 ADD PUSH1 0x20 PUSH1 0x40 MLOAD DUP1 DUP4 SUB DUP2 DUP7 GAS STATICCALL ISZERO DUP1 ISZERO PUSH2 0x78C JUMPI RETURNDATASIZE PUSH1 0x0 DUP1 RETURNDATACOPY RETURNDATASIZE PUSH1 0x0 REVERT JUMPDEST POP POP POP POP PUSH1 0x40 MLOAD RETURNDATASIZE PUSH1 0x1F NOT PUSH1 0x1F DUP3 ADD AND DUP3 ADD DUP1 PUSH1 0x40 MSTORE POP DUP2 ADD SWAP1 PUSH2 0x7B0 SWAP2 SWAP1 PUSH2 0xB24 JUMP JUMPDEST PUSH1 0x1 PUSH1 0x1 PUSH1 0xA0 SHL SUB AND CALLER PUSH1 0x1 PUSH1 0x1 PUSH1 0xA0 SHL SUB AND EQ PUSH1 0x0 SWAP1 PUSH2 0x7E4 JUMPI PUSH1 0x40 MLOAD PUSH3 0x461BCD PUSH1 0xE5 SHL DUP2 MSTORE PUSH1 0x4 ADD PUSH2 0x30E SWAP2 SWAP1 PUSH2 0xB41 JUMP JUMPDEST POP DUP1 ISZERO PUSH2 0x807 JUMPI PUSH1 0x5 DUP1 SLOAD PUSH1 0x1 PUSH1 0x1 PUSH1 0xA0 SHL SUB NOT AND PUSH1 0x1 PUSH1 0x1 PUSH1 0xA0 SHL SUB DUP5 AND OR SWAP1 SSTORE JUMPDEST PUSH1 0x9 DUP1 SLOAD PUSH1 0x1 PUSH1 0x1 PUSH1 0xA0 SHL SUB NOT AND PUSH1 0x1 PUSH1 0x1 PUSH1 0xA0 SHL SUB DUP5 DUP2 AND SWAP2 DUP3 OR SWAP1 SWAP3 SSTORE PUSH1 0x5 SLOAD PUSH1 0x40 MLOAD DUP5 ISZERO ISZERO DUP2 MSTORE SWAP2 SWAP3 AND SWAP1 PUSH32 0x5A80F5053574D6A62733E1692E8CBCFAF927DC82DF0A7267EA2E489A7CC18FF SWAP1 PUSH1 0x20 ADD PUSH2 0x38E JUMP JUMPDEST PUSH1 0x1 PUSH1 0x0 SWAP1 SLOAD SWAP1 PUSH2 0x100 EXP SWAP1 DIV PUSH1 0x1 PUSH1 0x1 PUSH1 0xA0 SHL SUB AND PUSH1 0x1 PUSH1 0x1 PUSH1 0xA0 SHL SUB AND PUSH4 0xC340A24 PUSH1 0x40 MLOAD DUP2 PUSH4 0xFFFFFFFF AND PUSH1 0xE0 SHL DUP2 MSTORE PUSH1 0x4 ADD PUSH1 0x20 PUSH1 0x40 MLOAD DUP1 DUP4 SUB DUP2 DUP7 GAS STATICCALL ISZERO DUP1 ISZERO PUSH2 0x8B2 JUMPI RETURNDATASIZE PUSH1 0x0 DUP1 RETURNDATACOPY RETURNDATASIZE PUSH1 0x0 REVERT JUMPDEST POP POP POP POP PUSH1 0x40 MLOAD RETURNDATASIZE PUSH1 0x1F NOT PUSH1 0x1F DUP3 ADD AND DUP3 ADD DUP1 PUSH1 0x40 MSTORE POP DUP2 ADD SWAP1 PUSH2 0x8D6 SWAP2 SWAP1 PUSH2 0xB24 JUMP JUMPDEST PUSH1 0x1 PUSH1 0x1 PUSH1 0xA0 SHL SUB AND CALLER PUSH1 0x1 PUSH1 0x1 PUSH1 0xA0 SHL SUB AND EQ PUSH1 0x0 SWAP1 PUSH2 0x90A JUMPI PUSH1 0x40 MLOAD PUSH3 0x461BCD PUSH1 0xE5 SHL DUP2 MSTORE PUSH1 0x4 ADD PUSH2 0x30E SWAP2 SWAP1 PUSH2 0xB41 JUMP JUMPDEST POP PUSH1 0x1 DUP1 SLOAD PUSH1 0x1 PUSH1 0x1 PUSH1 0xA0 SHL SUB NOT AND PUSH1 0x1 PUSH1 0x1 PUSH1 0xA0 SHL SUB DUP4 AND SWAP1 DUP2 OR SWAP1 SWAP2 SSTORE PUSH1 0x40 MLOAD PUSH32 0x2F658B440C35314F52658EA8A740E05B284CDC84DC9AE01E891F21B8933E7CAD SWAP1 PUSH1 0x0 SWAP1 LOG2 POP JUMP JUMPDEST PUSH1 0x7 SLOAD PUSH1 0x1 PUSH1 0x1 PUSH1 0xA0 SHL SUB AND CALLER EQ PUSH2 0x99B JUMPI PUSH1 0x40 MLOAD PUSH3 0x461BCD PUSH1 0xE5 SHL DUP2 MSTORE PUSH1 0x20 PUSH1 0x4 DUP3 ADD MSTORE PUSH1 0x9 PUSH1 0x24 DUP3 ADD MSTORE PUSH9 0x85B995DD1DD585C99 PUSH1 0xBA SHL PUSH1 0x44 DUP3 ADD MSTORE PUSH1 0x64 ADD PUSH2 0x30E JUMP JUMPDEST PUSH1 0x7 SLOAD PUSH1 0x3 SLOAD PUSH1 0x40 MLOAD PUSH1 0x1 PUSH1 0x1 PUSH1 0xA0 SHL SUB SWAP3 DUP4 AND SWAP3 SWAP1 SWAP2 AND SWAP1 PUSH32 0x960FB9900FB8096216606C4F7FC2FCE5D08CC0C82DA55CEC8619B66B5238481 SWAP1 PUSH1 0x0 SWAP1 LOG3 PUSH1 0x7 SLOAD PUSH1 0x3 DUP1 SLOAD PUSH1 0x1 PUSH1 0x1 PUSH1 0xA0 SHL SUB NOT AND PUSH1 0x1 PUSH1 0x1 PUSH1 0xA0 SHL SUB SWAP1 SWAP3 AND SWAP2 SWAP1 SWAP2 OR SWAP1 SSTORE JUMP JUMPDEST PUSH1 0x6 SLOAD PUSH1 0x1 PUSH1 0x1 PUSH1 0xA0 SHL SUB AND CALLER EQ PUSH2 0xA47 JUMPI PUSH1 0x40 MLOAD PUSH3 0x461BCD PUSH1 0xE5 SHL DUP2 MSTORE PUSH1 0x20 PUSH1 0x4 DUP3 ADD MSTORE PUSH1 0xC PUSH1 0x24 DUP3 ADD MSTORE PUSH12 0x10B732BBA3B7BB32B93737B9 PUSH1 0xA1 SHL PUSH1 0x44 DUP3 ADD MSTORE PUSH1 0x64 ADD PUSH2 0x30E JUMP JUMPDEST PUSH1 0x6 SLOAD PUSH1 0x2 SLOAD PUSH1 0x40 MLOAD PUSH1 0x1 PUSH1 0x1 PUSH1 0xA0 SHL SUB SWAP3 DUP4 AND SWAP3 SWAP1 SWAP2 AND SWAP1 PUSH32 0xFFD6FED33FE8EC1016718BDD5D04AE6FECD9ABA0DA6578807DAAAA7FC3D16826 SWAP1 PUSH1 0x0 SWAP1 LOG3 PUSH1 0x6 SLOAD PUSH1 0x2 DUP1 SLOAD PUSH1 0x1 PUSH1 0x1 PUSH1 0xA0 SHL SUB NOT AND PUSH1 0x1 PUSH1 0x1 PUSH1 0xA0 SHL SUB SWAP1 SWAP3 AND SWAP2 SWAP1 SWAP2 OR SWAP1 SSTORE JUMP JUMPDEST PUSH1 0x1 PUSH1 0x1 PUSH1 0xA0 SHL SUB DUP2 AND DUP2 EQ PUSH2 0xABF JUMPI PUSH1 0x0 DUP1 REVERT JUMPDEST POP JUMP JUMPDEST PUSH1 0x0 DUP1 PUSH1 0x40 DUP4 DUP6 SUB SLT ISZERO PUSH2 0xAD5 JUMPI PUSH1 0x0 DUP1 REVERT JUMPDEST DUP3 CALLDATALOAD PUSH2 0xAE0 DUP2 PUSH2 0xAAA JUMP JUMPDEST SWAP2 POP PUSH1 0x20 DUP4 ADD CALLDATALOAD DUP1 ISZERO ISZERO DUP2 EQ PUSH2 0xAF5 JUMPI PUSH1 0x0 DUP1 REVERT JUMPDEST DUP1 SWAP2 POP POP SWAP3 POP SWAP3 SWAP1 POP JUMP JUMPDEST PUSH1 0x0 PUSH1 0x20 DUP3 DUP5 SUB SLT ISZERO PUSH2 0xB12 JUMPI PUSH1 0x0 DUP1 REVERT JUMPDEST DUP2 CALLDATALOAD PUSH2 0xB1D DUP2 PUSH2 0xAAA JUMP JUMPDEST SWAP4 SWAP3 POP POP POP JUMP JUMPDEST PUSH1 0x0 PUSH1 0x20 DUP3 DUP5 SUB SLT ISZERO PUSH2 0xB36 JUMPI PUSH1 0x0 DUP1 REVERT JUMPDEST DUP2 MLOAD PUSH2 0xB1D DUP2 PUSH2 0xAAA JUMP JUMPDEST PUSH1 0x0 PUSH1 0x20 DUP1 DUP4 MSTORE PUSH1 0x0 DUP5 SLOAD DUP2 PUSH1 0x1 DUP3 DUP2 SHR SWAP2 POP DUP1 DUP4 AND DUP1 PUSH2 0xB63 JUMPI PUSH1 0x7F DUP4 AND SWAP3 POP JUMPDEST DUP6 DUP4 LT DUP2 SUB PUSH2 0xB80 JUMPI PUSH4 0x4E487B71 PUSH1 0xE0 SHL DUP6 MSTORE PUSH1 0x22 PUSH1 0x4 MSTORE PUSH1 0x24 DUP6 REVERT JUMPDEST DUP8 DUP7 ADD DUP4 DUP2 MSTORE PUSH1 0x20 ADD DUP2 DUP1 ISZERO PUSH2 0xB9D JUMPI PUSH1 0x1 DUP2 EQ PUSH2 0xBAE JUMPI PUSH2 0xBD9 JUMP JUMPDEST PUSH1 0xFF NOT DUP7 AND DUP3 MSTORE DUP8 DUP3 ADD SWAP7 POP PUSH2 0xBD9 JUMP JUMPDEST PUSH1 0x0 DUP12 DUP2 MSTORE PUSH1 0x20 SWAP1 KECCAK256 PUSH1 0x0 JUMPDEST DUP7 DUP2 LT ISZERO PUSH2 0xBD3 JUMPI DUP2 SLOAD DUP5 DUP3 ADD MSTORE SWAP1 DUP6 ADD SWAP1 DUP10 ADD PUSH2 0xBBA JUMP JUMPDEST DUP4 ADD SWAP8 POP POP JUMPDEST POP SWAP5 SWAP10 SWAP9 POP POP POP POP POP POP POP POP POP JUMP INVALID LOG2 PUSH5 0x6970667358 0x22 SLT KECCAK256 0xDE PUSH1 0x48 0xDA PUSH1 0xF7 0xED 0xC5 0xAD 0x4C 0xD5 0x4C SWAP13 SWAP4 0xD9 RETURNDATACOPY SELFBALANCE EXP 0x2E DUP7 SUB 0xD8 SLOAD DELEGATECALL 0x4A MULMOD 0x2E BALANCE PUSH26 0x1674C364736F6C634300080D0033000000000000000000000000 "
				},
				"gasEstimates": {
					"creation": {
						"codeDepositCost": "620400",
						"executionCost": "infinite",
						"totalCost": "infinite"
					},
					"external": {
						"authority()": "2391",
						"governor()": "2371",
						"guardian()": "2392",
						"newGovernor()": "2347",
						"newGuardian()": "2393",
						"newPolicy()": "2370",
						"newVault()": "2414",
						"policy()": "2349",
						"pullGovernor()": "34504",
						"pullGuardian()": "34460",
						"pullPolicy()": "34439",
						"pullVault()": "34439",
						"pushGovernor(address,bool)": "infinite",
						"pushGuardian(address,bool)": "infinite",
						"pushPolicy(address,bool)": "infinite",
						"pushVault(address,bool)": "infinite",
						"setAuthority(address)": "infinite",
						"vault()": "2435"
					}
				},
				"methodIdentifiers": {
					"authority()": "bf7e214f",
					"governor()": "0c340a24",
					"guardian()": "452a9320",
					"newGovernor()": "8fd20577",
					"newGuardian()": "19859847",
					"newPolicy()": "3bf90c28",
					"newVault()": "88aaf0c8",
					"policy()": "0505c8c9",
					"pullGovernor()": "d8a04212",
					"pullGuardian()": "be11f1dd",
					"pullPolicy()": "5beede08",
					"pullVault()": "215e92bc",
					"pushGovernor(address,bool)": "52759694",
					"pushGuardian(address,bool)": "1afe8714",
					"pushPolicy(address,bool)": "54e3d703",
					"pushVault(address,bool)": "6fe72c14",
					"setAuthority(address)": "7a9e5e4b",
					"vault()": "fbfa77cf"
				}
			},
			"userdoc": {
				"kind": "user",
				"methods": {
					"setAuthority(address)": {
						"notice": "Function to set and update Solid Dao Management smart contract address"
					}
				},
				"notice": "Contract to manage and store the addresses of Solid World DAO authorities",
				"version": 1
			}
		}
	}
}