{
	"SCTERC20.sol": {
		"SCTERC20Token": {
			"abi": [
				{
					"inputs": [
						{
							"internalType": "address",
							"name": "_authority",
							"type": "address"
						}
					],
					"stateMutability": "nonpayable",
					"type": "constructor"
				},
				{
					"anonymous": false,
					"inputs": [
						{
							"indexed": true,
							"internalType": "address",
							"name": "owner",
							"type": "address"
						},
						{
							"indexed": true,
							"internalType": "address",
							"name": "spender",
							"type": "address"
						},
						{
							"indexed": false,
							"internalType": "uint256",
							"name": "value",
							"type": "uint256"
						}
					],
					"name": "Approval",
					"type": "event"
				},
				{
					"anonymous": false,
					"inputs": [
						{
							"indexed": true,
							"internalType": "contract ISolidDaoManagement",
							"name": "authority",
							"type": "address"
						}
					],
					"name": "AuthorityUpdated",
					"type": "event"
				},
				{
					"anonymous": false,
					"inputs": [
						{
							"indexed": true,
							"internalType": "address",
							"name": "from",
							"type": "address"
						},
						{
							"indexed": true,
							"internalType": "address",
							"name": "to",
							"type": "address"
						},
						{
							"indexed": false,
							"internalType": "uint256",
							"name": "value",
							"type": "uint256"
						}
					],
					"name": "Transfer",
					"type": "event"
				},
				{
					"inputs": [],
					"name": "DOMAIN_SEPARATOR",
					"outputs": [
						{
							"internalType": "bytes32",
							"name": "",
							"type": "bytes32"
						}
					],
					"stateMutability": "view",
					"type": "function"
				},
				{
					"inputs": [
						{
							"internalType": "address",
							"name": "owner",
							"type": "address"
						},
						{
							"internalType": "address",
							"name": "spender",
							"type": "address"
						}
					],
					"name": "allowance",
					"outputs": [
						{
							"internalType": "uint256",
							"name": "",
							"type": "uint256"
						}
					],
					"stateMutability": "view",
					"type": "function"
				},
				{
					"inputs": [
						{
							"internalType": "address",
							"name": "spender",
							"type": "address"
						},
						{
							"internalType": "uint256",
							"name": "amount",
							"type": "uint256"
						}
					],
					"name": "approve",
					"outputs": [
						{
							"internalType": "bool",
							"name": "",
							"type": "bool"
						}
					],
					"stateMutability": "nonpayable",
					"type": "function"
				},
				{
					"inputs": [],
					"name": "authority",
					"outputs": [
						{
							"internalType": "contract ISolidDaoManagement",
							"name": "",
							"type": "address"
						}
					],
					"stateMutability": "view",
					"type": "function"
				},
				{
					"inputs": [
						{
							"internalType": "address",
							"name": "account",
							"type": "address"
						}
					],
					"name": "balanceOf",
					"outputs": [
						{
							"internalType": "uint256",
							"name": "",
							"type": "uint256"
						}
					],
					"stateMutability": "view",
					"type": "function"
				},
				{
					"inputs": [
						{
							"internalType": "uint256",
							"name": "amount",
							"type": "uint256"
						}
					],
					"name": "burn",
					"outputs": [],
					"stateMutability": "nonpayable",
					"type": "function"
				},
				{
					"inputs": [
						{
							"internalType": "address",
							"name": "account_",
							"type": "address"
						},
						{
							"internalType": "uint256",
							"name": "amount_",
							"type": "uint256"
						}
					],
					"name": "burnFrom",
					"outputs": [],
					"stateMutability": "nonpayable",
					"type": "function"
				},
				{
					"inputs": [],
					"name": "decimals",
					"outputs": [
						{
							"internalType": "uint8",
							"name": "",
							"type": "uint8"
						}
					],
					"stateMutability": "view",
					"type": "function"
				},
				{
					"inputs": [
						{
							"internalType": "address",
							"name": "spender",
							"type": "address"
						},
						{
							"internalType": "uint256",
							"name": "subtractedValue",
							"type": "uint256"
						}
					],
					"name": "decreaseAllowance",
					"outputs": [
						{
							"internalType": "bool",
							"name": "",
							"type": "bool"
						}
					],
					"stateMutability": "nonpayable",
					"type": "function"
				},
				{
					"inputs": [
						{
							"internalType": "address",
							"name": "spender",
							"type": "address"
						},
						{
							"internalType": "uint256",
							"name": "addedValue",
							"type": "uint256"
						}
					],
					"name": "increaseAllowance",
					"outputs": [
						{
							"internalType": "bool",
							"name": "",
							"type": "bool"
						}
					],
					"stateMutability": "nonpayable",
					"type": "function"
				},
				{
					"inputs": [
						{
							"internalType": "address",
							"name": "account_",
							"type": "address"
						},
						{
							"internalType": "uint256",
							"name": "amount_",
							"type": "uint256"
						}
					],
					"name": "mint",
					"outputs": [],
					"stateMutability": "nonpayable",
					"type": "function"
				},
				{
					"inputs": [],
					"name": "name",
					"outputs": [
						{
							"internalType": "string",
							"name": "",
							"type": "string"
						}
					],
					"stateMutability": "view",
					"type": "function"
				},
				{
					"inputs": [
						{
							"internalType": "address",
							"name": "owner",
							"type": "address"
						}
					],
					"name": "nonces",
					"outputs": [
						{
							"internalType": "uint256",
							"name": "",
							"type": "uint256"
						}
					],
					"stateMutability": "view",
					"type": "function"
				},
				{
					"inputs": [
						{
							"internalType": "address",
							"name": "owner",
							"type": "address"
						},
						{
							"internalType": "address",
							"name": "spender",
							"type": "address"
						},
						{
							"internalType": "uint256",
							"name": "value",
							"type": "uint256"
						},
						{
							"internalType": "uint256",
							"name": "deadline",
							"type": "uint256"
						},
						{
							"internalType": "uint8",
							"name": "v",
							"type": "uint8"
						},
						{
							"internalType": "bytes32",
							"name": "r",
							"type": "bytes32"
						},
						{
							"internalType": "bytes32",
							"name": "s",
							"type": "bytes32"
						}
					],
					"name": "permit",
					"outputs": [],
					"stateMutability": "nonpayable",
					"type": "function"
				},
				{
					"inputs": [
						{
							"internalType": "contract ISolidDaoManagement",
							"name": "_newAuthority",
							"type": "address"
						}
					],
					"name": "setAuthority",
					"outputs": [],
					"stateMutability": "nonpayable",
					"type": "function"
				},
				{
					"inputs": [],
					"name": "symbol",
					"outputs": [
						{
							"internalType": "string",
							"name": "",
							"type": "string"
						}
					],
					"stateMutability": "view",
					"type": "function"
				},
				{
					"inputs": [],
					"name": "totalSupply",
					"outputs": [
						{
							"internalType": "uint256",
							"name": "",
							"type": "uint256"
						}
					],
					"stateMutability": "view",
					"type": "function"
				},
				{
					"inputs": [
						{
							"internalType": "address",
							"name": "to",
							"type": "address"
						},
						{
							"internalType": "uint256",
							"name": "amount",
							"type": "uint256"
						}
					],
					"name": "transfer",
					"outputs": [
						{
							"internalType": "bool",
							"name": "",
							"type": "bool"
						}
					],
					"stateMutability": "nonpayable",
					"type": "function"
				},
				{
					"inputs": [
						{
							"internalType": "address",
							"name": "from",
							"type": "address"
						},
						{
							"internalType": "address",
							"name": "to",
							"type": "address"
						},
						{
							"internalType": "uint256",
							"name": "amount",
							"type": "uint256"
						}
					],
					"name": "transferFrom",
					"outputs": [
						{
							"internalType": "bool",
							"name": "",
							"type": "bool"
						}
					],
					"stateMutability": "nonpayable",
					"type": "function"
				}
			],
			"devdoc": {
				"author": "Solid World DAO",
				"kind": "dev",
				"methods": {
					"DOMAIN_SEPARATOR()": {
						"details": "See {IERC20Permit-DOMAIN_SEPARATOR}."
					},
					"allowance(address,address)": {
						"details": "See {IERC20-allowance}."
					},
					"approve(address,uint256)": {
						"details": "See {IERC20-approve}. NOTE: If `amount` is the maximum `uint256`, the allowance is not updated on `transferFrom`. This is semantically equivalent to an infinite approval. Requirements: - `spender` cannot be the zero address."
					},
					"balanceOf(address)": {
						"details": "See {IERC20-balanceOf}."
					},
					"decimals()": {
						"details": "Returns the number of decimals used to get its user representation. For example, if `decimals` equals `2`, a balance of `505` tokens should be displayed to a user as `5.05` (`505 / 10 ** 2`). Tokens usually opt for a value of 18, imitating the relationship between Ether and Wei. This is the value {ERC20} uses, unless this function is overridden; NOTE: This information is only used for _display_ purposes: it in no way affects any of the arithmetic of the contract, including {IERC20-balanceOf} and {IERC20-transfer}."
					},
					"decreaseAllowance(address,uint256)": {
						"details": "Atomically decreases the allowance granted to `spender` by the caller. This is an alternative to {approve} that can be used as a mitigation for problems described in {IERC20-approve}. Emits an {Approval} event indicating the updated allowance. Requirements: - `spender` cannot be the zero address. - `spender` must have allowance for the caller of at least `subtractedValue`."
					},
					"increaseAllowance(address,uint256)": {
						"details": "Atomically increases the allowance granted to `spender` by the caller. This is an alternative to {approve} that can be used as a mitigation for problems described in {IERC20-approve}. Emits an {Approval} event indicating the updated allowance. Requirements: - `spender` cannot be the zero address."
					},
					"name()": {
						"details": "Returns the name of the token."
					},
					"nonces(address)": {
						"details": "See {IERC20Permit-nonces}."
					},
					"permit(address,address,uint256,uint256,uint8,bytes32,bytes32)": {
						"details": "See {IERC20Permit-permit}."
					},
					"setAuthority(address)": {
						"details": "Emit AuthorityUpdated event",
						"params": {
							"_newAuthority": "Address of the new Solid Dao Management smart contract"
						}
					},
					"symbol()": {
						"details": "Returns the symbol of the token, usually a shorter version of the name."
					},
					"totalSupply()": {
						"details": "See {IERC20-totalSupply}."
					},
					"transfer(address,uint256)": {
						"details": "See {IERC20-transfer}. Requirements: - `to` cannot be the zero address. - the caller must have a balance of at least `amount`."
					},
					"transferFrom(address,address,uint256)": {
						"details": "See {IERC20-transferFrom}. Emits an {Approval} event indicating the updated allowance. This is not required by the EIP. See the note at the beginning of {ERC20}. NOTE: Does not update the allowance if the current allowance is the maximum `uint256`. Requirements: - `from` and `to` cannot be the zero address. - `from` must have a balance of at least `amount`. - the caller must have allowance for ``from``'s tokens of at least `amount`."
					}
				},
				"title": "SCT ERC-20 Token",
				"version": 1
			},
			"evm": {
				"assembly": "    /* \"lib/SolidDaoManaged.sol\":494:530  string UNAUTHORIZED = \"UNAUTHORIZED\" */\n  0x01a0\n    /* \"SCTERC20.sol\":316:1223  contract SCTERC20Token is ERC20Permit, ISCT, SolidDaoManaged {... */\n  0x40\n    /* \"lib/SolidDaoManaged.sol\":494:530  string UNAUTHORIZED = \"UNAUTHORIZED\" */\n  mstore\n  0x0c\n    /* \"SCTERC20.sol\":316:1223  contract SCTERC20Token is ERC20Permit, ISCT, SolidDaoManaged {... */\n  0x0160\n    /* \"lib/SolidDaoManaged.sol\":494:530  string UNAUTHORIZED = \"UNAUTHORIZED\" */\n  dup2\n  swap1\n  mstore\n  shl(0xa2, 0x15539055551213d492569151)\n  0x0180\n  swap1\n  dup2\n  mstore\n  tag_1\n  swap2\n  0x07\n  swap2\n  swap1\n  tag_2\n  jump\t// in\ntag_1:\n  pop\n    /* \"SCTERC20.sol\":384:520  constructor(address _authority)... */\n  callvalue\n  dup1\n  iszero\n  tag_3\n  jumpi\n  0x00\n  dup1\n  revert\ntag_3:\n  pop\n  mload(0x40)\n  sub(codesize, bytecodeSize)\n  dup1\n  bytecodeSize\n  dup4\n  codecopy\n  dup2\n  add\n  0x40\n  dup2\n  swap1\n  mstore\n  tag_4\n  swap2\n  tag_5\n  jump\t// in\ntag_4:\n    /* \"SCTERC20.sol\":506:516  _authority */\n  dup1\n    /* \"lib/ERC20Permit.sol\":1762:1814  constructor(string memory name) EIP712(name, \"1\") {} */\n  mload(0x40)\n  dup1\n  0x40\n  add\n  0x40\n  mstore\n  dup1\n  0x03\n  dup2\n  mstore\n  0x20\n  add\n  shl(0xea, 0x14d0d5)\n  dup2\n  mstore\n  pop\n    /* \"lib/ERC20Permit.sol\":1801:1805  name */\n  dup1\n    /* \"lib/EIP712.sol\":2455:3057  constructor(string memory name, string memory version) {... */\n  mload(0x40)\n  dup1\n  0x40\n  add\n  0x40\n  mstore\n  dup1\n  0x01\n  dup2\n  mstore\n  0x20\n  add\n  shl(0xf8, 0x31)\n  dup2\n  mstore\n  pop\n    /* \"tokens/ERC20.sol\":1804:1965  constructor(string memory name_, string memory symbol_, uint8 decimals_) {... */\n  mload(0x40)\n  dup1\n  0x40\n  add\n  0x40\n  mstore\n  dup1\n  0x03\n  dup2\n  mstore\n  0x20\n  add\n  shl(0xea, 0x14d0d5)\n  dup2\n  mstore\n  pop\n  mload(0x40)\n  dup1\n  0x40\n  add\n  0x40\n  mstore\n  dup1\n  0x03\n  dup2\n  mstore\n  0x20\n  add\n  shl(0xea, 0x14d0d5)\n  dup2\n  mstore\n  pop\n    /* \"SCTERC20.sol\":440:441  9 */\n  0x09\n    /* \"tokens/ERC20.sol\":1895:1900  name_ */\n  dup3\n    /* \"tokens/ERC20.sol\":1887:1892  _name */\n  0x03\n    /* \"tokens/ERC20.sol\":1887:1900  _name = name_ */\n  swap1\n  dup1\n  mload\n  swap1\n  0x20\n  add\n  swap1\n  tag_12\n  swap3\n  swap2\n  swap1\n  tag_2\n  jump\t// in\ntag_12:\n  pop\n    /* \"tokens/ERC20.sol\":1910:1927  _symbol = symbol_ */\n  dup2\n  mload\n  tag_13\n  swap1\n    /* \"tokens/ERC20.sol\":1910:1917  _symbol */\n  0x04\n  swap1\n    /* \"tokens/ERC20.sol\":1910:1927  _symbol = symbol_ */\n  0x20\n  dup6\n  add\n  swap1\n  tag_2\n  jump\t// in\ntag_13:\n  pop\n    /* \"tokens/ERC20.sol\":1937:1958  _decimals = decimals_ */\n  0xff\n  and\n  0x80\n  mstore\n  pop\n  pop\n    /* \"lib/EIP712.sol\":2541:2563  keccak256(bytes(name)) */\n  dup2\n  mload\n  0x20\n  dup1\n  dup5\n  add\n  swap2\n  swap1\n  swap2\n  keccak256\n    /* \"lib/EIP712.sol\":2597:2622  keccak256(bytes(version)) */\n  dup3\n  mload\n  swap2\n  dup4\n  add\n  swap2\n  swap1\n  swap2\n  keccak256\n    /* \"lib/EIP712.sol\":2778:2803  _HASHED_NAME = hashedName */\n  0x0100\n  dup3\n  swap1\n  mstore\n    /* \"lib/EIP712.sol\":2813:2844  _HASHED_VERSION = hashedVersion */\n  0x0120\n  dup2\n  swap1\n  mstore\n    /* \"lib/EIP712.sol\":2873:2886  block.chainid */\n  chainid\n    /* \"lib/EIP712.sol\":2854:2886  _CACHED_CHAIN_ID = block.chainid */\n  0xc0\n  mstore\n    /* \"lib/EIP712.sol\":2651:2768  keccak256(... */\n  0x8b73c3c69bb8fe3d512ecc4cf759cc79239f7b179b0ffacaa9a75d522b39400f\n    /* \"lib/EIP712.sol\":2923:2981  _buildDomainSeparator(typeHash, hashedName, hashedVersion) */\n  tag_15\n    /* \"lib/EIP712.sol\":2651:2768  keccak256(... */\n  dup2\n    /* \"lib/EIP712.sol\":2541:2563  keccak256(bytes(name)) */\n  dup5\n    /* \"lib/EIP712.sol\":2597:2622  keccak256(bytes(version)) */\n  dup5\n    /* \"lib/EIP712.sol\":3633:3706  abi.encode(typeHash, nameHash, versionHash, block.chainid, address(this)) */\n  0x40\n  dup1\n  mload\n  0x20\n  dup2\n  add\n    /* \"#utility.yul\":568:593   */\n  dup6\n  swap1\n  mstore\n    /* \"#utility.yul\":609:627   */\n  swap1\n  dup2\n  add\n    /* \"#utility.yul\":602:636   */\n  dup4\n  swap1\n  mstore\n    /* \"#utility.yul\":652:670   */\n  0x60\n  dup2\n  add\n    /* \"#utility.yul\":645:679   */\n  dup3\n  swap1\n  mstore\n    /* \"lib/EIP712.sol\":3677:3690  block.chainid */\n  chainid\n    /* \"#utility.yul\":695:713   */\n  0x80\n  dup3\n  add\n    /* \"#utility.yul\":688:722   */\n  mstore\n    /* \"lib/EIP712.sol\":3700:3704  this */\n  address\n    /* \"#utility.yul\":738:757   */\n  0xa0\n  dup3\n  add\n    /* \"#utility.yul\":731:792   */\n  mstore\n    /* \"lib/EIP712.sol\":3597:3604  bytes32 */\n  0x00\n  swap1\n    /* \"#utility.yul\":540:559   */\n  0xc0\n  add\n    /* \"lib/EIP712.sol\":3633:3706  abi.encode(typeHash, nameHash, versionHash, block.chainid, address(this)) */\n  mload(0x40)\n  0x20\n  dup2\n  dup4\n  sub\n  sub\n  dup2\n  mstore\n  swap1\n  0x40\n  mstore\n    /* \"lib/EIP712.sol\":3623:3707  keccak256(abi.encode(typeHash, nameHash, versionHash, block.chainid, address(this))) */\n  dup1\n  mload\n  swap1\n  0x20\n  add\n  keccak256\n    /* \"lib/EIP712.sol\":3616:3707  return keccak256(abi.encode(typeHash, nameHash, versionHash, block.chainid, address(this))) */\n  swap1\n  pop\n    /* \"lib/EIP712.sol\":3457:3714  function _buildDomainSeparator(... */\n  swap4\n  swap3\n  pop\n  pop\n  pop\n  jump\n    /* \"lib/EIP712.sol\":2923:2981  _buildDomainSeparator(typeHash, hashedName, hashedVersion) */\ntag_15:\n    /* \"lib/EIP712.sol\":2896:2981  _CACHED_DOMAIN_SEPARATOR = _buildDomainSeparator(typeHash, hashedName, hashedVersion) */\n  0xa0\n  mstore\n    /* \"lib/EIP712.sol\":3014:3018  this */\n  address\n    /* \"lib/EIP712.sol\":2991:3019  _CACHED_THIS = address(this) */\n  0xe0\n  mstore\n    /* \"lib/EIP712.sol\":3029:3050  _TYPE_HASH = typeHash */\n  0x0140\n  mstore\n  pop\n  pop\n    /* \"lib/SolidDaoManaged.sol\":634:643  authority */\n  0x08\n    /* \"lib/SolidDaoManaged.sol\":634:656  authority = _authority */\n  dup1\n  sload\n  not(sub(shl(0xa0, 0x01), 0x01))\n  and\n  sub(shl(0xa0, 0x01), 0x01)\n  dup7\n  and\n  swap1\n  dup2\n  or\n  swap1\n  swap2\n  sstore\n    /* \"lib/SolidDaoManaged.sol\":671:699  AuthorityUpdated(_authority) */\n  mload(0x40)\n    /* \"lib/SolidDaoManaged.sol\":634:656  authority = _authority */\n  swap1\n  swap4\n  pop\n    /* \"lib/SolidDaoManaged.sol\":671:699  AuthorityUpdated(_authority) */\n  0x2f658b440c35314f52658ea8a740e05b284cdc84dc9ae01e891f21b8933e7cad\n  swap3\n  pop\n  0x00\n  swap2\n  pop\n  log2\n    /* \"lib/SolidDaoManaged.sol\":580:706  constructor(ISolidDaoManagement _authority) {... */\n  pop\n    /* \"SCTERC20.sol\":384:520  constructor(address _authority)... */\n  pop\n    /* \"SCTERC20.sol\":316:1223  contract SCTERC20Token is ERC20Permit, ISCT, SolidDaoManaged {... */\n  jump(tag_35)\ntag_2:\n  dup3\n  dup1\n  sload\n  tag_24\n  swap1\n  tag_25\n  jump\t// in\ntag_24:\n  swap1\n  0x00\n  mstore\n  keccak256(0x00, 0x20)\n  swap1\n  0x1f\n  add\n  0x20\n  swap1\n  div\n  dup2\n  add\n  swap3\n  dup3\n  tag_27\n  jumpi\n  0x00\n  dup6\n  sstore\n  jump(tag_30)\ntag_27:\n  dup3\n  0x1f\n  lt\n  tag_28\n  jumpi\n  dup1\n  mload\n  not(0xff)\n  and\n  dup4\n  dup1\n  add\n  or\n  dup6\n  sstore\n  jump(tag_30)\ntag_28:\n  dup3\n  dup1\n  add\n  0x01\n  add\n  dup6\n  sstore\n  dup3\n  iszero\n  tag_30\n  jumpi\n  swap2\n  dup3\n  add\ntag_29:\n  dup3\n  dup2\n  gt\n  iszero\n  tag_30\n  jumpi\n  dup3\n  mload\n  dup3\n  sstore\n  swap2\n  0x20\n  add\n  swap2\n  swap1\n  0x01\n  add\n  swap1\n  jump(tag_29)\ntag_30:\n  pop\n  tag_31\n  swap3\n  swap2\n  pop\n  tag_32\n  jump\t// in\ntag_31:\n  pop\n  swap1\n  jump\t// out\ntag_32:\ntag_33:\n  dup1\n  dup3\n  gt\n  iszero\n  tag_31\n  jumpi\n  0x00\n  dup2\n  sstore\n  0x01\n  add\n  jump(tag_33)\n    /* \"#utility.yul\":14:304   */\ntag_5:\n    /* \"#utility.yul\":84:90   */\n  0x00\n    /* \"#utility.yul\":137:139   */\n  0x20\n    /* \"#utility.yul\":125:134   */\n  dup3\n    /* \"#utility.yul\":116:123   */\n  dup5\n    /* \"#utility.yul\":112:135   */\n  sub\n    /* \"#utility.yul\":108:140   */\n  slt\n    /* \"#utility.yul\":105:157   */\n  iszero\n  tag_37\n  jumpi\n    /* \"#utility.yul\":153:154   */\n  0x00\n    /* \"#utility.yul\":150:151   */\n  dup1\n    /* \"#utility.yul\":143:155   */\n  revert\n    /* \"#utility.yul\":105:157   */\ntag_37:\n    /* \"#utility.yul\":179:195   */\n  dup2\n  mload\n  sub(shl(0xa0, 0x01), 0x01)\n    /* \"#utility.yul\":224:255   */\n  dup2\n  and\n    /* \"#utility.yul\":214:256   */\n  dup2\n  eq\n    /* \"#utility.yul\":204:274   */\n  tag_38\n  jumpi\n    /* \"#utility.yul\":270:271   */\n  0x00\n    /* \"#utility.yul\":267:268   */\n  dup1\n    /* \"#utility.yul\":260:272   */\n  revert\n    /* \"#utility.yul\":204:274   */\ntag_38:\n    /* \"#utility.yul\":293:298   */\n  swap4\n    /* \"#utility.yul\":14:304   */\n  swap3\n  pop\n  pop\n  pop\n  jump\t// out\n    /* \"#utility.yul\":803:1183   */\ntag_25:\n    /* \"#utility.yul\":882:883   */\n  0x01\n    /* \"#utility.yul\":878:890   */\n  dup2\n  dup2\n  shr\n  swap1\n    /* \"#utility.yul\":925:937   */\n  dup3\n  and\n  dup1\n    /* \"#utility.yul\":946:1007   */\n  tag_41\n  jumpi\n    /* \"#utility.yul\":1000:1004   */\n  0x7f\n    /* \"#utility.yul\":992:998   */\n  dup3\n    /* \"#utility.yul\":988:1005   */\n  and\n    /* \"#utility.yul\":978:1005   */\n  swap2\n  pop\n    /* \"#utility.yul\":946:1007   */\ntag_41:\n    /* \"#utility.yul\":1053:1055   */\n  0x20\n    /* \"#utility.yul\":1045:1051   */\n  dup3\n    /* \"#utility.yul\":1042:1056   */\n  lt\n    /* \"#utility.yul\":1022:1040   */\n  dup2\n    /* \"#utility.yul\":1019:1057   */\n  sub\n    /* \"#utility.yul\":1016:1177   */\n  tag_42\n  jumpi\n    /* \"#utility.yul\":1099:1109   */\n  0x4e487b71\n    /* \"#utility.yul\":1094:1097   */\n  0xe0\n    /* \"#utility.yul\":1090:1110   */\n  shl\n    /* \"#utility.yul\":1087:1088   */\n  0x00\n    /* \"#utility.yul\":1080:1111   */\n  mstore\n    /* \"#utility.yul\":1134:1138   */\n  0x22\n    /* \"#utility.yul\":1131:1132   */\n  0x04\n    /* \"#utility.yul\":1124:1139   */\n  mstore\n    /* \"#utility.yul\":1162:1166   */\n  0x24\n    /* \"#utility.yul\":1159:1160   */\n  0x00\n    /* \"#utility.yul\":1152:1167   */\n  revert\n    /* \"#utility.yul\":1016:1177   */\ntag_42:\n  pop\n    /* \"#utility.yul\":803:1183   */\n  swap2\n  swap1\n  pop\n  jump\t// out\ntag_35:\n    /* \"SCTERC20.sol\":316:1223  contract SCTERC20Token is ERC20Permit, ISCT, SolidDaoManaged {... */\n  mload(0x80)\n  mload(0xa0)\n  mload(0xc0)\n  mload(0xe0)\n  mload(0x0100)\n  mload(0x0120)\n  mload(0x0140)\n  codecopy(0x00, dataOffset(sub_0), dataSize(sub_0))\n  0x00\n  assignImmutable(\"0x1d2b7ce2c7309c0ae499257b4d570bbc2aa804a132076a507e13da63d22f2ea8\")\n  0x00\n  assignImmutable(\"0xf44e26cb6192c7a70f026ebae4c4bdf0822fd8ec199501187afd94cd2c3c7097\")\n  0x00\n  assignImmutable(\"0xc5e1f1d4bf9d5972febd47f77b791d34fca2c4f78e047aba365c0f66e5d88c39\")\n  0x00\n  assignImmutable(\"0xd3dad2b3fa6464c5d12f6373a47a6014623e3f162de557e09b0006ceac3fe4f9\")\n  0x00\n  assignImmutable(\"0xa9903e230a4a4f2af602b37c0f984d2b43537f89ce9d4cfbf1232e27c498bd38\")\n  0x00\n  assignImmutable(\"0x02f6903e55725b8fb1e67e68fc4dfbf8e90ced5ec278dfd2021debfe4c69d139\")\n  0x00\n  assignImmutable(\"0xbfa4c3ea5a2d294d938e01522babaca2aa640becce055f0bd2b924f41632ea8d\")\n  return(0x00, dataSize(sub_0))\nstop\n\nsub_0: assembly {\n        /* \"SCTERC20.sol\":316:1223  contract SCTERC20Token is ERC20Permit, ISCT, SolidDaoManaged {... */\n      mstore(0x40, 0x80)\n      callvalue\n      dup1\n      iszero\n      tag_1\n      jumpi\n      0x00\n      dup1\n      revert\n    tag_1:\n      pop\n      jumpi(tag_2, lt(calldatasize, 0x04))\n      shr(0xe0, calldataload(0x00))\n      dup1\n      0x70a08231\n      gt\n      tag_22\n      jumpi\n      dup1\n      0xa457c2d7\n      gt\n      tag_23\n      jumpi\n      dup1\n      0xa457c2d7\n      eq\n      tag_17\n      jumpi\n      dup1\n      0xa9059cbb\n      eq\n      tag_18\n      jumpi\n      dup1\n      0xbf7e214f\n      eq\n      tag_19\n      jumpi\n      dup1\n      0xd505accf\n      eq\n      tag_20\n      jumpi\n      dup1\n      0xdd62ed3e\n      eq\n      tag_21\n      jumpi\n      0x00\n      dup1\n      revert\n    tag_23:\n      dup1\n      0x70a08231\n      eq\n      tag_12\n      jumpi\n      dup1\n      0x79cc6790\n      eq\n      tag_13\n      jumpi\n      dup1\n      0x7a9e5e4b\n      eq\n      tag_14\n      jumpi\n      dup1\n      0x7ecebe00\n      eq\n      tag_15\n      jumpi\n      dup1\n      0x95d89b41\n      eq\n      tag_16\n      jumpi\n      0x00\n      dup1\n      revert\n    tag_22:\n      dup1\n      0x313ce567\n      gt\n      tag_24\n      jumpi\n      dup1\n      0x313ce567\n      eq\n      tag_7\n      jumpi\n      dup1\n      0x3644e515\n      eq\n      tag_8\n      jumpi\n      dup1\n      0x39509351\n      eq\n      tag_9\n      jumpi\n      dup1\n      0x40c10f19\n      eq\n      tag_10\n      jumpi\n      dup1\n      0x42966c68\n      eq\n      tag_11\n      jumpi\n      0x00\n      dup1\n      revert\n    tag_24:\n      dup1\n      0x06fdde03\n      eq\n      tag_3\n      jumpi\n      dup1\n      0x095ea7b3\n      eq\n      tag_4\n      jumpi\n      dup1\n      0x18160ddd\n      eq\n      tag_5\n      jumpi\n      dup1\n      0x23b872dd\n      eq\n      tag_6\n      jumpi\n    tag_2:\n      0x00\n      dup1\n      revert\n        /* \"tokens/ERC20.sol\":2030:2128  function name() public view virtual override returns (string memory) {... */\n    tag_3:\n      tag_25\n      tag_26\n      jump\t// in\n    tag_25:\n      mload(0x40)\n      tag_27\n      swap2\n      swap1\n      tag_28\n      jump\t// in\n    tag_27:\n      mload(0x40)\n      dup1\n      swap2\n      sub\n      swap1\n      return\n        /* \"tokens/ERC20.sol\":4314:4511  function approve(address spender, uint256 amount) public virtual override returns (bool) {... */\n    tag_4:\n      tag_29\n      tag_30\n      calldatasize\n      0x04\n      tag_31\n      jump\t// in\n    tag_30:\n      tag_32\n      jump\t// in\n    tag_29:\n      mload(0x40)\n        /* \"#utility.yul\":1392:1406   */\n      swap1\n      iszero\n        /* \"#utility.yul\":1385:1407   */\n      iszero\n        /* \"#utility.yul\":1367:1408   */\n      dup2\n      mstore\n        /* \"#utility.yul\":1355:1357   */\n      0x20\n        /* \"#utility.yul\":1340:1358   */\n      add\n        /* \"tokens/ERC20.sol\":4314:4511  function approve(address spender, uint256 amount) public virtual override returns (bool) {... */\n      tag_27\n        /* \"#utility.yul\":1227:1414   */\n      jump\n        /* \"tokens/ERC20.sol\":3125:3231  function totalSupply() public view virtual override returns (uint256) {... */\n    tag_5:\n        /* \"tokens/ERC20.sol\":3212:3224  _totalSupply */\n      sload(0x02)\n        /* \"tokens/ERC20.sol\":3125:3231  function totalSupply() public view virtual override returns (uint256) {... */\n    tag_35:\n      mload(0x40)\n        /* \"#utility.yul\":1565:1590   */\n      swap1\n      dup2\n      mstore\n        /* \"#utility.yul\":1553:1555   */\n      0x20\n        /* \"#utility.yul\":1538:1556   */\n      add\n        /* \"tokens/ERC20.sol\":3125:3231  function totalSupply() public view virtual override returns (uint256) {... */\n      tag_27\n        /* \"#utility.yul\":1419:1596   */\n      jump\n        /* \"tokens/ERC20.sol\":5073:5359  function transferFrom(... */\n    tag_6:\n      tag_29\n      tag_40\n      calldatasize\n      0x04\n      tag_41\n      jump\t// in\n    tag_40:\n      tag_42\n      jump\t// in\n        /* \"tokens/ERC20.sol\":2967:3065  function decimals() public view virtual override returns (uint8) {... */\n    tag_7:\n      mload(0x40)\n        /* \"#utility.yul\":2234:2238   */\n      0xff\n        /* \"tokens/ERC20.sol\":3049:3058  _decimals */\n      immutable(\"0xbfa4c3ea5a2d294d938e01522babaca2aa640becce055f0bd2b924f41632ea8d\")\n        /* \"#utility.yul\":2222:2239   */\n      and\n        /* \"#utility.yul\":2204:2240   */\n      dup2\n      mstore\n        /* \"#utility.yul\":2192:2194   */\n      0x20\n        /* \"#utility.yul\":2177:2195   */\n      add\n        /* \"tokens/ERC20.sol\":2967:3065  function decimals() public view virtual override returns (uint8) {... */\n      tag_27\n        /* \"#utility.yul\":2062:2246   */\n      jump\n        /* \"lib/ERC20Permit.sol\":2812:2925  function DOMAIN_SEPARATOR() external view override returns (bytes32) {... */\n    tag_8:\n      tag_35\n      tag_49\n      jump\t// in\n        /* \"tokens/ERC20.sol\":5754:5988  function increaseAllowance(address spender, uint256 addedValue) public virtual returns (bool) {... */\n    tag_9:\n      tag_29\n      tag_53\n      calldatasize\n      0x04\n      tag_31\n      jump\t// in\n    tag_53:\n      tag_54\n      jump\t// in\n        /* \"SCTERC20.sol\":526:644  function mint(address account_, uint256 amount_) external override onlyVault {... */\n    tag_10:\n      tag_56\n      tag_57\n      calldatasize\n      0x04\n      tag_31\n      jump\t// in\n    tag_57:\n      tag_58\n      jump\t// in\n    tag_56:\n      stop\n        /* \"SCTERC20.sol\":650:740  function burn(uint256 amount) external override {... */\n    tag_11:\n      tag_56\n      tag_60\n      calldatasize\n      0x04\n      tag_61\n      jump\t// in\n    tag_60:\n      tag_62\n      jump\t// in\n        /* \"tokens/ERC20.sol\":3289:3414  function balanceOf(address account) public view virtual override returns (uint256) {... */\n    tag_12:\n      tag_35\n      tag_64\n      calldatasize\n      0x04\n      tag_65\n      jump\t// in\n    tag_64:\n      sub(shl(0xa0, 0x01), 0x01)\n        /* \"tokens/ERC20.sol\":3389:3407  _balances[account] */\n      and\n        /* \"tokens/ERC20.sol\":3363:3370  uint256 */\n      0x00\n        /* \"tokens/ERC20.sol\":3389:3407  _balances[account] */\n      swap1\n      dup2\n      mstore\n      0x20\n      dup2\n      swap1\n      mstore\n      0x40\n      swap1\n      keccak256\n      sload\n      swap1\n        /* \"tokens/ERC20.sol\":3289:3414  function balanceOf(address account) public view virtual override returns (uint256) {... */\n      jump\n        /* \"SCTERC20.sol\":746:862  function burnFrom(address account_, uint256 amount_) external override {... */\n    tag_13:\n      tag_56\n      tag_69\n      calldatasize\n      0x04\n      tag_31\n      jump\t// in\n    tag_69:\n      tag_70\n      jump\t// in\n        /* \"lib/SolidDaoManaged.sol\":2055:2222  function setAuthority(ISolidDaoManagement _newAuthority) external onlyGovernor {... */\n    tag_14:\n      tag_56\n      tag_72\n      calldatasize\n      0x04\n      tag_65\n      jump\t// in\n    tag_72:\n      tag_74\n      jump\t// in\n        /* \"lib/ERC20Permit.sol\":2562:2688  function nonces(address owner) public view virtual override returns (uint256) {... */\n    tag_15:\n      tag_35\n      tag_76\n      calldatasize\n      0x04\n      tag_65\n      jump\t// in\n    tag_76:\n      tag_77\n      jump\t// in\n        /* \"tokens/ERC20.sol\":2241:2343  function symbol() public view virtual override returns (string memory) {... */\n    tag_16:\n      tag_25\n      tag_80\n      jump\t// in\n        /* \"tokens/ERC20.sol\":6475:6902  function decreaseAllowance(address spender, uint256 subtractedValue) public virtual returns (bool) {... */\n    tag_17:\n      tag_29\n      tag_83\n      calldatasize\n      0x04\n      tag_31\n      jump\t// in\n    tag_83:\n      tag_84\n      jump\t// in\n        /* \"tokens/ERC20.sol\":3610:3799  function transfer(address to, uint256 amount) public virtual override returns (bool) {... */\n    tag_18:\n      tag_29\n      tag_87\n      calldatasize\n      0x04\n      tag_31\n      jump\t// in\n    tag_87:\n      tag_88\n      jump\t// in\n        /* \"lib/SolidDaoManaged.sol\":537:573  ISolidDaoManagement public authority */\n    tag_19:\n      sload(0x08)\n      tag_90\n      swap1\n      sub(shl(0xa0, 0x01), 0x01)\n      and\n      dup2\n      jump\n    tag_90:\n      mload(0x40)\n      sub(shl(0xa0, 0x01), 0x01)\n        /* \"#utility.yul\":3340:3372   */\n      swap1\n      swap2\n      and\n        /* \"#utility.yul\":3322:3373   */\n      dup2\n      mstore\n        /* \"#utility.yul\":3310:3312   */\n      0x20\n        /* \"#utility.yul\":3295:3313   */\n      add\n        /* \"lib/SolidDaoManaged.sol\":537:573  ISolidDaoManagement public authority */\n      tag_27\n        /* \"#utility.yul\":3149:3379   */\n      jump\n        /* \"lib/ERC20Permit.sol\":1875:2501  function permit(... */\n    tag_20:\n      tag_56\n      tag_95\n      calldatasize\n      0x04\n      tag_96\n      jump\t// in\n    tag_95:\n      tag_97\n      jump\t// in\n        /* \"tokens/ERC20.sol\":3857:4006  function allowance(address owner, address spender) public view virtual override returns (uint256) {... */\n    tag_21:\n      tag_35\n      tag_99\n      calldatasize\n      0x04\n      tag_100\n      jump\t// in\n    tag_99:\n      tag_101\n      jump\t// in\n        /* \"tokens/ERC20.sol\":2030:2128  function name() public view virtual override returns (string memory) {... */\n    tag_26:\n        /* \"tokens/ERC20.sol\":2084:2097  string memory */\n      0x60\n        /* \"tokens/ERC20.sol\":2116:2121  _name */\n      0x03\n        /* \"tokens/ERC20.sol\":2109:2121  return _name */\n      dup1\n      sload\n      tag_104\n      swap1\n      tag_105\n      jump\t// in\n    tag_104:\n      dup1\n      0x1f\n      add\n      0x20\n      dup1\n      swap2\n      div\n      mul\n      0x20\n      add\n      mload(0x40)\n      swap1\n      dup2\n      add\n      0x40\n      mstore\n      dup1\n      swap3\n      swap2\n      swap1\n      dup2\n      dup2\n      mstore\n      0x20\n      add\n      dup3\n      dup1\n      sload\n      tag_106\n      swap1\n      tag_105\n      jump\t// in\n    tag_106:\n      dup1\n      iszero\n      tag_107\n      jumpi\n      dup1\n      0x1f\n      lt\n      tag_108\n      jumpi\n      0x0100\n      dup1\n      dup4\n      sload\n      div\n      mul\n      dup4\n      mstore\n      swap2\n      0x20\n      add\n      swap2\n      jump(tag_107)\n    tag_108:\n      dup3\n      add\n      swap2\n      swap1\n      0x00\n      mstore\n      keccak256(0x00, 0x20)\n      swap1\n    tag_109:\n      dup2\n      sload\n      dup2\n      mstore\n      swap1\n      0x01\n      add\n      swap1\n      0x20\n      add\n      dup1\n      dup4\n      gt\n      tag_109\n      jumpi\n      dup3\n      swap1\n      sub\n      0x1f\n      and\n      dup3\n      add\n      swap2\n    tag_107:\n      pop\n      pop\n      pop\n      pop\n      pop\n      swap1\n      pop\n        /* \"tokens/ERC20.sol\":2030:2128  function name() public view virtual override returns (string memory) {... */\n      swap1\n      jump\t// out\n        /* \"tokens/ERC20.sol\":4314:4511  function approve(address spender, uint256 amount) public virtual override returns (bool) {... */\n    tag_32:\n        /* \"tokens/ERC20.sol\":4397:4401  bool */\n      0x00\n        /* \"lib/Context.sol\":719:729  msg.sender */\n      caller\n        /* \"tokens/ERC20.sol\":4451:4483  _approve(owner, spender, amount) */\n      tag_113\n        /* \"lib/Context.sol\":719:729  msg.sender */\n      dup2\n        /* \"tokens/ERC20.sol\":4467:4474  spender */\n      dup6\n        /* \"tokens/ERC20.sol\":4476:4482  amount */\n      dup6\n        /* \"tokens/ERC20.sol\":4451:4459  _approve */\n      tag_114\n        /* \"tokens/ERC20.sol\":4451:4483  _approve(owner, spender, amount) */\n      jump\t// in\n    tag_113:\n      pop\n        /* \"tokens/ERC20.sol\":4500:4504  true */\n      0x01\n      swap4\n        /* \"tokens/ERC20.sol\":4314:4511  function approve(address spender, uint256 amount) public virtual override returns (bool) {... */\n      swap3\n      pop\n      pop\n      pop\n      jump\t// out\n        /* \"tokens/ERC20.sol\":5073:5359  function transferFrom(... */\n    tag_42:\n        /* \"tokens/ERC20.sol\":5200:5204  bool */\n      0x00\n        /* \"lib/Context.sol\":719:729  msg.sender */\n      caller\n        /* \"tokens/ERC20.sol\":5256:5294  _spendAllowance(from, spender, amount) */\n      tag_118\n        /* \"tokens/ERC20.sol\":5272:5276  from */\n      dup6\n        /* \"lib/Context.sol\":719:729  msg.sender */\n      dup3\n        /* \"tokens/ERC20.sol\":5287:5293  amount */\n      dup6\n        /* \"tokens/ERC20.sol\":5256:5271  _spendAllowance */\n      tag_119\n        /* \"tokens/ERC20.sol\":5256:5294  _spendAllowance(from, spender, amount) */\n      jump\t// in\n    tag_118:\n        /* \"tokens/ERC20.sol\":5304:5331  _transfer(from, to, amount) */\n      tag_120\n        /* \"tokens/ERC20.sol\":5314:5318  from */\n      dup6\n        /* \"tokens/ERC20.sol\":5320:5322  to */\n      dup6\n        /* \"tokens/ERC20.sol\":5324:5330  amount */\n      dup6\n        /* \"tokens/ERC20.sol\":5304:5313  _transfer */\n      tag_121\n        /* \"tokens/ERC20.sol\":5304:5331  _transfer(from, to, amount) */\n      jump\t// in\n    tag_120:\n      pop\n        /* \"tokens/ERC20.sol\":5348:5352  true */\n      0x01\n      swap5\n        /* \"tokens/ERC20.sol\":5073:5359  function transferFrom(... */\n      swap4\n      pop\n      pop\n      pop\n      pop\n      jump\t// out\n        /* \"lib/ERC20Permit.sol\":2812:2925  function DOMAIN_SEPARATOR() external view override returns (bytes32) {... */\n    tag_49:\n        /* \"lib/ERC20Permit.sol\":2872:2879  bytes32 */\n      0x00\n        /* \"lib/ERC20Permit.sol\":2898:2918  _domainSeparatorV4() */\n      tag_124\n        /* \"lib/ERC20Permit.sol\":2898:2916  _domainSeparatorV4 */\n      tag_125\n        /* \"lib/ERC20Permit.sol\":2898:2918  _domainSeparatorV4() */\n      jump\t// in\n    tag_124:\n        /* \"lib/ERC20Permit.sol\":2891:2918  return _domainSeparatorV4() */\n      swap1\n      pop\n        /* \"lib/ERC20Permit.sol\":2812:2925  function DOMAIN_SEPARATOR() external view override returns (bytes32) {... */\n      swap1\n      jump\t// out\n        /* \"tokens/ERC20.sol\":5754:5988  function increaseAllowance(address spender, uint256 addedValue) public virtual returns (bool) {... */\n    tag_54:\n        /* \"tokens/ERC20.sol\":5842:5846  bool */\n      0x00\n        /* \"lib/Context.sol\":719:729  msg.sender */\n      caller\n        /* \"tokens/ERC20.sol\":5896:5960  _approve(owner, spender, allowance(owner, spender) + addedValue) */\n      tag_113\n        /* \"lib/Context.sol\":719:729  msg.sender */\n      dup2\n        /* \"tokens/ERC20.sol\":5912:5919  spender */\n      dup6\n        /* \"tokens/ERC20.sol\":5949:5959  addedValue */\n      dup6\n        /* \"tokens/ERC20.sol\":5921:5946  allowance(owner, spender) */\n      tag_129\n        /* \"lib/Context.sol\":719:729  msg.sender */\n      dup4\n        /* \"tokens/ERC20.sol\":5912:5919  spender */\n      dup4\n        /* \"tokens/ERC20.sol\":5921:5930  allowance */\n      tag_101\n        /* \"tokens/ERC20.sol\":5921:5946  allowance(owner, spender) */\n      jump\t// in\n    tag_129:\n        /* \"tokens/ERC20.sol\":5921:5959  allowance(owner, spender) + addedValue */\n      tag_130\n      swap2\n      swap1\n      tag_131\n      jump\t// in\n    tag_130:\n        /* \"tokens/ERC20.sol\":5896:5904  _approve */\n      tag_114\n        /* \"tokens/ERC20.sol\":5896:5960  _approve(owner, spender, allowance(owner, spender) + addedValue) */\n      jump\t// in\n        /* \"SCTERC20.sol\":526:644  function mint(address account_, uint256 amount_) external override onlyVault {... */\n    tag_58:\n        /* \"lib/SolidDaoManaged.sol\":1777:1786  authority */\n      0x08\n      0x00\n      swap1\n      sload\n      swap1\n      0x0100\n      exp\n      swap1\n      div\n      sub(shl(0xa0, 0x01), 0x01)\n      and\n      sub(shl(0xa0, 0x01), 0x01)\n        /* \"lib/SolidDaoManaged.sol\":1777:1792  authority.vault */\n      and\n      0xfbfa77cf\n        /* \"lib/SolidDaoManaged.sol\":1777:1794  authority.vault() */\n      mload(0x40)\n      dup2\n      0xffffffff\n      and\n      0xe0\n      shl\n      dup2\n      mstore\n      0x04\n      add\n      0x20\n      mload(0x40)\n      dup1\n      dup4\n      sub\n      dup2\n      dup7\n      gas\n      staticcall\n      iszero\n      dup1\n      iszero\n      tag_134\n      jumpi\n      returndatasize\n      0x00\n      dup1\n      returndatacopy\n      revert(0x00, returndatasize)\n    tag_134:\n      pop\n      pop\n      pop\n      pop\n      mload(0x40)\n      returndatasize\n      not(0x1f)\n      0x1f\n      dup3\n      add\n      and\n      dup3\n      add\n      dup1\n      0x40\n      mstore\n      pop\n      dup2\n      add\n      swap1\n      tag_135\n      swap2\n      swap1\n      tag_136\n      jump\t// in\n    tag_135:\n      sub(shl(0xa0, 0x01), 0x01)\n        /* \"lib/SolidDaoManaged.sol\":1763:1794  msg.sender == authority.vault() */\n      and\n        /* \"lib/SolidDaoManaged.sol\":1763:1773  msg.sender */\n      caller\n      sub(shl(0xa0, 0x01), 0x01)\n        /* \"lib/SolidDaoManaged.sol\":1763:1794  msg.sender == authority.vault() */\n      and\n      eq\n        /* \"lib/SolidDaoManaged.sol\":1796:1808  UNAUTHORIZED */\n      0x07\n        /* \"lib/SolidDaoManaged.sol\":1755:1809  require(msg.sender == authority.vault(), UNAUTHORIZED) */\n      swap1\n      tag_137\n      jumpi\n      mload(0x40)\n      shl(0xe5, 0x461bcd)\n      dup2\n      mstore\n      0x04\n      add\n      tag_138\n      swap2\n      swap1\n      tag_139\n      jump\t// in\n    tag_138:\n      mload(0x40)\n      dup1\n      swap2\n      sub\n      swap1\n      revert\n    tag_137:\n      pop\n        /* \"SCTERC20.sol\":613:637  _mint(account_, amount_) */\n      tag_141\n        /* \"SCTERC20.sol\":619:627  account_ */\n      dup3\n        /* \"SCTERC20.sol\":629:636  amount_ */\n      dup3\n        /* \"SCTERC20.sol\":613:618  _mint */\n      tag_142\n        /* \"SCTERC20.sol\":613:637  _mint(account_, amount_) */\n      jump\t// in\n    tag_141:\n        /* \"SCTERC20.sol\":526:644  function mint(address account_, uint256 amount_) external override onlyVault {... */\n      pop\n      pop\n      jump\t// out\n        /* \"SCTERC20.sol\":650:740  function burn(uint256 amount) external override {... */\n    tag_62:\n        /* \"SCTERC20.sol\":708:733  _burn(msg.sender, amount) */\n      tag_144\n        /* \"SCTERC20.sol\":714:724  msg.sender */\n      caller\n        /* \"SCTERC20.sol\":726:732  amount */\n      dup3\n        /* \"SCTERC20.sol\":708:713  _burn */\n      tag_145\n        /* \"SCTERC20.sol\":708:733  _burn(msg.sender, amount) */\n      jump\t// in\n    tag_144:\n        /* \"SCTERC20.sol\":650:740  function burn(uint256 amount) external override {... */\n      pop\n      jump\t// out\n        /* \"SCTERC20.sol\":746:862  function burnFrom(address account_, uint256 amount_) external override {... */\n    tag_70:\n        /* \"SCTERC20.sol\":827:855  _burnFrom(account_, amount_) */\n      tag_141\n        /* \"SCTERC20.sol\":837:845  account_ */\n      dup3\n        /* \"SCTERC20.sol\":847:854  amount_ */\n      dup3\n        /* \"SCTERC20.sol\":827:836  _burnFrom */\n      tag_149\n        /* \"SCTERC20.sol\":827:855  _burnFrom(account_, amount_) */\n      jump\t// in\n        /* \"lib/SolidDaoManaged.sol\":2055:2222  function setAuthority(ISolidDaoManagement _newAuthority) external onlyGovernor {... */\n    tag_74:\n        /* \"lib/SolidDaoManaged.sol\":938:947  authority */\n      0x08\n      0x00\n      swap1\n      sload\n      swap1\n      0x0100\n      exp\n      swap1\n      div\n      sub(shl(0xa0, 0x01), 0x01)\n      and\n      sub(shl(0xa0, 0x01), 0x01)\n        /* \"lib/SolidDaoManaged.sol\":938:956  authority.governor */\n      and\n      0x0c340a24\n        /* \"lib/SolidDaoManaged.sol\":938:958  authority.governor() */\n      mload(0x40)\n      dup2\n      0xffffffff\n      and\n      0xe0\n      shl\n      dup2\n      mstore\n      0x04\n      add\n      0x20\n      mload(0x40)\n      dup1\n      dup4\n      sub\n      dup2\n      dup7\n      gas\n      staticcall\n      iszero\n      dup1\n      iszero\n      tag_152\n      jumpi\n      returndatasize\n      0x00\n      dup1\n      returndatacopy\n      revert(0x00, returndatasize)\n    tag_152:\n      pop\n      pop\n      pop\n      pop\n      mload(0x40)\n      returndatasize\n      not(0x1f)\n      0x1f\n      dup3\n      add\n      and\n      dup3\n      add\n      dup1\n      0x40\n      mstore\n      pop\n      dup2\n      add\n      swap1\n      tag_153\n      swap2\n      swap1\n      tag_136\n      jump\t// in\n    tag_153:\n      sub(shl(0xa0, 0x01), 0x01)\n        /* \"lib/SolidDaoManaged.sol\":924:958  msg.sender == authority.governor() */\n      and\n        /* \"lib/SolidDaoManaged.sol\":924:934  msg.sender */\n      caller\n      sub(shl(0xa0, 0x01), 0x01)\n        /* \"lib/SolidDaoManaged.sol\":924:958  msg.sender == authority.governor() */\n      and\n      eq\n        /* \"lib/SolidDaoManaged.sol\":960:972  UNAUTHORIZED */\n      0x07\n        /* \"lib/SolidDaoManaged.sol\":916:973  require(msg.sender == authority.governor(), UNAUTHORIZED) */\n      swap1\n      tag_154\n      jumpi\n      mload(0x40)\n      shl(0xe5, 0x461bcd)\n      dup2\n      mstore\n      0x04\n      add\n      tag_138\n      swap2\n      swap1\n      tag_139\n      jump\t// in\n    tag_154:\n      pop\n        /* \"lib/SolidDaoManaged.sol\":2144:2153  authority */\n      0x08\n        /* \"lib/SolidDaoManaged.sol\":2144:2169  authority = _newAuthority */\n      dup1\n      sload\n      not(sub(shl(0xa0, 0x01), 0x01))\n      and\n      sub(shl(0xa0, 0x01), 0x01)\n      dup4\n      and\n      swap1\n      dup2\n      or\n      swap1\n      swap2\n      sstore\n        /* \"lib/SolidDaoManaged.sol\":2184:2215  AuthorityUpdated(_newAuthority) */\n      mload(0x40)\n      0x2f658b440c35314f52658ea8a740e05b284cdc84dc9ae01e891f21b8933e7cad\n      swap1\n      0x00\n      swap1\n      log2\n        /* \"lib/SolidDaoManaged.sol\":2055:2222  function setAuthority(ISolidDaoManagement _newAuthority) external onlyGovernor {... */\n      pop\n      jump\t// out\n        /* \"lib/ERC20Permit.sol\":2562:2688  function nonces(address owner) public view virtual override returns (uint256) {... */\n    tag_77:\n      sub(shl(0xa0, 0x01), 0x01)\n        /* \"lib/ERC20Permit.sol\":2657:2671  _nonces[owner] */\n      dup2\n      and\n        /* \"lib/ERC20Permit.sol\":2631:2638  uint256 */\n      0x00\n        /* \"lib/ERC20Permit.sol\":2657:2671  _nonces[owner] */\n      swap1\n      dup2\n      mstore\n        /* \"lib/ERC20Permit.sol\":2657:2664  _nonces */\n      0x05\n        /* \"lib/ERC20Permit.sol\":2657:2671  _nonces[owner] */\n      0x20\n      mstore\n      0x40\n      dup2\n      keccak256\n        /* \"lib/Counters.sol\":918:932  counter._value */\n      sload\n        /* \"lib/ERC20Permit.sol\":2657:2681  _nonces[owner].current() */\n    tag_158:\n        /* \"lib/ERC20Permit.sol\":2650:2681  return _nonces[owner].current() */\n      swap3\n        /* \"lib/ERC20Permit.sol\":2562:2688  function nonces(address owner) public view virtual override returns (uint256) {... */\n      swap2\n      pop\n      pop\n      jump\t// out\n        /* \"tokens/ERC20.sol\":2241:2343  function symbol() public view virtual override returns (string memory) {... */\n    tag_80:\n        /* \"tokens/ERC20.sol\":2297:2310  string memory */\n      0x60\n        /* \"tokens/ERC20.sol\":2329:2336  _symbol */\n      0x04\n        /* \"tokens/ERC20.sol\":2322:2336  return _symbol */\n      dup1\n      sload\n      tag_104\n      swap1\n      tag_105\n      jump\t// in\n        /* \"tokens/ERC20.sol\":6475:6902  function decreaseAllowance(address spender, uint256 subtractedValue) public virtual returns (bool) {... */\n    tag_84:\n        /* \"tokens/ERC20.sol\":6568:6572  bool */\n      0x00\n        /* \"lib/Context.sol\":719:729  msg.sender */\n      caller\n        /* \"tokens/ERC20.sol\":6568:6572  bool */\n      dup2\n        /* \"tokens/ERC20.sol\":6649:6674  allowance(owner, spender) */\n      tag_168\n        /* \"lib/Context.sol\":719:729  msg.sender */\n      dup3\n        /* \"tokens/ERC20.sol\":6666:6673  spender */\n      dup7\n        /* \"tokens/ERC20.sol\":6649:6658  allowance */\n      tag_101\n        /* \"tokens/ERC20.sol\":6649:6674  allowance(owner, spender) */\n      jump\t// in\n    tag_168:\n        /* \"tokens/ERC20.sol\":6622:6674  uint256 currentAllowance = allowance(owner, spender) */\n      swap1\n      pop\n        /* \"tokens/ERC20.sol\":6712:6727  subtractedValue */\n      dup4\n        /* \"tokens/ERC20.sol\":6692:6708  currentAllowance */\n      dup2\n        /* \"tokens/ERC20.sol\":6692:6727  currentAllowance >= subtractedValue */\n      lt\n      iszero\n        /* \"tokens/ERC20.sol\":6684:6769  require(currentAllowance >= subtractedValue, \"ERC20: decreased allowance below zero\") */\n      tag_169\n      jumpi\n      mload(0x40)\n      shl(0xe5, 0x461bcd)\n      dup2\n      mstore\n        /* \"#utility.yul\":7036:7038   */\n      0x20\n        /* \"tokens/ERC20.sol\":6684:6769  require(currentAllowance >= subtractedValue, \"ERC20: decreased allowance below zero\") */\n      0x04\n      dup3\n      add\n        /* \"#utility.yul\":7018:7039   */\n      mstore\n        /* \"#utility.yul\":7075:7077   */\n      0x25\n        /* \"#utility.yul\":7055:7073   */\n      0x24\n      dup3\n      add\n        /* \"#utility.yul\":7048:7078   */\n      mstore\n        /* \"#utility.yul\":7114:7148   */\n      0x45524332303a2064656372656173656420616c6c6f77616e63652062656c6f77\n        /* \"#utility.yul\":7094:7112   */\n      0x44\n      dup3\n      add\n        /* \"#utility.yul\":7087:7149   */\n      mstore\n      shl(0xd8, 0x207a65726f)\n        /* \"#utility.yul\":7165:7183   */\n      0x64\n      dup3\n      add\n        /* \"#utility.yul\":7158:7193   */\n      mstore\n        /* \"#utility.yul\":7210:7229   */\n      0x84\n      add\n        /* \"tokens/ERC20.sol\":6684:6769  require(currentAllowance >= subtractedValue, \"ERC20: decreased allowance below zero\") */\n      tag_138\n        /* \"#utility.yul\":6834:7235   */\n      jump\n        /* \"tokens/ERC20.sol\":6684:6769  require(currentAllowance >= subtractedValue, \"ERC20: decreased allowance below zero\") */\n    tag_169:\n        /* \"tokens/ERC20.sol\":6803:6863  _approve(owner, spender, currentAllowance - subtractedValue) */\n      tag_120\n        /* \"tokens/ERC20.sol\":6812:6817  owner */\n      dup3\n        /* \"tokens/ERC20.sol\":6819:6826  spender */\n      dup7\n        /* \"tokens/ERC20.sol\":6847:6862  subtractedValue */\n      dup7\n        /* \"tokens/ERC20.sol\":6828:6844  currentAllowance */\n      dup5\n        /* \"tokens/ERC20.sol\":6828:6862  currentAllowance - subtractedValue */\n      sub\n        /* \"tokens/ERC20.sol\":6803:6811  _approve */\n      tag_114\n        /* \"tokens/ERC20.sol\":6803:6863  _approve(owner, spender, currentAllowance - subtractedValue) */\n      jump\t// in\n        /* \"tokens/ERC20.sol\":3610:3799  function transfer(address to, uint256 amount) public virtual override returns (bool) {... */\n    tag_88:\n        /* \"tokens/ERC20.sol\":3689:3693  bool */\n      0x00\n        /* \"lib/Context.sol\":719:729  msg.sender */\n      caller\n        /* \"tokens/ERC20.sol\":3743:3771  _transfer(owner, to, amount) */\n      tag_113\n        /* \"lib/Context.sol\":719:729  msg.sender */\n      dup2\n        /* \"tokens/ERC20.sol\":3760:3762  to */\n      dup6\n        /* \"tokens/ERC20.sol\":3764:3770  amount */\n      dup6\n        /* \"tokens/ERC20.sol\":3743:3752  _transfer */\n      tag_121\n        /* \"tokens/ERC20.sol\":3743:3771  _transfer(owner, to, amount) */\n      jump\t// in\n        /* \"lib/ERC20Permit.sol\":1875:2501  function permit(... */\n    tag_97:\n        /* \"lib/ERC20Permit.sol\":2110:2118  deadline */\n      dup4\n        /* \"lib/ERC20Permit.sol\":2091:2106  block.timestamp */\n      timestamp\n        /* \"lib/ERC20Permit.sol\":2091:2118  block.timestamp <= deadline */\n      gt\n      iszero\n        /* \"lib/ERC20Permit.sol\":2083:2152  require(block.timestamp <= deadline, \"ERC20Permit: expired deadline\") */\n      tag_177\n      jumpi\n      mload(0x40)\n      shl(0xe5, 0x461bcd)\n      dup2\n      mstore\n        /* \"#utility.yul\":7442:7444   */\n      0x20\n        /* \"lib/ERC20Permit.sol\":2083:2152  require(block.timestamp <= deadline, \"ERC20Permit: expired deadline\") */\n      0x04\n      dup3\n      add\n        /* \"#utility.yul\":7424:7445   */\n      mstore\n        /* \"#utility.yul\":7481:7483   */\n      0x1d\n        /* \"#utility.yul\":7461:7479   */\n      0x24\n      dup3\n      add\n        /* \"#utility.yul\":7454:7484   */\n      mstore\n        /* \"#utility.yul\":7520:7551   */\n      0x45524332305065726d69743a206578706972656420646561646c696e65000000\n        /* \"#utility.yul\":7500:7518   */\n      0x44\n      dup3\n      add\n        /* \"#utility.yul\":7493:7552   */\n      mstore\n        /* \"#utility.yul\":7569:7587   */\n      0x64\n      add\n        /* \"lib/ERC20Permit.sol\":2083:2152  require(block.timestamp <= deadline, \"ERC20Permit: expired deadline\") */\n      tag_138\n        /* \"#utility.yul\":7240:7593   */\n      jump\n        /* \"lib/ERC20Permit.sol\":2083:2152  require(block.timestamp <= deadline, \"ERC20Permit: expired deadline\") */\n    tag_177:\n        /* \"lib/ERC20Permit.sol\":2163:2181  bytes32 structHash */\n      0x00\n        /* \"lib/ERC20Permit.sol\":1070:1165  keccak256(\"Permit(address owner,address spender,uint256 value,uint256 nonce,uint256 deadline)\") */\n      0x6e71edae12b1b97f4d1f60370fef10105fa2faae0126114a169c64845d6126c9\n        /* \"lib/ERC20Permit.sol\":2223:2228  owner */\n      dup9\n        /* \"lib/ERC20Permit.sol\":2230:2237  spender */\n      dup9\n        /* \"lib/ERC20Permit.sol\":2239:2244  value */\n      dup9\n        /* \"lib/ERC20Permit.sol\":2246:2262  _useNonce(owner) */\n      tag_180\n        /* \"lib/ERC20Permit.sol\":2256:2261  owner */\n      dup13\n        /* \"lib/ERC20Permit.sol\":2246:2255  _useNonce */\n      tag_181\n        /* \"lib/ERC20Permit.sol\":2246:2262  _useNonce(owner) */\n      jump\t// in\n    tag_180:\n        /* \"lib/ERC20Permit.sol\":2194:2273  abi.encode(_PERMIT_TYPEHASH, owner, spender, value, _useNonce(owner), deadline) */\n      0x40\n      dup1\n      mload\n      0x20\n      dup2\n      add\n        /* \"#utility.yul\":7885:7910   */\n      swap7\n      swap1\n      swap7\n      mstore\n      sub(shl(0xa0, 0x01), 0x01)\n        /* \"#utility.yul\":7984:7999   */\n      swap5\n      dup6\n      and\n        /* \"#utility.yul\":7964:7982   */\n      swap1\n      dup7\n      add\n        /* \"#utility.yul\":7957:8000   */\n      mstore\n        /* \"#utility.yul\":8036:8051   */\n      swap3\n      swap1\n      swap2\n      and\n        /* \"#utility.yul\":8016:8034   */\n      0x60\n      dup5\n      add\n        /* \"#utility.yul\":8009:8052   */\n      mstore\n        /* \"#utility.yul\":8068:8086   */\n      0x80\n      dup4\n      add\n        /* \"#utility.yul\":8061:8095   */\n      mstore\n        /* \"#utility.yul\":8111:8130   */\n      0xa0\n      dup3\n      add\n        /* \"#utility.yul\":8104:8139   */\n      mstore\n        /* \"#utility.yul\":8155:8174   */\n      0xc0\n      dup2\n      add\n        /* \"#utility.yul\":8148:8183   */\n      dup7\n      swap1\n      mstore\n        /* \"#utility.yul\":7857:7876   */\n      0xe0\n      add\n        /* \"lib/ERC20Permit.sol\":2194:2273  abi.encode(_PERMIT_TYPEHASH, owner, spender, value, _useNonce(owner), deadline) */\n      mload(0x40)\n      0x20\n      dup2\n      dup4\n      sub\n      sub\n      dup2\n      mstore\n      swap1\n      0x40\n      mstore\n        /* \"lib/ERC20Permit.sol\":2184:2274  keccak256(abi.encode(_PERMIT_TYPEHASH, owner, spender, value, _useNonce(owner), deadline)) */\n      dup1\n      mload\n      swap1\n      0x20\n      add\n      keccak256\n        /* \"lib/ERC20Permit.sol\":2163:2274  bytes32 structHash = keccak256(abi.encode(_PERMIT_TYPEHASH, owner, spender, value, _useNonce(owner), deadline)) */\n      swap1\n      pop\n        /* \"lib/ERC20Permit.sol\":2285:2297  bytes32 hash */\n      0x00\n        /* \"lib/ERC20Permit.sol\":2300:2328  _hashTypedDataV4(structHash) */\n      tag_184\n        /* \"lib/ERC20Permit.sol\":2317:2327  structHash */\n      dup3\n        /* \"lib/ERC20Permit.sol\":2300:2316  _hashTypedDataV4 */\n      tag_185\n        /* \"lib/ERC20Permit.sol\":2300:2328  _hashTypedDataV4(structHash) */\n      jump\t// in\n    tag_184:\n        /* \"lib/ERC20Permit.sol\":2285:2328  bytes32 hash = _hashTypedDataV4(structHash) */\n      swap1\n      pop\n        /* \"lib/ERC20Permit.sol\":2339:2353  address signer */\n      0x00\n        /* \"lib/ERC20Permit.sol\":2356:2384  ECDSA.recover(hash, v, r, s) */\n      tag_186\n        /* \"lib/ERC20Permit.sol\":2370:2374  hash */\n      dup3\n        /* \"lib/ERC20Permit.sol\":2376:2377  v */\n      dup8\n        /* \"lib/ERC20Permit.sol\":2379:2380  r */\n      dup8\n        /* \"lib/ERC20Permit.sol\":2382:2383  s */\n      dup8\n        /* \"lib/ERC20Permit.sol\":2356:2369  ECDSA.recover */\n      tag_187\n        /* \"lib/ERC20Permit.sol\":2356:2384  ECDSA.recover(hash, v, r, s) */\n      jump\t// in\n    tag_186:\n        /* \"lib/ERC20Permit.sol\":2339:2384  address signer = ECDSA.recover(hash, v, r, s) */\n      swap1\n      pop\n        /* \"lib/ERC20Permit.sol\":2412:2417  owner */\n      dup10\n      sub(shl(0xa0, 0x01), 0x01)\n        /* \"lib/ERC20Permit.sol\":2402:2417  signer == owner */\n      and\n        /* \"lib/ERC20Permit.sol\":2402:2408  signer */\n      dup2\n      sub(shl(0xa0, 0x01), 0x01)\n        /* \"lib/ERC20Permit.sol\":2402:2417  signer == owner */\n      and\n      eq\n        /* \"lib/ERC20Permit.sol\":2394:2452  require(signer == owner, \"ERC20Permit: invalid signature\") */\n      tag_188\n      jumpi\n      mload(0x40)\n      shl(0xe5, 0x461bcd)\n      dup2\n      mstore\n        /* \"#utility.yul\":8396:8398   */\n      0x20\n        /* \"lib/ERC20Permit.sol\":2394:2452  require(signer == owner, \"ERC20Permit: invalid signature\") */\n      0x04\n      dup3\n      add\n        /* \"#utility.yul\":8378:8399   */\n      mstore\n        /* \"#utility.yul\":8435:8437   */\n      0x1e\n        /* \"#utility.yul\":8415:8433   */\n      0x24\n      dup3\n      add\n        /* \"#utility.yul\":8408:8438   */\n      mstore\n        /* \"#utility.yul\":8474:8506   */\n      0x45524332305065726d69743a20696e76616c6964207369676e61747572650000\n        /* \"#utility.yul\":8454:8472   */\n      0x44\n      dup3\n      add\n        /* \"#utility.yul\":8447:8507   */\n      mstore\n        /* \"#utility.yul\":8524:8542   */\n      0x64\n      add\n        /* \"lib/ERC20Permit.sol\":2394:2452  require(signer == owner, \"ERC20Permit: invalid signature\") */\n      tag_138\n        /* \"#utility.yul\":8194:8548   */\n      jump\n        /* \"lib/ERC20Permit.sol\":2394:2452  require(signer == owner, \"ERC20Permit: invalid signature\") */\n    tag_188:\n        /* \"lib/ERC20Permit.sol\":2463:2494  _approve(owner, spender, value) */\n      tag_191\n        /* \"lib/ERC20Permit.sol\":2472:2477  owner */\n      dup11\n        /* \"lib/ERC20Permit.sol\":2479:2486  spender */\n      dup11\n        /* \"lib/ERC20Permit.sol\":2488:2493  value */\n      dup11\n        /* \"lib/ERC20Permit.sol\":2463:2471  _approve */\n      tag_114\n        /* \"lib/ERC20Permit.sol\":2463:2494  _approve(owner, spender, value) */\n      jump\t// in\n    tag_191:\n        /* \"lib/ERC20Permit.sol\":2073:2501  {... */\n      pop\n      pop\n      pop\n        /* \"lib/ERC20Permit.sol\":1875:2501  function permit(... */\n      pop\n      pop\n      pop\n      pop\n      pop\n      pop\n      pop\n      jump\t// out\n        /* \"tokens/ERC20.sol\":3857:4006  function allowance(address owner, address spender) public view virtual override returns (uint256) {... */\n    tag_101:\n      sub(shl(0xa0, 0x01), 0x01)\n        /* \"tokens/ERC20.sol\":3972:3990  _allowances[owner] */\n      swap2\n      dup3\n      and\n        /* \"tokens/ERC20.sol\":3946:3953  uint256 */\n      0x00\n        /* \"tokens/ERC20.sol\":3972:3990  _allowances[owner] */\n      swap1\n      dup2\n      mstore\n        /* \"tokens/ERC20.sol\":3972:3983  _allowances */\n      0x01\n        /* \"tokens/ERC20.sol\":3972:3990  _allowances[owner] */\n      0x20\n      swap1\n      dup2\n      mstore\n      0x40\n      dup1\n      dup4\n      keccak256\n        /* \"tokens/ERC20.sol\":3972:3999  _allowances[owner][spender] */\n      swap4\n      swap1\n      swap5\n      and\n      dup3\n      mstore\n      swap2\n      swap1\n      swap2\n      mstore\n      keccak256\n      sload\n      swap1\n        /* \"tokens/ERC20.sol\":3857:4006  function allowance(address owner, address spender) public view virtual override returns (uint256) {... */\n      jump\t// out\n        /* \"tokens/ERC20.sol\":10000:10370  function _approve(... */\n    tag_114:\n      sub(shl(0xa0, 0x01), 0x01)\n        /* \"tokens/ERC20.sol\":10131:10150  owner != address(0) */\n      dup4\n      and\n        /* \"tokens/ERC20.sol\":10123:10191  require(owner != address(0), \"ERC20: approve from the zero address\") */\n      tag_195\n      jumpi\n      mload(0x40)\n      shl(0xe5, 0x461bcd)\n      dup2\n      mstore\n        /* \"#utility.yul\":8755:8757   */\n      0x20\n        /* \"tokens/ERC20.sol\":10123:10191  require(owner != address(0), \"ERC20: approve from the zero address\") */\n      0x04\n      dup3\n      add\n        /* \"#utility.yul\":8737:8758   */\n      mstore\n        /* \"#utility.yul\":8794:8796   */\n      0x24\n        /* \"#utility.yul\":8774:8792   */\n      dup1\n      dup3\n      add\n        /* \"#utility.yul\":8767:8797   */\n      mstore\n        /* \"#utility.yul\":8833:8867   */\n      0x45524332303a20617070726f76652066726f6d20746865207a65726f20616464\n        /* \"#utility.yul\":8813:8831   */\n      0x44\n      dup3\n      add\n        /* \"#utility.yul\":8806:8868   */\n      mstore\n      shl(0xe0, 0x72657373)\n        /* \"#utility.yul\":8884:8902   */\n      0x64\n      dup3\n      add\n        /* \"#utility.yul\":8877:8911   */\n      mstore\n        /* \"#utility.yul\":8928:8947   */\n      0x84\n      add\n        /* \"tokens/ERC20.sol\":10123:10191  require(owner != address(0), \"ERC20: approve from the zero address\") */\n      tag_138\n        /* \"#utility.yul\":8553:8953   */\n      jump\n        /* \"tokens/ERC20.sol\":10123:10191  require(owner != address(0), \"ERC20: approve from the zero address\") */\n    tag_195:\n      sub(shl(0xa0, 0x01), 0x01)\n        /* \"tokens/ERC20.sol\":10209:10230  spender != address(0) */\n      dup3\n      and\n        /* \"tokens/ERC20.sol\":10201:10269  require(spender != address(0), \"ERC20: approve to the zero address\") */\n      tag_198\n      jumpi\n      mload(0x40)\n      shl(0xe5, 0x461bcd)\n      dup2\n      mstore\n        /* \"#utility.yul\":9160:9162   */\n      0x20\n        /* \"tokens/ERC20.sol\":10201:10269  require(spender != address(0), \"ERC20: approve to the zero address\") */\n      0x04\n      dup3\n      add\n        /* \"#utility.yul\":9142:9163   */\n      mstore\n        /* \"#utility.yul\":9199:9201   */\n      0x22\n        /* \"#utility.yul\":9179:9197   */\n      0x24\n      dup3\n      add\n        /* \"#utility.yul\":9172:9202   */\n      mstore\n        /* \"#utility.yul\":9238:9272   */\n      0x45524332303a20617070726f766520746f20746865207a65726f206164647265\n        /* \"#utility.yul\":9218:9236   */\n      0x44\n      dup3\n      add\n        /* \"#utility.yul\":9211:9273   */\n      mstore\n      shl(0xf0, 0x7373)\n        /* \"#utility.yul\":9289:9307   */\n      0x64\n      dup3\n      add\n        /* \"#utility.yul\":9282:9314   */\n      mstore\n        /* \"#utility.yul\":9331:9350   */\n      0x84\n      add\n        /* \"tokens/ERC20.sol\":10201:10269  require(spender != address(0), \"ERC20: approve to the zero address\") */\n      tag_138\n        /* \"#utility.yul\":8958:9356   */\n      jump\n        /* \"tokens/ERC20.sol\":10201:10269  require(spender != address(0), \"ERC20: approve to the zero address\") */\n    tag_198:\n      sub(shl(0xa0, 0x01), 0x01)\n        /* \"tokens/ERC20.sol\":10280:10298  _allowances[owner] */\n      dup4\n      dup2\n      and\n      0x00\n      dup2\n      dup2\n      mstore\n        /* \"tokens/ERC20.sol\":10280:10291  _allowances */\n      0x01\n        /* \"tokens/ERC20.sol\":10280:10298  _allowances[owner] */\n      0x20\n      swap1\n      dup2\n      mstore\n      0x40\n      dup1\n      dup4\n      keccak256\n        /* \"tokens/ERC20.sol\":10280:10307  _allowances[owner][spender] */\n      swap5\n      dup8\n      and\n      dup1\n      dup5\n      mstore\n      swap5\n      dup3\n      mstore\n      swap2\n      dup3\n      swap1\n      keccak256\n        /* \"tokens/ERC20.sol\":10280:10316  _allowances[owner][spender] = amount */\n      dup6\n      swap1\n      sstore\n        /* \"tokens/ERC20.sol\":10331:10363  Approval(owner, spender, amount) */\n      swap1\n      mload\n        /* \"#utility.yul\":1565:1590   */\n      dup5\n      dup2\n      mstore\n        /* \"tokens/ERC20.sol\":10331:10363  Approval(owner, spender, amount) */\n      0x8c5be1e5ebec7d5bd14f71427d1e84f3dd0314c0f7b2291e5b200ac8c7c3b925\n      swap2\n        /* \"#utility.yul\":1538:1556   */\n      add\n        /* \"tokens/ERC20.sol\":10331:10363  Approval(owner, spender, amount) */\n    tag_201:\n      mload(0x40)\n      dup1\n      swap2\n      sub\n      swap1\n      log3\n        /* \"tokens/ERC20.sol\":10000:10370  function _approve(... */\n      pop\n      pop\n      pop\n      jump\t// out\n        /* \"tokens/ERC20.sol\":10651:11092  function _spendAllowance(... */\n    tag_119:\n        /* \"tokens/ERC20.sol\":10781:10805  uint256 currentAllowance */\n      0x00\n        /* \"tokens/ERC20.sol\":10808:10833  allowance(owner, spender) */\n      tag_203\n        /* \"tokens/ERC20.sol\":10818:10823  owner */\n      dup5\n        /* \"tokens/ERC20.sol\":10825:10832  spender */\n      dup5\n        /* \"tokens/ERC20.sol\":10808:10817  allowance */\n      tag_101\n        /* \"tokens/ERC20.sol\":10808:10833  allowance(owner, spender) */\n      jump\t// in\n    tag_203:\n        /* \"tokens/ERC20.sol\":10781:10833  uint256 currentAllowance = allowance(owner, spender) */\n      swap1\n      pop\n      not(0x00)\n        /* \"tokens/ERC20.sol\":10847:10863  currentAllowance */\n      dup2\n        /* \"tokens/ERC20.sol\":10847:10884  currentAllowance != type(uint256).max */\n      eq\n        /* \"tokens/ERC20.sol\":10843:11086  if (currentAllowance != type(uint256).max) {... */\n      tag_208\n      jumpi\n        /* \"tokens/ERC20.sol\":10928:10934  amount */\n      dup2\n        /* \"tokens/ERC20.sol\":10908:10924  currentAllowance */\n      dup2\n        /* \"tokens/ERC20.sol\":10908:10934  currentAllowance >= amount */\n      lt\n      iszero\n        /* \"tokens/ERC20.sol\":10900:10968  require(currentAllowance >= amount, \"ERC20: insufficient allowance\") */\n      tag_205\n      jumpi\n      mload(0x40)\n      shl(0xe5, 0x461bcd)\n      dup2\n      mstore\n        /* \"#utility.yul\":9563:9565   */\n      0x20\n        /* \"tokens/ERC20.sol\":10900:10968  require(currentAllowance >= amount, \"ERC20: insufficient allowance\") */\n      0x04\n      dup3\n      add\n        /* \"#utility.yul\":9545:9566   */\n      mstore\n        /* \"#utility.yul\":9602:9604   */\n      0x1d\n        /* \"#utility.yul\":9582:9600   */\n      0x24\n      dup3\n      add\n        /* \"#utility.yul\":9575:9605   */\n      mstore\n        /* \"#utility.yul\":9641:9672   */\n      0x45524332303a20696e73756666696369656e7420616c6c6f77616e6365000000\n        /* \"#utility.yul\":9621:9639   */\n      0x44\n      dup3\n      add\n        /* \"#utility.yul\":9614:9673   */\n      mstore\n        /* \"#utility.yul\":9690:9708   */\n      0x64\n      add\n        /* \"tokens/ERC20.sol\":10900:10968  require(currentAllowance >= amount, \"ERC20: insufficient allowance\") */\n      tag_138\n        /* \"#utility.yul\":9361:9714   */\n      jump\n        /* \"tokens/ERC20.sol\":10900:10968  require(currentAllowance >= amount, \"ERC20: insufficient allowance\") */\n    tag_205:\n        /* \"tokens/ERC20.sol\":11010:11061  _approve(owner, spender, currentAllowance - amount) */\n      tag_208\n        /* \"tokens/ERC20.sol\":11019:11024  owner */\n      dup5\n        /* \"tokens/ERC20.sol\":11026:11033  spender */\n      dup5\n        /* \"tokens/ERC20.sol\":11054:11060  amount */\n      dup5\n        /* \"tokens/ERC20.sol\":11035:11051  currentAllowance */\n      dup5\n        /* \"tokens/ERC20.sol\":11035:11060  currentAllowance - amount */\n      sub\n        /* \"tokens/ERC20.sol\":11010:11018  _approve */\n      tag_114\n        /* \"tokens/ERC20.sol\":11010:11061  _approve(owner, spender, currentAllowance - amount) */\n      jump\t// in\n    tag_208:\n        /* \"tokens/ERC20.sol\":10771:11092  {... */\n      pop\n        /* \"tokens/ERC20.sol\":10651:11092  function _spendAllowance(... */\n      pop\n      pop\n      pop\n      jump\t// out\n        /* \"tokens/ERC20.sol\":7365:8016  function _transfer(... */\n    tag_121:\n      sub(shl(0xa0, 0x01), 0x01)\n        /* \"tokens/ERC20.sol\":7491:7509  from != address(0) */\n      dup4\n      and\n        /* \"tokens/ERC20.sol\":7483:7551  require(from != address(0), \"ERC20: transfer from the zero address\") */\n      tag_210\n      jumpi\n      mload(0x40)\n      shl(0xe5, 0x461bcd)\n      dup2\n      mstore\n        /* \"#utility.yul\":9921:9923   */\n      0x20\n        /* \"tokens/ERC20.sol\":7483:7551  require(from != address(0), \"ERC20: transfer from the zero address\") */\n      0x04\n      dup3\n      add\n        /* \"#utility.yul\":9903:9924   */\n      mstore\n        /* \"#utility.yul\":9960:9962   */\n      0x25\n        /* \"#utility.yul\":9940:9958   */\n      0x24\n      dup3\n      add\n        /* \"#utility.yul\":9933:9963   */\n      mstore\n        /* \"#utility.yul\":9999:10033   */\n      0x45524332303a207472616e736665722066726f6d20746865207a65726f206164\n        /* \"#utility.yul\":9979:9997   */\n      0x44\n      dup3\n      add\n        /* \"#utility.yul\":9972:10034   */\n      mstore\n      shl(0xd8, 0x6472657373)\n        /* \"#utility.yul\":10050:10068   */\n      0x64\n      dup3\n      add\n        /* \"#utility.yul\":10043:10078   */\n      mstore\n        /* \"#utility.yul\":10095:10114   */\n      0x84\n      add\n        /* \"tokens/ERC20.sol\":7483:7551  require(from != address(0), \"ERC20: transfer from the zero address\") */\n      tag_138\n        /* \"#utility.yul\":9719:10120   */\n      jump\n        /* \"tokens/ERC20.sol\":7483:7551  require(from != address(0), \"ERC20: transfer from the zero address\") */\n    tag_210:\n      sub(shl(0xa0, 0x01), 0x01)\n        /* \"tokens/ERC20.sol\":7569:7585  to != address(0) */\n      dup3\n      and\n        /* \"tokens/ERC20.sol\":7561:7625  require(to != address(0), \"ERC20: transfer to the zero address\") */\n      tag_213\n      jumpi\n      mload(0x40)\n      shl(0xe5, 0x461bcd)\n      dup2\n      mstore\n        /* \"#utility.yul\":10327:10329   */\n      0x20\n        /* \"tokens/ERC20.sol\":7561:7625  require(to != address(0), \"ERC20: transfer to the zero address\") */\n      0x04\n      dup3\n      add\n        /* \"#utility.yul\":10309:10330   */\n      mstore\n        /* \"#utility.yul\":10366:10368   */\n      0x23\n        /* \"#utility.yul\":10346:10364   */\n      0x24\n      dup3\n      add\n        /* \"#utility.yul\":10339:10369   */\n      mstore\n        /* \"#utility.yul\":10405:10439   */\n      0x45524332303a207472616e7366657220746f20746865207a65726f2061646472\n        /* \"#utility.yul\":10385:10403   */\n      0x44\n      dup3\n      add\n        /* \"#utility.yul\":10378:10440   */\n      mstore\n      shl(0xe8, 0x657373)\n        /* \"#utility.yul\":10456:10474   */\n      0x64\n      dup3\n      add\n        /* \"#utility.yul\":10449:10482   */\n      mstore\n        /* \"#utility.yul\":10499:10518   */\n      0x84\n      add\n        /* \"tokens/ERC20.sol\":7561:7625  require(to != address(0), \"ERC20: transfer to the zero address\") */\n      tag_138\n        /* \"#utility.yul\":10125:10524   */\n      jump\n        /* \"tokens/ERC20.sol\":7561:7625  require(to != address(0), \"ERC20: transfer to the zero address\") */\n    tag_213:\n      sub(shl(0xa0, 0x01), 0x01)\n        /* \"tokens/ERC20.sol\":7707:7722  _balances[from] */\n      dup4\n      and\n        /* \"tokens/ERC20.sol\":7685:7704  uint256 fromBalance */\n      0x00\n        /* \"tokens/ERC20.sol\":7707:7722  _balances[from] */\n      swap1\n      dup2\n      mstore\n      0x20\n      dup2\n      swap1\n      mstore\n      0x40\n      swap1\n      keccak256\n      sload\n        /* \"tokens/ERC20.sol\":7740:7761  fromBalance >= amount */\n      dup2\n      dup2\n      lt\n      iszero\n        /* \"tokens/ERC20.sol\":7732:7804  require(fromBalance >= amount, \"ERC20: transfer amount exceeds balance\") */\n      tag_218\n      jumpi\n      mload(0x40)\n      shl(0xe5, 0x461bcd)\n      dup2\n      mstore\n        /* \"#utility.yul\":10731:10733   */\n      0x20\n        /* \"tokens/ERC20.sol\":7732:7804  require(fromBalance >= amount, \"ERC20: transfer amount exceeds balance\") */\n      0x04\n      dup3\n      add\n        /* \"#utility.yul\":10713:10734   */\n      mstore\n        /* \"#utility.yul\":10770:10772   */\n      0x26\n        /* \"#utility.yul\":10750:10768   */\n      0x24\n      dup3\n      add\n        /* \"#utility.yul\":10743:10773   */\n      mstore\n        /* \"#utility.yul\":10809:10843   */\n      0x45524332303a207472616e7366657220616d6f756e7420657863656564732062\n        /* \"#utility.yul\":10789:10807   */\n      0x44\n      dup3\n      add\n        /* \"#utility.yul\":10782:10844   */\n      mstore\n      shl(0xd0, 0x616c616e6365)\n        /* \"#utility.yul\":10860:10878   */\n      0x64\n      dup3\n      add\n        /* \"#utility.yul\":10853:10889   */\n      mstore\n        /* \"#utility.yul\":10906:10925   */\n      0x84\n      add\n        /* \"tokens/ERC20.sol\":7732:7804  require(fromBalance >= amount, \"ERC20: transfer amount exceeds balance\") */\n      tag_138\n        /* \"#utility.yul\":10529:10931   */\n      jump\n        /* \"tokens/ERC20.sol\":7732:7804  require(fromBalance >= amount, \"ERC20: transfer amount exceeds balance\") */\n    tag_218:\n      sub(shl(0xa0, 0x01), 0x01)\n        /* \"tokens/ERC20.sol\":7838:7853  _balances[from] */\n      dup1\n      dup6\n      and\n        /* \"tokens/ERC20.sol\":7838:7847  _balances */\n      0x00\n        /* \"tokens/ERC20.sol\":7838:7853  _balances[from] */\n      swap1\n      dup2\n      mstore\n      0x20\n      dup2\n      swap1\n      mstore\n      0x40\n      dup1\n      dup3\n      keccak256\n        /* \"tokens/ERC20.sol\":7856:7876  fromBalance - amount */\n      dup6\n      dup6\n      sub\n        /* \"tokens/ERC20.sol\":7838:7876  _balances[from] = fromBalance - amount */\n      swap1\n      sstore\n        /* \"tokens/ERC20.sol\":7896:7909  _balances[to] */\n      swap2\n      dup6\n      and\n      dup2\n      mstore\n      swap1\n      dup2\n      keccak256\n        /* \"tokens/ERC20.sol\":7896:7919  _balances[to] += amount */\n      dup1\n      sload\n        /* \"tokens/ERC20.sol\":7870:7876  amount */\n      dup5\n      swap3\n        /* \"tokens/ERC20.sol\":7838:7847  _balances */\n      swap1\n        /* \"tokens/ERC20.sol\":7896:7919  _balances[to] += amount */\n      tag_221\n      swap1\n        /* \"tokens/ERC20.sol\":7870:7876  amount */\n      dup5\n      swap1\n        /* \"tokens/ERC20.sol\":7896:7919  _balances[to] += amount */\n      tag_131\n      jump\t// in\n    tag_221:\n      swap3\n      pop\n      pop\n      dup2\n      swap1\n      sstore\n      pop\n        /* \"tokens/ERC20.sol\":7950:7952  to */\n      dup3\n      sub(shl(0xa0, 0x01), 0x01)\n        /* \"tokens/ERC20.sol\":7935:7961  Transfer(from, to, amount) */\n      and\n        /* \"tokens/ERC20.sol\":7944:7948  from */\n      dup5\n      sub(shl(0xa0, 0x01), 0x01)\n        /* \"tokens/ERC20.sol\":7935:7961  Transfer(from, to, amount) */\n      and\n      0xddf252ad1be2c89b69c2b068fc378daa952ba7f163c4a11628f55a4df523b3ef\n        /* \"tokens/ERC20.sol\":7954:7960  amount */\n      dup5\n        /* \"tokens/ERC20.sol\":7935:7961  Transfer(from, to, amount) */\n      mload(0x40)\n      tag_222\n      swap2\n        /* \"#utility.yul\":1565:1590   */\n      dup2\n      mstore\n        /* \"#utility.yul\":1553:1555   */\n      0x20\n        /* \"#utility.yul\":1538:1556   */\n      add\n      swap1\n        /* \"#utility.yul\":1419:1596   */\n      jump\n        /* \"tokens/ERC20.sol\":7935:7961  Transfer(from, to, amount) */\n    tag_222:\n      mload(0x40)\n      dup1\n      swap2\n      sub\n      swap1\n      log3\n        /* \"tokens/ERC20.sol\":7972:8009  _afterTokenTransfer(from, to, amount) */\n      tag_208\n        /* \"tokens/ERC20.sol\":9001:9577  function _burn(address account, uint256 amount) internal virtual {... */\n      jump\n        /* \"lib/EIP712.sol\":3143:3451  function _domainSeparatorV4() internal view returns (bytes32) {... */\n    tag_125:\n        /* \"lib/EIP712.sol\":3196:3203  bytes32 */\n      0x00\n        /* \"lib/EIP712.sol\":3227:3231  this */\n      address\n      sub(shl(0xa0, 0x01), 0x01)\n        /* \"lib/EIP712.sol\":3236:3248  _CACHED_THIS */\n      immutable(\"0xd3dad2b3fa6464c5d12f6373a47a6014623e3f162de557e09b0006ceac3fe4f9\")\n        /* \"lib/EIP712.sol\":3219:3248  address(this) == _CACHED_THIS */\n      and\n      eq\n        /* \"lib/EIP712.sol\":3219:3285  address(this) == _CACHED_THIS && block.chainid == _CACHED_CHAIN_ID */\n      dup1\n      iszero\n      tag_226\n      jumpi\n      pop\n        /* \"lib/EIP712.sol\":3269:3285  _CACHED_CHAIN_ID */\n      immutable(\"0xa9903e230a4a4f2af602b37c0f984d2b43537f89ce9d4cfbf1232e27c498bd38\")\n        /* \"lib/EIP712.sol\":3252:3265  block.chainid */\n      chainid\n        /* \"lib/EIP712.sol\":3252:3285  block.chainid == _CACHED_CHAIN_ID */\n      eq\n        /* \"lib/EIP712.sol\":3219:3285  address(this) == _CACHED_THIS && block.chainid == _CACHED_CHAIN_ID */\n    tag_226:\n        /* \"lib/EIP712.sol\":3215:3445  if (address(this) == _CACHED_THIS && block.chainid == _CACHED_CHAIN_ID) {... */\n      iszero\n      tag_227\n      jumpi\n      pop\n        /* \"lib/EIP712.sol\":3308:3332  _CACHED_DOMAIN_SEPARATOR */\n      immutable(\"0x02f6903e55725b8fb1e67e68fc4dfbf8e90ced5ec278dfd2021debfe4c69d139\")\n      swap1\n        /* \"lib/EIP712.sol\":3143:3451  function _domainSeparatorV4() internal view returns (bytes32) {... */\n      jump\t// out\n        /* \"lib/EIP712.sol\":3215:3445  if (address(this) == _CACHED_THIS && block.chainid == _CACHED_CHAIN_ID) {... */\n    tag_227:\n      pop\n        /* \"lib/EIP712.sol\":3633:3706  abi.encode(typeHash, nameHash, versionHash, block.chainid, address(this)) */\n      0x40\n      dup1\n      mload\n        /* \"lib/EIP712.sol\":3392:3402  _TYPE_HASH */\n      immutable(\"0x1d2b7ce2c7309c0ae499257b4d570bbc2aa804a132076a507e13da63d22f2ea8\")\n        /* \"lib/EIP712.sol\":3633:3706  abi.encode(typeHash, nameHash, versionHash, block.chainid, address(this)) */\n      0x20\n      dup1\n      dup4\n      add\n        /* \"#utility.yul\":12895:12920   */\n      swap2\n      swap1\n      swap2\n      mstore\n        /* \"lib/EIP712.sol\":3404:3416  _HASHED_NAME */\n      immutable(\"0xc5e1f1d4bf9d5972febd47f77b791d34fca2c4f78e047aba365c0f66e5d88c39\")\n        /* \"#utility.yul\":12936:12954   */\n      dup3\n      dup5\n      add\n        /* \"#utility.yul\":12929:12963   */\n      mstore\n        /* \"lib/EIP712.sol\":3418:3433  _HASHED_VERSION */\n      immutable(\"0xf44e26cb6192c7a70f026ebae4c4bdf0822fd8ec199501187afd94cd2c3c7097\")\n        /* \"#utility.yul\":12979:12997   */\n      0x60\n      dup4\n      add\n        /* \"#utility.yul\":12972:13006   */\n      mstore\n        /* \"lib/EIP712.sol\":3677:3690  block.chainid */\n      chainid\n        /* \"#utility.yul\":13022:13040   */\n      0x80\n      dup4\n      add\n        /* \"#utility.yul\":13015:13049   */\n      mstore\n        /* \"lib/EIP712.sol\":3700:3704  this */\n      address\n        /* \"#utility.yul\":13065:13084   */\n      0xa0\n      dup1\n      dup5\n      add\n        /* \"#utility.yul\":13058:13119   */\n      swap2\n      swap1\n      swap2\n      mstore\n        /* \"lib/EIP712.sol\":3633:3706  abi.encode(typeHash, nameHash, versionHash, block.chainid, address(this)) */\n      dup4\n      mload\n      dup1\n      dup5\n      sub\n      swap1\n      swap2\n      add\n      dup2\n      mstore\n        /* \"#utility.yul\":12867:12886   */\n      0xc0\n      swap1\n      swap3\n      add\n        /* \"lib/EIP712.sol\":3633:3706  abi.encode(typeHash, nameHash, versionHash, block.chainid, address(this)) */\n      swap1\n      swap3\n      mstore\n        /* \"lib/EIP712.sol\":3623:3707  keccak256(abi.encode(typeHash, nameHash, versionHash, block.chainid, address(this))) */\n      dup1\n      mload\n      swap2\n      add\n      keccak256\n      swap1\n        /* \"lib/ERC20Permit.sol\":2812:2925  function DOMAIN_SEPARATOR() external view override returns (bytes32) {... */\n      jump\t// out\n        /* \"tokens/ERC20.sol\":8292:8681  function _mint(address account, uint256 amount) internal virtual {... */\n    tag_142:\n      sub(shl(0xa0, 0x01), 0x01)\n        /* \"tokens/ERC20.sol\":8375:8396  account != address(0) */\n      dup3\n      and\n        /* \"tokens/ERC20.sol\":8367:8432  require(account != address(0), \"ERC20: mint to the zero address\") */\n      tag_232\n      jumpi\n      mload(0x40)\n      shl(0xe5, 0x461bcd)\n      dup2\n      mstore\n        /* \"#utility.yul\":11138:11140   */\n      0x20\n        /* \"tokens/ERC20.sol\":8367:8432  require(account != address(0), \"ERC20: mint to the zero address\") */\n      0x04\n      dup3\n      add\n        /* \"#utility.yul\":11120:11141   */\n      mstore\n        /* \"#utility.yul\":11177:11179   */\n      0x1f\n        /* \"#utility.yul\":11157:11175   */\n      0x24\n      dup3\n      add\n        /* \"#utility.yul\":11150:11180   */\n      mstore\n        /* \"#utility.yul\":11216:11249   */\n      0x45524332303a206d696e7420746f20746865207a65726f206164647265737300\n        /* \"#utility.yul\":11196:11214   */\n      0x44\n      dup3\n      add\n        /* \"#utility.yul\":11189:11250   */\n      mstore\n        /* \"#utility.yul\":11267:11285   */\n      0x64\n      add\n        /* \"tokens/ERC20.sol\":8367:8432  require(account != address(0), \"ERC20: mint to the zero address\") */\n      tag_138\n        /* \"#utility.yul\":10936:11291   */\n      jump\n        /* \"tokens/ERC20.sol\":8367:8432  require(account != address(0), \"ERC20: mint to the zero address\") */\n    tag_232:\n        /* \"tokens/ERC20.sol\":8519:8525  amount */\n      dup1\n        /* \"tokens/ERC20.sol\":8503:8515  _totalSupply */\n      0x02\n      0x00\n        /* \"tokens/ERC20.sol\":8503:8525  _totalSupply += amount */\n      dup3\n      dup3\n      sload\n      tag_236\n      swap2\n      swap1\n      tag_131\n      jump\t// in\n    tag_236:\n      swap1\n      swap2\n      sstore\n      pop\n      pop\n      sub(shl(0xa0, 0x01), 0x01)\n        /* \"tokens/ERC20.sol\":8535:8553  _balances[account] */\n      dup3\n      and\n        /* \"tokens/ERC20.sol\":8535:8544  _balances */\n      0x00\n        /* \"tokens/ERC20.sol\":8535:8553  _balances[account] */\n      swap1\n      dup2\n      mstore\n      0x20\n      dup2\n      swap1\n      mstore\n      0x40\n      dup2\n      keccak256\n        /* \"tokens/ERC20.sol\":8535:8563  _balances[account] += amount */\n      dup1\n      sload\n        /* \"tokens/ERC20.sol\":8557:8563  amount */\n      dup4\n      swap3\n        /* \"tokens/ERC20.sol\":8535:8544  _balances */\n      swap1\n        /* \"tokens/ERC20.sol\":8535:8563  _balances[account] += amount */\n      tag_237\n      swap1\n        /* \"tokens/ERC20.sol\":8557:8563  amount */\n      dup5\n      swap1\n        /* \"tokens/ERC20.sol\":8535:8563  _balances[account] += amount */\n      tag_131\n      jump\t// in\n    tag_237:\n      swap1\n      swap2\n      sstore\n      pop\n      pop\n        /* \"tokens/ERC20.sol\":8578:8615  Transfer(address(0), account, amount) */\n      mload(0x40)\n        /* \"#utility.yul\":1565:1590   */\n      dup2\n      dup2\n      mstore\n      sub(shl(0xa0, 0x01), 0x01)\n        /* \"tokens/ERC20.sol\":8578:8615  Transfer(address(0), account, amount) */\n      dup4\n      and\n      swap1\n        /* \"tokens/ERC20.sol\":8595:8596  0 */\n      0x00\n      swap1\n        /* \"tokens/ERC20.sol\":8578:8615  Transfer(address(0), account, amount) */\n      0xddf252ad1be2c89b69c2b068fc378daa952ba7f163c4a11628f55a4df523b3ef\n      swap1\n        /* \"#utility.yul\":1553:1555   */\n      0x20\n        /* \"#utility.yul\":1538:1556   */\n      add\n        /* \"tokens/ERC20.sol\":8578:8615  Transfer(address(0), account, amount) */\n      mload(0x40)\n      dup1\n      swap2\n      sub\n      swap1\n      log3\n        /* \"SCTERC20.sol\":526:644  function mint(address account_, uint256 amount_) external override onlyVault {... */\n      pop\n      pop\n      jump\t// out\n        /* \"tokens/ERC20.sol\":9001:9577  function _burn(address account, uint256 amount) internal virtual {... */\n    tag_145:\n      sub(shl(0xa0, 0x01), 0x01)\n        /* \"tokens/ERC20.sol\":9084:9105  account != address(0) */\n      dup3\n      and\n        /* \"tokens/ERC20.sol\":9076:9143  require(account != address(0), \"ERC20: burn from the zero address\") */\n      tag_241\n      jumpi\n      mload(0x40)\n      shl(0xe5, 0x461bcd)\n      dup2\n      mstore\n        /* \"#utility.yul\":11498:11500   */\n      0x20\n        /* \"tokens/ERC20.sol\":9076:9143  require(account != address(0), \"ERC20: burn from the zero address\") */\n      0x04\n      dup3\n      add\n        /* \"#utility.yul\":11480:11501   */\n      mstore\n        /* \"#utility.yul\":11537:11539   */\n      0x21\n        /* \"#utility.yul\":11517:11535   */\n      0x24\n      dup3\n      add\n        /* \"#utility.yul\":11510:11540   */\n      mstore\n        /* \"#utility.yul\":11576:11610   */\n      0x45524332303a206275726e2066726f6d20746865207a65726f20616464726573\n        /* \"#utility.yul\":11556:11574   */\n      0x44\n      dup3\n      add\n        /* \"#utility.yul\":11549:11611   */\n      mstore\n      shl(0xf8, 0x73)\n        /* \"#utility.yul\":11627:11645   */\n      0x64\n      dup3\n      add\n        /* \"#utility.yul\":11620:11651   */\n      mstore\n        /* \"#utility.yul\":11668:11687   */\n      0x84\n      add\n        /* \"tokens/ERC20.sol\":9076:9143  require(account != address(0), \"ERC20: burn from the zero address\") */\n      tag_138\n        /* \"#utility.yul\":11296:11693   */\n      jump\n        /* \"tokens/ERC20.sol\":9076:9143  require(account != address(0), \"ERC20: burn from the zero address\") */\n    tag_241:\n      sub(shl(0xa0, 0x01), 0x01)\n        /* \"tokens/ERC20.sol\":9239:9257  _balances[account] */\n      dup3\n      and\n        /* \"tokens/ERC20.sol\":9214:9236  uint256 accountBalance */\n      0x00\n        /* \"tokens/ERC20.sol\":9239:9257  _balances[account] */\n      swap1\n      dup2\n      mstore\n      0x20\n      dup2\n      swap1\n      mstore\n      0x40\n      swap1\n      keccak256\n      sload\n        /* \"tokens/ERC20.sol\":9275:9299  accountBalance >= amount */\n      dup2\n      dup2\n      lt\n      iszero\n        /* \"tokens/ERC20.sol\":9267:9338  require(accountBalance >= amount, \"ERC20: burn amount exceeds balance\") */\n      tag_245\n      jumpi\n      mload(0x40)\n      shl(0xe5, 0x461bcd)\n      dup2\n      mstore\n        /* \"#utility.yul\":11900:11902   */\n      0x20\n        /* \"tokens/ERC20.sol\":9267:9338  require(accountBalance >= amount, \"ERC20: burn amount exceeds balance\") */\n      0x04\n      dup3\n      add\n        /* \"#utility.yul\":11882:11903   */\n      mstore\n        /* \"#utility.yul\":11939:11941   */\n      0x22\n        /* \"#utility.yul\":11919:11937   */\n      0x24\n      dup3\n      add\n        /* \"#utility.yul\":11912:11942   */\n      mstore\n        /* \"#utility.yul\":11978:12012   */\n      0x45524332303a206275726e20616d6f756e7420657863656564732062616c616e\n        /* \"#utility.yul\":11958:11976   */\n      0x44\n      dup3\n      add\n        /* \"#utility.yul\":11951:12013   */\n      mstore\n      shl(0xf0, 0x6365)\n        /* \"#utility.yul\":12029:12047   */\n      0x64\n      dup3\n      add\n        /* \"#utility.yul\":12022:12054   */\n      mstore\n        /* \"#utility.yul\":12071:12090   */\n      0x84\n      add\n        /* \"tokens/ERC20.sol\":9267:9338  require(accountBalance >= amount, \"ERC20: burn amount exceeds balance\") */\n      tag_138\n        /* \"#utility.yul\":11698:12096   */\n      jump\n        /* \"tokens/ERC20.sol\":9267:9338  require(accountBalance >= amount, \"ERC20: burn amount exceeds balance\") */\n    tag_245:\n      sub(shl(0xa0, 0x01), 0x01)\n        /* \"tokens/ERC20.sol\":9372:9390  _balances[account] */\n      dup4\n      and\n        /* \"tokens/ERC20.sol\":9372:9381  _balances */\n      0x00\n        /* \"tokens/ERC20.sol\":9372:9390  _balances[account] */\n      swap1\n      dup2\n      mstore\n      0x20\n      dup2\n      swap1\n      mstore\n      0x40\n      dup2\n      keccak256\n        /* \"tokens/ERC20.sol\":9393:9416  accountBalance - amount */\n      dup4\n      dup4\n      sub\n        /* \"tokens/ERC20.sol\":9372:9416  _balances[account] = accountBalance - amount */\n      swap1\n      sstore\n        /* \"tokens/ERC20.sol\":9436:9448  _totalSupply */\n      0x02\n        /* \"tokens/ERC20.sol\":9436:9458  _totalSupply -= amount */\n      dup1\n      sload\n        /* \"tokens/ERC20.sol\":9410:9416  amount */\n      dup5\n      swap3\n        /* \"tokens/ERC20.sol\":9372:9381  _balances */\n      swap1\n        /* \"tokens/ERC20.sol\":9436:9458  _totalSupply -= amount */\n      tag_248\n      swap1\n        /* \"tokens/ERC20.sol\":9410:9416  amount */\n      dup5\n      swap1\n        /* \"tokens/ERC20.sol\":9436:9458  _totalSupply -= amount */\n      tag_249\n      jump\t// in\n    tag_248:\n      swap1\n      swap2\n      sstore\n      pop\n      pop\n        /* \"tokens/ERC20.sol\":9474:9511  Transfer(account, address(0), amount) */\n      mload(0x40)\n        /* \"#utility.yul\":1565:1590   */\n      dup3\n      dup2\n      mstore\n        /* \"tokens/ERC20.sol\":9500:9501  0 */\n      0x00\n      swap1\n      sub(shl(0xa0, 0x01), 0x01)\n        /* \"tokens/ERC20.sol\":9474:9511  Transfer(account, address(0), amount) */\n      dup6\n      and\n      swap1\n      0xddf252ad1be2c89b69c2b068fc378daa952ba7f163c4a11628f55a4df523b3ef\n      swap1\n        /* \"#utility.yul\":1553:1555   */\n      0x20\n        /* \"#utility.yul\":1538:1556   */\n      add\n        /* \"tokens/ERC20.sol\":9474:9511  Transfer(account, address(0), amount) */\n      tag_201\n        /* \"#utility.yul\":1419:1596   */\n      jump\n        /* \"tokens/ERC20.sol\":9522:9570  _afterTokenTransfer(account, address(0), amount) */\n    tag_251:\n        /* \"tokens/ERC20.sol\":9066:9577  {... */\n      pop\n        /* \"tokens/ERC20.sol\":9001:9577  function _burn(address account, uint256 amount) internal virtual {... */\n      pop\n      pop\n      jump\t// out\n        /* \"SCTERC20.sol\":868:1221  function _burnFrom(address account_, uint256 amount_) internal {... */\n    tag_149:\n        /* \"SCTERC20.sol\":941:964  uint256 senderAllowance */\n      0x00\n        /* \"SCTERC20.sol\":967:998  allowance(account_, msg.sender) */\n      tag_253\n        /* \"SCTERC20.sol\":977:985  account_ */\n      dup4\n        /* \"SCTERC20.sol\":987:997  msg.sender */\n      caller\n        /* \"SCTERC20.sol\":967:976  allowance */\n      tag_101\n        /* \"SCTERC20.sol\":967:998  allowance(account_, msg.sender) */\n      jump\t// in\n    tag_253:\n        /* \"SCTERC20.sol\":941:998  uint256 senderAllowance = allowance(account_, msg.sender) */\n      swap1\n      pop\n        /* \"SCTERC20.sol\":1045:1046  0 */\n      0x00\n        /* \"SCTERC20.sol\":1016:1041  senderAllowance - amount_ */\n      tag_254\n        /* \"SCTERC20.sol\":1034:1041  amount_ */\n      dup4\n        /* \"SCTERC20.sol\":941:998  uint256 senderAllowance = allowance(account_, msg.sender) */\n      dup4\n        /* \"SCTERC20.sol\":1016:1041  senderAllowance - amount_ */\n      tag_249\n      jump\t// in\n    tag_254:\n        /* \"SCTERC20.sol\":1016:1046  senderAllowance - amount_ >= 0 */\n      lt\n      iszero\n        /* \"SCTERC20.sol\":1008:1087  require(senderAllowance - amount_ >= 0, \"ERC20: burn amount exceeds allowance\") */\n      tag_255\n      jumpi\n      mload(0x40)\n      shl(0xe5, 0x461bcd)\n      dup2\n      mstore\n        /* \"#utility.yul\":12433:12435   */\n      0x20\n        /* \"SCTERC20.sol\":1008:1087  require(senderAllowance - amount_ >= 0, \"ERC20: burn amount exceeds allowance\") */\n      0x04\n      dup3\n      add\n        /* \"#utility.yul\":12415:12436   */\n      mstore\n        /* \"#utility.yul\":12472:12474   */\n      0x24\n        /* \"#utility.yul\":12452:12470   */\n      dup1\n      dup3\n      add\n        /* \"#utility.yul\":12445:12475   */\n      mstore\n        /* \"#utility.yul\":12511:12545   */\n      0x45524332303a206275726e20616d6f756e74206578636565647320616c6c6f77\n        /* \"#utility.yul\":12491:12509   */\n      0x44\n      dup3\n      add\n        /* \"#utility.yul\":12484:12546   */\n      mstore\n      shl(0xe0, 0x616e6365)\n        /* \"#utility.yul\":12562:12580   */\n      0x64\n      dup3\n      add\n        /* \"#utility.yul\":12555:12589   */\n      mstore\n        /* \"#utility.yul\":12606:12625   */\n      0x84\n      add\n        /* \"SCTERC20.sol\":1008:1087  require(senderAllowance - amount_ >= 0, \"ERC20: burn amount exceeds allowance\") */\n      tag_138\n        /* \"#utility.yul\":12231:12631   */\n      jump\n        /* \"SCTERC20.sol\":1008:1087  require(senderAllowance - amount_ >= 0, \"ERC20: burn amount exceeds allowance\") */\n    tag_255:\n        /* \"SCTERC20.sol\":1097:1123  senderAllowance -= amount_ */\n      tag_258\n        /* \"SCTERC20.sol\":1116:1123  amount_ */\n      dup3\n        /* \"SCTERC20.sol\":1097:1123  senderAllowance -= amount_ */\n      dup3\n      tag_249\n      jump\t// in\n    tag_258:\n      swap1\n      pop\n        /* \"SCTERC20.sol\":1133:1180  _approve(account_, msg.sender, senderAllowance) */\n      tag_259\n        /* \"SCTERC20.sol\":1142:1150  account_ */\n      dup4\n        /* \"SCTERC20.sol\":1152:1162  msg.sender */\n      caller\n        /* \"SCTERC20.sol\":1164:1179  senderAllowance */\n      dup4\n        /* \"SCTERC20.sol\":1133:1141  _approve */\n      tag_114\n        /* \"SCTERC20.sol\":1133:1180  _approve(account_, msg.sender, senderAllowance) */\n      jump\t// in\n    tag_259:\n        /* \"SCTERC20.sol\":1190:1214  _burn(account_, amount_) */\n      tag_251\n        /* \"SCTERC20.sol\":1196:1204  account_ */\n      dup4\n        /* \"SCTERC20.sol\":1206:1213  amount_ */\n      dup4\n        /* \"SCTERC20.sol\":1190:1195  _burn */\n      tag_145\n        /* \"SCTERC20.sol\":1190:1214  _burn(account_, amount_) */\n      jump\t// in\n        /* \"lib/ERC20Permit.sol\":3056:3259  function _useNonce(address owner) internal virtual returns (uint256 current) {... */\n    tag_181:\n      sub(shl(0xa0, 0x01), 0x01)\n        /* \"lib/ERC20Permit.sol\":3176:3190  _nonces[owner] */\n      dup2\n      and\n        /* \"lib/ERC20Permit.sol\":3116:3131  uint256 current */\n      0x00\n        /* \"lib/ERC20Permit.sol\":3176:3190  _nonces[owner] */\n      swap1\n      dup2\n      mstore\n        /* \"lib/ERC20Permit.sol\":3176:3183  _nonces */\n      0x05\n        /* \"lib/ERC20Permit.sol\":3176:3190  _nonces[owner] */\n      0x20\n      mstore\n      0x40\n      swap1\n      keccak256\n        /* \"lib/Counters.sol\":918:932  counter._value */\n      dup1\n      sload\n        /* \"lib/Counters.sol\":1050:1051  1 */\n      0x01\n        /* \"lib/Counters.sol\":1032:1051  counter._value += 1 */\n      dup2\n      add\n      dup3\n      sstore\n        /* \"lib/Counters.sol\":918:932  counter._value */\n      swap1\n        /* \"lib/ERC20Permit.sol\":3235:3252  nonce.increment() */\n    tag_264:\n        /* \"lib/ERC20Permit.sol\":3133:3259  {... */\n      pop\n        /* \"lib/ERC20Permit.sol\":3056:3259  function _useNonce(address owner) internal virtual returns (uint256 current) {... */\n      swap2\n      swap1\n      pop\n      jump\t// out\n        /* \"lib/EIP712.sol\":4339:4504  function _hashTypedDataV4(bytes32 structHash) internal view virtual returns (bytes32) {... */\n    tag_185:\n        /* \"lib/EIP712.sol\":4416:4423  bytes32 */\n      0x00\n        /* \"lib/EIP712.sol\":4442:4497  ECDSA.toTypedDataHash(_domainSeparatorV4(), structHash) */\n      tag_158\n        /* \"lib/EIP712.sol\":4464:4484  _domainSeparatorV4() */\n      tag_268\n        /* \"lib/EIP712.sol\":4464:4482  _domainSeparatorV4 */\n      tag_125\n        /* \"lib/EIP712.sol\":4464:4484  _domainSeparatorV4() */\n      jump\t// in\n    tag_268:\n        /* \"lib/EIP712.sol\":4486:4496  structHash */\n      dup4\n        /* \"lib/ECDSA.sol\":9225:9282  abi.encodePacked(\"\\x19\\x01\", domainSeparator, structHash) */\n      mload(0x40)\n      shl(0xf0, 0x1901)\n      0x20\n      dup3\n      add\n        /* \"#utility.yul\":13388:13415   */\n      mstore\n        /* \"#utility.yul\":13431:13442   */\n      0x22\n      dup2\n      add\n        /* \"#utility.yul\":13424:13451   */\n      dup4\n      swap1\n      mstore\n        /* \"#utility.yul\":13467:13479   */\n      0x42\n      dup2\n      add\n        /* \"#utility.yul\":13460:13488   */\n      dup3\n      swap1\n      mstore\n        /* \"lib/ECDSA.sol\":9189:9196  bytes32 */\n      0x00\n      swap1\n        /* \"#utility.yul\":13504:13516   */\n      0x62\n      add\n        /* \"lib/ECDSA.sol\":9225:9282  abi.encodePacked(\"\\x19\\x01\", domainSeparator, structHash) */\n      mload(0x40)\n      0x20\n      dup2\n      dup4\n      sub\n      sub\n      dup2\n      mstore\n      swap1\n      0x40\n      mstore\n        /* \"lib/ECDSA.sol\":9215:9283  keccak256(abi.encodePacked(\"\\x19\\x01\", domainSeparator, structHash)) */\n      dup1\n      mload\n      swap1\n      0x20\n      add\n      keccak256\n        /* \"lib/ECDSA.sol\":9208:9283  return keccak256(abi.encodePacked(\"\\x19\\x01\", domainSeparator, structHash)) */\n      swap1\n      pop\n        /* \"lib/ECDSA.sol\":9096:9290  function toTypedDataHash(bytes32 domainSeparator, bytes32 structHash) internal pure returns (bytes32) {... */\n      swap3\n      swap2\n      pop\n      pop\n      jump\n        /* \"lib/ECDSA.sol\":7451:7721  function recover(... */\n    tag_187:\n        /* \"lib/ECDSA.sol\":7574:7581  address */\n      0x00\n        /* \"lib/ECDSA.sol\":7594:7611  address recovered */\n      dup1\n        /* \"lib/ECDSA.sol\":7613:7631  RecoverError error */\n      0x00\n        /* \"lib/ECDSA.sol\":7635:7660  tryRecover(hash, v, r, s) */\n      tag_271\n        /* \"lib/ECDSA.sol\":7646:7650  hash */\n      dup8\n        /* \"lib/ECDSA.sol\":7652:7653  v */\n      dup8\n        /* \"lib/ECDSA.sol\":7655:7656  r */\n      dup8\n        /* \"lib/ECDSA.sol\":7658:7659  s */\n      dup8\n        /* \"lib/ECDSA.sol\":7635:7645  tryRecover */\n      tag_272\n        /* \"lib/ECDSA.sol\":7635:7660  tryRecover(hash, v, r, s) */\n      jump\t// in\n    tag_271:\n        /* \"lib/ECDSA.sol\":7593:7660  (address recovered, RecoverError error) = tryRecover(hash, v, r, s) */\n      swap2\n      pop\n      swap2\n      pop\n        /* \"lib/ECDSA.sol\":7670:7688  _throwError(error) */\n      tag_273\n        /* \"lib/ECDSA.sol\":7682:7687  error */\n      dup2\n        /* \"lib/ECDSA.sol\":7670:7681  _throwError */\n      tag_274\n        /* \"lib/ECDSA.sol\":7670:7688  _throwError(error) */\n      jump\t// in\n    tag_273:\n      pop\n        /* \"lib/ECDSA.sol\":7705:7714  recovered */\n      swap6\n        /* \"lib/ECDSA.sol\":7451:7721  function recover(... */\n      swap5\n      pop\n      pop\n      pop\n      pop\n      pop\n      jump\t// out\n        /* \"lib/ECDSA.sol\":5715:7318  function tryRecover(... */\n    tag_272:\n        /* \"lib/ECDSA.sol\":5841:5848  address */\n      0x00\n      dup1\n        /* \"lib/ECDSA.sol\":6765:6831  0x7FFFFFFFFFFFFFFFFFFFFFFFFFFFFFFF5D576E7357A4501DDFE92F46681B20A0 */\n      0x7fffffffffffffffffffffffffffffff5d576e7357a4501ddfe92f46681b20a0\n        /* \"lib/ECDSA.sol\":6752:6831  uint256(s) > 0x7FFFFFFFFFFFFFFFFFFFFFFFFFFFFFFF5D576E7357A4501DDFE92F46681B20A0 */\n      dup4\n      gt\n        /* \"lib/ECDSA.sol\":6748:6909  if (uint256(s) > 0x7FFFFFFFFFFFFFFFFFFFFFFFFFFFFFFF5D576E7357A4501DDFE92F46681B20A0) {... */\n      iszero\n      tag_285\n      jumpi\n      pop\n        /* \"lib/ECDSA.sol\":6863:6864  0 */\n      0x00\n      swap1\n      pop\n        /* \"lib/ECDSA.sol\":6867:6897  RecoverError.InvalidSignatureS */\n      0x03\n        /* \"lib/ECDSA.sol\":6847:6898  return (address(0), RecoverError.InvalidSignatureS) */\n      jump(tag_284)\n        /* \"lib/ECDSA.sol\":6748:6909  if (uint256(s) > 0x7FFFFFFFFFFFFFFFFFFFFFFFFFFFFFFF5D576E7357A4501DDFE92F46681B20A0) {... */\n    tag_285:\n        /* \"lib/ECDSA.sol\":6922:6923  v */\n      dup5\n        /* \"lib/ECDSA.sol\":6922:6929  v != 27 */\n      0xff\n      and\n        /* \"lib/ECDSA.sol\":6927:6929  27 */\n      0x1b\n        /* \"lib/ECDSA.sol\":6922:6929  v != 27 */\n      eq\n      iszero\n        /* \"lib/ECDSA.sol\":6922:6940  v != 27 && v != 28 */\n      dup1\n      iszero\n      tag_286\n      jumpi\n      pop\n        /* \"lib/ECDSA.sol\":6933:6934  v */\n      dup5\n        /* \"lib/ECDSA.sol\":6933:6940  v != 28 */\n      0xff\n      and\n        /* \"lib/ECDSA.sol\":6938:6940  28 */\n      0x1c\n        /* \"lib/ECDSA.sol\":6933:6940  v != 28 */\n      eq\n      iszero\n        /* \"lib/ECDSA.sol\":6922:6940  v != 27 && v != 28 */\n    tag_286:\n        /* \"lib/ECDSA.sol\":6918:7018  if (v != 27 && v != 28) {... */\n      iszero\n      tag_287\n      jumpi\n      pop\n        /* \"lib/ECDSA.sol\":6972:6973  0 */\n      0x00\n      swap1\n      pop\n        /* \"lib/ECDSA.sol\":6976:7006  RecoverError.InvalidSignatureV */\n      0x04\n        /* \"lib/ECDSA.sol\":6956:7007  return (address(0), RecoverError.InvalidSignatureV) */\n      jump(tag_284)\n        /* \"lib/ECDSA.sol\":6918:7018  if (v != 27 && v != 28) {... */\n    tag_287:\n        /* \"lib/ECDSA.sol\":7129:7153  ecrecover(hash, v, r, s) */\n      0x40\n      dup1\n      mload\n        /* \"lib/ECDSA.sol\":7112:7126  address signer */\n      0x00\n        /* \"lib/ECDSA.sol\":7129:7153  ecrecover(hash, v, r, s) */\n      dup1\n      dup3\n      mstore\n      0x20\n      dup3\n      add\n      dup1\n      dup5\n      mstore\n        /* \"#utility.yul\":13754:13779   */\n      dup10\n      swap1\n      mstore\n        /* \"#utility.yul\":13827:13831   */\n      0xff\n        /* \"#utility.yul\":13815:13832   */\n      dup9\n      and\n        /* \"#utility.yul\":13795:13813   */\n      swap3\n      dup3\n      add\n        /* \"#utility.yul\":13788:13833   */\n      swap3\n      swap1\n      swap3\n      mstore\n        /* \"#utility.yul\":13849:13867   */\n      0x60\n      dup2\n      add\n        /* \"#utility.yul\":13842:13876   */\n      dup7\n      swap1\n      mstore\n        /* \"#utility.yul\":13892:13910   */\n      0x80\n      dup2\n      add\n        /* \"#utility.yul\":13885:13919   */\n      dup6\n      swap1\n      mstore\n        /* \"lib/ECDSA.sol\":7129:7153  ecrecover(hash, v, r, s) */\n      0x01\n      swap1\n        /* \"#utility.yul\":13726:13745   */\n      0xa0\n      add\n        /* \"lib/ECDSA.sol\":7129:7153  ecrecover(hash, v, r, s) */\n      0x20\n      mload(0x40)\n      0x20\n      dup2\n      sub\n      swap1\n      dup1\n      dup5\n      sub\n      swap1\n      dup6\n      gas\n      staticcall\n      iszero\n      dup1\n      iszero\n      tag_291\n      jumpi\n      returndatasize\n      0x00\n      dup1\n      returndatacopy\n      revert(0x00, returndatasize)\n    tag_291:\n      pop\n      pop\n      mload(add(not(0x1f), mload(0x40)))\n      swap2\n      pop\n      pop\n      sub(shl(0xa0, 0x01), 0x01)\n        /* \"lib/ECDSA.sol\":7167:7187  signer == address(0) */\n      dup2\n      and\n        /* \"lib/ECDSA.sol\":7163:7264  if (signer == address(0)) {... */\n      tag_292\n      jumpi\n        /* \"lib/ECDSA.sol\":7219:7220  0 */\n      0x00\n        /* \"lib/ECDSA.sol\":7223:7252  RecoverError.InvalidSignature */\n      0x01\n        /* \"lib/ECDSA.sol\":7203:7253  return (address(0), RecoverError.InvalidSignature) */\n      swap3\n      pop\n      swap3\n      pop\n      pop\n      jump(tag_284)\n        /* \"lib/ECDSA.sol\":7163:7264  if (signer == address(0)) {... */\n    tag_292:\n        /* \"lib/ECDSA.sol\":7282:7288  signer */\n      swap2\n      pop\n        /* \"lib/ECDSA.sol\":7290:7310  RecoverError.NoError */\n      0x00\n      swap1\n      pop\n        /* \"lib/ECDSA.sol\":5715:7318  function tryRecover(... */\n    tag_284:\n      swap5\n      pop\n      swap5\n      swap3\n      pop\n      pop\n      pop\n      jump\t// out\n        /* \"lib/ECDSA.sol\":547:1178  function _throwError(RecoverError error) private pure {... */\n    tag_274:\n        /* \"lib/ECDSA.sol\":624:644  RecoverError.NoError */\n      0x00\n        /* \"lib/ECDSA.sol\":615:620  error */\n      dup2\n        /* \"lib/ECDSA.sol\":615:644  error == RecoverError.NoError */\n      0x04\n      dup2\n      gt\n      iszero\n      tag_298\n      jumpi\n      tag_298\n      tag_296\n      jump\t// in\n    tag_298:\n      sub\n        /* \"lib/ECDSA.sol\":611:1172  if (error == RecoverError.NoError) {... */\n      tag_299\n      jumpi\n        /* \"lib/ECDSA.sol\":547:1178  function _throwError(RecoverError error) private pure {... */\n      pop\n      jump\t// out\n        /* \"lib/ECDSA.sol\":611:1172  if (error == RecoverError.NoError) {... */\n    tag_299:\n        /* \"lib/ECDSA.sol\":720:749  RecoverError.InvalidSignature */\n      0x01\n        /* \"lib/ECDSA.sol\":711:716  error */\n      dup2\n        /* \"lib/ECDSA.sol\":711:749  error == RecoverError.InvalidSignature */\n      0x04\n      dup2\n      gt\n      iszero\n      tag_304\n      jumpi\n      tag_304\n      tag_296\n      jump\t// in\n    tag_304:\n      sub\n        /* \"lib/ECDSA.sol\":707:1172  if (error == RecoverError.InvalidSignature) {... */\n      tag_305\n      jumpi\n        /* \"lib/ECDSA.sol\":765:799  revert(\"ECDSA: invalid signature\") */\n      mload(0x40)\n      shl(0xe5, 0x461bcd)\n      dup2\n      mstore\n        /* \"#utility.yul\":14264:14266   */\n      0x20\n        /* \"lib/ECDSA.sol\":765:799  revert(\"ECDSA: invalid signature\") */\n      0x04\n      dup3\n      add\n        /* \"#utility.yul\":14246:14267   */\n      mstore\n        /* \"#utility.yul\":14303:14305   */\n      0x18\n        /* \"#utility.yul\":14283:14301   */\n      0x24\n      dup3\n      add\n        /* \"#utility.yul\":14276:14306   */\n      mstore\n        /* \"#utility.yul\":14342:14368   */\n      0x45434453413a20696e76616c6964207369676e61747572650000000000000000\n        /* \"#utility.yul\":14322:14340   */\n      0x44\n      dup3\n      add\n        /* \"#utility.yul\":14315:14369   */\n      mstore\n        /* \"#utility.yul\":14386:14404   */\n      0x64\n      add\n        /* \"lib/ECDSA.sol\":765:799  revert(\"ECDSA: invalid signature\") */\n      tag_138\n        /* \"#utility.yul\":14062:14410   */\n      jump\n        /* \"lib/ECDSA.sol\":707:1172  if (error == RecoverError.InvalidSignature) {... */\n    tag_305:\n        /* \"lib/ECDSA.sol\":829:864  RecoverError.InvalidSignatureLength */\n      0x02\n        /* \"lib/ECDSA.sol\":820:825  error */\n      dup2\n        /* \"lib/ECDSA.sol\":820:864  error == RecoverError.InvalidSignatureLength */\n      0x04\n      dup2\n      gt\n      iszero\n      tag_312\n      jumpi\n      tag_312\n      tag_296\n      jump\t// in\n    tag_312:\n      sub\n        /* \"lib/ECDSA.sol\":816:1172  if (error == RecoverError.InvalidSignatureLength) {... */\n      tag_313\n      jumpi\n        /* \"lib/ECDSA.sol\":880:921  revert(\"ECDSA: invalid signature length\") */\n      mload(0x40)\n      shl(0xe5, 0x461bcd)\n      dup2\n      mstore\n        /* \"#utility.yul\":14617:14619   */\n      0x20\n        /* \"lib/ECDSA.sol\":880:921  revert(\"ECDSA: invalid signature length\") */\n      0x04\n      dup3\n      add\n        /* \"#utility.yul\":14599:14620   */\n      mstore\n        /* \"#utility.yul\":14656:14658   */\n      0x1f\n        /* \"#utility.yul\":14636:14654   */\n      0x24\n      dup3\n      add\n        /* \"#utility.yul\":14629:14659   */\n      mstore\n        /* \"#utility.yul\":14695:14728   */\n      0x45434453413a20696e76616c6964207369676e6174757265206c656e67746800\n        /* \"#utility.yul\":14675:14693   */\n      0x44\n      dup3\n      add\n        /* \"#utility.yul\":14668:14729   */\n      mstore\n        /* \"#utility.yul\":14746:14764   */\n      0x64\n      add\n        /* \"lib/ECDSA.sol\":880:921  revert(\"ECDSA: invalid signature length\") */\n      tag_138\n        /* \"#utility.yul\":14415:14770   */\n      jump\n        /* \"lib/ECDSA.sol\":816:1172  if (error == RecoverError.InvalidSignatureLength) {... */\n    tag_313:\n        /* \"lib/ECDSA.sol\":951:981  RecoverError.InvalidSignatureS */\n      0x03\n        /* \"lib/ECDSA.sol\":942:947  error */\n      dup2\n        /* \"lib/ECDSA.sol\":942:981  error == RecoverError.InvalidSignatureS */\n      0x04\n      dup2\n      gt\n      iszero\n      tag_320\n      jumpi\n      tag_320\n      tag_296\n      jump\t// in\n    tag_320:\n      sub\n        /* \"lib/ECDSA.sol\":938:1172  if (error == RecoverError.InvalidSignatureS) {... */\n      tag_321\n      jumpi\n        /* \"lib/ECDSA.sol\":997:1041  revert(\"ECDSA: invalid signature 's' value\") */\n      mload(0x40)\n      shl(0xe5, 0x461bcd)\n      dup2\n      mstore\n        /* \"#utility.yul\":14977:14979   */\n      0x20\n        /* \"lib/ECDSA.sol\":997:1041  revert(\"ECDSA: invalid signature 's' value\") */\n      0x04\n      dup3\n      add\n        /* \"#utility.yul\":14959:14980   */\n      mstore\n        /* \"#utility.yul\":15016:15018   */\n      0x22\n        /* \"#utility.yul\":14996:15014   */\n      0x24\n      dup3\n      add\n        /* \"#utility.yul\":14989:15019   */\n      mstore\n        /* \"#utility.yul\":15055:15089   */\n      0x45434453413a20696e76616c6964207369676e6174757265202773272076616c\n        /* \"#utility.yul\":15035:15053   */\n      0x44\n      dup3\n      add\n        /* \"#utility.yul\":15028:15090   */\n      mstore\n      shl(0xf0, 0x7565)\n        /* \"#utility.yul\":15106:15124   */\n      0x64\n      dup3\n      add\n        /* \"#utility.yul\":15099:15131   */\n      mstore\n        /* \"#utility.yul\":15148:15167   */\n      0x84\n      add\n        /* \"lib/ECDSA.sol\":997:1041  revert(\"ECDSA: invalid signature 's' value\") */\n      tag_138\n        /* \"#utility.yul\":14775:15173   */\n      jump\n        /* \"lib/ECDSA.sol\":938:1172  if (error == RecoverError.InvalidSignatureS) {... */\n    tag_321:\n        /* \"lib/ECDSA.sol\":1071:1101  RecoverError.InvalidSignatureV */\n      0x04\n        /* \"lib/ECDSA.sol\":1062:1067  error */\n      dup2\n        /* \"lib/ECDSA.sol\":1062:1101  error == RecoverError.InvalidSignatureV */\n      0x04\n      dup2\n      gt\n      iszero\n      tag_328\n      jumpi\n      tag_328\n      tag_296\n      jump\t// in\n    tag_328:\n      sub\n        /* \"lib/ECDSA.sol\":1058:1172  if (error == RecoverError.InvalidSignatureV) {... */\n      tag_144\n      jumpi\n        /* \"lib/ECDSA.sol\":1117:1161  revert(\"ECDSA: invalid signature 'v' value\") */\n      mload(0x40)\n      shl(0xe5, 0x461bcd)\n      dup2\n      mstore\n        /* \"#utility.yul\":15380:15382   */\n      0x20\n        /* \"lib/ECDSA.sol\":1117:1161  revert(\"ECDSA: invalid signature 'v' value\") */\n      0x04\n      dup3\n      add\n        /* \"#utility.yul\":15362:15383   */\n      mstore\n        /* \"#utility.yul\":15419:15421   */\n      0x22\n        /* \"#utility.yul\":15399:15417   */\n      0x24\n      dup3\n      add\n        /* \"#utility.yul\":15392:15422   */\n      mstore\n        /* \"#utility.yul\":15458:15492   */\n      0x45434453413a20696e76616c6964207369676e6174757265202776272076616c\n        /* \"#utility.yul\":15438:15456   */\n      0x44\n      dup3\n      add\n        /* \"#utility.yul\":15431:15493   */\n      mstore\n      shl(0xf0, 0x7565)\n        /* \"#utility.yul\":15509:15527   */\n      0x64\n      dup3\n      add\n        /* \"#utility.yul\":15502:15534   */\n      mstore\n        /* \"#utility.yul\":15551:15570   */\n      0x84\n      add\n        /* \"lib/ECDSA.sol\":1117:1161  revert(\"ECDSA: invalid signature 'v' value\") */\n      tag_138\n        /* \"#utility.yul\":15178:15576   */\n      jump\n        /* \"#utility.yul\":169:766   */\n    tag_28:\n        /* \"#utility.yul\":281:285   */\n      0x00\n        /* \"#utility.yul\":310:312   */\n      0x20\n        /* \"#utility.yul\":339:341   */\n      dup1\n        /* \"#utility.yul\":328:337   */\n      dup4\n        /* \"#utility.yul\":321:342   */\n      mstore\n        /* \"#utility.yul\":371:377   */\n      dup4\n        /* \"#utility.yul\":365:378   */\n      mload\n        /* \"#utility.yul\":414:420   */\n      dup1\n        /* \"#utility.yul\":409:411   */\n      dup3\n        /* \"#utility.yul\":398:407   */\n      dup6\n        /* \"#utility.yul\":394:412   */\n      add\n        /* \"#utility.yul\":387:421   */\n      mstore\n        /* \"#utility.yul\":439:440   */\n      0x00\n        /* \"#utility.yul\":449:589   */\n    tag_339:\n        /* \"#utility.yul\":463:469   */\n      dup2\n        /* \"#utility.yul\":460:461   */\n      dup2\n        /* \"#utility.yul\":457:470   */\n      lt\n        /* \"#utility.yul\":449:589   */\n      iszero\n      tag_341\n      jumpi\n        /* \"#utility.yul\":558:572   */\n      dup6\n      dup2\n      add\n        /* \"#utility.yul\":554:577   */\n      dup4\n      add\n        /* \"#utility.yul\":548:578   */\n      mload\n        /* \"#utility.yul\":524:541   */\n      dup6\n      dup3\n      add\n        /* \"#utility.yul\":543:545   */\n      0x40\n        /* \"#utility.yul\":520:546   */\n      add\n        /* \"#utility.yul\":513:579   */\n      mstore\n        /* \"#utility.yul\":478:488   */\n      dup3\n      add\n        /* \"#utility.yul\":449:589   */\n      jump(tag_339)\n    tag_341:\n        /* \"#utility.yul\":607:613   */\n      dup2\n        /* \"#utility.yul\":604:605   */\n      dup2\n        /* \"#utility.yul\":601:614   */\n      gt\n        /* \"#utility.yul\":598:689   */\n      iszero\n      tag_342\n      jumpi\n        /* \"#utility.yul\":677:678   */\n      0x00\n        /* \"#utility.yul\":672:674   */\n      0x40\n        /* \"#utility.yul\":663:669   */\n      dup4\n        /* \"#utility.yul\":652:661   */\n      dup8\n        /* \"#utility.yul\":648:670   */\n      add\n        /* \"#utility.yul\":644:675   */\n      add\n        /* \"#utility.yul\":637:679   */\n      mstore\n        /* \"#utility.yul\":598:689   */\n    tag_342:\n      pop\n        /* \"#utility.yul\":750:752   */\n      0x1f\n        /* \"#utility.yul\":729:744   */\n      add\n      not(0x1f)\n        /* \"#utility.yul\":725:754   */\n      and\n        /* \"#utility.yul\":710:755   */\n      swap3\n      swap1\n      swap3\n      add\n        /* \"#utility.yul\":757:759   */\n      0x40\n        /* \"#utility.yul\":706:760   */\n      add\n      swap4\n        /* \"#utility.yul\":169:766   */\n      swap3\n      pop\n      pop\n      pop\n      jump\t// out\n        /* \"#utility.yul\":771:902   */\n    tag_333:\n      sub(shl(0xa0, 0x01), 0x01)\n        /* \"#utility.yul\":846:877   */\n      dup2\n      and\n        /* \"#utility.yul\":836:878   */\n      dup2\n      eq\n        /* \"#utility.yul\":826:896   */\n      tag_144\n      jumpi\n        /* \"#utility.yul\":892:893   */\n      0x00\n        /* \"#utility.yul\":889:890   */\n      dup1\n        /* \"#utility.yul\":882:894   */\n      revert\n        /* \"#utility.yul\":907:1222   */\n    tag_31:\n        /* \"#utility.yul\":975:981   */\n      0x00\n        /* \"#utility.yul\":983:989   */\n      dup1\n        /* \"#utility.yul\":1036:1038   */\n      0x40\n        /* \"#utility.yul\":1024:1033   */\n      dup4\n        /* \"#utility.yul\":1015:1022   */\n      dup6\n        /* \"#utility.yul\":1011:1034   */\n      sub\n        /* \"#utility.yul\":1007:1039   */\n      slt\n        /* \"#utility.yul\":1004:1056   */\n      iszero\n      tag_346\n      jumpi\n        /* \"#utility.yul\":1052:1053   */\n      0x00\n        /* \"#utility.yul\":1049:1050   */\n      dup1\n        /* \"#utility.yul\":1042:1054   */\n      revert\n        /* \"#utility.yul\":1004:1056   */\n    tag_346:\n        /* \"#utility.yul\":1091:1100   */\n      dup3\n        /* \"#utility.yul\":1078:1101   */\n      calldataload\n        /* \"#utility.yul\":1110:1141   */\n      tag_347\n        /* \"#utility.yul\":1135:1140   */\n      dup2\n        /* \"#utility.yul\":1110:1141   */\n      tag_333\n      jump\t// in\n    tag_347:\n        /* \"#utility.yul\":1160:1165   */\n      swap5\n        /* \"#utility.yul\":1212:1214   */\n      0x20\n        /* \"#utility.yul\":1197:1215   */\n      swap4\n      swap1\n      swap4\n      add\n        /* \"#utility.yul\":1184:1216   */\n      calldataload\n      swap4\n      pop\n      pop\n      pop\n        /* \"#utility.yul\":907:1222   */\n      jump\t// out\n        /* \"#utility.yul\":1601:2057   */\n    tag_41:\n        /* \"#utility.yul\":1678:1684   */\n      0x00\n        /* \"#utility.yul\":1686:1692   */\n      dup1\n        /* \"#utility.yul\":1694:1700   */\n      0x00\n        /* \"#utility.yul\":1747:1749   */\n      0x60\n        /* \"#utility.yul\":1735:1744   */\n      dup5\n        /* \"#utility.yul\":1726:1733   */\n      dup7\n        /* \"#utility.yul\":1722:1745   */\n      sub\n        /* \"#utility.yul\":1718:1750   */\n      slt\n        /* \"#utility.yul\":1715:1767   */\n      iszero\n      tag_351\n      jumpi\n        /* \"#utility.yul\":1763:1764   */\n      0x00\n        /* \"#utility.yul\":1760:1761   */\n      dup1\n        /* \"#utility.yul\":1753:1765   */\n      revert\n        /* \"#utility.yul\":1715:1767   */\n    tag_351:\n        /* \"#utility.yul\":1802:1811   */\n      dup4\n        /* \"#utility.yul\":1789:1812   */\n      calldataload\n        /* \"#utility.yul\":1821:1852   */\n      tag_352\n        /* \"#utility.yul\":1846:1851   */\n      dup2\n        /* \"#utility.yul\":1821:1852   */\n      tag_333\n      jump\t// in\n    tag_352:\n        /* \"#utility.yul\":1871:1876   */\n      swap3\n      pop\n        /* \"#utility.yul\":1928:1930   */\n      0x20\n        /* \"#utility.yul\":1913:1931   */\n      dup5\n      add\n        /* \"#utility.yul\":1900:1932   */\n      calldataload\n        /* \"#utility.yul\":1941:1974   */\n      tag_353\n        /* \"#utility.yul\":1900:1932   */\n      dup2\n        /* \"#utility.yul\":1941:1974   */\n      tag_333\n      jump\t// in\n    tag_353:\n        /* \"#utility.yul\":1601:2057   */\n      swap3\n      swap6\n        /* \"#utility.yul\":1993:2000   */\n      swap3\n      swap5\n      pop\n      pop\n      pop\n        /* \"#utility.yul\":2047:2049   */\n      0x40\n        /* \"#utility.yul\":2032:2050   */\n      swap2\n      swap1\n      swap2\n      add\n        /* \"#utility.yul\":2019:2051   */\n      calldataload\n      swap1\n        /* \"#utility.yul\":1601:2057   */\n      jump\t// out\n        /* \"#utility.yul\":2433:2613   */\n    tag_61:\n        /* \"#utility.yul\":2492:2498   */\n      0x00\n        /* \"#utility.yul\":2545:2547   */\n      0x20\n        /* \"#utility.yul\":2533:2542   */\n      dup3\n        /* \"#utility.yul\":2524:2531   */\n      dup5\n        /* \"#utility.yul\":2520:2543   */\n      sub\n        /* \"#utility.yul\":2516:2548   */\n      slt\n        /* \"#utility.yul\":2513:2565   */\n      iszero\n      tag_357\n      jumpi\n        /* \"#utility.yul\":2561:2562   */\n      0x00\n        /* \"#utility.yul\":2558:2559   */\n      dup1\n        /* \"#utility.yul\":2551:2563   */\n      revert\n        /* \"#utility.yul\":2513:2565   */\n    tag_357:\n      pop\n        /* \"#utility.yul\":2584:2607   */\n      calldataload\n      swap2\n        /* \"#utility.yul\":2433:2613   */\n      swap1\n      pop\n      jump\t// out\n        /* \"#utility.yul\":2618:2865   */\n    tag_65:\n        /* \"#utility.yul\":2677:2683   */\n      0x00\n        /* \"#utility.yul\":2730:2732   */\n      0x20\n        /* \"#utility.yul\":2718:2727   */\n      dup3\n        /* \"#utility.yul\":2709:2716   */\n      dup5\n        /* \"#utility.yul\":2705:2728   */\n      sub\n        /* \"#utility.yul\":2701:2733   */\n      slt\n        /* \"#utility.yul\":2698:2750   */\n      iszero\n      tag_359\n      jumpi\n        /* \"#utility.yul\":2746:2747   */\n      0x00\n        /* \"#utility.yul\":2743:2744   */\n      dup1\n        /* \"#utility.yul\":2736:2748   */\n      revert\n        /* \"#utility.yul\":2698:2750   */\n    tag_359:\n        /* \"#utility.yul\":2785:2794   */\n      dup2\n        /* \"#utility.yul\":2772:2795   */\n      calldataload\n        /* \"#utility.yul\":2804:2835   */\n      tag_360\n        /* \"#utility.yul\":2829:2834   */\n      dup2\n        /* \"#utility.yul\":2804:2835   */\n      tag_333\n      jump\t// in\n    tag_360:\n        /* \"#utility.yul\":2854:2859   */\n      swap4\n        /* \"#utility.yul\":2618:2865   */\n      swap3\n      pop\n      pop\n      pop\n      jump\t// out\n        /* \"#utility.yul\":3384:4213   */\n    tag_96:\n        /* \"#utility.yul\":3495:3501   */\n      0x00\n        /* \"#utility.yul\":3503:3509   */\n      dup1\n        /* \"#utility.yul\":3511:3517   */\n      0x00\n        /* \"#utility.yul\":3519:3525   */\n      dup1\n        /* \"#utility.yul\":3527:3533   */\n      0x00\n        /* \"#utility.yul\":3535:3541   */\n      dup1\n        /* \"#utility.yul\":3543:3549   */\n      0x00\n        /* \"#utility.yul\":3596:3599   */\n      0xe0\n        /* \"#utility.yul\":3584:3593   */\n      dup9\n        /* \"#utility.yul\":3575:3582   */\n      dup11\n        /* \"#utility.yul\":3571:3594   */\n      sub\n        /* \"#utility.yul\":3567:3600   */\n      slt\n        /* \"#utility.yul\":3564:3617   */\n      iszero\n      tag_366\n      jumpi\n        /* \"#utility.yul\":3613:3614   */\n      0x00\n        /* \"#utility.yul\":3610:3611   */\n      dup1\n        /* \"#utility.yul\":3603:3615   */\n      revert\n        /* \"#utility.yul\":3564:3617   */\n    tag_366:\n        /* \"#utility.yul\":3652:3661   */\n      dup8\n        /* \"#utility.yul\":3639:3662   */\n      calldataload\n        /* \"#utility.yul\":3671:3702   */\n      tag_367\n        /* \"#utility.yul\":3696:3701   */\n      dup2\n        /* \"#utility.yul\":3671:3702   */\n      tag_333\n      jump\t// in\n    tag_367:\n        /* \"#utility.yul\":3721:3726   */\n      swap7\n      pop\n        /* \"#utility.yul\":3778:3780   */\n      0x20\n        /* \"#utility.yul\":3763:3781   */\n      dup9\n      add\n        /* \"#utility.yul\":3750:3782   */\n      calldataload\n        /* \"#utility.yul\":3791:3824   */\n      tag_368\n        /* \"#utility.yul\":3750:3782   */\n      dup2\n        /* \"#utility.yul\":3791:3824   */\n      tag_333\n      jump\t// in\n    tag_368:\n        /* \"#utility.yul\":3843:3850   */\n      swap6\n      pop\n        /* \"#utility.yul\":3897:3899   */\n      0x40\n        /* \"#utility.yul\":3882:3900   */\n      dup9\n      add\n        /* \"#utility.yul\":3869:3901   */\n      calldataload\n      swap5\n      pop\n        /* \"#utility.yul\":3948:3950   */\n      0x60\n        /* \"#utility.yul\":3933:3951   */\n      dup9\n      add\n        /* \"#utility.yul\":3920:3952   */\n      calldataload\n      swap4\n      pop\n        /* \"#utility.yul\":4004:4007   */\n      0x80\n        /* \"#utility.yul\":3989:4008   */\n      dup9\n      add\n        /* \"#utility.yul\":3976:4009   */\n      calldataload\n        /* \"#utility.yul\":4053:4057   */\n      0xff\n        /* \"#utility.yul\":4040:4058   */\n      dup2\n      and\n        /* \"#utility.yul\":4028:4059   */\n      dup2\n      eq\n        /* \"#utility.yul\":4018:4077   */\n      tag_369\n      jumpi\n        /* \"#utility.yul\":4073:4074   */\n      0x00\n        /* \"#utility.yul\":4070:4071   */\n      dup1\n        /* \"#utility.yul\":4063:4075   */\n      revert\n        /* \"#utility.yul\":4018:4077   */\n    tag_369:\n        /* \"#utility.yul\":3384:4213   */\n      swap7\n      swap10\n      swap6\n      swap9\n      pop\n      swap4\n      swap7\n      swap3\n      swap6\n        /* \"#utility.yul\":4096:4103   */\n      swap5\n        /* \"#utility.yul\":4150:4153   */\n      0xa0\n        /* \"#utility.yul\":4135:4154   */\n      dup5\n      add\n        /* \"#utility.yul\":4122:4155   */\n      calldataload\n      swap5\n      pop\n        /* \"#utility.yul\":4202:4205   */\n      0xc0\n        /* \"#utility.yul\":4187:4206   */\n      swap1\n      swap4\n      add\n        /* \"#utility.yul\":4174:4207   */\n      calldataload\n      swap3\n        /* \"#utility.yul\":3384:4213   */\n      swap2\n      pop\n      pop\n      jump\t// out\n        /* \"#utility.yul\":4218:4606   */\n    tag_100:\n        /* \"#utility.yul\":4286:4292   */\n      0x00\n        /* \"#utility.yul\":4294:4300   */\n      dup1\n        /* \"#utility.yul\":4347:4349   */\n      0x40\n        /* \"#utility.yul\":4335:4344   */\n      dup4\n        /* \"#utility.yul\":4326:4333   */\n      dup6\n        /* \"#utility.yul\":4322:4345   */\n      sub\n        /* \"#utility.yul\":4318:4350   */\n      slt\n        /* \"#utility.yul\":4315:4367   */\n      iszero\n      tag_371\n      jumpi\n        /* \"#utility.yul\":4363:4364   */\n      0x00\n        /* \"#utility.yul\":4360:4361   */\n      dup1\n        /* \"#utility.yul\":4353:4365   */\n      revert\n        /* \"#utility.yul\":4315:4367   */\n    tag_371:\n        /* \"#utility.yul\":4402:4411   */\n      dup3\n        /* \"#utility.yul\":4389:4412   */\n      calldataload\n        /* \"#utility.yul\":4421:4452   */\n      tag_372\n        /* \"#utility.yul\":4446:4451   */\n      dup2\n        /* \"#utility.yul\":4421:4452   */\n      tag_333\n      jump\t// in\n    tag_372:\n        /* \"#utility.yul\":4471:4476   */\n      swap2\n      pop\n        /* \"#utility.yul\":4528:4530   */\n      0x20\n        /* \"#utility.yul\":4513:4531   */\n      dup4\n      add\n        /* \"#utility.yul\":4500:4532   */\n      calldataload\n        /* \"#utility.yul\":4541:4574   */\n      tag_373\n        /* \"#utility.yul\":4500:4532   */\n      dup2\n        /* \"#utility.yul\":4541:4574   */\n      tag_333\n      jump\t// in\n    tag_373:\n        /* \"#utility.yul\":4593:4600   */\n      dup1\n        /* \"#utility.yul\":4583:4600   */\n      swap2\n      pop\n      pop\n        /* \"#utility.yul\":4218:4606   */\n      swap3\n      pop\n      swap3\n      swap1\n      pop\n      jump\t// out\n        /* \"#utility.yul\":4611:4991   */\n    tag_105:\n        /* \"#utility.yul\":4690:4691   */\n      0x01\n        /* \"#utility.yul\":4686:4698   */\n      dup2\n      dup2\n      shr\n      swap1\n        /* \"#utility.yul\":4733:4745   */\n      dup3\n      and\n      dup1\n        /* \"#utility.yul\":4754:4815   */\n      tag_375\n      jumpi\n        /* \"#utility.yul\":4808:4812   */\n      0x7f\n        /* \"#utility.yul\":4800:4806   */\n      dup3\n        /* \"#utility.yul\":4796:4813   */\n      and\n        /* \"#utility.yul\":4786:4813   */\n      swap2\n      pop\n        /* \"#utility.yul\":4754:4815   */\n    tag_375:\n        /* \"#utility.yul\":4861:4863   */\n      0x20\n        /* \"#utility.yul\":4853:4859   */\n      dup3\n        /* \"#utility.yul\":4850:4864   */\n      lt\n        /* \"#utility.yul\":4830:4848   */\n      dup2\n        /* \"#utility.yul\":4827:4865   */\n      sub\n        /* \"#utility.yul\":4824:4985   */\n      tag_264\n      jumpi\n        /* \"#utility.yul\":4907:4917   */\n      0x4e487b71\n        /* \"#utility.yul\":4902:4905   */\n      0xe0\n        /* \"#utility.yul\":4898:4918   */\n      shl\n        /* \"#utility.yul\":4895:4896   */\n      0x00\n        /* \"#utility.yul\":4888:4919   */\n      mstore\n        /* \"#utility.yul\":4942:4946   */\n      0x22\n        /* \"#utility.yul\":4939:4940   */\n      0x04\n        /* \"#utility.yul\":4932:4947   */\n      mstore\n        /* \"#utility.yul\":4970:4974   */\n      0x24\n        /* \"#utility.yul\":4967:4968   */\n      0x00\n        /* \"#utility.yul\":4960:4975   */\n      revert\n        /* \"#utility.yul\":4996:5123   */\n    tag_334:\n        /* \"#utility.yul\":5057:5067   */\n      0x4e487b71\n        /* \"#utility.yul\":5052:5055   */\n      0xe0\n        /* \"#utility.yul\":5048:5068   */\n      shl\n        /* \"#utility.yul\":5045:5046   */\n      0x00\n        /* \"#utility.yul\":5038:5069   */\n      mstore\n        /* \"#utility.yul\":5088:5092   */\n      0x11\n        /* \"#utility.yul\":5085:5086   */\n      0x04\n        /* \"#utility.yul\":5078:5093   */\n      mstore\n        /* \"#utility.yul\":5112:5116   */\n      0x24\n        /* \"#utility.yul\":5109:5110   */\n      0x00\n        /* \"#utility.yul\":5102:5117   */\n      revert\n        /* \"#utility.yul\":5128:5256   */\n    tag_131:\n        /* \"#utility.yul\":5168:5171   */\n      0x00\n        /* \"#utility.yul\":5199:5200   */\n      dup3\n        /* \"#utility.yul\":5195:5201   */\n      not\n        /* \"#utility.yul\":5192:5193   */\n      dup3\n        /* \"#utility.yul\":5189:5202   */\n      gt\n        /* \"#utility.yul\":5186:5225   */\n      iszero\n      tag_380\n      jumpi\n        /* \"#utility.yul\":5205:5223   */\n      tag_380\n      tag_334\n      jump\t// in\n    tag_380:\n      pop\n        /* \"#utility.yul\":5241:5250   */\n      add\n      swap1\n        /* \"#utility.yul\":5128:5256   */\n      jump\t// out\n        /* \"#utility.yul\":5261:5512   */\n    tag_136:\n        /* \"#utility.yul\":5331:5337   */\n      0x00\n        /* \"#utility.yul\":5384:5386   */\n      0x20\n        /* \"#utility.yul\":5372:5381   */\n      dup3\n        /* \"#utility.yul\":5363:5370   */\n      dup5\n        /* \"#utility.yul\":5359:5382   */\n      sub\n        /* \"#utility.yul\":5355:5387   */\n      slt\n        /* \"#utility.yul\":5352:5404   */\n      iszero\n      tag_382\n      jumpi\n        /* \"#utility.yul\":5400:5401   */\n      0x00\n        /* \"#utility.yul\":5397:5398   */\n      dup1\n        /* \"#utility.yul\":5390:5402   */\n      revert\n        /* \"#utility.yul\":5352:5404   */\n    tag_382:\n        /* \"#utility.yul\":5432:5441   */\n      dup2\n        /* \"#utility.yul\":5426:5442   */\n      mload\n        /* \"#utility.yul\":5451:5482   */\n      tag_360\n        /* \"#utility.yul\":5476:5481   */\n      dup2\n        /* \"#utility.yul\":5451:5482   */\n      tag_333\n      jump\t// in\n        /* \"#utility.yul\":5643:6829   */\n    tag_139:\n        /* \"#utility.yul\":5752:5756   */\n      0x00\n        /* \"#utility.yul\":5781:5783   */\n      0x20\n        /* \"#utility.yul\":5810:5812   */\n      dup1\n        /* \"#utility.yul\":5799:5808   */\n      dup4\n        /* \"#utility.yul\":5792:5813   */\n      mstore\n        /* \"#utility.yul\":5833:5834   */\n      0x00\n        /* \"#utility.yul\":5866:5872   */\n      dup5\n        /* \"#utility.yul\":5860:5873   */\n      sload\n        /* \"#utility.yul\":5896:5899   */\n      dup2\n        /* \"#utility.yul\":5918:5919   */\n      0x01\n        /* \"#utility.yul\":5946:5955   */\n      dup3\n        /* \"#utility.yul\":5942:5944   */\n      dup2\n        /* \"#utility.yul\":5938:5956   */\n      shr\n        /* \"#utility.yul\":5928:5956   */\n      swap2\n      pop\n        /* \"#utility.yul\":6006:6008   */\n      dup1\n        /* \"#utility.yul\":5995:6004   */\n      dup4\n        /* \"#utility.yul\":5991:6009   */\n      and\n        /* \"#utility.yul\":6028:6046   */\n      dup1\n        /* \"#utility.yul\":6018:6079   */\n      tag_386\n      jumpi\n        /* \"#utility.yul\":6072:6076   */\n      0x7f\n        /* \"#utility.yul\":6064:6070   */\n      dup4\n        /* \"#utility.yul\":6060:6077   */\n      and\n        /* \"#utility.yul\":6050:6077   */\n      swap3\n      pop\n        /* \"#utility.yul\":6018:6079   */\n    tag_386:\n        /* \"#utility.yul\":6125:6127   */\n      dup6\n        /* \"#utility.yul\":6117:6123   */\n      dup4\n        /* \"#utility.yul\":6114:6128   */\n      lt\n        /* \"#utility.yul\":6094:6112   */\n      dup2\n        /* \"#utility.yul\":6091:6129   */\n      sub\n        /* \"#utility.yul\":6088:6253   */\n      tag_387\n      jumpi\n      shl(0xe0, 0x4e487b71)\n        /* \"#utility.yul\":6152:6185   */\n      dup6\n      mstore\n        /* \"#utility.yul\":6208:6212   */\n      0x22\n        /* \"#utility.yul\":6205:6206   */\n      0x04\n        /* \"#utility.yul\":6198:6213   */\n      mstore\n        /* \"#utility.yul\":6238:6242   */\n      0x24\n        /* \"#utility.yul\":6159:6162   */\n      dup6\n        /* \"#utility.yul\":6226:6243   */\n      revert\n        /* \"#utility.yul\":6088:6253   */\n    tag_387:\n        /* \"#utility.yul\":6309:6327   */\n      dup8\n      dup7\n      add\n        /* \"#utility.yul\":101:120   */\n      dup4\n      dup2\n      mstore\n        /* \"#utility.yul\":153:157   */\n      0x20\n        /* \"#utility.yul\":144:158   */\n      add\n        /* \"#utility.yul\":6352:6370   */\n      dup2\n        /* \"#utility.yul\":6379:6479   */\n      dup1\n      iszero\n      tag_390\n      jumpi\n        /* \"#utility.yul\":6493:6494   */\n      0x01\n        /* \"#utility.yul\":6488:6803   */\n      dup2\n      eq\n      tag_391\n      jumpi\n        /* \"#utility.yul\":6345:6803   */\n      jump(tag_389)\n        /* \"#utility.yul\":6379:6479   */\n    tag_390:\n      not(0xff)\n        /* \"#utility.yul\":6412:6436   */\n      dup7\n      and\n        /* \"#utility.yul\":6400:6437   */\n      dup3\n      mstore\n        /* \"#utility.yul\":6457:6469   */\n      dup8\n      dup3\n      add\n      swap7\n      pop\n        /* \"#utility.yul\":6379:6479   */\n      jump(tag_389)\n        /* \"#utility.yul\":6488:6803   */\n    tag_391:\n        /* \"#utility.yul\":5590:5591   */\n      0x00\n        /* \"#utility.yul\":5583:5597   */\n      dup12\n      dup2\n      mstore\n        /* \"#utility.yul\":5627:5631   */\n      0x20\n        /* \"#utility.yul\":5614:5632   */\n      swap1\n      keccak256\n        /* \"#utility.yul\":6583:6584   */\n      0x00\n        /* \"#utility.yul\":6597:6762   */\n    tag_393:\n        /* \"#utility.yul\":6611:6617   */\n      dup7\n        /* \"#utility.yul\":6608:6609   */\n      dup2\n        /* \"#utility.yul\":6605:6618   */\n      lt\n        /* \"#utility.yul\":6597:6762   */\n      iszero\n      tag_395\n      jumpi\n        /* \"#utility.yul\":6689:6703   */\n      dup2\n      sload\n        /* \"#utility.yul\":6676:6687   */\n      dup5\n      dup3\n      add\n        /* \"#utility.yul\":6669:6704   */\n      mstore\n        /* \"#utility.yul\":6732:6748   */\n      swap1\n      dup6\n      add\n      swap1\n        /* \"#utility.yul\":6626:6636   */\n      dup10\n      add\n        /* \"#utility.yul\":6597:6762   */\n      jump(tag_393)\n    tag_395:\n        /* \"#utility.yul\":6782:6793   */\n      dup4\n      add\n      swap8\n      pop\n      pop\n        /* \"#utility.yul\":6345:6803   */\n    tag_389:\n      pop\n        /* \"#utility.yul\":6820:6823   */\n      swap5\n      swap10\n        /* \"#utility.yul\":5643:6829   */\n      swap9\n      pop\n      pop\n      pop\n      pop\n      pop\n      pop\n      pop\n      pop\n      pop\n      jump\t// out\n        /* \"#utility.yul\":12101:12226   */\n    tag_249:\n        /* \"#utility.yul\":12141:12145   */\n      0x00\n        /* \"#utility.yul\":12169:12170   */\n      dup3\n        /* \"#utility.yul\":12166:12167   */\n      dup3\n        /* \"#utility.yul\":12163:12171   */\n      lt\n        /* \"#utility.yul\":12160:12194   */\n      iszero\n      tag_411\n      jumpi\n        /* \"#utility.yul\":12174:12192   */\n      tag_411\n      tag_334\n      jump\t// in\n    tag_411:\n      pop\n        /* \"#utility.yul\":12211:12220   */\n      sub\n      swap1\n        /* \"#utility.yul\":12101:12226   */\n      jump\t// out\n        /* \"#utility.yul\":13930:14057   */\n    tag_296:\n        /* \"#utility.yul\":13991:14001   */\n      0x4e487b71\n        /* \"#utility.yul\":13986:13989   */\n      0xe0\n        /* \"#utility.yul\":13982:14002   */\n      shl\n        /* \"#utility.yul\":13979:13980   */\n      0x00\n        /* \"#utility.yul\":13972:14003   */\n      mstore\n        /* \"#utility.yul\":14022:14026   */\n      0x21\n        /* \"#utility.yul\":14019:14020   */\n      0x04\n        /* \"#utility.yul\":14012:14027   */\n      mstore\n        /* \"#utility.yul\":14046:14050   */\n      0x24\n        /* \"#utility.yul\":14043:14044   */\n      0x00\n        /* \"#utility.yul\":14036:14051   */\n      revert\n\n    auxdata: 0xa26469706673582212205a7cc3753eb1bba830e14db12bfb50eab119e053805b4ea8f494b84d6aa5881164736f6c634300080d0033\n}\n",
				"bytecode": {
					"linkReferences": {},
					"object": "6101a0604052600c6101608190526b15539055551213d49256915160a21b61018090815262000032916007919062000202565b503480156200004057600080fd5b5060405162001949380380620019498339810160408190526200006391620002a8565b806040518060400160405280600381526020016214d0d560ea1b81525080604051806040016040528060018152602001603160f81b8152506040518060400160405280600381526020016214d0d560ea1b8152506040518060400160405280600381526020016214d0d560ea1b81525060098260039080519060200190620000ed92919062000202565b5081516200010390600490602085019062000202565b5060ff16608052505081516020808401919091208251918301919091206101008290526101208190524660c0527f8b73c3c69bb8fe3d512ecc4cf759cc79239f7b179b0ffacaa9a75d522b39400f620001a18184846040805160208101859052908101839052606081018290524660808201523060a082015260009060c0016040516020818303038152906040528051906020012090509392505050565b60a0523060e052610140525050600880546001600160a01b0319166001600160a01b0386169081179091556040519093507f2f658b440c35314f52658ea8a740e05b284cdc84dc9ae01e891f21b8933e7cad925060009150a2505062000316565b8280546200021090620002da565b90600052602060002090601f0160209004810192826200023457600085556200027f565b82601f106200024f57805160ff19168380011785556200027f565b828001600101855582156200027f579182015b828111156200027f57825182559160200191906001019062000262565b506200028d92915062000291565b5090565b5b808211156200028d576000815560010162000292565b600060208284031215620002bb57600080fd5b81516001600160a01b0381168114620002d357600080fd5b9392505050565b600181811c90821680620002ef57607f821691505b6020821081036200031057634e487b7160e01b600052602260045260246000fd5b50919050565b60805160a05160c05160e0516101005161012051610140516115d8620003716000396000610bee01526000610c3d01526000610c1801526000610b7101526000610b9b01526000610bc50152600061019301526115d86000f3fe608060405234801561001057600080fd5b50600436106101215760003560e01c806370a08231116100ad578063a457c2d711610071578063a457c2d71461026a578063a9059cbb1461027d578063bf7e214f14610290578063d505accf146102bb578063dd62ed3e146102ce57600080fd5b806370a082311461020057806379cc6790146102295780637a9e5e4b1461023c5780637ecebe001461024f57806395d89b411461026257600080fd5b8063313ce567116100f4578063313ce5671461018c5780633644e515146101bd57806339509351146101c557806340c10f19146101d857806342966c68146101ed57600080fd5b806306fdde0314610126578063095ea7b31461014457806318160ddd1461016757806323b872dd14610179575b600080fd5b61012e6102e1565b60405161013b919061128b565b60405180910390f35b6101576101523660046112f5565b610373565b604051901515815260200161013b565b6002545b60405190815260200161013b565b610157610187366004611321565b61038b565b60405160ff7f000000000000000000000000000000000000000000000000000000000000000016815260200161013b565b61016b6103af565b6101576101d33660046112f5565b6103be565b6101eb6101e63660046112f5565b6103e0565b005b6101eb6101fb366004611362565b6104a3565b61016b61020e36600461137b565b6001600160a01b031660009081526020819052604090205490565b6101eb6102373660046112f5565b6104b0565b6101eb61024a36600461137b565b6104ba565b61016b61025d36600461137b565b6105b0565b61012e6105d0565b6101576102783660046112f5565b6105df565b61015761028b3660046112f5565b61065a565b6008546102a3906001600160a01b031681565b6040516001600160a01b03909116815260200161013b565b6101eb6102c936600461139f565b610668565b61016b6102dc366004611416565b6107cc565b6060600380546102f09061144f565b80601f016020809104026020016040519081016040528092919081815260200182805461031c9061144f565b80156103695780601f1061033e57610100808354040283529160200191610369565b820191906000526020600020905b81548152906001019060200180831161034c57829003601f168201915b5050505050905090565b6000336103818185856107f7565b5060019392505050565b60003361039985828561091c565b6103a4858585610996565b506001949350505050565b60006103b9610b64565b905090565b6000336103818185856103d183836107cc565b6103db9190611499565b6107f7565b600860009054906101000a90046001600160a01b03166001600160a01b031663fbfa77cf6040518163ffffffff1660e01b8152600401602060405180830381865afa158015610433573d6000803e3d6000fd5b505050506040513d601f19601f8201168201806040525081019061045791906114b1565b6001600160a01b0316336001600160a01b0316146007906104945760405162461bcd60e51b815260040161048b91906114ce565b60405180910390fd5b5061049f8282610c8b565b5050565b6104ad3382610d6a565b50565b61049f8282610eb5565b600860009054906101000a90046001600160a01b03166001600160a01b0316630c340a246040518163ffffffff1660e01b8152600401602060405180830381865afa15801561050d573d6000803e3d6000fd5b505050506040513d601f19601f8201168201806040525081019061053191906114b1565b6001600160a01b0316336001600160a01b0316146007906105655760405162461bcd60e51b815260040161048b91906114ce565b50600880546001600160a01b0319166001600160a01b0383169081179091556040517f2f658b440c35314f52658ea8a740e05b284cdc84dc9ae01e891f21b8933e7cad90600090a250565b6001600160a01b0381166000908152600560205260408120545b92915050565b6060600480546102f09061144f565b600033816105ed82866107cc565b90508381101561064d5760405162461bcd60e51b815260206004820152602560248201527f45524332303a2064656372656173656420616c6c6f77616e63652062656c6f77604482015264207a65726f60d81b606482015260840161048b565b6103a482868684036107f7565b600033610381818585610996565b834211156106b85760405162461bcd60e51b815260206004820152601d60248201527f45524332305065726d69743a206578706972656420646561646c696e65000000604482015260640161048b565b60007f6e71edae12b1b97f4d1f60370fef10105fa2faae0126114a169c64845d6126c98888886106e78c610f4a565b6040805160208101969096526001600160a01b0394851690860152929091166060840152608083015260a082015260c0810186905260e001604051602081830303815290604052805190602001209050600061074282610f72565b9050600061075282878787610fc0565b9050896001600160a01b0316816001600160a01b0316146107b55760405162461bcd60e51b815260206004820152601e60248201527f45524332305065726d69743a20696e76616c6964207369676e61747572650000604482015260640161048b565b6107c08a8a8a6107f7565b50505050505050505050565b6001600160a01b03918216600090815260016020908152604080832093909416825291909152205490565b6001600160a01b0383166108595760405162461bcd60e51b8152602060048201526024808201527f45524332303a20617070726f76652066726f6d20746865207a65726f206164646044820152637265737360e01b606482015260840161048b565b6001600160a01b0382166108ba5760405162461bcd60e51b815260206004820152602260248201527f45524332303a20617070726f766520746f20746865207a65726f206164647265604482015261737360f01b606482015260840161048b565b6001600160a01b0383811660008181526001602090815260408083209487168084529482529182902085905590518481527f8c5be1e5ebec7d5bd14f71427d1e84f3dd0314c0f7b2291e5b200ac8c7c3b92591015b60405180910390a3505050565b600061092884846107cc565b9050600019811461099057818110156109835760405162461bcd60e51b815260206004820152601d60248201527f45524332303a20696e73756666696369656e7420616c6c6f77616e6365000000604482015260640161048b565b61099084848484036107f7565b50505050565b6001600160a01b0383166109fa5760405162461bcd60e51b815260206004820152602560248201527f45524332303a207472616e736665722066726f6d20746865207a65726f206164604482015264647265737360d81b606482015260840161048b565b6001600160a01b038216610a5c5760405162461bcd60e51b815260206004820152602360248201527f45524332303a207472616e7366657220746f20746865207a65726f206164647260448201526265737360e81b606482015260840161048b565b6001600160a01b03831660009081526020819052604090205481811015610ad45760405162461bcd60e51b815260206004820152602660248201527f45524332303a207472616e7366657220616d6f756e7420657863656564732062604482015265616c616e636560d01b606482015260840161048b565b6001600160a01b03808516600090815260208190526040808220858503905591851681529081208054849290610b0b908490611499565b92505081905550826001600160a01b0316846001600160a01b03167fddf252ad1be2c89b69c2b068fc378daa952ba7f163c4a11628f55a4df523b3ef84604051610b5791815260200190565b60405180910390a3610990565b6000306001600160a01b037f000000000000000000000000000000000000000000000000000000000000000016148015610bbd57507f000000000000000000000000000000000000000000000000000000000000000046145b15610be757507f000000000000000000000000000000000000000000000000000000000000000090565b50604080517f00000000000000000000000000000000000000000000000000000000000000006020808301919091527f0000000000000000000000000000000000000000000000000000000000000000828401527f000000000000000000000000000000000000000000000000000000000000000060608301524660808301523060a0808401919091528351808403909101815260c0909201909252805191012090565b6001600160a01b038216610ce15760405162461bcd60e51b815260206004820152601f60248201527f45524332303a206d696e7420746f20746865207a65726f206164647265737300604482015260640161048b565b8060026000828254610cf39190611499565b90915550506001600160a01b03821660009081526020819052604081208054839290610d20908490611499565b90915550506040518181526001600160a01b038316906000907fddf252ad1be2c89b69c2b068fc378daa952ba7f163c4a11628f55a4df523b3ef9060200160405180910390a35050565b6001600160a01b038216610dca5760405162461bcd60e51b815260206004820152602160248201527f45524332303a206275726e2066726f6d20746865207a65726f206164647265736044820152607360f81b606482015260840161048b565b6001600160a01b03821660009081526020819052604090205481811015610e3e5760405162461bcd60e51b815260206004820152602260248201527f45524332303a206275726e20616d6f756e7420657863656564732062616c616e604482015261636560f01b606482015260840161048b565b6001600160a01b0383166000908152602081905260408120838303905560028054849290610e6d908490611575565b90915550506040518281526000906001600160a01b038516907fddf252ad1be2c89b69c2b068fc378daa952ba7f163c4a11628f55a4df523b3ef9060200161090f565b505050565b6000610ec183336107cc565b90506000610ecf8383611575565b1015610f295760405162461bcd60e51b8152602060048201526024808201527f45524332303a206275726e20616d6f756e74206578636565647320616c6c6f77604482015263616e636560e01b606482015260840161048b565b610f338282611575565b9050610f408333836107f7565b610eb08383610d6a565b6001600160a01b03811660009081526005602052604090208054600181018255905b50919050565b60006105ca610f7f610b64565b8360405161190160f01b6020820152602281018390526042810182905260009060620160405160208183030381529060405280519060200120905092915050565b6000806000610fd187878787610fe8565b91509150610fde816110d5565b5095945050505050565b6000807f7fffffffffffffffffffffffffffffff5d576e7357a4501ddfe92f46681b20a083111561101f57506000905060036110cc565b8460ff16601b1415801561103757508460ff16601c14155b1561104857506000905060046110cc565b6040805160008082526020820180845289905260ff881692820192909252606081018690526080810185905260019060a0016020604051602081039080840390855afa15801561109c573d6000803e3d6000fd5b5050604051601f1901519150506001600160a01b0381166110c5576000600192509250506110cc565b9150600090505b94509492505050565b60008160048111156110e9576110e961158c565b036110f15750565b60018160048111156111055761110561158c565b036111525760405162461bcd60e51b815260206004820152601860248201527f45434453413a20696e76616c6964207369676e61747572650000000000000000604482015260640161048b565b60028160048111156111665761116661158c565b036111b35760405162461bcd60e51b815260206004820152601f60248201527f45434453413a20696e76616c6964207369676e6174757265206c656e67746800604482015260640161048b565b60038160048111156111c7576111c761158c565b0361121f5760405162461bcd60e51b815260206004820152602260248201527f45434453413a20696e76616c6964207369676e6174757265202773272076616c604482015261756560f01b606482015260840161048b565b60048160048111156112335761123361158c565b036104ad5760405162461bcd60e51b815260206004820152602260248201527f45434453413a20696e76616c6964207369676e6174757265202776272076616c604482015261756560f01b606482015260840161048b565b600060208083528351808285015260005b818110156112b85785810183015185820160400152820161129c565b818111156112ca576000604083870101525b50601f01601f1916929092016040019392505050565b6001600160a01b03811681146104ad57600080fd5b6000806040838503121561130857600080fd5b8235611313816112e0565b946020939093013593505050565b60008060006060848603121561133657600080fd5b8335611341816112e0565b92506020840135611351816112e0565b929592945050506040919091013590565b60006020828403121561137457600080fd5b5035919050565b60006020828403121561138d57600080fd5b8135611398816112e0565b9392505050565b600080600080600080600060e0888a0312156113ba57600080fd5b87356113c5816112e0565b965060208801356113d5816112e0565b95506040880135945060608801359350608088013560ff811681146113f957600080fd5b9699959850939692959460a0840135945060c09093013592915050565b6000806040838503121561142957600080fd5b8235611434816112e0565b91506020830135611444816112e0565b809150509250929050565b600181811c9082168061146357607f821691505b602082108103610f6c57634e487b7160e01b600052602260045260246000fd5b634e487b7160e01b600052601160045260246000fd5b600082198211156114ac576114ac611483565b500190565b6000602082840312156114c357600080fd5b8151611398816112e0565b600060208083526000845481600182811c9150808316806114f057607f831692505b858310810361150d57634e487b7160e01b85526022600452602485fd5b87860183815260200181801561152a576001811461153b57611566565b60ff19861682528782019650611566565b60008b81526020902060005b8681101561156057815484820152908501908901611547565b83019750505b50949998505050505050505050565b60008282101561158757611587611483565b500390565b634e487b7160e01b600052602160045260246000fdfea26469706673582212205a7cc3753eb1bba830e14db12bfb50eab119e053805b4ea8f494b84d6aa5881164736f6c634300080d0033",
					"opcodes": "PUSH2 0x1A0 PUSH1 0x40 MSTORE PUSH1 0xC PUSH2 0x160 DUP2 SWAP1 MSTORE PUSH12 0x15539055551213D492569151 PUSH1 0xA2 SHL PUSH2 0x180 SWAP1 DUP2 MSTORE PUSH3 0x32 SWAP2 PUSH1 0x7 SWAP2 SWAP1 PUSH3 0x202 JUMP JUMPDEST POP CALLVALUE DUP1 ISZERO PUSH3 0x40 JUMPI PUSH1 0x0 DUP1 REVERT JUMPDEST POP PUSH1 0x40 MLOAD PUSH3 0x1949 CODESIZE SUB DUP1 PUSH3 0x1949 DUP4 CODECOPY DUP2 ADD PUSH1 0x40 DUP2 SWAP1 MSTORE PUSH3 0x63 SWAP2 PUSH3 0x2A8 JUMP JUMPDEST DUP1 PUSH1 0x40 MLOAD DUP1 PUSH1 0x40 ADD PUSH1 0x40 MSTORE DUP1 PUSH1 0x3 DUP2 MSTORE PUSH1 0x20 ADD PUSH3 0x14D0D5 PUSH1 0xEA SHL DUP2 MSTORE POP DUP1 PUSH1 0x40 MLOAD DUP1 PUSH1 0x40 ADD PUSH1 0x40 MSTORE DUP1 PUSH1 0x1 DUP2 MSTORE PUSH1 0x20 ADD PUSH1 0x31 PUSH1 0xF8 SHL DUP2 MSTORE POP PUSH1 0x40 MLOAD DUP1 PUSH1 0x40 ADD PUSH1 0x40 MSTORE DUP1 PUSH1 0x3 DUP2 MSTORE PUSH1 0x20 ADD PUSH3 0x14D0D5 PUSH1 0xEA SHL DUP2 MSTORE POP PUSH1 0x40 MLOAD DUP1 PUSH1 0x40 ADD PUSH1 0x40 MSTORE DUP1 PUSH1 0x3 DUP2 MSTORE PUSH1 0x20 ADD PUSH3 0x14D0D5 PUSH1 0xEA SHL DUP2 MSTORE POP PUSH1 0x9 DUP3 PUSH1 0x3 SWAP1 DUP1 MLOAD SWAP1 PUSH1 0x20 ADD SWAP1 PUSH3 0xED SWAP3 SWAP2 SWAP1 PUSH3 0x202 JUMP JUMPDEST POP DUP2 MLOAD PUSH3 0x103 SWAP1 PUSH1 0x4 SWAP1 PUSH1 0x20 DUP6 ADD SWAP1 PUSH3 0x202 JUMP JUMPDEST POP PUSH1 0xFF AND PUSH1 0x80 MSTORE POP POP DUP2 MLOAD PUSH1 0x20 DUP1 DUP5 ADD SWAP2 SWAP1 SWAP2 KECCAK256 DUP3 MLOAD SWAP2 DUP4 ADD SWAP2 SWAP1 SWAP2 KECCAK256 PUSH2 0x100 DUP3 SWAP1 MSTORE PUSH2 0x120 DUP2 SWAP1 MSTORE CHAINID PUSH1 0xC0 MSTORE PUSH32 0x8B73C3C69BB8FE3D512ECC4CF759CC79239F7B179B0FFACAA9A75D522B39400F PUSH3 0x1A1 DUP2 DUP5 DUP5 PUSH1 0x40 DUP1 MLOAD PUSH1 0x20 DUP2 ADD DUP6 SWAP1 MSTORE SWAP1 DUP2 ADD DUP4 SWAP1 MSTORE PUSH1 0x60 DUP2 ADD DUP3 SWAP1 MSTORE CHAINID PUSH1 0x80 DUP3 ADD MSTORE ADDRESS PUSH1 0xA0 DUP3 ADD MSTORE PUSH1 0x0 SWAP1 PUSH1 0xC0 ADD PUSH1 0x40 MLOAD PUSH1 0x20 DUP2 DUP4 SUB SUB DUP2 MSTORE SWAP1 PUSH1 0x40 MSTORE DUP1 MLOAD SWAP1 PUSH1 0x20 ADD KECCAK256 SWAP1 POP SWAP4 SWAP3 POP POP POP JUMP JUMPDEST PUSH1 0xA0 MSTORE ADDRESS PUSH1 0xE0 MSTORE PUSH2 0x140 MSTORE POP POP PUSH1 0x8 DUP1 SLOAD PUSH1 0x1 PUSH1 0x1 PUSH1 0xA0 SHL SUB NOT AND PUSH1 0x1 PUSH1 0x1 PUSH1 0xA0 SHL SUB DUP7 AND SWAP1 DUP2 OR SWAP1 SWAP2 SSTORE PUSH1 0x40 MLOAD SWAP1 SWAP4 POP PUSH32 0x2F658B440C35314F52658EA8A740E05B284CDC84DC9AE01E891F21B8933E7CAD SWAP3 POP PUSH1 0x0 SWAP2 POP LOG2 POP POP PUSH3 0x316 JUMP JUMPDEST DUP3 DUP1 SLOAD PUSH3 0x210 SWAP1 PUSH3 0x2DA JUMP JUMPDEST SWAP1 PUSH1 0x0 MSTORE PUSH1 0x20 PUSH1 0x0 KECCAK256 SWAP1 PUSH1 0x1F ADD PUSH1 0x20 SWAP1 DIV DUP2 ADD SWAP3 DUP3 PUSH3 0x234 JUMPI PUSH1 0x0 DUP6 SSTORE PUSH3 0x27F JUMP JUMPDEST DUP3 PUSH1 0x1F LT PUSH3 0x24F JUMPI DUP1 MLOAD PUSH1 0xFF NOT AND DUP4 DUP1 ADD OR DUP6 SSTORE PUSH3 0x27F JUMP JUMPDEST DUP3 DUP1 ADD PUSH1 0x1 ADD DUP6 SSTORE DUP3 ISZERO PUSH3 0x27F JUMPI SWAP2 DUP3 ADD JUMPDEST DUP3 DUP2 GT ISZERO PUSH3 0x27F JUMPI DUP3 MLOAD DUP3 SSTORE SWAP2 PUSH1 0x20 ADD SWAP2 SWAP1 PUSH1 0x1 ADD SWAP1 PUSH3 0x262 JUMP JUMPDEST POP PUSH3 0x28D SWAP3 SWAP2 POP PUSH3 0x291 JUMP JUMPDEST POP SWAP1 JUMP JUMPDEST JUMPDEST DUP1 DUP3 GT ISZERO PUSH3 0x28D JUMPI PUSH1 0x0 DUP2 SSTORE PUSH1 0x1 ADD PUSH3 0x292 JUMP JUMPDEST PUSH1 0x0 PUSH1 0x20 DUP3 DUP5 SUB SLT ISZERO PUSH3 0x2BB JUMPI PUSH1 0x0 DUP1 REVERT JUMPDEST DUP2 MLOAD PUSH1 0x1 PUSH1 0x1 PUSH1 0xA0 SHL SUB DUP2 AND DUP2 EQ PUSH3 0x2D3 JUMPI PUSH1 0x0 DUP1 REVERT JUMPDEST SWAP4 SWAP3 POP POP POP JUMP JUMPDEST PUSH1 0x1 DUP2 DUP2 SHR SWAP1 DUP3 AND DUP1 PUSH3 0x2EF JUMPI PUSH1 0x7F DUP3 AND SWAP2 POP JUMPDEST PUSH1 0x20 DUP3 LT DUP2 SUB PUSH3 0x310 JUMPI PUSH4 0x4E487B71 PUSH1 0xE0 SHL PUSH1 0x0 MSTORE PUSH1 0x22 PUSH1 0x4 MSTORE PUSH1 0x24 PUSH1 0x0 REVERT JUMPDEST POP SWAP2 SWAP1 POP JUMP JUMPDEST PUSH1 0x80 MLOAD PUSH1 0xA0 MLOAD PUSH1 0xC0 MLOAD PUSH1 0xE0 MLOAD PUSH2 0x100 MLOAD PUSH2 0x120 MLOAD PUSH2 0x140 MLOAD PUSH2 0x15D8 PUSH3 0x371 PUSH1 0x0 CODECOPY PUSH1 0x0 PUSH2 0xBEE ADD MSTORE PUSH1 0x0 PUSH2 0xC3D ADD MSTORE PUSH1 0x0 PUSH2 0xC18 ADD MSTORE PUSH1 0x0 PUSH2 0xB71 ADD MSTORE PUSH1 0x0 PUSH2 0xB9B ADD MSTORE PUSH1 0x0 PUSH2 0xBC5 ADD MSTORE PUSH1 0x0 PUSH2 0x193 ADD MSTORE PUSH2 0x15D8 PUSH1 0x0 RETURN INVALID PUSH1 0x80 PUSH1 0x40 MSTORE CALLVALUE DUP1 ISZERO PUSH2 0x10 JUMPI PUSH1 0x0 DUP1 REVERT JUMPDEST POP PUSH1 0x4 CALLDATASIZE LT PUSH2 0x121 JUMPI PUSH1 0x0 CALLDATALOAD PUSH1 0xE0 SHR DUP1 PUSH4 0x70A08231 GT PUSH2 0xAD JUMPI DUP1 PUSH4 0xA457C2D7 GT PUSH2 0x71 JUMPI DUP1 PUSH4 0xA457C2D7 EQ PUSH2 0x26A JUMPI DUP1 PUSH4 0xA9059CBB EQ PUSH2 0x27D JUMPI DUP1 PUSH4 0xBF7E214F EQ PUSH2 0x290 JUMPI DUP1 PUSH4 0xD505ACCF EQ PUSH2 0x2BB JUMPI DUP1 PUSH4 0xDD62ED3E EQ PUSH2 0x2CE JUMPI PUSH1 0x0 DUP1 REVERT JUMPDEST DUP1 PUSH4 0x70A08231 EQ PUSH2 0x200 JUMPI DUP1 PUSH4 0x79CC6790 EQ PUSH2 0x229 JUMPI DUP1 PUSH4 0x7A9E5E4B EQ PUSH2 0x23C JUMPI DUP1 PUSH4 0x7ECEBE00 EQ PUSH2 0x24F JUMPI DUP1 PUSH4 0x95D89B41 EQ PUSH2 0x262 JUMPI PUSH1 0x0 DUP1 REVERT JUMPDEST DUP1 PUSH4 0x313CE567 GT PUSH2 0xF4 JUMPI DUP1 PUSH4 0x313CE567 EQ PUSH2 0x18C JUMPI DUP1 PUSH4 0x3644E515 EQ PUSH2 0x1BD JUMPI DUP1 PUSH4 0x39509351 EQ PUSH2 0x1C5 JUMPI DUP1 PUSH4 0x40C10F19 EQ PUSH2 0x1D8 JUMPI DUP1 PUSH4 0x42966C68 EQ PUSH2 0x1ED JUMPI PUSH1 0x0 DUP1 REVERT JUMPDEST DUP1 PUSH4 0x6FDDE03 EQ PUSH2 0x126 JUMPI DUP1 PUSH4 0x95EA7B3 EQ PUSH2 0x144 JUMPI DUP1 PUSH4 0x18160DDD EQ PUSH2 0x167 JUMPI DUP1 PUSH4 0x23B872DD EQ PUSH2 0x179 JUMPI JUMPDEST PUSH1 0x0 DUP1 REVERT JUMPDEST PUSH2 0x12E PUSH2 0x2E1 JUMP JUMPDEST PUSH1 0x40 MLOAD PUSH2 0x13B SWAP2 SWAP1 PUSH2 0x128B JUMP JUMPDEST PUSH1 0x40 MLOAD DUP1 SWAP2 SUB SWAP1 RETURN JUMPDEST PUSH2 0x157 PUSH2 0x152 CALLDATASIZE PUSH1 0x4 PUSH2 0x12F5 JUMP JUMPDEST PUSH2 0x373 JUMP JUMPDEST PUSH1 0x40 MLOAD SWAP1 ISZERO ISZERO DUP2 MSTORE PUSH1 0x20 ADD PUSH2 0x13B JUMP JUMPDEST PUSH1 0x2 SLOAD JUMPDEST PUSH1 0x40 MLOAD SWAP1 DUP2 MSTORE PUSH1 0x20 ADD PUSH2 0x13B JUMP JUMPDEST PUSH2 0x157 PUSH2 0x187 CALLDATASIZE PUSH1 0x4 PUSH2 0x1321 JUMP JUMPDEST PUSH2 0x38B JUMP JUMPDEST PUSH1 0x40 MLOAD PUSH1 0xFF PUSH32 0x0 AND DUP2 MSTORE PUSH1 0x20 ADD PUSH2 0x13B JUMP JUMPDEST PUSH2 0x16B PUSH2 0x3AF JUMP JUMPDEST PUSH2 0x157 PUSH2 0x1D3 CALLDATASIZE PUSH1 0x4 PUSH2 0x12F5 JUMP JUMPDEST PUSH2 0x3BE JUMP JUMPDEST PUSH2 0x1EB PUSH2 0x1E6 CALLDATASIZE PUSH1 0x4 PUSH2 0x12F5 JUMP JUMPDEST PUSH2 0x3E0 JUMP JUMPDEST STOP JUMPDEST PUSH2 0x1EB PUSH2 0x1FB CALLDATASIZE PUSH1 0x4 PUSH2 0x1362 JUMP JUMPDEST PUSH2 0x4A3 JUMP JUMPDEST PUSH2 0x16B PUSH2 0x20E CALLDATASIZE PUSH1 0x4 PUSH2 0x137B JUMP JUMPDEST PUSH1 0x1 PUSH1 0x1 PUSH1 0xA0 SHL SUB AND PUSH1 0x0 SWAP1 DUP2 MSTORE PUSH1 0x20 DUP2 SWAP1 MSTORE PUSH1 0x40 SWAP1 KECCAK256 SLOAD SWAP1 JUMP JUMPDEST PUSH2 0x1EB PUSH2 0x237 CALLDATASIZE PUSH1 0x4 PUSH2 0x12F5 JUMP JUMPDEST PUSH2 0x4B0 JUMP JUMPDEST PUSH2 0x1EB PUSH2 0x24A CALLDATASIZE PUSH1 0x4 PUSH2 0x137B JUMP JUMPDEST PUSH2 0x4BA JUMP JUMPDEST PUSH2 0x16B PUSH2 0x25D CALLDATASIZE PUSH1 0x4 PUSH2 0x137B JUMP JUMPDEST PUSH2 0x5B0 JUMP JUMPDEST PUSH2 0x12E PUSH2 0x5D0 JUMP JUMPDEST PUSH2 0x157 PUSH2 0x278 CALLDATASIZE PUSH1 0x4 PUSH2 0x12F5 JUMP JUMPDEST PUSH2 0x5DF JUMP JUMPDEST PUSH2 0x157 PUSH2 0x28B CALLDATASIZE PUSH1 0x4 PUSH2 0x12F5 JUMP JUMPDEST PUSH2 0x65A JUMP JUMPDEST PUSH1 0x8 SLOAD PUSH2 0x2A3 SWAP1 PUSH1 0x1 PUSH1 0x1 PUSH1 0xA0 SHL SUB AND DUP2 JUMP JUMPDEST PUSH1 0x40 MLOAD PUSH1 0x1 PUSH1 0x1 PUSH1 0xA0 SHL SUB SWAP1 SWAP2 AND DUP2 MSTORE PUSH1 0x20 ADD PUSH2 0x13B JUMP JUMPDEST PUSH2 0x1EB PUSH2 0x2C9 CALLDATASIZE PUSH1 0x4 PUSH2 0x139F JUMP JUMPDEST PUSH2 0x668 JUMP JUMPDEST PUSH2 0x16B PUSH2 0x2DC CALLDATASIZE PUSH1 0x4 PUSH2 0x1416 JUMP JUMPDEST PUSH2 0x7CC JUMP JUMPDEST PUSH1 0x60 PUSH1 0x3 DUP1 SLOAD PUSH2 0x2F0 SWAP1 PUSH2 0x144F JUMP JUMPDEST DUP1 PUSH1 0x1F ADD PUSH1 0x20 DUP1 SWAP2 DIV MUL PUSH1 0x20 ADD PUSH1 0x40 MLOAD SWAP1 DUP2 ADD PUSH1 0x40 MSTORE DUP1 SWAP3 SWAP2 SWAP1 DUP2 DUP2 MSTORE PUSH1 0x20 ADD DUP3 DUP1 SLOAD PUSH2 0x31C SWAP1 PUSH2 0x144F JUMP JUMPDEST DUP1 ISZERO PUSH2 0x369 JUMPI DUP1 PUSH1 0x1F LT PUSH2 0x33E JUMPI PUSH2 0x100 DUP1 DUP4 SLOAD DIV MUL DUP4 MSTORE SWAP2 PUSH1 0x20 ADD SWAP2 PUSH2 0x369 JUMP JUMPDEST DUP3 ADD SWAP2 SWAP1 PUSH1 0x0 MSTORE PUSH1 0x20 PUSH1 0x0 KECCAK256 SWAP1 JUMPDEST DUP2 SLOAD DUP2 MSTORE SWAP1 PUSH1 0x1 ADD SWAP1 PUSH1 0x20 ADD DUP1 DUP4 GT PUSH2 0x34C JUMPI DUP3 SWAP1 SUB PUSH1 0x1F AND DUP3 ADD SWAP2 JUMPDEST POP POP POP POP POP SWAP1 POP SWAP1 JUMP JUMPDEST PUSH1 0x0 CALLER PUSH2 0x381 DUP2 DUP6 DUP6 PUSH2 0x7F7 JUMP JUMPDEST POP PUSH1 0x1 SWAP4 SWAP3 POP POP POP JUMP JUMPDEST PUSH1 0x0 CALLER PUSH2 0x399 DUP6 DUP3 DUP6 PUSH2 0x91C JUMP JUMPDEST PUSH2 0x3A4 DUP6 DUP6 DUP6 PUSH2 0x996 JUMP JUMPDEST POP PUSH1 0x1 SWAP5 SWAP4 POP POP POP POP JUMP JUMPDEST PUSH1 0x0 PUSH2 0x3B9 PUSH2 0xB64 JUMP JUMPDEST SWAP1 POP SWAP1 JUMP JUMPDEST PUSH1 0x0 CALLER PUSH2 0x381 DUP2 DUP6 DUP6 PUSH2 0x3D1 DUP4 DUP4 PUSH2 0x7CC JUMP JUMPDEST PUSH2 0x3DB SWAP2 SWAP1 PUSH2 0x1499 JUMP JUMPDEST PUSH2 0x7F7 JUMP JUMPDEST PUSH1 0x8 PUSH1 0x0 SWAP1 SLOAD SWAP1 PUSH2 0x100 EXP SWAP1 DIV PUSH1 0x1 PUSH1 0x1 PUSH1 0xA0 SHL SUB AND PUSH1 0x1 PUSH1 0x1 PUSH1 0xA0 SHL SUB AND PUSH4 0xFBFA77CF PUSH1 0x40 MLOAD DUP2 PUSH4 0xFFFFFFFF AND PUSH1 0xE0 SHL DUP2 MSTORE PUSH1 0x4 ADD PUSH1 0x20 PUSH1 0x40 MLOAD DUP1 DUP4 SUB DUP2 DUP7 GAS STATICCALL ISZERO DUP1 ISZERO PUSH2 0x433 JUMPI RETURNDATASIZE PUSH1 0x0 DUP1 RETURNDATACOPY RETURNDATASIZE PUSH1 0x0 REVERT JUMPDEST POP POP POP POP PUSH1 0x40 MLOAD RETURNDATASIZE PUSH1 0x1F NOT PUSH1 0x1F DUP3 ADD AND DUP3 ADD DUP1 PUSH1 0x40 MSTORE POP DUP2 ADD SWAP1 PUSH2 0x457 SWAP2 SWAP1 PUSH2 0x14B1 JUMP JUMPDEST PUSH1 0x1 PUSH1 0x1 PUSH1 0xA0 SHL SUB AND CALLER PUSH1 0x1 PUSH1 0x1 PUSH1 0xA0 SHL SUB AND EQ PUSH1 0x7 SWAP1 PUSH2 0x494 JUMPI PUSH1 0x40 MLOAD PUSH3 0x461BCD PUSH1 0xE5 SHL DUP2 MSTORE PUSH1 0x4 ADD PUSH2 0x48B SWAP2 SWAP1 PUSH2 0x14CE JUMP JUMPDEST PUSH1 0x40 MLOAD DUP1 SWAP2 SUB SWAP1 REVERT JUMPDEST POP PUSH2 0x49F DUP3 DUP3 PUSH2 0xC8B JUMP JUMPDEST POP POP JUMP JUMPDEST PUSH2 0x4AD CALLER DUP3 PUSH2 0xD6A JUMP JUMPDEST POP JUMP JUMPDEST PUSH2 0x49F DUP3 DUP3 PUSH2 0xEB5 JUMP JUMPDEST PUSH1 0x8 PUSH1 0x0 SWAP1 SLOAD SWAP1 PUSH2 0x100 EXP SWAP1 DIV PUSH1 0x1 PUSH1 0x1 PUSH1 0xA0 SHL SUB AND PUSH1 0x1 PUSH1 0x1 PUSH1 0xA0 SHL SUB AND PUSH4 0xC340A24 PUSH1 0x40 MLOAD DUP2 PUSH4 0xFFFFFFFF AND PUSH1 0xE0 SHL DUP2 MSTORE PUSH1 0x4 ADD PUSH1 0x20 PUSH1 0x40 MLOAD DUP1 DUP4 SUB DUP2 DUP7 GAS STATICCALL ISZERO DUP1 ISZERO PUSH2 0x50D JUMPI RETURNDATASIZE PUSH1 0x0 DUP1 RETURNDATACOPY RETURNDATASIZE PUSH1 0x0 REVERT JUMPDEST POP POP POP POP PUSH1 0x40 MLOAD RETURNDATASIZE PUSH1 0x1F NOT PUSH1 0x1F DUP3 ADD AND DUP3 ADD DUP1 PUSH1 0x40 MSTORE POP DUP2 ADD SWAP1 PUSH2 0x531 SWAP2 SWAP1 PUSH2 0x14B1 JUMP JUMPDEST PUSH1 0x1 PUSH1 0x1 PUSH1 0xA0 SHL SUB AND CALLER PUSH1 0x1 PUSH1 0x1 PUSH1 0xA0 SHL SUB AND EQ PUSH1 0x7 SWAP1 PUSH2 0x565 JUMPI PUSH1 0x40 MLOAD PUSH3 0x461BCD PUSH1 0xE5 SHL DUP2 MSTORE PUSH1 0x4 ADD PUSH2 0x48B SWAP2 SWAP1 PUSH2 0x14CE JUMP JUMPDEST POP PUSH1 0x8 DUP1 SLOAD PUSH1 0x1 PUSH1 0x1 PUSH1 0xA0 SHL SUB NOT AND PUSH1 0x1 PUSH1 0x1 PUSH1 0xA0 SHL SUB DUP4 AND SWAP1 DUP2 OR SWAP1 SWAP2 SSTORE PUSH1 0x40 MLOAD PUSH32 0x2F658B440C35314F52658EA8A740E05B284CDC84DC9AE01E891F21B8933E7CAD SWAP1 PUSH1 0x0 SWAP1 LOG2 POP JUMP JUMPDEST PUSH1 0x1 PUSH1 0x1 PUSH1 0xA0 SHL SUB DUP2 AND PUSH1 0x0 SWAP1 DUP2 MSTORE PUSH1 0x5 PUSH1 0x20 MSTORE PUSH1 0x40 DUP2 KECCAK256 SLOAD JUMPDEST SWAP3 SWAP2 POP POP JUMP JUMPDEST PUSH1 0x60 PUSH1 0x4 DUP1 SLOAD PUSH2 0x2F0 SWAP1 PUSH2 0x144F JUMP JUMPDEST PUSH1 0x0 CALLER DUP2 PUSH2 0x5ED DUP3 DUP7 PUSH2 0x7CC JUMP JUMPDEST SWAP1 POP DUP4 DUP2 LT ISZERO PUSH2 0x64D JUMPI PUSH1 0x40 MLOAD PUSH3 0x461BCD PUSH1 0xE5 SHL DUP2 MSTORE PUSH1 0x20 PUSH1 0x4 DUP3 ADD MSTORE PUSH1 0x25 PUSH1 0x24 DUP3 ADD MSTORE PUSH32 0x45524332303A2064656372656173656420616C6C6F77616E63652062656C6F77 PUSH1 0x44 DUP3 ADD MSTORE PUSH5 0x207A65726F PUSH1 0xD8 SHL PUSH1 0x64 DUP3 ADD MSTORE PUSH1 0x84 ADD PUSH2 0x48B JUMP JUMPDEST PUSH2 0x3A4 DUP3 DUP7 DUP7 DUP5 SUB PUSH2 0x7F7 JUMP JUMPDEST PUSH1 0x0 CALLER PUSH2 0x381 DUP2 DUP6 DUP6 PUSH2 0x996 JUMP JUMPDEST DUP4 TIMESTAMP GT ISZERO PUSH2 0x6B8 JUMPI PUSH1 0x40 MLOAD PUSH3 0x461BCD PUSH1 0xE5 SHL DUP2 MSTORE PUSH1 0x20 PUSH1 0x4 DUP3 ADD MSTORE PUSH1 0x1D PUSH1 0x24 DUP3 ADD MSTORE PUSH32 0x45524332305065726D69743A206578706972656420646561646C696E65000000 PUSH1 0x44 DUP3 ADD MSTORE PUSH1 0x64 ADD PUSH2 0x48B JUMP JUMPDEST PUSH1 0x0 PUSH32 0x6E71EDAE12B1B97F4D1F60370FEF10105FA2FAAE0126114A169C64845D6126C9 DUP9 DUP9 DUP9 PUSH2 0x6E7 DUP13 PUSH2 0xF4A JUMP JUMPDEST PUSH1 0x40 DUP1 MLOAD PUSH1 0x20 DUP2 ADD SWAP7 SWAP1 SWAP7 MSTORE PUSH1 0x1 PUSH1 0x1 PUSH1 0xA0 SHL SUB SWAP5 DUP6 AND SWAP1 DUP7 ADD MSTORE SWAP3 SWAP1 SWAP2 AND PUSH1 0x60 DUP5 ADD MSTORE PUSH1 0x80 DUP4 ADD MSTORE PUSH1 0xA0 DUP3 ADD MSTORE PUSH1 0xC0 DUP2 ADD DUP7 SWAP1 MSTORE PUSH1 0xE0 ADD PUSH1 0x40 MLOAD PUSH1 0x20 DUP2 DUP4 SUB SUB DUP2 MSTORE SWAP1 PUSH1 0x40 MSTORE DUP1 MLOAD SWAP1 PUSH1 0x20 ADD KECCAK256 SWAP1 POP PUSH1 0x0 PUSH2 0x742 DUP3 PUSH2 0xF72 JUMP JUMPDEST SWAP1 POP PUSH1 0x0 PUSH2 0x752 DUP3 DUP8 DUP8 DUP8 PUSH2 0xFC0 JUMP JUMPDEST SWAP1 POP DUP10 PUSH1 0x1 PUSH1 0x1 PUSH1 0xA0 SHL SUB AND DUP2 PUSH1 0x1 PUSH1 0x1 PUSH1 0xA0 SHL SUB AND EQ PUSH2 0x7B5 JUMPI PUSH1 0x40 MLOAD PUSH3 0x461BCD PUSH1 0xE5 SHL DUP2 MSTORE PUSH1 0x20 PUSH1 0x4 DUP3 ADD MSTORE PUSH1 0x1E PUSH1 0x24 DUP3 ADD MSTORE PUSH32 0x45524332305065726D69743A20696E76616C6964207369676E61747572650000 PUSH1 0x44 DUP3 ADD MSTORE PUSH1 0x64 ADD PUSH2 0x48B JUMP JUMPDEST PUSH2 0x7C0 DUP11 DUP11 DUP11 PUSH2 0x7F7 JUMP JUMPDEST POP POP POP POP POP POP POP POP POP POP JUMP JUMPDEST PUSH1 0x1 PUSH1 0x1 PUSH1 0xA0 SHL SUB SWAP2 DUP3 AND PUSH1 0x0 SWAP1 DUP2 MSTORE PUSH1 0x1 PUSH1 0x20 SWAP1 DUP2 MSTORE PUSH1 0x40 DUP1 DUP4 KECCAK256 SWAP4 SWAP1 SWAP5 AND DUP3 MSTORE SWAP2 SWAP1 SWAP2 MSTORE KECCAK256 SLOAD SWAP1 JUMP JUMPDEST PUSH1 0x1 PUSH1 0x1 PUSH1 0xA0 SHL SUB DUP4 AND PUSH2 0x859 JUMPI PUSH1 0x40 MLOAD PUSH3 0x461BCD PUSH1 0xE5 SHL DUP2 MSTORE PUSH1 0x20 PUSH1 0x4 DUP3 ADD MSTORE PUSH1 0x24 DUP1 DUP3 ADD MSTORE PUSH32 0x45524332303A20617070726F76652066726F6D20746865207A65726F20616464 PUSH1 0x44 DUP3 ADD MSTORE PUSH4 0x72657373 PUSH1 0xE0 SHL PUSH1 0x64 DUP3 ADD MSTORE PUSH1 0x84 ADD PUSH2 0x48B JUMP JUMPDEST PUSH1 0x1 PUSH1 0x1 PUSH1 0xA0 SHL SUB DUP3 AND PUSH2 0x8BA JUMPI PUSH1 0x40 MLOAD PUSH3 0x461BCD PUSH1 0xE5 SHL DUP2 MSTORE PUSH1 0x20 PUSH1 0x4 DUP3 ADD MSTORE PUSH1 0x22 PUSH1 0x24 DUP3 ADD MSTORE PUSH32 0x45524332303A20617070726F766520746F20746865207A65726F206164647265 PUSH1 0x44 DUP3 ADD MSTORE PUSH2 0x7373 PUSH1 0xF0 SHL PUSH1 0x64 DUP3 ADD MSTORE PUSH1 0x84 ADD PUSH2 0x48B JUMP JUMPDEST PUSH1 0x1 PUSH1 0x1 PUSH1 0xA0 SHL SUB DUP4 DUP2 AND PUSH1 0x0 DUP2 DUP2 MSTORE PUSH1 0x1 PUSH1 0x20 SWAP1 DUP2 MSTORE PUSH1 0x40 DUP1 DUP4 KECCAK256 SWAP5 DUP8 AND DUP1 DUP5 MSTORE SWAP5 DUP3 MSTORE SWAP2 DUP3 SWAP1 KECCAK256 DUP6 SWAP1 SSTORE SWAP1 MLOAD DUP5 DUP2 MSTORE PUSH32 0x8C5BE1E5EBEC7D5BD14F71427D1E84F3DD0314C0F7B2291E5B200AC8C7C3B925 SWAP2 ADD JUMPDEST PUSH1 0x40 MLOAD DUP1 SWAP2 SUB SWAP1 LOG3 POP POP POP JUMP JUMPDEST PUSH1 0x0 PUSH2 0x928 DUP5 DUP5 PUSH2 0x7CC JUMP JUMPDEST SWAP1 POP PUSH1 0x0 NOT DUP2 EQ PUSH2 0x990 JUMPI DUP2 DUP2 LT ISZERO PUSH2 0x983 JUMPI PUSH1 0x40 MLOAD PUSH3 0x461BCD PUSH1 0xE5 SHL DUP2 MSTORE PUSH1 0x20 PUSH1 0x4 DUP3 ADD MSTORE PUSH1 0x1D PUSH1 0x24 DUP3 ADD MSTORE PUSH32 0x45524332303A20696E73756666696369656E7420616C6C6F77616E6365000000 PUSH1 0x44 DUP3 ADD MSTORE PUSH1 0x64 ADD PUSH2 0x48B JUMP JUMPDEST PUSH2 0x990 DUP5 DUP5 DUP5 DUP5 SUB PUSH2 0x7F7 JUMP JUMPDEST POP POP POP POP JUMP JUMPDEST PUSH1 0x1 PUSH1 0x1 PUSH1 0xA0 SHL SUB DUP4 AND PUSH2 0x9FA JUMPI PUSH1 0x40 MLOAD PUSH3 0x461BCD PUSH1 0xE5 SHL DUP2 MSTORE PUSH1 0x20 PUSH1 0x4 DUP3 ADD MSTORE PUSH1 0x25 PUSH1 0x24 DUP3 ADD MSTORE PUSH32 0x45524332303A207472616E736665722066726F6D20746865207A65726F206164 PUSH1 0x44 DUP3 ADD MSTORE PUSH5 0x6472657373 PUSH1 0xD8 SHL PUSH1 0x64 DUP3 ADD MSTORE PUSH1 0x84 ADD PUSH2 0x48B JUMP JUMPDEST PUSH1 0x1 PUSH1 0x1 PUSH1 0xA0 SHL SUB DUP3 AND PUSH2 0xA5C JUMPI PUSH1 0x40 MLOAD PUSH3 0x461BCD PUSH1 0xE5 SHL DUP2 MSTORE PUSH1 0x20 PUSH1 0x4 DUP3 ADD MSTORE PUSH1 0x23 PUSH1 0x24 DUP3 ADD MSTORE PUSH32 0x45524332303A207472616E7366657220746F20746865207A65726F2061646472 PUSH1 0x44 DUP3 ADD MSTORE PUSH3 0x657373 PUSH1 0xE8 SHL PUSH1 0x64 DUP3 ADD MSTORE PUSH1 0x84 ADD PUSH2 0x48B JUMP JUMPDEST PUSH1 0x1 PUSH1 0x1 PUSH1 0xA0 SHL SUB DUP4 AND PUSH1 0x0 SWAP1 DUP2 MSTORE PUSH1 0x20 DUP2 SWAP1 MSTORE PUSH1 0x40 SWAP1 KECCAK256 SLOAD DUP2 DUP2 LT ISZERO PUSH2 0xAD4 JUMPI PUSH1 0x40 MLOAD PUSH3 0x461BCD PUSH1 0xE5 SHL DUP2 MSTORE PUSH1 0x20 PUSH1 0x4 DUP3 ADD MSTORE PUSH1 0x26 PUSH1 0x24 DUP3 ADD MSTORE PUSH32 0x45524332303A207472616E7366657220616D6F756E7420657863656564732062 PUSH1 0x44 DUP3 ADD MSTORE PUSH6 0x616C616E6365 PUSH1 0xD0 SHL PUSH1 0x64 DUP3 ADD MSTORE PUSH1 0x84 ADD PUSH2 0x48B JUMP JUMPDEST PUSH1 0x1 PUSH1 0x1 PUSH1 0xA0 SHL SUB DUP1 DUP6 AND PUSH1 0x0 SWAP1 DUP2 MSTORE PUSH1 0x20 DUP2 SWAP1 MSTORE PUSH1 0x40 DUP1 DUP3 KECCAK256 DUP6 DUP6 SUB SWAP1 SSTORE SWAP2 DUP6 AND DUP2 MSTORE SWAP1 DUP2 KECCAK256 DUP1 SLOAD DUP5 SWAP3 SWAP1 PUSH2 0xB0B SWAP1 DUP5 SWAP1 PUSH2 0x1499 JUMP JUMPDEST SWAP3 POP POP DUP2 SWAP1 SSTORE POP DUP3 PUSH1 0x1 PUSH1 0x1 PUSH1 0xA0 SHL SUB AND DUP5 PUSH1 0x1 PUSH1 0x1 PUSH1 0xA0 SHL SUB AND PUSH32 0xDDF252AD1BE2C89B69C2B068FC378DAA952BA7F163C4A11628F55A4DF523B3EF DUP5 PUSH1 0x40 MLOAD PUSH2 0xB57 SWAP2 DUP2 MSTORE PUSH1 0x20 ADD SWAP1 JUMP JUMPDEST PUSH1 0x40 MLOAD DUP1 SWAP2 SUB SWAP1 LOG3 PUSH2 0x990 JUMP JUMPDEST PUSH1 0x0 ADDRESS PUSH1 0x1 PUSH1 0x1 PUSH1 0xA0 SHL SUB PUSH32 0x0 AND EQ DUP1 ISZERO PUSH2 0xBBD JUMPI POP PUSH32 0x0 CHAINID EQ JUMPDEST ISZERO PUSH2 0xBE7 JUMPI POP PUSH32 0x0 SWAP1 JUMP JUMPDEST POP PUSH1 0x40 DUP1 MLOAD PUSH32 0x0 PUSH1 0x20 DUP1 DUP4 ADD SWAP2 SWAP1 SWAP2 MSTORE PUSH32 0x0 DUP3 DUP5 ADD MSTORE PUSH32 0x0 PUSH1 0x60 DUP4 ADD MSTORE CHAINID PUSH1 0x80 DUP4 ADD MSTORE ADDRESS PUSH1 0xA0 DUP1 DUP5 ADD SWAP2 SWAP1 SWAP2 MSTORE DUP4 MLOAD DUP1 DUP5 SUB SWAP1 SWAP2 ADD DUP2 MSTORE PUSH1 0xC0 SWAP1 SWAP3 ADD SWAP1 SWAP3 MSTORE DUP1 MLOAD SWAP2 ADD KECCAK256 SWAP1 JUMP JUMPDEST PUSH1 0x1 PUSH1 0x1 PUSH1 0xA0 SHL SUB DUP3 AND PUSH2 0xCE1 JUMPI PUSH1 0x40 MLOAD PUSH3 0x461BCD PUSH1 0xE5 SHL DUP2 MSTORE PUSH1 0x20 PUSH1 0x4 DUP3 ADD MSTORE PUSH1 0x1F PUSH1 0x24 DUP3 ADD MSTORE PUSH32 0x45524332303A206D696E7420746F20746865207A65726F206164647265737300 PUSH1 0x44 DUP3 ADD MSTORE PUSH1 0x64 ADD PUSH2 0x48B JUMP JUMPDEST DUP1 PUSH1 0x2 PUSH1 0x0 DUP3 DUP3 SLOAD PUSH2 0xCF3 SWAP2 SWAP1 PUSH2 0x1499 JUMP JUMPDEST SWAP1 SWAP2 SSTORE POP POP PUSH1 0x1 PUSH1 0x1 PUSH1 0xA0 SHL SUB DUP3 AND PUSH1 0x0 SWAP1 DUP2 MSTORE PUSH1 0x20 DUP2 SWAP1 MSTORE PUSH1 0x40 DUP2 KECCAK256 DUP1 SLOAD DUP4 SWAP3 SWAP1 PUSH2 0xD20 SWAP1 DUP5 SWAP1 PUSH2 0x1499 JUMP JUMPDEST SWAP1 SWAP2 SSTORE POP POP PUSH1 0x40 MLOAD DUP2 DUP2 MSTORE PUSH1 0x1 PUSH1 0x1 PUSH1 0xA0 SHL SUB DUP4 AND SWAP1 PUSH1 0x0 SWAP1 PUSH32 0xDDF252AD1BE2C89B69C2B068FC378DAA952BA7F163C4A11628F55A4DF523B3EF SWAP1 PUSH1 0x20 ADD PUSH1 0x40 MLOAD DUP1 SWAP2 SUB SWAP1 LOG3 POP POP JUMP JUMPDEST PUSH1 0x1 PUSH1 0x1 PUSH1 0xA0 SHL SUB DUP3 AND PUSH2 0xDCA JUMPI PUSH1 0x40 MLOAD PUSH3 0x461BCD PUSH1 0xE5 SHL DUP2 MSTORE PUSH1 0x20 PUSH1 0x4 DUP3 ADD MSTORE PUSH1 0x21 PUSH1 0x24 DUP3 ADD MSTORE PUSH32 0x45524332303A206275726E2066726F6D20746865207A65726F20616464726573 PUSH1 0x44 DUP3 ADD MSTORE PUSH1 0x73 PUSH1 0xF8 SHL PUSH1 0x64 DUP3 ADD MSTORE PUSH1 0x84 ADD PUSH2 0x48B JUMP JUMPDEST PUSH1 0x1 PUSH1 0x1 PUSH1 0xA0 SHL SUB DUP3 AND PUSH1 0x0 SWAP1 DUP2 MSTORE PUSH1 0x20 DUP2 SWAP1 MSTORE PUSH1 0x40 SWAP1 KECCAK256 SLOAD DUP2 DUP2 LT ISZERO PUSH2 0xE3E JUMPI PUSH1 0x40 MLOAD PUSH3 0x461BCD PUSH1 0xE5 SHL DUP2 MSTORE PUSH1 0x20 PUSH1 0x4 DUP3 ADD MSTORE PUSH1 0x22 PUSH1 0x24 DUP3 ADD MSTORE PUSH32 0x45524332303A206275726E20616D6F756E7420657863656564732062616C616E PUSH1 0x44 DUP3 ADD MSTORE PUSH2 0x6365 PUSH1 0xF0 SHL PUSH1 0x64 DUP3 ADD MSTORE PUSH1 0x84 ADD PUSH2 0x48B JUMP JUMPDEST PUSH1 0x1 PUSH1 0x1 PUSH1 0xA0 SHL SUB DUP4 AND PUSH1 0x0 SWAP1 DUP2 MSTORE PUSH1 0x20 DUP2 SWAP1 MSTORE PUSH1 0x40 DUP2 KECCAK256 DUP4 DUP4 SUB SWAP1 SSTORE PUSH1 0x2 DUP1 SLOAD DUP5 SWAP3 SWAP1 PUSH2 0xE6D SWAP1 DUP5 SWAP1 PUSH2 0x1575 JUMP JUMPDEST SWAP1 SWAP2 SSTORE POP POP PUSH1 0x40 MLOAD DUP3 DUP2 MSTORE PUSH1 0x0 SWAP1 PUSH1 0x1 PUSH1 0x1 PUSH1 0xA0 SHL SUB DUP6 AND SWAP1 PUSH32 0xDDF252AD1BE2C89B69C2B068FC378DAA952BA7F163C4A11628F55A4DF523B3EF SWAP1 PUSH1 0x20 ADD PUSH2 0x90F JUMP JUMPDEST POP POP POP JUMP JUMPDEST PUSH1 0x0 PUSH2 0xEC1 DUP4 CALLER PUSH2 0x7CC JUMP JUMPDEST SWAP1 POP PUSH1 0x0 PUSH2 0xECF DUP4 DUP4 PUSH2 0x1575 JUMP JUMPDEST LT ISZERO PUSH2 0xF29 JUMPI PUSH1 0x40 MLOAD PUSH3 0x461BCD PUSH1 0xE5 SHL DUP2 MSTORE PUSH1 0x20 PUSH1 0x4 DUP3 ADD MSTORE PUSH1 0x24 DUP1 DUP3 ADD MSTORE PUSH32 0x45524332303A206275726E20616D6F756E74206578636565647320616C6C6F77 PUSH1 0x44 DUP3 ADD MSTORE PUSH4 0x616E6365 PUSH1 0xE0 SHL PUSH1 0x64 DUP3 ADD MSTORE PUSH1 0x84 ADD PUSH2 0x48B JUMP JUMPDEST PUSH2 0xF33 DUP3 DUP3 PUSH2 0x1575 JUMP JUMPDEST SWAP1 POP PUSH2 0xF40 DUP4 CALLER DUP4 PUSH2 0x7F7 JUMP JUMPDEST PUSH2 0xEB0 DUP4 DUP4 PUSH2 0xD6A JUMP JUMPDEST PUSH1 0x1 PUSH1 0x1 PUSH1 0xA0 SHL SUB DUP2 AND PUSH1 0x0 SWAP1 DUP2 MSTORE PUSH1 0x5 PUSH1 0x20 MSTORE PUSH1 0x40 SWAP1 KECCAK256 DUP1 SLOAD PUSH1 0x1 DUP2 ADD DUP3 SSTORE SWAP1 JUMPDEST POP SWAP2 SWAP1 POP JUMP JUMPDEST PUSH1 0x0 PUSH2 0x5CA PUSH2 0xF7F PUSH2 0xB64 JUMP JUMPDEST DUP4 PUSH1 0x40 MLOAD PUSH2 0x1901 PUSH1 0xF0 SHL PUSH1 0x20 DUP3 ADD MSTORE PUSH1 0x22 DUP2 ADD DUP4 SWAP1 MSTORE PUSH1 0x42 DUP2 ADD DUP3 SWAP1 MSTORE PUSH1 0x0 SWAP1 PUSH1 0x62 ADD PUSH1 0x40 MLOAD PUSH1 0x20 DUP2 DUP4 SUB SUB DUP2 MSTORE SWAP1 PUSH1 0x40 MSTORE DUP1 MLOAD SWAP1 PUSH1 0x20 ADD KECCAK256 SWAP1 POP SWAP3 SWAP2 POP POP JUMP JUMPDEST PUSH1 0x0 DUP1 PUSH1 0x0 PUSH2 0xFD1 DUP8 DUP8 DUP8 DUP8 PUSH2 0xFE8 JUMP JUMPDEST SWAP2 POP SWAP2 POP PUSH2 0xFDE DUP2 PUSH2 0x10D5 JUMP JUMPDEST POP SWAP6 SWAP5 POP POP POP POP POP JUMP JUMPDEST PUSH1 0x0 DUP1 PUSH32 0x7FFFFFFFFFFFFFFFFFFFFFFFFFFFFFFF5D576E7357A4501DDFE92F46681B20A0 DUP4 GT ISZERO PUSH2 0x101F JUMPI POP PUSH1 0x0 SWAP1 POP PUSH1 0x3 PUSH2 0x10CC JUMP JUMPDEST DUP5 PUSH1 0xFF AND PUSH1 0x1B EQ ISZERO DUP1 ISZERO PUSH2 0x1037 JUMPI POP DUP5 PUSH1 0xFF AND PUSH1 0x1C EQ ISZERO JUMPDEST ISZERO PUSH2 0x1048 JUMPI POP PUSH1 0x0 SWAP1 POP PUSH1 0x4 PUSH2 0x10CC JUMP JUMPDEST PUSH1 0x40 DUP1 MLOAD PUSH1 0x0 DUP1 DUP3 MSTORE PUSH1 0x20 DUP3 ADD DUP1 DUP5 MSTORE DUP10 SWAP1 MSTORE PUSH1 0xFF DUP9 AND SWAP3 DUP3 ADD SWAP3 SWAP1 SWAP3 MSTORE PUSH1 0x60 DUP2 ADD DUP7 SWAP1 MSTORE PUSH1 0x80 DUP2 ADD DUP6 SWAP1 MSTORE PUSH1 0x1 SWAP1 PUSH1 0xA0 ADD PUSH1 0x20 PUSH1 0x40 MLOAD PUSH1 0x20 DUP2 SUB SWAP1 DUP1 DUP5 SUB SWAP1 DUP6 GAS STATICCALL ISZERO DUP1 ISZERO PUSH2 0x109C JUMPI RETURNDATASIZE PUSH1 0x0 DUP1 RETURNDATACOPY RETURNDATASIZE PUSH1 0x0 REVERT JUMPDEST POP POP PUSH1 0x40 MLOAD PUSH1 0x1F NOT ADD MLOAD SWAP2 POP POP PUSH1 0x1 PUSH1 0x1 PUSH1 0xA0 SHL SUB DUP2 AND PUSH2 0x10C5 JUMPI PUSH1 0x0 PUSH1 0x1 SWAP3 POP SWAP3 POP POP PUSH2 0x10CC JUMP JUMPDEST SWAP2 POP PUSH1 0x0 SWAP1 POP JUMPDEST SWAP5 POP SWAP5 SWAP3 POP POP POP JUMP JUMPDEST PUSH1 0x0 DUP2 PUSH1 0x4 DUP2 GT ISZERO PUSH2 0x10E9 JUMPI PUSH2 0x10E9 PUSH2 0x158C JUMP JUMPDEST SUB PUSH2 0x10F1 JUMPI POP JUMP JUMPDEST PUSH1 0x1 DUP2 PUSH1 0x4 DUP2 GT ISZERO PUSH2 0x1105 JUMPI PUSH2 0x1105 PUSH2 0x158C JUMP JUMPDEST SUB PUSH2 0x1152 JUMPI PUSH1 0x40 MLOAD PUSH3 0x461BCD PUSH1 0xE5 SHL DUP2 MSTORE PUSH1 0x20 PUSH1 0x4 DUP3 ADD MSTORE PUSH1 0x18 PUSH1 0x24 DUP3 ADD MSTORE PUSH32 0x45434453413A20696E76616C6964207369676E61747572650000000000000000 PUSH1 0x44 DUP3 ADD MSTORE PUSH1 0x64 ADD PUSH2 0x48B JUMP JUMPDEST PUSH1 0x2 DUP2 PUSH1 0x4 DUP2 GT ISZERO PUSH2 0x1166 JUMPI PUSH2 0x1166 PUSH2 0x158C JUMP JUMPDEST SUB PUSH2 0x11B3 JUMPI PUSH1 0x40 MLOAD PUSH3 0x461BCD PUSH1 0xE5 SHL DUP2 MSTORE PUSH1 0x20 PUSH1 0x4 DUP3 ADD MSTORE PUSH1 0x1F PUSH1 0x24 DUP3 ADD MSTORE PUSH32 0x45434453413A20696E76616C6964207369676E6174757265206C656E67746800 PUSH1 0x44 DUP3 ADD MSTORE PUSH1 0x64 ADD PUSH2 0x48B JUMP JUMPDEST PUSH1 0x3 DUP2 PUSH1 0x4 DUP2 GT ISZERO PUSH2 0x11C7 JUMPI PUSH2 0x11C7 PUSH2 0x158C JUMP JUMPDEST SUB PUSH2 0x121F JUMPI PUSH1 0x40 MLOAD PUSH3 0x461BCD PUSH1 0xE5 SHL DUP2 MSTORE PUSH1 0x20 PUSH1 0x4 DUP3 ADD MSTORE PUSH1 0x22 PUSH1 0x24 DUP3 ADD MSTORE PUSH32 0x45434453413A20696E76616C6964207369676E6174757265202773272076616C PUSH1 0x44 DUP3 ADD MSTORE PUSH2 0x7565 PUSH1 0xF0 SHL PUSH1 0x64 DUP3 ADD MSTORE PUSH1 0x84 ADD PUSH2 0x48B JUMP JUMPDEST PUSH1 0x4 DUP2 PUSH1 0x4 DUP2 GT ISZERO PUSH2 0x1233 JUMPI PUSH2 0x1233 PUSH2 0x158C JUMP JUMPDEST SUB PUSH2 0x4AD JUMPI PUSH1 0x40 MLOAD PUSH3 0x461BCD PUSH1 0xE5 SHL DUP2 MSTORE PUSH1 0x20 PUSH1 0x4 DUP3 ADD MSTORE PUSH1 0x22 PUSH1 0x24 DUP3 ADD MSTORE PUSH32 0x45434453413A20696E76616C6964207369676E6174757265202776272076616C PUSH1 0x44 DUP3 ADD MSTORE PUSH2 0x7565 PUSH1 0xF0 SHL PUSH1 0x64 DUP3 ADD MSTORE PUSH1 0x84 ADD PUSH2 0x48B JUMP JUMPDEST PUSH1 0x0 PUSH1 0x20 DUP1 DUP4 MSTORE DUP4 MLOAD DUP1 DUP3 DUP6 ADD MSTORE PUSH1 0x0 JUMPDEST DUP2 DUP2 LT ISZERO PUSH2 0x12B8 JUMPI DUP6 DUP2 ADD DUP4 ADD MLOAD DUP6 DUP3 ADD PUSH1 0x40 ADD MSTORE DUP3 ADD PUSH2 0x129C JUMP JUMPDEST DUP2 DUP2 GT ISZERO PUSH2 0x12CA JUMPI PUSH1 0x0 PUSH1 0x40 DUP4 DUP8 ADD ADD MSTORE JUMPDEST POP PUSH1 0x1F ADD PUSH1 0x1F NOT AND SWAP3 SWAP1 SWAP3 ADD PUSH1 0x40 ADD SWAP4 SWAP3 POP POP POP JUMP JUMPDEST PUSH1 0x1 PUSH1 0x1 PUSH1 0xA0 SHL SUB DUP2 AND DUP2 EQ PUSH2 0x4AD JUMPI PUSH1 0x0 DUP1 REVERT JUMPDEST PUSH1 0x0 DUP1 PUSH1 0x40 DUP4 DUP6 SUB SLT ISZERO PUSH2 0x1308 JUMPI PUSH1 0x0 DUP1 REVERT JUMPDEST DUP3 CALLDATALOAD PUSH2 0x1313 DUP2 PUSH2 0x12E0 JUMP JUMPDEST SWAP5 PUSH1 0x20 SWAP4 SWAP1 SWAP4 ADD CALLDATALOAD SWAP4 POP POP POP JUMP JUMPDEST PUSH1 0x0 DUP1 PUSH1 0x0 PUSH1 0x60 DUP5 DUP7 SUB SLT ISZERO PUSH2 0x1336 JUMPI PUSH1 0x0 DUP1 REVERT JUMPDEST DUP4 CALLDATALOAD PUSH2 0x1341 DUP2 PUSH2 0x12E0 JUMP JUMPDEST SWAP3 POP PUSH1 0x20 DUP5 ADD CALLDATALOAD PUSH2 0x1351 DUP2 PUSH2 0x12E0 JUMP JUMPDEST SWAP3 SWAP6 SWAP3 SWAP5 POP POP POP PUSH1 0x40 SWAP2 SWAP1 SWAP2 ADD CALLDATALOAD SWAP1 JUMP JUMPDEST PUSH1 0x0 PUSH1 0x20 DUP3 DUP5 SUB SLT ISZERO PUSH2 0x1374 JUMPI PUSH1 0x0 DUP1 REVERT JUMPDEST POP CALLDATALOAD SWAP2 SWAP1 POP JUMP JUMPDEST PUSH1 0x0 PUSH1 0x20 DUP3 DUP5 SUB SLT ISZERO PUSH2 0x138D JUMPI PUSH1 0x0 DUP1 REVERT JUMPDEST DUP2 CALLDATALOAD PUSH2 0x1398 DUP2 PUSH2 0x12E0 JUMP JUMPDEST SWAP4 SWAP3 POP POP POP JUMP JUMPDEST PUSH1 0x0 DUP1 PUSH1 0x0 DUP1 PUSH1 0x0 DUP1 PUSH1 0x0 PUSH1 0xE0 DUP9 DUP11 SUB SLT ISZERO PUSH2 0x13BA JUMPI PUSH1 0x0 DUP1 REVERT JUMPDEST DUP8 CALLDATALOAD PUSH2 0x13C5 DUP2 PUSH2 0x12E0 JUMP JUMPDEST SWAP7 POP PUSH1 0x20 DUP9 ADD CALLDATALOAD PUSH2 0x13D5 DUP2 PUSH2 0x12E0 JUMP JUMPDEST SWAP6 POP PUSH1 0x40 DUP9 ADD CALLDATALOAD SWAP5 POP PUSH1 0x60 DUP9 ADD CALLDATALOAD SWAP4 POP PUSH1 0x80 DUP9 ADD CALLDATALOAD PUSH1 0xFF DUP2 AND DUP2 EQ PUSH2 0x13F9 JUMPI PUSH1 0x0 DUP1 REVERT JUMPDEST SWAP7 SWAP10 SWAP6 SWAP9 POP SWAP4 SWAP7 SWAP3 SWAP6 SWAP5 PUSH1 0xA0 DUP5 ADD CALLDATALOAD SWAP5 POP PUSH1 0xC0 SWAP1 SWAP4 ADD CALLDATALOAD SWAP3 SWAP2 POP POP JUMP JUMPDEST PUSH1 0x0 DUP1 PUSH1 0x40 DUP4 DUP6 SUB SLT ISZERO PUSH2 0x1429 JUMPI PUSH1 0x0 DUP1 REVERT JUMPDEST DUP3 CALLDATALOAD PUSH2 0x1434 DUP2 PUSH2 0x12E0 JUMP JUMPDEST SWAP2 POP PUSH1 0x20 DUP4 ADD CALLDATALOAD PUSH2 0x1444 DUP2 PUSH2 0x12E0 JUMP JUMPDEST DUP1 SWAP2 POP POP SWAP3 POP SWAP3 SWAP1 POP JUMP JUMPDEST PUSH1 0x1 DUP2 DUP2 SHR SWAP1 DUP3 AND DUP1 PUSH2 0x1463 JUMPI PUSH1 0x7F DUP3 AND SWAP2 POP JUMPDEST PUSH1 0x20 DUP3 LT DUP2 SUB PUSH2 0xF6C JUMPI PUSH4 0x4E487B71 PUSH1 0xE0 SHL PUSH1 0x0 MSTORE PUSH1 0x22 PUSH1 0x4 MSTORE PUSH1 0x24 PUSH1 0x0 REVERT JUMPDEST PUSH4 0x4E487B71 PUSH1 0xE0 SHL PUSH1 0x0 MSTORE PUSH1 0x11 PUSH1 0x4 MSTORE PUSH1 0x24 PUSH1 0x0 REVERT JUMPDEST PUSH1 0x0 DUP3 NOT DUP3 GT ISZERO PUSH2 0x14AC JUMPI PUSH2 0x14AC PUSH2 0x1483 JUMP JUMPDEST POP ADD SWAP1 JUMP JUMPDEST PUSH1 0x0 PUSH1 0x20 DUP3 DUP5 SUB SLT ISZERO PUSH2 0x14C3 JUMPI PUSH1 0x0 DUP1 REVERT JUMPDEST DUP2 MLOAD PUSH2 0x1398 DUP2 PUSH2 0x12E0 JUMP JUMPDEST PUSH1 0x0 PUSH1 0x20 DUP1 DUP4 MSTORE PUSH1 0x0 DUP5 SLOAD DUP2 PUSH1 0x1 DUP3 DUP2 SHR SWAP2 POP DUP1 DUP4 AND DUP1 PUSH2 0x14F0 JUMPI PUSH1 0x7F DUP4 AND SWAP3 POP JUMPDEST DUP6 DUP4 LT DUP2 SUB PUSH2 0x150D JUMPI PUSH4 0x4E487B71 PUSH1 0xE0 SHL DUP6 MSTORE PUSH1 0x22 PUSH1 0x4 MSTORE PUSH1 0x24 DUP6 REVERT JUMPDEST DUP8 DUP7 ADD DUP4 DUP2 MSTORE PUSH1 0x20 ADD DUP2 DUP1 ISZERO PUSH2 0x152A JUMPI PUSH1 0x1 DUP2 EQ PUSH2 0x153B JUMPI PUSH2 0x1566 JUMP JUMPDEST PUSH1 0xFF NOT DUP7 AND DUP3 MSTORE DUP8 DUP3 ADD SWAP7 POP PUSH2 0x1566 JUMP JUMPDEST PUSH1 0x0 DUP12 DUP2 MSTORE PUSH1 0x20 SWAP1 KECCAK256 PUSH1 0x0 JUMPDEST DUP7 DUP2 LT ISZERO PUSH2 0x1560 JUMPI DUP2 SLOAD DUP5 DUP3 ADD MSTORE SWAP1 DUP6 ADD SWAP1 DUP10 ADD PUSH2 0x1547 JUMP JUMPDEST DUP4 ADD SWAP8 POP POP JUMPDEST POP SWAP5 SWAP10 SWAP9 POP POP POP POP POP POP POP POP POP JUMP JUMPDEST PUSH1 0x0 DUP3 DUP3 LT ISZERO PUSH2 0x1587 JUMPI PUSH2 0x1587 PUSH2 0x1483 JUMP JUMPDEST POP SUB SWAP1 JUMP JUMPDEST PUSH4 0x4E487B71 PUSH1 0xE0 SHL PUSH1 0x0 MSTORE PUSH1 0x21 PUSH1 0x4 MSTORE PUSH1 0x24 PUSH1 0x0 REVERT INVALID LOG2 PUSH5 0x6970667358 0x22 SLT KECCAK256 GAS PUSH29 0xC3753EB1BBA830E14DB12BFB50EAB119E053805B4EA8F494B84D6AA588 GT PUSH5 0x736F6C6343 STOP ADDMOD 0xD STOP CALLER "
				},
				"gasEstimates": {
					"creation": {
						"codeDepositCost": "1118400",
						"executionCost": "infinite",
						"totalCost": "infinite"
					},
					"external": {
						"DOMAIN_SEPARATOR()": "infinite",
						"allowance(address,address)": "infinite",
						"approve(address,uint256)": "24642",
						"authority()": "2403",
						"balanceOf(address)": "2557",
						"burn(uint256)": "50972",
						"burnFrom(address,uint256)": "infinite",
						"decimals()": "infinite",
						"decreaseAllowance(address,uint256)": "26967",
						"increaseAllowance(address,uint256)": "27040",
						"mint(address,uint256)": "infinite",
						"name()": "infinite",
						"nonces(address)": "2643",
						"permit(address,address,uint256,uint256,uint8,bytes32,bytes32)": "infinite",
						"setAuthority(address)": "infinite",
						"symbol()": "infinite",
						"totalSupply()": "2349",
						"transfer(address,uint256)": "51220",
						"transferFrom(address,address,uint256)": "infinite"
					},
					"internal": {
						"_burnFrom(address,uint256)": "infinite"
					}
				},
				"methodIdentifiers": {
					"DOMAIN_SEPARATOR()": "3644e515",
					"allowance(address,address)": "dd62ed3e",
					"approve(address,uint256)": "095ea7b3",
					"authority()": "bf7e214f",
					"balanceOf(address)": "70a08231",
					"burn(uint256)": "42966c68",
					"burnFrom(address,uint256)": "79cc6790",
					"decimals()": "313ce567",
					"decreaseAllowance(address,uint256)": "a457c2d7",
					"increaseAllowance(address,uint256)": "39509351",
					"mint(address,uint256)": "40c10f19",
					"name()": "06fdde03",
					"nonces(address)": "7ecebe00",
					"permit(address,address,uint256,uint256,uint8,bytes32,bytes32)": "d505accf",
					"setAuthority(address)": "7a9e5e4b",
					"symbol()": "95d89b41",
					"totalSupply()": "18160ddd",
					"transfer(address,uint256)": "a9059cbb",
					"transferFrom(address,address,uint256)": "23b872dd"
				}
			},
			"userdoc": {
				"kind": "user",
				"methods": {
					"setAuthority(address)": {
						"notice": "Function to set and update Solid Dao Management smart contract address"
					}
				},
				"notice": "SCT Token",
				"version": 1
			}
		}
	}
}