{
  "address": "0xdf8993bfFca5157B1aD81B072172903DA051cF20",
  "abi": [
    {
      "inputs": [
        {
          "internalType": "string",
          "name": "tokenName",
          "type": "string"
        },
        {
          "internalType": "string",
          "name": "tokenSymbol",
          "type": "string"
        }
      ],
      "name": "deploy",
      "outputs": [
        {
          "internalType": "contract CollateralizedBasketToken",
          "name": "token",
          "type": "address"
        }
      ],
      "stateMutability": "nonpayable",
      "type": "function"
    }
  ],
  "transactionHash": "0x14c3c950b0dd8b742cec9236b912fead5d473b345f6dea3a9995a52b3ea73b3f",
  "args": [],
  "numDeployments": 1,
  "solcInputHash": "96e1907e0c1280cac36b3a1a5c8cf026",
  "bytecode": "0x608060405234801561001057600080fd5b50611636806100206000396000f3fe608060405234801561001057600080fd5b506004361061002b5760003560e01c8063b548848714610030575b600080fd5b61004361003e366004610188565b61006c565b60405173ffffffffffffffffffffffffffffffffffffffff909116815260200160405180910390f35b60008484848460405161007e90610132565b61008b949392919061023d565b604051809103906000f0801580156100a7573d6000803e3d6000fd5b506040517ff2fde38b00000000000000000000000000000000000000000000000000000000815233600482015290915073ffffffffffffffffffffffffffffffffffffffff82169063f2fde38b90602401600060405180830381600087803b15801561011257600080fd5b505af1158015610126573d6000803e3d6000fd5b50505050949350505050565b6113918061027083390190565b60008083601f84011261015157600080fd5b50813567ffffffffffffffff81111561016957600080fd5b60208301915083602082850101111561018157600080fd5b9250929050565b6000806000806040858703121561019e57600080fd5b843567ffffffffffffffff808211156101b657600080fd5b6101c28883890161013f565b909650945060208701359150808211156101db57600080fd5b506101e88782880161013f565b95989497509550505050565b8183528181602085013750600060208284010152600060207fffffffffffffffffffffffffffffffffffffffffffffffffffffffffffffffe0601f840116840101905092915050565b6040815260006102516040830186886101f4565b82810360208401526102648185876101f4565b97965050505050505056fe60806040523480156200001157600080fd5b506040516200139138038062001391833981016040819052620000349162000193565b818160036200004483826200028c565b5060046200005382826200028c565b505050620000706200006a6200007860201b60201c565b6200007c565b505062000358565b3390565b600580546001600160a01b038381166001600160a01b0319831681179093556040519116919082907f8be0079c531659141344cd1fd0a4f28419497f9722a3daafe3b4186f6b6457e090600090a35050565b634e487b7160e01b600052604160045260246000fd5b600082601f830112620000f657600080fd5b81516001600160401b0380821115620001135762000113620000ce565b604051601f8301601f19908116603f011681019082821181831017156200013e576200013e620000ce565b816040528381526020925086838588010111156200015b57600080fd5b600091505b838210156200017f578582018301518183018401529082019062000160565b600093810190920192909252949350505050565b60008060408385031215620001a757600080fd5b82516001600160401b0380821115620001bf57600080fd5b620001cd86838701620000e4565b93506020850151915080821115620001e457600080fd5b50620001f385828601620000e4565b9150509250929050565b600181811c908216806200021257607f821691505b6020821081036200023357634e487b7160e01b600052602260045260246000fd5b50919050565b601f8211156200028757600081815260208120601f850160051c81016020861015620002625750805b601f850160051c820191505b8181101562000283578281556001016200026e565b5050505b505050565b81516001600160401b03811115620002a857620002a8620000ce565b620002c081620002b98454620001fd565b8462000239565b602080601f831160018114620002f85760008415620002df5750858301515b600019600386901b1c1916600185901b17855562000283565b600085815260208120601f198616915b82811015620003295788860151825594840194600190910190840162000308565b5085821015620003485787850151600019600388901b60f8161c191681555b5050505050600190811b01905550565b61102980620003686000396000f3fe608060405234801561001057600080fd5b506004361061011b5760003560e01c806370a08231116100b257806395d89b4111610081578063a9059cbb11610066578063a9059cbb14610264578063dd62ed3e14610277578063f2fde38b146102bd57600080fd5b806395d89b4114610249578063a457c2d71461025157600080fd5b806370a08231146101d0578063715018a61461020657806379cc67901461020e5780638da5cb5b1461022157600080fd5b8063313ce567116100ee578063313ce56714610186578063395093511461019557806340c10f19146101a857806342966c68146101bd57600080fd5b806306fdde0314610120578063095ea7b31461013e57806318160ddd1461016157806323b872dd14610173575b600080fd5b6101286102d0565b6040516101359190610de2565b60405180910390f35b61015161014c366004610e77565b610362565b6040519015158152602001610135565b6002545b604051908152602001610135565b610151610181366004610ea1565b61037c565b60405160128152602001610135565b6101516101a3366004610e77565b6103a0565b6101bb6101b6366004610e77565b6103ec565b005b6101bb6101cb366004610edd565b610402565b6101656101de366004610ef6565b73ffffffffffffffffffffffffffffffffffffffff1660009081526020819052604090205490565b6101bb61040f565b6101bb61021c366004610e77565b610423565b60055460405173ffffffffffffffffffffffffffffffffffffffff9091168152602001610135565b610128610438565b61015161025f366004610e77565b610447565b610151610272366004610e77565b610503565b610165610285366004610f18565b73ffffffffffffffffffffffffffffffffffffffff918216600090815260016020908152604080832093909416825291909152205490565b6101bb6102cb366004610ef6565b610511565b6060600380546102df90610f4b565b80601f016020809104026020016040519081016040528092919081815260200182805461030b90610f4b565b80156103585780601f1061032d57610100808354040283529160200191610358565b820191906000526020600020905b81548152906001019060200180831161033b57829003601f168201915b5050505050905090565b6000336103708185856105ab565b60019150505b92915050565b60003361038a85828561072b565b6103958585856107e8565b506001949350505050565b33600081815260016020908152604080832073ffffffffffffffffffffffffffffffffffffffff8716845290915281205490919061037090829086906103e7908790610fcd565b6105ab565b6103f4610a4d565b6103fe8282610ab4565b5050565b61040c3382610bba565b50565b610417610a4d565b6104216000610d6b565b565b61042e82338361072b565b6103fe8282610bba565b6060600480546102df90610f4b565b33600081815260016020908152604080832073ffffffffffffffffffffffffffffffffffffffff87168452909152812054909190838110156104f65760405162461bcd60e51b815260206004820152602560248201527f45524332303a2064656372656173656420616c6c6f77616e63652062656c6f7760448201527f207a65726f00000000000000000000000000000000000000000000000000000060648201526084015b60405180910390fd5b61039582868684036105ab565b6000336103708185856107e8565b610519610a4d565b73ffffffffffffffffffffffffffffffffffffffff81166105a25760405162461bcd60e51b815260206004820152602660248201527f4f776e61626c653a206e6577206f776e657220697320746865207a65726f206160448201527f646472657373000000000000000000000000000000000000000000000000000060648201526084016104ed565b61040c81610d6b565b73ffffffffffffffffffffffffffffffffffffffff83166106335760405162461bcd60e51b8152602060048201526024808201527f45524332303a20617070726f76652066726f6d20746865207a65726f2061646460448201527f726573730000000000000000000000000000000000000000000000000000000060648201526084016104ed565b73ffffffffffffffffffffffffffffffffffffffff82166106bc5760405162461bcd60e51b815260206004820152602260248201527f45524332303a20617070726f766520746f20746865207a65726f20616464726560448201527f737300000000000000000000000000000000000000000000000000000000000060648201526084016104ed565b73ffffffffffffffffffffffffffffffffffffffff83811660008181526001602090815260408083209487168084529482529182902085905590518481527f8c5be1e5ebec7d5bd14f71427d1e84f3dd0314c0f7b2291e5b200ac8c7c3b92591015b60405180910390a3505050565b73ffffffffffffffffffffffffffffffffffffffff8381166000908152600160209081526040808320938616835292905220547fffffffffffffffffffffffffffffffffffffffffffffffffffffffffffffffff81146107e257818110156107d55760405162461bcd60e51b815260206004820152601d60248201527f45524332303a20696e73756666696369656e7420616c6c6f77616e636500000060448201526064016104ed565b6107e284848484036105ab565b50505050565b73ffffffffffffffffffffffffffffffffffffffff83166108715760405162461bcd60e51b815260206004820152602560248201527f45524332303a207472616e736665722066726f6d20746865207a65726f20616460448201527f647265737300000000000000000000000000000000000000000000000000000060648201526084016104ed565b73ffffffffffffffffffffffffffffffffffffffff82166108fa5760405162461bcd60e51b815260206004820152602360248201527f45524332303a207472616e7366657220746f20746865207a65726f206164647260448201527f657373000000000000000000000000000000000000000000000000000000000060648201526084016104ed565b73ffffffffffffffffffffffffffffffffffffffff8316600090815260208190526040902054818110156109965760405162461bcd60e51b815260206004820152602660248201527f45524332303a207472616e7366657220616d6f756e742065786365656473206260448201527f616c616e6365000000000000000000000000000000000000000000000000000060648201526084016104ed565b73ffffffffffffffffffffffffffffffffffffffff8085166000908152602081905260408082208585039055918516815290812080548492906109da908490610fcd565b925050819055508273ffffffffffffffffffffffffffffffffffffffff168473ffffffffffffffffffffffffffffffffffffffff167fddf252ad1be2c89b69c2b068fc378daa952ba7f163c4a11628f55a4df523b3ef84604051610a4091815260200190565b60405180910390a36107e2565b60055473ffffffffffffffffffffffffffffffffffffffff1633146104215760405162461bcd60e51b815260206004820181905260248201527f4f776e61626c653a2063616c6c6572206973206e6f7420746865206f776e657260448201526064016104ed565b73ffffffffffffffffffffffffffffffffffffffff8216610b175760405162461bcd60e51b815260206004820152601f60248201527f45524332303a206d696e7420746f20746865207a65726f20616464726573730060448201526064016104ed565b8060026000828254610b299190610fcd565b909155505073ffffffffffffffffffffffffffffffffffffffff821660009081526020819052604081208054839290610b63908490610fcd565b909155505060405181815273ffffffffffffffffffffffffffffffffffffffff8316906000907fddf252ad1be2c89b69c2b068fc378daa952ba7f163c4a11628f55a4df523b3ef9060200160405180910390a35050565b73ffffffffffffffffffffffffffffffffffffffff8216610c435760405162461bcd60e51b815260206004820152602160248201527f45524332303a206275726e2066726f6d20746865207a65726f2061646472657360448201527f730000000000000000000000000000000000000000000000000000000000000060648201526084016104ed565b73ffffffffffffffffffffffffffffffffffffffff821660009081526020819052604090205481811015610cdf5760405162461bcd60e51b815260206004820152602260248201527f45524332303a206275726e20616d6f756e7420657863656564732062616c616e60448201527f636500000000000000000000000000000000000000000000000000000000000060648201526084016104ed565b73ffffffffffffffffffffffffffffffffffffffff83166000908152602081905260408120838303905560028054849290610d1b908490610fe0565b909155505060405182815260009073ffffffffffffffffffffffffffffffffffffffff8516907fddf252ad1be2c89b69c2b068fc378daa952ba7f163c4a11628f55a4df523b3ef9060200161071e565b6005805473ffffffffffffffffffffffffffffffffffffffff8381167fffffffffffffffffffffffff0000000000000000000000000000000000000000831681179093556040519116919082907f8be0079c531659141344cd1fd0a4f28419497f9722a3daafe3b4186f6b6457e090600090a35050565b600060208083528351808285015260005b81811015610e0f57858101830151858201604001528201610df3565b5060006040828601015260407fffffffffffffffffffffffffffffffffffffffffffffffffffffffffffffffe0601f8301168501019250505092915050565b803573ffffffffffffffffffffffffffffffffffffffff81168114610e7257600080fd5b919050565b60008060408385031215610e8a57600080fd5b610e9383610e4e565b946020939093013593505050565b600080600060608486031215610eb657600080fd5b610ebf84610e4e565b9250610ecd60208501610e4e565b9150604084013590509250925092565b600060208284031215610eef57600080fd5b5035919050565b600060208284031215610f0857600080fd5b610f1182610e4e565b9392505050565b60008060408385031215610f2b57600080fd5b610f3483610e4e565b9150610f4260208401610e4e565b90509250929050565b600181811c90821680610f5f57607f821691505b602082108103610f98577f4e487b7100000000000000000000000000000000000000000000000000000000600052602260045260246000fd5b50919050565b7f4e487b7100000000000000000000000000000000000000000000000000000000600052601160045260246000fd5b8082018082111561037657610376610f9e565b8181038181111561037657610376610f9e56fea2646970667358221220de3a1bf26460ec18313ab9fe08e21c2a530cefba11f2b3a38957cba4ec40d9dd64736f6c63430008110033a2646970667358221220dcbc611e5ce70e155282d2aec01900eb12b5bfd3b11885e2a4c2039a6ab147fa64736f6c63430008110033",
  "devdoc": {
    "kind": "dev",
    "methods": {},
    "version": 1
  },
  "userdoc": {
    "kind": "user",
    "methods": {},
    "version": 1
  },
  "storageLayout": {
    "storage": [],
    "types": null
  }
}