{
  "address": "0xDcd1A4ACC4b066c1515959d67e8252dA4dc83Dda",
  "abi": [
    {
      "inputs": [
        {
          "internalType": "address",
          "name": "_verificationRegistry",
          "type": "address"
        }
      ],
      "stateMutability": "nonpayable",
      "type": "constructor"
    },
    {
      "inputs": [],
      "name": "InvalidVerificationRegistry",
      "type": "error"
    },
    {
      "anonymous": false,
      "inputs": [
        {
          "indexed": true,
          "internalType": "address",
          "name": "previousOwner",
          "type": "address"
        },
        {
          "indexed": true,
          "internalType": "address",
          "name": "newOwner",
          "type": "address"
        }
      ],
      "name": "OwnershipTransferred",
      "type": "event"
    },
    {
      "anonymous": false,
      "inputs": [
        {
          "indexed": true,
          "internalType": "address",
          "name": "verificationRegistry",
          "type": "address"
        }
      ],
      "name": "VerificationRegistryUpdated",
      "type": "event"
    },
    {
      "inputs": [
        {
          "internalType": "string",
          "name": "tokenName",
          "type": "string"
        },
        {
          "internalType": "string",
          "name": "tokenSymbol",
          "type": "string"
        }
      ],
      "name": "deploy",
      "outputs": [
        {
          "internalType": "contract CollateralizedBasketToken",
          "name": "token",
          "type": "address"
        }
      ],
      "stateMutability": "nonpayable",
      "type": "function"
    },
    {
      "inputs": [],
      "name": "getVerificationRegistry",
      "outputs": [
        {
          "internalType": "address",
          "name": "",
          "type": "address"
        }
      ],
      "stateMutability": "view",
      "type": "function"
    },
    {
      "inputs": [
        {
          "internalType": "address",
          "name": "counterparty",
          "type": "address"
        },
        {
          "internalType": "bool",
          "name": "_kycRequired",
          "type": "bool"
        }
      ],
      "name": "isValidCounterparty",
      "outputs": [
        {
          "internalType": "bool",
          "name": "",
          "type": "bool"
        }
      ],
      "stateMutability": "view",
      "type": "function"
    },
    {
      "inputs": [],
      "name": "owner",
      "outputs": [
        {
          "internalType": "address",
          "name": "",
          "type": "address"
        }
      ],
      "stateMutability": "view",
      "type": "function"
    },
    {
      "inputs": [],
      "name": "renounceOwnership",
      "outputs": [],
      "stateMutability": "nonpayable",
      "type": "function"
    },
    {
      "inputs": [
        {
          "internalType": "address",
          "name": "_verificationRegistry",
          "type": "address"
        }
      ],
      "name": "setVerificationRegistry",
      "outputs": [],
      "stateMutability": "nonpayable",
      "type": "function"
    },
    {
      "inputs": [
        {
          "internalType": "address",
          "name": "newOwner",
          "type": "address"
        }
      ],
      "name": "transferOwnership",
      "outputs": [],
      "stateMutability": "nonpayable",
      "type": "function"
    }
  ],
  "transactionHash": "0xbab87bd98872dd20a81cbd13f2cc8bc0e543e0d7e03d89e3e3ca587a738669b6",
  "args": [
    "0xDb823fb6bd6EaF6d08373B3b8b7884B2761E987B"
  ],
  "numDeployments": 1,
  "solcInputHash": "adf8dc5a593b2d373e02ec07bbd88a19",
  "bytecode": "0x608060405234801561001057600080fd5b5060405161237538038061237583398101604081905261002f9161010c565b8061003933610072565b806001600160a01b0381166100615760405163161a968360e01b815260040160405180910390fd5b61006a826100c2565b50505061013c565b600080546001600160a01b038381166001600160a01b0319831681178455604051919092169283917f8be0079c531659141344cd1fd0a4f28419497f9722a3daafe3b4186f6b6457e09190a35050565b600180546001600160a01b0319166001600160a01b0383169081179091556040517fcedf55f14e39eab9ea6df1b72eeb9a4ce7f42a669be00a2d94fc9eaccbe0637390600090a250565b60006020828403121561011e57600080fd5b81516001600160a01b038116811461013557600080fd5b9392505050565b61222a8061014b6000396000f3fe60806040523480156200001157600080fd5b5060043610620000875760003560e01c806387664f91116200006257806387664f9114620001045780638da5cb5b146200011b578063b5488487146200013a578063f2fde38b146200015157600080fd5b80630c96a12c146200008c5780631ab71eaa14620000d0578063715018a614620000f8575b600080fd5b60015473ffffffffffffffffffffffffffffffffffffffff165b60405173ffffffffffffffffffffffffffffffffffffffff90911681526020015b60405180910390f35b620000e7620000e1366004620006ad565b62000168565b6040519015158152602001620000c7565b62000102620002c5565b005b6200010262000115366004620006e9565b620002dd565b60005473ffffffffffffffffffffffffffffffffffffffff16620000a6565b620000a66200014b3660046200075a565b620002f5565b6200010262000162366004620006e9565b620003e3565b60015460009073ffffffffffffffffffffffffffffffffffffffff16821562000227576040517f8251157700000000000000000000000000000000000000000000000000000000815273ffffffffffffffffffffffffffffffffffffffff8581166004830152821690638251157790602401602060405180830381865afa158015620001f8573d6000803e3d6000fd5b505050506040513d601f19601f820116820180604052508101906200021e9190620007cd565b915050620002bf565b6040517ffe575a8700000000000000000000000000000000000000000000000000000000815273ffffffffffffffffffffffffffffffffffffffff858116600483015282169063fe575a8790602401602060405180830381865afa15801562000294573d6000803e3d6000fd5b505050506040513d601f19601f82011682018060405250810190620002ba9190620007cd565b159150505b92915050565b620002cf620004a1565b620002db600062000524565b565b620002e7620004a1565b620002f28162000599565b50565b6000848484846200031b60015473ffffffffffffffffffffffffffffffffffffffff1690565b604051620003299062000666565b6200033995949392919062000836565b604051809103906000f08015801562000356573d6000803e3d6000fd5b506040517ff2fde38b00000000000000000000000000000000000000000000000000000000815233600482015290915073ffffffffffffffffffffffffffffffffffffffff82169063f2fde38b90602401600060405180830381600087803b158015620003c257600080fd5b505af1158015620003d7573d6000803e3d6000fd5b50505050949350505050565b620003ed620004a1565b73ffffffffffffffffffffffffffffffffffffffff811662000496576040517f08c379a000000000000000000000000000000000000000000000000000000000815260206004820152602660248201527f4f776e61626c653a206e6577206f776e657220697320746865207a65726f206160448201527f646472657373000000000000000000000000000000000000000000000000000060648201526084015b60405180910390fd5b620002f28162000524565b60005473ffffffffffffffffffffffffffffffffffffffff163314620002db576040517f08c379a000000000000000000000000000000000000000000000000000000000815260206004820181905260248201527f4f776e61626c653a2063616c6c6572206973206e6f7420746865206f776e657260448201526064016200048d565b6000805473ffffffffffffffffffffffffffffffffffffffff8381167fffffffffffffffffffffffff0000000000000000000000000000000000000000831681178455604051919092169283917f8be0079c531659141344cd1fd0a4f28419497f9722a3daafe3b4186f6b6457e09190a35050565b8073ffffffffffffffffffffffffffffffffffffffff8116620005e8576040517f161a968300000000000000000000000000000000000000000000000000000000815260040160405180910390fd5b620005f382620005f7565b5050565b600180547fffffffffffffffffffffffff00000000000000000000000000000000000000001673ffffffffffffffffffffffffffffffffffffffff83169081179091556040517fcedf55f14e39eab9ea6df1b72eeb9a4ce7f42a669be00a2d94fc9eaccbe0637390600090a250565b61196a806200088b83390190565b803573ffffffffffffffffffffffffffffffffffffffff811681146200069957600080fd5b919050565b8015158114620002f257600080fd5b60008060408385031215620006c157600080fd5b620006cc8362000674565b91506020830135620006de816200069e565b809150509250929050565b600060208284031215620006fc57600080fd5b620007078262000674565b9392505050565b60008083601f8401126200072157600080fd5b50813567ffffffffffffffff8111156200073a57600080fd5b6020830191508360208285010111156200075357600080fd5b9250929050565b600080600080604085870312156200077157600080fd5b843567ffffffffffffffff808211156200078a57600080fd5b62000798888389016200070e565b90965094506020870135915080821115620007b257600080fd5b50620007c1878288016200070e565b95989497509550505050565b600060208284031215620007e057600080fd5b815162000707816200069e565b8183528181602085013750600060208284010152600060207fffffffffffffffffffffffffffffffffffffffffffffffffffffffffffffffe0601f840116840101905092915050565b6060815260006200084c606083018789620007ed565b828103602084015262000861818688620007ed565b91505073ffffffffffffffffffffffffffffffffffffffff83166040830152969550505050505056fe60806040523480156200001157600080fd5b506040516200196a3803806200196a833981016040819052620000349162000215565b808383600362000045838262000331565b50600462000054828262000331565b505050620000716200006b620000b060201b60201c565b620000b4565b806001600160a01b0381166200009a5760405163161a968360e01b815260040160405180910390fd5b620000a58262000106565b5050505050620003fd565b3390565b600580546001600160a01b038381166001600160a01b0319831681179093556040519116919082907f8be0079c531659141344cd1fd0a4f28419497f9722a3daafe3b4186f6b6457e090600090a35050565b600680546001600160a01b0319166001600160a01b0383169081179091556040517fcedf55f14e39eab9ea6df1b72eeb9a4ce7f42a669be00a2d94fc9eaccbe0637390600090a250565b634e487b7160e01b600052604160045260246000fd5b600082601f8301126200017857600080fd5b81516001600160401b038082111562000195576200019562000150565b604051601f8301601f19908116603f01168101908282118183101715620001c057620001c062000150565b81604052838152602092508683858801011115620001dd57600080fd5b600091505b83821015620002015785820183015181830184015290820190620001e2565b600093810190920192909252949350505050565b6000806000606084860312156200022b57600080fd5b83516001600160401b03808211156200024357600080fd5b620002518783880162000166565b945060208601519150808211156200026857600080fd5b50620002778682870162000166565b604086015190935090506001600160a01b03811681146200029757600080fd5b809150509250925092565b600181811c90821680620002b757607f821691505b602082108103620002d857634e487b7160e01b600052602260045260246000fd5b50919050565b601f8211156200032c57600081815260208120601f850160051c81016020861015620003075750805b601f850160051c820191505b81811015620003285782815560010162000313565b5050505b505050565b81516001600160401b038111156200034d576200034d62000150565b62000365816200035e8454620002a2565b84620002de565b602080601f8311600181146200039d5760008415620003845750858301515b600019600386901b1c1916600185901b17855562000328565b600085815260208120601f198616915b82811015620003ce57888601518255948401946001909101908401620003ad565b5085821015620003ed5787850151600019600388901b60f8161c191681555b5050505050600190811b01905550565b61155d806200040d6000396000f3fe608060405234801561001057600080fd5b50600436106101825760003560e01c8063715018a6116100d857806395d89b411161008c578063dd62ed3e11610066578063dd62ed3e1461035c578063e86131fa146103a2578063f2fde38b146103b557600080fd5b806395d89b411461032e578063a457c2d714610336578063a9059cbb1461034957600080fd5b806387664f91116100bd57806387664f91146102da5780638da5cb5b146102ed57806391304f1f1461030b57600080fd5b8063715018a6146102bf57806379cc6790146102c757600080fd5b806323b872dd1161013a57806340c10f191161011457806340c10f191461026157806342966c681461027657806370a082311461028957600080fd5b806323b872dd1461022c578063313ce5671461023f578063395093511461024e57600080fd5b80630c96a12c1161016b5780630c96a12c146101c857806318160ddd146102075780631ab71eaa1461021957600080fd5b806306fdde0314610187578063095ea7b3146101a5575b600080fd5b61018f6103c8565b60405161019c91906112b2565b60405180910390f35b6101b86101b3366004611347565b61045a565b604051901515815260200161019c565b60065473ffffffffffffffffffffffffffffffffffffffff165b60405173ffffffffffffffffffffffffffffffffffffffff909116815260200161019c565b6002545b60405190815260200161019c565b6101b861022736600461137f565b610483565b6101b861023a3660046113b6565b6105d8565b6040516012815260200161019c565b6101b861025c366004611347565b61060e565b61027461026f366004611347565b61062e565b005b6102746102843660046113f2565b61064f565b61020b61029736600461140b565b73ffffffffffffffffffffffffffffffffffffffff1660009081526020819052604090205490565b610274610666565b6102746102d5366004611347565b61067a565b6102746102e836600461140b565b61069e565b60055473ffffffffffffffffffffffffffffffffffffffff166101e2565b60065474010000000000000000000000000000000000000000900460ff166101b8565b61018f6106b2565b6101b8610344366004611347565b6106c1565b6101b8610357366004611347565b6106e1565b61020b61036a36600461142d565b73ffffffffffffffffffffffffffffffffffffffff918216600090815260016020908152604080832093909416825291909152205490565b6102746103b0366004611460565b610701565b6102746103c336600461140b565b61077e565b6060600380546103d79061147d565b80601f01602080910402602001604051908101604052809291908181526020018280546104039061147d565b80156104505780601f1061042557610100808354040283529160200191610450565b820191906000526020600020905b81548152906001019060200180831161043357829003601f168201915b5050505050905090565b6000336104668161081d565b836104708161081d565b61047a85856108e2565b95945050505050565b60065460009073ffffffffffffffffffffffffffffffffffffffff16821561053d576040517f8251157700000000000000000000000000000000000000000000000000000000815273ffffffffffffffffffffffffffffffffffffffff8581166004830152821690638251157790602401602060405180830381865afa158015610511573d6000803e3d6000fd5b505050506040513d601f19601f8201168201806040525081019061053591906114d0565b9150506105d2565b6040517ffe575a8700000000000000000000000000000000000000000000000000000000815273ffffffffffffffffffffffffffffffffffffffff858116600483015282169063fe575a8790602401602060405180830381865afa1580156105a9573d6000803e3d6000fd5b505050506040513d601f19601f820116820180604052508101906105cd91906114d0565b159150505b92915050565b6000336105e48161081d565b846105ee8161081d565b846105f88161081d565b6106038787876108fa565b979650505050505050565b60003361061a8161081d565b836106248161081d565b61047a858561091e565b61063661096a565b816106408161081d565b61064a83836109d1565b505050565b336106598161081d565b61066282610aaa565b5050565b61066e61096a565b6106786000610ab4565b565b336106848161081d565b8261068e8161081d565b6106988484610b2b565b50505050565b6106a661096a565b6106af81610b40565b50565b6060600480546103d79061147d565b6000336106cd8161081d565b836106d78161081d565b61047a8585610b97565b6000336106ed8161081d565b836106f78161081d565b61047a8585610c4e565b61070961096a565b600680547fffffffffffffffffffffff00ffffffffffffffffffffffffffffffffffffffff1674010000000000000000000000000000000000000000831515908102919091179091556040517f5ee0f37ed0f37af0b566f8af5119d9e7c36bda501394ced34b6ddd17e42abd6d90600090a250565b61078661096a565b73ffffffffffffffffffffffffffffffffffffffff81166108145760405162461bcd60e51b815260206004820152602660248201527f4f776e61626c653a206e6577206f776e657220697320746865207a65726f206160448201527f646472657373000000000000000000000000000000000000000000000000000060648201526084015b60405180910390fd5b6106af81610ab4565b60055473ffffffffffffffffffffffffffffffffffffffff1673ffffffffffffffffffffffffffffffffffffffff168173ffffffffffffffffffffffffffffffffffffffff160361086b5750565b60065461089490829074010000000000000000000000000000000000000000900460ff16610483565b6106af576040517f5e8615b800000000000000000000000000000000000000000000000000000000815273ffffffffffffffffffffffffffffffffffffffff8216600482015260240161080b565b6000336108f0818585610c5c565b5060019392505050565b600033610908858285610ddb565b610913858585610e92565b506001949350505050565b33600081815260016020908152604080832073ffffffffffffffffffffffffffffffffffffffff871684529091528120549091906108f090829086906109659087906114ed565b610c5c565b60055473ffffffffffffffffffffffffffffffffffffffff1633146106785760405162461bcd60e51b815260206004820181905260248201527f4f776e61626c653a2063616c6c6572206973206e6f7420746865206f776e6572604482015260640161080b565b73ffffffffffffffffffffffffffffffffffffffff8216610a345760405162461bcd60e51b815260206004820152601f60248201527f45524332303a206d696e7420746f20746865207a65726f206164647265737300604482015260640161080b565b8060026000828254610a4691906114ed565b909155505073ffffffffffffffffffffffffffffffffffffffff8216600081815260208181526040808320805486019055518481527fddf252ad1be2c89b69c2b068fc378daa952ba7f163c4a11628f55a4df523b3ef910160405180910390a35050565b6106af33826110b3565b6005805473ffffffffffffffffffffffffffffffffffffffff8381167fffffffffffffffffffffffff0000000000000000000000000000000000000000831681179093556040519116919082907f8be0079c531659141344cd1fd0a4f28419497f9722a3daafe3b4186f6b6457e090600090a35050565b610b36823383610ddb565b61066282826110b3565b8073ffffffffffffffffffffffffffffffffffffffff8116610b8e576040517f161a968300000000000000000000000000000000000000000000000000000000815260040160405180910390fd5b61066282611243565b33600081815260016020908152604080832073ffffffffffffffffffffffffffffffffffffffff8716845290915281205490919083811015610c415760405162461bcd60e51b815260206004820152602560248201527f45524332303a2064656372656173656420616c6c6f77616e63652062656c6f7760448201527f207a65726f000000000000000000000000000000000000000000000000000000606482015260840161080b565b6109138286868403610c5c565b6000336108f0818585610e92565b73ffffffffffffffffffffffffffffffffffffffff8316610ce45760405162461bcd60e51b8152602060048201526024808201527f45524332303a20617070726f76652066726f6d20746865207a65726f2061646460448201527f7265737300000000000000000000000000000000000000000000000000000000606482015260840161080b565b73ffffffffffffffffffffffffffffffffffffffff8216610d6d5760405162461bcd60e51b815260206004820152602260248201527f45524332303a20617070726f766520746f20746865207a65726f20616464726560448201527f7373000000000000000000000000000000000000000000000000000000000000606482015260840161080b565b73ffffffffffffffffffffffffffffffffffffffff83811660008181526001602090815260408083209487168084529482529182902085905590518481527f8c5be1e5ebec7d5bd14f71427d1e84f3dd0314c0f7b2291e5b200ac8c7c3b925910160405180910390a3505050565b73ffffffffffffffffffffffffffffffffffffffff8381166000908152600160209081526040808320938616835292905220547fffffffffffffffffffffffffffffffffffffffffffffffffffffffffffffffff81146106985781811015610e855760405162461bcd60e51b815260206004820152601d60248201527f45524332303a20696e73756666696369656e7420616c6c6f77616e6365000000604482015260640161080b565b6106988484848403610c5c565b73ffffffffffffffffffffffffffffffffffffffff8316610f1b5760405162461bcd60e51b815260206004820152602560248201527f45524332303a207472616e736665722066726f6d20746865207a65726f20616460448201527f6472657373000000000000000000000000000000000000000000000000000000606482015260840161080b565b73ffffffffffffffffffffffffffffffffffffffff8216610fa45760405162461bcd60e51b815260206004820152602360248201527f45524332303a207472616e7366657220746f20746865207a65726f206164647260448201527f6573730000000000000000000000000000000000000000000000000000000000606482015260840161080b565b73ffffffffffffffffffffffffffffffffffffffff8316600090815260208190526040902054818110156110405760405162461bcd60e51b815260206004820152602660248201527f45524332303a207472616e7366657220616d6f756e742065786365656473206260448201527f616c616e63650000000000000000000000000000000000000000000000000000606482015260840161080b565b73ffffffffffffffffffffffffffffffffffffffff848116600081815260208181526040808320878703905593871680835291849020805487019055925185815290927fddf252ad1be2c89b69c2b068fc378daa952ba7f163c4a11628f55a4df523b3ef910160405180910390a3610698565b73ffffffffffffffffffffffffffffffffffffffff821661113c5760405162461bcd60e51b815260206004820152602160248201527f45524332303a206275726e2066726f6d20746865207a65726f2061646472657360448201527f7300000000000000000000000000000000000000000000000000000000000000606482015260840161080b565b73ffffffffffffffffffffffffffffffffffffffff8216600090815260208190526040902054818110156111d85760405162461bcd60e51b815260206004820152602260248201527f45524332303a206275726e20616d6f756e7420657863656564732062616c616e60448201527f6365000000000000000000000000000000000000000000000000000000000000606482015260840161080b565b73ffffffffffffffffffffffffffffffffffffffff83166000818152602081815260408083208686039055600280548790039055518581529192917fddf252ad1be2c89b69c2b068fc378daa952ba7f163c4a11628f55a4df523b3ef910160405180910390a3505050565b600680547fffffffffffffffffffffffff00000000000000000000000000000000000000001673ffffffffffffffffffffffffffffffffffffffff83169081179091556040517fcedf55f14e39eab9ea6df1b72eeb9a4ce7f42a669be00a2d94fc9eaccbe0637390600090a250565b600060208083528351808285015260005b818110156112df578581018301518582016040015282016112c3565b5060006040828601015260407fffffffffffffffffffffffffffffffffffffffffffffffffffffffffffffffe0601f8301168501019250505092915050565b803573ffffffffffffffffffffffffffffffffffffffff8116811461134257600080fd5b919050565b6000806040838503121561135a57600080fd5b6113638361131e565b946020939093013593505050565b80151581146106af57600080fd5b6000806040838503121561139257600080fd5b61139b8361131e565b915060208301356113ab81611371565b809150509250929050565b6000806000606084860312156113cb57600080fd5b6113d48461131e565b92506113e26020850161131e565b9150604084013590509250925092565b60006020828403121561140457600080fd5b5035919050565b60006020828403121561141d57600080fd5b6114268261131e565b9392505050565b6000806040838503121561144057600080fd5b6114498361131e565b91506114576020840161131e565b90509250929050565b60006020828403121561147257600080fd5b813561142681611371565b600181811c9082168061149157607f821691505b6020821081036114ca577f4e487b7100000000000000000000000000000000000000000000000000000000600052602260045260246000fd5b50919050565b6000602082840312156114e257600080fd5b815161142681611371565b808201808211156105d2577f4e487b7100000000000000000000000000000000000000000000000000000000600052601160045260246000fdfea2646970667358221220c47c935081f69c191663c1576a3981142596cb5cee0e71be1172aa419af8fc3b64736f6c63430008100033a2646970667358221220e25072836bd0efab7fbd25f747c33bdf104c7cac3a5b024628aadcdb10d4a78864736f6c63430008100033",
  "devdoc": {
    "kind": "dev",
    "methods": {
      "isValidCounterparty(address,bool)": {
        "returns": {
          "_0": "true if the counterparty is compliant according to the current verification registry, taking into account the KYC requirement."
        }
      },
      "owner()": {
        "details": "Returns the address of the current owner."
      },
      "renounceOwnership()": {
        "details": "Leaves the contract without owner. It will not be possible to call `onlyOwner` functions anymore. Can only be called by the current owner. NOTE: Renouncing ownership will leave the contract without an owner, thereby removing any functionality that is only available to the owner."
      },
      "transferOwnership(address)": {
        "details": "Transfers ownership of the contract to a new account (`newOwner`). Can only be called by the current owner."
      }
    },
    "version": 1
  },
  "userdoc": {
    "kind": "user",
    "methods": {},
    "version": 1
  },
  "storageLayout": {
    "storage": [
      {
        "astId": 1149,
        "contract": "contracts/CollateralizedBasketTokenDeployer.sol:CollateralizedBasketTokenDeployer",
        "label": "_owner",
        "offset": 0,
        "slot": "0",
        "type": "t_address"
      },
      {
        "astId": 12280,
        "contract": "contracts/CollateralizedBasketTokenDeployer.sol:CollateralizedBasketTokenDeployer",
        "label": "verificationRegistry",
        "offset": 0,
        "slot": "1",
        "type": "t_address"
      }
    ],
    "types": {
      "t_address": {
        "encoding": "inplace",
        "label": "address",
        "numberOfBytes": "20"
      }
    }
  }
}