{
  "address": "0x0C4fdD1e34603AF7E1e9Ce49a2a798719bDD9392",
  "abi": [
    {
      "inputs": [
        {
          "internalType": "string",
          "name": "uri",
          "type": "string"
        },
        {
          "internalType": "address",
          "name": "_verificationRegistry",
          "type": "address"
        }
      ],
      "stateMutability": "nonpayable",
      "type": "constructor"
    },
    {
      "inputs": [
        {
          "internalType": "address",
          "name": "subject",
          "type": "address"
        }
      ],
      "name": "Blacklisted",
      "type": "error"
    },
    {
      "inputs": [],
      "name": "InvalidVerificationRegistry",
      "type": "error"
    },
    {
      "inputs": [
        {
          "internalType": "uint256",
          "name": "batchId",
          "type": "uint256"
        },
        {
          "internalType": "address",
          "name": "subject",
          "type": "address"
        }
      ],
      "name": "NotRegulatoryCompliant",
      "type": "error"
    },
    {
      "anonymous": false,
      "inputs": [
        {
          "indexed": true,
          "internalType": "address",
          "name": "account",
          "type": "address"
        },
        {
          "indexed": true,
          "internalType": "address",
          "name": "operator",
          "type": "address"
        },
        {
          "indexed": false,
          "internalType": "bool",
          "name": "approved",
          "type": "bool"
        }
      ],
      "name": "ApprovalForAll",
      "type": "event"
    },
    {
      "anonymous": false,
      "inputs": [
        {
          "indexed": true,
          "internalType": "uint256",
          "name": "batchId",
          "type": "uint256"
        },
        {
          "indexed": true,
          "internalType": "bool",
          "name": "kycRequired",
          "type": "bool"
        }
      ],
      "name": "KYCRequiredSet",
      "type": "event"
    },
    {
      "anonymous": false,
      "inputs": [
        {
          "indexed": true,
          "internalType": "address",
          "name": "previousOwner",
          "type": "address"
        },
        {
          "indexed": true,
          "internalType": "address",
          "name": "newOwner",
          "type": "address"
        }
      ],
      "name": "OwnershipTransferred",
      "type": "event"
    },
    {
      "anonymous": false,
      "inputs": [
        {
          "indexed": true,
          "internalType": "address",
          "name": "operator",
          "type": "address"
        },
        {
          "indexed": true,
          "internalType": "address",
          "name": "from",
          "type": "address"
        },
        {
          "indexed": true,
          "internalType": "address",
          "name": "to",
          "type": "address"
        },
        {
          "indexed": false,
          "internalType": "uint256[]",
          "name": "ids",
          "type": "uint256[]"
        },
        {
          "indexed": false,
          "internalType": "uint256[]",
          "name": "values",
          "type": "uint256[]"
        }
      ],
      "name": "TransferBatch",
      "type": "event"
    },
    {
      "anonymous": false,
      "inputs": [
        {
          "indexed": true,
          "internalType": "address",
          "name": "operator",
          "type": "address"
        },
        {
          "indexed": true,
          "internalType": "address",
          "name": "from",
          "type": "address"
        },
        {
          "indexed": true,
          "internalType": "address",
          "name": "to",
          "type": "address"
        },
        {
          "indexed": false,
          "internalType": "uint256",
          "name": "id",
          "type": "uint256"
        },
        {
          "indexed": false,
          "internalType": "uint256",
          "name": "value",
          "type": "uint256"
        }
      ],
      "name": "TransferSingle",
      "type": "event"
    },
    {
      "anonymous": false,
      "inputs": [
        {
          "indexed": false,
          "internalType": "string",
          "name": "value",
          "type": "string"
        },
        {
          "indexed": true,
          "internalType": "uint256",
          "name": "id",
          "type": "uint256"
        }
      ],
      "name": "URI",
      "type": "event"
    },
    {
      "anonymous": false,
      "inputs": [
        {
          "indexed": true,
          "internalType": "address",
          "name": "verificationRegistry",
          "type": "address"
        }
      ],
      "name": "VerificationRegistryUpdated",
      "type": "event"
    },
    {
      "inputs": [
        {
          "internalType": "address",
          "name": "account",
          "type": "address"
        },
        {
          "internalType": "uint256",
          "name": "id",
          "type": "uint256"
        }
      ],
      "name": "balanceOf",
      "outputs": [
        {
          "internalType": "uint256",
          "name": "",
          "type": "uint256"
        }
      ],
      "stateMutability": "view",
      "type": "function"
    },
    {
      "inputs": [
        {
          "internalType": "address[]",
          "name": "accounts",
          "type": "address[]"
        },
        {
          "internalType": "uint256[]",
          "name": "ids",
          "type": "uint256[]"
        }
      ],
      "name": "balanceOfBatch",
      "outputs": [
        {
          "internalType": "uint256[]",
          "name": "",
          "type": "uint256[]"
        }
      ],
      "stateMutability": "view",
      "type": "function"
    },
    {
      "inputs": [
        {
          "internalType": "uint256",
          "name": "id",
          "type": "uint256"
        },
        {
          "internalType": "uint256",
          "name": "amount",
          "type": "uint256"
        }
      ],
      "name": "burn",
      "outputs": [],
      "stateMutability": "nonpayable",
      "type": "function"
    },
    {
      "inputs": [
        {
          "internalType": "uint256[]",
          "name": "ids",
          "type": "uint256[]"
        },
        {
          "internalType": "uint256[]",
          "name": "amounts",
          "type": "uint256[]"
        }
      ],
      "name": "burnBatch",
      "outputs": [],
      "stateMutability": "nonpayable",
      "type": "function"
    },
    {
      "inputs": [],
      "name": "getVerificationRegistry",
      "outputs": [
        {
          "internalType": "address",
          "name": "",
          "type": "address"
        }
      ],
      "stateMutability": "view",
      "type": "function"
    },
    {
      "inputs": [
        {
          "internalType": "address",
          "name": "account",
          "type": "address"
        },
        {
          "internalType": "address",
          "name": "operator",
          "type": "address"
        }
      ],
      "name": "isApprovedForAll",
      "outputs": [
        {
          "internalType": "bool",
          "name": "",
          "type": "bool"
        }
      ],
      "stateMutability": "view",
      "type": "function"
    },
    {
      "inputs": [
        {
          "internalType": "uint256",
          "name": "batchId",
          "type": "uint256"
        }
      ],
      "name": "isKYCRequired",
      "outputs": [
        {
          "internalType": "bool",
          "name": "",
          "type": "bool"
        }
      ],
      "stateMutability": "view",
      "type": "function"
    },
    {
      "inputs": [
        {
          "internalType": "address",
          "name": "counterparty",
          "type": "address"
        },
        {
          "internalType": "bool",
          "name": "_kycRequired",
          "type": "bool"
        }
      ],
      "name": "isValidCounterparty",
      "outputs": [
        {
          "internalType": "bool",
          "name": "",
          "type": "bool"
        }
      ],
      "stateMutability": "view",
      "type": "function"
    },
    {
      "inputs": [
        {
          "internalType": "address",
          "name": "to",
          "type": "address"
        },
        {
          "internalType": "uint256",
          "name": "id",
          "type": "uint256"
        },
        {
          "internalType": "uint256",
          "name": "amount",
          "type": "uint256"
        },
        {
          "internalType": "bytes",
          "name": "data",
          "type": "bytes"
        }
      ],
      "name": "mint",
      "outputs": [],
      "stateMutability": "nonpayable",
      "type": "function"
    },
    {
      "inputs": [],
      "name": "owner",
      "outputs": [
        {
          "internalType": "address",
          "name": "",
          "type": "address"
        }
      ],
      "stateMutability": "view",
      "type": "function"
    },
    {
      "inputs": [],
      "name": "renounceOwnership",
      "outputs": [],
      "stateMutability": "nonpayable",
      "type": "function"
    },
    {
      "inputs": [
        {
          "internalType": "address",
          "name": "from",
          "type": "address"
        },
        {
          "internalType": "address",
          "name": "to",
          "type": "address"
        },
        {
          "internalType": "uint256[]",
          "name": "ids",
          "type": "uint256[]"
        },
        {
          "internalType": "uint256[]",
          "name": "amounts",
          "type": "uint256[]"
        },
        {
          "internalType": "bytes",
          "name": "data",
          "type": "bytes"
        }
      ],
      "name": "safeBatchTransferFrom",
      "outputs": [],
      "stateMutability": "nonpayable",
      "type": "function"
    },
    {
      "inputs": [
        {
          "internalType": "address",
          "name": "from",
          "type": "address"
        },
        {
          "internalType": "address",
          "name": "to",
          "type": "address"
        },
        {
          "internalType": "uint256",
          "name": "id",
          "type": "uint256"
        },
        {
          "internalType": "uint256",
          "name": "amount",
          "type": "uint256"
        },
        {
          "internalType": "bytes",
          "name": "data",
          "type": "bytes"
        }
      ],
      "name": "safeTransferFrom",
      "outputs": [],
      "stateMutability": "nonpayable",
      "type": "function"
    },
    {
      "inputs": [
        {
          "internalType": "address",
          "name": "operator",
          "type": "address"
        },
        {
          "internalType": "bool",
          "name": "approved",
          "type": "bool"
        }
      ],
      "name": "setApprovalForAll",
      "outputs": [],
      "stateMutability": "nonpayable",
      "type": "function"
    },
    {
      "inputs": [
        {
          "internalType": "uint256",
          "name": "batchId",
          "type": "uint256"
        },
        {
          "internalType": "bool",
          "name": "_kycRequired",
          "type": "bool"
        }
      ],
      "name": "setKYCRequired",
      "outputs": [],
      "stateMutability": "nonpayable",
      "type": "function"
    },
    {
      "inputs": [
        {
          "internalType": "address",
          "name": "_verificationRegistry",
          "type": "address"
        }
      ],
      "name": "setVerificationRegistry",
      "outputs": [],
      "stateMutability": "nonpayable",
      "type": "function"
    },
    {
      "inputs": [
        {
          "internalType": "bytes4",
          "name": "interfaceId",
          "type": "bytes4"
        }
      ],
      "name": "supportsInterface",
      "outputs": [
        {
          "internalType": "bool",
          "name": "",
          "type": "bool"
        }
      ],
      "stateMutability": "view",
      "type": "function"
    },
    {
      "inputs": [
        {
          "internalType": "address",
          "name": "newOwner",
          "type": "address"
        }
      ],
      "name": "transferOwnership",
      "outputs": [],
      "stateMutability": "nonpayable",
      "type": "function"
    },
    {
      "inputs": [
        {
          "internalType": "uint256",
          "name": "",
          "type": "uint256"
        }
      ],
      "name": "uri",
      "outputs": [
        {
          "internalType": "string",
          "name": "",
          "type": "string"
        }
      ],
      "stateMutability": "view",
      "type": "function"
    }
  ],
  "transactionHash": "0x0655c98f42c1b4692d88c9c4b2136c9c085f7c2055bf75e5eaa43441d6477b64",
  "args": [
    "https://solid.world/FCBT/{id}.json",
    "0xDb823fb6bd6EaF6d08373B3b8b7884B2761E987B"
  ],
  "numDeployments": 1,
  "solcInputHash": "adf8dc5a593b2d373e02ec07bbd88a19",
  "bytecode": "0x60806040523480156200001157600080fd5b5060405162002ac638038062002ac683398101604081905262000034916200016c565b808262000041816200008b565b506200004d336200009d565b806001600160a01b038116620000765760405163161a968360e01b815260040160405180910390fd5b6200008182620000ef565b50505050620003af565b6002620000998282620002e3565b5050565b600380546001600160a01b038381166001600160a01b0319831681179093556040519116919082907f8be0079c531659141344cd1fd0a4f28419497f9722a3daafe3b4186f6b6457e090600090a35050565b600480546001600160a01b0319166001600160a01b0383169081179091556040517fcedf55f14e39eab9ea6df1b72eeb9a4ce7f42a669be00a2d94fc9eaccbe0637390600090a250565b634e487b7160e01b600052604160045260246000fd5b80516001600160a01b03811681146200016757600080fd5b919050565b600080604083850312156200018057600080fd5b82516001600160401b03808211156200019857600080fd5b818501915085601f830112620001ad57600080fd5b815181811115620001c257620001c262000139565b604051601f8201601f19908116603f01168101908382118183101715620001ed57620001ed62000139565b816040528281526020935088848487010111156200020a57600080fd5b600091505b828210156200022e57848201840151818301850152908301906200020f565b6000848483010152809650505050620002498186016200014f565b925050509250929050565b600181811c908216806200026957607f821691505b6020821081036200028a57634e487b7160e01b600052602260045260246000fd5b50919050565b601f821115620002de57600081815260208120601f850160051c81016020861015620002b95750805b601f850160051c820191505b81811015620002da57828155600101620002c5565b5050505b505050565b81516001600160401b03811115620002ff57620002ff62000139565b620003178162000310845462000254565b8462000290565b602080601f8311600181146200034f5760008415620003365750858301515b600019600386901b1c1916600185901b178555620002da565b600085815260208120601f198616915b8281101562000380578886015182559484019460019091019084016200035f565b50858210156200039f5787850151600019600388901b60f8161c191681555b5050505050600190811b01905550565b61270780620003bf6000396000f3fe608060405234801561001057600080fd5b50600436106101505760003560e01c8063731133e9116100cd578063b390c0ab11610081578063e985e9c511610066578063e985e9c5146102d9578063f242432a14610315578063f2fde38b1461032857600080fd5b8063b390c0ab146102a3578063b7a35f1e146102b657600080fd5b806387664f91116100b257806387664f911461026c5780638da5cb5b1461027f578063a22cb4651461029057600080fd5b8063731133e91461024657806383ca4b6f1461025957600080fd5b80631ab71eaa116101245780634e1273f4116101095780634e1273f41461020b5780636c1a72d61461022b578063715018a61461023e57600080fd5b80631ab71eaa146101e35780632eb2c2d6146101f657600080fd5b8062fdd58e1461015557806301ffc9a71461017b5780630c96a12c1461019e5780630e89341c146101c3575b600080fd5b610168610163366004611dab565b61033b565b6040519081526020015b60405180910390f35b61018e610189366004611e03565b6103e7565b6040519015158152602001610172565b6004546001600160a01b03165b6040516001600160a01b039091168152602001610172565b6101d66101d1366004611e27565b6104ca565b6040516101729190611ea4565b61018e6101f1366004611ec5565b61055e565b61020961020436600461209d565b61068a565b005b61021e610219366004612147565b610754565b604051610172919061224d565b610209610239366004612260565b610892565b610209610904565b610209610254366004612285565b610918565b6102096102673660046122e6565b610940565b61020961027a366004612333565b610987565b6003546001600160a01b03166101ab565b61020961029e366004611ec5565b61099b565b6102096102b136600461234e565b610aa3565b61018e6102c4366004611e27565b60009081526005602052604090205460ff1690565b61018e6102e7366004612370565b6001600160a01b03918216600090815260016020908152604080832093909416825291909152205460ff1690565b6102096103233660046123a3565b610aba565b610209610336366004612333565b610aeb565b60006001600160a01b0383166103be5760405162461bcd60e51b815260206004820152602a60248201527f455243313135353a2061646472657373207a65726f206973206e6f742061207660448201527f616c6964206f776e65720000000000000000000000000000000000000000000060648201526084015b60405180910390fd5b506000818152602081815260408083206001600160a01b03861684529091529020545b92915050565b60007fffffffff0000000000000000000000000000000000000000000000000000000082167fd9b67a2600000000000000000000000000000000000000000000000000000000148061047a57507fffffffff0000000000000000000000000000000000000000000000000000000082167f0e89341c00000000000000000000000000000000000000000000000000000000145b806103e157507f01ffc9a7000000000000000000000000000000000000000000000000000000007fffffffff000000000000000000000000000000000000000000000000000000008316146103e1565b6060600280546104d990612408565b80601f016020809104026020016040519081016040528092919081815260200182805461050590612408565b80156105525780601f1061052757610100808354040283529160200191610552565b820191906000526020600020905b81548152906001019060200180831161053557829003601f168201915b50505050509050919050565b6004546000906001600160a01b031682156105fe576040517f825115770000000000000000000000000000000000000000000000000000000081526001600160a01b038581166004830152821690638251157790602401602060405180830381865afa1580156105d2573d6000803e3d6000fd5b505050506040513d601f19601f820116820180604052508101906105f6919061245b565b9150506103e1565b6040517ffe575a870000000000000000000000000000000000000000000000000000000081526001600160a01b03858116600483015282169063fe575a8790602401602060405180830381865afa15801561065d573d6000803e3d6000fd5b505050506040513d601f19601f82011682018060405250810190610681919061245b565b15949350505050565b823360005b82518110156106cd576106bb8382815181106106ad576106ad612478565b602002602001015183610b78565b806106c5816124d6565b91505061068f565b50848760005b8251811015610703576106f18382815181106106ad576106ad612478565b806106fb816124d6565b9150506106d3565b50868860005b8251811015610739576107278382815181106106ad576106ad612478565b80610731816124d6565b915050610709565b506107478b8b8b8b8b610c09565b5050505050505050505050565b606081518351146107cd5760405162461bcd60e51b815260206004820152602960248201527f455243313135353a206163636f756e747320616e6420696473206c656e67746860448201527f206d69736d61746368000000000000000000000000000000000000000000000060648201526084016103b5565b6000835167ffffffffffffffff8111156107e9576107e9611efc565b604051908082528060200260200182016040528015610812578160200160208202803683370190505b50905060005b845181101561088a5761085d85828151811061083657610836612478565b602002602001015185838151811061085057610850612478565b602002602001015161033b565b82828151811061086f5761086f612478565b6020908102919091010152610883816124d6565b9050610818565b509392505050565b61089a610cab565b60008281526005602052604080822080547fffffffffffffffffffffffffffffffffffffffffffffffffffffffffffffff00168415159081179091559051909184917f27e4ea411cfb4d0facf2ecbb6211332741c7804097a01dc7474a4b5f142ff1dd9190a35050565b61090c610cab565b6109166000610d05565b565b610920610cab565b828461092c8282610b78565b61093886868686610d6f565b505050505050565b813360005b8251811015610975576109638382815181106106ad576106ad612478565b8061096d816124d6565b915050610945565b50610981338585610e9f565b50505050565b61098f610cab565b6109988161112a565b50565b3360006109b06003546001600160a01b031690565b6001600160a01b0316826001600160a01b0316141580156109d857506109d6828261055e565b155b15610a1a576040517fffa4e6180000000000000000000000000000000000000000000000000000000081526001600160a01b03831660048201526024016103b5565b836000610a2f6003546001600160a01b031690565b6001600160a01b0316826001600160a01b031614158015610a575750610a55828261055e565b155b15610a99576040517fffa4e6180000000000000000000000000000000000000000000000000000000081526001600160a01b03831660048201526024016103b5565b6109388686611174565b8133610aaf8282610b78565b61098133858561117f565b8233610ac68282610b78565b8487610ad28282610b78565b8688610ade8282610b78565b6107478b8b8b8b8b61132e565b610af3610cab565b6001600160a01b038116610b6f5760405162461bcd60e51b815260206004820152602660248201527f4f776e61626c653a206e6577206f776e657220697320746865207a65726f206160448201527f646472657373000000000000000000000000000000000000000000000000000060648201526084016103b5565b61099881610d05565b6003546001600160a01b03166001600160a01b0316816001600160a01b031603610ba0575050565b600082815260056020526040902054610bbd90829060ff1661055e565b610c05576040517f7b9100cd000000000000000000000000000000000000000000000000000000008152600481018390526001600160a01b03821660248201526044016103b5565b5050565b6001600160a01b038516331480610c255750610c2585336102e7565b610c975760405162461bcd60e51b815260206004820152602e60248201527f455243313135353a2063616c6c6572206973206e6f7420746f6b656e206f776e60448201527f6572206f7220617070726f76656400000000000000000000000000000000000060648201526084016103b5565b610ca485858585856113c9565b5050505050565b6003546001600160a01b031633146109165760405162461bcd60e51b815260206004820181905260248201527f4f776e61626c653a2063616c6c6572206973206e6f7420746865206f776e657260448201526064016103b5565b600380546001600160a01b038381167fffffffffffffffffffffffff0000000000000000000000000000000000000000831681179093556040519116919082907f8be0079c531659141344cd1fd0a4f28419497f9722a3daafe3b4186f6b6457e090600090a35050565b6001600160a01b038416610deb5760405162461bcd60e51b815260206004820152602160248201527f455243313135353a206d696e7420746f20746865207a65726f2061646472657360448201527f730000000000000000000000000000000000000000000000000000000000000060648201526084016103b5565b336000610df78561165f565b90506000610e048561165f565b90506000868152602081815260408083206001600160a01b038b16845290915281208054879290610e3690849061250e565b909155505060408051878152602081018790526001600160a01b03808a1692600092918716917fc3d58168c5ae7397731d063d5bbf3d657854427343f4c083240f7aacaa2d0f62910160405180910390a4610e96836000898989896116aa565b50505050505050565b6001600160a01b038316610f1b5760405162461bcd60e51b815260206004820152602360248201527f455243313135353a206275726e2066726f6d20746865207a65726f206164647260448201527f657373000000000000000000000000000000000000000000000000000000000060648201526084016103b5565b8051825114610f925760405162461bcd60e51b815260206004820152602860248201527f455243313135353a2069647320616e6420616d6f756e7473206c656e6774682060448201527f6d69736d6174636800000000000000000000000000000000000000000000000060648201526084016103b5565b604080516020810190915260009081905233905b83518110156110bd576000848281518110610fc357610fc3612478565b602002602001015190506000848381518110610fe157610fe1612478565b602090810291909101810151600084815280835260408082206001600160a01b038c1683529093529190912054909150818110156110865760405162461bcd60e51b8152602060048201526024808201527f455243313135353a206275726e20616d6f756e7420657863656564732062616c60448201527f616e63650000000000000000000000000000000000000000000000000000000060648201526084016103b5565b6000928352602083815260408085206001600160a01b038b16865290915290922091039055806110b5816124d6565b915050610fa6565b5060006001600160a01b0316846001600160a01b0316826001600160a01b03167f4a39dc06d4c0dbc64b70af90fd698a233a518aa5d07e595d983b8c0526c8f7fb868660405161110e929190612521565b60405180910390a4604080516020810190915260009052610981565b806001600160a01b03811661116b576040517f161a968300000000000000000000000000000000000000000000000000000000815260040160405180910390fd5b610c05826118cc565b610c0533838361192e565b6001600160a01b0383166111fb5760405162461bcd60e51b815260206004820152602360248201527f455243313135353a206275726e2066726f6d20746865207a65726f206164647260448201527f657373000000000000000000000000000000000000000000000000000000000060648201526084016103b5565b3360006112078461165f565b905060006112148461165f565b60408051602080820183526000918290528882528181528282206001600160a01b038b16835290522054909150848110156112b65760405162461bcd60e51b8152602060048201526024808201527f455243313135353a206275726e20616d6f756e7420657863656564732062616c60448201527f616e63650000000000000000000000000000000000000000000000000000000060648201526084016103b5565b6000868152602081815260408083206001600160a01b038b81168086529184528285208a8703905582518b81529384018a90529092908816917fc3d58168c5ae7397731d063d5bbf3d657854427343f4c083240f7aacaa2d0f62910160405180910390a4604080516020810190915260009052610e96565b6001600160a01b03851633148061134a575061134a85336102e7565b6113bc5760405162461bcd60e51b815260206004820152602e60248201527f455243313135353a2063616c6c6572206973206e6f7420746f6b656e206f776e60448201527f6572206f7220617070726f76656400000000000000000000000000000000000060648201526084016103b5565b610ca48585858585611a40565b81518351146114405760405162461bcd60e51b815260206004820152602860248201527f455243313135353a2069647320616e6420616d6f756e7473206c656e6774682060448201527f6d69736d6174636800000000000000000000000000000000000000000000000060648201526084016103b5565b6001600160a01b0384166114bc5760405162461bcd60e51b815260206004820152602560248201527f455243313135353a207472616e7366657220746f20746865207a65726f20616460448201527f647265737300000000000000000000000000000000000000000000000000000060648201526084016103b5565b3360005b84518110156115f95760008582815181106114dd576114dd612478565b6020026020010151905060008583815181106114fb576114fb612478565b602090810291909101810151600084815280835260408082206001600160a01b038e1683529093529190912054909150818110156115a15760405162461bcd60e51b815260206004820152602a60248201527f455243313135353a20696e73756666696369656e742062616c616e636520666f60448201527f72207472616e736665720000000000000000000000000000000000000000000060648201526084016103b5565b6000838152602081815260408083206001600160a01b038e8116855292528083208585039055908b168252812080548492906115de90849061250e565b92505081905550505050806115f2906124d6565b90506114c0565b50846001600160a01b0316866001600160a01b0316826001600160a01b03167f4a39dc06d4c0dbc64b70af90fd698a233a518aa5d07e595d983b8c0526c8f7fb8787604051611649929190612521565b60405180910390a4610938818787878787611c16565b6040805160018082528183019092526060916000919060208083019080368337019050509050828160008151811061169957611699612478565b602090810291909101015292915050565b6001600160a01b0384163b15610938576040517ff23a6e610000000000000000000000000000000000000000000000000000000081526001600160a01b0385169063f23a6e6190611707908990899088908890889060040161254f565b6020604051808303816000875af1925050508015611760575060408051601f3d9081017fffffffffffffffffffffffffffffffffffffffffffffffffffffffffffffffe016820190925261175d91810190612592565b60015b6118155761176c6125af565b806308c379a0036117a557506117806125cb565b8061178b57506117a7565b8060405162461bcd60e51b81526004016103b59190611ea4565b505b60405162461bcd60e51b815260206004820152603460248201527f455243313135353a207472616e7366657220746f206e6f6e2d4552433131353560448201527f526563656976657220696d706c656d656e74657200000000000000000000000060648201526084016103b5565b7fffffffff0000000000000000000000000000000000000000000000000000000081167ff23a6e610000000000000000000000000000000000000000000000000000000014610e965760405162461bcd60e51b815260206004820152602860248201527f455243313135353a204552433131353552656365697665722072656a6563746560448201527f6420746f6b656e7300000000000000000000000000000000000000000000000060648201526084016103b5565b600480547fffffffffffffffffffffffff0000000000000000000000000000000000000000166001600160a01b0383169081179091556040517fcedf55f14e39eab9ea6df1b72eeb9a4ce7f42a669be00a2d94fc9eaccbe0637390600090a250565b816001600160a01b0316836001600160a01b0316036119b55760405162461bcd60e51b815260206004820152602960248201527f455243313135353a2073657474696e6720617070726f76616c2073746174757360448201527f20666f722073656c66000000000000000000000000000000000000000000000060648201526084016103b5565b6001600160a01b0383811660008181526001602090815260408083209487168084529482529182902080547fffffffffffffffffffffffffffffffffffffffffffffffffffffffffffffff001686151590811790915591519182527f17307eab39ab6107e8899845ad3d59bd9653f200f220920489ca2b5937696c31910160405180910390a3505050565b6001600160a01b038416611abc5760405162461bcd60e51b815260206004820152602560248201527f455243313135353a207472616e7366657220746f20746865207a65726f20616460448201527f647265737300000000000000000000000000000000000000000000000000000060648201526084016103b5565b336000611ac88561165f565b90506000611ad58561165f565b90506000868152602081815260408083206001600160a01b038c16845290915290205485811015611b6e5760405162461bcd60e51b815260206004820152602a60248201527f455243313135353a20696e73756666696369656e742062616c616e636520666f60448201527f72207472616e736665720000000000000000000000000000000000000000000060648201526084016103b5565b6000878152602081815260408083206001600160a01b038d8116855292528083208985039055908a16825281208054889290611bab90849061250e565b909155505060408051888152602081018890526001600160a01b03808b16928c821692918816917fc3d58168c5ae7397731d063d5bbf3d657854427343f4c083240f7aacaa2d0f62910160405180910390a4611c0b848a8a8a8a8a6116aa565b505050505050505050565b6001600160a01b0384163b15610938576040517fbc197c810000000000000000000000000000000000000000000000000000000081526001600160a01b0385169063bc197c8190611c739089908990889088908890600401612673565b6020604051808303816000875af1925050508015611ccc575060408051601f3d9081017fffffffffffffffffffffffffffffffffffffffffffffffffffffffffffffffe0168201909252611cc991810190612592565b60015b611cd85761176c6125af565b7fffffffff0000000000000000000000000000000000000000000000000000000081167fbc197c810000000000000000000000000000000000000000000000000000000014610e965760405162461bcd60e51b815260206004820152602860248201527f455243313135353a204552433131353552656365697665722072656a6563746560448201527f6420746f6b656e7300000000000000000000000000000000000000000000000060648201526084016103b5565b80356001600160a01b0381168114611da657600080fd5b919050565b60008060408385031215611dbe57600080fd5b611dc783611d8f565b946020939093013593505050565b7fffffffff000000000000000000000000000000000000000000000000000000008116811461099857600080fd5b600060208284031215611e1557600080fd5b8135611e2081611dd5565b9392505050565b600060208284031215611e3957600080fd5b5035919050565b6000815180845260005b81811015611e6657602081850181015186830182015201611e4a565b5060006020828601015260207fffffffffffffffffffffffffffffffffffffffffffffffffffffffffffffffe0601f83011685010191505092915050565b602081526000611e206020830184611e40565b801515811461099857600080fd5b60008060408385031215611ed857600080fd5b611ee183611d8f565b91506020830135611ef181611eb7565b809150509250929050565b7f4e487b7100000000000000000000000000000000000000000000000000000000600052604160045260246000fd5b7fffffffffffffffffffffffffffffffffffffffffffffffffffffffffffffffe0601f830116810181811067ffffffffffffffff82111715611f6f57611f6f611efc565b6040525050565b600067ffffffffffffffff821115611f9057611f90611efc565b5060051b60200190565b600082601f830112611fab57600080fd5b81356020611fb882611f76565b604051611fc58282611f2b565b83815260059390931b8501820192828101915086841115611fe557600080fd5b8286015b848110156120005780358352918301918301611fe9565b509695505050505050565b600082601f83011261201c57600080fd5b813567ffffffffffffffff81111561203657612036611efc565b60405161206b60207fffffffffffffffffffffffffffffffffffffffffffffffffffffffffffffffe0601f8501160182611f2b565b81815284602083860101111561208057600080fd5b816020850160208301376000918101602001919091529392505050565b600080600080600060a086880312156120b557600080fd5b6120be86611d8f565b94506120cc60208701611d8f565b9350604086013567ffffffffffffffff808211156120e957600080fd5b6120f589838a01611f9a565b9450606088013591508082111561210b57600080fd5b61211789838a01611f9a565b9350608088013591508082111561212d57600080fd5b5061213a8882890161200b565b9150509295509295909350565b6000806040838503121561215a57600080fd5b823567ffffffffffffffff8082111561217257600080fd5b818501915085601f83011261218657600080fd5b8135602061219382611f76565b6040516121a08282611f2b565b83815260059390931b85018201928281019150898411156121c057600080fd5b948201945b838610156121e5576121d686611d8f565b825294820194908201906121c5565b965050860135925050808211156121fb57600080fd5b5061220885828601611f9a565b9150509250929050565b600081518084526020808501945080840160005b8381101561224257815187529582019590820190600101612226565b509495945050505050565b602081526000611e206020830184612212565b6000806040838503121561227357600080fd5b823591506020830135611ef181611eb7565b6000806000806080858703121561229b57600080fd5b6122a485611d8f565b93506020850135925060408501359150606085013567ffffffffffffffff8111156122ce57600080fd5b6122da8782880161200b565b91505092959194509250565b600080604083850312156122f957600080fd5b823567ffffffffffffffff8082111561231157600080fd5b61231d86838701611f9a565b935060208501359150808211156121fb57600080fd5b60006020828403121561234557600080fd5b611e2082611d8f565b6000806040838503121561236157600080fd5b50508035926020909101359150565b6000806040838503121561238357600080fd5b61238c83611d8f565b915061239a60208401611d8f565b90509250929050565b600080600080600060a086880312156123bb57600080fd5b6123c486611d8f565b94506123d260208701611d8f565b93506040860135925060608601359150608086013567ffffffffffffffff8111156123fc57600080fd5b61213a8882890161200b565b600181811c9082168061241c57607f821691505b602082108103612455577f4e487b7100000000000000000000000000000000000000000000000000000000600052602260045260246000fd5b50919050565b60006020828403121561246d57600080fd5b8151611e2081611eb7565b7f4e487b7100000000000000000000000000000000000000000000000000000000600052603260045260246000fd5b7f4e487b7100000000000000000000000000000000000000000000000000000000600052601160045260246000fd5b60007fffffffffffffffffffffffffffffffffffffffffffffffffffffffffffffffff8203612507576125076124a7565b5060010190565b808201808211156103e1576103e16124a7565b6040815260006125346040830185612212565b82810360208401526125468185612212565b95945050505050565b60006001600160a01b03808816835280871660208401525084604083015283606083015260a0608083015261258760a0830184611e40565b979650505050505050565b6000602082840312156125a457600080fd5b8151611e2081611dd5565b600060033d11156125c85760046000803e5060005160e01c5b90565b600060443d10156125d95790565b6040517ffffffffffffffffffffffffffffffffffffffffffffffffffffffffffffffffc803d016004833e81513d67ffffffffffffffff816024840111818411171561262757505050505090565b828501915081518181111561263f5750505050505090565b843d87010160208285010111156126595750505050505090565b61266860208286010187611f2b565b509095945050505050565b60006001600160a01b03808816835280871660208401525060a0604083015261269f60a0830186612212565b82810360608401526126b18186612212565b905082810360808401526126c58185611e40565b9897505050505050505056fea264697066735822122096224e39f9599dfc03fc4c7edddbde108a1ec099768e183ffae53606d62658ac64736f6c63430008100033",
  "devdoc": {
    "author": "Solid World DAO",
    "kind": "dev",
    "methods": {
      "balanceOf(address,uint256)": {
        "details": "See {IERC1155-balanceOf}. Requirements: - `account` cannot be the zero address."
      },
      "balanceOfBatch(address[],uint256[])": {
        "details": "See {IERC1155-balanceOfBatch}. Requirements: - `accounts` and `ids` must have the same length."
      },
      "isApprovedForAll(address,address)": {
        "details": "See {IERC1155-isApprovedForAll}."
      },
      "isValidCounterparty(address,bool)": {
        "returns": {
          "_0": "true if the counterparty is compliant according to the current verification registry, taking into account the KYC requirement."
        }
      },
      "owner()": {
        "details": "Returns the address of the current owner."
      },
      "renounceOwnership()": {
        "details": "Leaves the contract without owner. It will not be possible to call `onlyOwner` functions anymore. Can only be called by the current owner. NOTE: Renouncing ownership will leave the contract without an owner, thereby removing any functionality that is only available to the owner."
      },
      "safeBatchTransferFrom(address,address,uint256[],uint256[],bytes)": {
        "details": "See {IERC1155-safeBatchTransferFrom}."
      },
      "safeTransferFrom(address,address,uint256,uint256,bytes)": {
        "details": "See {IERC1155-safeTransferFrom}."
      },
      "setApprovalForAll(address,bool)": {
        "details": "See {IERC1155-setApprovalForAll}."
      },
      "supportsInterface(bytes4)": {
        "details": "See {IERC165-supportsInterface}."
      },
      "transferOwnership(address)": {
        "details": "Transfers ownership of the contract to a new account (`newOwner`). Can only be called by the current owner."
      },
      "uri(uint256)": {
        "details": "See {IERC1155MetadataURI-uri}. This implementation returns the same URI for *all* token types. It relies on the token type ID substitution mechanism https://eips.ethereum.org/EIPS/eip-1155#metadata[defined in the EIP]. Clients calling this function must replace the `\\{id\\}` substring with the actual token type ID."
      }
    },
    "stateVariables": {
      "kycRequired": {
        "details": "batchId => requires KYC"
      }
    },
    "version": 1
  },
  "userdoc": {
    "kind": "user",
    "methods": {},
    "notice": "ERC-1155 for working with forward contract batch tokens",
    "version": 1
  },
  "storageLayout": {
    "storage": [
      {
        "astId": 2248,
        "contract": "contracts/ForwardContractBatchToken.sol:ForwardContractBatchToken",
        "label": "_balances",
        "offset": 0,
        "slot": "0",
        "type": "t_mapping(t_uint256,t_mapping(t_address,t_uint256))"
      },
      {
        "astId": 2254,
        "contract": "contracts/ForwardContractBatchToken.sol:ForwardContractBatchToken",
        "label": "_operatorApprovals",
        "offset": 0,
        "slot": "1",
        "type": "t_mapping(t_address,t_mapping(t_address,t_bool))"
      },
      {
        "astId": 2256,
        "contract": "contracts/ForwardContractBatchToken.sol:ForwardContractBatchToken",
        "label": "_uri",
        "offset": 0,
        "slot": "2",
        "type": "t_string_storage"
      },
      {
        "astId": 1149,
        "contract": "contracts/ForwardContractBatchToken.sol:ForwardContractBatchToken",
        "label": "_owner",
        "offset": 0,
        "slot": "3",
        "type": "t_address"
      },
      {
        "astId": 12280,
        "contract": "contracts/ForwardContractBatchToken.sol:ForwardContractBatchToken",
        "label": "verificationRegistry",
        "offset": 0,
        "slot": "4",
        "type": "t_address"
      },
      {
        "astId": 8351,
        "contract": "contracts/ForwardContractBatchToken.sol:ForwardContractBatchToken",
        "label": "kycRequired",
        "offset": 0,
        "slot": "5",
        "type": "t_mapping(t_uint256,t_bool)"
      }
    ],
    "types": {
      "t_address": {
        "encoding": "inplace",
        "label": "address",
        "numberOfBytes": "20"
      },
      "t_bool": {
        "encoding": "inplace",
        "label": "bool",
        "numberOfBytes": "1"
      },
      "t_mapping(t_address,t_bool)": {
        "encoding": "mapping",
        "key": "t_address",
        "label": "mapping(address => bool)",
        "numberOfBytes": "32",
        "value": "t_bool"
      },
      "t_mapping(t_address,t_mapping(t_address,t_bool))": {
        "encoding": "mapping",
        "key": "t_address",
        "label": "mapping(address => mapping(address => bool))",
        "numberOfBytes": "32",
        "value": "t_mapping(t_address,t_bool)"
      },
      "t_mapping(t_address,t_uint256)": {
        "encoding": "mapping",
        "key": "t_address",
        "label": "mapping(address => uint256)",
        "numberOfBytes": "32",
        "value": "t_uint256"
      },
      "t_mapping(t_uint256,t_bool)": {
        "encoding": "mapping",
        "key": "t_uint256",
        "label": "mapping(uint256 => bool)",
        "numberOfBytes": "32",
        "value": "t_bool"
      },
      "t_mapping(t_uint256,t_mapping(t_address,t_uint256))": {
        "encoding": "mapping",
        "key": "t_uint256",
        "label": "mapping(uint256 => mapping(address => uint256))",
        "numberOfBytes": "32",
        "value": "t_mapping(t_address,t_uint256)"
      },
      "t_string_storage": {
        "encoding": "bytes",
        "label": "string",
        "numberOfBytes": "32"
      },
      "t_uint256": {
        "encoding": "inplace",
        "label": "uint256",
        "numberOfBytes": "32"
      }
    }
  }
}