{
  "address": "0x70C46db6dc1719E814060e75205f94eCcFEB1731",
  "abi": [
    {
      "inputs": [
        {
          "internalType": "address",
          "name": "token0",
          "type": "address"
        },
        {
          "internalType": "address",
          "name": "token1",
          "type": "address"
        },
        {
          "internalType": "address",
          "name": "gammaVault",
          "type": "address"
        },
        {
          "internalType": "address",
          "name": "uniProxy",
          "type": "address"
        },
        {
          "internalType": "uint256",
          "name": "conversionRate",
          "type": "uint256"
        },
        {
          "internalType": "uint8",
          "name": "conversionRateDecimals",
          "type": "uint8"
        }
      ],
      "stateMutability": "nonpayable",
      "type": "constructor"
    },
    {
      "inputs": [
        {
          "internalType": "address",
          "name": "account",
          "type": "address"
        },
        {
          "internalType": "uint256",
          "name": "balance",
          "type": "uint256"
        },
        {
          "internalType": "uint256",
          "name": "withdrawAmount",
          "type": "uint256"
        }
      ],
      "name": "InsufficientLpTokenBalance",
      "type": "error"
    },
    {
      "inputs": [
        {
          "internalType": "address",
          "name": "token",
          "type": "address"
        },
        {
          "internalType": "address",
          "name": "account",
          "type": "address"
        },
        {
          "internalType": "uint256",
          "name": "balance",
          "type": "uint256"
        },
        {
          "internalType": "uint256",
          "name": "withdrawAmount",
          "type": "uint256"
        }
      ],
      "name": "InsufficientTokenBalance",
      "type": "error"
    },
    {
      "inputs": [
        {
          "internalType": "uint256",
          "name": "numerator",
          "type": "uint256"
        },
        {
          "internalType": "uint256",
          "name": "denominator",
          "type": "uint256"
        }
      ],
      "name": "InvalidFraction",
      "type": "error"
    },
    {
      "inputs": [],
      "name": "InvalidInput",
      "type": "error"
    },
    {
      "inputs": [
        {
          "internalType": "uint256",
          "name": "token0Liquidity",
          "type": "uint256"
        },
        {
          "internalType": "uint256",
          "name": "token1Liquidity",
          "type": "uint256"
        }
      ],
      "name": "NotEnoughAvailableLiquidity",
      "type": "error"
    },
    {
      "inputs": [],
      "name": "TokensMismatch",
      "type": "error"
    },
    {
      "anonymous": false,
      "inputs": [
        {
          "indexed": true,
          "internalType": "uint256",
          "name": "token0DeployedAmount",
          "type": "uint256"
        },
        {
          "indexed": true,
          "internalType": "uint256",
          "name": "token1DeployedAmount",
          "type": "uint256"
        },
        {
          "indexed": true,
          "internalType": "uint256",
          "name": "lpTokensReceived",
          "type": "uint256"
        }
      ],
      "name": "LiquidityDeployed",
      "type": "event"
    },
    {
      "anonymous": false,
      "inputs": [
        {
          "indexed": true,
          "internalType": "address",
          "name": "withdrawer",
          "type": "address"
        },
        {
          "indexed": true,
          "internalType": "uint256",
          "name": "amount",
          "type": "uint256"
        }
      ],
      "name": "LpTokenWithdrawn",
      "type": "event"
    },
    {
      "anonymous": false,
      "inputs": [
        {
          "indexed": true,
          "internalType": "address",
          "name": "token",
          "type": "address"
        },
        {
          "indexed": true,
          "internalType": "address",
          "name": "depositor",
          "type": "address"
        },
        {
          "indexed": true,
          "internalType": "uint256",
          "name": "amount",
          "type": "uint256"
        }
      ],
      "name": "TokenDeposited",
      "type": "event"
    },
    {
      "anonymous": false,
      "inputs": [
        {
          "indexed": true,
          "internalType": "address",
          "name": "token",
          "type": "address"
        },
        {
          "indexed": true,
          "internalType": "address",
          "name": "withdrawer",
          "type": "address"
        },
        {
          "indexed": true,
          "internalType": "uint256",
          "name": "amount",
          "type": "uint256"
        }
      ],
      "name": "TokenWithdrawn",
      "type": "event"
    },
    {
      "inputs": [],
      "name": "deployLiquidity",
      "outputs": [],
      "stateMutability": "nonpayable",
      "type": "function"
    },
    {
      "inputs": [
        {
          "internalType": "uint256",
          "name": "amount",
          "type": "uint256"
        }
      ],
      "name": "depositToken0",
      "outputs": [],
      "stateMutability": "nonpayable",
      "type": "function"
    },
    {
      "inputs": [
        {
          "internalType": "uint256",
          "name": "amount",
          "type": "uint256"
        }
      ],
      "name": "depositToken1",
      "outputs": [],
      "stateMutability": "nonpayable",
      "type": "function"
    },
    {
      "inputs": [],
      "name": "getConversionRate",
      "outputs": [
        {
          "internalType": "uint256",
          "name": "",
          "type": "uint256"
        }
      ],
      "stateMutability": "view",
      "type": "function"
    },
    {
      "inputs": [],
      "name": "getConversionRateDecimals",
      "outputs": [
        {
          "internalType": "uint8",
          "name": "",
          "type": "uint8"
        }
      ],
      "stateMutability": "view",
      "type": "function"
    },
    {
      "inputs": [],
      "name": "getGammaVault",
      "outputs": [
        {
          "internalType": "address",
          "name": "",
          "type": "address"
        }
      ],
      "stateMutability": "view",
      "type": "function"
    },
    {
      "inputs": [
        {
          "internalType": "address",
          "name": "liquidityProvider",
          "type": "address"
        }
      ],
      "name": "getLPTokensOwed",
      "outputs": [
        {
          "internalType": "uint256",
          "name": "",
          "type": "uint256"
        }
      ],
      "stateMutability": "view",
      "type": "function"
    },
    {
      "inputs": [],
      "name": "getLastToken0AvailableLiquidity",
      "outputs": [
        {
          "internalType": "uint256",
          "name": "",
          "type": "uint256"
        }
      ],
      "stateMutability": "view",
      "type": "function"
    },
    {
      "inputs": [
        {
          "internalType": "address",
          "name": "liquidityProvider",
          "type": "address"
        }
      ],
      "name": "getLastToken0LiquidityDeployed",
      "outputs": [
        {
          "internalType": "uint256",
          "name": "lastDeployedAmount",
          "type": "uint256"
        }
      ],
      "stateMutability": "view",
      "type": "function"
    },
    {
      "inputs": [],
      "name": "getLastToken1AvailableLiquidity",
      "outputs": [
        {
          "internalType": "uint256",
          "name": "",
          "type": "uint256"
        }
      ],
      "stateMutability": "view",
      "type": "function"
    },
    {
      "inputs": [
        {
          "internalType": "address",
          "name": "liquidityProvider",
          "type": "address"
        }
      ],
      "name": "getLastToken1LiquidityDeployed",
      "outputs": [
        {
          "internalType": "uint256",
          "name": "lastDeployedAmount",
          "type": "uint256"
        }
      ],
      "stateMutability": "view",
      "type": "function"
    },
    {
      "inputs": [],
      "name": "getLastTotalDeployedLiquidity",
      "outputs": [
        {
          "internalType": "uint256",
          "name": "",
          "type": "uint256"
        },
        {
          "internalType": "uint256",
          "name": "",
          "type": "uint256"
        }
      ],
      "stateMutability": "view",
      "type": "function"
    },
    {
      "inputs": [],
      "name": "getMinConvertibleToken0Amount",
      "outputs": [
        {
          "internalType": "uint256",
          "name": "",
          "type": "uint256"
        }
      ],
      "stateMutability": "view",
      "type": "function"
    },
    {
      "inputs": [],
      "name": "getToken0",
      "outputs": [
        {
          "internalType": "address",
          "name": "",
          "type": "address"
        }
      ],
      "stateMutability": "view",
      "type": "function"
    },
    {
      "inputs": [],
      "name": "getToken1",
      "outputs": [
        {
          "internalType": "address",
          "name": "",
          "type": "address"
        }
      ],
      "stateMutability": "view",
      "type": "function"
    },
    {
      "inputs": [],
      "name": "getTokenDepositors",
      "outputs": [
        {
          "internalType": "address[]",
          "name": "tokenDepositors",
          "type": "address[]"
        }
      ],
      "stateMutability": "view",
      "type": "function"
    },
    {
      "inputs": [],
      "name": "getTotalDeposits",
      "outputs": [
        {
          "internalType": "uint256",
          "name": "token0Amount",
          "type": "uint256"
        },
        {
          "internalType": "uint256",
          "name": "token1Amount",
          "type": "uint256"
        }
      ],
      "stateMutability": "view",
      "type": "function"
    },
    {
      "inputs": [],
      "name": "getUniProxy",
      "outputs": [
        {
          "internalType": "address",
          "name": "",
          "type": "address"
        }
      ],
      "stateMutability": "view",
      "type": "function"
    },
    {
      "inputs": [
        {
          "internalType": "address",
          "name": "account",
          "type": "address"
        }
      ],
      "name": "token0BalanceOf",
      "outputs": [
        {
          "internalType": "uint256",
          "name": "",
          "type": "uint256"
        }
      ],
      "stateMutability": "view",
      "type": "function"
    },
    {
      "inputs": [
        {
          "internalType": "address",
          "name": "account",
          "type": "address"
        }
      ],
      "name": "token1BalanceOf",
      "outputs": [
        {
          "internalType": "uint256",
          "name": "",
          "type": "uint256"
        }
      ],
      "stateMutability": "view",
      "type": "function"
    },
    {
      "inputs": [
        {
          "internalType": "uint256",
          "name": "amount",
          "type": "uint256"
        }
      ],
      "name": "withdrawLpTokens",
      "outputs": [],
      "stateMutability": "nonpayable",
      "type": "function"
    },
    {
      "inputs": [],
      "name": "withdrawLpTokens",
      "outputs": [],
      "stateMutability": "nonpayable",
      "type": "function"
    },
    {
      "inputs": [
        {
          "internalType": "uint256",
          "name": "amount",
          "type": "uint256"
        }
      ],
      "name": "withdrawToken0",
      "outputs": [],
      "stateMutability": "nonpayable",
      "type": "function"
    },
    {
      "inputs": [
        {
          "internalType": "uint256",
          "name": "amount",
          "type": "uint256"
        }
      ],
      "name": "withdrawToken1",
      "outputs": [],
      "stateMutability": "nonpayable",
      "type": "function"
    }
  ],
  "transactionHash": "0x4fde5a6e211199a92322671adc13c10070262c730ad755a9f11b2b10951db7f6",
  "args": [
    "0x2791bca1f2de4661ed88a30c99a7a9449aa84174",
    "0x7ceb23fd6bc0add59e62ac25578270cff1b9f619",
    "0x8b6E73f17B613ce189Be413f5DC435139F5fd45c",
    "0xE339ecc9deEf6B69Dbc394ABf6fBFf19450fAEb6",
    "6",
    "4"
  ],
  "numDeployments": 1,
  "solcInputHash": "b24f545e2b5cbc25685d944ad419dc9c",
  "bytecode": "0x60806040523480156200001157600080fd5b506040516200260e3803806200260e833981016040819052620000349162000444565b60016000819055508585856000819050806001600160a01b0316630dfe16816040518163ffffffff1660e01b8152600401602060405180830381865afa15801562000083573d6000803e3d6000fd5b505050506040513d601f19601f82011682018060405250810190620000a99190620004bc565b6001600160a01b0316846001600160a01b0316141580620001405750806001600160a01b031663d21220a76040518163ffffffff1660e01b8152600401602060405180830381865afa15801562000104573d6000803e3d6000fd5b505050506040513d601f19601f820116820180604052508101906200012a9190620004bc565b6001600160a01b0316836001600160a01b031614155b156200015f57604051637aa1a10560e01b815260040160405180910390fd5b600180546001600160a01b03199081166001600160a01b038d81169182179093556002805483168d85161790556003805483168c851617905560048054909216928a1692909217815560058890556007805460ff191660ff89161790556040805163313ce56760e01b8152905163313ce567928281019260209291908290030181865afa158015620001f5573d6000803e3d6000fd5b505050506040513d601f19601f820116820180604052508101906200021b9190620004da565b600160060160016101000a81548160ff021916908360ff160217905550886001600160a01b031663313ce5676040518163ffffffff1660e01b8152600401602060405180830381865afa15801562000277573d6000803e3d6000fd5b505050506040513d601f19601f820116820180604052508101906200029d9190620004da565b6007805462ff000019166201000060ff93841681029190911791829055620002e49261010083048116929190910481169089908916620002f8602090811b62000ac417901c565b600655506200066d98505050505050505050565b60006200034460016200030c84886200050e565b6200031990600a62000627565b856200032788600a62000627565b62000333919062000635565b6200035a60201b62000b0f1760201c565b620003519060016200050e565b95945050505050565b600080806000198587098587029250828110838203039150508060000362000399578382816200038e576200038e62000657565b04925050506200040e565b808411620003a657600080fd5b600084868809851960019081018716968790049682860381900495909211909303600082900391909104909201919091029190911760038402600290811880860282030280860282030280860282030280860282030280860282030280860290910302029150505b9392505050565b80516001600160a01b03811681146200042d57600080fd5b919050565b805160ff811681146200042d57600080fd5b60008060008060008060c087890312156200045e57600080fd5b620004698762000415565b9550620004796020880162000415565b9450620004896040880162000415565b9350620004996060880162000415565b925060808701519150620004b060a0880162000432565b90509295509295509295565b600060208284031215620004cf57600080fd5b6200040e8262000415565b600060208284031215620004ed57600080fd5b6200040e8262000432565b634e487b7160e01b600052601160045260246000fd5b80820180821115620005245762000524620004f8565b92915050565b600181815b808511156200056b5781600019048211156200054f576200054f620004f8565b808516156200055d57918102915b93841c93908002906200052f565b509250929050565b600082620005845750600162000524565b81620005935750600062000524565b8160018114620005ac5760028114620005b757620005d7565b600191505062000524565b60ff841115620005cb57620005cb620004f8565b50506001821b62000524565b5060208310610133831016604e8410600b8410161715620005fc575081810a62000524565b6200060883836200052a565b80600019048211156200061f576200061f620004f8565b029392505050565b60006200040e838362000573565b6000816000190483118215151615620006525762000652620004f8565b500290565b634e487b7160e01b600052601260045260246000fd5b611f91806200067d6000396000f3fe608060405234801561001057600080fd5b50600436106101985760003560e01c806371210a0d116100e3578063a9be89441161008c578063e68c471311610066578063e68c47131461042a578063f3143f8a14610432578063f36089ec1461046f57600080fd5b8063a9be8944146103ca578063ba94a315146103df578063c5acb690146103f057600080fd5b80638eae2d22116100bd5780638eae2d2214610384578063971e3c43146103a4578063a5c0fd05146103b757600080fd5b806371210a0d146103235780637fb9e9121461033657806384c5a67a1461037357600080fd5b80633bd7a701116101455780635d71ebf21161011f5780635d71ebf2146102dc57806367e3d15b146102e45780636f26a7101461031257600080fd5b80633bd7a7011461029a5780634086bf89146102af57806344276f1e146102b757600080fd5b8063168a482211610176578063168a48221461020157806320b3cac2146102405780632fb05b651461026057600080fd5b806305bba6bd1461019d578063080a415d146101b257806311e8416c146101ee575b600080fd5b6101b06101ab366004611bbb565b610477565b005b6101db6101c0366004611bd4565b6001600160a01b03166000908152600e602052604090205490565b6040519081526020015b60405180910390f35b6101b06101fc366004611bbb565b6104fe565b6001546001600160a01b039081166000908152600f60205260408082205460025490931682529020545b604080519283526020830191909152016101e5565b6002546001600160a01b03166000908152600d60205260409020546101db565b6101db61026e366004611bd4565b6001600160a01b039081166000908152600a602090815260408083206002549094168352929052205490565b60075460405160ff90911681526020016101e5565b6101b06105cc565b6004546001600160a01b03165b6040516001600160a01b0390911681526020016101e5565b6101b061071c565b6001546001600160a01b039081166000908152600c602052604080822054600254909316825290205461022b565b6002546001600160a01b03166102c4565b6101b0610331366004611bbb565b6107ac565b6101db610344366004611bd4565b6002546001600160a01b039081166000908152600b602090815260408083209490931682529290925290205490565b6003546001600160a01b03166102c4565b6001546001600160a01b03166000908152600d60205260409020546101db565b6101b06103b2366004611bbb565b610871565b6101b06103c5366004611bbb565b610936565b6103d26109fb565b6040516101e59190611bfd565b6001546001600160a01b03166102c4565b6101db6103fe366004611bd4565b6001600160a01b039081166000908152600a602090815260408083206001549094168352929052205490565b6006546101db565b6101db610440366004611bd4565b6001546001600160a01b039081166000908152600b602090815260408083209490931682529290925290205490565b6005546101db565b6002600054036104e8576040517f08c379a000000000000000000000000000000000000000000000000000000000815260206004820152601f60248201527f5265656e7472616e637947756172643a207265656e7472616e742063616c6c0060448201526064015b60405180910390fd5b60026000556104f681610be2565b506001600055565b60026000540361056a576040517f08c379a000000000000000000000000000000000000000000000000000000000815260206004820152601f60248201527f5265656e7472616e637947756172643a207265656e7472616e742063616c6c0060448201526064016104df565b600260008190555080806000036105ad576040517fb4fa3fb300000000000000000000000000000000000000000000000000000000815260040160405180910390fd5b6001546105c3906001600160a01b031683610cf3565b50506001600055565b600260005403610638576040517f08c379a000000000000000000000000000000000000000000000000000000000815260206004820152601f60248201527f5265656e7472616e637947756172643a207265656e7472616e742063616c6c0060448201526064016104df565b6002600055610645610e43565b6001546001600160a01b039081166000908152600d6020526040808220600254909316825290209190915555610679610ef4565b6001546001600160a01b039081166000908152600c60205260408082206002549093168252902091909155556106ad61109f565b60006106b76111ed565b90506106c28161129a565b6002546001600160a01b039081166000908152600c60205260408082205460015490931682528082205490518493927f27ef04f3eee6365ec57cc96b0ca6c817697868d1f05670199c789ca05b26979291a4506001600055565b600260005403610788576040517f08c379a000000000000000000000000000000000000000000000000000000000815260206004820152601f60248201527f5265656e7472616e637947756172643a207265656e7472616e742063616c6c0060448201526064016104df565b60026000908155338152600e60205260409020546107a590610be2565b6001600055565b600260005403610818576040517f08c379a000000000000000000000000000000000000000000000000000000000815260206004820152601f60248201527f5265656e7472616e637947756172643a207265656e7472616e742063616c6c0060448201526064016104df565b6002600081905550808060000361085b576040517fb4fa3fb300000000000000000000000000000000000000000000000000000000815260040160405180910390fd5b6002546105c3906001600160a01b0316836113e5565b6002600054036108dd576040517f08c379a000000000000000000000000000000000000000000000000000000000815260206004820152601f60248201527f5265656e7472616e637947756172643a207265656e7472616e742063616c6c0060448201526064016104df565b60026000819055508080600003610920576040517fb4fa3fb300000000000000000000000000000000000000000000000000000000815260040160405180910390fd5b6001546105c3906001600160a01b0316836113e5565b6002600054036109a2576040517f08c379a000000000000000000000000000000000000000000000000000000000815260206004820152601f60248201527f5265656e7472616e637947756172643a207265656e7472616e742063616c6c0060448201526064016104df565b600260008190555080806000036109e5576040517fb4fa3fb300000000000000000000000000000000000000000000000000000000815260040160405180910390fd5b6002546105c3906001600160a01b031683610cf3565b60085460609067ffffffffffffffff811115610a1957610a19611c4a565b604051908082528060200260200182016040528015610a42578160200160208202803683370190505b50905060005b600854811015610ac0576008805482908110610a6657610a66611c79565b9060005260206000200160009054906101000a90046001600160a01b0316828281518110610a9657610a96611c79565b6001600160a01b039092166020928302919091019091015280610ab881611cd7565b915050610a48565b5090565b6000610afb6001610ad58488611d0f565b610ae090600a611e3a565b85610aec88600a611e3a565b610af69190611e46565b610b0f565b610b06906001611d0f565b95945050505050565b600080807fffffffffffffffffffffffffffffffffffffffffffffffffffffffffffffffff85870985870292508281108382030391505080600003610b6757838281610b5d57610b5d611e83565b0492505050610bdb565b808411610b7357600080fd5b600084868809851960019081018716968790049682860381900495909211909303600082900391909104909201919091029190911760038402600290811880860282030280860282030280860282030280860282030280860282030280860290910302029150505b9392505050565b8080600003610c1d576040517fb4fa3fb300000000000000000000000000000000000000000000000000000000815260040160405180910390fd5b336000908152600e6020526040902054821115610c8757336000818152600e6020526040908190205490517f1a8470c700000000000000000000000000000000000000000000000000000000815260048101929092526024820152604481018390526064016104df565b336000908152600e602052604081208054849290610ca6908490611eb2565b9091555050600354610cc2906001600160a01b03163384611545565b604051829033907f0b68af39d2b2f165a1280cac62c3a28685e96801c9a077e2b13bad6a31f1d44290600090a35050565b336000908152600a602090815260408083206001600160a01b0386168452909152902054811115610d8d57336000818152600a602090815260408083206001600160a01b0387168085529252918290205491517fe4bc5068000000000000000000000000000000000000000000000000000000008152600481019190915260248101929092526044820152606481018290526084016104df565b336000908152600a602090815260408083206001600160a01b038616845290915281208054839290610dc0908490611eb2565b90915550506001600160a01b0382166000908152600f602052604081208054839290610ded908490611eb2565b90915550610e0790506001600160a01b0383163383611545565b604051819033906001600160a01b038516907f8210728e7c071f615b840ee026032693858fbcd5e5359e67e438c890f59e562090600090a45050565b60008060005b600854811015610eef57600060086000018281548110610e6b57610e6b611c79565b6000918252602080832091909101546001600160a01b03908116808452600a83526040808520600154841686529093528284205460025490921684529190922054600654919350908210610ec657610ec38287611d0f565b95505b8015610ed957610ed68186611d0f565b94505b5050508080610ee790611cd7565b915050610e49565b509091565b6001546001600160a01b03166000908152600d602052604081205481908190610f1c90611611565b9050801580610f4357506002546001600160a01b03166000908152600d6020526040902054155b15610fad576001546001600160a01b039081166000908152600d6020526040808220546002549093168252908190205490517f931eb8e0000000000000000000000000000000000000000000000000000000008152600481019290925260248201526044016104df565b6002546001600160a01b03166000908152600d602052604090205481111561103c576040805180820182526002546001600160a01b03166000908152600d60209081529290205481529081018290526110308161102b6040805180820182526000808252602091820152815180830190925260018083529082015290565b611652565b9094509250610eef9050565b6040805180820182528281526002546001600160a01b03166000908152600d60209081528382205481840152835180850185528281528101919091528251808401909352600180845290830152906110949082611652565b909450925050509091565b600154600480546001600160a01b039283166000818152600c6020526040908190205490517f095ea7b3000000000000000000000000000000000000000000000000000000008152949092169284019290925260248301529063095ea7b3906044016020604051808303816000875af1158015611120573d6000803e3d6000fd5b505050506040513d601f19601f820116820180604052508101906111449190611ec5565b50600254600480546001600160a01b039283166000818152600c6020526040908190205490517f095ea7b3000000000000000000000000000000000000000000000000000000008152949092169284019290925260248301529063095ea7b3906044016020604051808303816000875af11580156111c6573d6000803e3d6000fd5b505050506040513d601f19601f820116820180604052508101906111ea9190611ec5565b50565b6004546001546001600160a01b039081166000908152600c60205260408082205460025484168352908220546003549294841693638e3c92e49330911661123261184c565b6040518663ffffffff1660e01b8152600401611252959493929190611ee7565b6020604051808303816000875af1158015611271573d6000803e3d6000fd5b505050506040513d601f19601f820116820180604052508101906112959190611f42565b905090565b6002546001600160a01b03166000908152600c60205260408120548291906112c061187e565b6112ca9190611d0f565b905060005b600854811015611383576000600860000182815481106112f1576112f1611c79565b60009182526020822001546001600160a01b03169150611310826118a2565b905080600003611321575050611371565b600061132e878387610b0f565b6001600160a01b0384166000908152600e602052604081208054929350839290919061135b908490611d0f565b9091555061136b90508187611eb2565b95505050505b8061137b81611cd7565b9150506112cf565b5081156113e05781600e600060086000016000815481106113a6576113a6611c79565b60009182526020808320909101546001600160a01b03168352820192909252604001812080549091906113da908490611d0f565b90915550505b505050565b336000908152600a602090815260408083206001600160a01b038616845290915281208054839290611418908490611d0f565b90915550506001600160a01b0382166000908152600f602052604081208054839290611445908490611d0f565b90915550503360009081526009602052604090205460ff166114f45733600081815260096020526040812080547fffffffffffffffffffffffffffffffffffffffffffffffffffffffffffffff001660019081179091556008805491820181559091527ff3f7a9fe364faab93b216da50a3214154f22a0a2b415b23a84c8169e8b636ee30180547fffffffffffffffffffffffff00000000000000000000000000000000000000001690911790555b6115096001600160a01b0383163330846118fe565b604051819033906001600160a01b038516907ff1444b5cad7ce70cb018d1b8edc8618fe303f3c7f034d8d572a6e27facbf2bef90600090a45050565b6040517fa9059cbb000000000000000000000000000000000000000000000000000000008082526001600160a01b0384166004830152602482018390529060008060448382895af161159b573d6000803e3d6000fd5b506115a5846119d3565b61160b576040517f08c379a000000000000000000000000000000000000000000000000000000000815260206004820152601560248201527f475076323a206661696c6564207472616e73666572000000000000000000000060448201526064016104df565b50505050565b60065460009082101561162657506000919050565b60075460055461164c9160ff610100820481169262010000830482169290911686611a9e565b92915050565b60008060005b6008548110156118445760006008600001828154811061167a5761167a611c79565b60009182526020822001546001546001600160a01b0391821693506116a191168389611ae9565b60065490915081106116b357806116b6565b60005b6001546001600160a01b039081166000908152600b6020908152604080832093871683529290522081905590508015611765576001600160a01b038083166000908152600a6020908152604080832060015490941683529290529081208054839290611723908490611eb2565b90915550506001546001600160a01b03166000908152600f602052604081208054839290611752908490611eb2565b9091555061176290508186611d0f565b94505b60025460009061177f906001600160a01b03168489611ae9565b6002546001600160a01b039081166000908152600b602090815260408083209388168352929052208190559050801561182e576001600160a01b038084166000908152600a60209081526040808320600254909416835292905290812080548392906117ec908490611eb2565b90915550506002546001600160a01b03166000908152600f60205260408120805483929061181b908490611eb2565b9091555061182b90508186611d0f565b94505b505050808061183c90611cd7565b915050611658565b509250929050565b611854611b9d565b60405180608001604052806000815260200160008152602001600081526020016000815250905090565b6001546001600160a01b03166000908152600c602052604081205461129590611611565b6001546001600160a01b039081166000908152600b60208181526040808420868616808652908352818520546002549096168552928252808420928452919052812054909190826118f283611611565b9050610b068282611d0f565b6040517f23b872dd000000000000000000000000000000000000000000000000000000008082526001600160a01b038581166004840152841660248301526044820183905290600080606483828a5af161195c573d6000803e3d6000fd5b50611966856119d3565b6119cc576040517f08c379a000000000000000000000000000000000000000000000000000000000815260206004820152601960248201527f475076323a206661696c6564207472616e7366657246726f6d0000000000000060448201526064016104df565b5050505050565b6000611a12565b7f08c379a000000000000000000000000000000000000000000000000000000000600052602060045280602452508060445260646000fd5b3d8015611a515760208114611a8b57611a4c7f475076323a206d616c666f726d6564207472616e7366657220726573756c7400601f6119da565b611a98565b823b611a8257611a827f475076323a206e6f74206120636f6e747261637400000000000000000000000060146119da565b60019150611a98565b3d6000803e600051151591505b50919050565b600081600003611ab057506000610b06565b611adf8285611ac088600a611e3a565b611aca9190611e46565b611ad4868a611d0f565b610af690600a611e3a565b9695505050505050565b6001600160a01b038083166000908152600a60209081526040808320938716835292905290812054808203611b22576000915050610bdb565b610b06818460008160200151600003611b7757815160208301516040517f60c1ae39000000000000000000000000000000000000000000000000000000008152600481019290925260248201526044016104df565b6020820151825103611b8a57508161164c565b610bdb8383600001518460200151610b0f565b60405180608001604052806004906020820280368337509192915050565b600060208284031215611bcd57600080fd5b5035919050565b600060208284031215611be657600080fd5b81356001600160a01b0381168114610bdb57600080fd5b6020808252825182820181905260009190848201906040850190845b81811015611c3e5783516001600160a01b031683529284019291840191600101611c19565b50909695505050505050565b7f4e487b7100000000000000000000000000000000000000000000000000000000600052604160045260246000fd5b7f4e487b7100000000000000000000000000000000000000000000000000000000600052603260045260246000fd5b7f4e487b7100000000000000000000000000000000000000000000000000000000600052601160045260246000fd5b60007fffffffffffffffffffffffffffffffffffffffffffffffffffffffffffffffff8203611d0857611d08611ca8565b5060010190565b8082018082111561164c5761164c611ca8565b600181815b8085111561184457817fffffffffffffffffffffffffffffffffffffffffffffffffffffffffffffffff04821115611d6157611d61611ca8565b80851615611d6e57918102915b93841c9390800290611d27565b600082611d8a5750600161164c565b81611d975750600061164c565b8160018114611dad5760028114611db757611dd3565b600191505061164c565b60ff841115611dc857611dc8611ca8565b50506001821b61164c565b5060208310610133831016604e8410600b8410161715611df6575081810a61164c565b611e008383611d22565b807fffffffffffffffffffffffffffffffffffffffffffffffffffffffffffffffff04821115611e3257611e32611ca8565b029392505050565b6000610bdb8383611d7b565b6000817fffffffffffffffffffffffffffffffffffffffffffffffffffffffffffffffff0483118215151615611e7e57611e7e611ca8565b500290565b7f4e487b7100000000000000000000000000000000000000000000000000000000600052601260045260246000fd5b8181038181111561164c5761164c611ca8565b600060208284031215611ed757600080fd5b81518015158114610bdb57600080fd5b85815260208082018690526001600160a01b03858116604084015284166060830152610100820190608083018460005b6004811015611f3457815183529183019190830190600101611f17565b505050509695505050505050565b600060208284031215611f5457600080fd5b505191905056fea2646970667358221220ea292a0029a444ae5b799ef3a7a7b01725ffb5a659e097557a9bce227871a5ee64736f6c63430008100033",
  "devdoc": {
    "author": "Solid World",
    "kind": "dev",
    "methods": {
      "getConversionRate()": {
        "returns": {
          "_0": "1 token0 = ? token1"
        }
      },
      "getConversionRateDecimals()": {
        "returns": {
          "_0": "Number of decimals of the conversion rate e.g. to express 1 token0 = 0.000001 token1, conversion rate is 1 and decimals is 6"
        }
      },
      "getGammaVault()": {
        "returns": {
          "_0": "Gamma Vault address the UniProxy contract will deposit tokens to"
        }
      },
      "getLastToken0AvailableLiquidity()": {
        "details": "returns the total amount of token0 that was available to be deployed (excludes deposits not convertible to token1)"
      },
      "getLastToken0LiquidityDeployed(address)": {
        "params": {
          "liquidityProvider": "account that contributed liquidity"
        },
        "returns": {
          "lastDeployedAmount": "amount of token0 liquidity that was deployed by the liquidity provider during the last deployment"
        }
      },
      "getLastToken1AvailableLiquidity()": {
        "details": "returns the total amount of token1 that was available to be deployed"
      },
      "getLastToken1LiquidityDeployed(address)": {
        "params": {
          "liquidityProvider": "account that contributed liquidity"
        },
        "returns": {
          "lastDeployedAmount": "amount of token1 liquidity that was last deployed by the liquidity provider during the last deployment"
        }
      },
      "getMinConvertibleToken0Amount()": {
        "details": "Returns the minimum amount of token0 that can be converted to token1"
      },
      "getUniProxy()": {
        "returns": {
          "_0": "UniProxy contract takes amounts of token0 and token1, deposits them to Gamma Vault, and returns LP tokens"
        }
      }
    },
    "stateVariables": {
      "lPTokensOwed": {
        "details": "Account => Amount"
      },
      "lastAvailableLiquidity": {
        "details": "Token => Amount"
      },
      "lastDeployedLiquidity": {
        "details": "Token => Account => Amount"
      },
      "lastTotalDeployedLiquidity": {
        "details": "Token => Amount"
      },
      "totalDeposits": {
        "details": "Token => Amount"
      },
      "userTokenBalance": {
        "details": "Account => Token => Balance"
      }
    },
    "version": 1
  },
  "userdoc": {
    "kind": "user",
    "methods": {
      "deployLiquidity()": {
        "notice": "Looks at the current configuration and state of the contract, deploys the available liquidity to the Gamma Vault, and distributes the LP tokens to the depositors proportionally"
      },
      "depositToken0(uint256)": {
        "notice": "The caller must approve the contract to spend `amount` of token0"
      },
      "depositToken1(uint256)": {
        "notice": "The caller must approve the contract to spend `amount` of token1"
      }
    },
    "version": 1
  },
  "storageLayout": {
    "storage": [
      {
        "astId": 803,
        "contract": "contracts/LiquidityDeployer.sol:LiquidityDeployer",
        "label": "_status",
        "offset": 0,
        "slot": "0",
        "type": "t_uint256"
      },
      {
        "astId": 6455,
        "contract": "contracts/LiquidityDeployer.sol:LiquidityDeployer",
        "label": "config",
        "offset": 0,
        "slot": "1",
        "type": "t_struct(Config)13148_storage"
      },
      {
        "astId": 6458,
        "contract": "contracts/LiquidityDeployer.sol:LiquidityDeployer",
        "label": "depositors",
        "offset": 0,
        "slot": "8",
        "type": "t_struct(Depositors)13157_storage"
      },
      {
        "astId": 6465,
        "contract": "contracts/LiquidityDeployer.sol:LiquidityDeployer",
        "label": "userTokenBalance",
        "offset": 0,
        "slot": "10",
        "type": "t_mapping(t_address,t_mapping(t_address,t_uint256))"
      },
      {
        "astId": 6472,
        "contract": "contracts/LiquidityDeployer.sol:LiquidityDeployer",
        "label": "lastDeployedLiquidity",
        "offset": 0,
        "slot": "11",
        "type": "t_mapping(t_address,t_mapping(t_address,t_uint256))"
      },
      {
        "astId": 6477,
        "contract": "contracts/LiquidityDeployer.sol:LiquidityDeployer",
        "label": "lastTotalDeployedLiquidity",
        "offset": 0,
        "slot": "12",
        "type": "t_mapping(t_address,t_uint256)"
      },
      {
        "astId": 6482,
        "contract": "contracts/LiquidityDeployer.sol:LiquidityDeployer",
        "label": "lastAvailableLiquidity",
        "offset": 0,
        "slot": "13",
        "type": "t_mapping(t_address,t_uint256)"
      },
      {
        "astId": 6487,
        "contract": "contracts/LiquidityDeployer.sol:LiquidityDeployer",
        "label": "lPTokensOwed",
        "offset": 0,
        "slot": "14",
        "type": "t_mapping(t_address,t_uint256)"
      },
      {
        "astId": 6492,
        "contract": "contracts/LiquidityDeployer.sol:LiquidityDeployer",
        "label": "totalDeposits",
        "offset": 0,
        "slot": "15",
        "type": "t_mapping(t_address,t_uint256)"
      }
    ],
    "types": {
      "t_address": {
        "encoding": "inplace",
        "label": "address",
        "numberOfBytes": "20"
      },
      "t_array(t_address)dyn_storage": {
        "base": "t_address",
        "encoding": "dynamic_array",
        "label": "address[]",
        "numberOfBytes": "32"
      },
      "t_bool": {
        "encoding": "inplace",
        "label": "bool",
        "numberOfBytes": "1"
      },
      "t_mapping(t_address,t_bool)": {
        "encoding": "mapping",
        "key": "t_address",
        "label": "mapping(address => bool)",
        "numberOfBytes": "32",
        "value": "t_bool"
      },
      "t_mapping(t_address,t_mapping(t_address,t_uint256))": {
        "encoding": "mapping",
        "key": "t_address",
        "label": "mapping(address => mapping(address => uint256))",
        "numberOfBytes": "32",
        "value": "t_mapping(t_address,t_uint256)"
      },
      "t_mapping(t_address,t_uint256)": {
        "encoding": "mapping",
        "key": "t_address",
        "label": "mapping(address => uint256)",
        "numberOfBytes": "32",
        "value": "t_uint256"
      },
      "t_struct(Config)13148_storage": {
        "encoding": "inplace",
        "label": "struct LiquidityDeployerDataTypes.Config",
        "members": [
          {
            "astId": 13131,
            "contract": "contracts/LiquidityDeployer.sol:LiquidityDeployer",
            "label": "token0",
            "offset": 0,
            "slot": "0",
            "type": "t_address"
          },
          {
            "astId": 13133,
            "contract": "contracts/LiquidityDeployer.sol:LiquidityDeployer",
            "label": "token1",
            "offset": 0,
            "slot": "1",
            "type": "t_address"
          },
          {
            "astId": 13135,
            "contract": "contracts/LiquidityDeployer.sol:LiquidityDeployer",
            "label": "gammaVault",
            "offset": 0,
            "slot": "2",
            "type": "t_address"
          },
          {
            "astId": 13137,
            "contract": "contracts/LiquidityDeployer.sol:LiquidityDeployer",
            "label": "uniProxy",
            "offset": 0,
            "slot": "3",
            "type": "t_address"
          },
          {
            "astId": 13139,
            "contract": "contracts/LiquidityDeployer.sol:LiquidityDeployer",
            "label": "conversionRate",
            "offset": 0,
            "slot": "4",
            "type": "t_uint256"
          },
          {
            "astId": 13141,
            "contract": "contracts/LiquidityDeployer.sol:LiquidityDeployer",
            "label": "minConvertibleToken0Amount",
            "offset": 0,
            "slot": "5",
            "type": "t_uint256"
          },
          {
            "astId": 13143,
            "contract": "contracts/LiquidityDeployer.sol:LiquidityDeployer",
            "label": "conversionRateDecimals",
            "offset": 0,
            "slot": "6",
            "type": "t_uint8"
          },
          {
            "astId": 13145,
            "contract": "contracts/LiquidityDeployer.sol:LiquidityDeployer",
            "label": "token0Decimals",
            "offset": 1,
            "slot": "6",
            "type": "t_uint8"
          },
          {
            "astId": 13147,
            "contract": "contracts/LiquidityDeployer.sol:LiquidityDeployer",
            "label": "token1Decimals",
            "offset": 2,
            "slot": "6",
            "type": "t_uint8"
          }
        ],
        "numberOfBytes": "224"
      },
      "t_struct(Depositors)13157_storage": {
        "encoding": "inplace",
        "label": "struct LiquidityDeployerDataTypes.Depositors",
        "members": [
          {
            "astId": 13151,
            "contract": "contracts/LiquidityDeployer.sol:LiquidityDeployer",
            "label": "tokenDepositors",
            "offset": 0,
            "slot": "0",
            "type": "t_array(t_address)dyn_storage"
          },
          {
            "astId": 13156,
            "contract": "contracts/LiquidityDeployer.sol:LiquidityDeployer",
            "label": "isDepositor",
            "offset": 0,
            "slot": "1",
            "type": "t_mapping(t_address,t_bool)"
          }
        ],
        "numberOfBytes": "64"
      },
      "t_uint256": {
        "encoding": "inplace",
        "label": "uint256",
        "numberOfBytes": "32"
      },
      "t_uint8": {
        "encoding": "inplace",
        "label": "uint8",
        "numberOfBytes": "1"
      }
    }
  }
}