{
  "address": "0x70b12af7571a8b0701f4bdE6465919032DC27e4D",
  "abi": [
    {
      "inputs": [
        {
          "internalType": "address",
          "name": "_router",
          "type": "address"
        },
        {
          "internalType": "address",
          "name": "_weth",
          "type": "address"
        },
        {
          "internalType": "address",
          "name": "_swManager",
          "type": "address"
        },
        {
          "internalType": "address",
          "name": "_forwardContractBatch",
          "type": "address"
        }
      ],
      "stateMutability": "nonpayable",
      "type": "constructor"
    },
    {
      "inputs": [],
      "name": "ETHTransferFailed",
      "type": "error"
    },
    {
      "inputs": [],
      "name": "GenericSwapError",
      "type": "error"
    },
    {
      "inputs": [],
      "name": "InvalidInput",
      "type": "error"
    },
    {
      "inputs": [],
      "name": "SweepAmountZero",
      "type": "error"
    },
    {
      "anonymous": false,
      "inputs": [
        {
          "indexed": true,
          "internalType": "address",
          "name": "receiver",
          "type": "address"
        },
        {
          "indexed": true,
          "internalType": "address",
          "name": "outputToken",
          "type": "address"
        },
        {
          "indexed": true,
          "internalType": "uint256",
          "name": "outputAmount",
          "type": "uint256"
        },
        {
          "indexed": false,
          "internalType": "uint256",
          "name": "dust",
          "type": "uint256"
        },
        {
          "indexed": false,
          "internalType": "address",
          "name": "dustRecipient",
          "type": "address"
        },
        {
          "indexed": false,
          "internalType": "uint256",
          "name": "categoryId",
          "type": "uint256"
        }
      ],
      "name": "ZapCollateralize",
      "type": "event"
    },
    {
      "stateMutability": "payable",
      "type": "fallback"
    },
    {
      "inputs": [],
      "name": "forwardContractBatch",
      "outputs": [
        {
          "internalType": "address",
          "name": "",
          "type": "address"
        }
      ],
      "stateMutability": "view",
      "type": "function"
    },
    {
      "inputs": [
        {
          "internalType": "address",
          "name": "operator",
          "type": "address"
        },
        {
          "internalType": "address",
          "name": "",
          "type": "address"
        },
        {
          "internalType": "uint256[]",
          "name": "",
          "type": "uint256[]"
        },
        {
          "internalType": "uint256[]",
          "name": "",
          "type": "uint256[]"
        },
        {
          "internalType": "bytes",
          "name": "",
          "type": "bytes"
        }
      ],
      "name": "onERC1155BatchReceived",
      "outputs": [
        {
          "internalType": "bytes4",
          "name": "",
          "type": "bytes4"
        }
      ],
      "stateMutability": "nonpayable",
      "type": "function"
    },
    {
      "inputs": [
        {
          "internalType": "address",
          "name": "operator",
          "type": "address"
        },
        {
          "internalType": "address",
          "name": "",
          "type": "address"
        },
        {
          "internalType": "uint256",
          "name": "",
          "type": "uint256"
        },
        {
          "internalType": "uint256",
          "name": "",
          "type": "uint256"
        },
        {
          "internalType": "bytes",
          "name": "",
          "type": "bytes"
        }
      ],
      "name": "onERC1155Received",
      "outputs": [
        {
          "internalType": "bytes4",
          "name": "",
          "type": "bytes4"
        }
      ],
      "stateMutability": "nonpayable",
      "type": "function"
    },
    {
      "inputs": [],
      "name": "router",
      "outputs": [
        {
          "internalType": "address",
          "name": "",
          "type": "address"
        }
      ],
      "stateMutability": "view",
      "type": "function"
    },
    {
      "inputs": [
        {
          "internalType": "bytes4",
          "name": "interfaceId",
          "type": "bytes4"
        }
      ],
      "name": "supportsInterface",
      "outputs": [
        {
          "internalType": "bool",
          "name": "",
          "type": "bool"
        }
      ],
      "stateMutability": "pure",
      "type": "function"
    },
    {
      "inputs": [],
      "name": "swManager",
      "outputs": [
        {
          "internalType": "address",
          "name": "",
          "type": "address"
        }
      ],
      "stateMutability": "view",
      "type": "function"
    },
    {
      "inputs": [],
      "name": "weth",
      "outputs": [
        {
          "internalType": "address",
          "name": "",
          "type": "address"
        }
      ],
      "stateMutability": "view",
      "type": "function"
    },
    {
      "inputs": [
        {
          "internalType": "address",
          "name": "outputToken",
          "type": "address"
        },
        {
          "internalType": "address",
          "name": "crispToken",
          "type": "address"
        },
        {
          "internalType": "uint256",
          "name": "batchId",
          "type": "uint256"
        },
        {
          "internalType": "uint256",
          "name": "amountIn",
          "type": "uint256"
        },
        {
          "internalType": "uint256",
          "name": "amountOutMin",
          "type": "uint256"
        },
        {
          "internalType": "bytes",
          "name": "swap",
          "type": "bytes"
        },
        {
          "internalType": "address",
          "name": "dustRecipient",
          "type": "address"
        },
        {
          "internalType": "address",
          "name": "zapRecipient",
          "type": "address"
        }
      ],
      "name": "zapCollateralize",
      "outputs": [],
      "stateMutability": "nonpayable",
      "type": "function"
    },
    {
      "inputs": [
        {
          "internalType": "address",
          "name": "outputToken",
          "type": "address"
        },
        {
          "internalType": "address",
          "name": "crispToken",
          "type": "address"
        },
        {
          "internalType": "uint256",
          "name": "batchId",
          "type": "uint256"
        },
        {
          "internalType": "uint256",
          "name": "amountIn",
          "type": "uint256"
        },
        {
          "internalType": "uint256",
          "name": "amountOutMin",
          "type": "uint256"
        },
        {
          "internalType": "bytes",
          "name": "swap",
          "type": "bytes"
        },
        {
          "internalType": "address",
          "name": "dustRecipient",
          "type": "address"
        }
      ],
      "name": "zapCollateralize",
      "outputs": [],
      "stateMutability": "nonpayable",
      "type": "function"
    },
    {
      "inputs": [
        {
          "internalType": "address",
          "name": "crispToken",
          "type": "address"
        },
        {
          "internalType": "uint256",
          "name": "batchId",
          "type": "uint256"
        },
        {
          "internalType": "uint256",
          "name": "amountIn",
          "type": "uint256"
        },
        {
          "internalType": "uint256",
          "name": "amountOutMin",
          "type": "uint256"
        },
        {
          "internalType": "bytes",
          "name": "swap",
          "type": "bytes"
        },
        {
          "internalType": "address",
          "name": "dustRecipient",
          "type": "address"
        }
      ],
      "name": "zapCollateralizeETH",
      "outputs": [],
      "stateMutability": "nonpayable",
      "type": "function"
    },
    {
      "inputs": [
        {
          "internalType": "address",
          "name": "crispToken",
          "type": "address"
        },
        {
          "internalType": "uint256",
          "name": "batchId",
          "type": "uint256"
        },
        {
          "internalType": "uint256",
          "name": "amountIn",
          "type": "uint256"
        },
        {
          "internalType": "uint256",
          "name": "amountOutMin",
          "type": "uint256"
        },
        {
          "internalType": "bytes",
          "name": "swap",
          "type": "bytes"
        },
        {
          "internalType": "address",
          "name": "dustRecipient",
          "type": "address"
        },
        {
          "internalType": "address",
          "name": "zapRecipient",
          "type": "address"
        }
      ],
      "name": "zapCollateralizeETH",
      "outputs": [],
      "stateMutability": "nonpayable",
      "type": "function"
    },
    {
      "stateMutability": "payable",
      "type": "receive"
    }
  ],
  "transactionHash": "0xee26b39b2933b50e6cafc969306a10cd10c47ab9761a07aa21221c5ce0b8bf89",
  "args": [
    "0xDef1C0ded9bec7F1a1670819833240f027b25EfF",
    "0x0d500B1d8E8eF31E21C99d1Db9A6444d3ADf1270",
    "0x2465E7F8A91a4e766566B3a529492AD34A9e6c54",
    "0x0C4fdD1e34603AF7E1e9Ce49a2a798719bDD9392"
  ],
  "numDeployments": 1,
  "solcInputHash": "bbba5fd6b9009c7d13f755a900ac7c26",
  "bytecode": "0x6101006040523480156200001257600080fd5b5060405162001926380380620019268339810160408190526200003591620000ed565b600160008190556001600160a01b0385811660805284811660a05283811660c081905290831660e081905260405163a22cb46560e01b815260048101929092526024820192909252859185918591859163a22cb46590604401600060405180830381600087803b158015620000a957600080fd5b505af1158015620000be573d6000803e3d6000fd5b5050505050505050505050506200014a565b80516001600160a01b0381168114620000e857600080fd5b919050565b600080600080608085870312156200010457600080fd5b6200010f85620000d0565b93506200011f60208601620000d0565b92506200012f60408601620000d0565b91506200013f60608601620000d0565b905092959194509250565b60805160a05160c05160e051611756620001d06000396000818161039e0152610c39015260008181610285015281816109170152610ce301526000818160dd0152818161014e0152818161020c015281816104cf0152818161050d0152818161066301526106a101526000818161036a0152818161075b015261078401526117566000f3fe6080604052600436106100c05760003560e01c806391ef00ea11610074578063f726024f1161004e578063f726024f14610338578063f887ea4014610358578063fb5ba8eb1461038c57610136565b806391ef00ea146102a7578063bc197c81146102c7578063f23a6e611461031857610136565b80633fc8cef3116100a55780633fc8cef3146101fa5780634a5020df1461025357806373d0eb6b1461027357610136565b8063014007d2146101a557806301ffc9a7146101c557610136565b36610136573373ffffffffffffffffffffffffffffffffffffffff7f00000000000000000000000000000000000000000000000000000000000000001614610134576040517fb12d13eb00000000000000000000000000000000000000000000000000000000815260040160405180910390fd5b005b3373ffffffffffffffffffffffffffffffffffffffff7f00000000000000000000000000000000000000000000000000000000000000001614610134576040517fb12d13eb00000000000000000000000000000000000000000000000000000000815260040160405180910390fd5b3480156101b157600080fd5b506101346101c03660046111e0565b6103c0565b3480156101d157600080fd5b506101e56101e0366004611283565b610419565b60405190151581526020015b60405180910390f35b34801561020657600080fd5b5061022e7f000000000000000000000000000000000000000000000000000000000000000081565b60405173ffffffffffffffffffffffffffffffffffffffff90911681526020016101f1565b34801561025f57600080fd5b5061013461026e3660046112c5565b6104b2565b34801561027f57600080fd5b5061022e7f000000000000000000000000000000000000000000000000000000000000000081565b3480156102b357600080fd5b506101346102c2366004611347565b610549565b3480156102d357600080fd5b506102e76102e2366004611565565b6105a1565b6040517fffffffff0000000000000000000000000000000000000000000000000000000090911681526020016101f1565b34801561032457600080fd5b506102e761033336600461160f565b6105f4565b34801561034457600080fd5b50610134610353366004611674565b610646565b34801561036457600080fd5b5061022e7f000000000000000000000000000000000000000000000000000000000000000081565b34801561039857600080fd5b5061022e7f000000000000000000000000000000000000000000000000000000000000000081565b6103c86106c8565b6103d6888888888888610740565b60006103e48a8360016107b2565b905060006103f28a856108b5565b9050610402838a8d8585896108c3565b505061040e6001600055565b505050505050505050565b60007f01ffc9a7000000000000000000000000000000000000000000000000000000007fffffffff00000000000000000000000000000000000000000000000000000000831614806104ac57507f4e2312e0000000000000000000000000000000000000000000000000000000007fffffffff000000000000000000000000000000000000000000000000000000008316145b92915050565b6104ba6106c8565b6104c8878787878787610740565b60006104f67f00000000000000000000000000000000000000000000000000000000000000003360016109ec565b9050600061050489846108b5565b905061053433897f00000000000000000000000000000000000000000000000000000000000000008585886108c3565b50506105406001600055565b50505050505050565b6105516106c8565b61055f878787878787610740565b600061056d893360016107b2565b9050600061057b89846108b5565b905061058b33898c8585886108c3565b50506105976001600055565b5050505050505050565b600073ffffffffffffffffffffffffffffffffffffffff861630146105c8575060006105eb565b507fbc197c81000000000000000000000000000000000000000000000000000000005b95945050505050565b600073ffffffffffffffffffffffffffffffffffffffff8616301461061b575060006105eb565b507ff23a6e610000000000000000000000000000000000000000000000000000000095945050505050565b61064e6106c8565b61065c888888888888610740565b600061068a7f00000000000000000000000000000000000000000000000000000000000000008360016109ec565b905060006106988a856108b5565b905061058b838a7f00000000000000000000000000000000000000000000000000000000000000008585896108c3565b600260005403610739576040517f08c379a000000000000000000000000000000000000000000000000000000000815260206004820152601f60248201527f5265656e7472616e637947756172643a207265656e7472616e742063616c6c0060448201526064015b60405180910390fd5b6002600055565b61074a8585610be9565b610755858585610ca6565b61077f867f0000000000000000000000000000000000000000000000000000000000000000610d50565b6107aa7f00000000000000000000000000000000000000000000000000000000000000008383610e32565b505050505050565b6040517f70a0823100000000000000000000000000000000000000000000000000000000815230600482015260009073ffffffffffffffffffffffffffffffffffffffff8516906370a0823190602401602060405180830381865afa15801561081f573d6000803e3d6000fd5b505050506040513d601f19601f8201168201806040525081019061084391906116f7565b9050801580156108505750815b15610887576040517ff2035b6300000000000000000000000000000000000000000000000000000000815260040160405180910390fd5b80156108ae576108ae73ffffffffffffffffffffffffffffffffffffffff85168483610eb8565b9392505050565b60006108ae838360006107b2565b828473ffffffffffffffffffffffffffffffffffffffff168773ffffffffffffffffffffffffffffffffffffffff167fbe71403e09bb5b80d1b3f9939bbb759c5d3fb5407b428889fbab5726ae90d64685857f000000000000000000000000000000000000000000000000000000000000000073ffffffffffffffffffffffffffffffffffffffff1663a88fd94a8c6040518263ffffffff1660e01b815260040161097091815260200190565b602060405180830381865afa15801561098d573d6000803e3d6000fd5b505050506040513d601f19601f820116820180604052508101906109b191906116f7565b6040805193845273ffffffffffffffffffffffffffffffffffffffff90921660208401529082015260600160405180910390a4505050505050565b6040517f70a0823100000000000000000000000000000000000000000000000000000000815230600482015260009073ffffffffffffffffffffffffffffffffffffffff8516906370a0823190602401602060405180830381865afa158015610a59573d6000803e3d6000fd5b505050506040513d601f19601f82011682018060405250810190610a7d91906116f7565b905080158015610a8a5750815b15610ac1576040517ff2035b6300000000000000000000000000000000000000000000000000000000815260040160405180910390fd5b80156108ae576040517f2e1a7d4d0000000000000000000000000000000000000000000000000000000081526004810182905273ffffffffffffffffffffffffffffffffffffffff851690632e1a7d4d90602401600060405180830381600087803b158015610b2f57600080fd5b505af1158015610b43573d6000803e3d6000fd5b5050505060008373ffffffffffffffffffffffffffffffffffffffff168260405160006040518083038185875af1925050503d8060008114610ba1576040519150601f19603f3d011682016040523d82523d6000602084013e610ba6565b606091505b5050905080610be1576040517fb12d13eb00000000000000000000000000000000000000000000000000000000815260040160405180910390fd5b509392505050565b6040517ff242432a000000000000000000000000000000000000000000000000000000008152336004820152306024820152604481018390526064810182905260a06084820152600060a48201527f000000000000000000000000000000000000000000000000000000000000000073ffffffffffffffffffffffffffffffffffffffff169063f242432a9060c401600060405180830381600087803b158015610c9257600080fd5b505af11580156107aa573d6000803e3d6000fd5b6040517fb505ab860000000000000000000000000000000000000000000000000000000081526004810184905260248101839052604481018290527f000000000000000000000000000000000000000000000000000000000000000073ffffffffffffffffffffffffffffffffffffffff169063b505ab8690606401600060405180830381600087803b158015610d3c57600080fd5b505af1158015610540573d6000803e3d6000fd5b6040517fdd62ed3e00000000000000000000000000000000000000000000000000000000815230600482015273ffffffffffffffffffffffffffffffffffffffff828116602483015283169063dd62ed3e90604401602060405180830381865afa158015610dc2573d6000803e3d6000fd5b505050506040513d601f19601f82011682018060405250810190610de691906116f7565b600003610e2e57610e2e73ffffffffffffffffffffffffffffffffffffffff8316827fffffffffffffffffffffffffffffffffffffffffffffffffffffffffffffffff610f91565b5050565b6000808473ffffffffffffffffffffffffffffffffffffffff168484604051610e5c929190611710565b6000604051808303816000865af19150503d8060008114610e99576040519150601f19603f3d011682016040523d82523d6000602084013e610e9e565b606091505b509150915081610eb157610eb181611060565b5050505050565b6040517fa9059cbb0000000000000000000000000000000000000000000000000000000080825273ffffffffffffffffffffffffffffffffffffffff84166004830152602482018390529060008060448382895af1610f1b573d6000803e3d6000fd5b50610f25846110a3565b610f8b576040517f08c379a000000000000000000000000000000000000000000000000000000000815260206004820152601560248201527f475076323a206661696c6564207472616e7366657200000000000000000000006044820152606401610730565b50505050565b60006040517f095ea7b300000000000000000000000000000000000000000000000000000000815273ffffffffffffffffffffffffffffffffffffffff84166004820152826024820152602060006044836000895af13d15601f3d1160016000511416171691505080610f8b576040517f08c379a000000000000000000000000000000000000000000000000000000000815260206004820152600e60248201527f415050524f56455f4641494c45440000000000000000000000000000000000006044820152606401610730565b805160000361109b576040517f67e1b70700000000000000000000000000000000000000000000000000000000815260040160405180910390fd5b805181602001fd5b60006110e2565b7f08c379a000000000000000000000000000000000000000000000000000000000600052602060045280602452508060445260646000fd5b3d8015611121576020811461115b5761111c7f475076323a206d616c666f726d6564207472616e7366657220726573756c7400601f6110aa565b611168565b823b611152576111527f475076323a206e6f74206120636f6e747261637400000000000000000000000060146110aa565b60019150611168565b3d6000803e600051151591505b50919050565b803573ffffffffffffffffffffffffffffffffffffffff8116811461119257600080fd5b919050565b60008083601f8401126111a957600080fd5b50813567ffffffffffffffff8111156111c157600080fd5b6020830191508360208285010111156111d957600080fd5b9250929050565b60008060008060008060008060006101008a8c0312156111ff57600080fd5b6112088a61116e565b985061121660208b0161116e565b975060408a0135965060608a0135955060808a0135945060a08a013567ffffffffffffffff81111561124757600080fd5b6112538c828d01611197565b9095509350611266905060c08b0161116e565b915061127460e08b0161116e565b90509295985092959850929598565b60006020828403121561129557600080fd5b81357fffffffff00000000000000000000000000000000000000000000000000000000811681146108ae57600080fd5b600080600080600080600060c0888a0312156112e057600080fd5b6112e98861116e565b9650602088013595506040880135945060608801359350608088013567ffffffffffffffff81111561131a57600080fd5b6113268a828b01611197565b9094509250611339905060a0890161116e565b905092959891949750929550565b60008060008060008060008060e0898b03121561136357600080fd5b61136c8961116e565b975061137a60208a0161116e565b965060408901359550606089013594506080890135935060a089013567ffffffffffffffff8111156113ab57600080fd5b6113b78b828c01611197565b90945092506113ca905060c08a0161116e565b90509295985092959890939650565b7f4e487b7100000000000000000000000000000000000000000000000000000000600052604160045260246000fd5b604051601f82017fffffffffffffffffffffffffffffffffffffffffffffffffffffffffffffffe016810167ffffffffffffffff8111828210171561144f5761144f6113d9565b604052919050565b600082601f83011261146857600080fd5b8135602067ffffffffffffffff821115611484576114846113d9565b8160051b611493828201611408565b92835284810182019282810190878511156114ad57600080fd5b83870192505b848310156114cc578235825291830191908301906114b3565b979650505050505050565b600082601f8301126114e857600080fd5b813567ffffffffffffffff811115611502576115026113d9565b61153360207fffffffffffffffffffffffffffffffffffffffffffffffffffffffffffffffe0601f84011601611408565b81815284602083860101111561154857600080fd5b816020850160208301376000918101602001919091529392505050565b600080600080600060a0868803121561157d57600080fd5b6115868661116e565b94506115946020870161116e565b9350604086013567ffffffffffffffff808211156115b157600080fd5b6115bd89838a01611457565b945060608801359150808211156115d357600080fd5b6115df89838a01611457565b935060808801359150808211156115f557600080fd5b50611602888289016114d7565b9150509295509295909350565b600080600080600060a0868803121561162757600080fd5b6116308661116e565b945061163e6020870161116e565b93506040860135925060608601359150608086013567ffffffffffffffff81111561166857600080fd5b611602888289016114d7565b60008060008060008060008060e0898b03121561169057600080fd5b6116998961116e565b9750602089013596506040890135955060608901359450608089013567ffffffffffffffff8111156116ca57600080fd5b6116d68b828c01611197565b90955093506116e9905060a08a0161116e565b91506113ca60c08a0161116e565b60006020828403121561170957600080fd5b5051919050565b818382376000910190815291905056fea264697066735822122092e64f2daf7c7cd9b7beecaab3e82e6f07d8ca5a0cfba29a46c9dac77e1ec51964736f6c63430008120033",
  "devdoc": {
    "author": "Solid World",
    "kind": "dev",
    "methods": {
      "onERC1155BatchReceived(address,address,uint256[],uint256[],bytes)": {
        "details": "accept transfers from this contract only"
      },
      "onERC1155Received(address,address,uint256,uint256,bytes)": {
        "details": "accept transfers from this contract only"
      },
      "supportsInterface(bytes4)": {
        "details": "Returns true if this contract implements the interface defined by `interfaceId`. See the corresponding https://eips.ethereum.org/EIPS/eip-165#how-interfaces-are-identified[EIP section] to learn more about how these ids are created. This function call must use less than 30 000 gas."
      },
      "zapCollateralize(address,address,uint256,uint256,uint256,bytes,address)": {
        "params": {
          "amountIn": "The amounts of forward credits to collateralize",
          "amountOutMin": "The minimum amounts of `crispToken` to receive from collateralization",
          "batchId": "The batch id of the forward credits to collateralize",
          "crispToken": "The intermediate token received for collateralizing forward credits",
          "dustRecipient": "Address to receive any remaining `crispToken` dust",
          "outputToken": "The actual token received for collateralizing forward credits",
          "swap": "Encoded swap from `crispToken` to `outputToken`"
        }
      },
      "zapCollateralize(address,address,uint256,uint256,uint256,bytes,address,address)": {
        "params": {
          "amountIn": "The amounts of forward credits to collateralize",
          "amountOutMin": "The minimum amounts of `crispToken` to receive from collateralization",
          "batchId": "The batch id of the forward credits to collateralize",
          "crispToken": "The intermediate token received for collateralizing forward credits",
          "dustRecipient": "Address to receive any remaining `crispToken` dust",
          "outputToken": "The actual token received for collateralizing forward credits",
          "swap": "Encoded swap from `crispToken` to `outputToken`",
          "zapRecipient": "Address to receive the resulting `outputToken` amount"
        }
      },
      "zapCollateralizeETH(address,uint256,uint256,uint256,bytes,address)": {
        "params": {
          "amountIn": "The amounts of forward credits to collateralize",
          "amountOutMin": "The minimum amounts of `crispToken` to receive from collateralization",
          "batchId": "The batch id of the forward credits to collateralize",
          "crispToken": "The intermediate token received for collateralizing forward credits",
          "dustRecipient": "Address to receive any remaining `crispToken` dust",
          "swap": "Encoded swap from `crispToken` to WETH"
        }
      },
      "zapCollateralizeETH(address,uint256,uint256,uint256,bytes,address,address)": {
        "params": {
          "amountIn": "The amounts of forward credits to collateralize",
          "amountOutMin": "The minimum amounts of `crispToken` to receive from collateralization",
          "batchId": "The batch id of the forward credits to collateralize",
          "crispToken": "The intermediate token received for collateralizing forward credits",
          "dustRecipient": "Address to receive any remaining `crispToken` dust",
          "swap": "Encoded swap from `crispToken` to WETH",
          "zapRecipient": "Address to receive the resulting ETH amount"
        }
      }
    },
    "version": 1
  },
  "userdoc": {
    "kind": "user",
    "methods": {
      "zapCollateralize(address,address,uint256,uint256,uint256,bytes,address)": {
        "notice": "Zap function that achieves the following: 1. Transfers `amountIn` forward credits with batch id `batchId` to this contract 2. Collateralizes the transferred forward credits via SolidWorldManager, receives `crispToken` 3. Swaps `crispToken` for `outputToken` via encoded swap 4. Transfers the `outputToken` balance of SolidZapCollateralize to `msg.sender` 5. Transfers remaining `crispToken` balance of SolidZapCollateralize to the `dustRecipient`The `msg.sender` must approve this contract to spend the forward credits"
      },
      "zapCollateralize(address,address,uint256,uint256,uint256,bytes,address,address)": {
        "notice": "Zap function that achieves the following: 1. Transfers `amountIn` forward credits with batch id `batchId` to this contract 2. Collateralizes the transferred forward credits via SolidWorldManager, receives `crispToken` 3. Swaps `crispToken` for `outputToken` via encoded swap 4. Transfers the `outputToken` balance of SolidZapCollateralize to `zapRecipient` 5. Transfers remaining `crispToken` balance of SolidZapCollateralize to the `dustRecipient`The `msg.sender` must approve this contract to spend the forward credits"
      },
      "zapCollateralizeETH(address,uint256,uint256,uint256,bytes,address)": {
        "notice": "Zap function that achieves the following: 1. Transfers `amountIn` forward credits with batch id `batchId` to this contract 2. Collateralizes the transferred forward credits via SolidWorldManager, receives `crispToken` 3. Swaps `crispToken` for WETH via encoded swap 4. Unwraps WETH to ETH 5. Transfers the ETH balance of SolidZapCollateralize to `msg.sender` 6. Transfers remaining `crispToken` balance of SolidZapCollateralize to the `dustRecipient`The `msg.sender` must approve this contract to spend the forward credits"
      },
      "zapCollateralizeETH(address,uint256,uint256,uint256,bytes,address,address)": {
        "notice": "Zap function that achieves the following: 1. Transfers `amountIn` forward credits with batch id `batchId` to this contract 2. Collateralizes the transferred forward credits via SolidWorldManager, receives `crispToken` 3. Swaps `crispToken` for WETH via encoded swap 4. Unwraps WETH to ETH 5. Transfers the ETH balance of SolidZapCollateralize to `zapRecipient` 6. Transfers remaining `crispToken` balance of SolidZapCollateralize to the `dustRecipient`The `msg.sender` must approve this contract to spend the forward credits"
      }
    },
    "version": 1
  },
  "storageLayout": {
    "storage": [
      {
        "astId": 2179,
        "contract": "contracts/zap/collateralize/SolidZapCollateralize.sol:SolidZapCollateralize",
        "label": "_status",
        "offset": 0,
        "slot": "0",
        "type": "t_uint256"
      }
    ],
    "types": {
      "t_uint256": {
        "encoding": "inplace",
        "label": "uint256",
        "numberOfBytes": "32"
      }
    }
  }
}