{
  "address": "0x9f96B5E9C5D4De5657f0b12d863006eD274fb101",
  "abi": [
    {
      "inputs": [
        {
          "internalType": "address",
          "name": "_router",
          "type": "address"
        },
        {
          "internalType": "address",
          "name": "_weth",
          "type": "address"
        },
        {
          "internalType": "address",
          "name": "_swManager",
          "type": "address"
        },
        {
          "internalType": "address",
          "name": "_forwardContractBatch",
          "type": "address"
        }
      ],
      "stateMutability": "nonpayable",
      "type": "constructor"
    },
    {
      "inputs": [],
      "name": "ETHTransferFailed",
      "type": "error"
    },
    {
      "inputs": [],
      "name": "GenericSwapError",
      "type": "error"
    },
    {
      "inputs": [],
      "name": "InvalidInput",
      "type": "error"
    },
    {
      "inputs": [],
      "name": "SweepAmountZero",
      "type": "error"
    },
    {
      "anonymous": false,
      "inputs": [
        {
          "indexed": true,
          "internalType": "address",
          "name": "receiver",
          "type": "address"
        },
        {
          "indexed": true,
          "internalType": "address",
          "name": "inputToken",
          "type": "address"
        },
        {
          "indexed": true,
          "internalType": "uint256",
          "name": "inputAmount",
          "type": "uint256"
        },
        {
          "indexed": false,
          "internalType": "uint256",
          "name": "dust",
          "type": "uint256"
        },
        {
          "indexed": false,
          "internalType": "address",
          "name": "dustRecipient",
          "type": "address"
        },
        {
          "indexed": false,
          "internalType": "uint256",
          "name": "categoryId",
          "type": "uint256"
        }
      ],
      "name": "ZapDecollateralize",
      "type": "event"
    },
    {
      "stateMutability": "payable",
      "type": "fallback"
    },
    {
      "inputs": [],
      "name": "forwardContractBatch",
      "outputs": [
        {
          "internalType": "address",
          "name": "",
          "type": "address"
        }
      ],
      "stateMutability": "view",
      "type": "function"
    },
    {
      "inputs": [
        {
          "internalType": "address",
          "name": "operator",
          "type": "address"
        },
        {
          "internalType": "address",
          "name": "",
          "type": "address"
        },
        {
          "internalType": "uint256[]",
          "name": "",
          "type": "uint256[]"
        },
        {
          "internalType": "uint256[]",
          "name": "",
          "type": "uint256[]"
        },
        {
          "internalType": "bytes",
          "name": "",
          "type": "bytes"
        }
      ],
      "name": "onERC1155BatchReceived",
      "outputs": [
        {
          "internalType": "bytes4",
          "name": "",
          "type": "bytes4"
        }
      ],
      "stateMutability": "nonpayable",
      "type": "function"
    },
    {
      "inputs": [
        {
          "internalType": "address",
          "name": "operator",
          "type": "address"
        },
        {
          "internalType": "address",
          "name": "",
          "type": "address"
        },
        {
          "internalType": "uint256",
          "name": "",
          "type": "uint256"
        },
        {
          "internalType": "uint256",
          "name": "",
          "type": "uint256"
        },
        {
          "internalType": "bytes",
          "name": "",
          "type": "bytes"
        }
      ],
      "name": "onERC1155Received",
      "outputs": [
        {
          "internalType": "bytes4",
          "name": "",
          "type": "bytes4"
        }
      ],
      "stateMutability": "nonpayable",
      "type": "function"
    },
    {
      "inputs": [],
      "name": "router",
      "outputs": [
        {
          "internalType": "address",
          "name": "",
          "type": "address"
        }
      ],
      "stateMutability": "view",
      "type": "function"
    },
    {
      "inputs": [
        {
          "internalType": "bytes4",
          "name": "interfaceId",
          "type": "bytes4"
        }
      ],
      "name": "supportsInterface",
      "outputs": [
        {
          "internalType": "bool",
          "name": "",
          "type": "bool"
        }
      ],
      "stateMutability": "pure",
      "type": "function"
    },
    {
      "inputs": [],
      "name": "swManager",
      "outputs": [
        {
          "internalType": "address",
          "name": "",
          "type": "address"
        }
      ],
      "stateMutability": "view",
      "type": "function"
    },
    {
      "inputs": [],
      "name": "weth",
      "outputs": [
        {
          "internalType": "address",
          "name": "",
          "type": "address"
        }
      ],
      "stateMutability": "view",
      "type": "function"
    },
    {
      "inputs": [
        {
          "internalType": "address",
          "name": "inputToken",
          "type": "address"
        },
        {
          "internalType": "uint256",
          "name": "inputAmount",
          "type": "uint256"
        },
        {
          "internalType": "address",
          "name": "crispToken",
          "type": "address"
        },
        {
          "internalType": "bytes",
          "name": "swap",
          "type": "bytes"
        },
        {
          "internalType": "address",
          "name": "dustRecipient",
          "type": "address"
        },
        {
          "components": [
            {
              "internalType": "uint256[]",
              "name": "batchIds",
              "type": "uint256[]"
            },
            {
              "internalType": "uint256[]",
              "name": "amountsIn",
              "type": "uint256[]"
            },
            {
              "internalType": "uint256[]",
              "name": "amountsOutMin",
              "type": "uint256[]"
            }
          ],
          "internalType": "struct ISolidZapDecollateralize.DecollateralizeParams",
          "name": "decollateralizeParams",
          "type": "tuple"
        }
      ],
      "name": "zapDecollateralize",
      "outputs": [],
      "stateMutability": "nonpayable",
      "type": "function"
    },
    {
      "inputs": [
        {
          "internalType": "address",
          "name": "inputToken",
          "type": "address"
        },
        {
          "internalType": "uint256",
          "name": "inputAmount",
          "type": "uint256"
        },
        {
          "internalType": "address",
          "name": "crispToken",
          "type": "address"
        },
        {
          "internalType": "bytes",
          "name": "swap",
          "type": "bytes"
        },
        {
          "internalType": "address",
          "name": "dustRecipient",
          "type": "address"
        },
        {
          "components": [
            {
              "internalType": "uint256[]",
              "name": "batchIds",
              "type": "uint256[]"
            },
            {
              "internalType": "uint256[]",
              "name": "amountsIn",
              "type": "uint256[]"
            },
            {
              "internalType": "uint256[]",
              "name": "amountsOutMin",
              "type": "uint256[]"
            }
          ],
          "internalType": "struct ISolidZapDecollateralize.DecollateralizeParams",
          "name": "decollateralizeParams",
          "type": "tuple"
        },
        {
          "internalType": "address",
          "name": "zapRecipient",
          "type": "address"
        }
      ],
      "name": "zapDecollateralize",
      "outputs": [],
      "stateMutability": "nonpayable",
      "type": "function"
    },
    {
      "inputs": [
        {
          "internalType": "address",
          "name": "crispToken",
          "type": "address"
        },
        {
          "internalType": "bytes",
          "name": "swap",
          "type": "bytes"
        },
        {
          "internalType": "address",
          "name": "dustRecipient",
          "type": "address"
        },
        {
          "components": [
            {
              "internalType": "uint256[]",
              "name": "batchIds",
              "type": "uint256[]"
            },
            {
              "internalType": "uint256[]",
              "name": "amountsIn",
              "type": "uint256[]"
            },
            {
              "internalType": "uint256[]",
              "name": "amountsOutMin",
              "type": "uint256[]"
            }
          ],
          "internalType": "struct ISolidZapDecollateralize.DecollateralizeParams",
          "name": "decollateralizeParams",
          "type": "tuple"
        },
        {
          "internalType": "address",
          "name": "zapRecipient",
          "type": "address"
        }
      ],
      "name": "zapDecollateralizeETH",
      "outputs": [],
      "stateMutability": "payable",
      "type": "function"
    },
    {
      "inputs": [
        {
          "internalType": "address",
          "name": "crispToken",
          "type": "address"
        },
        {
          "internalType": "bytes",
          "name": "swap",
          "type": "bytes"
        },
        {
          "internalType": "address",
          "name": "dustRecipient",
          "type": "address"
        },
        {
          "components": [
            {
              "internalType": "uint256[]",
              "name": "batchIds",
              "type": "uint256[]"
            },
            {
              "internalType": "uint256[]",
              "name": "amountsIn",
              "type": "uint256[]"
            },
            {
              "internalType": "uint256[]",
              "name": "amountsOutMin",
              "type": "uint256[]"
            }
          ],
          "internalType": "struct ISolidZapDecollateralize.DecollateralizeParams",
          "name": "decollateralizeParams",
          "type": "tuple"
        }
      ],
      "name": "zapDecollateralizeETH",
      "outputs": [],
      "stateMutability": "payable",
      "type": "function"
    },
    {
      "stateMutability": "payable",
      "type": "receive"
    }
  ],
  "transactionHash": "0x47f76d6959824164c85e42339cc7ddd744b267125a5fd004ea86ee59ac694bcf",
  "args": [
    "0xDef1C0ded9bec7F1a1670819833240f027b25EfF",
    "0x0d500B1d8E8eF31E21C99d1Db9A6444d3ADf1270",
    "0x2465E7F8A91a4e766566B3a529492AD34A9e6c54",
    "0x0C4fdD1e34603AF7E1e9Ce49a2a798719bDD9392"
  ],
  "numDeployments": 1,
  "solcInputHash": "bbba5fd6b9009c7d13f755a900ac7c26",
  "bytecode": "0x6101006040523480156200001257600080fd5b506040516200200f3803806200200f8339810160408190526200003591620000fe565b60016000556001600160a01b03848116608081905284821660a081905284831660c05291831660e05260405163095ea7b360e01b815260048101919091526000196024820152859185918591859163095ea7b3906044016020604051808303816000875af1158015620000ac573d6000803e3d6000fd5b505050506040513d601f19601f82011682018060405250810190620000d291906200015b565b50505050505050505062000186565b80516001600160a01b0381168114620000f957600080fd5b919050565b600080600080608085870312156200011557600080fd5b6200012085620000e1565b93506200013060208601620000e1565b92506200014060408601620000e1565b91506200015060608601620000e1565b905092959194509250565b6000602082840312156200016e57600080fd5b815180151581146200017f57600080fd5b9392505050565b60805160a05160c05160e051611de06200022f60003960008181610384015281816108cb0152610f2e0152600081816102850152818161056d0152818161066c015281816107df0152818161081a015261099a01526000818160dd0152818161014e0152818161020c015281816104ff01528181610529015281816105ff01526106290152600081816103500152818161044e015281816104a701526107b30152611de06000f3fe6080604052600436106100c05760003560e01c806383d56e1211610074578063f23a6e611161004e578063f23a6e611461031e578063f887ea401461033e578063fb5ba8eb1461037257610136565b806383d56e12146102a7578063bc197c81146102ba578063d4d15e171461030b57610136565b80633fc8cef3116100a55780633fc8cef3146101fa5780636a3df5631461025357806373d0eb6b1461027357610136565b806301ffc9a7146101a557806332ffa465146101da57610136565b36610136573373ffffffffffffffffffffffffffffffffffffffff7f00000000000000000000000000000000000000000000000000000000000000001614610134576040517fb12d13eb00000000000000000000000000000000000000000000000000000000815260040160405180910390fd5b005b3373ffffffffffffffffffffffffffffffffffffffff7f00000000000000000000000000000000000000000000000000000000000000001614610134576040517fb12d13eb00000000000000000000000000000000000000000000000000000000815260040160405180910390fd5b3480156101b157600080fd5b506101c56101c0366004611485565b6103a6565b60405190151581526020015b60405180910390f35b3480156101e657600080fd5b506101346101f536600461154b565b61043f565b34801561020657600080fd5b5061022e7f000000000000000000000000000000000000000000000000000000000000000081565b60405173ffffffffffffffffffffffffffffffffffffffff90911681526020016101d1565b34801561025f57600080fd5b5061013461026e3660046115f3565b610498565b34801561027f57600080fd5b5061022e7f000000000000000000000000000000000000000000000000000000000000000081565b6101346102b53660046116ab565b6104f2565b3480156102c657600080fd5b506102da6102d53660046118e3565b610569565b6040517fffffffff0000000000000000000000000000000000000000000000000000000090911681526020016101d1565b61013461031936600461198d565b6105f2565b34801561032a57600080fd5b506102da610339366004611a0e565b610668565b34801561034a57600080fd5b5061022e7f000000000000000000000000000000000000000000000000000000000000000081565b34801561037e57600080fd5b5061022e7f000000000000000000000000000000000000000000000000000000000000000081565b60007f01ffc9a7000000000000000000000000000000000000000000000000000000007fffffffff000000000000000000000000000000000000000000000000000000008316148061043957507f4e2312e0000000000000000000000000000000000000000000000000000000007fffffffff000000000000000000000000000000000000000000000000000000008316145b92915050565b6104476106f0565b61047287877f0000000000000000000000000000000000000000000000000000000000000000610768565b61048587878787878787336107996107ae565b61048f6001600055565b50505050505050565b6104a06106f0565b6104cb88887f0000000000000000000000000000000000000000000000000000000000000000610768565b6104de88888888888888886107996107ae565b6104e86001600055565b5050505050505050565b6104fa6106f0565b6105247f000000000000000000000000000000000000000000000000000000000000000034610ab0565b6105577f000000000000000000000000000000000000000000000000000000000000000034888888888888610b0c6107ae565b6105616001600055565b505050505050565b60007f000000000000000000000000000000000000000000000000000000000000000073ffffffffffffffffffffffffffffffffffffffff168673ffffffffffffffffffffffffffffffffffffffff16146105c6575060006105e9565b507fbc197c81000000000000000000000000000000000000000000000000000000005b95945050505050565b6105fa6106f0565b6106247f000000000000000000000000000000000000000000000000000000000000000034610ab0565b6106577f000000000000000000000000000000000000000000000000000000000000000034878787878733610b0c6107ae565b6106616001600055565b5050505050565b60007f000000000000000000000000000000000000000000000000000000000000000073ffffffffffffffffffffffffffffffffffffffff168673ffffffffffffffffffffffffffffffffffffffff16146106c5575060006105e9565b507ff23a6e610000000000000000000000000000000000000000000000000000000095945050505050565b600260005403610761576040517f08c379a000000000000000000000000000000000000000000000000000000000815260206004820152601f60248201527f5265656e7472616e637947756172643a207265656e7472616e742063616c6c0060448201526064015b60405180910390fd5b6002600055565b61078a73ffffffffffffffffffffffffffffffffffffffff8416333085610b1a565b6107948382610bf5565b505050565b60006107a783836000610cd7565b9392505050565b6107d97f00000000000000000000000000000000000000000000000000000000000000008787610dd3565b610803877f0000000000000000000000000000000000000000000000000000000000000000610bf5565b73ffffffffffffffffffffffffffffffffffffffff7f00000000000000000000000000000000000000000000000000000000000000001663940870dc6108498580611a73565b6108566020880188611a73565b61086360408a018a611a73565b6040518763ffffffff1660e01b815260040161088496959493929190611b26565b600060405180830381600087803b15801561089e57600080fd5b505af11580156108b2573d6000803e3d6000fd5b505073ffffffffffffffffffffffffffffffffffffffff7f0000000000000000000000000000000000000000000000000000000000000000169150632eb2c2d6905030846109008780611a73565b61091261090d8a80611a73565b610e52565b6040518663ffffffff1660e01b8152600401610932959493929190611b6f565b600060405180830381600087803b15801561094c57600080fd5b505af1158015610960573d6000803e3d6000fd5b5050505060006109708886610799565b90506109808a848463ffffffff16565b50600073ffffffffffffffffffffffffffffffffffffffff7f00000000000000000000000000000000000000000000000000000000000000001663a88fd94a6109c98780611a73565b60008181106109da576109da611bfe565b905060200201356040518263ffffffff1660e01b81526004016109ff91815260200190565b602060405180830381865afa158015610a1c573d6000803e3d6000fd5b505050506040513d601f19601f82011682018060405250810190610a409190611c2d565b6040805184815273ffffffffffffffffffffffffffffffffffffffff89811660208301529181018390529192508b91818e16918716907f90a1fbbf6c5359b6c8fbd1140c1132a6774bfcc2a94ad5754f3ef61d90a8f8219060600160405180910390a45050505050505050505050565b8173ffffffffffffffffffffffffffffffffffffffff1663d0e30db0826040518263ffffffff1660e01b81526004016000604051808303818588803b158015610af857600080fd5b505af115801561048f573d6000803e3d6000fd5b60006107a783836000610fd2565b6040517f23b872dd0000000000000000000000000000000000000000000000000000000080825273ffffffffffffffffffffffffffffffffffffffff8581166004840152841660248301526044820183905290600080606483828a5af1610b85573d6000803e3d6000fd5b50610b8f856111cf565b610661576040517f08c379a000000000000000000000000000000000000000000000000000000000815260206004820152601960248201527f475076323a206661696c6564207472616e7366657246726f6d000000000000006044820152606401610758565b6040517fdd62ed3e00000000000000000000000000000000000000000000000000000000815230600482015273ffffffffffffffffffffffffffffffffffffffff828116602483015283169063dd62ed3e90604401602060405180830381865afa158015610c67573d6000803e3d6000fd5b505050506040513d601f19601f82011682018060405250810190610c8b9190611c2d565b600003610cd357610cd373ffffffffffffffffffffffffffffffffffffffff8316827fffffffffffffffffffffffffffffffffffffffffffffffffffffffffffffffff61129a565b5050565b6040517f70a0823100000000000000000000000000000000000000000000000000000000815230600482015260009073ffffffffffffffffffffffffffffffffffffffff8516906370a0823190602401602060405180830381865afa158015610d44573d6000803e3d6000fd5b505050506040513d601f19601f82011682018060405250810190610d689190611c2d565b905080158015610d755750815b15610dac576040517ff2035b6300000000000000000000000000000000000000000000000000000000815260040160405180910390fd5b80156107a7576107a773ffffffffffffffffffffffffffffffffffffffff8516848361136f565b6000808473ffffffffffffffffffffffffffffffffffffffff168484604051610dfd929190611c46565b6000604051808303816000865af19150503d8060008114610e3a576040519150601f19603f3d011682016040523d82523d6000602084013e610e3f565b606091505b5091509150816106615761066181611442565b606060008267ffffffffffffffff811115610e6f57610e6f611748565b604051908082528060200260200182016040528015610e98578160200160208202803683370190505b50905060005b83811015610ef05730828281518110610eb957610eb9611bfe565b73ffffffffffffffffffffffffffffffffffffffff9092166020928302919091019091015280610ee881611c56565b915050610e9e565b506040517f4e1273f400000000000000000000000000000000000000000000000000000000815273ffffffffffffffffffffffffffffffffffffffff7f00000000000000000000000000000000000000000000000000000000000000001690634e1273f490610f6790849088908890600401611cb5565b600060405180830381865afa158015610f84573d6000803e3d6000fd5b505050506040513d6000823e601f3d9081017fffffffffffffffffffffffffffffffffffffffffffffffffffffffffffffffe0168201604052610fca9190810190611d24565b949350505050565b6040517f70a0823100000000000000000000000000000000000000000000000000000000815230600482015260009073ffffffffffffffffffffffffffffffffffffffff8516906370a0823190602401602060405180830381865afa15801561103f573d6000803e3d6000fd5b505050506040513d601f19601f820116820180604052508101906110639190611c2d565b9050801580156110705750815b156110a7576040517ff2035b6300000000000000000000000000000000000000000000000000000000815260040160405180910390fd5b80156107a7576040517f2e1a7d4d0000000000000000000000000000000000000000000000000000000081526004810182905273ffffffffffffffffffffffffffffffffffffffff851690632e1a7d4d90602401600060405180830381600087803b15801561111557600080fd5b505af1158015611129573d6000803e3d6000fd5b5050505060008373ffffffffffffffffffffffffffffffffffffffff168260405160006040518083038185875af1925050503d8060008114611187576040519150601f19603f3d011682016040523d82523d6000602084013e61118c565b606091505b50509050806111c7576040517fb12d13eb00000000000000000000000000000000000000000000000000000000815260040160405180910390fd5b509392505050565b600061120e565b7f08c379a000000000000000000000000000000000000000000000000000000000600052602060045280602452508060445260646000fd5b3d801561124d5760208114611287576112487f475076323a206d616c666f726d6564207472616e7366657220726573756c7400601f6111d6565b611294565b823b61127e5761127e7f475076323a206e6f74206120636f6e747261637400000000000000000000000060146111d6565b60019150611294565b3d6000803e600051151591505b50919050565b60006040517f095ea7b300000000000000000000000000000000000000000000000000000000815273ffffffffffffffffffffffffffffffffffffffff84166004820152826024820152602060006044836000895af13d15601f3d1160016000511416171691505080611369576040517f08c379a000000000000000000000000000000000000000000000000000000000815260206004820152600e60248201527f415050524f56455f4641494c45440000000000000000000000000000000000006044820152606401610758565b50505050565b6040517fa9059cbb0000000000000000000000000000000000000000000000000000000080825273ffffffffffffffffffffffffffffffffffffffff84166004830152602482018390529060008060448382895af16113d2573d6000803e3d6000fd5b506113dc846111cf565b611369576040517f08c379a000000000000000000000000000000000000000000000000000000000815260206004820152601560248201527f475076323a206661696c6564207472616e7366657200000000000000000000006044820152606401610758565b805160000361147d576040517f67e1b70700000000000000000000000000000000000000000000000000000000815260040160405180910390fd5b805181602001fd5b60006020828403121561149757600080fd5b81357fffffffff00000000000000000000000000000000000000000000000000000000811681146107a757600080fd5b803573ffffffffffffffffffffffffffffffffffffffff811681146114eb57600080fd5b919050565b60008083601f84011261150257600080fd5b50813567ffffffffffffffff81111561151a57600080fd5b60208301915083602082850101111561153257600080fd5b9250929050565b60006060828403121561129457600080fd5b600080600080600080600060c0888a03121561156657600080fd5b61156f886114c7565b965060208801359550611584604089016114c7565b9450606088013567ffffffffffffffff808211156115a157600080fd5b6115ad8b838c016114f0565b90965094508491506115c160808b016114c7565b935060a08a01359150808211156115d757600080fd5b506115e48a828b01611539565b91505092959891949750929550565b60008060008060008060008060e0898b03121561160f57600080fd5b611618896114c7565b97506020890135965061162d60408a016114c7565b9550606089013567ffffffffffffffff8082111561164a57600080fd5b6116568c838d016114f0565b909750955085915061166a60808c016114c7565b945060a08b013591508082111561168057600080fd5b5061168d8b828c01611539565b92505061169c60c08a016114c7565b90509295985092959890939650565b60008060008060008060a087890312156116c457600080fd5b6116cd876114c7565b9550602087013567ffffffffffffffff808211156116ea57600080fd5b6116f68a838b016114f0565b909750955085915061170a60408a016114c7565b9450606089013591508082111561172057600080fd5b5061172d89828a01611539565b92505061173c608088016114c7565b90509295509295509295565b7f4e487b7100000000000000000000000000000000000000000000000000000000600052604160045260246000fd5b604051601f82017fffffffffffffffffffffffffffffffffffffffffffffffffffffffffffffffe016810167ffffffffffffffff811182821017156117be576117be611748565b604052919050565b600067ffffffffffffffff8211156117e0576117e0611748565b5060051b60200190565b600082601f8301126117fb57600080fd5b8135602061181061180b836117c6565b611777565b82815260059290921b8401810191818101908684111561182f57600080fd5b8286015b8481101561184a5780358352918301918301611833565b509695505050505050565b600082601f83011261186657600080fd5b813567ffffffffffffffff81111561188057611880611748565b6118b160207fffffffffffffffffffffffffffffffffffffffffffffffffffffffffffffffe0601f84011601611777565b8181528460208386010111156118c657600080fd5b816020850160208301376000918101602001919091529392505050565b600080600080600060a086880312156118fb57600080fd5b611904866114c7565b9450611912602087016114c7565b9350604086013567ffffffffffffffff8082111561192f57600080fd5b61193b89838a016117ea565b9450606088013591508082111561195157600080fd5b61195d89838a016117ea565b9350608088013591508082111561197357600080fd5b5061198088828901611855565b9150509295509295909350565b6000806000806000608086880312156119a557600080fd5b6119ae866114c7565b9450602086013567ffffffffffffffff808211156119cb57600080fd5b6119d789838a016114f0565b90965094508491506119eb604089016114c7565b93506060880135915080821115611a0157600080fd5b5061198088828901611539565b600080600080600060a08688031215611a2657600080fd5b611a2f866114c7565b9450611a3d602087016114c7565b93506040860135925060608601359150608086013567ffffffffffffffff811115611a6757600080fd5b61198088828901611855565b60008083357fffffffffffffffffffffffffffffffffffffffffffffffffffffffffffffffe1843603018112611aa857600080fd5b83018035915067ffffffffffffffff821115611ac357600080fd5b6020019150600581901b360382131561153257600080fd5b81835260007f07ffffffffffffffffffffffffffffffffffffffffffffffffffffffffffffff831115611b0d57600080fd5b8260051b80836020870137939093016020019392505050565b606081526000611b3a60608301888a611adb565b8281036020840152611b4d818789611adb565b90508281036040840152611b62818587611adb565b9998505050505050505050565b600073ffffffffffffffffffffffffffffffffffffffff808816835260208188168185015260a06040850152611ba960a085018789611adb565b8481036060860152855180825282870193509082019060005b81811015611bde57845183529383019391830191600101611bc2565b505084810360808601526000815281810193505050509695505050505050565b7f4e487b7100000000000000000000000000000000000000000000000000000000600052603260045260246000fd5b600060208284031215611c3f57600080fd5b5051919050565b8183823760009101908152919050565b60007fffffffffffffffffffffffffffffffffffffffffffffffffffffffffffffffff8203611cae577f4e487b7100000000000000000000000000000000000000000000000000000000600052601160045260246000fd5b5060010190565b604080825284519082018190526000906020906060840190828801845b82811015611d0457815173ffffffffffffffffffffffffffffffffffffffff1684529284019290840190600101611cd2565b50505083810382850152611d19818688611adb565b979650505050505050565b60006020808385031215611d3757600080fd5b825167ffffffffffffffff811115611d4e57600080fd5b8301601f81018513611d5f57600080fd5b8051611d6d61180b826117c6565b81815260059190911b82018301908381019087831115611d8c57600080fd5b928401925b82841015611d1957835182529284019290840190611d9156fea264697066735822122040cd563dc0a8c8b58ce732c035d98e2883425847f2864be8b530c525ea4c648764736f6c63430008120033",
  "devdoc": {
    "author": "Solid World",
    "kind": "dev",
    "methods": {
      "onERC1155BatchReceived(address,address,uint256[],uint256[],bytes)": {
        "details": "accept transfers from swManager contract only"
      },
      "onERC1155Received(address,address,uint256,uint256,bytes)": {
        "details": "accept transfers from swManager contract only"
      },
      "supportsInterface(bytes4)": {
        "details": "Returns true if this contract implements the interface defined by `interfaceId`. See the corresponding https://eips.ethereum.org/EIPS/eip-165#how-interfaces-are-identified[EIP section] to learn more about how these ids are created. This function call must use less than 30 000 gas."
      },
      "zapDecollateralize(address,uint256,address,bytes,address,(uint256[],uint256[],uint256[]))": {
        "params": {
          "crispToken": "The intermediate token used for redeeming forward credits",
          "decollateralizeParams": "Parameters for decollateralization  batchIds The batch ids of the forward credits to redeem  amountsIn The amounts of `crispToken` to used to redeem forward credits  amountsOutMin The minimum amounts of forward credits to receive",
          "dustRecipient": "Address to receive any remaining crisp tokens dust",
          "inputAmount": "The amount of `inputToken` to use",
          "inputToken": "The token used for redeeming forward credits",
          "swap": "Encoded swap from `inputToken` to `crispToken`"
        }
      },
      "zapDecollateralize(address,uint256,address,bytes,address,(uint256[],uint256[],uint256[]),address)": {
        "params": {
          "crispToken": "The intermediate token used for redeeming forward credits",
          "decollateralizeParams": "Parameters for decollateralization  batchIds The batch ids of the forward credits to redeem  amountsIn The amounts of `crispToken` to used to redeem forward credits  amountsOutMin The minimum amounts of forward credits to receive",
          "dustRecipient": "Address to receive any remaining crisp tokens dust",
          "inputAmount": "The amount of `inputToken` to use",
          "inputToken": "The token used for redeeming forward credits",
          "swap": "Encoded swap from `inputToken` to `crispToken`",
          "zapRecipient": "The address to receive forward credits"
        }
      },
      "zapDecollateralizeETH(address,bytes,address,(uint256[],uint256[],uint256[]))": {
        "params": {
          "crispToken": "The intermediate token used for redeeming forward credits",
          "decollateralizeParams": "Parameters for decollateralization  batchIds The batch ids of the forward credits to redeem  amountsIn The amounts of `crispToken` to used to redeem forward credits  amountsOutMin The minimum amounts of forward credits to receive",
          "dustRecipient": "Address to receive any remaining crisp tokens dust",
          "swap": "Encoded swap from `inputToken` to `crispToken`"
        }
      },
      "zapDecollateralizeETH(address,bytes,address,(uint256[],uint256[],uint256[]),address)": {
        "params": {
          "crispToken": "The intermediate token used for redeeming forward credits",
          "decollateralizeParams": "Parameters for decollateralization  batchIds The batch ids of the forward credits to redeem  amountsIn The amounts of `crispToken` to used to redeem forward credits  amountsOutMin The minimum amounts of forward credits to receive",
          "dustRecipient": "Address to receive any remaining crisp tokens dust",
          "swap": "Encoded swap from `inputToken` to `crispToken`",
          "zapRecipient": "The address to receive forward credits"
        }
      }
    },
    "version": 1
  },
  "userdoc": {
    "kind": "user",
    "methods": {
      "zapDecollateralize(address,uint256,address,bytes,address,(uint256[],uint256[],uint256[]))": {
        "notice": "Zap function that achieves the following: 1. Swaps `inputToken` to `crispToken` via encoded swap 2. Decollateralizes resulting tokens to forward credits via SolidWorldManager 3. Transfers resulting forward credits to `msg.sender` 4. Transfers remaining crisp token balance of SolidZapDecollateralize to the `dustRecipient`The `msg.sender` must own `inputAmount` and approve this contract to spend `inputToken`"
      },
      "zapDecollateralize(address,uint256,address,bytes,address,(uint256[],uint256[],uint256[]),address)": {
        "notice": "Zap function that achieves the following: 1. Swaps `inputToken` to `crispToken` via encoded swap 2. Decollateralizes resulting tokens to forward credits via SolidWorldManager 3. Transfers resulting forward credits to `zapRecipient` 4. Transfers remaining crisp token balance of SolidZapDecollateralize to the `dustRecipient`The msg.sender must own `inputAmount` and approve this contract to spend `inputToken`"
      },
      "zapDecollateralizeETH(address,bytes,address,(uint256[],uint256[],uint256[]))": {
        "notice": "Zap function that achieves the following: 1. Wraps `msg.value` to WETH 2. Swaps `WETH` to `crispToken` via encoded swap 3. Decollateralizes resulting tokens to forward credits via SolidWorldManager 4. Transfers resulting forward credits to `msg.sender` 5. Transfers remaining crisp token balance of SolidZapDecollateralize to the `dustRecipient`"
      },
      "zapDecollateralizeETH(address,bytes,address,(uint256[],uint256[],uint256[]),address)": {
        "notice": "Zap function that achieves the following: 1. Wraps `msg.value` to WETH 2. Swaps `WETH` to `crispToken` via encoded swap 3. Decollateralizes resulting tokens to forward credits via SolidWorldManager 4. Transfers resulting forward credits to `zapRecipient` 5. Transfers remaining crisp token balance of SolidZapDecollateralize to the `dustRecipient`"
      }
    },
    "version": 1
  },
  "storageLayout": {
    "storage": [
      {
        "astId": 2179,
        "contract": "contracts/zap/decollateralize/SolidZapDecollateralize.sol:SolidZapDecollateralize",
        "label": "_status",
        "offset": 0,
        "slot": "0",
        "type": "t_uint256"
      }
    ],
    "types": {
      "t_uint256": {
        "encoding": "inplace",
        "label": "uint256",
        "numberOfBytes": "32"
      }
    }
  }
}