{
  "address": "0xd6Ec6dDf8d018Da48E3D1d60901E9eA6f8911F84",
  "abi": [
    {
      "inputs": [],
      "name": "NotPaused",
      "type": "error"
    },
    {
      "inputs": [],
      "name": "Paused",
      "type": "error"
    },
    {
      "anonymous": false,
      "inputs": [
        {
          "indexed": true,
          "internalType": "address",
          "name": "feeReceiver",
          "type": "address"
        }
      ],
      "name": "FeeReceiverUpdated",
      "type": "event"
    },
    {
      "anonymous": false,
      "inputs": [
        {
          "indexed": false,
          "internalType": "uint8",
          "name": "version",
          "type": "uint8"
        }
      ],
      "name": "Initialized",
      "type": "event"
    },
    {
      "anonymous": false,
      "inputs": [
        {
          "indexed": true,
          "internalType": "address",
          "name": "previousOwner",
          "type": "address"
        },
        {
          "indexed": true,
          "internalType": "address",
          "name": "newOwner",
          "type": "address"
        }
      ],
      "name": "OwnershipTransferred",
      "type": "event"
    },
    {
      "anonymous": false,
      "inputs": [],
      "name": "Pause",
      "type": "event"
    },
    {
      "anonymous": false,
      "inputs": [],
      "name": "Unpause",
      "type": "event"
    },
    {
      "inputs": [
        {
          "components": [
            {
              "internalType": "uint256",
              "name": "id",
              "type": "uint256"
            },
            {
              "internalType": "uint256",
              "name": "projectId",
              "type": "uint256"
            },
            {
              "internalType": "uint256",
              "name": "collateralizedCredits",
              "type": "uint256"
            },
            {
              "internalType": "address",
              "name": "supplier",
              "type": "address"
            },
            {
              "internalType": "uint32",
              "name": "certificationDate",
              "type": "uint32"
            },
            {
              "internalType": "uint16",
              "name": "vintage",
              "type": "uint16"
            },
            {
              "internalType": "uint8",
              "name": "status",
              "type": "uint8"
            },
            {
              "internalType": "uint24",
              "name": "batchTA",
              "type": "uint24"
            },
            {
              "internalType": "bool",
              "name": "isAccumulating",
              "type": "bool"
            }
          ],
          "internalType": "struct DomainDataTypes.Batch",
          "name": "batch",
          "type": "tuple"
        },
        {
          "internalType": "uint256",
          "name": "mintableAmount",
          "type": "uint256"
        }
      ],
      "name": "addBatch",
      "outputs": [],
      "stateMutability": "nonpayable",
      "type": "function"
    },
    {
      "inputs": [
        {
          "internalType": "uint256",
          "name": "categoryId",
          "type": "uint256"
        },
        {
          "internalType": "string",
          "name": "tokenName",
          "type": "string"
        },
        {
          "internalType": "string",
          "name": "tokenSymbol",
          "type": "string"
        },
        {
          "internalType": "uint24",
          "name": "initialTA",
          "type": "uint24"
        }
      ],
      "name": "addCategory",
      "outputs": [],
      "stateMutability": "nonpayable",
      "type": "function"
    },
    {
      "inputs": [
        {
          "internalType": "uint256",
          "name": "categoryId",
          "type": "uint256"
        },
        {
          "internalType": "uint256",
          "name": "projectId",
          "type": "uint256"
        }
      ],
      "name": "addProject",
      "outputs": [],
      "stateMutability": "nonpayable",
      "type": "function"
    },
    {
      "inputs": [
        {
          "internalType": "uint256[]",
          "name": "batchIds",
          "type": "uint256[]"
        },
        {
          "internalType": "uint256[]",
          "name": "amountsIn",
          "type": "uint256[]"
        },
        {
          "internalType": "uint256[]",
          "name": "amountsOutMin",
          "type": "uint256[]"
        }
      ],
      "name": "bulkDecollateralizeTokens",
      "outputs": [],
      "stateMutability": "nonpayable",
      "type": "function"
    },
    {
      "inputs": [
        {
          "internalType": "uint256",
          "name": "batchId",
          "type": "uint256"
        },
        {
          "internalType": "uint256",
          "name": "amountIn",
          "type": "uint256"
        },
        {
          "internalType": "uint256",
          "name": "amountOutMin",
          "type": "uint256"
        }
      ],
      "name": "collateralizeBatch",
      "outputs": [],
      "stateMutability": "nonpayable",
      "type": "function"
    },
    {
      "inputs": [],
      "name": "collateralizedBasketTokenDeployer",
      "outputs": [
        {
          "internalType": "contract CollateralizedBasketTokenDeployer",
          "name": "",
          "type": "address"
        }
      ],
      "stateMutability": "view",
      "type": "function"
    },
    {
      "inputs": [
        {
          "internalType": "uint256[]",
          "name": "categoryIds",
          "type": "uint256[]"
        }
      ],
      "name": "computeWeeklyCarbonRewards",
      "outputs": [
        {
          "internalType": "address[]",
          "name": "",
          "type": "address[]"
        },
        {
          "internalType": "uint256[]",
          "name": "",
          "type": "uint256[]"
        },
        {
          "internalType": "uint256[]",
          "name": "",
          "type": "uint256[]"
        }
      ],
      "stateMutability": "view",
      "type": "function"
    },
    {
      "inputs": [
        {
          "internalType": "uint256",
          "name": "batchId",
          "type": "uint256"
        },
        {
          "internalType": "uint256",
          "name": "amountIn",
          "type": "uint256"
        },
        {
          "internalType": "uint256",
          "name": "amountOutMin",
          "type": "uint256"
        }
      ],
      "name": "decollateralizeTokens",
      "outputs": [],
      "stateMutability": "nonpayable",
      "type": "function"
    },
    {
      "inputs": [],
      "name": "forwardContractBatch",
      "outputs": [
        {
          "internalType": "contract ForwardContractBatchToken",
          "name": "",
          "type": "address"
        }
      ],
      "stateMutability": "view",
      "type": "function"
    },
    {
      "inputs": [
        {
          "internalType": "uint256",
          "name": "batchId",
          "type": "uint256"
        }
      ],
      "name": "getBatch",
      "outputs": [
        {
          "components": [
            {
              "internalType": "uint256",
              "name": "id",
              "type": "uint256"
            },
            {
              "internalType": "uint256",
              "name": "projectId",
              "type": "uint256"
            },
            {
              "internalType": "uint256",
              "name": "collateralizedCredits",
              "type": "uint256"
            },
            {
              "internalType": "address",
              "name": "supplier",
              "type": "address"
            },
            {
              "internalType": "uint32",
              "name": "certificationDate",
              "type": "uint32"
            },
            {
              "internalType": "uint16",
              "name": "vintage",
              "type": "uint16"
            },
            {
              "internalType": "uint8",
              "name": "status",
              "type": "uint8"
            },
            {
              "internalType": "uint24",
              "name": "batchTA",
              "type": "uint24"
            },
            {
              "internalType": "bool",
              "name": "isAccumulating",
              "type": "bool"
            }
          ],
          "internalType": "struct DomainDataTypes.Batch",
          "name": "",
          "type": "tuple"
        }
      ],
      "stateMutability": "view",
      "type": "function"
    },
    {
      "inputs": [
        {
          "internalType": "uint256",
          "name": "batchId",
          "type": "uint256"
        }
      ],
      "name": "getBatchCategory",
      "outputs": [
        {
          "internalType": "uint256",
          "name": "",
          "type": "uint256"
        }
      ],
      "stateMutability": "view",
      "type": "function"
    },
    {
      "inputs": [
        {
          "internalType": "uint256",
          "name": "index",
          "type": "uint256"
        }
      ],
      "name": "getBatchId",
      "outputs": [
        {
          "internalType": "uint256",
          "name": "",
          "type": "uint256"
        }
      ],
      "stateMutability": "view",
      "type": "function"
    },
    {
      "inputs": [
        {
          "internalType": "uint256",
          "name": "projectId",
          "type": "uint256"
        }
      ],
      "name": "getBatchIdsByProject",
      "outputs": [
        {
          "internalType": "uint256[]",
          "name": "",
          "type": "uint256[]"
        }
      ],
      "stateMutability": "view",
      "type": "function"
    },
    {
      "inputs": [
        {
          "internalType": "uint256",
          "name": "projectId",
          "type": "uint256"
        },
        {
          "internalType": "uint256",
          "name": "vintage",
          "type": "uint256"
        }
      ],
      "name": "getBatchesDecollateralizationInfo",
      "outputs": [
        {
          "components": [
            {
              "internalType": "uint256",
              "name": "batchId",
              "type": "uint256"
            },
            {
              "internalType": "uint256",
              "name": "availableBatchTokens",
              "type": "uint256"
            },
            {
              "internalType": "uint256",
              "name": "amountOut",
              "type": "uint256"
            },
            {
              "internalType": "uint256",
              "name": "minAmountIn",
              "type": "uint256"
            },
            {
              "internalType": "uint256",
              "name": "minCbtDaoCut",
              "type": "uint256"
            }
          ],
          "internalType": "struct DomainDataTypes.TokenDecollateralizationInfo[]",
          "name": "",
          "type": "tuple[]"
        }
      ],
      "stateMutability": "view",
      "type": "function"
    },
    {
      "inputs": [
        {
          "internalType": "uint256",
          "name": "categoryId",
          "type": "uint256"
        }
      ],
      "name": "getCategory",
      "outputs": [
        {
          "components": [
            {
              "internalType": "uint256",
              "name": "volumeCoefficient",
              "type": "uint256"
            },
            {
              "internalType": "uint40",
              "name": "decayPerSecond",
              "type": "uint40"
            },
            {
              "internalType": "uint16",
              "name": "maxDepreciation",
              "type": "uint16"
            },
            {
              "internalType": "uint24",
              "name": "averageTA",
              "type": "uint24"
            },
            {
              "internalType": "uint256",
              "name": "totalCollateralized",
              "type": "uint256"
            },
            {
              "internalType": "uint32",
              "name": "lastCollateralizationTimestamp",
              "type": "uint32"
            },
            {
              "internalType": "uint256",
              "name": "lastCollateralizationMomentum",
              "type": "uint256"
            }
          ],
          "internalType": "struct DomainDataTypes.Category",
          "name": "",
          "type": "tuple"
        }
      ],
      "stateMutability": "view",
      "type": "function"
    },
    {
      "inputs": [
        {
          "internalType": "uint256",
          "name": "categoryId",
          "type": "uint256"
        }
      ],
      "name": "getCategoryProjects",
      "outputs": [
        {
          "internalType": "uint256[]",
          "name": "",
          "type": "uint256[]"
        }
      ],
      "stateMutability": "view",
      "type": "function"
    },
    {
      "inputs": [
        {
          "internalType": "uint256",
          "name": "categoryId",
          "type": "uint256"
        }
      ],
      "name": "getCategoryToken",
      "outputs": [
        {
          "internalType": "contract CollateralizedBasketToken",
          "name": "",
          "type": "address"
        }
      ],
      "stateMutability": "view",
      "type": "function"
    },
    {
      "inputs": [],
      "name": "getCollateralizationFee",
      "outputs": [
        {
          "internalType": "uint16",
          "name": "",
          "type": "uint16"
        }
      ],
      "stateMutability": "view",
      "type": "function"
    },
    {
      "inputs": [],
      "name": "getDecollateralizationFee",
      "outputs": [
        {
          "internalType": "uint16",
          "name": "",
          "type": "uint16"
        }
      ],
      "stateMutability": "view",
      "type": "function"
    },
    {
      "inputs": [],
      "name": "getFeeReceiver",
      "outputs": [
        {
          "internalType": "address",
          "name": "",
          "type": "address"
        }
      ],
      "stateMutability": "view",
      "type": "function"
    },
    {
      "inputs": [
        {
          "internalType": "uint256",
          "name": "projectId",
          "type": "uint256"
        }
      ],
      "name": "getProjectCategory",
      "outputs": [
        {
          "internalType": "uint256",
          "name": "",
          "type": "uint256"
        }
      ],
      "stateMutability": "view",
      "type": "function"
    },
    {
      "inputs": [
        {
          "internalType": "uint256",
          "name": "categoryId",
          "type": "uint256"
        }
      ],
      "name": "getProjectIdsByCategory",
      "outputs": [
        {
          "internalType": "uint256[]",
          "name": "",
          "type": "uint256[]"
        }
      ],
      "stateMutability": "view",
      "type": "function"
    },
    {
      "inputs": [],
      "name": "getRewardsFee",
      "outputs": [
        {
          "internalType": "uint16",
          "name": "",
          "type": "uint16"
        }
      ],
      "stateMutability": "view",
      "type": "function"
    },
    {
      "inputs": [],
      "name": "getWeeklyRewardsMinter",
      "outputs": [
        {
          "internalType": "address",
          "name": "",
          "type": "address"
        }
      ],
      "stateMutability": "view",
      "type": "function"
    },
    {
      "inputs": [
        {
          "internalType": "contract CollateralizedBasketTokenDeployer",
          "name": "collateralizedBasketTokenDeployer",
          "type": "address"
        },
        {
          "internalType": "contract ForwardContractBatchToken",
          "name": "forwardContractBatch",
          "type": "address"
        },
        {
          "internalType": "uint16",
          "name": "collateralizationFee",
          "type": "uint16"
        },
        {
          "internalType": "uint16",
          "name": "decollateralizationFee",
          "type": "uint16"
        },
        {
          "internalType": "uint16",
          "name": "rewardsFee",
          "type": "uint16"
        },
        {
          "internalType": "address",
          "name": "feeReceiver",
          "type": "address"
        },
        {
          "internalType": "address",
          "name": "weeklyRewardsMinter",
          "type": "address"
        },
        {
          "internalType": "address",
          "name": "owner",
          "type": "address"
        }
      ],
      "name": "initialize",
      "outputs": [],
      "stateMutability": "nonpayable",
      "type": "function"
    },
    {
      "inputs": [
        {
          "internalType": "uint256",
          "name": "batchId",
          "type": "uint256"
        }
      ],
      "name": "isBatchCreated",
      "outputs": [
        {
          "internalType": "bool",
          "name": "",
          "type": "bool"
        }
      ],
      "stateMutability": "view",
      "type": "function"
    },
    {
      "inputs": [
        {
          "internalType": "uint256",
          "name": "categoryId",
          "type": "uint256"
        }
      ],
      "name": "isCategoryCreated",
      "outputs": [
        {
          "internalType": "bool",
          "name": "",
          "type": "bool"
        }
      ],
      "stateMutability": "view",
      "type": "function"
    },
    {
      "inputs": [
        {
          "internalType": "uint256",
          "name": "projectId",
          "type": "uint256"
        }
      ],
      "name": "isProjectCreated",
      "outputs": [
        {
          "internalType": "bool",
          "name": "",
          "type": "bool"
        }
      ],
      "stateMutability": "view",
      "type": "function"
    },
    {
      "inputs": [
        {
          "internalType": "uint256[]",
          "name": "categoryIds",
          "type": "uint256[]"
        },
        {
          "internalType": "address[]",
          "name": "carbonRewards",
          "type": "address[]"
        },
        {
          "internalType": "uint256[]",
          "name": "rewardAmounts",
          "type": "uint256[]"
        },
        {
          "internalType": "uint256[]",
          "name": "rewardFees",
          "type": "uint256[]"
        },
        {
          "internalType": "address",
          "name": "rewardsVault",
          "type": "address"
        }
      ],
      "name": "mintWeeklyCarbonRewards",
      "outputs": [],
      "stateMutability": "nonpayable",
      "type": "function"
    },
    {
      "inputs": [
        {
          "internalType": "address",
          "name": "operator",
          "type": "address"
        },
        {
          "internalType": "address",
          "name": "",
          "type": "address"
        },
        {
          "internalType": "uint256[]",
          "name": "",
          "type": "uint256[]"
        },
        {
          "internalType": "uint256[]",
          "name": "",
          "type": "uint256[]"
        },
        {
          "internalType": "bytes",
          "name": "",
          "type": "bytes"
        }
      ],
      "name": "onERC1155BatchReceived",
      "outputs": [
        {
          "internalType": "bytes4",
          "name": "",
          "type": "bytes4"
        }
      ],
      "stateMutability": "nonpayable",
      "type": "function"
    },
    {
      "inputs": [
        {
          "internalType": "address",
          "name": "operator",
          "type": "address"
        },
        {
          "internalType": "address",
          "name": "",
          "type": "address"
        },
        {
          "internalType": "uint256",
          "name": "",
          "type": "uint256"
        },
        {
          "internalType": "uint256",
          "name": "",
          "type": "uint256"
        },
        {
          "internalType": "bytes",
          "name": "",
          "type": "bytes"
        }
      ],
      "name": "onERC1155Received",
      "outputs": [
        {
          "internalType": "bytes4",
          "name": "",
          "type": "bytes4"
        }
      ],
      "stateMutability": "nonpayable",
      "type": "function"
    },
    {
      "inputs": [],
      "name": "owner",
      "outputs": [
        {
          "internalType": "address",
          "name": "",
          "type": "address"
        }
      ],
      "stateMutability": "view",
      "type": "function"
    },
    {
      "inputs": [],
      "name": "pause",
      "outputs": [],
      "stateMutability": "nonpayable",
      "type": "function"
    },
    {
      "inputs": [],
      "name": "paused",
      "outputs": [
        {
          "internalType": "bool",
          "name": "",
          "type": "bool"
        }
      ],
      "stateMutability": "view",
      "type": "function"
    },
    {
      "inputs": [],
      "name": "renounceOwnership",
      "outputs": [],
      "stateMutability": "nonpayable",
      "type": "function"
    },
    {
      "inputs": [
        {
          "internalType": "uint256",
          "name": "batchId",
          "type": "uint256"
        },
        {
          "internalType": "bool",
          "name": "isAccumulating",
          "type": "bool"
        }
      ],
      "name": "setBatchAccumulating",
      "outputs": [],
      "stateMutability": "nonpayable",
      "type": "function"
    },
    {
      "inputs": [
        {
          "internalType": "uint256",
          "name": "batchId",
          "type": "uint256"
        },
        {
          "internalType": "uint32",
          "name": "certificationDate",
          "type": "uint32"
        }
      ],
      "name": "setBatchCertificationDate",
      "outputs": [],
      "stateMutability": "nonpayable",
      "type": "function"
    },
    {
      "inputs": [
        {
          "internalType": "uint16",
          "name": "collateralizationFee",
          "type": "uint16"
        }
      ],
      "name": "setCollateralizationFee",
      "outputs": [],
      "stateMutability": "nonpayable",
      "type": "function"
    },
    {
      "inputs": [
        {
          "internalType": "uint16",
          "name": "decollateralizationFee",
          "type": "uint16"
        }
      ],
      "name": "setDecollateralizationFee",
      "outputs": [],
      "stateMutability": "nonpayable",
      "type": "function"
    },
    {
      "inputs": [
        {
          "internalType": "address",
          "name": "feeReceiver",
          "type": "address"
        }
      ],
      "name": "setFeeReceiver",
      "outputs": [],
      "stateMutability": "nonpayable",
      "type": "function"
    },
    {
      "inputs": [
        {
          "internalType": "uint16",
          "name": "rewardsFee",
          "type": "uint16"
        }
      ],
      "name": "setRewardsFee",
      "outputs": [],
      "stateMutability": "nonpayable",
      "type": "function"
    },
    {
      "inputs": [
        {
          "internalType": "address",
          "name": "weeklyRewardsMinter",
          "type": "address"
        }
      ],
      "name": "setWeeklyRewardsMinter",
      "outputs": [],
      "stateMutability": "nonpayable",
      "type": "function"
    },
    {
      "inputs": [
        {
          "internalType": "uint256",
          "name": "batchId",
          "type": "uint256"
        },
        {
          "internalType": "uint256",
          "name": "amountIn",
          "type": "uint256"
        }
      ],
      "name": "simulateBatchCollateralization",
      "outputs": [
        {
          "internalType": "uint256",
          "name": "",
          "type": "uint256"
        },
        {
          "internalType": "uint256",
          "name": "",
          "type": "uint256"
        },
        {
          "internalType": "uint256",
          "name": "",
          "type": "uint256"
        }
      ],
      "stateMutability": "view",
      "type": "function"
    },
    {
      "inputs": [
        {
          "internalType": "uint256",
          "name": "batchId",
          "type": "uint256"
        },
        {
          "internalType": "uint256",
          "name": "amountIn",
          "type": "uint256"
        }
      ],
      "name": "simulateDecollateralization",
      "outputs": [
        {
          "internalType": "uint256",
          "name": "",
          "type": "uint256"
        },
        {
          "internalType": "uint256",
          "name": "",
          "type": "uint256"
        },
        {
          "internalType": "uint256",
          "name": "",
          "type": "uint256"
        }
      ],
      "stateMutability": "view",
      "type": "function"
    },
    {
      "inputs": [
        {
          "internalType": "bytes4",
          "name": "interfaceId",
          "type": "bytes4"
        }
      ],
      "name": "supportsInterface",
      "outputs": [
        {
          "internalType": "bool",
          "name": "",
          "type": "bool"
        }
      ],
      "stateMutability": "pure",
      "type": "function"
    },
    {
      "inputs": [
        {
          "internalType": "address",
          "name": "newOwner",
          "type": "address"
        }
      ],
      "name": "transferOwnership",
      "outputs": [],
      "stateMutability": "nonpayable",
      "type": "function"
    },
    {
      "inputs": [],
      "name": "unpause",
      "outputs": [],
      "stateMutability": "nonpayable",
      "type": "function"
    },
    {
      "inputs": [
        {
          "internalType": "uint256",
          "name": "categoryId",
          "type": "uint256"
        },
        {
          "internalType": "uint256",
          "name": "volumeCoefficient",
          "type": "uint256"
        },
        {
          "internalType": "uint40",
          "name": "decayPerSecond",
          "type": "uint40"
        },
        {
          "internalType": "uint16",
          "name": "maxDepreciation",
          "type": "uint16"
        }
      ],
      "name": "updateCategory",
      "outputs": [],
      "stateMutability": "nonpayable",
      "type": "function"
    }
  ],
  "transactionHash": "0x6ca125c87c1940ea1e09dfd95b5bb0ad9349e65bc1ecbec4c1b039ed07d61063",
  "args": [],
  "numDeployments": 1,
  "solcInputHash": "96e1907e0c1280cac36b3a1a5c8cf026",
  "bytecode": "0x608060405234801561001057600080fd5b506133ba806100206000396000f3fe608060405234801561001057600080fd5b50600436106103205760003560e01c806394c4fa85116101a7578063da12b235116100ee578063f2fde38b11610097578063f7c3fec211610071578063f7c3fec214610a73578063f9be94f214610a86578063fb5ba8eb14610a9957600080fd5b8063f2fde38b14610917578063f3052d261461092a578063f4a5cb8e14610a6057600080fd5b8063ef016cdd116100c8578063ef016cdd146108de578063efdcd974146108f1578063f23a6e611461090457600080fd5b8063da12b2351461081c578063e6bebba51461089d578063e8a35392146108c057600080fd5b8063bc197c8111610150578063c092c5c31161012a578063c092c5c314610842578063c7878a5714610855578063c7cad9051461087757600080fd5b8063bc197c81146107d8578063bf2de21a1461081c578063c007acf61461082f57600080fd5b8063a88fd94a11610181578063a88fd94a1461077d578063b505ab861461079d578063b99d5190146107b057600080fd5b806394c4fa8514610716578063a05955821461074c578063a3d334a11461075f57600080fd5b80635c975abb1161026b5780638456cb5911610214578063915e9913116101ee578063915e9913146106d057806393fa0581146106f0578063940870dc1461070357600080fd5b80638456cb59146106975780638af84a581461069f5780638da5cb5b146106b257600080fd5b8063715018a611610245578063715018a61461065c57806378227cb0146106645780637902298e1461067757600080fd5b80635c975abb146105ed5780636b22e8e1146105fa578063714b847c1461063957600080fd5b8063452b7957116102cd5780635ac44282116102a75780635ac44282146104425780635ba18df8146105c75780635c4e7a05146105da57600080fd5b8063452b7957146103ce578063558ff3831461040157806357b41a711461041457600080fd5b80632204561e116102fe5780632204561e146103905780632c5dd8a9146103b35780633f4ba83a146103c657600080fd5b806301ffc9a7146103255780630eae128e1461034d5780631fb0a62414610362575b600080fd5b6103386103333660046123c2565b610ab7565b60405190151581526020015b60405180910390f35b61036061035b366004612419565b610b50565b005b610375610370366004612445565b610be8565b60408051938452602084019290925290820152606001610344565b61033861039e366004612467565b60009081526099602052604090205460ff1690565b6103606103c1366004612492565b610c98565b610360610d2a565b60a65474010000000000000000000000000000000000000000900461ffff165b60405161ffff9091168152602001610344565b61036061040f3660046124ad565b610d3c565b610434610422366004612467565b6000908152609f602052604090205490565b604051908152602001610344565b6105ba610450366004612467565b6040805161012081018252600080825260208201819052918101829052606081018290526080810182905260a0810182905260c0810182905260e08101829052610100810191909152506000908152609c60209081526040918290208251610120810184528154815260018201549281019290925260028101549282019290925260039091015473ffffffffffffffffffffffffffffffffffffffff8116606083015263ffffffff74010000000000000000000000000000000000000000820416608083015261ffff780100000000000000000000000000000000000000000000000082041660a083015260ff7a0100000000000000000000000000000000000000000000000000008204811660c084015262ffffff7b0100000000000000000000000000000000000000000000000000000083041660e08401527e0100000000000000000000000000000000000000000000000000000000000090910416151561010082015290565b60405161034491906124df565b6103606105d53660046125f1565b610e48565b6103606105e83660046126c8565b610f23565b6097546103389060ff1681565b60a55473ffffffffffffffffffffffffffffffffffffffff165b60405173ffffffffffffffffffffffffffffffffffffffff9091168152602001610344565b610338610647366004612467565b60009081526098602052604090205460ff1690565b610360610f98565b610434610672366004612467565b610faa565b61068a610685366004612445565b610fd4565b60405161034491906126e5565b61036061109b565b6103606106ad366004612753565b6110ab565b60335473ffffffffffffffffffffffffffffffffffffffff16610614565b6106e36106de366004612467565b6114de565b6040516103449190612831565b6103756106fe366004612445565b611540565b610360610711366004612844565b6115a6565b610614610724366004612467565b6000908152609d602052604090205473ffffffffffffffffffffffffffffffffffffffff1690565b61036061075a366004612492565b6116ee565b60a45473ffffffffffffffffffffffffffffffffffffffff16610614565b61043461078b366004612467565b600090815260a0602052604090205490565b6103606107ab3660046128de565b611751565b60a6547801000000000000000000000000000000000000000000000000900461ffff166103ee565b6107eb6107e6366004612ace565b61189b565b6040517fffffffff000000000000000000000000000000000000000000000000000000009091168152602001610344565b6106e361082a366004612467565b6118ee565b61036061083d3660046128de565b61194e565b610360610850366004612b7c565b611a62565b610868610863366004612bce565b611b11565b60405161034493929190612c10565b60a654760100000000000000000000000000000000000000000000900461ffff166103ee565b6103386108ab366004612467565b6000908152609a602052604090205460ff1690565b60a65473ffffffffffffffffffffffffffffffffffffffff16610614565b6103606108ec366004612445565b611bd0565b6103606108ff3660046126c8565b611c37565b6107eb610912366004612c92565b611c4b565b6103606109253660046126c8565b611c9d565b6109f4610938366004612467565b6040805160e081018252600080825260208201819052918101829052606081018290526080810182905260a0810182905260c0810191909152506000908152609b6020908152604091829020825160e08101845281548152600182015464ffffffffff81169382019390935265010000000000830461ffff169381019390935267010000000000000090910462ffffff16606083015260028101546080830152600381015463ffffffff1660a08301526004015460c082015290565b6040516103449190600060e0820190508251825264ffffffffff602084015116602083015261ffff604084015116604083015262ffffff60608401511660608301526080830151608083015263ffffffff60a08401511660a083015260c083015160c083015292915050565b610360610a6e366004612d0f565b611d51565b610360610a81366004612492565b611dbd565b610360610a94366004612d87565b611e20565b60a35473ffffffffffffffffffffffffffffffffffffffff16610614565b60007f01ffc9a7000000000000000000000000000000000000000000000000000000007fffffffff0000000000000000000000000000000000000000000000000000000083161480610b4a57507f4e2312e0000000000000000000000000000000000000000000000000000000007fffffffff000000000000000000000000000000000000000000000000000000008316145b92915050565b610b58611ebd565b6040517ffbefa24f0000000000000000000000000000000000000000000000000000000081526098600482015260248101839052811515604482015273303A57bAecD2CbD1f40A96a3BF074856257a6CBb9063fbefa24f906064015b60006040518083038186803b158015610bcc57600080fd5b505af4158015610be0573d6000803e3d6000fd5b505050505050565b6040517f3c8f4d3f0000000000000000000000000000000000000000000000000000000081526098600482015260248101839052604481018290526000908190819073560368e809e4496c505411631C7bC28B0da7cF0e90633c8f4d3f906064015b606060405180830381865af4158015610c67573d6000803e3d6000fd5b505050506040513d601f19601f82011682018060405250810190610c8b9190612e10565b9250925092509250925092565b610ca0611ebd565b6040517f11bd86960000000000000000000000000000000000000000000000000000000081526098600482015261ffff8216602482015273560368e809e4496c505411631C7bC28B0da7cF0e906311bd8696906044015b60006040518083038186803b158015610d0f57600080fd5b505af4158015610d23573d6000803e3d6000fd5b5050505050565b610d32611ebd565b610d3a611f3e565b565b600260655403610dad576040517f08c379a000000000000000000000000000000000000000000000000000000000815260206004820152601f60248201527f5265656e7472616e637947756172643a207265656e7472616e742063616c6c0060448201526064015b60405180910390fd5b6002606555610dba611ebd565b6040517f4044acb000000000000000000000000000000000000000000000000000000000815273303A57bAecD2CbD1f40A96a3BF074856257a6CBb90634044acb090610e0f9060989086908690600401612e4f565b60006040518083038186803b158015610e2757600080fd5b505af4158015610e3b573d6000803e3d6000fd5b5050600160655550505050565b60975460ff1615610e85576040517f9e87fac800000000000000000000000000000000000000000000000000000000815260040160405180910390fd5b6040517f87475f200000000000000000000000000000000000000000000000000000000081527361cf3A68e90e550280d2145b16fDcd5085DD5C52906387475f2090610ee8906098908d908d908d908d908d908d908d908d908d90600401612f7e565b60006040518083038186803b158015610f0057600080fd5b505af4158015610f14573d6000803e3d6000fd5b50505050505050505050505050565b610f2b611ebd565b6040517f3273b4910000000000000000000000000000000000000000000000000000000081526098600482015273ffffffffffffffffffffffffffffffffffffffff821660248201527361cf3A68e90e550280d2145b16fDcd5085DD5C5290633273b49190604401610cf7565b610fa0611ebd565b610d3a6000611fcd565b60006098600a018281548110610fc257610fc261303f565b90600052602060002001549050919050565b6040517fad728ad50000000000000000000000000000000000000000000000000000000081526098600482015260248101839052604481018290526060907393Ab310eB10aE72255E26E858Cb4c1Ed7d115c599063ad728ad590606401600060405180830381865af415801561104e573d6000803e3d6000fd5b505050506040513d6000823e601f3d9081017fffffffffffffffffffffffffffffffffffffffffffffffffffffffffffffffe0168201604052611094919081019061306e565b9392505050565b6110a3611ebd565b610d3a612044565b600054610100900460ff16158080156110cb5750600054600160ff909116105b806110e55750303b1580156110e5575060005460ff166001145b611171576040517f08c379a000000000000000000000000000000000000000000000000000000000815260206004820152602e60248201527f496e697469616c697a61626c653a20636f6e747261637420697320616c72656160448201527f647920696e697469616c697a65640000000000000000000000000000000000006064820152608401610da4565b600080547fffffffffffffffffffffffffffffffffffffffffffffffffffffffffffffff0016600117905580156111cf57600080547fffffffffffffffffffffffffffffffffffffffffffffffffffffffffffff00ff166101001790555b6111d76120d7565b6111df612176565b6111e882611c9d565b60a4805473ffffffffffffffffffffffffffffffffffffffff8b81167fffffffffffffffffffffffff00000000000000000000000000000000000000009283161790925560a38054928b16929091169190911790556040517f11bd86960000000000000000000000000000000000000000000000000000000081526098600482015261ffff8816602482015273560368e809e4496c505411631C7bC28B0da7cF0e906311bd86969060440160006040518083038186803b1580156112ab57600080fd5b505af41580156112bf573d6000803e3d6000fd5b50506040517fa6400cc60000000000000000000000000000000000000000000000000000000081526098600482015261ffff891660248201527393Ab310eB10aE72255E26E858Cb4c1Ed7d115c59925063a6400cc6915060440160006040518083038186803b15801561133157600080fd5b505af4158015611345573d6000803e3d6000fd5b50506040517f5dae67cc0000000000000000000000000000000000000000000000000000000081526098600482015261ffff881660248201527361cf3A68e90e550280d2145b16fDcd5085DD5C529250635dae67cc915060440160006040518083038186803b1580156113b757600080fd5b505af41580156113cb573d6000803e3d6000fd5b505050506113d884612215565b6040517f3273b4910000000000000000000000000000000000000000000000000000000081526098600482015273ffffffffffffffffffffffffffffffffffffffff841660248201527361cf3A68e90e550280d2145b16fDcd5085DD5C5290633273b4919060440160006040518083038186803b15801561145857600080fd5b505af415801561146c573d6000803e3d6000fd5b5050505080156114d357600080547fffffffffffffffffffffffffffffffffffffffffffffffffffffffffffff00ff169055604051600181527f7f26b83ff96e1f2b6a682f133852f6798a09c465da95921460cefb38474024989060200160405180910390a15b505050505050505050565b600081815260a1602090815260409182902080548351818402810184019094528084526060939283018282801561153457602002820191906000526020600020905b815481526020019060010190808311611520575b50505050509050919050565b6040517febf2cd6b000000000000000000000000000000000000000000000000000000008152609860048201526024810183905260448101829052600090819081907393Ab310eB10aE72255E26E858Cb4c1Ed7d115c599063ebf2cd6b90606401610c4a565b600260655403611612576040517f08c379a000000000000000000000000000000000000000000000000000000000815260206004820152601f60248201527f5265656e7472616e637947756172643a207265656e7472616e742063616c6c006044820152606401610da4565b600260655560975460ff1615611654576040517f9e87fac800000000000000000000000000000000000000000000000000000000815260040160405180910390fd5b6040517f7e47ee650000000000000000000000000000000000000000000000000000000081527393Ab310eB10aE72255E26E858Cb4c1Ed7d115c5990637e47ee65906116b1906098908a908a908a908a908a908a90600401613140565b60006040518083038186803b1580156116c957600080fd5b505af41580156116dd573d6000803e3d6000fd5b505060016065555050505050505050565b6116f6611ebd565b6040517f5dae67cc0000000000000000000000000000000000000000000000000000000081526098600482015261ffff821660248201527361cf3A68e90e550280d2145b16fDcd5085DD5C5290635dae67cc90604401610cf7565b6002606554036117bd576040517f08c379a000000000000000000000000000000000000000000000000000000000815260206004820152601f60248201527f5265656e7472616e637947756172643a207265656e7472616e742063616c6c006044820152606401610da4565b600260655560975460ff16156117ff576040517f9e87fac800000000000000000000000000000000000000000000000000000000815260040160405180910390fd5b6040517f79be5d600000000000000000000000000000000000000000000000000000000081526098600482015260248101849052604481018390526064810182905273560368e809e4496c505411631C7bC28B0da7cF0e906379be5d60906084015b60006040518083038186803b15801561187957600080fd5b505af415801561188d573d6000803e3d6000fd5b505060016065555050505050565b600073ffffffffffffffffffffffffffffffffffffffff861630146118c2575060006118e5565b507fbc197c81000000000000000000000000000000000000000000000000000000005b95945050505050565b6000818152609e602090815260409182902080548351818402810184019094528084526060939283018282801561153457602002820191906000526020600020908154815260200190600101908083116115205750505050509050919050565b6002606554036119ba576040517f08c379a000000000000000000000000000000000000000000000000000000000815260206004820152601f60248201527f5265656e7472616e637947756172643a207265656e7472616e742063616c6c006044820152606401610da4565b600260655560975460ff16156119fc576040517f9e87fac800000000000000000000000000000000000000000000000000000000815260040160405180910390fd5b6040517f46edd1ef000000000000000000000000000000000000000000000000000000008152609860048201526024810184905260448101839052606481018290527393Ab310eB10aE72255E26E858Cb4c1Ed7d115c59906346edd1ef90608401611861565b611a6a611ebd565b6040517f7c924c6f00000000000000000000000000000000000000000000000000000000815260986004820152602481018590526044810184905264ffffffffff8316606482015261ffff8216608482015273303A57bAecD2CbD1f40A96a3BF074856257a6CBb90637c924c6f9060a40160006040518083038186803b158015611af357600080fd5b505af4158015611b07573d6000803e3d6000fd5b5050505050505050565b6040517f1b768ae0000000000000000000000000000000000000000000000000000000008152606090819081907361cf3A68e90e550280d2145b16fDcd5085DD5C5290631b768ae090611b6d9060989089908990600401613190565b600060405180830381865af4158015611b8a573d6000803e3d6000fd5b505050506040513d6000823e601f3d9081017fffffffffffffffffffffffffffffffffffffffffffffffffffffffffffffffe0168201604052610c8b9190810190613205565b611bd8611ebd565b6040517f2a463d1100000000000000000000000000000000000000000000000000000000815260986004820152602481018390526044810182905273303A57bAecD2CbD1f40A96a3BF074856257a6CBb90632a463d1190606401610bb4565b611c3f611ebd565b611c4881612215565b50565b600073ffffffffffffffffffffffffffffffffffffffff86163014611c72575060006118e5565b507ff23a6e610000000000000000000000000000000000000000000000000000000095945050505050565b611ca5611ebd565b73ffffffffffffffffffffffffffffffffffffffff8116611d48576040517f08c379a000000000000000000000000000000000000000000000000000000000815260206004820152602660248201527f4f776e61626c653a206e6577206f776e657220697320746865207a65726f206160448201527f64647265737300000000000000000000000000000000000000000000000000006064820152608401610da4565b611c4881611fcd565b611d59611ebd565b6040517f28c6ad9c000000000000000000000000000000000000000000000000000000008152609860048201526024810183905263ffffffff8216604482015273303A57bAecD2CbD1f40A96a3BF074856257a6CBb906328c6ad9c90606401610bb4565b611dc5611ebd565b6040517fa6400cc60000000000000000000000000000000000000000000000000000000081526098600482015261ffff821660248201527393Ab310eB10aE72255E26E858Cb4c1Ed7d115c599063a6400cc690604401610cf7565b611e28611ebd565b6040517fb160ad5b00000000000000000000000000000000000000000000000000000000815273303A57bAecD2CbD1f40A96a3BF074856257a6CBb9063b160ad5b90611e85906098908a908a908a908a908a908a90600401613337565b60006040518083038186803b158015611e9d57600080fd5b505af4158015611eb1573d6000803e3d6000fd5b50505050505050505050565b60335473ffffffffffffffffffffffffffffffffffffffff163314610d3a576040517f08c379a000000000000000000000000000000000000000000000000000000000815260206004820181905260248201527f4f776e61626c653a2063616c6c6572206973206e6f7420746865206f776e65726044820152606401610da4565b60975460ff16611f7a576040517f6cd6020100000000000000000000000000000000000000000000000000000000815260040160405180910390fd5b609780547fffffffffffffffffffffffffffffffffffffffffffffffffffffffffffffff001690556040517f7805862f689e2f13df9f062ff482ad3ad112aca9e0847911ed832e158c525b3390600090a1565b6033805473ffffffffffffffffffffffffffffffffffffffff8381167fffffffffffffffffffffffff0000000000000000000000000000000000000000831681179093556040519116919082907f8be0079c531659141344cd1fd0a4f28419497f9722a3daafe3b4186f6b6457e090600090a35050565b60975460ff1615612081576040517f9e87fac800000000000000000000000000000000000000000000000000000000815260040160405180910390fd5b609780547fffffffffffffffffffffffffffffffffffffffffffffffffffffffffffffff001660011790556040517f6985a02210a168e66602d3235cb6db0e70f92b3ba4d376a33c0f3d9434bff62590600090a1565b600054610100900460ff1661216e576040517f08c379a000000000000000000000000000000000000000000000000000000000815260206004820152602b60248201527f496e697469616c697a61626c653a20636f6e7472616374206973206e6f74206960448201527f6e697469616c697a696e670000000000000000000000000000000000000000006064820152608401610da4565b610d3a612284565b600054610100900460ff1661220d576040517f08c379a000000000000000000000000000000000000000000000000000000000815260206004820152602b60248201527f496e697469616c697a61626c653a20636f6e7472616374206973206e6f74206960448201527f6e697469616c697a696e670000000000000000000000000000000000000000006064820152608401610da4565b610d3a612324565b60a680547fffffffffffffffffffffffff00000000000000000000000000000000000000001673ffffffffffffffffffffffffffffffffffffffff83169081179091556040517f27aae5db36d94179909d019ae0b1ac7c16d96d953148f63c0f6a0a9c8ead79ee90600090a250565b600054610100900460ff1661231b576040517f08c379a000000000000000000000000000000000000000000000000000000000815260206004820152602b60248201527f496e697469616c697a61626c653a20636f6e7472616374206973206e6f74206960448201527f6e697469616c697a696e670000000000000000000000000000000000000000006064820152608401610da4565b610d3a33611fcd565b600054610100900460ff166123bb576040517f08c379a000000000000000000000000000000000000000000000000000000000815260206004820152602b60248201527f496e697469616c697a61626c653a20636f6e7472616374206973206e6f74206960448201527f6e697469616c697a696e670000000000000000000000000000000000000000006064820152608401610da4565b6001606555565b6000602082840312156123d457600080fd5b81357fffffffff000000000000000000000000000000000000000000000000000000008116811461109457600080fd5b8035801515811461241457600080fd5b919050565b6000806040838503121561242c57600080fd5b8235915061243c60208401612404565b90509250929050565b6000806040838503121561245857600080fd5b50508035926020909101359150565b60006020828403121561247957600080fd5b5035919050565b803561ffff8116811461241457600080fd5b6000602082840312156124a457600080fd5b61109482612480565b6000808284036101408112156124c257600080fd5b610120808212156124d257600080fd5b9395938601359450505050565b60006101208201905082518252602083015160208301526040830151604083015273ffffffffffffffffffffffffffffffffffffffff606084015116606083015263ffffffff608084015116608083015260a083015161254560a084018261ffff169052565b5060c083015161255a60c084018260ff169052565b5060e083015161257160e084018262ffffff169052565b50610100928301511515919092015290565b60008083601f84011261259557600080fd5b50813567ffffffffffffffff8111156125ad57600080fd5b6020830191508360208260051b85010111156125c857600080fd5b9250929050565b73ffffffffffffffffffffffffffffffffffffffff81168114611c4857600080fd5b600080600080600080600080600060a08a8c03121561260f57600080fd5b893567ffffffffffffffff8082111561262757600080fd5b6126338d838e01612583565b909b50995060208c013591508082111561264c57600080fd5b6126588d838e01612583565b909950975060408c013591508082111561267157600080fd5b61267d8d838e01612583565b909750955060608c013591508082111561269657600080fd5b506126a38c828d01612583565b90945092505060808a01356126b7816125cf565b809150509295985092959850929598565b6000602082840312156126da57600080fd5b8135611094816125cf565b602080825282518282018190526000919060409081850190868401855b828110156127465781518051855286810151878601528581015186860152606080820151908601526080908101519085015260a09093019290850190600101612702565b5091979650505050505050565b600080600080600080600080610100898b03121561277057600080fd5b883561277b816125cf565b9750602089013561278b816125cf565b965061279960408a01612480565b95506127a760608a01612480565b94506127b560808a01612480565b935060a08901356127c5816125cf565b925060c08901356127d5816125cf565b915060e08901356127e5816125cf565b809150509295985092959890939650565b600081518084526020808501945080840160005b838110156128265781518752958201959082019060010161280a565b509495945050505050565b60208152600061109460208301846127f6565b6000806000806000806060878903121561285d57600080fd5b863567ffffffffffffffff8082111561287557600080fd5b6128818a838b01612583565b9098509650602089013591508082111561289a57600080fd5b6128a68a838b01612583565b909650945060408901359150808211156128bf57600080fd5b506128cc89828a01612583565b979a9699509497509295939492505050565b6000806000606084860312156128f357600080fd5b505081359360208301359350604090920135919050565b7f4e487b7100000000000000000000000000000000000000000000000000000000600052604160045260246000fd5b60405160a0810167ffffffffffffffff8111828210171561295c5761295c61290a565b60405290565b604051601f82017fffffffffffffffffffffffffffffffffffffffffffffffffffffffffffffffe016810167ffffffffffffffff811182821017156129a9576129a961290a565b604052919050565b600067ffffffffffffffff8211156129cb576129cb61290a565b5060051b60200190565b600082601f8301126129e657600080fd5b813560206129fb6129f6836129b1565b612962565b82815260059290921b84018101918181019086841115612a1a57600080fd5b8286015b84811015612a355780358352918301918301612a1e565b509695505050505050565b600082601f830112612a5157600080fd5b813567ffffffffffffffff811115612a6b57612a6b61290a565b612a9c60207fffffffffffffffffffffffffffffffffffffffffffffffffffffffffffffffe0601f84011601612962565b818152846020838601011115612ab157600080fd5b816020850160208301376000918101602001919091529392505050565b600080600080600060a08688031215612ae657600080fd5b8535612af1816125cf565b94506020860135612b01816125cf565b9350604086013567ffffffffffffffff80821115612b1e57600080fd5b612b2a89838a016129d5565b94506060880135915080821115612b4057600080fd5b612b4c89838a016129d5565b93506080880135915080821115612b6257600080fd5b50612b6f88828901612a40565b9150509295509295909350565b60008060008060808587031215612b9257600080fd5b8435935060208501359250604085013564ffffffffff81168114612bb557600080fd5b9150612bc360608601612480565b905092959194509250565b60008060208385031215612be157600080fd5b823567ffffffffffffffff811115612bf857600080fd5b612c0485828601612583565b90969095509350505050565b606080825284519082018190526000906020906080840190828801845b82811015612c5f57815173ffffffffffffffffffffffffffffffffffffffff1684529284019290840190600101612c2d565b50505083810382850152612c7381876127f6565b9150508281036040840152612c8881856127f6565b9695505050505050565b600080600080600060a08688031215612caa57600080fd5b8535612cb5816125cf565b94506020860135612cc5816125cf565b93506040860135925060608601359150608086013567ffffffffffffffff811115612cef57600080fd5b612b6f88828901612a40565b803563ffffffff8116811461241457600080fd5b60008060408385031215612d2257600080fd5b8235915061243c60208401612cfb565b60008083601f840112612d4457600080fd5b50813567ffffffffffffffff811115612d5c57600080fd5b6020830191508360208285010111156125c857600080fd5b803562ffffff8116811461241457600080fd5b60008060008060008060808789031215612da057600080fd5b86359550602087013567ffffffffffffffff80821115612dbf57600080fd5b612dcb8a838b01612d32565b90975095506040890135915080821115612de457600080fd5b50612df189828a01612d32565b9094509250612e04905060608801612d74565b90509295509295509295565b600080600060608486031215612e2557600080fd5b8351925060208401519150604084015190509250925092565b803560ff8116811461241457600080fd5b6000610160820190508482528335602083015260208401356040830152604084013560608301526060840135612e84816125cf565b73ffffffffffffffffffffffffffffffffffffffff8116608084015250612ead60808501612cfb565b63ffffffff811660a084015250612ec660a08501612480565b61ffff811660c084015250612edd60c08501612e3e565b60ff811660e084015250612ef360e08501612d74565b610100612f068185018362ffffff169052565b612f11818701612404565b915050612f2361012084018215159052565b5082610140830152949350505050565b81835260007f07ffffffffffffffffffffffffffffffffffffffffffffffffffffffffffffff831115612f6557600080fd5b8260051b80836020870137939093016020019392505050565b8a81526000602060c081840152612f9960c084018c8e612f33565b83810360408501528981528a90820160005b8b811015612fe6578235612fbe816125cf565b73ffffffffffffffffffffffffffffffffffffffff1682529183019190830190600101612fab565b508481036060860152612ffa818a8c612f33565b925050508281036080840152613011818688612f33565b91505073ffffffffffffffffffffffffffffffffffffffff831660a08301529b9a5050505050505050505050565b7f4e487b7100000000000000000000000000000000000000000000000000000000600052603260045260246000fd5b6000602080838503121561308157600080fd5b825167ffffffffffffffff81111561309857600080fd5b8301601f810185136130a957600080fd5b80516130b76129f6826129b1565b81815260a091820283018401918482019190888411156130d657600080fd5b938501935b838510156131345780858a0312156130f35760008081fd5b6130fb612939565b855181528686015187820152604080870151908201526060808701519082015260808087015190820152835293840193918501916130db565b50979650505050505050565b87815260806020820152600061315a60808301888a612f33565b828103604084015261316d818789612f33565b90508281036060840152613182818587612f33565b9a9950505050505050505050565b8381526040602082015260006118e5604083018486612f33565b600082601f8301126131bb57600080fd5b815160206131cb6129f6836129b1565b82815260059290921b840181019181810190868411156131ea57600080fd5b8286015b84811015612a3557805183529183019183016131ee565b60008060006060848603121561321a57600080fd5b835167ffffffffffffffff8082111561323257600080fd5b818601915086601f83011261324657600080fd5b815160206132566129f6836129b1565b82815260059290921b8401810191818101908a84111561327557600080fd5b948201945b8386101561329c57855161328d816125cf565b8252948201949082019061327a565b918901519197509093505050808211156132b557600080fd5b6132c1878388016131aa565b935060408601519150808211156132d757600080fd5b506132e4868287016131aa565b9150509250925092565b8183528181602085013750600060208284010152600060207fffffffffffffffffffffffffffffffffffffffffffffffffffffffffffffffe0601f840116840101905092915050565b87815286602082015260a06040820152600061335760a0830187896132ee565b828103606084015261336a8186886132ee565b91505062ffffff831660808301529897505050505050505056fea2646970667358221220247ba9a2d97b281e61f0c808f129d23e29e7232fa415a47e1b7d55b9af5ebbab64736f6c63430008110033",
  "deployedBytecode": "0x608060405234801561001057600080fd5b50600436106103205760003560e01c806394c4fa85116101a7578063da12b235116100ee578063f2fde38b11610097578063f7c3fec211610071578063f7c3fec214610a73578063f9be94f214610a86578063fb5ba8eb14610a9957600080fd5b8063f2fde38b14610917578063f3052d261461092a578063f4a5cb8e14610a6057600080fd5b8063ef016cdd116100c8578063ef016cdd146108de578063efdcd974146108f1578063f23a6e611461090457600080fd5b8063da12b2351461081c578063e6bebba51461089d578063e8a35392146108c057600080fd5b8063bc197c8111610150578063c092c5c31161012a578063c092c5c314610842578063c7878a5714610855578063c7cad9051461087757600080fd5b8063bc197c81146107d8578063bf2de21a1461081c578063c007acf61461082f57600080fd5b8063a88fd94a11610181578063a88fd94a1461077d578063b505ab861461079d578063b99d5190146107b057600080fd5b806394c4fa8514610716578063a05955821461074c578063a3d334a11461075f57600080fd5b80635c975abb1161026b5780638456cb5911610214578063915e9913116101ee578063915e9913146106d057806393fa0581146106f0578063940870dc1461070357600080fd5b80638456cb59146106975780638af84a581461069f5780638da5cb5b146106b257600080fd5b8063715018a611610245578063715018a61461065c57806378227cb0146106645780637902298e1461067757600080fd5b80635c975abb146105ed5780636b22e8e1146105fa578063714b847c1461063957600080fd5b8063452b7957116102cd5780635ac44282116102a75780635ac44282146104425780635ba18df8146105c75780635c4e7a05146105da57600080fd5b8063452b7957146103ce578063558ff3831461040157806357b41a711461041457600080fd5b80632204561e116102fe5780632204561e146103905780632c5dd8a9146103b35780633f4ba83a146103c657600080fd5b806301ffc9a7146103255780630eae128e1461034d5780631fb0a62414610362575b600080fd5b6103386103333660046123c2565b610ab7565b60405190151581526020015b60405180910390f35b61036061035b366004612419565b610b50565b005b610375610370366004612445565b610be8565b60408051938452602084019290925290820152606001610344565b61033861039e366004612467565b60009081526099602052604090205460ff1690565b6103606103c1366004612492565b610c98565b610360610d2a565b60a65474010000000000000000000000000000000000000000900461ffff165b60405161ffff9091168152602001610344565b61036061040f3660046124ad565b610d3c565b610434610422366004612467565b6000908152609f602052604090205490565b604051908152602001610344565b6105ba610450366004612467565b6040805161012081018252600080825260208201819052918101829052606081018290526080810182905260a0810182905260c0810182905260e08101829052610100810191909152506000908152609c60209081526040918290208251610120810184528154815260018201549281019290925260028101549282019290925260039091015473ffffffffffffffffffffffffffffffffffffffff8116606083015263ffffffff74010000000000000000000000000000000000000000820416608083015261ffff780100000000000000000000000000000000000000000000000082041660a083015260ff7a0100000000000000000000000000000000000000000000000000008204811660c084015262ffffff7b0100000000000000000000000000000000000000000000000000000083041660e08401527e0100000000000000000000000000000000000000000000000000000000000090910416151561010082015290565b60405161034491906124df565b6103606105d53660046125f1565b610e48565b6103606105e83660046126c8565b610f23565b6097546103389060ff1681565b60a55473ffffffffffffffffffffffffffffffffffffffff165b60405173ffffffffffffffffffffffffffffffffffffffff9091168152602001610344565b610338610647366004612467565b60009081526098602052604090205460ff1690565b610360610f98565b610434610672366004612467565b610faa565b61068a610685366004612445565b610fd4565b60405161034491906126e5565b61036061109b565b6103606106ad366004612753565b6110ab565b60335473ffffffffffffffffffffffffffffffffffffffff16610614565b6106e36106de366004612467565b6114de565b6040516103449190612831565b6103756106fe366004612445565b611540565b610360610711366004612844565b6115a6565b610614610724366004612467565b6000908152609d602052604090205473ffffffffffffffffffffffffffffffffffffffff1690565b61036061075a366004612492565b6116ee565b60a45473ffffffffffffffffffffffffffffffffffffffff16610614565b61043461078b366004612467565b600090815260a0602052604090205490565b6103606107ab3660046128de565b611751565b60a6547801000000000000000000000000000000000000000000000000900461ffff166103ee565b6107eb6107e6366004612ace565b61189b565b6040517fffffffff000000000000000000000000000000000000000000000000000000009091168152602001610344565b6106e361082a366004612467565b6118ee565b61036061083d3660046128de565b61194e565b610360610850366004612b7c565b611a62565b610868610863366004612bce565b611b11565b60405161034493929190612c10565b60a654760100000000000000000000000000000000000000000000900461ffff166103ee565b6103386108ab366004612467565b6000908152609a602052604090205460ff1690565b60a65473ffffffffffffffffffffffffffffffffffffffff16610614565b6103606108ec366004612445565b611bd0565b6103606108ff3660046126c8565b611c37565b6107eb610912366004612c92565b611c4b565b6103606109253660046126c8565b611c9d565b6109f4610938366004612467565b6040805160e081018252600080825260208201819052918101829052606081018290526080810182905260a0810182905260c0810191909152506000908152609b6020908152604091829020825160e08101845281548152600182015464ffffffffff81169382019390935265010000000000830461ffff169381019390935267010000000000000090910462ffffff16606083015260028101546080830152600381015463ffffffff1660a08301526004015460c082015290565b6040516103449190600060e0820190508251825264ffffffffff602084015116602083015261ffff604084015116604083015262ffffff60608401511660608301526080830151608083015263ffffffff60a08401511660a083015260c083015160c083015292915050565b610360610a6e366004612d0f565b611d51565b610360610a81366004612492565b611dbd565b610360610a94366004612d87565b611e20565b60a35473ffffffffffffffffffffffffffffffffffffffff16610614565b60007f01ffc9a7000000000000000000000000000000000000000000000000000000007fffffffff0000000000000000000000000000000000000000000000000000000083161480610b4a57507f4e2312e0000000000000000000000000000000000000000000000000000000007fffffffff000000000000000000000000000000000000000000000000000000008316145b92915050565b610b58611ebd565b6040517ffbefa24f0000000000000000000000000000000000000000000000000000000081526098600482015260248101839052811515604482015273__$c07436818a8533723c4f7c0e44800fefac$__9063fbefa24f906064015b60006040518083038186803b158015610bcc57600080fd5b505af4158015610be0573d6000803e3d6000fd5b505050505050565b6040517f3c8f4d3f0000000000000000000000000000000000000000000000000000000081526098600482015260248101839052604481018290526000908190819073__$51ed980ed4ddad7f2d2649c5620a5a284d$__90633c8f4d3f906064015b606060405180830381865af4158015610c67573d6000803e3d6000fd5b505050506040513d601f19601f82011682018060405250810190610c8b9190612e10565b9250925092509250925092565b610ca0611ebd565b6040517f11bd86960000000000000000000000000000000000000000000000000000000081526098600482015261ffff8216602482015273__$51ed980ed4ddad7f2d2649c5620a5a284d$__906311bd8696906044015b60006040518083038186803b158015610d0f57600080fd5b505af4158015610d23573d6000803e3d6000fd5b5050505050565b610d32611ebd565b610d3a611f3e565b565b600260655403610dad576040517f08c379a000000000000000000000000000000000000000000000000000000000815260206004820152601f60248201527f5265656e7472616e637947756172643a207265656e7472616e742063616c6c0060448201526064015b60405180910390fd5b6002606555610dba611ebd565b6040517f4044acb000000000000000000000000000000000000000000000000000000000815273__$c07436818a8533723c4f7c0e44800fefac$__90634044acb090610e0f9060989086908690600401612e4f565b60006040518083038186803b158015610e2757600080fd5b505af4158015610e3b573d6000803e3d6000fd5b5050600160655550505050565b60975460ff1615610e85576040517f9e87fac800000000000000000000000000000000000000000000000000000000815260040160405180910390fd5b6040517f87475f2000000000000000000000000000000000000000000000000000000000815273__$49556f7947f3338075112416096ff342eb$__906387475f2090610ee8906098908d908d908d908d908d908d908d908d908d90600401612f7e565b60006040518083038186803b158015610f0057600080fd5b505af4158015610f14573d6000803e3d6000fd5b50505050505050505050505050565b610f2b611ebd565b6040517f3273b4910000000000000000000000000000000000000000000000000000000081526098600482015273ffffffffffffffffffffffffffffffffffffffff8216602482015273__$49556f7947f3338075112416096ff342eb$__90633273b49190604401610cf7565b610fa0611ebd565b610d3a6000611fcd565b60006098600a018281548110610fc257610fc261303f565b90600052602060002001549050919050565b6040517fad728ad500000000000000000000000000000000000000000000000000000000815260986004820152602481018390526044810182905260609073__$2ca33e8c99893de9c36adac6c06090d7b3$__9063ad728ad590606401600060405180830381865af415801561104e573d6000803e3d6000fd5b505050506040513d6000823e601f3d9081017fffffffffffffffffffffffffffffffffffffffffffffffffffffffffffffffe0168201604052611094919081019061306e565b9392505050565b6110a3611ebd565b610d3a612044565b600054610100900460ff16158080156110cb5750600054600160ff909116105b806110e55750303b1580156110e5575060005460ff166001145b611171576040517f08c379a000000000000000000000000000000000000000000000000000000000815260206004820152602e60248201527f496e697469616c697a61626c653a20636f6e747261637420697320616c72656160448201527f647920696e697469616c697a65640000000000000000000000000000000000006064820152608401610da4565b600080547fffffffffffffffffffffffffffffffffffffffffffffffffffffffffffffff0016600117905580156111cf57600080547fffffffffffffffffffffffffffffffffffffffffffffffffffffffffffff00ff166101001790555b6111d76120d7565b6111df612176565b6111e882611c9d565b60a4805473ffffffffffffffffffffffffffffffffffffffff8b81167fffffffffffffffffffffffff00000000000000000000000000000000000000009283161790925560a38054928b16929091169190911790556040517f11bd86960000000000000000000000000000000000000000000000000000000081526098600482015261ffff8816602482015273__$51ed980ed4ddad7f2d2649c5620a5a284d$__906311bd86969060440160006040518083038186803b1580156112ab57600080fd5b505af41580156112bf573d6000803e3d6000fd5b50506040517fa6400cc60000000000000000000000000000000000000000000000000000000081526098600482015261ffff8916602482015273__$2ca33e8c99893de9c36adac6c06090d7b3$__925063a6400cc6915060440160006040518083038186803b15801561133157600080fd5b505af4158015611345573d6000803e3d6000fd5b50506040517f5dae67cc0000000000000000000000000000000000000000000000000000000081526098600482015261ffff8816602482015273__$49556f7947f3338075112416096ff342eb$__9250635dae67cc915060440160006040518083038186803b1580156113b757600080fd5b505af41580156113cb573d6000803e3d6000fd5b505050506113d884612215565b6040517f3273b4910000000000000000000000000000000000000000000000000000000081526098600482015273ffffffffffffffffffffffffffffffffffffffff8416602482015273__$49556f7947f3338075112416096ff342eb$__90633273b4919060440160006040518083038186803b15801561145857600080fd5b505af415801561146c573d6000803e3d6000fd5b5050505080156114d357600080547fffffffffffffffffffffffffffffffffffffffffffffffffffffffffffff00ff169055604051600181527f7f26b83ff96e1f2b6a682f133852f6798a09c465da95921460cefb38474024989060200160405180910390a15b505050505050505050565b600081815260a1602090815260409182902080548351818402810184019094528084526060939283018282801561153457602002820191906000526020600020905b815481526020019060010190808311611520575b50505050509050919050565b6040517febf2cd6b0000000000000000000000000000000000000000000000000000000081526098600482015260248101839052604481018290526000908190819073__$2ca33e8c99893de9c36adac6c06090d7b3$__9063ebf2cd6b90606401610c4a565b600260655403611612576040517f08c379a000000000000000000000000000000000000000000000000000000000815260206004820152601f60248201527f5265656e7472616e637947756172643a207265656e7472616e742063616c6c006044820152606401610da4565b600260655560975460ff1615611654576040517f9e87fac800000000000000000000000000000000000000000000000000000000815260040160405180910390fd5b6040517f7e47ee6500000000000000000000000000000000000000000000000000000000815273__$2ca33e8c99893de9c36adac6c06090d7b3$__90637e47ee65906116b1906098908a908a908a908a908a908a90600401613140565b60006040518083038186803b1580156116c957600080fd5b505af41580156116dd573d6000803e3d6000fd5b505060016065555050505050505050565b6116f6611ebd565b6040517f5dae67cc0000000000000000000000000000000000000000000000000000000081526098600482015261ffff8216602482015273__$49556f7947f3338075112416096ff342eb$__90635dae67cc90604401610cf7565b6002606554036117bd576040517f08c379a000000000000000000000000000000000000000000000000000000000815260206004820152601f60248201527f5265656e7472616e637947756172643a207265656e7472616e742063616c6c006044820152606401610da4565b600260655560975460ff16156117ff576040517f9e87fac800000000000000000000000000000000000000000000000000000000815260040160405180910390fd5b6040517f79be5d600000000000000000000000000000000000000000000000000000000081526098600482015260248101849052604481018390526064810182905273__$51ed980ed4ddad7f2d2649c5620a5a284d$__906379be5d60906084015b60006040518083038186803b15801561187957600080fd5b505af415801561188d573d6000803e3d6000fd5b505060016065555050505050565b600073ffffffffffffffffffffffffffffffffffffffff861630146118c2575060006118e5565b507fbc197c81000000000000000000000000000000000000000000000000000000005b95945050505050565b6000818152609e602090815260409182902080548351818402810184019094528084526060939283018282801561153457602002820191906000526020600020908154815260200190600101908083116115205750505050509050919050565b6002606554036119ba576040517f08c379a000000000000000000000000000000000000000000000000000000000815260206004820152601f60248201527f5265656e7472616e637947756172643a207265656e7472616e742063616c6c006044820152606401610da4565b600260655560975460ff16156119fc576040517f9e87fac800000000000000000000000000000000000000000000000000000000815260040160405180910390fd5b6040517f46edd1ef0000000000000000000000000000000000000000000000000000000081526098600482015260248101849052604481018390526064810182905273__$2ca33e8c99893de9c36adac6c06090d7b3$__906346edd1ef90608401611861565b611a6a611ebd565b6040517f7c924c6f00000000000000000000000000000000000000000000000000000000815260986004820152602481018590526044810184905264ffffffffff8316606482015261ffff8216608482015273__$c07436818a8533723c4f7c0e44800fefac$__90637c924c6f9060a40160006040518083038186803b158015611af357600080fd5b505af4158015611b07573d6000803e3d6000fd5b5050505050505050565b6040517f1b768ae00000000000000000000000000000000000000000000000000000000081526060908190819073__$49556f7947f3338075112416096ff342eb$__90631b768ae090611b6d9060989089908990600401613190565b600060405180830381865af4158015611b8a573d6000803e3d6000fd5b505050506040513d6000823e601f3d9081017fffffffffffffffffffffffffffffffffffffffffffffffffffffffffffffffe0168201604052610c8b9190810190613205565b611bd8611ebd565b6040517f2a463d1100000000000000000000000000000000000000000000000000000000815260986004820152602481018390526044810182905273__$c07436818a8533723c4f7c0e44800fefac$__90632a463d1190606401610bb4565b611c3f611ebd565b611c4881612215565b50565b600073ffffffffffffffffffffffffffffffffffffffff86163014611c72575060006118e5565b507ff23a6e610000000000000000000000000000000000000000000000000000000095945050505050565b611ca5611ebd565b73ffffffffffffffffffffffffffffffffffffffff8116611d48576040517f08c379a000000000000000000000000000000000000000000000000000000000815260206004820152602660248201527f4f776e61626c653a206e6577206f776e657220697320746865207a65726f206160448201527f64647265737300000000000000000000000000000000000000000000000000006064820152608401610da4565b611c4881611fcd565b611d59611ebd565b6040517f28c6ad9c000000000000000000000000000000000000000000000000000000008152609860048201526024810183905263ffffffff8216604482015273__$c07436818a8533723c4f7c0e44800fefac$__906328c6ad9c90606401610bb4565b611dc5611ebd565b6040517fa6400cc60000000000000000000000000000000000000000000000000000000081526098600482015261ffff8216602482015273__$2ca33e8c99893de9c36adac6c06090d7b3$__9063a6400cc690604401610cf7565b611e28611ebd565b6040517fb160ad5b00000000000000000000000000000000000000000000000000000000815273__$c07436818a8533723c4f7c0e44800fefac$__9063b160ad5b90611e85906098908a908a908a908a908a908a90600401613337565b60006040518083038186803b158015611e9d57600080fd5b505af4158015611eb1573d6000803e3d6000fd5b50505050505050505050565b60335473ffffffffffffffffffffffffffffffffffffffff163314610d3a576040517f08c379a000000000000000000000000000000000000000000000000000000000815260206004820181905260248201527f4f776e61626c653a2063616c6c6572206973206e6f7420746865206f776e65726044820152606401610da4565b60975460ff16611f7a576040517f6cd6020100000000000000000000000000000000000000000000000000000000815260040160405180910390fd5b609780547fffffffffffffffffffffffffffffffffffffffffffffffffffffffffffffff001690556040517f7805862f689e2f13df9f062ff482ad3ad112aca9e0847911ed832e158c525b3390600090a1565b6033805473ffffffffffffffffffffffffffffffffffffffff8381167fffffffffffffffffffffffff0000000000000000000000000000000000000000831681179093556040519116919082907f8be0079c531659141344cd1fd0a4f28419497f9722a3daafe3b4186f6b6457e090600090a35050565b60975460ff1615612081576040517f9e87fac800000000000000000000000000000000000000000000000000000000815260040160405180910390fd5b609780547fffffffffffffffffffffffffffffffffffffffffffffffffffffffffffffff001660011790556040517f6985a02210a168e66602d3235cb6db0e70f92b3ba4d376a33c0f3d9434bff62590600090a1565b600054610100900460ff1661216e576040517f08c379a000000000000000000000000000000000000000000000000000000000815260206004820152602b60248201527f496e697469616c697a61626c653a20636f6e7472616374206973206e6f74206960448201527f6e697469616c697a696e670000000000000000000000000000000000000000006064820152608401610da4565b610d3a612284565b600054610100900460ff1661220d576040517f08c379a000000000000000000000000000000000000000000000000000000000815260206004820152602b60248201527f496e697469616c697a61626c653a20636f6e7472616374206973206e6f74206960448201527f6e697469616c697a696e670000000000000000000000000000000000000000006064820152608401610da4565b610d3a612324565b60a680547fffffffffffffffffffffffff00000000000000000000000000000000000000001673ffffffffffffffffffffffffffffffffffffffff83169081179091556040517f27aae5db36d94179909d019ae0b1ac7c16d96d953148f63c0f6a0a9c8ead79ee90600090a250565b600054610100900460ff1661231b576040517f08c379a000000000000000000000000000000000000000000000000000000000815260206004820152602b60248201527f496e697469616c697a61626c653a20636f6e7472616374206973206e6f74206960448201527f6e697469616c697a696e670000000000000000000000000000000000000000006064820152608401610da4565b610d3a33611fcd565b600054610100900460ff166123bb576040517f08c379a000000000000000000000000000000000000000000000000000000000815260206004820152602b60248201527f496e697469616c697a61626c653a20636f6e7472616374206973206e6f74206960448201527f6e697469616c697a696e670000000000000000000000000000000000000000006064820152608401610da4565b6001606555565b6000602082840312156123d457600080fd5b81357fffffffff000000000000000000000000000000000000000000000000000000008116811461109457600080fd5b8035801515811461241457600080fd5b919050565b6000806040838503121561242c57600080fd5b8235915061243c60208401612404565b90509250929050565b6000806040838503121561245857600080fd5b50508035926020909101359150565b60006020828403121561247957600080fd5b5035919050565b803561ffff8116811461241457600080fd5b6000602082840312156124a457600080fd5b61109482612480565b6000808284036101408112156124c257600080fd5b610120808212156124d257600080fd5b9395938601359450505050565b60006101208201905082518252602083015160208301526040830151604083015273ffffffffffffffffffffffffffffffffffffffff606084015116606083015263ffffffff608084015116608083015260a083015161254560a084018261ffff169052565b5060c083015161255a60c084018260ff169052565b5060e083015161257160e084018262ffffff169052565b50610100928301511515919092015290565b60008083601f84011261259557600080fd5b50813567ffffffffffffffff8111156125ad57600080fd5b6020830191508360208260051b85010111156125c857600080fd5b9250929050565b73ffffffffffffffffffffffffffffffffffffffff81168114611c4857600080fd5b600080600080600080600080600060a08a8c03121561260f57600080fd5b893567ffffffffffffffff8082111561262757600080fd5b6126338d838e01612583565b909b50995060208c013591508082111561264c57600080fd5b6126588d838e01612583565b909950975060408c013591508082111561267157600080fd5b61267d8d838e01612583565b909750955060608c013591508082111561269657600080fd5b506126a38c828d01612583565b90945092505060808a01356126b7816125cf565b809150509295985092959850929598565b6000602082840312156126da57600080fd5b8135611094816125cf565b602080825282518282018190526000919060409081850190868401855b828110156127465781518051855286810151878601528581015186860152606080820151908601526080908101519085015260a09093019290850190600101612702565b5091979650505050505050565b600080600080600080600080610100898b03121561277057600080fd5b883561277b816125cf565b9750602089013561278b816125cf565b965061279960408a01612480565b95506127a760608a01612480565b94506127b560808a01612480565b935060a08901356127c5816125cf565b925060c08901356127d5816125cf565b915060e08901356127e5816125cf565b809150509295985092959890939650565b600081518084526020808501945080840160005b838110156128265781518752958201959082019060010161280a565b509495945050505050565b60208152600061109460208301846127f6565b6000806000806000806060878903121561285d57600080fd5b863567ffffffffffffffff8082111561287557600080fd5b6128818a838b01612583565b9098509650602089013591508082111561289a57600080fd5b6128a68a838b01612583565b909650945060408901359150808211156128bf57600080fd5b506128cc89828a01612583565b979a9699509497509295939492505050565b6000806000606084860312156128f357600080fd5b505081359360208301359350604090920135919050565b7f4e487b7100000000000000000000000000000000000000000000000000000000600052604160045260246000fd5b60405160a0810167ffffffffffffffff8111828210171561295c5761295c61290a565b60405290565b604051601f82017fffffffffffffffffffffffffffffffffffffffffffffffffffffffffffffffe016810167ffffffffffffffff811182821017156129a9576129a961290a565b604052919050565b600067ffffffffffffffff8211156129cb576129cb61290a565b5060051b60200190565b600082601f8301126129e657600080fd5b813560206129fb6129f6836129b1565b612962565b82815260059290921b84018101918181019086841115612a1a57600080fd5b8286015b84811015612a355780358352918301918301612a1e565b509695505050505050565b600082601f830112612a5157600080fd5b813567ffffffffffffffff811115612a6b57612a6b61290a565b612a9c60207fffffffffffffffffffffffffffffffffffffffffffffffffffffffffffffffe0601f84011601612962565b818152846020838601011115612ab157600080fd5b816020850160208301376000918101602001919091529392505050565b600080600080600060a08688031215612ae657600080fd5b8535612af1816125cf565b94506020860135612b01816125cf565b9350604086013567ffffffffffffffff80821115612b1e57600080fd5b612b2a89838a016129d5565b94506060880135915080821115612b4057600080fd5b612b4c89838a016129d5565b93506080880135915080821115612b6257600080fd5b50612b6f88828901612a40565b9150509295509295909350565b60008060008060808587031215612b9257600080fd5b8435935060208501359250604085013564ffffffffff81168114612bb557600080fd5b9150612bc360608601612480565b905092959194509250565b60008060208385031215612be157600080fd5b823567ffffffffffffffff811115612bf857600080fd5b612c0485828601612583565b90969095509350505050565b606080825284519082018190526000906020906080840190828801845b82811015612c5f57815173ffffffffffffffffffffffffffffffffffffffff1684529284019290840190600101612c2d565b50505083810382850152612c7381876127f6565b9150508281036040840152612c8881856127f6565b9695505050505050565b600080600080600060a08688031215612caa57600080fd5b8535612cb5816125cf565b94506020860135612cc5816125cf565b93506040860135925060608601359150608086013567ffffffffffffffff811115612cef57600080fd5b612b6f88828901612a40565b803563ffffffff8116811461241457600080fd5b60008060408385031215612d2257600080fd5b8235915061243c60208401612cfb565b60008083601f840112612d4457600080fd5b50813567ffffffffffffffff811115612d5c57600080fd5b6020830191508360208285010111156125c857600080fd5b803562ffffff8116811461241457600080fd5b60008060008060008060808789031215612da057600080fd5b86359550602087013567ffffffffffffffff80821115612dbf57600080fd5b612dcb8a838b01612d32565b90975095506040890135915080821115612de457600080fd5b50612df189828a01612d32565b9094509250612e04905060608801612d74565b90509295509295509295565b600080600060608486031215612e2557600080fd5b8351925060208401519150604084015190509250925092565b803560ff8116811461241457600080fd5b6000610160820190508482528335602083015260208401356040830152604084013560608301526060840135612e84816125cf565b73ffffffffffffffffffffffffffffffffffffffff8116608084015250612ead60808501612cfb565b63ffffffff811660a084015250612ec660a08501612480565b61ffff811660c084015250612edd60c08501612e3e565b60ff811660e084015250612ef360e08501612d74565b610100612f068185018362ffffff169052565b612f11818701612404565b915050612f2361012084018215159052565b5082610140830152949350505050565b81835260007f07ffffffffffffffffffffffffffffffffffffffffffffffffffffffffffffff831115612f6557600080fd5b8260051b80836020870137939093016020019392505050565b8a81526000602060c081840152612f9960c084018c8e612f33565b83810360408501528981528a90820160005b8b811015612fe6578235612fbe816125cf565b73ffffffffffffffffffffffffffffffffffffffff1682529183019190830190600101612fab565b508481036060860152612ffa818a8c612f33565b925050508281036080840152613011818688612f33565b91505073ffffffffffffffffffffffffffffffffffffffff831660a08301529b9a5050505050505050505050565b7f4e487b7100000000000000000000000000000000000000000000000000000000600052603260045260246000fd5b6000602080838503121561308157600080fd5b825167ffffffffffffffff81111561309857600080fd5b8301601f810185136130a957600080fd5b80516130b76129f6826129b1565b81815260a091820283018401918482019190888411156130d657600080fd5b938501935b838510156131345780858a0312156130f35760008081fd5b6130fb612939565b855181528686015187820152604080870151908201526060808701519082015260808087015190820152835293840193918501916130db565b50979650505050505050565b87815260806020820152600061315a60808301888a612f33565b828103604084015261316d818789612f33565b90508281036060840152613182818587612f33565b9a9950505050505050505050565b8381526040602082015260006118e5604083018486612f33565b600082601f8301126131bb57600080fd5b815160206131cb6129f6836129b1565b82815260059290921b840181019181810190868411156131ea57600080fd5b8286015b84811015612a3557805183529183019183016131ee565b60008060006060848603121561321a57600080fd5b835167ffffffffffffffff8082111561323257600080fd5b818601915086601f83011261324657600080fd5b815160206132566129f6836129b1565b82815260059290921b8401810191818101908a84111561327557600080fd5b948201945b8386101561329c57855161328d816125cf565b8252948201949082019061327a565b918901519197509093505050808211156132b557600080fd5b6132c1878388016131aa565b935060408601519150808211156132d757600080fd5b506132e4868287016131aa565b9150509250925092565b8183528181602085013750600060208284010152600060207fffffffffffffffffffffffffffffffffffffffffffffffffffffffffffffffe0601f840116840101905092915050565b87815286602082015260a06040820152600061335760a0830187896132ee565b828103606084015261336a8186886132ee565b91505062ffffff831660808301529897505050505050505056fea2646970667358221220247ba9a2d97b281e61f0c808f129d23e29e7232fa415a47e1b7d55b9af5ebbab64736f6c63430008110033",
  "libraries": {
    "WeeklyCarbonRewards": "0x61cf3A68e90e550280d2145b16fDcd5085DD5C52",
    "CarbonDomainRepository": "0x303A57bAecD2CbD1f40A96a3BF074856257a6CBb",
    "CollateralizationManager": "0x560368e809e4496c505411631C7bC28B0da7cF0e",
    "DecollateralizationManager": "0x93Ab310eB10aE72255E26E858Cb4c1Ed7d115c59"
  },
  "devdoc": {
    "kind": "dev",
    "methods": {
      "addBatch((uint256,uint256,uint256,address,uint32,uint16,uint8,uint24,bool),uint256)": {
        "params": {
          "batch": "Struct containing all the data for the batch",
          "mintableAmount": "The amount of ERC1155 tokens to be minted to the batch supplier"
        }
      },
      "addCategory(uint256,string,string,uint24)": {
        "params": {
          "categoryId": "The category ID",
          "initialTA": "The initial time appreciation for the category. Category's averageTA will be set to this value.",
          "tokenName": "The name of the ERC20 token that will be created for the category",
          "tokenSymbol": "The symbol of the ERC20 token that will be created for the category"
        }
      },
      "addProject(uint256,uint256)": {
        "params": {
          "categoryId": "The category ID to which the project belongs",
          "projectId": "The project ID"
        }
      },
      "bulkDecollateralizeTokens(uint256[],uint256[],uint256[])": {
        "details": "Bulk-decollateralizes ERC20 tokens into multiple ERC1155 tokens with specified amountsprior to calling, msg.sender must approve SolidWorldManager to spend `sum(amountsIn)` ERC20 tokensnonReentrant (_decollateralizeTokens), to avoid possible reentrancy after calling safeTransferFrom_batchIds must belong to the same Categorywill trigger a rebalance of the Category",
        "params": {
          "amountsIn": "ERC20 tokens to decollateralize",
          "amountsOutMin": "minimum output amounts of ERC1155 tokens for transaction to succeed",
          "batchIds": "ids of the batches"
        }
      },
      "collateralizeBatch(uint256,uint256,uint256)": {
        "details": "Collateralizes `amountIn` of ERC1155 tokens with id `batchId` for msg.senderprior to calling, msg.sender must approve SolidWorldManager to spend its ERC1155 tokens with id `batchId`nonReentrant, to avoid possible reentrancy after calling safeTransferFrom",
        "params": {
          "amountIn": "ERC1155 tokens to collateralize",
          "amountOutMin": "minimum output amount of ERC20 tokens for transaction to succeed",
          "batchId": "id of the batch"
        }
      },
      "computeWeeklyCarbonRewards(uint256[])": {
        "params": {
          "categoryIds": "The categories to which the incentivized assets belong"
        },
        "returns": {
          "_0": "List of carbon rewards getting distributed.",
          "_1": "List of carbon reward amounts getting distributed",
          "_2": "List of fee amounts charged by the DAO on carbon rewards"
        }
      },
      "decollateralizeTokens(uint256,uint256,uint256)": {
        "details": "Decollateralizes `amountIn` of ERC20 tokens and sends `amountOut` ERC1155 tokens with id `batchId` to msg.senderprior to calling, msg.sender must approve SolidWorldManager to spend `amountIn` ERC20 tokensnonReentrant (_decollateralizeTokens), to avoid possible reentrancy after calling safeTransferFromwill trigger a rebalance of the Category",
        "params": {
          "amountIn": "ERC20 tokens to decollateralize",
          "amountOutMin": "minimum output amount of ERC1155 tokens for transaction to succeed",
          "batchId": "id of the batch"
        }
      },
      "getBatchesDecollateralizationInfo(uint256,uint256)": {
        "details": "Computes relevant info for the decollateralization process involving batches that match the specified `projectId` and `vintage`",
        "params": {
          "projectId": "id of the project the batch belongs to",
          "vintage": "vintage of the batch"
        },
        "returns": {
          "_0": "array of relevant info about matching batches"
        }
      },
      "mintWeeklyCarbonRewards(uint256[],address[],uint256[],uint256[],address)": {
        "params": {
          "carbonRewards": "List of carbon rewards to mint",
          "categoryIds": "The categories to which the incentivized assets belong",
          "rewardAmounts": "List of carbon reward amounts to mint",
          "rewardFees": "List of fee amounts charged by the DAO on carbon rewards",
          "rewardsVault": "Account that secures ERC20 rewards"
        }
      },
      "onERC1155BatchReceived(address,address,uint256[],uint256[],bytes)": {
        "details": "accept transfers from this contract only"
      },
      "onERC1155Received(address,address,uint256,uint256,bytes)": {
        "details": "accept transfers from this contract only"
      },
      "owner()": {
        "details": "Returns the address of the current owner."
      },
      "pause()": {
        "details": "triggers stopped state"
      },
      "renounceOwnership()": {
        "details": "Leaves the contract without owner. It will not be possible to call `onlyOwner` functions anymore. Can only be called by the current owner. NOTE: Renouncing ownership will leave the contract without an owner, thereby removing any functionality that is only available to the owner."
      },
      "setBatchAccumulating(uint256,bool)": {
        "params": {
          "batchId": "The batch ID",
          "isAccumulating": "The new isAccumulating value for the batch"
        }
      },
      "setBatchCertificationDate(uint256,uint32)": {
        "params": {
          "batchId": "The batch ID to be updated",
          "certificationDate": "The new certification date for the batch"
        }
      },
      "setCollateralizationFee(uint16)": {
        "params": {
          "collateralizationFee": "fee for collateralizing ERC1155 tokens"
        }
      },
      "setDecollateralizationFee(uint16)": {
        "params": {
          "decollateralizationFee": "fee for decollateralizing ERC20 tokens"
        }
      },
      "setRewardsFee(uint16)": {
        "params": {
          "rewardsFee": "The new rewards fee charged on weekly rewards"
        }
      },
      "setWeeklyRewardsMinter(address)": {
        "params": {
          "weeklyRewardsMinter": "The only account allowed to mint weekly carbon rewards"
        }
      },
      "simulateBatchCollateralization(uint256,uint256)": {
        "details": "Simulates collateralization of `amountIn` ERC1155 tokens with id `batchId` for msg.sender",
        "params": {
          "amountIn": "ERC1155 tokens to collateralize",
          "batchId": "id of the batch"
        },
        "returns": {
          "_0": "ERC20 tokens to be received by msg.sender",
          "_1": "ERC20 tokens to be received by feeReceiver",
          "_2": "ERC20 tokens forfeited for collateralizing the ERC1155 tokens"
        }
      },
      "simulateDecollateralization(uint256,uint256)": {
        "details": "Simulates decollateralization of `amountIn` ERC20 tokens for ERC1155 tokens with id `batchId`",
        "params": {
          "amountIn": "ERC20 tokens to decollateralize",
          "batchId": "id of the batch"
        },
        "returns": {
          "_0": "ERC1155 tokens to be received by msg.sender",
          "_1": "minimum amount of ERC20 tokens to decollateralize `amountOut` ERC1155 tokens with id `batchId`",
          "_2": "ERC20 tokens to be received by feeReceiver for decollateralizing minAmountIn ERC20 tokens"
        }
      },
      "supportsInterface(bytes4)": {
        "details": "Returns true if this contract implements the interface defined by `interfaceId`. See the corresponding https://eips.ethereum.org/EIPS/eip-165#how-interfaces-are-identified[EIP section] to learn more about how these ids are created. This function call must use less than 30 000 gas."
      },
      "transferOwnership(address)": {
        "details": "Transfers ownership of the contract to a new account (`newOwner`). Can only be called by the current owner."
      },
      "unpause()": {
        "details": "returns to normal state"
      },
      "updateCategory(uint256,uint256,uint40,uint16)": {
        "params": {
          "categoryId": "The category ID to be updated",
          "decayPerSecond": "The new decay per second for the category",
          "maxDepreciation": "The new max depreciation for the category. Quantified per year.",
          "volumeCoefficient": "The new volume coefficient for the category"
        }
      }
    },
    "version": 1
  },
  "userdoc": {
    "kind": "user",
    "methods": {
      "setBatchCertificationDate(uint256,uint32)": {
        "notice": "The certification date can only be set sooner than the current certification date"
      }
    },
    "version": 1
  },
  "storageLayout": {
    "storage": [
      {
        "astId": 138,
        "contract": "contracts/SolidWorldManager.sol:SolidWorldManager",
        "label": "_initialized",
        "offset": 0,
        "slot": "0",
        "type": "t_uint8"
      },
      {
        "astId": 141,
        "contract": "contracts/SolidWorldManager.sol:SolidWorldManager",
        "label": "_initializing",
        "offset": 1,
        "slot": "0",
        "type": "t_bool"
      },
      {
        "astId": 666,
        "contract": "contracts/SolidWorldManager.sol:SolidWorldManager",
        "label": "__gap",
        "offset": 0,
        "slot": "1",
        "type": "t_array(t_uint256)50_storage"
      },
      {
        "astId": 10,
        "contract": "contracts/SolidWorldManager.sol:SolidWorldManager",
        "label": "_owner",
        "offset": 0,
        "slot": "51",
        "type": "t_address"
      },
      {
        "astId": 130,
        "contract": "contracts/SolidWorldManager.sol:SolidWorldManager",
        "label": "__gap",
        "offset": 0,
        "slot": "52",
        "type": "t_array(t_uint256)49_storage"
      },
      {
        "astId": 296,
        "contract": "contracts/SolidWorldManager.sol:SolidWorldManager",
        "label": "_status",
        "offset": 0,
        "slot": "101",
        "type": "t_uint256"
      },
      {
        "astId": 340,
        "contract": "contracts/SolidWorldManager.sol:SolidWorldManager",
        "label": "__gap",
        "offset": 0,
        "slot": "102",
        "type": "t_array(t_uint256)49_storage"
      },
      {
        "astId": 6445,
        "contract": "contracts/SolidWorldManager.sol:SolidWorldManager",
        "label": "paused",
        "offset": 0,
        "slot": "151",
        "type": "t_bool"
      },
      {
        "astId": 7657,
        "contract": "contracts/SolidWorldManager.sol:SolidWorldManager",
        "label": "_storage",
        "offset": 0,
        "slot": "152",
        "type": "t_struct(Storage)7654_storage"
      }
    ],
    "types": {
      "t_address": {
        "encoding": "inplace",
        "label": "address",
        "numberOfBytes": "20"
      },
      "t_array(t_uint256)49_storage": {
        "base": "t_uint256",
        "encoding": "inplace",
        "label": "uint256[49]",
        "numberOfBytes": "1568"
      },
      "t_array(t_uint256)50_storage": {
        "base": "t_uint256",
        "encoding": "inplace",
        "label": "uint256[50]",
        "numberOfBytes": "1600"
      },
      "t_array(t_uint256)dyn_storage": {
        "base": "t_uint256",
        "encoding": "dynamic_array",
        "label": "uint256[]",
        "numberOfBytes": "32"
      },
      "t_bool": {
        "encoding": "inplace",
        "label": "bool",
        "numberOfBytes": "1"
      },
      "t_contract(CollateralizedBasketToken)6341": {
        "encoding": "inplace",
        "label": "contract CollateralizedBasketToken",
        "numberOfBytes": "20"
      },
      "t_contract(CollateralizedBasketTokenDeployer)6372": {
        "encoding": "inplace",
        "label": "contract CollateralizedBasketTokenDeployer",
        "numberOfBytes": "20"
      },
      "t_contract(ForwardContractBatchToken)6432": {
        "encoding": "inplace",
        "label": "contract ForwardContractBatchToken",
        "numberOfBytes": "20"
      },
      "t_mapping(t_uint256,t_array(t_uint256)dyn_storage)": {
        "encoding": "mapping",
        "key": "t_uint256",
        "label": "mapping(uint256 => uint256[])",
        "numberOfBytes": "32",
        "value": "t_array(t_uint256)dyn_storage"
      },
      "t_mapping(t_uint256,t_bool)": {
        "encoding": "mapping",
        "key": "t_uint256",
        "label": "mapping(uint256 => bool)",
        "numberOfBytes": "32",
        "value": "t_bool"
      },
      "t_mapping(t_uint256,t_contract(CollateralizedBasketToken)6341)": {
        "encoding": "mapping",
        "key": "t_uint256",
        "label": "mapping(uint256 => contract CollateralizedBasketToken)",
        "numberOfBytes": "32",
        "value": "t_contract(CollateralizedBasketToken)6341"
      },
      "t_mapping(t_uint256,t_struct(Batch)10489_storage)": {
        "encoding": "mapping",
        "key": "t_uint256",
        "label": "mapping(uint256 => struct DomainDataTypes.Batch)",
        "numberOfBytes": "32",
        "value": "t_struct(Batch)10489_storage"
      },
      "t_mapping(t_uint256,t_struct(Category)10504_storage)": {
        "encoding": "mapping",
        "key": "t_uint256",
        "label": "mapping(uint256 => struct DomainDataTypes.Category)",
        "numberOfBytes": "32",
        "value": "t_struct(Category)10504_storage"
      },
      "t_mapping(t_uint256,t_uint256)": {
        "encoding": "mapping",
        "key": "t_uint256",
        "label": "mapping(uint256 => uint256)",
        "numberOfBytes": "32",
        "value": "t_uint256"
      },
      "t_struct(Batch)10489_storage": {
        "encoding": "inplace",
        "label": "struct DomainDataTypes.Batch",
        "members": [
          {
            "astId": 10472,
            "contract": "contracts/SolidWorldManager.sol:SolidWorldManager",
            "label": "id",
            "offset": 0,
            "slot": "0",
            "type": "t_uint256"
          },
          {
            "astId": 10474,
            "contract": "contracts/SolidWorldManager.sol:SolidWorldManager",
            "label": "projectId",
            "offset": 0,
            "slot": "1",
            "type": "t_uint256"
          },
          {
            "astId": 10476,
            "contract": "contracts/SolidWorldManager.sol:SolidWorldManager",
            "label": "collateralizedCredits",
            "offset": 0,
            "slot": "2",
            "type": "t_uint256"
          },
          {
            "astId": 10478,
            "contract": "contracts/SolidWorldManager.sol:SolidWorldManager",
            "label": "supplier",
            "offset": 0,
            "slot": "3",
            "type": "t_address"
          },
          {
            "astId": 10480,
            "contract": "contracts/SolidWorldManager.sol:SolidWorldManager",
            "label": "certificationDate",
            "offset": 20,
            "slot": "3",
            "type": "t_uint32"
          },
          {
            "astId": 10482,
            "contract": "contracts/SolidWorldManager.sol:SolidWorldManager",
            "label": "vintage",
            "offset": 24,
            "slot": "3",
            "type": "t_uint16"
          },
          {
            "astId": 10484,
            "contract": "contracts/SolidWorldManager.sol:SolidWorldManager",
            "label": "status",
            "offset": 26,
            "slot": "3",
            "type": "t_uint8"
          },
          {
            "astId": 10486,
            "contract": "contracts/SolidWorldManager.sol:SolidWorldManager",
            "label": "batchTA",
            "offset": 27,
            "slot": "3",
            "type": "t_uint24"
          },
          {
            "astId": 10488,
            "contract": "contracts/SolidWorldManager.sol:SolidWorldManager",
            "label": "isAccumulating",
            "offset": 30,
            "slot": "3",
            "type": "t_bool"
          }
        ],
        "numberOfBytes": "128"
      },
      "t_struct(Category)10504_storage": {
        "encoding": "inplace",
        "label": "struct DomainDataTypes.Category",
        "members": [
          {
            "astId": 10491,
            "contract": "contracts/SolidWorldManager.sol:SolidWorldManager",
            "label": "volumeCoefficient",
            "offset": 0,
            "slot": "0",
            "type": "t_uint256"
          },
          {
            "astId": 10493,
            "contract": "contracts/SolidWorldManager.sol:SolidWorldManager",
            "label": "decayPerSecond",
            "offset": 0,
            "slot": "1",
            "type": "t_uint40"
          },
          {
            "astId": 10495,
            "contract": "contracts/SolidWorldManager.sol:SolidWorldManager",
            "label": "maxDepreciation",
            "offset": 5,
            "slot": "1",
            "type": "t_uint16"
          },
          {
            "astId": 10497,
            "contract": "contracts/SolidWorldManager.sol:SolidWorldManager",
            "label": "averageTA",
            "offset": 7,
            "slot": "1",
            "type": "t_uint24"
          },
          {
            "astId": 10499,
            "contract": "contracts/SolidWorldManager.sol:SolidWorldManager",
            "label": "totalCollateralized",
            "offset": 0,
            "slot": "2",
            "type": "t_uint256"
          },
          {
            "astId": 10501,
            "contract": "contracts/SolidWorldManager.sol:SolidWorldManager",
            "label": "lastCollateralizationTimestamp",
            "offset": 0,
            "slot": "3",
            "type": "t_uint32"
          },
          {
            "astId": 10503,
            "contract": "contracts/SolidWorldManager.sol:SolidWorldManager",
            "label": "lastCollateralizationMomentum",
            "offset": 0,
            "slot": "4",
            "type": "t_uint256"
          }
        ],
        "numberOfBytes": "160"
      },
      "t_struct(Storage)7654_storage": {
        "encoding": "inplace",
        "label": "struct SolidWorldManagerStorage.Storage",
        "members": [
          {
            "astId": 7576,
            "contract": "contracts/SolidWorldManager.sol:SolidWorldManager",
            "label": "categoryCreated",
            "offset": 0,
            "slot": "0",
            "type": "t_mapping(t_uint256,t_bool)"
          },
          {
            "astId": 7581,
            "contract": "contracts/SolidWorldManager.sol:SolidWorldManager",
            "label": "projectCreated",
            "offset": 0,
            "slot": "1",
            "type": "t_mapping(t_uint256,t_bool)"
          },
          {
            "astId": 7586,
            "contract": "contracts/SolidWorldManager.sol:SolidWorldManager",
            "label": "batchCreated",
            "offset": 0,
            "slot": "2",
            "type": "t_mapping(t_uint256,t_bool)"
          },
          {
            "astId": 7592,
            "contract": "contracts/SolidWorldManager.sol:SolidWorldManager",
            "label": "categories",
            "offset": 0,
            "slot": "3",
            "type": "t_mapping(t_uint256,t_struct(Category)10504_storage)"
          },
          {
            "astId": 7598,
            "contract": "contracts/SolidWorldManager.sol:SolidWorldManager",
            "label": "batches",
            "offset": 0,
            "slot": "4",
            "type": "t_mapping(t_uint256,t_struct(Batch)10489_storage)"
          },
          {
            "astId": 7604,
            "contract": "contracts/SolidWorldManager.sol:SolidWorldManager",
            "label": "categoryToken",
            "offset": 0,
            "slot": "5",
            "type": "t_mapping(t_uint256,t_contract(CollateralizedBasketToken)6341)"
          },
          {
            "astId": 7610,
            "contract": "contracts/SolidWorldManager.sol:SolidWorldManager",
            "label": "categoryProjects",
            "offset": 0,
            "slot": "6",
            "type": "t_mapping(t_uint256,t_array(t_uint256)dyn_storage)"
          },
          {
            "astId": 7615,
            "contract": "contracts/SolidWorldManager.sol:SolidWorldManager",
            "label": "projectCategory",
            "offset": 0,
            "slot": "7",
            "type": "t_mapping(t_uint256,t_uint256)"
          },
          {
            "astId": 7620,
            "contract": "contracts/SolidWorldManager.sol:SolidWorldManager",
            "label": "batchCategory",
            "offset": 0,
            "slot": "8",
            "type": "t_mapping(t_uint256,t_uint256)"
          },
          {
            "astId": 7626,
            "contract": "contracts/SolidWorldManager.sol:SolidWorldManager",
            "label": "projectBatches",
            "offset": 0,
            "slot": "9",
            "type": "t_mapping(t_uint256,t_array(t_uint256)dyn_storage)"
          },
          {
            "astId": 7630,
            "contract": "contracts/SolidWorldManager.sol:SolidWorldManager",
            "label": "batchIds",
            "offset": 0,
            "slot": "10",
            "type": "t_array(t_uint256)dyn_storage"
          },
          {
            "astId": 7634,
            "contract": "contracts/SolidWorldManager.sol:SolidWorldManager",
            "label": "_forwardContractBatch",
            "offset": 0,
            "slot": "11",
            "type": "t_contract(ForwardContractBatchToken)6432"
          },
          {
            "astId": 7638,
            "contract": "contracts/SolidWorldManager.sol:SolidWorldManager",
            "label": "_collateralizedBasketTokenDeployer",
            "offset": 0,
            "slot": "12",
            "type": "t_contract(CollateralizedBasketTokenDeployer)6372"
          },
          {
            "astId": 7641,
            "contract": "contracts/SolidWorldManager.sol:SolidWorldManager",
            "label": "weeklyRewardsMinter",
            "offset": 0,
            "slot": "13",
            "type": "t_address"
          },
          {
            "astId": 7644,
            "contract": "contracts/SolidWorldManager.sol:SolidWorldManager",
            "label": "feeReceiver",
            "offset": 0,
            "slot": "14",
            "type": "t_address"
          },
          {
            "astId": 7647,
            "contract": "contracts/SolidWorldManager.sol:SolidWorldManager",
            "label": "collateralizationFee",
            "offset": 20,
            "slot": "14",
            "type": "t_uint16"
          },
          {
            "astId": 7650,
            "contract": "contracts/SolidWorldManager.sol:SolidWorldManager",
            "label": "decollateralizationFee",
            "offset": 22,
            "slot": "14",
            "type": "t_uint16"
          },
          {
            "astId": 7653,
            "contract": "contracts/SolidWorldManager.sol:SolidWorldManager",
            "label": "rewardsFee",
            "offset": 24,
            "slot": "14",
            "type": "t_uint16"
          }
        ],
        "numberOfBytes": "480"
      },
      "t_uint16": {
        "encoding": "inplace",
        "label": "uint16",
        "numberOfBytes": "2"
      },
      "t_uint24": {
        "encoding": "inplace",
        "label": "uint24",
        "numberOfBytes": "3"
      },
      "t_uint256": {
        "encoding": "inplace",
        "label": "uint256",
        "numberOfBytes": "32"
      },
      "t_uint32": {
        "encoding": "inplace",
        "label": "uint32",
        "numberOfBytes": "4"
      },
      "t_uint40": {
        "encoding": "inplace",
        "label": "uint40",
        "numberOfBytes": "5"
      },
      "t_uint8": {
        "encoding": "inplace",
        "label": "uint8",
        "numberOfBytes": "1"
      }
    }
  }
}