{
  "address": "0xc2a934B62D8bBBC55bc1fd31E64584de3789ed78",
  "abi": [
    {
      "inputs": [
        {
          "internalType": "address",
          "name": "caller",
          "type": "address"
        }
      ],
      "name": "BlacklistingNotAuthorized",
      "type": "error"
    },
    {
      "inputs": [],
      "name": "InvalidBlacklister",
      "type": "error"
    },
    {
      "inputs": [],
      "name": "InvalidVerifier",
      "type": "error"
    },
    {
      "inputs": [
        {
          "internalType": "address",
          "name": "caller",
          "type": "address"
        }
      ],
      "name": "VerificationNotAuthorized",
      "type": "error"
    },
    {
      "anonymous": false,
      "inputs": [
        {
          "indexed": true,
          "internalType": "address",
          "name": "subject",
          "type": "address"
        }
      ],
      "name": "Blacklisted",
      "type": "event"
    },
    {
      "anonymous": false,
      "inputs": [
        {
          "indexed": true,
          "internalType": "address",
          "name": "oldBlacklister",
          "type": "address"
        },
        {
          "indexed": true,
          "internalType": "address",
          "name": "newBlacklister",
          "type": "address"
        }
      ],
      "name": "BlacklisterUpdated",
      "type": "event"
    },
    {
      "anonymous": false,
      "inputs": [
        {
          "indexed": false,
          "internalType": "uint8",
          "name": "version",
          "type": "uint8"
        }
      ],
      "name": "Initialized",
      "type": "event"
    },
    {
      "anonymous": false,
      "inputs": [
        {
          "indexed": true,
          "internalType": "address",
          "name": "previousOwner",
          "type": "address"
        },
        {
          "indexed": true,
          "internalType": "address",
          "name": "newOwner",
          "type": "address"
        }
      ],
      "name": "OwnershipTransferred",
      "type": "event"
    },
    {
      "anonymous": false,
      "inputs": [
        {
          "indexed": true,
          "internalType": "address",
          "name": "subject",
          "type": "address"
        }
      ],
      "name": "UnBlacklisted",
      "type": "event"
    },
    {
      "anonymous": false,
      "inputs": [
        {
          "indexed": true,
          "internalType": "address",
          "name": "subject",
          "type": "address"
        }
      ],
      "name": "VerificationRevoked",
      "type": "event"
    },
    {
      "anonymous": false,
      "inputs": [
        {
          "indexed": true,
          "internalType": "address",
          "name": "subject",
          "type": "address"
        }
      ],
      "name": "Verified",
      "type": "event"
    },
    {
      "anonymous": false,
      "inputs": [
        {
          "indexed": true,
          "internalType": "address",
          "name": "oldVerifier",
          "type": "address"
        },
        {
          "indexed": true,
          "internalType": "address",
          "name": "newVerifier",
          "type": "address"
        }
      ],
      "name": "VerifierUpdated",
      "type": "event"
    },
    {
      "inputs": [
        {
          "internalType": "address",
          "name": "subject",
          "type": "address"
        }
      ],
      "name": "blacklist",
      "outputs": [],
      "stateMutability": "nonpayable",
      "type": "function"
    },
    {
      "inputs": [],
      "name": "getBlacklister",
      "outputs": [
        {
          "internalType": "address",
          "name": "",
          "type": "address"
        }
      ],
      "stateMutability": "view",
      "type": "function"
    },
    {
      "inputs": [],
      "name": "getVerifier",
      "outputs": [
        {
          "internalType": "address",
          "name": "",
          "type": "address"
        }
      ],
      "stateMutability": "view",
      "type": "function"
    },
    {
      "inputs": [
        {
          "internalType": "address",
          "name": "owner",
          "type": "address"
        }
      ],
      "name": "initialize",
      "outputs": [],
      "stateMutability": "nonpayable",
      "type": "function"
    },
    {
      "inputs": [
        {
          "internalType": "address",
          "name": "subject",
          "type": "address"
        }
      ],
      "name": "isBlacklisted",
      "outputs": [
        {
          "internalType": "bool",
          "name": "",
          "type": "bool"
        }
      ],
      "stateMutability": "view",
      "type": "function"
    },
    {
      "inputs": [
        {
          "internalType": "address",
          "name": "subject",
          "type": "address"
        }
      ],
      "name": "isVerified",
      "outputs": [
        {
          "internalType": "bool",
          "name": "",
          "type": "bool"
        }
      ],
      "stateMutability": "view",
      "type": "function"
    },
    {
      "inputs": [
        {
          "internalType": "address",
          "name": "subject",
          "type": "address"
        }
      ],
      "name": "isVerifiedAndNotBlacklisted",
      "outputs": [
        {
          "internalType": "bool",
          "name": "",
          "type": "bool"
        }
      ],
      "stateMutability": "view",
      "type": "function"
    },
    {
      "inputs": [],
      "name": "owner",
      "outputs": [
        {
          "internalType": "address",
          "name": "",
          "type": "address"
        }
      ],
      "stateMutability": "view",
      "type": "function"
    },
    {
      "inputs": [
        {
          "internalType": "address",
          "name": "subject",
          "type": "address"
        }
      ],
      "name": "registerVerification",
      "outputs": [],
      "stateMutability": "nonpayable",
      "type": "function"
    },
    {
      "inputs": [],
      "name": "renounceOwnership",
      "outputs": [],
      "stateMutability": "nonpayable",
      "type": "function"
    },
    {
      "inputs": [
        {
          "internalType": "address",
          "name": "subject",
          "type": "address"
        }
      ],
      "name": "revokeVerification",
      "outputs": [],
      "stateMutability": "nonpayable",
      "type": "function"
    },
    {
      "inputs": [
        {
          "internalType": "address",
          "name": "newBlacklister",
          "type": "address"
        }
      ],
      "name": "setBlacklister",
      "outputs": [],
      "stateMutability": "nonpayable",
      "type": "function"
    },
    {
      "inputs": [
        {
          "internalType": "address",
          "name": "newVerifier",
          "type": "address"
        }
      ],
      "name": "setVerifier",
      "outputs": [],
      "stateMutability": "nonpayable",
      "type": "function"
    },
    {
      "inputs": [
        {
          "internalType": "address",
          "name": "newOwner",
          "type": "address"
        }
      ],
      "name": "transferOwnership",
      "outputs": [],
      "stateMutability": "nonpayable",
      "type": "function"
    },
    {
      "inputs": [
        {
          "internalType": "address",
          "name": "subject",
          "type": "address"
        }
      ],
      "name": "unBlacklist",
      "outputs": [],
      "stateMutability": "nonpayable",
      "type": "function"
    }
  ],
  "transactionHash": "0x4e6fc2aa027714447f79f554a955b5593bf521c58542baf63651c0a02adfedcd",
  "args": [],
  "numDeployments": 1,
  "solcInputHash": "adf8dc5a593b2d373e02ec07bbd88a19",
  "bytecode": "0x608060405234801561001057600080fd5b50610de6806100206000396000f3fe608060405234801561001057600080fd5b50600436106100f55760003560e01c8063b9209e3311610097578063f2fde38b11610066578063f2fde38b1461023f578063f47b4a4d14610252578063f9f92be414610265578063fe575a871461027857600080fd5b8063b9209e33146101c2578063c4d66de8146101fb578063d3b3f8d41461020e578063e998d2fa1461022c57600080fd5b80635437988d116100d35780635437988d14610166578063715018a61461017957806382511577146101815780638da5cb5b146101a457600080fd5b80630f771547146100fa5780631a8952661461010f57806346657fe914610122575b600080fd5b61010d610108366004610d73565b6102b1565b005b61010d61011d366004610d73565b6102c5565b60675473ffffffffffffffffffffffffffffffffffffffff165b60405173ffffffffffffffffffffffffffffffffffffffff90911681526020015b60405180910390f35b61010d610174366004610d73565b61034c565b61010d61035d565b61019461018f366004610d73565b610371565b604051901515815260200161015d565b60335473ffffffffffffffffffffffffffffffffffffffff1661013c565b6101946101d0366004610d73565b73ffffffffffffffffffffffffffffffffffffffff1660009081526068602052604090205460ff1690565b61010d610209366004610d73565b6103d2565b60655473ffffffffffffffffffffffffffffffffffffffff1661013c565b61010d61023a366004610d73565b61056e565b61010d61024d366004610d73565b6105f0565b61010d610260366004610d73565b6106a4565b61010d610273366004610d73565b610726565b610194610286366004610d73565b73ffffffffffffffffffffffffffffffffffffffff1660009081526066602052604090205460ff1690565b6102b96107a8565b6102c281610829565b50565b60655473ffffffffffffffffffffffffffffffffffffffff163314801590610305575060335473ffffffffffffffffffffffffffffffffffffffff163314155b15610343576040517f0340c4810000000000000000000000000000000000000000000000000000000081523360048201526024015b60405180910390fd5b6102c28161087f565b6103546107a8565b6102c281610888565b6103656107a8565b61036f60006108de565b565b73ffffffffffffffffffffffffffffffffffffffff811660009081526068602052604081205460ff1680156103cc575073ffffffffffffffffffffffffffffffffffffffff821660009081526066602052604090205460ff16155b92915050565b600054610100900460ff16158080156103f25750600054600160ff909116105b8061040c5750303b15801561040c575060005460ff166001145b610498576040517f08c379a000000000000000000000000000000000000000000000000000000000815260206004820152602e60248201527f496e697469616c697a61626c653a20636f6e747261637420697320616c72656160448201527f647920696e697469616c697a6564000000000000000000000000000000000000606482015260840161033a565b600080547fffffffffffffffffffffffffffffffffffffffffffffffffffffffffffffff0016600117905580156104f657600080547fffffffffffffffffffffffffffffffffffffffffffffffffffffffffffff00ff166101001790555b6104fe610955565b610507826105f0565b801561056a57600080547fffffffffffffffffffffffffffffffffffffffffffffffffffffffffffff00ff169055604051600181527f7f26b83ff96e1f2b6a682f133852f6798a09c465da95921460cefb38474024989060200160405180910390a15b5050565b60675473ffffffffffffffffffffffffffffffffffffffff1633148015906105ae575060335473ffffffffffffffffffffffffffffffffffffffff163314155b156105e7576040517fc7c9f97700000000000000000000000000000000000000000000000000000000815233600482015260240161033a565b6102c2816109f4565b6105f86107a8565b73ffffffffffffffffffffffffffffffffffffffff811661069b576040517f08c379a000000000000000000000000000000000000000000000000000000000815260206004820152602660248201527f4f776e61626c653a206e6577206f776e657220697320746865207a65726f206160448201527f6464726573730000000000000000000000000000000000000000000000000000606482015260840161033a565b6102c2816108de565b60675473ffffffffffffffffffffffffffffffffffffffff1633148015906106e4575060335473ffffffffffffffffffffffffffffffffffffffff163314155b1561071d576040517fc7c9f97700000000000000000000000000000000000000000000000000000000815233600482015260240161033a565b6102c2816109fd565b60655473ffffffffffffffffffffffffffffffffffffffff163314801590610766575060335473ffffffffffffffffffffffffffffffffffffffff163314155b1561079f576040517f0340c48100000000000000000000000000000000000000000000000000000000815233600482015260240161033a565b6102c281610a06565b60335473ffffffffffffffffffffffffffffffffffffffff16331461036f576040517f08c379a000000000000000000000000000000000000000000000000000000000815260206004820181905260248201527f4f776e61626c653a2063616c6c6572206973206e6f7420746865206f776e6572604482015260640161033a565b73ffffffffffffffffffffffffffffffffffffffff8116610876576040517faeed495600000000000000000000000000000000000000000000000000000000815260040160405180910390fd5b6102c281610a0f565b6102c281610a86565b73ffffffffffffffffffffffffffffffffffffffff81166108d5576040517fbaa3de5f00000000000000000000000000000000000000000000000000000000815260040160405180910390fd5b6102c281610afa565b6033805473ffffffffffffffffffffffffffffffffffffffff8381167fffffffffffffffffffffffff0000000000000000000000000000000000000000831681179093556040519116919082907f8be0079c531659141344cd1fd0a4f28419497f9722a3daafe3b4186f6b6457e090600090a35050565b600054610100900460ff166109ec576040517f08c379a000000000000000000000000000000000000000000000000000000000815260206004820152602b60248201527f496e697469616c697a61626c653a20636f6e7472616374206973206e6f74206960448201527f6e697469616c697a696e67000000000000000000000000000000000000000000606482015260840161033a565b61036f610b71565b6102c281610c11565b6102c281610c85565b6102c281610cfc565b6065805473ffffffffffffffffffffffffffffffffffffffff8381167fffffffffffffffffffffffff0000000000000000000000000000000000000000831681179093556040519116919082907f1d366ce86f3e72467acde294642eb9ba76877012a84b7068b689210b9bec1b9690600090a35050565b73ffffffffffffffffffffffffffffffffffffffff811660008181526066602052604080822080547fffffffffffffffffffffffffffffffffffffffffffffffffffffffffffffff00169055517f117e3210bb9aa7d9baff172026820255c6f6c30ba8999d1c2fd88e2848137c4e9190a250565b6067805473ffffffffffffffffffffffffffffffffffffffff8381167fffffffffffffffffffffffff0000000000000000000000000000000000000000831681179093556040519116919082907f0243549a92b2412f7a3caf7a2e56d65b8821b91345363faa5f57195384065fcc90600090a35050565b600054610100900460ff16610c08576040517f08c379a000000000000000000000000000000000000000000000000000000000815260206004820152602b60248201527f496e697469616c697a61626c653a20636f6e7472616374206973206e6f74206960448201527f6e697469616c697a696e67000000000000000000000000000000000000000000606482015260840161033a565b61036f336108de565b73ffffffffffffffffffffffffffffffffffffffff811660008181526068602052604080822080547fffffffffffffffffffffffffffffffffffffffffffffffffffffffffffffff00169055517f75033e7957d35df53d884cf515f820f5f6969cae9cbabb88bce1e888dacc94569190a250565b73ffffffffffffffffffffffffffffffffffffffff811660008181526068602052604080822080547fffffffffffffffffffffffffffffffffffffffffffffffffffffffffffffff00166001179055517f6a6455914f452787eb3985452aceedc1000fb545e394eb3b370e3d08958e0a5b9190a250565b73ffffffffffffffffffffffffffffffffffffffff811660008181526066602052604080822080547fffffffffffffffffffffffffffffffffffffffffffffffffffffffffffffff00166001179055517fffa4e6181777692565cf28528fc88fd1516ea86b56da075235fa575af6a4b8559190a250565b600060208284031215610d8557600080fd5b813573ffffffffffffffffffffffffffffffffffffffff81168114610da957600080fd5b939250505056fea2646970667358221220dad59a4cf94af76cad002213f939fa221835d921cad8039ac0b74b3882ff6e8164736f6c63430008100033",
  "devdoc": {
    "author": "Solid World",
    "details": "does not inherit from IVerificationRegistry because of https://github.com/ethereum/solidity/issues/12554",
    "kind": "dev",
    "methods": {
      "owner()": {
        "details": "Returns the address of the current owner."
      },
      "renounceOwnership()": {
        "details": "Leaves the contract without owner. It will not be possible to call `onlyOwner` functions anymore. Can only be called by the current owner. NOTE: Renouncing ownership will leave the contract without an owner, thereby removing any functionality that is only available to the owner."
      },
      "transferOwnership(address)": {
        "details": "Transfers ownership of the contract to a new account (`newOwner`). Can only be called by the current owner."
      }
    },
    "version": 1
  },
  "userdoc": {
    "kind": "user",
    "methods": {},
    "notice": "A contract for maintaining a registry of KYCed and blacklisted addresses.",
    "version": 1
  },
  "storageLayout": {
    "storage": [
      {
        "astId": 138,
        "contract": "contracts/compliance/VerificationRegistry.sol:VerificationRegistry",
        "label": "_initialized",
        "offset": 0,
        "slot": "0",
        "type": "t_uint8"
      },
      {
        "astId": 141,
        "contract": "contracts/compliance/VerificationRegistry.sol:VerificationRegistry",
        "label": "_initializing",
        "offset": 1,
        "slot": "0",
        "type": "t_bool"
      },
      {
        "astId": 739,
        "contract": "contracts/compliance/VerificationRegistry.sol:VerificationRegistry",
        "label": "__gap",
        "offset": 0,
        "slot": "1",
        "type": "t_array(t_uint256)50_storage"
      },
      {
        "astId": 10,
        "contract": "contracts/compliance/VerificationRegistry.sol:VerificationRegistry",
        "label": "_owner",
        "offset": 0,
        "slot": "51",
        "type": "t_address"
      },
      {
        "astId": 130,
        "contract": "contracts/compliance/VerificationRegistry.sol:VerificationRegistry",
        "label": "__gap",
        "offset": 0,
        "slot": "52",
        "type": "t_array(t_uint256)49_storage"
      },
      {
        "astId": 12029,
        "contract": "contracts/compliance/VerificationRegistry.sol:VerificationRegistry",
        "label": "blacklister",
        "offset": 0,
        "slot": "101",
        "type": "t_address"
      },
      {
        "astId": 12033,
        "contract": "contracts/compliance/VerificationRegistry.sol:VerificationRegistry",
        "label": "blacklisted",
        "offset": 0,
        "slot": "102",
        "type": "t_mapping(t_address,t_bool)"
      },
      {
        "astId": 12154,
        "contract": "contracts/compliance/VerificationRegistry.sol:VerificationRegistry",
        "label": "verifier",
        "offset": 0,
        "slot": "103",
        "type": "t_address"
      },
      {
        "astId": 12158,
        "contract": "contracts/compliance/VerificationRegistry.sol:VerificationRegistry",
        "label": "verified",
        "offset": 0,
        "slot": "104",
        "type": "t_mapping(t_address,t_bool)"
      }
    ],
    "types": {
      "t_address": {
        "encoding": "inplace",
        "label": "address",
        "numberOfBytes": "20"
      },
      "t_array(t_uint256)49_storage": {
        "base": "t_uint256",
        "encoding": "inplace",
        "label": "uint256[49]",
        "numberOfBytes": "1568"
      },
      "t_array(t_uint256)50_storage": {
        "base": "t_uint256",
        "encoding": "inplace",
        "label": "uint256[50]",
        "numberOfBytes": "1600"
      },
      "t_bool": {
        "encoding": "inplace",
        "label": "bool",
        "numberOfBytes": "1"
      },
      "t_mapping(t_address,t_bool)": {
        "encoding": "mapping",
        "key": "t_address",
        "label": "mapping(address => bool)",
        "numberOfBytes": "32",
        "value": "t_bool"
      },
      "t_uint256": {
        "encoding": "inplace",
        "label": "uint256",
        "numberOfBytes": "32"
      },
      "t_uint8": {
        "encoding": "inplace",
        "label": "uint8",
        "numberOfBytes": "1"
      }
    }
  }
}