{
  "address": "0x0A804009A30065a4C0F65760E13ef5C91da1dFcD",
  "abi": [
    {
      "anonymous": false,
      "inputs": [
        {
          "indexed": true,
          "internalType": "address",
          "name": "account",
          "type": "address"
        },
        {
          "indexed": true,
          "internalType": "address",
          "name": "operator",
          "type": "address"
        },
        {
          "indexed": false,
          "internalType": "bool",
          "name": "approved",
          "type": "bool"
        }
      ],
      "name": "ApprovalForAll",
      "type": "event"
    },
    {
      "anonymous": false,
      "inputs": [
        {
          "indexed": false,
          "internalType": "uint8",
          "name": "version",
          "type": "uint8"
        }
      ],
      "name": "Initialized",
      "type": "event"
    },
    {
      "anonymous": false,
      "inputs": [
        {
          "indexed": true,
          "internalType": "address",
          "name": "previousOwner",
          "type": "address"
        },
        {
          "indexed": true,
          "internalType": "address",
          "name": "newOwner",
          "type": "address"
        }
      ],
      "name": "OwnershipTransferred",
      "type": "event"
    },
    {
      "anonymous": false,
      "inputs": [
        {
          "indexed": true,
          "internalType": "address",
          "name": "operator",
          "type": "address"
        },
        {
          "indexed": true,
          "internalType": "address",
          "name": "from",
          "type": "address"
        },
        {
          "indexed": true,
          "internalType": "address",
          "name": "to",
          "type": "address"
        },
        {
          "indexed": false,
          "internalType": "uint256[]",
          "name": "ids",
          "type": "uint256[]"
        },
        {
          "indexed": false,
          "internalType": "uint256[]",
          "name": "values",
          "type": "uint256[]"
        }
      ],
      "name": "TransferBatch",
      "type": "event"
    },
    {
      "anonymous": false,
      "inputs": [
        {
          "indexed": true,
          "internalType": "address",
          "name": "operator",
          "type": "address"
        },
        {
          "indexed": true,
          "internalType": "address",
          "name": "from",
          "type": "address"
        },
        {
          "indexed": true,
          "internalType": "address",
          "name": "to",
          "type": "address"
        },
        {
          "indexed": false,
          "internalType": "uint256",
          "name": "id",
          "type": "uint256"
        },
        {
          "indexed": false,
          "internalType": "uint256",
          "name": "value",
          "type": "uint256"
        }
      ],
      "name": "TransferSingle",
      "type": "event"
    },
    {
      "anonymous": false,
      "inputs": [
        {
          "indexed": false,
          "internalType": "string",
          "name": "value",
          "type": "string"
        },
        {
          "indexed": true,
          "internalType": "uint256",
          "name": "id",
          "type": "uint256"
        }
      ],
      "name": "URI",
      "type": "event"
    },
    {
      "inputs": [
        {
          "internalType": "address",
          "name": "account",
          "type": "address"
        },
        {
          "internalType": "uint256",
          "name": "id",
          "type": "uint256"
        }
      ],
      "name": "balanceOf",
      "outputs": [
        {
          "internalType": "uint256",
          "name": "",
          "type": "uint256"
        }
      ],
      "stateMutability": "view",
      "type": "function"
    },
    {
      "inputs": [
        {
          "internalType": "address[]",
          "name": "accounts",
          "type": "address[]"
        },
        {
          "internalType": "uint256[]",
          "name": "ids",
          "type": "uint256[]"
        }
      ],
      "name": "balanceOfBatch",
      "outputs": [
        {
          "internalType": "uint256[]",
          "name": "",
          "type": "uint256[]"
        }
      ],
      "stateMutability": "view",
      "type": "function"
    },
    {
      "inputs": [
        {
          "internalType": "address",
          "name": "_account",
          "type": "address"
        },
        {
          "internalType": "uint256",
          "name": "_id",
          "type": "uint256"
        },
        {
          "internalType": "uint256",
          "name": "_amount",
          "type": "uint256"
        }
      ],
      "name": "burn",
      "outputs": [],
      "stateMutability": "nonpayable",
      "type": "function"
    },
    {
      "inputs": [
        {
          "internalType": "string",
          "name": "uri_",
          "type": "string"
        }
      ],
      "name": "initialize",
      "outputs": [],
      "stateMutability": "nonpayable",
      "type": "function"
    },
    {
      "inputs": [
        {
          "internalType": "address",
          "name": "account",
          "type": "address"
        },
        {
          "internalType": "address",
          "name": "operator",
          "type": "address"
        }
      ],
      "name": "isApprovedForAll",
      "outputs": [
        {
          "internalType": "bool",
          "name": "",
          "type": "bool"
        }
      ],
      "stateMutability": "view",
      "type": "function"
    },
    {
      "inputs": [
        {
          "internalType": "address",
          "name": "_to",
          "type": "address"
        },
        {
          "internalType": "uint256",
          "name": "_id",
          "type": "uint256"
        },
        {
          "internalType": "uint256",
          "name": "_amount",
          "type": "uint256"
        },
        {
          "internalType": "bytes",
          "name": "_data",
          "type": "bytes"
        }
      ],
      "name": "mint",
      "outputs": [],
      "stateMutability": "nonpayable",
      "type": "function"
    },
    {
      "inputs": [],
      "name": "owner",
      "outputs": [
        {
          "internalType": "address",
          "name": "",
          "type": "address"
        }
      ],
      "stateMutability": "view",
      "type": "function"
    },
    {
      "inputs": [],
      "name": "renounceOwnership",
      "outputs": [],
      "stateMutability": "nonpayable",
      "type": "function"
    },
    {
      "inputs": [
        {
          "internalType": "address",
          "name": "from",
          "type": "address"
        },
        {
          "internalType": "address",
          "name": "to",
          "type": "address"
        },
        {
          "internalType": "uint256[]",
          "name": "ids",
          "type": "uint256[]"
        },
        {
          "internalType": "uint256[]",
          "name": "amounts",
          "type": "uint256[]"
        },
        {
          "internalType": "bytes",
          "name": "data",
          "type": "bytes"
        }
      ],
      "name": "safeBatchTransferFrom",
      "outputs": [],
      "stateMutability": "nonpayable",
      "type": "function"
    },
    {
      "inputs": [
        {
          "internalType": "address",
          "name": "from",
          "type": "address"
        },
        {
          "internalType": "address",
          "name": "to",
          "type": "address"
        },
        {
          "internalType": "uint256",
          "name": "id",
          "type": "uint256"
        },
        {
          "internalType": "uint256",
          "name": "amount",
          "type": "uint256"
        },
        {
          "internalType": "bytes",
          "name": "data",
          "type": "bytes"
        }
      ],
      "name": "safeTransferFrom",
      "outputs": [],
      "stateMutability": "nonpayable",
      "type": "function"
    },
    {
      "inputs": [
        {
          "internalType": "address",
          "name": "operator",
          "type": "address"
        },
        {
          "internalType": "bool",
          "name": "approved",
          "type": "bool"
        }
      ],
      "name": "setApprovalForAll",
      "outputs": [],
      "stateMutability": "nonpayable",
      "type": "function"
    },
    {
      "inputs": [
        {
          "internalType": "bytes4",
          "name": "interfaceId",
          "type": "bytes4"
        }
      ],
      "name": "supportsInterface",
      "outputs": [
        {
          "internalType": "bool",
          "name": "",
          "type": "bool"
        }
      ],
      "stateMutability": "view",
      "type": "function"
    },
    {
      "inputs": [
        {
          "internalType": "address",
          "name": "newOwner",
          "type": "address"
        }
      ],
      "name": "transferOwnership",
      "outputs": [],
      "stateMutability": "nonpayable",
      "type": "function"
    },
    {
      "inputs": [
        {
          "internalType": "uint256",
          "name": "",
          "type": "uint256"
        }
      ],
      "name": "uri",
      "outputs": [
        {
          "internalType": "string",
          "name": "",
          "type": "string"
        }
      ],
      "stateMutability": "view",
      "type": "function"
    }
  ],
  "transactionHash": "0x0fd5de4cb48ae8cd7006f701040db7334544efd2c661f630ab954d4a43c2b3a3",
  "args": [],
  "numDeployments": 1,
  "solcInputHash": "52a5921ce5a354611bd4a3aef371ba79",
  "bytecode": "0x608060405234801561001057600080fd5b5061377c806100206000396000f3fe608060405234801561001057600080fd5b50600436106100b95760003560e01c8062fdd58e146100be57806301ffc9a7146100ee5780630e89341c1461011e5780632eb2c2d61461014e5780634e1273f41461016a578063715018a61461019a578063731133e9146101a45780638da5cb5b146101c0578063a22cb465146101de578063e985e9c5146101fa578063f242432a1461022a578063f2fde38b14610246578063f5298aca14610262578063f62d18881461027e575b600080fd5b6100d860048036038101906100d39190611d74565b61029a565b6040516100e59190611dc3565b60405180910390f35b61010860048036038101906101039190611e36565b610363565b6040516101159190611e7e565b60405180910390f35b61013860048036038101906101339190611e99565b610445565b6040516101459190611f56565b60405180910390f35b61016860048036038101906101639190612175565b6104d9565b005b610184600480360381019061017f9190612307565b61057a565b604051610191919061243d565b60405180910390f35b6101a2610693565b005b6101be60048036038101906101b9919061245f565b6106a7565b005b6101c86106c1565b6040516101d591906124f1565b60405180910390f35b6101f860048036038101906101f39190612538565b6106eb565b005b610214600480360381019061020f9190612578565b610701565b6040516102219190611e7e565b60405180910390f35b610244600480360381019061023f91906125b8565b610795565b005b610260600480360381019061025b919061264f565b610836565b005b61027c6004803603810190610277919061267c565b6108b9565b005b61029860048036038101906102939190612770565b6108c9565b005b60008073ffffffffffffffffffffffffffffffffffffffff168373ffffffffffffffffffffffffffffffffffffffff160361030a576040517f08c379a00000000000000000000000000000000000000000000000000000000081526004016103019061282b565b60405180910390fd5b6065600083815260200190815260200160002060008473ffffffffffffffffffffffffffffffffffffffff1673ffffffffffffffffffffffffffffffffffffffff16815260200190815260200160002054905092915050565b60007fd9b67a26000000000000000000000000000000000000000000000000000000007bffffffffffffffffffffffffffffffffffffffffffffffffffffffff1916827bffffffffffffffffffffffffffffffffffffffffffffffffffffffff1916148061042e57507f0e89341c000000000000000000000000000000000000000000000000000000007bffffffffffffffffffffffffffffffffffffffffffffffffffffffff1916827bffffffffffffffffffffffffffffffffffffffffffffffffffffffff1916145b8061043e575061043d82610a11565b5b9050919050565b6060606780546104549061287a565b80601f01602080910402602001604051908101604052809291908181526020018280546104809061287a565b80156104cd5780601f106104a2576101008083540402835291602001916104cd565b820191906000526020600020905b8154815290600101906020018083116104b057829003601f168201915b50505050509050919050565b6104e1610a7b565b73ffffffffffffffffffffffffffffffffffffffff168573ffffffffffffffffffffffffffffffffffffffff161480610527575061052685610521610a7b565b610701565b5b610566576040517f08c379a000000000000000000000000000000000000000000000000000000000815260040161055d9061291d565b60405180910390fd5b6105738585858585610a83565b5050505050565b606081518351146105c0576040517f08c379a00000000000000000000000000000000000000000000000000000000081526004016105b7906129af565b60405180910390fd5b6000835167ffffffffffffffff8111156105dd576105dc611f7d565b5b60405190808252806020026020018201604052801561060b5781602001602082028036833780820191505090505b50905060005b8451811015610688576106588582815181106106305761062f6129cf565b5b602002602001015185838151811061064b5761064a6129cf565b5b602002602001015161029a565b82828151811061066b5761066a6129cf565b5b6020026020010181815250508061068190612a2d565b9050610611565b508091505092915050565b61069b610da7565b6106a56000610e25565b565b6106af610da7565b6106bb84848484610eeb565b50505050565b6000609760009054906101000a900473ffffffffffffffffffffffffffffffffffffffff16905090565b6106fd6106f6610a7b565b838361109c565b5050565b6000606660008473ffffffffffffffffffffffffffffffffffffffff1673ffffffffffffffffffffffffffffffffffffffff16815260200190815260200160002060008373ffffffffffffffffffffffffffffffffffffffff1673ffffffffffffffffffffffffffffffffffffffff16815260200190815260200160002060009054906101000a900460ff16905092915050565b61079d610a7b565b73ffffffffffffffffffffffffffffffffffffffff168573ffffffffffffffffffffffffffffffffffffffff1614806107e357506107e2856107dd610a7b565b610701565b5b610822576040517f08c379a00000000000000000000000000000000000000000000000000000000081526004016108199061291d565b60405180910390fd5b61082f8585858585611208565b5050505050565b61083e610da7565b600073ffffffffffffffffffffffffffffffffffffffff168173ffffffffffffffffffffffffffffffffffffffff16036108ad576040517f08c379a00000000000000000000000000000000000000000000000000000000081526004016108a490612ae7565b60405180910390fd5b6108b681610e25565b50565b6108c48383836114a6565b505050565b60008060019054906101000a900460ff161590508080156108fa5750600160008054906101000a900460ff1660ff16105b806109275750610909306116ee565b1580156109265750600160008054906101000a900460ff1660ff16145b5b610966576040517f08c379a000000000000000000000000000000000000000000000000000000000815260040161095d90612b79565b60405180910390fd5b60016000806101000a81548160ff021916908360ff16021790555080156109a3576001600060016101000a81548160ff0219169083151502179055505b6109ac82611711565b6109b461176c565b8015610a0d5760008060016101000a81548160ff0219169083151502179055507f7f26b83ff96e1f2b6a682f133852f6798a09c465da95921460cefb38474024986001604051610a049190612beb565b60405180910390a15b5050565b60007f01ffc9a7000000000000000000000000000000000000000000000000000000007bffffffffffffffffffffffffffffffffffffffffffffffffffffffff1916827bffffffffffffffffffffffffffffffffffffffffffffffffffffffff1916149050919050565b600033905090565b8151835114610ac7576040517f08c379a0000000000000000000000000000000000000000000000000000000008152600401610abe90612c78565b60405180910390fd5b600073ffffffffffffffffffffffffffffffffffffffff168473ffffffffffffffffffffffffffffffffffffffff1603610b36576040517f08c379a0000000000000000000000000000000000000000000000000000000008152600401610b2d90612d0a565b60405180910390fd5b6000610b40610a7b565b9050610b508187878787876117c5565b60005b8451811015610d04576000858281518110610b7157610b706129cf565b5b602002602001015190506000858381518110610b9057610b8f6129cf565b5b6020026020010151905060006065600084815260200190815260200160002060008b73ffffffffffffffffffffffffffffffffffffffff1673ffffffffffffffffffffffffffffffffffffffff16815260200190815260200160002054905081811015610c32576040517f08c379a0000000000000000000000000000000000000000000000000000000008152600401610c2990612d9c565b60405180910390fd5b8181036065600085815260200190815260200160002060008c73ffffffffffffffffffffffffffffffffffffffff1673ffffffffffffffffffffffffffffffffffffffff16815260200190815260200160002081905550816065600085815260200190815260200160002060008b73ffffffffffffffffffffffffffffffffffffffff1673ffffffffffffffffffffffffffffffffffffffff1681526020019081526020016000206000828254610ce99190612dbc565b9250508190555050505080610cfd90612a2d565b9050610b53565b508473ffffffffffffffffffffffffffffffffffffffff168673ffffffffffffffffffffffffffffffffffffffff168273ffffffffffffffffffffffffffffffffffffffff167f4a39dc06d4c0dbc64b70af90fd698a233a518aa5d07e595d983b8c0526c8f7fb8787604051610d7b929190612df0565b60405180910390a4610d918187878787876117cd565b610d9f8187878787876117d5565b505050505050565b610daf610a7b565b73ffffffffffffffffffffffffffffffffffffffff16610dcd6106c1565b73ffffffffffffffffffffffffffffffffffffffff1614610e23576040517f08c379a0000000000000000000000000000000000000000000000000000000008152600401610e1a90612e73565b60405180910390fd5b565b6000609760009054906101000a900473ffffffffffffffffffffffffffffffffffffffff16905081609760006101000a81548173ffffffffffffffffffffffffffffffffffffffff021916908373ffffffffffffffffffffffffffffffffffffffff1602179055508173ffffffffffffffffffffffffffffffffffffffff168173ffffffffffffffffffffffffffffffffffffffff167f8be0079c531659141344cd1fd0a4f28419497f9722a3daafe3b4186f6b6457e060405160405180910390a35050565b600073ffffffffffffffffffffffffffffffffffffffff168473ffffffffffffffffffffffffffffffffffffffff1603610f5a576040517f08c379a0000000000000000000000000000000000000000000000000000000008152600401610f5190612f05565b60405180910390fd5b6000610f64610a7b565b90506000610f71856119ac565b90506000610f7e856119ac565b9050610f8f836000898585896117c5565b846065600088815260200190815260200160002060008973ffffffffffffffffffffffffffffffffffffffff1673ffffffffffffffffffffffffffffffffffffffff1681526020019081526020016000206000828254610fef9190612dbc565b925050819055508673ffffffffffffffffffffffffffffffffffffffff16600073ffffffffffffffffffffffffffffffffffffffff168473ffffffffffffffffffffffffffffffffffffffff167fc3d58168c5ae7397731d063d5bbf3d657854427343f4c083240f7aacaa2d0f62898960405161106d929190612f25565b60405180910390a4611084836000898585896117cd565b61109383600089898989611a26565b50505050505050565b8173ffffffffffffffffffffffffffffffffffffffff168373ffffffffffffffffffffffffffffffffffffffff160361110a576040517f08c379a000000000000000000000000000000000000000000000000000000000815260040161110190612fc0565b60405180910390fd5b80606660008573ffffffffffffffffffffffffffffffffffffffff1673ffffffffffffffffffffffffffffffffffffffff16815260200190815260200160002060008473ffffffffffffffffffffffffffffffffffffffff1673ffffffffffffffffffffffffffffffffffffffff16815260200190815260200160002060006101000a81548160ff0219169083151502179055508173ffffffffffffffffffffffffffffffffffffffff168373ffffffffffffffffffffffffffffffffffffffff167f17307eab39ab6107e8899845ad3d59bd9653f200f220920489ca2b5937696c31836040516111fb9190611e7e565b60405180910390a3505050565b600073ffffffffffffffffffffffffffffffffffffffff168473ffffffffffffffffffffffffffffffffffffffff1603611277576040517f08c379a000000000000000000000000000000000000000000000000000000000815260040161126e90612d0a565b60405180910390fd5b6000611281610a7b565b9050600061128e856119ac565b9050600061129b856119ac565b90506112ab8389898585896117c5565b60006065600088815260200190815260200160002060008a73ffffffffffffffffffffffffffffffffffffffff1673ffffffffffffffffffffffffffffffffffffffff16815260200190815260200160002054905085811015611343576040517f08c379a000000000000000000000000000000000000000000000000000000000815260040161133a90612d9c565b60405180910390fd5b8581036065600089815260200190815260200160002060008b73ffffffffffffffffffffffffffffffffffffffff1673ffffffffffffffffffffffffffffffffffffffff16815260200190815260200160002081905550856065600089815260200190815260200160002060008a73ffffffffffffffffffffffffffffffffffffffff1673ffffffffffffffffffffffffffffffffffffffff16815260200190815260200160002060008282546113fa9190612dbc565b925050819055508773ffffffffffffffffffffffffffffffffffffffff168973ffffffffffffffffffffffffffffffffffffffff168573ffffffffffffffffffffffffffffffffffffffff167fc3d58168c5ae7397731d063d5bbf3d657854427343f4c083240f7aacaa2d0f628a8a604051611477929190612f25565b60405180910390a461148d848a8a86868a6117cd565b61149b848a8a8a8a8a611a26565b505050505050505050565b600073ffffffffffffffffffffffffffffffffffffffff168373ffffffffffffffffffffffffffffffffffffffff1603611515576040517f08c379a000000000000000000000000000000000000000000000000000000000815260040161150c90613052565b60405180910390fd5b600061151f610a7b565b9050600061152c846119ac565b90506000611539846119ac565b9050611559838760008585604051806020016040528060008152506117c5565b60006065600087815260200190815260200160002060008873ffffffffffffffffffffffffffffffffffffffff1673ffffffffffffffffffffffffffffffffffffffff168152602001908152602001600020549050848110156115f1576040517f08c379a00000000000000000000000000000000000000000000000000000000081526004016115e8906130e4565b60405180910390fd5b8481036065600088815260200190815260200160002060008973ffffffffffffffffffffffffffffffffffffffff1673ffffffffffffffffffffffffffffffffffffffff16815260200190815260200160002081905550600073ffffffffffffffffffffffffffffffffffffffff168773ffffffffffffffffffffffffffffffffffffffff168573ffffffffffffffffffffffffffffffffffffffff167fc3d58168c5ae7397731d063d5bbf3d657854427343f4c083240f7aacaa2d0f6289896040516116bf929190612f25565b60405180910390a46116e5848860008686604051806020016040528060008152506117cd565b50505050505050565b6000808273ffffffffffffffffffffffffffffffffffffffff163b119050919050565b600060019054906101000a900460ff16611760576040517f08c379a000000000000000000000000000000000000000000000000000000000815260040161175790613176565b60405180910390fd5b61176981611bfd565b50565b600060019054906101000a900460ff166117bb576040517f08c379a00000000000000000000000000000000000000000000000000000000081526004016117b290613176565b60405180910390fd5b6117c3611c58565b565b505050505050565b505050505050565b6117f48473ffffffffffffffffffffffffffffffffffffffff166116ee565b156119a4578373ffffffffffffffffffffffffffffffffffffffff1663bc197c8187878686866040518663ffffffff1660e01b815260040161183a9594939291906131eb565b6020604051808303816000875af192505050801561187657506040513d601f19601f820116820180604052508101906118739190613268565b60015b61191b576118826132a2565b806308c379a0036118de57506118966132c4565b806118a157506118e0565b806040517f08c379a00000000000000000000000000000000000000000000000000000000081526004016118d59190611f56565b60405180910390fd5b505b6040517f08c379a0000000000000000000000000000000000000000000000000000000008152600401611912906133c6565b60405180910390fd5b63bc197c8160e01b7bffffffffffffffffffffffffffffffffffffffffffffffffffffffff1916817bffffffffffffffffffffffffffffffffffffffffffffffffffffffff1916146119a2576040517f08c379a000000000000000000000000000000000000000000000000000000000815260040161199990613458565b60405180910390fd5b505b505050505050565b60606000600167ffffffffffffffff8111156119cb576119ca611f7d565b5b6040519080825280602002602001820160405280156119f95781602001602082028036833780820191505090505b5090508281600081518110611a1157611a106129cf565b5b60200260200101818152505080915050919050565b611a458473ffffffffffffffffffffffffffffffffffffffff166116ee565b15611bf5578373ffffffffffffffffffffffffffffffffffffffff1663f23a6e6187878686866040518663ffffffff1660e01b8152600401611a8b959493929190613478565b6020604051808303816000875af1925050508015611ac757506040513d601f19601f82011682018060405250810190611ac49190613268565b60015b611b6c57611ad36132a2565b806308c379a003611b2f5750611ae76132c4565b80611af25750611b31565b806040517f08c379a0000000000000000000000000000000000000000000000000000000008152600401611b269190611f56565b60405180910390fd5b505b6040517f08c379a0000000000000000000000000000000000000000000000000000000008152600401611b63906133c6565b60405180910390fd5b63f23a6e6160e01b7bffffffffffffffffffffffffffffffffffffffffffffffffffffffff1916817bffffffffffffffffffffffffffffffffffffffffffffffffffffffff191614611bf3576040517f08c379a0000000000000000000000000000000000000000000000000000000008152600401611bea90613458565b60405180910390fd5b505b505050505050565b600060019054906101000a900460ff16611c4c576040517f08c379a0000000000000000000000000000000000000000000000000000000008152600401611c4390613176565b60405180910390fd5b611c5581611cb9565b50565b600060019054906101000a900460ff16611ca7576040517f08c379a0000000000000000000000000000000000000000000000000000000008152600401611c9e90613176565b60405180910390fd5b611cb7611cb2610a7b565b610e25565b565b8060679081611cc89190613674565b5050565b6000604051905090565b600080fd5b600080fd5b600073ffffffffffffffffffffffffffffffffffffffff82169050919050565b6000611d0b82611ce0565b9050919050565b611d1b81611d00565b8114611d2657600080fd5b50565b600081359050611d3881611d12565b92915050565b6000819050919050565b611d5181611d3e565b8114611d5c57600080fd5b50565b600081359050611d6e81611d48565b92915050565b60008060408385031215611d8b57611d8a611cd6565b5b6000611d9985828601611d29565b9250506020611daa85828601611d5f565b9150509250929050565b611dbd81611d3e565b82525050565b6000602082019050611dd86000830184611db4565b92915050565b60007fffffffff0000000000000000000000000000000000000000000000000000000082169050919050565b611e1381611dde565b8114611e1e57600080fd5b50565b600081359050611e3081611e0a565b92915050565b600060208284031215611e4c57611e4b611cd6565b5b6000611e5a84828501611e21565b91505092915050565b60008115159050919050565b611e7881611e63565b82525050565b6000602082019050611e936000830184611e6f565b92915050565b600060208284031215611eaf57611eae611cd6565b5b6000611ebd84828501611d5f565b91505092915050565b600081519050919050565b600082825260208201905092915050565b60005b83811015611f00578082015181840152602081019050611ee5565b60008484015250505050565b6000601f19601f8301169050919050565b6000611f2882611ec6565b611f328185611ed1565b9350611f42818560208601611ee2565b611f4b81611f0c565b840191505092915050565b60006020820190508181036000830152611f708184611f1d565b905092915050565b600080fd5b7f4e487b7100000000000000000000000000000000000000000000000000000000600052604160045260246000fd5b611fb582611f0c565b810181811067ffffffffffffffff82111715611fd457611fd3611f7d565b5b80604052505050565b6000611fe7611ccc565b9050611ff38282611fac565b919050565b600067ffffffffffffffff82111561201357612012611f7d565b5b602082029050602081019050919050565b600080fd5b600061203c61203784611ff8565b611fdd565b9050808382526020820190506020840283018581111561205f5761205e612024565b5b835b8181101561208857806120748882611d5f565b845260208401935050602081019050612061565b5050509392505050565b600082601f8301126120a7576120a6611f78565b5b81356120b7848260208601612029565b91505092915050565b600080fd5b600067ffffffffffffffff8211156120e0576120df611f7d565b5b6120e982611f0c565b9050602081019050919050565b82818337600083830152505050565b6000612118612113846120c5565b611fdd565b905082815260208101848484011115612134576121336120c0565b5b61213f8482856120f6565b509392505050565b600082601f83011261215c5761215b611f78565b5b813561216c848260208601612105565b91505092915050565b600080600080600060a0868803121561219157612190611cd6565b5b600061219f88828901611d29565b95505060206121b088828901611d29565b945050604086013567ffffffffffffffff8111156121d1576121d0611cdb565b5b6121dd88828901612092565b935050606086013567ffffffffffffffff8111156121fe576121fd611cdb565b5b61220a88828901612092565b925050608086013567ffffffffffffffff81111561222b5761222a611cdb565b5b61223788828901612147565b9150509295509295909350565b600067ffffffffffffffff82111561225f5761225e611f7d565b5b602082029050602081019050919050565b600061228361227e84612244565b611fdd565b905080838252602082019050602084028301858111156122a6576122a5612024565b5b835b818110156122cf57806122bb8882611d29565b8452602084019350506020810190506122a8565b5050509392505050565b600082601f8301126122ee576122ed611f78565b5b81356122fe848260208601612270565b91505092915050565b6000806040838503121561231e5761231d611cd6565b5b600083013567ffffffffffffffff81111561233c5761233b611cdb565b5b612348858286016122d9565b925050602083013567ffffffffffffffff81111561236957612368611cdb565b5b61237585828601612092565b9150509250929050565b600081519050919050565b600082825260208201905092915050565b6000819050602082019050919050565b6123b481611d3e565b82525050565b60006123c683836123ab565b60208301905092915050565b6000602082019050919050565b60006123ea8261237f565b6123f4818561238a565b93506123ff8361239b565b8060005b8381101561243057815161241788826123ba565b9750612422836123d2565b925050600181019050612403565b5085935050505092915050565b6000602082019050818103600083015261245781846123df565b905092915050565b6000806000806080858703121561247957612478611cd6565b5b600061248787828801611d29565b945050602061249887828801611d5f565b93505060406124a987828801611d5f565b925050606085013567ffffffffffffffff8111156124ca576124c9611cdb565b5b6124d687828801612147565b91505092959194509250565b6124eb81611d00565b82525050565b600060208201905061250660008301846124e2565b92915050565b61251581611e63565b811461252057600080fd5b50565b6000813590506125328161250c565b92915050565b6000806040838503121561254f5761254e611cd6565b5b600061255d85828601611d29565b925050602061256e85828601612523565b9150509250929050565b6000806040838503121561258f5761258e611cd6565b5b600061259d85828601611d29565b92505060206125ae85828601611d29565b9150509250929050565b600080600080600060a086880312156125d4576125d3611cd6565b5b60006125e288828901611d29565b95505060206125f388828901611d29565b945050604061260488828901611d5f565b935050606061261588828901611d5f565b925050608086013567ffffffffffffffff81111561263657612635611cdb565b5b61264288828901612147565b9150509295509295909350565b60006020828403121561266557612664611cd6565b5b600061267384828501611d29565b91505092915050565b60008060006060848603121561269557612694611cd6565b5b60006126a386828701611d29565b93505060206126b486828701611d5f565b92505060406126c586828701611d5f565b9150509250925092565b600067ffffffffffffffff8211156126ea576126e9611f7d565b5b6126f382611f0c565b9050602081019050919050565b600061271361270e846126cf565b611fdd565b90508281526020810184848401111561272f5761272e6120c0565b5b61273a8482856120f6565b509392505050565b600082601f83011261275757612756611f78565b5b8135612767848260208601612700565b91505092915050565b60006020828403121561278657612785611cd6565b5b600082013567ffffffffffffffff8111156127a4576127a3611cdb565b5b6127b084828501612742565b91505092915050565b7f455243313135353a2061646472657373207a65726f206973206e6f742061207660008201527f616c6964206f776e657200000000000000000000000000000000000000000000602082015250565b6000612815602a83611ed1565b9150612820826127b9565b604082019050919050565b6000602082019050818103600083015261284481612808565b9050919050565b7f4e487b7100000000000000000000000000000000000000000000000000000000600052602260045260246000fd5b6000600282049050600182168061289257607f821691505b6020821081036128a5576128a461284b565b5b50919050565b7f455243313135353a2063616c6c6572206973206e6f7420746f6b656e206f776e60008201527f6572206e6f7220617070726f7665640000000000000000000000000000000000602082015250565b6000612907602f83611ed1565b9150612912826128ab565b604082019050919050565b60006020820190508181036000830152612936816128fa565b9050919050565b7f455243313135353a206163636f756e747320616e6420696473206c656e67746860008201527f206d69736d617463680000000000000000000000000000000000000000000000602082015250565b6000612999602983611ed1565b91506129a48261293d565b604082019050919050565b600060208201905081810360008301526129c88161298c565b9050919050565b7f4e487b7100000000000000000000000000000000000000000000000000000000600052603260045260246000fd5b7f4e487b7100000000000000000000000000000000000000000000000000000000600052601160045260246000fd5b6000612a3882611d3e565b91507fffffffffffffffffffffffffffffffffffffffffffffffffffffffffffffffff8203612a6a57612a696129fe565b5b600182019050919050565b7f4f776e61626c653a206e6577206f776e657220697320746865207a65726f206160008201527f6464726573730000000000000000000000000000000000000000000000000000602082015250565b6000612ad1602683611ed1565b9150612adc82612a75565b604082019050919050565b60006020820190508181036000830152612b0081612ac4565b9050919050565b7f496e697469616c697a61626c653a20636f6e747261637420697320616c72656160008201527f647920696e697469616c697a6564000000000000000000000000000000000000602082015250565b6000612b63602e83611ed1565b9150612b6e82612b07565b604082019050919050565b60006020820190508181036000830152612b9281612b56565b9050919050565b6000819050919050565b600060ff82169050919050565b6000819050919050565b6000612bd5612bd0612bcb84612b99565b612bb0565b612ba3565b9050919050565b612be581612bba565b82525050565b6000602082019050612c006000830184612bdc565b92915050565b7f455243313135353a2069647320616e6420616d6f756e7473206c656e6774682060008201527f6d69736d61746368000000000000000000000000000000000000000000000000602082015250565b6000612c62602883611ed1565b9150612c6d82612c06565b604082019050919050565b60006020820190508181036000830152612c9181612c55565b9050919050565b7f455243313135353a207472616e7366657220746f20746865207a65726f20616460008201527f6472657373000000000000000000000000000000000000000000000000000000602082015250565b6000612cf4602583611ed1565b9150612cff82612c98565b604082019050919050565b60006020820190508181036000830152612d2381612ce7565b9050919050565b7f455243313135353a20696e73756666696369656e742062616c616e636520666f60008201527f72207472616e7366657200000000000000000000000000000000000000000000602082015250565b6000612d86602a83611ed1565b9150612d9182612d2a565b604082019050919050565b60006020820190508181036000830152612db581612d79565b9050919050565b6000612dc782611d3e565b9150612dd283611d3e565b9250828201905080821115612dea57612de96129fe565b5b92915050565b60006040820190508181036000830152612e0a81856123df565b90508181036020830152612e1e81846123df565b90509392505050565b7f4f776e61626c653a2063616c6c6572206973206e6f7420746865206f776e6572600082015250565b6000612e5d602083611ed1565b9150612e6882612e27565b602082019050919050565b60006020820190508181036000830152612e8c81612e50565b9050919050565b7f455243313135353a206d696e7420746f20746865207a65726f2061646472657360008201527f7300000000000000000000000000000000000000000000000000000000000000602082015250565b6000612eef602183611ed1565b9150612efa82612e93565b604082019050919050565b60006020820190508181036000830152612f1e81612ee2565b9050919050565b6000604082019050612f3a6000830185611db4565b612f476020830184611db4565b9392505050565b7f455243313135353a2073657474696e6720617070726f76616c2073746174757360008201527f20666f722073656c660000000000000000000000000000000000000000000000602082015250565b6000612faa602983611ed1565b9150612fb582612f4e565b604082019050919050565b60006020820190508181036000830152612fd981612f9d565b9050919050565b7f455243313135353a206275726e2066726f6d20746865207a65726f206164647260008201527f6573730000000000000000000000000000000000000000000000000000000000602082015250565b600061303c602383611ed1565b915061304782612fe0565b604082019050919050565b6000602082019050818103600083015261306b8161302f565b9050919050565b7f455243313135353a206275726e20616d6f756e7420657863656564732062616c60008201527f616e636500000000000000000000000000000000000000000000000000000000602082015250565b60006130ce602483611ed1565b91506130d982613072565b604082019050919050565b600060208201905081810360008301526130fd816130c1565b9050919050565b7f496e697469616c697a61626c653a20636f6e7472616374206973206e6f74206960008201527f6e697469616c697a696e67000000000000000000000000000000000000000000602082015250565b6000613160602b83611ed1565b915061316b82613104565b604082019050919050565b6000602082019050818103600083015261318f81613153565b9050919050565b600081519050919050565b600082825260208201905092915050565b60006131bd82613196565b6131c781856131a1565b93506131d7818560208601611ee2565b6131e081611f0c565b840191505092915050565b600060a08201905061320060008301886124e2565b61320d60208301876124e2565b818103604083015261321f81866123df565b9050818103606083015261323381856123df565b9050818103608083015261324781846131b2565b90509695505050505050565b60008151905061326281611e0a565b92915050565b60006020828403121561327e5761327d611cd6565b5b600061328c84828501613253565b91505092915050565b60008160e01c9050919050565b600060033d11156132c15760046000803e6132be600051613295565b90505b90565b600060443d10613351576132d6611ccc565b60043d036004823e80513d602482011167ffffffffffffffff821117156132fe575050613351565b808201805167ffffffffffffffff81111561331c5750505050613351565b80602083010160043d038501811115613339575050505050613351565b61334882602001850186611fac565b82955050505050505b90565b7f455243313135353a207472616e7366657220746f206e6f6e204552433131353560008201527f526563656976657220696d706c656d656e746572000000000000000000000000602082015250565b60006133b0603483611ed1565b91506133bb82613354565b604082019050919050565b600060208201905081810360008301526133df816133a3565b9050919050565b7f455243313135353a204552433131353552656365697665722072656a6563746560008201527f6420746f6b656e73000000000000000000000000000000000000000000000000602082015250565b6000613442602883611ed1565b915061344d826133e6565b604082019050919050565b6000602082019050818103600083015261347181613435565b9050919050565b600060a08201905061348d60008301886124e2565b61349a60208301876124e2565b6134a76040830186611db4565b6134b46060830185611db4565b81810360808301526134c681846131b2565b90509695505050505050565b60008190508160005260206000209050919050565b60006020601f8301049050919050565b600082821b905092915050565b6000600883026135347fffffffffffffffffffffffffffffffffffffffffffffffffffffffffffffffff826134f7565b61353e86836134f7565b95508019841693508086168417925050509392505050565b600061357161356c61356784611d3e565b612bb0565b611d3e565b9050919050565b6000819050919050565b61358b83613556565b61359f61359782613578565b848454613504565b825550505050565b600090565b6135b46135a7565b6135bf818484613582565b505050565b5b818110156135e3576135d86000826135ac565b6001810190506135c5565b5050565b601f821115613628576135f9816134d2565b613602846134e7565b81016020851015613611578190505b61362561361d856134e7565b8301826135c4565b50505b505050565b600082821c905092915050565b600061364b6000198460080261362d565b1980831691505092915050565b6000613664838361363a565b9150826002028217905092915050565b61367d82611ec6565b67ffffffffffffffff81111561369657613695611f7d565b5b6136a0825461287a565b6136ab8282856135e7565b600060209050601f8311600181146136de57600084156136cc578287015190505b6136d68582613658565b86555061373e565b601f1984166136ec866134d2565b60005b82811015613714578489015182556001820191506020850194506020810190506136ef565b86831015613731578489015161372d601f89168261363a565b8355505b6001600288020188555050505b50505050505056fea2646970667358221220aa14d418ff940007f5b278aa060dc666774a52ebb9c6f7f1bf9ee029d435129c64736f6c63430008100033",
  "devdoc": {
    "details": "Implementation of the basic standard multi-token. See https://eips.ethereum.org/EIPS/eip-1155 Originally based on code by Enjin: https://github.com/enjin/erc-1155 _Available since v3.1._",
    "kind": "dev",
    "methods": {
      "balanceOf(address,uint256)": {
        "details": "See {IERC1155-balanceOf}. Requirements: - `account` cannot be the zero address."
      },
      "balanceOfBatch(address[],uint256[])": {
        "details": "See {IERC1155-balanceOfBatch}. Requirements: - `accounts` and `ids` must have the same length."
      },
      "burn(address,uint256,uint256)": {
        "details": "only owner",
        "params": {
          "_account": "address of the owner of token what is burned",
          "_amount": "amount of token what is burned",
          "_id": "id of token what is burned"
        }
      },
      "initialize(string)": {
        "details": "Initializes the contract by setting a `name` and a `symbol` to the token collection."
      },
      "isApprovedForAll(address,address)": {
        "details": "See {IERC1155-isApprovedForAll}."
      },
      "mint(address,uint256,uint256,bytes)": {
        "details": "only owner",
        "params": {
          "_amount": "amount of new token",
          "_data": "external data",
          "_id": "id of new token",
          "_to": "address of the owner of new token"
        }
      },
      "owner()": {
        "details": "Returns the address of the current owner."
      },
      "renounceOwnership()": {
        "details": "Leaves the contract without owner. It will not be possible to call `onlyOwner` functions anymore. Can only be called by the current owner. NOTE: Renouncing ownership will leave the contract without an owner, thereby removing any functionality that is only available to the owner."
      },
      "safeBatchTransferFrom(address,address,uint256[],uint256[],bytes)": {
        "details": "See {IERC1155-safeBatchTransferFrom}."
      },
      "safeTransferFrom(address,address,uint256,uint256,bytes)": {
        "details": "See {IERC1155-safeTransferFrom}."
      },
      "setApprovalForAll(address,bool)": {
        "details": "See {IERC1155-setApprovalForAll}."
      },
      "supportsInterface(bytes4)": {
        "details": "See {IERC165-supportsInterface}."
      },
      "transferOwnership(address)": {
        "details": "Transfers ownership of the contract to a new account (`newOwner`). Can only be called by the current owner."
      },
      "uri(uint256)": {
        "details": "See {IERC1155MetadataURI-uri}. This implementation returns the same URI for *all* token types. It relies on the token type ID substitution mechanism https://eips.ethereum.org/EIPS/eip-1155#metadata[defined in the EIP]. Clients calling this function must replace the `\\{id\\}` substring with the actual token type ID."
      }
    },
    "version": 1
  },
  "userdoc": {
    "kind": "user",
    "methods": {
      "burn(address,uint256,uint256)": {
        "notice": "method for burning existing token"
      },
      "mint(address,uint256,uint256,bytes)": {
        "notice": "method for minting new token"
      }
    },
    "version": 1
  },
  "storageLayout": {
    "storage": [
      {
        "astId": 551,
        "contract": "contracts/CarbonCredit.sol:CarbonCredit",
        "label": "_initialized",
        "offset": 0,
        "slot": "0",
        "type": "t_uint8"
      },
      {
        "astId": 554,
        "contract": "contracts/CarbonCredit.sol:CarbonCredit",
        "label": "_initializing",
        "offset": 1,
        "slot": "0",
        "type": "t_bool"
      },
      {
        "astId": 3455,
        "contract": "contracts/CarbonCredit.sol:CarbonCredit",
        "label": "__gap",
        "offset": 0,
        "slot": "1",
        "type": "t_array(t_uint256)50_storage"
      },
      {
        "astId": 3725,
        "contract": "contracts/CarbonCredit.sol:CarbonCredit",
        "label": "__gap",
        "offset": 0,
        "slot": "51",
        "type": "t_array(t_uint256)50_storage"
      },
      {
        "astId": 724,
        "contract": "contracts/CarbonCredit.sol:CarbonCredit",
        "label": "_balances",
        "offset": 0,
        "slot": "101",
        "type": "t_mapping(t_uint256,t_mapping(t_address,t_uint256))"
      },
      {
        "astId": 730,
        "contract": "contracts/CarbonCredit.sol:CarbonCredit",
        "label": "_operatorApprovals",
        "offset": 0,
        "slot": "102",
        "type": "t_mapping(t_address,t_mapping(t_address,t_bool))"
      },
      {
        "astId": 732,
        "contract": "contracts/CarbonCredit.sol:CarbonCredit",
        "label": "_uri",
        "offset": 0,
        "slot": "103",
        "type": "t_string_storage"
      },
      {
        "astId": 1939,
        "contract": "contracts/CarbonCredit.sol:CarbonCredit",
        "label": "__gap",
        "offset": 0,
        "slot": "104",
        "type": "t_array(t_uint256)47_storage"
      },
      {
        "astId": 423,
        "contract": "contracts/CarbonCredit.sol:CarbonCredit",
        "label": "_owner",
        "offset": 0,
        "slot": "151",
        "type": "t_address"
      },
      {
        "astId": 543,
        "contract": "contracts/CarbonCredit.sol:CarbonCredit",
        "label": "__gap",
        "offset": 0,
        "slot": "152",
        "type": "t_array(t_uint256)49_storage"
      }
    ],
    "types": {
      "t_address": {
        "encoding": "inplace",
        "label": "address",
        "numberOfBytes": "20"
      },
      "t_array(t_uint256)47_storage": {
        "base": "t_uint256",
        "encoding": "inplace",
        "label": "uint256[47]",
        "numberOfBytes": "1504"
      },
      "t_array(t_uint256)49_storage": {
        "base": "t_uint256",
        "encoding": "inplace",
        "label": "uint256[49]",
        "numberOfBytes": "1568"
      },
      "t_array(t_uint256)50_storage": {
        "base": "t_uint256",
        "encoding": "inplace",
        "label": "uint256[50]",
        "numberOfBytes": "1600"
      },
      "t_bool": {
        "encoding": "inplace",
        "label": "bool",
        "numberOfBytes": "1"
      },
      "t_mapping(t_address,t_bool)": {
        "encoding": "mapping",
        "key": "t_address",
        "label": "mapping(address => bool)",
        "numberOfBytes": "32",
        "value": "t_bool"
      },
      "t_mapping(t_address,t_mapping(t_address,t_bool))": {
        "encoding": "mapping",
        "key": "t_address",
        "label": "mapping(address => mapping(address => bool))",
        "numberOfBytes": "32",
        "value": "t_mapping(t_address,t_bool)"
      },
      "t_mapping(t_address,t_uint256)": {
        "encoding": "mapping",
        "key": "t_address",
        "label": "mapping(address => uint256)",
        "numberOfBytes": "32",
        "value": "t_uint256"
      },
      "t_mapping(t_uint256,t_mapping(t_address,t_uint256))": {
        "encoding": "mapping",
        "key": "t_uint256",
        "label": "mapping(uint256 => mapping(address => uint256))",
        "numberOfBytes": "32",
        "value": "t_mapping(t_address,t_uint256)"
      },
      "t_string_storage": {
        "encoding": "bytes",
        "label": "string",
        "numberOfBytes": "32"
      },
      "t_uint256": {
        "encoding": "inplace",
        "label": "uint256",
        "numberOfBytes": "32"
      },
      "t_uint8": {
        "encoding": "inplace",
        "label": "uint8",
        "numberOfBytes": "1"
      }
    }
  }
}