{
  "address": "0xCA7D87dA78E5e681Ddd7fEb95d4f9147A6487B56",
  "abi": [
    {
      "inputs": [
        {
          "internalType": "string",
          "name": "tokenName",
          "type": "string"
        },
        {
          "internalType": "string",
          "name": "tokenSymbol",
          "type": "string"
        }
      ],
      "name": "deploy",
      "outputs": [
        {
          "internalType": "contract CollateralizedBasketToken",
          "name": "token",
          "type": "address"
        }
      ],
      "stateMutability": "nonpayable",
      "type": "function"
    }
  ],
  "transactionHash": "0x759536ce740cc40cbd5c9471ad024bdf81482d6ffb96eea19680655d96f8c81d",
  "args": [],
  "numDeployments": 1,
  "solcInputHash": "127010483d562c5b4d4bfaefd00ffb55",
  "bytecode": "0x608060405234801561001057600080fd5b506112d1806100206000396000f3fe608060405234801561001057600080fd5b506004361061002b5760003560e01c8063b548848714610030575b600080fd5b61004361003e366004610155565b61005f565b6040516001600160a01b03909116815260200160405180910390f35b600084848484604051610071906100ff565b61007e94939291906101ea565b604051809103906000f08015801561009a573d6000803e3d6000fd5b5060405163f2fde38b60e01b81523360048201529091506001600160a01b0382169063f2fde38b90602401600060405180830381600087803b1580156100df57600080fd5b505af11580156100f3573d6000803e3d6000fd5b50505050949350505050565b61107f8061021d83390190565b60008083601f84011261011e57600080fd5b50813567ffffffffffffffff81111561013657600080fd5b60208301915083602082850101111561014e57600080fd5b9250929050565b6000806000806040858703121561016b57600080fd5b843567ffffffffffffffff8082111561018357600080fd5b61018f8883890161010c565b909650945060208701359150808211156101a857600080fd5b506101b58782880161010c565b95989497509550505050565b81835281816020850137506000828201602090810191909152601f909101601f19169091010190565b6040815260006101fe6040830186886101c1565b82810360208401526102118185876101c1565b97965050505050505056fe60806040523480156200001157600080fd5b506040516200107f3803806200107f833981016040819052620000349162000193565b818160036200004483826200028c565b5060046200005382826200028c565b505050620000706200006a6200007860201b60201c565b6200007c565b505062000358565b3390565b600580546001600160a01b038381166001600160a01b0319831681179093556040519116919082907f8be0079c531659141344cd1fd0a4f28419497f9722a3daafe3b4186f6b6457e090600090a35050565b634e487b7160e01b600052604160045260246000fd5b600082601f830112620000f657600080fd5b81516001600160401b0380821115620001135762000113620000ce565b604051601f8301601f19908116603f011681019082821181831017156200013e576200013e620000ce565b816040528381526020925086838588010111156200015b57600080fd5b600091505b838210156200017f578582018301518183018401529082019062000160565b600093810190920192909252949350505050565b60008060408385031215620001a757600080fd5b82516001600160401b0380821115620001bf57600080fd5b620001cd86838701620000e4565b93506020850151915080821115620001e457600080fd5b50620001f385828601620000e4565b9150509250929050565b600181811c908216806200021257607f821691505b6020821081036200023357634e487b7160e01b600052602260045260246000fd5b50919050565b601f8211156200028757600081815260208120601f850160051c81016020861015620002625750805b601f850160051c820191505b8181101562000283578281556001016200026e565b5050505b505050565b81516001600160401b03811115620002a857620002a8620000ce565b620002c081620002b98454620001fd565b8462000239565b602080601f831160018114620002f85760008415620002df5750858301515b600019600386901b1c1916600185901b17855562000283565b600085815260208120601f198616915b82811015620003295788860151825594840194600190910190840162000308565b5085821015620003485787850151600019600388901b60f8161c191681555b5050505050600190811b01905550565b610d1780620003686000396000f3fe608060405234801561001057600080fd5b506004361061010b5760003560e01c806370a08231116100a257806395d89b411161007157806395d89b411461021f578063a457c2d714610227578063a9059cbb1461023a578063dd62ed3e1461024d578063f2fde38b1461026057600080fd5b806370a08231146101c0578063715018a6146101e957806379cc6790146101f15780638da5cb5b1461020457600080fd5b8063313ce567116100de578063313ce56714610176578063395093511461018557806340c10f191461019857806342966c68146101ad57600080fd5b806306fdde0314610110578063095ea7b31461012e57806318160ddd1461015157806323b872dd14610163575b600080fd5b610118610273565b6040516101259190610b2d565b60405180910390f35b61014161013c366004610b97565b610305565b6040519015158152602001610125565b6002545b604051908152602001610125565b610141610171366004610bc1565b61031f565b60405160128152602001610125565b610141610193366004610b97565b610343565b6101ab6101a6366004610b97565b610365565b005b6101ab6101bb366004610bfd565b61037b565b6101556101ce366004610c16565b6001600160a01b031660009081526020819052604090205490565b6101ab610388565b6101ab6101ff366004610b97565b61039c565b6005546040516001600160a01b039091168152602001610125565b6101186103b1565b610141610235366004610b97565b6103c0565b610141610248366004610b97565b610440565b61015561025b366004610c38565b61044e565b6101ab61026e366004610c16565b610479565b60606003805461028290610c6b565b80601f01602080910402602001604051908101604052809291908181526020018280546102ae90610c6b565b80156102fb5780601f106102d0576101008083540402835291602001916102fb565b820191906000526020600020905b8154815290600101906020018083116102de57829003601f168201915b5050505050905090565b6000336103138185856104ef565b60019150505b92915050565b60003361032d858285610614565b61033885858561068e565b506001949350505050565b600033610313818585610356838361044e565b6103609190610cbb565b6104ef565b61036d61085c565b61037782826108b6565b5050565b6103853382610995565b50565b61039061085c565b61039a6000610adb565b565b6103a7823383610614565b6103778282610995565b60606004805461028290610c6b565b600033816103ce828661044e565b9050838110156104335760405162461bcd60e51b815260206004820152602560248201527f45524332303a2064656372656173656420616c6c6f77616e63652062656c6f77604482015264207a65726f60d81b60648201526084015b60405180910390fd5b61033882868684036104ef565b60003361031381858561068e565b6001600160a01b03918216600090815260016020908152604080832093909416825291909152205490565b61048161085c565b6001600160a01b0381166104e65760405162461bcd60e51b815260206004820152602660248201527f4f776e61626c653a206e6577206f776e657220697320746865207a65726f206160448201526564647265737360d01b606482015260840161042a565b61038581610adb565b6001600160a01b0383166105515760405162461bcd60e51b8152602060048201526024808201527f45524332303a20617070726f76652066726f6d20746865207a65726f206164646044820152637265737360e01b606482015260840161042a565b6001600160a01b0382166105b25760405162461bcd60e51b815260206004820152602260248201527f45524332303a20617070726f766520746f20746865207a65726f206164647265604482015261737360f01b606482015260840161042a565b6001600160a01b0383811660008181526001602090815260408083209487168084529482529182902085905590518481527f8c5be1e5ebec7d5bd14f71427d1e84f3dd0314c0f7b2291e5b200ac8c7c3b92591015b60405180910390a3505050565b6000610620848461044e565b90506000198114610688578181101561067b5760405162461bcd60e51b815260206004820152601d60248201527f45524332303a20696e73756666696369656e7420616c6c6f77616e6365000000604482015260640161042a565b61068884848484036104ef565b50505050565b6001600160a01b0383166106f25760405162461bcd60e51b815260206004820152602560248201527f45524332303a207472616e736665722066726f6d20746865207a65726f206164604482015264647265737360d81b606482015260840161042a565b6001600160a01b0382166107545760405162461bcd60e51b815260206004820152602360248201527f45524332303a207472616e7366657220746f20746865207a65726f206164647260448201526265737360e81b606482015260840161042a565b6001600160a01b038316600090815260208190526040902054818110156107cc5760405162461bcd60e51b815260206004820152602660248201527f45524332303a207472616e7366657220616d6f756e7420657863656564732062604482015265616c616e636560d01b606482015260840161042a565b6001600160a01b03808516600090815260208190526040808220858503905591851681529081208054849290610803908490610cbb565b92505081905550826001600160a01b0316846001600160a01b03167fddf252ad1be2c89b69c2b068fc378daa952ba7f163c4a11628f55a4df523b3ef8460405161084f91815260200190565b60405180910390a3610688565b6005546001600160a01b0316331461039a5760405162461bcd60e51b815260206004820181905260248201527f4f776e61626c653a2063616c6c6572206973206e6f7420746865206f776e6572604482015260640161042a565b6001600160a01b03821661090c5760405162461bcd60e51b815260206004820152601f60248201527f45524332303a206d696e7420746f20746865207a65726f206164647265737300604482015260640161042a565b806002600082825461091e9190610cbb565b90915550506001600160a01b0382166000908152602081905260408120805483929061094b908490610cbb565b90915550506040518181526001600160a01b038316906000907fddf252ad1be2c89b69c2b068fc378daa952ba7f163c4a11628f55a4df523b3ef9060200160405180910390a35050565b6001600160a01b0382166109f55760405162461bcd60e51b815260206004820152602160248201527f45524332303a206275726e2066726f6d20746865207a65726f206164647265736044820152607360f81b606482015260840161042a565b6001600160a01b03821660009081526020819052604090205481811015610a695760405162461bcd60e51b815260206004820152602260248201527f45524332303a206275726e20616d6f756e7420657863656564732062616c616e604482015261636560f01b606482015260840161042a565b6001600160a01b0383166000908152602081905260408120838303905560028054849290610a98908490610cce565b90915550506040518281526000906001600160a01b038516907fddf252ad1be2c89b69c2b068fc378daa952ba7f163c4a11628f55a4df523b3ef90602001610607565b600580546001600160a01b038381166001600160a01b0319831681179093556040519116919082907f8be0079c531659141344cd1fd0a4f28419497f9722a3daafe3b4186f6b6457e090600090a35050565b600060208083528351808285015260005b81811015610b5a57858101830151858201604001528201610b3e565b506000604082860101526040601f19601f8301168501019250505092915050565b80356001600160a01b0381168114610b9257600080fd5b919050565b60008060408385031215610baa57600080fd5b610bb383610b7b565b946020939093013593505050565b600080600060608486031215610bd657600080fd5b610bdf84610b7b565b9250610bed60208501610b7b565b9150604084013590509250925092565b600060208284031215610c0f57600080fd5b5035919050565b600060208284031215610c2857600080fd5b610c3182610b7b565b9392505050565b60008060408385031215610c4b57600080fd5b610c5483610b7b565b9150610c6260208401610b7b565b90509250929050565b600181811c90821680610c7f57607f821691505b602082108103610c9f57634e487b7160e01b600052602260045260246000fd5b50919050565b634e487b7160e01b600052601160045260246000fd5b8082018082111561031957610319610ca5565b8181038181111561031957610319610ca556fea2646970667358221220e4f571360695fbec99785064285a6900a7ad6d58b03dec580c622e828d9c675164736f6c63430008110033a2646970667358221220253e008d1ada877bf1f762675db96cff77b45edf51b3d52fd0ecaa9670eec7a064736f6c63430008110033",
  "devdoc": {
    "kind": "dev",
    "methods": {},
    "version": 1
  },
  "userdoc": {
    "kind": "user",
    "methods": {},
    "version": 1
  },
  "storageLayout": {
    "storage": [],
    "types": null
  }
}