{
  "address": "0xBcdD85234BAe4C6543850ca2Dcf0B1f8b205e83D",
  "abi": [
    {
      "inputs": [
        {
          "internalType": "string",
          "name": "uri",
          "type": "string"
        }
      ],
      "stateMutability": "nonpayable",
      "type": "constructor"
    },
    {
      "anonymous": false,
      "inputs": [
        {
          "indexed": true,
          "internalType": "address",
          "name": "account",
          "type": "address"
        },
        {
          "indexed": true,
          "internalType": "address",
          "name": "operator",
          "type": "address"
        },
        {
          "indexed": false,
          "internalType": "bool",
          "name": "approved",
          "type": "bool"
        }
      ],
      "name": "ApprovalForAll",
      "type": "event"
    },
    {
      "anonymous": false,
      "inputs": [
        {
          "indexed": true,
          "internalType": "address",
          "name": "previousOwner",
          "type": "address"
        },
        {
          "indexed": true,
          "internalType": "address",
          "name": "newOwner",
          "type": "address"
        }
      ],
      "name": "OwnershipTransferred",
      "type": "event"
    },
    {
      "anonymous": false,
      "inputs": [
        {
          "indexed": true,
          "internalType": "address",
          "name": "operator",
          "type": "address"
        },
        {
          "indexed": true,
          "internalType": "address",
          "name": "from",
          "type": "address"
        },
        {
          "indexed": true,
          "internalType": "address",
          "name": "to",
          "type": "address"
        },
        {
          "indexed": false,
          "internalType": "uint256[]",
          "name": "ids",
          "type": "uint256[]"
        },
        {
          "indexed": false,
          "internalType": "uint256[]",
          "name": "values",
          "type": "uint256[]"
        }
      ],
      "name": "TransferBatch",
      "type": "event"
    },
    {
      "anonymous": false,
      "inputs": [
        {
          "indexed": true,
          "internalType": "address",
          "name": "operator",
          "type": "address"
        },
        {
          "indexed": true,
          "internalType": "address",
          "name": "from",
          "type": "address"
        },
        {
          "indexed": true,
          "internalType": "address",
          "name": "to",
          "type": "address"
        },
        {
          "indexed": false,
          "internalType": "uint256",
          "name": "id",
          "type": "uint256"
        },
        {
          "indexed": false,
          "internalType": "uint256",
          "name": "value",
          "type": "uint256"
        }
      ],
      "name": "TransferSingle",
      "type": "event"
    },
    {
      "anonymous": false,
      "inputs": [
        {
          "indexed": false,
          "internalType": "string",
          "name": "value",
          "type": "string"
        },
        {
          "indexed": true,
          "internalType": "uint256",
          "name": "id",
          "type": "uint256"
        }
      ],
      "name": "URI",
      "type": "event"
    },
    {
      "inputs": [
        {
          "internalType": "address",
          "name": "account",
          "type": "address"
        },
        {
          "internalType": "uint256",
          "name": "id",
          "type": "uint256"
        }
      ],
      "name": "balanceOf",
      "outputs": [
        {
          "internalType": "uint256",
          "name": "",
          "type": "uint256"
        }
      ],
      "stateMutability": "view",
      "type": "function"
    },
    {
      "inputs": [
        {
          "internalType": "address[]",
          "name": "accounts",
          "type": "address[]"
        },
        {
          "internalType": "uint256[]",
          "name": "ids",
          "type": "uint256[]"
        }
      ],
      "name": "balanceOfBatch",
      "outputs": [
        {
          "internalType": "uint256[]",
          "name": "",
          "type": "uint256[]"
        }
      ],
      "stateMutability": "view",
      "type": "function"
    },
    {
      "inputs": [
        {
          "internalType": "address",
          "name": "account",
          "type": "address"
        },
        {
          "internalType": "uint256",
          "name": "id",
          "type": "uint256"
        },
        {
          "internalType": "uint256",
          "name": "amount",
          "type": "uint256"
        }
      ],
      "name": "burn",
      "outputs": [],
      "stateMutability": "nonpayable",
      "type": "function"
    },
    {
      "inputs": [
        {
          "internalType": "address",
          "name": "account",
          "type": "address"
        },
        {
          "internalType": "address",
          "name": "operator",
          "type": "address"
        }
      ],
      "name": "isApprovedForAll",
      "outputs": [
        {
          "internalType": "bool",
          "name": "",
          "type": "bool"
        }
      ],
      "stateMutability": "view",
      "type": "function"
    },
    {
      "inputs": [
        {
          "internalType": "address",
          "name": "to",
          "type": "address"
        },
        {
          "internalType": "uint256",
          "name": "id",
          "type": "uint256"
        },
        {
          "internalType": "uint256",
          "name": "amount",
          "type": "uint256"
        },
        {
          "internalType": "bytes",
          "name": "data",
          "type": "bytes"
        }
      ],
      "name": "mint",
      "outputs": [],
      "stateMutability": "nonpayable",
      "type": "function"
    },
    {
      "inputs": [],
      "name": "owner",
      "outputs": [
        {
          "internalType": "address",
          "name": "",
          "type": "address"
        }
      ],
      "stateMutability": "view",
      "type": "function"
    },
    {
      "inputs": [],
      "name": "renounceOwnership",
      "outputs": [],
      "stateMutability": "nonpayable",
      "type": "function"
    },
    {
      "inputs": [
        {
          "internalType": "address",
          "name": "from",
          "type": "address"
        },
        {
          "internalType": "address",
          "name": "to",
          "type": "address"
        },
        {
          "internalType": "uint256[]",
          "name": "ids",
          "type": "uint256[]"
        },
        {
          "internalType": "uint256[]",
          "name": "amounts",
          "type": "uint256[]"
        },
        {
          "internalType": "bytes",
          "name": "data",
          "type": "bytes"
        }
      ],
      "name": "safeBatchTransferFrom",
      "outputs": [],
      "stateMutability": "nonpayable",
      "type": "function"
    },
    {
      "inputs": [
        {
          "internalType": "address",
          "name": "from",
          "type": "address"
        },
        {
          "internalType": "address",
          "name": "to",
          "type": "address"
        },
        {
          "internalType": "uint256",
          "name": "id",
          "type": "uint256"
        },
        {
          "internalType": "uint256",
          "name": "amount",
          "type": "uint256"
        },
        {
          "internalType": "bytes",
          "name": "data",
          "type": "bytes"
        }
      ],
      "name": "safeTransferFrom",
      "outputs": [],
      "stateMutability": "nonpayable",
      "type": "function"
    },
    {
      "inputs": [
        {
          "internalType": "address",
          "name": "operator",
          "type": "address"
        },
        {
          "internalType": "bool",
          "name": "approved",
          "type": "bool"
        }
      ],
      "name": "setApprovalForAll",
      "outputs": [],
      "stateMutability": "nonpayable",
      "type": "function"
    },
    {
      "inputs": [
        {
          "internalType": "bytes4",
          "name": "interfaceId",
          "type": "bytes4"
        }
      ],
      "name": "supportsInterface",
      "outputs": [
        {
          "internalType": "bool",
          "name": "",
          "type": "bool"
        }
      ],
      "stateMutability": "view",
      "type": "function"
    },
    {
      "inputs": [
        {
          "internalType": "address",
          "name": "newOwner",
          "type": "address"
        }
      ],
      "name": "transferOwnership",
      "outputs": [],
      "stateMutability": "nonpayable",
      "type": "function"
    },
    {
      "inputs": [
        {
          "internalType": "uint256",
          "name": "",
          "type": "uint256"
        }
      ],
      "name": "uri",
      "outputs": [
        {
          "internalType": "string",
          "name": "",
          "type": "string"
        }
      ],
      "stateMutability": "view",
      "type": "function"
    }
  ],
  "transactionHash": "0xbee645a974f57a17b6e2c149e7f62d64b3d9ce075749674f37cf063fbe90ef42",
  "args": [
    "https://solid.world/FCBT/{id}.json"
  ],
  "numDeployments": 1,
  "solcInputHash": "2f067c0dfcc2236a8b1535f9c2b10d11",
  "bytecode": "0x60806040523480156200001157600080fd5b5060405162002296380380620022968339810160408190526200003491620000cd565b80620000408162000053565b506200004c3362000065565b50620002fd565b600262000061828262000231565b5050565b600380546001600160a01b038381166001600160a01b0319831681179093556040519116919082907f8be0079c531659141344cd1fd0a4f28419497f9722a3daafe3b4186f6b6457e090600090a35050565b634e487b7160e01b600052604160045260246000fd5b60006020808385031215620000e157600080fd5b82516001600160401b0380821115620000f957600080fd5b818501915085601f8301126200010e57600080fd5b815181811115620001235762000123620000b7565b604051601f8201601f19908116603f011681019083821181831017156200014e576200014e620000b7565b8160405282815288868487010111156200016757600080fd5b600093505b828410156200018b57848401860151818501870152928501926200016c565b600086848301015280965050505050505092915050565b600181811c90821680620001b757607f821691505b602082108103620001d857634e487b7160e01b600052602260045260246000fd5b50919050565b601f8211156200022c57600081815260208120601f850160051c81016020861015620002075750805b601f850160051c820191505b81811015620002285782815560010162000213565b5050505b505050565b81516001600160401b038111156200024d576200024d620000b7565b62000265816200025e8454620001a2565b84620001de565b602080601f8311600181146200029d5760008415620002845750858301515b600019600386901b1c1916600185901b17855562000228565b600085815260208120601f198616915b82811015620002ce57888601518255948401946001909101908401620002ad565b5085821015620002ed5787850151600019600388901b60f8161c191681555b5050505050600190811b01905550565b611f89806200030d6000396000f3fe608060405234801561001057600080fd5b50600436106100de5760003560e01c8063731133e91161008c578063e985e9c511610066578063e985e9c5146101d7578063f242432a14610220578063f2fde38b14610233578063f5298aca1461024657600080fd5b8063731133e9146101895780638da5cb5b1461019c578063a22cb465146101c457600080fd5b80632eb2c2d6116100bd5780632eb2c2d61461014c5780634e1273f414610161578063715018a61461018157600080fd5b8062fdd58e146100e357806301ffc9a7146101095780630e89341c1461012c575b600080fd5b6100f66100f136600461169a565b610259565b6040519081526020015b60405180910390f35b61011c6101173660046116f2565b61031f565b6040519015158152602001610100565b61013f61013a366004611716565b610402565b6040516101009190611793565b61015f61015a366004611947565b610496565b005b61017461016f3660046119f1565b610545565b6040516101009190611af7565b61015f610683565b61015f610197366004611b0a565b610697565b60035460405173ffffffffffffffffffffffffffffffffffffffff9091168152602001610100565b61015f6101d2366004611b6b565b6106b1565b61011c6101e5366004611ba7565b73ffffffffffffffffffffffffffffffffffffffff918216600090815260016020908152604080832093909416825291909152205460ff1690565b61015f61022e366004611bda565b6106c0565b61015f610241366004611c3f565b610768565b61015f610254366004611c5a565b610805565b600073ffffffffffffffffffffffffffffffffffffffff83166102e95760405162461bcd60e51b815260206004820152602a60248201527f455243313135353a2061646472657373207a65726f206973206e6f742061207660448201527f616c6964206f776e65720000000000000000000000000000000000000000000060648201526084015b60405180910390fd5b5060008181526020818152604080832073ffffffffffffffffffffffffffffffffffffffff861684529091529020545b92915050565b60007fffffffff0000000000000000000000000000000000000000000000000000000082167fd9b67a260000000000000000000000000000000000000000000000000000000014806103b257507fffffffff0000000000000000000000000000000000000000000000000000000082167f0e89341c00000000000000000000000000000000000000000000000000000000145b8061031957507f01ffc9a7000000000000000000000000000000000000000000000000000000007fffffffff00000000000000000000000000000000000000000000000000000000831614610319565b60606002805461041190611c8d565b80601f016020809104026020016040519081016040528092919081815260200182805461043d90611c8d565b801561048a5780601f1061045f5761010080835404028352916020019161048a565b820191906000526020600020905b81548152906001019060200180831161046d57829003601f168201915b50505050509050919050565b73ffffffffffffffffffffffffffffffffffffffff85163314806104bf57506104bf85336101e5565b6105315760405162461bcd60e51b815260206004820152602f60248201527f455243313135353a2063616c6c6572206973206e6f7420746f6b656e206f776e60448201527f6572206e6f7220617070726f766564000000000000000000000000000000000060648201526084016102e0565b61053e858585858561081d565b5050505050565b606081518351146105be5760405162461bcd60e51b815260206004820152602960248201527f455243313135353a206163636f756e747320616e6420696473206c656e67746860448201527f206d69736d61746368000000000000000000000000000000000000000000000060648201526084016102e0565b6000835167ffffffffffffffff8111156105da576105da6117a6565b604051908082528060200260200182016040528015610603578160200160208202803683370190505b50905060005b845181101561067b5761064e85828151811061062757610627611ce0565b602002602001015185838151811061064157610641611ce0565b6020026020010151610259565b82828151811061066057610660611ce0565b602090810291909101015261067481611d3e565b9050610609565b509392505050565b61068b610b09565b6106956000610b70565b565b61069f610b09565b6106ab84848484610be7565b50505050565b6106bc338383610d3e565b5050565b73ffffffffffffffffffffffffffffffffffffffff85163314806106e957506106e985336101e5565b61075b5760405162461bcd60e51b815260206004820152602f60248201527f455243313135353a2063616c6c6572206973206e6f7420746f6b656e206f776e60448201527f6572206e6f7220617070726f766564000000000000000000000000000000000060648201526084016102e0565b61053e8585858585610e77565b610770610b09565b73ffffffffffffffffffffffffffffffffffffffff81166107f95760405162461bcd60e51b815260206004820152602660248201527f4f776e61626c653a206e6577206f776e657220697320746865207a65726f206160448201527f646472657373000000000000000000000000000000000000000000000000000060648201526084016102e0565b61080281610b70565b50565b61080d610b09565b610818838383611081565b505050565b81518351146108945760405162461bcd60e51b815260206004820152602860248201527f455243313135353a2069647320616e6420616d6f756e7473206c656e6774682060448201527f6d69736d6174636800000000000000000000000000000000000000000000000060648201526084016102e0565b73ffffffffffffffffffffffffffffffffffffffff841661091d5760405162461bcd60e51b815260206004820152602560248201527f455243313135353a207472616e7366657220746f20746865207a65726f20616460448201527f647265737300000000000000000000000000000000000000000000000000000060648201526084016102e0565b3360005b8451811015610a7457600085828151811061093e5761093e611ce0565b60200260200101519050600085838151811061095c5761095c611ce0565b6020908102919091018101516000848152808352604080822073ffffffffffffffffffffffffffffffffffffffff8e168352909352919091205490915081811015610a0f5760405162461bcd60e51b815260206004820152602a60248201527f455243313135353a20696e73756666696369656e742062616c616e636520666f60448201527f72207472616e736665720000000000000000000000000000000000000000000060648201526084016102e0565b60008381526020818152604080832073ffffffffffffffffffffffffffffffffffffffff8e8116855292528083208585039055908b16825281208054849290610a59908490611d76565b9250508190555050505080610a6d90611d3e565b9050610921565b508473ffffffffffffffffffffffffffffffffffffffff168673ffffffffffffffffffffffffffffffffffffffff168273ffffffffffffffffffffffffffffffffffffffff167f4a39dc06d4c0dbc64b70af90fd698a233a518aa5d07e595d983b8c0526c8f7fb8787604051610aeb929190611d89565b60405180910390a4610b01818787878787611257565b505050505050565b60035473ffffffffffffffffffffffffffffffffffffffff1633146106955760405162461bcd60e51b815260206004820181905260248201527f4f776e61626c653a2063616c6c6572206973206e6f7420746865206f776e657260448201526064016102e0565b6003805473ffffffffffffffffffffffffffffffffffffffff8381167fffffffffffffffffffffffff0000000000000000000000000000000000000000831681179093556040519116919082907f8be0079c531659141344cd1fd0a4f28419497f9722a3daafe3b4186f6b6457e090600090a35050565b73ffffffffffffffffffffffffffffffffffffffff8416610c705760405162461bcd60e51b815260206004820152602160248201527f455243313135353a206d696e7420746f20746865207a65726f2061646472657360448201527f730000000000000000000000000000000000000000000000000000000000000060648201526084016102e0565b336000610c7c85611493565b90506000610c8985611493565b905060008681526020818152604080832073ffffffffffffffffffffffffffffffffffffffff8b16845290915281208054879290610cc8908490611d76565b9091555050604080518781526020810187905273ffffffffffffffffffffffffffffffffffffffff808a1692600092918716917fc3d58168c5ae7397731d063d5bbf3d657854427343f4c083240f7aacaa2d0f62910160405180910390a4610d35836000898989896114de565b50505050505050565b8173ffffffffffffffffffffffffffffffffffffffff168373ffffffffffffffffffffffffffffffffffffffff1603610ddf5760405162461bcd60e51b815260206004820152602960248201527f455243313135353a2073657474696e6720617070726f76616c2073746174757360448201527f20666f722073656c66000000000000000000000000000000000000000000000060648201526084016102e0565b73ffffffffffffffffffffffffffffffffffffffff83811660008181526001602090815260408083209487168084529482529182902080547fffffffffffffffffffffffffffffffffffffffffffffffffffffffffffffff001686151590811790915591519182527f17307eab39ab6107e8899845ad3d59bd9653f200f220920489ca2b5937696c31910160405180910390a3505050565b73ffffffffffffffffffffffffffffffffffffffff8416610f005760405162461bcd60e51b815260206004820152602560248201527f455243313135353a207472616e7366657220746f20746865207a65726f20616460448201527f647265737300000000000000000000000000000000000000000000000000000060648201526084016102e0565b336000610f0c85611493565b90506000610f1985611493565b905060008681526020818152604080832073ffffffffffffffffffffffffffffffffffffffff8c16845290915290205485811015610fbf5760405162461bcd60e51b815260206004820152602a60248201527f455243313135353a20696e73756666696369656e742062616c616e636520666f60448201527f72207472616e736665720000000000000000000000000000000000000000000060648201526084016102e0565b60008781526020818152604080832073ffffffffffffffffffffffffffffffffffffffff8d8116855292528083208985039055908a16825281208054889290611009908490611d76565b9091555050604080518881526020810188905273ffffffffffffffffffffffffffffffffffffffff808b16928c821692918816917fc3d58168c5ae7397731d063d5bbf3d657854427343f4c083240f7aacaa2d0f62910160405180910390a4611076848a8a8a8a8a6114de565b505050505050505050565b73ffffffffffffffffffffffffffffffffffffffff831661110a5760405162461bcd60e51b815260206004820152602360248201527f455243313135353a206275726e2066726f6d20746865207a65726f206164647260448201527f657373000000000000000000000000000000000000000000000000000000000060648201526084016102e0565b33600061111684611493565b9050600061112384611493565b604080516020808201835260009182905288825281815282822073ffffffffffffffffffffffffffffffffffffffff8b16835290522054909150848110156111d25760405162461bcd60e51b8152602060048201526024808201527f455243313135353a206275726e20616d6f756e7420657863656564732062616c60448201527f616e63650000000000000000000000000000000000000000000000000000000060648201526084016102e0565b60008681526020818152604080832073ffffffffffffffffffffffffffffffffffffffff8b81168086529184528285208a8703905582518b81529384018a90529092908816917fc3d58168c5ae7397731d063d5bbf3d657854427343f4c083240f7aacaa2d0f62910160405180910390a4604080516020810190915260009052610d35565b73ffffffffffffffffffffffffffffffffffffffff84163b15610b01576040517fbc197c8100000000000000000000000000000000000000000000000000000000815273ffffffffffffffffffffffffffffffffffffffff85169063bc197c81906112ce9089908990889088908890600401611db7565b6020604051808303816000875af1925050508015611327575060408051601f3d9081017fffffffffffffffffffffffffffffffffffffffffffffffffffffffffffffffe016820190925261132491810190611e22565b60015b6113dc57611333611e3f565b806308c379a00361136c5750611347611e5b565b80611352575061136e565b8060405162461bcd60e51b81526004016102e09190611793565b505b60405162461bcd60e51b815260206004820152603460248201527f455243313135353a207472616e7366657220746f206e6f6e204552433131353560448201527f526563656976657220696d706c656d656e74657200000000000000000000000060648201526084016102e0565b7fffffffff0000000000000000000000000000000000000000000000000000000081167fbc197c810000000000000000000000000000000000000000000000000000000014610d355760405162461bcd60e51b815260206004820152602860248201527f455243313135353a204552433131353552656365697665722072656a6563746560448201527f6420746f6b656e7300000000000000000000000000000000000000000000000060648201526084016102e0565b604080516001808252818301909252606091600091906020808301908036833701905050905082816000815181106114cd576114cd611ce0565b602090810291909101015292915050565b73ffffffffffffffffffffffffffffffffffffffff84163b15610b01576040517ff23a6e6100000000000000000000000000000000000000000000000000000000815273ffffffffffffffffffffffffffffffffffffffff85169063f23a6e61906115559089908990889088908890600401611f03565b6020604051808303816000875af19250505080156115ae575060408051601f3d9081017fffffffffffffffffffffffffffffffffffffffffffffffffffffffffffffffe01682019092526115ab91810190611e22565b60015b6115ba57611333611e3f565b7fffffffff0000000000000000000000000000000000000000000000000000000081167ff23a6e610000000000000000000000000000000000000000000000000000000014610d355760405162461bcd60e51b815260206004820152602860248201527f455243313135353a204552433131353552656365697665722072656a6563746560448201527f6420746f6b656e7300000000000000000000000000000000000000000000000060648201526084016102e0565b803573ffffffffffffffffffffffffffffffffffffffff8116811461169557600080fd5b919050565b600080604083850312156116ad57600080fd5b6116b683611671565b946020939093013593505050565b7fffffffff000000000000000000000000000000000000000000000000000000008116811461080257600080fd5b60006020828403121561170457600080fd5b813561170f816116c4565b9392505050565b60006020828403121561172857600080fd5b5035919050565b6000815180845260005b8181101561175557602081850181015186830182015201611739565b5060006020828601015260207fffffffffffffffffffffffffffffffffffffffffffffffffffffffffffffffe0601f83011685010191505092915050565b60208152600061170f602083018461172f565b7f4e487b7100000000000000000000000000000000000000000000000000000000600052604160045260246000fd5b7fffffffffffffffffffffffffffffffffffffffffffffffffffffffffffffffe0601f830116810181811067ffffffffffffffff82111715611819576118196117a6565b6040525050565b600067ffffffffffffffff82111561183a5761183a6117a6565b5060051b60200190565b600082601f83011261185557600080fd5b8135602061186282611820565b60405161186f82826117d5565b83815260059390931b850182019282810191508684111561188f57600080fd5b8286015b848110156118aa5780358352918301918301611893565b509695505050505050565b600082601f8301126118c657600080fd5b813567ffffffffffffffff8111156118e0576118e06117a6565b60405161191560207fffffffffffffffffffffffffffffffffffffffffffffffffffffffffffffffe0601f85011601826117d5565b81815284602083860101111561192a57600080fd5b816020850160208301376000918101602001919091529392505050565b600080600080600060a0868803121561195f57600080fd5b61196886611671565b945061197660208701611671565b9350604086013567ffffffffffffffff8082111561199357600080fd5b61199f89838a01611844565b945060608801359150808211156119b557600080fd5b6119c189838a01611844565b935060808801359150808211156119d757600080fd5b506119e4888289016118b5565b9150509295509295909350565b60008060408385031215611a0457600080fd5b823567ffffffffffffffff80821115611a1c57600080fd5b818501915085601f830112611a3057600080fd5b81356020611a3d82611820565b604051611a4a82826117d5565b83815260059390931b8501820192828101915089841115611a6a57600080fd5b948201945b83861015611a8f57611a8086611671565b82529482019490820190611a6f565b96505086013592505080821115611aa557600080fd5b50611ab285828601611844565b9150509250929050565b600081518084526020808501945080840160005b83811015611aec57815187529582019590820190600101611ad0565b509495945050505050565b60208152600061170f6020830184611abc565b60008060008060808587031215611b2057600080fd5b611b2985611671565b93506020850135925060408501359150606085013567ffffffffffffffff811115611b5357600080fd5b611b5f878288016118b5565b91505092959194509250565b60008060408385031215611b7e57600080fd5b611b8783611671565b915060208301358015158114611b9c57600080fd5b809150509250929050565b60008060408385031215611bba57600080fd5b611bc383611671565b9150611bd160208401611671565b90509250929050565b600080600080600060a08688031215611bf257600080fd5b611bfb86611671565b9450611c0960208701611671565b93506040860135925060608601359150608086013567ffffffffffffffff811115611c3357600080fd5b6119e4888289016118b5565b600060208284031215611c5157600080fd5b61170f82611671565b600080600060608486031215611c6f57600080fd5b611c7884611671565b95602085013595506040909401359392505050565b600181811c90821680611ca157607f821691505b602082108103611cda577f4e487b7100000000000000000000000000000000000000000000000000000000600052602260045260246000fd5b50919050565b7f4e487b7100000000000000000000000000000000000000000000000000000000600052603260045260246000fd5b7f4e487b7100000000000000000000000000000000000000000000000000000000600052601160045260246000fd5b60007fffffffffffffffffffffffffffffffffffffffffffffffffffffffffffffffff8203611d6f57611d6f611d0f565b5060010190565b8082018082111561031957610319611d0f565b604081526000611d9c6040830185611abc565b8281036020840152611dae8185611abc565b95945050505050565b600073ffffffffffffffffffffffffffffffffffffffff808816835280871660208401525060a06040830152611df060a0830186611abc565b8281036060840152611e028186611abc565b90508281036080840152611e16818561172f565b98975050505050505050565b600060208284031215611e3457600080fd5b815161170f816116c4565b600060033d1115611e585760046000803e5060005160e01c5b90565b600060443d1015611e695790565b6040517ffffffffffffffffffffffffffffffffffffffffffffffffffffffffffffffffc803d016004833e81513d67ffffffffffffffff8160248401118184111715611eb757505050505090565b8285019150815181811115611ecf5750505050505090565b843d8701016020828501011115611ee95750505050505090565b611ef8602082860101876117d5565b509095945050505050565b600073ffffffffffffffffffffffffffffffffffffffff808816835280871660208401525084604083015283606083015260a06080830152611f4860a083018461172f565b97965050505050505056fea264697066735822122004d53462a75456ba58d6e297b85401e1ca8cefce8d4adc76b0ec15c0a07b887364736f6c63430008110033",
  "devdoc": {
    "author": "Solid World DAO",
    "kind": "dev",
    "methods": {
      "balanceOf(address,uint256)": {
        "details": "See {IERC1155-balanceOf}. Requirements: - `account` cannot be the zero address."
      },
      "balanceOfBatch(address[],uint256[])": {
        "details": "See {IERC1155-balanceOfBatch}. Requirements: - `accounts` and `ids` must have the same length."
      },
      "burn(address,uint256,uint256)": {
        "details": "only owner",
        "params": {
          "account": "address of the owner of token what is burned",
          "amount": "amount of token what is burned",
          "id": "id of token what is burned"
        }
      },
      "isApprovedForAll(address,address)": {
        "details": "See {IERC1155-isApprovedForAll}."
      },
      "mint(address,uint256,uint256,bytes)": {
        "details": "only owner",
        "params": {
          "amount": "amount of new token",
          "data": "external data",
          "id": "id of new token",
          "to": "address of the owner of new token"
        }
      },
      "owner()": {
        "details": "Returns the address of the current owner."
      },
      "renounceOwnership()": {
        "details": "Leaves the contract without owner. It will not be possible to call `onlyOwner` functions anymore. Can only be called by the current owner. NOTE: Renouncing ownership will leave the contract without an owner, thereby removing any functionality that is only available to the owner."
      },
      "safeBatchTransferFrom(address,address,uint256[],uint256[],bytes)": {
        "details": "See {IERC1155-safeBatchTransferFrom}."
      },
      "safeTransferFrom(address,address,uint256,uint256,bytes)": {
        "details": "See {IERC1155-safeTransferFrom}."
      },
      "setApprovalForAll(address,bool)": {
        "details": "See {IERC1155-setApprovalForAll}."
      },
      "supportsInterface(bytes4)": {
        "details": "See {IERC165-supportsInterface}."
      },
      "transferOwnership(address)": {
        "details": "Transfers ownership of the contract to a new account (`newOwner`). Can only be called by the current owner."
      },
      "uri(uint256)": {
        "details": "See {IERC1155MetadataURI-uri}. This implementation returns the same URI for *all* token types. It relies on the token type ID substitution mechanism https://eips.ethereum.org/EIPS/eip-1155#metadata[defined in the EIP]. Clients calling this function must replace the `\\{id\\}` substring with the actual token type ID."
      }
    },
    "version": 1
  },
  "userdoc": {
    "kind": "user",
    "methods": {},
    "notice": "ERC-1155 for working with forward contract batch tokens",
    "version": 1
  },
  "storageLayout": {
    "storage": [
      {
        "astId": 858,
        "contract": "contracts/ForwardContractBatchToken.sol:ForwardContractBatchToken",
        "label": "_balances",
        "offset": 0,
        "slot": "0",
        "type": "t_mapping(t_uint256,t_mapping(t_address,t_uint256))"
      },
      {
        "astId": 864,
        "contract": "contracts/ForwardContractBatchToken.sol:ForwardContractBatchToken",
        "label": "_operatorApprovals",
        "offset": 0,
        "slot": "1",
        "type": "t_mapping(t_address,t_mapping(t_address,t_bool))"
      },
      {
        "astId": 866,
        "contract": "contracts/ForwardContractBatchToken.sol:ForwardContractBatchToken",
        "label": "_uri",
        "offset": 0,
        "slot": "2",
        "type": "t_string_storage"
      },
      {
        "astId": 687,
        "contract": "contracts/ForwardContractBatchToken.sol:ForwardContractBatchToken",
        "label": "_owner",
        "offset": 0,
        "slot": "3",
        "type": "t_address"
      }
    ],
    "types": {
      "t_address": {
        "encoding": "inplace",
        "label": "address",
        "numberOfBytes": "20"
      },
      "t_bool": {
        "encoding": "inplace",
        "label": "bool",
        "numberOfBytes": "1"
      },
      "t_mapping(t_address,t_bool)": {
        "encoding": "mapping",
        "key": "t_address",
        "label": "mapping(address => bool)",
        "numberOfBytes": "32",
        "value": "t_bool"
      },
      "t_mapping(t_address,t_mapping(t_address,t_bool))": {
        "encoding": "mapping",
        "key": "t_address",
        "label": "mapping(address => mapping(address => bool))",
        "numberOfBytes": "32",
        "value": "t_mapping(t_address,t_bool)"
      },
      "t_mapping(t_address,t_uint256)": {
        "encoding": "mapping",
        "key": "t_address",
        "label": "mapping(address => uint256)",
        "numberOfBytes": "32",
        "value": "t_uint256"
      },
      "t_mapping(t_uint256,t_mapping(t_address,t_uint256))": {
        "encoding": "mapping",
        "key": "t_uint256",
        "label": "mapping(uint256 => mapping(address => uint256))",
        "numberOfBytes": "32",
        "value": "t_mapping(t_address,t_uint256)"
      },
      "t_string_storage": {
        "encoding": "bytes",
        "label": "string",
        "numberOfBytes": "32"
      },
      "t_uint256": {
        "encoding": "inplace",
        "label": "uint256",
        "numberOfBytes": "32"
      }
    }
  }
}