{
  "address": "0x01bDCD08cd8dc7eaD8a0c1cBAe28f9aCD49B1F8f",
  "abi": [
    {
      "anonymous": false,
      "inputs": [
        {
          "indexed": true,
          "internalType": "address",
          "name": "owner",
          "type": "address"
        },
        {
          "indexed": true,
          "internalType": "address",
          "name": "approved",
          "type": "address"
        },
        {
          "indexed": true,
          "internalType": "uint256",
          "name": "tokenId",
          "type": "uint256"
        }
      ],
      "name": "Approval",
      "type": "event"
    },
    {
      "anonymous": false,
      "inputs": [
        {
          "indexed": true,
          "internalType": "address",
          "name": "owner",
          "type": "address"
        },
        {
          "indexed": true,
          "internalType": "address",
          "name": "operator",
          "type": "address"
        },
        {
          "indexed": false,
          "internalType": "bool",
          "name": "approved",
          "type": "bool"
        }
      ],
      "name": "ApprovalForAll",
      "type": "event"
    },
    {
      "anonymous": false,
      "inputs": [
        {
          "indexed": false,
          "internalType": "uint8",
          "name": "version",
          "type": "uint8"
        }
      ],
      "name": "Initialized",
      "type": "event"
    },
    {
      "anonymous": false,
      "inputs": [
        {
          "indexed": true,
          "internalType": "address",
          "name": "previousOwner",
          "type": "address"
        },
        {
          "indexed": true,
          "internalType": "address",
          "name": "newOwner",
          "type": "address"
        }
      ],
      "name": "OwnershipTransferred",
      "type": "event"
    },
    {
      "anonymous": false,
      "inputs": [
        {
          "indexed": true,
          "internalType": "address",
          "name": "from",
          "type": "address"
        },
        {
          "indexed": true,
          "internalType": "address",
          "name": "to",
          "type": "address"
        },
        {
          "indexed": true,
          "internalType": "uint256",
          "name": "tokenId",
          "type": "uint256"
        }
      ],
      "name": "Transfer",
      "type": "event"
    },
    {
      "inputs": [
        {
          "internalType": "address",
          "name": "to",
          "type": "address"
        },
        {
          "internalType": "uint256",
          "name": "tokenId",
          "type": "uint256"
        }
      ],
      "name": "approve",
      "outputs": [],
      "stateMutability": "nonpayable",
      "type": "function"
    },
    {
      "inputs": [
        {
          "internalType": "address",
          "name": "owner",
          "type": "address"
        }
      ],
      "name": "balanceOf",
      "outputs": [
        {
          "internalType": "uint256",
          "name": "",
          "type": "uint256"
        }
      ],
      "stateMutability": "view",
      "type": "function"
    },
    {
      "inputs": [
        {
          "internalType": "uint256",
          "name": "tokenId",
          "type": "uint256"
        }
      ],
      "name": "getApproved",
      "outputs": [
        {
          "internalType": "address",
          "name": "",
          "type": "address"
        }
      ],
      "stateMutability": "view",
      "type": "function"
    },
    {
      "inputs": [
        {
          "internalType": "string",
          "name": "name_",
          "type": "string"
        },
        {
          "internalType": "string",
          "name": "symbol_",
          "type": "string"
        }
      ],
      "name": "initialize",
      "outputs": [],
      "stateMutability": "nonpayable",
      "type": "function"
    },
    {
      "inputs": [
        {
          "internalType": "address",
          "name": "owner",
          "type": "address"
        },
        {
          "internalType": "address",
          "name": "operator",
          "type": "address"
        }
      ],
      "name": "isApprovedForAll",
      "outputs": [
        {
          "internalType": "bool",
          "name": "",
          "type": "bool"
        }
      ],
      "stateMutability": "view",
      "type": "function"
    },
    {
      "inputs": [
        {
          "internalType": "address",
          "name": "_to",
          "type": "address"
        },
        {
          "internalType": "uint256",
          "name": "_tokenId",
          "type": "uint256"
        }
      ],
      "name": "mint",
      "outputs": [],
      "stateMutability": "nonpayable",
      "type": "function"
    },
    {
      "inputs": [],
      "name": "name",
      "outputs": [
        {
          "internalType": "string",
          "name": "",
          "type": "string"
        }
      ],
      "stateMutability": "view",
      "type": "function"
    },
    {
      "inputs": [],
      "name": "owner",
      "outputs": [
        {
          "internalType": "address",
          "name": "",
          "type": "address"
        }
      ],
      "stateMutability": "view",
      "type": "function"
    },
    {
      "inputs": [
        {
          "internalType": "uint256",
          "name": "tokenId",
          "type": "uint256"
        }
      ],
      "name": "ownerOf",
      "outputs": [
        {
          "internalType": "address",
          "name": "",
          "type": "address"
        }
      ],
      "stateMutability": "view",
      "type": "function"
    },
    {
      "inputs": [],
      "name": "renounceOwnership",
      "outputs": [],
      "stateMutability": "nonpayable",
      "type": "function"
    },
    {
      "inputs": [
        {
          "internalType": "address",
          "name": "from",
          "type": "address"
        },
        {
          "internalType": "address",
          "name": "to",
          "type": "address"
        },
        {
          "internalType": "uint256",
          "name": "tokenId",
          "type": "uint256"
        }
      ],
      "name": "safeTransferFrom",
      "outputs": [],
      "stateMutability": "nonpayable",
      "type": "function"
    },
    {
      "inputs": [
        {
          "internalType": "address",
          "name": "from",
          "type": "address"
        },
        {
          "internalType": "address",
          "name": "to",
          "type": "address"
        },
        {
          "internalType": "uint256",
          "name": "tokenId",
          "type": "uint256"
        },
        {
          "internalType": "bytes",
          "name": "data",
          "type": "bytes"
        }
      ],
      "name": "safeTransferFrom",
      "outputs": [],
      "stateMutability": "nonpayable",
      "type": "function"
    },
    {
      "inputs": [
        {
          "internalType": "address",
          "name": "operator",
          "type": "address"
        },
        {
          "internalType": "bool",
          "name": "approved",
          "type": "bool"
        }
      ],
      "name": "setApprovalForAll",
      "outputs": [],
      "stateMutability": "nonpayable",
      "type": "function"
    },
    {
      "inputs": [
        {
          "internalType": "string",
          "name": "_newBaseMetadataURI",
          "type": "string"
        }
      ],
      "name": "setBaseMetadataURI",
      "outputs": [],
      "stateMutability": "nonpayable",
      "type": "function"
    },
    {
      "inputs": [
        {
          "internalType": "bytes4",
          "name": "interfaceId",
          "type": "bytes4"
        }
      ],
      "name": "supportsInterface",
      "outputs": [
        {
          "internalType": "bool",
          "name": "",
          "type": "bool"
        }
      ],
      "stateMutability": "view",
      "type": "function"
    },
    {
      "inputs": [],
      "name": "symbol",
      "outputs": [
        {
          "internalType": "string",
          "name": "",
          "type": "string"
        }
      ],
      "stateMutability": "view",
      "type": "function"
    },
    {
      "inputs": [
        {
          "internalType": "uint256",
          "name": "_id",
          "type": "uint256"
        }
      ],
      "name": "tokenURI",
      "outputs": [
        {
          "internalType": "string",
          "name": "",
          "type": "string"
        }
      ],
      "stateMutability": "view",
      "type": "function"
    },
    {
      "inputs": [
        {
          "internalType": "address",
          "name": "from",
          "type": "address"
        },
        {
          "internalType": "address",
          "name": "to",
          "type": "address"
        },
        {
          "internalType": "uint256",
          "name": "tokenId",
          "type": "uint256"
        }
      ],
      "name": "transferFrom",
      "outputs": [],
      "stateMutability": "nonpayable",
      "type": "function"
    },
    {
      "inputs": [
        {
          "internalType": "address",
          "name": "newOwner",
          "type": "address"
        }
      ],
      "name": "transferOwnership",
      "outputs": [],
      "stateMutability": "nonpayable",
      "type": "function"
    }
  ],
  "transactionHash": "0x3686ba05b332f096e27271c9fe51a062815e7d094bd71731df62f2b9a92ef930",
  "args": [],
  "numDeployments": 1,
  "solcInputHash": "ff44a7223596cd9c355a727819cd01e7",
  "bytecode": "0x608060405234801561001057600080fd5b50613384806100206000396000f3fe608060405234801561001057600080fd5b50600436106100f15760003560e01c806301ffc9a7146100f657806306fdde0314610126578063081812fc14610144578063095ea7b31461017457806323b872dd1461019057806340c10f19146101ac57806342842e0e146101c85780634cd88b76146101e45780636352211e1461020057806370a0823114610230578063715018a6146102605780637e518ec81461026a5780638da5cb5b1461028657806395d89b41146102a4578063a22cb465146102c2578063b88d4fde146102de578063c87b56dd146102fa578063e985e9c51461032a578063f2fde38b1461035a575b600080fd5b610110600480360381019061010b9190611f3c565b610376565b60405161011d9190611f84565b60405180910390f35b61012e610458565b60405161013b919061202f565b60405180910390f35b61015e60048036038101906101599190612087565b6104ea565b60405161016b91906120f5565b60405180910390f35b61018e6004803603810190610189919061213c565b610530565b005b6101aa60048036038101906101a5919061217c565b610647565b005b6101c660048036038101906101c1919061213c565b6106a7565b005b6101e260048036038101906101dd919061217c565b6106bd565b005b6101fe60048036038101906101f99190612304565b6106dd565b005b61021a60048036038101906102159190612087565b610827565b60405161022791906120f5565b60405180910390f35b61024a6004803603810190610245919061237c565b6108d8565b60405161025791906123b8565b60405180910390f35b61026861098f565b005b610284600480360381019061027f91906123d3565b6109a3565b005b61028e6109be565b60405161029b91906120f5565b60405180910390f35b6102ac6109e8565b6040516102b9919061202f565b60405180910390f35b6102dc60048036038101906102d79190612448565b610a7a565b005b6102f860048036038101906102f39190612529565b610a90565b005b610314600480360381019061030f9190612087565b610af2565b604051610321919061202f565b60405180910390f35b610344600480360381019061033f91906125ac565b610b97565b6040516103519190611f84565b60405180910390f35b610374600480360381019061036f919061237c565b610c2b565b005b60007f80ac58cd000000000000000000000000000000000000000000000000000000007bffffffffffffffffffffffffffffffffffffffffffffffffffffffff1916827bffffffffffffffffffffffffffffffffffffffffffffffffffffffff1916148061044157507f5b5e139f000000000000000000000000000000000000000000000000000000007bffffffffffffffffffffffffffffffffffffffffffffffffffffffff1916827bffffffffffffffffffffffffffffffffffffffffffffffffffffffff1916145b80610451575061045082610cae565b5b9050919050565b6060606580546104679061261b565b80601f01602080910402602001604051908101604052809291908181526020018280546104939061261b565b80156104e05780601f106104b5576101008083540402835291602001916104e0565b820191906000526020600020905b8154815290600101906020018083116104c357829003601f168201915b5050505050905090565b60006104f582610d18565b6069600083815260200190815260200160002060009054906101000a900473ffffffffffffffffffffffffffffffffffffffff169050919050565b600061053b82610827565b90508073ffffffffffffffffffffffffffffffffffffffff168373ffffffffffffffffffffffffffffffffffffffff16036105ab576040517f08c379a00000000000000000000000000000000000000000000000000000000081526004016105a2906126be565b60405180910390fd5b8073ffffffffffffffffffffffffffffffffffffffff166105ca610d63565b73ffffffffffffffffffffffffffffffffffffffff1614806105f957506105f8816105f3610d63565b610b97565b5b610638576040517f08c379a000000000000000000000000000000000000000000000000000000000815260040161062f90612750565b60405180910390fd5b6106428383610d6b565b505050565b610658610652610d63565b82610e24565b610697576040517f08c379a000000000000000000000000000000000000000000000000000000000815260040161068e906127e2565b60405180910390fd5b6106a2838383610eb9565b505050565b6106af61111f565b6106b9828261119d565b5050565b6106d883838360405180602001604052806000815250610a90565b505050565b60008060019054906101000a900460ff1615905080801561070e5750600160008054906101000a900460ff1660ff16105b8061073b575061071d30611376565b15801561073a5750600160008054906101000a900460ff1660ff16145b5b61077a576040517f08c379a000000000000000000000000000000000000000000000000000000000815260040161077190612874565b60405180910390fd5b60016000806101000a81548160ff021916908360ff16021790555080156107b7576001600060016101000a81548160ff0219169083151502179055505b6107c18383611399565b6107c96113f6565b80156108225760008060016101000a81548160ff0219169083151502179055507f7f26b83ff96e1f2b6a682f133852f6798a09c465da95921460cefb3847402498600160405161081991906128e6565b60405180910390a15b505050565b6000806067600084815260200190815260200160002060009054906101000a900473ffffffffffffffffffffffffffffffffffffffff169050600073ffffffffffffffffffffffffffffffffffffffff168173ffffffffffffffffffffffffffffffffffffffff16036108cf576040517f08c379a00000000000000000000000000000000000000000000000000000000081526004016108c69061294d565b60405180910390fd5b80915050919050565b60008073ffffffffffffffffffffffffffffffffffffffff168273ffffffffffffffffffffffffffffffffffffffff1603610948576040517f08c379a000000000000000000000000000000000000000000000000000000000815260040161093f906129df565b60405180910390fd5b606860008373ffffffffffffffffffffffffffffffffffffffff1673ffffffffffffffffffffffffffffffffffffffff168152602001908152602001600020549050919050565b61099761111f565b6109a1600061144f565b565b6109ab61111f565b8060c990816109ba9190612ba1565b5050565b6000609760009054906101000a900473ffffffffffffffffffffffffffffffffffffffff16905090565b6060606680546109f79061261b565b80601f0160208091040260200160405190810160405280929190818152602001828054610a239061261b565b8015610a705780601f10610a4557610100808354040283529160200191610a70565b820191906000526020600020905b815481529060010190602001808311610a5357829003601f168201915b5050505050905090565b610a8c610a85610d63565b8383611515565b5050565b610aa1610a9b610d63565b83610e24565b610ae0576040517f08c379a0000000000000000000000000000000000000000000000000000000008152600401610ad7906127e2565b60405180910390fd5b610aec84848484611681565b50505050565b6060610b9060c98054610b049061261b565b80601f0160208091040260200160405190810160405280929190818152602001828054610b309061261b565b8015610b7d5780601f10610b5257610100808354040283529160200191610b7d565b820191906000526020600020905b815481529060010190602001808311610b6057829003601f168201915b5050505050610b8b846116dd565b611848565b9050919050565b6000606a60008473ffffffffffffffffffffffffffffffffffffffff1673ffffffffffffffffffffffffffffffffffffffff16815260200190815260200160002060008373ffffffffffffffffffffffffffffffffffffffff1673ffffffffffffffffffffffffffffffffffffffff16815260200190815260200160002060009054906101000a900460ff16905092915050565b610c3361111f565b600073ffffffffffffffffffffffffffffffffffffffff168173ffffffffffffffffffffffffffffffffffffffff1603610ca2576040517f08c379a0000000000000000000000000000000000000000000000000000000008152600401610c9990612ce5565b60405180910390fd5b610cab8161144f565b50565b60007f01ffc9a7000000000000000000000000000000000000000000000000000000007bffffffffffffffffffffffffffffffffffffffffffffffffffffffff1916827bffffffffffffffffffffffffffffffffffffffffffffffffffffffff1916149050919050565b610d218161188c565b610d60576040517f08c379a0000000000000000000000000000000000000000000000000000000008152600401610d579061294d565b60405180910390fd5b50565b600033905090565b816069600083815260200190815260200160002060006101000a81548173ffffffffffffffffffffffffffffffffffffffff021916908373ffffffffffffffffffffffffffffffffffffffff160217905550808273ffffffffffffffffffffffffffffffffffffffff16610dde83610827565b73ffffffffffffffffffffffffffffffffffffffff167f8c5be1e5ebec7d5bd14f71427d1e84f3dd0314c0f7b2291e5b200ac8c7c3b92560405160405180910390a45050565b600080610e3083610827565b90508073ffffffffffffffffffffffffffffffffffffffff168473ffffffffffffffffffffffffffffffffffffffff161480610e725750610e718185610b97565b5b80610eb057508373ffffffffffffffffffffffffffffffffffffffff16610e98846104ea565b73ffffffffffffffffffffffffffffffffffffffff16145b91505092915050565b8273ffffffffffffffffffffffffffffffffffffffff16610ed982610827565b73ffffffffffffffffffffffffffffffffffffffff1614610f2f576040517f08c379a0000000000000000000000000000000000000000000000000000000008152600401610f2690612d77565b60405180910390fd5b600073ffffffffffffffffffffffffffffffffffffffff168273ffffffffffffffffffffffffffffffffffffffff1603610f9e576040517f08c379a0000000000000000000000000000000000000000000000000000000008152600401610f9590612e09565b60405180910390fd5b610fa98383836118f8565b610fb4600082610d6b565b6001606860008573ffffffffffffffffffffffffffffffffffffffff1673ffffffffffffffffffffffffffffffffffffffff16815260200190815260200160002060008282546110049190612e58565b925050819055506001606860008473ffffffffffffffffffffffffffffffffffffffff1673ffffffffffffffffffffffffffffffffffffffff168152602001908152602001600020600082825461105b9190612e8c565b92505081905550816067600083815260200190815260200160002060006101000a81548173ffffffffffffffffffffffffffffffffffffffff021916908373ffffffffffffffffffffffffffffffffffffffff160217905550808273ffffffffffffffffffffffffffffffffffffffff168473ffffffffffffffffffffffffffffffffffffffff167fddf252ad1be2c89b69c2b068fc378daa952ba7f163c4a11628f55a4df523b3ef60405160405180910390a461111a8383836118fd565b505050565b611127610d63565b73ffffffffffffffffffffffffffffffffffffffff166111456109be565b73ffffffffffffffffffffffffffffffffffffffff161461119b576040517f08c379a000000000000000000000000000000000000000000000000000000000815260040161119290612f0c565b60405180910390fd5b565b600073ffffffffffffffffffffffffffffffffffffffff168273ffffffffffffffffffffffffffffffffffffffff160361120c576040517f08c379a000000000000000000000000000000000000000000000000000000000815260040161120390612f78565b60405180910390fd5b6112158161188c565b15611255576040517f08c379a000000000000000000000000000000000000000000000000000000000815260040161124c90612fe4565b60405180910390fd5b611261600083836118f8565b6001606860008473ffffffffffffffffffffffffffffffffffffffff1673ffffffffffffffffffffffffffffffffffffffff16815260200190815260200160002060008282546112b19190612e8c565b92505081905550816067600083815260200190815260200160002060006101000a81548173ffffffffffffffffffffffffffffffffffffffff021916908373ffffffffffffffffffffffffffffffffffffffff160217905550808273ffffffffffffffffffffffffffffffffffffffff16600073ffffffffffffffffffffffffffffffffffffffff167fddf252ad1be2c89b69c2b068fc378daa952ba7f163c4a11628f55a4df523b3ef60405160405180910390a4611372600083836118fd565b5050565b6000808273ffffffffffffffffffffffffffffffffffffffff163b119050919050565b600060019054906101000a900460ff166113e8576040517f08c379a00000000000000000000000000000000000000000000000000000000081526004016113df90613076565b60405180910390fd5b6113f28282611902565b5050565b600060019054906101000a900460ff16611445576040517f08c379a000000000000000000000000000000000000000000000000000000000815260040161143c90613076565b60405180910390fd5b61144d611975565b565b6000609760009054906101000a900473ffffffffffffffffffffffffffffffffffffffff16905081609760006101000a81548173ffffffffffffffffffffffffffffffffffffffff021916908373ffffffffffffffffffffffffffffffffffffffff1602179055508173ffffffffffffffffffffffffffffffffffffffff168173ffffffffffffffffffffffffffffffffffffffff167f8be0079c531659141344cd1fd0a4f28419497f9722a3daafe3b4186f6b6457e060405160405180910390a35050565b8173ffffffffffffffffffffffffffffffffffffffff168373ffffffffffffffffffffffffffffffffffffffff1603611583576040517f08c379a000000000000000000000000000000000000000000000000000000000815260040161157a906130e2565b60405180910390fd5b80606a60008573ffffffffffffffffffffffffffffffffffffffff1673ffffffffffffffffffffffffffffffffffffffff16815260200190815260200160002060008473ffffffffffffffffffffffffffffffffffffffff1673ffffffffffffffffffffffffffffffffffffffff16815260200190815260200160002060006101000a81548160ff0219169083151502179055508173ffffffffffffffffffffffffffffffffffffffff168373ffffffffffffffffffffffffffffffffffffffff167f17307eab39ab6107e8899845ad3d59bd9653f200f220920489ca2b5937696c31836040516116749190611f84565b60405180910390a3505050565b61168c848484610eb9565b611698848484846119d6565b6116d7576040517f08c379a00000000000000000000000000000000000000000000000000000000081526004016116ce90613174565b60405180910390fd5b50505050565b606060008203611724576040518060400160405280600181526020017f30000000000000000000000000000000000000000000000000000000000000008152509050611843565b600082905060005b6000821461175657808061173f90613194565b915050600a8261174f919061320b565b915061172c565b60008167ffffffffffffffff811115611772576117716121d9565b5b6040519080825280601f01601f1916602001820160405280156117a45781602001600182028036833780820191505090505b50905060006001836117b69190612e58565b90505b6000861461183b57600a86816117d2576117d16131dc565b5b0660300160f81b828280600190039350815181106117f3576117f261323c565b5b60200101907effffffffffffffffffffffffffffffffffffffffffffffffffffffffffffff1916908160001a905350600a8681611833576118326131dc565b5b0495506117b9565b819450505050505b919050565b60606118848383604051806020016040528060008152506040518060200160405280600081525060405180602001604052806000815250611b5d565b905092915050565b60008073ffffffffffffffffffffffffffffffffffffffff166067600084815260200190815260200160002060009054906101000a900473ffffffffffffffffffffffffffffffffffffffff1673ffffffffffffffffffffffffffffffffffffffff1614159050919050565b505050565b505050565b600060019054906101000a900460ff16611951576040517f08c379a000000000000000000000000000000000000000000000000000000000815260040161194890613076565b60405180910390fd5b81606590816119609190612ba1565b5080606690816119709190612ba1565b505050565b600060019054906101000a900460ff166119c4576040517f08c379a00000000000000000000000000000000000000000000000000000000081526004016119bb90613076565b60405180910390fd5b6119d46119cf610d63565b61144f565b565b60006119f78473ffffffffffffffffffffffffffffffffffffffff16611376565b15611b50578373ffffffffffffffffffffffffffffffffffffffff1663150b7a02611a20610d63565b8786866040518563ffffffff1660e01b8152600401611a4294939291906132c0565b6020604051808303816000875af1925050508015611a7e57506040513d601f19601f82011682018060405250810190611a7b9190613321565b60015b611b00573d8060008114611aae576040519150601f19603f3d011682016040523d82523d6000602084013e611ab3565b606091505b506000815103611af8576040517f08c379a0000000000000000000000000000000000000000000000000000000008152600401611aef90613174565b60405180910390fd5b805181602001fd5b63150b7a0260e01b7bffffffffffffffffffffffffffffffffffffffffffffffffffffffff1916817bffffffffffffffffffffffffffffffffffffffffffffffffffffffff191614915050611b55565b600190505b949350505050565b606060008690506000869050600086905060008690506000869050600081518351855187518951611b8e9190612e8c565b611b989190612e8c565b611ba29190612e8c565b611bac9190612e8c565b67ffffffffffffffff811115611bc557611bc46121d9565b5b6040519080825280601f01601f191660200182016040528015611bf75781602001600182028036833780820191505090505b50905060008190506000805b8851811015611c8b57888181518110611c1f57611c1e61323c565b5b602001015160f81c60f81b838380611c3690613194565b945081518110611c4957611c4861323c565b5b60200101907effffffffffffffffffffffffffffffffffffffffffffffffffffffffffffff1916908160001a9053508080611c8390613194565b915050611c03565b5060005b8751811015611d1757878181518110611cab57611caa61323c565b5b602001015160f81c60f81b838380611cc290613194565b945081518110611cd557611cd461323c565b5b60200101907effffffffffffffffffffffffffffffffffffffffffffffffffffffffffffff1916908160001a9053508080611d0f90613194565b915050611c8f565b5060005b8651811015611da357868181518110611d3757611d3661323c565b5b602001015160f81c60f81b838380611d4e90613194565b945081518110611d6157611d6061323c565b5b60200101907effffffffffffffffffffffffffffffffffffffffffffffffffffffffffffff1916908160001a9053508080611d9b90613194565b915050611d1b565b5060005b8551811015611e2f57858181518110611dc357611dc261323c565b5b602001015160f81c60f81b838380611dda90613194565b945081518110611ded57611dec61323c565b5b60200101907effffffffffffffffffffffffffffffffffffffffffffffffffffffffffffff1916908160001a9053508080611e2790613194565b915050611da7565b5060005b8451811015611ebb57848181518110611e4f57611e4e61323c565b5b602001015160f81c60f81b838380611e6690613194565b945081518110611e7957611e7861323c565b5b60200101907effffffffffffffffffffffffffffffffffffffffffffffffffffffffffffff1916908160001a9053508080611eb390613194565b915050611e33565b50819850505050505050505095945050505050565b6000604051905090565b600080fd5b600080fd5b60007fffffffff0000000000000000000000000000000000000000000000000000000082169050919050565b611f1981611ee4565b8114611f2457600080fd5b50565b600081359050611f3681611f10565b92915050565b600060208284031215611f5257611f51611eda565b5b6000611f6084828501611f27565b91505092915050565b60008115159050919050565b611f7e81611f69565b82525050565b6000602082019050611f996000830184611f75565b92915050565b600081519050919050565b600082825260208201905092915050565b60005b83811015611fd9578082015181840152602081019050611fbe565b60008484015250505050565b6000601f19601f8301169050919050565b600061200182611f9f565b61200b8185611faa565b935061201b818560208601611fbb565b61202481611fe5565b840191505092915050565b600060208201905081810360008301526120498184611ff6565b905092915050565b6000819050919050565b61206481612051565b811461206f57600080fd5b50565b6000813590506120818161205b565b92915050565b60006020828403121561209d5761209c611eda565b5b60006120ab84828501612072565b91505092915050565b600073ffffffffffffffffffffffffffffffffffffffff82169050919050565b60006120df826120b4565b9050919050565b6120ef816120d4565b82525050565b600060208201905061210a60008301846120e6565b92915050565b612119816120d4565b811461212457600080fd5b50565b60008135905061213681612110565b92915050565b6000806040838503121561215357612152611eda565b5b600061216185828601612127565b925050602061217285828601612072565b9150509250929050565b60008060006060848603121561219557612194611eda565b5b60006121a386828701612127565b93505060206121b486828701612127565b92505060406121c586828701612072565b9150509250925092565b600080fd5b600080fd5b7f4e487b7100000000000000000000000000000000000000000000000000000000600052604160045260246000fd5b61221182611fe5565b810181811067ffffffffffffffff821117156122305761222f6121d9565b5b80604052505050565b6000612243611ed0565b905061224f8282612208565b919050565b600067ffffffffffffffff82111561226f5761226e6121d9565b5b61227882611fe5565b9050602081019050919050565b82818337600083830152505050565b60006122a76122a284612254565b612239565b9050828152602081018484840111156122c3576122c26121d4565b5b6122ce848285612285565b509392505050565b600082601f8301126122eb576122ea6121cf565b5b81356122fb848260208601612294565b91505092915050565b6000806040838503121561231b5761231a611eda565b5b600083013567ffffffffffffffff81111561233957612338611edf565b5b612345858286016122d6565b925050602083013567ffffffffffffffff81111561236657612365611edf565b5b612372858286016122d6565b9150509250929050565b60006020828403121561239257612391611eda565b5b60006123a084828501612127565b91505092915050565b6123b281612051565b82525050565b60006020820190506123cd60008301846123a9565b92915050565b6000602082840312156123e9576123e8611eda565b5b600082013567ffffffffffffffff81111561240757612406611edf565b5b612413848285016122d6565b91505092915050565b61242581611f69565b811461243057600080fd5b50565b6000813590506124428161241c565b92915050565b6000806040838503121561245f5761245e611eda565b5b600061246d85828601612127565b925050602061247e85828601612433565b9150509250929050565b600067ffffffffffffffff8211156124a3576124a26121d9565b5b6124ac82611fe5565b9050602081019050919050565b60006124cc6124c784612488565b612239565b9050828152602081018484840111156124e8576124e76121d4565b5b6124f3848285612285565b509392505050565b600082601f8301126125105761250f6121cf565b5b81356125208482602086016124b9565b91505092915050565b6000806000806080858703121561254357612542611eda565b5b600061255187828801612127565b945050602061256287828801612127565b935050604061257387828801612072565b925050606085013567ffffffffffffffff81111561259457612593611edf565b5b6125a0878288016124fb565b91505092959194509250565b600080604083850312156125c3576125c2611eda565b5b60006125d185828601612127565b92505060206125e285828601612127565b9150509250929050565b7f4e487b7100000000000000000000000000000000000000000000000000000000600052602260045260246000fd5b6000600282049050600182168061263357607f821691505b602082108103612646576126456125ec565b5b50919050565b7f4552433732313a20617070726f76616c20746f2063757272656e74206f776e6560008201527f7200000000000000000000000000000000000000000000000000000000000000602082015250565b60006126a8602183611faa565b91506126b38261264c565b604082019050919050565b600060208201905081810360008301526126d78161269b565b9050919050565b7f4552433732313a20617070726f76652063616c6c6572206973206e6f7420746f60008201527f6b656e206f776e6572206e6f7220617070726f76656420666f7220616c6c0000602082015250565b600061273a603e83611faa565b9150612745826126de565b604082019050919050565b600060208201905081810360008301526127698161272d565b9050919050565b7f4552433732313a2063616c6c6572206973206e6f7420746f6b656e206f776e6560008201527f72206e6f7220617070726f766564000000000000000000000000000000000000602082015250565b60006127cc602e83611faa565b91506127d782612770565b604082019050919050565b600060208201905081810360008301526127fb816127bf565b9050919050565b7f496e697469616c697a61626c653a20636f6e747261637420697320616c72656160008201527f647920696e697469616c697a6564000000000000000000000000000000000000602082015250565b600061285e602e83611faa565b915061286982612802565b604082019050919050565b6000602082019050818103600083015261288d81612851565b9050919050565b6000819050919050565b600060ff82169050919050565b6000819050919050565b60006128d06128cb6128c684612894565b6128ab565b61289e565b9050919050565b6128e0816128b5565b82525050565b60006020820190506128fb60008301846128d7565b92915050565b7f4552433732313a20696e76616c696420746f6b656e2049440000000000000000600082015250565b6000612937601883611faa565b915061294282612901565b602082019050919050565b600060208201905081810360008301526129668161292a565b9050919050565b7f4552433732313a2061646472657373207a65726f206973206e6f74206120766160008201527f6c6964206f776e65720000000000000000000000000000000000000000000000602082015250565b60006129c9602983611faa565b91506129d48261296d565b604082019050919050565b600060208201905081810360008301526129f8816129bc565b9050919050565b60008190508160005260206000209050919050565b60006020601f8301049050919050565b600082821b905092915050565b600060088302612a617fffffffffffffffffffffffffffffffffffffffffffffffffffffffffffffffff82612a24565b612a6b8683612a24565b95508019841693508086168417925050509392505050565b6000612a9e612a99612a9484612051565b6128ab565b612051565b9050919050565b6000819050919050565b612ab883612a83565b612acc612ac482612aa5565b848454612a31565b825550505050565b600090565b612ae1612ad4565b612aec818484612aaf565b505050565b5b81811015612b1057612b05600082612ad9565b600181019050612af2565b5050565b601f821115612b5557612b26816129ff565b612b2f84612a14565b81016020851015612b3e578190505b612b52612b4a85612a14565b830182612af1565b50505b505050565b600082821c905092915050565b6000612b7860001984600802612b5a565b1980831691505092915050565b6000612b918383612b67565b9150826002028217905092915050565b612baa82611f9f565b67ffffffffffffffff811115612bc357612bc26121d9565b5b612bcd825461261b565b612bd8828285612b14565b600060209050601f831160018114612c0b5760008415612bf9578287015190505b612c038582612b85565b865550612c6b565b601f198416612c19866129ff565b60005b82811015612c4157848901518255600182019150602085019450602081019050612c1c565b86831015612c5e5784890151612c5a601f891682612b67565b8355505b6001600288020188555050505b505050505050565b7f4f776e61626c653a206e6577206f776e657220697320746865207a65726f206160008201527f6464726573730000000000000000000000000000000000000000000000000000602082015250565b6000612ccf602683611faa565b9150612cda82612c73565b604082019050919050565b60006020820190508181036000830152612cfe81612cc2565b9050919050565b7f4552433732313a207472616e736665722066726f6d20696e636f72726563742060008201527f6f776e6572000000000000000000000000000000000000000000000000000000602082015250565b6000612d61602583611faa565b9150612d6c82612d05565b604082019050919050565b60006020820190508181036000830152612d9081612d54565b9050919050565b7f4552433732313a207472616e7366657220746f20746865207a65726f2061646460008201527f7265737300000000000000000000000000000000000000000000000000000000602082015250565b6000612df3602483611faa565b9150612dfe82612d97565b604082019050919050565b60006020820190508181036000830152612e2281612de6565b9050919050565b7f4e487b7100000000000000000000000000000000000000000000000000000000600052601160045260246000fd5b6000612e6382612051565b9150612e6e83612051565b9250828203905081811115612e8657612e85612e29565b5b92915050565b6000612e9782612051565b9150612ea283612051565b9250828201905080821115612eba57612eb9612e29565b5b92915050565b7f4f776e61626c653a2063616c6c6572206973206e6f7420746865206f776e6572600082015250565b6000612ef6602083611faa565b9150612f0182612ec0565b602082019050919050565b60006020820190508181036000830152612f2581612ee9565b9050919050565b7f4552433732313a206d696e7420746f20746865207a65726f2061646472657373600082015250565b6000612f62602083611faa565b9150612f6d82612f2c565b602082019050919050565b60006020820190508181036000830152612f9181612f55565b9050919050565b7f4552433732313a20746f6b656e20616c7265616479206d696e74656400000000600082015250565b6000612fce601c83611faa565b9150612fd982612f98565b602082019050919050565b60006020820190508181036000830152612ffd81612fc1565b9050919050565b7f496e697469616c697a61626c653a20636f6e7472616374206973206e6f74206960008201527f6e697469616c697a696e67000000000000000000000000000000000000000000602082015250565b6000613060602b83611faa565b915061306b82613004565b604082019050919050565b6000602082019050818103600083015261308f81613053565b9050919050565b7f4552433732313a20617070726f766520746f2063616c6c657200000000000000600082015250565b60006130cc601983611faa565b91506130d782613096565b602082019050919050565b600060208201905081810360008301526130fb816130bf565b9050919050565b7f4552433732313a207472616e7366657220746f206e6f6e20455243373231526560008201527f63656976657220696d706c656d656e7465720000000000000000000000000000602082015250565b600061315e603283611faa565b915061316982613102565b604082019050919050565b6000602082019050818103600083015261318d81613151565b9050919050565b600061319f82612051565b91507fffffffffffffffffffffffffffffffffffffffffffffffffffffffffffffffff82036131d1576131d0612e29565b5b600182019050919050565b7f4e487b7100000000000000000000000000000000000000000000000000000000600052601260045260246000fd5b600061321682612051565b915061322183612051565b925082613231576132306131dc565b5b828204905092915050565b7f4e487b7100000000000000000000000000000000000000000000000000000000600052603260045260246000fd5b600081519050919050565b600082825260208201905092915050565b60006132928261326b565b61329c8185613276565b93506132ac818560208601611fbb565b6132b581611fe5565b840191505092915050565b60006080820190506132d560008301876120e6565b6132e260208301866120e6565b6132ef60408301856123a9565b81810360608301526133018184613287565b905095945050505050565b60008151905061331b81611f10565b92915050565b60006020828403121561333757613336611eda565b5b60006133458482850161330c565b9150509291505056fea2646970667358221220e04223bbbd4583039499060aacf2e38260966e03d64360d68ff50637162f9d3b64736f6c63430008100033",
  "devdoc": {
    "details": "Implementation of https://eips.ethereum.org/EIPS/eip-721[ERC721] Non-Fungible Token Standard, including the Metadata extension, but not including the Enumerable extension, which is available separately as {ERC721Enumerable}.",
    "kind": "dev",
    "methods": {
      "approve(address,uint256)": {
        "details": "See {IERC721-approve}."
      },
      "balanceOf(address)": {
        "details": "See {IERC721-balanceOf}."
      },
      "getApproved(uint256)": {
        "details": "See {IERC721-getApproved}."
      },
      "initialize(string,string)": {
        "details": "Initializes the contract by setting a `name` and a `symbol` to the token collection."
      },
      "isApprovedForAll(address,address)": {
        "details": "See {IERC721-isApprovedForAll}."
      },
      "mint(address,uint256)": {
        "details": "only owner",
        "params": {
          "_to": "address of new owner of given token Id",
          "_tokenId": "id of new token"
        }
      },
      "name()": {
        "details": "See {IERC721Metadata-name}."
      },
      "owner()": {
        "details": "Returns the address of the current owner."
      },
      "ownerOf(uint256)": {
        "details": "See {IERC721-ownerOf}."
      },
      "renounceOwnership()": {
        "details": "Leaves the contract without owner. It will not be possible to call `onlyOwner` functions anymore. Can only be called by the current owner. NOTE: Renouncing ownership will leave the contract without an owner, thereby removing any functionality that is only available to the owner."
      },
      "safeTransferFrom(address,address,uint256)": {
        "details": "See {IERC721-safeTransferFrom}."
      },
      "safeTransferFrom(address,address,uint256,bytes)": {
        "details": "See {IERC721-safeTransferFrom}."
      },
      "setApprovalForAll(address,bool)": {
        "details": "See {IERC721-setApprovalForAll}."
      },
      "setBaseMetadataURI(string)": {
        "params": {
          "_newBaseMetadataURI": "New base URL of token's URI"
        }
      },
      "supportsInterface(bytes4)": {
        "details": "See {IERC165-supportsInterface}."
      },
      "symbol()": {
        "details": "See {IERC721Metadata-symbol}."
      },
      "tokenURI(uint256)": {
        "details": "only owner",
        "params": {
          "_id": "token Id"
        }
      },
      "transferFrom(address,address,uint256)": {
        "details": "See {IERC721-transferFrom}."
      },
      "transferOwnership(address)": {
        "details": "Transfers ownership of the contract to a new account (`newOwner`). Can only be called by the current owner."
      }
    },
    "version": 1
  },
  "userdoc": {
    "kind": "user",
    "methods": {
      "mint(address,uint256)": {
        "notice": "method for minting token"
      },
      "setBaseMetadataURI(string)": {
        "notice": "Will update the base URL of token's URI"
      },
      "tokenURI(uint256)": {
        "notice": "Will return token's URI"
      }
    },
    "version": 1
  },
  "storageLayout": {
    "storage": [
      {
        "astId": 551,
        "contract": "contracts/NFT.sol:NFT",
        "label": "_initialized",
        "offset": 0,
        "slot": "0",
        "type": "t_uint8"
      },
      {
        "astId": 554,
        "contract": "contracts/NFT.sol:NFT",
        "label": "_initializing",
        "offset": 1,
        "slot": "0",
        "type": "t_bool"
      },
      {
        "astId": 3455,
        "contract": "contracts/NFT.sol:NFT",
        "label": "__gap",
        "offset": 0,
        "slot": "1",
        "type": "t_array(t_uint256)50_storage"
      },
      {
        "astId": 3725,
        "contract": "contracts/NFT.sol:NFT",
        "label": "__gap",
        "offset": 0,
        "slot": "51",
        "type": "t_array(t_uint256)50_storage"
      },
      {
        "astId": 2147,
        "contract": "contracts/NFT.sol:NFT",
        "label": "_name",
        "offset": 0,
        "slot": "101",
        "type": "t_string_storage"
      },
      {
        "astId": 2149,
        "contract": "contracts/NFT.sol:NFT",
        "label": "_symbol",
        "offset": 0,
        "slot": "102",
        "type": "t_string_storage"
      },
      {
        "astId": 2153,
        "contract": "contracts/NFT.sol:NFT",
        "label": "_owners",
        "offset": 0,
        "slot": "103",
        "type": "t_mapping(t_uint256,t_address)"
      },
      {
        "astId": 2157,
        "contract": "contracts/NFT.sol:NFT",
        "label": "_balances",
        "offset": 0,
        "slot": "104",
        "type": "t_mapping(t_address,t_uint256)"
      },
      {
        "astId": 2161,
        "contract": "contracts/NFT.sol:NFT",
        "label": "_tokenApprovals",
        "offset": 0,
        "slot": "105",
        "type": "t_mapping(t_uint256,t_address)"
      },
      {
        "astId": 2167,
        "contract": "contracts/NFT.sol:NFT",
        "label": "_operatorApprovals",
        "offset": 0,
        "slot": "106",
        "type": "t_mapping(t_address,t_mapping(t_address,t_bool))"
      },
      {
        "astId": 3009,
        "contract": "contracts/NFT.sol:NFT",
        "label": "__gap",
        "offset": 0,
        "slot": "107",
        "type": "t_array(t_uint256)44_storage"
      },
      {
        "astId": 423,
        "contract": "contracts/NFT.sol:NFT",
        "label": "_owner",
        "offset": 0,
        "slot": "151",
        "type": "t_address"
      },
      {
        "astId": 543,
        "contract": "contracts/NFT.sol:NFT",
        "label": "__gap",
        "offset": 0,
        "slot": "152",
        "type": "t_array(t_uint256)49_storage"
      },
      {
        "astId": 7212,
        "contract": "contracts/NFT.sol:NFT",
        "label": "baseMetadataURI",
        "offset": 0,
        "slot": "201",
        "type": "t_string_storage"
      }
    ],
    "types": {
      "t_address": {
        "encoding": "inplace",
        "label": "address",
        "numberOfBytes": "20"
      },
      "t_array(t_uint256)44_storage": {
        "base": "t_uint256",
        "encoding": "inplace",
        "label": "uint256[44]",
        "numberOfBytes": "1408"
      },
      "t_array(t_uint256)49_storage": {
        "base": "t_uint256",
        "encoding": "inplace",
        "label": "uint256[49]",
        "numberOfBytes": "1568"
      },
      "t_array(t_uint256)50_storage": {
        "base": "t_uint256",
        "encoding": "inplace",
        "label": "uint256[50]",
        "numberOfBytes": "1600"
      },
      "t_bool": {
        "encoding": "inplace",
        "label": "bool",
        "numberOfBytes": "1"
      },
      "t_mapping(t_address,t_bool)": {
        "encoding": "mapping",
        "key": "t_address",
        "label": "mapping(address => bool)",
        "numberOfBytes": "32",
        "value": "t_bool"
      },
      "t_mapping(t_address,t_mapping(t_address,t_bool))": {
        "encoding": "mapping",
        "key": "t_address",
        "label": "mapping(address => mapping(address => bool))",
        "numberOfBytes": "32",
        "value": "t_mapping(t_address,t_bool)"
      },
      "t_mapping(t_address,t_uint256)": {
        "encoding": "mapping",
        "key": "t_address",
        "label": "mapping(address => uint256)",
        "numberOfBytes": "32",
        "value": "t_uint256"
      },
      "t_mapping(t_uint256,t_address)": {
        "encoding": "mapping",
        "key": "t_uint256",
        "label": "mapping(uint256 => address)",
        "numberOfBytes": "32",
        "value": "t_address"
      },
      "t_string_storage": {
        "encoding": "bytes",
        "label": "string",
        "numberOfBytes": "32"
      },
      "t_uint256": {
        "encoding": "inplace",
        "label": "uint256",
        "numberOfBytes": "32"
      },
      "t_uint8": {
        "encoding": "inplace",
        "label": "uint8",
        "numberOfBytes": "1"
      }
    }
  }
}