{
  "address": "0x3d94a8915080EFB1e64ce3C99310c4D3fe9d3894",
  "abi": [
    {
      "inputs": [],
      "name": "AlreadyInitialized",
      "type": "error"
    },
    {
      "inputs": [
        {
          "internalType": "address",
          "name": "asset",
          "type": "address"
        },
        {
          "internalType": "address",
          "name": "reward",
          "type": "address"
        }
      ],
      "name": "DistributionNonExistent",
      "type": "error"
    },
    {
      "inputs": [
        {
          "internalType": "uint256",
          "name": "newIndex",
          "type": "uint256"
        }
      ],
      "name": "IndexOverflow",
      "type": "error"
    },
    {
      "inputs": [
        {
          "internalType": "address",
          "name": "asset",
          "type": "address"
        }
      ],
      "name": "InvalidAssetDecimals",
      "type": "error"
    },
    {
      "inputs": [],
      "name": "InvalidInput",
      "type": "error"
    },
    {
      "inputs": [
        {
          "internalType": "address",
          "name": "reward",
          "type": "address"
        },
        {
          "internalType": "address",
          "name": "rewardOracle",
          "type": "address"
        }
      ],
      "name": "InvalidRewardOracle",
      "type": "error"
    },
    {
      "inputs": [
        {
          "internalType": "address",
          "name": "sender",
          "type": "address"
        }
      ],
      "name": "NotEmissionManager",
      "type": "error"
    },
    {
      "inputs": [
        {
          "internalType": "address",
          "name": "sender",
          "type": "address"
        }
      ],
      "name": "NotSolidStaking",
      "type": "error"
    },
    {
      "inputs": [
        {
          "internalType": "address",
          "name": "claimer",
          "type": "address"
        },
        {
          "internalType": "address",
          "name": "user",
          "type": "address"
        }
      ],
      "name": "UnauthorizedClaimer",
      "type": "error"
    },
    {
      "inputs": [
        {
          "internalType": "address",
          "name": "asset",
          "type": "address"
        },
        {
          "internalType": "address",
          "name": "reward",
          "type": "address"
        }
      ],
      "name": "UpdateDistributionNotApplicable",
      "type": "error"
    },
    {
      "anonymous": false,
      "inputs": [
        {
          "indexed": true,
          "internalType": "address",
          "name": "asset",
          "type": "address"
        },
        {
          "indexed": true,
          "internalType": "address",
          "name": "reward",
          "type": "address"
        },
        {
          "indexed": true,
          "internalType": "address",
          "name": "user",
          "type": "address"
        },
        {
          "indexed": false,
          "internalType": "uint256",
          "name": "assetIndex",
          "type": "uint256"
        },
        {
          "indexed": false,
          "internalType": "uint256",
          "name": "userIndex",
          "type": "uint256"
        },
        {
          "indexed": false,
          "internalType": "uint256",
          "name": "rewardsAccrued",
          "type": "uint256"
        }
      ],
      "name": "Accrued",
      "type": "event"
    },
    {
      "anonymous": false,
      "inputs": [
        {
          "indexed": true,
          "internalType": "address",
          "name": "asset",
          "type": "address"
        },
        {
          "indexed": true,
          "internalType": "address",
          "name": "reward",
          "type": "address"
        },
        {
          "indexed": false,
          "internalType": "uint256",
          "name": "oldEmission",
          "type": "uint256"
        },
        {
          "indexed": false,
          "internalType": "uint256",
          "name": "newEmission",
          "type": "uint256"
        },
        {
          "indexed": false,
          "internalType": "uint256",
          "name": "oldDistributionEnd",
          "type": "uint256"
        },
        {
          "indexed": false,
          "internalType": "uint256",
          "name": "newDistributionEnd",
          "type": "uint256"
        },
        {
          "indexed": false,
          "internalType": "uint256",
          "name": "assetIndex",
          "type": "uint256"
        }
      ],
      "name": "AssetConfigUpdated",
      "type": "event"
    },
    {
      "anonymous": false,
      "inputs": [
        {
          "indexed": true,
          "internalType": "address",
          "name": "user",
          "type": "address"
        },
        {
          "indexed": true,
          "internalType": "address",
          "name": "claimer",
          "type": "address"
        }
      ],
      "name": "ClaimerSet",
      "type": "event"
    },
    {
      "anonymous": false,
      "inputs": [
        {
          "indexed": true,
          "internalType": "address",
          "name": "oldEmissionManager",
          "type": "address"
        },
        {
          "indexed": true,
          "internalType": "address",
          "name": "newEmissionManager",
          "type": "address"
        }
      ],
      "name": "EmissionManagerUpdated",
      "type": "event"
    },
    {
      "anonymous": false,
      "inputs": [
        {
          "indexed": true,
          "internalType": "address",
          "name": "reward",
          "type": "address"
        },
        {
          "indexed": true,
          "internalType": "address",
          "name": "rewardOracle",
          "type": "address"
        }
      ],
      "name": "RewardOracleUpdated",
      "type": "event"
    },
    {
      "anonymous": false,
      "inputs": [
        {
          "indexed": true,
          "internalType": "address",
          "name": "user",
          "type": "address"
        },
        {
          "indexed": true,
          "internalType": "address",
          "name": "reward",
          "type": "address"
        },
        {
          "indexed": true,
          "internalType": "address",
          "name": "to",
          "type": "address"
        },
        {
          "indexed": false,
          "internalType": "address",
          "name": "claimer",
          "type": "address"
        },
        {
          "indexed": false,
          "internalType": "uint256",
          "name": "amount",
          "type": "uint256"
        }
      ],
      "name": "RewardsClaimed",
      "type": "event"
    },
    {
      "anonymous": false,
      "inputs": [
        {
          "indexed": true,
          "internalType": "address",
          "name": "rewardsVault",
          "type": "address"
        }
      ],
      "name": "RewardsVaultUpdated",
      "type": "event"
    },
    {
      "anonymous": false,
      "inputs": [
        {
          "indexed": true,
          "internalType": "address",
          "name": "solidStaking",
          "type": "address"
        }
      ],
      "name": "SolidStakingUpdated",
      "type": "event"
    },
    {
      "inputs": [
        {
          "internalType": "address",
          "name": "asset",
          "type": "address"
        },
        {
          "internalType": "address",
          "name": "reward",
          "type": "address"
        }
      ],
      "name": "canUpdateCarbonRewardDistribution",
      "outputs": [
        {
          "internalType": "bool",
          "name": "",
          "type": "bool"
        }
      ],
      "stateMutability": "view",
      "type": "function"
    },
    {
      "inputs": [
        {
          "internalType": "address[]",
          "name": "assets",
          "type": "address[]"
        },
        {
          "internalType": "address",
          "name": "to",
          "type": "address"
        }
      ],
      "name": "claimAllRewards",
      "outputs": [
        {
          "internalType": "address[]",
          "name": "rewardsList",
          "type": "address[]"
        },
        {
          "internalType": "uint256[]",
          "name": "claimedAmounts",
          "type": "uint256[]"
        }
      ],
      "stateMutability": "nonpayable",
      "type": "function"
    },
    {
      "inputs": [
        {
          "internalType": "address[]",
          "name": "assets",
          "type": "address[]"
        },
        {
          "internalType": "address",
          "name": "user",
          "type": "address"
        },
        {
          "internalType": "address",
          "name": "to",
          "type": "address"
        }
      ],
      "name": "claimAllRewardsOnBehalf",
      "outputs": [
        {
          "internalType": "address[]",
          "name": "rewardsList",
          "type": "address[]"
        },
        {
          "internalType": "uint256[]",
          "name": "claimedAmounts",
          "type": "uint256[]"
        }
      ],
      "stateMutability": "nonpayable",
      "type": "function"
    },
    {
      "inputs": [
        {
          "internalType": "address[]",
          "name": "assets",
          "type": "address[]"
        }
      ],
      "name": "claimAllRewardsToSelf",
      "outputs": [
        {
          "internalType": "address[]",
          "name": "rewardsList",
          "type": "address[]"
        },
        {
          "internalType": "uint256[]",
          "name": "claimedAmounts",
          "type": "uint256[]"
        }
      ],
      "stateMutability": "nonpayable",
      "type": "function"
    },
    {
      "inputs": [
        {
          "components": [
            {
              "internalType": "uint88",
              "name": "emissionPerSecond",
              "type": "uint88"
            },
            {
              "internalType": "uint256",
              "name": "totalStaked",
              "type": "uint256"
            },
            {
              "internalType": "uint32",
              "name": "distributionEnd",
              "type": "uint32"
            },
            {
              "internalType": "address",
              "name": "asset",
              "type": "address"
            },
            {
              "internalType": "address",
              "name": "reward",
              "type": "address"
            },
            {
              "internalType": "contract IEACAggregatorProxy",
              "name": "rewardOracle",
              "type": "address"
            }
          ],
          "internalType": "struct RewardsDataTypes.DistributionConfig[]",
          "name": "config",
          "type": "tuple[]"
        }
      ],
      "name": "configureAssets",
      "outputs": [],
      "stateMutability": "nonpayable",
      "type": "function"
    },
    {
      "inputs": [
        {
          "internalType": "address",
          "name": "user",
          "type": "address"
        },
        {
          "internalType": "address",
          "name": "reward",
          "type": "address"
        }
      ],
      "name": "getAccruedRewardAmountForUser",
      "outputs": [
        {
          "internalType": "uint256",
          "name": "",
          "type": "uint256"
        }
      ],
      "stateMutability": "view",
      "type": "function"
    },
    {
      "inputs": [],
      "name": "getAllRewards",
      "outputs": [
        {
          "internalType": "address[]",
          "name": "",
          "type": "address[]"
        }
      ],
      "stateMutability": "view",
      "type": "function"
    },
    {
      "inputs": [
        {
          "internalType": "address[]",
          "name": "assets",
          "type": "address[]"
        },
        {
          "internalType": "address",
          "name": "user",
          "type": "address"
        }
      ],
      "name": "getAllUnclaimedRewardAmountsForUserAndAssets",
      "outputs": [
        {
          "internalType": "address[]",
          "name": "rewardsList",
          "type": "address[]"
        },
        {
          "internalType": "uint256[]",
          "name": "unclaimedAmounts",
          "type": "uint256[]"
        }
      ],
      "stateMutability": "view",
      "type": "function"
    },
    {
      "inputs": [
        {
          "internalType": "address",
          "name": "asset",
          "type": "address"
        }
      ],
      "name": "getAssetDecimals",
      "outputs": [
        {
          "internalType": "uint8",
          "name": "",
          "type": "uint8"
        }
      ],
      "stateMutability": "view",
      "type": "function"
    },
    {
      "inputs": [
        {
          "internalType": "address",
          "name": "user",
          "type": "address"
        }
      ],
      "name": "getClaimer",
      "outputs": [
        {
          "internalType": "address",
          "name": "",
          "type": "address"
        }
      ],
      "stateMutability": "view",
      "type": "function"
    },
    {
      "inputs": [
        {
          "internalType": "address",
          "name": "asset",
          "type": "address"
        },
        {
          "internalType": "address",
          "name": "reward",
          "type": "address"
        }
      ],
      "name": "getDistributionEnd",
      "outputs": [
        {
          "internalType": "uint256",
          "name": "",
          "type": "uint256"
        }
      ],
      "stateMutability": "view",
      "type": "function"
    },
    {
      "inputs": [],
      "name": "getEmissionManager",
      "outputs": [
        {
          "internalType": "address",
          "name": "",
          "type": "address"
        }
      ],
      "stateMutability": "view",
      "type": "function"
    },
    {
      "inputs": [
        {
          "internalType": "address",
          "name": "asset",
          "type": "address"
        },
        {
          "internalType": "address",
          "name": "reward",
          "type": "address"
        }
      ],
      "name": "getRewardDistribution",
      "outputs": [
        {
          "internalType": "uint256",
          "name": "",
          "type": "uint256"
        },
        {
          "internalType": "uint256",
          "name": "",
          "type": "uint256"
        },
        {
          "internalType": "uint256",
          "name": "",
          "type": "uint256"
        },
        {
          "internalType": "uint256",
          "name": "",
          "type": "uint256"
        }
      ],
      "stateMutability": "view",
      "type": "function"
    },
    {
      "inputs": [
        {
          "internalType": "address",
          "name": "reward",
          "type": "address"
        }
      ],
      "name": "getRewardOracle",
      "outputs": [
        {
          "internalType": "address",
          "name": "",
          "type": "address"
        }
      ],
      "stateMutability": "view",
      "type": "function"
    },
    {
      "inputs": [
        {
          "internalType": "address",
          "name": "asset",
          "type": "address"
        }
      ],
      "name": "getRewardsByAsset",
      "outputs": [
        {
          "internalType": "address[]",
          "name": "",
          "type": "address[]"
        }
      ],
      "stateMutability": "view",
      "type": "function"
    },
    {
      "inputs": [],
      "name": "getRewardsVault",
      "outputs": [
        {
          "internalType": "address",
          "name": "",
          "type": "address"
        }
      ],
      "stateMutability": "view",
      "type": "function"
    },
    {
      "inputs": [
        {
          "internalType": "address[]",
          "name": "assets",
          "type": "address[]"
        },
        {
          "internalType": "address",
          "name": "user",
          "type": "address"
        },
        {
          "internalType": "address",
          "name": "reward",
          "type": "address"
        }
      ],
      "name": "getUnclaimedRewardAmountForUserAndAssets",
      "outputs": [
        {
          "internalType": "uint256",
          "name": "unclaimedAmount",
          "type": "uint256"
        }
      ],
      "stateMutability": "view",
      "type": "function"
    },
    {
      "inputs": [
        {
          "internalType": "address",
          "name": "user",
          "type": "address"
        },
        {
          "internalType": "address",
          "name": "asset",
          "type": "address"
        },
        {
          "internalType": "address",
          "name": "reward",
          "type": "address"
        }
      ],
      "name": "getUserIndex",
      "outputs": [
        {
          "internalType": "uint256",
          "name": "",
          "type": "uint256"
        }
      ],
      "stateMutability": "view",
      "type": "function"
    },
    {
      "inputs": [
        {
          "internalType": "address",
          "name": "asset",
          "type": "address"
        },
        {
          "internalType": "address",
          "name": "user",
          "type": "address"
        },
        {
          "internalType": "uint256",
          "name": "oldUserStake",
          "type": "uint256"
        },
        {
          "internalType": "uint256",
          "name": "oldTotalStaked",
          "type": "uint256"
        }
      ],
      "name": "handleUserStakeChanged",
      "outputs": [],
      "stateMutability": "nonpayable",
      "type": "function"
    },
    {
      "inputs": [
        {
          "internalType": "address",
          "name": "user",
          "type": "address"
        },
        {
          "internalType": "address",
          "name": "caller",
          "type": "address"
        }
      ],
      "name": "setClaimer",
      "outputs": [],
      "stateMutability": "nonpayable",
      "type": "function"
    },
    {
      "inputs": [
        {
          "internalType": "address",
          "name": "asset",
          "type": "address"
        },
        {
          "internalType": "address",
          "name": "reward",
          "type": "address"
        },
        {
          "internalType": "uint32",
          "name": "newDistributionEnd",
          "type": "uint32"
        }
      ],
      "name": "setDistributionEnd",
      "outputs": [],
      "stateMutability": "nonpayable",
      "type": "function"
    },
    {
      "inputs": [
        {
          "internalType": "address",
          "name": "emissionManager",
          "type": "address"
        }
      ],
      "name": "setEmissionManager",
      "outputs": [],
      "stateMutability": "nonpayable",
      "type": "function"
    },
    {
      "inputs": [
        {
          "internalType": "address",
          "name": "asset",
          "type": "address"
        },
        {
          "internalType": "address[]",
          "name": "rewards",
          "type": "address[]"
        },
        {
          "internalType": "uint88[]",
          "name": "newEmissionsPerSecond",
          "type": "uint88[]"
        }
      ],
      "name": "setEmissionPerSecond",
      "outputs": [],
      "stateMutability": "nonpayable",
      "type": "function"
    },
    {
      "inputs": [
        {
          "internalType": "address",
          "name": "reward",
          "type": "address"
        },
        {
          "internalType": "contract IEACAggregatorProxy",
          "name": "rewardOracle",
          "type": "address"
        }
      ],
      "name": "setRewardOracle",
      "outputs": [],
      "stateMutability": "nonpayable",
      "type": "function"
    },
    {
      "inputs": [
        {
          "internalType": "address",
          "name": "rewardsVault",
          "type": "address"
        }
      ],
      "name": "setRewardsVault",
      "outputs": [],
      "stateMutability": "nonpayable",
      "type": "function"
    },
    {
      "inputs": [
        {
          "internalType": "address",
          "name": "solidStaking",
          "type": "address"
        }
      ],
      "name": "setSolidStaking",
      "outputs": [],
      "stateMutability": "nonpayable",
      "type": "function"
    },
    {
      "inputs": [
        {
          "internalType": "address",
          "name": "_solidStakingViewActions",
          "type": "address"
        },
        {
          "internalType": "address",
          "name": "rewardsVault",
          "type": "address"
        },
        {
          "internalType": "address",
          "name": "emissionManager",
          "type": "address"
        }
      ],
      "name": "setup",
      "outputs": [],
      "stateMutability": "nonpayable",
      "type": "function"
    },
    {
      "inputs": [],
      "name": "solidStakingViewActions",
      "outputs": [
        {
          "internalType": "contract ISolidStakingViewActions",
          "name": "",
          "type": "address"
        }
      ],
      "stateMutability": "view",
      "type": "function"
    },
    {
      "inputs": [
        {
          "internalType": "address[]",
          "name": "assets",
          "type": "address[]"
        },
        {
          "internalType": "address[]",
          "name": "rewards",
          "type": "address[]"
        },
        {
          "internalType": "uint256[]",
          "name": "rewardAmounts",
          "type": "uint256[]"
        }
      ],
      "name": "updateCarbonRewardDistribution",
      "outputs": [],
      "stateMutability": "nonpayable",
      "type": "function"
    }
  ],
  "transactionHash": "0x2dedcd1f2bc6030f434f179b1ab0b5a581f61057bd749b15ddd28027118c44d3",
  "args": [],
  "numDeployments": 1,
  "solcInputHash": "acd18e12828ff6ebe49a00d5c0dc845c",
  "bytecode": "0x608060405234801561001057600080fd5b506138db806100206000396000f3fe608060405234801561001057600080fd5b50600436106101cf5760003560e01c806388ffcf6111610104578063c040af69116100a2578063ef85093611610071578063ef85093614610514578063f5bb3e0214610527578063f5cf673b1461053a578063f996868b1461054d57600080fd5b8063c040af6914610452578063c5a7b53814610465578063e23ddec514610478578063e3887a4b1461048957600080fd5b80639ff55db9116100de5780639ff55db9146103f8578063ad9f8b2f14610419578063bb492bf51461042c578063bf90f63a1461043f57600080fd5b806388ffcf611461034f57806392074b081461039f5780639efd6f72146103b057600080fd5b80634f7459d511610171578063707199e51161014b578063707199e5146102ea57806374d945ec146102fd57806377b8b1c7146103295780638549f3fd1461033c57600080fd5b80634f7459d5146102b15780635453ba10146102c45780636657732f146102d757600080fd5b806338be719f116101ad57806338be719f1461025357806345b35f56146102665780634a6a60f11461027b5780634e18cced1461028e57600080fd5b8063184dde87146101d45780631b839c77146101e95780632a17bf601461020f575b600080fd5b6101e76101e2366004613034565b610560565b005b6101fc6101f736600461307a565b6105a4565b6040519081526020015b60405180910390f35b61023b61021d3660046130b3565b6001600160a01b039081166000908152600760205260409020541690565b6040516001600160a01b039091168152602001610206565b6101e761026136600461311b565b6105dc565b61026e61092f565b60405161020691906131f8565b60055461023b906001600160a01b031681565b6102a161029c36600461307a565b610991565b6040519015158152602001610206565b6101e76102bf3660046130b3565b610a2e565b6101e76102d236600461307a565b610a67565b61026e6102e53660046130b3565b610aa2565b6101e76102f83660046132a9565b610ba9565b61023b61030b3660046130b3565b6001600160a01b039081166000908152600660205260409020541690565b6101e76103373660046133c3565b610d05565b6101fc61034a36600461340e565b610d62565b6101fc61035d3660046133c3565b6001600160a01b038083166000908152602081815260408083208585168452825280832093871683526001909301905220546001600160681b03169392505050565b6004546001600160a01b031661023b565b6103e66103be3660046130b3565b6001600160a01b0316600090815260208190526040902060020154600160801b900460ff1690565b60405160ff9091168152602001610206565b61040b61040636600461340e565b610ee4565b604051610206929190613475565b6101fc61042736600461307a565b610fad565b61040b61043a3660046134cc565b611045565b61040b61044d366004613517565b611089565b6101e76104603660046130b3565b6110a5565b6101e7610473366004613558565b6110db565b6008546001600160a01b031661023b565b6104f461049736600461307a565b6001600160a01b039182166000908152602081815260408083209390941682529190915220546001600160681b038116916001600160581b03600160681b8304169163ffffffff600160c01b8204811692600160e01b9092041690565b604080519485526020850193909352918301526060820152608001610206565b61040b6105223660046134cc565b61122c565b6101e76105353660046130b3565b6114e5565b6101e761054836600461307a565b61151b565b6101e761055b36600461359f565b61159f565b6005546001600160a01b0316331461059257604051634c4365b760e01b81523360048201526024015b60405180910390fd5b61059e8484848461171d565b50505050565b6001600160a01b0382811660009081526020818152604080832093851683529290522054600160e01b900463ffffffff165b92915050565b6004546001600160a01b03163314610609576040516359afb33960e01b8152336004820152602401610589565b84831415806106185750828114155b156106365760405163b4fa3fb360e01b815260040160405180910390fd5b60005b858110156109265761069787878381811061065657610656613621565b905060200201602081019061066b91906130b3565b86868481811061067d5761067d613621565b905060200201602081019061069291906130b3565b611861565b610715578686828181106106ad576106ad613621565b90506020020160208101906106c291906130b3565b8585838181106106d4576106d4613621565b90506020020160208101906106e991906130b3565b604051632743cc1360e21b81526001600160a01b03928316600482015291166024820152604401610589565b600061076d88888481811061072c5761072c613621565b905060200201602081019061074191906130b3565b87878581811061075357610753613621565b905060200201602081019061076891906130b3565b6118d7565b905060006107814263ffffffff841661364d565b85858581811061079357610793613621565b905060200201356107a49190613660565b90506000806108008b8b878181106107be576107be613621565b90506020020160208101906107d391906130b3565b8a8a888181106107e5576107e5613621565b90506020020160208101906107fa91906130b3565b8561191f565b5091509150600061085e8c8c8881811061081c5761081c613621565b905060200201602081019061083191906130b3565b8b8b8981811061084357610843613621565b905060200201602081019061085891906130b3565b87611a7b565b905089898781811061087257610872613621565b905060200201602081019061088791906130b3565b6001600160a01b03168c8c888181106108a2576108a2613621565b90506020020160208101906108b791906130b3565b604080518681526001600160581b038816602082015290810184905263ffffffff88166060820152608081018590526001600160a01b0391909116906000805160206138868339815191529060a00160405180910390a35050505050808061091e90613682565b915050610639565b50505050505050565b6060600280548060200260200160405190810160405280929190818152602001828054801561098757602002820191906000526020600020905b81546001600160a01b03168152600190910190602001808311610969575b5050505050905090565b6001600160a01b038281166000818152602081815260408083209486168352848252822092825281905260029092015484918491600160801b900460ff168015806109e857508154600160c01b900463ffffffff16155b15610a195760405163645f6bcf60e11b81526001600160a01b03808616600483015284166024820152604401610589565b610a238787611861565b979650505050505050565b6004546001600160a01b03163314610a5b576040516359afb33960e01b8152336004820152602401610589565b610a6481611ac7565b50565b6004546001600160a01b03163314610a94576040516359afb33960e01b8152336004820152602401610589565b610a9e8282611b19565b5050565b6001600160a01b0381166000908152602081905260408120600201546060916001600160801b0390911690816001600160401b03811115610ae557610ae561320b565b604051908082528060200260200182016040528015610b0e578160200160208202803683370190505b50905060005b826001600160801b0316816001600160801b03161015610ba1576001600160a01b038086166000908152602081815260408083206001600160801b03861680855260019091019092529091205484519216918491908110610b7757610b77613621565b6001600160a01b039092166020928302919091019091015280610b998161369b565b915050610b14565b509392505050565b6004546001600160a01b03163314610bd6576040516359afb33960e01b8152336004820152602401610589565b60005b8151811015610cfb5760055482516001600160a01b0390911690639bfd8d6190849084908110610c0b57610c0b613621565b6020026020010151606001516040518263ffffffff1660e01b8152600401610c4291906001600160a01b0391909116815260200190565b602060405180830381865afa158015610c5f573d6000803e3d6000fd5b505050506040513d601f19601f82011682018060405250810190610c8391906136c1565b828281518110610c9557610c95613621565b60200260200101516020018181525050610ce9828281518110610cba57610cba613621565b602002602001015160800151838381518110610cd857610cd8613621565b602002602001015160a00151611b19565b80610cf381613682565b915050610bd9565b50610a6481611c05565b600554600160a01b900460ff1615610d2f5760405162dc149f60e41b815260040160405180910390fd5b6005805460ff60a01b1916600160a01b179055610d4b836122fa565b610d5482612344565b610d5d81611ac7565b505050565b600080610d7086868661238e565b905060005b8151811015610eda57818181518110610d9057610d90613621565b602002602001015160200151600003610e1d57600080838381518110610db857610db8613621565b602090810291909101810151516001600160a01b039081168352828201939093526040918201600090812088851682528252828120938916815260019093019052902054610e1690600160681b90046001600160801b0316846136da565b9250610ec8565b600080838381518110610e3257610e32613621565b602090810291909101810151516001600160a01b0390811683528282019390935260409182016000908120888516825282528281209389168152600190930190529020548251600160681b9091046001600160801b031690610eb19087908790869086908110610ea457610ea4613621565b60200260200101516125f8565b610ebb91906136da565b610ec590846136da565b92505b80610ed281613682565b915050610d75565b5050949350505050565b6001600160a01b03808316600090815260066020526040902054606091829133918691168214801590610f2557506005546001600160a01b03838116911614155b15610f5657604051633ebd5fe560e01b81526001600160a01b03808416600483015282166024820152604401610589565b6001600160a01b0385161580610f7357506001600160a01b038616155b15610f915760405163b4fa3fb360e01b815260040160405180910390fd5b610f9e8888338989612698565b93509350505094509492505050565b60008060005b600354811015610ba15760008060038381548110610fd357610fd3613621565b6000918252602080832091909101546001600160a01b0390811684528382019490945260409283018220888516835281528282209389168252600190930190925290205461103190600160681b90046001600160801b0316836136da565b91508061103d81613682565b915050610fb3565b6060806001600160a01b03831661106f5760405163b4fa3fb360e01b815260040160405180910390fd5b61107c8585333387612698565b915091505b935093915050565b6060806110998484333333612698565b915091505b9250929050565b6004546001600160a01b031633146110d2576040516359afb33960e01b8152336004820152602401610589565b610a64816122fa565b6004546001600160a01b03163314611108576040516359afb33960e01b8152336004820152602401610589565b6001600160a01b03838116600081815260208181526040808320948716835284825282209282525260029091015484918491600160801b900460ff1680158061115d57508154600160c01b900463ffffffff16155b1561118e5760405163645f6bcf60e11b81526001600160a01b03808616600483015284166024820152604401610589565b600061119b888888611a7b565b6001600160a01b03898116600081815260208181526040808320948d1680845294825291829020548251600160681b82046001600160581b03168082529281019290925291810185905263ffffffff8b1660608201526001600160681b03909116608082018190529394506000805160206138868339815191529060a00160405180910390a3505050505050505050565b606080600061123c86868661238e565b6002549091506001600160401b038111156112595761125961320b565b604051908082528060200260200182016040528015611282578160200160208202803683370190505b50925082516001600160401b0381111561129e5761129e61320b565b6040519080825280602002602001820160405280156112c7578160200160208202803683370190505b50915060005b81518110156114db5760005b84518110156114c857600281815481106112f5576112f5613621565b9060005260206000200160009054906101000a90046001600160a01b031685828151811061132557611325613621565b60200260200101906001600160a01b031690816001600160a01b03168152505060008084848151811061135a5761135a613621565b6020026020010151600001516001600160a01b03166001600160a01b03168152602001908152602001600020600001600086838151811061139d5761139d613621565b60200260200101516001600160a01b03166001600160a01b031681526020019081526020016000206001016000876001600160a01b03166001600160a01b03168152602001908152602001600020600001600d9054906101000a90046001600160801b03166001600160801b031684828151811061141d5761141d613621565b6020026020010181815161143191906136da565b905250825183908390811061144857611448613621565b602002602001015160200151600003156114b65761148c8686838151811061147257611472613621565b6020026020010151858581518110610ea457610ea4613621565b84828151811061149e5761149e613621565b602002602001018181516114b291906136da565b9052505b806114c081613682565b9150506112d9565b50806114d381613682565b9150506112cd565b5050935093915050565b6004546001600160a01b03163314611512576040516359afb33960e01b8152336004820152602401610589565b610a6481612344565b6004546001600160a01b03163314611548576040516359afb33960e01b8152336004820152602401610589565b6001600160a01b0382811660008181526006602052604080822080546001600160a01b0319169486169485179055517f4925eafc82d0c4d67889898eeed64b18488ab19811e61620f387026dec126a289190a35050565b6004546001600160a01b031633146115cc576040516359afb33960e01b8152336004820152602401610589565b8281146115ec5760405163b4fa3fb360e01b815260040160405180910390fd5b60005b838110156117155760008060006116538989898781811061161257611612613621565b905060200201602081019061162791906130b3565b88888881811061163957611639613621565b905060200201602081019061164e91906136ed565b61191f565b92509250925087878581811061166b5761166b613621565b905060200201602081019061168091906130b3565b6001600160a01b0316896001600160a01b0316600080516020613886833981519152858989898181106116b5576116b5613621565b90506020020160208101906116ca91906136ed565b604080519283526001600160581b0390911660208301528101859052606081018590526080810186905260a00160405180910390a3505050808061170d90613682565b9150506115ef565b505050505050565b6001600160a01b03841660009081526020819052604081206002015460ff600160801b820416600a0a916001600160801b039091169081900361176157505061059e565b60005b81816001600160801b03161015610926576001600160a01b038088166000908152602081815260408083206001600160801b03861684526001810183528184205490941680845293909152812090806117be838989612a8d565b915091506000806117d2858d8d878d612b5d565b9150915082806117df5750805b1561184f578b6001600160a01b0316866001600160a01b03168e6001600160a01b03167f3303facd24627943a92e9dc87cfbb34b15c49b726eec3ad3487c16be9ab8efe8878887604051611846939291909283526020830191909152604082015260600190565b60405180910390a45b50506001909401935061176492505050565b6001600160a01b03828116600090815260208181526040808320938516835292905290812054600160e01b900463ffffffff168161189f85856118d7565b905063ffffffff82168015159060009042108015906118c357508263ffffffff1642105b9050818015610a2357509695505050505050565b6001600160a01b03828116600090815260208181526040808320938516835292905290812054600160e01b900463ffffffff166119178162093a80613708565b949350505050565b6001600160a01b038381166000908152602081815260408083209386168352908390528120600283015491928392839290600160801b900460ff1680158061197357508154600160c01b900463ffffffff16155b156119a45760405163645f6bcf60e11b81526001600160a01b03808b16600483015289166024820152604401610589565b8154600554604051639bfd8d6160e01b81526001600160a01b038c81166004830152600160e01b90930463ffffffff169650611a389285921690639bfd8d6190602401602060405180830381865afa158015611a04573d6000803e3d6000fd5b505050506040513d601f19601f82011682018060405250810190611a2891906136c1565b611a3384600a613810565b612a8d565b5082546001600160581b03988916600160681b9081026affffffffffffffffffffff60681b19831617909455929092049690961698909750919550909350505050565b6001600160a01b0392831660009081526020818152604080832094909516825292909252919020805463ffffffff928316600160e01b9081026001600160e01b03831617909255041690565b600480546001600160a01b038381166001600160a01b0319831681179093556040519116919082907f53271355c244f99d37f622c90fe574eb7c35c7b3548ea276cf9b5b11c601605e90600090a35050565b6000816001600160a01b03166350d25bcd6040518163ffffffff1660e01b8152600401602060405180830381865afa158015611b59573d6000803e3d6000fd5b505050506040513d601f19601f82011682018060405250810190611b7d91906136c1565b13611bae576040516313de6b1760e21b81526001600160a01b03808416600483015282166024820152604401610589565b6001600160a01b0382811660008181526007602052604080822080546001600160a01b0319169486169485179055517f1a1cd5483e52e60b9ff7f3b9d1db3bbd9e9d21c6324ad3a8c79dba9b75e62f4d9190a35050565b60005b8151811015610a9e576000828281518110611c2557611c25613621565b6020026020010151606001516001600160a01b031663313ce5676040518163ffffffff1660e01b8152600401602060405180830381865afa158015611c6e573d6000803e3d6000fd5b505050506040513d601f19601f82011682018060405250810190611c92919061381c565b90508060ff16600003611ce657828281518110611cb157611cb1613621565b602002602001015160600151604051638f0b741560e01b815260040161058991906001600160a01b0391909116815260200190565b600080848481518110611cfb57611cfb613621565b6020026020010151606001516001600160a01b03166001600160a01b0316815260200190815260200160002060020160109054906101000a900460ff1660ff16600003611d96576003838381518110611d5657611d56613621565b6020908102919091018101516060015182546001810184556000938452919092200180546001600160a01b0319166001600160a01b039092169190911790555b80600080858581518110611dac57611dac613621565b6020026020010151606001516001600160a01b03166001600160a01b0316815260200190815260200160002060020160106101000a81548160ff021916908360ff1602179055506000806000858581518110611e0a57611e0a613621565b6020026020010151606001516001600160a01b03166001600160a01b031681526020019081526020016000206000016000858581518110611e4d57611e4d613621565b6020026020010151608001516001600160a01b03166001600160a01b0316815260200190815260200160002090508060000160189054906101000a900463ffffffff1663ffffffff1660000361201f576000806000868681518110611eb457611eb4613621565b6020026020010151606001516001600160a01b03166001600160a01b0316815260200190815260200160002060020160009054906101000a90046001600160801b03169050848481518110611f0b57611f0b613621565b602002602001015160800151600080878781518110611f2c57611f2c613621565b6020026020010151606001516001600160a01b03166001600160a01b031681526020019081526020016000206001016000836001600160801b03166001600160801b0316815260200190815260200160002060006101000a8154816001600160a01b0302191690836001600160a01b03160217905550600080868681518110611fb757611fb7613621565b602090810291909101810151606001516001600160a01b03168252810191909152604001600090812060020180546001600160801b031691611ff88361369b565b91906101000a8154816001600160801b0302191690836001600160801b0316021790555050505b6001600085858151811061203557612035613621565b602090810291909101810151608001516001600160a01b0316825281019190915260400160009081205460ff161515900361211857600180600086868151811061208157612081613621565b6020026020010151608001516001600160a01b03166001600160a01b0316815260200190815260200160002060006101000a81548160ff02191690831515021790555060028484815181106120d8576120d8613621565b6020908102919091018101516080015182546001810184556000938452919092200180546001600160a01b0319166001600160a01b039092169190911790555b60006121498286868151811061213057612130613621565b60200260200101516020015185600a611a33919061383f565b5082548651919250600160681b81046001600160581b031691600160e01b90910463ffffffff169087908790811061218357612183613621565b60209081029190910101515184546001600160581b03909116600160681b026affffffffffffffffffffff60681b1990911617845586518790879081106121cc576121cc613621565b602090810291909101015160400151845463ffffffff909116600160e01b026001600160e01b03909116178455865187908790811061220d5761220d613621565b6020026020010151608001516001600160a01b031687878151811061223457612234613621565b6020026020010151606001516001600160a01b0316600080516020613886833981519152848a8a8151811061226b5761226b613621565b602002602001015160000151858c8c8151811061228a5761228a613621565b602002602001015160400151896040516122da9594939291906001600160581b03958616815293909416602084015263ffffffff9182166040840152166060820152608081019190915260a00190565b60405180910390a3505050505080806122f290613682565b915050611c08565b600580546001600160a01b0319166001600160a01b0383169081179091556040517f56ca898af8c1c9c8321dc2ddb32e363c6cd2f38e679340e14a67c810100ce7b790600090a250565b600880546001600160a01b0319166001600160a01b0383169081179091556040517f28a48cbce43190d77247f342cf319b1607bff4ef716cf26b76cf7bb71baebaa590600090a250565b6060826001600160401b038111156123a8576123a861320b565b60405190808252806020026020018201604052801561240657816020015b6123f3604051806060016040528060006001600160a01b0316815260200160008152602001600081525090565b8152602001906001900390816123c65790505b50905060005b83811015610ba15784848281811061242657612426613621565b905060200201602081019061243b91906130b3565b82828151811061244d5761244d613621565b60209081029190910101516001600160a01b0391821690526005541663f7888aec86868481811061248057612480613621565b905060200201602081019061249591906130b3565b6040516001600160e01b031960e084901b1681526001600160a01b0391821660048201529086166024820152604401602060405180830381865afa1580156124e1573d6000803e3d6000fd5b505050506040513d601f19601f8201168201806040525081019061250591906136c1565b82828151811061251757612517613621565b60209081029190910181015101526005546001600160a01b0316639bfd8d6186868481811061254857612548613621565b905060200201602081019061255d91906130b3565b6040516001600160e01b031960e084901b1681526001600160a01b039091166004820152602401602060405180830381865afa1580156125a1573d6000803e3d6000fd5b505050506040513d601f19601f820116820180604052508101906125c591906136c1565b8282815181106125d7576125d7613621565b602090810291909101015160400152806125f081613682565b91505061240c565b80516001600160a01b03908116600090815260208181526040808320868516845282528083208551909416835290829052812060020154909190829061264990600160801b900460ff16600a61383f565b9050600061265c83866040015184612c7d565b6020808801516001600160a01b038b16600090815260018801909252604090912054919350610a2392509083906001600160681b031685612d47565b6002546060908190806001600160401b038111156126b8576126b861320b565b6040519080825280602002602001820160405280156126e1578160200160208202803683370190505b509250806001600160401b038111156126fc576126fc61320b565b604051908082528060200260200182016040528015612725578160200160208202803683370190505b50915061273c856127378a8a8961238e565b612d69565b60005b8781101561298957600089898381811061275b5761275b613621565b905060200201602081019061277091906130b3565b905060005b838110156129745760006001600160a01b031686828151811061279a5761279a613621565b60200260200101516001600160a01b03160361281457600281815481106127c3576127c3613621565b9060005260206000200160009054906101000a90046001600160a01b03168682815181106127f3576127f3613621565b60200260200101906001600160a01b031690816001600160a01b0316815250505b6001600160a01b03821660009081526020819052604081208751829089908590811061284257612842613621565b6020908102919091018101516001600160a01b0390811683528282019390935260409182016000908120938d16815260019093019052902054600160681b90046001600160801b03169050801561296157808683815181106128a6576128a6613621565b602002602001018181516128ba91906136da565b9052506001600160a01b0383166000908152602081905260408120885182908a90869081106128eb576128eb613621565b60200260200101516001600160a01b03166001600160a01b0316815260200190815260200160002060010160008b6001600160a01b03166001600160a01b03168152602001908152602001600020600001600d6101000a8154816001600160801b0302191690836001600160801b031602179055505b508061296c81613682565b915050612775565b5050808061298190613682565b91505061273f565b5060005b81811015612a81576129d2858583815181106129ab576129ab613621565b60200260200101518584815181106129c5576129c5613621565b6020026020010151612dea565b846001600160a01b03168482815181106129ee576129ee613621565b60200260200101516001600160a01b0316876001600160a01b03167fc052130bc4ef84580db505783484b067ea8b71b3bca78a7e12db7aea8658f0048a878681518110612a3d57612a3d613621565b6020026020010151604051612a679291906001600160a01b03929092168252602082015260400190565b60405180910390a480612a7981613682565b91505061298d565b50509550959350505050565b600080600080612a9e878787612c7d565b915091506000828214612b26576001600160681b03821115612ad6576040516306363a0960e51b815260048101839052602401610589565b5086546cffffffffffffffffffffffffff19166001600160681b0382161787556001612b0142612e03565b885463ffffffff91909116600160c01b0263ffffffff60c01b19909116178855612b50565b612b2f42612e03565b885463ffffffff91909116600160c01b0263ffffffff60c01b199091161788555b9097909650945050505050565b6001600160a01b038416600090815260018601602052604081205481906001600160681b031681858214801590612c6e576001600160681b03871115612bb9576040516306363a0960e51b815260048101889052602401610589565b6001600160a01b038916600090815260018b016020526040902080546cffffffffffffffffffffffffff19166001600160681b0389161790558715612c6e57612c0488888589612d47565b9150612c0f82612e6c565b6001600160a01b038a16600090815260018c01602052604090208054600d90612c49908490600160681b90046001600160801b031661384e565b92506101000a8154816001600160801b0302191690836001600160801b031602179055505b90999098509650505050505050565b825460009081906001600160681b0381169063ffffffff600160e01b82048116916001600160581b03600160681b82041691600160c01b90910416811580612cc3575087155b80612ccd57504281145b80612cd85750828110155b15612cec5783849550955050505050611081565b6000834211612cfb5742612cfd565b835b90506000612d0b838361364d565b9050600089612d1a838761386e565b612d24919061386e565b8b9004905086612d3481836136da565b9850985050505050505050935093915050565b6000612d53838561364d565b612d5d908661386e565b91909104949350505050565b60005b8151811015610d5d57612dd8828281518110612d8a57612d8a613621565b60200260200101516000015184848481518110612da957612da9613621565b602002602001015160200151858581518110612dc757612dc7613621565b60200260200101516040015161171d565b80612de281613682565b915050612d6c565b600854610d5d9083906001600160a01b03168584612ed5565b600063ffffffff821115612e685760405162461bcd60e51b815260206004820152602660248201527f53616665436173743a2076616c756520646f65736e27742066697420696e203360448201526532206269747360d01b6064820152608401610589565b5090565b60006001600160801b03821115612e685760405162461bcd60e51b815260206004820152602760248201527f53616665436173743a2076616c756520646f65736e27742066697420696e20316044820152663238206269747360c81b6064820152608401610589565b6040516323b872dd60e01b8082526001600160a01b038581166004840152841660248301526044820183905290600080606483828a5af1612f1a573d6000803e3d6000fd5b50612f2485612f77565b612f705760405162461bcd60e51b815260206004820152601960248201527f475076323a206661696c6564207472616e7366657246726f6d000000000000006044820152606401610589565b5050505050565b6000612f9c565b62461bcd60e51b600052602060045280602452508060445260646000fd5b3d8015612fdb576020811461300c57612fd67f475076323a206d616c666f726d6564207472616e7366657220726573756c7400601f612f7e565b613019565b823b613003576130037311d41d8c8e881b9bdd08184818dbdb9d1c9858dd60621b6014612f7e565b60019150613019565b3d6000803e600051151591505b50919050565b6001600160a01b0381168114610a6457600080fd5b6000806000806080858703121561304a57600080fd5b84356130558161301f565b935060208501356130658161301f565b93969395505050506040820135916060013590565b6000806040838503121561308d57600080fd5b82356130988161301f565b915060208301356130a88161301f565b809150509250929050565b6000602082840312156130c557600080fd5b81356130d08161301f565b9392505050565b60008083601f8401126130e957600080fd5b5081356001600160401b0381111561310057600080fd5b6020830191508360208260051b850101111561109e57600080fd5b6000806000806000806060878903121561313457600080fd5b86356001600160401b038082111561314b57600080fd5b6131578a838b016130d7565b9098509650602089013591508082111561317057600080fd5b61317c8a838b016130d7565b9096509450604089013591508082111561319557600080fd5b506131a289828a016130d7565b979a9699509497509295939492505050565b600081518084526020808501945080840160005b838110156131ed5781516001600160a01b0316875295820195908201906001016131c8565b509495945050505050565b6020815260006130d060208301846131b4565b634e487b7160e01b600052604160045260246000fd5b60405160c081016001600160401b03811182821017156132435761324361320b565b60405290565b604051601f8201601f191681016001600160401b03811182821017156132715761327161320b565b604052919050565b80356001600160581b038116811461329057600080fd5b919050565b803563ffffffff8116811461329057600080fd5b600060208083850312156132bc57600080fd5b82356001600160401b03808211156132d357600080fd5b818501915085601f8301126132e757600080fd5b8135818111156132f9576132f961320b565b613307848260051b01613249565b818152848101925060c091820284018501918883111561332657600080fd5b938501935b828510156133b75780858a0312156133435760008081fd5b61334b613221565b61335486613279565b81528686013587820152604061336b818801613295565b9082015260608681013561337e8161301f565b908201526080868101356133918161301f565b9082015260a0868101356133a48161301f565b908201528452938401939285019261332b565b50979650505050505050565b6000806000606084860312156133d857600080fd5b83356133e38161301f565b925060208401356133f38161301f565b915060408401356134038161301f565b809150509250925092565b6000806000806060858703121561342457600080fd5b84356001600160401b0381111561343a57600080fd5b613446878288016130d7565b909550935050602085013561345a8161301f565b9150604085013561346a8161301f565b939692955090935050565b60408152600061348860408301856131b4565b82810360208481019190915284518083528582019282019060005b818110156134bf578451835293830193918301916001016134a3565b5090979650505050505050565b6000806000604084860312156134e157600080fd5b83356001600160401b038111156134f757600080fd5b613503868287016130d7565b90945092505060208401356134038161301f565b6000806020838503121561352a57600080fd5b82356001600160401b0381111561354057600080fd5b61354c858286016130d7565b90969095509350505050565b60008060006060848603121561356d57600080fd5b83356135788161301f565b925060208401356135888161301f565b915061359660408501613295565b90509250925092565b6000806000806000606086880312156135b757600080fd5b85356135c28161301f565b945060208601356001600160401b03808211156135de57600080fd5b6135ea89838a016130d7565b9096509450604088013591508082111561360357600080fd5b50613610888289016130d7565b969995985093965092949392505050565b634e487b7160e01b600052603260045260246000fd5b634e487b7160e01b600052601160045260246000fd5b818103818111156105d6576105d6613637565b60008261367d57634e487b7160e01b600052601260045260246000fd5b500490565b60006001820161369457613694613637565b5060010190565b60006001600160801b038083168181036136b7576136b7613637565b6001019392505050565b6000602082840312156136d357600080fd5b5051919050565b808201808211156105d6576105d6613637565b6000602082840312156136ff57600080fd5b6130d082613279565b63ffffffff81811683821601908082111561372557613725613637565b5092915050565b600181815b8085111561376757816000190482111561374d5761374d613637565b8085161561375a57918102915b93841c9390800290613731565b509250929050565b60008261377e575060016105d6565b8161378b575060006105d6565b81600181146137a157600281146137ab576137c7565b60019150506105d6565b60ff8411156137bc576137bc613637565b50506001821b6105d6565b5060208310610133831016604e8410600b84101617156137ea575081810a6105d6565b6137f4838361372c565b806000190482111561380857613808613637565b029392505050565b60006130d0838361376f565b60006020828403121561382e57600080fd5b815160ff811681146130d057600080fd5b60006130d060ff84168361376f565b6001600160801b0381811683821601908082111561372557613725613637565b80820281158282048414176105d6576105d661363756feac1777479f07f3e7c34da8402139d54027a6a260caaae168bdee825ca5580dc5a26469706673582212205d527311157878d7e6b1fadaa32199cbca6e549565c1d070a242ca41c2cff8e664736f6c63430008110033",
  "devdoc": {
    "errors": {
      "UpdateDistributionNotApplicable(address,address)": [
        {
          "params": {
            "asset": "The address of the incentivized asset",
            "reward": "The address of the reward token"
          }
        }
      ]
    },
    "kind": "dev",
    "methods": {
      "canUpdateCarbonRewardDistribution(address,address)": {
        "params": {
          "asset": "The incentivized asset",
          "reward": "The reward token of the incentivized asset"
        },
        "returns": {
          "_0": "true, if distribution can be updated for the asset - reward pair"
        }
      },
      "claimAllRewards(address[],address)": {
        "details": "Claims all rewards for a user to the desired address, on all the assets of the pool, accumulating the pending rewards",
        "params": {
          "assets": "The list of assets to check eligible distributions before claiming rewards",
          "to": "The address that will be receiving the rewards"
        },
        "returns": {
          "claimedAmounts": "List that contains the claimed amount per reward, following same order as \"rewardList\"",
          "rewardsList": "List of addresses of the reward tokens"
        }
      },
      "claimAllRewardsOnBehalf(address[],address,address)": {
        "details": "Claims all rewards for a user on behalf, on all the assets of the pool, accumulating the pending rewards. The caller must be whitelisted via \"allowClaimOnBehalf\" function by the RewardsAdmin role manager",
        "params": {
          "assets": "The list of assets to check eligible distributions before claiming rewards",
          "to": "The address that will be receiving the rewards",
          "user": "The address to check and claim rewards"
        },
        "returns": {
          "claimedAmounts": "List that contains the claimed amount per reward, following same order as \"rewardsList\"",
          "rewardsList": "List of addresses of the reward tokens"
        }
      },
      "claimAllRewardsToSelf(address[])": {
        "details": "Claims all reward for msg.sender, on all the assets of the pool, accumulating the pending rewards",
        "params": {
          "assets": "The list of assets to check eligible distributions before claiming rewards"
        },
        "returns": {
          "claimedAmounts": "List that contains the claimed amount per reward, following same order as \"rewardsList\"",
          "rewardsList": "List of addresses of the reward tokens"
        }
      },
      "configureAssets((uint88,uint256,uint32,address,address,address)[])": {
        "details": "Configure assets to incentivize with an emission of rewards per second until the end of distribution.",
        "params": {
          "config": "The assets configuration input, the list of structs contains the following fields:   uint104 emissionPerSecond: The emission per second following rewards unit decimals.   uint256 totalStaked: The total amount staked of the asset   uint40 distributionEnd: The end of the distribution of the incentives for an asset   address asset: The asset address to incentivize   address reward: The reward token address   IEACAggregatorProxy rewardOracle: The Price Oracle of a reward to visualize the incentives at the UI Frontend.                                     Must follow Chainlink Aggregator IEACAggregatorProxy interface to be compatible."
        }
      },
      "getAccruedRewardAmountForUser(address,address)": {
        "details": "Returns the accrued rewards balance of a user, not including virtually accrued rewards since last distribution.",
        "params": {
          "reward": "The address of the reward token",
          "user": "The address of the user"
        },
        "returns": {
          "_0": "Unclaimed rewards, not including new distributions"
        }
      },
      "getAllRewards()": {
        "details": "Returns the list of available reward addresses",
        "returns": {
          "_0": "List of rewards supported in this contract"
        }
      },
      "getAllUnclaimedRewardAmountsForUserAndAssets(address[],address)": {
        "details": "Returns a list all rewards of a user, including already accrued and unrealized claimable rewards",
        "params": {
          "assets": "List of incentivized assets to check eligible distributions",
          "user": "The address of the user"
        },
        "returns": {
          "rewardsList": "The list of reward addresses",
          "unclaimedAmounts": "The list of unclaimed amount of rewards"
        }
      },
      "getAssetDecimals(address)": {
        "details": "Returns the decimals of an asset to calculate the distribution delta",
        "params": {
          "asset": "The address to retrieve decimals"
        },
        "returns": {
          "_0": "The decimals of an underlying asset"
        }
      },
      "getClaimer(address)": {
        "details": "Returns the whitelisted claimer for a certain address (0x0 if not set)",
        "params": {
          "user": "The address of the user"
        },
        "returns": {
          "_0": "The claimer address"
        }
      },
      "getDistributionEnd(address,address)": {
        "details": "Gets the end date for the distribution",
        "params": {
          "asset": "The incentivized asset",
          "reward": "The reward token of the incentivized asset"
        },
        "returns": {
          "_0": "The timestamp with the end of the distribution, in unix time format"
        }
      },
      "getEmissionManager()": {
        "details": "Returns the address of the emission manager",
        "returns": {
          "_0": "The address of the EmissionManager"
        }
      },
      "getRewardDistribution(address,address)": {
        "details": "Returns the configuration of the distribution reward for a certain asset",
        "params": {
          "asset": "The incentivized asset",
          "reward": "The reward token of the incentivized asset"
        },
        "returns": {
          "_0": "The index of the asset distribution",
          "_1": "The emission per second of the reward distribution",
          "_2": "The timestamp of the last update of the index",
          "_3": "The timestamp of the distribution end"
        }
      },
      "getRewardOracle(address)": {
        "details": "Get the price aggregator oracle address",
        "params": {
          "reward": "The address of the reward"
        },
        "returns": {
          "_0": "The price oracle of the reward"
        }
      },
      "getRewardsByAsset(address)": {
        "details": "Returns the list of available reward token addresses of an incentivized asset",
        "params": {
          "asset": "The incentivized asset"
        },
        "returns": {
          "_0": "List of rewards addresses of the input asset"
        }
      },
      "getRewardsVault()": {
        "returns": {
          "_0": "Account that secures ERC20 rewards."
        }
      },
      "getUnclaimedRewardAmountForUserAndAssets(address[],address,address)": {
        "details": "Returns a single rewards balance of a user, including virtually accrued and unrealized claimable rewards.",
        "params": {
          "assets": "List of incentivized assets to check eligible distributions",
          "reward": "The address of the reward token",
          "user": "The address of the user"
        },
        "returns": {
          "unclaimedAmount": "The rewards amount"
        }
      },
      "getUserIndex(address,address,address)": {
        "details": "Returns the index of a user on a reward distribution",
        "params": {
          "asset": "The incentivized asset",
          "reward": "The reward token of the incentivized asset",
          "user": "Address of the user"
        },
        "returns": {
          "_0": "The current user asset index, not including new distributions"
        }
      },
      "handleUserStakeChanged(address,address,uint256,uint256)": {
        "details": "Called by the corresponding asset on transfer hook in order to update the rewards distribution.",
        "params": {
          "asset": "The incentivized asset address",
          "oldTotalStaked": "The total amount staked of the asset, prior to stake change",
          "oldUserStake": "The amount of assets staked by the user, prior to stake change",
          "user": "The address of the user whose asset balance has changed"
        }
      },
      "setClaimer(address,address)": {
        "details": "Whitelists an address to claim the rewards on behalf of another address",
        "params": {
          "claimer": "The address of the claimer",
          "user": "The address of the user"
        }
      },
      "setDistributionEnd(address,address,uint32)": {
        "details": "Sets the end date for the distribution",
        "params": {
          "asset": "The asset to incentivize",
          "newDistributionEnd": "The end date of the incentivization, in unix time format",
          "reward": "The reward token that incentives the asset"
        }
      },
      "setEmissionManager(address)": {
        "details": "Updates the address of the emission manager",
        "params": {
          "emissionManager": "The address of the new EmissionManager"
        }
      },
      "setEmissionPerSecond(address,address[],uint88[])": {
        "details": "Sets the emission per second of a set of reward distributions",
        "params": {
          "asset": "The asset is being incentivized",
          "newEmissionsPerSecond": "List of new reward emissions per second",
          "rewards": "List of reward addresses are being distributed"
        }
      },
      "setRewardOracle(address,address)": {
        "details": "Sets an Aave Oracle contract to enforce rewards with a source of value.",
        "params": {
          "reward": "The address of the reward to set the price aggregator",
          "rewardOracle": "The address of price aggregator that follows IEACAggregatorProxy interface"
        }
      },
      "setRewardsVault(address)": {
        "params": {
          "rewardsVault": "The address of the account that secures ERC20 rewards."
        }
      },
      "setSolidStaking(address)": {
        "params": {
          "solidStaking": "Used to fetch the total amount staked and the stake of an user for a given asset"
        }
      },
      "updateCarbonRewardDistribution(address[],address[],uint256[])": {
        "details": "Updates weekly reward distributions",
        "params": {
          "assets": "List of incentivized assets getting updated",
          "rewardAmounts": "List of carbon reward amounts getting distributed",
          "rewards": "List of reward tokens getting updated"
        }
      }
    },
    "stateVariables": {
      "REWARDS_VAULT": {
        "details": "Account that secures ERC20 rewards.It must approve `RewardsController` to spend the rewards it holds."
      },
      "_authorizedClaimers": {
        "details": "user => claimer"
      },
      "_rewardOracle": {
        "details": "reward => rewardOracle"
      }
    },
    "version": 1
  },
  "userdoc": {
    "kind": "user",
    "methods": {
      "setRewardOracle(address,address)": {
        "notice": "At the moment of reward configuration, the Incentives Controller performs a check to see if the reward asset oracle is compatible with IEACAggregator proxy. This check is enforced for integrators to be able to show incentives at the current Aave UI without the need to setup an external price registry"
      }
    },
    "version": 1
  },
  "storageLayout": {
    "storage": [
      {
        "astId": 14953,
        "contract": "contracts/rewards/RewardsController.sol:RewardsController",
        "label": "_assetData",
        "offset": 0,
        "slot": "0",
        "type": "t_mapping(t_address,t_struct(AssetData)12601_storage)"
      },
      {
        "astId": 14957,
        "contract": "contracts/rewards/RewardsController.sol:RewardsController",
        "label": "_isRewardEnabled",
        "offset": 0,
        "slot": "1",
        "type": "t_mapping(t_address,t_bool)"
      },
      {
        "astId": 14960,
        "contract": "contracts/rewards/RewardsController.sol:RewardsController",
        "label": "_rewardsList",
        "offset": 0,
        "slot": "2",
        "type": "t_array(t_address)dyn_storage"
      },
      {
        "astId": 14963,
        "contract": "contracts/rewards/RewardsController.sol:RewardsController",
        "label": "_assetsList",
        "offset": 0,
        "slot": "3",
        "type": "t_array(t_address)dyn_storage"
      },
      {
        "astId": 14965,
        "contract": "contracts/rewards/RewardsController.sol:RewardsController",
        "label": "_emissionManager",
        "offset": 0,
        "slot": "4",
        "type": "t_address"
      },
      {
        "astId": 14969,
        "contract": "contracts/rewards/RewardsController.sol:RewardsController",
        "label": "solidStakingViewActions",
        "offset": 0,
        "slot": "5",
        "type": "t_contract(ISolidStakingViewActions)9842"
      },
      {
        "astId": 6439,
        "contract": "contracts/rewards/RewardsController.sol:RewardsController",
        "label": "_initialized",
        "offset": 20,
        "slot": "5",
        "type": "t_bool"
      },
      {
        "astId": 14230,
        "contract": "contracts/rewards/RewardsController.sol:RewardsController",
        "label": "_authorizedClaimers",
        "offset": 0,
        "slot": "6",
        "type": "t_mapping(t_address,t_address)"
      },
      {
        "astId": 14236,
        "contract": "contracts/rewards/RewardsController.sol:RewardsController",
        "label": "_rewardOracle",
        "offset": 0,
        "slot": "7",
        "type": "t_mapping(t_address,t_contract(IEACAggregatorProxy)9186)"
      },
      {
        "astId": 14239,
        "contract": "contracts/rewards/RewardsController.sol:RewardsController",
        "label": "REWARDS_VAULT",
        "offset": 0,
        "slot": "8",
        "type": "t_address"
      }
    ],
    "types": {
      "t_address": {
        "encoding": "inplace",
        "label": "address",
        "numberOfBytes": "20"
      },
      "t_array(t_address)dyn_storage": {
        "base": "t_address",
        "encoding": "dynamic_array",
        "label": "address[]",
        "numberOfBytes": "32"
      },
      "t_bool": {
        "encoding": "inplace",
        "label": "bool",
        "numberOfBytes": "1"
      },
      "t_contract(IEACAggregatorProxy)9186": {
        "encoding": "inplace",
        "label": "contract IEACAggregatorProxy",
        "numberOfBytes": "20"
      },
      "t_contract(ISolidStakingViewActions)9842": {
        "encoding": "inplace",
        "label": "contract ISolidStakingViewActions",
        "numberOfBytes": "20"
      },
      "t_mapping(t_address,t_address)": {
        "encoding": "mapping",
        "key": "t_address",
        "label": "mapping(address => address)",
        "numberOfBytes": "32",
        "value": "t_address"
      },
      "t_mapping(t_address,t_bool)": {
        "encoding": "mapping",
        "key": "t_address",
        "label": "mapping(address => bool)",
        "numberOfBytes": "32",
        "value": "t_bool"
      },
      "t_mapping(t_address,t_contract(IEACAggregatorProxy)9186)": {
        "encoding": "mapping",
        "key": "t_address",
        "label": "mapping(address => contract IEACAggregatorProxy)",
        "numberOfBytes": "32",
        "value": "t_contract(IEACAggregatorProxy)9186"
      },
      "t_mapping(t_address,t_struct(AssetData)12601_storage)": {
        "encoding": "mapping",
        "key": "t_address",
        "label": "mapping(address => struct RewardsDataTypes.AssetData)",
        "numberOfBytes": "32",
        "value": "t_struct(AssetData)12601_storage"
      },
      "t_mapping(t_address,t_struct(RewardDistribution)12615_storage)": {
        "encoding": "mapping",
        "key": "t_address",
        "label": "mapping(address => struct RewardsDataTypes.RewardDistribution)",
        "numberOfBytes": "32",
        "value": "t_struct(RewardDistribution)12615_storage"
      },
      "t_mapping(t_address,t_struct(UserReward)12620_storage)": {
        "encoding": "mapping",
        "key": "t_address",
        "label": "mapping(address => struct RewardsDataTypes.UserReward)",
        "numberOfBytes": "32",
        "value": "t_struct(UserReward)12620_storage"
      },
      "t_mapping(t_uint128,t_address)": {
        "encoding": "mapping",
        "key": "t_uint128",
        "label": "mapping(uint128 => address)",
        "numberOfBytes": "32",
        "value": "t_address"
      },
      "t_struct(AssetData)12601_storage": {
        "encoding": "inplace",
        "label": "struct RewardsDataTypes.AssetData",
        "members": [
          {
            "astId": 12592,
            "contract": "contracts/rewards/RewardsController.sol:RewardsController",
            "label": "rewardDistribution",
            "offset": 0,
            "slot": "0",
            "type": "t_mapping(t_address,t_struct(RewardDistribution)12615_storage)"
          },
          {
            "astId": 12596,
            "contract": "contracts/rewards/RewardsController.sol:RewardsController",
            "label": "availableRewards",
            "offset": 0,
            "slot": "1",
            "type": "t_mapping(t_uint128,t_address)"
          },
          {
            "astId": 12598,
            "contract": "contracts/rewards/RewardsController.sol:RewardsController",
            "label": "availableRewardsCount",
            "offset": 0,
            "slot": "2",
            "type": "t_uint128"
          },
          {
            "astId": 12600,
            "contract": "contracts/rewards/RewardsController.sol:RewardsController",
            "label": "decimals",
            "offset": 16,
            "slot": "2",
            "type": "t_uint8"
          }
        ],
        "numberOfBytes": "96"
      },
      "t_struct(RewardDistribution)12615_storage": {
        "encoding": "inplace",
        "label": "struct RewardsDataTypes.RewardDistribution",
        "members": [
          {
            "astId": 12603,
            "contract": "contracts/rewards/RewardsController.sol:RewardsController",
            "label": "index",
            "offset": 0,
            "slot": "0",
            "type": "t_uint104"
          },
          {
            "astId": 12605,
            "contract": "contracts/rewards/RewardsController.sol:RewardsController",
            "label": "emissionPerSecond",
            "offset": 13,
            "slot": "0",
            "type": "t_uint88"
          },
          {
            "astId": 12607,
            "contract": "contracts/rewards/RewardsController.sol:RewardsController",
            "label": "lastUpdateTimestamp",
            "offset": 24,
            "slot": "0",
            "type": "t_uint32"
          },
          {
            "astId": 12609,
            "contract": "contracts/rewards/RewardsController.sol:RewardsController",
            "label": "distributionEnd",
            "offset": 28,
            "slot": "0",
            "type": "t_uint32"
          },
          {
            "astId": 12614,
            "contract": "contracts/rewards/RewardsController.sol:RewardsController",
            "label": "userReward",
            "offset": 0,
            "slot": "1",
            "type": "t_mapping(t_address,t_struct(UserReward)12620_storage)"
          }
        ],
        "numberOfBytes": "64"
      },
      "t_struct(UserReward)12620_storage": {
        "encoding": "inplace",
        "label": "struct RewardsDataTypes.UserReward",
        "members": [
          {
            "astId": 12617,
            "contract": "contracts/rewards/RewardsController.sol:RewardsController",
            "label": "index",
            "offset": 0,
            "slot": "0",
            "type": "t_uint104"
          },
          {
            "astId": 12619,
            "contract": "contracts/rewards/RewardsController.sol:RewardsController",
            "label": "accrued",
            "offset": 13,
            "slot": "0",
            "type": "t_uint128"
          }
        ],
        "numberOfBytes": "32"
      },
      "t_uint104": {
        "encoding": "inplace",
        "label": "uint104",
        "numberOfBytes": "13"
      },
      "t_uint128": {
        "encoding": "inplace",
        "label": "uint128",
        "numberOfBytes": "16"
      },
      "t_uint32": {
        "encoding": "inplace",
        "label": "uint32",
        "numberOfBytes": "4"
      },
      "t_uint8": {
        "encoding": "inplace",
        "label": "uint8",
        "numberOfBytes": "1"
      },
      "t_uint88": {
        "encoding": "inplace",
        "label": "uint88",
        "numberOfBytes": "11"
      }
    }
  }
}