{
  "address": "0xb4F01edb1d7C13B1Cf73aA3004641eF3894Be014",
  "abi": [
    {
      "inputs": [],
      "name": "AlreadyInitialized",
      "type": "error"
    },
    {
      "inputs": [
        {
          "internalType": "address",
          "name": "asset",
          "type": "address"
        },
        {
          "internalType": "address",
          "name": "reward",
          "type": "address"
        }
      ],
      "name": "DistributionNonExistent",
      "type": "error"
    },
    {
      "inputs": [
        {
          "internalType": "uint256",
          "name": "newIndex",
          "type": "uint256"
        }
      ],
      "name": "IndexOverflow",
      "type": "error"
    },
    {
      "inputs": [
        {
          "internalType": "address",
          "name": "asset",
          "type": "address"
        }
      ],
      "name": "InvalidAssetDecimals",
      "type": "error"
    },
    {
      "inputs": [],
      "name": "InvalidInput",
      "type": "error"
    },
    {
      "inputs": [
        {
          "internalType": "address",
          "name": "reward",
          "type": "address"
        },
        {
          "internalType": "address",
          "name": "rewardOracle",
          "type": "address"
        }
      ],
      "name": "InvalidRewardOracle",
      "type": "error"
    },
    {
      "inputs": [
        {
          "internalType": "address",
          "name": "sender",
          "type": "address"
        }
      ],
      "name": "NotEmissionManager",
      "type": "error"
    },
    {
      "inputs": [
        {
          "internalType": "address",
          "name": "sender",
          "type": "address"
        }
      ],
      "name": "NotSolidStaking",
      "type": "error"
    },
    {
      "inputs": [
        {
          "internalType": "address",
          "name": "claimer",
          "type": "address"
        },
        {
          "internalType": "address",
          "name": "user",
          "type": "address"
        }
      ],
      "name": "UnauthorizedClaimer",
      "type": "error"
    },
    {
      "inputs": [
        {
          "internalType": "address",
          "name": "asset",
          "type": "address"
        },
        {
          "internalType": "address",
          "name": "reward",
          "type": "address"
        }
      ],
      "name": "UpdateOngoingRewardDistribution",
      "type": "error"
    },
    {
      "anonymous": false,
      "inputs": [
        {
          "indexed": true,
          "internalType": "address",
          "name": "asset",
          "type": "address"
        },
        {
          "indexed": true,
          "internalType": "address",
          "name": "reward",
          "type": "address"
        },
        {
          "indexed": true,
          "internalType": "address",
          "name": "user",
          "type": "address"
        },
        {
          "indexed": false,
          "internalType": "uint256",
          "name": "assetIndex",
          "type": "uint256"
        },
        {
          "indexed": false,
          "internalType": "uint256",
          "name": "userIndex",
          "type": "uint256"
        },
        {
          "indexed": false,
          "internalType": "uint256",
          "name": "rewardsAccrued",
          "type": "uint256"
        }
      ],
      "name": "Accrued",
      "type": "event"
    },
    {
      "anonymous": false,
      "inputs": [
        {
          "indexed": true,
          "internalType": "address",
          "name": "asset",
          "type": "address"
        },
        {
          "indexed": true,
          "internalType": "address",
          "name": "reward",
          "type": "address"
        },
        {
          "indexed": false,
          "internalType": "uint256",
          "name": "oldEmission",
          "type": "uint256"
        },
        {
          "indexed": false,
          "internalType": "uint256",
          "name": "newEmission",
          "type": "uint256"
        },
        {
          "indexed": false,
          "internalType": "uint256",
          "name": "oldDistributionEnd",
          "type": "uint256"
        },
        {
          "indexed": false,
          "internalType": "uint256",
          "name": "newDistributionEnd",
          "type": "uint256"
        },
        {
          "indexed": false,
          "internalType": "uint256",
          "name": "assetIndex",
          "type": "uint256"
        }
      ],
      "name": "AssetConfigUpdated",
      "type": "event"
    },
    {
      "anonymous": false,
      "inputs": [
        {
          "indexed": true,
          "internalType": "address",
          "name": "user",
          "type": "address"
        },
        {
          "indexed": true,
          "internalType": "address",
          "name": "claimer",
          "type": "address"
        }
      ],
      "name": "ClaimerSet",
      "type": "event"
    },
    {
      "anonymous": false,
      "inputs": [
        {
          "indexed": true,
          "internalType": "address",
          "name": "oldEmissionManager",
          "type": "address"
        },
        {
          "indexed": true,
          "internalType": "address",
          "name": "newEmissionManager",
          "type": "address"
        }
      ],
      "name": "EmissionManagerUpdated",
      "type": "event"
    },
    {
      "anonymous": false,
      "inputs": [
        {
          "indexed": true,
          "internalType": "address",
          "name": "reward",
          "type": "address"
        },
        {
          "indexed": true,
          "internalType": "address",
          "name": "rewardOracle",
          "type": "address"
        }
      ],
      "name": "RewardOracleUpdated",
      "type": "event"
    },
    {
      "anonymous": false,
      "inputs": [
        {
          "indexed": true,
          "internalType": "address",
          "name": "user",
          "type": "address"
        },
        {
          "indexed": true,
          "internalType": "address",
          "name": "reward",
          "type": "address"
        },
        {
          "indexed": true,
          "internalType": "address",
          "name": "to",
          "type": "address"
        },
        {
          "indexed": false,
          "internalType": "address",
          "name": "claimer",
          "type": "address"
        },
        {
          "indexed": false,
          "internalType": "uint256",
          "name": "amount",
          "type": "uint256"
        }
      ],
      "name": "RewardsClaimed",
      "type": "event"
    },
    {
      "inputs": [
        {
          "internalType": "address[]",
          "name": "assets",
          "type": "address[]"
        },
        {
          "internalType": "address",
          "name": "to",
          "type": "address"
        }
      ],
      "name": "claimAllRewards",
      "outputs": [
        {
          "internalType": "address[]",
          "name": "rewardsList",
          "type": "address[]"
        },
        {
          "internalType": "uint256[]",
          "name": "claimedAmounts",
          "type": "uint256[]"
        }
      ],
      "stateMutability": "nonpayable",
      "type": "function"
    },
    {
      "inputs": [
        {
          "internalType": "address[]",
          "name": "assets",
          "type": "address[]"
        },
        {
          "internalType": "address",
          "name": "user",
          "type": "address"
        },
        {
          "internalType": "address",
          "name": "to",
          "type": "address"
        }
      ],
      "name": "claimAllRewardsOnBehalf",
      "outputs": [
        {
          "internalType": "address[]",
          "name": "rewardsList",
          "type": "address[]"
        },
        {
          "internalType": "uint256[]",
          "name": "claimedAmounts",
          "type": "uint256[]"
        }
      ],
      "stateMutability": "nonpayable",
      "type": "function"
    },
    {
      "inputs": [
        {
          "internalType": "address[]",
          "name": "assets",
          "type": "address[]"
        }
      ],
      "name": "claimAllRewardsToSelf",
      "outputs": [
        {
          "internalType": "address[]",
          "name": "rewardsList",
          "type": "address[]"
        },
        {
          "internalType": "uint256[]",
          "name": "claimedAmounts",
          "type": "uint256[]"
        }
      ],
      "stateMutability": "nonpayable",
      "type": "function"
    },
    {
      "inputs": [
        {
          "components": [
            {
              "internalType": "uint88",
              "name": "emissionPerSecond",
              "type": "uint88"
            },
            {
              "internalType": "uint256",
              "name": "totalStaked",
              "type": "uint256"
            },
            {
              "internalType": "uint32",
              "name": "distributionEnd",
              "type": "uint32"
            },
            {
              "internalType": "address",
              "name": "asset",
              "type": "address"
            },
            {
              "internalType": "address",
              "name": "reward",
              "type": "address"
            },
            {
              "internalType": "contract IEACAggregatorProxy",
              "name": "rewardOracle",
              "type": "address"
            }
          ],
          "internalType": "struct RewardsDataTypes.RewardsConfigInput[]",
          "name": "config",
          "type": "tuple[]"
        }
      ],
      "name": "configureAssets",
      "outputs": [],
      "stateMutability": "nonpayable",
      "type": "function"
    },
    {
      "inputs": [
        {
          "internalType": "address[]",
          "name": "assets",
          "type": "address[]"
        },
        {
          "internalType": "address",
          "name": "user",
          "type": "address"
        }
      ],
      "name": "getAllUserRewards",
      "outputs": [
        {
          "internalType": "address[]",
          "name": "rewardsList",
          "type": "address[]"
        },
        {
          "internalType": "uint256[]",
          "name": "unclaimedAmounts",
          "type": "uint256[]"
        }
      ],
      "stateMutability": "view",
      "type": "function"
    },
    {
      "inputs": [
        {
          "internalType": "address",
          "name": "asset",
          "type": "address"
        }
      ],
      "name": "getAssetDecimals",
      "outputs": [
        {
          "internalType": "uint8",
          "name": "",
          "type": "uint8"
        }
      ],
      "stateMutability": "view",
      "type": "function"
    },
    {
      "inputs": [
        {
          "internalType": "address",
          "name": "user",
          "type": "address"
        }
      ],
      "name": "getClaimer",
      "outputs": [
        {
          "internalType": "address",
          "name": "",
          "type": "address"
        }
      ],
      "stateMutability": "view",
      "type": "function"
    },
    {
      "inputs": [
        {
          "internalType": "address",
          "name": "asset",
          "type": "address"
        },
        {
          "internalType": "address",
          "name": "reward",
          "type": "address"
        }
      ],
      "name": "getDistributionEnd",
      "outputs": [
        {
          "internalType": "uint256",
          "name": "",
          "type": "uint256"
        }
      ],
      "stateMutability": "view",
      "type": "function"
    },
    {
      "inputs": [],
      "name": "getEmissionManager",
      "outputs": [
        {
          "internalType": "address",
          "name": "",
          "type": "address"
        }
      ],
      "stateMutability": "view",
      "type": "function"
    },
    {
      "inputs": [
        {
          "internalType": "address",
          "name": "reward",
          "type": "address"
        }
      ],
      "name": "getRewardOracle",
      "outputs": [
        {
          "internalType": "address",
          "name": "",
          "type": "address"
        }
      ],
      "stateMutability": "view",
      "type": "function"
    },
    {
      "inputs": [
        {
          "internalType": "address",
          "name": "asset",
          "type": "address"
        }
      ],
      "name": "getRewardsByAsset",
      "outputs": [
        {
          "internalType": "address[]",
          "name": "",
          "type": "address[]"
        }
      ],
      "stateMutability": "view",
      "type": "function"
    },
    {
      "inputs": [
        {
          "internalType": "address",
          "name": "asset",
          "type": "address"
        },
        {
          "internalType": "address",
          "name": "reward",
          "type": "address"
        }
      ],
      "name": "getRewardsData",
      "outputs": [
        {
          "internalType": "uint256",
          "name": "",
          "type": "uint256"
        },
        {
          "internalType": "uint256",
          "name": "",
          "type": "uint256"
        },
        {
          "internalType": "uint256",
          "name": "",
          "type": "uint256"
        },
        {
          "internalType": "uint256",
          "name": "",
          "type": "uint256"
        }
      ],
      "stateMutability": "view",
      "type": "function"
    },
    {
      "inputs": [],
      "name": "getRewardsList",
      "outputs": [
        {
          "internalType": "address[]",
          "name": "",
          "type": "address[]"
        }
      ],
      "stateMutability": "view",
      "type": "function"
    },
    {
      "inputs": [],
      "name": "getRewardsVault",
      "outputs": [
        {
          "internalType": "address",
          "name": "",
          "type": "address"
        }
      ],
      "stateMutability": "view",
      "type": "function"
    },
    {
      "inputs": [
        {
          "internalType": "address",
          "name": "user",
          "type": "address"
        },
        {
          "internalType": "address",
          "name": "reward",
          "type": "address"
        }
      ],
      "name": "getUserAccruedRewards",
      "outputs": [
        {
          "internalType": "uint256",
          "name": "",
          "type": "uint256"
        }
      ],
      "stateMutability": "view",
      "type": "function"
    },
    {
      "inputs": [
        {
          "internalType": "address",
          "name": "user",
          "type": "address"
        },
        {
          "internalType": "address",
          "name": "asset",
          "type": "address"
        },
        {
          "internalType": "address",
          "name": "reward",
          "type": "address"
        }
      ],
      "name": "getUserAssetIndex",
      "outputs": [
        {
          "internalType": "uint256",
          "name": "",
          "type": "uint256"
        }
      ],
      "stateMutability": "view",
      "type": "function"
    },
    {
      "inputs": [
        {
          "internalType": "address[]",
          "name": "assets",
          "type": "address[]"
        },
        {
          "internalType": "address",
          "name": "user",
          "type": "address"
        },
        {
          "internalType": "address",
          "name": "reward",
          "type": "address"
        }
      ],
      "name": "getUserRewards",
      "outputs": [
        {
          "internalType": "uint256",
          "name": "",
          "type": "uint256"
        }
      ],
      "stateMutability": "view",
      "type": "function"
    },
    {
      "inputs": [
        {
          "internalType": "address",
          "name": "asset",
          "type": "address"
        },
        {
          "internalType": "address",
          "name": "user",
          "type": "address"
        },
        {
          "internalType": "uint256",
          "name": "userStake",
          "type": "uint256"
        },
        {
          "internalType": "uint256",
          "name": "totalStaked",
          "type": "uint256"
        }
      ],
      "name": "handleAction",
      "outputs": [],
      "stateMutability": "nonpayable",
      "type": "function"
    },
    {
      "inputs": [
        {
          "internalType": "address",
          "name": "asset",
          "type": "address"
        },
        {
          "internalType": "address",
          "name": "reward",
          "type": "address"
        }
      ],
      "name": "isOngoingDistribution",
      "outputs": [
        {
          "internalType": "bool",
          "name": "",
          "type": "bool"
        }
      ],
      "stateMutability": "view",
      "type": "function"
    },
    {
      "inputs": [
        {
          "internalType": "address",
          "name": "user",
          "type": "address"
        },
        {
          "internalType": "address",
          "name": "caller",
          "type": "address"
        }
      ],
      "name": "setClaimer",
      "outputs": [],
      "stateMutability": "nonpayable",
      "type": "function"
    },
    {
      "inputs": [
        {
          "internalType": "address",
          "name": "asset",
          "type": "address"
        },
        {
          "internalType": "address",
          "name": "reward",
          "type": "address"
        },
        {
          "internalType": "uint32",
          "name": "newDistributionEnd",
          "type": "uint32"
        }
      ],
      "name": "setDistributionEnd",
      "outputs": [],
      "stateMutability": "nonpayable",
      "type": "function"
    },
    {
      "inputs": [
        {
          "internalType": "address",
          "name": "emissionManager",
          "type": "address"
        }
      ],
      "name": "setEmissionManager",
      "outputs": [],
      "stateMutability": "nonpayable",
      "type": "function"
    },
    {
      "inputs": [
        {
          "internalType": "address",
          "name": "asset",
          "type": "address"
        },
        {
          "internalType": "address[]",
          "name": "rewards",
          "type": "address[]"
        },
        {
          "internalType": "uint88[]",
          "name": "newEmissionsPerSecond",
          "type": "uint88[]"
        }
      ],
      "name": "setEmissionPerSecond",
      "outputs": [],
      "stateMutability": "nonpayable",
      "type": "function"
    },
    {
      "inputs": [
        {
          "internalType": "address",
          "name": "reward",
          "type": "address"
        },
        {
          "internalType": "contract IEACAggregatorProxy",
          "name": "rewardOracle",
          "type": "address"
        }
      ],
      "name": "setRewardOracle",
      "outputs": [],
      "stateMutability": "nonpayable",
      "type": "function"
    },
    {
      "inputs": [
        {
          "internalType": "contract ISolidStakingViewActions",
          "name": "_solidStakingViewActions",
          "type": "address"
        },
        {
          "internalType": "address",
          "name": "rewardsVault",
          "type": "address"
        },
        {
          "internalType": "address",
          "name": "emissionManager",
          "type": "address"
        }
      ],
      "name": "setup",
      "outputs": [],
      "stateMutability": "nonpayable",
      "type": "function"
    },
    {
      "inputs": [],
      "name": "solidStakingViewActions",
      "outputs": [
        {
          "internalType": "contract ISolidStakingViewActions",
          "name": "",
          "type": "address"
        }
      ],
      "stateMutability": "view",
      "type": "function"
    },
    {
      "inputs": [
        {
          "internalType": "address[]",
          "name": "assets",
          "type": "address[]"
        },
        {
          "internalType": "address[]",
          "name": "rewards",
          "type": "address[]"
        },
        {
          "internalType": "uint256[]",
          "name": "rewardAmounts",
          "type": "uint256[]"
        }
      ],
      "name": "updateRewardDistribution",
      "outputs": [],
      "stateMutability": "nonpayable",
      "type": "function"
    }
  ],
  "transactionHash": "0x6360413fe34091ec0739d714377f873f8a1e36aa0ab57c98a010d7a81ba3a2f9",
  "args": [],
  "numDeployments": 1,
  "solcInputHash": "a8509a4c1d041601677a419b8a7fbc82",
  "bytecode": "0x608060405234801561001057600080fd5b50613aed806100206000396000f3fe608060405234801561001057600080fd5b50600436106101b95760003560e01c80637eff4ba8116100f9578063bb492bf511610097578063c5a7b53811610071578063c5a7b5381461050f578063e23ddec514610522578063f5cf673b14610533578063f996868b1461054657600080fd5b8063bb492bf5146104c6578063bf90f63a146104d9578063c1414951146104ec57600080fd5b80639ff55db9116100d35780639ff55db914610485578063ae0b537114610498578063b022418c146104ab578063b45ac1a9146104be57600080fd5b80637eff4ba81461037357806392074b081461041f5780639efd6f721461043057600080fd5b80635453ba1011610166578063707199e511610140578063707199e51461030e57806374d945ec1461032157806377b8b1c71461034d5780637859a4651461036057600080fd5b80635453ba10146102c85780636657732f146102db57806370674ab9146102fb57600080fd5b80634c0369c3116101975780634c0369c31461023b5780634f7459d51461025c578063533f542a1461027157600080fd5b80631b839c77146101be5780632a17bf60146101e45780634a6a60f114610228575b600080fd5b6101d16101cc3660046131fa565b610559565b6040519081526020015b60405180910390f35b6102106101f2366004613233565b6001600160a01b039081166000908152600760205260409020541690565b6040516001600160a01b0390911681526020016101db565b600554610210906001600160a01b031681565b61024e610249366004613295565b610593565b6040516101db929190613330565b61026f61026a366004613233565b61085d565b005b6101d161027f366004613387565b6001600160a01b03808316600090815260016020818152604080842086861685528252808420948816845293909101905220546cffffffffffffffffffffffffff169392505050565b61026f6102d63660046131fa565b61089b565b6102ee6102e9366004613233565b6108d6565b6040516101db91906133c7565b6101d16103093660046133da565b6109dd565b61026f61031c36600461351d565b6109fd565b61021061032f366004613233565b6001600160a01b039081166000908152600660205260409020541690565b61026f61035b366004613387565b610b59565b61026f61036e366004613638565b610c34565b6103ff6103813660046131fa565b6001600160a01b0391821660009081526001602090815260408083209390941682529190915220546cffffffffffffffffffffffffff8116916affffffffffffffffffffff600160681b8304169163ffffffff78010000000000000000000000000000000000000000000000008204811692600160e01b9092041690565b6040805194855260208501939093529183015260608201526080016101db565b6000546001600160a01b0316610210565b61047361043e366004613233565b6001600160a01b0316600090815260016020526040902060020154700100000000000000000000000000000000900460ff1690565b60405160ff90911681526020016101db565b61024e6104933660046133da565b61100e565b61026f6104a63660046136d2565b6110ed565b6101d16104b93660046131fa565b611145565b6102ee6111de565b61024e6104d4366004613295565b611240565b61024e6104e7366004613718565b61129c565b6104ff6104fa3660046131fa565b6112b8565b60405190151581526020016101db565b61026f61051d36600461375a565b6112f8565b6008546001600160a01b0316610210565b61026f6105413660046131fa565b61140c565b61026f6105543660046137a1565b61149d565b6001600160a01b03828116600090815260016020908152604080832093851683529290522054600160e01b900463ffffffff165b92915050565b60608060006105a386868661164a565b60035490915067ffffffffffffffff8111156105c1576105c1613442565b6040519080825280602002602001820160405280156105ea578160200160208202803683370190505b509250825167ffffffffffffffff81111561060757610607613442565b604051908082528060200260200182016040528015610630578160200160208202803683370190505b50915060005b81518110156108525760005b845181101561083f576003818154811061065e5761065e613824565b9060005260206000200160009054906101000a90046001600160a01b031685828151811061068e5761068e613824565b60200260200101906001600160a01b031690816001600160a01b031681525050600160008484815181106106c4576106c4613824565b6020026020010151600001516001600160a01b03166001600160a01b03168152602001908152602001600020600001600086838151811061070757610707613824565b60200260200101516001600160a01b03166001600160a01b031681526020019081526020016000206001016000876001600160a01b03166001600160a01b03168152602001908152602001600020600001600d9054906101000a90046001600160801b03166001600160801b031684828151811061078757610787613824565b6020026020010181815161079b9190613882565b90525082518390839081106107b2576107b2613824565b6020026020010151602001516000031561082d57610803868683815181106107dc576107dc613824565b60200260200101518585815181106107f6576107f6613824565b60200260200101516118e5565b84828151811061081557610815613824565b602002602001018181516108299190613882565b9052505b8061083781613895565b915050610642565b508061084a81613895565b915050610636565b50505b935093915050565b6000546001600160a01b0316331461088f576040516359afb33960e01b81523360048201526024015b60405180910390fd5b610898816119a4565b50565b6000546001600160a01b031633146108c8576040516359afb33960e01b8152336004820152602401610886565b6108d28282611a01565b5050565b6001600160a01b0381166000908152600160205260408120600201546060916001600160801b03909116908167ffffffffffffffff81111561091a5761091a613442565b604051908082528060200260200182016040528015610943578160200160208202803683370190505b50905060005b826001600160801b0316816001600160801b031610156109d5576001600160a01b0380861660009081526001602081815260408084206001600160801b038716808652930190915290912054845192169184919081106109ab576109ab613824565b6001600160a01b0390921660209283029190910190910152806109cd816138af565b915050610949565b509392505050565b60006109f483836109ef88888861164a565b611b13565b95945050505050565b6000546001600160a01b03163314610a2a576040516359afb33960e01b8152336004820152602401610886565b60005b8151811015610b4f5760055482516001600160a01b0390911690639bfd8d6190849084908110610a5f57610a5f613824565b6020026020010151606001516040518263ffffffff1660e01b8152600401610a9691906001600160a01b0391909116815260200190565b602060405180830381865afa158015610ab3573d6000803e3d6000fd5b505050506040513d601f19601f82011682018060405250810190610ad791906138d5565b828281518110610ae957610ae9613824565b60200260200101516020018181525050610b3d828281518110610b0e57610b0e613824565b602002602001015160800151838381518110610b2c57610b2c613824565b602002602001015160a00151611a01565b80610b4781613895565b915050610a2d565b5061089881611c71565b60055474010000000000000000000000000000000000000000900460ff1615610bae576040517f0dc149f000000000000000000000000000000000000000000000000000000000815260040160405180910390fd5b600580546001600160a01b038086167fffffffffffffffffffffff0000000000000000000000000000000000000000009092169190911774010000000000000000000000000000000000000000179091556008805491841673ffffffffffffffffffffffffffffffffffffffff1992909216919091179055610c2f816119a4565b505050565b6000546001600160a01b03163314610c61576040516359afb33960e01b8152336004820152602401610886565b8483141580610c705750828114155b15610ca7576040517fb4fa3fb300000000000000000000000000000000000000000000000000000000815260040160405180910390fd5b6000610cb64262093a80613882565b905060005b8681101561100457610d4f888883818110610cd857610cd8613824565b9050602002016020810190610ced9190613233565b878784818110610cff57610cff613824565b9050602002016020810190610d149190613233565b6001600160a01b03918216600090815260016020908152604080832093909416825291909152205442600160e01b90910463ffffffff161190565b15610de757878782818110610d6657610d66613824565b9050602002016020810190610d7b9190613233565b868683818110610d8d57610d8d613824565b9050602002016020810190610da29190613233565b6040517f94982f340000000000000000000000000000000000000000000000000000000081526001600160a01b03928316600482015291166024820152604401610886565b600062093a80858584818110610dff57610dff613824565b90506020020135610e1091906138ee565b9050600080610e6c8b8b86818110610e2a57610e2a613824565b9050602002016020810190610e3f9190613233565b8a8a87818110610e5157610e51613824565b9050602002016020810190610e669190613233565b856123e3565b50915091506000610f278c8c87818110610e8857610e88613824565b9050602002016020810190610e9d9190613233565b8b8b88818110610eaf57610eaf613824565b9050602002016020810190610ec49190613233565b6001600160a01b0391821660009081526001602090815260408083209390941682529190915220805463ffffffff898116600160e01b9081027bffffffffffffffffffffffffffffffffffffffffffffffffffffffff8416179093559190041690565b9050898986818110610f3b57610f3b613824565b9050602002016020810190610f509190613233565b6001600160a01b03168c8c87818110610f6b57610f6b613824565b9050602002016020810190610f809190613233565b604080518681526affffffffffffffffffffff8816602082015290810184905263ffffffff89166060820152608081018590526001600160a01b0391909116907fac1777479f07f3e7c34da8402139d54027a6a260caaae168bdee825ca5580dc59060a00160405180910390a3505050508080610ffc90613895565b915050610cbb565b5050505050505050565b6001600160a01b0380831660009081526006602052604090205460609182913391869116821461107d576040517f3ebd5fe50000000000000000000000000000000000000000000000000000000081526001600160a01b03808416600483015282166024820152604401610886565b6001600160a01b038516158061109a57506001600160a01b038616155b156110d1576040517fb4fa3fb300000000000000000000000000000000000000000000000000000000815260040160405180910390fd5b6110de88883389896125a5565b93509350505094509492505050565b6005546001600160a01b03163314611133576040517f4c4365b7000000000000000000000000000000000000000000000000000000008152336004820152602401610886565b61113f8484848461299c565b50505050565b60008060005b6004548110156109d557600160006004838154811061116c5761116c613824565b6000918252602080832091909101546001600160a01b039081168452838201949094526040928301822088851683528152828220938916825260019093019092529020546111ca90600160681b90046001600160801b031683613882565b9150806111d681613895565b91505061114b565b6060600380548060200260200160405190810160405280929190818152602001828054801561123657602002820191906000526020600020905b81546001600160a01b03168152600190910190602001808311611218575b5050505050905090565b6060806001600160a01b038316611283576040517fb4fa3fb300000000000000000000000000000000000000000000000000000000815260040160405180910390fd5b61129085853333876125a5565b91509150935093915050565b6060806112ac84843333336125a5565b915091505b9250929050565b6001600160a01b03828116600090815260016020908152604080832093851683529290529081205442600160e01b90910463ffffffff16115b9392505050565b6000546001600160a01b03163314611325576040516359afb33960e01b8152336004820152602401610886565b6001600160a01b0383811660008181526001602090815260408083209487168084529482529182902080547bffffffffffffffffffffffffffffffffffffffffffffffffffffffff8116600160e01b63ffffffff8981168281029384179586905587516affffffffffffffffffffff600160681b90970496909616808752968601969096529083041683860181905260608401949094526cffffffffffffffffffffffffff90811691161760808201529151909392917fac1777479f07f3e7c34da8402139d54027a6a260caaae168bdee825ca5580dc5919081900360a00190a350505050565b6000546001600160a01b03163314611439576040516359afb33960e01b8152336004820152602401610886565b6001600160a01b03828116600081815260066020526040808220805473ffffffffffffffffffffffffffffffffffffffff19169486169485179055517f4925eafc82d0c4d67889898eeed64b18488ab19811e61620f387026dec126a289190a35050565b6000546001600160a01b031633146114ca576040516359afb33960e01b8152336004820152602401610886565b828114611503576040517fb4fa3fb300000000000000000000000000000000000000000000000000000000815260040160405180910390fd5b60005b8381101561164257600080600061156a8989898781811061152957611529613824565b905060200201602081019061153e9190613233565b88888881811061155057611550613824565b90506020020160208101906115659190613929565b6123e3565b92509250925087878581811061158257611582613824565b90506020020160208101906115979190613233565b6001600160a01b0316896001600160a01b03167fac1777479f07f3e7c34da8402139d54027a6a260caaae168bdee825ca5580dc5858989898181106115de576115de613824565b90506020020160208101906115f39190613929565b604080519283526affffffffffffffffffffff90911660208301528101859052606081018590526080810186905260a00160405180910390a3505050808061163a90613895565b915050611506565b505050505050565b60608267ffffffffffffffff81111561166557611665613442565b6040519080825280602002602001820160405280156116c357816020015b6116b0604051806060016040528060006001600160a01b0316815260200160008152602001600081525090565b8152602001906001900390816116835790505b50905060005b838110156109d5578484828181106116e3576116e3613824565b90506020020160208101906116f89190613233565b82828151811061170a5761170a613824565b60209081029190910101516001600160a01b0391821690526005541663f7888aec86868481811061173d5761173d613824565b90506020020160208101906117529190613233565b6040517fffffffff0000000000000000000000000000000000000000000000000000000060e084901b1681526001600160a01b0391821660048201529086166024820152604401602060405180830381865afa1580156117b6573d6000803e3d6000fd5b505050506040513d601f19601f820116820180604052508101906117da91906138d5565b8282815181106117ec576117ec613824565b60209081029190910181015101526005546001600160a01b0316639bfd8d6186868481811061181d5761181d613824565b90506020020160208101906118329190613233565b6040517fffffffff0000000000000000000000000000000000000000000000000000000060e084901b1681526001600160a01b039091166004820152602401602060405180830381865afa15801561188e573d6000803e3d6000fd5b505050506040513d601f19601f820116820180604052508101906118b291906138d5565b8282815181106118c4576118c4613824565b602090810291909101015160400152806118dd81613895565b9150506116c9565b80516001600160a01b0390811660009081526001602081815260408084208786168552825280842086519095168452919052812060020154909190829061194490700100000000000000000000000000000000900460ff16600a613a28565b9050600061195783866040015184612af7565b6020808801516001600160a01b038b1660009081526001880190925260409091205491935061199992509083906cffffffffffffffffffffffffff1685612be0565b979650505050505050565b600080546001600160a01b0383811673ffffffffffffffffffffffffffffffffffffffff19831681178455604051919092169283917f53271355c244f99d37f622c90fe574eb7c35c7b3548ea276cf9b5b11c601605e9190a35050565b6000816001600160a01b03166350d25bcd6040518163ffffffff1660e01b8152600401602060405180830381865afa158015611a41573d6000803e3d6000fd5b505050506040513d601f19601f82011682018060405250810190611a6591906138d5565b13611aaf576040517f4f79ac5c0000000000000000000000000000000000000000000000000000000081526001600160a01b03808416600483015282166024820152604401610886565b6001600160a01b03828116600081815260076020526040808220805473ffffffffffffffffffffffffffffffffffffffff19169486169485179055517f1a1cd5483e52e60b9ff7f3b9d1db3bbd9e9d21c6324ad3a8c79dba9b75e62f4d9190a35050565b6000805b82518110156109d557828181518110611b3257611b32613824565b602002602001015160200151600003611bc05760016000848381518110611b5b57611b5b613824565b602090810291909101810151516001600160a01b039081168352828201939093526040918201600090812088851682528252828120938916815260019093019052902054611bb990600160681b90046001600160801b031683613882565b9150611c5f565b60016000848381518110611bd657611bd6613824565b602090810291909101810151516001600160a01b0390811683528282019390935260409182016000908120888516825282528281209389168152600190930190529020548351600160681b9091046001600160801b031690611c4890879087908790869081106107f6576107f6613824565b611c529190613882565b611c5c9083613882565b91505b80611c6981613895565b915050611b17565b60005b81518110156108d2576000828281518110611c9157611c91613824565b6020026020010151606001516001600160a01b031663313ce5676040518163ffffffff1660e01b8152600401602060405180830381865afa158015611cda573d6000803e3d6000fd5b505050506040513d601f19601f82011682018060405250810190611cfe9190613a37565b90508060ff16600003611d6b57828281518110611d1d57611d1d613824565b6020026020010151606001516040517f8f0b741500000000000000000000000000000000000000000000000000000000815260040161088691906001600160a01b0391909116815260200190565b60016000848481518110611d8157611d81613824565b6020026020010151606001516001600160a01b03166001600160a01b0316815260200190815260200160002060020160109054906101000a900460ff1660ff16600003611e29576004838381518110611ddc57611ddc613824565b60209081029190910181015160600151825460018101845560009384529190922001805473ffffffffffffffffffffffffffffffffffffffff19166001600160a01b039092169190911790555b8060016000858581518110611e4057611e40613824565b6020026020010151606001516001600160a01b03166001600160a01b0316815260200190815260200160002060020160106101000a81548160ff021916908360ff160217905550600060016000858581518110611e9f57611e9f613824565b6020026020010151606001516001600160a01b03166001600160a01b031681526020019081526020016000206000016000858581518110611ee257611ee2613824565b6020026020010151608001516001600160a01b03166001600160a01b0316815260200190815260200160002090508060000160189054906101000a900463ffffffff1663ffffffff166000036120b157838381518110611f4457611f44613824565b60200260200101516080015160016000868681518110611f6657611f66613824565b6020026020010151606001516001600160a01b03166001600160a01b03168152602001908152602001600020600101600060016000888881518110611fad57611fad613824565b6020026020010151606001516001600160a01b03166001600160a01b0316815260200190815260200160002060020160009054906101000a90046001600160801b03166001600160801b03166001600160801b0316815260200190815260200160002060006101000a8154816001600160a01b0302191690836001600160a01b031602179055506001600085858151811061204a5761204a613824565b602090810291909101810151606001516001600160a01b03168252810191909152604001600090812060020180546001600160801b03169161208b836138af565b91906101000a8154816001600160801b0302191690836001600160801b03160217905550505b600260008585815181106120c7576120c7613824565b602090810291909101810151608001516001600160a01b0316825281019190915260400160009081205460ff16151590036121b85760016002600086868151811061211457612114613824565b6020026020010151608001516001600160a01b03166001600160a01b0316815260200190815260200160002060006101000a81548160ff021916908315150217905550600384848151811061216b5761216b613824565b60209081029190910181015160800151825460018101845560009384529190922001805473ffffffffffffffffffffffffffffffffffffffff19166001600160a01b039092169190911790555b60006121ee828686815181106121d0576121d0613824565b60200260200101516020015185600a6121e99190613a28565b612c04565b5082548651919250600160681b81046affffffffffffffffffffff1691600160e01b90910463ffffffff169087908790811061222c5761222c613824565b60209081029190910101515184546affffffffffffffffffffff909116600160681b027fffffffffffffffff0000000000000000000000ffffffffffffffffffffffffff909116178455865187908790811061228a5761228a613824565b602090810291909101015160400151845463ffffffff909116600160e01b027bffffffffffffffffffffffffffffffffffffffffffffffffffffffff90911617845586518790879081106122e0576122e0613824565b6020026020010151608001516001600160a01b031687878151811061230757612307613824565b6020026020010151606001516001600160a01b03167fac1777479f07f3e7c34da8402139d54027a6a260caaae168bdee825ca5580dc5848a8a8151811061235057612350613824565b602002602001015160000151858c8c8151811061236f5761236f613824565b602002602001015160400151896040516123c39594939291906affffffffffffffffffffff958616815293909416602084015263ffffffff9182166040840152166060820152608081019190915260a00190565b60405180910390a3505050505080806123db90613895565b915050611c74565b6001600160a01b0383811660009081526001602090815260408083209386168352908390528120600283015491928392839290700100000000000000000000000000000000900460ff1680158061245b575081547801000000000000000000000000000000000000000000000000900463ffffffff16155b156124a5576040517fc8bed79e0000000000000000000000000000000000000000000000000000000081526001600160a01b03808b16600483015289166024820152604401610886565b81546005546040517f9bfd8d610000000000000000000000000000000000000000000000000000000081526001600160a01b038c81166004830152600160e01b90930463ffffffff16965061254d9285921690639bfd8d6190602401602060405180830381865afa15801561251e573d6000803e3d6000fd5b505050506040513d601f19601f8201168201806040525081019061254291906138d5565b6121e984600a613a5a565b5082546affffffffffffffffffffff988916600160681b9081027fffffffffffffffff0000000000000000000000ffffffffffffffffffffffffff831617909455929092049690961698909750919550909350505050565b60035460609081908067ffffffffffffffff8111156125c6576125c6613442565b6040519080825280602002602001820160405280156125ef578160200160208202803683370190505b5092508067ffffffffffffffff81111561260b5761260b613442565b604051908082528060200260200182016040528015612634578160200160208202803683370190505b50915061264b856126468a8a8961164a565b612d65565b60005b8781101561289857600089898381811061266a5761266a613824565b905060200201602081019061267f9190613233565b905060005b838110156128835760006001600160a01b03168682815181106126a9576126a9613824565b60200260200101516001600160a01b03160361272357600381815481106126d2576126d2613824565b9060005260206000200160009054906101000a90046001600160a01b031686828151811061270257612702613824565b60200260200101906001600160a01b031690816001600160a01b0316815250505b6001600160a01b03821660009081526001602052604081208751829089908590811061275157612751613824565b6020908102919091018101516001600160a01b0390811683528282019390935260409182016000908120938d16815260019093019052902054600160681b90046001600160801b03169050801561287057808683815181106127b5576127b5613824565b602002602001018181516127c99190613882565b9052506001600160a01b0383166000908152600160205260408120885182908a90869081106127fa576127fa613824565b60200260200101516001600160a01b03166001600160a01b0316815260200190815260200160002060010160008b6001600160a01b03166001600160a01b03168152602001908152602001600020600001600d6101000a8154816001600160801b0302191690836001600160801b031602179055505b508061287b81613895565b915050612684565b5050808061289090613895565b91505061264e565b5060005b81811015612990576128e1858583815181106128ba576128ba613824565b60200260200101518584815181106128d4576128d4613824565b6020026020010151612de6565b846001600160a01b03168482815181106128fd576128fd613824565b60200260200101516001600160a01b0316876001600160a01b03167fc052130bc4ef84580db505783484b067ea8b71b3bca78a7e12db7aea8658f0048a87868151811061294c5761294c613824565b60200260200101516040516129769291906001600160a01b03929092168252602082015260400190565b60405180910390a48061298881613895565b91505061289c565b50509550959350505050565b6001600160a01b03841660009081526001602052604081206002015460ff700100000000000000000000000000000000820416600a0a916001600160801b03909116908190036129ed57505061113f565b60005b81816001600160801b03161015612aee576001600160a01b0380881660009081526001602081815260408084206001600160801b03871685529283018252808420549094168084529190529181209080612a4b838989612c04565b91509150600080612a5f858d8d878d612dff565b915091508280612a6c5750805b15612adc578b6001600160a01b0316866001600160a01b03168e6001600160a01b03167f3303facd24627943a92e9dc87cfbb34b15c49b726eec3ad3487c16be9ab8efe8878887604051612ad3939291909283526020830191909152604082015260600190565b60405180910390a45b5050600190940193506129f092505050565b50505050505050565b825460009081906cffffffffffffffffffffffffff81169063ffffffff600160e01b82048116916affffffffffffffffffffff600160681b82041691780100000000000000000000000000000000000000000000000090910416811580612b5c575087155b80612b6657504281145b80612b715750828110155b15612b855783849550955050505050610855565b6000834211612b945742612b96565b835b90506000612ba48383613a66565b9050600089612bb38387613a79565b612bbd9190613a79565b8b9004905086612bcd8183613882565b9850985050505050505050935093915050565b600080612bed8486613a66565b612bf79087613a79565b9290920495945050505050565b600080600080612c15878787612af7565b915091506000828214612d01576cffffffffffffffffffffffffff821115612c6c576040517fc6c7412000000000000000000000000000000000000000000000000000000000815260048101839052602401610886565b5086547fffffffffffffffffffffffffffffffffffffff00000000000000000000000000166cffffffffffffffffffffffffff82161787556001612caf42612f12565b885463ffffffff919091167801000000000000000000000000000000000000000000000000027fffffffff00000000ffffffffffffffffffffffffffffffffffffffffffffffff909116178855612d58565b612d0a42612f12565b885463ffffffff919091167801000000000000000000000000000000000000000000000000027fffffffff00000000ffffffffffffffffffffffffffffffffffffffffffffffff9091161788555b9097909650945050505050565b60005b8151811015610c2f57612dd4828281518110612d8657612d86613824565b60200260200101516000015184848481518110612da557612da5613824565b602002602001015160200151858581518110612dc357612dc3613824565b60200260200101516040015161299c565b80612dde81613895565b915050612d68565b600854610c2f9083906001600160a01b03168584612fac565b6001600160a01b038416600090815260018601602052604081205481906cffffffffffffffffffffffffff1681858214801590612f03576001600160a01b038916600090815260018b016020526040902080547fffffffffffffffffffffffffffffffffffffff00000000000000000000000000166cffffffffffffffffffffffffff89161790558715612f0357612e9988888589612be0565b9150612ea482613081565b6001600160a01b038a16600090815260018c01602052604090208054600d90612ede908490600160681b90046001600160801b0316613a90565b92506101000a8154816001600160801b0302191690836001600160801b031602179055505b90999098509650505050505050565b600063ffffffff821115612fa8576040517f08c379a000000000000000000000000000000000000000000000000000000000815260206004820152602660248201527f53616665436173743a2076616c756520646f65736e27742066697420696e203360448201527f32206269747300000000000000000000000000000000000000000000000000006064820152608401610886565b5090565b6040517f23b872dd000000000000000000000000000000000000000000000000000000008082526001600160a01b038581166004840152841660248301526044820183905290600080606483828a5af161300a573d6000803e3d6000fd5b506130148561311a565b61307a576040517f08c379a000000000000000000000000000000000000000000000000000000000815260206004820152601960248201527f475076323a206661696c6564207472616e7366657246726f6d000000000000006044820152606401610886565b5050505050565b60006001600160801b03821115612fa8576040517f08c379a000000000000000000000000000000000000000000000000000000000815260206004820152602760248201527f53616665436173743a2076616c756520646f65736e27742066697420696e203160448201527f32382062697473000000000000000000000000000000000000000000000000006064820152608401610886565b6000613159565b7f08c379a000000000000000000000000000000000000000000000000000000000600052602060045280602452508060445260646000fd5b3d801561319857602081146131d2576131937f475076323a206d616c666f726d6564207472616e7366657220726573756c7400601f613121565b6131df565b823b6131c9576131c97f475076323a206e6f74206120636f6e74726163740000000000000000000000006014613121565b600191506131df565b3d6000803e600051151591505b50919050565b6001600160a01b038116811461089857600080fd5b6000806040838503121561320d57600080fd5b8235613218816131e5565b91506020830135613228816131e5565b809150509250929050565b60006020828403121561324557600080fd5b81356112f1816131e5565b60008083601f84011261326257600080fd5b50813567ffffffffffffffff81111561327a57600080fd5b6020830191508360208260051b85010111156112b157600080fd5b6000806000604084860312156132aa57600080fd5b833567ffffffffffffffff8111156132c157600080fd5b6132cd86828701613250565b90945092505060208401356132e1816131e5565b809150509250925092565b600081518084526020808501945080840160005b838110156133255781516001600160a01b031687529582019590820190600101613300565b509495945050505050565b60408152600061334360408301856132ec565b82810360208481019190915284518083528582019282019060005b8181101561337a5784518352938301939183019160010161335e565b5090979650505050505050565b60008060006060848603121561339c57600080fd5b83356133a7816131e5565b925060208401356133b7816131e5565b915060408401356132e1816131e5565b6020815260006112f160208301846132ec565b600080600080606085870312156133f057600080fd5b843567ffffffffffffffff81111561340757600080fd5b61341387828801613250565b9095509350506020850135613427816131e5565b91506040850135613437816131e5565b939692955090935050565b7f4e487b7100000000000000000000000000000000000000000000000000000000600052604160045260246000fd5b60405160c0810167ffffffffffffffff8111828210171561349457613494613442565b60405290565b604051601f82017fffffffffffffffffffffffffffffffffffffffffffffffffffffffffffffffe016810167ffffffffffffffff811182821017156134e1576134e1613442565b604052919050565b80356affffffffffffffffffffff8116811461350457600080fd5b919050565b803563ffffffff8116811461350457600080fd5b6000602080838503121561353057600080fd5b823567ffffffffffffffff8082111561354857600080fd5b818501915085601f83011261355c57600080fd5b81358181111561356e5761356e613442565b61357c848260051b0161349a565b818152848101925060c091820284018501918883111561359b57600080fd5b938501935b8285101561362c5780858a0312156135b85760008081fd5b6135c0613471565b6135c9866134e9565b8152868601358782015260406135e0818801613509565b908201526060868101356135f3816131e5565b90820152608086810135613606816131e5565b9082015260a086810135613619816131e5565b90820152845293840193928501926135a0565b50979650505050505050565b6000806000806000806060878903121561365157600080fd5b863567ffffffffffffffff8082111561366957600080fd5b6136758a838b01613250565b9098509650602089013591508082111561368e57600080fd5b61369a8a838b01613250565b909650945060408901359150808211156136b357600080fd5b506136c089828a01613250565b979a9699509497509295939492505050565b600080600080608085870312156136e857600080fd5b84356136f3816131e5565b93506020850135613703816131e5565b93969395505050506040820135916060013590565b6000806020838503121561372b57600080fd5b823567ffffffffffffffff81111561374257600080fd5b61374e85828601613250565b90969095509350505050565b60008060006060848603121561376f57600080fd5b833561377a816131e5565b9250602084013561378a816131e5565b915061379860408501613509565b90509250925092565b6000806000806000606086880312156137b957600080fd5b85356137c4816131e5565b9450602086013567ffffffffffffffff808211156137e157600080fd5b6137ed89838a01613250565b9096509450604088013591508082111561380657600080fd5b5061381388828901613250565b969995985093965092949392505050565b7f4e487b7100000000000000000000000000000000000000000000000000000000600052603260045260246000fd5b7f4e487b7100000000000000000000000000000000000000000000000000000000600052601160045260246000fd5b8082018082111561058d5761058d613853565b600060001982036138a8576138a8613853565b5060010190565b60006001600160801b038083168181036138cb576138cb613853565b6001019392505050565b6000602082840312156138e757600080fd5b5051919050565b600082613924577f4e487b7100000000000000000000000000000000000000000000000000000000600052601260045260246000fd5b500490565b60006020828403121561393b57600080fd5b6112f1826134e9565b600181815b8085111561397f57816000190482111561396557613965613853565b8085161561397257918102915b93841c9390800290613949565b509250929050565b6000826139965750600161058d565b816139a35750600061058d565b81600181146139b957600281146139c3576139df565b600191505061058d565b60ff8411156139d4576139d4613853565b50506001821b61058d565b5060208310610133831016604e8410600b8410161715613a02575081810a61058d565b613a0c8383613944565b8060001904821115613a2057613a20613853565b029392505050565b60006112f160ff841683613987565b600060208284031215613a4957600080fd5b815160ff811681146112f157600080fd5b60006112f18383613987565b8181038181111561058d5761058d613853565b808202811582820484141761058d5761058d613853565b6001600160801b03818116838216019080821115613ab057613ab0613853565b509291505056fea2646970667358221220989f12381713530d8cdf009e1b15e520179ae5f4a4a518e7a3fae385ac28fa1264736f6c63430008110033",
  "devdoc": {
    "errors": {
      "UpdateOngoingRewardDistribution(address,address)": [
        {
          "params": {
            "asset": "The address of the incentivized asset",
            "reward": "The address of the reward token"
          }
        }
      ]
    },
    "kind": "dev",
    "methods": {
      "claimAllRewards(address[],address)": {
        "details": "Claims all rewards for a user to the desired address, on all the assets of the pool, accumulating the pending rewards",
        "params": {
          "assets": "The list of assets to check eligible distributions before claiming rewards",
          "to": "The address that will be receiving the rewards"
        },
        "returns": {
          "claimedAmounts": "List that contains the claimed amount per reward, following same order as \"rewardList\"",
          "rewardsList": "List of addresses of the reward tokens"
        }
      },
      "claimAllRewardsOnBehalf(address[],address,address)": {
        "details": "Claims all rewards for a user on behalf, on all the assets of the pool, accumulating the pending rewards. The caller must be whitelisted via \"allowClaimOnBehalf\" function by the RewardsAdmin role manager",
        "params": {
          "assets": "The list of assets to check eligible distributions before claiming rewards",
          "to": "The address that will be receiving the rewards",
          "user": "The address to check and claim rewards"
        },
        "returns": {
          "claimedAmounts": "List that contains the claimed amount per reward, following same order as \"rewardsList\"",
          "rewardsList": "List of addresses of the reward tokens"
        }
      },
      "claimAllRewardsToSelf(address[])": {
        "details": "Claims all reward for msg.sender, on all the assets of the pool, accumulating the pending rewards",
        "params": {
          "assets": "The list of assets to check eligible distributions before claiming rewards"
        },
        "returns": {
          "claimedAmounts": "List that contains the claimed amount per reward, following same order as \"rewardsList\"",
          "rewardsList": "List of addresses of the reward tokens"
        }
      },
      "configureAssets((uint88,uint256,uint32,address,address,address)[])": {
        "details": "Configure assets to incentivize with an emission of rewards per second until the end of distribution.",
        "params": {
          "config": "The assets configuration input, the list of structs contains the following fields:   uint104 emissionPerSecond: The emission per second following rewards unit decimals.   uint256 totalStaked: The total amount staked of the asset   uint40 distributionEnd: The end of the distribution of the incentives for an asset   address asset: The asset address to incentivize   address reward: The reward token address   IEACAggregatorProxy rewardOracle: The Price Oracle of a reward to visualize the incentives at the UI Frontend.                                     Must follow Chainlink Aggregator IEACAggregatorProxy interface to be compatible."
        }
      },
      "getAllUserRewards(address[],address)": {
        "details": "Returns a list all rewards of a user, including already accrued and unrealized claimable rewards",
        "params": {
          "assets": "List of incentivized assets to check eligible distributions",
          "user": "The address of the user"
        },
        "returns": {
          "rewardsList": "The list of reward addresses",
          "unclaimedAmounts": "The list of unclaimed amount of rewards"
        }
      },
      "getAssetDecimals(address)": {
        "details": "Returns the decimals of an asset to calculate the distribution delta",
        "params": {
          "asset": "The address to retrieve decimals"
        },
        "returns": {
          "_0": "The decimals of an underlying asset"
        }
      },
      "getClaimer(address)": {
        "details": "Returns the whitelisted claimer for a certain address (0x0 if not set)",
        "params": {
          "user": "The address of the user"
        },
        "returns": {
          "_0": "The claimer address"
        }
      },
      "getDistributionEnd(address,address)": {
        "details": "Gets the end date for the distribution",
        "params": {
          "asset": "The incentivized asset",
          "reward": "The reward token of the incentivized asset"
        },
        "returns": {
          "_0": "The timestamp with the end of the distribution, in unix time format"
        }
      },
      "getEmissionManager()": {
        "details": "Returns the address of the emission manager",
        "returns": {
          "_0": "The address of the EmissionManager"
        }
      },
      "getRewardOracle(address)": {
        "details": "Get the price aggregator oracle address",
        "params": {
          "reward": "The address of the reward"
        },
        "returns": {
          "_0": "The price oracle of the reward"
        }
      },
      "getRewardsByAsset(address)": {
        "details": "Returns the list of available reward token addresses of an incentivized asset",
        "params": {
          "asset": "The incentivized asset"
        },
        "returns": {
          "_0": "List of rewards addresses of the input asset"
        }
      },
      "getRewardsData(address,address)": {
        "details": "Returns the configuration of the distribution reward for a certain asset",
        "params": {
          "asset": "The incentivized asset",
          "reward": "The reward token of the incentivized asset"
        },
        "returns": {
          "_0": "The index of the asset distribution",
          "_1": "The emission per second of the reward distribution",
          "_2": "The timestamp of the last update of the index",
          "_3": "The timestamp of the distribution end"
        }
      },
      "getRewardsList()": {
        "details": "Returns the list of available reward addresses",
        "returns": {
          "_0": "List of rewards supported in this contract"
        }
      },
      "getRewardsVault()": {
        "returns": {
          "_0": "Account that secures ERC20 rewards."
        }
      },
      "getUserAccruedRewards(address,address)": {
        "details": "Returns the accrued rewards balance of a user, not including virtually accrued rewards since last distribution.",
        "params": {
          "reward": "The address of the reward token",
          "user": "The address of the user"
        },
        "returns": {
          "_0": "Unclaimed rewards, not including new distributions"
        }
      },
      "getUserAssetIndex(address,address,address)": {
        "details": "Returns the index of a user on a reward distribution",
        "params": {
          "asset": "The incentivized asset",
          "reward": "The reward token of the incentivized asset",
          "user": "Address of the user"
        },
        "returns": {
          "_0": "The current user asset index, not including new distributions"
        }
      },
      "getUserRewards(address[],address,address)": {
        "details": "Returns a single rewards balance of a user, including virtually accrued and unrealized claimable rewards.",
        "params": {
          "assets": "List of incentivized assets to check eligible distributions",
          "reward": "The address of the reward token",
          "user": "The address of the user"
        },
        "returns": {
          "_0": "The rewards amount"
        }
      },
      "handleAction(address,address,uint256,uint256)": {
        "details": "Called by the corresponding asset on transfer hook in order to update the rewards distribution.",
        "params": {
          "asset": "The incentivized asset address",
          "totalStaked": "The total amount staked of the asset, prior to stake change",
          "user": "The address of the user whose asset balance has changed",
          "userStake": "The amount of assets staked by the user, prior to stake change"
        }
      },
      "isOngoingDistribution(address,address)": {
        "params": {
          "asset": "The incentivized asset",
          "reward": "The reward token of the incentivized asset"
        },
        "returns": {
          "_0": "true, if rewards are still being distributed for the asset - reward pair"
        }
      },
      "setClaimer(address,address)": {
        "details": "Whitelists an address to claim the rewards on behalf of another address",
        "params": {
          "claimer": "The address of the claimer",
          "user": "The address of the user"
        }
      },
      "setDistributionEnd(address,address,uint32)": {
        "details": "Sets the end date for the distribution",
        "params": {
          "asset": "The asset to incentivize",
          "newDistributionEnd": "The end date of the incentivization, in unix time format",
          "reward": "The reward token that incentives the asset"
        }
      },
      "setEmissionManager(address)": {
        "details": "Updates the address of the emission manager",
        "params": {
          "emissionManager": "The address of the new EmissionManager"
        }
      },
      "setEmissionPerSecond(address,address[],uint88[])": {
        "details": "Sets the emission per second of a set of reward distributions",
        "params": {
          "asset": "The asset is being incentivized",
          "newEmissionsPerSecond": "List of new reward emissions per second",
          "rewards": "List of reward addresses are being distributed"
        }
      },
      "setRewardOracle(address,address)": {
        "details": "Sets an Aave Oracle contract to enforce rewards with a source of value.",
        "params": {
          "reward": "The address of the reward to set the price aggregator",
          "rewardOracle": "The address of price aggregator that follows IEACAggregatorProxy interface"
        }
      },
      "updateRewardDistribution(address[],address[],uint256[])": {
        "details": "Updates weekly reward distributions",
        "params": {
          "assets": "List of incentivized assets getting updated",
          "rewardAmounts": "List of carbon reward amounts getting distributed",
          "rewards": "List of reward tokens getting updated"
        }
      }
    },
    "stateVariables": {
      "REWARDS_VAULT": {
        "details": "Account that secures ERC20 rewards.It must approve `RewardsController` to spend the rewards it holds."
      }
    },
    "version": 1
  },
  "userdoc": {
    "kind": "user",
    "methods": {
      "setRewardOracle(address,address)": {
        "notice": "At the moment of reward configuration, the Incentives Controller performs a check to see if the reward asset oracle is compatible with IEACAggregator proxy. This check is enforced for integrators to be able to show incentives at the current Aave UI without the need to setup an external price registry"
      }
    },
    "version": 1
  },
  "storageLayout": {
    "storage": [
      {
        "astId": 11136,
        "contract": "contracts/rewards/RewardsController.sol:RewardsController",
        "label": "_emissionManager",
        "offset": 0,
        "slot": "0",
        "type": "t_address"
      },
      {
        "astId": 11141,
        "contract": "contracts/rewards/RewardsController.sol:RewardsController",
        "label": "_assets",
        "offset": 0,
        "slot": "1",
        "type": "t_mapping(t_address,t_struct(AssetData)9645_storage)"
      },
      {
        "astId": 11145,
        "contract": "contracts/rewards/RewardsController.sol:RewardsController",
        "label": "_isRewardEnabled",
        "offset": 0,
        "slot": "2",
        "type": "t_mapping(t_address,t_bool)"
      },
      {
        "astId": 11148,
        "contract": "contracts/rewards/RewardsController.sol:RewardsController",
        "label": "_rewardsList",
        "offset": 0,
        "slot": "3",
        "type": "t_array(t_address)dyn_storage"
      },
      {
        "astId": 11151,
        "contract": "contracts/rewards/RewardsController.sol:RewardsController",
        "label": "_assetsList",
        "offset": 0,
        "slot": "4",
        "type": "t_array(t_address)dyn_storage"
      },
      {
        "astId": 11155,
        "contract": "contracts/rewards/RewardsController.sol:RewardsController",
        "label": "solidStakingViewActions",
        "offset": 0,
        "slot": "5",
        "type": "t_contract(ISolidStakingViewActions)8734"
      },
      {
        "astId": 6303,
        "contract": "contracts/rewards/RewardsController.sol:RewardsController",
        "label": "_initialized",
        "offset": 20,
        "slot": "5",
        "type": "t_bool"
      },
      {
        "astId": 10480,
        "contract": "contracts/rewards/RewardsController.sol:RewardsController",
        "label": "_authorizedClaimers",
        "offset": 0,
        "slot": "6",
        "type": "t_mapping(t_address,t_address)"
      },
      {
        "astId": 10485,
        "contract": "contracts/rewards/RewardsController.sol:RewardsController",
        "label": "_rewardOracle",
        "offset": 0,
        "slot": "7",
        "type": "t_mapping(t_address,t_contract(IEACAggregatorProxy)8135)"
      },
      {
        "astId": 10488,
        "contract": "contracts/rewards/RewardsController.sol:RewardsController",
        "label": "REWARDS_VAULT",
        "offset": 0,
        "slot": "8",
        "type": "t_address"
      }
    ],
    "types": {
      "t_address": {
        "encoding": "inplace",
        "label": "address",
        "numberOfBytes": "20"
      },
      "t_array(t_address)dyn_storage": {
        "base": "t_address",
        "encoding": "dynamic_array",
        "label": "address[]",
        "numberOfBytes": "32"
      },
      "t_bool": {
        "encoding": "inplace",
        "label": "bool",
        "numberOfBytes": "1"
      },
      "t_contract(IEACAggregatorProxy)8135": {
        "encoding": "inplace",
        "label": "contract IEACAggregatorProxy",
        "numberOfBytes": "20"
      },
      "t_contract(ISolidStakingViewActions)8734": {
        "encoding": "inplace",
        "label": "contract ISolidStakingViewActions",
        "numberOfBytes": "20"
      },
      "t_mapping(t_address,t_address)": {
        "encoding": "mapping",
        "key": "t_address",
        "label": "mapping(address => address)",
        "numberOfBytes": "32",
        "value": "t_address"
      },
      "t_mapping(t_address,t_bool)": {
        "encoding": "mapping",
        "key": "t_address",
        "label": "mapping(address => bool)",
        "numberOfBytes": "32",
        "value": "t_bool"
      },
      "t_mapping(t_address,t_contract(IEACAggregatorProxy)8135)": {
        "encoding": "mapping",
        "key": "t_address",
        "label": "mapping(address => contract IEACAggregatorProxy)",
        "numberOfBytes": "32",
        "value": "t_contract(IEACAggregatorProxy)8135"
      },
      "t_mapping(t_address,t_struct(AssetData)9645_storage)": {
        "encoding": "mapping",
        "key": "t_address",
        "label": "mapping(address => struct RewardsDataTypes.AssetData)",
        "numberOfBytes": "32",
        "value": "t_struct(AssetData)9645_storage"
      },
      "t_mapping(t_address,t_struct(RewardData)9631_storage)": {
        "encoding": "mapping",
        "key": "t_address",
        "label": "mapping(address => struct RewardsDataTypes.RewardData)",
        "numberOfBytes": "32",
        "value": "t_struct(RewardData)9631_storage"
      },
      "t_mapping(t_address,t_struct(UserData)9617_storage)": {
        "encoding": "mapping",
        "key": "t_address",
        "label": "mapping(address => struct RewardsDataTypes.UserData)",
        "numberOfBytes": "32",
        "value": "t_struct(UserData)9617_storage"
      },
      "t_mapping(t_uint128,t_address)": {
        "encoding": "mapping",
        "key": "t_uint128",
        "label": "mapping(uint128 => address)",
        "numberOfBytes": "32",
        "value": "t_address"
      },
      "t_struct(AssetData)9645_storage": {
        "encoding": "inplace",
        "label": "struct RewardsDataTypes.AssetData",
        "members": [
          {
            "astId": 9636,
            "contract": "contracts/rewards/RewardsController.sol:RewardsController",
            "label": "rewards",
            "offset": 0,
            "slot": "0",
            "type": "t_mapping(t_address,t_struct(RewardData)9631_storage)"
          },
          {
            "astId": 9640,
            "contract": "contracts/rewards/RewardsController.sol:RewardsController",
            "label": "availableRewards",
            "offset": 0,
            "slot": "1",
            "type": "t_mapping(t_uint128,t_address)"
          },
          {
            "astId": 9642,
            "contract": "contracts/rewards/RewardsController.sol:RewardsController",
            "label": "availableRewardsCount",
            "offset": 0,
            "slot": "2",
            "type": "t_uint128"
          },
          {
            "astId": 9644,
            "contract": "contracts/rewards/RewardsController.sol:RewardsController",
            "label": "decimals",
            "offset": 16,
            "slot": "2",
            "type": "t_uint8"
          }
        ],
        "numberOfBytes": "96"
      },
      "t_struct(RewardData)9631_storage": {
        "encoding": "inplace",
        "label": "struct RewardsDataTypes.RewardData",
        "members": [
          {
            "astId": 9619,
            "contract": "contracts/rewards/RewardsController.sol:RewardsController",
            "label": "index",
            "offset": 0,
            "slot": "0",
            "type": "t_uint104"
          },
          {
            "astId": 9621,
            "contract": "contracts/rewards/RewardsController.sol:RewardsController",
            "label": "emissionPerSecond",
            "offset": 13,
            "slot": "0",
            "type": "t_uint88"
          },
          {
            "astId": 9623,
            "contract": "contracts/rewards/RewardsController.sol:RewardsController",
            "label": "lastUpdateTimestamp",
            "offset": 24,
            "slot": "0",
            "type": "t_uint32"
          },
          {
            "astId": 9625,
            "contract": "contracts/rewards/RewardsController.sol:RewardsController",
            "label": "distributionEnd",
            "offset": 28,
            "slot": "0",
            "type": "t_uint32"
          },
          {
            "astId": 9630,
            "contract": "contracts/rewards/RewardsController.sol:RewardsController",
            "label": "usersData",
            "offset": 0,
            "slot": "1",
            "type": "t_mapping(t_address,t_struct(UserData)9617_storage)"
          }
        ],
        "numberOfBytes": "64"
      },
      "t_struct(UserData)9617_storage": {
        "encoding": "inplace",
        "label": "struct RewardsDataTypes.UserData",
        "members": [
          {
            "astId": 9614,
            "contract": "contracts/rewards/RewardsController.sol:RewardsController",
            "label": "index",
            "offset": 0,
            "slot": "0",
            "type": "t_uint104"
          },
          {
            "astId": 9616,
            "contract": "contracts/rewards/RewardsController.sol:RewardsController",
            "label": "accrued",
            "offset": 13,
            "slot": "0",
            "type": "t_uint128"
          }
        ],
        "numberOfBytes": "32"
      },
      "t_uint104": {
        "encoding": "inplace",
        "label": "uint104",
        "numberOfBytes": "13"
      },
      "t_uint128": {
        "encoding": "inplace",
        "label": "uint128",
        "numberOfBytes": "16"
      },
      "t_uint32": {
        "encoding": "inplace",
        "label": "uint32",
        "numberOfBytes": "4"
      },
      "t_uint8": {
        "encoding": "inplace",
        "label": "uint8",
        "numberOfBytes": "1"
      },
      "t_uint88": {
        "encoding": "inplace",
        "label": "uint88",
        "numberOfBytes": "11"
      }
    }
  }
}