{
  "address": "0xE67dE0789063e85E5B97E893DFf9f5215dfD4Fa6",
  "abi": [
    {
      "inputs": [],
      "name": "AlreadyInitialized",
      "type": "error"
    },
    {
      "inputs": [
        {
          "internalType": "address",
          "name": "token",
          "type": "address"
        }
      ],
      "name": "InvalidTokenAddress",
      "type": "error"
    },
    {
      "inputs": [
        {
          "internalType": "address",
          "name": "token",
          "type": "address"
        }
      ],
      "name": "TokenAlreadyAdded",
      "type": "error"
    },
    {
      "anonymous": false,
      "inputs": [
        {
          "indexed": true,
          "internalType": "address",
          "name": "previousOwner",
          "type": "address"
        },
        {
          "indexed": true,
          "internalType": "address",
          "name": "newOwner",
          "type": "address"
        }
      ],
      "name": "OwnershipTransferred",
      "type": "event"
    },
    {
      "anonymous": false,
      "inputs": [
        {
          "indexed": true,
          "internalType": "address",
          "name": "account",
          "type": "address"
        },
        {
          "indexed": true,
          "internalType": "address",
          "name": "token",
          "type": "address"
        },
        {
          "indexed": true,
          "internalType": "uint256",
          "name": "amount",
          "type": "uint256"
        }
      ],
      "name": "Stake",
      "type": "event"
    },
    {
      "anonymous": false,
      "inputs": [
        {
          "indexed": true,
          "internalType": "address",
          "name": "token",
          "type": "address"
        }
      ],
      "name": "TokenAdded",
      "type": "event"
    },
    {
      "anonymous": false,
      "inputs": [
        {
          "indexed": true,
          "internalType": "address",
          "name": "account",
          "type": "address"
        },
        {
          "indexed": true,
          "internalType": "address",
          "name": "token",
          "type": "address"
        },
        {
          "indexed": true,
          "internalType": "uint256",
          "name": "amount",
          "type": "uint256"
        }
      ],
      "name": "Withdraw",
      "type": "event"
    },
    {
      "inputs": [
        {
          "internalType": "address",
          "name": "token",
          "type": "address"
        }
      ],
      "name": "addToken",
      "outputs": [],
      "stateMutability": "nonpayable",
      "type": "function"
    },
    {
      "inputs": [
        {
          "internalType": "address",
          "name": "token",
          "type": "address"
        },
        {
          "internalType": "address",
          "name": "account",
          "type": "address"
        }
      ],
      "name": "balanceOf",
      "outputs": [
        {
          "internalType": "uint256",
          "name": "",
          "type": "uint256"
        }
      ],
      "stateMutability": "view",
      "type": "function"
    },
    {
      "inputs": [],
      "name": "getTokens",
      "outputs": [
        {
          "internalType": "address[]",
          "name": "_tokens",
          "type": "address[]"
        }
      ],
      "stateMutability": "view",
      "type": "function"
    },
    {
      "inputs": [],
      "name": "owner",
      "outputs": [
        {
          "internalType": "address",
          "name": "",
          "type": "address"
        }
      ],
      "stateMutability": "view",
      "type": "function"
    },
    {
      "inputs": [],
      "name": "renounceOwnership",
      "outputs": [],
      "stateMutability": "nonpayable",
      "type": "function"
    },
    {
      "inputs": [],
      "name": "rewardsController",
      "outputs": [
        {
          "internalType": "contract IRewardsController",
          "name": "",
          "type": "address"
        }
      ],
      "stateMutability": "view",
      "type": "function"
    },
    {
      "inputs": [
        {
          "internalType": "contract IRewardsController",
          "name": "_rewardsController",
          "type": "address"
        },
        {
          "internalType": "address",
          "name": "owner",
          "type": "address"
        }
      ],
      "name": "setup",
      "outputs": [],
      "stateMutability": "nonpayable",
      "type": "function"
    },
    {
      "inputs": [
        {
          "internalType": "address",
          "name": "token",
          "type": "address"
        },
        {
          "internalType": "uint256",
          "name": "amount",
          "type": "uint256"
        }
      ],
      "name": "stake",
      "outputs": [],
      "stateMutability": "nonpayable",
      "type": "function"
    },
    {
      "inputs": [
        {
          "internalType": "address",
          "name": "",
          "type": "address"
        }
      ],
      "name": "tokenAdded",
      "outputs": [
        {
          "internalType": "bool",
          "name": "",
          "type": "bool"
        }
      ],
      "stateMutability": "view",
      "type": "function"
    },
    {
      "inputs": [
        {
          "internalType": "uint256",
          "name": "",
          "type": "uint256"
        }
      ],
      "name": "tokens",
      "outputs": [
        {
          "internalType": "address",
          "name": "",
          "type": "address"
        }
      ],
      "stateMutability": "view",
      "type": "function"
    },
    {
      "inputs": [
        {
          "internalType": "address",
          "name": "token",
          "type": "address"
        }
      ],
      "name": "totalStaked",
      "outputs": [
        {
          "internalType": "uint256",
          "name": "",
          "type": "uint256"
        }
      ],
      "stateMutability": "view",
      "type": "function"
    },
    {
      "inputs": [
        {
          "internalType": "address",
          "name": "newOwner",
          "type": "address"
        }
      ],
      "name": "transferOwnership",
      "outputs": [],
      "stateMutability": "nonpayable",
      "type": "function"
    },
    {
      "inputs": [
        {
          "internalType": "address",
          "name": "",
          "type": "address"
        },
        {
          "internalType": "address",
          "name": "",
          "type": "address"
        }
      ],
      "name": "userStake",
      "outputs": [
        {
          "internalType": "uint256",
          "name": "",
          "type": "uint256"
        }
      ],
      "stateMutability": "view",
      "type": "function"
    },
    {
      "inputs": [
        {
          "internalType": "address",
          "name": "token",
          "type": "address"
        },
        {
          "internalType": "uint256",
          "name": "amount",
          "type": "uint256"
        }
      ],
      "name": "withdraw",
      "outputs": [],
      "stateMutability": "nonpayable",
      "type": "function"
    },
    {
      "inputs": [
        {
          "internalType": "address",
          "name": "token",
          "type": "address"
        },
        {
          "internalType": "uint256",
          "name": "amount",
          "type": "uint256"
        }
      ],
      "name": "withdrawStakeAndClaimRewards",
      "outputs": [],
      "stateMutability": "nonpayable",
      "type": "function"
    }
  ],
  "transactionHash": "0x71e9b323d826ccd4bba464b9e9c25eebade6cb08ff95d416d37f948d569907a5",
  "args": [],
  "numDeployments": 1,
  "solcInputHash": "2f067c0dfcc2236a8b1535f9c2b10d11",
  "bytecode": "0x608060405234801561001057600080fd5b50600160005561001f33610024565b610076565b600180546001600160a01b038381166001600160a01b0319831681179093556040519116919082907f8be0079c531659141344cd1fd0a4f28419497f9722a3daafe3b4186f6b6457e090600090a35050565b611660806100856000396000f3fe608060405234801561001057600080fd5b50600436106100f55760003560e01c80639bfd8d6111610097578063f2fde38b11610066578063f2fde38b1461024c578063f3fef3a31461025f578063f773f31114610272578063f7888aec1461028557600080fd5b80639bfd8d61146101fe578063aa6ca80814610211578063adc9772e14610226578063d48bfca71461023957600080fd5b80636bb65f53116100d35780636bb65f53146101855780636dfeb12f146101a5578063715018a6146101d85780638da5cb5b146101e057600080fd5b80632d34ba79146100fa5780634f64b2be1461010f57806351bdca3e1461014c575b600080fd5b61010d610108366004611275565b610298565b005b61012261011d3660046112ae565b61037b565b60405173ffffffffffffffffffffffffffffffffffffffff90911681526020015b60405180910390f35b61017761015a366004611275565b600460209081526000928352604080842090915290825290205481565b604051908152602001610143565b6005546101229073ffffffffffffffffffffffffffffffffffffffff1681565b6101c86101b33660046112c7565b60036020526000908152604090205460ff1681565b6040519015158152602001610143565b61010d6103b2565b60015473ffffffffffffffffffffffffffffffffffffffff16610122565b61017761020c3660046112c7565b6103c6565b610219610456565b604051610143919061133c565b61010d61023436600461134f565b6104c5565b61010d6102473660046112c7565b61071f565b61010d61025a3660046112c7565b610871565b61010d61026d36600461134f565b610928565b61010d61028036600461134f565b610a25565b610177610293366004611275565b610b21565b60015474010000000000000000000000000000000000000000900460ff16156102ed576040517f0dc149f000000000000000000000000000000000000000000000000000000000815260040160405180910390fd5b600180547fffffffffffffffffffffff00ffffffffffffffffffffffffffffffffffffffff16740100000000000000000000000000000000000000001790556005805473ffffffffffffffffffffffffffffffffffffffff84167fffffffffffffffffffffffff000000000000000000000000000000000000000090911617905561037781610871565b5050565b6002818154811061038b57600080fd5b60009182526020909120015473ffffffffffffffffffffffffffffffffffffffff16905081565b6103ba610bd4565b6103c46000610c55565b565b73ffffffffffffffffffffffffffffffffffffffff8116600090815260036020526040812054829060ff16610444576040517f7330680300000000000000000000000000000000000000000000000000000000815273ffffffffffffffffffffffffffffffffffffffff821660048201526024015b60405180910390fd5b61044d83610ccc565b91505b50919050565b606060028054806020026020016040519081016040528092919081815260200182805480156104bb57602002820191906000526020600020905b815473ffffffffffffffffffffffffffffffffffffffff168152600190910190602001808311610490575b5050505050905090565b600260005403610531576040517f08c379a000000000000000000000000000000000000000000000000000000000815260206004820152601f60248201527f5265656e7472616e637947756172643a207265656e7472616e742063616c6c00604482015260640161043b565b6002600090815573ffffffffffffffffffffffffffffffffffffffff8316815260036020526040902054829060ff166105ae576040517f7330680300000000000000000000000000000000000000000000000000000000815273ffffffffffffffffffffffffffffffffffffffff8216600482015260240161043b565b73ffffffffffffffffffffffffffffffffffffffff83166000908152600460209081526040808320338452909152812054906105e985610ccc565b90506105f584836113aa565b73ffffffffffffffffffffffffffffffffffffffff8616600081815260046020908152604080832033808552925290912092909255610635913087610d63565b6005546040517f184dde8700000000000000000000000000000000000000000000000000000000815273ffffffffffffffffffffffffffffffffffffffff878116600483015233602483015260448201859052606482018490529091169063184dde8790608401600060405180830381600087803b1580156106b657600080fd5b505af11580156106ca573d6000803e3d6000fd5b505060405186925073ffffffffffffffffffffffffffffffffffffffff8816915033907f99039fcf0a98f484616c5196ee8b2ecfa971babf0b519848289ea4db381f85f790600090a450506001600055505050565b610727610bd4565b73ffffffffffffffffffffffffffffffffffffffff811660009081526003602052604090205460ff161561079f576040517f13501a5100000000000000000000000000000000000000000000000000000000815273ffffffffffffffffffffffffffffffffffffffff8216600482015260240161043b565b6002805460018082019092557f405787fa12a823e0f2b7631cc41b3ba8828b3321ca811111fa75cd3aa3bb5ace0180547fffffffffffffffffffffffff00000000000000000000000000000000000000001673ffffffffffffffffffffffffffffffffffffffff841690811790915560008181526003602052604080822080547fffffffffffffffffffffffffffffffffffffffffffffffffffffffffffffff0016909417909355915190917f784c8f4dbf0ffedd6e72c76501c545a70f8b203b30a26ce542bf92ba87c248a491a250565b610879610bd4565b73ffffffffffffffffffffffffffffffffffffffff811661091c576040517f08c379a000000000000000000000000000000000000000000000000000000000815260206004820152602660248201527f4f776e61626c653a206e6577206f776e657220697320746865207a65726f206160448201527f6464726573730000000000000000000000000000000000000000000000000000606482015260840161043b565b61092581610c55565b50565b600260005403610994576040517f08c379a000000000000000000000000000000000000000000000000000000000815260206004820152601f60248201527f5265656e7472616e637947756172643a207265656e7472616e742063616c6c00604482015260640161043b565b6002600090815573ffffffffffffffffffffffffffffffffffffffff8316815260036020526040902054829060ff16610a11576040517f7330680300000000000000000000000000000000000000000000000000000000815273ffffffffffffffffffffffffffffffffffffffff8216600482015260240161043b565b610a1b8383610e45565b5050600160005550565b600260005403610a91576040517f08c379a000000000000000000000000000000000000000000000000000000000815260206004820152601f60248201527f5265656e7472616e637947756172643a207265656e7472616e742063616c6c00604482015260640161043b565b6002600090815573ffffffffffffffffffffffffffffffffffffffff8316815260036020526040902054829060ff16610b0e576040517f7330680300000000000000000000000000000000000000000000000000000000815273ffffffffffffffffffffffffffffffffffffffff8216600482015260240161043b565b610b188383610e45565b610a1b83610faf565b73ffffffffffffffffffffffffffffffffffffffff8216600090815260036020526040812054839060ff16610b9a576040517f7330680300000000000000000000000000000000000000000000000000000000815273ffffffffffffffffffffffffffffffffffffffff8216600482015260240161043b565b505073ffffffffffffffffffffffffffffffffffffffff918216600090815260046020908152604080832093909416825291909152205490565b60015473ffffffffffffffffffffffffffffffffffffffff1633146103c4576040517f08c379a000000000000000000000000000000000000000000000000000000000815260206004820181905260248201527f4f776e61626c653a2063616c6c6572206973206e6f7420746865206f776e6572604482015260640161043b565b6001805473ffffffffffffffffffffffffffffffffffffffff8381167fffffffffffffffffffffffff0000000000000000000000000000000000000000831681179093556040519116919082907f8be0079c531659141344cd1fd0a4f28419497f9722a3daafe3b4186f6b6457e090600090a35050565b6040517f70a0823100000000000000000000000000000000000000000000000000000000815230600482015260009073ffffffffffffffffffffffffffffffffffffffff8316906370a0823190602401602060405180830381865afa158015610d39573d6000803e3d6000fd5b505050506040513d601f19601f82011682018060405250810190610d5d91906113bd565b92915050565b6040517f23b872dd0000000000000000000000000000000000000000000000000000000080825273ffffffffffffffffffffffffffffffffffffffff8581166004840152841660248301526044820183905290600080606483828a5af1610dce573d6000803e3d6000fd5b50610dd8856110b7565b610e3e576040517f08c379a000000000000000000000000000000000000000000000000000000000815260206004820152601960248201527f475076323a206661696c6564207472616e7366657246726f6d00000000000000604482015260640161043b565b5050505050565b73ffffffffffffffffffffffffffffffffffffffff8216600090815260046020908152604080832033845290915281205490610e8084610ccc565b9050610e8c83836113d6565b73ffffffffffffffffffffffffffffffffffffffff8516600081815260046020908152604080832033808552925290912092909255610ecb9185611180565b6005546040517f184dde8700000000000000000000000000000000000000000000000000000000815273ffffffffffffffffffffffffffffffffffffffff868116600483015233602483015260448201859052606482018490529091169063184dde8790608401600060405180830381600087803b158015610f4c57600080fd5b505af1158015610f60573d6000803e3d6000fd5b505060405185925073ffffffffffffffffffffffffffffffffffffffff8716915033907f9b1bfa7fa9ee420a16e124f794c35ac9f90472acc99140eb2f6447c714cad8eb90600090a450505050565b604080516001808252818301909252600091602080830190803683370190505090508181600081518110610fe557610fe5611418565b73ffffffffffffffffffffffffffffffffffffffff92831660209182029290920101526005546040517f9ff55db9000000000000000000000000000000000000000000000000000000008152911690639ff55db99061104c90849033908190600401611447565b6000604051808303816000875af115801561106b573d6000803e3d6000fd5b505050506040513d6000823e601f3d9081017fffffffffffffffffffffffffffffffffffffffffffffffffffffffffffffffe01682016040526110b19190810190611565565b50505050565b60006110f6565b7f08c379a000000000000000000000000000000000000000000000000000000000600052602060045280602452508060445260646000fd5b3d8015611135576020811461116f576111307f475076323a206d616c666f726d6564207472616e7366657220726573756c7400601f6110be565b610450565b823b611166576111667f475076323a206e6f74206120636f6e747261637400000000000000000000000060146110be565b60019150610450565b3d6000803e50506000511515919050565b6040517fa9059cbb0000000000000000000000000000000000000000000000000000000080825273ffffffffffffffffffffffffffffffffffffffff84166004830152602482018390529060008060448382895af16111e3573d6000803e3d6000fd5b506111ed846110b7565b6110b1576040517f08c379a000000000000000000000000000000000000000000000000000000000815260206004820152601560248201527f475076323a206661696c6564207472616e736665720000000000000000000000604482015260640161043b565b73ffffffffffffffffffffffffffffffffffffffff8116811461092557600080fd5b6000806040838503121561128857600080fd5b823561129381611253565b915060208301356112a381611253565b809150509250929050565b6000602082840312156112c057600080fd5b5035919050565b6000602082840312156112d957600080fd5b81356112e481611253565b9392505050565b600081518084526020808501945080840160005b8381101561133157815173ffffffffffffffffffffffffffffffffffffffff16875295820195908201906001016112ff565b509495945050505050565b6020815260006112e460208301846112eb565b6000806040838503121561136257600080fd5b823561136d81611253565b946020939093013593505050565b7f4e487b7100000000000000000000000000000000000000000000000000000000600052601160045260246000fd5b80820180821115610d5d57610d5d61137b565b6000602082840312156113cf57600080fd5b5051919050565b81810381811115610d5d57610d5d61137b565b7f4e487b7100000000000000000000000000000000000000000000000000000000600052604160045260246000fd5b7f4e487b7100000000000000000000000000000000000000000000000000000000600052603260045260246000fd5b60608152600061145a60608301866112eb565b73ffffffffffffffffffffffffffffffffffffffff94851660208401529290931660409091015292915050565b604051601f82017fffffffffffffffffffffffffffffffffffffffffffffffffffffffffffffffe016810167ffffffffffffffff811182821017156114ce576114ce6113e9565b604052919050565b600067ffffffffffffffff8211156114f0576114f06113e9565b5060051b60200190565b600082601f83011261150b57600080fd5b8151602061152061151b836114d6565b611487565b82815260059290921b8401810191818101908684111561153f57600080fd5b8286015b8481101561155a5780518352918301918301611543565b509695505050505050565b6000806040838503121561157857600080fd5b825167ffffffffffffffff8082111561159057600080fd5b818501915085601f8301126115a457600080fd5b815160206115b461151b836114d6565b82815260059290921b840181019181810190898411156115d357600080fd5b948201945b838610156115fa5785516115eb81611253565b825294820194908201906115d8565b9188015191965090935050508082111561161357600080fd5b50611620858286016114fa565b915050925092905056fea264697066735822122050989a18beb37f791270befa404154ef701cf8e9be032179b5d877d0f03e7b3264736f6c63430008110033",
  "devdoc": {
    "kind": "dev",
    "methods": {
      "addToken(address)": {
        "details": "Adds a new token to the staking contract",
        "params": {
          "token": "the token to add"
        }
      },
      "balanceOf(address,address)": {
        "details": "Computes the amount of tokens that the `account` has staked",
        "params": {
          "account": "the account to check",
          "token": "the token to check"
        },
        "returns": {
          "_0": "the amount of `token` tokens that the `account` has staked"
        }
      },
      "getTokens()": {
        "details": "Returns the list of tokens that can be staked",
        "returns": {
          "_tokens": "the list of tokens that can be staked"
        }
      },
      "owner()": {
        "details": "Returns the address of the current owner."
      },
      "renounceOwnership()": {
        "details": "Leaves the contract without owner. It will not be possible to call `onlyOwner` functions anymore. Can only be called by the current owner. NOTE: Renouncing ownership will leave the contract without an owner, thereby removing any functionality that is only available to the owner."
      },
      "stake(address,uint256)": {
        "details": "Stakes tokens for the caller into the staking contract",
        "params": {
          "amount": "the amount to stake",
          "token": "the token to stake"
        }
      },
      "totalStaked(address)": {
        "details": "Computes the total amount of tokens that have been staked",
        "params": {
          "token": "the token to check"
        },
        "returns": {
          "_0": "the total amount of `token` tokens that have been staked"
        }
      },
      "transferOwnership(address)": {
        "details": "Transfers ownership of the contract to a new account (`newOwner`). Can only be called by the current owner."
      },
      "withdraw(address,uint256)": {
        "details": "Withdraws tokens for the caller from the staking contract",
        "params": {
          "amount": "the amount to withdraw",
          "token": "the token to withdraw"
        }
      },
      "withdrawStakeAndClaimRewards(address,uint256)": {
        "details": "Withdraws tokens for the caller from the staking contractClaims all rewards of the incentivized `token` for the caller",
        "params": {
          "amount": "the amount to withdraw",
          "token": "the token to withdraw"
        }
      }
    },
    "stateVariables": {
      "rewardsController": {
        "details": "Main contract used for interacting with rewards mechanism."
      },
      "tokenAdded": {
        "details": "Mapping with added tokens."
      },
      "tokens": {
        "details": "All stakable lp tokens."
      },
      "userStake": {
        "details": "Mapping with the staked amount of each account for each token.token => user => amount"
      }
    },
    "version": 1
  },
  "userdoc": {
    "kind": "user",
    "methods": {},
    "version": 1
  },
  "storageLayout": {
    "storage": [
      {
        "astId": 803,
        "contract": "contracts/SolidStaking.sol:SolidStaking",
        "label": "_status",
        "offset": 0,
        "slot": "0",
        "type": "t_uint256"
      },
      {
        "astId": 687,
        "contract": "contracts/SolidStaking.sol:SolidStaking",
        "label": "_owner",
        "offset": 0,
        "slot": "1",
        "type": "t_address"
      },
      {
        "astId": 6504,
        "contract": "contracts/SolidStaking.sol:SolidStaking",
        "label": "_initialized",
        "offset": 20,
        "slot": "1",
        "type": "t_bool"
      },
      {
        "astId": 6544,
        "contract": "contracts/SolidStaking.sol:SolidStaking",
        "label": "tokens",
        "offset": 0,
        "slot": "2",
        "type": "t_array(t_address)dyn_storage"
      },
      {
        "astId": 6549,
        "contract": "contracts/SolidStaking.sol:SolidStaking",
        "label": "tokenAdded",
        "offset": 0,
        "slot": "3",
        "type": "t_mapping(t_address,t_bool)"
      },
      {
        "astId": 6556,
        "contract": "contracts/SolidStaking.sol:SolidStaking",
        "label": "userStake",
        "offset": 0,
        "slot": "4",
        "type": "t_mapping(t_address,t_mapping(t_address,t_uint256))"
      },
      {
        "astId": 6560,
        "contract": "contracts/SolidStaking.sol:SolidStaking",
        "label": "rewardsController",
        "offset": 0,
        "slot": "5",
        "type": "t_contract(IRewardsController)8469"
      }
    ],
    "types": {
      "t_address": {
        "encoding": "inplace",
        "label": "address",
        "numberOfBytes": "20"
      },
      "t_array(t_address)dyn_storage": {
        "base": "t_address",
        "encoding": "dynamic_array",
        "label": "address[]",
        "numberOfBytes": "32"
      },
      "t_bool": {
        "encoding": "inplace",
        "label": "bool",
        "numberOfBytes": "1"
      },
      "t_contract(IRewardsController)8469": {
        "encoding": "inplace",
        "label": "contract IRewardsController",
        "numberOfBytes": "20"
      },
      "t_mapping(t_address,t_bool)": {
        "encoding": "mapping",
        "key": "t_address",
        "label": "mapping(address => bool)",
        "numberOfBytes": "32",
        "value": "t_bool"
      },
      "t_mapping(t_address,t_mapping(t_address,t_uint256))": {
        "encoding": "mapping",
        "key": "t_address",
        "label": "mapping(address => mapping(address => uint256))",
        "numberOfBytes": "32",
        "value": "t_mapping(t_address,t_uint256)"
      },
      "t_mapping(t_address,t_uint256)": {
        "encoding": "mapping",
        "key": "t_address",
        "label": "mapping(address => uint256)",
        "numberOfBytes": "32",
        "value": "t_uint256"
      },
      "t_uint256": {
        "encoding": "inplace",
        "label": "uint256",
        "numberOfBytes": "32"
      }
    }
  }
}