{
  "address": "0xF8A620776C256E23Be30F9C46e3308A7C70F1ae9",
  "abi": [
    {
      "anonymous": false,
      "inputs": [
        {
          "indexed": true,
          "internalType": "address",
          "name": "beneficiary",
          "type": "address"
        },
        {
          "indexed": true,
          "internalType": "address",
          "name": "caller",
          "type": "address"
        }
      ],
      "name": "AdminRoleGranted",
      "type": "event"
    },
    {
      "anonymous": false,
      "inputs": [
        {
          "indexed": true,
          "internalType": "address",
          "name": "beneficiary",
          "type": "address"
        },
        {
          "indexed": true,
          "internalType": "address",
          "name": "caller",
          "type": "address"
        }
      ],
      "name": "AdminRoleRemoved",
      "type": "event"
    },
    {
      "anonymous": false,
      "inputs": [
        {
          "indexed": false,
          "internalType": "uint8",
          "name": "version",
          "type": "uint8"
        }
      ],
      "name": "Initialized",
      "type": "event"
    },
    {
      "anonymous": false,
      "inputs": [
        {
          "indexed": true,
          "internalType": "address",
          "name": "beneficiary",
          "type": "address"
        },
        {
          "indexed": true,
          "internalType": "address",
          "name": "caller",
          "type": "address"
        }
      ],
      "name": "MinterRoleGranted",
      "type": "event"
    },
    {
      "anonymous": false,
      "inputs": [
        {
          "indexed": true,
          "internalType": "address",
          "name": "beneficiary",
          "type": "address"
        },
        {
          "indexed": true,
          "internalType": "address",
          "name": "caller",
          "type": "address"
        }
      ],
      "name": "MinterRoleRemoved",
      "type": "event"
    },
    {
      "anonymous": false,
      "inputs": [
        {
          "indexed": true,
          "internalType": "bytes32",
          "name": "role",
          "type": "bytes32"
        },
        {
          "indexed": true,
          "internalType": "bytes32",
          "name": "previousAdminRole",
          "type": "bytes32"
        },
        {
          "indexed": true,
          "internalType": "bytes32",
          "name": "newAdminRole",
          "type": "bytes32"
        }
      ],
      "name": "RoleAdminChanged",
      "type": "event"
    },
    {
      "anonymous": false,
      "inputs": [
        {
          "indexed": true,
          "internalType": "bytes32",
          "name": "role",
          "type": "bytes32"
        },
        {
          "indexed": true,
          "internalType": "address",
          "name": "account",
          "type": "address"
        },
        {
          "indexed": true,
          "internalType": "address",
          "name": "sender",
          "type": "address"
        }
      ],
      "name": "RoleGranted",
      "type": "event"
    },
    {
      "anonymous": false,
      "inputs": [
        {
          "indexed": true,
          "internalType": "bytes32",
          "name": "role",
          "type": "bytes32"
        },
        {
          "indexed": true,
          "internalType": "address",
          "name": "account",
          "type": "address"
        },
        {
          "indexed": true,
          "internalType": "address",
          "name": "sender",
          "type": "address"
        }
      ],
      "name": "RoleRevoked",
      "type": "event"
    },
    {
      "anonymous": false,
      "inputs": [
        {
          "indexed": true,
          "internalType": "address",
          "name": "beneficiary",
          "type": "address"
        },
        {
          "indexed": true,
          "internalType": "address",
          "name": "caller",
          "type": "address"
        }
      ],
      "name": "SmartContractRoleGranted",
      "type": "event"
    },
    {
      "anonymous": false,
      "inputs": [
        {
          "indexed": true,
          "internalType": "address",
          "name": "beneficiary",
          "type": "address"
        },
        {
          "indexed": true,
          "internalType": "address",
          "name": "caller",
          "type": "address"
        }
      ],
      "name": "SmartContractRoleRemoved",
      "type": "event"
    },
    {
      "inputs": [],
      "name": "DEFAULT_ADMIN_ROLE",
      "outputs": [
        {
          "internalType": "bytes32",
          "name": "",
          "type": "bytes32"
        }
      ],
      "stateMutability": "view",
      "type": "function"
    },
    {
      "inputs": [],
      "name": "MINTER_ROLE",
      "outputs": [
        {
          "internalType": "bytes32",
          "name": "",
          "type": "bytes32"
        }
      ],
      "stateMutability": "view",
      "type": "function"
    },
    {
      "inputs": [],
      "name": "SMART_CONTRACT_ROLE",
      "outputs": [
        {
          "internalType": "bytes32",
          "name": "",
          "type": "bytes32"
        }
      ],
      "stateMutability": "view",
      "type": "function"
    },
    {
      "inputs": [
        {
          "internalType": "address",
          "name": "_address",
          "type": "address"
        }
      ],
      "name": "addAdminRole",
      "outputs": [],
      "stateMutability": "nonpayable",
      "type": "function"
    },
    {
      "inputs": [
        {
          "internalType": "address",
          "name": "_address",
          "type": "address"
        }
      ],
      "name": "addMinterRole",
      "outputs": [],
      "stateMutability": "nonpayable",
      "type": "function"
    },
    {
      "inputs": [
        {
          "internalType": "address",
          "name": "_address",
          "type": "address"
        }
      ],
      "name": "addSmartContractRole",
      "outputs": [],
      "stateMutability": "nonpayable",
      "type": "function"
    },
    {
      "inputs": [
        {
          "internalType": "bytes32",
          "name": "role",
          "type": "bytes32"
        }
      ],
      "name": "getRoleAdmin",
      "outputs": [
        {
          "internalType": "bytes32",
          "name": "",
          "type": "bytes32"
        }
      ],
      "stateMutability": "view",
      "type": "function"
    },
    {
      "inputs": [
        {
          "internalType": "bytes32",
          "name": "role",
          "type": "bytes32"
        },
        {
          "internalType": "address",
          "name": "account",
          "type": "address"
        }
      ],
      "name": "grantRole",
      "outputs": [],
      "stateMutability": "nonpayable",
      "type": "function"
    },
    {
      "inputs": [
        {
          "internalType": "address",
          "name": "_address",
          "type": "address"
        }
      ],
      "name": "hasAdminRole",
      "outputs": [
        {
          "internalType": "bool",
          "name": "",
          "type": "bool"
        }
      ],
      "stateMutability": "view",
      "type": "function"
    },
    {
      "inputs": [
        {
          "internalType": "address",
          "name": "_address",
          "type": "address"
        }
      ],
      "name": "hasMinterRole",
      "outputs": [
        {
          "internalType": "bool",
          "name": "",
          "type": "bool"
        }
      ],
      "stateMutability": "view",
      "type": "function"
    },
    {
      "inputs": [
        {
          "internalType": "bytes32",
          "name": "role",
          "type": "bytes32"
        },
        {
          "internalType": "address",
          "name": "account",
          "type": "address"
        }
      ],
      "name": "hasRole",
      "outputs": [
        {
          "internalType": "bool",
          "name": "",
          "type": "bool"
        }
      ],
      "stateMutability": "view",
      "type": "function"
    },
    {
      "inputs": [
        {
          "internalType": "address",
          "name": "_address",
          "type": "address"
        }
      ],
      "name": "hasSmartContractRole",
      "outputs": [
        {
          "internalType": "bool",
          "name": "",
          "type": "bool"
        }
      ],
      "stateMutability": "view",
      "type": "function"
    },
    {
      "inputs": [],
      "name": "initialize",
      "outputs": [],
      "stateMutability": "nonpayable",
      "type": "function"
    },
    {
      "inputs": [
        {
          "internalType": "address",
          "name": "_address",
          "type": "address"
        }
      ],
      "name": "removeAdminRole",
      "outputs": [],
      "stateMutability": "nonpayable",
      "type": "function"
    },
    {
      "inputs": [
        {
          "internalType": "address",
          "name": "_address",
          "type": "address"
        }
      ],
      "name": "removeMinterRole",
      "outputs": [],
      "stateMutability": "nonpayable",
      "type": "function"
    },
    {
      "inputs": [
        {
          "internalType": "address",
          "name": "_address",
          "type": "address"
        }
      ],
      "name": "removeSmartContractRole",
      "outputs": [],
      "stateMutability": "nonpayable",
      "type": "function"
    },
    {
      "inputs": [
        {
          "internalType": "bytes32",
          "name": "role",
          "type": "bytes32"
        },
        {
          "internalType": "address",
          "name": "account",
          "type": "address"
        }
      ],
      "name": "renounceRole",
      "outputs": [],
      "stateMutability": "nonpayable",
      "type": "function"
    },
    {
      "inputs": [
        {
          "internalType": "bytes32",
          "name": "role",
          "type": "bytes32"
        },
        {
          "internalType": "address",
          "name": "account",
          "type": "address"
        }
      ],
      "name": "revokeRole",
      "outputs": [],
      "stateMutability": "nonpayable",
      "type": "function"
    },
    {
      "inputs": [
        {
          "internalType": "bytes4",
          "name": "interfaceId",
          "type": "bytes4"
        }
      ],
      "name": "supportsInterface",
      "outputs": [
        {
          "internalType": "bool",
          "name": "",
          "type": "bool"
        }
      ],
      "stateMutability": "view",
      "type": "function"
    }
  ],
  "transactionHash": "0xf8daea67a42f6ff7c4d762d538f70a7cc88b85952735d0dc8c3ae98894d23467",
  "args": [],
  "numDeployments": 1,
  "solcInputHash": "52a5921ce5a354611bd4a3aef371ba79",
  "bytecode": "0x608060405234801561001057600080fd5b50611733806100206000396000f3fe608060405234801561001057600080fd5b50600436106100f15760003560e01c806301ffc9a7146100f6578063099db01714610126578063113b0ab214610156578063248a9ca3146101865780632f2ff15d146101b657806336568abe146101d25780633f16431a146101ee57806354f1e1261461020a5780636595171c146102265780638129fc1c14610242578063857d26081461024c5780638a845fc01461026a57806391d1485414610286578063a217fddf146102b6578063adbf3776146102d4578063c395fcb3146102f0578063d539139314610320578063d547741f1461033e578063dccfe3101461035a575b600080fd5b610110600480360381019061010b9190611037565b610376565b60405161011d919061107f565b60405180910390f35b610140600480360381019061013b91906110f8565b6103f0565b60405161014d919061107f565b60405180910390f35b610170600480360381019061016b91906110f8565b610426565b60405161017d919061107f565b60405180910390f35b6101a0600480360381019061019b919061115b565b61045c565b6040516101ad9190611197565b60405180910390f35b6101d060048036038101906101cb91906111b2565b61047c565b005b6101ec60048036038101906101e791906111b2565b61049d565b005b610208600480360381019061020391906110f8565b610520565b005b610224600480360381019061021f91906110f8565b6105b1565b005b610240600480360381019061023b91906110f8565b610642565b005b61024a6106b3565b005b6102546107fd565b6040516102619190611197565b60405180910390f35b610284600480360381019061027f91906110f8565b610824565b005b6102a0600480360381019061029b91906111b2565b6108b5565b6040516102ad919061107f565b60405180910390f35b6102be610920565b6040516102cb9190611197565b60405180910390f35b6102ee60048036038101906102e991906110f8565b610927565b005b61030a600480360381019061030591906110f8565b6109b8565b604051610317919061107f565b60405180910390f35b6103286109ce565b6040516103359190611197565b60405180910390f35b610358600480360381019061035391906111b2565b6109f5565b005b610374600480360381019061036f91906110f8565b610a16565b005b60007f7965db0b000000000000000000000000000000000000000000000000000000007bffffffffffffffffffffffffffffffffffffffffffffffffffffffff1916827bffffffffffffffffffffffffffffffffffffffffffffffffffffffff191614806103e957506103e882610a87565b5b9050919050565b600061041f7f9f2df0fed2c77648de5860a4cc508cd0818c85b8b8a1ab4ceeef8d981c8956a660001b836108b5565b9050919050565b60006104557f9d49f397ae9ef1a834b569acb967799a367061e305932181a44f5773da873bfd60001b836108b5565b9050919050565b600060656000838152602001908152602001600020600101549050919050565b6104858261045c565b61048e81610af1565b6104988383610b05565b505050565b6104a5610be6565b73ffffffffffffffffffffffffffffffffffffffff168173ffffffffffffffffffffffffffffffffffffffff1614610512576040517f08c379a000000000000000000000000000000000000000000000000000000000815260040161050990611275565b60405180910390fd5b61051c8282610bee565b5050565b61054d7f9d49f397ae9ef1a834b569acb967799a367061e305932181a44f5773da873bfd60001b8261047c565b610555610be6565b73ffffffffffffffffffffffffffffffffffffffff168173ffffffffffffffffffffffffffffffffffffffff167f1d5f9ec24c6f91be922ea13ceaad919ad6554a41b5c26087f96289a9baf98ad260405160405180910390a350565b6105de7f9f2df0fed2c77648de5860a4cc508cd0818c85b8b8a1ab4ceeef8d981c8956a660001b826109f5565b6105e6610be6565b73ffffffffffffffffffffffffffffffffffffffff168173ffffffffffffffffffffffffffffffffffffffff167f56692a161ffec953ddf9def93b958ea8d1ec95e21b80870c66be91a4374dc4e360405160405180910390a350565b61064f6000801b8261047c565b610657610be6565b73ffffffffffffffffffffffffffffffffffffffff168173ffffffffffffffffffffffffffffffffffffffff167f2570ac42fd8b322dc453ada624dc2ed0e9bdd67f16f201a25bbd30468f2aa18760405160405180910390a350565b60008060019054906101000a900460ff161590508080156106e45750600160008054906101000a900460ff1660ff16105b8061071157506106f330610cd0565b1580156107105750600160008054906101000a900460ff1660ff16145b5b610750576040517f08c379a000000000000000000000000000000000000000000000000000000000815260040161074790611307565b60405180910390fd5b60016000806101000a81548160ff021916908360ff160217905550801561078d576001600060016101000a81548160ff0219169083151502179055505b6107a16000801b61079c610be6565b610cf3565b80156107fa5760008060016101000a81548160ff0219169083151502179055507f7f26b83ff96e1f2b6a682f133852f6798a09c465da95921460cefb384740249860016040516107f19190611379565b60405180910390a15b50565b7f9d49f397ae9ef1a834b569acb967799a367061e305932181a44f5773da873bfd60001b81565b6108517f9d49f397ae9ef1a834b569acb967799a367061e305932181a44f5773da873bfd60001b826109f5565b610859610be6565b73ffffffffffffffffffffffffffffffffffffffff168173ffffffffffffffffffffffffffffffffffffffff167fe5f1aa9e528307345194b88b24a32401c13926e0823060f1049d9b26c0bb62b260405160405180910390a350565b60006065600084815260200190815260200160002060000160008373ffffffffffffffffffffffffffffffffffffffff1673ffffffffffffffffffffffffffffffffffffffff16815260200190815260200160002060009054906101000a900460ff16905092915050565b6000801b81565b6109547f9f2df0fed2c77648de5860a4cc508cd0818c85b8b8a1ab4ceeef8d981c8956a660001b8261047c565b61095c610be6565b73ffffffffffffffffffffffffffffffffffffffff168173ffffffffffffffffffffffffffffffffffffffff167f0be6ab9784c7401fafb73f7bc47bc67cc4ef8c47a60ad3cb66d1de0353a0784c60405160405180910390a350565b60006109c76000801b836108b5565b9050919050565b7f9f2df0fed2c77648de5860a4cc508cd0818c85b8b8a1ab4ceeef8d981c8956a660001b81565b6109fe8261045c565b610a0781610af1565b610a118383610bee565b505050565b610a236000801b826109f5565b610a2b610be6565b73ffffffffffffffffffffffffffffffffffffffff168173ffffffffffffffffffffffffffffffffffffffff167f21ba1239795d4e22874e3dc55f0a9d7b65bfb23069d32965d7c23be9524ccf9560405160405180910390a350565b60007f01ffc9a7000000000000000000000000000000000000000000000000000000007bffffffffffffffffffffffffffffffffffffffffffffffffffffffff1916827bffffffffffffffffffffffffffffffffffffffffffffffffffffffff1916149050919050565b610b0281610afd610be6565b610d01565b50565b610b0f82826108b5565b610be25760016065600084815260200190815260200160002060000160008373ffffffffffffffffffffffffffffffffffffffff1673ffffffffffffffffffffffffffffffffffffffff16815260200190815260200160002060006101000a81548160ff021916908315150217905550610b87610be6565b73ffffffffffffffffffffffffffffffffffffffff168173ffffffffffffffffffffffffffffffffffffffff16837f2f8788117e7eff1d82e926ec794901d17c78024a50270940304540a733656f0d60405160405180910390a45b5050565b600033905090565b610bf882826108b5565b15610ccc5760006065600084815260200190815260200160002060000160008373ffffffffffffffffffffffffffffffffffffffff1673ffffffffffffffffffffffffffffffffffffffff16815260200190815260200160002060006101000a81548160ff021916908315150217905550610c71610be6565b73ffffffffffffffffffffffffffffffffffffffff168173ffffffffffffffffffffffffffffffffffffffff16837ff6391f5c32d9c69d2a47ea670b442974b53935d1edc7fd64eb21e047a839171b60405160405180910390a45b5050565b6000808273ffffffffffffffffffffffffffffffffffffffff163b119050919050565b610cfd8282610b05565b5050565b610d0b82826108b5565b610d9a57610d308173ffffffffffffffffffffffffffffffffffffffff166014610d9e565b610d3e8360001c6020610d9e565b604051602001610d4f92919061149d565b6040516020818303038152906040526040517f08c379a0000000000000000000000000000000000000000000000000000000008152600401610d919190611521565b60405180910390fd5b5050565b606060006002836002610db1919061157c565b610dbb91906115d6565b67ffffffffffffffff811115610dd457610dd361160a565b5b6040519080825280601f01601f191660200182016040528015610e065781602001600182028036833780820191505090505b5090507f300000000000000000000000000000000000000000000000000000000000000081600081518110610e3e57610e3d611639565b5b60200101907effffffffffffffffffffffffffffffffffffffffffffffffffffffffffffff1916908160001a9053507f780000000000000000000000000000000000000000000000000000000000000081600181518110610ea257610ea1611639565b5b60200101907effffffffffffffffffffffffffffffffffffffffffffffffffffffffffffff1916908160001a90535060006001846002610ee2919061157c565b610eec91906115d6565b90505b6001811115610f8c577f3031323334353637383961626364656600000000000000000000000000000000600f861660108110610f2e57610f2d611639565b5b1a60f81b828281518110610f4557610f44611639565b5b60200101907effffffffffffffffffffffffffffffffffffffffffffffffffffffffffffff1916908160001a905350600485901c945080610f8590611668565b9050610eef565b5060008414610fd0576040517f08c379a0000000000000000000000000000000000000000000000000000000008152600401610fc7906116dd565b60405180910390fd5b8091505092915050565b600080fd5b60007fffffffff0000000000000000000000000000000000000000000000000000000082169050919050565b61101481610fdf565b811461101f57600080fd5b50565b6000813590506110318161100b565b92915050565b60006020828403121561104d5761104c610fda565b5b600061105b84828501611022565b91505092915050565b60008115159050919050565b61107981611064565b82525050565b60006020820190506110946000830184611070565b92915050565b600073ffffffffffffffffffffffffffffffffffffffff82169050919050565b60006110c58261109a565b9050919050565b6110d5816110ba565b81146110e057600080fd5b50565b6000813590506110f2816110cc565b92915050565b60006020828403121561110e5761110d610fda565b5b600061111c848285016110e3565b91505092915050565b6000819050919050565b61113881611125565b811461114357600080fd5b50565b6000813590506111558161112f565b92915050565b60006020828403121561117157611170610fda565b5b600061117f84828501611146565b91505092915050565b61119181611125565b82525050565b60006020820190506111ac6000830184611188565b92915050565b600080604083850312156111c9576111c8610fda565b5b60006111d785828601611146565b92505060206111e8858286016110e3565b9150509250929050565b600082825260208201905092915050565b7f416363657373436f6e74726f6c3a2063616e206f6e6c792072656e6f756e636560008201527f20726f6c657320666f722073656c660000000000000000000000000000000000602082015250565b600061125f602f836111f2565b915061126a82611203565b604082019050919050565b6000602082019050818103600083015261128e81611252565b9050919050565b7f496e697469616c697a61626c653a20636f6e747261637420697320616c72656160008201527f647920696e697469616c697a6564000000000000000000000000000000000000602082015250565b60006112f1602e836111f2565b91506112fc82611295565b604082019050919050565b60006020820190508181036000830152611320816112e4565b9050919050565b6000819050919050565b600060ff82169050919050565b6000819050919050565b600061136361135e61135984611327565b61133e565b611331565b9050919050565b61137381611348565b82525050565b600060208201905061138e600083018461136a565b92915050565b600081905092915050565b7f416363657373436f6e74726f6c3a206163636f756e7420000000000000000000600082015250565b60006113d5601783611394565b91506113e08261139f565b601782019050919050565b600081519050919050565b60005b838110156114145780820151818401526020810190506113f9565b60008484015250505050565b600061142b826113eb565b6114358185611394565b93506114458185602086016113f6565b80840191505092915050565b7f206973206d697373696e6720726f6c6520000000000000000000000000000000600082015250565b6000611487601183611394565b915061149282611451565b601182019050919050565b60006114a8826113c8565b91506114b48285611420565b91506114bf8261147a565b91506114cb8284611420565b91508190509392505050565b6000601f19601f8301169050919050565b60006114f3826113eb565b6114fd81856111f2565b935061150d8185602086016113f6565b611516816114d7565b840191505092915050565b6000602082019050818103600083015261153b81846114e8565b905092915050565b6000819050919050565b7f4e487b7100000000000000000000000000000000000000000000000000000000600052601160045260246000fd5b600061158782611543565b915061159283611543565b9250817fffffffffffffffffffffffffffffffffffffffffffffffffffffffffffffffff04831182151516156115cb576115ca61154d565b5b828202905092915050565b60006115e182611543565b91506115ec83611543565b92508282019050808211156116045761160361154d565b5b92915050565b7f4e487b7100000000000000000000000000000000000000000000000000000000600052604160045260246000fd5b7f4e487b7100000000000000000000000000000000000000000000000000000000600052603260045260246000fd5b600061167382611543565b9150600082036116865761168561154d565b5b600182039050919050565b7f537472696e67733a20686578206c656e67746820696e73756666696369656e74600082015250565b60006116c76020836111f2565b91506116d282611691565b602082019050919050565b600060208201905081810360008301526116f6816116ba565b905091905056fea2646970667358221220c25f61db108d45f44137d590366b09de87cb18722cbe67dfd0b3df9a297b04b264736f6c63430008100033",
  "devdoc": {
    "kind": "dev",
    "methods": {
      "addAdminRole(address)": {
        "details": "The sender must have the admin role",
        "params": {
          "_address": "EOA or contract receiving the new role"
        }
      },
      "addMinterRole(address)": {
        "details": "The sender must have the admin role",
        "params": {
          "_address": "EOA or contract receiving the new role"
        }
      },
      "addSmartContractRole(address)": {
        "details": "The sender must have the admin role",
        "params": {
          "_address": "EOA or contract receiving the new role"
        }
      },
      "getRoleAdmin(bytes32)": {
        "details": "Returns the admin role that controls `role`. See {grantRole} and {revokeRole}. To change a role's admin, use {_setRoleAdmin}."
      },
      "grantRole(bytes32,address)": {
        "details": "Grants `role` to `account`. If `account` had not been already granted `role`, emits a {RoleGranted} event. Requirements: - the caller must have ``role``'s admin role. May emit a {RoleGranted} event."
      },
      "hasAdminRole(address)": {
        "params": {
          "_address": "EOA or contract being checked"
        },
        "returns": {
          "_0": "bool True if the account has the role or false if it does not"
        }
      },
      "hasMinterRole(address)": {
        "params": {
          "_address": "EOA or contract being checked"
        },
        "returns": {
          "_0": "bool True if the account has the role or false if it does not"
        }
      },
      "hasRole(bytes32,address)": {
        "details": "Returns `true` if `account` has been granted `role`."
      },
      "hasSmartContractRole(address)": {
        "params": {
          "_address": "EOA or contract being checked"
        },
        "returns": {
          "_0": "bool True if the account has the role or false if it does not"
        }
      },
      "removeAdminRole(address)": {
        "details": "The sender must have the admin role",
        "params": {
          "_address": "EOA or contract affected"
        }
      },
      "removeMinterRole(address)": {
        "details": "The sender must have the admin role",
        "params": {
          "_address": "EOA or contract affected"
        }
      },
      "removeSmartContractRole(address)": {
        "details": "The sender must have the admin role",
        "params": {
          "_address": "EOA or contract affected"
        }
      },
      "renounceRole(bytes32,address)": {
        "details": "Revokes `role` from the calling account. Roles are often managed via {grantRole} and {revokeRole}: this function's purpose is to provide a mechanism for accounts to lose their privileges if they are compromised (such as when a trusted device is misplaced). If the calling account had been revoked `role`, emits a {RoleRevoked} event. Requirements: - the caller must be `account`. May emit a {RoleRevoked} event."
      },
      "revokeRole(bytes32,address)": {
        "details": "Revokes `role` from `account`. If `account` had been granted `role`, emits a {RoleRevoked} event. Requirements: - the caller must have ``role``'s admin role. May emit a {RoleRevoked} event."
      },
      "supportsInterface(bytes4)": {
        "details": "See {IERC165-supportsInterface}."
      }
    },
    "version": 1
  },
  "userdoc": {
    "events": {
      "AdminRoleGranted(address,address)": {
        "notice": "Events for adding and removing various roles"
      }
    },
    "kind": "user",
    "methods": {
      "MINTER_ROLE()": {
        "notice": "Role definitions"
      },
      "addAdminRole(address)": {
        "notice": "Grants the admin role to an address"
      },
      "addMinterRole(address)": {
        "notice": "Grants the minter role to an address"
      },
      "addSmartContractRole(address)": {
        "notice": "Grants the smart contract role to an address"
      },
      "hasAdminRole(address)": {
        "notice": "Used to check whether an address has the admin role"
      },
      "hasMinterRole(address)": {
        "notice": "Used to check whether an address has the minter role"
      },
      "hasSmartContractRole(address)": {
        "notice": "Used to check whether an address has the smart contract role"
      },
      "initialize()": {
        "notice": "The deployer is automatically given the admin role which will allow them to then grant roles to other addresses"
      },
      "removeAdminRole(address)": {
        "notice": "Removes the admin role from an address"
      },
      "removeMinterRole(address)": {
        "notice": "Removes the minter role from an address"
      },
      "removeSmartContractRole(address)": {
        "notice": "Removes the smart contract role from an address"
      }
    },
    "notice": "Access Controls contract for the Market Trading Platform",
    "version": 1
  },
  "storageLayout": {
    "storage": [
      {
        "astId": 551,
        "contract": "contracts/SolidAccessControl.sol:SolidAccessControl",
        "label": "_initialized",
        "offset": 0,
        "slot": "0",
        "type": "t_uint8"
      },
      {
        "astId": 554,
        "contract": "contracts/SolidAccessControl.sol:SolidAccessControl",
        "label": "_initializing",
        "offset": 1,
        "slot": "0",
        "type": "t_bool"
      },
      {
        "astId": 3455,
        "contract": "contracts/SolidAccessControl.sol:SolidAccessControl",
        "label": "__gap",
        "offset": 0,
        "slot": "1",
        "type": "t_array(t_uint256)50_storage"
      },
      {
        "astId": 3725,
        "contract": "contracts/SolidAccessControl.sol:SolidAccessControl",
        "label": "__gap",
        "offset": 0,
        "slot": "51",
        "type": "t_array(t_uint256)50_storage"
      },
      {
        "astId": 39,
        "contract": "contracts/SolidAccessControl.sol:SolidAccessControl",
        "label": "_roles",
        "offset": 0,
        "slot": "101",
        "type": "t_mapping(t_bytes32,t_struct(RoleData)34_storage)"
      },
      {
        "astId": 338,
        "contract": "contracts/SolidAccessControl.sol:SolidAccessControl",
        "label": "__gap",
        "offset": 0,
        "slot": "102",
        "type": "t_array(t_uint256)49_storage"
      }
    ],
    "types": {
      "t_address": {
        "encoding": "inplace",
        "label": "address",
        "numberOfBytes": "20"
      },
      "t_array(t_uint256)49_storage": {
        "base": "t_uint256",
        "encoding": "inplace",
        "label": "uint256[49]",
        "numberOfBytes": "1568"
      },
      "t_array(t_uint256)50_storage": {
        "base": "t_uint256",
        "encoding": "inplace",
        "label": "uint256[50]",
        "numberOfBytes": "1600"
      },
      "t_bool": {
        "encoding": "inplace",
        "label": "bool",
        "numberOfBytes": "1"
      },
      "t_bytes32": {
        "encoding": "inplace",
        "label": "bytes32",
        "numberOfBytes": "32"
      },
      "t_mapping(t_address,t_bool)": {
        "encoding": "mapping",
        "key": "t_address",
        "label": "mapping(address => bool)",
        "numberOfBytes": "32",
        "value": "t_bool"
      },
      "t_mapping(t_bytes32,t_struct(RoleData)34_storage)": {
        "encoding": "mapping",
        "key": "t_bytes32",
        "label": "mapping(bytes32 => struct AccessControlUpgradeable.RoleData)",
        "numberOfBytes": "32",
        "value": "t_struct(RoleData)34_storage"
      },
      "t_struct(RoleData)34_storage": {
        "encoding": "inplace",
        "label": "struct AccessControlUpgradeable.RoleData",
        "members": [
          {
            "astId": 31,
            "contract": "contracts/SolidAccessControl.sol:SolidAccessControl",
            "label": "members",
            "offset": 0,
            "slot": "0",
            "type": "t_mapping(t_address,t_bool)"
          },
          {
            "astId": 33,
            "contract": "contracts/SolidAccessControl.sol:SolidAccessControl",
            "label": "adminRole",
            "offset": 0,
            "slot": "1",
            "type": "t_bytes32"
          }
        ],
        "numberOfBytes": "64"
      },
      "t_uint256": {
        "encoding": "inplace",
        "label": "uint256",
        "numberOfBytes": "32"
      },
      "t_uint8": {
        "encoding": "inplace",
        "label": "uint8",
        "numberOfBytes": "1"
      }
    }
  }
}