{
  "address": "0x7a08E79E31B1eBAf38cE25Afb2f48a936aA89380",
  "abi": [
    {
      "inputs": [
        {
          "internalType": "uint256",
          "name": "amountOut",
          "type": "uint256"
        },
        {
          "internalType": "uint256",
          "name": "minAmountOut",
          "type": "uint256"
        }
      ],
      "name": "AmountOutLessThanMinimum",
      "type": "error"
    },
    {
      "inputs": [
        {
          "internalType": "uint256",
          "name": "amountOut",
          "type": "uint256"
        }
      ],
      "name": "AmountOutTooLow",
      "type": "error"
    },
    {
      "inputs": [
        {
          "internalType": "uint256",
          "name": "batchId",
          "type": "uint256"
        }
      ],
      "name": "BatchAlreadyExists",
      "type": "error"
    },
    {
      "inputs": [
        {
          "internalType": "uint32",
          "name": "dueDate",
          "type": "uint32"
        }
      ],
      "name": "BatchCertificationDateInThePast",
      "type": "error"
    },
    {
      "inputs": [
        {
          "internalType": "uint256",
          "name": "batchId",
          "type": "uint256"
        }
      ],
      "name": "BatchCertified",
      "type": "error"
    },
    {
      "inputs": [
        {
          "internalType": "uint256",
          "name": "batchId1",
          "type": "uint256"
        },
        {
          "internalType": "uint256",
          "name": "batchId2",
          "type": "uint256"
        }
      ],
      "name": "BatchesNotInSameCategory",
      "type": "error"
    },
    {
      "inputs": [
        {
          "internalType": "uint256",
          "name": "categoryId",
          "type": "uint256"
        }
      ],
      "name": "CategoryAlreadyExists",
      "type": "error"
    },
    {
      "inputs": [
        {
          "internalType": "uint256",
          "name": "forwardCreditsAmount",
          "type": "uint256"
        }
      ],
      "name": "ForwardCreditsInputAmountTooLarge",
      "type": "error"
    },
    {
      "inputs": [
        {
          "internalType": "uint256",
          "name": "startDate",
          "type": "uint256"
        },
        {
          "internalType": "uint256",
          "name": "endDate",
          "type": "uint256"
        }
      ],
      "name": "IncorrectDates",
      "type": "error"
    },
    {
      "inputs": [
        {
          "internalType": "uint256",
          "name": "batchId",
          "type": "uint256"
        }
      ],
      "name": "InvalidBatchId",
      "type": "error"
    },
    {
      "inputs": [],
      "name": "InvalidBatchSupplier",
      "type": "error"
    },
    {
      "inputs": [
        {
          "internalType": "uint256",
          "name": "categoryId",
          "type": "uint256"
        }
      ],
      "name": "InvalidCategoryId",
      "type": "error"
    },
    {
      "inputs": [],
      "name": "InvalidInput",
      "type": "error"
    },
    {
      "inputs": [
        {
          "internalType": "uint256",
          "name": "projectId",
          "type": "uint256"
        }
      ],
      "name": "InvalidProjectId",
      "type": "error"
    },
    {
      "inputs": [
        {
          "internalType": "uint256",
          "name": "projectId",
          "type": "uint256"
        }
      ],
      "name": "ProjectAlreadyExists",
      "type": "error"
    },
    {
      "inputs": [
        {
          "internalType": "address",
          "name": "account",
          "type": "address"
        }
      ],
      "name": "UnauthorizedRewardMinting",
      "type": "error"
    },
    {
      "anonymous": false,
      "inputs": [
        {
          "indexed": true,
          "internalType": "uint256",
          "name": "batchId",
          "type": "uint256"
        },
        {
          "indexed": false,
          "internalType": "uint256",
          "name": "amountIn",
          "type": "uint256"
        },
        {
          "indexed": false,
          "internalType": "uint256",
          "name": "amountOut",
          "type": "uint256"
        },
        {
          "indexed": true,
          "internalType": "address",
          "name": "batchSupplier",
          "type": "address"
        }
      ],
      "name": "BatchCollateralized",
      "type": "event"
    },
    {
      "anonymous": false,
      "inputs": [
        {
          "indexed": true,
          "internalType": "uint256",
          "name": "batchId",
          "type": "uint256"
        }
      ],
      "name": "BatchCreated",
      "type": "event"
    },
    {
      "anonymous": false,
      "inputs": [
        {
          "indexed": true,
          "internalType": "uint256",
          "name": "categoryId",
          "type": "uint256"
        }
      ],
      "name": "CategoryCreated",
      "type": "event"
    },
    {
      "anonymous": false,
      "inputs": [
        {
          "indexed": true,
          "internalType": "uint256",
          "name": "categoryId",
          "type": "uint256"
        },
        {
          "indexed": true,
          "internalType": "uint256",
          "name": "averageTA",
          "type": "uint256"
        },
        {
          "indexed": true,
          "internalType": "uint256",
          "name": "totalCollateralized",
          "type": "uint256"
        }
      ],
      "name": "CategoryRebalanced",
      "type": "event"
    },
    {
      "anonymous": false,
      "inputs": [
        {
          "indexed": true,
          "internalType": "uint256",
          "name": "categoryId",
          "type": "uint256"
        },
        {
          "indexed": true,
          "internalType": "uint256",
          "name": "volumeCoefficient",
          "type": "uint256"
        },
        {
          "indexed": true,
          "internalType": "uint256",
          "name": "decayPerSecond",
          "type": "uint256"
        },
        {
          "indexed": false,
          "internalType": "uint256",
          "name": "maxDepreciation",
          "type": "uint256"
        }
      ],
      "name": "CategoryUpdated",
      "type": "event"
    },
    {
      "anonymous": false,
      "inputs": [
        {
          "indexed": true,
          "internalType": "uint256",
          "name": "collateralizationFee",
          "type": "uint256"
        }
      ],
      "name": "CollateralizationFeeUpdated",
      "type": "event"
    },
    {
      "anonymous": false,
      "inputs": [
        {
          "indexed": true,
          "internalType": "uint256",
          "name": "decollateralizationFee",
          "type": "uint256"
        }
      ],
      "name": "DecollateralizationFeeUpdated",
      "type": "event"
    },
    {
      "anonymous": false,
      "inputs": [
        {
          "indexed": true,
          "internalType": "address",
          "name": "feeReceiver",
          "type": "address"
        }
      ],
      "name": "FeeReceiverUpdated",
      "type": "event"
    },
    {
      "anonymous": false,
      "inputs": [
        {
          "indexed": false,
          "internalType": "uint8",
          "name": "version",
          "type": "uint8"
        }
      ],
      "name": "Initialized",
      "type": "event"
    },
    {
      "anonymous": false,
      "inputs": [
        {
          "indexed": true,
          "internalType": "address",
          "name": "previousOwner",
          "type": "address"
        },
        {
          "indexed": true,
          "internalType": "address",
          "name": "newOwner",
          "type": "address"
        }
      ],
      "name": "OwnershipTransferred",
      "type": "event"
    },
    {
      "anonymous": false,
      "inputs": [
        {
          "indexed": true,
          "internalType": "uint256",
          "name": "projectId",
          "type": "uint256"
        }
      ],
      "name": "ProjectCreated",
      "type": "event"
    },
    {
      "anonymous": false,
      "inputs": [
        {
          "indexed": true,
          "internalType": "uint256",
          "name": "rewardsFee",
          "type": "uint256"
        }
      ],
      "name": "RewardsFeeUpdated",
      "type": "event"
    },
    {
      "anonymous": false,
      "inputs": [
        {
          "indexed": true,
          "internalType": "address",
          "name": "rewardsMinter",
          "type": "address"
        }
      ],
      "name": "RewardsMinterUpdated",
      "type": "event"
    },
    {
      "anonymous": false,
      "inputs": [
        {
          "indexed": true,
          "internalType": "uint256",
          "name": "batchId",
          "type": "uint256"
        },
        {
          "indexed": false,
          "internalType": "uint256",
          "name": "amountIn",
          "type": "uint256"
        },
        {
          "indexed": false,
          "internalType": "uint256",
          "name": "amountOut",
          "type": "uint256"
        },
        {
          "indexed": true,
          "internalType": "address",
          "name": "tokensOwner",
          "type": "address"
        }
      ],
      "name": "TokensDecollateralized",
      "type": "event"
    },
    {
      "anonymous": false,
      "inputs": [
        {
          "indexed": true,
          "internalType": "address",
          "name": "rewardToken",
          "type": "address"
        },
        {
          "indexed": true,
          "internalType": "uint256",
          "name": "rewardAmount",
          "type": "uint256"
        }
      ],
      "name": "WeeklyRewardMinted",
      "type": "event"
    },
    {
      "inputs": [],
      "name": "DECOLLATERALIZATION_SIMULATION_INPUT",
      "outputs": [
        {
          "internalType": "uint256",
          "name": "",
          "type": "uint256"
        }
      ],
      "stateMutability": "view",
      "type": "function"
    },
    {
      "inputs": [
        {
          "components": [
            {
              "internalType": "uint256",
              "name": "id",
              "type": "uint256"
            },
            {
              "internalType": "uint256",
              "name": "projectId",
              "type": "uint256"
            },
            {
              "internalType": "address",
              "name": "supplier",
              "type": "address"
            },
            {
              "internalType": "uint32",
              "name": "certificationDate",
              "type": "uint32"
            },
            {
              "internalType": "uint16",
              "name": "vintage",
              "type": "uint16"
            },
            {
              "internalType": "uint8",
              "name": "status",
              "type": "uint8"
            },
            {
              "internalType": "uint24",
              "name": "batchTA",
              "type": "uint24"
            }
          ],
          "internalType": "struct DomainDataTypes.Batch",
          "name": "batch",
          "type": "tuple"
        },
        {
          "internalType": "uint256",
          "name": "mintableAmount",
          "type": "uint256"
        }
      ],
      "name": "addBatch",
      "outputs": [],
      "stateMutability": "nonpayable",
      "type": "function"
    },
    {
      "inputs": [
        {
          "internalType": "uint256",
          "name": "categoryId",
          "type": "uint256"
        },
        {
          "internalType": "string",
          "name": "tokenName",
          "type": "string"
        },
        {
          "internalType": "string",
          "name": "tokenSymbol",
          "type": "string"
        },
        {
          "internalType": "uint24",
          "name": "initialTA",
          "type": "uint24"
        }
      ],
      "name": "addCategory",
      "outputs": [],
      "stateMutability": "nonpayable",
      "type": "function"
    },
    {
      "inputs": [
        {
          "internalType": "uint256",
          "name": "categoryId",
          "type": "uint256"
        },
        {
          "internalType": "uint256",
          "name": "projectId",
          "type": "uint256"
        }
      ],
      "name": "addProject",
      "outputs": [],
      "stateMutability": "nonpayable",
      "type": "function"
    },
    {
      "inputs": [
        {
          "internalType": "uint256",
          "name": "",
          "type": "uint256"
        }
      ],
      "name": "batchCategory",
      "outputs": [
        {
          "internalType": "uint256",
          "name": "",
          "type": "uint256"
        }
      ],
      "stateMutability": "view",
      "type": "function"
    },
    {
      "inputs": [
        {
          "internalType": "uint256",
          "name": "",
          "type": "uint256"
        }
      ],
      "name": "batchCreated",
      "outputs": [
        {
          "internalType": "bool",
          "name": "",
          "type": "bool"
        }
      ],
      "stateMutability": "view",
      "type": "function"
    },
    {
      "inputs": [
        {
          "internalType": "uint256",
          "name": "",
          "type": "uint256"
        }
      ],
      "name": "batchIds",
      "outputs": [
        {
          "internalType": "uint256",
          "name": "",
          "type": "uint256"
        }
      ],
      "stateMutability": "view",
      "type": "function"
    },
    {
      "inputs": [
        {
          "internalType": "uint256",
          "name": "",
          "type": "uint256"
        }
      ],
      "name": "batches",
      "outputs": [
        {
          "internalType": "uint256",
          "name": "id",
          "type": "uint256"
        },
        {
          "internalType": "uint256",
          "name": "projectId",
          "type": "uint256"
        },
        {
          "internalType": "address",
          "name": "supplier",
          "type": "address"
        },
        {
          "internalType": "uint32",
          "name": "certificationDate",
          "type": "uint32"
        },
        {
          "internalType": "uint16",
          "name": "vintage",
          "type": "uint16"
        },
        {
          "internalType": "uint8",
          "name": "status",
          "type": "uint8"
        },
        {
          "internalType": "uint24",
          "name": "batchTA",
          "type": "uint24"
        }
      ],
      "stateMutability": "view",
      "type": "function"
    },
    {
      "inputs": [
        {
          "internalType": "uint256[]",
          "name": "_batchIds",
          "type": "uint256[]"
        },
        {
          "internalType": "uint256[]",
          "name": "amountsIn",
          "type": "uint256[]"
        },
        {
          "internalType": "uint256[]",
          "name": "amountsOutMin",
          "type": "uint256[]"
        }
      ],
      "name": "bulkDecollateralizeTokens",
      "outputs": [],
      "stateMutability": "nonpayable",
      "type": "function"
    },
    {
      "inputs": [
        {
          "internalType": "uint256",
          "name": "",
          "type": "uint256"
        }
      ],
      "name": "categories",
      "outputs": [
        {
          "internalType": "uint256",
          "name": "volumeCoefficient",
          "type": "uint256"
        },
        {
          "internalType": "uint40",
          "name": "decayPerSecond",
          "type": "uint40"
        },
        {
          "internalType": "uint16",
          "name": "maxDepreciationPerYear",
          "type": "uint16"
        },
        {
          "internalType": "uint24",
          "name": "maxDepreciation",
          "type": "uint24"
        },
        {
          "internalType": "uint24",
          "name": "averageTA",
          "type": "uint24"
        },
        {
          "internalType": "uint256",
          "name": "totalCollateralized",
          "type": "uint256"
        },
        {
          "internalType": "uint32",
          "name": "lastCollateralizationTimestamp",
          "type": "uint32"
        },
        {
          "internalType": "uint256",
          "name": "lastCollateralizationMomentum",
          "type": "uint256"
        }
      ],
      "stateMutability": "view",
      "type": "function"
    },
    {
      "inputs": [
        {
          "internalType": "uint256",
          "name": "",
          "type": "uint256"
        }
      ],
      "name": "categoryIds",
      "outputs": [
        {
          "internalType": "bool",
          "name": "",
          "type": "bool"
        }
      ],
      "stateMutability": "view",
      "type": "function"
    },
    {
      "inputs": [
        {
          "internalType": "uint256",
          "name": "",
          "type": "uint256"
        },
        {
          "internalType": "uint256",
          "name": "",
          "type": "uint256"
        }
      ],
      "name": "categoryProjects",
      "outputs": [
        {
          "internalType": "uint256",
          "name": "",
          "type": "uint256"
        }
      ],
      "stateMutability": "view",
      "type": "function"
    },
    {
      "inputs": [
        {
          "internalType": "uint256",
          "name": "",
          "type": "uint256"
        }
      ],
      "name": "categoryToken",
      "outputs": [
        {
          "internalType": "contract CollateralizedBasketToken",
          "name": "",
          "type": "address"
        }
      ],
      "stateMutability": "view",
      "type": "function"
    },
    {
      "inputs": [],
      "name": "collateralizationFee",
      "outputs": [
        {
          "internalType": "uint16",
          "name": "",
          "type": "uint16"
        }
      ],
      "stateMutability": "view",
      "type": "function"
    },
    {
      "inputs": [
        {
          "internalType": "uint256",
          "name": "batchId",
          "type": "uint256"
        },
        {
          "internalType": "uint256",
          "name": "amountIn",
          "type": "uint256"
        },
        {
          "internalType": "uint256",
          "name": "amountOutMin",
          "type": "uint256"
        }
      ],
      "name": "collateralizeBatch",
      "outputs": [],
      "stateMutability": "nonpayable",
      "type": "function"
    },
    {
      "inputs": [],
      "name": "collateralizedBasketTokenDeployer",
      "outputs": [
        {
          "internalType": "contract CollateralizedBasketTokenDeployer",
          "name": "",
          "type": "address"
        }
      ],
      "stateMutability": "view",
      "type": "function"
    },
    {
      "inputs": [
        {
          "internalType": "address[]",
          "name": "assets",
          "type": "address[]"
        },
        {
          "internalType": "uint256[]",
          "name": "_categoryIds",
          "type": "uint256[]"
        }
      ],
      "name": "computeWeeklyCarbonRewards",
      "outputs": [
        {
          "internalType": "address[]",
          "name": "carbonRewards",
          "type": "address[]"
        },
        {
          "internalType": "uint256[]",
          "name": "rewardAmounts",
          "type": "uint256[]"
        },
        {
          "internalType": "uint256[]",
          "name": "rewardFees",
          "type": "uint256[]"
        }
      ],
      "stateMutability": "view",
      "type": "function"
    },
    {
      "inputs": [],
      "name": "decollateralizationFee",
      "outputs": [
        {
          "internalType": "uint16",
          "name": "",
          "type": "uint16"
        }
      ],
      "stateMutability": "view",
      "type": "function"
    },
    {
      "inputs": [
        {
          "internalType": "uint256",
          "name": "batchId",
          "type": "uint256"
        },
        {
          "internalType": "uint256",
          "name": "amountIn",
          "type": "uint256"
        },
        {
          "internalType": "uint256",
          "name": "amountOutMin",
          "type": "uint256"
        }
      ],
      "name": "decollateralizeTokens",
      "outputs": [],
      "stateMutability": "nonpayable",
      "type": "function"
    },
    {
      "inputs": [],
      "name": "feeReceiver",
      "outputs": [
        {
          "internalType": "address",
          "name": "",
          "type": "address"
        }
      ],
      "stateMutability": "view",
      "type": "function"
    },
    {
      "inputs": [],
      "name": "forwardContractBatch",
      "outputs": [
        {
          "internalType": "contract ForwardContractBatchToken",
          "name": "",
          "type": "address"
        }
      ],
      "stateMutability": "view",
      "type": "function"
    },
    {
      "inputs": [
        {
          "internalType": "uint256",
          "name": "projectId",
          "type": "uint256"
        }
      ],
      "name": "getBatchIdsByProject",
      "outputs": [
        {
          "internalType": "uint256[]",
          "name": "",
          "type": "uint256[]"
        }
      ],
      "stateMutability": "view",
      "type": "function"
    },
    {
      "inputs": [
        {
          "internalType": "uint256",
          "name": "projectId",
          "type": "uint256"
        },
        {
          "internalType": "uint256",
          "name": "vintage",
          "type": "uint256"
        }
      ],
      "name": "getBatchesDecollateralizationInfo",
      "outputs": [
        {
          "components": [
            {
              "internalType": "uint256",
              "name": "batchId",
              "type": "uint256"
            },
            {
              "internalType": "uint256",
              "name": "availableBatchTokens",
              "type": "uint256"
            },
            {
              "internalType": "uint256",
              "name": "amountOut",
              "type": "uint256"
            },
            {
              "internalType": "uint256",
              "name": "minAmountIn",
              "type": "uint256"
            },
            {
              "internalType": "uint256",
              "name": "minCbtDaoCut",
              "type": "uint256"
            }
          ],
          "internalType": "struct DomainDataTypes.TokenDecollateralizationInfo[]",
          "name": "result",
          "type": "tuple[]"
        }
      ],
      "stateMutability": "view",
      "type": "function"
    },
    {
      "inputs": [
        {
          "internalType": "uint256",
          "name": "categoryId",
          "type": "uint256"
        }
      ],
      "name": "getProjectIdsByCategory",
      "outputs": [
        {
          "internalType": "uint256[]",
          "name": "",
          "type": "uint256[]"
        }
      ],
      "stateMutability": "view",
      "type": "function"
    },
    {
      "inputs": [
        {
          "internalType": "contract CollateralizedBasketTokenDeployer",
          "name": "_collateralizedBasketTokenDeployer",
          "type": "address"
        },
        {
          "internalType": "contract ForwardContractBatchToken",
          "name": "_forwardContractBatch",
          "type": "address"
        },
        {
          "internalType": "uint16",
          "name": "_collateralizationFee",
          "type": "uint16"
        },
        {
          "internalType": "uint16",
          "name": "_decollateralizationFee",
          "type": "uint16"
        },
        {
          "internalType": "uint16",
          "name": "_rewardsFee",
          "type": "uint16"
        },
        {
          "internalType": "address",
          "name": "_feeReceiver",
          "type": "address"
        },
        {
          "internalType": "address",
          "name": "_weeklyRewardsMinter",
          "type": "address"
        }
      ],
      "name": "initialize",
      "outputs": [],
      "stateMutability": "nonpayable",
      "type": "function"
    },
    {
      "inputs": [
        {
          "internalType": "uint256[]",
          "name": "_categoryIds",
          "type": "uint256[]"
        },
        {
          "internalType": "address[]",
          "name": "carbonRewards",
          "type": "address[]"
        },
        {
          "internalType": "uint256[]",
          "name": "rewardAmounts",
          "type": "uint256[]"
        },
        {
          "internalType": "uint256[]",
          "name": "rewardFees",
          "type": "uint256[]"
        },
        {
          "internalType": "address",
          "name": "rewardsVault",
          "type": "address"
        }
      ],
      "name": "mintWeeklyCarbonRewards",
      "outputs": [],
      "stateMutability": "nonpayable",
      "type": "function"
    },
    {
      "inputs": [
        {
          "internalType": "address",
          "name": "",
          "type": "address"
        },
        {
          "internalType": "address",
          "name": "",
          "type": "address"
        },
        {
          "internalType": "uint256[]",
          "name": "",
          "type": "uint256[]"
        },
        {
          "internalType": "uint256[]",
          "name": "",
          "type": "uint256[]"
        },
        {
          "internalType": "bytes",
          "name": "",
          "type": "bytes"
        }
      ],
      "name": "onERC1155BatchReceived",
      "outputs": [
        {
          "internalType": "bytes4",
          "name": "",
          "type": "bytes4"
        }
      ],
      "stateMutability": "nonpayable",
      "type": "function"
    },
    {
      "inputs": [
        {
          "internalType": "address",
          "name": "",
          "type": "address"
        },
        {
          "internalType": "address",
          "name": "",
          "type": "address"
        },
        {
          "internalType": "uint256",
          "name": "",
          "type": "uint256"
        },
        {
          "internalType": "uint256",
          "name": "",
          "type": "uint256"
        },
        {
          "internalType": "bytes",
          "name": "",
          "type": "bytes"
        }
      ],
      "name": "onERC1155Received",
      "outputs": [
        {
          "internalType": "bytes4",
          "name": "",
          "type": "bytes4"
        }
      ],
      "stateMutability": "nonpayable",
      "type": "function"
    },
    {
      "inputs": [],
      "name": "owner",
      "outputs": [
        {
          "internalType": "address",
          "name": "",
          "type": "address"
        }
      ],
      "stateMutability": "view",
      "type": "function"
    },
    {
      "inputs": [
        {
          "internalType": "uint256",
          "name": "",
          "type": "uint256"
        },
        {
          "internalType": "uint256",
          "name": "",
          "type": "uint256"
        }
      ],
      "name": "projectBatches",
      "outputs": [
        {
          "internalType": "uint256",
          "name": "",
          "type": "uint256"
        }
      ],
      "stateMutability": "view",
      "type": "function"
    },
    {
      "inputs": [
        {
          "internalType": "uint256",
          "name": "",
          "type": "uint256"
        }
      ],
      "name": "projectCategory",
      "outputs": [
        {
          "internalType": "uint256",
          "name": "",
          "type": "uint256"
        }
      ],
      "stateMutability": "view",
      "type": "function"
    },
    {
      "inputs": [
        {
          "internalType": "uint256",
          "name": "",
          "type": "uint256"
        }
      ],
      "name": "projectIds",
      "outputs": [
        {
          "internalType": "bool",
          "name": "",
          "type": "bool"
        }
      ],
      "stateMutability": "view",
      "type": "function"
    },
    {
      "inputs": [],
      "name": "renounceOwnership",
      "outputs": [],
      "stateMutability": "nonpayable",
      "type": "function"
    },
    {
      "inputs": [],
      "name": "rewardsFee",
      "outputs": [
        {
          "internalType": "uint16",
          "name": "",
          "type": "uint16"
        }
      ],
      "stateMutability": "view",
      "type": "function"
    },
    {
      "inputs": [
        {
          "internalType": "uint16",
          "name": "_collateralizationFee",
          "type": "uint16"
        }
      ],
      "name": "setCollateralizationFee",
      "outputs": [],
      "stateMutability": "nonpayable",
      "type": "function"
    },
    {
      "inputs": [
        {
          "internalType": "uint16",
          "name": "_decollateralizationFee",
          "type": "uint16"
        }
      ],
      "name": "setDecollateralizationFee",
      "outputs": [],
      "stateMutability": "nonpayable",
      "type": "function"
    },
    {
      "inputs": [
        {
          "internalType": "address",
          "name": "_feeReceiver",
          "type": "address"
        }
      ],
      "name": "setFeeReceiver",
      "outputs": [],
      "stateMutability": "nonpayable",
      "type": "function"
    },
    {
      "inputs": [
        {
          "internalType": "uint16",
          "name": "_rewardsFee",
          "type": "uint16"
        }
      ],
      "name": "setRewardsFee",
      "outputs": [],
      "stateMutability": "nonpayable",
      "type": "function"
    },
    {
      "inputs": [
        {
          "internalType": "address",
          "name": "_weeklyRewardsMinter",
          "type": "address"
        }
      ],
      "name": "setWeeklyRewardsMinter",
      "outputs": [],
      "stateMutability": "nonpayable",
      "type": "function"
    },
    {
      "inputs": [
        {
          "internalType": "uint256",
          "name": "batchId",
          "type": "uint256"
        },
        {
          "internalType": "uint256",
          "name": "amountIn",
          "type": "uint256"
        }
      ],
      "name": "simulateBatchCollateralization",
      "outputs": [
        {
          "internalType": "uint256",
          "name": "cbtUserCut",
          "type": "uint256"
        },
        {
          "internalType": "uint256",
          "name": "cbtDaoCut",
          "type": "uint256"
        },
        {
          "internalType": "uint256",
          "name": "cbtForfeited",
          "type": "uint256"
        }
      ],
      "stateMutability": "view",
      "type": "function"
    },
    {
      "inputs": [
        {
          "internalType": "uint256",
          "name": "batchId",
          "type": "uint256"
        },
        {
          "internalType": "uint256",
          "name": "amountIn",
          "type": "uint256"
        }
      ],
      "name": "simulateDecollateralization",
      "outputs": [
        {
          "internalType": "uint256",
          "name": "amountOut",
          "type": "uint256"
        },
        {
          "internalType": "uint256",
          "name": "minAmountIn",
          "type": "uint256"
        },
        {
          "internalType": "uint256",
          "name": "minCbtDaoCut",
          "type": "uint256"
        }
      ],
      "stateMutability": "view",
      "type": "function"
    },
    {
      "inputs": [
        {
          "internalType": "bytes4",
          "name": "interfaceId",
          "type": "bytes4"
        }
      ],
      "name": "supportsInterface",
      "outputs": [
        {
          "internalType": "bool",
          "name": "",
          "type": "bool"
        }
      ],
      "stateMutability": "pure",
      "type": "function"
    },
    {
      "inputs": [
        {
          "internalType": "address",
          "name": "newOwner",
          "type": "address"
        }
      ],
      "name": "transferOwnership",
      "outputs": [],
      "stateMutability": "nonpayable",
      "type": "function"
    },
    {
      "inputs": [
        {
          "internalType": "uint256",
          "name": "categoryId",
          "type": "uint256"
        },
        {
          "internalType": "uint256",
          "name": "volumeCoefficient",
          "type": "uint256"
        },
        {
          "internalType": "uint40",
          "name": "decayPerSecond",
          "type": "uint40"
        },
        {
          "internalType": "uint16",
          "name": "maxDepreciationPerYear",
          "type": "uint16"
        },
        {
          "internalType": "uint24",
          "name": "maxDepreciation",
          "type": "uint24"
        }
      ],
      "name": "updateCategory",
      "outputs": [],
      "stateMutability": "nonpayable",
      "type": "function"
    },
    {
      "inputs": [],
      "name": "weeklyRewardsMinter",
      "outputs": [
        {
          "internalType": "address",
          "name": "",
          "type": "address"
        }
      ],
      "stateMutability": "view",
      "type": "function"
    }
  ],
  "transactionHash": "0xd1185461bf0d509fb35493913cdd98270e4f4626471980001fd6252b49541b3b",
  "args": [],
  "numDeployments": 1,
  "solcInputHash": "cf8f3352dfe6ee513e2f552cf0b34ac8",
  "bytecode": "0x608060405234801561001057600080fd5b506155ca80620000216000396000f3fe608060405234801561001057600080fd5b506004361061027f5760003560e01c8063a3d334a11161015c578063d63098dd116100ce578063f2fde38b11610087578063f2fde38b146107f0578063f468ae9914610803578063f7c3fec214610818578063f9328d941461082b578063f9be94f21461083e578063fb5ba8eb1461085157600080fd5b8063d63098dd14610752578063da12b23514610775578063dacc181a14610788578063ef016cdd146107ab578063efdcd974146107be578063f23a6e61146107d157600080fd5b8063b3f0067411610120578063b3f006741461060c578063b505ab861461061f578063b5ca64ec14610632578063bc197c8114610642578063c007acf61461067a578063c6cdbe5e1461068d57600080fd5b8063a3d334a114610502578063abdc102214610515578063b2c6f00c14610528578063b32c4d8d1461053b578063b3d346b9146105f957600080fd5b80635ba18df8116101f55780638cbacb8d116101b95780638cbacb8d146104855780638da5cb5b14610498578063915e9913146104a957806393fa0581146104c9578063940870dc146104dc578063a0595582146104ef57600080fd5b80635ba18df8146104175780635c4e7a051461042a5780636a2848e31461043d578063715018a61461045d5780637902298e1461046557600080fd5b806321173d3e1161024757806321173d3e1461034a57806322cfa225146103785780632bb14e1d146103b95780632c5dd8a9146103ce57806348c35ad4146103e15780634dccd3951461040457600080fd5b806301ffc9a714610284578063084951cf146102bd578063148dfdee146102e55780631d3ad554146102fa5780631fb0a6241461031c575b600080fd5b6102a861029236600461489d565b6001600160e01b031916636cdb3d1360e11b1490565b60405190151581526020015b60405180910390f35b60a5546102d290600160b01b900461ffff1681565b60405161ffff90911681526020016102b4565b6102f86102f33660046148e8565b610864565b005b61030d610308366004614995565b610a0f565b6040516102b493929190614a3b565b61032f61032a366004614aa6565b610c7f565b604080519384526020840192909252908201526060016102b4565b61036a610358366004614ac8565b60a06020526000908152604090205481565b6040519081526020016102b4565b6103a1610386366004614ac8565b609d602052600090815260409020546001600160a01b031681565b6040516001600160a01b0390911681526020016102b4565b60a5546102d290600160c01b900461ffff1681565b6102f86103dc366004614ae1565b610e78565b6102a86103ef366004614ac8565b60996020526000908152604090205460ff1681565b61036a610412366004614aa6565b610e84565b6102f8610425366004614b13565b610eb5565b6102f8610438366004614be9565b6110dc565b61036a61044b366004614ac8565b609f6020526000908152604090205481565b6102f86110e5565b610478610473366004614aa6565b6110f9565b6040516102b49190614c06565b60a4546103a1906001600160a01b031681565b6033546001600160a01b03166103a1565b6104bc6104b7366004614ac8565b6113d2565b6040516102b49190614c74565b61032f6104d7366004614aa6565b611434565b6102f86104ea366004614c87565b611451565b6102f86104fd366004614ae1565b6115e9565b60a5546103a1906001600160a01b031681565b6102f8610523366004614d20565b6115f2565b61036a610536366004614aa6565b61176f565b6105a6610549366004614ac8565b609c602052600090815260409020805460018201546002909201549091906001600160a01b03811690600160a01b810463ffffffff1690600160c01b810461ffff1690600160d01b810460ff1690600160d81b900462ffffff1687565b6040805197885260208801969096526001600160a01b039094169486019490945263ffffffff909116606085015261ffff16608084015260ff90911660a083015262ffffff1660c082015260e0016102b4565b61036a610607366004614ac8565b61178b565b60a3546103a1906001600160a01b031681565b6102f861062d366004614db6565b6117ac565b61036a683635c9adc5dea0000081565b610661610650366004614f16565b63bc197c8160e01b95945050505050565b6040516001600160e01b031990911681526020016102b4565b6102f8610688366004614db6565b611bfe565b6106fd61069b366004614ac8565b60986020526000908152604090208054600182015460028301546003840154600490940154929364ffffffffff83169361ffff600160281b8504169362ffffff600160381b8204811694600160501b9092041692909163ffffffff9091169088565b6040805198895264ffffffffff909716602089015261ffff9095169587019590955262ffffff92831660608701529116608085015260a084015263ffffffff90911660c083015260e0820152610100016102b4565b6102a8610760366004614ac8565b60976020526000908152604090205460ff1681565b6104bc610783366004614ac8565b611c26565b6102a8610796366004614ac8565b609a6020526000908152604090205460ff1681565b6102f86107b9366004614aa6565b611c86565b6102f86107cc366004614be9565b611d5a565b6106616107df366004614fc3565b63f23a6e6160e01b95945050505050565b6102f86107fe366004614be9565b611d63565b60a5546102d290600160a01b900461ffff1681565b6102f8610826366004614ae1565b611dd9565b6102f861083936600461502b565b611de2565b6102f861084c36600461509e565b612046565b60a2546103a1906001600160a01b031681565b60008581526097602052604090205460ff1661089b5760405163092483a160e11b8152600481018690526024015b60405180910390fd5b8315806108ad575064ffffffffff8316155b156108cb5760405163b4fa3fb360e01b815260040160405180910390fd5b60008581526098602090815260409182902082516101008101845281548152600182015464ffffffffff81169382019390935261ffff600160281b840481169482019490945262ffffff600160381b840481166060830152600160501b9093049092166080830152600281015460a0830152600381015463ffffffff1660c0830152600481015460e08301529161096691908790861661218f565b600482015584815560018101805464ffffffffff861666ffffffffffffff199091168117600160281b61ffff8716021769ffffff000000000000001916600160381b62ffffff86169081029190911790925560038301805463ffffffff19164263ffffffff1617905560405191825290869088907fa4cbd1903de80f86e1a9a2e630f758a278790366d92be399714a4938b763a0119060200160405180910390a4505050505050565b60608080858414610a335760405163b4fa3fb360e01b815260040160405180910390fd5b856001600160401b03811115610a4b57610a4b614de2565b604051908082528060200260200182016040528015610a74578160200160208202803683370190505b509250856001600160401b03811115610a8f57610a8f614de2565b604051908082528060200260200182016040528015610ab8578160200160208202803683370190505b509150856001600160401b03811115610ad357610ad3614de2565b604051908082528060200260200182016040528015610afc578160200160208202803683370190505b50905060005b86811015610c74576000868683818110610b1e57610b1e615129565b60209081029290920135600081815260979093526040909220549192505060ff16610b5f5760405163092483a160e11b815260048101829052602401610892565b6000818152609d6020908152604080832054815163313ce56760e01b815291516001600160a01b0390911693928392610be8928792879263313ce56792600480830193928290030181865afa158015610bbc573d6000803e3d6000fd5b505050506040513d601f19601f82011682018060405250810190610be0919061514e565b60ff166121d4565b9150915082888681518110610bff57610bff615129565b60200260200101906001600160a01b031690816001600160a01b03168152505081878681518110610c3257610c32615129565b60200260200101818152505080868681518110610c5157610c51615129565b602002602001018181525050505050508080610c6c90615181565b915050610b02565b509450945094915050565b6000828152609a602052604081205481908190859060ff16610cb757604051632e46319160e21b815260048101829052602401610892565b85610cc18161237a565b15610ce257604051630406a37f60e01b815260048101829052602401610892565b85600003610d035760405163b4fa3fb360e01b815260040160405180910390fd5b600087815260a0602090815260408083205483526098909152812090610d28896123a0565b604080516101008101825284548152600185015464ffffffffff8116602083015261ffff600160281b8204169282019290925262ffffff600160381b830481166060830152600160501b9092049091166080820152600284015460a0820152600384015463ffffffff1660c0820152600484015460e0820152909150600090610db1908a6123d5565b915050610e65609c60008c815260200190815260200160002060020160149054906101000a900463ffffffff1663ffffffff168a8360a560149054906101000a900461ffff1661ffff16866001600160a01b031663313ce5676040518163ffffffff1660e01b8152600401602060405180830381865afa158015610e39573d6000803e3d6000fd5b505050506040513d601f19601f82011682018060405250810190610e5d919061514e565b60ff166124e3565b919c909b50909950975050505050505050565b610e8181612580565b50565b60a16020528160005260406000208181548110610ea057600080fd5b90600052602060002001600091509150505481565b8786141580610ec45750858414155b80610ecf5750838214155b15610eed5760405163b4fa3fb360e01b815260040160405180910390fd5b60a4546001600160a01b03163314610f1a5760405163d68a9ef760e01b8152336004820152602401610892565b60005b868110156110d0576000888883818110610f3957610f39615129565b9050602002016020810190610f4e9190614be9565b9050806000888885818110610f6557610f65615129565b6040516340c10f1960e01b81526001600160a01b038981166004830152602090920293909301356024840181905293508416916340c10f199150604401600060405180830381600087803b158015610fbc57600080fd5b505af1158015610fd0573d6000803e3d6000fd5b50506040518392506001600160a01b03861691507f2a4c118f91681e604a13a2fbe69bf4829feeab31b75c4de33b825ab6738d93d490600090a360a3546001600160a01b03808416916340c10f19911689898881811061103257611032615129565b6040516001600160e01b031960e087901b1681526001600160a01b0390941660048501526020029190910135602483015250604401600060405180830381600087803b15801561108157600080fd5b505af1158015611095573d6000803e3d6000fd5b505050506110ba8d8d868181106110ae576110ae615129565b905060200201356125cc565b50505080806110c890615181565b915050610f1d565b50505050505050505050565b610e8181612813565b6110ed61285d565b6110f760006128b7565b565b609b546060906000906001600160401b0381111561111957611119614de2565b60405190808252806020026020018201604052801561117c57816020015b6111696040518060a0016040528060008152602001600081526020016000815260200160008152602001600081525090565b8152602001906001900390816111375790505b5090506000805b609b548110156112f5576000609b82815481106111a2576111a2615129565b6000918252602080832090910154808352609c90915260409091206002015490915061ffff600160c01b90910416861415806111ef57506000818152609c60205260409020600101548714155b156111fa57506112e3565b60a254604051627eeac760e11b8152306004820152602481018390526000916001600160a01b03169062fdd58e90604401602060405180830381865afa158015611248573d6000803e3d6000fd5b505050506040513d601f19601f8201168201806040525081019061126c919061519a565b9050600080600061128685683635c9adc5dea00000612909565b9250925092506040518060a00160405280868152602001858152602001848152602001838152602001828152508888815181106112c5576112c5615129565b60209081029190910101526112db8760016151b3565b965050505050505b806112ed81615181565b915050611183565b50806001600160401b0381111561130e5761130e614de2565b60405190808252806020026020018201604052801561137157816020015b61135e6040518060a0016040528060008152602001600081526020016000815260200160008152602001600081525090565b81526020019060019003908161132c5790505b50925060005b818110156113c95782818151811061139157611391615129565b60200260200101518482815181106113ab576113ab615129565b602002602001018190525080806113c190615181565b915050611377565b50505092915050565b600081815260a1602090815260409182902080548351818402810184019094528084526060939283018282801561142857602002820191906000526020600020905b815481526020019060010190808311611414575b50505050509050919050565b60008060006114438585612909565b919790965090945092505050565b84831415806114605750848114155b1561147e5760405163b4fa3fb360e01b815260040160405180910390fd5b60015b8581101561153457600060a060008989858181106114a1576114a1615129565b905060200201358152602001908152602001600020549050600060a060008a8a6001876114ce91906151c6565b8181106114dd576114dd615129565b90506020020135815260200190815260200160002054905080821461151f5760405163149e393360e31b81526004810183905260248101829052604401610892565b5050808061152c90615181565b915050611481565b5060005b858110156115a55761159387878381811061155557611555615129565b9050602002013586868481811061156e5761156e615129565b9050602002013585858581811061158757611587615129565b90506020020135612aca565b8061159d81615181565b915050611538565b50600060a06000888860008181106115bf576115bf615129565b9050602002013581526020019081526020016000205490506115e0816125cc565b50505050505050565b610e8181612d71565b600054610100900460ff16158080156116125750600054600160ff909116105b8061162c5750303b15801561162c575060005460ff166001145b61168f5760405162461bcd60e51b815260206004820152602e60248201527f496e697469616c697a61626c653a20636f6e747261637420697320616c72656160448201526d191e481a5b9a5d1a585b1a5e995960921b6064820152608401610892565b6000805460ff1916600117905580156116b2576000805461ff0019166101001790555b6116ba612dbd565b6116c2612dec565b60a580546001600160a01b03808b166001600160a01b03199283161790925560a28054928a16929091169190911790556116fb86612580565b61170485612e1b565b61170d84612d71565b61171683612e67565b61171f82612813565b8015611765576000805461ff0019169055604051600181527f7f26b83ff96e1f2b6a682f133852f6798a09c465da95921460cefb38474024989060200160405180910390a15b5050505050505050565b609e6020528160005260406000208181548110610ea057600080fd5b609b818154811061179b57600080fd5b600091825260209091200154905081565b6002606554036117fe5760405162461bcd60e51b815260206004820152601f60248201527f5265656e7472616e637947756172643a207265656e7472616e742063616c6c006044820152606401610892565b60026065556000838152609a6020526040902054839060ff1661183757604051632e46319160e21b815260048101829052602401610892565b836118418161237a565b1561186257604051630406a37f60e01b815260048101829052602401610892565b836000036118835760405163b4fa3fb360e01b815260040160405180910390fd5b600085815260a0602081815260408084205484526098825280842081516101008101835281548152600182015464ffffffffff81169482019490945261ffff600160281b8504169281019290925262ffffff600160381b840481166060840152600160501b9093049092166080820152600282015492810192909252600381015463ffffffff1660c08301526004015460e0820152819061192490876123d5565b915091506000611933886123a0565b90506000806119bd609c60008c815260200190815260200160002060020160149054906101000a900463ffffffff1663ffffffff168a8660a560149054906101000a900461ffff1661ffff16876001600160a01b031663313ce5676040518163ffffffff1660e01b8152600401602060405180830381865afa158015610e39573d6000803e3d6000fd5b5091509150878210156119ed576040516323fd80cf60e01b81526004810183905260248101899052604401610892565b611a678a858b6119fd85876151b3565b876001600160a01b031663313ce5676040518163ffffffff1660e01b8152600401602060405180830381865afa158015611a3b573d6000803e3d6000fd5b505050506040513d601f19601f82011682018060405250810190611a5f919061514e565b60ff16612eb1565b60008a815260a06020526040902054611a8290858b88612ff2565b6040516340c10f1960e01b8152336004820152602481018390526001600160a01b038416906340c10f1990604401600060405180830381600087803b158015611aca57600080fd5b505af1158015611ade573d6000803e3d6000fd5b505060a3546040516340c10f1960e01b81526001600160a01b0391821660048201526024810185905290861692506340c10f199150604401600060405180830381600087803b158015611b3057600080fd5b505af1158015611b44573d6000803e3d6000fd5b505060a254604051637921219560e11b81526001600160a01b03909116925063f242432a9150611b7e90339030908f908f906004016151d9565b600060405180830381600087803b158015611b9857600080fd5b505af1158015611bac573d6000803e3d6000fd5b5050604080518c8152602081018690523393508d92507f996fd5dc95553bf61923ea1e658357de4a30175141a8fab02ae6ae2ed8c6d32e910160405180910390a3505060016065555050505050505050565b611c09838383612aca565b600083815260a06020526040902054611c21906125cc565b505050565b6000818152609e602090815260409182902080548351818402810184019094528084526060939283018282801561142857602002820191906000526020600020908154815260200190600101908083116114145750505050509050919050565b60008281526097602052604090205460ff16611cb85760405163092483a160e11b815260048101839052602401610892565b60008181526099602052604090205460ff1615611ceb5760405163c5e0852d60e01b815260048101829052602401610892565b6000828152609e6020908152604080832080546001818101835591855283852001859055848452609f83528184208690556099909252808320805460ff19169092179091555182917f1ac2092e16e28eef29d1832f3dc69da1b21284a1f3159d3b26cb238b22fe4f8a91a25050565b610e8181612e67565b611d6b61285d565b6001600160a01b038116611dd05760405162461bcd60e51b815260206004820152602660248201527f4f776e61626c653a206e6577206f776e657220697320746865207a65726f206160448201526564647265737360d01b6064820152608401610892565b610e81816128b7565b610e8181612e1b565b60208083013560009081526099909152604090205460ff16611e1d57604051633223e66d60e21b815260208301356004820152602401610892565b81356000908152609a602052604090205460ff1615611e5257604051633903fb6760e01b815282356004820152602401610892565b6000611e646060840160408501614be9565b6001600160a01b031603611e8b5760405163b60aa6f160e01b815260040160405180910390fd5b42611e9c6080840160608501615223565b63ffffffff1611611ed957611eb76080830160608401615223565b604051631ece70f360e01b815263ffffffff9091166004820152602401610892565b81356000908152609a60209081526040808320805460ff19166001179055609c90915290208290611f0a828261525a565b5050609b8054600181810190925583357fbba9db4cdbea0a37c207bbb83e20f828cd4441c49891101dc94fd20dc8efc349909101819055602080850135600081815260a183526040808220805496870181558252838220909501849055908152609f82528381205492815260a09091528290205560a2546001600160a01b03169063731133e990611fa19060608601908601614be9565b60405160e083901b6001600160e01b03191681526001600160a01b0390911660048201528435602482015260448101849052608060648201526000608482015260a401600060405180830381600087803b158015611ffe57600080fd5b505af1158015612012573d6000803e3d6000fd5b5050604051843592507f2354c6982830f23074cbadd3a8326546827ca5be87b6cfe41e906c66e75cd9659150600090a25050565b60008681526097602052604090205460ff161561207957604051631e506c6d60e31b815260048101879052602401610892565b60008681526097602052604090819020805460ff1916600117905560a554905163b548848760e01b81526001600160a01b039091169063b5488487906120c990889088908890889060040161535e565b6020604051808303816000875af11580156120e8573d6000803e3d6000fd5b505050506040513d601f19601f8201168201806040525081019061210c9190615385565b6000878152609d6020908152604080832080546001600160a01b0319166001600160a01b03959095169490941790935560989052818120600101805462ffffff60501b1916600160501b62ffffff861602179055905187917fafc348cb919473b1b9a1f5712a5d6d3176cdf7a5295bd4709b8cf37b5219832691a2505050505050565b825160009015806121a95750602084015164ffffffffff16155b156121bf576121b883836130ee565b90506121cd565b6121ca8484846130fc565b90505b9392505050565b6000828152609e602052604081208190815b815481101561237157600060a1600084848154811061220757612207615129565b90600052602060002001548152602001908152602001600020905060005b815481101561235c57600082828154811061224257612242615129565b600091825260208220015460a254604051627eeac760e11b8152306004820152602481018390529193506001600160a01b03169062fdd58e90604401602060405180830381865afa15801561229b573d6000803e3d6000fd5b505050506040513d601f19601f820116820180604052508101906122bf919061519a565b90508015806122d257506122d28261237a565b156122de57505061234a565b6000828152609c602052604081206002015460a554829161232891600160a01b820463ffffffff16918691600160d81b90910462ffffff1690600160c01b900461ffff168f613177565b9092509050612337828b6151b3565b9950612343818a6151b3565b9850505050505b8061235481615181565b915050612225565b5050808061236990615181565b9150506121e6565b50509250929050565b6000908152609c602052604090206002015442600160a01b90910463ffffffff16111590565b6000908152609c60209081526040808320600101548352609f8252808320548352609d9091529020546001600160a01b031690565b60008083600001516000036123f8575050608082015160009062ffffff166124dc565b61241c846020015164ffffffffff168560e001518660c0015163ffffffff166131f7565b9150600061242b6002856153b8565b61243590846151b3565b9050600061245782620f42408860000151606461245291906153da565b61324a565b9050620f4240811061247f5760405163c72b5be960e01b815260048101869052602401610892565b600061248a826132f9565b905080876060015188608001516124a191906153f1565b62ffffff166124b091906151b3565b9350620f424084106124d85760405163c72b5be960e01b815260048101879052602401610892565b5050505b9250929050565b60008060004288116124f7576124f7615414565b6000612503878a61337d565b90506000612528612514838b6153da565b61251f88600a61550e565b620f424061324a565b90506000612539828961271061324a565b9050600061254782846151c6565b90506000836125578a600a61550e565b612561908e6153da565b61256b91906151c6565b919d929c50909a509098505050505050505050565b60a5805461ffff60a01b1916600160a01b61ffff8416908102919091179091556040517f3a9c3d19b54b2e3f3f98d9114e62f0bae208d7e9b303286f2ffc42c95d7813c390600090a250565b6000818152609e602052604081208190815b815481101561273f5760008282815481106125fb576125fb615129565b600091825260208083209091015480835260a190915260408220909250905b815481101561272957600082828154811061263757612637615129565b600091825260208220015460a254604051627eeac760e11b8152306004820152602481018390529193506001600160a01b03169062fdd58e90604401602060405180830381865afa158015612690573d6000803e3d6000fd5b505050506040513d601f19601f820116820180604052508101906126b4919061519a565b90508015806126c757506126c78261237a565b156126d3575050612717565b6000828152609c60205260409020600201546126fc908290600160d81b900462ffffff166153da565b612706908a6151b3565b985061271281896151b3565b975050505b8061272181615181565b91505061261a565b505050808061273790615181565b9150506125de565b508160000361279f5760008481526098602052604080822060028101839055600101549051600160501b90910462ffffff169086907fd0c98409f17c45dc9f0e272df73b5b8056534c9822bb3f6d02f91c9922a9f95e908490a450505050565b60006127ab83856153b8565b60008681526098602052604080822060018101805462ffffff60501b1916600160501b62ffffff871602179055600201869055519192508491839188917fd0c98409f17c45dc9f0e272df73b5b8056534c9822bb3f6d02f91c9922a9f95e9190a45050505050565b60a480546001600160a01b0319166001600160a01b0383169081179091556040517f15068720be8003d38a8ddc3b461d6b850cc264a3721cf2d60d0acff74283e85f90600090a250565b6033546001600160a01b031633146110f75760405162461bcd60e51b815260206004820181905260248201527f4f776e61626c653a2063616c6c6572206973206e6f7420746865206f776e65726044820152606401610892565b603380546001600160a01b038381166001600160a01b0319831681179093556040519116919082907f8be0079c531659141344cd1fd0a4f28419497f9722a3daafe3b4186f6b6457e090600090a35050565b6000828152609a602052604081205481908190859060ff1661294157604051632e46319160e21b815260048101829052602401610892565b600061294c876123a0565b6000888152609c60209081526040918290206002015460a554835163313ce56760e01b81529351949550612a0394600160a01b830463ffffffff16948c94600160d81b90940462ffffff1693600160b01b90930461ffff16926001600160a01b0389169263313ce5679260048082019392918290030181865afa1580156129d7573d6000803e3d6000fd5b505050506040513d601f19601f820116820180604052508101906129fb919061514e565b60ff1661340e565b50506000888152609c60209081526040918290206002015460a554835163313ce56760e01b81529351949950612abc94600160a01b830463ffffffff16948b94600160d81b90940462ffffff1693600160b01b90930461ffff16926001600160a01b0389169263313ce5679260048082019392918290030181865afa158015612a90573d6000803e3d6000fd5b505050506040513d601f19601f82011682018060405250810190612ab4919061514e565b60ff16613479565b959890975094955050505050565b600260655403612b1c5760405162461bcd60e51b815260206004820152601f60248201527f5265656e7472616e637947756172643a207265656e7472616e742063616c6c006044820152606401610892565b60026065556000838152609a6020526040902054839060ff16612b5557604051632e46319160e21b815260048101829052602401610892565b6000612b60856123a0565b6000868152609c602090815260408083206002015460a554825163313ce56760e01b81529251959650939485948594612bee94600160a01b850463ffffffff16948d94600160d81b90910462ffffff1693600160b01b900461ffff16926001600160a01b038c169263313ce56792600480830193928290030181865afa1580156129d7573d6000803e3d6000fd5b92509250925060008311612c1857604051630a255ea560e41b815260048101849052602401610892565b85831015612c43576040516323fd80cf60e01b81526004810184905260248101879052604401610892565b60405163079cc67960e41b8152336004820152602481018290526001600160a01b038516906379cc679090604401600060405180830381600087803b158015612c8b57600080fd5b505af1158015612c9f573d6000803e3d6000fd5b505060a354612cbd925086915033906001600160a01b0316856134d4565b60a254604051637921219560e11b81526001600160a01b039091169063f242432a90612cf390309033908d9089906004016151d9565b600060405180830381600087803b158015612d0d57600080fd5b505af1158015612d21573d6000803e3d6000fd5b5050604080518a8152602081018790523393508b92507f0a2adf4ac4fa3544a2c794e5ba57a755d18102bb19672742fcc48f87e5c1fce3910160405180910390a350506001606555505050505050565b60a5805461ffff60c01b1916600160c01b61ffff8416908102919091179091556040517f7b2fbd696a2aa5afaf39d5a0171b41f5a9779043dd3ad3a8d3c752c43b7410f990600090a250565b600054610100900460ff16612de45760405162461bcd60e51b81526004016108929061551a565b6110f761356f565b600054610100900460ff16612e135760405162461bcd60e51b81526004016108929061551a565b6110f761359f565b60a5805461ffff60b01b1916600160b01b61ffff8416908102919091179091556040517f3a1bac3fdaf2d00c05b0cb3e9dce0dbaa14b865551f42b7b4755ebed6d08daf190600090a250565b60a380546001600160a01b0319166001600160a01b0383169081179091556040517f27aae5db36d94179909d019ae0b1ac7c16d96d953148f63c0f6a0a9c8ead79ee90600090a250565b6000858152609c602052604080822060a25481549251627eeac760e11b815230600482015260248101939093529092916001600160a01b039091169062fdd58e90604401602060405180830381865afa158015612f12573d6000803e3d6000fd5b505050506040513d601f19601f82011682018060405250810190612f36919061519a565b905080600003612f635750600201805462ffffff60d81b1916600160d81b62ffffff871602179055612feb565b6002820154600090612f9290600160a01b810463ffffffff16908490600160d81b900462ffffff1684886124e3565b50509050612fc78582612fa591906151b3565b612faf88856151b3565b6002860154600160a01b900463ffffffff16876135cd565b83600201601b6101000a81548162ffffff021916908362ffffff1602179055505050505b5050505050565b600084815260986020526040812060028101549091906130139085906151b3565b61301d85876153da565b6002840154600185015461303d9190600160501b900462ffffff166153da565b61304791906151b3565b61305191906153b8565b60018301805462ffffff60501b1916600160501b62ffffff84160217905560028301805491925085916000906130889084906151b3565b90915550613098905084846151b3565b600483015560038201805463ffffffff19164263ffffffff161790556002820154604051829088907fd0c98409f17c45dc9f0e272df73b5b8056534c9822bb3f6d02f91c9922a9f95e90600090a4505050505050565b60006121cd8383600a61324a565b6000613122846020015164ffffffffff168560e001518660c0015163ffffffff166131f7565b90506131338184866000015161324a565b90506000846040015161ffff168361314b9190615565565b9050600081131561316f576131628482600a61324a565b61316c90836151b3565b91505b509392505050565b60008042871161318c575060009050806131ed565b6000613198868961337d565b905060006131cd826131aa898b6153da565b6131b491906153da565b6131bf87600a61550e565b6124526002620f4240615585565b90506131dc818761271061324a565b92506131e883826151c6565b935050505b9550959350505050565b60008061320483426151c6565b9050600061321286836153da565b6132219064174876e800615565565b905061322e600082613688565b9050613240858264174876e80061324a565b9695505050505050565b60008080600019858709858702925082811083820303915050806000036132845783828161327a5761327a6153a2565b04925050506121cd565b80841161329057600080fd5b60008486880960026001871981018816978890046003810283188082028403028082028403028082028403028082028403028082028403029081029092039091026000889003889004909101858311909403939093029303949094049190911702949350505050565b60008061330983620f42406151c6565b9050600061331a82620f424061369f565b90506000613327826136d9565b9050600061333b613336613713565b613727565b9050600061335161334c848461377c565b6137b3565b9050600061336282620f4240613808565b905061337181620f42406151c6565b98975050505050505050565b60008061338a4284613873565b9050806000036133a057620f4240915050613408565b806001036133bd576133b584620f42406151c6565b915050613408565b60006133cc85620f42406151c6565b905060006133dd82620f424061369f565b905060006133f5826133f06001876151c6565b6138cf565b90506134018184613808565b9450505050505b92915050565b600080600080613421888761271061324a565b9050600061342f828a6151c6565b9050600061343d898c61337d565b9050600061344f83620f42408461324a565b905061345c88600a61550e565b61346690826153b8565b9c939b5091995091975050505050505050565b6000806000613488868961337d565b905060006134a4613499838a6153da565b61251f87600a61550e565b90506134b78161271061245289826151c6565b93506134c6848761271061324a565b925050509550959350505050565b6040516323b872dd60e01b8082526001600160a01b038581166004840152841660248301526044820183905290600080606483828a5af1613519573d6000803e3d6000fd5b5061352385613ae8565b612feb5760405162461bcd60e51b815260206004820152601960248201527f475076323a206661696c6564207472616e7366657246726f6d000000000000006044820152606401610892565b600054610100900460ff166135965760405162461bcd60e51b81526004016108929061551a565b6110f7336128b7565b600054610100900460ff166135c65760405162461bcd60e51b81526004016108929061551a565b6001606555565b600084158015906135dd57508315155b6135e9576135e9615414565b60006135f54285613873565b905080600003613609576000915050613680565b600061361761333683613b90565b905060006136398861362a87600a61550e565b613634908a6153da565b61369f565b90506000613646826136d9565b9050600061365761334c838661377c565b9050600061366882620f4240613808565b905061367781620f42406151c6565b96505050505050505b949350505050565b60008183121561369857816121cd565b5090919050565b6000816000036136ae57600080fd5b60006136ba8484613bae565b905060016001607f1b036001600160801b03821611156121cd57600080fd5b60008082600f0b136136ea57600080fd5b60806136f583613d13565b600f0b6fb17217f7d1cf79abc9e3b39803f2f6af02901c9050919050565b6000613722610209600a61369f565b905090565b600081600f0b60000361373957600080fd5b600082600f0b600160801b81613751576137516153a2565b05905060016001607f1b03198112801590613773575060016001607f1b038113155b61340857600080fd5b6000600f83810b9083900b0260401d60016001607f1b031981128015906137aa575060016001607f1b038113155b6121cd57600080fd5b6000600160461b82600f0b126137c857600080fd5b683fffffffffffffffff1982600f0b12156137e557506000919050565b613408608083600f0b700171547652b82fe1777d0ffda0d23a7d1202901d613dee565b60008160000361381a57506000613408565b600083600f0b121561382b57600080fd5b600f83900b6001600160801b038316810260401c90608084901c026001600160c01b0381111561385a57600080fd5b60401b811981111561386b57600080fd5b019392505050565b6000821580613880575081155b156138a857604051631c5dcecf60e31b81526004810184905260248101839052604401610892565b8282116138b757506000613408565b62093a806138c584846151c6565b6121cd91906153b8565b600080600084600f0b1280156138e85750826001166001145b905060008085600f0b126138fc5784613901565b846000035b6001600160801b03169050600160801b600160401b821161399657603f82901b91505b841561398e576001851615613939578102607f1c5b908002607f1c90600285161561394f578102607f1c5b908002607f1c906004851615613965578102607f1c5b908002607f1c90600885161561397b578102607f1c5b60049490941c93908002607f1c90613924565b60401c613aac565b603f600160601b8310156139b05760209290921b91601f19015b600160701b8310156139c85760109290921b91600f19015b600160781b8310156139e05760089290921b91600719015b6001607c1b8310156139f85760049290921b91600319015b6001607e1b831015613a105760029290921b91600119015b6001607f1b831015613a285760019290921b91600019015b60005b8615613a955760408210613a3e57600080fd5b6001871615613a6457918302607f1c918101600160801b831115613a6457600192831c92015b928002607f1c9260019190911b90600160801b8410613a8957600193841c9391909101905b600187901c9650613a2b565b60408110613aa257600080fd5b6040039190911c90505b600083613ab95781613abe565b816000035b905060016001607f1b03198112801590613adf575060016001607f1b038113155b61324057600080fd5b6000613b0d565b62461bcd60e51b600052602060045280602452508060445260646000fd5b3d8015613b4c5760208114613b7d57613b477f475076323a206d616c666f726d6564207472616e7366657220726573756c7400601f613aef565b613b8a565b823b613b7457613b747311d41d8c8e881b9bdd08184818dbdb9d1c9858dd60621b6014613aef565b60019150613b8a565b3d6000803e600051151591505b50919050565b6000677fffffffffffffff821115613ba757600080fd5b5060401b90565b600081600003613bbd57600080fd5b60006001600160c01b038411613be85782604085901b81613be057613be06153a2565b049050613cff565b60c084811c6401000000008110613c01576020918201911c5b620100008110613c13576010918201911c5b6101008110613c24576008918201911c5b60108110613c34576004918201911c5b60048110613c44576002918201911c5b60028110613c53576001820191505b60bf820360018603901c6001018260ff0387901b81613c7457613c746153a2565b0492506001600160801b03831115613c8b57600080fd5b608085901c83026001600160801b038616840260c088901c604089901b82811015613cb7576001820391505b608084901b92900382811015613cce576001820391505b829003608084901c8214613ce457613ce4615414565b888181613cf357613cf36153a2565b04870196505050505050505b6001600160801b038111156121cd57600080fd5b60008082600f0b13613d2457600080fd5b6000600f83900b600160401b8112613d3e576040918201911d5b6401000000008112613d52576020918201911d5b620100008112613d64576010918201911d5b6101008112613d75576008918201911d5b60108112613d85576004918201911d5b60048112613d95576002918201911d5b60028112613da4576001820191505b603f19820160401b600f85900b607f8490031b6001603f1b5b6000811315613de35790800260ff81901c8281029390930192607f011c9060011d613dbd565b509095945050505050565b6000600160461b82600f0b12613e0357600080fd5b683fffffffffffffffff1982600f0b1215613e2057506000919050565b6001607f1b60006001603f1b8416600f0b1315613e4e5770016a09e667f3bcc908b2fb1366ea957d3e0260801c5b60008367400000000000000016600f0b1315613e7b577001306fe0a31b7152de8d5a46305c85edec0260801c5b60008367200000000000000016600f0b1315613ea8577001172b83c7d517adcdf7c8c50eb14a791f0260801c5b60008367100000000000000016600f0b1315613ed55770010b5586cf9890f6298b92b71842a983630260801c5b60008367080000000000000016600f0b1315613f02577001059b0d31585743ae7c548eb68ca417fd0260801c5b60008367040000000000000016600f0b1315613f2f57700102c9a3e778060ee6f7caca4f7a29bde80260801c5b60008367020000000000000016600f0b1315613f5c5770010163da9fb33356d84a66ae336dcdfa3f0260801c5b600083600160381b16600f0b1315613f8557700100b1afa5abcbed6129ab13ec11dc95430260801c5b600083668000000000000016600f0b1315613fb15770010058c86da1c09ea1ff19d294cf2f679b0260801c5b600083664000000000000016600f0b1315613fdd577001002c605e2e8cec506d21bfc89a23a00f0260801c5b600083662000000000000016600f0b131561400957700100162f3904051fa128bca9c55c31e5df0260801c5b600083661000000000000016600f0b1315614035577001000b175effdc76ba38e31671ca9397250260801c5b600083660800000000000016600f0b131561406157700100058ba01fb9f96d6cacd4b180917c3d0260801c5b600083660400000000000016600f0b131561408d5770010002c5cc37da9491d0985c348c68e7b30260801c5b600083660200000000000016600f0b13156140b9577001000162e525ee054754457d59952920260260801c5b600083660100000000000016600f0b13156140e55770010000b17255775c040618bf4a4ade83fc0260801c5b6000836580000000000016600f0b1315614110577001000058b91b5bc9ae2eed81e9b7d4cfab0260801c5b6000836540000000000016600f0b131561413b57700100002c5c89d5ec6ca4d7c8acc017b7c90260801c5b6000836520000000000016600f0b13156141665770010000162e43f4f831060e02d839a9d16d0260801c5b6000836510000000000016600f0b131561419157700100000b1721bcfc99d9f890ea069117630260801c5b6000836508000000000016600f0b13156141bc5770010000058b90cf1e6d97f9ca14dbcc16280260801c5b6000836504000000000016600f0b13156141e7577001000002c5c863b73f016468f6bac5ca2b0260801c5b6000836502000000000016600f0b131561421257700100000162e430e5a18f6119e3c02282a50260801c5b600083600160281b16600f0b131561423b577001000000b1721835514b86e6d96efd1bfe0260801c5b60008364800000000016600f0b131561426557700100000058b90c0b48c6be5df846c5b2ef0260801c5b60008364400000000016600f0b131561428f5770010000002c5c8601cc6b9e94213c72737a0260801c5b60008364200000000016600f0b13156142b9577001000000162e42fff037df38aa2b219f060260801c5b60008364100000000016600f0b13156142e35770010000000b17217fba9c739aa5819f44f90260801c5b60008364080000000016600f0b131561430d577001000000058b90bfcdee5acd3c1cedc8230260801c5b60008364040000000016600f0b131561433757700100000002c5c85fe31f35a6a30da1be500260801c5b60008364020000000016600f0b13156143615770010000000162e42ff0999ce3541b9fffcf0260801c5b60008364010000000016600f0b131561438b57700100000000b17217f80f4ef5aadda455540260801c5b600083638000000016600f0b13156143b45770010000000058b90bfbf8479bd5a81b51ad0260801c5b600083634000000016600f0b13156143dd577001000000002c5c85fdf84bd62ae30a74cc0260801c5b600083632000000016600f0b131561440657700100000000162e42fefb2fed257559bdaa0260801c5b600083631000000016600f0b131561442f577001000000000b17217f7d5a7716bba4a9ae0260801c5b600083630800000016600f0b131561445857700100000000058b90bfbe9ddbac5e109cce0260801c5b600083630400000016600f0b13156144815770010000000002c5c85fdf4b15de6f17eb0d0260801c5b600083630200000016600f0b13156144aa577001000000000162e42fefa494f1478fde050260801c5b600083630100000016600f0b13156144d35770010000000000b17217f7d20cf927c8e94c0260801c5b6000836280000016600f0b13156144fb577001000000000058b90bfbe8f71cb4e4b33d0260801c5b6000836240000016600f0b131561452357700100000000002c5c85fdf477b662b269450260801c5b6000836220000016600f0b131561454b5770010000000000162e42fefa3ae53369388c0260801c5b6000836210000016600f0b131561457357700100000000000b17217f7d1d351a389d400260801c5b6000836208000016600f0b131561459b5770010000000000058b90bfbe8e8b2d3d4ede0260801c5b6000836204000016600f0b13156145c3577001000000000002c5c85fdf4741bea6e77e0260801c5b6000836202000016600f0b13156145eb57700100000000000162e42fefa39fe95583c20260801c5b6000836201000016600f0b1315614613577001000000000000b17217f7d1cfb72b45e10260801c5b60008361800016600f0b131561463a57700100000000000058b90bfbe8e7cc35c3f00260801c5b60008361400016600f0b13156146615770010000000000002c5c85fdf473e242ea380260801c5b60008361200016600f0b1315614688577001000000000000162e42fefa39f02b772c0260801c5b60008361100016600f0b13156146af5770010000000000000b17217f7d1cf7d83c1a0260801c5b60008361080016600f0b13156146d6577001000000000000058b90bfbe8e7bdcbe2e0260801c5b60008361040016600f0b13156146fd57700100000000000002c5c85fdf473dea871f0260801c5b60008361020016600f0b13156147245770010000000000000162e42fefa39ef44d910260801c5b60008361010016600f0b131561474b57700100000000000000b17217f7d1cf79e9490260801c5b600083608016600f0b13156147715770010000000000000058b90bfbe8e7bce5440260801c5b600083604016600f0b1315614797577001000000000000002c5c85fdf473de6eca0260801c5b600083602016600f0b13156147bd57700100000000000000162e42fefa39ef366f0260801c5b600083601016600f0b13156147e3577001000000000000000b17217f7d1cf79afa0260801c5b600083600816600f0b131561480957700100000000000000058b90bfbe8e7bcd6d0260801c5b600083600416600f0b131561482f5770010000000000000002c5c85fdf473de6b20260801c5b600083600216600f0b1315614855577001000000000000000162e42fefa39ef3580260801c5b600083600116600f0b131561487b5770010000000000000000b17217f7d1cf79ab0260801c5b600f83810b60401d603f03900b1c60016001607f1b0381111561340857600080fd5b6000602082840312156148af57600080fd5b81356001600160e01b0319811681146121cd57600080fd5b61ffff81168114610e8157600080fd5b62ffffff81168114610e8157600080fd5b600080600080600060a0868803121561490057600080fd5b8535945060208601359350604086013564ffffffffff8116811461492357600080fd5b92506060860135614933816148c7565b91506080860135614943816148d7565b809150509295509295909350565b60008083601f84011261496357600080fd5b5081356001600160401b0381111561497a57600080fd5b6020830191508360208260051b85010111156124dc57600080fd5b600080600080604085870312156149ab57600080fd5b84356001600160401b03808211156149c257600080fd5b6149ce88838901614951565b909650945060208701359150808211156149e757600080fd5b506149f487828801614951565b95989497509550505050565b600081518084526020808501945080840160005b83811015614a3057815187529582019590820190600101614a14565b509495945050505050565b606080825284519082018190526000906020906080840190828801845b82811015614a7d5781516001600160a01b031684529284019290840190600101614a58565b50505083810382850152614a918187614a00565b91505082810360408401526132408185614a00565b60008060408385031215614ab957600080fd5b50508035926020909101359150565b600060208284031215614ada57600080fd5b5035919050565b600060208284031215614af357600080fd5b81356121cd816148c7565b6001600160a01b0381168114610e8157600080fd5b600080600080600080600080600060a08a8c031215614b3157600080fd5b89356001600160401b0380821115614b4857600080fd5b614b548d838e01614951565b909b50995060208c0135915080821115614b6d57600080fd5b614b798d838e01614951565b909950975060408c0135915080821115614b9257600080fd5b614b9e8d838e01614951565b909750955060608c0135915080821115614bb757600080fd5b50614bc48c828d01614951565b90945092505060808a0135614bd881614afe565b809150509295985092959850929598565b600060208284031215614bfb57600080fd5b81356121cd81614afe565b602080825282518282018190526000919060409081850190868401855b82811015614c675781518051855286810151878601528581015186860152606080820151908601526080908101519085015260a09093019290850190600101614c23565b5091979650505050505050565b6020815260006121cd6020830184614a00565b60008060008060008060608789031215614ca057600080fd5b86356001600160401b0380821115614cb757600080fd5b614cc38a838b01614951565b90985096506020890135915080821115614cdc57600080fd5b614ce88a838b01614951565b90965094506040890135915080821115614d0157600080fd5b50614d0e89828a01614951565b979a9699509497509295939492505050565b600080600080600080600060e0888a031215614d3b57600080fd5b8735614d4681614afe565b96506020880135614d5681614afe565b95506040880135614d66816148c7565b94506060880135614d76816148c7565b93506080880135614d86816148c7565b925060a0880135614d9681614afe565b915060c0880135614da681614afe565b8091505092959891949750929550565b600080600060608486031215614dcb57600080fd5b505081359360208301359350604090920135919050565b634e487b7160e01b600052604160045260246000fd5b604051601f8201601f191681016001600160401b0381118282101715614e2057614e20614de2565b604052919050565b600082601f830112614e3957600080fd5b813560206001600160401b03821115614e5457614e54614de2565b8160051b614e63828201614df8565b9283528481018201928281019087851115614e7d57600080fd5b83870192505b84831015614e9c57823582529183019190830190614e83565b979650505050505050565b600082601f830112614eb857600080fd5b81356001600160401b03811115614ed157614ed1614de2565b614ee4601f8201601f1916602001614df8565b818152846020838601011115614ef957600080fd5b816020850160208301376000918101602001919091529392505050565b600080600080600060a08688031215614f2e57600080fd5b8535614f3981614afe565b94506020860135614f4981614afe565b935060408601356001600160401b0380821115614f6557600080fd5b614f7189838a01614e28565b94506060880135915080821115614f8757600080fd5b614f9389838a01614e28565b93506080880135915080821115614fa957600080fd5b50614fb688828901614ea7565b9150509295509295909350565b600080600080600060a08688031215614fdb57600080fd5b8535614fe681614afe565b94506020860135614ff681614afe565b9350604086013592506060860135915060808601356001600160401b0381111561501f57600080fd5b614fb688828901614ea7565b60008082840361010081121561504057600080fd5b60e081121561504e57600080fd5b50919360e08501359350915050565b60008083601f84011261506f57600080fd5b5081356001600160401b0381111561508657600080fd5b6020830191508360208285010111156124dc57600080fd5b600080600080600080608087890312156150b757600080fd5b8635955060208701356001600160401b03808211156150d557600080fd5b6150e18a838b0161505d565b909750955060408901359150808211156150fa57600080fd5b5061510789828a0161505d565b909450925050606087013561511b816148d7565b809150509295509295509295565b634e487b7160e01b600052603260045260246000fd5b60ff81168114610e8157600080fd5b60006020828403121561516057600080fd5b81516121cd8161513f565b634e487b7160e01b600052601160045260246000fd5b6000600182016151935761519361516b565b5060010190565b6000602082840312156151ac57600080fd5b5051919050565b808201808211156134085761340861516b565b818103818111156134085761340861516b565b6001600160a01b0394851681529290931660208301526040820152606081019190915260a06080820181905260009082015260c00190565b63ffffffff81168114610e8157600080fd5b60006020828403121561523557600080fd5b81356121cd81615211565b600081356134088161513f565b60008135613408816148d7565b813581556020820135600182015560028101604083013561527a81614afe565b8154606085013561528a81615211565b6080860135615298816148c7565b61ffff60c01b60c09190911b166001600160a01b03939093166001600160d01b0319929092169190911763ffffffff60a01b60a092831b1617919091178255615304906152e6908501615240565b82805460ff60d01b191660d09290921b60ff60d01b16919091179055565b611c2161531360c0850161524d565b82805462ffffff60d81b191660d89290921b62ffffff60d81b16919091179055565b81835281816020850137506000828201602090810191909152601f909101601f19169091010190565b604081526000615372604083018688615335565b8281036020840152614e9c818587615335565b60006020828403121561539757600080fd5b81516121cd81614afe565b634e487b7160e01b600052601260045260246000fd5b6000826153d557634e487b7160e01b600052601260045260246000fd5b500490565b80820281158282048414176134085761340861516b565b62ffffff82811682821603908082111561540d5761540d61516b565b5092915050565b634e487b7160e01b600052600160045260246000fd5b600181815b8085111561546557816000190482111561544b5761544b61516b565b8085161561545857918102915b93841c939080029061542f565b509250929050565b60008261547c57506001613408565b8161548957506000613408565b816001811461549f57600281146154a9576154c5565b6001915050613408565b60ff8411156154ba576154ba61516b565b50506001821b613408565b5060208310610133831016604e8410600b84101617156154e8575081810a613408565b6154f2838361542a565b80600019048211156155065761550661516b565b029392505050565b60006121cd838361546d565b6020808252602b908201527f496e697469616c697a61626c653a20636f6e7472616374206973206e6f74206960408201526a6e697469616c697a696e6760a81b606082015260800190565b818103600083128015838313168383128216171561540d5761540d61516b565b60006121cd60ff84168361546d56fea26469706673582212204c30e71d4648e619bb0497e058e683122d27e22abf17df7815b9a2fcf61518c264736f6c63430008110033",
  "devdoc": {
    "errors": {
      "UnauthorizedRewardMinting(address)": [
        {
          "details": "Thrown if minting weekly rewards is called by an unauthorized account"
        }
      ]
    },
    "kind": "dev",
    "methods": {
      "bulkDecollateralizeTokens(uint256[],uint256[],uint256[])": {
        "details": "Bulk-decollateralizes ERC20 tokens into multiple ERC1155 tokens with specified amountsprior to calling, msg.sender must approve SolidWorldManager to spend `sum(amountsIn)` ERC20 tokensnonReentrant (_decollateralizeTokens), to avoid possible reentrancy after calling safeTransferFrom_batchIds must belong to the same Categorywill trigger a rebalance of the Category",
        "params": {
          "_batchIds": "ids of the batches",
          "amountsIn": "ERC20 tokens to decollateralize",
          "amountsOutMin": "minimum output amounts of ERC1155 tokens for transaction to succeed"
        }
      },
      "collateralizeBatch(uint256,uint256,uint256)": {
        "details": "Collateralizes `amountIn` of ERC1155 tokens with id `batchId` for msg.senderprior to calling, msg.sender must approve SolidWorldManager to spend its ERC1155 tokens with id `batchId`nonReentrant, to avoid possible reentrancy after calling safeTransferFrom",
        "params": {
          "amountIn": "ERC1155 tokens to collateralize",
          "amountOutMin": "minimum output amount of ERC20 tokens for transaction to succeed",
          "batchId": "id of the batch"
        }
      },
      "computeWeeklyCarbonRewards(address[],uint256[])": {
        "params": {
          "_categoryIds": "The categories to which the incentivized assets belong",
          "assets": "The incentivized assets (LP tokens)"
        },
        "returns": {
          "carbonRewards": "List of carbon rewards getting distributed.",
          "rewardAmounts": "List of carbon reward amounts getting distributed",
          "rewardFees": "List of fee amounts charged by the DAO on carbon rewards"
        }
      },
      "decollateralizeTokens(uint256,uint256,uint256)": {
        "details": "Decollateralizes `amountIn` of ERC20 tokens and sends `amountOut` ERC1155 tokens with id `batchId` to msg.senderprior to calling, msg.sender must approve SolidWorldManager to spend `amountIn` ERC20 tokensnonReentrant (_decollateralizeTokens), to avoid possible reentrancy after calling safeTransferFromwill trigger a rebalance of the Category",
        "params": {
          "amountIn": "ERC20 tokens to decollateralize",
          "amountOutMin": "minimum output amount of ERC1155 tokens for transaction to succeed",
          "batchId": "id of the batch"
        }
      },
      "getBatchesDecollateralizationInfo(uint256,uint256)": {
        "details": "Computes relevant info for the decollateralization process involving batches that match the specified `projectId` and `vintage`",
        "params": {
          "projectId": "id of the project the batch belongs to",
          "vintage": "vintage of the batch"
        },
        "returns": {
          "result": "array of relevant info about matching batches"
        }
      },
      "mintWeeklyCarbonRewards(uint256[],address[],uint256[],uint256[],address)": {
        "params": {
          "_categoryIds": "The categories to which the incentivized assets belong",
          "carbonRewards": "List of carbon rewards to mint",
          "rewardAmounts": "List of carbon reward amounts to mint",
          "rewardFees": "List of fee amounts charged by the DAO on carbon rewards",
          "rewardsVault": "Account that secures ERC20 rewards"
        }
      },
      "owner()": {
        "details": "Returns the address of the current owner."
      },
      "renounceOwnership()": {
        "details": "Leaves the contract without owner. It will not be possible to call `onlyOwner` functions anymore. Can only be called by the current owner. NOTE: Renouncing ownership will leave the contract without an owner, thereby removing any functionality that is only available to the owner."
      },
      "setRewardsFee(uint16)": {
        "params": {
          "_rewardsFee": "The new rewards fee charged on weekly rewards"
        }
      },
      "setWeeklyRewardsMinter(address)": {
        "params": {
          "_weeklyRewardsMinter": "The only account allowed to mint weekly carbon rewards"
        }
      },
      "simulateBatchCollateralization(uint256,uint256)": {
        "details": "Simulates collateralization of `amountIn` ERC1155 tokens with id `batchId` for msg.sender",
        "params": {
          "amountIn": "ERC1155 tokens to collateralize",
          "batchId": "id of the batch"
        },
        "returns": {
          "cbtDaoCut": "ERC20 tokens to be received by feeReceiver",
          "cbtForfeited": "ERC20 tokens forfeited for collateralizing the ERC1155 tokens",
          "cbtUserCut": "ERC20 tokens to be received by msg.sender"
        }
      },
      "simulateDecollateralization(uint256,uint256)": {
        "details": "Simulates decollateralization of `amountIn` ERC20 tokens for ERC1155 tokens with id `batchId`",
        "params": {
          "amountIn": "ERC20 tokens to decollateralize",
          "batchId": "id of the batch"
        },
        "returns": {
          "amountOut": "ERC1155 tokens to be received by msg.sender",
          "minAmountIn": "minimum amount of ERC20 tokens to decollateralize `amountOut` ERC1155 tokens with id `batchId`",
          "minCbtDaoCut": "ERC20 tokens to be received by feeReceiver for decollateralizing minAmountIn ERC20 tokens"
        }
      },
      "supportsInterface(bytes4)": {
        "details": "Returns true if this contract implements the interface defined by `interfaceId`. See the corresponding https://eips.ethereum.org/EIPS/eip-165#how-interfaces-are-identified[EIP section] to learn more about how these ids are created. This function call must use less than 30 000 gas."
      },
      "transferOwnership(address)": {
        "details": "Transfers ownership of the contract to a new account (`newOwner`). Can only be called by the current owner."
      }
    },
    "stateVariables": {
      "batchCategory": {
        "details": "BatchId => CategoryId"
      },
      "batchCreated": {
        "details": "BatchId => isAdded"
      },
      "batches": {
        "details": "BatchId => DomainDataTypes.Batch"
      },
      "categories": {
        "details": "CategoryId => DomainDataTypes.Category"
      },
      "categoryIds": {
        "details": "CategoryId => isAdded"
      },
      "categoryProjects": {
        "details": "CategoryId => ProjectId[]"
      },
      "categoryToken": {
        "details": "CategoryId => CollateralizedBasketToken address (ERC-20)"
      },
      "projectBatches": {
        "details": "ProjectId => BatchId[]"
      },
      "projectCategory": {
        "details": "ProjectId => CategoryId"
      },
      "projectIds": {
        "details": "ProjectId => isAdded"
      }
    },
    "version": 1
  },
  "userdoc": {
    "kind": "user",
    "methods": {
      "DECOLLATERALIZATION_SIMULATION_INPUT()": {
        "notice": "Constant used as input for decollateralization simulation for ordering batches with the same category and vintage"
      },
      "batchCategory(uint256)": {
        "notice": "Mapping determines what category a batch belongs to"
      },
      "batchCreated(uint256)": {
        "notice": "Property is used for checking if Batch ID is already added"
      },
      "batchIds(uint256)": {
        "notice": "Stores all batch ids ever created"
      },
      "batches(uint256)": {
        "notice": "Property stores info about a batch"
      },
      "categories(uint256)": {
        "notice": "Stores the state of categories"
      },
      "categoryIds(uint256)": {
        "notice": "Mapping is used for checking if Category ID is already added"
      },
      "categoryProjects(uint256,uint256)": {
        "notice": "Mapping determines what projects a category has"
      },
      "categoryToken(uint256)": {
        "notice": "Mapping determines a respective CollateralizedBasketToken (ERC-20) of a category"
      },
      "collateralizationFee()": {
        "notice": "Fee charged by DAO when collateralizing forward contract batch tokens."
      },
      "collateralizedBasketTokenDeployer()": {
        "notice": "Contract that deploys new collateralized basket tokens. Allows this contract to mint tokens."
      },
      "decollateralizationFee()": {
        "notice": "Fee charged by DAO when decollateralizing collateralized basket tokens."
      },
      "feeReceiver()": {
        "notice": "The account where all protocol fees are captured."
      },
      "forwardContractBatch()": {
        "notice": "Contract that operates forward contract batch tokens (ERC-1155). Allows this contract to mint tokens."
      },
      "projectBatches(uint256,uint256)": {
        "notice": "Mapping determines what batches a project has"
      },
      "projectCategory(uint256)": {
        "notice": "Mapping determines what category a project belongs to"
      },
      "projectIds(uint256)": {
        "notice": "Property is used for checking if Project ID is already added"
      },
      "rewardsFee()": {
        "notice": "Fee charged by DAO on the weekly carbon rewards."
      },
      "weeklyRewardsMinter()": {
        "notice": "The only account that is allowed to mint weekly carbon rewards"
      }
    },
    "version": 1
  },
  "storageLayout": {
    "storage": [
      {
        "astId": 138,
        "contract": "contracts/SolidWorldManager.sol:SolidWorldManager",
        "label": "_initialized",
        "offset": 0,
        "slot": "0",
        "type": "t_uint8"
      },
      {
        "astId": 141,
        "contract": "contracts/SolidWorldManager.sol:SolidWorldManager",
        "label": "_initializing",
        "offset": 1,
        "slot": "0",
        "type": "t_bool"
      },
      {
        "astId": 666,
        "contract": "contracts/SolidWorldManager.sol:SolidWorldManager",
        "label": "__gap",
        "offset": 0,
        "slot": "1",
        "type": "t_array(t_uint256)50_storage"
      },
      {
        "astId": 10,
        "contract": "contracts/SolidWorldManager.sol:SolidWorldManager",
        "label": "_owner",
        "offset": 0,
        "slot": "51",
        "type": "t_address"
      },
      {
        "astId": 130,
        "contract": "contracts/SolidWorldManager.sol:SolidWorldManager",
        "label": "__gap",
        "offset": 0,
        "slot": "52",
        "type": "t_array(t_uint256)49_storage"
      },
      {
        "astId": 296,
        "contract": "contracts/SolidWorldManager.sol:SolidWorldManager",
        "label": "_status",
        "offset": 0,
        "slot": "101",
        "type": "t_uint256"
      },
      {
        "astId": 340,
        "contract": "contracts/SolidWorldManager.sol:SolidWorldManager",
        "label": "__gap",
        "offset": 0,
        "slot": "102",
        "type": "t_array(t_uint256)49_storage"
      },
      {
        "astId": 6892,
        "contract": "contracts/SolidWorldManager.sol:SolidWorldManager",
        "label": "categoryIds",
        "offset": 0,
        "slot": "151",
        "type": "t_mapping(t_uint256,t_bool)"
      },
      {
        "astId": 6898,
        "contract": "contracts/SolidWorldManager.sol:SolidWorldManager",
        "label": "categories",
        "offset": 0,
        "slot": "152",
        "type": "t_mapping(t_uint256,t_struct(Category)12012_storage)"
      },
      {
        "astId": 6903,
        "contract": "contracts/SolidWorldManager.sol:SolidWorldManager",
        "label": "projectIds",
        "offset": 0,
        "slot": "153",
        "type": "t_mapping(t_uint256,t_bool)"
      },
      {
        "astId": 6908,
        "contract": "contracts/SolidWorldManager.sol:SolidWorldManager",
        "label": "batchCreated",
        "offset": 0,
        "slot": "154",
        "type": "t_mapping(t_uint256,t_bool)"
      },
      {
        "astId": 6912,
        "contract": "contracts/SolidWorldManager.sol:SolidWorldManager",
        "label": "batchIds",
        "offset": 0,
        "slot": "155",
        "type": "t_array(t_uint256)dyn_storage"
      },
      {
        "astId": 6918,
        "contract": "contracts/SolidWorldManager.sol:SolidWorldManager",
        "label": "batches",
        "offset": 0,
        "slot": "156",
        "type": "t_mapping(t_uint256,t_struct(Batch)11995_storage)"
      },
      {
        "astId": 6924,
        "contract": "contracts/SolidWorldManager.sol:SolidWorldManager",
        "label": "categoryToken",
        "offset": 0,
        "slot": "157",
        "type": "t_mapping(t_uint256,t_contract(CollateralizedBasketToken)6341)"
      },
      {
        "astId": 6930,
        "contract": "contracts/SolidWorldManager.sol:SolidWorldManager",
        "label": "categoryProjects",
        "offset": 0,
        "slot": "158",
        "type": "t_mapping(t_uint256,t_array(t_uint256)dyn_storage)"
      },
      {
        "astId": 6935,
        "contract": "contracts/SolidWorldManager.sol:SolidWorldManager",
        "label": "projectCategory",
        "offset": 0,
        "slot": "159",
        "type": "t_mapping(t_uint256,t_uint256)"
      },
      {
        "astId": 6940,
        "contract": "contracts/SolidWorldManager.sol:SolidWorldManager",
        "label": "batchCategory",
        "offset": 0,
        "slot": "160",
        "type": "t_mapping(t_uint256,t_uint256)"
      },
      {
        "astId": 6946,
        "contract": "contracts/SolidWorldManager.sol:SolidWorldManager",
        "label": "projectBatches",
        "offset": 0,
        "slot": "161",
        "type": "t_mapping(t_uint256,t_array(t_uint256)dyn_storage)"
      },
      {
        "astId": 6950,
        "contract": "contracts/SolidWorldManager.sol:SolidWorldManager",
        "label": "forwardContractBatch",
        "offset": 0,
        "slot": "162",
        "type": "t_contract(ForwardContractBatchToken)6432"
      },
      {
        "astId": 6953,
        "contract": "contracts/SolidWorldManager.sol:SolidWorldManager",
        "label": "feeReceiver",
        "offset": 0,
        "slot": "163",
        "type": "t_address"
      },
      {
        "astId": 6956,
        "contract": "contracts/SolidWorldManager.sol:SolidWorldManager",
        "label": "weeklyRewardsMinter",
        "offset": 0,
        "slot": "164",
        "type": "t_address"
      },
      {
        "astId": 6960,
        "contract": "contracts/SolidWorldManager.sol:SolidWorldManager",
        "label": "collateralizedBasketTokenDeployer",
        "offset": 0,
        "slot": "165",
        "type": "t_contract(CollateralizedBasketTokenDeployer)6372"
      },
      {
        "astId": 6963,
        "contract": "contracts/SolidWorldManager.sol:SolidWorldManager",
        "label": "collateralizationFee",
        "offset": 20,
        "slot": "165",
        "type": "t_uint16"
      },
      {
        "astId": 6966,
        "contract": "contracts/SolidWorldManager.sol:SolidWorldManager",
        "label": "decollateralizationFee",
        "offset": 22,
        "slot": "165",
        "type": "t_uint16"
      },
      {
        "astId": 6969,
        "contract": "contracts/SolidWorldManager.sol:SolidWorldManager",
        "label": "rewardsFee",
        "offset": 24,
        "slot": "165",
        "type": "t_uint16"
      }
    ],
    "types": {
      "t_address": {
        "encoding": "inplace",
        "label": "address",
        "numberOfBytes": "20"
      },
      "t_array(t_uint256)49_storage": {
        "base": "t_uint256",
        "encoding": "inplace",
        "label": "uint256[49]",
        "numberOfBytes": "1568"
      },
      "t_array(t_uint256)50_storage": {
        "base": "t_uint256",
        "encoding": "inplace",
        "label": "uint256[50]",
        "numberOfBytes": "1600"
      },
      "t_array(t_uint256)dyn_storage": {
        "base": "t_uint256",
        "encoding": "dynamic_array",
        "label": "uint256[]",
        "numberOfBytes": "32"
      },
      "t_bool": {
        "encoding": "inplace",
        "label": "bool",
        "numberOfBytes": "1"
      },
      "t_contract(CollateralizedBasketToken)6341": {
        "encoding": "inplace",
        "label": "contract CollateralizedBasketToken",
        "numberOfBytes": "20"
      },
      "t_contract(CollateralizedBasketTokenDeployer)6372": {
        "encoding": "inplace",
        "label": "contract CollateralizedBasketTokenDeployer",
        "numberOfBytes": "20"
      },
      "t_contract(ForwardContractBatchToken)6432": {
        "encoding": "inplace",
        "label": "contract ForwardContractBatchToken",
        "numberOfBytes": "20"
      },
      "t_mapping(t_uint256,t_array(t_uint256)dyn_storage)": {
        "encoding": "mapping",
        "key": "t_uint256",
        "label": "mapping(uint256 => uint256[])",
        "numberOfBytes": "32",
        "value": "t_array(t_uint256)dyn_storage"
      },
      "t_mapping(t_uint256,t_bool)": {
        "encoding": "mapping",
        "key": "t_uint256",
        "label": "mapping(uint256 => bool)",
        "numberOfBytes": "32",
        "value": "t_bool"
      },
      "t_mapping(t_uint256,t_contract(CollateralizedBasketToken)6341)": {
        "encoding": "mapping",
        "key": "t_uint256",
        "label": "mapping(uint256 => contract CollateralizedBasketToken)",
        "numberOfBytes": "32",
        "value": "t_contract(CollateralizedBasketToken)6341"
      },
      "t_mapping(t_uint256,t_struct(Batch)11995_storage)": {
        "encoding": "mapping",
        "key": "t_uint256",
        "label": "mapping(uint256 => struct DomainDataTypes.Batch)",
        "numberOfBytes": "32",
        "value": "t_struct(Batch)11995_storage"
      },
      "t_mapping(t_uint256,t_struct(Category)12012_storage)": {
        "encoding": "mapping",
        "key": "t_uint256",
        "label": "mapping(uint256 => struct DomainDataTypes.Category)",
        "numberOfBytes": "32",
        "value": "t_struct(Category)12012_storage"
      },
      "t_mapping(t_uint256,t_uint256)": {
        "encoding": "mapping",
        "key": "t_uint256",
        "label": "mapping(uint256 => uint256)",
        "numberOfBytes": "32",
        "value": "t_uint256"
      },
      "t_struct(Batch)11995_storage": {
        "encoding": "inplace",
        "label": "struct DomainDataTypes.Batch",
        "members": [
          {
            "astId": 11982,
            "contract": "contracts/SolidWorldManager.sol:SolidWorldManager",
            "label": "id",
            "offset": 0,
            "slot": "0",
            "type": "t_uint256"
          },
          {
            "astId": 11984,
            "contract": "contracts/SolidWorldManager.sol:SolidWorldManager",
            "label": "projectId",
            "offset": 0,
            "slot": "1",
            "type": "t_uint256"
          },
          {
            "astId": 11986,
            "contract": "contracts/SolidWorldManager.sol:SolidWorldManager",
            "label": "supplier",
            "offset": 0,
            "slot": "2",
            "type": "t_address"
          },
          {
            "astId": 11988,
            "contract": "contracts/SolidWorldManager.sol:SolidWorldManager",
            "label": "certificationDate",
            "offset": 20,
            "slot": "2",
            "type": "t_uint32"
          },
          {
            "astId": 11990,
            "contract": "contracts/SolidWorldManager.sol:SolidWorldManager",
            "label": "vintage",
            "offset": 24,
            "slot": "2",
            "type": "t_uint16"
          },
          {
            "astId": 11992,
            "contract": "contracts/SolidWorldManager.sol:SolidWorldManager",
            "label": "status",
            "offset": 26,
            "slot": "2",
            "type": "t_uint8"
          },
          {
            "astId": 11994,
            "contract": "contracts/SolidWorldManager.sol:SolidWorldManager",
            "label": "batchTA",
            "offset": 27,
            "slot": "2",
            "type": "t_uint24"
          }
        ],
        "numberOfBytes": "96"
      },
      "t_struct(Category)12012_storage": {
        "encoding": "inplace",
        "label": "struct DomainDataTypes.Category",
        "members": [
          {
            "astId": 11997,
            "contract": "contracts/SolidWorldManager.sol:SolidWorldManager",
            "label": "volumeCoefficient",
            "offset": 0,
            "slot": "0",
            "type": "t_uint256"
          },
          {
            "astId": 11999,
            "contract": "contracts/SolidWorldManager.sol:SolidWorldManager",
            "label": "decayPerSecond",
            "offset": 0,
            "slot": "1",
            "type": "t_uint40"
          },
          {
            "astId": 12001,
            "contract": "contracts/SolidWorldManager.sol:SolidWorldManager",
            "label": "maxDepreciationPerYear",
            "offset": 5,
            "slot": "1",
            "type": "t_uint16"
          },
          {
            "astId": 12003,
            "contract": "contracts/SolidWorldManager.sol:SolidWorldManager",
            "label": "maxDepreciation",
            "offset": 7,
            "slot": "1",
            "type": "t_uint24"
          },
          {
            "astId": 12005,
            "contract": "contracts/SolidWorldManager.sol:SolidWorldManager",
            "label": "averageTA",
            "offset": 10,
            "slot": "1",
            "type": "t_uint24"
          },
          {
            "astId": 12007,
            "contract": "contracts/SolidWorldManager.sol:SolidWorldManager",
            "label": "totalCollateralized",
            "offset": 0,
            "slot": "2",
            "type": "t_uint256"
          },
          {
            "astId": 12009,
            "contract": "contracts/SolidWorldManager.sol:SolidWorldManager",
            "label": "lastCollateralizationTimestamp",
            "offset": 0,
            "slot": "3",
            "type": "t_uint32"
          },
          {
            "astId": 12011,
            "contract": "contracts/SolidWorldManager.sol:SolidWorldManager",
            "label": "lastCollateralizationMomentum",
            "offset": 0,
            "slot": "4",
            "type": "t_uint256"
          }
        ],
        "numberOfBytes": "160"
      },
      "t_uint16": {
        "encoding": "inplace",
        "label": "uint16",
        "numberOfBytes": "2"
      },
      "t_uint24": {
        "encoding": "inplace",
        "label": "uint24",
        "numberOfBytes": "3"
      },
      "t_uint256": {
        "encoding": "inplace",
        "label": "uint256",
        "numberOfBytes": "32"
      },
      "t_uint32": {
        "encoding": "inplace",
        "label": "uint32",
        "numberOfBytes": "4"
      },
      "t_uint40": {
        "encoding": "inplace",
        "label": "uint40",
        "numberOfBytes": "5"
      },
      "t_uint8": {
        "encoding": "inplace",
        "label": "uint8",
        "numberOfBytes": "1"
      }
    }
  }
}