{
  "address": "0xFf00910Acb01910022a0f3Dfc7C641d0b3b6d192",
  "abi": [
    {
      "inputs": [
        {
          "internalType": "address",
          "name": "_governor",
          "type": "address"
        },
        {
          "internalType": "address",
          "name": "_guardian",
          "type": "address"
        },
        {
          "internalType": "address",
          "name": "_policy",
          "type": "address"
        },
        {
          "internalType": "address",
          "name": "_vault",
          "type": "address"
        }
      ],
      "stateMutability": "nonpayable",
      "type": "constructor"
    },
    {
      "anonymous": false,
      "inputs": [
        {
          "indexed": true,
          "internalType": "contract ISolidDaoManagement",
          "name": "authority",
          "type": "address"
        }
      ],
      "name": "AuthorityUpdated",
      "type": "event"
    },
    {
      "anonymous": false,
      "inputs": [
        {
          "indexed": true,
          "internalType": "address",
          "name": "from",
          "type": "address"
        },
        {
          "indexed": true,
          "internalType": "address",
          "name": "to",
          "type": "address"
        }
      ],
      "name": "GovernorPulled",
      "type": "event"
    },
    {
      "anonymous": false,
      "inputs": [
        {
          "indexed": true,
          "internalType": "address",
          "name": "from",
          "type": "address"
        },
        {
          "indexed": true,
          "internalType": "address",
          "name": "to",
          "type": "address"
        },
        {
          "indexed": false,
          "internalType": "bool",
          "name": "_effectiveImmediately",
          "type": "bool"
        }
      ],
      "name": "GovernorPushed",
      "type": "event"
    },
    {
      "anonymous": false,
      "inputs": [
        {
          "indexed": true,
          "internalType": "address",
          "name": "from",
          "type": "address"
        },
        {
          "indexed": true,
          "internalType": "address",
          "name": "to",
          "type": "address"
        }
      ],
      "name": "GuardianPulled",
      "type": "event"
    },
    {
      "anonymous": false,
      "inputs": [
        {
          "indexed": true,
          "internalType": "address",
          "name": "from",
          "type": "address"
        },
        {
          "indexed": true,
          "internalType": "address",
          "name": "to",
          "type": "address"
        },
        {
          "indexed": false,
          "internalType": "bool",
          "name": "_effectiveImmediately",
          "type": "bool"
        }
      ],
      "name": "GuardianPushed",
      "type": "event"
    },
    {
      "anonymous": false,
      "inputs": [
        {
          "indexed": true,
          "internalType": "address",
          "name": "from",
          "type": "address"
        },
        {
          "indexed": true,
          "internalType": "address",
          "name": "to",
          "type": "address"
        }
      ],
      "name": "PolicyPulled",
      "type": "event"
    },
    {
      "anonymous": false,
      "inputs": [
        {
          "indexed": true,
          "internalType": "address",
          "name": "from",
          "type": "address"
        },
        {
          "indexed": true,
          "internalType": "address",
          "name": "to",
          "type": "address"
        },
        {
          "indexed": false,
          "internalType": "bool",
          "name": "_effectiveImmediately",
          "type": "bool"
        }
      ],
      "name": "PolicyPushed",
      "type": "event"
    },
    {
      "anonymous": false,
      "inputs": [
        {
          "indexed": true,
          "internalType": "address",
          "name": "from",
          "type": "address"
        },
        {
          "indexed": true,
          "internalType": "address",
          "name": "to",
          "type": "address"
        }
      ],
      "name": "VaultPulled",
      "type": "event"
    },
    {
      "anonymous": false,
      "inputs": [
        {
          "indexed": true,
          "internalType": "address",
          "name": "from",
          "type": "address"
        },
        {
          "indexed": true,
          "internalType": "address",
          "name": "to",
          "type": "address"
        },
        {
          "indexed": false,
          "internalType": "bool",
          "name": "_effectiveImmediately",
          "type": "bool"
        }
      ],
      "name": "VaultPushed",
      "type": "event"
    },
    {
      "inputs": [],
      "name": "authority",
      "outputs": [
        {
          "internalType": "contract ISolidDaoManagement",
          "name": "",
          "type": "address"
        }
      ],
      "stateMutability": "view",
      "type": "function"
    },
    {
      "inputs": [],
      "name": "governor",
      "outputs": [
        {
          "internalType": "address",
          "name": "",
          "type": "address"
        }
      ],
      "stateMutability": "view",
      "type": "function"
    },
    {
      "inputs": [],
      "name": "guardian",
      "outputs": [
        {
          "internalType": "address",
          "name": "",
          "type": "address"
        }
      ],
      "stateMutability": "view",
      "type": "function"
    },
    {
      "inputs": [],
      "name": "newGovernor",
      "outputs": [
        {
          "internalType": "address",
          "name": "",
          "type": "address"
        }
      ],
      "stateMutability": "view",
      "type": "function"
    },
    {
      "inputs": [],
      "name": "newGuardian",
      "outputs": [
        {
          "internalType": "address",
          "name": "",
          "type": "address"
        }
      ],
      "stateMutability": "view",
      "type": "function"
    },
    {
      "inputs": [],
      "name": "newPolicy",
      "outputs": [
        {
          "internalType": "address",
          "name": "",
          "type": "address"
        }
      ],
      "stateMutability": "view",
      "type": "function"
    },
    {
      "inputs": [],
      "name": "newVault",
      "outputs": [
        {
          "internalType": "address",
          "name": "",
          "type": "address"
        }
      ],
      "stateMutability": "view",
      "type": "function"
    },
    {
      "inputs": [],
      "name": "policy",
      "outputs": [
        {
          "internalType": "address",
          "name": "",
          "type": "address"
        }
      ],
      "stateMutability": "view",
      "type": "function"
    },
    {
      "inputs": [],
      "name": "pullGovernor",
      "outputs": [],
      "stateMutability": "nonpayable",
      "type": "function"
    },
    {
      "inputs": [],
      "name": "pullGuardian",
      "outputs": [],
      "stateMutability": "nonpayable",
      "type": "function"
    },
    {
      "inputs": [],
      "name": "pullPolicy",
      "outputs": [],
      "stateMutability": "nonpayable",
      "type": "function"
    },
    {
      "inputs": [],
      "name": "pullVault",
      "outputs": [],
      "stateMutability": "nonpayable",
      "type": "function"
    },
    {
      "inputs": [
        {
          "internalType": "address",
          "name": "_newGovernor",
          "type": "address"
        },
        {
          "internalType": "bool",
          "name": "_effectiveImmediately",
          "type": "bool"
        }
      ],
      "name": "pushGovernor",
      "outputs": [],
      "stateMutability": "nonpayable",
      "type": "function"
    },
    {
      "inputs": [
        {
          "internalType": "address",
          "name": "_newGuardian",
          "type": "address"
        },
        {
          "internalType": "bool",
          "name": "_effectiveImmediately",
          "type": "bool"
        }
      ],
      "name": "pushGuardian",
      "outputs": [],
      "stateMutability": "nonpayable",
      "type": "function"
    },
    {
      "inputs": [
        {
          "internalType": "address",
          "name": "_newPolicy",
          "type": "address"
        },
        {
          "internalType": "bool",
          "name": "_effectiveImmediately",
          "type": "bool"
        }
      ],
      "name": "pushPolicy",
      "outputs": [],
      "stateMutability": "nonpayable",
      "type": "function"
    },
    {
      "inputs": [
        {
          "internalType": "address",
          "name": "_newVault",
          "type": "address"
        },
        {
          "internalType": "bool",
          "name": "_effectiveImmediately",
          "type": "bool"
        }
      ],
      "name": "pushVault",
      "outputs": [],
      "stateMutability": "nonpayable",
      "type": "function"
    },
    {
      "inputs": [
        {
          "internalType": "contract ISolidDaoManagement",
          "name": "_newAuthority",
          "type": "address"
        }
      ],
      "name": "setAuthority",
      "outputs": [],
      "stateMutability": "nonpayable",
      "type": "function"
    },
    {
      "inputs": [],
      "name": "vault",
      "outputs": [
        {
          "internalType": "address",
          "name": "",
          "type": "address"
        }
      ],
      "stateMutability": "view",
      "type": "function"
    }
  ],
  "transactionHash": "0x24b22eca880fdc7a5e870c67736e6af59157cb9f69f966feed9e191e32c33eb8",
  "args": [
    "0x8B3A08b22d25C60e4b2BfD984e331568ECa4C299",
    "0x8B3A08b22d25C60e4b2BfD984e331568ECa4C299",
    "0x8B3A08b22d25C60e4b2BfD984e331568ECa4C299",
    "0x8B3A08b22d25C60e4b2BfD984e331568ECa4C299"
  ],
  "numDeployments": 1,
  "solcInputHash": "ff44a7223596cd9c355a727819cd01e7",
  "bytecode": "0x60806040526040518060400160405280600c81526020017f554e415554484f52495a45440000000000000000000000000000000000000000815250600090816200004a9190620006b8565b503480156200005857600080fd5b50604051620022ea380380620022ea83398181016040528101906200007e919062000809565b3080600160006101000a81548173ffffffffffffffffffffffffffffffffffffffff021916908373ffffffffffffffffffffffffffffffffffffffff1602179055508073ffffffffffffffffffffffffffffffffffffffff167f2f658b440c35314f52658ea8a740e05b284cdc84dc9ae01e891f21b8933e7cad60405160405180910390a25083600260006101000a81548173ffffffffffffffffffffffffffffffffffffffff021916908373ffffffffffffffffffffffffffffffffffffffff160217905550600260009054906101000a900473ffffffffffffffffffffffffffffffffffffffff1673ffffffffffffffffffffffffffffffffffffffff16600073ffffffffffffffffffffffffffffffffffffffff167f4f337dcbb2512f18373c1f72d990a2f0a6ee5024b04007c52afd01eb73374a896001604051620001c8919062000898565b60405180910390a382600360006101000a81548173ffffffffffffffffffffffffffffffffffffffff021916908373ffffffffffffffffffffffffffffffffffffffff160217905550600360009054906101000a900473ffffffffffffffffffffffffffffffffffffffff1673ffffffffffffffffffffffffffffffffffffffff16600073ffffffffffffffffffffffffffffffffffffffff167fde655975891e8f09671597b37bd4d663bcc5c21dc6d7641b33cdf85fbe15d08b600160405162000294919062000898565b60405180910390a381600460006101000a81548173ffffffffffffffffffffffffffffffffffffffff021916908373ffffffffffffffffffffffffffffffffffffffff160217905550600460009054906101000a900473ffffffffffffffffffffffffffffffffffffffff1673ffffffffffffffffffffffffffffffffffffffff16600073ffffffffffffffffffffffffffffffffffffffff167f90a5902a45c24aae553d5aff384ca16d6560f08d74c9784a4fbd2796d9e13f2b600160405162000360919062000898565b60405180910390a380600560006101000a81548173ffffffffffffffffffffffffffffffffffffffff021916908373ffffffffffffffffffffffffffffffffffffffff160217905550600560009054906101000a900473ffffffffffffffffffffffffffffffffffffffff1673ffffffffffffffffffffffffffffffffffffffff16600073ffffffffffffffffffffffffffffffffffffffff167f05a80f5053574d6a62733e1692e8cbcfaf927dc82df0a7267ea2e489a7cc18ff60016040516200042c919062000898565b60405180910390a350505050620008b5565b600081519050919050565b7f4e487b7100000000000000000000000000000000000000000000000000000000600052604160045260246000fd5b7f4e487b7100000000000000000000000000000000000000000000000000000000600052602260045260246000fd5b60006002820490506001821680620004c057607f821691505b602082108103620004d657620004d562000478565b5b50919050565b60008190508160005260206000209050919050565b60006020601f8301049050919050565b600082821b905092915050565b600060088302620005407fffffffffffffffffffffffffffffffffffffffffffffffffffffffffffffffff8262000501565b6200054c868362000501565b95508019841693508086168417925050509392505050565b6000819050919050565b6000819050919050565b600062000599620005936200058d8462000564565b6200056e565b62000564565b9050919050565b6000819050919050565b620005b58362000578565b620005cd620005c482620005a0565b8484546200050e565b825550505050565b600090565b620005e4620005d5565b620005f1818484620005aa565b505050565b5b8181101562000619576200060d600082620005da565b600181019050620005f7565b5050565b601f82111562000668576200063281620004dc565b6200063d84620004f1565b810160208510156200064d578190505b620006656200065c85620004f1565b830182620005f6565b50505b505050565b600082821c905092915050565b60006200068d600019846008026200066d565b1980831691505092915050565b6000620006a883836200067a565b9150826002028217905092915050565b620006c3826200043e565b67ffffffffffffffff811115620006df57620006de62000449565b5b620006eb8254620004a7565b620006f88282856200061d565b600060209050601f8311600181146200073057600084156200071b578287015190505b6200072785826200069a565b86555062000797565b601f1984166200074086620004dc565b60005b828110156200076a5784890151825560018201915060208501945060208101905062000743565b868310156200078a578489015162000786601f8916826200067a565b8355505b6001600288020188555050505b505050505050565b600080fd5b600073ffffffffffffffffffffffffffffffffffffffff82169050919050565b6000620007d182620007a4565b9050919050565b620007e381620007c4565b8114620007ef57600080fd5b50565b6000815190506200080381620007d8565b92915050565b600080600080608085870312156200082657620008256200079f565b5b60006200083687828801620007f2565b94505060206200084987828801620007f2565b93505060406200085c87828801620007f2565b92505060606200086f87828801620007f2565b91505092959194509250565b60008115159050919050565b62000892816200087b565b82525050565b6000602082019050620008af600083018462000887565b92915050565b611a2580620008c56000396000f3fe608060405234801561001057600080fd5b50600436106100e65760003560e01c80630505c8c9146100eb5780630c340a241461010957806319859847146101275780631afe871414610145578063215e92bc146101615780633bf90c281461016b578063452a93201461018957806352759694146101a757806354e3d703146101c35780635beede08146101df5780636fe72c14146101e95780637a9e5e4b1461020557806388aaf0c8146102215780638fd205771461023f578063be11f1dd1461025d578063bf7e214f14610267578063d8a0421214610285578063fbfa77cf1461028f575b600080fd5b6100f36102ad565b60405161010091906114fe565b60405180910390f35b6101116102d3565b60405161011e91906114fe565b60405180910390f35b61012f6102f9565b60405161013c91906114fe565b60405180910390f35b61015f600480360381019061015a9190611582565b61031f565b005b610169610558565b005b6101736106eb565b60405161018091906114fe565b60405180910390f35b610191610711565b60405161019e91906114fe565b60405180910390f35b6101c160048036038101906101bc9190611582565b610737565b005b6101dd60048036038101906101d89190611582565b610970565b005b6101e7610ba9565b005b61020360048036038101906101fe9190611582565b610d3c565b005b61021f600480360381019061021a9190611600565b610f75565b005b6102296110ff565b60405161023691906114fe565b60405180910390f35b610247611125565b60405161025491906114fe565b60405180910390f35b61026561114b565b005b61026f6112de565b60405161027c919061168c565b60405180910390f35b61028d611304565b005b610297611497565b6040516102a491906114fe565b60405180910390f35b600460009054906101000a900473ffffffffffffffffffffffffffffffffffffffff1681565b600260009054906101000a900473ffffffffffffffffffffffffffffffffffffffff1681565b600760009054906101000a900473ffffffffffffffffffffffffffffffffffffffff1681565b600160009054906101000a900473ffffffffffffffffffffffffffffffffffffffff1673ffffffffffffffffffffffffffffffffffffffff16630c340a246040518163ffffffff1660e01b8152600401602060405180830381865afa15801561038c573d6000803e3d6000fd5b505050506040513d601f19601f820116820180604052508101906103b091906116bc565b73ffffffffffffffffffffffffffffffffffffffff163373ffffffffffffffffffffffffffffffffffffffff1614600090610421576040517f08c379a000000000000000000000000000000000000000000000000000000000815260040161041891906117f3565b60405180910390fd5b50801561046a5781600360006101000a81548173ffffffffffffffffffffffffffffffffffffffff021916908373ffffffffffffffffffffffffffffffffffffffff1602179055505b81600760006101000a81548173ffffffffffffffffffffffffffffffffffffffff021916908373ffffffffffffffffffffffffffffffffffffffff160217905550600760009054906101000a900473ffffffffffffffffffffffffffffffffffffffff1673ffffffffffffffffffffffffffffffffffffffff16600360009054906101000a900473ffffffffffffffffffffffffffffffffffffffff1673ffffffffffffffffffffffffffffffffffffffff167fde655975891e8f09671597b37bd4d663bcc5c21dc6d7641b33cdf85fbe15d08b8360405161054c9190611824565b60405180910390a35050565b600960009054906101000a900473ffffffffffffffffffffffffffffffffffffffff1673ffffffffffffffffffffffffffffffffffffffff163373ffffffffffffffffffffffffffffffffffffffff16146105e8576040517f08c379a00000000000000000000000000000000000000000000000000000000081526004016105df9061188b565b60405180910390fd5b600960009054906101000a900473ffffffffffffffffffffffffffffffffffffffff1673ffffffffffffffffffffffffffffffffffffffff16600560009054906101000a900473ffffffffffffffffffffffffffffffffffffffff1673ffffffffffffffffffffffffffffffffffffffff167f3d08e01e3b8340be6ca709db7a9321448661a1f490da4d7f3eb03d84fe73095360405160405180910390a3600960009054906101000a900473ffffffffffffffffffffffffffffffffffffffff16600560006101000a81548173ffffffffffffffffffffffffffffffffffffffff021916908373ffffffffffffffffffffffffffffffffffffffff160217905550565b600860009054906101000a900473ffffffffffffffffffffffffffffffffffffffff1681565b600360009054906101000a900473ffffffffffffffffffffffffffffffffffffffff1681565b600160009054906101000a900473ffffffffffffffffffffffffffffffffffffffff1673ffffffffffffffffffffffffffffffffffffffff16630c340a246040518163ffffffff1660e01b8152600401602060405180830381865afa1580156107a4573d6000803e3d6000fd5b505050506040513d601f19601f820116820180604052508101906107c891906116bc565b73ffffffffffffffffffffffffffffffffffffffff163373ffffffffffffffffffffffffffffffffffffffff1614600090610839576040517f08c379a000000000000000000000000000000000000000000000000000000000815260040161083091906117f3565b60405180910390fd5b5080156108825781600260006101000a81548173ffffffffffffffffffffffffffffffffffffffff021916908373ffffffffffffffffffffffffffffffffffffffff1602179055505b81600660006101000a81548173ffffffffffffffffffffffffffffffffffffffff021916908373ffffffffffffffffffffffffffffffffffffffff160217905550600660009054906101000a900473ffffffffffffffffffffffffffffffffffffffff1673ffffffffffffffffffffffffffffffffffffffff16600260009054906101000a900473ffffffffffffffffffffffffffffffffffffffff1673ffffffffffffffffffffffffffffffffffffffff167f4f337dcbb2512f18373c1f72d990a2f0a6ee5024b04007c52afd01eb73374a89836040516109649190611824565b60405180910390a35050565b600160009054906101000a900473ffffffffffffffffffffffffffffffffffffffff1673ffffffffffffffffffffffffffffffffffffffff16630c340a246040518163ffffffff1660e01b8152600401602060405180830381865afa1580156109dd573d6000803e3d6000fd5b505050506040513d601f19601f82011682018060405250810190610a0191906116bc565b73ffffffffffffffffffffffffffffffffffffffff163373ffffffffffffffffffffffffffffffffffffffff1614600090610a72576040517f08c379a0000000000000000000000000000000000000000000000000000000008152600401610a6991906117f3565b60405180910390fd5b508015610abb5781600460006101000a81548173ffffffffffffffffffffffffffffffffffffffff021916908373ffffffffffffffffffffffffffffffffffffffff1602179055505b81600860006101000a81548173ffffffffffffffffffffffffffffffffffffffff021916908373ffffffffffffffffffffffffffffffffffffffff160217905550600860009054906101000a900473ffffffffffffffffffffffffffffffffffffffff1673ffffffffffffffffffffffffffffffffffffffff16600460009054906101000a900473ffffffffffffffffffffffffffffffffffffffff1673ffffffffffffffffffffffffffffffffffffffff167f90a5902a45c24aae553d5aff384ca16d6560f08d74c9784a4fbd2796d9e13f2b83604051610b9d9190611824565b60405180910390a35050565b600860009054906101000a900473ffffffffffffffffffffffffffffffffffffffff1673ffffffffffffffffffffffffffffffffffffffff163373ffffffffffffffffffffffffffffffffffffffff1614610c39576040517f08c379a0000000000000000000000000000000000000000000000000000000008152600401610c30906118f7565b60405180910390fd5b600860009054906101000a900473ffffffffffffffffffffffffffffffffffffffff1673ffffffffffffffffffffffffffffffffffffffff16600460009054906101000a900473ffffffffffffffffffffffffffffffffffffffff1673ffffffffffffffffffffffffffffffffffffffff167f64d2fa522b403ca222efff0c7ad07d2ef45472a45e5770918bdfa9a2845d29a860405160405180910390a3600860009054906101000a900473ffffffffffffffffffffffffffffffffffffffff16600460006101000a81548173ffffffffffffffffffffffffffffffffffffffff021916908373ffffffffffffffffffffffffffffffffffffffff160217905550565b600160009054906101000a900473ffffffffffffffffffffffffffffffffffffffff1673ffffffffffffffffffffffffffffffffffffffff16630c340a246040518163ffffffff1660e01b8152600401602060405180830381865afa158015610da9573d6000803e3d6000fd5b505050506040513d601f19601f82011682018060405250810190610dcd91906116bc565b73ffffffffffffffffffffffffffffffffffffffff163373ffffffffffffffffffffffffffffffffffffffff1614600090610e3e576040517f08c379a0000000000000000000000000000000000000000000000000000000008152600401610e3591906117f3565b60405180910390fd5b508015610e875781600560006101000a81548173ffffffffffffffffffffffffffffffffffffffff021916908373ffffffffffffffffffffffffffffffffffffffff1602179055505b81600960006101000a81548173ffffffffffffffffffffffffffffffffffffffff021916908373ffffffffffffffffffffffffffffffffffffffff160217905550600960009054906101000a900473ffffffffffffffffffffffffffffffffffffffff1673ffffffffffffffffffffffffffffffffffffffff16600560009054906101000a900473ffffffffffffffffffffffffffffffffffffffff1673ffffffffffffffffffffffffffffffffffffffff167f05a80f5053574d6a62733e1692e8cbcfaf927dc82df0a7267ea2e489a7cc18ff83604051610f699190611824565b60405180910390a35050565b600160009054906101000a900473ffffffffffffffffffffffffffffffffffffffff1673ffffffffffffffffffffffffffffffffffffffff16630c340a246040518163ffffffff1660e01b8152600401602060405180830381865afa158015610fe2573d6000803e3d6000fd5b505050506040513d601f19601f8201168201806040525081019061100691906116bc565b73ffffffffffffffffffffffffffffffffffffffff163373ffffffffffffffffffffffffffffffffffffffff1614600090611077576040517f08c379a000000000000000000000000000000000000000000000000000000000815260040161106e91906117f3565b60405180910390fd5b5080600160006101000a81548173ffffffffffffffffffffffffffffffffffffffff021916908373ffffffffffffffffffffffffffffffffffffffff1602179055508073ffffffffffffffffffffffffffffffffffffffff167f2f658b440c35314f52658ea8a740e05b284cdc84dc9ae01e891f21b8933e7cad60405160405180910390a250565b600960009054906101000a900473ffffffffffffffffffffffffffffffffffffffff1681565b600660009054906101000a900473ffffffffffffffffffffffffffffffffffffffff1681565b600760009054906101000a900473ffffffffffffffffffffffffffffffffffffffff1673ffffffffffffffffffffffffffffffffffffffff163373ffffffffffffffffffffffffffffffffffffffff16146111db576040517f08c379a00000000000000000000000000000000000000000000000000000000081526004016111d290611963565b60405180910390fd5b600760009054906101000a900473ffffffffffffffffffffffffffffffffffffffff1673ffffffffffffffffffffffffffffffffffffffff16600360009054906101000a900473ffffffffffffffffffffffffffffffffffffffff1673ffffffffffffffffffffffffffffffffffffffff167f0960fb9900fb8096216606c4f7fc2fce5d08cc0c82da55cec8619b66b523848160405160405180910390a3600760009054906101000a900473ffffffffffffffffffffffffffffffffffffffff16600360006101000a81548173ffffffffffffffffffffffffffffffffffffffff021916908373ffffffffffffffffffffffffffffffffffffffff160217905550565b600160009054906101000a900473ffffffffffffffffffffffffffffffffffffffff1681565b600660009054906101000a900473ffffffffffffffffffffffffffffffffffffffff1673ffffffffffffffffffffffffffffffffffffffff163373ffffffffffffffffffffffffffffffffffffffff1614611394576040517f08c379a000000000000000000000000000000000000000000000000000000000815260040161138b906119cf565b60405180910390fd5b600660009054906101000a900473ffffffffffffffffffffffffffffffffffffffff1673ffffffffffffffffffffffffffffffffffffffff16600260009054906101000a900473ffffffffffffffffffffffffffffffffffffffff1673ffffffffffffffffffffffffffffffffffffffff167fffd6fed33fe8ec1016718bdd5d04ae6fecd9aba0da6578807daaaa7fc3d1682660405160405180910390a3600660009054906101000a900473ffffffffffffffffffffffffffffffffffffffff16600260006101000a81548173ffffffffffffffffffffffffffffffffffffffff021916908373ffffffffffffffffffffffffffffffffffffffff160217905550565b600560009054906101000a900473ffffffffffffffffffffffffffffffffffffffff1681565b600073ffffffffffffffffffffffffffffffffffffffff82169050919050565b60006114e8826114bd565b9050919050565b6114f8816114dd565b82525050565b600060208201905061151360008301846114ef565b92915050565b600080fd5b611527816114dd565b811461153257600080fd5b50565b6000813590506115448161151e565b92915050565b60008115159050919050565b61155f8161154a565b811461156a57600080fd5b50565b60008135905061157c81611556565b92915050565b6000806040838503121561159957611598611519565b5b60006115a785828601611535565b92505060206115b88582860161156d565b9150509250929050565b60006115cd826114dd565b9050919050565b6115dd816115c2565b81146115e857600080fd5b50565b6000813590506115fa816115d4565b92915050565b60006020828403121561161657611615611519565b5b6000611624848285016115eb565b91505092915050565b6000819050919050565b600061165261164d611648846114bd565b61162d565b6114bd565b9050919050565b600061166482611637565b9050919050565b600061167682611659565b9050919050565b6116868161166b565b82525050565b60006020820190506116a1600083018461167d565b92915050565b6000815190506116b68161151e565b92915050565b6000602082840312156116d2576116d1611519565b5b60006116e0848285016116a7565b91505092915050565b7f4e487b7100000000000000000000000000000000000000000000000000000000600052602260045260246000fd5b6000600282049050600182168061173057607f821691505b602082108103611743576117426116e9565b5b50919050565b600082825260208201905092915050565b60008190508160005260206000209050919050565b6000815461177c81611718565b6117868186611749565b945060018216600081146117a157600181146117b7576117ea565b60ff1983168652811515602002860193506117ea565b6117c08561175a565b60005b838110156117e2578154818901526001820191506020810190506117c3565b808801955050505b50505092915050565b6000602082019050818103600083015261180d818461176f565b905092915050565b61181e8161154a565b82525050565b60006020820190506118396000830184611815565b92915050565b7f216e65775661756c740000000000000000000000000000000000000000000000600082015250565b6000611875600983611749565b91506118808261183f565b602082019050919050565b600060208201905081810360008301526118a481611868565b9050919050565b7f216e6577506f6c69637900000000000000000000000000000000000000000000600082015250565b60006118e1600a83611749565b91506118ec826118ab565b602082019050919050565b60006020820190508181036000830152611910816118d4565b9050919050565b7f216e657747756172640000000000000000000000000000000000000000000000600082015250565b600061194d600983611749565b915061195882611917565b602082019050919050565b6000602082019050818103600083015261197c81611940565b9050919050565b7f216e6577476f7665726e6f720000000000000000000000000000000000000000600082015250565b60006119b9600c83611749565b91506119c482611983565b602082019050919050565b600060208201905081810360008301526119e8816119ac565b905091905056fea264697066735822122082b7aa6b19ae7503b670911e9b9f20bd83b9f2637e02ffe0da4d671131e21e3164736f6c63430008100033",
  "devdoc": {
    "author": "Solid World DAO",
    "kind": "dev",
    "methods": {
      "setAuthority(address)": {
        "details": "Emit AuthorityUpdated event",
        "params": {
          "_newAuthority": "Address of the new Solid Dao Management smart contract"
        }
      }
    },
    "title": "Solid Dao Management",
    "version": 1
  },
  "userdoc": {
    "kind": "user",
    "methods": {
      "setAuthority(address)": {
        "notice": "Function to set and update Solid Dao Management smart contract address"
      }
    },
    "notice": "Contract to manage and store the addresses of Solid World DAO authorities",
    "version": 1
  },
  "storageLayout": {
    "storage": [
      {
        "astId": 8443,
        "contract": "contracts/SolidDaoManagement.sol:SolidDaoManagement",
        "label": "UNAUTHORIZED",
        "offset": 0,
        "slot": "0",
        "type": "t_string_storage"
      },
      {
        "astId": 8446,
        "contract": "contracts/SolidDaoManagement.sol:SolidDaoManagement",
        "label": "authority",
        "offset": 0,
        "slot": "1",
        "type": "t_contract(ISolidDaoManagement)8430"
      },
      {
        "astId": 7506,
        "contract": "contracts/SolidDaoManagement.sol:SolidDaoManagement",
        "label": "governor",
        "offset": 0,
        "slot": "2",
        "type": "t_address"
      },
      {
        "astId": 7509,
        "contract": "contracts/SolidDaoManagement.sol:SolidDaoManagement",
        "label": "guardian",
        "offset": 0,
        "slot": "3",
        "type": "t_address"
      },
      {
        "astId": 7512,
        "contract": "contracts/SolidDaoManagement.sol:SolidDaoManagement",
        "label": "policy",
        "offset": 0,
        "slot": "4",
        "type": "t_address"
      },
      {
        "astId": 7515,
        "contract": "contracts/SolidDaoManagement.sol:SolidDaoManagement",
        "label": "vault",
        "offset": 0,
        "slot": "5",
        "type": "t_address"
      },
      {
        "astId": 7517,
        "contract": "contracts/SolidDaoManagement.sol:SolidDaoManagement",
        "label": "newGovernor",
        "offset": 0,
        "slot": "6",
        "type": "t_address"
      },
      {
        "astId": 7519,
        "contract": "contracts/SolidDaoManagement.sol:SolidDaoManagement",
        "label": "newGuardian",
        "offset": 0,
        "slot": "7",
        "type": "t_address"
      },
      {
        "astId": 7521,
        "contract": "contracts/SolidDaoManagement.sol:SolidDaoManagement",
        "label": "newPolicy",
        "offset": 0,
        "slot": "8",
        "type": "t_address"
      },
      {
        "astId": 7523,
        "contract": "contracts/SolidDaoManagement.sol:SolidDaoManagement",
        "label": "newVault",
        "offset": 0,
        "slot": "9",
        "type": "t_address"
      }
    ],
    "types": {
      "t_address": {
        "encoding": "inplace",
        "label": "address",
        "numberOfBytes": "20"
      },
      "t_contract(ISolidDaoManagement)8430": {
        "encoding": "inplace",
        "label": "contract ISolidDaoManagement",
        "numberOfBytes": "20"
      },
      "t_string_storage": {
        "encoding": "bytes",
        "label": "string",
        "numberOfBytes": "32"
      }
    }
  }
}