{
  "address": "0xf2e44b72fBC8004F9210E09330C2996739A01cf7",
  "abi": [
    {
      "inputs": [
        {
          "internalType": "uint256",
          "name": "startDate",
          "type": "uint256"
        },
        {
          "internalType": "uint256",
          "name": "endDate",
          "type": "uint256"
        }
      ],
      "name": "IncorrectDates",
      "type": "error"
    },
    {
      "anonymous": false,
      "inputs": [
        {
          "indexed": true,
          "internalType": "uint256",
          "name": "batchId",
          "type": "uint256"
        },
        {
          "indexed": false,
          "internalType": "uint256",
          "name": "amountIn",
          "type": "uint256"
        },
        {
          "indexed": false,
          "internalType": "uint256",
          "name": "amountOut",
          "type": "uint256"
        },
        {
          "indexed": true,
          "internalType": "address",
          "name": "batchOwner",
          "type": "address"
        }
      ],
      "name": "BatchCollateralized",
      "type": "event"
    },
    {
      "anonymous": false,
      "inputs": [
        {
          "indexed": true,
          "internalType": "uint256",
          "name": "batchId",
          "type": "uint256"
        }
      ],
      "name": "BatchCreated",
      "type": "event"
    },
    {
      "anonymous": false,
      "inputs": [
        {
          "indexed": true,
          "internalType": "uint256",
          "name": "categoryId",
          "type": "uint256"
        }
      ],
      "name": "CategoryCreated",
      "type": "event"
    },
    {
      "anonymous": false,
      "inputs": [
        {
          "indexed": false,
          "internalType": "uint8",
          "name": "version",
          "type": "uint8"
        }
      ],
      "name": "Initialized",
      "type": "event"
    },
    {
      "anonymous": false,
      "inputs": [
        {
          "indexed": true,
          "internalType": "address",
          "name": "previousOwner",
          "type": "address"
        },
        {
          "indexed": true,
          "internalType": "address",
          "name": "newOwner",
          "type": "address"
        }
      ],
      "name": "OwnershipTransferred",
      "type": "event"
    },
    {
      "anonymous": false,
      "inputs": [
        {
          "indexed": true,
          "internalType": "uint256",
          "name": "projectId",
          "type": "uint256"
        }
      ],
      "name": "ProjectCreated",
      "type": "event"
    },
    {
      "anonymous": false,
      "inputs": [
        {
          "indexed": true,
          "internalType": "uint256",
          "name": "batchId",
          "type": "uint256"
        },
        {
          "indexed": false,
          "internalType": "uint256",
          "name": "amountIn",
          "type": "uint256"
        },
        {
          "indexed": false,
          "internalType": "uint256",
          "name": "amountOut",
          "type": "uint256"
        },
        {
          "indexed": true,
          "internalType": "address",
          "name": "tokensOwner",
          "type": "address"
        }
      ],
      "name": "TokensDecollateralized",
      "type": "event"
    },
    {
      "inputs": [
        {
          "components": [
            {
              "internalType": "uint256",
              "name": "id",
              "type": "uint256"
            },
            {
              "internalType": "uint256",
              "name": "projectId",
              "type": "uint256"
            },
            {
              "internalType": "uint256",
              "name": "totalAmount",
              "type": "uint256"
            },
            {
              "internalType": "address",
              "name": "owner",
              "type": "address"
            },
            {
              "internalType": "uint32",
              "name": "expectedDueDate",
              "type": "uint32"
            },
            {
              "internalType": "uint16",
              "name": "vintage",
              "type": "uint16"
            },
            {
              "internalType": "uint8",
              "name": "status",
              "type": "uint8"
            },
            {
              "internalType": "uint24",
              "name": "discountRate",
              "type": "uint24"
            }
          ],
          "internalType": "struct SolidWorldManager.Batch",
          "name": "batch",
          "type": "tuple"
        }
      ],
      "name": "addBatch",
      "outputs": [],
      "stateMutability": "nonpayable",
      "type": "function"
    },
    {
      "inputs": [
        {
          "internalType": "uint256",
          "name": "categoryId",
          "type": "uint256"
        },
        {
          "internalType": "string",
          "name": "tokenName",
          "type": "string"
        },
        {
          "internalType": "string",
          "name": "tokenSymbol",
          "type": "string"
        }
      ],
      "name": "addCategory",
      "outputs": [],
      "stateMutability": "nonpayable",
      "type": "function"
    },
    {
      "inputs": [
        {
          "internalType": "uint256",
          "name": "categoryId",
          "type": "uint256"
        },
        {
          "internalType": "uint256",
          "name": "projectId",
          "type": "uint256"
        }
      ],
      "name": "addProject",
      "outputs": [],
      "stateMutability": "nonpayable",
      "type": "function"
    },
    {
      "inputs": [
        {
          "internalType": "uint256",
          "name": "",
          "type": "uint256"
        }
      ],
      "name": "batchIds",
      "outputs": [
        {
          "internalType": "bool",
          "name": "",
          "type": "bool"
        }
      ],
      "stateMutability": "view",
      "type": "function"
    },
    {
      "inputs": [
        {
          "internalType": "uint256",
          "name": "",
          "type": "uint256"
        }
      ],
      "name": "batches",
      "outputs": [
        {
          "internalType": "uint256",
          "name": "id",
          "type": "uint256"
        },
        {
          "internalType": "uint256",
          "name": "projectId",
          "type": "uint256"
        },
        {
          "internalType": "uint256",
          "name": "totalAmount",
          "type": "uint256"
        },
        {
          "internalType": "address",
          "name": "owner",
          "type": "address"
        },
        {
          "internalType": "uint32",
          "name": "expectedDueDate",
          "type": "uint32"
        },
        {
          "internalType": "uint16",
          "name": "vintage",
          "type": "uint16"
        },
        {
          "internalType": "uint8",
          "name": "status",
          "type": "uint8"
        },
        {
          "internalType": "uint24",
          "name": "discountRate",
          "type": "uint24"
        }
      ],
      "stateMutability": "view",
      "type": "function"
    },
    {
      "inputs": [
        {
          "internalType": "uint256",
          "name": "",
          "type": "uint256"
        }
      ],
      "name": "categoryIds",
      "outputs": [
        {
          "internalType": "bool",
          "name": "",
          "type": "bool"
        }
      ],
      "stateMutability": "view",
      "type": "function"
    },
    {
      "inputs": [
        {
          "internalType": "uint256",
          "name": "",
          "type": "uint256"
        }
      ],
      "name": "categoryToken",
      "outputs": [
        {
          "internalType": "contract CollateralizedBasketToken",
          "name": "",
          "type": "address"
        }
      ],
      "stateMutability": "view",
      "type": "function"
    },
    {
      "inputs": [],
      "name": "collateralizationFee",
      "outputs": [
        {
          "internalType": "uint16",
          "name": "",
          "type": "uint16"
        }
      ],
      "stateMutability": "view",
      "type": "function"
    },
    {
      "inputs": [
        {
          "internalType": "uint256",
          "name": "batchId",
          "type": "uint256"
        },
        {
          "internalType": "uint256",
          "name": "amountIn",
          "type": "uint256"
        },
        {
          "internalType": "uint256",
          "name": "amountOutMin",
          "type": "uint256"
        }
      ],
      "name": "collateralizeBatch",
      "outputs": [],
      "stateMutability": "nonpayable",
      "type": "function"
    },
    {
      "inputs": [],
      "name": "decollateralizationFee",
      "outputs": [
        {
          "internalType": "uint16",
          "name": "",
          "type": "uint16"
        }
      ],
      "stateMutability": "view",
      "type": "function"
    },
    {
      "inputs": [
        {
          "internalType": "uint256",
          "name": "batchId",
          "type": "uint256"
        },
        {
          "internalType": "uint256",
          "name": "amountIn",
          "type": "uint256"
        },
        {
          "internalType": "uint256",
          "name": "amountOutMin",
          "type": "uint256"
        }
      ],
      "name": "decollateralizeTokens",
      "outputs": [],
      "stateMutability": "nonpayable",
      "type": "function"
    },
    {
      "inputs": [],
      "name": "feeReceiver",
      "outputs": [
        {
          "internalType": "address",
          "name": "",
          "type": "address"
        }
      ],
      "stateMutability": "view",
      "type": "function"
    },
    {
      "inputs": [],
      "name": "forwardContractBatch",
      "outputs": [
        {
          "internalType": "contract ForwardContractBatchToken",
          "name": "",
          "type": "address"
        }
      ],
      "stateMutability": "view",
      "type": "function"
    },
    {
      "inputs": [
        {
          "internalType": "uint256",
          "name": "projectId",
          "type": "uint256"
        }
      ],
      "name": "getBatchIdsByProject",
      "outputs": [
        {
          "internalType": "uint256[]",
          "name": "",
          "type": "uint256[]"
        }
      ],
      "stateMutability": "view",
      "type": "function"
    },
    {
      "inputs": [
        {
          "internalType": "uint256",
          "name": "categoryId",
          "type": "uint256"
        }
      ],
      "name": "getProjectIdsByCategory",
      "outputs": [
        {
          "internalType": "uint256[]",
          "name": "",
          "type": "uint256[]"
        }
      ],
      "stateMutability": "view",
      "type": "function"
    },
    {
      "inputs": [
        {
          "internalType": "contract ForwardContractBatchToken",
          "name": "_forwardContractBatch",
          "type": "address"
        },
        {
          "internalType": "uint16",
          "name": "_collateralizationFee",
          "type": "uint16"
        },
        {
          "internalType": "uint16",
          "name": "_decollateralizationFee",
          "type": "uint16"
        },
        {
          "internalType": "address",
          "name": "_feeReceiver",
          "type": "address"
        }
      ],
      "name": "initialize",
      "outputs": [],
      "stateMutability": "nonpayable",
      "type": "function"
    },
    {
      "inputs": [
        {
          "internalType": "address",
          "name": "",
          "type": "address"
        },
        {
          "internalType": "address",
          "name": "",
          "type": "address"
        },
        {
          "internalType": "uint256[]",
          "name": "",
          "type": "uint256[]"
        },
        {
          "internalType": "uint256[]",
          "name": "",
          "type": "uint256[]"
        },
        {
          "internalType": "bytes",
          "name": "",
          "type": "bytes"
        }
      ],
      "name": "onERC1155BatchReceived",
      "outputs": [
        {
          "internalType": "bytes4",
          "name": "",
          "type": "bytes4"
        }
      ],
      "stateMutability": "nonpayable",
      "type": "function"
    },
    {
      "inputs": [
        {
          "internalType": "address",
          "name": "",
          "type": "address"
        },
        {
          "internalType": "address",
          "name": "",
          "type": "address"
        },
        {
          "internalType": "uint256",
          "name": "",
          "type": "uint256"
        },
        {
          "internalType": "uint256",
          "name": "",
          "type": "uint256"
        },
        {
          "internalType": "bytes",
          "name": "",
          "type": "bytes"
        }
      ],
      "name": "onERC1155Received",
      "outputs": [
        {
          "internalType": "bytes4",
          "name": "",
          "type": "bytes4"
        }
      ],
      "stateMutability": "nonpayable",
      "type": "function"
    },
    {
      "inputs": [],
      "name": "owner",
      "outputs": [
        {
          "internalType": "address",
          "name": "",
          "type": "address"
        }
      ],
      "stateMutability": "view",
      "type": "function"
    },
    {
      "inputs": [
        {
          "internalType": "uint256",
          "name": "",
          "type": "uint256"
        }
      ],
      "name": "projectIds",
      "outputs": [
        {
          "internalType": "bool",
          "name": "",
          "type": "bool"
        }
      ],
      "stateMutability": "view",
      "type": "function"
    },
    {
      "inputs": [],
      "name": "renounceOwnership",
      "outputs": [],
      "stateMutability": "nonpayable",
      "type": "function"
    },
    {
      "inputs": [
        {
          "internalType": "uint16",
          "name": "_collateralizationFee",
          "type": "uint16"
        }
      ],
      "name": "setCollateralizationFee",
      "outputs": [],
      "stateMutability": "nonpayable",
      "type": "function"
    },
    {
      "inputs": [
        {
          "internalType": "uint16",
          "name": "_decollateralizationFee",
          "type": "uint16"
        }
      ],
      "name": "setDecollateralizationFee",
      "outputs": [],
      "stateMutability": "nonpayable",
      "type": "function"
    },
    {
      "inputs": [
        {
          "internalType": "address",
          "name": "_feeReceiver",
          "type": "address"
        }
      ],
      "name": "setFeeReceiver",
      "outputs": [],
      "stateMutability": "nonpayable",
      "type": "function"
    },
    {
      "inputs": [
        {
          "internalType": "uint256",
          "name": "batchId",
          "type": "uint256"
        },
        {
          "internalType": "uint256",
          "name": "amountIn",
          "type": "uint256"
        }
      ],
      "name": "simulateBatchCollateralization",
      "outputs": [
        {
          "internalType": "uint256",
          "name": "cbtUserCut",
          "type": "uint256"
        },
        {
          "internalType": "uint256",
          "name": "cbtDaoCut",
          "type": "uint256"
        },
        {
          "internalType": "uint256",
          "name": "cbtForfeited",
          "type": "uint256"
        }
      ],
      "stateMutability": "view",
      "type": "function"
    },
    {
      "inputs": [
        {
          "internalType": "bytes4",
          "name": "interfaceId",
          "type": "bytes4"
        }
      ],
      "name": "supportsInterface",
      "outputs": [
        {
          "internalType": "bool",
          "name": "",
          "type": "bool"
        }
      ],
      "stateMutability": "pure",
      "type": "function"
    },
    {
      "inputs": [
        {
          "internalType": "address",
          "name": "newOwner",
          "type": "address"
        }
      ],
      "name": "transferOwnership",
      "outputs": [],
      "stateMutability": "nonpayable",
      "type": "function"
    }
  ],
  "transactionHash": "0x026da31cca65426b295f69dee871f6dce07bd739762074c263098e899dfbba3b",
  "args": [],
  "numDeployments": 1,
  "solcInputHash": "0e983ab32f1c0b23defe02fb3c6712b1",
  "bytecode": "0x608060405234801561001057600080fd5b506001606555614239806100256000396000f3fe60806040523480156200001157600080fd5b5060043610620001dd5760003560e01c8063b3f00674116200010d578063ef5509bb11620000a3578063f2fde38b116200007a578063f2fde38b14620006bd578063f468ae9914620006d4578063f7c3fec214620006ea578063fb5ba8eb146200074a57600080fd5b8063ef5509bb1462000620578063efdcd9741462000637578063f23a6e61146200068257600080fd5b8063c007acf611620000e4578063c007acf614620005b5578063d63098dd14620005cc578063da12b23514620005f2578063ef016cdd146200060957600080fd5b8063b3f00674146200051d578063b505ab861462000531578063bc197c81146200054857600080fd5b806368fb7ea111620001835780638eb79114116200015a5780638eb7911414620003ac578063915e991314620003c3578063b32c4d8d14620003e9578063b3d346b914620004f757600080fd5b806368fb7ea11462000379578063715018a614620003905780638da5cb5b146200039a57600080fd5b806322cfa22511620001b857806322cfa22514620002bf5780632c5dd8a9146200030457806348c35ad4146200035357600080fd5b806301ffc9a714620001e2578063084951cf146200024f5780631fb0a624146200028c575b600080fd5b6200023a620001f33660046200263c565b7fffffffff00000000000000000000000000000000000000000000000000000000167fd9b67a26000000000000000000000000000000000000000000000000000000001490565b60405190151581526020015b60405180910390f35b606f546200027890760100000000000000000000000000000000000000000000900461ffff1681565b60405161ffff909116815260200162000246565b620002a36200029d36600462002680565b6200075e565b6040805193845260208401929092529082015260600162000246565b620002eb620002d0366004620026a3565b606a602052600090815260409020546001600160a01b031681565b6040516001600160a01b03909116815260200162000246565b6200035162000315366004620026ce565b606f805461ffff909216600160a01b027fffffffffffffffffffff0000ffffffffffffffffffffffffffffffffffffffff909216919091179055565b005b6200023a62000364366004620026a3565b60676020526000908152604090205460ff1681565b620003516200038a366004620026ee565b62000905565b6200035162000c78565b6033546001600160a01b0316620002eb565b62000351620003bd36600462002754565b62000c90565b620003da620003d4366004620026a3565b62000de7565b604051620002469190620027d5565b620004a1620003fa366004620026a3565b6069602052600090815260409020805460018201546002830154600390930154919290916001600160a01b03811690600160a01b810463ffffffff16907801000000000000000000000000000000000000000000000000810461ffff16907a010000000000000000000000000000000000000000000000000000810460ff16907b01000000000000000000000000000000000000000000000000000000900462ffffff1688565b604080519889526020890197909752958701949094526001600160a01b03909216606086015263ffffffff16608085015261ffff1660a084015260ff1660c083015262ffffff1660e08201526101000162000246565b6200023a62000508366004620026a3565b60686020526000908152604090205460ff1681565b606f54620002eb906001600160a01b031681565b62000351620005423660046200281b565b62000e4b565b6200058362000559366004620029a8565b7fbc197c810000000000000000000000000000000000000000000000000000000095945050505050565b6040517fffffffff00000000000000000000000000000000000000000000000000000000909116815260200162000246565b62000351620005c63660046200281b565b62001274565b6200023a620005dd366004620026a3565b60666020526000908152604090205460ff1681565b620003da62000603366004620026a3565b62001778565b620003516200061a36600462002680565b620017da565b620003516200063136600462002a64565b62001930565b620003516200064836600462002ac9565b606f80547fffffffffffffffffffffffff0000000000000000000000000000000000000000166001600160a01b0392909216919091179055565b620005836200069336600462002ae9565b7ff23a6e610000000000000000000000000000000000000000000000000000000095945050505050565b62000351620006ce36600462002ac9565b62001b1d565b606f546200027890600160a01b900461ffff1681565b62000351620006fb366004620026ce565b606f805461ffff909216760100000000000000000000000000000000000000000000027fffffffffffffffff0000ffffffffffffffffffffffffffffffffffffffffffff909216919091179055565b606e54620002eb906001600160a01b031681565b6000828152606860205260408120548190819060ff16620007ec5760405162461bcd60e51b815260206004820152603260248201527f53696d756c61746520626174636820636f6c6c61746572616c697a6174696f6e60448201527f3a20696e76616c696420626174636849642e000000000000000000000000000060648201526084015b60405180910390fd5b600085815260696020818152604080842060018101548552606c8352818520548552606a835281852054948a9052928252600390920154606f5483517f313ce56700000000000000000000000000000000000000000000000000000000815293516001600160a01b0390951694620008f694600160a01b80850463ffffffff16958c957b01000000000000000000000000000000000000000000000000000000900462ffffff16949190910461ffff1692889263313ce5679260048083019391928290030181865afa158015620008c7573d6000803e3d6000fd5b505050506040513d601f19601f82011682018060405250810190620008ed919062002b6a565b60ff1662001bb3565b91989097509095509350505050565b60208082013560009081526067909152604090205460ff16620009915760405162461bcd60e51b815260206004820152603160248201527f4164642062617463683a20546869732062617463682062656c6f6e677320746f60448201527f20756e6b6e6f776e2070726f6a6563742e0000000000000000000000000000006064820152608401620007e3565b803560009081526068602052604090205460ff161562000a1a5760405162461bcd60e51b815260206004820152602f60248201527f4164642062617463683a20546869732062617463682068617320616c7265616460448201527f79206265656e20637265617465642e00000000000000000000000000000000006064820152608401620007e3565b600062000a2e608083016060840162002ac9565b6001600160a01b03160362000aac5760405162461bcd60e51b815260206004820152602360248201527f4164642062617463683a204261746368206f776e6572206e6f7420646566696e60448201527f65642e00000000000000000000000000000000000000000000000000000000006064820152608401620007e3565b4262000abf60a083016080840162002b9d565b63ffffffff161162000b3a5760405162461bcd60e51b815260206004820152603960248201527f4164642062617463683a2042617463682065787065637465642064756520646160448201527f7465206d75737420626520696e20746865206675747572652e000000000000006064820152608401620007e3565b80356000908152606860209081526040808320805460ff1916600117905560699091529020819062000b6d828262002bf1565b50506020808201356000908152606d82526040812080546001810182559082529190208235910155606e546001600160a01b031663731133e962000bb8608084016060850162002ac9565b604080517fffffffff0000000000000000000000000000000000000000000000000000000060e085901b1681526001600160a01b039092166004830152843560248301528401356044820152608060648201526000608482015260a401600060405180830381600087803b15801562000c3057600080fd5b505af115801562000c45573d6000803e3d6000fd5b5050604051833592507f2354c6982830f23074cbadd3a8326546827ca5be87b6cfe41e906c66e75cd9659150600090a250565b62000c8262001c52565b62000c8e600062001cae565b565b60008581526066602052604090205460ff161562000d175760405162461bcd60e51b815260206004820152602860248201527f4164642063617465676f72793a2063617465676f7279496420616c726561647960448201527f206578697374732e0000000000000000000000000000000000000000000000006064820152608401620007e3565b60008581526066602052604090819020805460ff1916600117905551849084908490849062000d46906200262e565b62000d55949392919062002dcd565b604051809103906000f08015801562000d72573d6000803e3d6000fd5b506000868152606a602052604080822080547fffffffffffffffffffffffff0000000000000000000000000000000000000000166001600160a01b039490941693909317909255905186917fafc348cb919473b1b9a1f5712a5d6d3176cdf7a5295bd4709b8cf37b5219832691a25050505050565b6000818152606d602090815260409182902080548351818402810184019094528084526060939283018282801562000e3f57602002820191906000526020600020905b81548152602001906001019080831162000e2a575b50505050509050919050565b60026065540362000e9f5760405162461bcd60e51b815260206004820152601f60248201527f5265656e7472616e637947756172643a207265656e7472616e742063616c6c006044820152606401620007e3565b600260655560008381526068602052604090205460ff1662000f2a5760405162461bcd60e51b815260206004820152602560248201527f436f6c6c61746572616c697a652062617463683a20696e76616c69642062617460448201527f636849642e0000000000000000000000000000000000000000000000000000006064820152608401620007e3565b6000838152606960209081526040808320600101548352606c8252808320548352606a9091528120546001600160a01b0316600085815260696020908152604080832060030154606f5482517f313ce5670000000000000000000000000000000000000000000000000000000081529251959650939485946200101794600160a01b80850463ffffffff16958c957b01000000000000000000000000000000000000000000000000000000900462ffffff16949190930461ffff16926001600160a01b038b169263313ce567926004808401938290030181865afa158015620008c7573d6000803e3d6000fd5b509150915083821015620010945760405162461bcd60e51b815260206004820152602e60248201527f436f6c6c61746572616c697a652062617463683a20616d6f756e744f7574203c60448201527f20616d6f756e744f75744d696e2e0000000000000000000000000000000000006064820152608401620007e3565b6040517f40c10f19000000000000000000000000000000000000000000000000000000008152336004820152602481018390526001600160a01b038416906340c10f1990604401600060405180830381600087803b158015620010f657600080fd5b505af11580156200110b573d6000803e3d6000fd5b5050606f546040517f40c10f190000000000000000000000000000000000000000000000000000000081526001600160a01b0391821660048201526024810185905290861692506340c10f199150604401600060405180830381600087803b1580156200117757600080fd5b505af11580156200118c573d6000803e3d6000fd5b5050606e546040517ff242432a000000000000000000000000000000000000000000000000000000008152336004820152306024820152604481018a90526064810189905260a06084820152600060a48201526001600160a01b03909116925063f242432a915060c401600060405180830381600087803b1580156200121157600080fd5b505af115801562001226573d6000803e3d6000fd5b505060408051888152602081018690523393508992507f996fd5dc95553bf61923ea1e658357de4a30175141a8fab02ae6ae2ed8c6d32e910160405180910390a35050600160655550505050565b600260655403620012c85760405162461bcd60e51b815260206004820152601f60248201527f5265656e7472616e637947756172643a207265656e7472616e742063616c6c006044820152606401620007e3565b600260655560008381526068602052604090205460ff16620013535760405162461bcd60e51b815260206004820152602760248201527f4465636f6c6c61746572616c697a652062617463683a20696e76616c6964206260448201527f6174636849642e000000000000000000000000000000000000000000000000006064820152608401620007e3565b6000838152606960209081526040808320600101548352606c8252808320548352606a9091528120546001600160a01b0316600085815260696020908152604080832060030154606f5482517f313ce56700000000000000000000000000000000000000000000000000000000815292519596509394859485946200148894600160a01b850463ffffffff16948c947b0100000000000000000000000000000000000000000000000000000090910462ffffff1693760100000000000000000000000000000000000000000000900461ffff16926001600160a01b038c169263313ce56792600480830193928290030181865afa15801562001459573d6000803e3d6000fd5b505050506040513d601f19601f820116820180604052508101906200147f919062002b6a565b60ff1662001d18565b92509250925060008311620015065760405162461bcd60e51b815260206004820152602c60248201527f4465636f6c6c61746572616c697a652062617463683a20696e70757420616d6f60448201527f756e7420746f6f206c6f772e00000000000000000000000000000000000000006064820152608401620007e3565b848310156200157e5760405162461bcd60e51b815260206004820152603060248201527f4465636f6c6c61746572616c697a652062617463683a20616d6f756e744f757460448201527f203c20616d6f756e744f75744d696e2e000000000000000000000000000000006064820152608401620007e3565b6040517f79cc6790000000000000000000000000000000000000000000000000000000008152336004820152602481018290526001600160a01b038516906379cc679090604401600060405180830381600087803b158015620015e057600080fd5b505af1158015620015f5573d6000803e3d6000fd5b5050606f546040517f23b872dd0000000000000000000000000000000000000000000000000000000081523360048201526001600160a01b0391821660248201526044810186905290871692506323b872dd91506064016020604051808303816000875af11580156200166c573d6000803e3d6000fd5b505050506040513d601f19601f8201168201806040525081019062001692919062002df8565b50606e546040517ff242432a000000000000000000000000000000000000000000000000000000008152306004820152336024820152604481018990526064810185905260a06084820152600060a48201526001600160a01b039091169063f242432a9060c401600060405180830381600087803b1580156200171457600080fd5b505af115801562001729573d6000803e3d6000fd5b505060408051898152602081018790523393508a92507f0a2adf4ac4fa3544a2c794e5ba57a755d18102bb19672742fcc48f87e5c1fce3910160405180910390a3505060016065555050505050565b6000818152606b602090815260409182902080548351818402810184019094528084526060939283018282801562000e3f576020028201919060005260206000209081548152602001906001019080831162000e2a5750505050509050919050565b60008281526066602052604090205460ff166200183a5760405162461bcd60e51b815260206004820181905260248201527f4164642070726f6a6563743a20756e6b6e6f776e2063617465676f727949642e6044820152606401620007e3565b60008181526067602052604090205460ff1615620018c15760405162461bcd60e51b815260206004820152602660248201527f4164642070726f6a6563743a2070726f6a656374496420616c7265616479206560448201527f78697374732e00000000000000000000000000000000000000000000000000006064820152608401620007e3565b6000828152606b6020908152604080832080546001818101835591855283852001859055848452606c83528184208690556067909252808320805460ff19169092179091555182917f1ac2092e16e28eef29d1832f3dc69da1b21284a1f3159d3b26cb238b22fe4f8a91a25050565b600054610100900460ff1615808015620019515750600054600160ff909116105b806200196d5750303b1580156200196d575060005460ff166001145b620019e15760405162461bcd60e51b815260206004820152602e60248201527f496e697469616c697a61626c653a20636f6e747261637420697320616c72656160448201527f647920696e697469616c697a65640000000000000000000000000000000000006064820152608401620007e3565b6000805460ff19166001179055801562001a05576000805461ff0019166101001790555b62001a0f62001d8c565b606e80546001600160a01b038088167fffffffffffffffffffffffff000000000000000000000000000000000000000092831617909255606f805492851661ffff878116760100000000000000000000000000000000000000000000027fffffffffffffffff0000ffffffffffffffffffffffffffffffffffffffffffff918a16600160a01b02919091167fffffffffffffffff00000000ffffffffffffffffffffffffffffffffffffffff9095169490941793909317909116919091179055801562001b16576000805461ff0019169055604051600181527f7f26b83ff96e1f2b6a682f133852f6798a09c465da95921460cefb38474024989060200160405180910390a15b5050505050565b62001b2762001c52565b6001600160a01b03811662001ba55760405162461bcd60e51b815260206004820152602660248201527f4f776e61626c653a206e6577206f776e657220697320746865207a65726f206160448201527f64647265737300000000000000000000000000000000000000000000000000006064820152608401620007e3565b62001bb08162001cae565b50565b60008060008062001bc5878a62001e15565b9050600062001bf062001bd9838b62002e32565b62001be688600a62002f51565b620f424062001e94565b9050600062001c03828961271062001e94565b9050600062001c13828462002f5f565b905060008362001c258a600a62002f51565b62001c31908e62002e32565b62001c3d919062002f5f565b919d929c50909a509098505050505050505050565b6033546001600160a01b0316331462000c8e5760405162461bcd60e51b815260206004820181905260248201527f4f776e61626c653a2063616c6c6572206973206e6f7420746865206f776e65726044820152606401620007e3565b603380546001600160a01b038381167fffffffffffffffffffffffff0000000000000000000000000000000000000000831681179093556040519116919082907f8be0079c531659141344cd1fd0a4f28419497f9722a3daafe3b4186f6b6457e090600090a35050565b60008060008062001d2a878a62001e15565b9050600062001d3d898861271062001e94565b9050600062001d4d828b62002f5f565b9050600062001d7962001d6289600a62002f51565b62001d6e908462002f8b565b620f42408662001e94565b9c929b5090995090975050505050505050565b600054610100900460ff1662001e0b5760405162461bcd60e51b815260206004820152602b60248201527f496e697469616c697a61626c653a20636f6e7472616374206973206e6f74206960448201527f6e697469616c697a696e670000000000000000000000000000000000000000006064820152608401620007e3565b62000c8e62001f4f565b60008062001e24428462001fd9565b9050600062001e3785620f424062002f5f565b90506001821162001e4c57915062001e8e9050565b600062001e5d82620f424062002059565b9050600062001e798262001e7360018762002f5f565b620020a9565b905062001e878184620023fa565b9450505050505b92915050565b600080806000198587098587029250828110838203039150508060000362001ed35783828162001ec85762001ec862002f75565b049250505062001f48565b80841162001ee057600080fd5b600084868809851960019081018716968790049682860381900495909211909303600082900391909104909201919091029190911760038402600290811880860282030280860282030280860282030280860282030280860282030280860290910302029150505b9392505050565b600054610100900460ff1662001fce5760405162461bcd60e51b815260206004820152602b60248201527f496e697469616c697a61626c653a20636f6e7472616374206973206e6f74206960448201527f6e697469616c697a696e670000000000000000000000000000000000000000006064820152608401620007e3565b62000c8e3362001cae565b600062093a8083108062001fef575062093a8082105b8062001ffa57508282105b156200203d576040517fe2ee76780000000000000000000000000000000000000000000000000000000081526004810184905260248101839052604401620007e3565b62093a806200204d848462002f5f565b62001f48919062002f8b565b6000816000036200206957600080fd5b600062002077848462002484565b90506f7fffffffffffffffffffffffffffffff6fffffffffffffffffffffffffffffffff8216111562001f4857600080fd5b600080600084600f0b128015620020c35750826001166001145b905060008085600f0b12620020d95784620020de565b846000035b6fffffffffffffffffffffffffffffffff1690507001000000000000000000000000000000006801000000000000000082116200219657603f82901b91505b84156200218d57600185161562002134578102607f1c5b908002607f1c9060028516156200214b578102607f1c5b908002607f1c90600485161562002162578102607f1c5b908002607f1c90600885161562002179578102607f1c5b60049490941c93908002607f1c906200211d565b60401c6200238f565b603f6c01000000000000000000000000831015620021ba5760209290921b91601f19015b6e010000000000000000000000000000831015620021fc5760109290921b917ffffffffffffffffffffffffffffffffffffffffffffffffffffffffffffffff0015b6f010000000000000000000000000000008310156200223f5760089290921b917ffffffffffffffffffffffffffffffffffffffffffffffffffffffffffffffff8015b6f10000000000000000000000000000000831015620022825760049290921b917ffffffffffffffffffffffffffffffffffffffffffffffffffffffffffffffffc015b6f40000000000000000000000000000000831015620022c55760029290921b917ffffffffffffffffffffffffffffffffffffffffffffffffffffffffffffffffe015b6f80000000000000000000000000000000831015620022ea5760019290921b91600019015b60005b86156200237757604082106200230257600080fd5b60018716156200233757918302607f1c9181017001000000000000000000000000000000008311156200233757600192831c92015b928002607f1c9260019190911b9070010000000000000000000000000000000084106200236a57600193841c9391909101905b600187901c9650620022ed565b604081106200238557600080fd5b6040039190911c90505b6000836200239e5781620023a3565b816000035b90507fffffffffffffffffffffffffffffffff800000000000000000000000000000008112801590620023e657506f7fffffffffffffffffffffffffffffff8113155b620023f057600080fd5b9695505050505050565b6000816000036200240e5750600062001e8e565b600083600f0b12156200242057600080fd5b600f83900b6fffffffffffffffffffffffffffffffff8316810260401c90608084901c0277ffffffffffffffffffffffffffffffffffffffffffffffff8111156200246a57600080fd5b60401b81198111156200247c57600080fd5b019392505050565b6000816000036200249457600080fd5b600077ffffffffffffffffffffffffffffffffffffffffffffffff8411620024d55782604085901b81620024cc57620024cc62002f75565b04905062002610565b60c084811c6401000000008110620024ef576020918201911c5b62010000811062002502576010918201911c5b610100811062002514576008918201911c5b6010811062002525576004918201911c5b6004811062002536576002918201911c5b6002811062002546576001820191505b60bf820360018603901c6001018260ff0387901b816200256a576200256a62002f75565b0492506fffffffffffffffffffffffffffffffff8311156200258b57600080fd5b608085901c83026fffffffffffffffffffffffffffffffff8616840260c088901c604089901b82811015620025c1576001820391505b608084901b92900382811015620025d9576001820391505b829003608084901c8214620025f257620025f262002fae565b88818162002604576200260462002f75565b04870196505050505050505b6fffffffffffffffffffffffffffffffff81111562001f4857600080fd5b61123f8062002fc583390190565b6000602082840312156200264f57600080fd5b81357fffffffff000000000000000000000000000000000000000000000000000000008116811462001f4857600080fd5b600080604083850312156200269457600080fd5b50508035926020909101359150565b600060208284031215620026b657600080fd5b5035919050565b61ffff8116811462001bb057600080fd5b600060208284031215620026e157600080fd5b813562001f4881620026bd565b600061010082840312156200270257600080fd5b50919050565b60008083601f8401126200271b57600080fd5b50813567ffffffffffffffff8111156200273457600080fd5b6020830191508360208285010111156200274d57600080fd5b9250929050565b6000806000806000606086880312156200276d57600080fd5b85359450602086013567ffffffffffffffff808211156200278d57600080fd5b6200279b89838a0162002708565b90965094506040880135915080821115620027b557600080fd5b50620027c48882890162002708565b969995985093965092949392505050565b6020808252825182820181905260009190848201906040850190845b818110156200280f57835183529284019291840191600101620027f1565b50909695505050505050565b6000806000606084860312156200283157600080fd5b505081359360208301359350604090920135919050565b6001600160a01b038116811462001bb057600080fd5b634e487b7160e01b600052604160045260246000fd5b604051601f8201601f1916810167ffffffffffffffff81118282101715620028a057620028a06200285e565b604052919050565b600082601f830112620028ba57600080fd5b8135602067ffffffffffffffff821115620028d957620028d96200285e565b8160051b620028ea82820162002874565b92835284810182019282810190878511156200290557600080fd5b83870192505b8483101562002926578235825291830191908301906200290b565b979650505050505050565b600082601f8301126200294357600080fd5b813567ffffffffffffffff8111156200296057620029606200285e565b620029756020601f19601f8401160162002874565b8181528460208386010111156200298b57600080fd5b816020850160208301376000918101602001919091529392505050565b600080600080600060a08688031215620029c157600080fd5b8535620029ce8162002848565b94506020860135620029e08162002848565b9350604086013567ffffffffffffffff80821115620029fe57600080fd5b62002a0c89838a01620028a8565b9450606088013591508082111562002a2357600080fd5b62002a3189838a01620028a8565b9350608088013591508082111562002a4857600080fd5b5062002a578882890162002931565b9150509295509295909350565b6000806000806080858703121562002a7b57600080fd5b843562002a888162002848565b9350602085013562002a9a81620026bd565b9250604085013562002aac81620026bd565b9150606085013562002abe8162002848565b939692955090935050565b60006020828403121562002adc57600080fd5b813562001f488162002848565b600080600080600060a0868803121562002b0257600080fd5b853562002b0f8162002848565b9450602086013562002b218162002848565b93506040860135925060608601359150608086013567ffffffffffffffff81111562002b4c57600080fd5b62002a578882890162002931565b60ff8116811462001bb057600080fd5b60006020828403121562002b7d57600080fd5b815162001f488162002b5a565b63ffffffff8116811462001bb057600080fd5b60006020828403121562002bb057600080fd5b813562001f488162002b8a565b6000813562001e8e81620026bd565b6000813562001e8e8162002b5a565b6000813562ffffff8116811462001e8e57600080fd5b81358155602082013560018201556040820135600282015560038101606083013562002c1d8162002848565b8154608085013562002c2f8162002b8a565b77ffffffff00000000000000000000000000000000000000008160a01b166001600160a01b0384167fffffffffffffffff00000000000000000000000000000000000000000000000084161717845550505062002cde62002c9360a0850162002bbd565b82547fffffffffffff0000ffffffffffffffffffffffffffffffffffffffffffffffff1660c09190911b79ffff00000000000000000000000000000000000000000000000016178255565b62002d3c62002cf060c0850162002bcc565b82547fffffffffff00ffffffffffffffffffffffffffffffffffffffffffffffffffff1660d09190911b7aff000000000000000000000000000000000000000000000000000016178255565b62002d9d62002d4e60e0850162002bdb565b82547fffff000000ffffffffffffffffffffffffffffffffffffffffffffffffffffff1660d89190911b7dffffff00000000000000000000000000000000000000000000000000000016178255565b505050565b818352818160208501375060006020828401015260006020601f19601f840116840101905092915050565b60408152600062002de360408301868862002da2565b82810360208401526200292681858762002da2565b60006020828403121562002e0b57600080fd5b8151801515811462001f4857600080fd5b634e487b7160e01b600052601160045260246000fd5b600081600019048311821515161562002e4f5762002e4f62002e1c565b500290565b600181815b8085111562002e9557816000190482111562002e795762002e7962002e1c565b8085161562002e8757918102915b93841c939080029062002e59565b509250929050565b60008262002eae5750600162001e8e565b8162002ebd5750600062001e8e565b816001811462002ed6576002811462002ee15762002f01565b600191505062001e8e565b60ff84111562002ef55762002ef562002e1c565b50506001821b62001e8e565b5060208310610133831016604e8410600b841016171562002f26575081810a62001e8e565b62002f32838362002e54565b806000190482111562002f495762002f4962002e1c565b029392505050565b600062001f48838362002e9d565b8181038181111562001e8e5762001e8e62002e1c565b634e487b7160e01b600052601260045260246000fd5b60008262002fa957634e487b7160e01b600052601260045260246000fd5b500490565b634e487b7160e01b600052600160045260246000fdfe60806040523480156200001157600080fd5b506040516200123f3803806200123f833981016040819052620000349162000193565b818160036200004483826200028c565b5060046200005382826200028c565b505050620000706200006a6200007860201b60201c565b6200007c565b505062000358565b3390565b600580546001600160a01b038381166001600160a01b0319831681179093556040519116919082907f8be0079c531659141344cd1fd0a4f28419497f9722a3daafe3b4186f6b6457e090600090a35050565b634e487b7160e01b600052604160045260246000fd5b600082601f830112620000f657600080fd5b81516001600160401b0380821115620001135762000113620000ce565b604051601f8301601f19908116603f011681019082821181831017156200013e576200013e620000ce565b816040528381526020925086838588010111156200015b57600080fd5b600091505b838210156200017f578582018301518183018401529082019062000160565b600093810190920192909252949350505050565b60008060408385031215620001a757600080fd5b82516001600160401b0380821115620001bf57600080fd5b620001cd86838701620000e4565b93506020850151915080821115620001e457600080fd5b50620001f385828601620000e4565b9150509250929050565b600181811c908216806200021257607f821691505b6020821081036200023357634e487b7160e01b600052602260045260246000fd5b50919050565b601f8211156200028757600081815260208120601f850160051c81016020861015620002625750805b601f850160051c820191505b8181101562000283578281556001016200026e565b5050505b505050565b81516001600160401b03811115620002a857620002a8620000ce565b620002c081620002b98454620001fd565b8462000239565b602080601f831160018114620002f85760008415620002df5750858301515b600019600386901b1c1916600185901b17855562000283565b600085815260208120601f198616915b82811015620003295788860151825594840194600190910190840162000308565b5085821015620003485787850151600019600388901b60f8161c191681555b5050505050600190811b01905550565b610ed780620003686000396000f3fe608060405234801561001057600080fd5b506004361061011b5760003560e01c806370a08231116100b257806395d89b4111610081578063a9059cbb11610066578063a9059cbb1461024a578063dd62ed3e1461025d578063f2fde38b1461029657600080fd5b806395d89b411461022f578063a457c2d71461023757600080fd5b806370a08231146101d0578063715018a6146101f957806379cc6790146102015780638da5cb5b1461021457600080fd5b8063313ce567116100ee578063313ce56714610186578063395093511461019557806340c10f19146101a857806342966c68146101bd57600080fd5b806306fdde0314610120578063095ea7b31461013e57806318160ddd1461016157806323b872dd14610173575b600080fd5b6101286102a9565b6040516101359190610c9d565b60405180910390f35b61015161014c366004610d25565b61033b565b6040519015158152602001610135565b6002545b604051908152602001610135565b610151610181366004610d4f565b610355565b60405160128152602001610135565b6101516101a3366004610d25565b610379565b6101bb6101b6366004610d25565b6103b8565b005b6101bb6101cb366004610d8b565b6103ce565b6101656101de366004610da4565b6001600160a01b031660009081526020819052604090205490565b6101bb6103db565b6101bb61020f366004610d25565b6103ef565b6005546040516001600160a01b039091168152602001610135565b610128610404565b610151610245366004610d25565b610413565b610151610258366004610d25565b6104c2565b61016561026b366004610dc6565b6001600160a01b03918216600090815260016020908152604080832093909416825291909152205490565b6101bb6102a4366004610da4565b6104d0565b6060600380546102b890610df9565b80601f01602080910402602001604051908101604052809291908181526020018280546102e490610df9565b80156103315780601f1061030657610100808354040283529160200191610331565b820191906000526020600020905b81548152906001019060200180831161031457829003601f168201915b5050505050905090565b60003361034981858561055d565b60019150505b92915050565b6000336103638582856106b6565b61036e858585610766565b506001949350505050565b3360008181526001602090815260408083206001600160a01b038716845290915281205490919061034990829086906103b3908790610e7b565b61055d565b6103c061097d565b6103ca82826109d7565b5050565b6103d83382610ab6565b50565b6103e361097d565b6103ed6000610c33565b565b6103fa8233836106b6565b6103ca8282610ab6565b6060600480546102b890610df9565b3360008181526001602090815260408083206001600160a01b0387168452909152812054909190838110156104b55760405162461bcd60e51b815260206004820152602560248201527f45524332303a2064656372656173656420616c6c6f77616e63652062656c6f7760448201527f207a65726f00000000000000000000000000000000000000000000000000000060648201526084015b60405180910390fd5b61036e828686840361055d565b600033610349818585610766565b6104d861097d565b6001600160a01b0381166105545760405162461bcd60e51b815260206004820152602660248201527f4f776e61626c653a206e6577206f776e657220697320746865207a65726f206160448201527f646472657373000000000000000000000000000000000000000000000000000060648201526084016104ac565b6103d881610c33565b6001600160a01b0383166105d85760405162461bcd60e51b8152602060048201526024808201527f45524332303a20617070726f76652066726f6d20746865207a65726f2061646460448201527f726573730000000000000000000000000000000000000000000000000000000060648201526084016104ac565b6001600160a01b0382166106545760405162461bcd60e51b815260206004820152602260248201527f45524332303a20617070726f766520746f20746865207a65726f20616464726560448201527f737300000000000000000000000000000000000000000000000000000000000060648201526084016104ac565b6001600160a01b0383811660008181526001602090815260408083209487168084529482529182902085905590518481527f8c5be1e5ebec7d5bd14f71427d1e84f3dd0314c0f7b2291e5b200ac8c7c3b92591015b60405180910390a3505050565b6001600160a01b038381166000908152600160209081526040808320938616835292905220547fffffffffffffffffffffffffffffffffffffffffffffffffffffffffffffffff811461076057818110156107535760405162461bcd60e51b815260206004820152601d60248201527f45524332303a20696e73756666696369656e7420616c6c6f77616e636500000060448201526064016104ac565b610760848484840361055d565b50505050565b6001600160a01b0383166107e25760405162461bcd60e51b815260206004820152602560248201527f45524332303a207472616e736665722066726f6d20746865207a65726f20616460448201527f647265737300000000000000000000000000000000000000000000000000000060648201526084016104ac565b6001600160a01b03821661085e5760405162461bcd60e51b815260206004820152602360248201527f45524332303a207472616e7366657220746f20746865207a65726f206164647260448201527f657373000000000000000000000000000000000000000000000000000000000060648201526084016104ac565b6001600160a01b038316600090815260208190526040902054818110156108ed5760405162461bcd60e51b815260206004820152602660248201527f45524332303a207472616e7366657220616d6f756e742065786365656473206260448201527f616c616e6365000000000000000000000000000000000000000000000000000060648201526084016104ac565b6001600160a01b03808516600090815260208190526040808220858503905591851681529081208054849290610924908490610e7b565b92505081905550826001600160a01b0316846001600160a01b03167fddf252ad1be2c89b69c2b068fc378daa952ba7f163c4a11628f55a4df523b3ef8460405161097091815260200190565b60405180910390a3610760565b6005546001600160a01b031633146103ed5760405162461bcd60e51b815260206004820181905260248201527f4f776e61626c653a2063616c6c6572206973206e6f7420746865206f776e657260448201526064016104ac565b6001600160a01b038216610a2d5760405162461bcd60e51b815260206004820152601f60248201527f45524332303a206d696e7420746f20746865207a65726f20616464726573730060448201526064016104ac565b8060026000828254610a3f9190610e7b565b90915550506001600160a01b03821660009081526020819052604081208054839290610a6c908490610e7b565b90915550506040518181526001600160a01b038316906000907fddf252ad1be2c89b69c2b068fc378daa952ba7f163c4a11628f55a4df523b3ef9060200160405180910390a35050565b6001600160a01b038216610b325760405162461bcd60e51b815260206004820152602160248201527f45524332303a206275726e2066726f6d20746865207a65726f2061646472657360448201527f730000000000000000000000000000000000000000000000000000000000000060648201526084016104ac565b6001600160a01b03821660009081526020819052604090205481811015610bc15760405162461bcd60e51b815260206004820152602260248201527f45524332303a206275726e20616d6f756e7420657863656564732062616c616e60448201527f636500000000000000000000000000000000000000000000000000000000000060648201526084016104ac565b6001600160a01b0383166000908152602081905260408120838303905560028054849290610bf0908490610e8e565b90915550506040518281526000906001600160a01b038516907fddf252ad1be2c89b69c2b068fc378daa952ba7f163c4a11628f55a4df523b3ef906020016106a9565b600580546001600160a01b038381167fffffffffffffffffffffffff0000000000000000000000000000000000000000831681179093556040519116919082907f8be0079c531659141344cd1fd0a4f28419497f9722a3daafe3b4186f6b6457e090600090a35050565b600060208083528351808285015260005b81811015610cca57858101830151858201604001528201610cae565b5060006040828601015260407fffffffffffffffffffffffffffffffffffffffffffffffffffffffffffffffe0601f8301168501019250505092915050565b80356001600160a01b0381168114610d2057600080fd5b919050565b60008060408385031215610d3857600080fd5b610d4183610d09565b946020939093013593505050565b600080600060608486031215610d6457600080fd5b610d6d84610d09565b9250610d7b60208501610d09565b9150604084013590509250925092565b600060208284031215610d9d57600080fd5b5035919050565b600060208284031215610db657600080fd5b610dbf82610d09565b9392505050565b60008060408385031215610dd957600080fd5b610de283610d09565b9150610df060208401610d09565b90509250929050565b600181811c90821680610e0d57607f821691505b602082108103610e46577f4e487b7100000000000000000000000000000000000000000000000000000000600052602260045260246000fd5b50919050565b7f4e487b7100000000000000000000000000000000000000000000000000000000600052601160045260246000fd5b8082018082111561034f5761034f610e4c565b8181038181111561034f5761034f610e4c56fea2646970667358221220b0756383e11110492b6641e84d2b6ea19ca9ddafc169f38e7c4ca6bfa2ceff8464736f6c63430008100033a2646970667358221220009aa497a0480f464aa00a2d80b703bc082eced1f807bbef7bc7989c61ec952664736f6c63430008100033",
  "devdoc": {
    "kind": "dev",
    "methods": {
      "collateralizeBatch(uint256,uint256,uint256)": {
        "details": "Collateralizes `amountIn` of ERC1155 tokens with id `batchId` for msg.senderprior to calling, msg.sender must approve SolidWorldManager to spend its ERC1155 tokens with id `batchId`nonReentrant, to avoid possible reentrancy after calling safeTransferFrom",
        "params": {
          "amountIn": "ERC1155 tokens to collateralize",
          "amountOutMin": "minimum output amount of ERC20 tokens for transaction to succeed",
          "batchId": "id of the batch"
        }
      },
      "decollateralizeTokens(uint256,uint256,uint256)": {
        "details": "Decollateralizes `amountIn` of ERC20 tokens and sends `amountOut` ERC1155 tokens with id `batchId` for msg.senderprior to calling, msg.sender must approve SolidWorldManager to spend `amountIn` ERC20 tokensnonReentrant, to avoid possible reentrancy after calling safeTransferFrom",
        "params": {
          "amountIn": "ERC20 tokens to decollateralize",
          "amountOutMin": "minimum output amount of ERC1155 tokens for transaction to succeed",
          "batchId": "id of the batch"
        }
      },
      "owner()": {
        "details": "Returns the address of the current owner."
      },
      "renounceOwnership()": {
        "details": "Leaves the contract without owner. It will not be possible to call `onlyOwner` functions anymore. Can only be called by the current owner. NOTE: Renouncing ownership will leave the contract without an owner, thereby removing any functionality that is only available to the owner."
      },
      "simulateBatchCollateralization(uint256,uint256)": {
        "details": "Simulates collateralization of `amountIn` ERC1155 tokens with id `batchId` for msg.sender",
        "params": {
          "amountIn": "ERC1155 tokens to collateralize",
          "batchId": "id of the batch"
        },
        "returns": {
          "cbtDaoCut": "ERC20 tokens to be received by feeReceiver",
          "cbtForfeited": "ERC20 tokens forfeited for collateralizing the ERC1155 tokens",
          "cbtUserCut": "ERC20 tokens to be received by msg.sender"
        }
      },
      "supportsInterface(bytes4)": {
        "details": "Returns true if this contract implements the interface defined by `interfaceId`. See the corresponding https://eips.ethereum.org/EIPS/eip-165#how-interfaces-are-identified[EIP section] to learn more about how these ids are created. This function call must use less than 30 000 gas."
      },
      "transferOwnership(address)": {
        "details": "Transfers ownership of the contract to a new account (`newOwner`). Can only be called by the current owner."
      }
    },
    "stateVariables": {
      "batchIds": {
        "details": "BatchId => isAdded"
      },
      "batches": {
        "details": "BatchId => Batch"
      },
      "categoryIds": {
        "details": "CategoryId => isAdded"
      },
      "categoryProjects": {
        "details": "CategoryId => ProjectId[]"
      },
      "categoryToken": {
        "details": "CategoryId => CollateralizedBasketToken address (ERC-20)"
      },
      "projectBatches": {
        "details": "ProjectId => BatchId[]"
      },
      "projectCategory": {
        "details": "ProjectId => CategoryId"
      },
      "projectIds": {
        "details": "ProjectId => isAdded"
      }
    },
    "version": 1
  },
  "userdoc": {
    "kind": "user",
    "methods": {
      "batchIds(uint256)": {
        "notice": "Property is used for checking if Batch ID is already added"
      },
      "batches(uint256)": {
        "notice": "Property stores info about a batch"
      },
      "categoryIds(uint256)": {
        "notice": "Mapping is used for checking if Category ID is already added"
      },
      "categoryToken(uint256)": {
        "notice": "Mapping determines a respective CollateralizedBasketToken (ERC-20) of a category"
      },
      "collateralizationFee()": {
        "notice": "Fee charged by DAO when collateralizing forward contract batch tokens."
      },
      "decollateralizationFee()": {
        "notice": "Fee charged by DAO when decollateralizing collateralized basket tokens."
      },
      "feeReceiver()": {
        "notice": "The account where all protocol fees are captured."
      },
      "forwardContractBatch()": {
        "notice": "Contract that operates forward contract batch tokens (ERC-1155). Allows this contract to mint tokens."
      },
      "projectIds(uint256)": {
        "notice": "Property is used for checking if Project ID is already added"
      }
    },
    "version": 1
  },
  "storageLayout": {
    "storage": [
      {
        "astId": 138,
        "contract": "contracts/SolidWorldManager.sol:SolidWorldManager",
        "label": "_initialized",
        "offset": 0,
        "slot": "0",
        "type": "t_uint8"
      },
      {
        "astId": 141,
        "contract": "contracts/SolidWorldManager.sol:SolidWorldManager",
        "label": "_initializing",
        "offset": 1,
        "slot": "0",
        "type": "t_bool"
      },
      {
        "astId": 607,
        "contract": "contracts/SolidWorldManager.sol:SolidWorldManager",
        "label": "__gap",
        "offset": 0,
        "slot": "1",
        "type": "t_array(t_uint256)50_storage"
      },
      {
        "astId": 10,
        "contract": "contracts/SolidWorldManager.sol:SolidWorldManager",
        "label": "_owner",
        "offset": 0,
        "slot": "51",
        "type": "t_address"
      },
      {
        "astId": 130,
        "contract": "contracts/SolidWorldManager.sol:SolidWorldManager",
        "label": "__gap",
        "offset": 0,
        "slot": "52",
        "type": "t_array(t_uint256)49_storage"
      },
      {
        "astId": 744,
        "contract": "contracts/SolidWorldManager.sol:SolidWorldManager",
        "label": "_status",
        "offset": 0,
        "slot": "101",
        "type": "t_uint256"
      },
      {
        "astId": 4190,
        "contract": "contracts/SolidWorldManager.sol:SolidWorldManager",
        "label": "categoryIds",
        "offset": 0,
        "slot": "102",
        "type": "t_mapping(t_uint256,t_bool)"
      },
      {
        "astId": 4195,
        "contract": "contracts/SolidWorldManager.sol:SolidWorldManager",
        "label": "projectIds",
        "offset": 0,
        "slot": "103",
        "type": "t_mapping(t_uint256,t_bool)"
      },
      {
        "astId": 4200,
        "contract": "contracts/SolidWorldManager.sol:SolidWorldManager",
        "label": "batchIds",
        "offset": 0,
        "slot": "104",
        "type": "t_mapping(t_uint256,t_bool)"
      },
      {
        "astId": 4206,
        "contract": "contracts/SolidWorldManager.sol:SolidWorldManager",
        "label": "batches",
        "offset": 0,
        "slot": "105",
        "type": "t_mapping(t_uint256,t_struct(Batch)4185_storage)"
      },
      {
        "astId": 4212,
        "contract": "contracts/SolidWorldManager.sol:SolidWorldManager",
        "label": "categoryToken",
        "offset": 0,
        "slot": "106",
        "type": "t_mapping(t_uint256,t_contract(CollateralizedBasketToken)3801)"
      },
      {
        "astId": 4218,
        "contract": "contracts/SolidWorldManager.sol:SolidWorldManager",
        "label": "categoryProjects",
        "offset": 0,
        "slot": "107",
        "type": "t_mapping(t_uint256,t_array(t_uint256)dyn_storage)"
      },
      {
        "astId": 4223,
        "contract": "contracts/SolidWorldManager.sol:SolidWorldManager",
        "label": "projectCategory",
        "offset": 0,
        "slot": "108",
        "type": "t_mapping(t_uint256,t_uint256)"
      },
      {
        "astId": 4229,
        "contract": "contracts/SolidWorldManager.sol:SolidWorldManager",
        "label": "projectBatches",
        "offset": 0,
        "slot": "109",
        "type": "t_mapping(t_uint256,t_array(t_uint256)dyn_storage)"
      },
      {
        "astId": 4233,
        "contract": "contracts/SolidWorldManager.sol:SolidWorldManager",
        "label": "forwardContractBatch",
        "offset": 0,
        "slot": "110",
        "type": "t_contract(ForwardContractBatchToken)3861"
      },
      {
        "astId": 4236,
        "contract": "contracts/SolidWorldManager.sol:SolidWorldManager",
        "label": "feeReceiver",
        "offset": 0,
        "slot": "111",
        "type": "t_address"
      },
      {
        "astId": 4239,
        "contract": "contracts/SolidWorldManager.sol:SolidWorldManager",
        "label": "collateralizationFee",
        "offset": 20,
        "slot": "111",
        "type": "t_uint16"
      },
      {
        "astId": 4242,
        "contract": "contracts/SolidWorldManager.sol:SolidWorldManager",
        "label": "decollateralizationFee",
        "offset": 22,
        "slot": "111",
        "type": "t_uint16"
      }
    ],
    "types": {
      "t_address": {
        "encoding": "inplace",
        "label": "address",
        "numberOfBytes": "20"
      },
      "t_array(t_uint256)49_storage": {
        "base": "t_uint256",
        "encoding": "inplace",
        "label": "uint256[49]",
        "numberOfBytes": "1568"
      },
      "t_array(t_uint256)50_storage": {
        "base": "t_uint256",
        "encoding": "inplace",
        "label": "uint256[50]",
        "numberOfBytes": "1600"
      },
      "t_array(t_uint256)dyn_storage": {
        "base": "t_uint256",
        "encoding": "dynamic_array",
        "label": "uint256[]",
        "numberOfBytes": "32"
      },
      "t_bool": {
        "encoding": "inplace",
        "label": "bool",
        "numberOfBytes": "1"
      },
      "t_contract(CollateralizedBasketToken)3801": {
        "encoding": "inplace",
        "label": "contract CollateralizedBasketToken",
        "numberOfBytes": "20"
      },
      "t_contract(ForwardContractBatchToken)3861": {
        "encoding": "inplace",
        "label": "contract ForwardContractBatchToken",
        "numberOfBytes": "20"
      },
      "t_mapping(t_uint256,t_array(t_uint256)dyn_storage)": {
        "encoding": "mapping",
        "key": "t_uint256",
        "label": "mapping(uint256 => uint256[])",
        "numberOfBytes": "32",
        "value": "t_array(t_uint256)dyn_storage"
      },
      "t_mapping(t_uint256,t_bool)": {
        "encoding": "mapping",
        "key": "t_uint256",
        "label": "mapping(uint256 => bool)",
        "numberOfBytes": "32",
        "value": "t_bool"
      },
      "t_mapping(t_uint256,t_contract(CollateralizedBasketToken)3801)": {
        "encoding": "mapping",
        "key": "t_uint256",
        "label": "mapping(uint256 => contract CollateralizedBasketToken)",
        "numberOfBytes": "32",
        "value": "t_contract(CollateralizedBasketToken)3801"
      },
      "t_mapping(t_uint256,t_struct(Batch)4185_storage)": {
        "encoding": "mapping",
        "key": "t_uint256",
        "label": "mapping(uint256 => struct SolidWorldManager.Batch)",
        "numberOfBytes": "32",
        "value": "t_struct(Batch)4185_storage"
      },
      "t_mapping(t_uint256,t_uint256)": {
        "encoding": "mapping",
        "key": "t_uint256",
        "label": "mapping(uint256 => uint256)",
        "numberOfBytes": "32",
        "value": "t_uint256"
      },
      "t_struct(Batch)4185_storage": {
        "encoding": "inplace",
        "label": "struct SolidWorldManager.Batch",
        "members": [
          {
            "astId": 4170,
            "contract": "contracts/SolidWorldManager.sol:SolidWorldManager",
            "label": "id",
            "offset": 0,
            "slot": "0",
            "type": "t_uint256"
          },
          {
            "astId": 4172,
            "contract": "contracts/SolidWorldManager.sol:SolidWorldManager",
            "label": "projectId",
            "offset": 0,
            "slot": "1",
            "type": "t_uint256"
          },
          {
            "astId": 4174,
            "contract": "contracts/SolidWorldManager.sol:SolidWorldManager",
            "label": "totalAmount",
            "offset": 0,
            "slot": "2",
            "type": "t_uint256"
          },
          {
            "astId": 4176,
            "contract": "contracts/SolidWorldManager.sol:SolidWorldManager",
            "label": "owner",
            "offset": 0,
            "slot": "3",
            "type": "t_address"
          },
          {
            "astId": 4178,
            "contract": "contracts/SolidWorldManager.sol:SolidWorldManager",
            "label": "expectedDueDate",
            "offset": 20,
            "slot": "3",
            "type": "t_uint32"
          },
          {
            "astId": 4180,
            "contract": "contracts/SolidWorldManager.sol:SolidWorldManager",
            "label": "vintage",
            "offset": 24,
            "slot": "3",
            "type": "t_uint16"
          },
          {
            "astId": 4182,
            "contract": "contracts/SolidWorldManager.sol:SolidWorldManager",
            "label": "status",
            "offset": 26,
            "slot": "3",
            "type": "t_uint8"
          },
          {
            "astId": 4184,
            "contract": "contracts/SolidWorldManager.sol:SolidWorldManager",
            "label": "discountRate",
            "offset": 27,
            "slot": "3",
            "type": "t_uint24"
          }
        ],
        "numberOfBytes": "128"
      },
      "t_uint16": {
        "encoding": "inplace",
        "label": "uint16",
        "numberOfBytes": "2"
      },
      "t_uint24": {
        "encoding": "inplace",
        "label": "uint24",
        "numberOfBytes": "3"
      },
      "t_uint256": {
        "encoding": "inplace",
        "label": "uint256",
        "numberOfBytes": "32"
      },
      "t_uint32": {
        "encoding": "inplace",
        "label": "uint32",
        "numberOfBytes": "4"
      },
      "t_uint8": {
        "encoding": "inplace",
        "label": "uint8",
        "numberOfBytes": "1"
      }
    }
  }
}