{
  "address": "0x7dA27a82d5A6D309234b6264457fa67369B80C44",
  "abi": [
    {
      "inputs": [
        {
          "internalType": "uint256",
          "name": "amountOut",
          "type": "uint256"
        },
        {
          "internalType": "uint256",
          "name": "minAmountOut",
          "type": "uint256"
        }
      ],
      "name": "AmountOutLessThanMinimum",
      "type": "error"
    },
    {
      "inputs": [
        {
          "internalType": "uint256",
          "name": "amountOut",
          "type": "uint256"
        }
      ],
      "name": "AmountOutTooLow",
      "type": "error"
    },
    {
      "inputs": [
        {
          "internalType": "uint256",
          "name": "batchId",
          "type": "uint256"
        }
      ],
      "name": "BatchAlreadyExists",
      "type": "error"
    },
    {
      "inputs": [
        {
          "internalType": "uint256",
          "name": "batchId",
          "type": "uint256"
        }
      ],
      "name": "BatchCertified",
      "type": "error"
    },
    {
      "inputs": [
        {
          "internalType": "uint32",
          "name": "dueDate",
          "type": "uint32"
        }
      ],
      "name": "BatchDueDateInThePast",
      "type": "error"
    },
    {
      "inputs": [
        {
          "internalType": "uint256",
          "name": "categoryId",
          "type": "uint256"
        }
      ],
      "name": "CategoryAlreadyExists",
      "type": "error"
    },
    {
      "inputs": [
        {
          "internalType": "uint256",
          "name": "startDate",
          "type": "uint256"
        },
        {
          "internalType": "uint256",
          "name": "endDate",
          "type": "uint256"
        }
      ],
      "name": "IncorrectDates",
      "type": "error"
    },
    {
      "inputs": [
        {
          "internalType": "uint256",
          "name": "batchId",
          "type": "uint256"
        }
      ],
      "name": "InvalidBatchId",
      "type": "error"
    },
    {
      "inputs": [],
      "name": "InvalidBatchOwner",
      "type": "error"
    },
    {
      "inputs": [
        {
          "internalType": "uint256",
          "name": "categoryId",
          "type": "uint256"
        }
      ],
      "name": "InvalidCategoryId",
      "type": "error"
    },
    {
      "inputs": [],
      "name": "InvalidInput",
      "type": "error"
    },
    {
      "inputs": [
        {
          "internalType": "uint256",
          "name": "projectId",
          "type": "uint256"
        }
      ],
      "name": "InvalidProjectId",
      "type": "error"
    },
    {
      "inputs": [
        {
          "internalType": "uint256",
          "name": "projectId",
          "type": "uint256"
        }
      ],
      "name": "ProjectAlreadyExists",
      "type": "error"
    },
    {
      "inputs": [
        {
          "internalType": "address",
          "name": "account",
          "type": "address"
        }
      ],
      "name": "UnauthorizedRewardMinting",
      "type": "error"
    },
    {
      "anonymous": false,
      "inputs": [
        {
          "indexed": true,
          "internalType": "uint256",
          "name": "batchId",
          "type": "uint256"
        },
        {
          "indexed": false,
          "internalType": "uint256",
          "name": "amountIn",
          "type": "uint256"
        },
        {
          "indexed": false,
          "internalType": "uint256",
          "name": "amountOut",
          "type": "uint256"
        },
        {
          "indexed": true,
          "internalType": "address",
          "name": "batchOwner",
          "type": "address"
        }
      ],
      "name": "BatchCollateralized",
      "type": "event"
    },
    {
      "anonymous": false,
      "inputs": [
        {
          "indexed": true,
          "internalType": "uint256",
          "name": "batchId",
          "type": "uint256"
        }
      ],
      "name": "BatchCreated",
      "type": "event"
    },
    {
      "anonymous": false,
      "inputs": [
        {
          "indexed": true,
          "internalType": "uint256",
          "name": "categoryId",
          "type": "uint256"
        }
      ],
      "name": "CategoryCreated",
      "type": "event"
    },
    {
      "anonymous": false,
      "inputs": [
        {
          "indexed": true,
          "internalType": "uint256",
          "name": "categoryId",
          "type": "uint256"
        },
        {
          "indexed": true,
          "internalType": "uint256",
          "name": "averageTA",
          "type": "uint256"
        },
        {
          "indexed": true,
          "internalType": "uint256",
          "name": "totalCollateralized",
          "type": "uint256"
        }
      ],
      "name": "CategoryRebalanced",
      "type": "event"
    },
    {
      "anonymous": false,
      "inputs": [
        {
          "indexed": true,
          "internalType": "uint256",
          "name": "categoryId",
          "type": "uint256"
        },
        {
          "indexed": true,
          "internalType": "uint256",
          "name": "volumeCoefficient",
          "type": "uint256"
        },
        {
          "indexed": true,
          "internalType": "uint256",
          "name": "decayPerSecond",
          "type": "uint256"
        },
        {
          "indexed": false,
          "internalType": "uint256",
          "name": "maxDepreciation",
          "type": "uint256"
        }
      ],
      "name": "CategoryUpdated",
      "type": "event"
    },
    {
      "anonymous": false,
      "inputs": [
        {
          "indexed": false,
          "internalType": "uint8",
          "name": "version",
          "type": "uint8"
        }
      ],
      "name": "Initialized",
      "type": "event"
    },
    {
      "anonymous": false,
      "inputs": [
        {
          "indexed": true,
          "internalType": "address",
          "name": "previousOwner",
          "type": "address"
        },
        {
          "indexed": true,
          "internalType": "address",
          "name": "newOwner",
          "type": "address"
        }
      ],
      "name": "OwnershipTransferred",
      "type": "event"
    },
    {
      "anonymous": false,
      "inputs": [
        {
          "indexed": true,
          "internalType": "uint256",
          "name": "projectId",
          "type": "uint256"
        }
      ],
      "name": "ProjectCreated",
      "type": "event"
    },
    {
      "anonymous": false,
      "inputs": [
        {
          "indexed": true,
          "internalType": "uint256",
          "name": "batchId",
          "type": "uint256"
        },
        {
          "indexed": false,
          "internalType": "uint256",
          "name": "amountIn",
          "type": "uint256"
        },
        {
          "indexed": false,
          "internalType": "uint256",
          "name": "amountOut",
          "type": "uint256"
        },
        {
          "indexed": true,
          "internalType": "address",
          "name": "tokensOwner",
          "type": "address"
        }
      ],
      "name": "TokensDecollateralized",
      "type": "event"
    },
    {
      "anonymous": false,
      "inputs": [
        {
          "indexed": true,
          "internalType": "address",
          "name": "rewardToken",
          "type": "address"
        },
        {
          "indexed": true,
          "internalType": "uint256",
          "name": "rewardAmount",
          "type": "uint256"
        }
      ],
      "name": "WeeklyRewardMinted",
      "type": "event"
    },
    {
      "inputs": [],
      "name": "DECOLLATERALIZATION_SIMULATION_INPUT",
      "outputs": [
        {
          "internalType": "uint256",
          "name": "",
          "type": "uint256"
        }
      ],
      "stateMutability": "view",
      "type": "function"
    },
    {
      "inputs": [
        {
          "components": [
            {
              "internalType": "uint256",
              "name": "id",
              "type": "uint256"
            },
            {
              "internalType": "uint256",
              "name": "projectId",
              "type": "uint256"
            },
            {
              "internalType": "uint256",
              "name": "totalAmount",
              "type": "uint256"
            },
            {
              "internalType": "address",
              "name": "owner",
              "type": "address"
            },
            {
              "internalType": "uint32",
              "name": "expectedDueDate",
              "type": "uint32"
            },
            {
              "internalType": "uint16",
              "name": "vintage",
              "type": "uint16"
            },
            {
              "internalType": "uint8",
              "name": "status",
              "type": "uint8"
            },
            {
              "internalType": "uint24",
              "name": "discountRate",
              "type": "uint24"
            }
          ],
          "internalType": "struct DomainDataTypes.Batch",
          "name": "batch",
          "type": "tuple"
        }
      ],
      "name": "addBatch",
      "outputs": [],
      "stateMutability": "nonpayable",
      "type": "function"
    },
    {
      "inputs": [
        {
          "internalType": "uint256",
          "name": "categoryId",
          "type": "uint256"
        },
        {
          "internalType": "string",
          "name": "tokenName",
          "type": "string"
        },
        {
          "internalType": "string",
          "name": "tokenSymbol",
          "type": "string"
        },
        {
          "internalType": "uint24",
          "name": "initialTA",
          "type": "uint24"
        }
      ],
      "name": "addCategory",
      "outputs": [],
      "stateMutability": "nonpayable",
      "type": "function"
    },
    {
      "inputs": [
        {
          "internalType": "uint256",
          "name": "categoryId",
          "type": "uint256"
        },
        {
          "internalType": "uint256",
          "name": "projectId",
          "type": "uint256"
        }
      ],
      "name": "addProject",
      "outputs": [],
      "stateMutability": "nonpayable",
      "type": "function"
    },
    {
      "inputs": [
        {
          "internalType": "uint256",
          "name": "",
          "type": "uint256"
        }
      ],
      "name": "batchCreated",
      "outputs": [
        {
          "internalType": "bool",
          "name": "",
          "type": "bool"
        }
      ],
      "stateMutability": "view",
      "type": "function"
    },
    {
      "inputs": [
        {
          "internalType": "uint256",
          "name": "",
          "type": "uint256"
        }
      ],
      "name": "batchIds",
      "outputs": [
        {
          "internalType": "uint256",
          "name": "",
          "type": "uint256"
        }
      ],
      "stateMutability": "view",
      "type": "function"
    },
    {
      "inputs": [
        {
          "internalType": "uint256",
          "name": "",
          "type": "uint256"
        }
      ],
      "name": "batches",
      "outputs": [
        {
          "internalType": "uint256",
          "name": "id",
          "type": "uint256"
        },
        {
          "internalType": "uint256",
          "name": "projectId",
          "type": "uint256"
        },
        {
          "internalType": "uint256",
          "name": "totalAmount",
          "type": "uint256"
        },
        {
          "internalType": "address",
          "name": "owner",
          "type": "address"
        },
        {
          "internalType": "uint32",
          "name": "expectedDueDate",
          "type": "uint32"
        },
        {
          "internalType": "uint16",
          "name": "vintage",
          "type": "uint16"
        },
        {
          "internalType": "uint8",
          "name": "status",
          "type": "uint8"
        },
        {
          "internalType": "uint24",
          "name": "discountRate",
          "type": "uint24"
        }
      ],
      "stateMutability": "view",
      "type": "function"
    },
    {
      "inputs": [
        {
          "internalType": "uint256[]",
          "name": "_batchIds",
          "type": "uint256[]"
        },
        {
          "internalType": "uint256[]",
          "name": "amountsIn",
          "type": "uint256[]"
        },
        {
          "internalType": "uint256[]",
          "name": "amountsOutMin",
          "type": "uint256[]"
        }
      ],
      "name": "bulkDecollateralizeTokens",
      "outputs": [],
      "stateMutability": "nonpayable",
      "type": "function"
    },
    {
      "inputs": [
        {
          "internalType": "uint256",
          "name": "",
          "type": "uint256"
        }
      ],
      "name": "categories",
      "outputs": [
        {
          "internalType": "uint256",
          "name": "volumeCoefficient",
          "type": "uint256"
        },
        {
          "internalType": "uint40",
          "name": "decayPerSecond",
          "type": "uint40"
        },
        {
          "internalType": "uint24",
          "name": "maxDepreciation",
          "type": "uint24"
        },
        {
          "internalType": "uint24",
          "name": "averageTA",
          "type": "uint24"
        },
        {
          "internalType": "uint256",
          "name": "totalCollateralized",
          "type": "uint256"
        },
        {
          "internalType": "uint32",
          "name": "lastCollateralizationTimestamp",
          "type": "uint32"
        },
        {
          "internalType": "uint256",
          "name": "lastCollateralizationMomentum",
          "type": "uint256"
        }
      ],
      "stateMutability": "view",
      "type": "function"
    },
    {
      "inputs": [
        {
          "internalType": "uint256",
          "name": "",
          "type": "uint256"
        }
      ],
      "name": "categoryIds",
      "outputs": [
        {
          "internalType": "bool",
          "name": "",
          "type": "bool"
        }
      ],
      "stateMutability": "view",
      "type": "function"
    },
    {
      "inputs": [
        {
          "internalType": "uint256",
          "name": "",
          "type": "uint256"
        },
        {
          "internalType": "uint256",
          "name": "",
          "type": "uint256"
        }
      ],
      "name": "categoryProjects",
      "outputs": [
        {
          "internalType": "uint256",
          "name": "",
          "type": "uint256"
        }
      ],
      "stateMutability": "view",
      "type": "function"
    },
    {
      "inputs": [
        {
          "internalType": "uint256",
          "name": "",
          "type": "uint256"
        }
      ],
      "name": "categoryToken",
      "outputs": [
        {
          "internalType": "contract CollateralizedBasketToken",
          "name": "",
          "type": "address"
        }
      ],
      "stateMutability": "view",
      "type": "function"
    },
    {
      "inputs": [],
      "name": "collateralizationFee",
      "outputs": [
        {
          "internalType": "uint16",
          "name": "",
          "type": "uint16"
        }
      ],
      "stateMutability": "view",
      "type": "function"
    },
    {
      "inputs": [
        {
          "internalType": "uint256",
          "name": "batchId",
          "type": "uint256"
        },
        {
          "internalType": "uint256",
          "name": "amountIn",
          "type": "uint256"
        },
        {
          "internalType": "uint256",
          "name": "amountOutMin",
          "type": "uint256"
        }
      ],
      "name": "collateralizeBatch",
      "outputs": [],
      "stateMutability": "nonpayable",
      "type": "function"
    },
    {
      "inputs": [],
      "name": "collateralizedBasketTokenDeployer",
      "outputs": [
        {
          "internalType": "contract CollateralizedBasketTokenDeployer",
          "name": "",
          "type": "address"
        }
      ],
      "stateMutability": "view",
      "type": "function"
    },
    {
      "inputs": [
        {
          "internalType": "address[]",
          "name": "assets",
          "type": "address[]"
        },
        {
          "internalType": "uint256[]",
          "name": "_categoryIds",
          "type": "uint256[]"
        }
      ],
      "name": "computeWeeklyCarbonRewards",
      "outputs": [
        {
          "internalType": "address[]",
          "name": "carbonRewards",
          "type": "address[]"
        },
        {
          "internalType": "uint256[]",
          "name": "rewardAmounts",
          "type": "uint256[]"
        }
      ],
      "stateMutability": "view",
      "type": "function"
    },
    {
      "inputs": [],
      "name": "decollateralizationFee",
      "outputs": [
        {
          "internalType": "uint16",
          "name": "",
          "type": "uint16"
        }
      ],
      "stateMutability": "view",
      "type": "function"
    },
    {
      "inputs": [
        {
          "internalType": "uint256",
          "name": "batchId",
          "type": "uint256"
        },
        {
          "internalType": "uint256",
          "name": "amountIn",
          "type": "uint256"
        },
        {
          "internalType": "uint256",
          "name": "amountOutMin",
          "type": "uint256"
        }
      ],
      "name": "decollateralizeTokens",
      "outputs": [],
      "stateMutability": "nonpayable",
      "type": "function"
    },
    {
      "inputs": [],
      "name": "feeReceiver",
      "outputs": [
        {
          "internalType": "address",
          "name": "",
          "type": "address"
        }
      ],
      "stateMutability": "view",
      "type": "function"
    },
    {
      "inputs": [],
      "name": "forwardContractBatch",
      "outputs": [
        {
          "internalType": "contract ForwardContractBatchToken",
          "name": "",
          "type": "address"
        }
      ],
      "stateMutability": "view",
      "type": "function"
    },
    {
      "inputs": [
        {
          "internalType": "uint256",
          "name": "projectId",
          "type": "uint256"
        }
      ],
      "name": "getBatchIdsByProject",
      "outputs": [
        {
          "internalType": "uint256[]",
          "name": "",
          "type": "uint256[]"
        }
      ],
      "stateMutability": "view",
      "type": "function"
    },
    {
      "inputs": [
        {
          "internalType": "uint256",
          "name": "projectId",
          "type": "uint256"
        },
        {
          "internalType": "uint256",
          "name": "vintage",
          "type": "uint256"
        }
      ],
      "name": "getBatchesDecollateralizationInfo",
      "outputs": [
        {
          "components": [
            {
              "internalType": "uint256",
              "name": "batchId",
              "type": "uint256"
            },
            {
              "internalType": "uint256",
              "name": "availableBatchTokens",
              "type": "uint256"
            },
            {
              "internalType": "uint256",
              "name": "amountOut",
              "type": "uint256"
            },
            {
              "internalType": "uint256",
              "name": "minAmountIn",
              "type": "uint256"
            },
            {
              "internalType": "uint256",
              "name": "minCbtDaoCut",
              "type": "uint256"
            }
          ],
          "internalType": "struct DomainDataTypes.TokenDecollateralizationInfo[]",
          "name": "result",
          "type": "tuple[]"
        }
      ],
      "stateMutability": "view",
      "type": "function"
    },
    {
      "inputs": [
        {
          "internalType": "uint256",
          "name": "categoryId",
          "type": "uint256"
        }
      ],
      "name": "getProjectIdsByCategory",
      "outputs": [
        {
          "internalType": "uint256[]",
          "name": "",
          "type": "uint256[]"
        }
      ],
      "stateMutability": "view",
      "type": "function"
    },
    {
      "inputs": [
        {
          "internalType": "contract CollateralizedBasketTokenDeployer",
          "name": "_collateralizedBasketTokenDeployer",
          "type": "address"
        },
        {
          "internalType": "contract ForwardContractBatchToken",
          "name": "_forwardContractBatch",
          "type": "address"
        },
        {
          "internalType": "uint16",
          "name": "_collateralizationFee",
          "type": "uint16"
        },
        {
          "internalType": "uint16",
          "name": "_decollateralizationFee",
          "type": "uint16"
        },
        {
          "internalType": "address",
          "name": "_feeReceiver",
          "type": "address"
        },
        {
          "internalType": "address",
          "name": "_weeklyRewardsMinter",
          "type": "address"
        }
      ],
      "name": "initialize",
      "outputs": [],
      "stateMutability": "nonpayable",
      "type": "function"
    },
    {
      "inputs": [
        {
          "internalType": "uint256[]",
          "name": "_categoryIds",
          "type": "uint256[]"
        },
        {
          "internalType": "address[]",
          "name": "carbonRewards",
          "type": "address[]"
        },
        {
          "internalType": "uint256[]",
          "name": "rewardAmounts",
          "type": "uint256[]"
        },
        {
          "internalType": "address",
          "name": "rewardsVault",
          "type": "address"
        }
      ],
      "name": "mintWeeklyCarbonRewards",
      "outputs": [],
      "stateMutability": "nonpayable",
      "type": "function"
    },
    {
      "inputs": [
        {
          "internalType": "address",
          "name": "",
          "type": "address"
        },
        {
          "internalType": "address",
          "name": "",
          "type": "address"
        },
        {
          "internalType": "uint256[]",
          "name": "",
          "type": "uint256[]"
        },
        {
          "internalType": "uint256[]",
          "name": "",
          "type": "uint256[]"
        },
        {
          "internalType": "bytes",
          "name": "",
          "type": "bytes"
        }
      ],
      "name": "onERC1155BatchReceived",
      "outputs": [
        {
          "internalType": "bytes4",
          "name": "",
          "type": "bytes4"
        }
      ],
      "stateMutability": "nonpayable",
      "type": "function"
    },
    {
      "inputs": [
        {
          "internalType": "address",
          "name": "",
          "type": "address"
        },
        {
          "internalType": "address",
          "name": "",
          "type": "address"
        },
        {
          "internalType": "uint256",
          "name": "",
          "type": "uint256"
        },
        {
          "internalType": "uint256",
          "name": "",
          "type": "uint256"
        },
        {
          "internalType": "bytes",
          "name": "",
          "type": "bytes"
        }
      ],
      "name": "onERC1155Received",
      "outputs": [
        {
          "internalType": "bytes4",
          "name": "",
          "type": "bytes4"
        }
      ],
      "stateMutability": "nonpayable",
      "type": "function"
    },
    {
      "inputs": [],
      "name": "owner",
      "outputs": [
        {
          "internalType": "address",
          "name": "",
          "type": "address"
        }
      ],
      "stateMutability": "view",
      "type": "function"
    },
    {
      "inputs": [
        {
          "internalType": "uint256",
          "name": "",
          "type": "uint256"
        },
        {
          "internalType": "uint256",
          "name": "",
          "type": "uint256"
        }
      ],
      "name": "projectBatches",
      "outputs": [
        {
          "internalType": "uint256",
          "name": "",
          "type": "uint256"
        }
      ],
      "stateMutability": "view",
      "type": "function"
    },
    {
      "inputs": [
        {
          "internalType": "uint256",
          "name": "",
          "type": "uint256"
        }
      ],
      "name": "projectCategory",
      "outputs": [
        {
          "internalType": "uint256",
          "name": "",
          "type": "uint256"
        }
      ],
      "stateMutability": "view",
      "type": "function"
    },
    {
      "inputs": [
        {
          "internalType": "uint256",
          "name": "",
          "type": "uint256"
        }
      ],
      "name": "projectIds",
      "outputs": [
        {
          "internalType": "bool",
          "name": "",
          "type": "bool"
        }
      ],
      "stateMutability": "view",
      "type": "function"
    },
    {
      "inputs": [],
      "name": "renounceOwnership",
      "outputs": [],
      "stateMutability": "nonpayable",
      "type": "function"
    },
    {
      "inputs": [
        {
          "internalType": "uint16",
          "name": "_collateralizationFee",
          "type": "uint16"
        }
      ],
      "name": "setCollateralizationFee",
      "outputs": [],
      "stateMutability": "nonpayable",
      "type": "function"
    },
    {
      "inputs": [
        {
          "internalType": "uint16",
          "name": "_decollateralizationFee",
          "type": "uint16"
        }
      ],
      "name": "setDecollateralizationFee",
      "outputs": [],
      "stateMutability": "nonpayable",
      "type": "function"
    },
    {
      "inputs": [
        {
          "internalType": "address",
          "name": "_feeReceiver",
          "type": "address"
        }
      ],
      "name": "setFeeReceiver",
      "outputs": [],
      "stateMutability": "nonpayable",
      "type": "function"
    },
    {
      "inputs": [
        {
          "internalType": "address",
          "name": "_weeklyRewardsMinter",
          "type": "address"
        }
      ],
      "name": "setWeeklyRewardsMinter",
      "outputs": [],
      "stateMutability": "nonpayable",
      "type": "function"
    },
    {
      "inputs": [
        {
          "internalType": "uint256",
          "name": "batchId",
          "type": "uint256"
        },
        {
          "internalType": "uint256",
          "name": "amountIn",
          "type": "uint256"
        }
      ],
      "name": "simulateBatchCollateralization",
      "outputs": [
        {
          "internalType": "uint256",
          "name": "cbtUserCut",
          "type": "uint256"
        },
        {
          "internalType": "uint256",
          "name": "cbtDaoCut",
          "type": "uint256"
        },
        {
          "internalType": "uint256",
          "name": "cbtForfeited",
          "type": "uint256"
        }
      ],
      "stateMutability": "view",
      "type": "function"
    },
    {
      "inputs": [
        {
          "internalType": "uint256",
          "name": "batchId",
          "type": "uint256"
        },
        {
          "internalType": "uint256",
          "name": "amountIn",
          "type": "uint256"
        }
      ],
      "name": "simulateDecollateralization",
      "outputs": [
        {
          "internalType": "uint256",
          "name": "amountOut",
          "type": "uint256"
        },
        {
          "internalType": "uint256",
          "name": "minAmountIn",
          "type": "uint256"
        },
        {
          "internalType": "uint256",
          "name": "minCbtDaoCut",
          "type": "uint256"
        }
      ],
      "stateMutability": "view",
      "type": "function"
    },
    {
      "inputs": [
        {
          "internalType": "bytes4",
          "name": "interfaceId",
          "type": "bytes4"
        }
      ],
      "name": "supportsInterface",
      "outputs": [
        {
          "internalType": "bool",
          "name": "",
          "type": "bool"
        }
      ],
      "stateMutability": "pure",
      "type": "function"
    },
    {
      "inputs": [
        {
          "internalType": "address",
          "name": "newOwner",
          "type": "address"
        }
      ],
      "name": "transferOwnership",
      "outputs": [],
      "stateMutability": "nonpayable",
      "type": "function"
    },
    {
      "inputs": [
        {
          "internalType": "uint256",
          "name": "categoryId",
          "type": "uint256"
        },
        {
          "internalType": "uint256",
          "name": "volumeCoefficient",
          "type": "uint256"
        },
        {
          "internalType": "uint40",
          "name": "decayPerSecond",
          "type": "uint40"
        },
        {
          "internalType": "uint24",
          "name": "maxDepreciation",
          "type": "uint24"
        }
      ],
      "name": "updateCategory",
      "outputs": [],
      "stateMutability": "nonpayable",
      "type": "function"
    },
    {
      "inputs": [],
      "name": "weeklyRewardsMinter",
      "outputs": [
        {
          "internalType": "address",
          "name": "",
          "type": "address"
        }
      ],
      "stateMutability": "view",
      "type": "function"
    }
  ],
  "transactionHash": "0x97f4198d40dba2a86412994ebdf578bde96037074c48c5efd2a4acdc6a1b3f6c",
  "args": [],
  "numDeployments": 1,
  "solcInputHash": "0e024d1a9c4342b7c692f63ce5523d09",
  "bytecode": "0x608060405234801561001057600080fd5b50613b43806100206000396000f3fe608060405234801561001057600080fd5b506004361061025e5760003560e01c8063adb4e05811610146578063d63098dd116100c3578063f23a6e6111610087578063f23a6e61146107bf578063f2fde38b146107de578063f468ae99146107f1578063f7c3fec214610806578063f9be94f214610836578063fb5ba8eb1461084957600080fd5b8063d63098dd14610723578063da12b23514610746578063dacc181a14610759578063ef016cdd1461077c578063efdcd9741461078f57600080fd5b8063b505ab861161010a578063b505ab861461060a578063b5ca64ec1461061d578063bc197c811461062d578063c007acf614610665578063c6cdbe5e1461067857600080fd5b8063adb4e058146104f8578063b2c6f00c1461050b578063b32c4d8d1461051e578063b3d346b9146105e4578063b3f00674146105f757600080fd5b80635c4e7a05116101df5780638cbacb8d116101a35780638cbacb8d1461047b5780638da5cb5b1461048e578063915e99131461049f57806393fa0581146104bf578063940870dc146104d2578063a3d334a1146104e557600080fd5b80635c4e7a05146103f057806368fb7ea1146104205780636a2848e314610433578063715018a6146104535780637902298e1461045b57600080fd5b806322cfa2251161022657806322cfa225146103285780632c5dd8a91461036957806348c35ad4146103995780634ca30634146103bc5780634dccd395146103cf57600080fd5b806301ffc9a714610263578063084951cf1461029c5780631073b295146102c45780631d3ad554146102d95780631fb0a624146102fa575b600080fd5b610287610271366004612ec5565b6001600160e01b031916636cdb3d1360e11b1490565b60405190151581526020015b60405180910390f35b60a4546102b190600160b01b900461ffff1681565b60405161ffff9091168152602001610293565b6102d76102d2366004612f00565b61085c565b005b6102ec6102e7366004612f9f565b610915565b604051610293929190613045565b61030d61030836600461309b565b610b1b565b60408051938452602084019290925290820152606001610293565b6103516103363660046130bd565b609d602052600090815260409020546001600160a01b031681565b6040516001600160a01b039091168152602001610293565b6102d76103773660046130e6565b60a4805461ffff909216600160a01b0261ffff60a01b19909216919091179055565b6102876103a73660046130bd565b60996020526000908152604090205460ff1681565b6102d76103ca366004613118565b610c4f565b6103e26103dd36600461309b565b610de7565b604051908152602001610293565b6102d76103fe36600461319a565b60a380546001600160a01b0319166001600160a01b0392909216919091179055565b6102d761042e3660046131b7565b610e18565b6103e26104413660046130bd565b609f6020526000908152604090205481565b6102d761105f565b61046e61046936600461309b565b611073565b60405161029391906131ca565b60a354610351906001600160a01b031681565b6033546001600160a01b0316610351565b6104b26104ad3660046130bd565b61134c565b6040516102939190613238565b61030d6104cd36600461309b565b6113ae565b6102d76104e036600461324b565b61156f565b60a454610351906001600160a01b031681565b6102d76105063660046132e4565b61160c565b6103e261051936600461309b565b611797565b61058f61052c3660046130bd565b609c602052600090815260409020805460018201546002830154600390930154919290916001600160a01b03811690600160a01b810463ffffffff1690600160c01b810461ffff1690600160d01b810460ff1690600160d81b900462ffffff1688565b604080519889526020890197909752958701949094526001600160a01b03909216606086015263ffffffff16608085015261ffff1660a084015260ff1660c083015262ffffff1660e082015261010001610293565b6103e26105f23660046130bd565b6117b3565b60a254610351906001600160a01b031681565b6102d7610618366004613391565b6117d4565b6103e2683635c9adc5dea0000081565b61064c61063b3660046134e6565b63bc197c8160e01b95945050505050565b6040516001600160e01b03199091168152602001610293565b6102d7610673366004613391565b611ac8565b6106da6106863660046130bd565b60986020526000908152604090208054600182015460028301546003840154600490940154929364ffffffffff83169362ffffff650100000000008504811694600160401b900416929163ffffffff169087565b6040805197885264ffffffffff909616602088015262ffffff94851695870195909552929091166060850152608084015263ffffffff1660a083015260c082015260e001610293565b6102876107313660046130bd565b60976020526000908152604090205460ff1681565b6104b26107543660046130bd565b611d5d565b6102876107673660046130bd565b609a6020526000908152604090205460ff1681565b6102d761078a36600461309b565b611dbd565b6102d761079d36600461319a565b60a280546001600160a01b0319166001600160a01b0392909216919091179055565b61064c6107cd366004613593565b63f23a6e6160e01b95945050505050565b6102d76107ec36600461319a565b611e91565b60a4546102b190600160a01b900461ffff1681565b6102d76108143660046130e6565b60a4805461ffff909216600160b01b0261ffff60b01b19909216919091179055565b6102d761084436600461363c565b611f0a565b60a154610351906001600160a01b031681565b60008481526097602052604090205460ff166108935760405163092483a160e11b8152600481018590526024015b60405180910390fd5b600084815260986020908152604091829020858155600101805464ffffffffff861667ffffffffffffffff1990911681176501000000000062ffffff8716908102919091179092559251908152859187917fa4cbd1903de80f86e1a9a2e630f758a278790366d92be399714a4938b763a011910160405180910390a450505050565b6060808483146109385760405163b4fa3fb360e01b815260040160405180910390fd5b846001600160401b03811115610950576109506133bd565b604051908082528060200260200182016040528015610979578160200160208202803683370190505b509150846001600160401b03811115610994576109946133bd565b6040519080825280602002602001820160405280156109bd578160200160208202803683370190505b50905060005b85811015610b115760008585838181106109df576109df6136b9565b60209081029290920135600081815260979093526040909220549192505060ff16610a205760405163092483a160e11b81526004810182905260240161088a565b6000818152609d6020908152604080832054815163313ce56760e01b815291516001600160a01b039091169392610aa7928692869263313ce56792600480820193918290030181865afa158015610a7b573d6000803e3d6000fd5b505050506040513d601f19601f82011682018060405250810190610a9f91906136de565b60ff16612053565b905081868581518110610abc57610abc6136b9565b60200260200101906001600160a01b031690816001600160a01b03168152505080858581518110610aef57610aef6136b9565b6020026020010181815250505050508080610b0990613711565b9150506109c3565b5094509492505050565b6000828152609a602052604081205481908190859060ff16610b5357604051632e46319160e21b81526004810182905260240161088a565b85610b5d816121d7565b15610b7e57604051630406a37f60e01b81526004810182905260240161088a565b6000610b89886121fd565b6000898152609c60209081526040918290206003015460a454835163313ce56760e01b81529351949550610c3e94600160a01b80840463ffffffff16958e95600160d81b90950462ffffff16949190930461ffff16926001600160a01b0389169263313ce567926004808401939192918290030181865afa158015610c12573d6000803e3d6000fd5b505050506040513d601f19601f82011682018060405250810190610c3691906136de565b60ff16612232565b919a90995090975095505050505050565b600054610100900460ff1615808015610c6f5750600054600160ff909116105b80610c895750303b158015610c89575060005460ff166001145b610cec5760405162461bcd60e51b815260206004820152602e60248201527f496e697469616c697a61626c653a20636f6e747261637420697320616c72656160448201526d191e481a5b9a5d1a585b1a5e995960921b606482015260840161088a565b6000805460ff191660011790558015610d0f576000805461ff0019166101001790555b610d176122cf565b610d1f6122fe565b60a4805460a180546001600160a01b038a81166001600160a01b03199283161790925561ffff888116600160b01b0261ffff60b01b19918b16600160a01b026001600160b01b0319909516848e161794909417169290921790925560a2805486841690831617905560a38054928516929091169190911790558015610dde576000805461ff0019169055604051600181527f7f26b83ff96e1f2b6a682f133852f6798a09c465da95921460cefb38474024989060200160405180910390a15b50505050505050565b60a06020528160005260406000208181548110610e0357600080fd5b90600052602060002001600091509150505481565b60208082013560009081526099909152604090205460ff16610e5357604051633223e66d60e21b81526020820135600482015260240161088a565b80356000908152609a602052604090205460ff1615610e8857604051633903fb6760e01b81528135600482015260240161088a565b6000610e9a608083016060840161319a565b6001600160a01b031603610ec157604051634fd6f81960e11b815260040160405180910390fd5b42610ed260a083016080840161373c565b63ffffffff1611610f0f57610eed60a082016080830161373c565b6040516323aad46760e21b815263ffffffff909116600482015260240161088a565b80356000908152609a60209081526040808320805460ff19166001179055609c90915290208190610f408282613780565b5050609b8054600181810190925582357fbba9db4cdbea0a37c207bbb83e20f828cd4441c49891101dc94fd20dc8efc349909101819055602080840135600090815260a0825260408120805494850181558152209091015560a1546001600160a01b031663731133e9610fb9608084016060850161319a565b604080516001600160e01b031960e085901b1681526001600160a01b039092166004830152843560248301528401356044820152608060648201526000608482015260a401600060405180830381600087803b15801561101857600080fd5b505af115801561102c573d6000803e3d6000fd5b5050604051833592507f2354c6982830f23074cbadd3a8326546827ca5be87b6cfe41e906c66e75cd9659150600090a250565b61106761232d565b6110716000612387565b565b609b546060906000906001600160401b03811115611093576110936133bd565b6040519080825280602002602001820160405280156110f657816020015b6110e36040518060a0016040528060008152602001600081526020016000815260200160008152602001600081525090565b8152602001906001900390816110b15790505b5090506000805b609b5481101561126f576000609b828154811061111c5761111c6136b9565b6000918252602080832090910154808352609c90915260409091206003015490915061ffff600160c01b909104168614158061116957506000818152609c60205260409020600101548714155b15611174575061125d565b60a154604051627eeac760e11b8152306004820152602481018390526000916001600160a01b03169062fdd58e90604401602060405180830381865afa1580156111c2573d6000803e3d6000fd5b505050506040513d601f19601f820116820180604052508101906111e6919061387a565b9050600080600061120085683635c9adc5dea000006113ae565b9250925092506040518060a001604052808681526020018581526020018481526020018381526020018281525088888151811061123f5761123f6136b9565b6020908102919091010152611255876001613893565b965050505050505b8061126781613711565b9150506110fd565b50806001600160401b03811115611288576112886133bd565b6040519080825280602002602001820160405280156112eb57816020015b6112d86040518060a0016040528060008152602001600081526020016000815260200160008152602001600081525090565b8152602001906001900390816112a65790505b50925060005b818110156113435782818151811061130b5761130b6136b9565b6020026020010151848281518110611325576113256136b9565b6020026020010181905250808061133b90613711565b9150506112f1565b50505092915050565b600081815260a060209081526040918290208054835181840281018401909452808452606093928301828280156113a257602002820191906000526020600020905b81548152602001906001019080831161138e575b50505050509050919050565b6000828152609a602052604081205481908190859060ff166113e657604051632e46319160e21b81526004810182905260240161088a565b60006113f1876121fd565b6000888152609c60209081526040918290206003015460a454835163313ce56760e01b815293519495506114a894600160a01b830463ffffffff16948c94600160d81b90940462ffffff1693600160b01b90930461ffff16926001600160a01b0389169263313ce5679260048082019392918290030181865afa15801561147c573d6000803e3d6000fd5b505050506040513d601f19601f820116820180604052508101906114a091906136de565b60ff166123d9565b50506000888152609c60209081526040918290206003015460a454835163313ce56760e01b8152935194995061156194600160a01b830463ffffffff16948b94600160d81b90940462ffffff1693600160b01b90930461ffff16926001600160a01b0389169263313ce5679260048082019392918290030181865afa158015611535573d6000803e3d6000fd5b505050506040513d601f19601f8201168201806040525081019061155991906136de565b60ff16612444565b959890975094955050505050565b848314158061157e5750848114155b1561159c5760405163b4fa3fb360e01b815260040160405180910390fd5b60005b85811015610dde576115fa8787838181106115bc576115bc6136b9565b905060200201358686848181106115d5576115d56136b9565b905060200201358585858181106115ee576115ee6136b9565b90506020020135611ac8565b8061160481613711565b91505061159f565b858414158061161b5750838214155b156116395760405163b4fa3fb360e01b815260040160405180910390fd5b60a3546001600160a01b031633146116665760405163d68a9ef760e01b815233600482015260240161088a565b60005b8481101561178d576000868683818110611685576116856136b9565b905060200201602081019061169a919061319a565b90508060008686858181106116b1576116b16136b9565b6040516340c10f1960e01b81526001600160a01b038981166004830152602090920293909301356024840181905293508416916340c10f199150604401600060405180830381600087803b15801561170857600080fd5b505af115801561171c573d6000803e3d6000fd5b50506040518392506001600160a01b03861691507f2a4c118f91681e604a13a2fbe69bf4829feeab31b75c4de33b825ab6738d93d490600090a36117778b8b8681811061176b5761176b6136b9565b905060200201356124a4565b505050808061178590613711565b915050611669565b5050505050505050565b609e6020528160005260406000208181548110610e0357600080fd5b609b81815481106117c357600080fd5b600091825260209091200154905081565b6002606554036118265760405162461bcd60e51b815260206004820152601f60248201527f5265656e7472616e637947756172643a207265656e7472616e742063616c6c00604482015260640161088a565b60026065556000838152609a6020526040902054839060ff1661185f57604051632e46319160e21b81526004810182905260240161088a565b83611869816121d7565b1561188a57604051630406a37f60e01b81526004810182905260240161088a565b6000611895866121fd565b6000878152609c602090815260408083206003015460a454825163313ce56760e01b815292519596509394859461191d94600160a01b80850463ffffffff16958e95600160d81b900462ffffff16949190930461ffff16926001600160a01b038b169263313ce567926004808401938290030181865afa158015610c12573d6000803e3d6000fd5b50915091508582101561194d576040516323fd80cf60e01b8152600481018390526024810187905260440161088a565b6040516340c10f1960e01b8152336004820152602481018390526001600160a01b038416906340c10f1990604401600060405180830381600087803b15801561199557600080fd5b505af11580156119a9573d6000803e3d6000fd5b505060a2546040516340c10f1960e01b81526001600160a01b0391821660048201526024810185905290861692506340c10f199150604401600060405180830381600087803b1580156119fb57600080fd5b505af1158015611a0f573d6000803e3d6000fd5b505060a154604051637921219560e11b81526001600160a01b03909116925063f242432a9150611a4990339030908d908d906004016138a6565b600060405180830381600087803b158015611a6357600080fd5b505af1158015611a77573d6000803e3d6000fd5b5050604080518a8152602081018690523393508b92507f996fd5dc95553bf61923ea1e658357de4a30175141a8fab02ae6ae2ed8c6d32e91015b60405180910390a350506001606555505050505050565b600260655403611b1a5760405162461bcd60e51b815260206004820152601f60248201527f5265656e7472616e637947756172643a207265656e7472616e742063616c6c00604482015260640161088a565b60026065556000838152609a6020526040902054839060ff16611b5357604051632e46319160e21b81526004810182905260240161088a565b6000611b5e856121fd565b6000868152609c602090815260408083206003015460a454825163313ce56760e01b81529251959650939485948594611bec94600160a01b850463ffffffff16948d94600160d81b90910462ffffff1693600160b01b900461ffff16926001600160a01b038c169263313ce56792600480830193928290030181865afa15801561147c573d6000803e3d6000fd5b92509250925060008311611c1657604051630a255ea560e41b81526004810184905260240161088a565b85831015611c41576040516323fd80cf60e01b8152600481018490526024810187905260440161088a565b60405163079cc67960e41b8152336004820152602481018290526001600160a01b038516906379cc679090604401600060405180830381600087803b158015611c8957600080fd5b505af1158015611c9d573d6000803e3d6000fd5b505060a254611cbb925086915033906001600160a01b0316856126eb565b60a154604051637921219560e11b81526001600160a01b039091169063f242432a90611cf190309033908d9089906004016138a6565b600060405180830381600087803b158015611d0b57600080fd5b505af1158015611d1f573d6000803e3d6000fd5b5050604080518a8152602081018790523393508b92507f0a2adf4ac4fa3544a2c794e5ba57a755d18102bb19672742fcc48f87e5c1fce39101611ab1565b6000818152609e60209081526040918290208054835181840281018401909452808452606093928301828280156113a2576020028201919060005260206000209081548152602001906001019080831161138e5750505050509050919050565b60008281526097602052604090205460ff16611def5760405163092483a160e11b81526004810183905260240161088a565b60008181526099602052604090205460ff1615611e225760405163c5e0852d60e01b81526004810182905260240161088a565b6000828152609e6020908152604080832080546001818101835591855283852001859055848452609f83528184208690556099909252808320805460ff19169092179091555182917f1ac2092e16e28eef29d1832f3dc69da1b21284a1f3159d3b26cb238b22fe4f8a91a25050565b611e9961232d565b6001600160a01b038116611efe5760405162461bcd60e51b815260206004820152602660248201527f4f776e61626c653a206e6577206f776e657220697320746865207a65726f206160448201526564647265737360d01b606482015260840161088a565b611f0781612387565b50565b60008681526097602052604090205460ff1615611f3d57604051631e506c6d60e31b81526004810187905260240161088a565b60008681526097602052604090819020805460ff1916600117905560a454905163b548848760e01b81526001600160a01b039091169063b548848790611f8d908890889088908890600401613907565b6020604051808303816000875af1158015611fac573d6000803e3d6000fd5b505050506040513d601f19601f82011682018060405250810190611fd0919061392e565b6000878152609d6020908152604080832080546001600160a01b0319166001600160a01b03959095169490941790935560989052818120600101805462ffffff60401b1916600160401b62ffffff861602179055905187917fafc348cb919473b1b9a1f5712a5d6d3176cdf7a5295bd4709b8cf37b5219832691a2505050505050565b6000828152609e602052604081208190815b81548110156121cb576000828281548110612082576120826136b9565b600091825260208083209091015480835260a090915260408220909250905b81548110156121b55760008282815481106120be576120be6136b9565b600091825260208220015460a154604051627eeac760e11b8152306004820152602481018390529193506001600160a01b03169062fdd58e90604401602060405180830381865afa158015612117573d6000803e3d6000fd5b505050506040513d601f19601f8201168201806040525081019061213b919061387a565b905080158061214e575061214e826121d7565b1561215a5750506121a3565b6000828152609c60205260409020600381015461219390600160a01b810463ffffffff16908490600160d81b900462ffffff168e61278d565b61219d908a613893565b98505050505b806121ad81613711565b9150506120a1565b50505080806121c390613711565b915050612065565b50909150505b92915050565b6000908152609c602052604090206003015442600160a01b90910463ffffffff16111590565b6000908152609c60209081526040808320600101548352609f8252808320548352609d9091529020546001600160a01b031690565b60008060004288116122465761224661394b565b6000612252878a6127e9565b90506000612277612263838b613961565b61226e88600a613a5c565b620f4240612878565b905060006122888289612710612878565b905060006122968284613a68565b90506000836122a68a600a613a5c565b6122b0908e613961565b6122ba9190613a68565b919d929c50909a509098505050505050505050565b600054610100900460ff166122f65760405162461bcd60e51b815260040161088a90613a7b565b61107161292d565b600054610100900460ff166123255760405162461bcd60e51b815260040161088a90613a7b565b61107161295d565b6033546001600160a01b031633146110715760405162461bcd60e51b815260206004820181905260248201527f4f776e61626c653a2063616c6c6572206973206e6f7420746865206f776e6572604482015260640161088a565b603380546001600160a01b038381166001600160a01b0319831681179093556040519116919082907f8be0079c531659141344cd1fd0a4f28419497f9722a3daafe3b4186f6b6457e090600090a35050565b6000806000806123ec8887612710612878565b905060006123fa828a613a68565b90506000612408898c6127e9565b9050600061241a83620f424084612878565b905061242788600a613a5c565b6124319082613adc565b9c939b5091995091975050505050505050565b600080600061245386896127e9565b9050600061246f612464838a613961565b61226e87600a613a5c565b9050612487816127106124828982613a68565b612878565b93506124968487612710612878565b925050509550959350505050565b6000818152609e602052604081208190815b81548110156126175760008282815481106124d3576124d36136b9565b600091825260208083209091015480835260a090915260408220909250905b815481101561260157600082828154811061250f5761250f6136b9565b600091825260208220015460a154604051627eeac760e11b8152306004820152602481018390529193506001600160a01b03169062fdd58e90604401602060405180830381865afa158015612568573d6000803e3d6000fd5b505050506040513d601f19601f8201168201806040525081019061258c919061387a565b905080158061259f575061259f826121d7565b156125ab5750506125ef565b6000828152609c60205260409020600301546125d4908290600160d81b900462ffffff16613961565b6125de908a613893565b98506125ea8189613893565b975050505b806125f981613711565b9150506124f2565b505050808061260f90613711565b9150506124b6565b50816000036126775760008481526098602052604080822060028101839055600101549051600160401b90910462ffffff169086907fd0c98409f17c45dc9f0e272df73b5b8056534c9822bb3f6d02f91c9922a9f95e908490a450505050565b60006126838385613adc565b60008681526098602052604080822060018101805462ffffff60401b1916600160401b62ffffff871602179055600201869055519192508491839188917fd0c98409f17c45dc9f0e272df73b5b8056534c9822bb3f6d02f91c9922a9f95e9190a45050505050565b6040516323b872dd60e01b8082526001600160a01b038581166004840152841660248301526044820183905290600080606483828a5af1612730573d6000803e3d6000fd5b5061273a8561298b565b6127865760405162461bcd60e51b815260206004820152601960248201527f475076323a206661696c6564207472616e7366657246726f6d00000000000000604482015260640161088a565b5050505050565b600042851161279e575060006127e1565b60006127aa84876127e9565b90506127dd816127ba8688613961565b6127c49190613961565b6127cf85600a613a5c565b6124826002620f4240613afe565b9150505b949350505050565b6000806127f64284612a33565b90508060000361280c57620f42409150506121d1565b806001036128295761282184620f4240613a68565b9150506121d1565b600061283885620f4240613a68565b9050600061284982620f4240612a8f565b905060006128618261285c600187613a68565b612ac9565b905061286d8184612cf5565b979650505050505050565b60008080600019858709858702925082811083820303915050806000036128b2578382816128a8576128a8613ac6565b0492505050612926565b8084116128be57600080fd5b600084868809851960019081018716968790049682860381900495909211909303600082900391909104909201919091029190911760038402600290811880860282030280860282030280860282030280860282030280860282030280860290910302029150505b9392505050565b600054610100900460ff166129545760405162461bcd60e51b815260040161088a90613a7b565b61107133612387565b600054610100900460ff166129845760405162461bcd60e51b815260040161088a90613a7b565b6001606555565b60006129b0565b62461bcd60e51b600052602060045280602452508060445260646000fd5b3d80156129ef5760208114612a20576129ea7f475076323a206d616c666f726d6564207472616e7366657220726573756c7400601f612992565b612a2d565b823b612a1757612a177311d41d8c8e881b9bdd08184818dbdb9d1c9858dd60621b6014612992565b60019150612a2d565b3d6000803e600051151591505b50919050565b6000821580612a40575081155b15612a6857604051631c5dcecf60e31b8152600481018490526024810183905260440161088a565b828211612a77575060006121d1565b62093a80612a858484613a68565b6129269190613adc565b600081600003612a9e57600080fd5b6000612aaa8484612d60565b905060016001607f1b036001600160801b038216111561292657600080fd5b600080600084600f0b128015612ae25750826001166001145b905060008085600f0b12612af65784612afb565b846000035b6001600160801b03169050600160801b600160401b8211612b9057603f82901b91505b8415612b88576001851615612b33578102607f1c5b908002607f1c906002851615612b49578102607f1c5b908002607f1c906004851615612b5f578102607f1c5b908002607f1c906008851615612b75578102607f1c5b60049490941c93908002607f1c90612b1e565b60401c612ca6565b603f600160601b831015612baa5760209290921b91601f19015b600160701b831015612bc25760109290921b91600f19015b600160781b831015612bda5760089290921b91600719015b6001607c1b831015612bf25760049290921b91600319015b6001607e1b831015612c0a5760029290921b91600119015b6001607f1b831015612c225760019290921b91600019015b60005b8615612c8f5760408210612c3857600080fd5b6001871615612c5e57918302607f1c918101600160801b831115612c5e57600192831c92015b928002607f1c9260019190911b90600160801b8410612c8357600193841c9391909101905b600187901c9650612c25565b60408110612c9c57600080fd5b6040039190911c90505b600083612cb35781612cb8565b816000035b90506f7fffffffffffffffffffffffffffffff198112801590612ce2575060016001607f1b038113155b612ceb57600080fd5b9695505050505050565b600081600003612d07575060006121d1565b600083600f0b1215612d1857600080fd5b600f83900b6001600160801b038316810260401c90608084901c026001600160c01b03811115612d4757600080fd5b60401b8119811115612d5857600080fd5b019392505050565b600081600003612d6f57600080fd5b60006001600160c01b038411612d9a5782604085901b81612d9257612d92613ac6565b049050612eb1565b60c084811c6401000000008110612db3576020918201911c5b620100008110612dc5576010918201911c5b6101008110612dd6576008918201911c5b60108110612de6576004918201911c5b60048110612df6576002918201911c5b60028110612e05576001820191505b60bf820360018603901c6001018260ff0387901b81612e2657612e26613ac6565b0492506001600160801b03831115612e3d57600080fd5b608085901c83026001600160801b038616840260c088901c604089901b82811015612e69576001820391505b608084901b92900382811015612e80576001820391505b829003608084901c8214612e9657612e9661394b565b888181612ea557612ea5613ac6565b04870196505050505050505b6001600160801b0381111561292657600080fd5b600060208284031215612ed757600080fd5b81356001600160e01b03198116811461292657600080fd5b62ffffff81168114611f0757600080fd5b60008060008060808587031215612f1657600080fd5b8435935060208501359250604085013564ffffffffff81168114612f3957600080fd5b91506060850135612f4981612eef565b939692955090935050565b60008083601f840112612f6657600080fd5b5081356001600160401b03811115612f7d57600080fd5b6020830191508360208260051b8501011115612f9857600080fd5b9250929050565b60008060008060408587031215612fb557600080fd5b84356001600160401b0380821115612fcc57600080fd5b612fd888838901612f54565b90965094506020870135915080821115612ff157600080fd5b50612ffe87828801612f54565b95989497509550505050565b600081518084526020808501945080840160005b8381101561303a5781518752958201959082019060010161301e565b509495945050505050565b604080825283519082018190526000906020906060840190828701845b828110156130875781516001600160a01b031684529284019290840190600101613062565b50505083810382850152612ceb818661300a565b600080604083850312156130ae57600080fd5b50508035926020909101359150565b6000602082840312156130cf57600080fd5b5035919050565b61ffff81168114611f0757600080fd5b6000602082840312156130f857600080fd5b8135612926816130d6565b6001600160a01b0381168114611f0757600080fd5b60008060008060008060c0878903121561313157600080fd5b863561313c81613103565b9550602087013561314c81613103565b9450604087013561315c816130d6565b9350606087013561316c816130d6565b9250608087013561317c81613103565b915060a087013561318c81613103565b809150509295509295509295565b6000602082840312156131ac57600080fd5b813561292681613103565b60006101008284031215612a2d57600080fd5b602080825282518282018190526000919060409081850190868401855b8281101561322b5781518051855286810151878601528581015186860152606080820151908601526080908101519085015260a090930192908501906001016131e7565b5091979650505050505050565b602081526000612926602083018461300a565b6000806000806000806060878903121561326457600080fd5b86356001600160401b038082111561327b57600080fd5b6132878a838b01612f54565b909850965060208901359150808211156132a057600080fd5b6132ac8a838b01612f54565b909650945060408901359150808211156132c557600080fd5b506132d289828a01612f54565b979a9699509497509295939492505050565b60008060008060008060006080888a0312156132ff57600080fd5b87356001600160401b038082111561331657600080fd5b6133228b838c01612f54565b909950975060208a013591508082111561333b57600080fd5b6133478b838c01612f54565b909750955060408a013591508082111561336057600080fd5b5061336d8a828b01612f54565b909450925050606088013561338181613103565b8091505092959891949750929550565b6000806000606084860312156133a657600080fd5b505081359360208301359350604090920135919050565b634e487b7160e01b600052604160045260246000fd5b604051601f8201601f191681016001600160401b03811182821017156133fb576133fb6133bd565b604052919050565b600082601f83011261341457600080fd5b813560206001600160401b0382111561342f5761342f6133bd565b8160051b61343e8282016133d3565b928352848101820192828101908785111561345857600080fd5b83870192505b8483101561286d5782358252918301919083019061345e565b600082601f83011261348857600080fd5b81356001600160401b038111156134a1576134a16133bd565b6134b4601f8201601f19166020016133d3565b8181528460208386010111156134c957600080fd5b816020850160208301376000918101602001919091529392505050565b600080600080600060a086880312156134fe57600080fd5b853561350981613103565b9450602086013561351981613103565b935060408601356001600160401b038082111561353557600080fd5b61354189838a01613403565b9450606088013591508082111561355757600080fd5b61356389838a01613403565b9350608088013591508082111561357957600080fd5b5061358688828901613477565b9150509295509295909350565b600080600080600060a086880312156135ab57600080fd5b85356135b681613103565b945060208601356135c681613103565b9350604086013592506060860135915060808601356001600160401b038111156135ef57600080fd5b61358688828901613477565b60008083601f84011261360d57600080fd5b5081356001600160401b0381111561362457600080fd5b602083019150836020828501011115612f9857600080fd5b6000806000806000806080878903121561365557600080fd5b8635955060208701356001600160401b038082111561367357600080fd5b61367f8a838b016135fb565b9097509550604089013591508082111561369857600080fd5b506136a589828a016135fb565b909450925050606087013561318c81612eef565b634e487b7160e01b600052603260045260246000fd5b60ff81168114611f0757600080fd5b6000602082840312156136f057600080fd5b8151612926816136cf565b634e487b7160e01b600052601160045260246000fd5b600060018201613723576137236136fb565b5060010190565b63ffffffff81168114611f0757600080fd5b60006020828403121561374e57600080fd5b81356129268161372a565b600081356121d1816130d6565b600081356121d1816136cf565b600081356121d181612eef565b8135815560208201356001820155604082013560028201556003810160608301356137aa81613103565b815460808501356137ba8161372a565b6001600160c01b0319919091166001600160a01b03929092169190911760a091821b63ffffffff60a01b16178255613817906137f7908501613759565b82805461ffff60c01b191660c09290921b61ffff60c01b16919091179055565b61384461382660c08501613766565b82805460ff60d01b191660d09290921b60ff60d01b16919091179055565b61387561385360e08501613773565b82805462ffffff60d81b191660d89290921b62ffffff60d81b16919091179055565b505050565b60006020828403121561388c57600080fd5b5051919050565b808201808211156121d1576121d16136fb565b6001600160a01b0394851681529290931660208301526040820152606081019190915260a06080820181905260009082015260c00190565b81835281816020850137506000828201602090810191909152601f909101601f19169091010190565b60408152600061391b6040830186886138de565b828103602084015261286d8185876138de565b60006020828403121561394057600080fd5b815161292681613103565b634e487b7160e01b600052600160045260246000fd5b80820281158282048414176121d1576121d16136fb565b600181815b808511156139b3578160001904821115613999576139996136fb565b808516156139a657918102915b93841c939080029061397d565b509250929050565b6000826139ca575060016121d1565b816139d7575060006121d1565b81600181146139ed57600281146139f757613a13565b60019150506121d1565b60ff841115613a0857613a086136fb565b50506001821b6121d1565b5060208310610133831016604e8410600b8410161715613a36575081810a6121d1565b613a408383613978565b8060001904821115613a5457613a546136fb565b029392505050565b600061292683836139bb565b818103818111156121d1576121d16136fb565b6020808252602b908201527f496e697469616c697a61626c653a20636f6e7472616374206973206e6f74206960408201526a6e697469616c697a696e6760a81b606082015260800190565b634e487b7160e01b600052601260045260246000fd5b600082613af957634e487b7160e01b600052601260045260246000fd5b500490565b600061292660ff8416836139bb56fea2646970667358221220b10f703e48c964cfc689f6d37c7d6a1b6299377e0ca9e00369b5e2b28ac1fa7a64736f6c63430008110033",
  "devdoc": {
    "errors": {
      "UnauthorizedRewardMinting(address)": [
        {
          "details": "Thrown if minting weekly rewards is called by an unauthorized account"
        }
      ]
    },
    "kind": "dev",
    "methods": {
      "bulkDecollateralizeTokens(uint256[],uint256[],uint256[])": {
        "details": "Bulk-decollateralizes ERC20 tokens into multiple ERC1155 tokens with specified amountsprior to calling, msg.sender must approve SolidWorldManager to spend `sum(amountsIn)` ERC20 tokens",
        "params": {
          "_batchIds": "ids of the batches",
          "amountsIn": "ERC20 tokens to decollateralize",
          "amountsOutMin": "minimum output amounts of ERC1155 tokens for transaction to succeed"
        }
      },
      "collateralizeBatch(uint256,uint256,uint256)": {
        "details": "Collateralizes `amountIn` of ERC1155 tokens with id `batchId` for msg.senderprior to calling, msg.sender must approve SolidWorldManager to spend its ERC1155 tokens with id `batchId`nonReentrant, to avoid possible reentrancy after calling safeTransferFrom",
        "params": {
          "amountIn": "ERC1155 tokens to collateralize",
          "amountOutMin": "minimum output amount of ERC20 tokens for transaction to succeed",
          "batchId": "id of the batch"
        }
      },
      "computeWeeklyCarbonRewards(address[],uint256[])": {
        "params": {
          "_categoryIds": "The categories to which the incentivized assets belong",
          "assets": "The incentivized assets (LP tokens)"
        },
        "returns": {
          "carbonRewards": "List of carbon rewards getting distributed.",
          "rewardAmounts": "List of carbon reward amounts getting distributed"
        }
      },
      "decollateralizeTokens(uint256,uint256,uint256)": {
        "details": "Decollateralizes `amountIn` of ERC20 tokens and sends `amountOut` ERC1155 tokens with id `batchId` to msg.senderprior to calling, msg.sender must approve SolidWorldManager to spend `amountIn` ERC20 tokensnonReentrant, to avoid possible reentrancy after calling safeTransferFrom",
        "params": {
          "amountIn": "ERC20 tokens to decollateralize",
          "amountOutMin": "minimum output amount of ERC1155 tokens for transaction to succeed",
          "batchId": "id of the batch"
        }
      },
      "getBatchesDecollateralizationInfo(uint256,uint256)": {
        "details": "Computes relevant info for the decollateralization process involving batches that match the specified `projectId` and `vintage`",
        "params": {
          "projectId": "id of the project the batch belongs to",
          "vintage": "vintage of the batch"
        },
        "returns": {
          "result": "array of relevant info about matching batches"
        }
      },
      "mintWeeklyCarbonRewards(uint256[],address[],uint256[],address)": {
        "params": {
          "_categoryIds": "The categories to which the incentivized assets belong",
          "carbonRewards": "List of carbon rewards to mint",
          "rewardAmounts": "List of carbon reward amounts to mint",
          "rewardsVault": "Account that secures ERC20 rewards"
        }
      },
      "owner()": {
        "details": "Returns the address of the current owner."
      },
      "renounceOwnership()": {
        "details": "Leaves the contract without owner. It will not be possible to call `onlyOwner` functions anymore. Can only be called by the current owner. NOTE: Renouncing ownership will leave the contract without an owner, thereby removing any functionality that is only available to the owner."
      },
      "setWeeklyRewardsMinter(address)": {
        "params": {
          "_weeklyRewardsMinter": "The only account allowed to mint weekly carbon rewards"
        }
      },
      "simulateBatchCollateralization(uint256,uint256)": {
        "details": "Simulates collateralization of `amountIn` ERC1155 tokens with id `batchId` for msg.sender",
        "params": {
          "amountIn": "ERC1155 tokens to collateralize",
          "batchId": "id of the batch"
        },
        "returns": {
          "cbtDaoCut": "ERC20 tokens to be received by feeReceiver",
          "cbtForfeited": "ERC20 tokens forfeited for collateralizing the ERC1155 tokens",
          "cbtUserCut": "ERC20 tokens to be received by msg.sender"
        }
      },
      "simulateDecollateralization(uint256,uint256)": {
        "details": "Simulates decollateralization of `amountIn` ERC20 tokens for ERC1155 tokens with id `batchId`",
        "params": {
          "amountIn": "ERC20 tokens to decollateralize",
          "batchId": "id of the batch"
        },
        "returns": {
          "amountOut": "ERC1155 tokens to be received by msg.sender",
          "minAmountIn": "minimum amount of ERC20 tokens to decollateralize `amountOut` ERC1155 tokens with id `batchId`",
          "minCbtDaoCut": "ERC20 tokens to be received by feeReceiver for decollateralizing minAmountIn ERC20 tokens"
        }
      },
      "supportsInterface(bytes4)": {
        "details": "Returns true if this contract implements the interface defined by `interfaceId`. See the corresponding https://eips.ethereum.org/EIPS/eip-165#how-interfaces-are-identified[EIP section] to learn more about how these ids are created. This function call must use less than 30 000 gas."
      },
      "transferOwnership(address)": {
        "details": "Transfers ownership of the contract to a new account (`newOwner`). Can only be called by the current owner."
      }
    },
    "stateVariables": {
      "batchCreated": {
        "details": "BatchId => isAdded"
      },
      "batches": {
        "details": "BatchId => DomainDataTypes.Batch"
      },
      "categories": {
        "details": "CategoryId => DomainDataTypes.Category"
      },
      "categoryIds": {
        "details": "CategoryId => isAdded"
      },
      "categoryProjects": {
        "details": "CategoryId => ProjectId[]"
      },
      "categoryToken": {
        "details": "CategoryId => CollateralizedBasketToken address (ERC-20)"
      },
      "projectBatches": {
        "details": "ProjectId => BatchId[]"
      },
      "projectCategory": {
        "details": "ProjectId => CategoryId"
      },
      "projectIds": {
        "details": "ProjectId => isAdded"
      }
    },
    "version": 1
  },
  "userdoc": {
    "kind": "user",
    "methods": {
      "DECOLLATERALIZATION_SIMULATION_INPUT()": {
        "notice": "Constant used as input for decollateralization simulation for ordering batches with the same category and vintage"
      },
      "batchCreated(uint256)": {
        "notice": "Property is used for checking if Batch ID is already added"
      },
      "batchIds(uint256)": {
        "notice": "Stores all batch ids ever created"
      },
      "batches(uint256)": {
        "notice": "Property stores info about a batch"
      },
      "categories(uint256)": {
        "notice": "Stores the state of categories"
      },
      "categoryIds(uint256)": {
        "notice": "Mapping is used for checking if Category ID is already added"
      },
      "categoryProjects(uint256,uint256)": {
        "notice": "Mapping determines what projects a category has"
      },
      "categoryToken(uint256)": {
        "notice": "Mapping determines a respective CollateralizedBasketToken (ERC-20) of a category"
      },
      "collateralizationFee()": {
        "notice": "Fee charged by DAO when collateralizing forward contract batch tokens."
      },
      "collateralizedBasketTokenDeployer()": {
        "notice": "Contract that deploys new collateralized basket tokens. Allows this contract to mint tokens."
      },
      "decollateralizationFee()": {
        "notice": "Fee charged by DAO when decollateralizing collateralized basket tokens."
      },
      "feeReceiver()": {
        "notice": "The account where all protocol fees are captured."
      },
      "forwardContractBatch()": {
        "notice": "Contract that operates forward contract batch tokens (ERC-1155). Allows this contract to mint tokens."
      },
      "projectBatches(uint256,uint256)": {
        "notice": "Mapping determines what batches a project has"
      },
      "projectCategory(uint256)": {
        "notice": "Mapping determines what category a project belongs to"
      },
      "projectIds(uint256)": {
        "notice": "Property is used for checking if Project ID is already added"
      },
      "weeklyRewardsMinter()": {
        "notice": "The only account that is allowed to mint weekly carbon rewards"
      }
    },
    "version": 1
  },
  "storageLayout": {
    "storage": [
      {
        "astId": 138,
        "contract": "contracts/SolidWorldManager.sol:SolidWorldManager",
        "label": "_initialized",
        "offset": 0,
        "slot": "0",
        "type": "t_uint8"
      },
      {
        "astId": 141,
        "contract": "contracts/SolidWorldManager.sol:SolidWorldManager",
        "label": "_initializing",
        "offset": 1,
        "slot": "0",
        "type": "t_bool"
      },
      {
        "astId": 666,
        "contract": "contracts/SolidWorldManager.sol:SolidWorldManager",
        "label": "__gap",
        "offset": 0,
        "slot": "1",
        "type": "t_array(t_uint256)50_storage"
      },
      {
        "astId": 10,
        "contract": "contracts/SolidWorldManager.sol:SolidWorldManager",
        "label": "_owner",
        "offset": 0,
        "slot": "51",
        "type": "t_address"
      },
      {
        "astId": 130,
        "contract": "contracts/SolidWorldManager.sol:SolidWorldManager",
        "label": "__gap",
        "offset": 0,
        "slot": "52",
        "type": "t_array(t_uint256)49_storage"
      },
      {
        "astId": 296,
        "contract": "contracts/SolidWorldManager.sol:SolidWorldManager",
        "label": "_status",
        "offset": 0,
        "slot": "101",
        "type": "t_uint256"
      },
      {
        "astId": 340,
        "contract": "contracts/SolidWorldManager.sol:SolidWorldManager",
        "label": "__gap",
        "offset": 0,
        "slot": "102",
        "type": "t_array(t_uint256)49_storage"
      },
      {
        "astId": 6891,
        "contract": "contracts/SolidWorldManager.sol:SolidWorldManager",
        "label": "categoryIds",
        "offset": 0,
        "slot": "151",
        "type": "t_mapping(t_uint256,t_bool)"
      },
      {
        "astId": 6897,
        "contract": "contracts/SolidWorldManager.sol:SolidWorldManager",
        "label": "categories",
        "offset": 0,
        "slot": "152",
        "type": "t_mapping(t_uint256,t_struct(Category)11446_storage)"
      },
      {
        "astId": 6902,
        "contract": "contracts/SolidWorldManager.sol:SolidWorldManager",
        "label": "projectIds",
        "offset": 0,
        "slot": "153",
        "type": "t_mapping(t_uint256,t_bool)"
      },
      {
        "astId": 6907,
        "contract": "contracts/SolidWorldManager.sol:SolidWorldManager",
        "label": "batchCreated",
        "offset": 0,
        "slot": "154",
        "type": "t_mapping(t_uint256,t_bool)"
      },
      {
        "astId": 6911,
        "contract": "contracts/SolidWorldManager.sol:SolidWorldManager",
        "label": "batchIds",
        "offset": 0,
        "slot": "155",
        "type": "t_array(t_uint256)dyn_storage"
      },
      {
        "astId": 6917,
        "contract": "contracts/SolidWorldManager.sol:SolidWorldManager",
        "label": "batches",
        "offset": 0,
        "slot": "156",
        "type": "t_mapping(t_uint256,t_struct(Batch)11431_storage)"
      },
      {
        "astId": 6923,
        "contract": "contracts/SolidWorldManager.sol:SolidWorldManager",
        "label": "categoryToken",
        "offset": 0,
        "slot": "157",
        "type": "t_mapping(t_uint256,t_contract(CollateralizedBasketToken)6341)"
      },
      {
        "astId": 6929,
        "contract": "contracts/SolidWorldManager.sol:SolidWorldManager",
        "label": "categoryProjects",
        "offset": 0,
        "slot": "158",
        "type": "t_mapping(t_uint256,t_array(t_uint256)dyn_storage)"
      },
      {
        "astId": 6934,
        "contract": "contracts/SolidWorldManager.sol:SolidWorldManager",
        "label": "projectCategory",
        "offset": 0,
        "slot": "159",
        "type": "t_mapping(t_uint256,t_uint256)"
      },
      {
        "astId": 6940,
        "contract": "contracts/SolidWorldManager.sol:SolidWorldManager",
        "label": "projectBatches",
        "offset": 0,
        "slot": "160",
        "type": "t_mapping(t_uint256,t_array(t_uint256)dyn_storage)"
      },
      {
        "astId": 6944,
        "contract": "contracts/SolidWorldManager.sol:SolidWorldManager",
        "label": "forwardContractBatch",
        "offset": 0,
        "slot": "161",
        "type": "t_contract(ForwardContractBatchToken)6432"
      },
      {
        "astId": 6947,
        "contract": "contracts/SolidWorldManager.sol:SolidWorldManager",
        "label": "feeReceiver",
        "offset": 0,
        "slot": "162",
        "type": "t_address"
      },
      {
        "astId": 6950,
        "contract": "contracts/SolidWorldManager.sol:SolidWorldManager",
        "label": "weeklyRewardsMinter",
        "offset": 0,
        "slot": "163",
        "type": "t_address"
      },
      {
        "astId": 6954,
        "contract": "contracts/SolidWorldManager.sol:SolidWorldManager",
        "label": "collateralizedBasketTokenDeployer",
        "offset": 0,
        "slot": "164",
        "type": "t_contract(CollateralizedBasketTokenDeployer)6372"
      },
      {
        "astId": 6957,
        "contract": "contracts/SolidWorldManager.sol:SolidWorldManager",
        "label": "collateralizationFee",
        "offset": 20,
        "slot": "164",
        "type": "t_uint16"
      },
      {
        "astId": 6960,
        "contract": "contracts/SolidWorldManager.sol:SolidWorldManager",
        "label": "decollateralizationFee",
        "offset": 22,
        "slot": "164",
        "type": "t_uint16"
      }
    ],
    "types": {
      "t_address": {
        "encoding": "inplace",
        "label": "address",
        "numberOfBytes": "20"
      },
      "t_array(t_uint256)49_storage": {
        "base": "t_uint256",
        "encoding": "inplace",
        "label": "uint256[49]",
        "numberOfBytes": "1568"
      },
      "t_array(t_uint256)50_storage": {
        "base": "t_uint256",
        "encoding": "inplace",
        "label": "uint256[50]",
        "numberOfBytes": "1600"
      },
      "t_array(t_uint256)dyn_storage": {
        "base": "t_uint256",
        "encoding": "dynamic_array",
        "label": "uint256[]",
        "numberOfBytes": "32"
      },
      "t_bool": {
        "encoding": "inplace",
        "label": "bool",
        "numberOfBytes": "1"
      },
      "t_contract(CollateralizedBasketToken)6341": {
        "encoding": "inplace",
        "label": "contract CollateralizedBasketToken",
        "numberOfBytes": "20"
      },
      "t_contract(CollateralizedBasketTokenDeployer)6372": {
        "encoding": "inplace",
        "label": "contract CollateralizedBasketTokenDeployer",
        "numberOfBytes": "20"
      },
      "t_contract(ForwardContractBatchToken)6432": {
        "encoding": "inplace",
        "label": "contract ForwardContractBatchToken",
        "numberOfBytes": "20"
      },
      "t_mapping(t_uint256,t_array(t_uint256)dyn_storage)": {
        "encoding": "mapping",
        "key": "t_uint256",
        "label": "mapping(uint256 => uint256[])",
        "numberOfBytes": "32",
        "value": "t_array(t_uint256)dyn_storage"
      },
      "t_mapping(t_uint256,t_bool)": {
        "encoding": "mapping",
        "key": "t_uint256",
        "label": "mapping(uint256 => bool)",
        "numberOfBytes": "32",
        "value": "t_bool"
      },
      "t_mapping(t_uint256,t_contract(CollateralizedBasketToken)6341)": {
        "encoding": "mapping",
        "key": "t_uint256",
        "label": "mapping(uint256 => contract CollateralizedBasketToken)",
        "numberOfBytes": "32",
        "value": "t_contract(CollateralizedBasketToken)6341"
      },
      "t_mapping(t_uint256,t_struct(Batch)11431_storage)": {
        "encoding": "mapping",
        "key": "t_uint256",
        "label": "mapping(uint256 => struct DomainDataTypes.Batch)",
        "numberOfBytes": "32",
        "value": "t_struct(Batch)11431_storage"
      },
      "t_mapping(t_uint256,t_struct(Category)11446_storage)": {
        "encoding": "mapping",
        "key": "t_uint256",
        "label": "mapping(uint256 => struct DomainDataTypes.Category)",
        "numberOfBytes": "32",
        "value": "t_struct(Category)11446_storage"
      },
      "t_mapping(t_uint256,t_uint256)": {
        "encoding": "mapping",
        "key": "t_uint256",
        "label": "mapping(uint256 => uint256)",
        "numberOfBytes": "32",
        "value": "t_uint256"
      },
      "t_struct(Batch)11431_storage": {
        "encoding": "inplace",
        "label": "struct DomainDataTypes.Batch",
        "members": [
          {
            "astId": 11416,
            "contract": "contracts/SolidWorldManager.sol:SolidWorldManager",
            "label": "id",
            "offset": 0,
            "slot": "0",
            "type": "t_uint256"
          },
          {
            "astId": 11418,
            "contract": "contracts/SolidWorldManager.sol:SolidWorldManager",
            "label": "projectId",
            "offset": 0,
            "slot": "1",
            "type": "t_uint256"
          },
          {
            "astId": 11420,
            "contract": "contracts/SolidWorldManager.sol:SolidWorldManager",
            "label": "totalAmount",
            "offset": 0,
            "slot": "2",
            "type": "t_uint256"
          },
          {
            "astId": 11422,
            "contract": "contracts/SolidWorldManager.sol:SolidWorldManager",
            "label": "owner",
            "offset": 0,
            "slot": "3",
            "type": "t_address"
          },
          {
            "astId": 11424,
            "contract": "contracts/SolidWorldManager.sol:SolidWorldManager",
            "label": "expectedDueDate",
            "offset": 20,
            "slot": "3",
            "type": "t_uint32"
          },
          {
            "astId": 11426,
            "contract": "contracts/SolidWorldManager.sol:SolidWorldManager",
            "label": "vintage",
            "offset": 24,
            "slot": "3",
            "type": "t_uint16"
          },
          {
            "astId": 11428,
            "contract": "contracts/SolidWorldManager.sol:SolidWorldManager",
            "label": "status",
            "offset": 26,
            "slot": "3",
            "type": "t_uint8"
          },
          {
            "astId": 11430,
            "contract": "contracts/SolidWorldManager.sol:SolidWorldManager",
            "label": "discountRate",
            "offset": 27,
            "slot": "3",
            "type": "t_uint24"
          }
        ],
        "numberOfBytes": "128"
      },
      "t_struct(Category)11446_storage": {
        "encoding": "inplace",
        "label": "struct DomainDataTypes.Category",
        "members": [
          {
            "astId": 11433,
            "contract": "contracts/SolidWorldManager.sol:SolidWorldManager",
            "label": "volumeCoefficient",
            "offset": 0,
            "slot": "0",
            "type": "t_uint256"
          },
          {
            "astId": 11435,
            "contract": "contracts/SolidWorldManager.sol:SolidWorldManager",
            "label": "decayPerSecond",
            "offset": 0,
            "slot": "1",
            "type": "t_uint40"
          },
          {
            "astId": 11437,
            "contract": "contracts/SolidWorldManager.sol:SolidWorldManager",
            "label": "maxDepreciation",
            "offset": 5,
            "slot": "1",
            "type": "t_uint24"
          },
          {
            "astId": 11439,
            "contract": "contracts/SolidWorldManager.sol:SolidWorldManager",
            "label": "averageTA",
            "offset": 8,
            "slot": "1",
            "type": "t_uint24"
          },
          {
            "astId": 11441,
            "contract": "contracts/SolidWorldManager.sol:SolidWorldManager",
            "label": "totalCollateralized",
            "offset": 0,
            "slot": "2",
            "type": "t_uint256"
          },
          {
            "astId": 11443,
            "contract": "contracts/SolidWorldManager.sol:SolidWorldManager",
            "label": "lastCollateralizationTimestamp",
            "offset": 0,
            "slot": "3",
            "type": "t_uint32"
          },
          {
            "astId": 11445,
            "contract": "contracts/SolidWorldManager.sol:SolidWorldManager",
            "label": "lastCollateralizationMomentum",
            "offset": 0,
            "slot": "4",
            "type": "t_uint256"
          }
        ],
        "numberOfBytes": "160"
      },
      "t_uint16": {
        "encoding": "inplace",
        "label": "uint16",
        "numberOfBytes": "2"
      },
      "t_uint24": {
        "encoding": "inplace",
        "label": "uint24",
        "numberOfBytes": "3"
      },
      "t_uint256": {
        "encoding": "inplace",
        "label": "uint256",
        "numberOfBytes": "32"
      },
      "t_uint32": {
        "encoding": "inplace",
        "label": "uint32",
        "numberOfBytes": "4"
      },
      "t_uint40": {
        "encoding": "inplace",
        "label": "uint40",
        "numberOfBytes": "5"
      },
      "t_uint8": {
        "encoding": "inplace",
        "label": "uint8",
        "numberOfBytes": "1"
      }
    }
  }
}