{
  "address": "0x15e1c72A8661842D7509EbBFA0Dbb5Eb7338B7a5",
  "abi": [
    {
      "inputs": [
        {
          "internalType": "uint256",
          "name": "amountOut",
          "type": "uint256"
        },
        {
          "internalType": "uint256",
          "name": "minAmountOut",
          "type": "uint256"
        }
      ],
      "name": "AmountOutLessThanMinimum",
      "type": "error"
    },
    {
      "inputs": [
        {
          "internalType": "uint256",
          "name": "amountOut",
          "type": "uint256"
        }
      ],
      "name": "AmountOutTooLow",
      "type": "error"
    },
    {
      "inputs": [
        {
          "internalType": "uint256",
          "name": "batchId",
          "type": "uint256"
        }
      ],
      "name": "BatchAlreadyExists",
      "type": "error"
    },
    {
      "inputs": [
        {
          "internalType": "uint32",
          "name": "dueDate",
          "type": "uint32"
        }
      ],
      "name": "BatchCertificationDateInThePast",
      "type": "error"
    },
    {
      "inputs": [
        {
          "internalType": "uint256",
          "name": "batchId",
          "type": "uint256"
        }
      ],
      "name": "BatchCertified",
      "type": "error"
    },
    {
      "inputs": [
        {
          "internalType": "uint256",
          "name": "batchId1",
          "type": "uint256"
        },
        {
          "internalType": "uint256",
          "name": "batchId2",
          "type": "uint256"
        }
      ],
      "name": "BatchesNotInSameCategory",
      "type": "error"
    },
    {
      "inputs": [
        {
          "internalType": "uint256",
          "name": "categoryId",
          "type": "uint256"
        }
      ],
      "name": "CategoryAlreadyExists",
      "type": "error"
    },
    {
      "inputs": [
        {
          "internalType": "uint256",
          "name": "forwardCreditsAmount",
          "type": "uint256"
        }
      ],
      "name": "ForwardCreditsInputAmountTooLarge",
      "type": "error"
    },
    {
      "inputs": [
        {
          "internalType": "uint256",
          "name": "startDate",
          "type": "uint256"
        },
        {
          "internalType": "uint256",
          "name": "endDate",
          "type": "uint256"
        }
      ],
      "name": "IncorrectDates",
      "type": "error"
    },
    {
      "inputs": [
        {
          "internalType": "uint256",
          "name": "batchId",
          "type": "uint256"
        }
      ],
      "name": "InvalidBatchId",
      "type": "error"
    },
    {
      "inputs": [],
      "name": "InvalidBatchSupplier",
      "type": "error"
    },
    {
      "inputs": [
        {
          "internalType": "uint256",
          "name": "categoryId",
          "type": "uint256"
        }
      ],
      "name": "InvalidCategoryId",
      "type": "error"
    },
    {
      "inputs": [],
      "name": "InvalidInput",
      "type": "error"
    },
    {
      "inputs": [
        {
          "internalType": "uint256",
          "name": "projectId",
          "type": "uint256"
        }
      ],
      "name": "InvalidProjectId",
      "type": "error"
    },
    {
      "inputs": [
        {
          "internalType": "uint256",
          "name": "projectId",
          "type": "uint256"
        }
      ],
      "name": "ProjectAlreadyExists",
      "type": "error"
    },
    {
      "anonymous": false,
      "inputs": [
        {
          "indexed": true,
          "internalType": "uint256",
          "name": "batchId",
          "type": "uint256"
        },
        {
          "indexed": false,
          "internalType": "uint256",
          "name": "amountIn",
          "type": "uint256"
        },
        {
          "indexed": false,
          "internalType": "uint256",
          "name": "amountOut",
          "type": "uint256"
        },
        {
          "indexed": true,
          "internalType": "address",
          "name": "batchSupplier",
          "type": "address"
        }
      ],
      "name": "BatchCollateralized",
      "type": "event"
    },
    {
      "anonymous": false,
      "inputs": [
        {
          "indexed": true,
          "internalType": "uint256",
          "name": "batchId",
          "type": "uint256"
        }
      ],
      "name": "BatchCreated",
      "type": "event"
    },
    {
      "anonymous": false,
      "inputs": [
        {
          "indexed": true,
          "internalType": "uint256",
          "name": "categoryId",
          "type": "uint256"
        }
      ],
      "name": "CategoryCreated",
      "type": "event"
    },
    {
      "anonymous": false,
      "inputs": [
        {
          "indexed": true,
          "internalType": "uint256",
          "name": "categoryId",
          "type": "uint256"
        },
        {
          "indexed": true,
          "internalType": "uint256",
          "name": "averageTA",
          "type": "uint256"
        },
        {
          "indexed": true,
          "internalType": "uint256",
          "name": "totalCollateralized",
          "type": "uint256"
        }
      ],
      "name": "CategoryRebalanced",
      "type": "event"
    },
    {
      "anonymous": false,
      "inputs": [
        {
          "indexed": true,
          "internalType": "uint256",
          "name": "categoryId",
          "type": "uint256"
        },
        {
          "indexed": true,
          "internalType": "uint256",
          "name": "volumeCoefficient",
          "type": "uint256"
        },
        {
          "indexed": true,
          "internalType": "uint256",
          "name": "decayPerSecond",
          "type": "uint256"
        },
        {
          "indexed": false,
          "internalType": "uint256",
          "name": "maxDepreciation",
          "type": "uint256"
        }
      ],
      "name": "CategoryUpdated",
      "type": "event"
    },
    {
      "anonymous": false,
      "inputs": [
        {
          "indexed": true,
          "internalType": "uint256",
          "name": "collateralizationFee",
          "type": "uint256"
        }
      ],
      "name": "CollateralizationFeeUpdated",
      "type": "event"
    },
    {
      "anonymous": false,
      "inputs": [
        {
          "indexed": true,
          "internalType": "uint256",
          "name": "decollateralizationFee",
          "type": "uint256"
        }
      ],
      "name": "DecollateralizationFeeUpdated",
      "type": "event"
    },
    {
      "anonymous": false,
      "inputs": [
        {
          "indexed": true,
          "internalType": "address",
          "name": "feeReceiver",
          "type": "address"
        }
      ],
      "name": "FeeReceiverUpdated",
      "type": "event"
    },
    {
      "anonymous": false,
      "inputs": [
        {
          "indexed": false,
          "internalType": "uint8",
          "name": "version",
          "type": "uint8"
        }
      ],
      "name": "Initialized",
      "type": "event"
    },
    {
      "anonymous": false,
      "inputs": [
        {
          "indexed": true,
          "internalType": "address",
          "name": "previousOwner",
          "type": "address"
        },
        {
          "indexed": true,
          "internalType": "address",
          "name": "newOwner",
          "type": "address"
        }
      ],
      "name": "OwnershipTransferred",
      "type": "event"
    },
    {
      "anonymous": false,
      "inputs": [
        {
          "indexed": true,
          "internalType": "uint256",
          "name": "projectId",
          "type": "uint256"
        }
      ],
      "name": "ProjectCreated",
      "type": "event"
    },
    {
      "anonymous": false,
      "inputs": [
        {
          "indexed": true,
          "internalType": "uint256",
          "name": "batchId",
          "type": "uint256"
        },
        {
          "indexed": false,
          "internalType": "uint256",
          "name": "amountIn",
          "type": "uint256"
        },
        {
          "indexed": false,
          "internalType": "uint256",
          "name": "amountOut",
          "type": "uint256"
        },
        {
          "indexed": true,
          "internalType": "address",
          "name": "tokensOwner",
          "type": "address"
        }
      ],
      "name": "TokensDecollateralized",
      "type": "event"
    },
    {
      "inputs": [],
      "name": "DECOLLATERALIZATION_SIMULATION_INPUT",
      "outputs": [
        {
          "internalType": "uint256",
          "name": "",
          "type": "uint256"
        }
      ],
      "stateMutability": "view",
      "type": "function"
    },
    {
      "inputs": [
        {
          "components": [
            {
              "internalType": "uint256",
              "name": "id",
              "type": "uint256"
            },
            {
              "internalType": "uint256",
              "name": "projectId",
              "type": "uint256"
            },
            {
              "internalType": "address",
              "name": "supplier",
              "type": "address"
            },
            {
              "internalType": "uint32",
              "name": "certificationDate",
              "type": "uint32"
            },
            {
              "internalType": "uint16",
              "name": "vintage",
              "type": "uint16"
            },
            {
              "internalType": "uint8",
              "name": "status",
              "type": "uint8"
            },
            {
              "internalType": "uint24",
              "name": "batchTA",
              "type": "uint24"
            }
          ],
          "internalType": "struct DomainDataTypes.Batch",
          "name": "batch",
          "type": "tuple"
        },
        {
          "internalType": "uint256",
          "name": "mintableAmount",
          "type": "uint256"
        }
      ],
      "name": "addBatch",
      "outputs": [],
      "stateMutability": "nonpayable",
      "type": "function"
    },
    {
      "inputs": [
        {
          "internalType": "uint256",
          "name": "categoryId",
          "type": "uint256"
        },
        {
          "internalType": "string",
          "name": "tokenName",
          "type": "string"
        },
        {
          "internalType": "string",
          "name": "tokenSymbol",
          "type": "string"
        },
        {
          "internalType": "uint24",
          "name": "initialTA",
          "type": "uint24"
        }
      ],
      "name": "addCategory",
      "outputs": [],
      "stateMutability": "nonpayable",
      "type": "function"
    },
    {
      "inputs": [
        {
          "internalType": "uint256",
          "name": "categoryId",
          "type": "uint256"
        },
        {
          "internalType": "uint256",
          "name": "projectId",
          "type": "uint256"
        }
      ],
      "name": "addProject",
      "outputs": [],
      "stateMutability": "nonpayable",
      "type": "function"
    },
    {
      "inputs": [
        {
          "internalType": "uint256[]",
          "name": "_batchIds",
          "type": "uint256[]"
        },
        {
          "internalType": "uint256[]",
          "name": "amountsIn",
          "type": "uint256[]"
        },
        {
          "internalType": "uint256[]",
          "name": "amountsOutMin",
          "type": "uint256[]"
        }
      ],
      "name": "bulkDecollateralizeTokens",
      "outputs": [],
      "stateMutability": "nonpayable",
      "type": "function"
    },
    {
      "inputs": [
        {
          "internalType": "uint256",
          "name": "batchId",
          "type": "uint256"
        },
        {
          "internalType": "uint256",
          "name": "amountIn",
          "type": "uint256"
        },
        {
          "internalType": "uint256",
          "name": "amountOutMin",
          "type": "uint256"
        }
      ],
      "name": "collateralizeBatch",
      "outputs": [],
      "stateMutability": "nonpayable",
      "type": "function"
    },
    {
      "inputs": [],
      "name": "collateralizedBasketTokenDeployer",
      "outputs": [
        {
          "internalType": "contract CollateralizedBasketTokenDeployer",
          "name": "",
          "type": "address"
        }
      ],
      "stateMutability": "view",
      "type": "function"
    },
    {
      "inputs": [
        {
          "internalType": "uint256[]",
          "name": "_categoryIds",
          "type": "uint256[]"
        }
      ],
      "name": "computeWeeklyCarbonRewards",
      "outputs": [
        {
          "internalType": "address[]",
          "name": "carbonRewards",
          "type": "address[]"
        },
        {
          "internalType": "uint256[]",
          "name": "rewardAmounts",
          "type": "uint256[]"
        },
        {
          "internalType": "uint256[]",
          "name": "rewardFees",
          "type": "uint256[]"
        }
      ],
      "stateMutability": "view",
      "type": "function"
    },
    {
      "inputs": [
        {
          "internalType": "uint256",
          "name": "batchId",
          "type": "uint256"
        },
        {
          "internalType": "uint256",
          "name": "amountIn",
          "type": "uint256"
        },
        {
          "internalType": "uint256",
          "name": "amountOutMin",
          "type": "uint256"
        }
      ],
      "name": "decollateralizeTokens",
      "outputs": [],
      "stateMutability": "nonpayable",
      "type": "function"
    },
    {
      "inputs": [],
      "name": "forwardContractBatch",
      "outputs": [
        {
          "internalType": "contract ForwardContractBatchToken",
          "name": "",
          "type": "address"
        }
      ],
      "stateMutability": "view",
      "type": "function"
    },
    {
      "inputs": [
        {
          "internalType": "uint256",
          "name": "batchId",
          "type": "uint256"
        }
      ],
      "name": "getBatch",
      "outputs": [
        {
          "components": [
            {
              "internalType": "uint256",
              "name": "id",
              "type": "uint256"
            },
            {
              "internalType": "uint256",
              "name": "projectId",
              "type": "uint256"
            },
            {
              "internalType": "address",
              "name": "supplier",
              "type": "address"
            },
            {
              "internalType": "uint32",
              "name": "certificationDate",
              "type": "uint32"
            },
            {
              "internalType": "uint16",
              "name": "vintage",
              "type": "uint16"
            },
            {
              "internalType": "uint8",
              "name": "status",
              "type": "uint8"
            },
            {
              "internalType": "uint24",
              "name": "batchTA",
              "type": "uint24"
            }
          ],
          "internalType": "struct DomainDataTypes.Batch",
          "name": "",
          "type": "tuple"
        }
      ],
      "stateMutability": "view",
      "type": "function"
    },
    {
      "inputs": [
        {
          "internalType": "uint256",
          "name": "batchId",
          "type": "uint256"
        }
      ],
      "name": "getBatchCategory",
      "outputs": [
        {
          "internalType": "uint256",
          "name": "",
          "type": "uint256"
        }
      ],
      "stateMutability": "view",
      "type": "function"
    },
    {
      "inputs": [
        {
          "internalType": "uint256",
          "name": "index",
          "type": "uint256"
        }
      ],
      "name": "getBatchId",
      "outputs": [
        {
          "internalType": "uint256",
          "name": "",
          "type": "uint256"
        }
      ],
      "stateMutability": "view",
      "type": "function"
    },
    {
      "inputs": [
        {
          "internalType": "uint256",
          "name": "projectId",
          "type": "uint256"
        }
      ],
      "name": "getBatchIdsByProject",
      "outputs": [
        {
          "internalType": "uint256[]",
          "name": "",
          "type": "uint256[]"
        }
      ],
      "stateMutability": "view",
      "type": "function"
    },
    {
      "inputs": [
        {
          "internalType": "uint256",
          "name": "projectId",
          "type": "uint256"
        },
        {
          "internalType": "uint256",
          "name": "vintage",
          "type": "uint256"
        }
      ],
      "name": "getBatchesDecollateralizationInfo",
      "outputs": [
        {
          "components": [
            {
              "internalType": "uint256",
              "name": "batchId",
              "type": "uint256"
            },
            {
              "internalType": "uint256",
              "name": "availableBatchTokens",
              "type": "uint256"
            },
            {
              "internalType": "uint256",
              "name": "amountOut",
              "type": "uint256"
            },
            {
              "internalType": "uint256",
              "name": "minAmountIn",
              "type": "uint256"
            },
            {
              "internalType": "uint256",
              "name": "minCbtDaoCut",
              "type": "uint256"
            }
          ],
          "internalType": "struct DomainDataTypes.TokenDecollateralizationInfo[]",
          "name": "result",
          "type": "tuple[]"
        }
      ],
      "stateMutability": "view",
      "type": "function"
    },
    {
      "inputs": [
        {
          "internalType": "uint256",
          "name": "categoryId",
          "type": "uint256"
        }
      ],
      "name": "getCategory",
      "outputs": [
        {
          "components": [
            {
              "internalType": "uint256",
              "name": "volumeCoefficient",
              "type": "uint256"
            },
            {
              "internalType": "uint40",
              "name": "decayPerSecond",
              "type": "uint40"
            },
            {
              "internalType": "uint16",
              "name": "maxDepreciationPerYear",
              "type": "uint16"
            },
            {
              "internalType": "uint24",
              "name": "maxDepreciation",
              "type": "uint24"
            },
            {
              "internalType": "uint24",
              "name": "averageTA",
              "type": "uint24"
            },
            {
              "internalType": "uint256",
              "name": "totalCollateralized",
              "type": "uint256"
            },
            {
              "internalType": "uint32",
              "name": "lastCollateralizationTimestamp",
              "type": "uint32"
            },
            {
              "internalType": "uint256",
              "name": "lastCollateralizationMomentum",
              "type": "uint256"
            }
          ],
          "internalType": "struct DomainDataTypes.Category",
          "name": "",
          "type": "tuple"
        }
      ],
      "stateMutability": "view",
      "type": "function"
    },
    {
      "inputs": [
        {
          "internalType": "uint256",
          "name": "categoryId",
          "type": "uint256"
        }
      ],
      "name": "getCategoryProjects",
      "outputs": [
        {
          "internalType": "uint256[]",
          "name": "",
          "type": "uint256[]"
        }
      ],
      "stateMutability": "view",
      "type": "function"
    },
    {
      "inputs": [
        {
          "internalType": "uint256",
          "name": "categoryId",
          "type": "uint256"
        }
      ],
      "name": "getCategoryToken",
      "outputs": [
        {
          "internalType": "contract CollateralizedBasketToken",
          "name": "",
          "type": "address"
        }
      ],
      "stateMutability": "view",
      "type": "function"
    },
    {
      "inputs": [],
      "name": "getCollateralizationFee",
      "outputs": [
        {
          "internalType": "uint16",
          "name": "",
          "type": "uint16"
        }
      ],
      "stateMutability": "view",
      "type": "function"
    },
    {
      "inputs": [],
      "name": "getDecollateralizationFee",
      "outputs": [
        {
          "internalType": "uint16",
          "name": "",
          "type": "uint16"
        }
      ],
      "stateMutability": "view",
      "type": "function"
    },
    {
      "inputs": [],
      "name": "getFeeReceiver",
      "outputs": [
        {
          "internalType": "address",
          "name": "",
          "type": "address"
        }
      ],
      "stateMutability": "view",
      "type": "function"
    },
    {
      "inputs": [
        {
          "internalType": "uint256",
          "name": "projectId",
          "type": "uint256"
        }
      ],
      "name": "getProjectBatches",
      "outputs": [
        {
          "internalType": "uint256[]",
          "name": "",
          "type": "uint256[]"
        }
      ],
      "stateMutability": "view",
      "type": "function"
    },
    {
      "inputs": [
        {
          "internalType": "uint256",
          "name": "projectId",
          "type": "uint256"
        }
      ],
      "name": "getProjectCategory",
      "outputs": [
        {
          "internalType": "uint256",
          "name": "",
          "type": "uint256"
        }
      ],
      "stateMutability": "view",
      "type": "function"
    },
    {
      "inputs": [
        {
          "internalType": "uint256",
          "name": "categoryId",
          "type": "uint256"
        }
      ],
      "name": "getProjectIdsByCategory",
      "outputs": [
        {
          "internalType": "uint256[]",
          "name": "",
          "type": "uint256[]"
        }
      ],
      "stateMutability": "view",
      "type": "function"
    },
    {
      "inputs": [],
      "name": "getRewardsFee",
      "outputs": [
        {
          "internalType": "uint16",
          "name": "",
          "type": "uint16"
        }
      ],
      "stateMutability": "view",
      "type": "function"
    },
    {
      "inputs": [],
      "name": "getWeeklyRewardsMinter",
      "outputs": [
        {
          "internalType": "address",
          "name": "",
          "type": "address"
        }
      ],
      "stateMutability": "view",
      "type": "function"
    },
    {
      "inputs": [
        {
          "internalType": "contract CollateralizedBasketTokenDeployer",
          "name": "collateralizedBasketTokenDeployer",
          "type": "address"
        },
        {
          "internalType": "contract ForwardContractBatchToken",
          "name": "forwardContractBatch",
          "type": "address"
        },
        {
          "internalType": "uint16",
          "name": "_collateralizationFee",
          "type": "uint16"
        },
        {
          "internalType": "uint16",
          "name": "_decollateralizationFee",
          "type": "uint16"
        },
        {
          "internalType": "uint16",
          "name": "_rewardsFee",
          "type": "uint16"
        },
        {
          "internalType": "address",
          "name": "_feeReceiver",
          "type": "address"
        },
        {
          "internalType": "address",
          "name": "_weeklyRewardsMinter",
          "type": "address"
        }
      ],
      "name": "initialize",
      "outputs": [],
      "stateMutability": "nonpayable",
      "type": "function"
    },
    {
      "inputs": [
        {
          "internalType": "uint256",
          "name": "batchId",
          "type": "uint256"
        }
      ],
      "name": "isBatchCreated",
      "outputs": [
        {
          "internalType": "bool",
          "name": "",
          "type": "bool"
        }
      ],
      "stateMutability": "view",
      "type": "function"
    },
    {
      "inputs": [
        {
          "internalType": "uint256",
          "name": "categoryId",
          "type": "uint256"
        }
      ],
      "name": "isCategoryCreated",
      "outputs": [
        {
          "internalType": "bool",
          "name": "",
          "type": "bool"
        }
      ],
      "stateMutability": "view",
      "type": "function"
    },
    {
      "inputs": [
        {
          "internalType": "uint256",
          "name": "projectId",
          "type": "uint256"
        }
      ],
      "name": "isProjectCreated",
      "outputs": [
        {
          "internalType": "bool",
          "name": "",
          "type": "bool"
        }
      ],
      "stateMutability": "view",
      "type": "function"
    },
    {
      "inputs": [
        {
          "internalType": "uint256[]",
          "name": "_categoryIds",
          "type": "uint256[]"
        },
        {
          "internalType": "address[]",
          "name": "carbonRewards",
          "type": "address[]"
        },
        {
          "internalType": "uint256[]",
          "name": "rewardAmounts",
          "type": "uint256[]"
        },
        {
          "internalType": "uint256[]",
          "name": "rewardFees",
          "type": "uint256[]"
        },
        {
          "internalType": "address",
          "name": "rewardsVault",
          "type": "address"
        }
      ],
      "name": "mintWeeklyCarbonRewards",
      "outputs": [],
      "stateMutability": "nonpayable",
      "type": "function"
    },
    {
      "inputs": [
        {
          "internalType": "address",
          "name": "",
          "type": "address"
        },
        {
          "internalType": "address",
          "name": "",
          "type": "address"
        },
        {
          "internalType": "uint256[]",
          "name": "",
          "type": "uint256[]"
        },
        {
          "internalType": "uint256[]",
          "name": "",
          "type": "uint256[]"
        },
        {
          "internalType": "bytes",
          "name": "",
          "type": "bytes"
        }
      ],
      "name": "onERC1155BatchReceived",
      "outputs": [
        {
          "internalType": "bytes4",
          "name": "",
          "type": "bytes4"
        }
      ],
      "stateMutability": "nonpayable",
      "type": "function"
    },
    {
      "inputs": [
        {
          "internalType": "address",
          "name": "",
          "type": "address"
        },
        {
          "internalType": "address",
          "name": "",
          "type": "address"
        },
        {
          "internalType": "uint256",
          "name": "",
          "type": "uint256"
        },
        {
          "internalType": "uint256",
          "name": "",
          "type": "uint256"
        },
        {
          "internalType": "bytes",
          "name": "",
          "type": "bytes"
        }
      ],
      "name": "onERC1155Received",
      "outputs": [
        {
          "internalType": "bytes4",
          "name": "",
          "type": "bytes4"
        }
      ],
      "stateMutability": "nonpayable",
      "type": "function"
    },
    {
      "inputs": [],
      "name": "owner",
      "outputs": [
        {
          "internalType": "address",
          "name": "",
          "type": "address"
        }
      ],
      "stateMutability": "view",
      "type": "function"
    },
    {
      "inputs": [],
      "name": "renounceOwnership",
      "outputs": [],
      "stateMutability": "nonpayable",
      "type": "function"
    },
    {
      "inputs": [
        {
          "internalType": "uint16",
          "name": "_collateralizationFee",
          "type": "uint16"
        }
      ],
      "name": "setCollateralizationFee",
      "outputs": [],
      "stateMutability": "nonpayable",
      "type": "function"
    },
    {
      "inputs": [
        {
          "internalType": "uint16",
          "name": "_decollateralizationFee",
          "type": "uint16"
        }
      ],
      "name": "setDecollateralizationFee",
      "outputs": [],
      "stateMutability": "nonpayable",
      "type": "function"
    },
    {
      "inputs": [
        {
          "internalType": "address",
          "name": "_feeReceiver",
          "type": "address"
        }
      ],
      "name": "setFeeReceiver",
      "outputs": [],
      "stateMutability": "nonpayable",
      "type": "function"
    },
    {
      "inputs": [
        {
          "internalType": "uint16",
          "name": "_rewardsFee",
          "type": "uint16"
        }
      ],
      "name": "setRewardsFee",
      "outputs": [],
      "stateMutability": "nonpayable",
      "type": "function"
    },
    {
      "inputs": [
        {
          "internalType": "address",
          "name": "_weeklyRewardsMinter",
          "type": "address"
        }
      ],
      "name": "setWeeklyRewardsMinter",
      "outputs": [],
      "stateMutability": "nonpayable",
      "type": "function"
    },
    {
      "inputs": [
        {
          "internalType": "uint256",
          "name": "batchId",
          "type": "uint256"
        },
        {
          "internalType": "uint256",
          "name": "amountIn",
          "type": "uint256"
        }
      ],
      "name": "simulateBatchCollateralization",
      "outputs": [
        {
          "internalType": "uint256",
          "name": "cbtUserCut",
          "type": "uint256"
        },
        {
          "internalType": "uint256",
          "name": "cbtDaoCut",
          "type": "uint256"
        },
        {
          "internalType": "uint256",
          "name": "cbtForfeited",
          "type": "uint256"
        }
      ],
      "stateMutability": "view",
      "type": "function"
    },
    {
      "inputs": [
        {
          "internalType": "uint256",
          "name": "batchId",
          "type": "uint256"
        },
        {
          "internalType": "uint256",
          "name": "amountIn",
          "type": "uint256"
        }
      ],
      "name": "simulateDecollateralization",
      "outputs": [
        {
          "internalType": "uint256",
          "name": "amountOut",
          "type": "uint256"
        },
        {
          "internalType": "uint256",
          "name": "minAmountIn",
          "type": "uint256"
        },
        {
          "internalType": "uint256",
          "name": "minCbtDaoCut",
          "type": "uint256"
        }
      ],
      "stateMutability": "view",
      "type": "function"
    },
    {
      "inputs": [
        {
          "internalType": "bytes4",
          "name": "interfaceId",
          "type": "bytes4"
        }
      ],
      "name": "supportsInterface",
      "outputs": [
        {
          "internalType": "bool",
          "name": "",
          "type": "bool"
        }
      ],
      "stateMutability": "pure",
      "type": "function"
    },
    {
      "inputs": [
        {
          "internalType": "address",
          "name": "newOwner",
          "type": "address"
        }
      ],
      "name": "transferOwnership",
      "outputs": [],
      "stateMutability": "nonpayable",
      "type": "function"
    },
    {
      "inputs": [
        {
          "internalType": "uint256",
          "name": "categoryId",
          "type": "uint256"
        },
        {
          "internalType": "uint256",
          "name": "volumeCoefficient",
          "type": "uint256"
        },
        {
          "internalType": "uint40",
          "name": "decayPerSecond",
          "type": "uint40"
        },
        {
          "internalType": "uint16",
          "name": "maxDepreciationPerYear",
          "type": "uint16"
        },
        {
          "internalType": "uint24",
          "name": "maxDepreciation",
          "type": "uint24"
        }
      ],
      "name": "updateCategory",
      "outputs": [],
      "stateMutability": "nonpayable",
      "type": "function"
    }
  ],
  "transactionHash": "0x1ed922d88a8c6930f3996b1460a867cdc2b37655593cb39e2c13af75df0543f1",
  "args": [],
  "numDeployments": 1,
  "solcInputHash": "acd18e12828ff6ebe49a00d5c0dc845c",
  "bytecode": "0x608060405234801561001057600080fd5b506153b1806100206000396000f3fe608060405234801561001057600080fd5b506004361061027f5760003560e01c8063a3d334a11161015c578063da12b235116100ce578063f2fde38b11610087578063f2fde38b14610770578063f3052d2614610783578063f7c3fec21461086d578063f9328d9414610880578063f9be94f214610893578063fb5ba8eb146108a657600080fd5b8063da12b2351461069c578063e6bebba5146106f7578063e8a353921461071a578063ef016cdd1461072b578063efdcd9741461073e578063f23a6e611461075157600080fd5b8063b99d519011610120578063b99d519014610651578063bc197c8114610664578063bf2de21a1461069c578063c007acf6146106af578063c7878a57146106c2578063c7cad905146106e457600080fd5b8063a3d334a1146105ea578063a88fd94a146105fb578063abdc10221461061b578063b505ab861461062e578063b5ca64ec1461064157600080fd5b80636b22e8e1116101f55780638da5cb5b116101b95780638da5cb5b14610577578063915e99131461034757806393fa058114610588578063940870dc1461059b57806394c4fa85146105ae578063a0595582146105d757600080fd5b80636b22e8e1146104f4578063714b847c14610519578063715018a61461053c57806378227cb0146105445780637902298e1461055757600080fd5b8063452b795711610247578063452b79571461032557806351d5d7f61461034757806357b41a71146103675780635ac44282146103955780635ba18df8146104ce5780635c4e7a05146104e157600080fd5b806301ffc9a714610284578063148dfdee146102ac5780631fb0a624146102c15780632204561e146102ef5780632c5dd8a914610312575b600080fd5b6102976102923660046143f5565b6108b7565b60405190151581526020015b60405180910390f35b6102bf6102ba366004614440565b6108ee565b005b6102d46102cf3660046144a9565b610a99565b604080519384526020840192909252908201526060016102a3565b6102976102fd3660046144cb565b60009081526098602052604090205460ff1690565b6102bf6103203660046144e4565b610c87565b60a554600160a01b900461ffff165b60405161ffff90911681526020016102a3565b61035a6103553660046144cb565b610c93565b6040516102a3919061453c565b6103876103753660046144cb565b6000908152609e602052604090205490565b6040519081526020016102a3565b6104626103a33660046144cb565b6040805160e081018252600080825260208201819052918101829052606081018290526080810182905260a0810182905260c0810191909152506000908152609b6020908152604091829020825160e08101845281548152600182015492810192909252600201546001600160a01b03811692820192909252600160a01b820463ffffffff166060820152600160c01b820461ffff166080820152600160d01b820460ff1660a0820152600160d81b90910462ffffff1660c082015290565b6040516102a3919081518152602080830151908201526040808301516001600160a01b03169082015260608083015163ffffffff169082015260808083015161ffff169082015260a08083015160ff169082015260c09182015162ffffff169181019190915260e00190565b6102bf6104dc3660046145a8565b610cf5565b6102bf6104ef36600461467e565b610d7a565b60a4546001600160a01b03165b6040516001600160a01b0390911681526020016102a3565b6102976105273660046144cb565b60009081526097602052604090205460ff1690565b6102bf610df0565b6103876105523660046144cb565b610e04565b61056a6105653660046144a9565b610e2e565b6040516102a3919061469b565b6033546001600160a01b0316610501565b6102d46105963660046144a9565b61110a565b6102bf6105a9366004614709565b611127565b6105016105bc3660046144cb565b6000908152609c60205260409020546001600160a01b031690565b6102bf6105e53660046144e4565b6112bd565b60a3546001600160a01b0316610501565b6103876106093660046144cb565b6000908152609f602052604090205490565b6102bf6106293660046147a2565b6112ff565b6102bf61063c366004614838565b611549565b610387683635c9adc5dea0000081565b60a554600160c01b900461ffff16610334565b6106836106723660046149a7565b63bc197c8160e01b95945050505050565b6040516001600160e01b031990911681526020016102a3565b61035a6106aa3660046144cb565b61198e565b6102bf6106bd366004614838565b6119ee565b6106d56106d0366004614a54565b611a16565b6040516102a393929190614a95565b60a554600160b01b900461ffff16610334565b6102976107053660046144cb565b60009081526099602052604090205460ff1690565b60a5546001600160a01b0316610501565b6102bf6107393660046144a9565b611a9d565b6102bf61074c36600461467e565b611b71565b61068361075f366004614b00565b63f23a6e6160e01b95945050505050565b6102bf61077e36600461467e565b611b7a565b6108606107913660046144cb565b6040805161010081018252600080825260208201819052918101829052606081018290526080810182905260a0810182905260c0810182905260e0810191909152506000908152609a602090815260409182902082516101008101845281548152600182015464ffffffffff81169382019390935261ffff600160281b8404169381019390935262ffffff600160381b830481166060850152600160501b9092049091166080830152600281015460a0830152600381015463ffffffff1660c08301526004015460e082015290565b6040516102a39190614b68565b6102bf61087b3660046144e4565b611bf0565b6102bf61088e366004614be3565b611bf9565b6102bf6108a1366004614c56565b611e5d565b60a2546001600160a01b0316610501565b60006301ffc9a760e01b6001600160e01b0319831614806108e85750630271189760e51b6001600160e01b03198316145b92915050565b60008581526097602052604090205460ff166109255760405163092483a160e11b8152600481018690526024015b60405180910390fd5b831580610937575064ffffffffff8316155b156109555760405163b4fa3fb360e01b815260040160405180910390fd5b6000858152609a602090815260409182902082516101008101845281548152600182015464ffffffffff81169382019390935261ffff600160281b840481169482019490945262ffffff600160381b840481166060830152600160501b9093049092166080830152600281015460a0830152600381015463ffffffff1660c0830152600481015460e0830152916109f0919087908616611fa6565b600482015584815560018101805464ffffffffff861666ffffffffffffff199091168117600160281b61ffff8716021769ffffff000000000000001916600160381b62ffffff86169081029190911790925560038301805463ffffffff19164263ffffffff1617905560405191825290869088907fa4cbd1903de80f86e1a9a2e630f758a278790366d92be399714a4938b763a0119060200160405180910390a4505050505050565b60008281526099602052604081205481908190859060ff16610ad157604051632e46319160e21b81526004810182905260240161091c565b85610adb81611feb565b15610afc57604051630406a37f60e01b81526004810182905260240161091c565b85600003610b1d5760405163b4fa3fb360e01b815260040160405180910390fd5b6000878152609f60209081526040808320548352609a909152812090610b4289612011565b604080516101008101825284548152600185015464ffffffffff8116602083015261ffff600160281b8204169282019290925262ffffff600160381b830481166060830152600160501b9092049091166080820152600284015460a0820152600384015463ffffffff1660c0820152600484015460e0820152909150600090610bcb908a612046565b60008c8152609b60209081526040918290206002015460a554835163313ce56760e01b81529351949650610c749550600160a01b9182900463ffffffff16948f9488949390920461ffff16926001600160a01b038a169263313ce56792600480830193928290030181865afa158015610c48573d6000803e3d6000fd5b505050506040513d601f19601f82011682018060405250810190610c6c9190614cf0565b60ff16612154565b919c909b50909950975050505050505050565b610c90816121f1565b50565b600081815260a06020908152604091829020805483518184028101840190945280845260609392830182828015610ce957602002820191906000526020600020905b815481526020019060010190808311610cd5575b50505050509050919050565b60405163043a3af960e51b8152730b9B3f30EBb3E9480088ac8a19021e4C47972453906387475f2090610d3f906097908d908d908d908d908d908d908d908d908d90600401614d3f565b60006040518083038186803b158015610d5757600080fd5b505af4158015610d6b573d6000803e3d6000fd5b50505050505050505050505050565b604051633273b49160e01b8152609760048201526001600160a01b0382166024820152730b9B3f30EBb3E9480088ac8a19021e4C4797245390633273b491906044015b60006040518083038186803b158015610dd557600080fd5b505af4158015610de9573d6000803e3d6000fd5b5050505050565b610df861223d565b610e026000612297565b565b60006097600a018281548110610e1c57610e1c614de5565b90600052602060002001549050919050565b60a1546060906000906001600160401b03811115610e4e57610e4e614864565b604051908082528060200260200182016040528015610eb157816020015b610e9e6040518060a0016040528060008152602001600081526020016000815260200160008152602001600081525090565b815260200190600190039081610e6c5790505b5090506000805b60a15481101561102d5760006097600a018281548110610eda57610eda614de5565b6000918252602080832090910154808352609b90915260409091206002015490915061ffff600160c01b9091041686141580610f2757506000818152609b60205260409020600101548714155b15610f32575061101b565b60a254604051627eeac760e11b8152306004820152602481018390526000916001600160a01b03169062fdd58e90604401602060405180830381865afa158015610f80573d6000803e3d6000fd5b505050506040513d601f19601f82011682018060405250810190610fa49190614dfb565b90506000806000610fbe85683635c9adc5dea000006122e9565b9250925092506040518060a0016040528086815260200185815260200184815260200183815260200182815250888881518110610ffd57610ffd614de5565b6020908102919091010152611013876001614e2a565b965050505050505b8061102581614e3d565b915050610eb8565b50806001600160401b0381111561104657611046614864565b6040519080825280602002602001820160405280156110a957816020015b6110966040518060a0016040528060008152602001600081526020016000815260200160008152602001600081525090565b8152602001906001900390816110645790505b50925060005b81811015611101578281815181106110c9576110c9614de5565b60200260200101518482815181106110e3576110e3614de5565b602002602001018190525080806110f990614e3d565b9150506110af565b50505092915050565b600080600061111985856122e9565b919790965090945092505050565b84831415806111365750848114155b156111545760405163b4fa3fb360e01b815260040160405180910390fd5b60015b8581101561120c576000609f8189898581811061117657611176614de5565b9050602002013581526020019081526020016000205490506000609760080160008a8a6001876111a69190614e56565b8181106111b5576111b5614de5565b9050602002013581526020019081526020016000205490508082146111f75760405163149e393360e31b8152600481018390526024810182905260440161091c565b5050808061120490614e3d565b915050611157565b5060005b8581101561127d5761126b87878381811061122d5761122d614de5565b9050602002013586868481811061124657611246614de5565b9050602002013585858581811061125f5761125f614de5565b905060200201356124aa565b8061127581614e3d565b915050611210565b506000609f818888828161129357611293614de5565b9050602002013581526020019081526020016000205490506112b481612751565b50505050505050565b60405163176b99f360e21b81526097600482015261ffff82166024820152730b9B3f30EBb3E9480088ac8a19021e4C4797245390635dae67cc90604401610dbd565b600054610100900460ff161580801561131f5750600054600160ff909116105b806113395750303b158015611339575060005460ff166001145b61139c5760405162461bcd60e51b815260206004820152602e60248201527f496e697469616c697a61626c653a20636f6e747261637420697320616c72656160448201526d191e481a5b9a5d1a585b1a5e995960921b606482015260840161091c565b6000805460ff1916600117905580156113bf576000805461ff0019166101001790555b6113c7612998565b6113cf6129c7565b60a380546001600160a01b03808b166001600160a01b03199283161790925560a28054928a1692909116919091179055611408866121f1565b611411856129f6565b60405163176b99f360e21b81526097600482015261ffff85166024820152730b9B3f30EBb3E9480088ac8a19021e4C4797245390635dae67cc9060440160006040518083038186803b15801561146657600080fd5b505af415801561147a573d6000803e3d6000fd5b5050505061148783612a42565b604051633273b49160e01b8152609760048201526001600160a01b0383166024820152730b9B3f30EBb3E9480088ac8a19021e4C4797245390633273b4919060440160006040518083038186803b1580156114e157600080fd5b505af41580156114f5573d6000803e3d6000fd5b50505050801561153f576000805461ff0019169055604051600181527f7f26b83ff96e1f2b6a682f133852f6798a09c465da95921460cefb38474024989060200160405180910390a15b5050505050505050565b60026065540361159b5760405162461bcd60e51b815260206004820152601f60248201527f5265656e7472616e637947756172643a207265656e7472616e742063616c6c00604482015260640161091c565b6002606555600083815260996020526040902054839060ff166115d457604051632e46319160e21b81526004810182905260240161091c565b836115de81611feb565b156115ff57604051630406a37f60e01b81526004810182905260240161091c565b836000036116205760405163b4fa3fb360e01b815260040160405180910390fd5b6000858152609f60209081526040808320548352609a825280832081516101008101835281548152600182015464ffffffffff81169482019490945261ffff600160281b8504169281019290925262ffffff600160381b840481166060840152600160501b9093049092166080820152600282015460a0820152600382015463ffffffff1660c082015260049091015460e082015281906116c19087612046565b9150915060006116d088612011565b6000898152609b602090815260408083206002015460a554825163313ce56760e01b815292519596509394859461174d94600160a01b9384900463ffffffff16948f948b94930461ffff16926001600160a01b038b169263313ce56792600480820193918290030181865afa158015610c48573d6000803e3d6000fd5b50915091508782101561177d576040516323fd80cf60e01b8152600481018390526024810189905260440161091c565b6117f78a858b61178d8587614e2a565b876001600160a01b031663313ce5676040518163ffffffff1660e01b8152600401602060405180830381865afa1580156117cb573d6000803e3d6000fd5b505050506040513d601f19601f820116820180604052508101906117ef9190614cf0565b60ff16612a8c565b60008a8152609f602052604090205461181290858b88612bcc565b6040516340c10f1960e01b8152336004820152602481018390526001600160a01b038416906340c10f1990604401600060405180830381600087803b15801561185a57600080fd5b505af115801561186e573d6000803e3d6000fd5b505060a5546040516340c10f1960e01b81526001600160a01b0391821660048201526024810185905290861692506340c10f199150604401600060405180830381600087803b1580156118c057600080fd5b505af11580156118d4573d6000803e3d6000fd5b505060a254604051637921219560e11b81526001600160a01b03909116925063f242432a915061190e90339030908f908f90600401614e69565b600060405180830381600087803b15801561192857600080fd5b505af115801561193c573d6000803e3d6000fd5b5050604080518c8152602081018690523393508d92507f996fd5dc95553bf61923ea1e658357de4a30175141a8fab02ae6ae2ed8c6d32e910160405180910390a3505060016065555050505050505050565b6000818152609d6020908152604091829020805483518184028101840190945280845260609392830182828015610ce95760200282019190600052602060002090815481526020019060010190808311610cd55750505050509050919050565b6119f98383836124aa565b6000838152609f6020526040902054611a1190612751565b505050565b60405162dbb45760e51b815260609081908190730b9B3f30EBb3E9480088ac8a19021e4C4797245390631b768ae090611a589060979089908990600401614ea1565b600060405180830381865af4158015611a75573d6000803e3d6000fd5b505050506040513d6000823e601f3d908101601f191682016040526111199190810190614f1f565b60008281526097602052604090205460ff16611acf5760405163092483a160e11b81526004810183905260240161091c565b60008181526098602052604090205460ff1615611b025760405163c5e0852d60e01b81526004810182905260240161091c565b6000828152609d6020908152604080832080546001818101835591855283852001859055848452609e83528184208690556098909252808320805460ff19169092179091555182917f1ac2092e16e28eef29d1832f3dc69da1b21284a1f3159d3b26cb238b22fe4f8a91a25050565b610c9081612a42565b611b8261223d565b6001600160a01b038116611be75760405162461bcd60e51b815260206004820152602660248201527f4f776e61626c653a206e6577206f776e657220697320746865207a65726f206160448201526564647265737360d01b606482015260840161091c565b610c9081612297565b610c90816129f6565b60208083013560009081526098909152604090205460ff16611c3457604051633223e66d60e21b81526020830135600482015260240161091c565b813560009081526099602052604090205460ff1615611c6957604051633903fb6760e01b81528235600482015260240161091c565b6000611c7b606084016040850161467e565b6001600160a01b031603611ca25760405163b60aa6f160e01b815260040160405180910390fd5b42611cb36080840160608501615019565b63ffffffff1611611cf057611cce6080830160608401615019565b604051631ece70f360e01b815263ffffffff909116600482015260240161091c565b81356000908152609960209081526040808320805460ff19166001179055609b90915290208290611d218282615050565b505060a18054600181810190925583357faadc37b8ba5645e62f4546802db221593a94729ccbfc5a97d01365a88f649878909101819055602080850135600081815260a083526040808220805496870181558252838220909501849055908152609e825283812054928152609f9091528290205560a2546001600160a01b03169063731133e990611db8906060860190860161467e565b60405160e083901b6001600160e01b03191681526001600160a01b0390911660048201528435602482015260448101849052608060648201526000608482015260a401600060405180830381600087803b158015611e1557600080fd5b505af1158015611e29573d6000803e3d6000fd5b5050604051843592507f2354c6982830f23074cbadd3a8326546827ca5be87b6cfe41e906c66e75cd9659150600090a25050565b60008681526097602052604090205460ff1615611e9057604051631e506c6d60e31b81526004810187905260240161091c565b60008681526097602052604090819020805460ff1916600117905560a354905163b548848760e01b81526001600160a01b039091169063b548848790611ee0908890889088908890600401615154565b6020604051808303816000875af1158015611eff573d6000803e3d6000fd5b505050506040513d601f19601f82011682018060405250810190611f23919061517b565b6000878152609c6020908152604080832080546001600160a01b0319166001600160a01b039590951694909417909355609a9052818120600101805462ffffff60501b1916600160501b62ffffff861602179055905187917fafc348cb919473b1b9a1f5712a5d6d3176cdf7a5295bd4709b8cf37b5219832691a2505050505050565b82516000901580611fc05750602084015164ffffffffff16155b15611fd657611fcf8383612cc8565b9050611fe4565b611fe1848484612cd6565b90505b9392505050565b6000908152609b602052604090206002015442600160a01b90910463ffffffff16111590565b6000908152609b60209081526040808320600101548352609e8252808320548352609c9091529020546001600160a01b031690565b6000808360000151600003612069575050608082015160009062ffffff1661214d565b61208d846020015164ffffffffff168560e001518660c0015163ffffffff16612d51565b9150600061209c6002856151ae565b6120a69084614e2a565b905060006120c882620f4240886000015160646120c391906151d0565b612da4565b9050620f424081106120f05760405163c72b5be960e01b81526004810186905260240161091c565b60006120fb82612e53565b9050808760600151886080015161211291906151e7565b62ffffff166121219190614e2a565b9350620f424084106121495760405163c72b5be960e01b81526004810187905260240161091c565b5050505b9250929050565b60008060004288116121685761216861520a565b6000612174878a612ed7565b90506000612199612185838b6151d0565b61219088600a615304565b620f4240612da4565b905060006121aa8289612710612da4565b905060006121b88284614e56565b90506000836121c88a600a615304565b6121d2908e6151d0565b6121dc9190614e56565b919d929c50909a509098505050505050505050565b60a5805461ffff60a01b1916600160a01b61ffff8416908102919091179091556040517f3a9c3d19b54b2e3f3f98d9114e62f0bae208d7e9b303286f2ffc42c95d7813c390600090a250565b6033546001600160a01b03163314610e025760405162461bcd60e51b815260206004820181905260248201527f4f776e61626c653a2063616c6c6572206973206e6f7420746865206f776e6572604482015260640161091c565b603380546001600160a01b038381166001600160a01b0319831681179093556040519116919082907f8be0079c531659141344cd1fd0a4f28419497f9722a3daafe3b4186f6b6457e090600090a35050565b60008281526099602052604081205481908190859060ff1661232157604051632e46319160e21b81526004810182905260240161091c565b600061232c87612011565b6000888152609b60209081526040918290206002015460a554835163313ce56760e01b815293519495506123e394600160a01b830463ffffffff16948c94600160d81b90940462ffffff1693600160b01b90930461ffff16926001600160a01b0389169263313ce5679260048082019392918290030181865afa1580156123b7573d6000803e3d6000fd5b505050506040513d601f19601f820116820180604052508101906123db9190614cf0565b60ff16612f66565b50506000888152609b60209081526040918290206002015460a554835163313ce56760e01b8152935194995061249c94600160a01b830463ffffffff16948b94600160d81b90940462ffffff1693600160b01b90930461ffff16926001600160a01b0389169263313ce5679260048082019392918290030181865afa158015612470573d6000803e3d6000fd5b505050506040513d601f19601f820116820180604052508101906124949190614cf0565b60ff16612fd1565b959890975094955050505050565b6002606554036124fc5760405162461bcd60e51b815260206004820152601f60248201527f5265656e7472616e637947756172643a207265656e7472616e742063616c6c00604482015260640161091c565b6002606555600083815260996020526040902054839060ff1661253557604051632e46319160e21b81526004810182905260240161091c565b600061254085612011565b6000868152609b602090815260408083206002015460a554825163313ce56760e01b815292519596509394859485946125ce94600160a01b850463ffffffff16948d94600160d81b90910462ffffff1693600160b01b900461ffff16926001600160a01b038c169263313ce56792600480830193928290030181865afa1580156123b7573d6000803e3d6000fd5b925092509250600083116125f857604051630a255ea560e41b81526004810184905260240161091c565b85831015612623576040516323fd80cf60e01b8152600481018490526024810187905260440161091c565b60405163079cc67960e41b8152336004820152602481018290526001600160a01b038516906379cc679090604401600060405180830381600087803b15801561266b57600080fd5b505af115801561267f573d6000803e3d6000fd5b505060a55461269d925086915033906001600160a01b03168561302c565b60a254604051637921219560e11b81526001600160a01b039091169063f242432a906126d390309033908d908990600401614e69565b600060405180830381600087803b1580156126ed57600080fd5b505af1158015612701573d6000803e3d6000fd5b5050604080518a8152602081018790523393508b92507f0a2adf4ac4fa3544a2c794e5ba57a755d18102bb19672742fcc48f87e5c1fce3910160405180910390a350506001606555505050505050565b6000818152609d602052604081208190815b81548110156128c457600082828154811061278057612780614de5565b600091825260208083209091015480835260a090915260408220909250905b81548110156128ae5760008282815481106127bc576127bc614de5565b600091825260208220015460a254604051627eeac760e11b8152306004820152602481018390529193506001600160a01b03169062fdd58e90604401602060405180830381865afa158015612815573d6000803e3d6000fd5b505050506040513d601f19601f820116820180604052508101906128399190614dfb565b905080158061284c575061284c82611feb565b1561285857505061289c565b6000828152609b6020526040902060020154612881908290600160d81b900462ffffff166151d0565b61288b908a614e2a565b98506128978189614e2a565b975050505b806128a681614e3d565b91505061279f565b50505080806128bc90614e3d565b915050612763565b5081600003612924576000848152609a602052604080822060028101839055600101549051600160501b90910462ffffff169086907fd0c98409f17c45dc9f0e272df73b5b8056534c9822bb3f6d02f91c9922a9f95e908490a450505050565b600061293083856151ae565b6000868152609a602052604080822060018101805462ffffff60501b1916600160501b62ffffff871602179055600201869055519192508491839188917fd0c98409f17c45dc9f0e272df73b5b8056534c9822bb3f6d02f91c9922a9f95e9190a45050505050565b600054610100900460ff166129bf5760405162461bcd60e51b815260040161091c90615310565b610e026130c7565b600054610100900460ff166129ee5760405162461bcd60e51b815260040161091c90615310565b610e026130f7565b60a5805461ffff60b01b1916600160b01b61ffff8416908102919091179091556040517f3a1bac3fdaf2d00c05b0cb3e9dce0dbaa14b865551f42b7b4755ebed6d08daf190600090a250565b60a580546001600160a01b0319166001600160a01b0383169081179091556040517f27aae5db36d94179909d019ae0b1ac7c16d96d953148f63c0f6a0a9c8ead79ee90600090a250565b6000858152609b602052604080822060a25481549251627eeac760e11b815230600482015260248101939093529092916001600160a01b039091169062fdd58e90604401602060405180830381865afa158015612aed573d6000803e3d6000fd5b505050506040513d601f19601f82011682018060405250810190612b119190614dfb565b905080600003612b3e5750600201805462ffffff60d81b1916600160d81b62ffffff871602179055610de9565b6002820154600090612b6d90600160a01b810463ffffffff16908490600160d81b900462ffffff168488612154565b50509050612ba28582612b809190614e2a565b612b8a8885614e2a565b6002860154600160a01b900463ffffffff1687613125565b83600201601b6101000a81548162ffffff021916908362ffffff1602179055505050505050505050565b6000848152609a602052604081206002810154909190612bed908590614e2a565b612bf785876151d0565b60028401546001850154612c179190600160501b900462ffffff166151d0565b612c219190614e2a565b612c2b91906151ae565b60018301805462ffffff60501b1916600160501b62ffffff8416021790556002830180549192508591600090612c62908490614e2a565b90915550612c7290508484614e2a565b600483015560038201805463ffffffff19164263ffffffff161790556002820154604051829088907fd0c98409f17c45dc9f0e272df73b5b8056534c9822bb3f6d02f91c9922a9f95e90600090a4505050505050565b6000611fe48383600a612da4565b6000612cfc846020015164ffffffffff168560e001518660c0015163ffffffff16612d51565b9050612d0d81848660000151612da4565b90506000846040015161ffff1683612d25919061535b565b90506000811315612d4957612d3c8482600a612da4565b612d469083614e2a565b91505b509392505050565b600080612d5e8342614e56565b90506000612d6c86836151d0565b612d7b9064174876e80061535b565b9050612d886000826131e0565b9050612d9a858264174876e800612da4565b9695505050505050565b6000808060001985870985870292508281108382030391505080600003612dde57838281612dd457612dd4615198565b0492505050611fe4565b808411612dea57600080fd5b60008486880960026001871981018816978890046003810283188082028403028082028403028082028403028082028403028082028403029081029092039091026000889003889004909101858311909403939093029303949094049190911702949350505050565b600080612e6383620f4240614e56565b90506000612e7482620f42406131f7565b90506000612e8182613231565b90506000612e95612e9061326b565b61327f565b90506000612eab612ea684846132d4565b61330b565b90506000612ebc82620f4240613360565b9050612ecb81620f4240614e56565b98975050505050505050565b600080612ee442846133cb565b905080600003612efa57620f42409150506108e8565b80600103612f1757612f0f84620f4240614e56565b9150506108e8565b6000612f2685620f4240614e56565b90506000612f3782620f42406131f7565b90506000612f4f82612f4a600187614e56565b613427565b9050612f5b8184613360565b979650505050505050565b600080600080612f798887612710612da4565b90506000612f87828a614e56565b90506000612f95898c612ed7565b90506000612fa783620f424084612da4565b9050612fb488600a615304565b612fbe90826151ae565b9c939b5091995091975050505050505050565b6000806000612fe08689612ed7565b90506000612ffc612ff1838a6151d0565b61219087600a615304565b905061300f816127106120c38982614e56565b935061301e8487612710612da4565b925050509550959350505050565b6040516323b872dd60e01b8082526001600160a01b038581166004840152841660248301526044820183905290600080606483828a5af1613071573d6000803e3d6000fd5b5061307b85613640565b610de95760405162461bcd60e51b815260206004820152601960248201527f475076323a206661696c6564207472616e7366657246726f6d00000000000000604482015260640161091c565b600054610100900460ff166130ee5760405162461bcd60e51b815260040161091c90615310565b610e0233612297565b600054610100900460ff1661311e5760405162461bcd60e51b815260040161091c90615310565b6001606555565b6000841580159061313557508315155b6131415761314161520a565b600061314d42856133cb565b9050806000036131615760009150506131d8565b600061316f612e90836136e8565b905060006131918861318287600a615304565b61318c908a6151d0565b6131f7565b9050600061319e82613231565b905060006131af612ea683866132d4565b905060006131c082620f4240613360565b90506131cf81620f4240614e56565b96505050505050505b949350505050565b6000818312156131f05781611fe4565b5090919050565b60008160000361320657600080fd5b60006132128484613706565b905060016001607f1b036001600160801b0382161115611fe457600080fd5b60008082600f0b1361324257600080fd5b608061324d8361386b565b600f0b6fb17217f7d1cf79abc9e3b39803f2f6af02901c9050919050565b600061327a610209600a6131f7565b905090565b600081600f0b60000361329157600080fd5b600082600f0b600160801b816132a9576132a9615198565b05905060016001607f1b031981128015906132cb575060016001607f1b038113155b6108e857600080fd5b6000600f83810b9083900b0260401d60016001607f1b03198112801590613302575060016001607f1b038113155b611fe457600080fd5b6000600160461b82600f0b1261332057600080fd5b683fffffffffffffffff1982600f0b121561333d57506000919050565b6108e8608083600f0b700171547652b82fe1777d0ffda0d23a7d1202901d613946565b600081600003613372575060006108e8565b600083600f0b121561338357600080fd5b600f83900b6001600160801b038316810260401c90608084901c026001600160c01b038111156133b257600080fd5b60401b81198111156133c357600080fd5b019392505050565b60008215806133d8575081155b1561340057604051631c5dcecf60e31b8152600481018490526024810183905260440161091c565b82821161340f575060006108e8565b62093a8061341d8484614e56565b611fe491906151ae565b600080600084600f0b1280156134405750826001166001145b905060008085600f0b126134545784613459565b846000035b6001600160801b03169050600160801b600160401b82116134ee57603f82901b91505b84156134e6576001851615613491578102607f1c5b908002607f1c9060028516156134a7578102607f1c5b908002607f1c9060048516156134bd578102607f1c5b908002607f1c9060088516156134d3578102607f1c5b60049490941c93908002607f1c9061347c565b60401c613604565b603f600160601b8310156135085760209290921b91601f19015b600160701b8310156135205760109290921b91600f19015b600160781b8310156135385760089290921b91600719015b6001607c1b8310156135505760049290921b91600319015b6001607e1b8310156135685760029290921b91600119015b6001607f1b8310156135805760019290921b91600019015b60005b86156135ed576040821061359657600080fd5b60018716156135bc57918302607f1c918101600160801b8311156135bc57600192831c92015b928002607f1c9260019190911b90600160801b84106135e157600193841c9391909101905b600187901c9650613583565b604081106135fa57600080fd5b6040039190911c90505b6000836136115781613616565b816000035b905060016001607f1b03198112801590613637575060016001607f1b038113155b612d9a57600080fd5b6000613665565b62461bcd60e51b600052602060045280602452508060445260646000fd5b3d80156136a457602081146136d55761369f7f475076323a206d616c666f726d6564207472616e7366657220726573756c7400601f613647565b6136e2565b823b6136cc576136cc7311d41d8c8e881b9bdd08184818dbdb9d1c9858dd60621b6014613647565b600191506136e2565b3d6000803e600051151591505b50919050565b6000677fffffffffffffff8211156136ff57600080fd5b5060401b90565b60008160000361371557600080fd5b60006001600160c01b0384116137405782604085901b8161373857613738615198565b049050613857565b60c084811c6401000000008110613759576020918201911c5b62010000811061376b576010918201911c5b610100811061377c576008918201911c5b6010811061378c576004918201911c5b6004811061379c576002918201911c5b600281106137ab576001820191505b60bf820360018603901c6001018260ff0387901b816137cc576137cc615198565b0492506001600160801b038311156137e357600080fd5b608085901c83026001600160801b038616840260c088901c604089901b8281101561380f576001820391505b608084901b92900382811015613826576001820391505b829003608084901c821461383c5761383c61520a565b88818161384b5761384b615198565b04870196505050505050505b6001600160801b03811115611fe457600080fd5b60008082600f0b1361387c57600080fd5b6000600f83900b600160401b8112613896576040918201911d5b64010000000081126138aa576020918201911d5b6201000081126138bc576010918201911d5b61010081126138cd576008918201911d5b601081126138dd576004918201911d5b600481126138ed576002918201911d5b600281126138fc576001820191505b603f19820160401b600f85900b607f8490031b6001603f1b5b600081131561393b5790800260ff81901c8281029390930192607f011c9060011d613915565b509095945050505050565b6000600160461b82600f0b1261395b57600080fd5b683fffffffffffffffff1982600f0b121561397857506000919050565b6001607f1b60006001603f1b8416600f0b13156139a65770016a09e667f3bcc908b2fb1366ea957d3e0260801c5b60008367400000000000000016600f0b13156139d3577001306fe0a31b7152de8d5a46305c85edec0260801c5b60008367200000000000000016600f0b1315613a00577001172b83c7d517adcdf7c8c50eb14a791f0260801c5b60008367100000000000000016600f0b1315613a2d5770010b5586cf9890f6298b92b71842a983630260801c5b60008367080000000000000016600f0b1315613a5a577001059b0d31585743ae7c548eb68ca417fd0260801c5b60008367040000000000000016600f0b1315613a8757700102c9a3e778060ee6f7caca4f7a29bde80260801c5b60008367020000000000000016600f0b1315613ab45770010163da9fb33356d84a66ae336dcdfa3f0260801c5b600083600160381b16600f0b1315613add57700100b1afa5abcbed6129ab13ec11dc95430260801c5b600083668000000000000016600f0b1315613b095770010058c86da1c09ea1ff19d294cf2f679b0260801c5b600083664000000000000016600f0b1315613b35577001002c605e2e8cec506d21bfc89a23a00f0260801c5b600083662000000000000016600f0b1315613b6157700100162f3904051fa128bca9c55c31e5df0260801c5b600083661000000000000016600f0b1315613b8d577001000b175effdc76ba38e31671ca9397250260801c5b600083660800000000000016600f0b1315613bb957700100058ba01fb9f96d6cacd4b180917c3d0260801c5b600083660400000000000016600f0b1315613be55770010002c5cc37da9491d0985c348c68e7b30260801c5b600083660200000000000016600f0b1315613c11577001000162e525ee054754457d59952920260260801c5b600083660100000000000016600f0b1315613c3d5770010000b17255775c040618bf4a4ade83fc0260801c5b6000836580000000000016600f0b1315613c68577001000058b91b5bc9ae2eed81e9b7d4cfab0260801c5b6000836540000000000016600f0b1315613c9357700100002c5c89d5ec6ca4d7c8acc017b7c90260801c5b6000836520000000000016600f0b1315613cbe5770010000162e43f4f831060e02d839a9d16d0260801c5b6000836510000000000016600f0b1315613ce957700100000b1721bcfc99d9f890ea069117630260801c5b6000836508000000000016600f0b1315613d145770010000058b90cf1e6d97f9ca14dbcc16280260801c5b6000836504000000000016600f0b1315613d3f577001000002c5c863b73f016468f6bac5ca2b0260801c5b6000836502000000000016600f0b1315613d6a57700100000162e430e5a18f6119e3c02282a50260801c5b600083600160281b16600f0b1315613d93577001000000b1721835514b86e6d96efd1bfe0260801c5b60008364800000000016600f0b1315613dbd57700100000058b90c0b48c6be5df846c5b2ef0260801c5b60008364400000000016600f0b1315613de75770010000002c5c8601cc6b9e94213c72737a0260801c5b60008364200000000016600f0b1315613e11577001000000162e42fff037df38aa2b219f060260801c5b60008364100000000016600f0b1315613e3b5770010000000b17217fba9c739aa5819f44f90260801c5b60008364080000000016600f0b1315613e65577001000000058b90bfcdee5acd3c1cedc8230260801c5b60008364040000000016600f0b1315613e8f57700100000002c5c85fe31f35a6a30da1be500260801c5b60008364020000000016600f0b1315613eb95770010000000162e42ff0999ce3541b9fffcf0260801c5b60008364010000000016600f0b1315613ee357700100000000b17217f80f4ef5aadda455540260801c5b600083638000000016600f0b1315613f0c5770010000000058b90bfbf8479bd5a81b51ad0260801c5b600083634000000016600f0b1315613f35577001000000002c5c85fdf84bd62ae30a74cc0260801c5b600083632000000016600f0b1315613f5e57700100000000162e42fefb2fed257559bdaa0260801c5b600083631000000016600f0b1315613f87577001000000000b17217f7d5a7716bba4a9ae0260801c5b600083630800000016600f0b1315613fb057700100000000058b90bfbe9ddbac5e109cce0260801c5b600083630400000016600f0b1315613fd95770010000000002c5c85fdf4b15de6f17eb0d0260801c5b600083630200000016600f0b1315614002577001000000000162e42fefa494f1478fde050260801c5b600083630100000016600f0b131561402b5770010000000000b17217f7d20cf927c8e94c0260801c5b6000836280000016600f0b1315614053577001000000000058b90bfbe8f71cb4e4b33d0260801c5b6000836240000016600f0b131561407b57700100000000002c5c85fdf477b662b269450260801c5b6000836220000016600f0b13156140a35770010000000000162e42fefa3ae53369388c0260801c5b6000836210000016600f0b13156140cb57700100000000000b17217f7d1d351a389d400260801c5b6000836208000016600f0b13156140f35770010000000000058b90bfbe8e8b2d3d4ede0260801c5b6000836204000016600f0b131561411b577001000000000002c5c85fdf4741bea6e77e0260801c5b6000836202000016600f0b131561414357700100000000000162e42fefa39fe95583c20260801c5b6000836201000016600f0b131561416b577001000000000000b17217f7d1cfb72b45e10260801c5b60008361800016600f0b131561419257700100000000000058b90bfbe8e7cc35c3f00260801c5b60008361400016600f0b13156141b95770010000000000002c5c85fdf473e242ea380260801c5b60008361200016600f0b13156141e0577001000000000000162e42fefa39f02b772c0260801c5b60008361100016600f0b13156142075770010000000000000b17217f7d1cf7d83c1a0260801c5b60008361080016600f0b131561422e577001000000000000058b90bfbe8e7bdcbe2e0260801c5b60008361040016600f0b131561425557700100000000000002c5c85fdf473dea871f0260801c5b60008361020016600f0b131561427c5770010000000000000162e42fefa39ef44d910260801c5b60008361010016600f0b13156142a357700100000000000000b17217f7d1cf79e9490260801c5b600083608016600f0b13156142c95770010000000000000058b90bfbe8e7bce5440260801c5b600083604016600f0b13156142ef577001000000000000002c5c85fdf473de6eca0260801c5b600083602016600f0b131561431557700100000000000000162e42fefa39ef366f0260801c5b600083601016600f0b131561433b577001000000000000000b17217f7d1cf79afa0260801c5b600083600816600f0b131561436157700100000000000000058b90bfbe8e7bcd6d0260801c5b600083600416600f0b13156143875770010000000000000002c5c85fdf473de6b20260801c5b600083600216600f0b13156143ad577001000000000000000162e42fefa39ef3580260801c5b600083600116600f0b13156143d35770010000000000000000b17217f7d1cf79ab0260801c5b600f83810b60401d603f03900b1c60016001607f1b038111156108e857600080fd5b60006020828403121561440757600080fd5b81356001600160e01b031981168114611fe457600080fd5b61ffff81168114610c9057600080fd5b62ffffff81168114610c9057600080fd5b600080600080600060a0868803121561445857600080fd5b8535945060208601359350604086013564ffffffffff8116811461447b57600080fd5b9250606086013561448b8161441f565b9150608086013561449b8161442f565b809150509295509295909350565b600080604083850312156144bc57600080fd5b50508035926020909101359150565b6000602082840312156144dd57600080fd5b5035919050565b6000602082840312156144f657600080fd5b8135611fe48161441f565b600081518084526020808501945080840160005b8381101561453157815187529582019590820190600101614515565b509495945050505050565b602081526000611fe46020830184614501565b60008083601f84011261456157600080fd5b5081356001600160401b0381111561457857600080fd5b6020830191508360208260051b850101111561214d57600080fd5b6001600160a01b0381168114610c9057600080fd5b600080600080600080600080600060a08a8c0312156145c657600080fd5b89356001600160401b03808211156145dd57600080fd5b6145e98d838e0161454f565b909b50995060208c013591508082111561460257600080fd5b61460e8d838e0161454f565b909950975060408c013591508082111561462757600080fd5b6146338d838e0161454f565b909750955060608c013591508082111561464c57600080fd5b506146598c828d0161454f565b90945092505060808a013561466d81614593565b809150509295985092959850929598565b60006020828403121561469057600080fd5b8135611fe481614593565b602080825282518282018190526000919060409081850190868401855b828110156146fc5781518051855286810151878601528581015186860152606080820151908601526080908101519085015260a090930192908501906001016146b8565b5091979650505050505050565b6000806000806000806060878903121561472257600080fd5b86356001600160401b038082111561473957600080fd5b6147458a838b0161454f565b9098509650602089013591508082111561475e57600080fd5b61476a8a838b0161454f565b9096509450604089013591508082111561478357600080fd5b5061479089828a0161454f565b979a9699509497509295939492505050565b600080600080600080600060e0888a0312156147bd57600080fd5b87356147c881614593565b965060208801356147d881614593565b955060408801356147e88161441f565b945060608801356147f88161441f565b935060808801356148088161441f565b925060a088013561481881614593565b915060c088013561482881614593565b8091505092959891949750929550565b60008060006060848603121561484d57600080fd5b505081359360208301359350604090920135919050565b634e487b7160e01b600052604160045260246000fd5b604051601f8201601f191681016001600160401b03811182821017156148a2576148a2614864565b604052919050565b60006001600160401b038211156148c3576148c3614864565b5060051b60200190565b600082601f8301126148de57600080fd5b813560206148f36148ee836148aa565b61487a565b82815260059290921b8401810191818101908684111561491257600080fd5b8286015b8481101561492d5780358352918301918301614916565b509695505050505050565b600082601f83011261494957600080fd5b81356001600160401b0381111561496257614962614864565b614975601f8201601f191660200161487a565b81815284602083860101111561498a57600080fd5b816020850160208301376000918101602001919091529392505050565b600080600080600060a086880312156149bf57600080fd5b85356149ca81614593565b945060208601356149da81614593565b935060408601356001600160401b03808211156149f657600080fd5b614a0289838a016148cd565b94506060880135915080821115614a1857600080fd5b614a2489838a016148cd565b93506080880135915080821115614a3a57600080fd5b50614a4788828901614938565b9150509295509295909350565b60008060208385031215614a6757600080fd5b82356001600160401b03811115614a7d57600080fd5b614a898582860161454f565b90969095509350505050565b606080825284519082018190526000906020906080840190828801845b82811015614ad75781516001600160a01b031684529284019290840190600101614ab2565b50505083810382850152614aeb8187614501565b9150508281036040840152612d9a8185614501565b600080600080600060a08688031215614b1857600080fd5b8535614b2381614593565b94506020860135614b3381614593565b9350604086013592506060860135915060808601356001600160401b03811115614b5c57600080fd5b614a4788828901614938565b6000610100820190508251825264ffffffffff602084015116602083015261ffff6040840151166040830152606083015162ffffff8082166060850152806080860151166080850152505060a083015160a083015260c0830151614bd460c084018263ffffffff169052565b5060e092830151919092015290565b600080828403610100811215614bf857600080fd5b60e0811215614c0657600080fd5b50919360e08501359350915050565b60008083601f840112614c2757600080fd5b5081356001600160401b03811115614c3e57600080fd5b60208301915083602082850101111561214d57600080fd5b60008060008060008060808789031215614c6f57600080fd5b8635955060208701356001600160401b0380821115614c8d57600080fd5b614c998a838b01614c15565b90975095506040890135915080821115614cb257600080fd5b50614cbf89828a01614c15565b9094509250506060870135614cd38161442f565b809150509295509295509295565b60ff81168114610c9057600080fd5b600060208284031215614d0257600080fd5b8151611fe481614ce1565b81835260006001600160fb1b03831115614d2657600080fd5b8260051b80836020870137939093016020019392505050565b8a81526000602060c081840152614d5a60c084018c8e614d0d565b83810360408501528981528a90820160005b8b811015614d9a578235614d7f81614593565b6001600160a01b031682529183019190830190600101614d6c565b508481036060860152614dae818a8c614d0d565b925050508281036080840152614dc5818688614d0d565b91505060018060a01b03831660a08301529b9a5050505050505050505050565b634e487b7160e01b600052603260045260246000fd5b600060208284031215614e0d57600080fd5b5051919050565b634e487b7160e01b600052601160045260246000fd5b808201808211156108e8576108e8614e14565b600060018201614e4f57614e4f614e14565b5060010190565b818103818111156108e8576108e8614e14565b6001600160a01b0394851681529290931660208301526040820152606081019190915260a06080820181905260009082015260c00190565b838152604060208201526000614ebb604083018486614d0d565b95945050505050565b600082601f830112614ed557600080fd5b81516020614ee56148ee836148aa565b82815260059290921b84018101918181019086841115614f0457600080fd5b8286015b8481101561492d5780518352918301918301614f08565b600080600060608486031215614f3457600080fd5b83516001600160401b0380821115614f4b57600080fd5b818601915086601f830112614f5f57600080fd5b81516020614f6f6148ee836148aa565b82815260059290921b8401810191818101908a841115614f8e57600080fd5b948201945b83861015614fb5578551614fa681614593565b82529482019490820190614f93565b91890151919750909350505080821115614fce57600080fd5b614fda87838801614ec4565b93506040860151915080821115614ff057600080fd5b50614ffd86828701614ec4565b9150509250925092565b63ffffffff81168114610c9057600080fd5b60006020828403121561502b57600080fd5b8135611fe481615007565b600081356108e881614ce1565b600081356108e88161442f565b813581556020820135600182015560028101604083013561507081614593565b8154606085013561508081615007565b608086013561508e8161441f565b61ffff60c01b60c09190911b166001600160a01b03939093166001600160d01b0319929092169190911763ffffffff60a01b60a092831b16179190911782556150fa906150dc908501615036565b82805460ff60d01b191660d09290921b60ff60d01b16919091179055565b611a1161510960c08501615043565b82805462ffffff60d81b191660d89290921b62ffffff60d81b16919091179055565b81835281816020850137506000828201602090810191909152601f909101601f19169091010190565b60408152600061516860408301868861512b565b8281036020840152612f5b81858761512b565b60006020828403121561518d57600080fd5b8151611fe481614593565b634e487b7160e01b600052601260045260246000fd5b6000826151cb57634e487b7160e01b600052601260045260246000fd5b500490565b80820281158282048414176108e8576108e8614e14565b62ffffff82811682821603908082111561520357615203614e14565b5092915050565b634e487b7160e01b600052600160045260246000fd5b600181815b8085111561525b57816000190482111561524157615241614e14565b8085161561524e57918102915b93841c9390800290615225565b509250929050565b600082615272575060016108e8565b8161527f575060006108e8565b8160018114615295576002811461529f576152bb565b60019150506108e8565b60ff8411156152b0576152b0614e14565b50506001821b6108e8565b5060208310610133831016604e8410600b84101617156152de575081810a6108e8565b6152e88383615220565b80600019048211156152fc576152fc614e14565b029392505050565b6000611fe48383615263565b6020808252602b908201527f496e697469616c697a61626c653a20636f6e7472616374206973206e6f74206960408201526a6e697469616c697a696e6760a81b606082015260800190565b818103600083128015838313168383128216171561520357615203614e1456fea26469706673582212200da3adc74db4e1d8496dbaee580ee9d08ab29426138660f7596b859faafbeda764736f6c63430008110033",
  "deployedBytecode": "0x608060405234801561001057600080fd5b506004361061027f5760003560e01c8063a3d334a11161015c578063da12b235116100ce578063f2fde38b11610087578063f2fde38b14610770578063f3052d2614610783578063f7c3fec21461086d578063f9328d9414610880578063f9be94f214610893578063fb5ba8eb146108a657600080fd5b8063da12b2351461069c578063e6bebba5146106f7578063e8a353921461071a578063ef016cdd1461072b578063efdcd9741461073e578063f23a6e611461075157600080fd5b8063b99d519011610120578063b99d519014610651578063bc197c8114610664578063bf2de21a1461069c578063c007acf6146106af578063c7878a57146106c2578063c7cad905146106e457600080fd5b8063a3d334a1146105ea578063a88fd94a146105fb578063abdc10221461061b578063b505ab861461062e578063b5ca64ec1461064157600080fd5b80636b22e8e1116101f55780638da5cb5b116101b95780638da5cb5b14610577578063915e99131461034757806393fa058114610588578063940870dc1461059b57806394c4fa85146105ae578063a0595582146105d757600080fd5b80636b22e8e1146104f4578063714b847c14610519578063715018a61461053c57806378227cb0146105445780637902298e1461055757600080fd5b8063452b795711610247578063452b79571461032557806351d5d7f61461034757806357b41a71146103675780635ac44282146103955780635ba18df8146104ce5780635c4e7a05146104e157600080fd5b806301ffc9a714610284578063148dfdee146102ac5780631fb0a624146102c15780632204561e146102ef5780632c5dd8a914610312575b600080fd5b6102976102923660046143f5565b6108b7565b60405190151581526020015b60405180910390f35b6102bf6102ba366004614440565b6108ee565b005b6102d46102cf3660046144a9565b610a99565b604080519384526020840192909252908201526060016102a3565b6102976102fd3660046144cb565b60009081526098602052604090205460ff1690565b6102bf6103203660046144e4565b610c87565b60a554600160a01b900461ffff165b60405161ffff90911681526020016102a3565b61035a6103553660046144cb565b610c93565b6040516102a3919061453c565b6103876103753660046144cb565b6000908152609e602052604090205490565b6040519081526020016102a3565b6104626103a33660046144cb565b6040805160e081018252600080825260208201819052918101829052606081018290526080810182905260a0810182905260c0810191909152506000908152609b6020908152604091829020825160e08101845281548152600182015492810192909252600201546001600160a01b03811692820192909252600160a01b820463ffffffff166060820152600160c01b820461ffff166080820152600160d01b820460ff1660a0820152600160d81b90910462ffffff1660c082015290565b6040516102a3919081518152602080830151908201526040808301516001600160a01b03169082015260608083015163ffffffff169082015260808083015161ffff169082015260a08083015160ff169082015260c09182015162ffffff169181019190915260e00190565b6102bf6104dc3660046145a8565b610cf5565b6102bf6104ef36600461467e565b610d7a565b60a4546001600160a01b03165b6040516001600160a01b0390911681526020016102a3565b6102976105273660046144cb565b60009081526097602052604090205460ff1690565b6102bf610df0565b6103876105523660046144cb565b610e04565b61056a6105653660046144a9565b610e2e565b6040516102a3919061469b565b6033546001600160a01b0316610501565b6102d46105963660046144a9565b61110a565b6102bf6105a9366004614709565b611127565b6105016105bc3660046144cb565b6000908152609c60205260409020546001600160a01b031690565b6102bf6105e53660046144e4565b6112bd565b60a3546001600160a01b0316610501565b6103876106093660046144cb565b6000908152609f602052604090205490565b6102bf6106293660046147a2565b6112ff565b6102bf61063c366004614838565b611549565b610387683635c9adc5dea0000081565b60a554600160c01b900461ffff16610334565b6106836106723660046149a7565b63bc197c8160e01b95945050505050565b6040516001600160e01b031990911681526020016102a3565b61035a6106aa3660046144cb565b61198e565b6102bf6106bd366004614838565b6119ee565b6106d56106d0366004614a54565b611a16565b6040516102a393929190614a95565b60a554600160b01b900461ffff16610334565b6102976107053660046144cb565b60009081526099602052604090205460ff1690565b60a5546001600160a01b0316610501565b6102bf6107393660046144a9565b611a9d565b6102bf61074c36600461467e565b611b71565b61068361075f366004614b00565b63f23a6e6160e01b95945050505050565b6102bf61077e36600461467e565b611b7a565b6108606107913660046144cb565b6040805161010081018252600080825260208201819052918101829052606081018290526080810182905260a0810182905260c0810182905260e0810191909152506000908152609a602090815260409182902082516101008101845281548152600182015464ffffffffff81169382019390935261ffff600160281b8404169381019390935262ffffff600160381b830481166060850152600160501b9092049091166080830152600281015460a0830152600381015463ffffffff1660c08301526004015460e082015290565b6040516102a39190614b68565b6102bf61087b3660046144e4565b611bf0565b6102bf61088e366004614be3565b611bf9565b6102bf6108a1366004614c56565b611e5d565b60a2546001600160a01b0316610501565b60006301ffc9a760e01b6001600160e01b0319831614806108e85750630271189760e51b6001600160e01b03198316145b92915050565b60008581526097602052604090205460ff166109255760405163092483a160e11b8152600481018690526024015b60405180910390fd5b831580610937575064ffffffffff8316155b156109555760405163b4fa3fb360e01b815260040160405180910390fd5b6000858152609a602090815260409182902082516101008101845281548152600182015464ffffffffff81169382019390935261ffff600160281b840481169482019490945262ffffff600160381b840481166060830152600160501b9093049092166080830152600281015460a0830152600381015463ffffffff1660c0830152600481015460e0830152916109f0919087908616611fa6565b600482015584815560018101805464ffffffffff861666ffffffffffffff199091168117600160281b61ffff8716021769ffffff000000000000001916600160381b62ffffff86169081029190911790925560038301805463ffffffff19164263ffffffff1617905560405191825290869088907fa4cbd1903de80f86e1a9a2e630f758a278790366d92be399714a4938b763a0119060200160405180910390a4505050505050565b60008281526099602052604081205481908190859060ff16610ad157604051632e46319160e21b81526004810182905260240161091c565b85610adb81611feb565b15610afc57604051630406a37f60e01b81526004810182905260240161091c565b85600003610b1d5760405163b4fa3fb360e01b815260040160405180910390fd5b6000878152609f60209081526040808320548352609a909152812090610b4289612011565b604080516101008101825284548152600185015464ffffffffff8116602083015261ffff600160281b8204169282019290925262ffffff600160381b830481166060830152600160501b9092049091166080820152600284015460a0820152600384015463ffffffff1660c0820152600484015460e0820152909150600090610bcb908a612046565b60008c8152609b60209081526040918290206002015460a554835163313ce56760e01b81529351949650610c749550600160a01b9182900463ffffffff16948f9488949390920461ffff16926001600160a01b038a169263313ce56792600480830193928290030181865afa158015610c48573d6000803e3d6000fd5b505050506040513d601f19601f82011682018060405250810190610c6c9190614cf0565b60ff16612154565b919c909b50909950975050505050505050565b610c90816121f1565b50565b600081815260a06020908152604091829020805483518184028101840190945280845260609392830182828015610ce957602002820191906000526020600020905b815481526020019060010190808311610cd5575b50505050509050919050565b60405163043a3af960e51b815273__$49556f7947f3338075112416096ff342eb$__906387475f2090610d3f906097908d908d908d908d908d908d908d908d908d90600401614d3f565b60006040518083038186803b158015610d5757600080fd5b505af4158015610d6b573d6000803e3d6000fd5b50505050505050505050505050565b604051633273b49160e01b8152609760048201526001600160a01b038216602482015273__$49556f7947f3338075112416096ff342eb$__90633273b491906044015b60006040518083038186803b158015610dd557600080fd5b505af4158015610de9573d6000803e3d6000fd5b5050505050565b610df861223d565b610e026000612297565b565b60006097600a018281548110610e1c57610e1c614de5565b90600052602060002001549050919050565b60a1546060906000906001600160401b03811115610e4e57610e4e614864565b604051908082528060200260200182016040528015610eb157816020015b610e9e6040518060a0016040528060008152602001600081526020016000815260200160008152602001600081525090565b815260200190600190039081610e6c5790505b5090506000805b60a15481101561102d5760006097600a018281548110610eda57610eda614de5565b6000918252602080832090910154808352609b90915260409091206002015490915061ffff600160c01b9091041686141580610f2757506000818152609b60205260409020600101548714155b15610f32575061101b565b60a254604051627eeac760e11b8152306004820152602481018390526000916001600160a01b03169062fdd58e90604401602060405180830381865afa158015610f80573d6000803e3d6000fd5b505050506040513d601f19601f82011682018060405250810190610fa49190614dfb565b90506000806000610fbe85683635c9adc5dea000006122e9565b9250925092506040518060a0016040528086815260200185815260200184815260200183815260200182815250888881518110610ffd57610ffd614de5565b6020908102919091010152611013876001614e2a565b965050505050505b8061102581614e3d565b915050610eb8565b50806001600160401b0381111561104657611046614864565b6040519080825280602002602001820160405280156110a957816020015b6110966040518060a0016040528060008152602001600081526020016000815260200160008152602001600081525090565b8152602001906001900390816110645790505b50925060005b81811015611101578281815181106110c9576110c9614de5565b60200260200101518482815181106110e3576110e3614de5565b602002602001018190525080806110f990614e3d565b9150506110af565b50505092915050565b600080600061111985856122e9565b919790965090945092505050565b84831415806111365750848114155b156111545760405163b4fa3fb360e01b815260040160405180910390fd5b60015b8581101561120c576000609f8189898581811061117657611176614de5565b9050602002013581526020019081526020016000205490506000609760080160008a8a6001876111a69190614e56565b8181106111b5576111b5614de5565b9050602002013581526020019081526020016000205490508082146111f75760405163149e393360e31b8152600481018390526024810182905260440161091c565b5050808061120490614e3d565b915050611157565b5060005b8581101561127d5761126b87878381811061122d5761122d614de5565b9050602002013586868481811061124657611246614de5565b9050602002013585858581811061125f5761125f614de5565b905060200201356124aa565b8061127581614e3d565b915050611210565b506000609f818888828161129357611293614de5565b9050602002013581526020019081526020016000205490506112b481612751565b50505050505050565b60405163176b99f360e21b81526097600482015261ffff8216602482015273__$49556f7947f3338075112416096ff342eb$__90635dae67cc90604401610dbd565b600054610100900460ff161580801561131f5750600054600160ff909116105b806113395750303b158015611339575060005460ff166001145b61139c5760405162461bcd60e51b815260206004820152602e60248201527f496e697469616c697a61626c653a20636f6e747261637420697320616c72656160448201526d191e481a5b9a5d1a585b1a5e995960921b606482015260840161091c565b6000805460ff1916600117905580156113bf576000805461ff0019166101001790555b6113c7612998565b6113cf6129c7565b60a380546001600160a01b03808b166001600160a01b03199283161790925560a28054928a1692909116919091179055611408866121f1565b611411856129f6565b60405163176b99f360e21b81526097600482015261ffff8516602482015273__$49556f7947f3338075112416096ff342eb$__90635dae67cc9060440160006040518083038186803b15801561146657600080fd5b505af415801561147a573d6000803e3d6000fd5b5050505061148783612a42565b604051633273b49160e01b8152609760048201526001600160a01b038316602482015273__$49556f7947f3338075112416096ff342eb$__90633273b4919060440160006040518083038186803b1580156114e157600080fd5b505af41580156114f5573d6000803e3d6000fd5b50505050801561153f576000805461ff0019169055604051600181527f7f26b83ff96e1f2b6a682f133852f6798a09c465da95921460cefb38474024989060200160405180910390a15b5050505050505050565b60026065540361159b5760405162461bcd60e51b815260206004820152601f60248201527f5265656e7472616e637947756172643a207265656e7472616e742063616c6c00604482015260640161091c565b6002606555600083815260996020526040902054839060ff166115d457604051632e46319160e21b81526004810182905260240161091c565b836115de81611feb565b156115ff57604051630406a37f60e01b81526004810182905260240161091c565b836000036116205760405163b4fa3fb360e01b815260040160405180910390fd5b6000858152609f60209081526040808320548352609a825280832081516101008101835281548152600182015464ffffffffff81169482019490945261ffff600160281b8504169281019290925262ffffff600160381b840481166060840152600160501b9093049092166080820152600282015460a0820152600382015463ffffffff1660c082015260049091015460e082015281906116c19087612046565b9150915060006116d088612011565b6000898152609b602090815260408083206002015460a554825163313ce56760e01b815292519596509394859461174d94600160a01b9384900463ffffffff16948f948b94930461ffff16926001600160a01b038b169263313ce56792600480820193918290030181865afa158015610c48573d6000803e3d6000fd5b50915091508782101561177d576040516323fd80cf60e01b8152600481018390526024810189905260440161091c565b6117f78a858b61178d8587614e2a565b876001600160a01b031663313ce5676040518163ffffffff1660e01b8152600401602060405180830381865afa1580156117cb573d6000803e3d6000fd5b505050506040513d601f19601f820116820180604052508101906117ef9190614cf0565b60ff16612a8c565b60008a8152609f602052604090205461181290858b88612bcc565b6040516340c10f1960e01b8152336004820152602481018390526001600160a01b038416906340c10f1990604401600060405180830381600087803b15801561185a57600080fd5b505af115801561186e573d6000803e3d6000fd5b505060a5546040516340c10f1960e01b81526001600160a01b0391821660048201526024810185905290861692506340c10f199150604401600060405180830381600087803b1580156118c057600080fd5b505af11580156118d4573d6000803e3d6000fd5b505060a254604051637921219560e11b81526001600160a01b03909116925063f242432a915061190e90339030908f908f90600401614e69565b600060405180830381600087803b15801561192857600080fd5b505af115801561193c573d6000803e3d6000fd5b5050604080518c8152602081018690523393508d92507f996fd5dc95553bf61923ea1e658357de4a30175141a8fab02ae6ae2ed8c6d32e910160405180910390a3505060016065555050505050505050565b6000818152609d6020908152604091829020805483518184028101840190945280845260609392830182828015610ce95760200282019190600052602060002090815481526020019060010190808311610cd55750505050509050919050565b6119f98383836124aa565b6000838152609f6020526040902054611a1190612751565b505050565b60405162dbb45760e51b81526060908190819073__$49556f7947f3338075112416096ff342eb$__90631b768ae090611a589060979089908990600401614ea1565b600060405180830381865af4158015611a75573d6000803e3d6000fd5b505050506040513d6000823e601f3d908101601f191682016040526111199190810190614f1f565b60008281526097602052604090205460ff16611acf5760405163092483a160e11b81526004810183905260240161091c565b60008181526098602052604090205460ff1615611b025760405163c5e0852d60e01b81526004810182905260240161091c565b6000828152609d6020908152604080832080546001818101835591855283852001859055848452609e83528184208690556098909252808320805460ff19169092179091555182917f1ac2092e16e28eef29d1832f3dc69da1b21284a1f3159d3b26cb238b22fe4f8a91a25050565b610c9081612a42565b611b8261223d565b6001600160a01b038116611be75760405162461bcd60e51b815260206004820152602660248201527f4f776e61626c653a206e6577206f776e657220697320746865207a65726f206160448201526564647265737360d01b606482015260840161091c565b610c9081612297565b610c90816129f6565b60208083013560009081526098909152604090205460ff16611c3457604051633223e66d60e21b81526020830135600482015260240161091c565b813560009081526099602052604090205460ff1615611c6957604051633903fb6760e01b81528235600482015260240161091c565b6000611c7b606084016040850161467e565b6001600160a01b031603611ca25760405163b60aa6f160e01b815260040160405180910390fd5b42611cb36080840160608501615019565b63ffffffff1611611cf057611cce6080830160608401615019565b604051631ece70f360e01b815263ffffffff909116600482015260240161091c565b81356000908152609960209081526040808320805460ff19166001179055609b90915290208290611d218282615050565b505060a18054600181810190925583357faadc37b8ba5645e62f4546802db221593a94729ccbfc5a97d01365a88f649878909101819055602080850135600081815260a083526040808220805496870181558252838220909501849055908152609e825283812054928152609f9091528290205560a2546001600160a01b03169063731133e990611db8906060860190860161467e565b60405160e083901b6001600160e01b03191681526001600160a01b0390911660048201528435602482015260448101849052608060648201526000608482015260a401600060405180830381600087803b158015611e1557600080fd5b505af1158015611e29573d6000803e3d6000fd5b5050604051843592507f2354c6982830f23074cbadd3a8326546827ca5be87b6cfe41e906c66e75cd9659150600090a25050565b60008681526097602052604090205460ff1615611e9057604051631e506c6d60e31b81526004810187905260240161091c565b60008681526097602052604090819020805460ff1916600117905560a354905163b548848760e01b81526001600160a01b039091169063b548848790611ee0908890889088908890600401615154565b6020604051808303816000875af1158015611eff573d6000803e3d6000fd5b505050506040513d601f19601f82011682018060405250810190611f23919061517b565b6000878152609c6020908152604080832080546001600160a01b0319166001600160a01b039590951694909417909355609a9052818120600101805462ffffff60501b1916600160501b62ffffff861602179055905187917fafc348cb919473b1b9a1f5712a5d6d3176cdf7a5295bd4709b8cf37b5219832691a2505050505050565b82516000901580611fc05750602084015164ffffffffff16155b15611fd657611fcf8383612cc8565b9050611fe4565b611fe1848484612cd6565b90505b9392505050565b6000908152609b602052604090206002015442600160a01b90910463ffffffff16111590565b6000908152609b60209081526040808320600101548352609e8252808320548352609c9091529020546001600160a01b031690565b6000808360000151600003612069575050608082015160009062ffffff1661214d565b61208d846020015164ffffffffff168560e001518660c0015163ffffffff16612d51565b9150600061209c6002856151ae565b6120a69084614e2a565b905060006120c882620f4240886000015160646120c391906151d0565b612da4565b9050620f424081106120f05760405163c72b5be960e01b81526004810186905260240161091c565b60006120fb82612e53565b9050808760600151886080015161211291906151e7565b62ffffff166121219190614e2a565b9350620f424084106121495760405163c72b5be960e01b81526004810187905260240161091c565b5050505b9250929050565b60008060004288116121685761216861520a565b6000612174878a612ed7565b90506000612199612185838b6151d0565b61219088600a615304565b620f4240612da4565b905060006121aa8289612710612da4565b905060006121b88284614e56565b90506000836121c88a600a615304565b6121d2908e6151d0565b6121dc9190614e56565b919d929c50909a509098505050505050505050565b60a5805461ffff60a01b1916600160a01b61ffff8416908102919091179091556040517f3a9c3d19b54b2e3f3f98d9114e62f0bae208d7e9b303286f2ffc42c95d7813c390600090a250565b6033546001600160a01b03163314610e025760405162461bcd60e51b815260206004820181905260248201527f4f776e61626c653a2063616c6c6572206973206e6f7420746865206f776e6572604482015260640161091c565b603380546001600160a01b038381166001600160a01b0319831681179093556040519116919082907f8be0079c531659141344cd1fd0a4f28419497f9722a3daafe3b4186f6b6457e090600090a35050565b60008281526099602052604081205481908190859060ff1661232157604051632e46319160e21b81526004810182905260240161091c565b600061232c87612011565b6000888152609b60209081526040918290206002015460a554835163313ce56760e01b815293519495506123e394600160a01b830463ffffffff16948c94600160d81b90940462ffffff1693600160b01b90930461ffff16926001600160a01b0389169263313ce5679260048082019392918290030181865afa1580156123b7573d6000803e3d6000fd5b505050506040513d601f19601f820116820180604052508101906123db9190614cf0565b60ff16612f66565b50506000888152609b60209081526040918290206002015460a554835163313ce56760e01b8152935194995061249c94600160a01b830463ffffffff16948b94600160d81b90940462ffffff1693600160b01b90930461ffff16926001600160a01b0389169263313ce5679260048082019392918290030181865afa158015612470573d6000803e3d6000fd5b505050506040513d601f19601f820116820180604052508101906124949190614cf0565b60ff16612fd1565b959890975094955050505050565b6002606554036124fc5760405162461bcd60e51b815260206004820152601f60248201527f5265656e7472616e637947756172643a207265656e7472616e742063616c6c00604482015260640161091c565b6002606555600083815260996020526040902054839060ff1661253557604051632e46319160e21b81526004810182905260240161091c565b600061254085612011565b6000868152609b602090815260408083206002015460a554825163313ce56760e01b815292519596509394859485946125ce94600160a01b850463ffffffff16948d94600160d81b90910462ffffff1693600160b01b900461ffff16926001600160a01b038c169263313ce56792600480830193928290030181865afa1580156123b7573d6000803e3d6000fd5b925092509250600083116125f857604051630a255ea560e41b81526004810184905260240161091c565b85831015612623576040516323fd80cf60e01b8152600481018490526024810187905260440161091c565b60405163079cc67960e41b8152336004820152602481018290526001600160a01b038516906379cc679090604401600060405180830381600087803b15801561266b57600080fd5b505af115801561267f573d6000803e3d6000fd5b505060a55461269d925086915033906001600160a01b03168561302c565b60a254604051637921219560e11b81526001600160a01b039091169063f242432a906126d390309033908d908990600401614e69565b600060405180830381600087803b1580156126ed57600080fd5b505af1158015612701573d6000803e3d6000fd5b5050604080518a8152602081018790523393508b92507f0a2adf4ac4fa3544a2c794e5ba57a755d18102bb19672742fcc48f87e5c1fce3910160405180910390a350506001606555505050505050565b6000818152609d602052604081208190815b81548110156128c457600082828154811061278057612780614de5565b600091825260208083209091015480835260a090915260408220909250905b81548110156128ae5760008282815481106127bc576127bc614de5565b600091825260208220015460a254604051627eeac760e11b8152306004820152602481018390529193506001600160a01b03169062fdd58e90604401602060405180830381865afa158015612815573d6000803e3d6000fd5b505050506040513d601f19601f820116820180604052508101906128399190614dfb565b905080158061284c575061284c82611feb565b1561285857505061289c565b6000828152609b6020526040902060020154612881908290600160d81b900462ffffff166151d0565b61288b908a614e2a565b98506128978189614e2a565b975050505b806128a681614e3d565b91505061279f565b50505080806128bc90614e3d565b915050612763565b5081600003612924576000848152609a602052604080822060028101839055600101549051600160501b90910462ffffff169086907fd0c98409f17c45dc9f0e272df73b5b8056534c9822bb3f6d02f91c9922a9f95e908490a450505050565b600061293083856151ae565b6000868152609a602052604080822060018101805462ffffff60501b1916600160501b62ffffff871602179055600201869055519192508491839188917fd0c98409f17c45dc9f0e272df73b5b8056534c9822bb3f6d02f91c9922a9f95e9190a45050505050565b600054610100900460ff166129bf5760405162461bcd60e51b815260040161091c90615310565b610e026130c7565b600054610100900460ff166129ee5760405162461bcd60e51b815260040161091c90615310565b610e026130f7565b60a5805461ffff60b01b1916600160b01b61ffff8416908102919091179091556040517f3a1bac3fdaf2d00c05b0cb3e9dce0dbaa14b865551f42b7b4755ebed6d08daf190600090a250565b60a580546001600160a01b0319166001600160a01b0383169081179091556040517f27aae5db36d94179909d019ae0b1ac7c16d96d953148f63c0f6a0a9c8ead79ee90600090a250565b6000858152609b602052604080822060a25481549251627eeac760e11b815230600482015260248101939093529092916001600160a01b039091169062fdd58e90604401602060405180830381865afa158015612aed573d6000803e3d6000fd5b505050506040513d601f19601f82011682018060405250810190612b119190614dfb565b905080600003612b3e5750600201805462ffffff60d81b1916600160d81b62ffffff871602179055610de9565b6002820154600090612b6d90600160a01b810463ffffffff16908490600160d81b900462ffffff168488612154565b50509050612ba28582612b809190614e2a565b612b8a8885614e2a565b6002860154600160a01b900463ffffffff1687613125565b83600201601b6101000a81548162ffffff021916908362ffffff1602179055505050505050505050565b6000848152609a602052604081206002810154909190612bed908590614e2a565b612bf785876151d0565b60028401546001850154612c179190600160501b900462ffffff166151d0565b612c219190614e2a565b612c2b91906151ae565b60018301805462ffffff60501b1916600160501b62ffffff8416021790556002830180549192508591600090612c62908490614e2a565b90915550612c7290508484614e2a565b600483015560038201805463ffffffff19164263ffffffff161790556002820154604051829088907fd0c98409f17c45dc9f0e272df73b5b8056534c9822bb3f6d02f91c9922a9f95e90600090a4505050505050565b6000611fe48383600a612da4565b6000612cfc846020015164ffffffffff168560e001518660c0015163ffffffff16612d51565b9050612d0d81848660000151612da4565b90506000846040015161ffff1683612d25919061535b565b90506000811315612d4957612d3c8482600a612da4565b612d469083614e2a565b91505b509392505050565b600080612d5e8342614e56565b90506000612d6c86836151d0565b612d7b9064174876e80061535b565b9050612d886000826131e0565b9050612d9a858264174876e800612da4565b9695505050505050565b6000808060001985870985870292508281108382030391505080600003612dde57838281612dd457612dd4615198565b0492505050611fe4565b808411612dea57600080fd5b60008486880960026001871981018816978890046003810283188082028403028082028403028082028403028082028403028082028403029081029092039091026000889003889004909101858311909403939093029303949094049190911702949350505050565b600080612e6383620f4240614e56565b90506000612e7482620f42406131f7565b90506000612e8182613231565b90506000612e95612e9061326b565b61327f565b90506000612eab612ea684846132d4565b61330b565b90506000612ebc82620f4240613360565b9050612ecb81620f4240614e56565b98975050505050505050565b600080612ee442846133cb565b905080600003612efa57620f42409150506108e8565b80600103612f1757612f0f84620f4240614e56565b9150506108e8565b6000612f2685620f4240614e56565b90506000612f3782620f42406131f7565b90506000612f4f82612f4a600187614e56565b613427565b9050612f5b8184613360565b979650505050505050565b600080600080612f798887612710612da4565b90506000612f87828a614e56565b90506000612f95898c612ed7565b90506000612fa783620f424084612da4565b9050612fb488600a615304565b612fbe90826151ae565b9c939b5091995091975050505050505050565b6000806000612fe08689612ed7565b90506000612ffc612ff1838a6151d0565b61219087600a615304565b905061300f816127106120c38982614e56565b935061301e8487612710612da4565b925050509550959350505050565b6040516323b872dd60e01b8082526001600160a01b038581166004840152841660248301526044820183905290600080606483828a5af1613071573d6000803e3d6000fd5b5061307b85613640565b610de95760405162461bcd60e51b815260206004820152601960248201527f475076323a206661696c6564207472616e7366657246726f6d00000000000000604482015260640161091c565b600054610100900460ff166130ee5760405162461bcd60e51b815260040161091c90615310565b610e0233612297565b600054610100900460ff1661311e5760405162461bcd60e51b815260040161091c90615310565b6001606555565b6000841580159061313557508315155b6131415761314161520a565b600061314d42856133cb565b9050806000036131615760009150506131d8565b600061316f612e90836136e8565b905060006131918861318287600a615304565b61318c908a6151d0565b6131f7565b9050600061319e82613231565b905060006131af612ea683866132d4565b905060006131c082620f4240613360565b90506131cf81620f4240614e56565b96505050505050505b949350505050565b6000818312156131f05781611fe4565b5090919050565b60008160000361320657600080fd5b60006132128484613706565b905060016001607f1b036001600160801b0382161115611fe457600080fd5b60008082600f0b1361324257600080fd5b608061324d8361386b565b600f0b6fb17217f7d1cf79abc9e3b39803f2f6af02901c9050919050565b600061327a610209600a6131f7565b905090565b600081600f0b60000361329157600080fd5b600082600f0b600160801b816132a9576132a9615198565b05905060016001607f1b031981128015906132cb575060016001607f1b038113155b6108e857600080fd5b6000600f83810b9083900b0260401d60016001607f1b03198112801590613302575060016001607f1b038113155b611fe457600080fd5b6000600160461b82600f0b1261332057600080fd5b683fffffffffffffffff1982600f0b121561333d57506000919050565b6108e8608083600f0b700171547652b82fe1777d0ffda0d23a7d1202901d613946565b600081600003613372575060006108e8565b600083600f0b121561338357600080fd5b600f83900b6001600160801b038316810260401c90608084901c026001600160c01b038111156133b257600080fd5b60401b81198111156133c357600080fd5b019392505050565b60008215806133d8575081155b1561340057604051631c5dcecf60e31b8152600481018490526024810183905260440161091c565b82821161340f575060006108e8565b62093a8061341d8484614e56565b611fe491906151ae565b600080600084600f0b1280156134405750826001166001145b905060008085600f0b126134545784613459565b846000035b6001600160801b03169050600160801b600160401b82116134ee57603f82901b91505b84156134e6576001851615613491578102607f1c5b908002607f1c9060028516156134a7578102607f1c5b908002607f1c9060048516156134bd578102607f1c5b908002607f1c9060088516156134d3578102607f1c5b60049490941c93908002607f1c9061347c565b60401c613604565b603f600160601b8310156135085760209290921b91601f19015b600160701b8310156135205760109290921b91600f19015b600160781b8310156135385760089290921b91600719015b6001607c1b8310156135505760049290921b91600319015b6001607e1b8310156135685760029290921b91600119015b6001607f1b8310156135805760019290921b91600019015b60005b86156135ed576040821061359657600080fd5b60018716156135bc57918302607f1c918101600160801b8311156135bc57600192831c92015b928002607f1c9260019190911b90600160801b84106135e157600193841c9391909101905b600187901c9650613583565b604081106135fa57600080fd5b6040039190911c90505b6000836136115781613616565b816000035b905060016001607f1b03198112801590613637575060016001607f1b038113155b612d9a57600080fd5b6000613665565b62461bcd60e51b600052602060045280602452508060445260646000fd5b3d80156136a457602081146136d55761369f7f475076323a206d616c666f726d6564207472616e7366657220726573756c7400601f613647565b6136e2565b823b6136cc576136cc7311d41d8c8e881b9bdd08184818dbdb9d1c9858dd60621b6014613647565b600191506136e2565b3d6000803e600051151591505b50919050565b6000677fffffffffffffff8211156136ff57600080fd5b5060401b90565b60008160000361371557600080fd5b60006001600160c01b0384116137405782604085901b8161373857613738615198565b049050613857565b60c084811c6401000000008110613759576020918201911c5b62010000811061376b576010918201911c5b610100811061377c576008918201911c5b6010811061378c576004918201911c5b6004811061379c576002918201911c5b600281106137ab576001820191505b60bf820360018603901c6001018260ff0387901b816137cc576137cc615198565b0492506001600160801b038311156137e357600080fd5b608085901c83026001600160801b038616840260c088901c604089901b8281101561380f576001820391505b608084901b92900382811015613826576001820391505b829003608084901c821461383c5761383c61520a565b88818161384b5761384b615198565b04870196505050505050505b6001600160801b03811115611fe457600080fd5b60008082600f0b1361387c57600080fd5b6000600f83900b600160401b8112613896576040918201911d5b64010000000081126138aa576020918201911d5b6201000081126138bc576010918201911d5b61010081126138cd576008918201911d5b601081126138dd576004918201911d5b600481126138ed576002918201911d5b600281126138fc576001820191505b603f19820160401b600f85900b607f8490031b6001603f1b5b600081131561393b5790800260ff81901c8281029390930192607f011c9060011d613915565b509095945050505050565b6000600160461b82600f0b1261395b57600080fd5b683fffffffffffffffff1982600f0b121561397857506000919050565b6001607f1b60006001603f1b8416600f0b13156139a65770016a09e667f3bcc908b2fb1366ea957d3e0260801c5b60008367400000000000000016600f0b13156139d3577001306fe0a31b7152de8d5a46305c85edec0260801c5b60008367200000000000000016600f0b1315613a00577001172b83c7d517adcdf7c8c50eb14a791f0260801c5b60008367100000000000000016600f0b1315613a2d5770010b5586cf9890f6298b92b71842a983630260801c5b60008367080000000000000016600f0b1315613a5a577001059b0d31585743ae7c548eb68ca417fd0260801c5b60008367040000000000000016600f0b1315613a8757700102c9a3e778060ee6f7caca4f7a29bde80260801c5b60008367020000000000000016600f0b1315613ab45770010163da9fb33356d84a66ae336dcdfa3f0260801c5b600083600160381b16600f0b1315613add57700100b1afa5abcbed6129ab13ec11dc95430260801c5b600083668000000000000016600f0b1315613b095770010058c86da1c09ea1ff19d294cf2f679b0260801c5b600083664000000000000016600f0b1315613b35577001002c605e2e8cec506d21bfc89a23a00f0260801c5b600083662000000000000016600f0b1315613b6157700100162f3904051fa128bca9c55c31e5df0260801c5b600083661000000000000016600f0b1315613b8d577001000b175effdc76ba38e31671ca9397250260801c5b600083660800000000000016600f0b1315613bb957700100058ba01fb9f96d6cacd4b180917c3d0260801c5b600083660400000000000016600f0b1315613be55770010002c5cc37da9491d0985c348c68e7b30260801c5b600083660200000000000016600f0b1315613c11577001000162e525ee054754457d59952920260260801c5b600083660100000000000016600f0b1315613c3d5770010000b17255775c040618bf4a4ade83fc0260801c5b6000836580000000000016600f0b1315613c68577001000058b91b5bc9ae2eed81e9b7d4cfab0260801c5b6000836540000000000016600f0b1315613c9357700100002c5c89d5ec6ca4d7c8acc017b7c90260801c5b6000836520000000000016600f0b1315613cbe5770010000162e43f4f831060e02d839a9d16d0260801c5b6000836510000000000016600f0b1315613ce957700100000b1721bcfc99d9f890ea069117630260801c5b6000836508000000000016600f0b1315613d145770010000058b90cf1e6d97f9ca14dbcc16280260801c5b6000836504000000000016600f0b1315613d3f577001000002c5c863b73f016468f6bac5ca2b0260801c5b6000836502000000000016600f0b1315613d6a57700100000162e430e5a18f6119e3c02282a50260801c5b600083600160281b16600f0b1315613d93577001000000b1721835514b86e6d96efd1bfe0260801c5b60008364800000000016600f0b1315613dbd57700100000058b90c0b48c6be5df846c5b2ef0260801c5b60008364400000000016600f0b1315613de75770010000002c5c8601cc6b9e94213c72737a0260801c5b60008364200000000016600f0b1315613e11577001000000162e42fff037df38aa2b219f060260801c5b60008364100000000016600f0b1315613e3b5770010000000b17217fba9c739aa5819f44f90260801c5b60008364080000000016600f0b1315613e65577001000000058b90bfcdee5acd3c1cedc8230260801c5b60008364040000000016600f0b1315613e8f57700100000002c5c85fe31f35a6a30da1be500260801c5b60008364020000000016600f0b1315613eb95770010000000162e42ff0999ce3541b9fffcf0260801c5b60008364010000000016600f0b1315613ee357700100000000b17217f80f4ef5aadda455540260801c5b600083638000000016600f0b1315613f0c5770010000000058b90bfbf8479bd5a81b51ad0260801c5b600083634000000016600f0b1315613f35577001000000002c5c85fdf84bd62ae30a74cc0260801c5b600083632000000016600f0b1315613f5e57700100000000162e42fefb2fed257559bdaa0260801c5b600083631000000016600f0b1315613f87577001000000000b17217f7d5a7716bba4a9ae0260801c5b600083630800000016600f0b1315613fb057700100000000058b90bfbe9ddbac5e109cce0260801c5b600083630400000016600f0b1315613fd95770010000000002c5c85fdf4b15de6f17eb0d0260801c5b600083630200000016600f0b1315614002577001000000000162e42fefa494f1478fde050260801c5b600083630100000016600f0b131561402b5770010000000000b17217f7d20cf927c8e94c0260801c5b6000836280000016600f0b1315614053577001000000000058b90bfbe8f71cb4e4b33d0260801c5b6000836240000016600f0b131561407b57700100000000002c5c85fdf477b662b269450260801c5b6000836220000016600f0b13156140a35770010000000000162e42fefa3ae53369388c0260801c5b6000836210000016600f0b13156140cb57700100000000000b17217f7d1d351a389d400260801c5b6000836208000016600f0b13156140f35770010000000000058b90bfbe8e8b2d3d4ede0260801c5b6000836204000016600f0b131561411b577001000000000002c5c85fdf4741bea6e77e0260801c5b6000836202000016600f0b131561414357700100000000000162e42fefa39fe95583c20260801c5b6000836201000016600f0b131561416b577001000000000000b17217f7d1cfb72b45e10260801c5b60008361800016600f0b131561419257700100000000000058b90bfbe8e7cc35c3f00260801c5b60008361400016600f0b13156141b95770010000000000002c5c85fdf473e242ea380260801c5b60008361200016600f0b13156141e0577001000000000000162e42fefa39f02b772c0260801c5b60008361100016600f0b13156142075770010000000000000b17217f7d1cf7d83c1a0260801c5b60008361080016600f0b131561422e577001000000000000058b90bfbe8e7bdcbe2e0260801c5b60008361040016600f0b131561425557700100000000000002c5c85fdf473dea871f0260801c5b60008361020016600f0b131561427c5770010000000000000162e42fefa39ef44d910260801c5b60008361010016600f0b13156142a357700100000000000000b17217f7d1cf79e9490260801c5b600083608016600f0b13156142c95770010000000000000058b90bfbe8e7bce5440260801c5b600083604016600f0b13156142ef577001000000000000002c5c85fdf473de6eca0260801c5b600083602016600f0b131561431557700100000000000000162e42fefa39ef366f0260801c5b600083601016600f0b131561433b577001000000000000000b17217f7d1cf79afa0260801c5b600083600816600f0b131561436157700100000000000000058b90bfbe8e7bcd6d0260801c5b600083600416600f0b13156143875770010000000000000002c5c85fdf473de6b20260801c5b600083600216600f0b13156143ad577001000000000000000162e42fefa39ef3580260801c5b600083600116600f0b13156143d35770010000000000000000b17217f7d1cf79ab0260801c5b600f83810b60401d603f03900b1c60016001607f1b038111156108e857600080fd5b60006020828403121561440757600080fd5b81356001600160e01b031981168114611fe457600080fd5b61ffff81168114610c9057600080fd5b62ffffff81168114610c9057600080fd5b600080600080600060a0868803121561445857600080fd5b8535945060208601359350604086013564ffffffffff8116811461447b57600080fd5b9250606086013561448b8161441f565b9150608086013561449b8161442f565b809150509295509295909350565b600080604083850312156144bc57600080fd5b50508035926020909101359150565b6000602082840312156144dd57600080fd5b5035919050565b6000602082840312156144f657600080fd5b8135611fe48161441f565b600081518084526020808501945080840160005b8381101561453157815187529582019590820190600101614515565b509495945050505050565b602081526000611fe46020830184614501565b60008083601f84011261456157600080fd5b5081356001600160401b0381111561457857600080fd5b6020830191508360208260051b850101111561214d57600080fd5b6001600160a01b0381168114610c9057600080fd5b600080600080600080600080600060a08a8c0312156145c657600080fd5b89356001600160401b03808211156145dd57600080fd5b6145e98d838e0161454f565b909b50995060208c013591508082111561460257600080fd5b61460e8d838e0161454f565b909950975060408c013591508082111561462757600080fd5b6146338d838e0161454f565b909750955060608c013591508082111561464c57600080fd5b506146598c828d0161454f565b90945092505060808a013561466d81614593565b809150509295985092959850929598565b60006020828403121561469057600080fd5b8135611fe481614593565b602080825282518282018190526000919060409081850190868401855b828110156146fc5781518051855286810151878601528581015186860152606080820151908601526080908101519085015260a090930192908501906001016146b8565b5091979650505050505050565b6000806000806000806060878903121561472257600080fd5b86356001600160401b038082111561473957600080fd5b6147458a838b0161454f565b9098509650602089013591508082111561475e57600080fd5b61476a8a838b0161454f565b9096509450604089013591508082111561478357600080fd5b5061479089828a0161454f565b979a9699509497509295939492505050565b600080600080600080600060e0888a0312156147bd57600080fd5b87356147c881614593565b965060208801356147d881614593565b955060408801356147e88161441f565b945060608801356147f88161441f565b935060808801356148088161441f565b925060a088013561481881614593565b915060c088013561482881614593565b8091505092959891949750929550565b60008060006060848603121561484d57600080fd5b505081359360208301359350604090920135919050565b634e487b7160e01b600052604160045260246000fd5b604051601f8201601f191681016001600160401b03811182821017156148a2576148a2614864565b604052919050565b60006001600160401b038211156148c3576148c3614864565b5060051b60200190565b600082601f8301126148de57600080fd5b813560206148f36148ee836148aa565b61487a565b82815260059290921b8401810191818101908684111561491257600080fd5b8286015b8481101561492d5780358352918301918301614916565b509695505050505050565b600082601f83011261494957600080fd5b81356001600160401b0381111561496257614962614864565b614975601f8201601f191660200161487a565b81815284602083860101111561498a57600080fd5b816020850160208301376000918101602001919091529392505050565b600080600080600060a086880312156149bf57600080fd5b85356149ca81614593565b945060208601356149da81614593565b935060408601356001600160401b03808211156149f657600080fd5b614a0289838a016148cd565b94506060880135915080821115614a1857600080fd5b614a2489838a016148cd565b93506080880135915080821115614a3a57600080fd5b50614a4788828901614938565b9150509295509295909350565b60008060208385031215614a6757600080fd5b82356001600160401b03811115614a7d57600080fd5b614a898582860161454f565b90969095509350505050565b606080825284519082018190526000906020906080840190828801845b82811015614ad75781516001600160a01b031684529284019290840190600101614ab2565b50505083810382850152614aeb8187614501565b9150508281036040840152612d9a8185614501565b600080600080600060a08688031215614b1857600080fd5b8535614b2381614593565b94506020860135614b3381614593565b9350604086013592506060860135915060808601356001600160401b03811115614b5c57600080fd5b614a4788828901614938565b6000610100820190508251825264ffffffffff602084015116602083015261ffff6040840151166040830152606083015162ffffff8082166060850152806080860151166080850152505060a083015160a083015260c0830151614bd460c084018263ffffffff169052565b5060e092830151919092015290565b600080828403610100811215614bf857600080fd5b60e0811215614c0657600080fd5b50919360e08501359350915050565b60008083601f840112614c2757600080fd5b5081356001600160401b03811115614c3e57600080fd5b60208301915083602082850101111561214d57600080fd5b60008060008060008060808789031215614c6f57600080fd5b8635955060208701356001600160401b0380821115614c8d57600080fd5b614c998a838b01614c15565b90975095506040890135915080821115614cb257600080fd5b50614cbf89828a01614c15565b9094509250506060870135614cd38161442f565b809150509295509295509295565b60ff81168114610c9057600080fd5b600060208284031215614d0257600080fd5b8151611fe481614ce1565b81835260006001600160fb1b03831115614d2657600080fd5b8260051b80836020870137939093016020019392505050565b8a81526000602060c081840152614d5a60c084018c8e614d0d565b83810360408501528981528a90820160005b8b811015614d9a578235614d7f81614593565b6001600160a01b031682529183019190830190600101614d6c565b508481036060860152614dae818a8c614d0d565b925050508281036080840152614dc5818688614d0d565b91505060018060a01b03831660a08301529b9a5050505050505050505050565b634e487b7160e01b600052603260045260246000fd5b600060208284031215614e0d57600080fd5b5051919050565b634e487b7160e01b600052601160045260246000fd5b808201808211156108e8576108e8614e14565b600060018201614e4f57614e4f614e14565b5060010190565b818103818111156108e8576108e8614e14565b6001600160a01b0394851681529290931660208301526040820152606081019190915260a06080820181905260009082015260c00190565b838152604060208201526000614ebb604083018486614d0d565b95945050505050565b600082601f830112614ed557600080fd5b81516020614ee56148ee836148aa565b82815260059290921b84018101918181019086841115614f0457600080fd5b8286015b8481101561492d5780518352918301918301614f08565b600080600060608486031215614f3457600080fd5b83516001600160401b0380821115614f4b57600080fd5b818601915086601f830112614f5f57600080fd5b81516020614f6f6148ee836148aa565b82815260059290921b8401810191818101908a841115614f8e57600080fd5b948201945b83861015614fb5578551614fa681614593565b82529482019490820190614f93565b91890151919750909350505080821115614fce57600080fd5b614fda87838801614ec4565b93506040860151915080821115614ff057600080fd5b50614ffd86828701614ec4565b9150509250925092565b63ffffffff81168114610c9057600080fd5b60006020828403121561502b57600080fd5b8135611fe481615007565b600081356108e881614ce1565b600081356108e88161442f565b813581556020820135600182015560028101604083013561507081614593565b8154606085013561508081615007565b608086013561508e8161441f565b61ffff60c01b60c09190911b166001600160a01b03939093166001600160d01b0319929092169190911763ffffffff60a01b60a092831b16179190911782556150fa906150dc908501615036565b82805460ff60d01b191660d09290921b60ff60d01b16919091179055565b611a1161510960c08501615043565b82805462ffffff60d81b191660d89290921b62ffffff60d81b16919091179055565b81835281816020850137506000828201602090810191909152601f909101601f19169091010190565b60408152600061516860408301868861512b565b8281036020840152612f5b81858761512b565b60006020828403121561518d57600080fd5b8151611fe481614593565b634e487b7160e01b600052601260045260246000fd5b6000826151cb57634e487b7160e01b600052601260045260246000fd5b500490565b80820281158282048414176108e8576108e8614e14565b62ffffff82811682821603908082111561520357615203614e14565b5092915050565b634e487b7160e01b600052600160045260246000fd5b600181815b8085111561525b57816000190482111561524157615241614e14565b8085161561524e57918102915b93841c9390800290615225565b509250929050565b600082615272575060016108e8565b8161527f575060006108e8565b8160018114615295576002811461529f576152bb565b60019150506108e8565b60ff8411156152b0576152b0614e14565b50506001821b6108e8565b5060208310610133831016604e8410600b84101617156152de575081810a6108e8565b6152e88383615220565b80600019048211156152fc576152fc614e14565b029392505050565b6000611fe48383615263565b6020808252602b908201527f496e697469616c697a61626c653a20636f6e7472616374206973206e6f74206960408201526a6e697469616c697a696e6760a81b606082015260800190565b818103600083128015838313168383128216171561520357615203614e1456fea26469706673582212200da3adc74db4e1d8496dbaee580ee9d08ab29426138660f7596b859faafbeda764736f6c63430008110033",
  "libraries": {
    "WeeklyCarbonRewards": "0x0b9B3f30EBb3E9480088ac8a19021e4C47972453"
  },
  "devdoc": {
    "kind": "dev",
    "methods": {
      "bulkDecollateralizeTokens(uint256[],uint256[],uint256[])": {
        "details": "Bulk-decollateralizes ERC20 tokens into multiple ERC1155 tokens with specified amountsprior to calling, msg.sender must approve SolidWorldManager to spend `sum(amountsIn)` ERC20 tokensnonReentrant (_decollateralizeTokens), to avoid possible reentrancy after calling safeTransferFrom_batchIds must belong to the same Categorywill trigger a rebalance of the Category",
        "params": {
          "_batchIds": "ids of the batches",
          "amountsIn": "ERC20 tokens to decollateralize",
          "amountsOutMin": "minimum output amounts of ERC1155 tokens for transaction to succeed"
        }
      },
      "collateralizeBatch(uint256,uint256,uint256)": {
        "details": "Collateralizes `amountIn` of ERC1155 tokens with id `batchId` for msg.senderprior to calling, msg.sender must approve SolidWorldManager to spend its ERC1155 tokens with id `batchId`nonReentrant, to avoid possible reentrancy after calling safeTransferFrom",
        "params": {
          "amountIn": "ERC1155 tokens to collateralize",
          "amountOutMin": "minimum output amount of ERC20 tokens for transaction to succeed",
          "batchId": "id of the batch"
        }
      },
      "computeWeeklyCarbonRewards(uint256[])": {
        "params": {
          "_categoryIds": "The categories to which the incentivized assets belong"
        },
        "returns": {
          "carbonRewards": "List of carbon rewards getting distributed.",
          "rewardAmounts": "List of carbon reward amounts getting distributed",
          "rewardFees": "List of fee amounts charged by the DAO on carbon rewards"
        }
      },
      "decollateralizeTokens(uint256,uint256,uint256)": {
        "details": "Decollateralizes `amountIn` of ERC20 tokens and sends `amountOut` ERC1155 tokens with id `batchId` to msg.senderprior to calling, msg.sender must approve SolidWorldManager to spend `amountIn` ERC20 tokensnonReentrant (_decollateralizeTokens), to avoid possible reentrancy after calling safeTransferFromwill trigger a rebalance of the Category",
        "params": {
          "amountIn": "ERC20 tokens to decollateralize",
          "amountOutMin": "minimum output amount of ERC1155 tokens for transaction to succeed",
          "batchId": "id of the batch"
        }
      },
      "getBatchesDecollateralizationInfo(uint256,uint256)": {
        "details": "Computes relevant info for the decollateralization process involving batches that match the specified `projectId` and `vintage`",
        "params": {
          "projectId": "id of the project the batch belongs to",
          "vintage": "vintage of the batch"
        },
        "returns": {
          "result": "array of relevant info about matching batches"
        }
      },
      "mintWeeklyCarbonRewards(uint256[],address[],uint256[],uint256[],address)": {
        "params": {
          "_categoryIds": "The categories to which the incentivized assets belong",
          "carbonRewards": "List of carbon rewards to mint",
          "rewardAmounts": "List of carbon reward amounts to mint",
          "rewardFees": "List of fee amounts charged by the DAO on carbon rewards",
          "rewardsVault": "Account that secures ERC20 rewards"
        }
      },
      "owner()": {
        "details": "Returns the address of the current owner."
      },
      "renounceOwnership()": {
        "details": "Leaves the contract without owner. It will not be possible to call `onlyOwner` functions anymore. Can only be called by the current owner. NOTE: Renouncing ownership will leave the contract without an owner, thereby removing any functionality that is only available to the owner."
      },
      "setRewardsFee(uint16)": {
        "params": {
          "_rewardsFee": "The new rewards fee charged on weekly rewards"
        }
      },
      "setWeeklyRewardsMinter(address)": {
        "params": {
          "_weeklyRewardsMinter": "The only account allowed to mint weekly carbon rewards"
        }
      },
      "simulateBatchCollateralization(uint256,uint256)": {
        "details": "Simulates collateralization of `amountIn` ERC1155 tokens with id `batchId` for msg.sender",
        "params": {
          "amountIn": "ERC1155 tokens to collateralize",
          "batchId": "id of the batch"
        },
        "returns": {
          "cbtDaoCut": "ERC20 tokens to be received by feeReceiver",
          "cbtForfeited": "ERC20 tokens forfeited for collateralizing the ERC1155 tokens",
          "cbtUserCut": "ERC20 tokens to be received by msg.sender"
        }
      },
      "simulateDecollateralization(uint256,uint256)": {
        "details": "Simulates decollateralization of `amountIn` ERC20 tokens for ERC1155 tokens with id `batchId`",
        "params": {
          "amountIn": "ERC20 tokens to decollateralize",
          "batchId": "id of the batch"
        },
        "returns": {
          "amountOut": "ERC1155 tokens to be received by msg.sender",
          "minAmountIn": "minimum amount of ERC20 tokens to decollateralize `amountOut` ERC1155 tokens with id `batchId`",
          "minCbtDaoCut": "ERC20 tokens to be received by feeReceiver for decollateralizing minAmountIn ERC20 tokens"
        }
      },
      "supportsInterface(bytes4)": {
        "details": "Returns true if this contract implements the interface defined by `interfaceId`. See the corresponding https://eips.ethereum.org/EIPS/eip-165#how-interfaces-are-identified[EIP section] to learn more about how these ids are created. This function call must use less than 30 000 gas."
      },
      "transferOwnership(address)": {
        "details": "Transfers ownership of the contract to a new account (`newOwner`). Can only be called by the current owner."
      }
    },
    "version": 1
  },
  "userdoc": {
    "kind": "user",
    "methods": {
      "DECOLLATERALIZATION_SIMULATION_INPUT()": {
        "notice": "Constant used as input for decollateralization simulation for ordering batches with the same category and vintage"
      }
    },
    "version": 1
  },
  "storageLayout": {
    "storage": [
      {
        "astId": 138,
        "contract": "contracts/SolidWorldManager.sol:SolidWorldManager",
        "label": "_initialized",
        "offset": 0,
        "slot": "0",
        "type": "t_uint8"
      },
      {
        "astId": 141,
        "contract": "contracts/SolidWorldManager.sol:SolidWorldManager",
        "label": "_initializing",
        "offset": 1,
        "slot": "0",
        "type": "t_bool"
      },
      {
        "astId": 666,
        "contract": "contracts/SolidWorldManager.sol:SolidWorldManager",
        "label": "__gap",
        "offset": 0,
        "slot": "1",
        "type": "t_array(t_uint256)50_storage"
      },
      {
        "astId": 10,
        "contract": "contracts/SolidWorldManager.sol:SolidWorldManager",
        "label": "_owner",
        "offset": 0,
        "slot": "51",
        "type": "t_address"
      },
      {
        "astId": 130,
        "contract": "contracts/SolidWorldManager.sol:SolidWorldManager",
        "label": "__gap",
        "offset": 0,
        "slot": "52",
        "type": "t_array(t_uint256)49_storage"
      },
      {
        "astId": 296,
        "contract": "contracts/SolidWorldManager.sol:SolidWorldManager",
        "label": "_status",
        "offset": 0,
        "slot": "101",
        "type": "t_uint256"
      },
      {
        "astId": 340,
        "contract": "contracts/SolidWorldManager.sol:SolidWorldManager",
        "label": "__gap",
        "offset": 0,
        "slot": "102",
        "type": "t_array(t_uint256)49_storage"
      },
      {
        "astId": 8781,
        "contract": "contracts/SolidWorldManager.sol:SolidWorldManager",
        "label": "_storage",
        "offset": 0,
        "slot": "151",
        "type": "t_struct(Storage)8778_storage"
      }
    ],
    "types": {
      "t_address": {
        "encoding": "inplace",
        "label": "address",
        "numberOfBytes": "20"
      },
      "t_array(t_uint256)49_storage": {
        "base": "t_uint256",
        "encoding": "inplace",
        "label": "uint256[49]",
        "numberOfBytes": "1568"
      },
      "t_array(t_uint256)50_storage": {
        "base": "t_uint256",
        "encoding": "inplace",
        "label": "uint256[50]",
        "numberOfBytes": "1600"
      },
      "t_array(t_uint256)dyn_storage": {
        "base": "t_uint256",
        "encoding": "dynamic_array",
        "label": "uint256[]",
        "numberOfBytes": "32"
      },
      "t_bool": {
        "encoding": "inplace",
        "label": "bool",
        "numberOfBytes": "1"
      },
      "t_contract(CollateralizedBasketToken)6341": {
        "encoding": "inplace",
        "label": "contract CollateralizedBasketToken",
        "numberOfBytes": "20"
      },
      "t_contract(CollateralizedBasketTokenDeployer)6372": {
        "encoding": "inplace",
        "label": "contract CollateralizedBasketTokenDeployer",
        "numberOfBytes": "20"
      },
      "t_contract(ForwardContractBatchToken)6432": {
        "encoding": "inplace",
        "label": "contract ForwardContractBatchToken",
        "numberOfBytes": "20"
      },
      "t_mapping(t_uint256,t_array(t_uint256)dyn_storage)": {
        "encoding": "mapping",
        "key": "t_uint256",
        "label": "mapping(uint256 => uint256[])",
        "numberOfBytes": "32",
        "value": "t_array(t_uint256)dyn_storage"
      },
      "t_mapping(t_uint256,t_bool)": {
        "encoding": "mapping",
        "key": "t_uint256",
        "label": "mapping(uint256 => bool)",
        "numberOfBytes": "32",
        "value": "t_bool"
      },
      "t_mapping(t_uint256,t_contract(CollateralizedBasketToken)6341)": {
        "encoding": "mapping",
        "key": "t_uint256",
        "label": "mapping(uint256 => contract CollateralizedBasketToken)",
        "numberOfBytes": "32",
        "value": "t_contract(CollateralizedBasketToken)6341"
      },
      "t_mapping(t_uint256,t_struct(Batch)11998_storage)": {
        "encoding": "mapping",
        "key": "t_uint256",
        "label": "mapping(uint256 => struct DomainDataTypes.Batch)",
        "numberOfBytes": "32",
        "value": "t_struct(Batch)11998_storage"
      },
      "t_mapping(t_uint256,t_struct(Category)12015_storage)": {
        "encoding": "mapping",
        "key": "t_uint256",
        "label": "mapping(uint256 => struct DomainDataTypes.Category)",
        "numberOfBytes": "32",
        "value": "t_struct(Category)12015_storage"
      },
      "t_mapping(t_uint256,t_uint256)": {
        "encoding": "mapping",
        "key": "t_uint256",
        "label": "mapping(uint256 => uint256)",
        "numberOfBytes": "32",
        "value": "t_uint256"
      },
      "t_struct(Batch)11998_storage": {
        "encoding": "inplace",
        "label": "struct DomainDataTypes.Batch",
        "members": [
          {
            "astId": 11985,
            "contract": "contracts/SolidWorldManager.sol:SolidWorldManager",
            "label": "id",
            "offset": 0,
            "slot": "0",
            "type": "t_uint256"
          },
          {
            "astId": 11987,
            "contract": "contracts/SolidWorldManager.sol:SolidWorldManager",
            "label": "projectId",
            "offset": 0,
            "slot": "1",
            "type": "t_uint256"
          },
          {
            "astId": 11989,
            "contract": "contracts/SolidWorldManager.sol:SolidWorldManager",
            "label": "supplier",
            "offset": 0,
            "slot": "2",
            "type": "t_address"
          },
          {
            "astId": 11991,
            "contract": "contracts/SolidWorldManager.sol:SolidWorldManager",
            "label": "certificationDate",
            "offset": 20,
            "slot": "2",
            "type": "t_uint32"
          },
          {
            "astId": 11993,
            "contract": "contracts/SolidWorldManager.sol:SolidWorldManager",
            "label": "vintage",
            "offset": 24,
            "slot": "2",
            "type": "t_uint16"
          },
          {
            "astId": 11995,
            "contract": "contracts/SolidWorldManager.sol:SolidWorldManager",
            "label": "status",
            "offset": 26,
            "slot": "2",
            "type": "t_uint8"
          },
          {
            "astId": 11997,
            "contract": "contracts/SolidWorldManager.sol:SolidWorldManager",
            "label": "batchTA",
            "offset": 27,
            "slot": "2",
            "type": "t_uint24"
          }
        ],
        "numberOfBytes": "96"
      },
      "t_struct(Category)12015_storage": {
        "encoding": "inplace",
        "label": "struct DomainDataTypes.Category",
        "members": [
          {
            "astId": 12000,
            "contract": "contracts/SolidWorldManager.sol:SolidWorldManager",
            "label": "volumeCoefficient",
            "offset": 0,
            "slot": "0",
            "type": "t_uint256"
          },
          {
            "astId": 12002,
            "contract": "contracts/SolidWorldManager.sol:SolidWorldManager",
            "label": "decayPerSecond",
            "offset": 0,
            "slot": "1",
            "type": "t_uint40"
          },
          {
            "astId": 12004,
            "contract": "contracts/SolidWorldManager.sol:SolidWorldManager",
            "label": "maxDepreciationPerYear",
            "offset": 5,
            "slot": "1",
            "type": "t_uint16"
          },
          {
            "astId": 12006,
            "contract": "contracts/SolidWorldManager.sol:SolidWorldManager",
            "label": "maxDepreciation",
            "offset": 7,
            "slot": "1",
            "type": "t_uint24"
          },
          {
            "astId": 12008,
            "contract": "contracts/SolidWorldManager.sol:SolidWorldManager",
            "label": "averageTA",
            "offset": 10,
            "slot": "1",
            "type": "t_uint24"
          },
          {
            "astId": 12010,
            "contract": "contracts/SolidWorldManager.sol:SolidWorldManager",
            "label": "totalCollateralized",
            "offset": 0,
            "slot": "2",
            "type": "t_uint256"
          },
          {
            "astId": 12012,
            "contract": "contracts/SolidWorldManager.sol:SolidWorldManager",
            "label": "lastCollateralizationTimestamp",
            "offset": 0,
            "slot": "3",
            "type": "t_uint32"
          },
          {
            "astId": 12014,
            "contract": "contracts/SolidWorldManager.sol:SolidWorldManager",
            "label": "lastCollateralizationMomentum",
            "offset": 0,
            "slot": "4",
            "type": "t_uint256"
          }
        ],
        "numberOfBytes": "160"
      },
      "t_struct(Storage)8778_storage": {
        "encoding": "inplace",
        "label": "struct SolidWorldManagerStorage.Storage",
        "members": [
          {
            "astId": 8700,
            "contract": "contracts/SolidWorldManager.sol:SolidWorldManager",
            "label": "categoryCreated",
            "offset": 0,
            "slot": "0",
            "type": "t_mapping(t_uint256,t_bool)"
          },
          {
            "astId": 8705,
            "contract": "contracts/SolidWorldManager.sol:SolidWorldManager",
            "label": "projectCreated",
            "offset": 0,
            "slot": "1",
            "type": "t_mapping(t_uint256,t_bool)"
          },
          {
            "astId": 8710,
            "contract": "contracts/SolidWorldManager.sol:SolidWorldManager",
            "label": "batchCreated",
            "offset": 0,
            "slot": "2",
            "type": "t_mapping(t_uint256,t_bool)"
          },
          {
            "astId": 8716,
            "contract": "contracts/SolidWorldManager.sol:SolidWorldManager",
            "label": "categories",
            "offset": 0,
            "slot": "3",
            "type": "t_mapping(t_uint256,t_struct(Category)12015_storage)"
          },
          {
            "astId": 8722,
            "contract": "contracts/SolidWorldManager.sol:SolidWorldManager",
            "label": "batches",
            "offset": 0,
            "slot": "4",
            "type": "t_mapping(t_uint256,t_struct(Batch)11998_storage)"
          },
          {
            "astId": 8728,
            "contract": "contracts/SolidWorldManager.sol:SolidWorldManager",
            "label": "categoryToken",
            "offset": 0,
            "slot": "5",
            "type": "t_mapping(t_uint256,t_contract(CollateralizedBasketToken)6341)"
          },
          {
            "astId": 8734,
            "contract": "contracts/SolidWorldManager.sol:SolidWorldManager",
            "label": "categoryProjects",
            "offset": 0,
            "slot": "6",
            "type": "t_mapping(t_uint256,t_array(t_uint256)dyn_storage)"
          },
          {
            "astId": 8739,
            "contract": "contracts/SolidWorldManager.sol:SolidWorldManager",
            "label": "projectCategory",
            "offset": 0,
            "slot": "7",
            "type": "t_mapping(t_uint256,t_uint256)"
          },
          {
            "astId": 8744,
            "contract": "contracts/SolidWorldManager.sol:SolidWorldManager",
            "label": "batchCategory",
            "offset": 0,
            "slot": "8",
            "type": "t_mapping(t_uint256,t_uint256)"
          },
          {
            "astId": 8750,
            "contract": "contracts/SolidWorldManager.sol:SolidWorldManager",
            "label": "projectBatches",
            "offset": 0,
            "slot": "9",
            "type": "t_mapping(t_uint256,t_array(t_uint256)dyn_storage)"
          },
          {
            "astId": 8754,
            "contract": "contracts/SolidWorldManager.sol:SolidWorldManager",
            "label": "batchIds",
            "offset": 0,
            "slot": "10",
            "type": "t_array(t_uint256)dyn_storage"
          },
          {
            "astId": 8758,
            "contract": "contracts/SolidWorldManager.sol:SolidWorldManager",
            "label": "_forwardContractBatch",
            "offset": 0,
            "slot": "11",
            "type": "t_contract(ForwardContractBatchToken)6432"
          },
          {
            "astId": 8762,
            "contract": "contracts/SolidWorldManager.sol:SolidWorldManager",
            "label": "_collateralizedBasketTokenDeployer",
            "offset": 0,
            "slot": "12",
            "type": "t_contract(CollateralizedBasketTokenDeployer)6372"
          },
          {
            "astId": 8765,
            "contract": "contracts/SolidWorldManager.sol:SolidWorldManager",
            "label": "weeklyRewardsMinter",
            "offset": 0,
            "slot": "13",
            "type": "t_address"
          },
          {
            "astId": 8768,
            "contract": "contracts/SolidWorldManager.sol:SolidWorldManager",
            "label": "feeReceiver",
            "offset": 0,
            "slot": "14",
            "type": "t_address"
          },
          {
            "astId": 8771,
            "contract": "contracts/SolidWorldManager.sol:SolidWorldManager",
            "label": "collateralizationFee",
            "offset": 20,
            "slot": "14",
            "type": "t_uint16"
          },
          {
            "astId": 8774,
            "contract": "contracts/SolidWorldManager.sol:SolidWorldManager",
            "label": "decollateralizationFee",
            "offset": 22,
            "slot": "14",
            "type": "t_uint16"
          },
          {
            "astId": 8777,
            "contract": "contracts/SolidWorldManager.sol:SolidWorldManager",
            "label": "rewardsFee",
            "offset": 24,
            "slot": "14",
            "type": "t_uint16"
          }
        ],
        "numberOfBytes": "480"
      },
      "t_uint16": {
        "encoding": "inplace",
        "label": "uint16",
        "numberOfBytes": "2"
      },
      "t_uint24": {
        "encoding": "inplace",
        "label": "uint24",
        "numberOfBytes": "3"
      },
      "t_uint256": {
        "encoding": "inplace",
        "label": "uint256",
        "numberOfBytes": "32"
      },
      "t_uint32": {
        "encoding": "inplace",
        "label": "uint32",
        "numberOfBytes": "4"
      },
      "t_uint40": {
        "encoding": "inplace",
        "label": "uint40",
        "numberOfBytes": "5"
      },
      "t_uint8": {
        "encoding": "inplace",
        "label": "uint8",
        "numberOfBytes": "1"
      }
    }
  }
}