{
  "address": "0x328b57344Fb98c8F84bE219Fe8764032744C5322",
  "abi": [
    {
      "inputs": [],
      "name": "AlreadyInitialized",
      "type": "error"
    },
    {
      "inputs": [
        {
          "internalType": "address",
          "name": "token",
          "type": "address"
        }
      ],
      "name": "InvalidTokenAddress",
      "type": "error"
    },
    {
      "inputs": [
        {
          "internalType": "address",
          "name": "token",
          "type": "address"
        }
      ],
      "name": "TokenAlreadyAdded",
      "type": "error"
    },
    {
      "anonymous": false,
      "inputs": [
        {
          "indexed": true,
          "internalType": "address",
          "name": "previousOwner",
          "type": "address"
        },
        {
          "indexed": true,
          "internalType": "address",
          "name": "newOwner",
          "type": "address"
        }
      ],
      "name": "OwnershipTransferred",
      "type": "event"
    },
    {
      "anonymous": false,
      "inputs": [
        {
          "indexed": true,
          "internalType": "address",
          "name": "account",
          "type": "address"
        },
        {
          "indexed": true,
          "internalType": "address",
          "name": "token",
          "type": "address"
        },
        {
          "indexed": true,
          "internalType": "uint256",
          "name": "amount",
          "type": "uint256"
        }
      ],
      "name": "Stake",
      "type": "event"
    },
    {
      "anonymous": false,
      "inputs": [
        {
          "indexed": true,
          "internalType": "address",
          "name": "token",
          "type": "address"
        }
      ],
      "name": "TokenAdded",
      "type": "event"
    },
    {
      "anonymous": false,
      "inputs": [
        {
          "indexed": true,
          "internalType": "address",
          "name": "account",
          "type": "address"
        },
        {
          "indexed": true,
          "internalType": "address",
          "name": "token",
          "type": "address"
        },
        {
          "indexed": true,
          "internalType": "uint256",
          "name": "amount",
          "type": "uint256"
        }
      ],
      "name": "Withdraw",
      "type": "event"
    },
    {
      "inputs": [
        {
          "internalType": "address",
          "name": "token",
          "type": "address"
        }
      ],
      "name": "addToken",
      "outputs": [],
      "stateMutability": "nonpayable",
      "type": "function"
    },
    {
      "inputs": [
        {
          "internalType": "address",
          "name": "token",
          "type": "address"
        },
        {
          "internalType": "address",
          "name": "account",
          "type": "address"
        }
      ],
      "name": "balanceOf",
      "outputs": [
        {
          "internalType": "uint256",
          "name": "",
          "type": "uint256"
        }
      ],
      "stateMutability": "view",
      "type": "function"
    },
    {
      "inputs": [],
      "name": "getTokens",
      "outputs": [
        {
          "internalType": "address[]",
          "name": "_tokens",
          "type": "address[]"
        }
      ],
      "stateMutability": "view",
      "type": "function"
    },
    {
      "inputs": [],
      "name": "owner",
      "outputs": [
        {
          "internalType": "address",
          "name": "",
          "type": "address"
        }
      ],
      "stateMutability": "view",
      "type": "function"
    },
    {
      "inputs": [],
      "name": "renounceOwnership",
      "outputs": [],
      "stateMutability": "nonpayable",
      "type": "function"
    },
    {
      "inputs": [],
      "name": "rewardsController",
      "outputs": [
        {
          "internalType": "contract IRewardsController",
          "name": "",
          "type": "address"
        }
      ],
      "stateMutability": "view",
      "type": "function"
    },
    {
      "inputs": [
        {
          "internalType": "contract IRewardsController",
          "name": "_rewardsController",
          "type": "address"
        },
        {
          "internalType": "address",
          "name": "owner",
          "type": "address"
        }
      ],
      "name": "setup",
      "outputs": [],
      "stateMutability": "nonpayable",
      "type": "function"
    },
    {
      "inputs": [
        {
          "internalType": "address",
          "name": "token",
          "type": "address"
        },
        {
          "internalType": "uint256",
          "name": "amount",
          "type": "uint256"
        }
      ],
      "name": "stake",
      "outputs": [],
      "stateMutability": "nonpayable",
      "type": "function"
    },
    {
      "inputs": [
        {
          "internalType": "address",
          "name": "",
          "type": "address"
        }
      ],
      "name": "tokenAdded",
      "outputs": [
        {
          "internalType": "bool",
          "name": "",
          "type": "bool"
        }
      ],
      "stateMutability": "view",
      "type": "function"
    },
    {
      "inputs": [
        {
          "internalType": "uint256",
          "name": "",
          "type": "uint256"
        }
      ],
      "name": "tokens",
      "outputs": [
        {
          "internalType": "address",
          "name": "",
          "type": "address"
        }
      ],
      "stateMutability": "view",
      "type": "function"
    },
    {
      "inputs": [
        {
          "internalType": "address",
          "name": "token",
          "type": "address"
        }
      ],
      "name": "totalStaked",
      "outputs": [
        {
          "internalType": "uint256",
          "name": "",
          "type": "uint256"
        }
      ],
      "stateMutability": "view",
      "type": "function"
    },
    {
      "inputs": [
        {
          "internalType": "address",
          "name": "newOwner",
          "type": "address"
        }
      ],
      "name": "transferOwnership",
      "outputs": [],
      "stateMutability": "nonpayable",
      "type": "function"
    },
    {
      "inputs": [
        {
          "internalType": "address",
          "name": "",
          "type": "address"
        },
        {
          "internalType": "address",
          "name": "",
          "type": "address"
        }
      ],
      "name": "userStake",
      "outputs": [
        {
          "internalType": "uint256",
          "name": "",
          "type": "uint256"
        }
      ],
      "stateMutability": "view",
      "type": "function"
    },
    {
      "inputs": [
        {
          "internalType": "address",
          "name": "token",
          "type": "address"
        },
        {
          "internalType": "uint256",
          "name": "amount",
          "type": "uint256"
        }
      ],
      "name": "withdraw",
      "outputs": [],
      "stateMutability": "nonpayable",
      "type": "function"
    }
  ],
  "transactionHash": "0x22937110cca49924b58b5243c97f309fd7ea78861a4ce608d339a49033b38830",
  "args": [],
  "numDeployments": 1,
  "solcInputHash": "a8509a4c1d041601677a419b8a7fbc82",
  "bytecode": "0x608060405234801561001057600080fd5b50600160005561001f33610024565b610076565b600180546001600160a01b038381166001600160a01b0319831681179093556040519116919082907f8be0079c531659141344cd1fd0a4f28419497f9722a3daafe3b4186f6b6457e090600090a35050565b610f7b806100856000396000f3fe608060405234801561001057600080fd5b50600436106100ea5760003560e01c80639bfd8d611161008c578063d48bfca711610066578063d48bfca714610207578063f2fde38b1461021a578063f3fef3a31461022d578063f7888aec1461024057600080fd5b80639bfd8d61146101cc578063aa6ca808146101df578063adc9772e146101f457600080fd5b80636bb65f53116100c85780636bb65f531461016d5780636dfeb12f14610180578063715018a6146101b35780638da5cb5b146101bb57600080fd5b80632d34ba79146100ef5780634f64b2be1461010457806351bdca3e14610134575b600080fd5b6101026100fd366004610de8565b610253565b005b610117610112366004610e21565b610329565b6040516001600160a01b0390911681526020015b60405180910390f35b61015f610142366004610de8565b600460209081526000928352604080842090915290825290205481565b60405190815260200161012b565b600554610117906001600160a01b031681565b6101a361018e366004610e3a565b60036020526000908152604090205460ff1681565b604051901515815260200161012b565b610102610353565b6001546001600160a01b0316610117565b61015f6101da366004610e3a565b610367565b6101e76103dd565b60405161012b9190610e5e565b610102610202366004610eab565b61043f565b610102610215366004610e3a565b610631565b610102610228366004610e3a565b61075c565b61010261023b366004610eab565b6107ec565b61015f61024e366004610de8565b6109dd565b60015474010000000000000000000000000000000000000000900460ff16156102a8576040517f0dc149f000000000000000000000000000000000000000000000000000000000815260040160405180910390fd5b600180547fffffffffffffffffffffff00ffffffffffffffffffffffffffffffffffffffff1674010000000000000000000000000000000000000000179055600580546001600160a01b0384167fffffffffffffffffffffffff00000000000000000000000000000000000000009091161790556103258161075c565b5050565b6002818154811061033957600080fd5b6000918252602090912001546001600160a01b0316905081565b61035b610a69565b6103656000610ac3565b565b6001600160a01b038116600090815260036020526040812054829060ff166103cb576040517f733068030000000000000000000000000000000000000000000000000000000081526001600160a01b03821660048201526024015b60405180910390fd5b6103d483610b2d565b91505b50919050565b6060600280548060200260200160405190810160405280929190818152602001828054801561043557602002820191906000526020600020905b81546001600160a01b03168152600190910190602001808311610417575b5050505050905090565b6002600054036104915760405162461bcd60e51b815260206004820152601f60248201527f5265656e7472616e637947756172643a207265656e7472616e742063616c6c0060448201526064016103c2565b600260009081556001600160a01b038316815260036020526040902054829060ff166104f4576040517f733068030000000000000000000000000000000000000000000000000000000081526001600160a01b03821660048201526024016103c2565b6001600160a01b03831660009081526004602090815260408083203384529091528120549061052285610b2d565b905061052e8483610f06565b6001600160a01b038616600081815260046020908152604080832033808552925290912092909255610561913087610bb7565b6005546040517fae0b53710000000000000000000000000000000000000000000000000000000081526001600160a01b03878116600483015233602483015260448201859052606482018490529091169063ae0b537190608401600060405180830381600087803b1580156105d557600080fd5b505af11580156105e9573d6000803e3d6000fd5b50506040518692506001600160a01b038816915033907f99039fcf0a98f484616c5196ee8b2ecfa971babf0b519848289ea4db381f85f790600090a450506001600055505050565b610639610a69565b6001600160a01b03811660009081526003602052604090205460ff1615610697576040517f13501a510000000000000000000000000000000000000000000000000000000081526001600160a01b03821660048201526024016103c2565b6002805460018082019092557f405787fa12a823e0f2b7631cc41b3ba8828b3321ca811111fa75cd3aa3bb5ace0180547fffffffffffffffffffffffff0000000000000000000000000000000000000000166001600160a01b03841690811790915560008181526003602052604080822080547fffffffffffffffffffffffffffffffffffffffffffffffffffffffffffffff0016909417909355915190917f784c8f4dbf0ffedd6e72c76501c545a70f8b203b30a26ce542bf92ba87c248a491a250565b610764610a69565b6001600160a01b0381166107e05760405162461bcd60e51b815260206004820152602660248201527f4f776e61626c653a206e6577206f776e657220697320746865207a65726f206160448201527f646472657373000000000000000000000000000000000000000000000000000060648201526084016103c2565b6107e981610ac3565b50565b60026000540361083e5760405162461bcd60e51b815260206004820152601f60248201527f5265656e7472616e637947756172643a207265656e7472616e742063616c6c0060448201526064016103c2565b600260009081556001600160a01b038316815260036020526040902054829060ff166108a1576040517f733068030000000000000000000000000000000000000000000000000000000081526001600160a01b03821660048201526024016103c2565b6001600160a01b0383166000908152600460209081526040808320338452909152812054906108cf85610b2d565b90506108db8483610f19565b6001600160a01b03861660008181526004602090815260408083203380855292529091209290925561090d9186610c72565b6005546040517fae0b53710000000000000000000000000000000000000000000000000000000081526001600160a01b03878116600483015233602483015260448201859052606482018490529091169063ae0b537190608401600060405180830381600087803b15801561098157600080fd5b505af1158015610995573d6000803e3d6000fd5b50506040518692506001600160a01b038816915033907f9b1bfa7fa9ee420a16e124f794c35ac9f90472acc99140eb2f6447c714cad8eb90600090a450506001600055505050565b6001600160a01b038216600090815260036020526040812054839060ff16610a3c576040517f733068030000000000000000000000000000000000000000000000000000000081526001600160a01b03821660048201526024016103c2565b50506001600160a01b03918216600090815260046020908152604080832093909416825291909152205490565b6001546001600160a01b031633146103655760405162461bcd60e51b815260206004820181905260248201527f4f776e61626c653a2063616c6c6572206973206e6f7420746865206f776e657260448201526064016103c2565b600180546001600160a01b038381167fffffffffffffffffffffffff0000000000000000000000000000000000000000831681179093556040519116919082907f8be0079c531659141344cd1fd0a4f28419497f9722a3daafe3b4186f6b6457e090600090a35050565b6040517f70a082310000000000000000000000000000000000000000000000000000000081523060048201526000906001600160a01b038316906370a0823190602401602060405180830381865afa158015610b8d573d6000803e3d6000fd5b505050506040513d601f19601f82011682018060405250810190610bb19190610f2c565b92915050565b6040517f23b872dd000000000000000000000000000000000000000000000000000000008082526001600160a01b038581166004840152841660248301526044820183905290600080606483828a5af1610c15573d6000803e3d6000fd5b50610c1f85610d24565b610c6b5760405162461bcd60e51b815260206004820152601960248201527f475076323a206661696c6564207472616e7366657246726f6d0000000000000060448201526064016103c2565b5050505050565b6040517fa9059cbb000000000000000000000000000000000000000000000000000000008082526001600160a01b0384166004830152602482018390529060008060448382895af1610cc8573d6000803e3d6000fd5b50610cd284610d24565b610d1e5760405162461bcd60e51b815260206004820152601560248201527f475076323a206661696c6564207472616e73666572000000000000000000000060448201526064016103c2565b50505050565b6000610d49565b62461bcd60e51b600052602060045280602452508060445260646000fd5b3d8015610d885760208114610dc257610d837f475076323a206d616c666f726d6564207472616e7366657220726573756c7400601f610d2b565b6103d7565b823b610db957610db97f475076323a206e6f74206120636f6e74726163740000000000000000000000006014610d2b565b600191506103d7565b3d6000803e50506000511515919050565b6001600160a01b03811681146107e957600080fd5b60008060408385031215610dfb57600080fd5b8235610e0681610dd3565b91506020830135610e1681610dd3565b809150509250929050565b600060208284031215610e3357600080fd5b5035919050565b600060208284031215610e4c57600080fd5b8135610e5781610dd3565b9392505050565b6020808252825182820181905260009190848201906040850190845b81811015610e9f5783516001600160a01b031683529284019291840191600101610e7a565b50909695505050505050565b60008060408385031215610ebe57600080fd5b8235610ec981610dd3565b946020939093013593505050565b7f4e487b7100000000000000000000000000000000000000000000000000000000600052601160045260246000fd5b80820180821115610bb157610bb1610ed7565b81810381811115610bb157610bb1610ed7565b600060208284031215610f3e57600080fd5b505191905056fea26469706673582212203c71564086792456e304b35be73ff1b062cee9abc909c2701146318877d12c5e64736f6c63430008110033",
  "devdoc": {
    "kind": "dev",
    "methods": {
      "addToken(address)": {
        "details": "Adds a new token to the staking contract",
        "params": {
          "token": "the token to add"
        }
      },
      "balanceOf(address,address)": {
        "details": "Computes the amount of tokens that the `account` has staked",
        "params": {
          "account": "the account to check",
          "token": "the token to check"
        },
        "returns": {
          "_0": "the amount of `token` tokens that the `account` has staked"
        }
      },
      "getTokens()": {
        "details": "Returns the list of tokens that can be staked",
        "returns": {
          "_tokens": "the list of tokens that can be staked"
        }
      },
      "owner()": {
        "details": "Returns the address of the current owner."
      },
      "renounceOwnership()": {
        "details": "Leaves the contract without owner. It will not be possible to call `onlyOwner` functions anymore. Can only be called by the current owner. NOTE: Renouncing ownership will leave the contract without an owner, thereby removing any functionality that is only available to the owner."
      },
      "stake(address,uint256)": {
        "details": "Stakes tokens for the caller into the staking contract",
        "params": {
          "amount": "the amount to stake",
          "token": "the token to stake"
        }
      },
      "totalStaked(address)": {
        "details": "Computes the total amount of tokens that have been staked",
        "params": {
          "token": "the token to check"
        },
        "returns": {
          "_0": "the total amount of `token` tokens that have been staked"
        }
      },
      "transferOwnership(address)": {
        "details": "Transfers ownership of the contract to a new account (`newOwner`). Can only be called by the current owner."
      },
      "withdraw(address,uint256)": {
        "details": "Withdraws tokens for the caller from the staking contract",
        "params": {
          "amount": "the amount to withdraw",
          "token": "the token to withdraw"
        }
      }
    },
    "stateVariables": {
      "rewardsController": {
        "details": "Main contract used for interacting with rewards mechanism."
      },
      "tokenAdded": {
        "details": "Mapping with added tokens."
      },
      "tokens": {
        "details": "All stakable lp tokens."
      },
      "userStake": {
        "details": "Mapping with the staked amount of each account for each token.token => user => amount"
      }
    },
    "version": 1
  },
  "userdoc": {
    "kind": "user",
    "methods": {},
    "version": 1
  },
  "storageLayout": {
    "storage": [
      {
        "astId": 803,
        "contract": "contracts/SolidStaking.sol:SolidStaking",
        "label": "_status",
        "offset": 0,
        "slot": "0",
        "type": "t_uint256"
      },
      {
        "astId": 687,
        "contract": "contracts/SolidStaking.sol:SolidStaking",
        "label": "_owner",
        "offset": 0,
        "slot": "1",
        "type": "t_address"
      },
      {
        "astId": 6303,
        "contract": "contracts/SolidStaking.sol:SolidStaking",
        "label": "_initialized",
        "offset": 20,
        "slot": "1",
        "type": "t_bool"
      },
      {
        "astId": 6343,
        "contract": "contracts/SolidStaking.sol:SolidStaking",
        "label": "tokens",
        "offset": 0,
        "slot": "2",
        "type": "t_array(t_address)dyn_storage"
      },
      {
        "astId": 6348,
        "contract": "contracts/SolidStaking.sol:SolidStaking",
        "label": "tokenAdded",
        "offset": 0,
        "slot": "3",
        "type": "t_mapping(t_address,t_bool)"
      },
      {
        "astId": 6355,
        "contract": "contracts/SolidStaking.sol:SolidStaking",
        "label": "userStake",
        "offset": 0,
        "slot": "4",
        "type": "t_mapping(t_address,t_mapping(t_address,t_uint256))"
      },
      {
        "astId": 6359,
        "contract": "contracts/SolidStaking.sol:SolidStaking",
        "label": "rewardsController",
        "offset": 0,
        "slot": "5",
        "type": "t_contract(IRewardsController)8409"
      }
    ],
    "types": {
      "t_address": {
        "encoding": "inplace",
        "label": "address",
        "numberOfBytes": "20"
      },
      "t_array(t_address)dyn_storage": {
        "base": "t_address",
        "encoding": "dynamic_array",
        "label": "address[]",
        "numberOfBytes": "32"
      },
      "t_bool": {
        "encoding": "inplace",
        "label": "bool",
        "numberOfBytes": "1"
      },
      "t_contract(IRewardsController)8409": {
        "encoding": "inplace",
        "label": "contract IRewardsController",
        "numberOfBytes": "20"
      },
      "t_mapping(t_address,t_bool)": {
        "encoding": "mapping",
        "key": "t_address",
        "label": "mapping(address => bool)",
        "numberOfBytes": "32",
        "value": "t_bool"
      },
      "t_mapping(t_address,t_mapping(t_address,t_uint256))": {
        "encoding": "mapping",
        "key": "t_address",
        "label": "mapping(address => mapping(address => uint256))",
        "numberOfBytes": "32",
        "value": "t_mapping(t_address,t_uint256)"
      },
      "t_mapping(t_address,t_uint256)": {
        "encoding": "mapping",
        "key": "t_address",
        "label": "mapping(address => uint256)",
        "numberOfBytes": "32",
        "value": "t_uint256"
      },
      "t_uint256": {
        "encoding": "inplace",
        "label": "uint256",
        "numberOfBytes": "32"
      }
    }
  }
}