{
  "address": "0x3787f2F51673EB09351d0258bBff2F5A0Ba3F047",
  "abi": [
    {
      "anonymous": false,
      "inputs": [
        {
          "indexed": true,
          "internalType": "uint256",
          "name": "id",
          "type": "uint256"
        },
        {
          "indexed": true,
          "internalType": "address",
          "name": "ownerAddress",
          "type": "address"
        },
        {
          "indexed": false,
          "internalType": "uint256",
          "name": "amount",
          "type": "uint256"
        },
        {
          "indexed": true,
          "internalType": "address",
          "name": "insuranceAddress",
          "type": "address"
        },
        {
          "indexed": false,
          "internalType": "uint256",
          "name": "amountToInsurance",
          "type": "uint256"
        }
      ],
      "name": "Create",
      "type": "event"
    },
    {
      "anonymous": false,
      "inputs": [
        {
          "indexed": false,
          "internalType": "uint8",
          "name": "version",
          "type": "uint8"
        }
      ],
      "name": "Initialized",
      "type": "event"
    },
    {
      "anonymous": false,
      "inputs": [
        {
          "indexed": true,
          "internalType": "address",
          "name": "previousOwner",
          "type": "address"
        },
        {
          "indexed": true,
          "internalType": "address",
          "name": "newOwner",
          "type": "address"
        }
      ],
      "name": "OwnershipTransferred",
      "type": "event"
    },
    {
      "inputs": [],
      "name": "accessControls",
      "outputs": [
        {
          "internalType": "contract SolidAccessControl",
          "name": "",
          "type": "address"
        }
      ],
      "stateMutability": "view",
      "type": "function"
    },
    {
      "inputs": [
        {
          "internalType": "address",
          "name": "_projectOwnerAddress",
          "type": "address"
        },
        {
          "internalType": "uint256",
          "name": "_id",
          "type": "uint256"
        },
        {
          "internalType": "uint256",
          "name": "_amount",
          "type": "uint256"
        }
      ],
      "name": "burnCarbonCredit",
      "outputs": [
        {
          "internalType": "uint256",
          "name": "",
          "type": "uint256"
        }
      ],
      "stateMutability": "nonpayable",
      "type": "function"
    },
    {
      "inputs": [],
      "name": "carboncreditContract",
      "outputs": [
        {
          "internalType": "contract CarbonCredit",
          "name": "",
          "type": "address"
        }
      ],
      "stateMutability": "view",
      "type": "function"
    },
    {
      "inputs": [
        {
          "internalType": "address",
          "name": "_projectOwnerAddress",
          "type": "address"
        },
        {
          "internalType": "uint256",
          "name": "_amount",
          "type": "uint256"
        },
        {
          "internalType": "address",
          "name": "_insuranceAddress",
          "type": "address"
        },
        {
          "internalType": "uint256",
          "name": "_amountToInsurance",
          "type": "uint256"
        },
        {
          "internalType": "bytes",
          "name": "_data",
          "type": "bytes"
        }
      ],
      "name": "create",
      "outputs": [
        {
          "internalType": "uint256",
          "name": "",
          "type": "uint256"
        }
      ],
      "stateMutability": "nonpayable",
      "type": "function"
    },
    {
      "inputs": [],
      "name": "currentTokenID",
      "outputs": [
        {
          "internalType": "uint256",
          "name": "",
          "type": "uint256"
        }
      ],
      "stateMutability": "view",
      "type": "function"
    },
    {
      "inputs": [
        {
          "internalType": "contract NFT",
          "name": "_nftAddress",
          "type": "address"
        },
        {
          "internalType": "contract CarbonCredit",
          "name": "_carbonCreditAddress",
          "type": "address"
        },
        {
          "internalType": "contract SolidAccessControl",
          "name": "_accessControls",
          "type": "address"
        }
      ],
      "name": "initialize",
      "outputs": [],
      "stateMutability": "nonpayable",
      "type": "function"
    },
    {
      "inputs": [
        {
          "internalType": "address",
          "name": "_projectOwnerAddress",
          "type": "address"
        },
        {
          "internalType": "uint256",
          "name": "_id",
          "type": "uint256"
        },
        {
          "internalType": "uint256",
          "name": "_amount",
          "type": "uint256"
        },
        {
          "internalType": "bytes",
          "name": "_data",
          "type": "bytes"
        }
      ],
      "name": "mintCarbonCredit",
      "outputs": [
        {
          "internalType": "uint256",
          "name": "",
          "type": "uint256"
        }
      ],
      "stateMutability": "nonpayable",
      "type": "function"
    },
    {
      "inputs": [],
      "name": "nftContract",
      "outputs": [
        {
          "internalType": "contract NFT",
          "name": "",
          "type": "address"
        }
      ],
      "stateMutability": "view",
      "type": "function"
    },
    {
      "inputs": [],
      "name": "owner",
      "outputs": [
        {
          "internalType": "address",
          "name": "",
          "type": "address"
        }
      ],
      "stateMutability": "view",
      "type": "function"
    },
    {
      "inputs": [],
      "name": "renounceOwnership",
      "outputs": [],
      "stateMutability": "nonpayable",
      "type": "function"
    },
    {
      "inputs": [
        {
          "internalType": "string",
          "name": "_newBaseMetadataURI",
          "type": "string"
        }
      ],
      "name": "setBaseMetadataURI",
      "outputs": [],
      "stateMutability": "nonpayable",
      "type": "function"
    },
    {
      "inputs": [
        {
          "internalType": "address",
          "name": "_sellerAddress",
          "type": "address"
        },
        {
          "internalType": "address",
          "name": "_buyerAddress",
          "type": "address"
        },
        {
          "internalType": "uint256",
          "name": "_id",
          "type": "uint256"
        },
        {
          "internalType": "uint256",
          "name": "_amount",
          "type": "uint256"
        },
        {
          "internalType": "bytes",
          "name": "_data",
          "type": "bytes"
        }
      ],
      "name": "transferCarbonCredit",
      "outputs": [],
      "stateMutability": "nonpayable",
      "type": "function"
    },
    {
      "inputs": [
        {
          "internalType": "address",
          "name": "_sellerAddress",
          "type": "address"
        },
        {
          "internalType": "address",
          "name": "_buyerAddress",
          "type": "address"
        },
        {
          "internalType": "uint256",
          "name": "_id",
          "type": "uint256"
        },
        {
          "internalType": "bytes",
          "name": "_data",
          "type": "bytes"
        }
      ],
      "name": "transferNFT",
      "outputs": [],
      "stateMutability": "nonpayable",
      "type": "function"
    },
    {
      "inputs": [
        {
          "internalType": "address",
          "name": "newOwner",
          "type": "address"
        }
      ],
      "name": "transferOwnership",
      "outputs": [],
      "stateMutability": "nonpayable",
      "type": "function"
    },
    {
      "inputs": [
        {
          "internalType": "contract SolidAccessControl",
          "name": "_accessControls",
          "type": "address"
        }
      ],
      "name": "updateAccessControls",
      "outputs": [],
      "stateMutability": "nonpayable",
      "type": "function"
    }
  ],
  "transactionHash": "0x76ad612865470df68059032877187d3832ff8dc6a2162f69a22d10d6c545faee",
  "args": [],
  "numDeployments": 1,
  "solcInputHash": "ff44a7223596cd9c355a727819cd01e7",
  "bytecode": "0x608060405234801561001057600080fd5b50612390806100206000396000f3fe608060405234801561001057600080fd5b50600436106100c55760003560e01c80631de66828146100ca57806339257904146100e65780636ef3da9414610102578063715018a61461011e57806371657b8114610128578063748365ef146101585780637c45fc94146101765780637e518ec8146101945780638410355b146101b05780638da5cb5b146101e0578063bb62115e146101fe578063c0c53b8b1461021c578063d56d229d14610238578063f2fde38b14610256578063f31ed99814610272575b600080fd5b6100e460048036038101906100df91906115ec565b6102a2565b005b61010060048036038101906100fb9190611683565b61033e565b005b61011c60048036038101906101179190611744565b6103d7565b005b610126610423565b005b610142600480360381019061013d9190611771565b610437565b60405161014f91906117d3565b60405180910390f35b6101606105b6565b60405161016d919061184d565b60405180910390f35b61017e6105dc565b60405161018b9190611889565b60405180910390f35b6101ae60048036038101906101a99190611945565b610602565b005b6101ca60048036038101906101c5919061198e565b610774565b6040516101d791906117d3565b60405180910390f35b6101e8610bea565b6040516101f59190611a34565b60405180910390f35b610206610c14565b60405161021391906117d3565b60405180910390f35b61023660048036038101906102319190611acb565b610c1a565b005b610240610e26565b60405161024d9190611b3f565b60405180910390f35b610270600480360381019061026b9190611b5a565b610e4c565b005b61028c60048036038101906102879190611b87565b610ecf565b60405161029991906117d3565b60405180910390f35b606760009054906101000a900473ffffffffffffffffffffffffffffffffffffffff1673ffffffffffffffffffffffffffffffffffffffff1663f242432a86868686866040518663ffffffff1660e01b8152600401610305959493929190611c89565b600060405180830381600087803b15801561031f57600080fd5b505af1158015610333573d6000803e3d6000fd5b505050505050505050565b606660009054906101000a900473ffffffffffffffffffffffffffffffffffffffff1673ffffffffffffffffffffffffffffffffffffffff1663b88d4fde858585856040518563ffffffff1660e01b815260040161039f9493929190611ce3565b600060405180830381600087803b1580156103b957600080fd5b505af11580156103cd573d6000803e3d6000fd5b5050505050505050565b6103df6111a5565b80606860006101000a81548173ffffffffffffffffffffffffffffffffffffffff021916908373ffffffffffffffffffffffffffffffffffffffff16021790555050565b61042b6111a5565b6104356000611223565b565b6000606860009054906101000a900473ffffffffffffffffffffffffffffffffffffffff1673ffffffffffffffffffffffffffffffffffffffff1663c395fcb361047f6112e9565b6040518263ffffffff1660e01b815260040161049b9190611a34565b602060405180830381865afa1580156104b8573d6000803e3d6000fd5b505050506040513d601f19601f820116820180604052508101906104dc9190611d67565b61051b576040517f08c379a000000000000000000000000000000000000000000000000000000000815260040161051290611e17565b60405180910390fd5b606760009054906101000a900473ffffffffffffffffffffffffffffffffffffffff1673ffffffffffffffffffffffffffffffffffffffff1663f5298aca8585856040518463ffffffff1660e01b815260040161057a93929190611e37565b600060405180830381600087803b15801561059457600080fd5b505af11580156105a8573d6000803e3d6000fd5b505050508290509392505050565b606860009054906101000a900473ffffffffffffffffffffffffffffffffffffffff1681565b606760009054906101000a900473ffffffffffffffffffffffffffffffffffffffff1681565b606860009054906101000a900473ffffffffffffffffffffffffffffffffffffffff1673ffffffffffffffffffffffffffffffffffffffff1663c395fcb36106486112e9565b6040518263ffffffff1660e01b81526004016106649190611a34565b602060405180830381865afa158015610681573d6000803e3d6000fd5b505050506040513d601f19601f820116820180604052508101906106a59190611d67565b6106e4576040517f08c379a00000000000000000000000000000000000000000000000000000000081526004016106db90611e17565b60405180910390fd5b606660009054906101000a900473ffffffffffffffffffffffffffffffffffffffff1673ffffffffffffffffffffffffffffffffffffffff16637e518ec8826040518263ffffffff1660e01b815260040161073f9190611eb2565b600060405180830381600087803b15801561075957600080fd5b505af115801561076d573d6000803e3d6000fd5b5050505050565b6000606860009054906101000a900473ffffffffffffffffffffffffffffffffffffffff1673ffffffffffffffffffffffffffffffffffffffff1663099db0176107bc6112e9565b6040518263ffffffff1660e01b81526004016107d89190611a34565b602060405180830381865afa1580156107f5573d6000803e3d6000fd5b505050506040513d601f19601f820116820180604052508101906108199190611d67565b806108c35750606860009054906101000a900473ffffffffffffffffffffffffffffffffffffffff1673ffffffffffffffffffffffffffffffffffffffff1663113b0ab26108656112e9565b6040518263ffffffff1660e01b81526004016108819190611a34565b602060405180830381865afa15801561089e573d6000803e3d6000fd5b505050506040513d601f19601f820116820180604052508101906108c29190611d67565b5b8061096d5750606860009054906101000a900473ffffffffffffffffffffffffffffffffffffffff1673ffffffffffffffffffffffffffffffffffffffff1663c395fcb361090f6112e9565b6040518263ffffffff1660e01b815260040161092b9190611a34565b602060405180830381865afa158015610948573d6000803e3d6000fd5b505050506040513d601f19601f8201168201806040525081019061096c9190611d67565b5b6109ac576040517f08c379a00000000000000000000000000000000000000000000000000000000081526004016109a390611f6c565b60405180910390fd5b60006109b66112f1565b90506109c0611307565b606660009054906101000a900473ffffffffffffffffffffffffffffffffffffffff1673ffffffffffffffffffffffffffffffffffffffff166340c10f1988836040518363ffffffff1660e01b8152600401610a1d929190611f8c565b600060405180830381600087803b158015610a3757600080fd5b505af1158015610a4b573d6000803e3d6000fd5b50505050606760009054906101000a900473ffffffffffffffffffffffffffffffffffffffff1673ffffffffffffffffffffffffffffffffffffffff1663731133e9888389876040518563ffffffff1660e01b8152600401610ab09493929190611fb5565b600060405180830381600087803b158015610aca57600080fd5b505af1158015610ade573d6000803e3d6000fd5b50505050606760009054906101000a900473ffffffffffffffffffffffffffffffffffffffff1673ffffffffffffffffffffffffffffffffffffffff1663731133e9868387876040518563ffffffff1660e01b8152600401610b439493929190611fb5565b600060405180830381600087803b158015610b5d57600080fd5b505af1158015610b71573d6000803e3d6000fd5b505050508473ffffffffffffffffffffffffffffffffffffffff168773ffffffffffffffffffffffffffffffffffffffff16827f04f36aa1f4e0827d815b15947c46a5cd7e866412defdfeba53d061669244b21b8988604051610bd5929190612001565b60405180910390a48091505095945050505050565b6000603360009054906101000a900473ffffffffffffffffffffffffffffffffffffffff16905090565b60655481565b60008060019054906101000a900460ff16159050808015610c4b5750600160008054906101000a900460ff1660ff16105b80610c785750610c5a30611321565b158015610c775750600160008054906101000a900460ff1660ff16145b5b610cb7576040517f08c379a0000000000000000000000000000000000000000000000000000000008152600401610cae9061209c565b60405180910390fd5b60016000806101000a81548160ff021916908360ff1602179055508015610cf4576001600060016101000a81548160ff0219169083151502179055505b83606660006101000a81548173ffffffffffffffffffffffffffffffffffffffff021916908373ffffffffffffffffffffffffffffffffffffffff16021790555082606760006101000a81548173ffffffffffffffffffffffffffffffffffffffff021916908373ffffffffffffffffffffffffffffffffffffffff160217905550600060658190555081606860006101000a81548173ffffffffffffffffffffffffffffffffffffffff021916908373ffffffffffffffffffffffffffffffffffffffff160217905550610dc7611344565b8015610e205760008060016101000a81548160ff0219169083151502179055507f7f26b83ff96e1f2b6a682f133852f6798a09c465da95921460cefb38474024986001604051610e179190612104565b60405180910390a15b50505050565b606660009054906101000a900473ffffffffffffffffffffffffffffffffffffffff1681565b610e546111a5565b600073ffffffffffffffffffffffffffffffffffffffff168173ffffffffffffffffffffffffffffffffffffffff1603610ec3576040517f08c379a0000000000000000000000000000000000000000000000000000000008152600401610eba90612191565b60405180910390fd5b610ecc81611223565b50565b6000606860009054906101000a900473ffffffffffffffffffffffffffffffffffffffff1673ffffffffffffffffffffffffffffffffffffffff1663099db017610f176112e9565b6040518263ffffffff1660e01b8152600401610f339190611a34565b602060405180830381865afa158015610f50573d6000803e3d6000fd5b505050506040513d601f19601f82011682018060405250810190610f749190611d67565b8061101e5750606860009054906101000a900473ffffffffffffffffffffffffffffffffffffffff1673ffffffffffffffffffffffffffffffffffffffff1663113b0ab2610fc06112e9565b6040518263ffffffff1660e01b8152600401610fdc9190611a34565b602060405180830381865afa158015610ff9573d6000803e3d6000fd5b505050506040513d601f19601f8201168201806040525081019061101d9190611d67565b5b806110c85750606860009054906101000a900473ffffffffffffffffffffffffffffffffffffffff1673ffffffffffffffffffffffffffffffffffffffff1663c395fcb361106a6112e9565b6040518263ffffffff1660e01b81526004016110869190611a34565b602060405180830381865afa1580156110a3573d6000803e3d6000fd5b505050506040513d601f19601f820116820180604052508101906110c79190611d67565b5b611107576040517f08c379a00000000000000000000000000000000000000000000000000000000081526004016110fe90611f6c565b60405180910390fd5b606760009054906101000a900473ffffffffffffffffffffffffffffffffffffffff1673ffffffffffffffffffffffffffffffffffffffff1663731133e9868686866040518563ffffffff1660e01b81526004016111689493929190611fb5565b600060405180830381600087803b15801561118257600080fd5b505af1158015611196573d6000803e3d6000fd5b50505050839050949350505050565b6111ad6112e9565b73ffffffffffffffffffffffffffffffffffffffff166111cb610bea565b73ffffffffffffffffffffffffffffffffffffffff1614611221576040517f08c379a0000000000000000000000000000000000000000000000000000000008152600401611218906121fd565b60405180910390fd5b565b6000603360009054906101000a900473ffffffffffffffffffffffffffffffffffffffff16905081603360006101000a81548173ffffffffffffffffffffffffffffffffffffffff021916908373ffffffffffffffffffffffffffffffffffffffff1602179055508173ffffffffffffffffffffffffffffffffffffffff168173ffffffffffffffffffffffffffffffffffffffff167f8be0079c531659141344cd1fd0a4f28419497f9722a3daafe3b4186f6b6457e060405160405180910390a35050565b600033905090565b60006001606554611302919061224c565b905090565b6065600081548092919061131a90612280565b9190505550565b6000808273ffffffffffffffffffffffffffffffffffffffff163b119050919050565b600060019054906101000a900460ff16611393576040517f08c379a000000000000000000000000000000000000000000000000000000000815260040161138a9061233a565b60405180910390fd5b61139b61139d565b565b600060019054906101000a900460ff166113ec576040517f08c379a00000000000000000000000000000000000000000000000000000000081526004016113e39061233a565b60405180910390fd5b6113fc6113f76112e9565b611223565b565b6000604051905090565b600080fd5b600080fd5b600073ffffffffffffffffffffffffffffffffffffffff82169050919050565b600061143d82611412565b9050919050565b61144d81611432565b811461145857600080fd5b50565b60008135905061146a81611444565b92915050565b6000819050919050565b61148381611470565b811461148e57600080fd5b50565b6000813590506114a08161147a565b92915050565b600080fd5b600080fd5b6000601f19601f8301169050919050565b7f4e487b7100000000000000000000000000000000000000000000000000000000600052604160045260246000fd5b6114f9826114b0565b810181811067ffffffffffffffff82111715611518576115176114c1565b5b80604052505050565b600061152b6113fe565b905061153782826114f0565b919050565b600067ffffffffffffffff821115611557576115566114c1565b5b611560826114b0565b9050602081019050919050565b82818337600083830152505050565b600061158f61158a8461153c565b611521565b9050828152602081018484840111156115ab576115aa6114ab565b5b6115b684828561156d565b509392505050565b600082601f8301126115d3576115d26114a6565b5b81356115e384826020860161157c565b91505092915050565b600080600080600060a0868803121561160857611607611408565b5b60006116168882890161145b565b95505060206116278882890161145b565b945050604061163888828901611491565b935050606061164988828901611491565b925050608086013567ffffffffffffffff81111561166a5761166961140d565b5b611676888289016115be565b9150509295509295909350565b6000806000806080858703121561169d5761169c611408565b5b60006116ab8782880161145b565b94505060206116bc8782880161145b565b93505060406116cd87828801611491565b925050606085013567ffffffffffffffff8111156116ee576116ed61140d565b5b6116fa878288016115be565b91505092959194509250565b600061171182611432565b9050919050565b61172181611706565b811461172c57600080fd5b50565b60008135905061173e81611718565b92915050565b60006020828403121561175a57611759611408565b5b60006117688482850161172f565b91505092915050565b60008060006060848603121561178a57611789611408565b5b60006117988682870161145b565b93505060206117a986828701611491565b92505060406117ba86828701611491565b9150509250925092565b6117cd81611470565b82525050565b60006020820190506117e860008301846117c4565b92915050565b6000819050919050565b600061181361180e61180984611412565b6117ee565b611412565b9050919050565b6000611825826117f8565b9050919050565b60006118378261181a565b9050919050565b6118478161182c565b82525050565b6000602082019050611862600083018461183e565b92915050565b60006118738261181a565b9050919050565b61188381611868565b82525050565b600060208201905061189e600083018461187a565b92915050565b600067ffffffffffffffff8211156118bf576118be6114c1565b5b6118c8826114b0565b9050602081019050919050565b60006118e86118e3846118a4565b611521565b905082815260208101848484011115611904576119036114ab565b5b61190f84828561156d565b509392505050565b600082601f83011261192c5761192b6114a6565b5b813561193c8482602086016118d5565b91505092915050565b60006020828403121561195b5761195a611408565b5b600082013567ffffffffffffffff8111156119795761197861140d565b5b61198584828501611917565b91505092915050565b600080600080600060a086880312156119aa576119a9611408565b5b60006119b88882890161145b565b95505060206119c988828901611491565b94505060406119da8882890161145b565b93505060606119eb88828901611491565b925050608086013567ffffffffffffffff811115611a0c57611a0b61140d565b5b611a18888289016115be565b9150509295509295909350565b611a2e81611432565b82525050565b6000602082019050611a496000830184611a25565b92915050565b6000611a5a82611432565b9050919050565b611a6a81611a4f565b8114611a7557600080fd5b50565b600081359050611a8781611a61565b92915050565b6000611a9882611432565b9050919050565b611aa881611a8d565b8114611ab357600080fd5b50565b600081359050611ac581611a9f565b92915050565b600080600060608486031215611ae457611ae3611408565b5b6000611af286828701611a78565b9350506020611b0386828701611ab6565b9250506040611b148682870161172f565b9150509250925092565b6000611b298261181a565b9050919050565b611b3981611b1e565b82525050565b6000602082019050611b546000830184611b30565b92915050565b600060208284031215611b7057611b6f611408565b5b6000611b7e8482850161145b565b91505092915050565b60008060008060808587031215611ba157611ba0611408565b5b6000611baf8782880161145b565b9450506020611bc087828801611491565b9350506040611bd187828801611491565b925050606085013567ffffffffffffffff811115611bf257611bf161140d565b5b611bfe878288016115be565b91505092959194509250565b600081519050919050565b600082825260208201905092915050565b60005b83811015611c44578082015181840152602081019050611c29565b60008484015250505050565b6000611c5b82611c0a565b611c658185611c15565b9350611c75818560208601611c26565b611c7e816114b0565b840191505092915050565b600060a082019050611c9e6000830188611a25565b611cab6020830187611a25565b611cb860408301866117c4565b611cc560608301856117c4565b8181036080830152611cd78184611c50565b90509695505050505050565b6000608082019050611cf86000830187611a25565b611d056020830186611a25565b611d1260408301856117c4565b8181036060830152611d248184611c50565b905095945050505050565b60008115159050919050565b611d4481611d2f565b8114611d4f57600080fd5b50565b600081519050611d6181611d3b565b92915050565b600060208284031215611d7d57611d7c611408565b5b6000611d8b84828501611d52565b91505092915050565b600082825260208201905092915050565b7f6f6e6c792061646d696e2063616e20706572666f726d2074686973206f70657260008201527f6174696f6e000000000000000000000000000000000000000000000000000000602082015250565b6000611e01602583611d94565b9150611e0c82611da5565b604082019050919050565b60006020820190508181036000830152611e3081611df4565b9050919050565b6000606082019050611e4c6000830186611a25565b611e5960208301856117c4565b611e6660408301846117c4565b949350505050565b600081519050919050565b6000611e8482611e6e565b611e8e8185611d94565b9350611e9e818560208601611c26565b611ea7816114b0565b840191505092915050565b60006020820190508181036000830152611ecc8184611e79565b905092915050565b7f6f6e6c79206d696e7465722c736d617274636f6e747261637420726f6c652c2060008201527f6f722061646d696e2063616e20706572666f726d2074686973206f706572617460208201527f696f6e0000000000000000000000000000000000000000000000000000000000604082015250565b6000611f56604383611d94565b9150611f6182611ed4565b606082019050919050565b60006020820190508181036000830152611f8581611f49565b9050919050565b6000604082019050611fa16000830185611a25565b611fae60208301846117c4565b9392505050565b6000608082019050611fca6000830187611a25565b611fd760208301866117c4565b611fe460408301856117c4565b8181036060830152611ff68184611c50565b905095945050505050565b600060408201905061201660008301856117c4565b61202360208301846117c4565b9392505050565b7f496e697469616c697a61626c653a20636f6e747261637420697320616c72656160008201527f647920696e697469616c697a6564000000000000000000000000000000000000602082015250565b6000612086602e83611d94565b91506120918261202a565b604082019050919050565b600060208201905081810360008301526120b581612079565b9050919050565b6000819050919050565b600060ff82169050919050565b60006120ee6120e96120e4846120bc565b6117ee565b6120c6565b9050919050565b6120fe816120d3565b82525050565b600060208201905061211960008301846120f5565b92915050565b7f4f776e61626c653a206e6577206f776e657220697320746865207a65726f206160008201527f6464726573730000000000000000000000000000000000000000000000000000602082015250565b600061217b602683611d94565b91506121868261211f565b604082019050919050565b600060208201905081810360008301526121aa8161216e565b9050919050565b7f4f776e61626c653a2063616c6c6572206973206e6f7420746865206f776e6572600082015250565b60006121e7602083611d94565b91506121f2826121b1565b602082019050919050565b60006020820190508181036000830152612216816121da565b9050919050565b7f4e487b7100000000000000000000000000000000000000000000000000000000600052601160045260246000fd5b600061225782611470565b915061226283611470565b925082820190508082111561227a5761227961221d565b5b92915050565b600061228b82611470565b91507fffffffffffffffffffffffffffffffffffffffffffffffffffffffffffffffff82036122bd576122bc61221d565b5b600182019050919050565b7f496e697469616c697a61626c653a20636f6e7472616374206973206e6f74206960008201527f6e697469616c697a696e67000000000000000000000000000000000000000000602082015250565b6000612324602b83611d94565b915061232f826122c8565b604082019050919050565b6000602082019050818103600083015261235381612317565b905091905056fea264697066735822122080639883a6fcb2d4180fbf3552bbdf727e600005e3ae02c616f33783efacb24964736f6c63430008100033",
  "devdoc": {
    "kind": "dev",
    "methods": {
      "burnCarbonCredit(address,uint256,uint256)": {
        "details": "only admin role",
        "params": {
          "_amount": "amount of the CarbonCredit what is burned",
          "_id": "token Id of the CarbonCredit what is burned",
          "_projectOwnerAddress": "Address of the owner of the CarbonCredit token what is burned"
        }
      },
      "create(address,uint256,address,uint256,bytes)": {
        "details": "only minter, smart contract or admin role",
        "params": {
          "_amount": "the amount of CarbonCredit to be minted to _projectOwnerAddress",
          "_amountToInsurance": "the amount of CarbonCredit to be minted to _insuranceAddress",
          "_data": "external data of new project",
          "_insuranceAddress": "Address of the insurance company",
          "_projectOwnerAddress": "Address of the owner of the new token(ERC721 and ERC1155)"
        }
      },
      "mintCarbonCredit(address,uint256,uint256,bytes)": {
        "details": "only minter, smart contract or admin role",
        "params": {
          "_amount": "the amount of CarbonCredit",
          "_data": "external data of new project",
          "_id": "token Id of the CarbonCredit what is minted",
          "_projectOwnerAddress": "Address to recieve CarbonCredit tokens"
        }
      },
      "owner()": {
        "details": "Returns the address of the current owner."
      },
      "renounceOwnership()": {
        "details": "Leaves the contract without owner. It will not be possible to call `onlyOwner` functions anymore. Can only be called by the current owner. NOTE: Renouncing ownership will leave the contract without an owner, thereby removing any functionality that is only available to the owner."
      },
      "setBaseMetadataURI(string)": {
        "details": "set baseMetadataURI for ERC721 token"
      },
      "transferCarbonCredit(address,address,uint256,uint256,bytes)": {
        "details": "only admin role",
        "params": {
          "_buyerAddress": "Address of the buyer",
          "_data": "external data for transferring NFT",
          "_id": "token Id of the CarbonCredit what is transferred",
          "_sellerAddress": "Address of the seller"
        }
      },
      "transferNFT(address,address,uint256,bytes)": {
        "details": "only admin role",
        "params": {
          "_buyerAddress": "Address of the buyer",
          "_data": "external data for transferring NFT",
          "_id": "token Id of the CarbonCredit what is transferred",
          "_sellerAddress": "Address of the seller"
        }
      },
      "transferOwnership(address)": {
        "details": "Transfers ownership of the contract to a new account (`newOwner`). Can only be called by the current owner."
      },
      "updateAccessControls(address)": {
        "details": "Only admin",
        "params": {
          "_accessControls": "Address of the new access controls contract"
        }
      }
    },
    "stateVariables": {
      "accessControls": {
        "details": "Required to govern who can call certain functions"
      },
      "carboncreditContract": {
        "details": "Required to manage ERC1155"
      },
      "nftContract": {
        "details": "Required to manage ERC721"
      }
    },
    "version": 1
  },
  "userdoc": {
    "events": {
      "Create(uint256,address,uint256,address,uint256)": {
        "notice": "Event emitted when token is created"
      }
    },
    "kind": "user",
    "methods": {
      "burnCarbonCredit(address,uint256,uint256)": {
        "notice": "Method for burning CarbonCredit"
      },
      "create(address,uint256,address,uint256,bytes)": {
        "notice": "Method for creating project(ERC721) and carbon credits(ERC1155) for it"
      },
      "mintCarbonCredit(address,uint256,uint256,bytes)": {
        "notice": "Method for minting CarbonCredit"
      },
      "transferCarbonCredit(address,address,uint256,uint256,bytes)": {
        "notice": "Method for transferring CarbonCredit"
      },
      "transferNFT(address,address,uint256,bytes)": {
        "notice": "Method for transferring NFT and CarbonCredit of it"
      },
      "updateAccessControls(address)": {
        "notice": "Method for updating the access controls contract used by the NFT"
      }
    },
    "version": 1
  },
  "storageLayout": {
    "storage": [
      {
        "astId": 551,
        "contract": "contracts/SolidMarketplace.sol:SolidMarketplace",
        "label": "_initialized",
        "offset": 0,
        "slot": "0",
        "type": "t_uint8"
      },
      {
        "astId": 554,
        "contract": "contracts/SolidMarketplace.sol:SolidMarketplace",
        "label": "_initializing",
        "offset": 1,
        "slot": "0",
        "type": "t_bool"
      },
      {
        "astId": 3455,
        "contract": "contracts/SolidMarketplace.sol:SolidMarketplace",
        "label": "__gap",
        "offset": 0,
        "slot": "1",
        "type": "t_array(t_uint256)50_storage"
      },
      {
        "astId": 423,
        "contract": "contracts/SolidMarketplace.sol:SolidMarketplace",
        "label": "_owner",
        "offset": 0,
        "slot": "51",
        "type": "t_address"
      },
      {
        "astId": 543,
        "contract": "contracts/SolidMarketplace.sol:SolidMarketplace",
        "label": "__gap",
        "offset": 0,
        "slot": "52",
        "type": "t_array(t_uint256)49_storage"
      },
      {
        "astId": 7797,
        "contract": "contracts/SolidMarketplace.sol:SolidMarketplace",
        "label": "currentTokenID",
        "offset": 0,
        "slot": "101",
        "type": "t_uint256"
      },
      {
        "astId": 7801,
        "contract": "contracts/SolidMarketplace.sol:SolidMarketplace",
        "label": "nftContract",
        "offset": 0,
        "slot": "102",
        "type": "t_contract(NFT)7280"
      },
      {
        "astId": 7805,
        "contract": "contracts/SolidMarketplace.sol:SolidMarketplace",
        "label": "carboncreditContract",
        "offset": 0,
        "slot": "103",
        "type": "t_contract(CarbonCredit)7198"
      },
      {
        "astId": 7809,
        "contract": "contracts/SolidMarketplace.sol:SolidMarketplace",
        "label": "accessControls",
        "offset": 0,
        "slot": "104",
        "type": "t_contract(SolidAccessControl)7494"
      }
    ],
    "types": {
      "t_address": {
        "encoding": "inplace",
        "label": "address",
        "numberOfBytes": "20"
      },
      "t_array(t_uint256)49_storage": {
        "base": "t_uint256",
        "encoding": "inplace",
        "label": "uint256[49]",
        "numberOfBytes": "1568"
      },
      "t_array(t_uint256)50_storage": {
        "base": "t_uint256",
        "encoding": "inplace",
        "label": "uint256[50]",
        "numberOfBytes": "1600"
      },
      "t_bool": {
        "encoding": "inplace",
        "label": "bool",
        "numberOfBytes": "1"
      },
      "t_contract(CarbonCredit)7198": {
        "encoding": "inplace",
        "label": "contract CarbonCredit",
        "numberOfBytes": "20"
      },
      "t_contract(NFT)7280": {
        "encoding": "inplace",
        "label": "contract NFT",
        "numberOfBytes": "20"
      },
      "t_contract(SolidAccessControl)7494": {
        "encoding": "inplace",
        "label": "contract SolidAccessControl",
        "numberOfBytes": "20"
      },
      "t_uint256": {
        "encoding": "inplace",
        "label": "uint256",
        "numberOfBytes": "32"
      },
      "t_uint8": {
        "encoding": "inplace",
        "label": "uint8",
        "numberOfBytes": "1"
      }
    }
  }
}