{
  "address": "0x81dcA405F3125886D78D03831eae9287EfB40dE6",
  "abi": [
    {
      "inputs": [
        {
          "internalType": "uint256",
          "name": "amountOut",
          "type": "uint256"
        },
        {
          "internalType": "uint256",
          "name": "minAmountOut",
          "type": "uint256"
        }
      ],
      "name": "AmountOutLessThanMinimum",
      "type": "error"
    },
    {
      "inputs": [
        {
          "internalType": "uint256",
          "name": "amountOut",
          "type": "uint256"
        }
      ],
      "name": "AmountOutTooLow",
      "type": "error"
    },
    {
      "inputs": [
        {
          "internalType": "uint256",
          "name": "batchId",
          "type": "uint256"
        }
      ],
      "name": "BatchAlreadyExists",
      "type": "error"
    },
    {
      "inputs": [
        {
          "internalType": "uint32",
          "name": "dueDate",
          "type": "uint32"
        }
      ],
      "name": "BatchDueDateInThePast",
      "type": "error"
    },
    {
      "inputs": [
        {
          "internalType": "uint256",
          "name": "categoryId",
          "type": "uint256"
        }
      ],
      "name": "CategoryAlreadyExists",
      "type": "error"
    },
    {
      "inputs": [
        {
          "internalType": "uint256",
          "name": "startDate",
          "type": "uint256"
        },
        {
          "internalType": "uint256",
          "name": "endDate",
          "type": "uint256"
        }
      ],
      "name": "IncorrectDates",
      "type": "error"
    },
    {
      "inputs": [
        {
          "internalType": "uint256",
          "name": "batchId",
          "type": "uint256"
        }
      ],
      "name": "InvalidBatchId",
      "type": "error"
    },
    {
      "inputs": [],
      "name": "InvalidBatchOwner",
      "type": "error"
    },
    {
      "inputs": [
        {
          "internalType": "uint256",
          "name": "categoryId",
          "type": "uint256"
        }
      ],
      "name": "InvalidCategoryId",
      "type": "error"
    },
    {
      "inputs": [],
      "name": "InvalidInput",
      "type": "error"
    },
    {
      "inputs": [
        {
          "internalType": "uint256",
          "name": "projectId",
          "type": "uint256"
        }
      ],
      "name": "InvalidProjectId",
      "type": "error"
    },
    {
      "inputs": [
        {
          "internalType": "uint256",
          "name": "projectId",
          "type": "uint256"
        }
      ],
      "name": "ProjectAlreadyExists",
      "type": "error"
    },
    {
      "inputs": [
        {
          "internalType": "address",
          "name": "account",
          "type": "address"
        }
      ],
      "name": "UnauthorizedRewardMinting",
      "type": "error"
    },
    {
      "anonymous": false,
      "inputs": [
        {
          "indexed": true,
          "internalType": "uint256",
          "name": "batchId",
          "type": "uint256"
        },
        {
          "indexed": false,
          "internalType": "uint256",
          "name": "amountIn",
          "type": "uint256"
        },
        {
          "indexed": false,
          "internalType": "uint256",
          "name": "amountOut",
          "type": "uint256"
        },
        {
          "indexed": true,
          "internalType": "address",
          "name": "batchOwner",
          "type": "address"
        }
      ],
      "name": "BatchCollateralized",
      "type": "event"
    },
    {
      "anonymous": false,
      "inputs": [
        {
          "indexed": true,
          "internalType": "uint256",
          "name": "batchId",
          "type": "uint256"
        }
      ],
      "name": "BatchCreated",
      "type": "event"
    },
    {
      "anonymous": false,
      "inputs": [
        {
          "indexed": true,
          "internalType": "uint256",
          "name": "categoryId",
          "type": "uint256"
        }
      ],
      "name": "CategoryCreated",
      "type": "event"
    },
    {
      "anonymous": false,
      "inputs": [
        {
          "indexed": false,
          "internalType": "uint8",
          "name": "version",
          "type": "uint8"
        }
      ],
      "name": "Initialized",
      "type": "event"
    },
    {
      "anonymous": false,
      "inputs": [
        {
          "indexed": true,
          "internalType": "address",
          "name": "previousOwner",
          "type": "address"
        },
        {
          "indexed": true,
          "internalType": "address",
          "name": "newOwner",
          "type": "address"
        }
      ],
      "name": "OwnershipTransferred",
      "type": "event"
    },
    {
      "anonymous": false,
      "inputs": [
        {
          "indexed": true,
          "internalType": "uint256",
          "name": "projectId",
          "type": "uint256"
        }
      ],
      "name": "ProjectCreated",
      "type": "event"
    },
    {
      "anonymous": false,
      "inputs": [
        {
          "indexed": true,
          "internalType": "uint256",
          "name": "batchId",
          "type": "uint256"
        },
        {
          "indexed": false,
          "internalType": "uint256",
          "name": "amountIn",
          "type": "uint256"
        },
        {
          "indexed": false,
          "internalType": "uint256",
          "name": "amountOut",
          "type": "uint256"
        },
        {
          "indexed": true,
          "internalType": "address",
          "name": "tokensOwner",
          "type": "address"
        }
      ],
      "name": "TokensDecollateralized",
      "type": "event"
    },
    {
      "anonymous": false,
      "inputs": [
        {
          "indexed": true,
          "internalType": "address",
          "name": "rewardToken",
          "type": "address"
        },
        {
          "indexed": true,
          "internalType": "uint256",
          "name": "rewardAmount",
          "type": "uint256"
        }
      ],
      "name": "WeeklyRewardMinted",
      "type": "event"
    },
    {
      "inputs": [],
      "name": "DECOLLATERALIZATION_SIMULATION_INPUT",
      "outputs": [
        {
          "internalType": "uint256",
          "name": "",
          "type": "uint256"
        }
      ],
      "stateMutability": "view",
      "type": "function"
    },
    {
      "inputs": [
        {
          "components": [
            {
              "internalType": "uint256",
              "name": "id",
              "type": "uint256"
            },
            {
              "internalType": "uint256",
              "name": "projectId",
              "type": "uint256"
            },
            {
              "internalType": "uint256",
              "name": "totalAmount",
              "type": "uint256"
            },
            {
              "internalType": "address",
              "name": "owner",
              "type": "address"
            },
            {
              "internalType": "uint32",
              "name": "expectedDueDate",
              "type": "uint32"
            },
            {
              "internalType": "uint16",
              "name": "vintage",
              "type": "uint16"
            },
            {
              "internalType": "uint8",
              "name": "status",
              "type": "uint8"
            },
            {
              "internalType": "uint24",
              "name": "discountRate",
              "type": "uint24"
            }
          ],
          "internalType": "struct SolidWorldManager.Batch",
          "name": "batch",
          "type": "tuple"
        }
      ],
      "name": "addBatch",
      "outputs": [],
      "stateMutability": "nonpayable",
      "type": "function"
    },
    {
      "inputs": [
        {
          "internalType": "uint256",
          "name": "categoryId",
          "type": "uint256"
        },
        {
          "internalType": "string",
          "name": "tokenName",
          "type": "string"
        },
        {
          "internalType": "string",
          "name": "tokenSymbol",
          "type": "string"
        }
      ],
      "name": "addCategory",
      "outputs": [],
      "stateMutability": "nonpayable",
      "type": "function"
    },
    {
      "inputs": [
        {
          "internalType": "uint256",
          "name": "categoryId",
          "type": "uint256"
        },
        {
          "internalType": "uint256",
          "name": "projectId",
          "type": "uint256"
        }
      ],
      "name": "addProject",
      "outputs": [],
      "stateMutability": "nonpayable",
      "type": "function"
    },
    {
      "inputs": [
        {
          "internalType": "uint256",
          "name": "",
          "type": "uint256"
        }
      ],
      "name": "batchCreated",
      "outputs": [
        {
          "internalType": "bool",
          "name": "",
          "type": "bool"
        }
      ],
      "stateMutability": "view",
      "type": "function"
    },
    {
      "inputs": [
        {
          "internalType": "uint256",
          "name": "",
          "type": "uint256"
        }
      ],
      "name": "batchIds",
      "outputs": [
        {
          "internalType": "uint256",
          "name": "",
          "type": "uint256"
        }
      ],
      "stateMutability": "view",
      "type": "function"
    },
    {
      "inputs": [
        {
          "internalType": "uint256",
          "name": "",
          "type": "uint256"
        }
      ],
      "name": "batches",
      "outputs": [
        {
          "internalType": "uint256",
          "name": "id",
          "type": "uint256"
        },
        {
          "internalType": "uint256",
          "name": "projectId",
          "type": "uint256"
        },
        {
          "internalType": "uint256",
          "name": "totalAmount",
          "type": "uint256"
        },
        {
          "internalType": "address",
          "name": "owner",
          "type": "address"
        },
        {
          "internalType": "uint32",
          "name": "expectedDueDate",
          "type": "uint32"
        },
        {
          "internalType": "uint16",
          "name": "vintage",
          "type": "uint16"
        },
        {
          "internalType": "uint8",
          "name": "status",
          "type": "uint8"
        },
        {
          "internalType": "uint24",
          "name": "discountRate",
          "type": "uint24"
        }
      ],
      "stateMutability": "view",
      "type": "function"
    },
    {
      "inputs": [
        {
          "internalType": "uint256[]",
          "name": "_batchIds",
          "type": "uint256[]"
        },
        {
          "internalType": "uint256[]",
          "name": "amountsIn",
          "type": "uint256[]"
        },
        {
          "internalType": "uint256[]",
          "name": "amountsOutMin",
          "type": "uint256[]"
        }
      ],
      "name": "bulkDecollateralizeTokens",
      "outputs": [],
      "stateMutability": "nonpayable",
      "type": "function"
    },
    {
      "inputs": [
        {
          "internalType": "uint256",
          "name": "",
          "type": "uint256"
        }
      ],
      "name": "categoryIds",
      "outputs": [
        {
          "internalType": "bool",
          "name": "",
          "type": "bool"
        }
      ],
      "stateMutability": "view",
      "type": "function"
    },
    {
      "inputs": [
        {
          "internalType": "uint256",
          "name": "",
          "type": "uint256"
        },
        {
          "internalType": "uint256",
          "name": "",
          "type": "uint256"
        }
      ],
      "name": "categoryProjects",
      "outputs": [
        {
          "internalType": "uint256",
          "name": "",
          "type": "uint256"
        }
      ],
      "stateMutability": "view",
      "type": "function"
    },
    {
      "inputs": [
        {
          "internalType": "uint256",
          "name": "",
          "type": "uint256"
        }
      ],
      "name": "categoryToken",
      "outputs": [
        {
          "internalType": "contract CollateralizedBasketToken",
          "name": "",
          "type": "address"
        }
      ],
      "stateMutability": "view",
      "type": "function"
    },
    {
      "inputs": [],
      "name": "collateralizationFee",
      "outputs": [
        {
          "internalType": "uint16",
          "name": "",
          "type": "uint16"
        }
      ],
      "stateMutability": "view",
      "type": "function"
    },
    {
      "inputs": [
        {
          "internalType": "uint256",
          "name": "batchId",
          "type": "uint256"
        },
        {
          "internalType": "uint256",
          "name": "amountIn",
          "type": "uint256"
        },
        {
          "internalType": "uint256",
          "name": "amountOutMin",
          "type": "uint256"
        }
      ],
      "name": "collateralizeBatch",
      "outputs": [],
      "stateMutability": "nonpayable",
      "type": "function"
    },
    {
      "inputs": [
        {
          "internalType": "address[]",
          "name": "assets",
          "type": "address[]"
        },
        {
          "internalType": "uint256[]",
          "name": "_categoryIds",
          "type": "uint256[]"
        }
      ],
      "name": "computeWeeklyCarbonRewards",
      "outputs": [
        {
          "internalType": "address[]",
          "name": "carbonRewards",
          "type": "address[]"
        },
        {
          "internalType": "uint256[]",
          "name": "rewardAmounts",
          "type": "uint256[]"
        }
      ],
      "stateMutability": "view",
      "type": "function"
    },
    {
      "inputs": [],
      "name": "decollateralizationFee",
      "outputs": [
        {
          "internalType": "uint16",
          "name": "",
          "type": "uint16"
        }
      ],
      "stateMutability": "view",
      "type": "function"
    },
    {
      "inputs": [
        {
          "internalType": "uint256",
          "name": "batchId",
          "type": "uint256"
        },
        {
          "internalType": "uint256",
          "name": "amountIn",
          "type": "uint256"
        },
        {
          "internalType": "uint256",
          "name": "amountOutMin",
          "type": "uint256"
        }
      ],
      "name": "decollateralizeTokens",
      "outputs": [],
      "stateMutability": "nonpayable",
      "type": "function"
    },
    {
      "inputs": [],
      "name": "feeReceiver",
      "outputs": [
        {
          "internalType": "address",
          "name": "",
          "type": "address"
        }
      ],
      "stateMutability": "view",
      "type": "function"
    },
    {
      "inputs": [],
      "name": "forwardContractBatch",
      "outputs": [
        {
          "internalType": "contract ForwardContractBatchToken",
          "name": "",
          "type": "address"
        }
      ],
      "stateMutability": "view",
      "type": "function"
    },
    {
      "inputs": [
        {
          "internalType": "uint256",
          "name": "projectId",
          "type": "uint256"
        }
      ],
      "name": "getBatchIdsByProject",
      "outputs": [
        {
          "internalType": "uint256[]",
          "name": "",
          "type": "uint256[]"
        }
      ],
      "stateMutability": "view",
      "type": "function"
    },
    {
      "inputs": [
        {
          "internalType": "uint256",
          "name": "projectId",
          "type": "uint256"
        },
        {
          "internalType": "uint256",
          "name": "vintage",
          "type": "uint256"
        }
      ],
      "name": "getBatchesDecollateralizationInfo",
      "outputs": [
        {
          "components": [
            {
              "internalType": "uint256",
              "name": "batchId",
              "type": "uint256"
            },
            {
              "internalType": "uint256",
              "name": "availableBatchTokens",
              "type": "uint256"
            },
            {
              "internalType": "uint256",
              "name": "amountOut",
              "type": "uint256"
            },
            {
              "internalType": "uint256",
              "name": "minAmountIn",
              "type": "uint256"
            },
            {
              "internalType": "uint256",
              "name": "minCbtDaoCut",
              "type": "uint256"
            }
          ],
          "internalType": "struct SolidWorldManager.TokenDecollateralizationInfo[]",
          "name": "result",
          "type": "tuple[]"
        }
      ],
      "stateMutability": "view",
      "type": "function"
    },
    {
      "inputs": [
        {
          "internalType": "uint256",
          "name": "categoryId",
          "type": "uint256"
        }
      ],
      "name": "getProjectIdsByCategory",
      "outputs": [
        {
          "internalType": "uint256[]",
          "name": "",
          "type": "uint256[]"
        }
      ],
      "stateMutability": "view",
      "type": "function"
    },
    {
      "inputs": [
        {
          "internalType": "contract ForwardContractBatchToken",
          "name": "_forwardContractBatch",
          "type": "address"
        },
        {
          "internalType": "uint16",
          "name": "_collateralizationFee",
          "type": "uint16"
        },
        {
          "internalType": "uint16",
          "name": "_decollateralizationFee",
          "type": "uint16"
        },
        {
          "internalType": "address",
          "name": "_feeReceiver",
          "type": "address"
        },
        {
          "internalType": "address",
          "name": "_weeklyRewardsMinter",
          "type": "address"
        }
      ],
      "name": "initialize",
      "outputs": [],
      "stateMutability": "nonpayable",
      "type": "function"
    },
    {
      "inputs": [
        {
          "internalType": "address[]",
          "name": "carbonRewards",
          "type": "address[]"
        },
        {
          "internalType": "uint256[]",
          "name": "rewardAmounts",
          "type": "uint256[]"
        },
        {
          "internalType": "address",
          "name": "rewardsVault",
          "type": "address"
        }
      ],
      "name": "mintWeeklyCarbonRewards",
      "outputs": [],
      "stateMutability": "nonpayable",
      "type": "function"
    },
    {
      "inputs": [
        {
          "internalType": "address",
          "name": "",
          "type": "address"
        },
        {
          "internalType": "address",
          "name": "",
          "type": "address"
        },
        {
          "internalType": "uint256[]",
          "name": "",
          "type": "uint256[]"
        },
        {
          "internalType": "uint256[]",
          "name": "",
          "type": "uint256[]"
        },
        {
          "internalType": "bytes",
          "name": "",
          "type": "bytes"
        }
      ],
      "name": "onERC1155BatchReceived",
      "outputs": [
        {
          "internalType": "bytes4",
          "name": "",
          "type": "bytes4"
        }
      ],
      "stateMutability": "nonpayable",
      "type": "function"
    },
    {
      "inputs": [
        {
          "internalType": "address",
          "name": "",
          "type": "address"
        },
        {
          "internalType": "address",
          "name": "",
          "type": "address"
        },
        {
          "internalType": "uint256",
          "name": "",
          "type": "uint256"
        },
        {
          "internalType": "uint256",
          "name": "",
          "type": "uint256"
        },
        {
          "internalType": "bytes",
          "name": "",
          "type": "bytes"
        }
      ],
      "name": "onERC1155Received",
      "outputs": [
        {
          "internalType": "bytes4",
          "name": "",
          "type": "bytes4"
        }
      ],
      "stateMutability": "nonpayable",
      "type": "function"
    },
    {
      "inputs": [],
      "name": "owner",
      "outputs": [
        {
          "internalType": "address",
          "name": "",
          "type": "address"
        }
      ],
      "stateMutability": "view",
      "type": "function"
    },
    {
      "inputs": [
        {
          "internalType": "uint256",
          "name": "",
          "type": "uint256"
        },
        {
          "internalType": "uint256",
          "name": "",
          "type": "uint256"
        }
      ],
      "name": "projectBatches",
      "outputs": [
        {
          "internalType": "uint256",
          "name": "",
          "type": "uint256"
        }
      ],
      "stateMutability": "view",
      "type": "function"
    },
    {
      "inputs": [
        {
          "internalType": "uint256",
          "name": "",
          "type": "uint256"
        }
      ],
      "name": "projectCategory",
      "outputs": [
        {
          "internalType": "uint256",
          "name": "",
          "type": "uint256"
        }
      ],
      "stateMutability": "view",
      "type": "function"
    },
    {
      "inputs": [
        {
          "internalType": "uint256",
          "name": "",
          "type": "uint256"
        }
      ],
      "name": "projectIds",
      "outputs": [
        {
          "internalType": "bool",
          "name": "",
          "type": "bool"
        }
      ],
      "stateMutability": "view",
      "type": "function"
    },
    {
      "inputs": [],
      "name": "renounceOwnership",
      "outputs": [],
      "stateMutability": "nonpayable",
      "type": "function"
    },
    {
      "inputs": [
        {
          "internalType": "uint16",
          "name": "_collateralizationFee",
          "type": "uint16"
        }
      ],
      "name": "setCollateralizationFee",
      "outputs": [],
      "stateMutability": "nonpayable",
      "type": "function"
    },
    {
      "inputs": [
        {
          "internalType": "uint16",
          "name": "_decollateralizationFee",
          "type": "uint16"
        }
      ],
      "name": "setDecollateralizationFee",
      "outputs": [],
      "stateMutability": "nonpayable",
      "type": "function"
    },
    {
      "inputs": [
        {
          "internalType": "address",
          "name": "_feeReceiver",
          "type": "address"
        }
      ],
      "name": "setFeeReceiver",
      "outputs": [],
      "stateMutability": "nonpayable",
      "type": "function"
    },
    {
      "inputs": [
        {
          "internalType": "address",
          "name": "_weeklyRewardsMinter",
          "type": "address"
        }
      ],
      "name": "setWeeklyRewardsMinter",
      "outputs": [],
      "stateMutability": "nonpayable",
      "type": "function"
    },
    {
      "inputs": [
        {
          "internalType": "uint256",
          "name": "batchId",
          "type": "uint256"
        },
        {
          "internalType": "uint256",
          "name": "amountIn",
          "type": "uint256"
        }
      ],
      "name": "simulateBatchCollateralization",
      "outputs": [
        {
          "internalType": "uint256",
          "name": "cbtUserCut",
          "type": "uint256"
        },
        {
          "internalType": "uint256",
          "name": "cbtDaoCut",
          "type": "uint256"
        },
        {
          "internalType": "uint256",
          "name": "cbtForfeited",
          "type": "uint256"
        }
      ],
      "stateMutability": "view",
      "type": "function"
    },
    {
      "inputs": [
        {
          "internalType": "uint256",
          "name": "batchId",
          "type": "uint256"
        },
        {
          "internalType": "uint256",
          "name": "amountIn",
          "type": "uint256"
        }
      ],
      "name": "simulateDecollateralization",
      "outputs": [
        {
          "internalType": "uint256",
          "name": "amountOut",
          "type": "uint256"
        },
        {
          "internalType": "uint256",
          "name": "minAmountIn",
          "type": "uint256"
        },
        {
          "internalType": "uint256",
          "name": "minCbtDaoCut",
          "type": "uint256"
        }
      ],
      "stateMutability": "view",
      "type": "function"
    },
    {
      "inputs": [
        {
          "internalType": "bytes4",
          "name": "interfaceId",
          "type": "bytes4"
        }
      ],
      "name": "supportsInterface",
      "outputs": [
        {
          "internalType": "bool",
          "name": "",
          "type": "bool"
        }
      ],
      "stateMutability": "pure",
      "type": "function"
    },
    {
      "inputs": [
        {
          "internalType": "address",
          "name": "newOwner",
          "type": "address"
        }
      ],
      "name": "transferOwnership",
      "outputs": [],
      "stateMutability": "nonpayable",
      "type": "function"
    },
    {
      "inputs": [],
      "name": "weeklyRewardsMinter",
      "outputs": [
        {
          "internalType": "address",
          "name": "",
          "type": "address"
        }
      ],
      "stateMutability": "view",
      "type": "function"
    }
  ],
  "transactionHash": "0x468a15e411e40b1ebcb901052812d6acab2ab646665a02794cb1ff374eb9eda8",
  "args": [],
  "numDeployments": 1,
  "solcInputHash": "a8509a4c1d041601677a419b8a7fbc82",
  "bytecode": "0x608060405234801561001057600080fd5b5061531f806100206000396000f3fe60806040523480156200001157600080fd5b5060043610620002e45760003560e01c8063b12e4df91162000199578063d63098dd11620000e9578063f23a6e611162000097578063f468ae99116200007a578063f468ae991462000913578063f7c3fec21462000929578063fb5ba8eb146200097657600080fd5b8063f23a6e6114620008c1578063f2fde38b14620008fc57600080fd5b8063dacc181a11620000cc578063dacc181a1462000844578063ef016cdd146200086a578063efdcd974146200088157600080fd5b8063d63098dd1462000807578063da12b235146200082d57600080fd5b8063b505ab861162000147578063bc197c81116200012a578063bc197c81146200076c578063c007acf614620007d9578063ce39013414620007f057600080fd5b8063b505ab861462000744578063b5ca64ec146200075b57600080fd5b8063b32c4d8d116200017c578063b32c4d8d1462000623578063b3d346b91462000719578063b3f00674146200073057600080fd5b8063b12e4df914620005f5578063b2c6f00c146200060c57600080fd5b806368fb7ea111620002555780638da5cb5b1162000203578063915e991311620001e6578063915e991314620005a157806393fa058114620005c7578063940870dc14620005de57600080fd5b80638da5cb5b14620005785780638eb79114146200058a57600080fd5b8063715018a61162000238578063715018a614620005345780637902298e146200053e5780638cbacb8d146200056457600080fd5b806368fb7ea114620004fa5780636a2848e3146200051157600080fd5b806322cfa22511620002b357806348c35ad4116200029657806348c35ad4146200046e5780634dccd39514620004945780635c4e7a0514620004ba57600080fd5b806322cfa22514620003da5780632c5dd8a9146200041f57600080fd5b806301ffc9a714620002e9578063084951cf14620003565780631d3ad55414620003805780631fb0a62414620003a7575b600080fd5b62000341620002fa36600462003420565b7fffffffff00000000000000000000000000000000000000000000000000000000167fd9b67a26000000000000000000000000000000000000000000000000000000001490565b60405190151581526020015b60405180910390f35b60a2546200036c90600160b01b900461ffff1681565b60405161ffff90911681526020016200034d565b6200039762000391366004620034b3565b6200098a565b6040516200034d92919062003563565b620003be620003b8366004620035bd565b62000be5565b604080519384526020840192909252908201526060016200034d565b62000406620003eb366004620035e0565b609c602052600090815260409020546001600160a01b031681565b6040516001600160a01b0390911681526020016200034d565b6200046c620004303660046200360b565b60a2805461ffff909216600160a01b027fffffffffffffffffffff0000ffffffffffffffffffffffffffffffffffffffff909216919091179055565b005b620003416200047f366004620035e0565b60986020526000908152604090205460ff1681565b620004ab620004a5366004620035bd565b62000d21565b6040519081526020016200034d565b6200046c620004cb36600462003641565b60a2805473ffffffffffffffffffffffffffffffffffffffff19166001600160a01b0392909216919091179055565b6200046c6200050b36600462003661565b62000d53565b620004ab62000522366004620035e0565b609e6020526000908152604090205481565b6200046c62001029565b620005556200054f366004620035bd565b62001041565b6040516200034d919062003675565b60a25462000406906001600160a01b031681565b6033546001600160a01b031662000406565b6200046c6200059b3660046200372a565b62001374565b620005b8620005b2366004620035e0565b62001487565b6040516200034d9190620037ab565b620003be620005d8366004620035bd565b620014eb565b6200046c620005ef366004620037c0565b620016e5565b6200046c6200060636600462003864565b620017b5565b620004ab6200061d366004620035bd565b6200199c565b620006c362000634366004620035e0565b609b602052600090815260409020805460018201546002830154600390930154919290916001600160a01b03811690600160a01b810463ffffffff16907801000000000000000000000000000000000000000000000000810461ffff16907a010000000000000000000000000000000000000000000000000000810460ff1690600160d81b900462ffffff1688565b604080519889526020890197909752958701949094526001600160a01b03909216606086015263ffffffff16608085015261ffff1660a084015260ff1660c083015262ffffff1660e0820152610100016200034d565b620004ab6200072a366004620035e0565b620019b9565b60a15462000406906001600160a01b031681565b6200046c62000755366004620038e0565b620019db565b620004ab683635c9adc5dea0000081565b620007a76200077d36600462003a4c565b7fbc197c810000000000000000000000000000000000000000000000000000000095945050505050565b6040517fffffffff0000000000000000000000000000000000000000000000000000000090911681526020016200034d565b6200046c620007ea366004620038e0565b62001d6b565b6200046c6200080136600462003b08565b620020dd565b6200034162000818366004620035e0565b60976020526000908152604090205460ff1681565b620005b86200083e366004620035e0565b6200228c565b6200034162000855366004620035e0565b60996020526000908152604090205460ff1681565b6200046c6200087b366004620035bd565b620022ee565b6200046c6200089236600462003641565b60a1805473ffffffffffffffffffffffffffffffffffffffff19166001600160a01b0392909216919091179055565b620007a7620008d236600462003b87565b7ff23a6e610000000000000000000000000000000000000000000000000000000095945050505050565b6200046c6200090d36600462003641565b620023f8565b60a2546200036c90600160a01b900461ffff1681565b6200046c6200093a3660046200360b565b60a2805461ffff909216600160b01b027fffffffffffffffff0000ffffffffffffffffffffffffffffffffffffffffffff909216919091179055565b60a05462000406906001600160a01b031681565b606080848314620009c7576040517fb4fa3fb300000000000000000000000000000000000000000000000000000000815260040160405180910390fd5b8467ffffffffffffffff811115620009e357620009e36200390d565b60405190808252806020026020018201604052801562000a0d578160200160208202803683370190505b5091508467ffffffffffffffff81111562000a2c5762000a2c6200390d565b60405190808252806020026020018201604052801562000a56578160200160208202803683370190505b50905060005b8581101562000bdb57600085858381811062000a7c5762000a7c62003bf8565b60209081029290920135600081815260979093526040909220549192505060ff1662000adc576040517f12490742000000000000000000000000000000000000000000000000000000008152600481018290526024015b60405180910390fd5b6000818152609c6020908152604080832054815163313ce56760e01b815291516001600160a01b03909116939262000b68928692869263313ce56792600480820193918290030181865afa15801562000b39573d6000803e3d6000fd5b505050506040513d601f19601f8201168201806040525081019062000b5f919062003c1e565b60ff166200248e565b90508186858151811062000b805762000b8062003bf8565b60200260200101906001600160a01b031690816001600160a01b0316815250508085858151811062000bb65762000bb662003bf8565b602002602001018181525050505050808062000bd29062003c54565b91505062000a5c565b5094509492505050565b60008281526099602052604081205481908190859060ff1662000c38576040517fb918c6440000000000000000000000000000000000000000000000000000000081526004810182905260240162000ad3565b6000868152609b6020818152604080842060018101548552609e8352818520548552609c835281852054948b905292825260039092015460a254835163313ce56760e01b815293516001600160a01b039095169462000d1194600160a01b80850463ffffffff16958d95600160d81b900462ffffff16949190910461ffff1692889263313ce5679260048083019391928290030181865afa15801562000ce2573d6000803e3d6000fd5b505050506040513d601f19601f8201168201806040525081019062000d08919062003c1e565b60ff166200263b565b9199909850909650945050505050565b609f602052816000526040600020818154811062000d3e57600080fd5b90600052602060002001600091509150505481565b60208082013560009081526098909152604090205460ff1662000da9576040517fc88f99b40000000000000000000000000000000000000000000000000000000081526020820135600482015260240162000ad3565b803560009081526099602052604090205460ff161562000df9576040517f3903fb670000000000000000000000000000000000000000000000000000000081528135600482015260240162000ad3565b600062000e0d608083016060840162003641565b6001600160a01b03160362000e4e576040517f9fadf03200000000000000000000000000000000000000000000000000000000815260040160405180910390fd5b4262000e6160a083016080840162003c84565b63ffffffff161162000ebb5762000e7f60a082016080830162003c84565b6040517f8eab519c00000000000000000000000000000000000000000000000000000000815263ffffffff909116600482015260240162000ad3565b80356000908152609960209081526040808320805460ff19166001179055609b9091529020819062000eee828262003cd8565b5050609a8054600181810190925582357f44da158ba27f9252712a74ff6a55c5d531f69609f1f6e7f17c4443a8e2089be49091018190556020808401356000908152609f825260408120805494850181558152209091015560a0546001600160a01b031663731133e962000f69608084016060850162003641565b604080517fffffffff0000000000000000000000000000000000000000000000000000000060e085901b1681526001600160a01b039092166004830152843560248301528401356044820152608060648201526000608482015260a401600060405180830381600087803b15801562000fe157600080fd5b505af115801562000ff6573d6000803e3d6000fd5b5050604051833592507f2354c6982830f23074cbadd3a8326546827ca5be87b6cfe41e906c66e75cd9659150600090a250565b62001033620026da565b6200103f600062002736565b565b609a5460609060009067ffffffffffffffff8111156200106557620010656200390d565b604051908082528060200260200182016040528015620010cb57816020015b620010b76040518060a0016040528060008152602001600081526020016000815260200160008152602001600081525090565b815260200190600190039081620010845790505b5090506000805b609a5481101562001286576000609a8281548110620010f557620010f562003bf8565b6000918252602080832090910154808352609b90915260409091206003015490915061ffff780100000000000000000000000000000000000000000000000090910416861415806200115857506000818152609b60205260409020600101548714155b1562001165575062001271565b60a0546040517efdd58e000000000000000000000000000000000000000000000000000000008152306004820152602481018390526000916001600160a01b03169062fdd58e90604401602060405180830381865afa158015620011cd573d6000803e3d6000fd5b505050506040513d601f19601f82011682018060405250810190620011f3919062003e89565b905060008060006200120f85683635c9adc5dea00000620014eb565b9250925092506040518060a001604052808681526020018581526020018481526020018381526020018281525088888151811062001251576200125162003bf8565b60209081029190910101526200126987600162003ea3565b965050505050505b806200127d8162003c54565b915050620010d2565b508067ffffffffffffffff811115620012a357620012a36200390d565b6040519080825280602002602001820160405280156200130957816020015b620012f56040518060a0016040528060008152602001600081526020016000815260200160008152602001600081525090565b815260200190600190039081620012c25790505b50925060005b818110156200136b578281815181106200132d576200132d62003bf8565b60200260200101518482815181106200134a576200134a62003bf8565b60200260200101819052508080620013629062003c54565b9150506200130f565b50505092915050565b60008581526097602052604090205460ff1615620013c2576040517ff28363680000000000000000000000000000000000000000000000000000000081526004810186905260240162000ad3565b60008581526097602052604090819020805460ff19166001179055518490849084908490620013f19062003412565b62001400949392919062003ee4565b604051809103906000f0801580156200141d573d6000803e3d6000fd5b506000868152609c6020526040808220805473ffffffffffffffffffffffffffffffffffffffff19166001600160a01b039490941693909317909255905186917fafc348cb919473b1b9a1f5712a5d6d3176cdf7a5295bd4709b8cf37b5219832691a25050505050565b6000818152609f6020908152604091829020805483518184028101840190945280845260609392830182828015620014df57602002820191906000526020600020905b815481526020019060010190808311620014ca575b50505050509050919050565b60008281526099602052604081205481908190859060ff166200153e576040517fb918c6440000000000000000000000000000000000000000000000000000000081526004810182905260240162000ad3565b6000868152609b6020818152604080842060018101548552609e8352818520548552609c835281852054948b905292825260039092015460a254835163313ce56760e01b815293516001600160a01b03909516946200161994600160a01b840463ffffffff16948c94600160d81b900462ffffff1693600160b01b900461ffff1692889263313ce5679260048083019391928290030181865afa158015620015ea573d6000803e3d6000fd5b505050506040513d601f19601f8201168201806040525081019062001610919062003c1e565b60ff1662002795565b50506000888152609b60209081526040918290206003015460a254835163313ce56760e01b81529351949950620016d794600160a01b830463ffffffff16948b94600160d81b90940462ffffff1693600160b01b90930461ffff16926001600160a01b0389169263313ce5679260048082019392918290030181865afa158015620016a8573d6000803e3d6000fd5b505050506040513d601f19601f82011682018060405250810190620016ce919062003c1e565b60ff166200280c565b959890975094955050505050565b8483141580620016f55750848114155b156200172d576040517fb4fa3fb300000000000000000000000000000000000000000000000000000000815260040160405180910390fd5b60005b85811015620017ac576200179787878381811062001752576200175262003bf8565b905060200201358686848181106200176e576200176e62003bf8565b905060200201358585858181106200178a576200178a62003bf8565b9050602002013562001d6b565b80620017a38162003c54565b91505062001730565b50505050505050565b600054610100900460ff1615808015620017d65750600054600160ff909116105b80620017f25750303b158015620017f2575060005460ff166001145b620018665760405162461bcd60e51b815260206004820152602e60248201527f496e697469616c697a61626c653a20636f6e747261637420697320616c72656160448201527f647920696e697469616c697a6564000000000000000000000000000000000000606482015260840162000ad3565b6000805460ff1916600117905580156200188a576000805461ff0019166101001790555b6200189462002879565b6200189e62002902565b60a080546001600160a01b0380891673ffffffffffffffffffffffffffffffffffffffff199283161790925560a2805460a1805488861690851617905592851661ffff888116600160b01b027fffffffffffffffff0000ffffffffffffffffffffffffffffffffffffffffffff918b16600160a01b02919091167fffffffffffffffff00000000ffffffffffffffffffffffffffffffffffffffff9095169490941793909317909116919091179055801562001994576000805461ff0019169055604051600181527f7f26b83ff96e1f2b6a682f133852f6798a09c465da95921460cefb38474024989060200160405180910390a15b505050505050565b609d602052816000526040600020818154811062000d3e57600080fd5b609a8181548110620019ca57600080fd5b600091825260209091200154905081565b60026065540362001a2f5760405162461bcd60e51b815260206004820152601f60248201527f5265656e7472616e637947756172643a207265656e7472616e742063616c6c00604482015260640162000ad3565b6002606555600083815260996020526040902054839060ff1662001a83576040517fb918c6440000000000000000000000000000000000000000000000000000000081526004810182905260240162000ad3565b6000848152609b60209081526040808320600101548352609e8252808320548352609c9091528120546001600160a01b03166000868152609b602090815260408083206003015460a254825163313ce56760e01b815292519596509394859462001b3f94600160a01b80850463ffffffff16958d95600160d81b900462ffffff16949190930461ffff16926001600160a01b038b169263313ce567926004808401938290030181865afa15801562000ce2573d6000803e3d6000fd5b50915091508482101562001b8a576040517f23fd80cf000000000000000000000000000000000000000000000000000000008152600481018390526024810186905260440162000ad3565b6040517f40c10f19000000000000000000000000000000000000000000000000000000008152336004820152602481018390526001600160a01b038416906340c10f1990604401600060405180830381600087803b15801562001bec57600080fd5b505af115801562001c01573d6000803e3d6000fd5b505060a1546040517f40c10f190000000000000000000000000000000000000000000000000000000081526001600160a01b0391821660048201526024810185905290861692506340c10f199150604401600060405180830381600087803b15801562001c6d57600080fd5b505af115801562001c82573d6000803e3d6000fd5b505060a080546040517ff242432a000000000000000000000000000000000000000000000000000000008152336004820152306024820152604481018c9052606481018b90526084810192909252600060a48301526001600160a01b0316925063f242432a915060c401600060405180830381600087803b15801562001d0757600080fd5b505af115801562001d1c573d6000803e3d6000fd5b505060408051898152602081018690523393508a92507f996fd5dc95553bf61923ea1e658357de4a30175141a8fab02ae6ae2ed8c6d32e910160405180910390a3505060016065555050505050565b60026065540362001dbf5760405162461bcd60e51b815260206004820152601f60248201527f5265656e7472616e637947756172643a207265656e7472616e742063616c6c00604482015260640162000ad3565b6002606555600083815260996020526040902054839060ff1662001e13576040517fb918c6440000000000000000000000000000000000000000000000000000000081526004810182905260240162000ad3565b6000848152609b60209081526040808320600101548352609e8252808320548352609c9091528120546001600160a01b03166000868152609b602090815260408083206003015460a254825163313ce56760e01b8152925195965093948594859462001ed594600160a01b850463ffffffff16948d94600160d81b90910462ffffff1693600160b01b900461ffff16926001600160a01b038c169263313ce56792600480830193928290030181865afa158015620015ea573d6000803e3d6000fd5b9250925092506000831162001f1a576040517fa255ea500000000000000000000000000000000000000000000000000000000081526004810184905260240162000ad3565b8583101562001f60576040517f23fd80cf000000000000000000000000000000000000000000000000000000008152600481018490526024810187905260440162000ad3565b6040517f79cc6790000000000000000000000000000000000000000000000000000000008152336004820152602481018290526001600160a01b038516906379cc679090604401600060405180830381600087803b15801562001fc257600080fd5b505af115801562001fd7573d6000803e3d6000fd5b505060a15462001ff7925086915033906001600160a01b0316856200298b565b60a080546040517ff242432a000000000000000000000000000000000000000000000000000000008152306004820152336024820152604481018b9052606481018690526084810192909252600060a48301526001600160a01b03169063f242432a9060c401600060405180830381600087803b1580156200207857600080fd5b505af11580156200208d573d6000803e3d6000fd5b5050604080518a8152602081018790523393508b92507f0a2adf4ac4fa3544a2c794e5ba57a755d18102bb19672742fcc48f87e5c1fce3910160405180910390a350506001606555505050505050565b83821462002117576040517fb4fa3fb300000000000000000000000000000000000000000000000000000000815260040160405180910390fd5b60a2546001600160a01b031633146200215f576040517fd68a9ef700000000000000000000000000000000000000000000000000000000815233600482015260240162000ad3565b60005b848110156200199457600086868381811062002182576200218262003bf8565b905060200201602081019062002199919062003641565b9050806000868685818110620021b357620021b362003bf8565b6040517f40c10f190000000000000000000000000000000000000000000000000000000081526001600160a01b038981166004830152602090920293909301356024840181905293508416916340c10f199150604401600060405180830381600087803b1580156200222457600080fd5b505af115801562002239573d6000803e3d6000fd5b50506040518392506001600160a01b03861691507f2a4c118f91681e604a13a2fbe69bf4829feeab31b75c4de33b825ab6738d93d490600090a35050508080620022839062003c54565b91505062002162565b6000818152609d6020908152604091829020805483518184028101840190945280845260609392830182828015620014df5760200282019190600052602060002090815481526020019060010190808311620014ca5750505050509050919050565b60008281526097602052604090205460ff166200233b576040517f124907420000000000000000000000000000000000000000000000000000000081526004810183905260240162000ad3565b60008181526098602052604090205460ff161562002389576040517fc5e0852d0000000000000000000000000000000000000000000000000000000081526004810182905260240162000ad3565b6000828152609d6020908152604080832080546001818101835591855283852001859055848452609e83528184208690556098909252808320805460ff19169092179091555182917f1ac2092e16e28eef29d1832f3dc69da1b21284a1f3159d3b26cb238b22fe4f8a91a25050565b62002402620026da565b6001600160a01b038116620024805760405162461bcd60e51b815260206004820152602660248201527f4f776e61626c653a206e6577206f776e657220697320746865207a65726f206160448201527f6464726573730000000000000000000000000000000000000000000000000000606482015260840162000ad3565b6200248b8162002736565b50565b6000828152609d602052604081208190815b81548110156200262f576000828281548110620024c157620024c162003bf8565b6000918252602080832090910154808352609f90915260408220909250905b81548110156200261657600082828154811062002501576200250162003bf8565b600091825260208083209190910154808352609b909152604080832060a05491517efdd58e0000000000000000000000000000000000000000000000000000000081523060048201526024810184905292945092916001600160a01b039091169062fdd58e90604401602060405180830381865afa15801562002588573d6000803e3d6000fd5b505050506040513d601f19601f82011682018060405250810190620025ae919062003e89565b905080600003620025c25750505062002601565b6003820154620025ef90600160a01b810463ffffffff16908390600160d81b900462ffffff168e62002a4b565b620025fb908a62003ea3565b98505050505b806200260d8162003c54565b915050620024e0565b5050508080620026269062003c54565b915050620024a0565b50909150505b92915050565b6000806000806200264d878a62002aa0565b905060006200267862002661838b62003f0f565b6200266e88600a62004026565b620f424062002b41565b905060006200268b828961271062002b41565b905060006200269b828462004034565b9050600083620026ad8a600a62004026565b620026b9908e62003f0f565b620026c5919062004034565b919d929c50909a509098505050505050505050565b6033546001600160a01b031633146200103f5760405162461bcd60e51b815260206004820181905260248201527f4f776e61626c653a2063616c6c6572206973206e6f7420746865206f776e6572604482015260640162000ad3565b603380546001600160a01b0383811673ffffffffffffffffffffffffffffffffffffffff19831681179093556040519116919082907f8be0079c531659141344cd1fd0a4f28419497f9722a3daafe3b4186f6b6457e090600090a35050565b600080600080620027aa888761271062002b41565b90506000620027ba828a62004034565b90506000620027ca898c62002aa0565b90506000620027de83620f42408462002b41565b9050620027ed88600a62004026565b620027f9908262004060565b9c939b5091995091975050505050505050565b60008060006200281d868962002aa0565b905060006200283e62002831838a62003f0f565b6200266e87600a62004026565b90506200285a8161271062002854898262004034565b62002b41565b93506200286b848761271062002b41565b925050509550959350505050565b600054610100900460ff16620028f85760405162461bcd60e51b815260206004820152602b60248201527f496e697469616c697a61626c653a20636f6e7472616374206973206e6f74206960448201527f6e697469616c697a696e67000000000000000000000000000000000000000000606482015260840162000ad3565b6200103f62002bfc565b600054610100900460ff16620029815760405162461bcd60e51b815260206004820152602b60248201527f496e697469616c697a61626c653a20636f6e7472616374206973206e6f74206960448201527f6e697469616c697a696e67000000000000000000000000000000000000000000606482015260840162000ad3565b6200103f62002c86565b6040517f23b872dd000000000000000000000000000000000000000000000000000000008082526001600160a01b038581166004840152841660248301526044820183905290600080606483828a5af1620029ea573d6000803e3d6000fd5b50620029f68562002d0c565b62002a445760405162461bcd60e51b815260206004820152601960248201527f475076323a206661696c6564207472616e7366657246726f6d00000000000000604482015260640162000ad3565b5050505050565b60008062002a5a848762002aa0565b905062002a968162002a6d868862003f0f565b62002a79919062003f0f565b62002a8685600a62004026565b620028546002620f424062004083565b9695505050505050565b60008062002aaf428462002dc7565b90508060000362002ac757620f424091505062002635565b8060010362002ae85762002adf84620f424062004034565b91505062002635565b600062002af985620f424062004034565b9050600062002b0c82620f424062002e47565b9050600062002b288262002b2260018762004034565b62002e97565b905062002b368184620031de565b979650505050505050565b600080806000198587098587029250828110838203039150508060000362002b805783828162002b755762002b756200404a565b049250505062002bf5565b80841162002b8d57600080fd5b600084868809851960019081018716968790049682860381900495909211909303600082900391909104909201919091029190911760038402600290811880860282030280860282030280860282030280860282030280860282030280860290910302029150505b9392505050565b600054610100900460ff1662002c7b5760405162461bcd60e51b815260206004820152602b60248201527f496e697469616c697a61626c653a20636f6e7472616374206973206e6f74206960448201527f6e697469616c697a696e67000000000000000000000000000000000000000000606482015260840162000ad3565b6200103f3362002736565b600054610100900460ff1662002d055760405162461bcd60e51b815260206004820152602b60248201527f496e697469616c697a61626c653a20636f6e7472616374206973206e6f74206960448201527f6e697469616c697a696e67000000000000000000000000000000000000000000606482015260840162000ad3565b6001606555565b600062002d32565b62461bcd60e51b600052602060045280602452508060445260646000fd5b3d801562002d76576020811462002db45762002d707f475076323a206d616c666f726d6564207472616e7366657220726573756c7400601f62002d14565b62002dc1565b823b62002daa5762002daa7f475076323a206e6f74206120636f6e7472616374000000000000000000000000601462002d14565b6001915062002dc1565b3d6000803e600051151591505b50919050565b600062093a8083108062002ddd575062093a8082105b8062002de857508282105b1562002e2b576040517fe2ee7678000000000000000000000000000000000000000000000000000000008152600481018490526024810183905260440162000ad3565b62093a8062002e3b848462004034565b62002bf5919062004060565b60008160000362002e5757600080fd5b600062002e65848462003268565b90506f7fffffffffffffffffffffffffffffff6fffffffffffffffffffffffffffffffff8216111562002bf557600080fd5b600080600084600f0b12801562002eb15750826001166001145b905060008085600f0b1262002ec7578462002ecc565b846000035b6fffffffffffffffffffffffffffffffff16905070010000000000000000000000000000000068010000000000000000821162002f8457603f82901b91505b841562002f7b57600185161562002f22578102607f1c5b908002607f1c90600285161562002f39578102607f1c5b908002607f1c90600485161562002f50578102607f1c5b908002607f1c90600885161562002f67578102607f1c5b60049490941c93908002607f1c9062002f0b565b60401c6200317d565b603f6c0100000000000000000000000083101562002fa85760209290921b91601f19015b6e01000000000000000000000000000083101562002fea5760109290921b917ffffffffffffffffffffffffffffffffffffffffffffffffffffffffffffffff0015b6f010000000000000000000000000000008310156200302d5760089290921b917ffffffffffffffffffffffffffffffffffffffffffffffffffffffffffffffff8015b6f10000000000000000000000000000000831015620030705760049290921b917ffffffffffffffffffffffffffffffffffffffffffffffffffffffffffffffffc015b6f40000000000000000000000000000000831015620030b35760029290921b917ffffffffffffffffffffffffffffffffffffffffffffffffffffffffffffffffe015b6f80000000000000000000000000000000831015620030d85760019290921b91600019015b60005b8615620031655760408210620030f057600080fd5b60018716156200312557918302607f1c9181017001000000000000000000000000000000008311156200312557600192831c92015b928002607f1c9260019190911b9070010000000000000000000000000000000084106200315857600193841c9391909101905b600187901c9650620030db565b604081106200317357600080fd5b6040039190911c90505b6000836200318c578162003191565b816000035b90507fffffffffffffffffffffffffffffffff800000000000000000000000000000008112801590620031d457506f7fffffffffffffffffffffffffffffff8113155b62002a9657600080fd5b600081600003620031f25750600062002635565b600083600f0b12156200320457600080fd5b600f83900b6fffffffffffffffffffffffffffffffff8316810260401c90608084901c0277ffffffffffffffffffffffffffffffffffffffffffffffff8111156200324e57600080fd5b60401b81198111156200326057600080fd5b019392505050565b6000816000036200327857600080fd5b600077ffffffffffffffffffffffffffffffffffffffffffffffff8411620032b95782604085901b81620032b057620032b06200404a565b049050620033f4565b60c084811c6401000000008110620032d3576020918201911c5b620100008110620032e6576010918201911c5b6101008110620032f8576008918201911c5b6010811062003309576004918201911c5b600481106200331a576002918201911c5b600281106200332a576001820191505b60bf820360018603901c6001018260ff0387901b816200334e576200334e6200404a565b0492506fffffffffffffffffffffffffffffffff8311156200336f57600080fd5b608085901c83026fffffffffffffffffffffffffffffffff8616840260c088901c604089901b82811015620033a5576001820391505b608084901b92900382811015620033bd576001820391505b829003608084901c8214620033d657620033d662004094565b888181620033e857620033e86200404a565b04870196505050505050505b6fffffffffffffffffffffffffffffffff81111562002bf557600080fd5b61123f80620040ab83390190565b6000602082840312156200343357600080fd5b81357fffffffff000000000000000000000000000000000000000000000000000000008116811462002bf557600080fd5b60008083601f8401126200347757600080fd5b50813567ffffffffffffffff8111156200349057600080fd5b6020830191508360208260051b8501011115620034ac57600080fd5b9250929050565b60008060008060408587031215620034ca57600080fd5b843567ffffffffffffffff80821115620034e357600080fd5b620034f18883890162003464565b909650945060208701359150808211156200350b57600080fd5b506200351a8782880162003464565b95989497509550505050565b600081518084526020808501945080840160005b8381101562003558578151875295820195908201906001016200353a565b509495945050505050565b604080825283519082018190526000906020906060840190828701845b82811015620035a75781516001600160a01b03168452928401929084019060010162003580565b5050508381038285015262002a96818662003526565b60008060408385031215620035d157600080fd5b50508035926020909101359150565b600060208284031215620035f357600080fd5b5035919050565b61ffff811681146200248b57600080fd5b6000602082840312156200361e57600080fd5b813562002bf581620035fa565b6001600160a01b03811681146200248b57600080fd5b6000602082840312156200365457600080fd5b813562002bf5816200362b565b6000610100828403121562002dc157600080fd5b602080825282518282018190526000919060409081850190868401855b82811015620036d85781518051855286810151878601528581015186860152606080820151908601526080908101519085015260a0909301929085019060010162003692565b5091979650505050505050565b60008083601f840112620036f857600080fd5b50813567ffffffffffffffff8111156200371157600080fd5b602083019150836020828501011115620034ac57600080fd5b6000806000806000606086880312156200374357600080fd5b85359450602086013567ffffffffffffffff808211156200376357600080fd5b6200377189838a01620036e5565b909650945060408801359150808211156200378b57600080fd5b506200379a88828901620036e5565b969995985093965092949392505050565b60208152600062002bf5602083018462003526565b60008060008060008060608789031215620037da57600080fd5b863567ffffffffffffffff80821115620037f357600080fd5b620038018a838b0162003464565b909850965060208901359150808211156200381b57600080fd5b620038298a838b0162003464565b909650945060408901359150808211156200384357600080fd5b506200385289828a0162003464565b979a9699509497509295939492505050565b600080600080600060a086880312156200387d57600080fd5b85356200388a816200362b565b945060208601356200389c81620035fa565b93506040860135620038ae81620035fa565b92506060860135620038c0816200362b565b91506080860135620038d2816200362b565b809150509295509295909350565b600080600060608486031215620038f657600080fd5b505081359360208301359350604090920135919050565b634e487b7160e01b600052604160045260246000fd5b604051601f8201601f1916810167ffffffffffffffff811182821017156200394f576200394f6200390d565b604052919050565b600082601f8301126200396957600080fd5b8135602067ffffffffffffffff8211156200398857620039886200390d565b8160051b6200399982820162003923565b9283528481018201928281019087851115620039b457600080fd5b83870192505b8483101562002b3657823582529183019190830190620039ba565b600082601f830112620039e757600080fd5b813567ffffffffffffffff81111562003a045762003a046200390d565b62003a196020601f19601f8401160162003923565b81815284602083860101111562003a2f57600080fd5b816020850160208301376000918101602001919091529392505050565b600080600080600060a0868803121562003a6557600080fd5b853562003a72816200362b565b9450602086013562003a84816200362b565b9350604086013567ffffffffffffffff8082111562003aa257600080fd5b62003ab089838a0162003957565b9450606088013591508082111562003ac757600080fd5b62003ad589838a0162003957565b9350608088013591508082111562003aec57600080fd5b5062003afb88828901620039d5565b9150509295509295909350565b60008060008060006060868803121562003b2157600080fd5b853567ffffffffffffffff8082111562003b3a57600080fd5b62003b4889838a0162003464565b9097509550602088013591508082111562003b6257600080fd5b5062003b718882890162003464565b9094509250506040860135620038d2816200362b565b600080600080600060a0868803121562003ba057600080fd5b853562003bad816200362b565b9450602086013562003bbf816200362b565b93506040860135925060608601359150608086013567ffffffffffffffff81111562003bea57600080fd5b62003afb88828901620039d5565b634e487b7160e01b600052603260045260246000fd5b60ff811681146200248b57600080fd5b60006020828403121562003c3157600080fd5b815162002bf58162003c0e565b634e487b7160e01b600052601160045260246000fd5b6000600019820362003c6a5762003c6a62003c3e565b5060010190565b63ffffffff811681146200248b57600080fd5b60006020828403121562003c9757600080fd5b813562002bf58162003c71565b600081356200263581620035fa565b60008135620026358162003c0e565b6000813562ffffff811681146200263557600080fd5b81358155602082013560018201556040820135600282015560038101606083013562003d04816200362b565b8154608085013562003d168162003c71565b77ffffffff00000000000000000000000000000000000000008160a01b166001600160a01b0384167fffffffffffffffff00000000000000000000000000000000000000000000000084161717845550505062003dc562003d7a60a0850162003ca4565b82547fffffffffffff0000ffffffffffffffffffffffffffffffffffffffffffffffff1660c09190911b79ffff00000000000000000000000000000000000000000000000016178255565b62003e2362003dd760c0850162003cb3565b82547fffffffffff00ffffffffffffffffffffffffffffffffffffffffffffffffffff1660d09190911b7aff000000000000000000000000000000000000000000000000000016178255565b62003e8462003e3560e0850162003cc2565b82547fffff000000ffffffffffffffffffffffffffffffffffffffffffffffffffffff1660d89190911b7dffffff00000000000000000000000000000000000000000000000000000016178255565b505050565b60006020828403121562003e9c57600080fd5b5051919050565b8082018082111562002635576200263562003c3e565b818352818160208501375060006020828401015260006020601f19601f840116840101905092915050565b60408152600062003efa60408301868862003eb9565b828103602084015262002b3681858762003eb9565b808202811582820484141762002635576200263562003c3e565b600181815b8085111562003f6a57816000190482111562003f4e5762003f4e62003c3e565b8085161562003f5c57918102915b93841c939080029062003f2e565b509250929050565b60008262003f835750600162002635565b8162003f925750600062002635565b816001811462003fab576002811462003fb65762003fd6565b600191505062002635565b60ff84111562003fca5762003fca62003c3e565b50506001821b62002635565b5060208310610133831016604e8410600b841016171562003ffb575081810a62002635565b62004007838362003f29565b80600019048211156200401e576200401e62003c3e565b029392505050565b600062002bf5838362003f72565b8181038181111562002635576200263562003c3e565b634e487b7160e01b600052601260045260246000fd5b6000826200407e57634e487b7160e01b600052601260045260246000fd5b500490565b600062002bf560ff84168362003f72565b634e487b7160e01b600052600160045260246000fdfe60806040523480156200001157600080fd5b506040516200123f3803806200123f833981016040819052620000349162000193565b818160036200004483826200028c565b5060046200005382826200028c565b505050620000706200006a6200007860201b60201c565b6200007c565b505062000358565b3390565b600580546001600160a01b038381166001600160a01b0319831681179093556040519116919082907f8be0079c531659141344cd1fd0a4f28419497f9722a3daafe3b4186f6b6457e090600090a35050565b634e487b7160e01b600052604160045260246000fd5b600082601f830112620000f657600080fd5b81516001600160401b0380821115620001135762000113620000ce565b604051601f8301601f19908116603f011681019082821181831017156200013e576200013e620000ce565b816040528381526020925086838588010111156200015b57600080fd5b600091505b838210156200017f578582018301518183018401529082019062000160565b600093810190920192909252949350505050565b60008060408385031215620001a757600080fd5b82516001600160401b0380821115620001bf57600080fd5b620001cd86838701620000e4565b93506020850151915080821115620001e457600080fd5b50620001f385828601620000e4565b9150509250929050565b600181811c908216806200021257607f821691505b6020821081036200023357634e487b7160e01b600052602260045260246000fd5b50919050565b601f8211156200028757600081815260208120601f850160051c81016020861015620002625750805b601f850160051c820191505b8181101562000283578281556001016200026e565b5050505b505050565b81516001600160401b03811115620002a857620002a8620000ce565b620002c081620002b98454620001fd565b8462000239565b602080601f831160018114620002f85760008415620002df5750858301515b600019600386901b1c1916600185901b17855562000283565b600085815260208120601f198616915b82811015620003295788860151825594840194600190910190840162000308565b5085821015620003485787850151600019600388901b60f8161c191681555b5050505050600190811b01905550565b610ed780620003686000396000f3fe608060405234801561001057600080fd5b506004361061011b5760003560e01c806370a08231116100b257806395d89b4111610081578063a9059cbb11610066578063a9059cbb1461024a578063dd62ed3e1461025d578063f2fde38b1461029657600080fd5b806395d89b411461022f578063a457c2d71461023757600080fd5b806370a08231146101d0578063715018a6146101f957806379cc6790146102015780638da5cb5b1461021457600080fd5b8063313ce567116100ee578063313ce56714610186578063395093511461019557806340c10f19146101a857806342966c68146101bd57600080fd5b806306fdde0314610120578063095ea7b31461013e57806318160ddd1461016157806323b872dd14610173575b600080fd5b6101286102a9565b6040516101359190610c9d565b60405180910390f35b61015161014c366004610d25565b61033b565b6040519015158152602001610135565b6002545b604051908152602001610135565b610151610181366004610d4f565b610355565b60405160128152602001610135565b6101516101a3366004610d25565b610379565b6101bb6101b6366004610d25565b6103b8565b005b6101bb6101cb366004610d8b565b6103ce565b6101656101de366004610da4565b6001600160a01b031660009081526020819052604090205490565b6101bb6103db565b6101bb61020f366004610d25565b6103ef565b6005546040516001600160a01b039091168152602001610135565b610128610404565b610151610245366004610d25565b610413565b610151610258366004610d25565b6104c2565b61016561026b366004610dc6565b6001600160a01b03918216600090815260016020908152604080832093909416825291909152205490565b6101bb6102a4366004610da4565b6104d0565b6060600380546102b890610df9565b80601f01602080910402602001604051908101604052809291908181526020018280546102e490610df9565b80156103315780601f1061030657610100808354040283529160200191610331565b820191906000526020600020905b81548152906001019060200180831161031457829003601f168201915b5050505050905090565b60003361034981858561055d565b60019150505b92915050565b6000336103638582856106b6565b61036e858585610766565b506001949350505050565b3360008181526001602090815260408083206001600160a01b038716845290915281205490919061034990829086906103b3908790610e7b565b61055d565b6103c061097d565b6103ca82826109d7565b5050565b6103d83382610ab6565b50565b6103e361097d565b6103ed6000610c33565b565b6103fa8233836106b6565b6103ca8282610ab6565b6060600480546102b890610df9565b3360008181526001602090815260408083206001600160a01b0387168452909152812054909190838110156104b55760405162461bcd60e51b815260206004820152602560248201527f45524332303a2064656372656173656420616c6c6f77616e63652062656c6f7760448201527f207a65726f00000000000000000000000000000000000000000000000000000060648201526084015b60405180910390fd5b61036e828686840361055d565b600033610349818585610766565b6104d861097d565b6001600160a01b0381166105545760405162461bcd60e51b815260206004820152602660248201527f4f776e61626c653a206e6577206f776e657220697320746865207a65726f206160448201527f646472657373000000000000000000000000000000000000000000000000000060648201526084016104ac565b6103d881610c33565b6001600160a01b0383166105d85760405162461bcd60e51b8152602060048201526024808201527f45524332303a20617070726f76652066726f6d20746865207a65726f2061646460448201527f726573730000000000000000000000000000000000000000000000000000000060648201526084016104ac565b6001600160a01b0382166106545760405162461bcd60e51b815260206004820152602260248201527f45524332303a20617070726f766520746f20746865207a65726f20616464726560448201527f737300000000000000000000000000000000000000000000000000000000000060648201526084016104ac565b6001600160a01b0383811660008181526001602090815260408083209487168084529482529182902085905590518481527f8c5be1e5ebec7d5bd14f71427d1e84f3dd0314c0f7b2291e5b200ac8c7c3b92591015b60405180910390a3505050565b6001600160a01b038381166000908152600160209081526040808320938616835292905220547fffffffffffffffffffffffffffffffffffffffffffffffffffffffffffffffff811461076057818110156107535760405162461bcd60e51b815260206004820152601d60248201527f45524332303a20696e73756666696369656e7420616c6c6f77616e636500000060448201526064016104ac565b610760848484840361055d565b50505050565b6001600160a01b0383166107e25760405162461bcd60e51b815260206004820152602560248201527f45524332303a207472616e736665722066726f6d20746865207a65726f20616460448201527f647265737300000000000000000000000000000000000000000000000000000060648201526084016104ac565b6001600160a01b03821661085e5760405162461bcd60e51b815260206004820152602360248201527f45524332303a207472616e7366657220746f20746865207a65726f206164647260448201527f657373000000000000000000000000000000000000000000000000000000000060648201526084016104ac565b6001600160a01b038316600090815260208190526040902054818110156108ed5760405162461bcd60e51b815260206004820152602660248201527f45524332303a207472616e7366657220616d6f756e742065786365656473206260448201527f616c616e6365000000000000000000000000000000000000000000000000000060648201526084016104ac565b6001600160a01b03808516600090815260208190526040808220858503905591851681529081208054849290610924908490610e7b565b92505081905550826001600160a01b0316846001600160a01b03167fddf252ad1be2c89b69c2b068fc378daa952ba7f163c4a11628f55a4df523b3ef8460405161097091815260200190565b60405180910390a3610760565b6005546001600160a01b031633146103ed5760405162461bcd60e51b815260206004820181905260248201527f4f776e61626c653a2063616c6c6572206973206e6f7420746865206f776e657260448201526064016104ac565b6001600160a01b038216610a2d5760405162461bcd60e51b815260206004820152601f60248201527f45524332303a206d696e7420746f20746865207a65726f20616464726573730060448201526064016104ac565b8060026000828254610a3f9190610e7b565b90915550506001600160a01b03821660009081526020819052604081208054839290610a6c908490610e7b565b90915550506040518181526001600160a01b038316906000907fddf252ad1be2c89b69c2b068fc378daa952ba7f163c4a11628f55a4df523b3ef9060200160405180910390a35050565b6001600160a01b038216610b325760405162461bcd60e51b815260206004820152602160248201527f45524332303a206275726e2066726f6d20746865207a65726f2061646472657360448201527f730000000000000000000000000000000000000000000000000000000000000060648201526084016104ac565b6001600160a01b03821660009081526020819052604090205481811015610bc15760405162461bcd60e51b815260206004820152602260248201527f45524332303a206275726e20616d6f756e7420657863656564732062616c616e60448201527f636500000000000000000000000000000000000000000000000000000000000060648201526084016104ac565b6001600160a01b0383166000908152602081905260408120838303905560028054849290610bf0908490610e8e565b90915550506040518281526000906001600160a01b038516907fddf252ad1be2c89b69c2b068fc378daa952ba7f163c4a11628f55a4df523b3ef906020016106a9565b600580546001600160a01b038381167fffffffffffffffffffffffff0000000000000000000000000000000000000000831681179093556040519116919082907f8be0079c531659141344cd1fd0a4f28419497f9722a3daafe3b4186f6b6457e090600090a35050565b600060208083528351808285015260005b81811015610cca57858101830151858201604001528201610cae565b5060006040828601015260407fffffffffffffffffffffffffffffffffffffffffffffffffffffffffffffffe0601f8301168501019250505092915050565b80356001600160a01b0381168114610d2057600080fd5b919050565b60008060408385031215610d3857600080fd5b610d4183610d09565b946020939093013593505050565b600080600060608486031215610d6457600080fd5b610d6d84610d09565b9250610d7b60208501610d09565b9150604084013590509250925092565b600060208284031215610d9d57600080fd5b5035919050565b600060208284031215610db657600080fd5b610dbf82610d09565b9392505050565b60008060408385031215610dd957600080fd5b610de283610d09565b9150610df060208401610d09565b90509250929050565b600181811c90821680610e0d57607f821691505b602082108103610e46577f4e487b7100000000000000000000000000000000000000000000000000000000600052602260045260246000fd5b50919050565b7f4e487b7100000000000000000000000000000000000000000000000000000000600052601160045260246000fd5b8082018082111561034f5761034f610e4c565b8181038181111561034f5761034f610e4c56fea26469706673582212209c1b7b831cb5d916799f33adc32db0c182065af163a3d453f4d647211ed21ab664736f6c63430008110033a26469706673582212202ad34a0890a89e04395a82458515ed194c747e934bef2e88204c6f4a4f842ea964736f6c63430008110033",
  "devdoc": {
    "errors": {
      "UnauthorizedRewardMinting(address)": [
        {
          "details": "Thrown if minting weekly rewards is called by an unauthorized account"
        }
      ]
    },
    "kind": "dev",
    "methods": {
      "bulkDecollateralizeTokens(uint256[],uint256[],uint256[])": {
        "details": "Bulk-decollateralizes ERC20 tokens into multiple ERC1155 tokens with specified amountsprior to calling, msg.sender must approve SolidWorldManager to spend `sum(amountsIn)` ERC20 tokens",
        "params": {
          "_batchIds": "ids of the batches",
          "amountsIn": "ERC20 tokens to decollateralize",
          "amountsOutMin": "minimum output amounts of ERC1155 tokens for transaction to succeed"
        }
      },
      "collateralizeBatch(uint256,uint256,uint256)": {
        "details": "Collateralizes `amountIn` of ERC1155 tokens with id `batchId` for msg.senderprior to calling, msg.sender must approve SolidWorldManager to spend its ERC1155 tokens with id `batchId`nonReentrant, to avoid possible reentrancy after calling safeTransferFrom",
        "params": {
          "amountIn": "ERC1155 tokens to collateralize",
          "amountOutMin": "minimum output amount of ERC20 tokens for transaction to succeed",
          "batchId": "id of the batch"
        }
      },
      "computeWeeklyCarbonRewards(address[],uint256[])": {
        "params": {
          "_categoryIds": "The categories to which the incentivized assets belong",
          "assets": "The incentivized assets (LP tokens)"
        },
        "returns": {
          "carbonRewards": "List of carbon rewards getting distributed.",
          "rewardAmounts": "List of carbon reward amounts getting distributed"
        }
      },
      "decollateralizeTokens(uint256,uint256,uint256)": {
        "details": "Decollateralizes `amountIn` of ERC20 tokens and sends `amountOut` ERC1155 tokens with id `batchId` to msg.senderprior to calling, msg.sender must approve SolidWorldManager to spend `amountIn` ERC20 tokensnonReentrant, to avoid possible reentrancy after calling safeTransferFrom",
        "params": {
          "amountIn": "ERC20 tokens to decollateralize",
          "amountOutMin": "minimum output amount of ERC1155 tokens for transaction to succeed",
          "batchId": "id of the batch"
        }
      },
      "getBatchesDecollateralizationInfo(uint256,uint256)": {
        "details": "Computes relevant info for the decollateralization process involving batches that match the specified `projectId` and `vintage`",
        "params": {
          "projectId": "id of the project the batch belongs to",
          "vintage": "vintage of the batch"
        },
        "returns": {
          "result": "array of relevant info about matching batches"
        }
      },
      "mintWeeklyCarbonRewards(address[],uint256[],address)": {
        "params": {
          "carbonRewards": "List of carbon rewards to mint",
          "rewardAmounts": "List of carbon reward amounts to mint",
          "rewardsVault": "Account that secures ERC20 rewards"
        }
      },
      "owner()": {
        "details": "Returns the address of the current owner."
      },
      "renounceOwnership()": {
        "details": "Leaves the contract without owner. It will not be possible to call `onlyOwner` functions anymore. Can only be called by the current owner. NOTE: Renouncing ownership will leave the contract without an owner, thereby removing any functionality that is only available to the owner."
      },
      "setWeeklyRewardsMinter(address)": {
        "params": {
          "_weeklyRewardsMinter": "The only account allowed to mint weekly carbon rewards"
        }
      },
      "simulateBatchCollateralization(uint256,uint256)": {
        "details": "Simulates collateralization of `amountIn` ERC1155 tokens with id `batchId` for msg.sender",
        "params": {
          "amountIn": "ERC1155 tokens to collateralize",
          "batchId": "id of the batch"
        },
        "returns": {
          "cbtDaoCut": "ERC20 tokens to be received by feeReceiver",
          "cbtForfeited": "ERC20 tokens forfeited for collateralizing the ERC1155 tokens",
          "cbtUserCut": "ERC20 tokens to be received by msg.sender"
        }
      },
      "simulateDecollateralization(uint256,uint256)": {
        "details": "Simulates decollateralization of `amountIn` ERC20 tokens for ERC1155 tokens with id `batchId`",
        "params": {
          "amountIn": "ERC20 tokens to decollateralize",
          "batchId": "id of the batch"
        },
        "returns": {
          "amountOut": "ERC1155 tokens to be received by msg.sender",
          "minAmountIn": "minimum amount of ERC20 tokens to decollateralize `amountOut` ERC1155 tokens with id `batchId`",
          "minCbtDaoCut": "ERC20 tokens to be received by feeReceiver for decollateralizing minAmountIn ERC20 tokens"
        }
      },
      "supportsInterface(bytes4)": {
        "details": "Returns true if this contract implements the interface defined by `interfaceId`. See the corresponding https://eips.ethereum.org/EIPS/eip-165#how-interfaces-are-identified[EIP section] to learn more about how these ids are created. This function call must use less than 30 000 gas."
      },
      "transferOwnership(address)": {
        "details": "Transfers ownership of the contract to a new account (`newOwner`). Can only be called by the current owner."
      }
    },
    "stateVariables": {
      "batchCreated": {
        "details": "BatchId => isAdded"
      },
      "batches": {
        "details": "BatchId => Batch"
      },
      "categoryIds": {
        "details": "CategoryId => isAdded"
      },
      "categoryProjects": {
        "details": "CategoryId => ProjectId[]"
      },
      "categoryToken": {
        "details": "CategoryId => CollateralizedBasketToken address (ERC-20)"
      },
      "projectBatches": {
        "details": "ProjectId => BatchId[]"
      },
      "projectCategory": {
        "details": "ProjectId => CategoryId"
      },
      "projectIds": {
        "details": "ProjectId => isAdded"
      }
    },
    "version": 1
  },
  "userdoc": {
    "kind": "user",
    "methods": {
      "DECOLLATERALIZATION_SIMULATION_INPUT()": {
        "notice": "Constant used as input for decollateralization simulation for ordering batches with the same category and vintage"
      },
      "batchCreated(uint256)": {
        "notice": "Property is used for checking if Batch ID is already added"
      },
      "batchIds(uint256)": {
        "notice": "Stores all batch ids ever created"
      },
      "batches(uint256)": {
        "notice": "Property stores info about a batch"
      },
      "categoryIds(uint256)": {
        "notice": "Mapping is used for checking if Category ID is already added"
      },
      "categoryProjects(uint256,uint256)": {
        "notice": "Mapping determines what projects a category has"
      },
      "categoryToken(uint256)": {
        "notice": "Mapping determines a respective CollateralizedBasketToken (ERC-20) of a category"
      },
      "collateralizationFee()": {
        "notice": "Fee charged by DAO when collateralizing forward contract batch tokens."
      },
      "decollateralizationFee()": {
        "notice": "Fee charged by DAO when decollateralizing collateralized basket tokens."
      },
      "feeReceiver()": {
        "notice": "The account where all protocol fees are captured."
      },
      "forwardContractBatch()": {
        "notice": "Contract that operates forward contract batch tokens (ERC-1155). Allows this contract to mint tokens."
      },
      "projectBatches(uint256,uint256)": {
        "notice": "Mapping determines what batches a project has"
      },
      "projectCategory(uint256)": {
        "notice": "Mapping determines what category a project belongs to"
      },
      "projectIds(uint256)": {
        "notice": "Property is used for checking if Project ID is already added"
      },
      "weeklyRewardsMinter()": {
        "notice": "The only account that is allowed to mint weekly carbon rewards"
      }
    },
    "version": 1
  },
  "storageLayout": {
    "storage": [
      {
        "astId": 138,
        "contract": "contracts/SolidWorldManager.sol:SolidWorldManager",
        "label": "_initialized",
        "offset": 0,
        "slot": "0",
        "type": "t_uint8"
      },
      {
        "astId": 141,
        "contract": "contracts/SolidWorldManager.sol:SolidWorldManager",
        "label": "_initializing",
        "offset": 1,
        "slot": "0",
        "type": "t_bool"
      },
      {
        "astId": 666,
        "contract": "contracts/SolidWorldManager.sol:SolidWorldManager",
        "label": "__gap",
        "offset": 0,
        "slot": "1",
        "type": "t_array(t_uint256)50_storage"
      },
      {
        "astId": 10,
        "contract": "contracts/SolidWorldManager.sol:SolidWorldManager",
        "label": "_owner",
        "offset": 0,
        "slot": "51",
        "type": "t_address"
      },
      {
        "astId": 130,
        "contract": "contracts/SolidWorldManager.sol:SolidWorldManager",
        "label": "__gap",
        "offset": 0,
        "slot": "52",
        "type": "t_array(t_uint256)49_storage"
      },
      {
        "astId": 296,
        "contract": "contracts/SolidWorldManager.sol:SolidWorldManager",
        "label": "_status",
        "offset": 0,
        "slot": "101",
        "type": "t_uint256"
      },
      {
        "astId": 340,
        "contract": "contracts/SolidWorldManager.sol:SolidWorldManager",
        "label": "__gap",
        "offset": 0,
        "slot": "102",
        "type": "t_array(t_uint256)49_storage"
      },
      {
        "astId": 6711,
        "contract": "contracts/SolidWorldManager.sol:SolidWorldManager",
        "label": "categoryIds",
        "offset": 0,
        "slot": "151",
        "type": "t_mapping(t_uint256,t_bool)"
      },
      {
        "astId": 6716,
        "contract": "contracts/SolidWorldManager.sol:SolidWorldManager",
        "label": "projectIds",
        "offset": 0,
        "slot": "152",
        "type": "t_mapping(t_uint256,t_bool)"
      },
      {
        "astId": 6721,
        "contract": "contracts/SolidWorldManager.sol:SolidWorldManager",
        "label": "batchCreated",
        "offset": 0,
        "slot": "153",
        "type": "t_mapping(t_uint256,t_bool)"
      },
      {
        "astId": 6725,
        "contract": "contracts/SolidWorldManager.sol:SolidWorldManager",
        "label": "batchIds",
        "offset": 0,
        "slot": "154",
        "type": "t_array(t_uint256)dyn_storage"
      },
      {
        "astId": 6731,
        "contract": "contracts/SolidWorldManager.sol:SolidWorldManager",
        "label": "batches",
        "offset": 0,
        "slot": "155",
        "type": "t_mapping(t_uint256,t_struct(Batch)6691_storage)"
      },
      {
        "astId": 6737,
        "contract": "contracts/SolidWorldManager.sol:SolidWorldManager",
        "label": "categoryToken",
        "offset": 0,
        "slot": "156",
        "type": "t_mapping(t_uint256,t_contract(CollateralizedBasketToken)6236)"
      },
      {
        "astId": 6743,
        "contract": "contracts/SolidWorldManager.sol:SolidWorldManager",
        "label": "categoryProjects",
        "offset": 0,
        "slot": "157",
        "type": "t_mapping(t_uint256,t_array(t_uint256)dyn_storage)"
      },
      {
        "astId": 6748,
        "contract": "contracts/SolidWorldManager.sol:SolidWorldManager",
        "label": "projectCategory",
        "offset": 0,
        "slot": "158",
        "type": "t_mapping(t_uint256,t_uint256)"
      },
      {
        "astId": 6754,
        "contract": "contracts/SolidWorldManager.sol:SolidWorldManager",
        "label": "projectBatches",
        "offset": 0,
        "slot": "159",
        "type": "t_mapping(t_uint256,t_array(t_uint256)dyn_storage)"
      },
      {
        "astId": 6758,
        "contract": "contracts/SolidWorldManager.sol:SolidWorldManager",
        "label": "forwardContractBatch",
        "offset": 0,
        "slot": "160",
        "type": "t_contract(ForwardContractBatchToken)6296"
      },
      {
        "astId": 6761,
        "contract": "contracts/SolidWorldManager.sol:SolidWorldManager",
        "label": "feeReceiver",
        "offset": 0,
        "slot": "161",
        "type": "t_address"
      },
      {
        "astId": 6764,
        "contract": "contracts/SolidWorldManager.sol:SolidWorldManager",
        "label": "weeklyRewardsMinter",
        "offset": 0,
        "slot": "162",
        "type": "t_address"
      },
      {
        "astId": 6767,
        "contract": "contracts/SolidWorldManager.sol:SolidWorldManager",
        "label": "collateralizationFee",
        "offset": 20,
        "slot": "162",
        "type": "t_uint16"
      },
      {
        "astId": 6770,
        "contract": "contracts/SolidWorldManager.sol:SolidWorldManager",
        "label": "decollateralizationFee",
        "offset": 22,
        "slot": "162",
        "type": "t_uint16"
      }
    ],
    "types": {
      "t_address": {
        "encoding": "inplace",
        "label": "address",
        "numberOfBytes": "20"
      },
      "t_array(t_uint256)49_storage": {
        "base": "t_uint256",
        "encoding": "inplace",
        "label": "uint256[49]",
        "numberOfBytes": "1568"
      },
      "t_array(t_uint256)50_storage": {
        "base": "t_uint256",
        "encoding": "inplace",
        "label": "uint256[50]",
        "numberOfBytes": "1600"
      },
      "t_array(t_uint256)dyn_storage": {
        "base": "t_uint256",
        "encoding": "dynamic_array",
        "label": "uint256[]",
        "numberOfBytes": "32"
      },
      "t_bool": {
        "encoding": "inplace",
        "label": "bool",
        "numberOfBytes": "1"
      },
      "t_contract(CollateralizedBasketToken)6236": {
        "encoding": "inplace",
        "label": "contract CollateralizedBasketToken",
        "numberOfBytes": "20"
      },
      "t_contract(ForwardContractBatchToken)6296": {
        "encoding": "inplace",
        "label": "contract ForwardContractBatchToken",
        "numberOfBytes": "20"
      },
      "t_mapping(t_uint256,t_array(t_uint256)dyn_storage)": {
        "encoding": "mapping",
        "key": "t_uint256",
        "label": "mapping(uint256 => uint256[])",
        "numberOfBytes": "32",
        "value": "t_array(t_uint256)dyn_storage"
      },
      "t_mapping(t_uint256,t_bool)": {
        "encoding": "mapping",
        "key": "t_uint256",
        "label": "mapping(uint256 => bool)",
        "numberOfBytes": "32",
        "value": "t_bool"
      },
      "t_mapping(t_uint256,t_contract(CollateralizedBasketToken)6236)": {
        "encoding": "mapping",
        "key": "t_uint256",
        "label": "mapping(uint256 => contract CollateralizedBasketToken)",
        "numberOfBytes": "32",
        "value": "t_contract(CollateralizedBasketToken)6236"
      },
      "t_mapping(t_uint256,t_struct(Batch)6691_storage)": {
        "encoding": "mapping",
        "key": "t_uint256",
        "label": "mapping(uint256 => struct SolidWorldManager.Batch)",
        "numberOfBytes": "32",
        "value": "t_struct(Batch)6691_storage"
      },
      "t_mapping(t_uint256,t_uint256)": {
        "encoding": "mapping",
        "key": "t_uint256",
        "label": "mapping(uint256 => uint256)",
        "numberOfBytes": "32",
        "value": "t_uint256"
      },
      "t_struct(Batch)6691_storage": {
        "encoding": "inplace",
        "label": "struct SolidWorldManager.Batch",
        "members": [
          {
            "astId": 6676,
            "contract": "contracts/SolidWorldManager.sol:SolidWorldManager",
            "label": "id",
            "offset": 0,
            "slot": "0",
            "type": "t_uint256"
          },
          {
            "astId": 6678,
            "contract": "contracts/SolidWorldManager.sol:SolidWorldManager",
            "label": "projectId",
            "offset": 0,
            "slot": "1",
            "type": "t_uint256"
          },
          {
            "astId": 6680,
            "contract": "contracts/SolidWorldManager.sol:SolidWorldManager",
            "label": "totalAmount",
            "offset": 0,
            "slot": "2",
            "type": "t_uint256"
          },
          {
            "astId": 6682,
            "contract": "contracts/SolidWorldManager.sol:SolidWorldManager",
            "label": "owner",
            "offset": 0,
            "slot": "3",
            "type": "t_address"
          },
          {
            "astId": 6684,
            "contract": "contracts/SolidWorldManager.sol:SolidWorldManager",
            "label": "expectedDueDate",
            "offset": 20,
            "slot": "3",
            "type": "t_uint32"
          },
          {
            "astId": 6686,
            "contract": "contracts/SolidWorldManager.sol:SolidWorldManager",
            "label": "vintage",
            "offset": 24,
            "slot": "3",
            "type": "t_uint16"
          },
          {
            "astId": 6688,
            "contract": "contracts/SolidWorldManager.sol:SolidWorldManager",
            "label": "status",
            "offset": 26,
            "slot": "3",
            "type": "t_uint8"
          },
          {
            "astId": 6690,
            "contract": "contracts/SolidWorldManager.sol:SolidWorldManager",
            "label": "discountRate",
            "offset": 27,
            "slot": "3",
            "type": "t_uint24"
          }
        ],
        "numberOfBytes": "128"
      },
      "t_uint16": {
        "encoding": "inplace",
        "label": "uint16",
        "numberOfBytes": "2"
      },
      "t_uint24": {
        "encoding": "inplace",
        "label": "uint24",
        "numberOfBytes": "3"
      },
      "t_uint256": {
        "encoding": "inplace",
        "label": "uint256",
        "numberOfBytes": "32"
      },
      "t_uint32": {
        "encoding": "inplace",
        "label": "uint32",
        "numberOfBytes": "4"
      },
      "t_uint8": {
        "encoding": "inplace",
        "label": "uint8",
        "numberOfBytes": "1"
      }
    }
  }
}