{
  "address": "0xEE11cAdc80e8bb4e14dBC13C4616574538923949",
  "abi": [
    {
      "anonymous": false,
      "inputs": [
        {
          "indexed": false,
          "internalType": "uint8",
          "name": "version",
          "type": "uint8"
        }
      ],
      "name": "Initialized",
      "type": "event"
    },
    {
      "anonymous": false,
      "inputs": [
        {
          "indexed": true,
          "internalType": "address",
          "name": "previousOwner",
          "type": "address"
        },
        {
          "indexed": true,
          "internalType": "address",
          "name": "newOwner",
          "type": "address"
        }
      ],
      "name": "OwnershipTransferred",
      "type": "event"
    },
    {
      "inputs": [
        {
          "internalType": "uint256",
          "name": "categoryId",
          "type": "uint256"
        },
        {
          "internalType": "string",
          "name": "tokenName",
          "type": "string"
        },
        {
          "internalType": "string",
          "name": "tokenSymbol",
          "type": "string"
        }
      ],
      "name": "addCategory",
      "outputs": [],
      "stateMutability": "nonpayable",
      "type": "function"
    },
    {
      "inputs": [
        {
          "internalType": "uint256",
          "name": "",
          "type": "uint256"
        }
      ],
      "name": "categoryToken",
      "outputs": [
        {
          "internalType": "address",
          "name": "",
          "type": "address"
        }
      ],
      "stateMutability": "view",
      "type": "function"
    },
    {
      "inputs": [
        {
          "internalType": "contract Erc20Deployer",
          "name": "_erc20Deployer",
          "type": "address"
        }
      ],
      "name": "initialize",
      "outputs": [],
      "stateMutability": "nonpayable",
      "type": "function"
    },
    {
      "inputs": [],
      "name": "owner",
      "outputs": [
        {
          "internalType": "address",
          "name": "",
          "type": "address"
        }
      ],
      "stateMutability": "view",
      "type": "function"
    },
    {
      "inputs": [],
      "name": "renounceOwnership",
      "outputs": [],
      "stateMutability": "nonpayable",
      "type": "function"
    },
    {
      "inputs": [
        {
          "internalType": "address",
          "name": "newOwner",
          "type": "address"
        }
      ],
      "name": "transferOwnership",
      "outputs": [],
      "stateMutability": "nonpayable",
      "type": "function"
    }
  ],
  "transactionHash": "0x35952739662452125371add8331fca6fc7c7bb2f00dffa7ca9168f271250a8f8",
  "args": [],
  "numDeployments": 1,
  "solcInputHash": "eeaae24585c0220e0450196ee2c0b981",
  "bytecode": "0x608060405234801561001057600080fd5b50610de1806100206000396000f3fe608060405234801561001057600080fd5b50600436106100625760003560e01c806322cfa22514610067578063715018a6146100975780638da5cb5b146100a15780638eb79114146100bf578063c4d66de8146100db578063f2fde38b146100f7575b600080fd5b610081600480360381019061007c91906106f8565b610113565b60405161008e9190610766565b60405180910390f35b61009f610146565b005b6100a961015a565b6040516100b69190610766565b60405180910390f35b6100d960048036038101906100d491906108c7565b610184565b005b6100f560048036038101906100f09190610990565b610282565b005b610111600480360381019061010c91906109e9565b610402565b005b60666020528060005260406000206000915054906101000a900473ffffffffffffffffffffffffffffffffffffffff1681565b61014e610485565b6101586000610503565b565b6000603360009054906101000a900473ffffffffffffffffffffffffffffffffffffffff16905090565b6000606560009054906101000a900473ffffffffffffffffffffffffffffffffffffffff1673ffffffffffffffffffffffffffffffffffffffff166325d3b0443085856040518463ffffffff1660e01b81526004016101e593929190610a95565b6020604051808303816000875af1158015610204573d6000803e3d6000fd5b505050506040513d601f19601f820116820180604052508101906102289190610aef565b9050806066600086815260200190815260200160002060006101000a81548173ffffffffffffffffffffffffffffffffffffffff021916908373ffffffffffffffffffffffffffffffffffffffff16021790555050505050565b60008060019054906101000a900460ff161590508080156102b35750600160008054906101000a900460ff1660ff16105b806102e057506102c2306105c9565b1580156102df5750600160008054906101000a900460ff1660ff16145b5b61031f576040517f08c379a000000000000000000000000000000000000000000000000000000000815260040161031690610b8e565b60405180910390fd5b60016000806101000a81548160ff021916908360ff160217905550801561035c576001600060016101000a81548160ff0219169083151502179055505b81606560006101000a81548173ffffffffffffffffffffffffffffffffffffffff021916908373ffffffffffffffffffffffffffffffffffffffff1602179055506103a56105ec565b80156103fe5760008060016101000a81548160ff0219169083151502179055507f7f26b83ff96e1f2b6a682f133852f6798a09c465da95921460cefb384740249860016040516103f59190610c00565b60405180910390a15b5050565b61040a610485565b600073ffffffffffffffffffffffffffffffffffffffff168173ffffffffffffffffffffffffffffffffffffffff1603610479576040517f08c379a000000000000000000000000000000000000000000000000000000000815260040161047090610c8d565b60405180910390fd5b61048281610503565b50565b61048d610645565b73ffffffffffffffffffffffffffffffffffffffff166104ab61015a565b73ffffffffffffffffffffffffffffffffffffffff1614610501576040517f08c379a00000000000000000000000000000000000000000000000000000000081526004016104f890610cf9565b60405180910390fd5b565b6000603360009054906101000a900473ffffffffffffffffffffffffffffffffffffffff16905081603360006101000a81548173ffffffffffffffffffffffffffffffffffffffff021916908373ffffffffffffffffffffffffffffffffffffffff1602179055508173ffffffffffffffffffffffffffffffffffffffff168173ffffffffffffffffffffffffffffffffffffffff167f8be0079c531659141344cd1fd0a4f28419497f9722a3daafe3b4186f6b6457e060405160405180910390a35050565b6000808273ffffffffffffffffffffffffffffffffffffffff163b119050919050565b600060019054906101000a900460ff1661063b576040517f08c379a000000000000000000000000000000000000000000000000000000000815260040161063290610d8b565b60405180910390fd5b61064361064d565b565b600033905090565b600060019054906101000a900460ff1661069c576040517f08c379a000000000000000000000000000000000000000000000000000000000815260040161069390610d8b565b60405180910390fd5b6106ac6106a7610645565b610503565b565b6000604051905090565b600080fd5b600080fd5b6000819050919050565b6106d5816106c2565b81146106e057600080fd5b50565b6000813590506106f2816106cc565b92915050565b60006020828403121561070e5761070d6106b8565b5b600061071c848285016106e3565b91505092915050565b600073ffffffffffffffffffffffffffffffffffffffff82169050919050565b600061075082610725565b9050919050565b61076081610745565b82525050565b600060208201905061077b6000830184610757565b92915050565b600080fd5b600080fd5b6000601f19601f8301169050919050565b7f4e487b7100000000000000000000000000000000000000000000000000000000600052604160045260246000fd5b6107d48261078b565b810181811067ffffffffffffffff821117156107f3576107f261079c565b5b80604052505050565b60006108066106ae565b905061081282826107cb565b919050565b600067ffffffffffffffff8211156108325761083161079c565b5b61083b8261078b565b9050602081019050919050565b82818337600083830152505050565b600061086a61086584610817565b6107fc565b90508281526020810184848401111561088657610885610786565b5b610891848285610848565b509392505050565b600082601f8301126108ae576108ad610781565b5b81356108be848260208601610857565b91505092915050565b6000806000606084860312156108e0576108df6106b8565b5b60006108ee868287016106e3565b935050602084013567ffffffffffffffff81111561090f5761090e6106bd565b5b61091b86828701610899565b925050604084013567ffffffffffffffff81111561093c5761093b6106bd565b5b61094886828701610899565b9150509250925092565b600061095d82610745565b9050919050565b61096d81610952565b811461097857600080fd5b50565b60008135905061098a81610964565b92915050565b6000602082840312156109a6576109a56106b8565b5b60006109b48482850161097b565b91505092915050565b6109c681610745565b81146109d157600080fd5b50565b6000813590506109e3816109bd565b92915050565b6000602082840312156109ff576109fe6106b8565b5b6000610a0d848285016109d4565b91505092915050565b600081519050919050565b600082825260208201905092915050565b60005b83811015610a50578082015181840152602081019050610a35565b60008484015250505050565b6000610a6782610a16565b610a718185610a21565b9350610a81818560208601610a32565b610a8a8161078b565b840191505092915050565b6000606082019050610aaa6000830186610757565b8181036020830152610abc8185610a5c565b90508181036040830152610ad08184610a5c565b9050949350505050565b600081519050610ae9816109bd565b92915050565b600060208284031215610b0557610b046106b8565b5b6000610b1384828501610ada565b91505092915050565b7f496e697469616c697a61626c653a20636f6e747261637420697320616c72656160008201527f647920696e697469616c697a6564000000000000000000000000000000000000602082015250565b6000610b78602e83610a21565b9150610b8382610b1c565b604082019050919050565b60006020820190508181036000830152610ba781610b6b565b9050919050565b6000819050919050565b600060ff82169050919050565b6000819050919050565b6000610bea610be5610be084610bae565b610bc5565b610bb8565b9050919050565b610bfa81610bcf565b82525050565b6000602082019050610c156000830184610bf1565b92915050565b7f4f776e61626c653a206e6577206f776e657220697320746865207a65726f206160008201527f6464726573730000000000000000000000000000000000000000000000000000602082015250565b6000610c77602683610a21565b9150610c8282610c1b565b604082019050919050565b60006020820190508181036000830152610ca681610c6a565b9050919050565b7f4f776e61626c653a2063616c6c6572206973206e6f7420746865206f776e6572600082015250565b6000610ce3602083610a21565b9150610cee82610cad565b602082019050919050565b60006020820190508181036000830152610d1281610cd6565b9050919050565b7f496e697469616c697a61626c653a20636f6e7472616374206973206e6f74206960008201527f6e697469616c697a696e67000000000000000000000000000000000000000000602082015250565b6000610d75602b83610a21565b9150610d8082610d19565b604082019050919050565b60006020820190508181036000830152610da481610d68565b905091905056fea2646970667358221220582cdc43ce039b0620998abfa25d366a0b54c74beea8abde3c0d47e263a09f1b64736f6c63430008100033",
  "devdoc": {
    "kind": "dev",
    "methods": {
      "owner()": {
        "details": "Returns the address of the current owner."
      },
      "renounceOwnership()": {
        "details": "Leaves the contract without owner. It will not be possible to call `onlyOwner` functions anymore. Can only be called by the current owner. NOTE: Renouncing ownership will leave the contract without an owner, thereby removing any functionality that is only available to the owner."
      },
      "transferOwnership(address)": {
        "details": "Transfers ownership of the contract to a new account (`newOwner`). Can only be called by the current owner."
      }
    },
    "version": 1
  },
  "userdoc": {
    "kind": "user",
    "methods": {},
    "version": 1
  },
  "storageLayout": {
    "storage": [
      {
        "astId": 551,
        "contract": "contracts/SolidWorldManager.sol:SolidWorldManager",
        "label": "_initialized",
        "offset": 0,
        "slot": "0",
        "type": "t_uint8"
      },
      {
        "astId": 554,
        "contract": "contracts/SolidWorldManager.sol:SolidWorldManager",
        "label": "_initializing",
        "offset": 1,
        "slot": "0",
        "type": "t_bool"
      },
      {
        "astId": 3455,
        "contract": "contracts/SolidWorldManager.sol:SolidWorldManager",
        "label": "__gap",
        "offset": 0,
        "slot": "1",
        "type": "t_array(t_uint256)50_storage"
      },
      {
        "astId": 423,
        "contract": "contracts/SolidWorldManager.sol:SolidWorldManager",
        "label": "_owner",
        "offset": 0,
        "slot": "51",
        "type": "t_address"
      },
      {
        "astId": 543,
        "contract": "contracts/SolidWorldManager.sol:SolidWorldManager",
        "label": "__gap",
        "offset": 0,
        "slot": "52",
        "type": "t_array(t_uint256)49_storage"
      },
      {
        "astId": 8168,
        "contract": "contracts/SolidWorldManager.sol:SolidWorldManager",
        "label": "erc20Deployer",
        "offset": 0,
        "slot": "101",
        "type": "t_contract(Erc20Deployer)7235"
      },
      {
        "astId": 8172,
        "contract": "contracts/SolidWorldManager.sol:SolidWorldManager",
        "label": "categoryToken",
        "offset": 0,
        "slot": "102",
        "type": "t_mapping(t_uint256,t_address)"
      }
    ],
    "types": {
      "t_address": {
        "encoding": "inplace",
        "label": "address",
        "numberOfBytes": "20"
      },
      "t_array(t_uint256)49_storage": {
        "base": "t_uint256",
        "encoding": "inplace",
        "label": "uint256[49]",
        "numberOfBytes": "1568"
      },
      "t_array(t_uint256)50_storage": {
        "base": "t_uint256",
        "encoding": "inplace",
        "label": "uint256[50]",
        "numberOfBytes": "1600"
      },
      "t_bool": {
        "encoding": "inplace",
        "label": "bool",
        "numberOfBytes": "1"
      },
      "t_contract(Erc20Deployer)7235": {
        "encoding": "inplace",
        "label": "contract Erc20Deployer",
        "numberOfBytes": "20"
      },
      "t_mapping(t_uint256,t_address)": {
        "encoding": "mapping",
        "key": "t_uint256",
        "label": "mapping(uint256 => address)",
        "numberOfBytes": "32",
        "value": "t_address"
      },
      "t_uint256": {
        "encoding": "inplace",
        "label": "uint256",
        "numberOfBytes": "32"
      },
      "t_uint8": {
        "encoding": "inplace",
        "label": "uint8",
        "numberOfBytes": "1"
      }
    }
  }
}