{
  "address": "0x7F699754e05618b8917aB4221E3bc340150BbC92",
  "abi": [
    {
      "inputs": [
        {
          "internalType": "string",
          "name": "_name",
          "type": "string"
        },
        {
          "internalType": "string",
          "name": "_symbol",
          "type": "string"
        }
      ],
      "stateMutability": "nonpayable",
      "type": "constructor"
    },
    {
      "anonymous": false,
      "inputs": [
        {
          "indexed": true,
          "internalType": "address",
          "name": "owner",
          "type": "address"
        },
        {
          "indexed": true,
          "internalType": "address",
          "name": "spender",
          "type": "address"
        },
        {
          "indexed": false,
          "internalType": "uint256",
          "name": "value",
          "type": "uint256"
        }
      ],
      "name": "Approval",
      "type": "event"
    },
    {
      "anonymous": false,
      "inputs": [
        {
          "indexed": true,
          "internalType": "address",
          "name": "from",
          "type": "address"
        },
        {
          "indexed": true,
          "internalType": "address",
          "name": "to",
          "type": "address"
        },
        {
          "indexed": false,
          "internalType": "uint256",
          "name": "value",
          "type": "uint256"
        }
      ],
      "name": "Transfer",
      "type": "event"
    },
    {
      "inputs": [],
      "name": "DOMAIN_SEPARATOR",
      "outputs": [
        {
          "internalType": "bytes32",
          "name": "",
          "type": "bytes32"
        }
      ],
      "stateMutability": "view",
      "type": "function"
    },
    {
      "inputs": [
        {
          "internalType": "address",
          "name": "owner",
          "type": "address"
        },
        {
          "internalType": "address",
          "name": "spender",
          "type": "address"
        }
      ],
      "name": "allowance",
      "outputs": [
        {
          "internalType": "uint256",
          "name": "",
          "type": "uint256"
        }
      ],
      "stateMutability": "view",
      "type": "function"
    },
    {
      "inputs": [
        {
          "internalType": "address",
          "name": "spender",
          "type": "address"
        },
        {
          "internalType": "uint256",
          "name": "amount",
          "type": "uint256"
        }
      ],
      "name": "approve",
      "outputs": [
        {
          "internalType": "bool",
          "name": "",
          "type": "bool"
        }
      ],
      "stateMutability": "nonpayable",
      "type": "function"
    },
    {
      "inputs": [
        {
          "internalType": "address",
          "name": "account",
          "type": "address"
        }
      ],
      "name": "balanceOf",
      "outputs": [
        {
          "internalType": "uint256",
          "name": "",
          "type": "uint256"
        }
      ],
      "stateMutability": "view",
      "type": "function"
    },
    {
      "inputs": [
        {
          "internalType": "uint256",
          "name": "amount",
          "type": "uint256"
        }
      ],
      "name": "burn",
      "outputs": [],
      "stateMutability": "nonpayable",
      "type": "function"
    },
    {
      "inputs": [
        {
          "internalType": "address",
          "name": "account_",
          "type": "address"
        },
        {
          "internalType": "uint256",
          "name": "amount_",
          "type": "uint256"
        }
      ],
      "name": "burnFrom",
      "outputs": [],
      "stateMutability": "nonpayable",
      "type": "function"
    },
    {
      "inputs": [],
      "name": "decimals",
      "outputs": [
        {
          "internalType": "uint8",
          "name": "",
          "type": "uint8"
        }
      ],
      "stateMutability": "view",
      "type": "function"
    },
    {
      "inputs": [
        {
          "internalType": "address",
          "name": "spender",
          "type": "address"
        },
        {
          "internalType": "uint256",
          "name": "subtractedValue",
          "type": "uint256"
        }
      ],
      "name": "decreaseAllowance",
      "outputs": [
        {
          "internalType": "bool",
          "name": "",
          "type": "bool"
        }
      ],
      "stateMutability": "nonpayable",
      "type": "function"
    },
    {
      "inputs": [],
      "name": "deployer",
      "outputs": [
        {
          "internalType": "address",
          "name": "",
          "type": "address"
        }
      ],
      "stateMutability": "view",
      "type": "function"
    },
    {
      "inputs": [
        {
          "internalType": "address",
          "name": "spender",
          "type": "address"
        },
        {
          "internalType": "uint256",
          "name": "addedValue",
          "type": "uint256"
        }
      ],
      "name": "increaseAllowance",
      "outputs": [
        {
          "internalType": "bool",
          "name": "",
          "type": "bool"
        }
      ],
      "stateMutability": "nonpayable",
      "type": "function"
    },
    {
      "inputs": [
        {
          "internalType": "address",
          "name": "_treasury",
          "type": "address"
        }
      ],
      "name": "initialize",
      "outputs": [],
      "stateMutability": "nonpayable",
      "type": "function"
    },
    {
      "inputs": [],
      "name": "isInitialized",
      "outputs": [
        {
          "internalType": "bool",
          "name": "",
          "type": "bool"
        }
      ],
      "stateMutability": "view",
      "type": "function"
    },
    {
      "inputs": [
        {
          "internalType": "address",
          "name": "account_",
          "type": "address"
        },
        {
          "internalType": "uint256",
          "name": "amount_",
          "type": "uint256"
        }
      ],
      "name": "mint",
      "outputs": [],
      "stateMutability": "nonpayable",
      "type": "function"
    },
    {
      "inputs": [],
      "name": "name",
      "outputs": [
        {
          "internalType": "string",
          "name": "",
          "type": "string"
        }
      ],
      "stateMutability": "view",
      "type": "function"
    },
    {
      "inputs": [
        {
          "internalType": "address",
          "name": "owner",
          "type": "address"
        }
      ],
      "name": "nonces",
      "outputs": [
        {
          "internalType": "uint256",
          "name": "",
          "type": "uint256"
        }
      ],
      "stateMutability": "view",
      "type": "function"
    },
    {
      "inputs": [
        {
          "internalType": "address",
          "name": "owner",
          "type": "address"
        },
        {
          "internalType": "address",
          "name": "spender",
          "type": "address"
        },
        {
          "internalType": "uint256",
          "name": "value",
          "type": "uint256"
        },
        {
          "internalType": "uint256",
          "name": "deadline",
          "type": "uint256"
        },
        {
          "internalType": "uint8",
          "name": "v",
          "type": "uint8"
        },
        {
          "internalType": "bytes32",
          "name": "r",
          "type": "bytes32"
        },
        {
          "internalType": "bytes32",
          "name": "s",
          "type": "bytes32"
        }
      ],
      "name": "permit",
      "outputs": [],
      "stateMutability": "nonpayable",
      "type": "function"
    },
    {
      "inputs": [],
      "name": "symbol",
      "outputs": [
        {
          "internalType": "string",
          "name": "",
          "type": "string"
        }
      ],
      "stateMutability": "view",
      "type": "function"
    },
    {
      "inputs": [],
      "name": "totalSupply",
      "outputs": [
        {
          "internalType": "uint256",
          "name": "",
          "type": "uint256"
        }
      ],
      "stateMutability": "view",
      "type": "function"
    },
    {
      "inputs": [
        {
          "internalType": "address",
          "name": "to",
          "type": "address"
        },
        {
          "internalType": "uint256",
          "name": "amount",
          "type": "uint256"
        }
      ],
      "name": "transfer",
      "outputs": [
        {
          "internalType": "bool",
          "name": "",
          "type": "bool"
        }
      ],
      "stateMutability": "nonpayable",
      "type": "function"
    },
    {
      "inputs": [
        {
          "internalType": "address",
          "name": "from",
          "type": "address"
        },
        {
          "internalType": "address",
          "name": "to",
          "type": "address"
        },
        {
          "internalType": "uint256",
          "name": "amount",
          "type": "uint256"
        }
      ],
      "name": "transferFrom",
      "outputs": [
        {
          "internalType": "bool",
          "name": "",
          "type": "bool"
        }
      ],
      "stateMutability": "nonpayable",
      "type": "function"
    },
    {
      "inputs": [],
      "name": "treasury",
      "outputs": [
        {
          "internalType": "address",
          "name": "",
          "type": "address"
        }
      ],
      "stateMutability": "view",
      "type": "function"
    }
  ],
  "transactionHash": "0xfb7a81240d0a7d6cc60d20d1b68697139492265b3b37fbbb8c753fca3bdf423b",
  "args": [
    "AgricultureToken",
    "CTA"
  ],
  "numDeployments": 1,
  "solcInputHash": "ff44a7223596cd9c355a727819cd01e7",
  "bytecode": "0x6101406040523480156200001257600080fd5b50604051620033d1380380620033d1833981810160405281019062000038919062000363565b81806040518060400160405280600181526020017f31000000000000000000000000000000000000000000000000000000000000008152508484816003908162000083919062000633565b50806004908162000095919062000633565b50505060008280519060200120905060008280519060200120905060007f8b73c3c69bb8fe3d512ecc4cf759cc79239f7b179b0ffacaa9a75d522b39400f90508260e081815250508161010081815250504660a08181525050620001018184846200019460201b60201c565b608081815250503073ffffffffffffffffffffffffffffffffffffffff1660c08173ffffffffffffffffffffffffffffffffffffffff168152505080610120818152505050505050505033600860006101000a81548173ffffffffffffffffffffffffffffffffffffffff021916908373ffffffffffffffffffffffffffffffffffffffff1602179055505050620007e8565b60008383834630604051602001620001b19594939291906200078b565b6040516020818303038152906040528051906020012090509392505050565b6000604051905090565b600080fd5b600080fd5b600080fd5b600080fd5b6000601f19601f8301169050919050565b7f4e487b7100000000000000000000000000000000000000000000000000000000600052604160045260246000fd5b6200023982620001ee565b810181811067ffffffffffffffff821117156200025b576200025a620001ff565b5b80604052505050565b600062000270620001d0565b90506200027e82826200022e565b919050565b600067ffffffffffffffff821115620002a157620002a0620001ff565b5b620002ac82620001ee565b9050602081019050919050565b60005b83811015620002d9578082015181840152602081019050620002bc565b60008484015250505050565b6000620002fc620002f68462000283565b62000264565b9050828152602081018484840111156200031b576200031a620001e9565b5b62000328848285620002b9565b509392505050565b600082601f830112620003485762000347620001e4565b5b81516200035a848260208601620002e5565b91505092915050565b600080604083850312156200037d576200037c620001da565b5b600083015167ffffffffffffffff8111156200039e576200039d620001df565b5b620003ac8582860162000330565b925050602083015167ffffffffffffffff811115620003d057620003cf620001df565b5b620003de8582860162000330565b9150509250929050565b600081519050919050565b7f4e487b7100000000000000000000000000000000000000000000000000000000600052602260045260246000fd5b600060028204905060018216806200043b57607f821691505b602082108103620004515762000450620003f3565b5b50919050565b60008190508160005260206000209050919050565b60006020601f8301049050919050565b600082821b905092915050565b600060088302620004bb7fffffffffffffffffffffffffffffffffffffffffffffffffffffffffffffffff826200047c565b620004c786836200047c565b95508019841693508086168417925050509392505050565b6000819050919050565b6000819050919050565b6000620005146200050e6200050884620004df565b620004e9565b620004df565b9050919050565b6000819050919050565b6200053083620004f3565b620005486200053f826200051b565b84845462000489565b825550505050565b600090565b6200055f62000550565b6200056c81848462000525565b505050565b5b8181101562000594576200058860008262000555565b60018101905062000572565b5050565b601f821115620005e357620005ad8162000457565b620005b8846200046c565b81016020851015620005c8578190505b620005e0620005d7856200046c565b83018262000571565b50505b505050565b600082821c905092915050565b60006200060860001984600802620005e8565b1980831691505092915050565b6000620006238383620005f5565b9150826002028217905092915050565b6200063e82620003e8565b67ffffffffffffffff8111156200065a5762000659620001ff565b5b62000666825462000422565b6200067382828562000598565b600060209050601f831160018114620006ab576000841562000696578287015190505b620006a2858262000615565b86555062000712565b601f198416620006bb8662000457565b60005b82811015620006e557848901518255600182019150602085019450602081019050620006be565b8683101562000705578489015162000701601f891682620005f5565b8355505b6001600288020188555050505b505050505050565b6000819050919050565b6200072f816200071a565b82525050565b6200074081620004df565b82525050565b600073ffffffffffffffffffffffffffffffffffffffff82169050919050565b6000620007738262000746565b9050919050565b620007858162000766565b82525050565b600060a082019050620007a2600083018862000724565b620007b1602083018762000724565b620007c0604083018662000724565b620007cf606083018562000735565b620007de60808301846200077a565b9695505050505050565b60805160a05160c05160e0516101005161012051612b99620008386000396000611102015260006111440152600061112301526000611058015260006110ae015260006110d70152612b996000f3fe608060405234801561001057600080fd5b50600436106101075760003560e01c806306fdde031461010c578063095ea7b31461012a57806318160ddd1461015a57806323b872dd14610178578063313ce567146101a85780633644e515146101c6578063392e53cd146101e4578063395093511461020257806340c10f191461023257806342966c681461024e57806361d027b31461026a57806370a082311461028857806379cc6790146102b85780637ecebe00146102d457806395d89b4114610304578063a457c2d714610322578063a9059cbb14610352578063c4d66de814610382578063d505accf1461039e578063d5f39488146103ba578063dd62ed3e146103d8575b600080fd5b610114610408565b60405161012191906119ce565b60405180910390f35b610144600480360381019061013f9190611a89565b61049a565b6040516101519190611ae4565b60405180910390f35b6101626104bd565b60405161016f9190611b0e565b60405180910390f35b610192600480360381019061018d9190611b29565b6104c7565b60405161019f9190611ae4565b60405180910390f35b6101b06104f6565b6040516101bd9190611b98565b60405180910390f35b6101ce6104ff565b6040516101db9190611bcc565b60405180910390f35b6101ec61050e565b6040516101f99190611ae4565b60405180910390f35b61021c60048036038101906102179190611a89565b610521565b6040516102299190611ae4565b60405180910390f35b61024c60048036038101906102479190611a89565b610558565b005b61026860048036038101906102639190611be7565b610645565b005b610272610652565b60405161027f9190611c23565b60405180910390f35b6102a2600480360381019061029d9190611c3e565b610678565b6040516102af9190611b0e565b60405180910390f35b6102d260048036038101906102cd9190611a89565b6106c0565b005b6102ee60048036038101906102e99190611c3e565b6106ce565b6040516102fb9190611b0e565b60405180910390f35b61030c61071e565b60405161031991906119ce565b60405180910390f35b61033c60048036038101906103379190611a89565b6107b0565b6040516103499190611ae4565b60405180910390f35b61036c60048036038101906103679190611a89565b610827565b6040516103799190611ae4565b60405180910390f35b61039c60048036038101906103979190611c3e565b61084a565b005b6103b860048036038101906103b39190611cc3565b610989565b005b6103c2610acb565b6040516103cf9190611c23565b60405180910390f35b6103f260048036038101906103ed9190611d65565b610af1565b6040516103ff9190611b0e565b60405180910390f35b60606003805461041790611dd4565b80601f016020809104026020016040519081016040528092919081815260200182805461044390611dd4565b80156104905780601f1061046557610100808354040283529160200191610490565b820191906000526020600020905b81548152906001019060200180831161047357829003601f168201915b5050505050905090565b6000806104a5610b78565b90506104b2818585610b80565b600191505092915050565b6000600254905090565b6000806104d2610b78565b90506104df858285610d49565b6104ea858585610dd5565b60019150509392505050565b60006012905090565b6000610509611054565b905090565b600860149054906101000a900460ff1681565b60008061052c610b78565b905061054d81858561053e8589610af1565b6105489190611e34565b610b80565b600191505092915050565b600860149054906101000a900460ff166105a7576040517f08c379a000000000000000000000000000000000000000000000000000000000815260040161059e90611eb4565b60405180910390fd5b600760009054906101000a900473ffffffffffffffffffffffffffffffffffffffff1673ffffffffffffffffffffffffffffffffffffffff163373ffffffffffffffffffffffffffffffffffffffff1614610637576040517f08c379a000000000000000000000000000000000000000000000000000000000815260040161062e90611f46565b60405180910390fd5b610641828261116e565b5050565b61064f33826112cd565b50565b600760009054906101000a900473ffffffffffffffffffffffffffffffffffffffff1681565b60008060008373ffffffffffffffffffffffffffffffffffffffff1673ffffffffffffffffffffffffffffffffffffffff168152602001908152602001600020549050919050565b6106ca82826114a3565b5050565b6000610717600560008473ffffffffffffffffffffffffffffffffffffffff1673ffffffffffffffffffffffffffffffffffffffff168152602001908152602001600020611528565b9050919050565b60606004805461072d90611dd4565b80601f016020809104026020016040519081016040528092919081815260200182805461075990611dd4565b80156107a65780601f1061077b576101008083540402835291602001916107a6565b820191906000526020600020905b81548152906001019060200180831161078957829003601f168201915b5050505050905090565b6000806107bb610b78565b905060006107c98286610af1565b90508381101561080e576040517f08c379a000000000000000000000000000000000000000000000000000000000815260040161080590611fd8565b60405180910390fd5b61081b8286868403610b80565b60019250505092915050565b600080610832610b78565b905061083f818585610dd5565b600191505092915050565b3373ffffffffffffffffffffffffffffffffffffffff16600860009054906101000a900473ffffffffffffffffffffffffffffffffffffffff1673ffffffffffffffffffffffffffffffffffffffff16146108da576040517f08c379a00000000000000000000000000000000000000000000000000000000081526004016108d19061206a565b60405180910390fd5b600860149054906101000a900460ff161561092a576040517f08c379a0000000000000000000000000000000000000000000000000000000008152600401610921906120fc565b60405180910390fd5b80600760006101000a81548173ffffffffffffffffffffffffffffffffffffffff021916908373ffffffffffffffffffffffffffffffffffffffff1602179055506001600860146101000a81548160ff02191690831515021790555050565b834211156109cc576040517f08c379a00000000000000000000000000000000000000000000000000000000081526004016109c390612168565b60405180910390fd5b60007f6e71edae12b1b97f4d1f60370fef10105fa2faae0126114a169c64845d6126c98888886109fb8c611536565b89604051602001610a1196959493929190612188565b6040516020818303038152906040528051906020012090506000610a3482611594565b90506000610a44828787876115ae565b90508973ffffffffffffffffffffffffffffffffffffffff168173ffffffffffffffffffffffffffffffffffffffff1614610ab4576040517f08c379a0000000000000000000000000000000000000000000000000000000008152600401610aab90612235565b60405180910390fd5b610abf8a8a8a610b80565b50505050505050505050565b600860009054906101000a900473ffffffffffffffffffffffffffffffffffffffff1681565b6000600160008473ffffffffffffffffffffffffffffffffffffffff1673ffffffffffffffffffffffffffffffffffffffff16815260200190815260200160002060008373ffffffffffffffffffffffffffffffffffffffff1673ffffffffffffffffffffffffffffffffffffffff16815260200190815260200160002054905092915050565b600033905090565b600073ffffffffffffffffffffffffffffffffffffffff168373ffffffffffffffffffffffffffffffffffffffff1603610bef576040517f08c379a0000000000000000000000000000000000000000000000000000000008152600401610be6906122c7565b60405180910390fd5b600073ffffffffffffffffffffffffffffffffffffffff168273ffffffffffffffffffffffffffffffffffffffff1603610c5e576040517f08c379a0000000000000000000000000000000000000000000000000000000008152600401610c5590612359565b60405180910390fd5b80600160008573ffffffffffffffffffffffffffffffffffffffff1673ffffffffffffffffffffffffffffffffffffffff16815260200190815260200160002060008473ffffffffffffffffffffffffffffffffffffffff1673ffffffffffffffffffffffffffffffffffffffff168152602001908152602001600020819055508173ffffffffffffffffffffffffffffffffffffffff168373ffffffffffffffffffffffffffffffffffffffff167f8c5be1e5ebec7d5bd14f71427d1e84f3dd0314c0f7b2291e5b200ac8c7c3b92583604051610d3c9190611b0e565b60405180910390a3505050565b6000610d558484610af1565b90507fffffffffffffffffffffffffffffffffffffffffffffffffffffffffffffffff8114610dcf5781811015610dc1576040517f08c379a0000000000000000000000000000000000000000000000000000000008152600401610db8906123c5565b60405180910390fd5b610dce8484848403610b80565b5b50505050565b600073ffffffffffffffffffffffffffffffffffffffff168373ffffffffffffffffffffffffffffffffffffffff1603610e44576040517f08c379a0000000000000000000000000000000000000000000000000000000008152600401610e3b90612457565b60405180910390fd5b600073ffffffffffffffffffffffffffffffffffffffff168273ffffffffffffffffffffffffffffffffffffffff1603610eb3576040517f08c379a0000000000000000000000000000000000000000000000000000000008152600401610eaa906124e9565b60405180910390fd5b610ebe8383836115d9565b60008060008573ffffffffffffffffffffffffffffffffffffffff1673ffffffffffffffffffffffffffffffffffffffff16815260200190815260200160002054905081811015610f44576040517f08c379a0000000000000000000000000000000000000000000000000000000008152600401610f3b9061257b565b60405180910390fd5b8181036000808673ffffffffffffffffffffffffffffffffffffffff1673ffffffffffffffffffffffffffffffffffffffff16815260200190815260200160002081905550816000808573ffffffffffffffffffffffffffffffffffffffff1673ffffffffffffffffffffffffffffffffffffffff1681526020019081526020016000206000828254610fd79190611e34565b925050819055508273ffffffffffffffffffffffffffffffffffffffff168473ffffffffffffffffffffffffffffffffffffffff167fddf252ad1be2c89b69c2b068fc378daa952ba7f163c4a11628f55a4df523b3ef8460405161103b9190611b0e565b60405180910390a361104e8484846115de565b50505050565b60007f000000000000000000000000000000000000000000000000000000000000000073ffffffffffffffffffffffffffffffffffffffff163073ffffffffffffffffffffffffffffffffffffffff161480156110d057507f000000000000000000000000000000000000000000000000000000000000000046145b156110fd577f0000000000000000000000000000000000000000000000000000000000000000905061116b565b6111687f00000000000000000000000000000000000000000000000000000000000000007f00000000000000000000000000000000000000000000000000000000000000007f00000000000000000000000000000000000000000000000000000000000000006115e3565b90505b90565b600073ffffffffffffffffffffffffffffffffffffffff168273ffffffffffffffffffffffffffffffffffffffff16036111dd576040517f08c379a00000000000000000000000000000000000000000000000000000000081526004016111d4906125e7565b60405180910390fd5b6111e9600083836115d9565b80600260008282546111fb9190611e34565b92505081905550806000808473ffffffffffffffffffffffffffffffffffffffff1673ffffffffffffffffffffffffffffffffffffffff16815260200190815260200160002060008282546112509190611e34565b925050819055508173ffffffffffffffffffffffffffffffffffffffff16600073ffffffffffffffffffffffffffffffffffffffff167fddf252ad1be2c89b69c2b068fc378daa952ba7f163c4a11628f55a4df523b3ef836040516112b59190611b0e565b60405180910390a36112c9600083836115de565b5050565b600073ffffffffffffffffffffffffffffffffffffffff168273ffffffffffffffffffffffffffffffffffffffff160361133c576040517f08c379a000000000000000000000000000000000000000000000000000000000815260040161133390612679565b60405180910390fd5b611348826000836115d9565b60008060008473ffffffffffffffffffffffffffffffffffffffff1673ffffffffffffffffffffffffffffffffffffffff168152602001908152602001600020549050818110156113ce576040517f08c379a00000000000000000000000000000000000000000000000000000000081526004016113c59061270b565b60405180910390fd5b8181036000808573ffffffffffffffffffffffffffffffffffffffff1673ffffffffffffffffffffffffffffffffffffffff168152602001908152602001600020819055508160026000828254611425919061272b565b92505081905550600073ffffffffffffffffffffffffffffffffffffffff168373ffffffffffffffffffffffffffffffffffffffff167fddf252ad1be2c89b69c2b068fc378daa952ba7f163c4a11628f55a4df523b3ef8460405161148a9190611b0e565b60405180910390a361149e836000846115de565b505050565b60006114af8333610af1565b9050600082826114bf919061272b565b1015611500576040517f08c379a00000000000000000000000000000000000000000000000000000000081526004016114f7906127d1565b60405180910390fd5b818161150c919061272b565b9050611519833383610b80565b61152383836112cd565b505050565b600081600001549050919050565b600080600560008473ffffffffffffffffffffffffffffffffffffffff1673ffffffffffffffffffffffffffffffffffffffff168152602001908152602001600020905061158381611528565b915061158e8161161d565b50919050565b60006115a76115a1611054565b83611633565b9050919050565b60008060006115bf87878787611666565b915091506115cc81611772565b8192505050949350505050565b505050565b505050565b600083838346306040516020016115fe9594939291906127f1565b6040516020818303038152906040528051906020012090509392505050565b6001816000016000828254019250508190555050565b600082826040516020016116489291906128bc565b60405160208183030381529060405280519060200120905092915050565b6000807f7fffffffffffffffffffffffffffffff5d576e7357a4501ddfe92f46681b20a08360001c11156116a1576000600391509150611769565b601b8560ff16141580156116b95750601c8560ff1614155b156116cb576000600491509150611769565b6000600187878787604051600081526020016040526040516116f094939291906128f3565b6020604051602081039080840390855afa158015611712573d6000803e3d6000fd5b505050602060405103519050600073ffffffffffffffffffffffffffffffffffffffff168173ffffffffffffffffffffffffffffffffffffffff160361176057600060019250925050611769565b80600092509250505b94509492505050565b6000600481111561178657611785612938565b5b81600481111561179957611798612938565b5b031561193b57600160048111156117b3576117b2612938565b5b8160048111156117c6576117c5612938565b5b03611806576040517f08c379a00000000000000000000000000000000000000000000000000000000081526004016117fd906129b3565b60405180910390fd5b6002600481111561181a57611819612938565b5b81600481111561182d5761182c612938565b5b0361186d576040517f08c379a000000000000000000000000000000000000000000000000000000000815260040161186490612a1f565b60405180910390fd5b6003600481111561188157611880612938565b5b81600481111561189457611893612938565b5b036118d4576040517f08c379a00000000000000000000000000000000000000000000000000000000081526004016118cb90612ab1565b60405180910390fd5b6004808111156118e7576118e6612938565b5b8160048111156118fa576118f9612938565b5b0361193a576040517f08c379a000000000000000000000000000000000000000000000000000000000815260040161193190612b43565b60405180910390fd5b5b50565b600081519050919050565b600082825260208201905092915050565b60005b8381101561197857808201518184015260208101905061195d565b60008484015250505050565b6000601f19601f8301169050919050565b60006119a08261193e565b6119aa8185611949565b93506119ba81856020860161195a565b6119c381611984565b840191505092915050565b600060208201905081810360008301526119e88184611995565b905092915050565b600080fd5b600073ffffffffffffffffffffffffffffffffffffffff82169050919050565b6000611a20826119f5565b9050919050565b611a3081611a15565b8114611a3b57600080fd5b50565b600081359050611a4d81611a27565b92915050565b6000819050919050565b611a6681611a53565b8114611a7157600080fd5b50565b600081359050611a8381611a5d565b92915050565b60008060408385031215611aa057611a9f6119f0565b5b6000611aae85828601611a3e565b9250506020611abf85828601611a74565b9150509250929050565b60008115159050919050565b611ade81611ac9565b82525050565b6000602082019050611af96000830184611ad5565b92915050565b611b0881611a53565b82525050565b6000602082019050611b236000830184611aff565b92915050565b600080600060608486031215611b4257611b416119f0565b5b6000611b5086828701611a3e565b9350506020611b6186828701611a3e565b9250506040611b7286828701611a74565b9150509250925092565b600060ff82169050919050565b611b9281611b7c565b82525050565b6000602082019050611bad6000830184611b89565b92915050565b6000819050919050565b611bc681611bb3565b82525050565b6000602082019050611be16000830184611bbd565b92915050565b600060208284031215611bfd57611bfc6119f0565b5b6000611c0b84828501611a74565b91505092915050565b611c1d81611a15565b82525050565b6000602082019050611c386000830184611c14565b92915050565b600060208284031215611c5457611c536119f0565b5b6000611c6284828501611a3e565b91505092915050565b611c7481611b7c565b8114611c7f57600080fd5b50565b600081359050611c9181611c6b565b92915050565b611ca081611bb3565b8114611cab57600080fd5b50565b600081359050611cbd81611c97565b92915050565b600080600080600080600060e0888a031215611ce257611ce16119f0565b5b6000611cf08a828b01611a3e565b9750506020611d018a828b01611a3e565b9650506040611d128a828b01611a74565b9550506060611d238a828b01611a74565b9450506080611d348a828b01611c82565b93505060a0611d458a828b01611cae565b92505060c0611d568a828b01611cae565b91505092959891949750929550565b60008060408385031215611d7c57611d7b6119f0565b5b6000611d8a85828601611a3e565b9250506020611d9b85828601611a3e565b9150509250929050565b7f4e487b7100000000000000000000000000000000000000000000000000000000600052602260045260246000fd5b60006002820490506001821680611dec57607f821691505b602082108103611dff57611dfe611da5565b5b50919050565b7f4e487b7100000000000000000000000000000000000000000000000000000000600052601160045260246000fd5b6000611e3f82611a53565b9150611e4a83611a53565b9250828201905080821115611e6257611e61611e05565b5b92915050565b7f546f6b656e206e6565647320746f20626520696e697469616c697a6564000000600082015250565b6000611e9e601d83611949565b9150611ea982611e68565b602082019050919050565b60006020820190508181036000830152611ecd81611e91565b9050919050565b7f4f6e6c792054726561737572792063616e20706572666f726d2074686973206f60008201527f7065726174696f6e000000000000000000000000000000000000000000000000602082015250565b6000611f30602883611949565b9150611f3b82611ed4565b604082019050919050565b60006020820190508181036000830152611f5f81611f23565b9050919050565b7f45524332303a2064656372656173656420616c6c6f77616e63652062656c6f7760008201527f207a65726f000000000000000000000000000000000000000000000000000000602082015250565b6000611fc2602583611949565b9150611fcd82611f66565b604082019050919050565b60006020820190508181036000830152611ff181611fb5565b9050919050565b7f4f6e6c79204465706c6f796572206d75737420696e697469616c697a6520746860008201527f6520746f6b656e00000000000000000000000000000000000000000000000000602082015250565b6000612054602783611949565b915061205f82611ff8565b604082019050919050565b6000602082019050818103600083015261208381612047565b9050919050565b7f546f6b656e20616c726561647920686173206265656e20696e697469616c697a60008201527f6564000000000000000000000000000000000000000000000000000000000000602082015250565b60006120e6602283611949565b91506120f18261208a565b604082019050919050565b60006020820190508181036000830152612115816120d9565b9050919050565b7f45524332305065726d69743a206578706972656420646561646c696e65000000600082015250565b6000612152601d83611949565b915061215d8261211c565b602082019050919050565b6000602082019050818103600083015261218181612145565b9050919050565b600060c08201905061219d6000830189611bbd565b6121aa6020830188611c14565b6121b76040830187611c14565b6121c46060830186611aff565b6121d16080830185611aff565b6121de60a0830184611aff565b979650505050505050565b7f45524332305065726d69743a20696e76616c6964207369676e61747572650000600082015250565b600061221f601e83611949565b915061222a826121e9565b602082019050919050565b6000602082019050818103600083015261224e81612212565b9050919050565b7f45524332303a20617070726f76652066726f6d20746865207a65726f2061646460008201527f7265737300000000000000000000000000000000000000000000000000000000602082015250565b60006122b1602483611949565b91506122bc82612255565b604082019050919050565b600060208201905081810360008301526122e0816122a4565b9050919050565b7f45524332303a20617070726f766520746f20746865207a65726f20616464726560008201527f7373000000000000000000000000000000000000000000000000000000000000602082015250565b6000612343602283611949565b915061234e826122e7565b604082019050919050565b6000602082019050818103600083015261237281612336565b9050919050565b7f45524332303a20696e73756666696369656e7420616c6c6f77616e6365000000600082015250565b60006123af601d83611949565b91506123ba82612379565b602082019050919050565b600060208201905081810360008301526123de816123a2565b9050919050565b7f45524332303a207472616e736665722066726f6d20746865207a65726f20616460008201527f6472657373000000000000000000000000000000000000000000000000000000602082015250565b6000612441602583611949565b915061244c826123e5565b604082019050919050565b6000602082019050818103600083015261247081612434565b9050919050565b7f45524332303a207472616e7366657220746f20746865207a65726f206164647260008201527f6573730000000000000000000000000000000000000000000000000000000000602082015250565b60006124d3602383611949565b91506124de82612477565b604082019050919050565b60006020820190508181036000830152612502816124c6565b9050919050565b7f45524332303a207472616e7366657220616d6f756e742065786365656473206260008201527f616c616e63650000000000000000000000000000000000000000000000000000602082015250565b6000612565602683611949565b915061257082612509565b604082019050919050565b6000602082019050818103600083015261259481612558565b9050919050565b7f45524332303a206d696e7420746f20746865207a65726f206164647265737300600082015250565b60006125d1601f83611949565b91506125dc8261259b565b602082019050919050565b60006020820190508181036000830152612600816125c4565b9050919050565b7f45524332303a206275726e2066726f6d20746865207a65726f2061646472657360008201527f7300000000000000000000000000000000000000000000000000000000000000602082015250565b6000612663602183611949565b915061266e82612607565b604082019050919050565b6000602082019050818103600083015261269281612656565b9050919050565b7f45524332303a206275726e20616d6f756e7420657863656564732062616c616e60008201527f6365000000000000000000000000000000000000000000000000000000000000602082015250565b60006126f5602283611949565b915061270082612699565b604082019050919050565b60006020820190508181036000830152612724816126e8565b9050919050565b600061273682611a53565b915061274183611a53565b925082820390508181111561275957612758611e05565b5b92915050565b7f45524332303a206275726e20616d6f756e74206578636565647320616c6c6f7760008201527f616e636500000000000000000000000000000000000000000000000000000000602082015250565b60006127bb602483611949565b91506127c68261275f565b604082019050919050565b600060208201905081810360008301526127ea816127ae565b9050919050565b600060a0820190506128066000830188611bbd565b6128136020830187611bbd565b6128206040830186611bbd565b61282d6060830185611aff565b61283a6080830184611c14565b9695505050505050565b600081905092915050565b7f1901000000000000000000000000000000000000000000000000000000000000600082015250565b6000612885600283612844565b91506128908261284f565b600282019050919050565b6000819050919050565b6128b66128b182611bb3565b61289b565b82525050565b60006128c782612878565b91506128d382856128a5565b6020820191506128e382846128a5565b6020820191508190509392505050565b60006080820190506129086000830187611bbd565b6129156020830186611b89565b6129226040830185611bbd565b61292f6060830184611bbd565b95945050505050565b7f4e487b7100000000000000000000000000000000000000000000000000000000600052602160045260246000fd5b7f45434453413a20696e76616c6964207369676e61747572650000000000000000600082015250565b600061299d601883611949565b91506129a882612967565b602082019050919050565b600060208201905081810360008301526129cc81612990565b9050919050565b7f45434453413a20696e76616c6964207369676e6174757265206c656e67746800600082015250565b6000612a09601f83611949565b9150612a14826129d3565b602082019050919050565b60006020820190508181036000830152612a38816129fc565b9050919050565b7f45434453413a20696e76616c6964207369676e6174757265202773272076616c60008201527f7565000000000000000000000000000000000000000000000000000000000000602082015250565b6000612a9b602283611949565b9150612aa682612a3f565b604082019050919050565b60006020820190508181036000830152612aca81612a8e565b9050919050565b7f45434453413a20696e76616c6964207369676e6174757265202776272076616c60008201527f7565000000000000000000000000000000000000000000000000000000000000602082015250565b6000612b2d602283611949565b9150612b3882612ad1565b604082019050919050565b60006020820190508181036000830152612b5c81612b20565b905091905056fea2646970667358221220c34c1ef6e46ab9363b00062cbf35875602bd446dc89cf7c4c75111fefbb0f6a864736f6c63430008100033",
  "devdoc": {
    "author": "Solid World DAO",
    "kind": "dev",
    "methods": {
      "DOMAIN_SEPARATOR()": {
        "details": "See {IERC20Permit-DOMAIN_SEPARATOR}."
      },
      "allowance(address,address)": {
        "details": "See {IERC20-allowance}."
      },
      "approve(address,uint256)": {
        "details": "See {IERC20-approve}. NOTE: If `amount` is the maximum `uint256`, the allowance is not updated on `transferFrom`. This is semantically equivalent to an infinite approval. Requirements: - `spender` cannot be the zero address."
      },
      "balanceOf(address)": {
        "details": "See {IERC20-balanceOf}."
      },
      "decimals()": {
        "details": "Returns the number of decimals used to get its user representation. For example, if `decimals` equals `2`, a balance of `505` tokens should be displayed to a user as `5.05` (`505 / 10 ** 2`). Tokens usually opt for a value of 18, imitating the relationship between Ether and Wei. This is the value {ERC20} uses, unless this function is overridden; NOTE: This information is only used for _display_ purposes: it in no way affects any of the arithmetic of the contract, including {IERC20-balanceOf} and {IERC20-transfer}."
      },
      "decreaseAllowance(address,uint256)": {
        "details": "Atomically decreases the allowance granted to `spender` by the caller. This is an alternative to {approve} that can be used as a mitigation for problems described in {IERC20-approve}. Emits an {Approval} event indicating the updated allowance. Requirements: - `spender` cannot be the zero address. - `spender` must have allowance for the caller of at least `subtractedValue`."
      },
      "increaseAllowance(address,uint256)": {
        "details": "Atomically increases the allowance granted to `spender` by the caller. This is an alternative to {approve} that can be used as a mitigation for problems described in {IERC20-approve}. Emits an {Approval} event indicating the updated allowance. Requirements: - `spender` cannot be the zero address."
      },
      "name()": {
        "details": "Returns the name of the token."
      },
      "nonces(address)": {
        "details": "See {IERC20Permit-nonces}."
      },
      "permit(address,address,uint256,uint256,uint8,bytes32,bytes32)": {
        "details": "See {IERC20Permit-permit}."
      },
      "symbol()": {
        "details": "Returns the symbol of the token, usually a shorter version of the name."
      },
      "totalSupply()": {
        "details": "See {IERC20-totalSupply}."
      },
      "transfer(address,uint256)": {
        "details": "See {IERC20-transfer}. Requirements: - `to` cannot be the zero address. - the caller must have a balance of at least `amount`."
      },
      "transferFrom(address,address,uint256)": {
        "details": "See {IERC20-transferFrom}. Emits an {Approval} event indicating the updated allowance. This is not required by the EIP. See the note at the beginning of {ERC20}. NOTE: Does not update the allowance if the current allowance is the maximum `uint256`. Requirements: - `from` and `to` cannot be the zero address. - `from` must have a balance of at least `amount`. - the caller must have allowance for ``from``'s tokens of at least `amount`."
      }
    },
    "title": "CT ERC-20 Token Template",
    "version": 1
  },
  "userdoc": {
    "kind": "user",
    "methods": {},
    "notice": "CT Token ERC-20 Template",
    "version": 1
  },
  "storageLayout": {
    "storage": [
      {
        "astId": 3951,
        "contract": "contracts/CTERC20.sol:CTERC20TokenTemplate",
        "label": "_balances",
        "offset": 0,
        "slot": "0",
        "type": "t_mapping(t_address,t_uint256)"
      },
      {
        "astId": 3957,
        "contract": "contracts/CTERC20.sol:CTERC20TokenTemplate",
        "label": "_allowances",
        "offset": 0,
        "slot": "1",
        "type": "t_mapping(t_address,t_mapping(t_address,t_uint256))"
      },
      {
        "astId": 3959,
        "contract": "contracts/CTERC20.sol:CTERC20TokenTemplate",
        "label": "_totalSupply",
        "offset": 0,
        "slot": "2",
        "type": "t_uint256"
      },
      {
        "astId": 3961,
        "contract": "contracts/CTERC20.sol:CTERC20TokenTemplate",
        "label": "_name",
        "offset": 0,
        "slot": "3",
        "type": "t_string_storage"
      },
      {
        "astId": 3963,
        "contract": "contracts/CTERC20.sol:CTERC20TokenTemplate",
        "label": "_symbol",
        "offset": 0,
        "slot": "4",
        "type": "t_string_storage"
      },
      {
        "astId": 4647,
        "contract": "contracts/CTERC20.sol:CTERC20TokenTemplate",
        "label": "_nonces",
        "offset": 0,
        "slot": "5",
        "type": "t_mapping(t_address,t_struct(Counter)4860_storage)"
      },
      {
        "astId": 4655,
        "contract": "contracts/CTERC20.sol:CTERC20TokenTemplate",
        "label": "_PERMIT_TYPEHASH_DEPRECATED_SLOT",
        "offset": 0,
        "slot": "6",
        "type": "t_bytes32"
      },
      {
        "astId": 5740,
        "contract": "contracts/CTERC20.sol:CTERC20TokenTemplate",
        "label": "treasury",
        "offset": 0,
        "slot": "7",
        "type": "t_address"
      },
      {
        "astId": 5742,
        "contract": "contracts/CTERC20.sol:CTERC20TokenTemplate",
        "label": "deployer",
        "offset": 0,
        "slot": "8",
        "type": "t_address"
      },
      {
        "astId": 5744,
        "contract": "contracts/CTERC20.sol:CTERC20TokenTemplate",
        "label": "isInitialized",
        "offset": 20,
        "slot": "8",
        "type": "t_bool"
      }
    ],
    "types": {
      "t_address": {
        "encoding": "inplace",
        "label": "address",
        "numberOfBytes": "20"
      },
      "t_bool": {
        "encoding": "inplace",
        "label": "bool",
        "numberOfBytes": "1"
      },
      "t_bytes32": {
        "encoding": "inplace",
        "label": "bytes32",
        "numberOfBytes": "32"
      },
      "t_mapping(t_address,t_mapping(t_address,t_uint256))": {
        "encoding": "mapping",
        "key": "t_address",
        "label": "mapping(address => mapping(address => uint256))",
        "numberOfBytes": "32",
        "value": "t_mapping(t_address,t_uint256)"
      },
      "t_mapping(t_address,t_struct(Counter)4860_storage)": {
        "encoding": "mapping",
        "key": "t_address",
        "label": "mapping(address => struct Counters.Counter)",
        "numberOfBytes": "32",
        "value": "t_struct(Counter)4860_storage"
      },
      "t_mapping(t_address,t_uint256)": {
        "encoding": "mapping",
        "key": "t_address",
        "label": "mapping(address => uint256)",
        "numberOfBytes": "32",
        "value": "t_uint256"
      },
      "t_string_storage": {
        "encoding": "bytes",
        "label": "string",
        "numberOfBytes": "32"
      },
      "t_struct(Counter)4860_storage": {
        "encoding": "inplace",
        "label": "struct Counters.Counter",
        "members": [
          {
            "astId": 4859,
            "contract": "contracts/CTERC20.sol:CTERC20TokenTemplate",
            "label": "_value",
            "offset": 0,
            "slot": "0",
            "type": "t_uint256"
          }
        ],
        "numberOfBytes": "32"
      },
      "t_uint256": {
        "encoding": "inplace",
        "label": "uint256",
        "numberOfBytes": "32"
      }
    }
  }
}